{
  "_format": "hh-sol-artifact-1",
  "contractName": "Mars",
  "sourceName": "contracts/Mars.sol",
  "abi": [
    {
      "anonymous": false,
      "inputs": [
        {
          "indexed": true,
          "internalType": "address",
          "name": "previousOwner",
          "type": "address"
        },
        {
          "indexed": true,
          "internalType": "address",
          "name": "newOwner",
          "type": "address"
        }
      ],
      "name": "OwnershipTransferred",
      "type": "event"
    },
    {
      "inputs": [
        {
          "internalType": "uint256",
          "name": "",
          "type": "uint256"
        }
      ],
      "name": "ackPackets",
      "outputs": [
        {
          "components": [
            {
              "internalType": "string",
              "name": "portId",
              "type": "string"
            },
            {
              "internalType": "bytes32",
              "name": "channelId",
              "type": "bytes32"
            }
          ],
          "internalType": "struct IbcEndpoint",
          "name": "src",
          "type": "tuple"
        },
        {
          "components": [
            {
              "internalType": "string",
              "name": "portId",
              "type": "string"
            },
            {
              "internalType": "bytes32",
              "name": "channelId",
              "type": "bytes32"
            }
          ],
          "internalType": "struct IbcEndpoint",
          "name": "dest",
          "type": "tuple"
        },
        {
          "internalType": "uint64",
          "name": "sequence",
          "type": "uint64"
        },
        {
          "internalType": "bytes",
          "name": "data",
          "type": "bytes"
        },
        {
          "components": [
            {
              "internalType": "uint64",
              "name": "block",
              "type": "uint64"
            },
            {
              "internalType": "uint64",
              "name": "timestamp",
              "type": "uint64"
            }
          ],
          "internalType": "struct IbcTimeout",
          "name": "timeout",
          "type": "tuple"
        }
      ],
      "stateMutability": "view",
      "type": "function"
    },
    {
      "inputs": [
        {
          "internalType": "uint256",
          "name": "",
          "type": "uint256"
        }
      ],
      "name": "connectedChannels",
      "outputs": [
        {
          "internalType": "string",
          "name": "",
          "type": "string"
        }
      ],
      "stateMutability": "view",
      "type": "function"
    },
    {
      "inputs": [
        {
          "internalType": "address",
          "name": "dispatcher",
          "type": "address"
        },
        {
          "internalType": "string",
          "name": "message",
          "type": "string"
        },
        {
          "internalType": "bytes32",
          "name": "channelId",
          "type": "bytes32"
        }
      ],
      "name": "greet",
      "outputs": [],
      "stateMutability": "nonpayable",
      "type": "function"
    },
    {
      "inputs": [
        {
          "components": [
            {
              "components": [
                {
                  "internalType": "string",
                  "name": "portId",
                  "type": "string"
                },
                {
                  "internalType": "bytes32",
                  "name": "channelId",
                  "type": "bytes32"
                }
              ],
              "internalType": "struct IbcEndpoint",
              "name": "src",
              "type": "tuple"
            },
            {
              "components": [
                {
                  "internalType": "string",
                  "name": "portId",
                  "type": "string"
                },
                {
                  "internalType": "bytes32",
                  "name": "channelId",
                  "type": "bytes32"
                }
              ],
              "internalType": "struct IbcEndpoint",
              "name": "dest",
              "type": "tuple"
            },
            {
              "internalType": "uint64",
              "name": "sequence",
              "type": "uint64"
            },
            {
              "internalType": "bytes",
              "name": "data",
              "type": "bytes"
            },
            {
              "components": [
                {
                  "internalType": "uint64",
                  "name": "block",
                  "type": "uint64"
                },
                {
                  "internalType": "uint64",
                  "name": "timestamp",
                  "type": "uint64"
                }
              ],
              "internalType": "struct IbcTimeout",
              "name": "timeout",
              "type": "tuple"
            }
          ],
          "internalType": "struct IbcPacket",
          "name": "packet",
          "type": "tuple"
        }
      ],
      "name": "onAcknowledgementPacket",
      "outputs": [],
      "stateMutability": "nonpayable",
      "type": "function"
    },
    {
      "inputs": [
        {
          "internalType": "string",
          "name": "channelId",
          "type": "string"
        },
        {
          "internalType": "string",
          "name": "error",
          "type": "string"
        }
      ],
      "name": "onCloseIbcChannel",
      "outputs": [],
      "stateMutability": "nonpayable",
      "type": "function"
    },
    {
      "inputs": [
        {
          "internalType": "string",
          "name": "channelId",
          "type": "string"
        },
        {
          "internalType": "string",
          "name": "error",
          "type": "string"
        }
      ],
      "name": "onConnectIbcChannel",
      "outputs": [],
      "stateMutability": "nonpayable",
      "type": "function"
    },
    {
      "inputs": [
        {
          "internalType": "bytes32",
          "name": "channelId",
          "type": "bytes32"
        },
        {
          "internalType": "string",
          "name": "version",
          "type": "string"
        },
        {
          "internalType": "enum ChannelOrder",
          "name": "ordering",
          "type": "uint8"
        },
        {
          "internalType": "string[]",
          "name": "connectionHops",
          "type": "string[]"
        },
        {
          "internalType": "bytes32",
          "name": "counterPartyChannelId",
          "type": "bytes32"
        },
        {
          "internalType": "string",
          "name": "counterpartyPortId",
          "type": "string"
        },
        {
          "internalType": "string",
          "name": "counterpartyVersion",
          "type": "string"
        }
      ],
      "name": "onOpenIbcChannel",
      "outputs": [],
      "stateMutability": "nonpayable",
      "type": "function"
    },
    {
      "inputs": [
        {
          "components": [
            {
              "components": [
                {
                  "internalType": "string",
                  "name": "portId",
                  "type": "string"
                },
                {
                  "internalType": "bytes32",
                  "name": "channelId",
                  "type": "bytes32"
                }
              ],
              "internalType": "struct IbcEndpoint",
              "name": "src",
              "type": "tuple"
            },
            {
              "components": [
                {
                  "internalType": "string",
                  "name": "portId",
                  "type": "string"
                },
                {
                  "internalType": "bytes32",
                  "name": "channelId",
                  "type": "bytes32"
                }
              ],
              "internalType": "struct IbcEndpoint",
              "name": "dest",
              "type": "tuple"
            },
            {
              "internalType": "uint64",
              "name": "sequence",
              "type": "uint64"
            },
            {
              "internalType": "bytes",
              "name": "data",
              "type": "bytes"
            },
            {
              "components": [
                {
                  "internalType": "uint64",
                  "name": "block",
                  "type": "uint64"
                },
                {
                  "internalType": "uint64",
                  "name": "timestamp",
                  "type": "uint64"
                }
              ],
              "internalType": "struct IbcTimeout",
              "name": "timeout",
              "type": "tuple"
            }
          ],
          "internalType": "struct IbcPacket",
          "name": "packet",
          "type": "tuple"
        }
      ],
      "name": "onRecvPacket",
      "outputs": [],
      "stateMutability": "nonpayable",
      "type": "function"
    },
    {
      "inputs": [
        {
          "components": [
            {
              "components": [
                {
                  "internalType": "string",
                  "name": "portId",
                  "type": "string"
                },
                {
                  "internalType": "bytes32",
                  "name": "channelId",
                  "type": "bytes32"
                }
              ],
              "internalType": "struct IbcEndpoint",
              "name": "src",
              "type": "tuple"
            },
            {
              "components": [
                {
                  "internalType": "string",
                  "name": "portId",
                  "type": "string"
                },
                {
                  "internalType": "bytes32",
                  "name": "channelId",
                  "type": "bytes32"
                }
              ],
              "internalType": "struct IbcEndpoint",
              "name": "dest",
              "type": "tuple"
            },
            {
              "internalType": "uint64",
              "name": "sequence",
              "type": "uint64"
            },
            {
              "internalType": "bytes",
              "name": "data",
              "type": "bytes"
            },
            {
              "components": [
                {
                  "internalType": "uint64",
                  "name": "block",
                  "type": "uint64"
                },
                {
                  "internalType": "uint64",
                  "name": "timestamp",
                  "type": "uint64"
                }
              ],
              "internalType": "struct IbcTimeout",
              "name": "timeout",
              "type": "tuple"
            }
          ],
          "internalType": "struct IbcPacket",
          "name": "packet",
          "type": "tuple"
        }
      ],
      "name": "onTimeoutPacket",
      "outputs": [],
      "stateMutability": "nonpayable",
      "type": "function"
    },
    {
      "inputs": [
        {
          "internalType": "uint256",
          "name": "",
          "type": "uint256"
        }
      ],
      "name": "openChannels",
      "outputs": [
        {
          "internalType": "bytes32",
          "name": "",
          "type": "bytes32"
        }
      ],
      "stateMutability": "view",
      "type": "function"
    },
    {
      "inputs": [],
      "name": "owner",
      "outputs": [
        {
          "internalType": "address",
          "name": "",
          "type": "address"
        }
      ],
      "stateMutability": "view",
      "type": "function"
    },
    {
      "inputs": [
        {
          "internalType": "uint256",
          "name": "",
          "type": "uint256"
        }
      ],
      "name": "recvedPackets",
      "outputs": [
        {
          "components": [
            {
              "internalType": "string",
              "name": "portId",
              "type": "string"
            },
            {
              "internalType": "bytes32",
              "name": "channelId",
              "type": "bytes32"
            }
          ],
          "internalType": "struct IbcEndpoint",
          "name": "src",
          "type": "tuple"
        },
        {
          "components": [
            {
              "internalType": "string",
              "name": "portId",
              "type": "string"
            },
            {
              "internalType": "bytes32",
              "name": "channelId",
              "type": "bytes32"
            }
          ],
          "internalType": "struct IbcEndpoint",
          "name": "dest",
          "type": "tuple"
        },
        {
          "internalType": "uint64",
          "name": "sequence",
          "type": "uint64"
        },
        {
          "internalType": "bytes",
          "name": "data",
          "type": "bytes"
        },
        {
          "components": [
            {
              "internalType": "uint64",
              "name": "block",
              "type": "uint64"
            },
            {
              "internalType": "uint64",
              "name": "timestamp",
              "type": "uint64"
            }
          ],
          "internalType": "struct IbcTimeout",
          "name": "timeout",
          "type": "tuple"
        }
      ],
      "stateMutability": "view",
      "type": "function"
    },
    {
      "inputs": [],
      "name": "renounceOwnership",
      "outputs": [],
      "stateMutability": "nonpayable",
      "type": "function"
    },
    {
      "inputs": [
        {
          "internalType": "uint256",
          "name": "",
          "type": "uint256"
        }
      ],
      "name": "timeoutPackets",
      "outputs": [
        {
          "components": [
            {
              "internalType": "string",
              "name": "portId",
              "type": "string"
            },
            {
              "internalType": "bytes32",
              "name": "channelId",
              "type": "bytes32"
            }
          ],
          "internalType": "struct IbcEndpoint",
          "name": "src",
          "type": "tuple"
        },
        {
          "components": [
            {
              "internalType": "string",
              "name": "portId",
              "type": "string"
            },
            {
              "internalType": "bytes32",
              "name": "channelId",
              "type": "bytes32"
            }
          ],
          "internalType": "struct IbcEndpoint",
          "name": "dest",
          "type": "tuple"
        },
        {
          "internalType": "uint64",
          "name": "sequence",
          "type": "uint64"
        },
        {
          "internalType": "bytes",
          "name": "data",
          "type": "bytes"
        },
        {
          "components": [
            {
              "internalType": "uint64",
              "name": "block",
              "type": "uint64"
            },
            {
              "internalType": "uint64",
              "name": "timestamp",
              "type": "uint64"
            }
          ],
          "internalType": "struct IbcTimeout",
          "name": "timeout",
          "type": "tuple"
        }
      ],
      "stateMutability": "view",
      "type": "function"
    },
    {
      "inputs": [
        {
          "internalType": "address",
          "name": "newOwner",
          "type": "address"
        }
      ],
      "name": "transferOwnership",
      "outputs": [],
      "stateMutability": "nonpayable",
      "type": "function"
    }
  ],
  "bytecode": "0x60806040523480156200001157600080fd5b5062000032620000266200003860201b60201c565b6200004060201b60201c565b62000104565b600033905090565b60008060009054906101000a900473ffffffffffffffffffffffffffffffffffffffff169050816000806101000a81548173ffffffffffffffffffffffffffffffffffffffff021916908373ffffffffffffffffffffffffffffffffffffffff1602179055508173ffffffffffffffffffffffffffffffffffffffff168173ffffffffffffffffffffffffffffffffffffffff167f8be0079c531659141344cd1fd0a4f28419497f9722a3daafe3b4186f6b6457e060405160405180910390a35050565b6124fc80620001146000396000f3fe608060405234801561001057600080fd5b50600436106100f55760003560e01c80639d0c54f411610097578063f12b758a11610066578063f12b758a14610276578063f2fde38b146102aa578063f45cf5e4146102c6578063f6431b50146102e2576100f5565b80639d0c54f4146101de578063b058e81a1461020e578063b33c25771461022a578063bb3f9f8d14610246576100f5565b806352e33bf3116100d357806352e33bf31461017e5780636afd61741461019a578063715018a6146101b65780638da5cb5b146101c0576100f5565b80630a845081146100fa5780634252ae9b146101165780634eeb73911461014a575b600080fd5b610114600480360381019061010f91906111d7565b6102fe565b005b610130600480360381019061012b919061128e565b610342565b604051610141959493929190611460565b60405180910390f35b610164600480360381019061015f919061128e565b6105de565b604051610175959493929190611460565b60405180910390f35b6101986004803603810190610193919061156f565b61087a565b005b6101b460048036038101906101af91906111d7565b610887565b005b6101be6109df565b005b6101c86109f3565b6040516101d591906116d4565b60405180910390f35b6101f860048036038101906101f3919061128e565b610a1c565b60405161020591906116fe565b60405180910390f35b6102286004803603810190610223919061173d565b610a40565b005b610244600480360381019061023f919061173d565b610a7d565b005b610260600480360381019061025b919061128e565b610aba565b60405161026d91906117d0565b60405180910390f35b610290600480360381019061028b919061128e565b610b66565b6040516102a1959493929190611460565b60405180910390f35b6102c460048036038101906102bf919061181e565b610e02565b005b6102e060048036038101906102db919061173d565b610e86565b005b6102fc60048036038101906102f7919061184b565b610ec3565b005b600584849091806001815401808255809150506001900390600052602060002001600090919290919290919290919250919061033b929190611085565b5050505050565b6002818154811061035257600080fd5b906000526020600020906007020160009150905080600001604051806040016040529081600082018054610385906118ee565b80601f01602080910402602001604051908101604052809291908181526020018280546103b1906118ee565b80156103fe5780601f106103d3576101008083540402835291602001916103fe565b820191906000526020600020905b8154815290600101906020018083116103e157829003601f168201915b505050505081526020016001820154815250509080600201604051806040016040529081600082018054610431906118ee565b80601f016020809104026020016040519081016040528092919081815260200182805461045d906118ee565b80156104aa5780601f1061047f576101008083540402835291602001916104aa565b820191906000526020600020905b81548152906001019060200180831161048d57829003601f168201915b50505050508152602001600182015481525050908060040160009054906101000a900467ffffffffffffffff16908060050180546104e7906118ee565b80601f0160208091040260200160405190810160405280929190818152602001828054610513906118ee565b80156105605780601f1061053557610100808354040283529160200191610560565b820191906000526020600020905b81548152906001019060200180831161054357829003601f168201915b505050505090806006016040518060400160405290816000820160009054906101000a900467ffffffffffffffff1667ffffffffffffffff1667ffffffffffffffff1681526020016000820160089054906101000a900467ffffffffffffffff1667ffffffffffffffff1667ffffffffffffffff1681525050905085565b600381815481106105ee57600080fd5b906000526020600020906007020160009150905080600001604051806040016040529081600082018054610621906118ee565b80601f016020809104026020016040519081016040528092919081815260200182805461064d906118ee565b801561069a5780601f1061066f5761010080835404028352916020019161069a565b820191906000526020600020905b81548152906001019060200180831161067d57829003601f168201915b5050505050815260200160018201548152505090806002016040518060400160405290816000820180546106cd906118ee565b80601f01602080910402602001604051908101604052809291908181526020018280546106f9906118ee565b80156107465780601f1061071b57610100808354040283529160200191610746565b820191906000526020600020905b81548152906001019060200180831161072957829003601f168201915b50505050508152602001600182015481525050908060040160009054906101000a900467ffffffffffffffff1690806005018054610783906118ee565b80601f01602080910402602001604051908101604052809291908181526020018280546107af906118ee565b80156107fc5780601f106107d1576101008083540402835291602001916107fc565b820191906000526020600020905b8154815290600101906020018083116107df57829003601f168201915b505050505090806006016040518060400160405290816000820160009054906101000a900467ffffffffffffffff1667ffffffffffffffff1667ffffffffffffffff1681526020016000820160089054906101000a900467ffffffffffffffff1667ffffffffffffffff1667ffffffffffffffff1681525050905085565b5050505050505050505050565b60005b6004805490508110156109345784846040516108a792919061195f565b6040518091039020600482815481106108c3576108c2611978565b5b90600052602060002001546040516020016108de91906119c8565b604051602081830303815290604052805190602001201415610921576004818154811061090e5761090d611978565b5b9060005260206000200160009055610934565b808061092c90611a12565b91505061088a565b5060005b6005805490508110156109d857848460405161095592919061195f565b60405180910390206005828154811061097157610970611978565b5b906000526020600020016040516109889190611aef565b604051809103902014156109c557600581815481106109aa576109a9611978565b5b9060005260206000200160006109c0919061110b565b6109d8565b80806109d090611a12565b915050610938565b5050505050565b6109e7610f3b565b6109f16000610fb9565b565b60008060009054906101000a900473ffffffffffffffffffffffffffffffffffffffff16905090565b60048181548110610a2c57600080fd5b906000526020600020016000915090505481565b60018190806001815401808255809150506001900390600052602060002090600702016000909190919091508181610a789190612312565b505050565b60038190806001815401808255809150506001900390600052602060002090600702016000909190919091508181610ab59190612312565b505050565b60058181548110610aca57600080fd5b906000526020600020016000915090508054610ae5906118ee565b80601f0160208091040260200160405190810160405280929190818152602001828054610b11906118ee565b8015610b5e5780601f10610b3357610100808354040283529160200191610b5e565b820191906000526020600020905b815481529060010190602001808311610b4157829003601f168201915b505050505081565b60018181548110610b7657600080fd5b906000526020600020906007020160009150905080600001604051806040016040529081600082018054610ba9906118ee565b80601f0160208091040260200160405190810160405280929190818152602001828054610bd5906118ee565b8015610c225780601f10610bf757610100808354040283529160200191610c22565b820191906000526020600020905b815481529060010190602001808311610c0557829003601f168201915b505050505081526020016001820154815250509080600201604051806040016040529081600082018054610c55906118ee565b80601f0160208091040260200160405190810160405280929190818152602001828054610c81906118ee565b8015610cce5780601f10610ca357610100808354040283529160200191610cce565b820191906000526020600020905b815481529060010190602001808311610cb157829003601f168201915b50505050508152602001600182015481525050908060040160009054906101000a900467ffffffffffffffff1690806005018054610d0b906118ee565b80601f0160208091040260200160405190810160405280929190818152602001828054610d37906118ee565b8015610d845780601f10610d5957610100808354040283529160200191610d84565b820191906000526020600020905b815481529060010190602001808311610d6757829003601f168201915b505050505090806006016040518060400160405290816000820160009054906101000a900467ffffffffffffffff1667ffffffffffffffff1667ffffffffffffffff1681526020016000820160089054906101000a900467ffffffffffffffff1667ffffffffffffffff1667ffffffffffffffff1681525050905085565b610e0a610f3b565b600073ffffffffffffffffffffffffffffffffffffffff168173ffffffffffffffffffffffffffffffffffffffff161415610e7a576040517f08c379a0000000000000000000000000000000000000000000000000000000008152600401610e7190612392565b60405180910390fd5b610e8381610fb9565b50565b60028190806001815401808255809150506001900390600052602060002090600702016000909190919091508181610ebe9190612312565b505050565b8373ffffffffffffffffffffffffffffffffffffffff1663c3e1155c82858560006040518563ffffffff1660e01b8152600401610f03949392919061241a565b600060405180830381600087803b158015610f1d57600080fd5b505af1158015610f31573d6000803e3d6000fd5b5050505050505050565b610f4361107d565b73ffffffffffffffffffffffffffffffffffffffff16610f616109f3565b73ffffffffffffffffffffffffffffffffffffffff1614610fb7576040517f08c379a0000000000000000000000000000000000000000000000000000000008152600401610fae906124a6565b60405180910390fd5b565b60008060009054906101000a900473ffffffffffffffffffffffffffffffffffffffff169050816000806101000a81548173ffffffffffffffffffffffffffffffffffffffff021916908373ffffffffffffffffffffffffffffffffffffffff1602179055508173ffffffffffffffffffffffffffffffffffffffff168173ffffffffffffffffffffffffffffffffffffffff167f8be0079c531659141344cd1fd0a4f28419497f9722a3daafe3b4186f6b6457e060405160405180910390a35050565b600033905090565b828054611091906118ee565b90600052602060002090601f0160209004810192826110b357600085556110fa565b82601f106110cc57803560ff19168380011785556110fa565b828001600101855582156110fa579182015b828111156110f95782358255916020019190600101906110de565b5b509050611107919061114b565b5090565b508054611117906118ee565b6000825580601f106111295750611148565b601f016020900490600052602060002090810190611147919061114b565b5b50565b5b8082111561116457600081600090555060010161114c565b5090565b600080fd5b600080fd5b600080fd5b600080fd5b600080fd5b60008083601f84011261119757611196611172565b5b8235905067ffffffffffffffff8111156111b4576111b3611177565b5b6020830191508360018202830111156111d0576111cf61117c565b5b9250929050565b600080600080604085870312156111f1576111f0611168565b5b600085013567ffffffffffffffff81111561120f5761120e61116d565b5b61121b87828801611181565b9450945050602085013567ffffffffffffffff81111561123e5761123d61116d565b5b61124a87828801611181565b925092505092959194509250565b6000819050919050565b61126b81611258565b811461127657600080fd5b50565b60008135905061128881611262565b92915050565b6000602082840312156112a4576112a3611168565b5b60006112b284828501611279565b91505092915050565b600081519050919050565b600082825260208201905092915050565b60005b838110156112f55780820151818401526020810190506112da565b83811115611304576000848401525b50505050565b6000601f19601f8301169050919050565b6000611326826112bb565b61133081856112c6565b93506113408185602086016112d7565b6113498161130a565b840191505092915050565b6000819050919050565b61136781611354565b82525050565b6000604083016000830151848203600086015261138a828261131b565b915050602083015161139f602086018261135e565b508091505092915050565b600067ffffffffffffffff82169050919050565b6113c7816113aa565b82525050565b600081519050919050565b600082825260208201905092915050565b60006113f4826113cd565b6113fe81856113d8565b935061140e8185602086016112d7565b6114178161130a565b840191505092915050565b61142b816113aa565b82525050565b6040820160008201516114476000850182611422565b50602082015161145a6020850182611422565b50505050565b600060c082019050818103600083015261147a818861136d565b9050818103602083015261148e818761136d565b905061149d60408301866113be565b81810360608301526114af81856113e9565b90506114be6080830184611431565b9695505050505050565b6114d181611354565b81146114dc57600080fd5b50565b6000813590506114ee816114c8565b92915050565b6002811061150157600080fd5b50565b600081359050611513816114f4565b92915050565b60008083601f84011261152f5761152e611172565b5b8235905067ffffffffffffffff81111561154c5761154b611177565b5b6020830191508360208202830111156115685761156761117c565b5b9250929050565b600080600080600080600080600080600060e08c8e03121561159457611593611168565b5b60006115a28e828f016114df565b9b505060208c013567ffffffffffffffff8111156115c3576115c261116d565b5b6115cf8e828f01611181565b9a509a505060406115e28e828f01611504565b98505060608c013567ffffffffffffffff8111156116035761160261116d565b5b61160f8e828f01611519565b975097505060806116228e828f016114df565b95505060a08c013567ffffffffffffffff8111156116435761164261116d565b5b61164f8e828f01611181565b945094505060c08c013567ffffffffffffffff8111156116725761167161116d565b5b61167e8e828f01611181565b92509250509295989b509295989b9093969950565b600073ffffffffffffffffffffffffffffffffffffffff82169050919050565b60006116be82611693565b9050919050565b6116ce816116b3565b82525050565b60006020820190506116e960008301846116c5565b92915050565b6116f881611354565b82525050565b600060208201905061171360008301846116ef565b92915050565b600080fd5b600060c0828403121561173457611733611719565b5b81905092915050565b60006020828403121561175357611752611168565b5b600082013567ffffffffffffffff8111156117715761177061116d565b5b61177d8482850161171e565b91505092915050565b600082825260208201905092915050565b60006117a2826112bb565b6117ac8185611786565b93506117bc8185602086016112d7565b6117c58161130a565b840191505092915050565b600060208201905081810360008301526117ea8184611797565b905092915050565b6117fb816116b3565b811461180657600080fd5b50565b600081359050611818816117f2565b92915050565b60006020828403121561183457611833611168565b5b600061184284828501611809565b91505092915050565b6000806000806060858703121561186557611864611168565b5b600061187387828801611809565b945050602085013567ffffffffffffffff8111156118945761189361116d565b5b6118a087828801611181565b935093505060406118b3878288016114df565b91505092959194509250565b7f4e487b7100000000000000000000000000000000000000000000000000000000600052602260045260246000fd5b6000600282049050600182168061190657607f821691505b6020821081141561191a576119196118bf565b5b50919050565b600081905092915050565b82818337600083830152505050565b60006119468385611920565b935061195383858461192b565b82840190509392505050565b600061196c82848661193a565b91508190509392505050565b7f4e487b7100000000000000000000000000000000000000000000000000000000600052603260045260246000fd5b6000819050919050565b6119c26119bd82611354565b6119a7565b82525050565b60006119d482846119b1565b60208201915081905092915050565b7f4e487b7100000000000000000000000000000000000000000000000000000000600052601160045260246000fd5b6000611a1d82611258565b91507fffffffffffffffffffffffffffffffffffffffffffffffffffffffffffffffff821415611a5057611a4f6119e3565b5b600182019050919050565b60008190508160005260206000209050919050565b60008154611a7d816118ee565b611a878186611920565b94506001821660008114611aa25760018114611ab357611ae6565b60ff19831686528186019350611ae6565b611abc85611a5b565b60005b83811015611ade57815481890152600182019150602081019050611abf565b838801955050505b50505092915050565b6000611afb8284611a70565b915081905092915050565b600080fd5b600080fd5b600080fd5b600082356001604003833603038112611b3157611b30611b06565b5b80830191505092915050565b60008083356001602003843603038112611b5a57611b59611b06565b5b80840192508235915067ffffffffffffffff821115611b7c57611b7b611b0b565b5b602083019250600182023603831315611b9857611b97611b10565b5b509250929050565b600082905092915050565b7f4e487b7100000000000000000000000000000000000000000000000000000000600052604160045260246000fd5b60008190508160005260206000209050919050565b60006020601f8301049050919050565b600082821b905092915050565b600060088302611c3c7fffffffffffffffffffffffffffffffffffffffffffffffffffffffffffffffff82611bff565b611c468683611bff565b95508019841693508086168417925050509392505050565b6000819050919050565b6000611c83611c7e611c7984611258565b611c5e565b611258565b9050919050565b6000819050919050565b611c9d83611c68565b611cb1611ca982611c8a565b848454611c0c565b825550505050565b600090565b611cc6611cb9565b611cd1818484611c94565b505050565b5b81811015611cf557611cea600082611cbe565b600181019050611cd7565b5050565b601f821115611d3a57611d0b81611bda565b611d1484611bef565b81016020851015611d23578190505b611d37611d2f85611bef565b830182611cd6565b50505b505050565b600082821c905092915050565b6000611d5d60001984600802611d3f565b1980831691505092915050565b6000611d768383611d4c565b9150826002028217905092915050565b611d908383611ba0565b67ffffffffffffffff811115611da957611da8611bab565b5b611db382546118ee565b611dbe828285611cf9565b6000601f831160018114611ded5760008415611ddb578287013590505b611de58582611d6a565b865550611e4d565b601f198416611dfb86611bda565b60005b82811015611e2357848901358255600182019150602085019450602081019050611dfe565b86831015611e405784890135611e3c601f891682611d4c565b8355505b6001600288020188555050505b50505050505050565b611e61838383611d86565b505050565b60008135611e73816114c8565b80915050919050565b60008160001b9050919050565b60007fffffffffffffffffffffffffffffffffffffffffffffffffffffffffffffffff611eb584611e7c565b9350801983169250808416831791505092915050565b6000611ed682611354565b9050919050565b60008160001c9050919050565b6000611ef582611edd565b9050919050565b611f0582611ecb565b611f18611f1182611eea565b8354611e89565b8255505050565b6000810160008301611f318185611b3d565b611f3c818386611e56565b50505050600181016020830180611f5281611e66565b9050611f5e8184611efc565b5050505050565b611f6f8282611f1f565b5050565b611f7c816113aa565b8114611f8757600080fd5b50565b60008135611f9781611f73565b80915050919050565b600067ffffffffffffffff611fb484611e7c565b9350801983169250808416831791505092915050565b6000611fe5611fe0611fdb846113aa565b611c5e565b6113aa565b9050919050565b6000819050919050565b611fff82611fca565b61201261200b82611fec565b8354611fa0565b8255505050565b6000808335600160200384360303811261203657612035611b06565b5b80840192508235915067ffffffffffffffff82111561205857612057611b0b565b5b60208301925060018202360383131561207457612073611b10565b5b509250929050565b600082905092915050565b60008190508160005260206000209050919050565b601f8211156120dd576120ae81612087565b6120b784611bef565b810160208510156120c6578190505b6120da6120d285611bef565b830182611cd6565b50505b505050565b6120ec838361207c565b67ffffffffffffffff81111561210557612104611bab565b5b61210f82546118ee565b61211a82828561209c565b6000601f8311600181146121495760008415612137578287013590505b6121418582611d6a565b8655506121a9565b601f19841661215786612087565b60005b8281101561217f5784890135825560018201915060208501945060208101905061215a565b8683101561219c5784890135612198601f891682611d4c565b8355505b6001600288020188555050505b50505050505050565b6121bd8383836120e2565b505050565b60008160401b9050919050565b60006fffffffffffffffff00000000000000006121eb846121c2565b9350801983169250808416831791505092915050565b61220a82611fca565b61221d61221682611fec565b83546121cf565b8255505050565b60008101600083018061223681611f8a565b90506122428184611ff6565b50505060008101602083018061225781611f8a565b90506122638184612201565b5050505050565b6122748282612224565b5050565b600081016000830161228a8185611b15565b6122948184611f65565b50505060028101602083016122a98185611b15565b6122b38184611f65565b5050506004810160408301806122c881611f8a565b90506122d48184611ff6565b50505060058101606083016122e98185612019565b6122f48183866121b2565b5050505060068101608083018061230b818461226a565b5050505050565b61231c8282612278565b5050565b7f4f776e61626c653a206e6577206f776e657220697320746865207a65726f206160008201527f6464726573730000000000000000000000000000000000000000000000000000602082015250565b600061237c602683611786565b915061238782612320565b604082019050919050565b600060208201905081810360008301526123ab8161236f565b9050919050565b60006123be83856113d8565b93506123cb83858461192b565b6123d48361130a565b840190509392505050565b6000819050919050565b60006124046123ff6123fa846123df565b611c5e565b6113aa565b9050919050565b612414816123e9565b82525050565b600060608201905061242f60008301876116ef565b81810360208301526124428185876123b2565b9050612451604083018461240b565b95945050505050565b7f4f776e61626c653a2063616c6c6572206973206e6f7420746865206f776e6572600082015250565b6000612490602083611786565b915061249b8261245a565b602082019050919050565b600060208201905081810360008301526124bf81612483565b905091905056fea2646970667358221220c1027a37a069ac75aec7dd2240828f7a9fe495a69b68b5829918eafa9b649a5e64736f6c63430008090033",
  "linkReferences": {},
  "deployedLinkReferences": {}
}