{
  "_format": "hh-sol-artifact-1",
  "contractName": "Mars",
  "sourceName": "contracts/Mars.sol",
  "abi": [
    {
      "anonymous": false,
      "inputs": [
        {
          "indexed": true,
          "internalType": "address",
          "name": "previousOwner",
          "type": "address"
        },
        {
          "indexed": true,
          "internalType": "address",
          "name": "newOwner",
          "type": "address"
        }
      ],
      "name": "OwnershipTransferred",
      "type": "event"
    },
    {
      "inputs": [
        {
          "internalType": "uint256",
          "name": "",
          "type": "uint256"
        }
      ],
      "name": "ackPackets",
      "outputs": [
        {
          "components": [
            {
              "internalType": "string",
              "name": "portId",
              "type": "string"
            },
            {
              "internalType": "bytes32",
              "name": "channelId",
              "type": "bytes32"
            }
          ],
          "internalType": "struct IbcEndpoint",
          "name": "src",
          "type": "tuple"
        },
        {
          "components": [
            {
              "internalType": "string",
              "name": "portId",
              "type": "string"
            },
            {
              "internalType": "bytes32",
              "name": "channelId",
              "type": "bytes32"
            }
          ],
          "internalType": "struct IbcEndpoint",
          "name": "dest",
          "type": "tuple"
        },
        {
          "internalType": "uint64",
          "name": "sequence",
          "type": "uint64"
        },
        {
          "internalType": "bytes",
          "name": "data",
          "type": "bytes"
        },
        {
          "components": [
            {
              "internalType": "uint64",
              "name": "blockHeight",
              "type": "uint64"
            },
            {
              "internalType": "uint64",
              "name": "timestamp",
              "type": "uint64"
            }
          ],
          "internalType": "struct IbcTimeout",
          "name": "timeout",
          "type": "tuple"
        }
      ],
      "stateMutability": "view",
      "type": "function"
    },
    {
      "inputs": [
        {
          "internalType": "uint256",
          "name": "",
          "type": "uint256"
        }
      ],
      "name": "connectedChannels",
      "outputs": [
        {
          "internalType": "bytes32",
          "name": "",
          "type": "bytes32"
        }
      ],
      "stateMutability": "view",
      "type": "function"
    },
    {
      "inputs": [
        {
          "internalType": "contract IbcDispatcher",
          "name": "dispatcher",
          "type": "address"
        },
        {
          "internalType": "string",
          "name": "message",
          "type": "string"
        },
        {
          "internalType": "bytes32",
          "name": "channelId",
          "type": "bytes32"
        },
        {
          "internalType": "uint64",
          "name": "timeoutTimestamp",
          "type": "uint64"
        },
        {
          "internalType": "uint256",
          "name": "fee",
          "type": "uint256"
        }
      ],
      "name": "greet",
      "outputs": [],
      "stateMutability": "payable",
      "type": "function"
    },
    {
      "inputs": [
        {
          "components": [
            {
              "components": [
                {
                  "internalType": "string",
                  "name": "portId",
                  "type": "string"
                },
                {
                  "internalType": "bytes32",
                  "name": "channelId",
                  "type": "bytes32"
                }
              ],
              "internalType": "struct IbcEndpoint",
              "name": "src",
              "type": "tuple"
            },
            {
              "components": [
                {
                  "internalType": "string",
                  "name": "portId",
                  "type": "string"
                },
                {
                  "internalType": "bytes32",
                  "name": "channelId",
                  "type": "bytes32"
                }
              ],
              "internalType": "struct IbcEndpoint",
              "name": "dest",
              "type": "tuple"
            },
            {
              "internalType": "uint64",
              "name": "sequence",
              "type": "uint64"
            },
            {
              "internalType": "bytes",
              "name": "data",
              "type": "bytes"
            },
            {
              "components": [
                {
                  "internalType": "uint64",
                  "name": "blockHeight",
                  "type": "uint64"
                },
                {
                  "internalType": "uint64",
                  "name": "timestamp",
                  "type": "uint64"
                }
              ],
              "internalType": "struct IbcTimeout",
              "name": "timeout",
              "type": "tuple"
            }
          ],
          "internalType": "struct IbcPacket",
          "name": "packet",
          "type": "tuple"
        }
      ],
      "name": "onAcknowledgementPacket",
      "outputs": [],
      "stateMutability": "nonpayable",
      "type": "function"
    },
    {
      "inputs": [
        {
          "internalType": "bytes32",
          "name": "channelId",
          "type": "bytes32"
        },
        {
          "internalType": "string",
          "name": "counterpartyPortId",
          "type": "string"
        },
        {
          "internalType": "bytes32",
          "name": "counterpartyChannelId",
          "type": "bytes32"
        }
      ],
      "name": "onCloseIbcChannel",
      "outputs": [],
      "stateMutability": "nonpayable",
      "type": "function"
    },
    {
      "inputs": [
        {
          "internalType": "bytes32",
          "name": "channelId",
          "type": "bytes32"
        },
        {
          "internalType": "bytes32",
          "name": "counterpartyChannelId",
          "type": "bytes32"
        },
        {
          "internalType": "bytes32",
          "name": "counterpartyVersion",
          "type": "bytes32"
        }
      ],
      "name": "onConnectIbcChannel",
      "outputs": [],
      "stateMutability": "nonpayable",
      "type": "function"
    },
    {
      "inputs": [
        {
          "internalType": "bytes32",
          "name": "version",
          "type": "bytes32"
        },
        {
          "internalType": "enum ChannelOrder",
          "name": "ordering",
          "type": "uint8"
        },
        {
          "internalType": "string[]",
          "name": "connectionHops",
          "type": "string[]"
        },
        {
          "internalType": "bytes32",
          "name": "counterpartyChannelId",
          "type": "bytes32"
        },
        {
          "internalType": "string",
          "name": "counterpartyPortId",
          "type": "string"
        },
        {
          "internalType": "bytes32",
          "name": "counterpartyVersion",
          "type": "bytes32"
        }
      ],
      "name": "onOpenIbcChannel",
      "outputs": [
        {
          "internalType": "bytes32",
          "name": "selectedVersion",
          "type": "bytes32"
        }
      ],
      "stateMutability": "nonpayable",
      "type": "function"
    },
    {
      "inputs": [
        {
          "components": [
            {
              "components": [
                {
                  "internalType": "string",
                  "name": "portId",
                  "type": "string"
                },
                {
                  "internalType": "bytes32",
                  "name": "channelId",
                  "type": "bytes32"
                }
              ],
              "internalType": "struct IbcEndpoint",
              "name": "src",
              "type": "tuple"
            },
            {
              "components": [
                {
                  "internalType": "string",
                  "name": "portId",
                  "type": "string"
                },
                {
                  "internalType": "bytes32",
                  "name": "channelId",
                  "type": "bytes32"
                }
              ],
              "internalType": "struct IbcEndpoint",
              "name": "dest",
              "type": "tuple"
            },
            {
              "internalType": "uint64",
              "name": "sequence",
              "type": "uint64"
            },
            {
              "internalType": "bytes",
              "name": "data",
              "type": "bytes"
            },
            {
              "components": [
                {
                  "internalType": "uint64",
                  "name": "blockHeight",
                  "type": "uint64"
                },
                {
                  "internalType": "uint64",
                  "name": "timestamp",
                  "type": "uint64"
                }
              ],
              "internalType": "struct IbcTimeout",
              "name": "timeout",
              "type": "tuple"
            }
          ],
          "internalType": "struct IbcPacket",
          "name": "packet",
          "type": "tuple"
        }
      ],
      "name": "onRecvPacket",
      "outputs": [
        {
          "components": [
            {
              "internalType": "bool",
              "name": "success",
              "type": "bool"
            },
            {
              "internalType": "bytes",
              "name": "data",
              "type": "bytes"
            }
          ],
          "internalType": "struct AckPacket",
          "name": "ackPacket",
          "type": "tuple"
        }
      ],
      "stateMutability": "nonpayable",
      "type": "function"
    },
    {
      "inputs": [
        {
          "components": [
            {
              "components": [
                {
                  "internalType": "string",
                  "name": "portId",
                  "type": "string"
                },
                {
                  "internalType": "bytes32",
                  "name": "channelId",
                  "type": "bytes32"
                }
              ],
              "internalType": "struct IbcEndpoint",
              "name": "src",
              "type": "tuple"
            },
            {
              "components": [
                {
                  "internalType": "string",
                  "name": "portId",
                  "type": "string"
                },
                {
                  "internalType": "bytes32",
                  "name": "channelId",
                  "type": "bytes32"
                }
              ],
              "internalType": "struct IbcEndpoint",
              "name": "dest",
              "type": "tuple"
            },
            {
              "internalType": "uint64",
              "name": "sequence",
              "type": "uint64"
            },
            {
              "internalType": "bytes",
              "name": "data",
              "type": "bytes"
            },
            {
              "components": [
                {
                  "internalType": "uint64",
                  "name": "blockHeight",
                  "type": "uint64"
                },
                {
                  "internalType": "uint64",
                  "name": "timestamp",
                  "type": "uint64"
                }
              ],
              "internalType": "struct IbcTimeout",
              "name": "timeout",
              "type": "tuple"
            }
          ],
          "internalType": "struct IbcPacket",
          "name": "packet",
          "type": "tuple"
        }
      ],
      "name": "onTimeoutPacket",
      "outputs": [],
      "stateMutability": "nonpayable",
      "type": "function"
    },
    {
      "inputs": [],
      "name": "owner",
      "outputs": [
        {
          "internalType": "address",
          "name": "",
          "type": "address"
        }
      ],
      "stateMutability": "view",
      "type": "function"
    },
    {
      "inputs": [
        {
          "internalType": "uint256",
          "name": "",
          "type": "uint256"
        }
      ],
      "name": "recvedPackets",
      "outputs": [
        {
          "components": [
            {
              "internalType": "string",
              "name": "portId",
              "type": "string"
            },
            {
              "internalType": "bytes32",
              "name": "channelId",
              "type": "bytes32"
            }
          ],
          "internalType": "struct IbcEndpoint",
          "name": "src",
          "type": "tuple"
        },
        {
          "components": [
            {
              "internalType": "string",
              "name": "portId",
              "type": "string"
            },
            {
              "internalType": "bytes32",
              "name": "channelId",
              "type": "bytes32"
            }
          ],
          "internalType": "struct IbcEndpoint",
          "name": "dest",
          "type": "tuple"
        },
        {
          "internalType": "uint64",
          "name": "sequence",
          "type": "uint64"
        },
        {
          "internalType": "bytes",
          "name": "data",
          "type": "bytes"
        },
        {
          "components": [
            {
              "internalType": "uint64",
              "name": "blockHeight",
              "type": "uint64"
            },
            {
              "internalType": "uint64",
              "name": "timestamp",
              "type": "uint64"
            }
          ],
          "internalType": "struct IbcTimeout",
          "name": "timeout",
          "type": "tuple"
        }
      ],
      "stateMutability": "view",
      "type": "function"
    },
    {
      "inputs": [],
      "name": "renounceOwnership",
      "outputs": [],
      "stateMutability": "nonpayable",
      "type": "function"
    },
    {
      "inputs": [
        {
          "internalType": "uint256",
          "name": "",
          "type": "uint256"
        }
      ],
      "name": "timeoutPackets",
      "outputs": [
        {
          "components": [
            {
              "internalType": "string",
              "name": "portId",
              "type": "string"
            },
            {
              "internalType": "bytes32",
              "name": "channelId",
              "type": "bytes32"
            }
          ],
          "internalType": "struct IbcEndpoint",
          "name": "src",
          "type": "tuple"
        },
        {
          "components": [
            {
              "internalType": "string",
              "name": "portId",
              "type": "string"
            },
            {
              "internalType": "bytes32",
              "name": "channelId",
              "type": "bytes32"
            }
          ],
          "internalType": "struct IbcEndpoint",
          "name": "dest",
          "type": "tuple"
        },
        {
          "internalType": "uint64",
          "name": "sequence",
          "type": "uint64"
        },
        {
          "internalType": "bytes",
          "name": "data",
          "type": "bytes"
        },
        {
          "components": [
            {
              "internalType": "uint64",
              "name": "blockHeight",
              "type": "uint64"
            },
            {
              "internalType": "uint64",
              "name": "timestamp",
              "type": "uint64"
            }
          ],
          "internalType": "struct IbcTimeout",
          "name": "timeout",
          "type": "tuple"
        }
      ],
      "stateMutability": "view",
      "type": "function"
    },
    {
      "inputs": [
        {
          "internalType": "address",
          "name": "newOwner",
          "type": "address"
        }
      ],
      "name": "transferOwnership",
      "outputs": [],
      "stateMutability": "nonpayable",
      "type": "function"
    },
    {
      "inputs": [
        {
          "internalType": "bytes32",
          "name": "channelId",
          "type": "bytes32"
        },
        {
          "internalType": "contract IbcDispatcher",
          "name": "dispatcher",
          "type": "address"
        }
      ],
      "name": "triggerChannelClose",
      "outputs": [],
      "stateMutability": "nonpayable",
      "type": "function"
    }
  ],
  "bytecode": "0x60c0604052620312e360ec1b6080908152620322e360ec1b60a0526200002a9060059060026200009a565b503480156200003857600080fd5b5062000044336200004a565b62000101565b600080546001600160a01b038381166001600160a01b0319831681178455604051919092169283917f8be0079c531659141344cd1fd0a4f28419497f9722a3daafe3b4186f6b6457e09190a35050565b828054828255906000526020600020908101928215620000d8579160200282015b82811115620000d8578251825591602001919060010190620000bb565b50620000e6929150620000ea565b5090565b5b80821115620000e65760008155600101620000eb565b61148280620001116000396000f3fe6080604052600436106100e85760003560e01c8063b33c25771161008a578063e60a729311610059578063e60a729314610274578063f12b758a14610294578063f2fde38b146102b4578063f45cf5e4146102d457600080fd5b8063b33c257714610201578063b7be251214610221578063bb3f9f8d14610234578063e0a37bb61461025457600080fd5b80635fe39e0d116100c65780635fe39e0d14610175578063715018a6146101975780638da5cb5b146101ac578063b058e81a146101d457600080fd5b80634252ae9b146100ed57806348659219146101275780634eeb739114610155575b600080fd5b3480156100f957600080fd5b5061010d610108366004610b45565b6102f4565b60405161011e959493929190610bd4565b60405180910390f35b34801561013357600080fd5b50610147610142366004610c88565b610548565b60405190815260200161011e565b34801561016157600080fd5b5061010d610170366004610b45565b61064f565b34801561018157600080fd5b50610195610190366004610d59565b61065f565b005b3480156101a357600080fd5b50610195610714565b3480156101b857600080fd5b506000546040516001600160a01b03909116815260200161011e565b3480156101e057600080fd5b506101f46101ef366004610dab565b610728565b60405161011e9190610dec565b34801561020d57600080fd5b5061019561021c366004610dab565b6107c7565b61019561022f366004610e45565b61080d565b34801561024057600080fd5b5061014761024f366004610b45565b61087d565b34801561026057600080fd5b5061019561026f366004610ec0565b61089e565b34801561028057600080fd5b5061019561028f366004610ef0565b610904565b3480156102a057600080fd5b5061010d6102af366004610b45565b6109d1565b3480156102c057600080fd5b506101956102cf366004610f1c565b6109e1565b3480156102e057600080fd5b506101956102ef366004610dab565b610a5a565b6002818154811061030457600080fd5b90600052602060002090600702016000915090508060000160405180604001604052908160008201805461033790610f39565b80601f016020809104026020016040519081016040528092919081815260200182805461036390610f39565b80156103b05780601f10610385576101008083540402835291602001916103b0565b820191906000526020600020905b81548152906001019060200180831161039357829003601f168201915b5050505050815260200160018201548152505090806002016040518060400160405290816000820180546103e390610f39565b80601f016020809104026020016040519081016040528092919081815260200182805461040f90610f39565b801561045c5780601f106104315761010080835404028352916020019161045c565b820191906000526020600020905b81548152906001019060200180831161043f57829003601f168201915b505050918352505060019190910154602090910152600482015460058301805492936001600160401b039092169261049390610f39565b80601f01602080910402602001604051908101604052809291908181526020018280546104bf90610f39565b801561050c5780601f106104e15761010080835404028352916020019161050c565b820191906000526020600020905b8154815290600101906020018083116104ef57829003601f168201915b5050604080518082019091526006909501546001600160401b038082168752680100000000000000009091041660208601525091929150869050565b60006008831161059f5760405162461bcd60e51b815260206004820152601a60248201527f496e76616c696420636f756e7465727061727479506f7274496400000000000060448201526064015b60405180910390fd5b600089156105ad57896105af565b825b915060005b6005548110156105fe57600581815481106105d1576105d1610f74565b90600052602060002001548314156105ec57600191506105fe565b806105f681610f8a565b9150506105b4565b50806106425760405162461bcd60e51b81526020600482015260136024820152722ab739bab83837b93a32b2103b32b939b4b7b760691b6044820152606401610596565b5098975050505050505050565b6003818154811061030457600080fd5b6000805b6004548110156106cb57856004828154811061068157610681610f74565b906000526020600020015414156106b957600481815481106106a5576106a5610f74565b6000918252602082200155600191506106cb565b806106c381610f8a565b915050610663565b508061070d5760405162461bcd60e51b815260206004820152601160248201527010da185b9b995b081b9bdd08199bdd5b99607a1b6044820152606401610596565b5050505050565b61071c610a9b565b6107266000610af5565b565b60408051808201909152600081526060602082015260018054808201825560009190915282906007027fb10e2d527612073b26eecdfd717e6a320cf44b4afac2b0732d9fcbe2b7fa0cf60161077d828261128c565b505060408051808201909152600181526020810161079e6060850185610fd3565b6040516020016107af9291906113dc565b60408051601f19818403018152919052905292915050565b6003805460018101825560009190915281906007027fc2575a0e9e593c00f959f8c92f12db2869c3395a3b0502d05e2516446f71f85b01610808828261128c565b505050565b604051638d3d5aa960e01b81526001600160a01b03871690638d3d5aa99083906108439087908a908a90899086906004016113fc565b6000604051808303818588803b15801561085c57600080fd5b505af1158015610870573d6000803e3d6000fd5b5050505050505050505050565b6004818154811061088d57600080fd5b600091825260209091200154905081565b6108a6610a9b565b604051638b24b4cb60e01b8152600481018390526001600160a01b03821690638b24b4cb90602401600060405180830381600087803b1580156108e857600080fd5b505af11580156108fc573d6000803e3d6000fd5b505050505050565b6000805b600554811015610952576005818154811061092557610925610f74565b90600052602060002001548314156109405760019150610952565b8061094a81610f8a565b915050610908565b50806109965760405162461bcd60e51b81526020600482015260136024820152722ab739bab83837b93a32b2103b32b939b4b7b760691b6044820152606401610596565b5050600480546001810182556000919091527f8a35acfbc15ff81a39ae7d344fd709f28e8600b4aa8c65c6b64bfe7fe36bd19b019190915550565b6001818154811061030457600080fd5b6109e9610a9b565b6001600160a01b038116610a4e5760405162461bcd60e51b815260206004820152602660248201527f4f776e61626c653a206e6577206f776e657220697320746865207a65726f206160448201526564647265737360d01b6064820152608401610596565b610a5781610af5565b50565b6002805460018101825560009190915281906007027f405787fa12a823e0f2b7631cc41b3ba8828b3321ca811111fa75cd3aa3bb5ace01610808828261128c565b6000546001600160a01b031633146107265760405162461bcd60e51b815260206004820181905260248201527f4f776e61626c653a2063616c6c6572206973206e6f7420746865206f776e65726044820152606401610596565b600080546001600160a01b038381166001600160a01b0319831681178455604051919092169283917f8be0079c531659141344cd1fd0a4f28419497f9722a3daafe3b4186f6b6457e09190a35050565b600060208284031215610b5757600080fd5b5035919050565b6000815180845260005b81811015610b8457602081850181015186830182015201610b68565b81811115610b96576000602083870101525b50601f01601f19169290920160200192915050565b6000815160408452610bc06040850182610b5e565b602093840151949093019390935250919050565b60c081526000610be760c0830188610bab565b8281036020840152610bf98188610bab565b90506001600160401b0380871660408501528382036060850152610c1d8287610b5e565b92508085511660808501528060208601511660a085015250509695505050505050565b60008083601f840112610c5257600080fd5b5081356001600160401b03811115610c6957600080fd5b602083019150836020828501011115610c8157600080fd5b9250929050565b60008060008060008060008060c0898b031215610ca457600080fd5b88359750602089013560028110610cba57600080fd5b965060408901356001600160401b0380821115610cd657600080fd5b818b0191508b601f830112610cea57600080fd5b813581811115610cf957600080fd5b8c60208260051b8501011115610d0e57600080fd5b6020830198508097505060608b0135955060808b0135915080821115610d3357600080fd5b50610d408b828c01610c40565b999c989b50969995989497949560a00135949350505050565b60008060008060608587031215610d6f57600080fd5b8435935060208501356001600160401b03811115610d8c57600080fd5b610d9887828801610c40565b9598909750949560400135949350505050565b600060208284031215610dbd57600080fd5b81356001600160401b03811115610dd357600080fd5b820160c08185031215610de557600080fd5b9392505050565b6020815281511515602082015260006020830151604080840152610e136060840182610b5e565b949350505050565b6001600160a01b0381168114610a5757600080fd5b6001600160401b0381168114610a5757600080fd5b60008060008060008060a08789031215610e5e57600080fd5b8635610e6981610e1b565b955060208701356001600160401b03811115610e8457600080fd5b610e9089828a01610c40565b909650945050604087013592506060870135610eab81610e30565b80925050608087013590509295509295509295565b60008060408385031215610ed357600080fd5b823591506020830135610ee581610e1b565b809150509250929050565b600080600060608486031215610f0557600080fd5b505081359360208301359350604090920135919050565b600060208284031215610f2e57600080fd5b8135610de581610e1b565b600181811c90821680610f4d57607f821691505b60208210811415610f6e57634e487b7160e01b600052602260045260246000fd5b50919050565b634e487b7160e01b600052603260045260246000fd5b6000600019821415610fac57634e487b7160e01b600052601160045260246000fd5b5060010190565b60008235603e19833603018112610fc957600080fd5b9190910192915050565b6000808335601e19843603018112610fea57600080fd5b8301803591506001600160401b0382111561100457600080fd5b602001915036819003821315610c8157600080fd5b634e487b7160e01b600052604160045260246000fd5b601f82111561080857600081815260208120601f850160051c810160208610156110565750805b601f850160051c820191505b818110156108fc57828155600101611062565b600019600383901b1c191660019190911b1790565b6110948283610fd3565b6001600160401b038111156110ab576110ab611019565b6110bf816110b98554610f39565b8561102f565b6000601f8211600181146110ed57600083156110db5750838201355b6110e58482611075565b865550611147565b600085815260209020601f19841690835b8281101561111e57868501358255602094850194600190920191016110fe565b508482101561113b5760001960f88660031b161c19848701351681555b505060018360011b0185555b50505050602082013560018201555050565b6000813561116681610e30565b92915050565b6001600160401b0383111561118357611183611019565b611197836111918354610f39565b8361102f565b6000601f8411600181146111c557600085156111b35750838201355b6111bd8682611075565b84555061070d565b600083815260209020601f19861690835b828110156111f657868501358255602094850194600190920191016111d6565b50868210156112135760001960f88860031b161c19848701351681555b505060018560011b0183555050505050565b813561123081610e30565b815467ffffffffffffffff19166001600160401b03821617825550602082013561125981610e30565b81546fffffffffffffffff0000000000000000191660409190911b6fffffffffffffffff00000000000000001617905550565b6112968283610fb3565b6112a08182610fd3565b6001600160401b038111156112b7576112b7611019565b6112cb816112c58654610f39565b8661102f565b6000601f8211600181146112f957600083156112e75750838201355b6112f18482611075565b875550611353565b600086815260209020601f19841690835b8281101561132a578685013582556020948501946001909201910161130a565b50848210156113475760001960f88660031b161c19848701351681555b505060018360011b0186555b50505050602081013560018301555061137b6113726020840184610fb3565b6002830161108a565b6113ab61138a60408401611159565b600483016001600160401b0382166001600160401b03198254161781555050565b6113b86060830183610fd3565b6113c681836005860161116c565b50506113d86080830160068301611225565b5050565b6361636b2d60e01b81528183600483013760009101600401908152919050565b85815260806020820152836080820152838560a0830137600060a08583010152600060a0601f19601f87011683010190506001600160401b0384166040830152826060830152969550505050505056fea2646970667358221220eaa7d09fc2c23ee0fd14d7e8bb7d579dc004453e1d370360abd7f4c29b98e73864736f6c63430008090033",
  "linkReferences": {},
  "deployedLinkReferences": {}
}