{
  "_format": "hh-sol-artifact-1",
  "contractName": "Mars",
  "sourceName": "contracts/Mars.sol",
  "abi": [
    {
      "anonymous": false,
      "inputs": [
        {
          "indexed": true,
          "internalType": "address",
          "name": "previousOwner",
          "type": "address"
        },
        {
          "indexed": true,
          "internalType": "address",
          "name": "newOwner",
          "type": "address"
        }
      ],
      "name": "OwnershipTransferred",
      "type": "event"
    },
    {
      "inputs": [
        {
          "internalType": "uint256",
          "name": "",
          "type": "uint256"
        }
      ],
      "name": "ackPackets",
      "outputs": [
        {
          "components": [
            {
              "internalType": "string",
              "name": "portId",
              "type": "string"
            },
            {
              "internalType": "bytes32",
              "name": "channelId",
              "type": "bytes32"
            }
          ],
          "internalType": "struct IbcEndpoint",
          "name": "src",
          "type": "tuple"
        },
        {
          "components": [
            {
              "internalType": "string",
              "name": "portId",
              "type": "string"
            },
            {
              "internalType": "bytes32",
              "name": "channelId",
              "type": "bytes32"
            }
          ],
          "internalType": "struct IbcEndpoint",
          "name": "dest",
          "type": "tuple"
        },
        {
          "internalType": "uint64",
          "name": "sequence",
          "type": "uint64"
        },
        {
          "internalType": "bytes",
          "name": "data",
          "type": "bytes"
        },
        {
          "components": [
            {
              "internalType": "uint64",
              "name": "block",
              "type": "uint64"
            },
            {
              "internalType": "uint64",
              "name": "timestamp",
              "type": "uint64"
            }
          ],
          "internalType": "struct IbcTimeout",
          "name": "timeout",
          "type": "tuple"
        }
      ],
      "stateMutability": "view",
      "type": "function"
    },
    {
      "inputs": [
        {
          "internalType": "uint256",
          "name": "",
          "type": "uint256"
        }
      ],
      "name": "connectedChannels",
      "outputs": [
        {
          "internalType": "bytes32",
          "name": "",
          "type": "bytes32"
        }
      ],
      "stateMutability": "view",
      "type": "function"
    },
    {
      "inputs": [
        {
          "internalType": "address",
          "name": "dispatcher",
          "type": "address"
        },
        {
          "internalType": "string",
          "name": "message",
          "type": "string"
        },
        {
          "internalType": "bytes32",
          "name": "channelId",
          "type": "bytes32"
        }
      ],
      "name": "greet",
      "outputs": [],
      "stateMutability": "nonpayable",
      "type": "function"
    },
    {
      "inputs": [
        {
          "components": [
            {
              "components": [
                {
                  "internalType": "string",
                  "name": "portId",
                  "type": "string"
                },
                {
                  "internalType": "bytes32",
                  "name": "channelId",
                  "type": "bytes32"
                }
              ],
              "internalType": "struct IbcEndpoint",
              "name": "src",
              "type": "tuple"
            },
            {
              "components": [
                {
                  "internalType": "string",
                  "name": "portId",
                  "type": "string"
                },
                {
                  "internalType": "bytes32",
                  "name": "channelId",
                  "type": "bytes32"
                }
              ],
              "internalType": "struct IbcEndpoint",
              "name": "dest",
              "type": "tuple"
            },
            {
              "internalType": "uint64",
              "name": "sequence",
              "type": "uint64"
            },
            {
              "internalType": "bytes",
              "name": "data",
              "type": "bytes"
            },
            {
              "components": [
                {
                  "internalType": "uint64",
                  "name": "block",
                  "type": "uint64"
                },
                {
                  "internalType": "uint64",
                  "name": "timestamp",
                  "type": "uint64"
                }
              ],
              "internalType": "struct IbcTimeout",
              "name": "timeout",
              "type": "tuple"
            }
          ],
          "internalType": "struct IbcPacket",
          "name": "packet",
          "type": "tuple"
        }
      ],
      "name": "onAcknowledgementPacket",
      "outputs": [],
      "stateMutability": "nonpayable",
      "type": "function"
    },
    {
      "inputs": [
        {
          "internalType": "string",
          "name": "channelId",
          "type": "string"
        },
        {
          "internalType": "string",
          "name": "error",
          "type": "string"
        }
      ],
      "name": "onCloseIbcChannel",
      "outputs": [],
      "stateMutability": "nonpayable",
      "type": "function"
    },
    {
      "inputs": [
        {
          "internalType": "bytes32",
          "name": "channelId",
          "type": "bytes32"
        },
        {
          "internalType": "bytes32",
          "name": "counterpartyChannelId",
          "type": "bytes32"
        },
        {
          "internalType": "bytes32",
          "name": "counterpartyVersion",
          "type": "bytes32"
        }
      ],
      "name": "onConnectIbcChannel",
      "outputs": [],
      "stateMutability": "nonpayable",
      "type": "function"
    },
    {
      "inputs": [
        {
          "internalType": "bytes32",
          "name": "version",
          "type": "bytes32"
        },
        {
          "internalType": "enum ChannelOrder",
          "name": "ordering",
          "type": "uint8"
        },
        {
          "internalType": "string[]",
          "name": "connectionHops",
          "type": "string[]"
        },
        {
          "internalType": "bytes32",
          "name": "counterpartyChannelId",
          "type": "bytes32"
        },
        {
          "internalType": "string",
          "name": "counterpartyPortId",
          "type": "string"
        },
        {
          "internalType": "bytes32",
          "name": "counterpartyVersion",
          "type": "bytes32"
        }
      ],
      "name": "onOpenIbcChannel",
      "outputs": [
        {
          "internalType": "bytes32",
          "name": "selectedVersion",
          "type": "bytes32"
        }
      ],
      "stateMutability": "nonpayable",
      "type": "function"
    },
    {
      "inputs": [
        {
          "components": [
            {
              "components": [
                {
                  "internalType": "string",
                  "name": "portId",
                  "type": "string"
                },
                {
                  "internalType": "bytes32",
                  "name": "channelId",
                  "type": "bytes32"
                }
              ],
              "internalType": "struct IbcEndpoint",
              "name": "src",
              "type": "tuple"
            },
            {
              "components": [
                {
                  "internalType": "string",
                  "name": "portId",
                  "type": "string"
                },
                {
                  "internalType": "bytes32",
                  "name": "channelId",
                  "type": "bytes32"
                }
              ],
              "internalType": "struct IbcEndpoint",
              "name": "dest",
              "type": "tuple"
            },
            {
              "internalType": "uint64",
              "name": "sequence",
              "type": "uint64"
            },
            {
              "internalType": "bytes",
              "name": "data",
              "type": "bytes"
            },
            {
              "components": [
                {
                  "internalType": "uint64",
                  "name": "block",
                  "type": "uint64"
                },
                {
                  "internalType": "uint64",
                  "name": "timestamp",
                  "type": "uint64"
                }
              ],
              "internalType": "struct IbcTimeout",
              "name": "timeout",
              "type": "tuple"
            }
          ],
          "internalType": "struct IbcPacket",
          "name": "packet",
          "type": "tuple"
        }
      ],
      "name": "onRecvPacket",
      "outputs": [],
      "stateMutability": "nonpayable",
      "type": "function"
    },
    {
      "inputs": [
        {
          "components": [
            {
              "components": [
                {
                  "internalType": "string",
                  "name": "portId",
                  "type": "string"
                },
                {
                  "internalType": "bytes32",
                  "name": "channelId",
                  "type": "bytes32"
                }
              ],
              "internalType": "struct IbcEndpoint",
              "name": "src",
              "type": "tuple"
            },
            {
              "components": [
                {
                  "internalType": "string",
                  "name": "portId",
                  "type": "string"
                },
                {
                  "internalType": "bytes32",
                  "name": "channelId",
                  "type": "bytes32"
                }
              ],
              "internalType": "struct IbcEndpoint",
              "name": "dest",
              "type": "tuple"
            },
            {
              "internalType": "uint64",
              "name": "sequence",
              "type": "uint64"
            },
            {
              "internalType": "bytes",
              "name": "data",
              "type": "bytes"
            },
            {
              "components": [
                {
                  "internalType": "uint64",
                  "name": "block",
                  "type": "uint64"
                },
                {
                  "internalType": "uint64",
                  "name": "timestamp",
                  "type": "uint64"
                }
              ],
              "internalType": "struct IbcTimeout",
              "name": "timeout",
              "type": "tuple"
            }
          ],
          "internalType": "struct IbcPacket",
          "name": "packet",
          "type": "tuple"
        }
      ],
      "name": "onTimeoutPacket",
      "outputs": [],
      "stateMutability": "nonpayable",
      "type": "function"
    },
    {
      "inputs": [],
      "name": "owner",
      "outputs": [
        {
          "internalType": "address",
          "name": "",
          "type": "address"
        }
      ],
      "stateMutability": "view",
      "type": "function"
    },
    {
      "inputs": [
        {
          "internalType": "uint256",
          "name": "",
          "type": "uint256"
        }
      ],
      "name": "recvedPackets",
      "outputs": [
        {
          "components": [
            {
              "internalType": "string",
              "name": "portId",
              "type": "string"
            },
            {
              "internalType": "bytes32",
              "name": "channelId",
              "type": "bytes32"
            }
          ],
          "internalType": "struct IbcEndpoint",
          "name": "src",
          "type": "tuple"
        },
        {
          "components": [
            {
              "internalType": "string",
              "name": "portId",
              "type": "string"
            },
            {
              "internalType": "bytes32",
              "name": "channelId",
              "type": "bytes32"
            }
          ],
          "internalType": "struct IbcEndpoint",
          "name": "dest",
          "type": "tuple"
        },
        {
          "internalType": "uint64",
          "name": "sequence",
          "type": "uint64"
        },
        {
          "internalType": "bytes",
          "name": "data",
          "type": "bytes"
        },
        {
          "components": [
            {
              "internalType": "uint64",
              "name": "block",
              "type": "uint64"
            },
            {
              "internalType": "uint64",
              "name": "timestamp",
              "type": "uint64"
            }
          ],
          "internalType": "struct IbcTimeout",
          "name": "timeout",
          "type": "tuple"
        }
      ],
      "stateMutability": "view",
      "type": "function"
    },
    {
      "inputs": [],
      "name": "renounceOwnership",
      "outputs": [],
      "stateMutability": "nonpayable",
      "type": "function"
    },
    {
      "inputs": [
        {
          "internalType": "uint256",
          "name": "",
          "type": "uint256"
        }
      ],
      "name": "timeoutPackets",
      "outputs": [
        {
          "components": [
            {
              "internalType": "string",
              "name": "portId",
              "type": "string"
            },
            {
              "internalType": "bytes32",
              "name": "channelId",
              "type": "bytes32"
            }
          ],
          "internalType": "struct IbcEndpoint",
          "name": "src",
          "type": "tuple"
        },
        {
          "components": [
            {
              "internalType": "string",
              "name": "portId",
              "type": "string"
            },
            {
              "internalType": "bytes32",
              "name": "channelId",
              "type": "bytes32"
            }
          ],
          "internalType": "struct IbcEndpoint",
          "name": "dest",
          "type": "tuple"
        },
        {
          "internalType": "uint64",
          "name": "sequence",
          "type": "uint64"
        },
        {
          "internalType": "bytes",
          "name": "data",
          "type": "bytes"
        },
        {
          "components": [
            {
              "internalType": "uint64",
              "name": "block",
              "type": "uint64"
            },
            {
              "internalType": "uint64",
              "name": "timestamp",
              "type": "uint64"
            }
          ],
          "internalType": "struct IbcTimeout",
          "name": "timeout",
          "type": "tuple"
        }
      ],
      "stateMutability": "view",
      "type": "function"
    },
    {
      "inputs": [
        {
          "internalType": "address",
          "name": "newOwner",
          "type": "address"
        }
      ],
      "name": "transferOwnership",
      "outputs": [],
      "stateMutability": "nonpayable",
      "type": "function"
    }
  ],
  "bytecode": "0x608060405260405180604001604052807f312e30000000000000000000000000000000000000000000000000000000000081526020017f322e30000000000000000000000000000000000000000000000000000000000081525060059060026200006b9291906200016c565b503480156200007957600080fd5b506200009a6200008e620000a060201b60201c565b620000a860201b60201c565b620001dd565b600033905090565b60008060009054906101000a900473ffffffffffffffffffffffffffffffffffffffff169050816000806101000a81548173ffffffffffffffffffffffffffffffffffffffff021916908373ffffffffffffffffffffffffffffffffffffffff1602179055508173ffffffffffffffffffffffffffffffffffffffff168173ffffffffffffffffffffffffffffffffffffffff167f8be0079c531659141344cd1fd0a4f28419497f9722a3daafe3b4186f6b6457e060405160405180910390a35050565b828054828255906000526020600020908101928215620001ab579160200282015b82811115620001aa5782518255916020019190600101906200018d565b5b509050620001ba9190620001be565b5090565b5b80821115620001d9576000816000905550600101620001bf565b5090565b6123e280620001ed6000396000f3fe608060405234801561001057600080fd5b50600436106100ea5760003560e01c8063b33c25771161008c578063f12b758a11610066578063f12b758a1461024f578063f2fde38b14610283578063f45cf5e41461029f578063f6431b50146102bb576100ea565b8063b33c2577146101e7578063bb3f9f8d14610203578063e60a729314610233576100ea565b80636afd6174116100c85780636afd617414610187578063715018a6146101a35780638da5cb5b146101ad578063b058e81a146101cb576100ea565b80634252ae9b146100ef57806348659219146101235780634eeb739114610153575b600080fd5b610109600480360381019061010491906110be565b6102d7565b60405161011a959493929190611290565b60405180910390f35b61013d60048036038101906101389190611404565b610573565b60405161014a91906114e2565b60405180910390f35b61016d600480360381019061016891906110be565b610671565b60405161017e959493929190611290565b60405180910390f35b6101a1600480360381019061019c91906114fd565b61090d565b005b6101ab6109c1565b005b6101b56109d5565b6040516101c291906115bf565b60405180910390f35b6101e560048036038101906101e091906115fe565b6109fe565b005b61020160048036038101906101fc91906115fe565b610a3b565b005b61021d600480360381019061021891906110be565b610a78565b60405161022a91906114e2565b60405180910390f35b61024d60048036038101906102489190611647565b610a9c565b005b610269600480360381019061026491906110be565b610b5f565b60405161027a959493929190611290565b60405180910390f35b61029d600480360381019061029891906116c6565b610dfb565b005b6102b960048036038101906102b491906115fe565b610e7f565b005b6102d560048036038101906102d091906116f3565b610ebc565b005b600281815481106102e757600080fd5b90600052602060002090600702016000915090508060000160405180604001604052908160008201805461031a90611796565b80601f016020809104026020016040519081016040528092919081815260200182805461034690611796565b80156103935780601f1061036857610100808354040283529160200191610393565b820191906000526020600020905b81548152906001019060200180831161037657829003601f168201915b5050505050815260200160018201548152505090806002016040518060400160405290816000820180546103c690611796565b80601f01602080910402602001604051908101604052809291908181526020018280546103f290611796565b801561043f5780601f106104145761010080835404028352916020019161043f565b820191906000526020600020905b81548152906001019060200180831161042257829003601f168201915b50505050508152602001600182015481525050908060040160009054906101000a900467ffffffffffffffff169080600501805461047c90611796565b80601f01602080910402602001604051908101604052809291908181526020018280546104a890611796565b80156104f55780601f106104ca576101008083540402835291602001916104f5565b820191906000526020600020905b8154815290600101906020018083116104d857829003601f168201915b505050505090806006016040518060400160405290816000820160009054906101000a900467ffffffffffffffff1667ffffffffffffffff1667ffffffffffffffff1681526020016000820160089054906101000a900467ffffffffffffffff1667ffffffffffffffff1667ffffffffffffffff1681525050905085565b6000600884849050116105bb576040517f08c379a00000000000000000000000000000000000000000000000000000000081526004016105b290611825565b60405180910390fd5b6000808019168a146105cd57896105cf565b825b915060005b60058054905081101561062357600581815481106105f5576105f4611845565b5b90600052602060002001548314156106105760019150610623565b808061061b906118a3565b9150506105d4565b5080610664576040517f08c379a000000000000000000000000000000000000000000000000000000000815260040161065b90611938565b60405180910390fd5b5098975050505050505050565b6003818154811061068157600080fd5b9060005260206000209060070201600091509050806000016040518060400160405290816000820180546106b490611796565b80601f01602080910402602001604051908101604052809291908181526020018280546106e090611796565b801561072d5780601f106107025761010080835404028352916020019161072d565b820191906000526020600020905b81548152906001019060200180831161071057829003601f168201915b50505050508152602001600182015481525050908060020160405180604001604052908160008201805461076090611796565b80601f016020809104026020016040519081016040528092919081815260200182805461078c90611796565b80156107d95780601f106107ae576101008083540402835291602001916107d9565b820191906000526020600020905b8154815290600101906020018083116107bc57829003601f168201915b50505050508152602001600182015481525050908060040160009054906101000a900467ffffffffffffffff169080600501805461081690611796565b80601f016020809104026020016040519081016040528092919081815260200182805461084290611796565b801561088f5780601f106108645761010080835404028352916020019161088f565b820191906000526020600020905b81548152906001019060200180831161087257829003601f168201915b505050505090806006016040518060400160405290816000820160009054906101000a900467ffffffffffffffff1667ffffffffffffffff1667ffffffffffffffff1681526020016000820160089054906101000a900467ffffffffffffffff1667ffffffffffffffff1667ffffffffffffffff1681525050905085565b60005b6004805490508110156109ba57848460405161092d929190611997565b60405180910390206004828154811061094957610948611845565b5b906000526020600020015460405160200161096491906119d1565b6040516020818303038152906040528051906020012014156109a7576004818154811061099457610993611845565b5b90600052602060002001600090556109ba565b80806109b2906118a3565b915050610910565b5050505050565b6109c9610f34565b6109d36000610fb2565b565b60008060009054906101000a900473ffffffffffffffffffffffffffffffffffffffff16905090565b60018190806001815401808255809150506001900390600052602060002090600702016000909190919091508181610a3691906121f8565b505050565b60038190806001815401808255809150506001900390600052602060002090600702016000909190919091508181610a7391906121f8565b505050565b60048181548110610a8857600080fd5b906000526020600020016000915090505481565b6000805b600580549050811015610aef5760058181548110610ac157610ac0611845565b5b9060005260206000200154831415610adc5760019150610aef565b8080610ae7906118a3565b915050610aa0565b5080610b30576040517f08c379a0000000000000000000000000000000000000000000000000000000008152600401610b2790611938565b60405180910390fd5b600484908060018154018082558091505060019003906000526020600020016000909190919091505550505050565b60018181548110610b6f57600080fd5b906000526020600020906007020160009150905080600001604051806040016040529081600082018054610ba290611796565b80601f0160208091040260200160405190810160405280929190818152602001828054610bce90611796565b8015610c1b5780601f10610bf057610100808354040283529160200191610c1b565b820191906000526020600020905b815481529060010190602001808311610bfe57829003601f168201915b505050505081526020016001820154815250509080600201604051806040016040529081600082018054610c4e90611796565b80601f0160208091040260200160405190810160405280929190818152602001828054610c7a90611796565b8015610cc75780601f10610c9c57610100808354040283529160200191610cc7565b820191906000526020600020905b815481529060010190602001808311610caa57829003601f168201915b50505050508152602001600182015481525050908060040160009054906101000a900467ffffffffffffffff1690806005018054610d0490611796565b80601f0160208091040260200160405190810160405280929190818152602001828054610d3090611796565b8015610d7d5780601f10610d5257610100808354040283529160200191610d7d565b820191906000526020600020905b815481529060010190602001808311610d6057829003601f168201915b505050505090806006016040518060400160405290816000820160009054906101000a900467ffffffffffffffff1667ffffffffffffffff1667ffffffffffffffff1681526020016000820160089054906101000a900467ffffffffffffffff1667ffffffffffffffff1667ffffffffffffffff1681525050905085565b610e03610f34565b600073ffffffffffffffffffffffffffffffffffffffff168173ffffffffffffffffffffffffffffffffffffffff161415610e73576040517f08c379a0000000000000000000000000000000000000000000000000000000008152600401610e6a90612278565b60405180910390fd5b610e7c81610fb2565b50565b60028190806001815401808255809150506001900390600052602060002090600702016000909190919091508181610eb791906121f8565b505050565b8373ffffffffffffffffffffffffffffffffffffffff1663c3e1155c82858560006040518563ffffffff1660e01b8152600401610efc9493929190612300565b600060405180830381600087803b158015610f1657600080fd5b505af1158015610f2a573d6000803e3d6000fd5b5050505050505050565b610f3c611076565b73ffffffffffffffffffffffffffffffffffffffff16610f5a6109d5565b73ffffffffffffffffffffffffffffffffffffffff1614610fb0576040517f08c379a0000000000000000000000000000000000000000000000000000000008152600401610fa79061238c565b60405180910390fd5b565b60008060009054906101000a900473ffffffffffffffffffffffffffffffffffffffff169050816000806101000a81548173ffffffffffffffffffffffffffffffffffffffff021916908373ffffffffffffffffffffffffffffffffffffffff1602179055508173ffffffffffffffffffffffffffffffffffffffff168173ffffffffffffffffffffffffffffffffffffffff167f8be0079c531659141344cd1fd0a4f28419497f9722a3daafe3b4186f6b6457e060405160405180910390a35050565b600033905090565b600080fd5b600080fd5b6000819050919050565b61109b81611088565b81146110a657600080fd5b50565b6000813590506110b881611092565b92915050565b6000602082840312156110d4576110d361107e565b5b60006110e2848285016110a9565b91505092915050565b600081519050919050565b600082825260208201905092915050565b60005b8381101561112557808201518184015260208101905061110a565b83811115611134576000848401525b50505050565b6000601f19601f8301169050919050565b6000611156826110eb565b61116081856110f6565b9350611170818560208601611107565b6111798161113a565b840191505092915050565b6000819050919050565b61119781611184565b82525050565b600060408301600083015184820360008601526111ba828261114b565b91505060208301516111cf602086018261118e565b508091505092915050565b600067ffffffffffffffff82169050919050565b6111f7816111da565b82525050565b600081519050919050565b600082825260208201905092915050565b6000611224826111fd565b61122e8185611208565b935061123e818560208601611107565b6112478161113a565b840191505092915050565b61125b816111da565b82525050565b6040820160008201516112776000850182611252565b50602082015161128a6020850182611252565b50505050565b600060c08201905081810360008301526112aa818861119d565b905081810360208301526112be818761119d565b90506112cd60408301866111ee565b81810360608301526112df8185611219565b90506112ee6080830184611261565b9695505050505050565b61130181611184565b811461130c57600080fd5b50565b60008135905061131e816112f8565b92915050565b6002811061133157600080fd5b50565b60008135905061134381611324565b92915050565b600080fd5b600080fd5b600080fd5b60008083601f84011261136e5761136d611349565b5b8235905067ffffffffffffffff81111561138b5761138a61134e565b5b6020830191508360208202830111156113a7576113a6611353565b5b9250929050565b60008083601f8401126113c4576113c3611349565b5b8235905067ffffffffffffffff8111156113e1576113e061134e565b5b6020830191508360018202830111156113fd576113fc611353565b5b9250929050565b60008060008060008060008060c0898b0312156114245761142361107e565b5b60006114328b828c0161130f565b98505060206114438b828c01611334565b975050604089013567ffffffffffffffff81111561146457611463611083565b5b6114708b828c01611358565b965096505060606114838b828c0161130f565b945050608089013567ffffffffffffffff8111156114a4576114a3611083565b5b6114b08b828c016113ae565b935093505060a06114c38b828c0161130f565b9150509295985092959890939650565b6114dc81611184565b82525050565b60006020820190506114f760008301846114d3565b92915050565b600080600080604085870312156115175761151661107e565b5b600085013567ffffffffffffffff81111561153557611534611083565b5b611541878288016113ae565b9450945050602085013567ffffffffffffffff81111561156457611563611083565b5b611570878288016113ae565b925092505092959194509250565b600073ffffffffffffffffffffffffffffffffffffffff82169050919050565b60006115a98261157e565b9050919050565b6115b98161159e565b82525050565b60006020820190506115d460008301846115b0565b92915050565b600080fd5b600060c082840312156115f5576115f46115da565b5b81905092915050565b6000602082840312156116145761161361107e565b5b600082013567ffffffffffffffff81111561163257611631611083565b5b61163e848285016115df565b91505092915050565b6000806000606084860312156116605761165f61107e565b5b600061166e8682870161130f565b935050602061167f8682870161130f565b92505060406116908682870161130f565b9150509250925092565b6116a38161159e565b81146116ae57600080fd5b50565b6000813590506116c08161169a565b92915050565b6000602082840312156116dc576116db61107e565b5b60006116ea848285016116b1565b91505092915050565b6000806000806060858703121561170d5761170c61107e565b5b600061171b878288016116b1565b945050602085013567ffffffffffffffff81111561173c5761173b611083565b5b611748878288016113ae565b9350935050604061175b8782880161130f565b91505092959194509250565b7f4e487b7100000000000000000000000000000000000000000000000000000000600052602260045260246000fd5b600060028204905060018216806117ae57607f821691505b602082108114156117c2576117c1611767565b5b50919050565b600082825260208201905092915050565b7f496e76616c696420636f756e7465727061727479506f72744964000000000000600082015250565b600061180f601a836117c8565b915061181a826117d9565b602082019050919050565b6000602082019050818103600083015261183e81611802565b9050919050565b7f4e487b7100000000000000000000000000000000000000000000000000000000600052603260045260246000fd5b7f4e487b7100000000000000000000000000000000000000000000000000000000600052601160045260246000fd5b60006118ae82611088565b91507fffffffffffffffffffffffffffffffffffffffffffffffffffffffffffffffff8214156118e1576118e0611874565b5b600182019050919050565b7f556e737570706f727465642076657273696f6e00000000000000000000000000600082015250565b60006119226013836117c8565b915061192d826118ec565b602082019050919050565b6000602082019050818103600083015261195181611915565b9050919050565b600081905092915050565b82818337600083830152505050565b600061197e8385611958565b935061198b838584611963565b82840190509392505050565b60006119a4828486611972565b91508190509392505050565b6000819050919050565b6119cb6119c682611184565b6119b0565b82525050565b60006119dd82846119ba565b60208201915081905092915050565b600080fd5b600080fd5b600080fd5b600082356001604003833603038112611a1757611a166119ec565b5b80830191505092915050565b60008083356001602003843603038112611a4057611a3f6119ec565b5b80840192508235915067ffffffffffffffff821115611a6257611a616119f1565b5b602083019250600182023603831315611a7e57611a7d6119f6565b5b509250929050565b600082905092915050565b7f4e487b7100000000000000000000000000000000000000000000000000000000600052604160045260246000fd5b60008190508160005260206000209050919050565b60006020601f8301049050919050565b600082821b905092915050565b600060088302611b227fffffffffffffffffffffffffffffffffffffffffffffffffffffffffffffffff82611ae5565b611b2c8683611ae5565b95508019841693508086168417925050509392505050565b6000819050919050565b6000611b69611b64611b5f84611088565b611b44565b611088565b9050919050565b6000819050919050565b611b8383611b4e565b611b97611b8f82611b70565b848454611af2565b825550505050565b600090565b611bac611b9f565b611bb7818484611b7a565b505050565b5b81811015611bdb57611bd0600082611ba4565b600181019050611bbd565b5050565b601f821115611c2057611bf181611ac0565b611bfa84611ad5565b81016020851015611c09578190505b611c1d611c1585611ad5565b830182611bbc565b50505b505050565b600082821c905092915050565b6000611c4360001984600802611c25565b1980831691505092915050565b6000611c5c8383611c32565b9150826002028217905092915050565b611c768383611a86565b67ffffffffffffffff811115611c8f57611c8e611a91565b5b611c998254611796565b611ca4828285611bdf565b6000601f831160018114611cd35760008415611cc1578287013590505b611ccb8582611c50565b865550611d33565b601f198416611ce186611ac0565b60005b82811015611d0957848901358255600182019150602085019450602081019050611ce4565b86831015611d265784890135611d22601f891682611c32565b8355505b6001600288020188555050505b50505050505050565b611d47838383611c6c565b505050565b60008135611d59816112f8565b80915050919050565b60008160001b9050919050565b60007fffffffffffffffffffffffffffffffffffffffffffffffffffffffffffffffff611d9b84611d62565b9350801983169250808416831791505092915050565b6000611dbc82611184565b9050919050565b60008160001c9050919050565b6000611ddb82611dc3565b9050919050565b611deb82611db1565b611dfe611df782611dd0565b8354611d6f565b8255505050565b6000810160008301611e178185611a23565b611e22818386611d3c565b50505050600181016020830180611e3881611d4c565b9050611e448184611de2565b5050505050565b611e558282611e05565b5050565b611e62816111da565b8114611e6d57600080fd5b50565b60008135611e7d81611e59565b80915050919050565b600067ffffffffffffffff611e9a84611d62565b9350801983169250808416831791505092915050565b6000611ecb611ec6611ec1846111da565b611b44565b6111da565b9050919050565b6000819050919050565b611ee582611eb0565b611ef8611ef182611ed2565b8354611e86565b8255505050565b60008083356001602003843603038112611f1c57611f1b6119ec565b5b80840192508235915067ffffffffffffffff821115611f3e57611f3d6119f1565b5b602083019250600182023603831315611f5a57611f596119f6565b5b509250929050565b600082905092915050565b60008190508160005260206000209050919050565b601f821115611fc357611f9481611f6d565b611f9d84611ad5565b81016020851015611fac578190505b611fc0611fb885611ad5565b830182611bbc565b50505b505050565b611fd28383611f62565b67ffffffffffffffff811115611feb57611fea611a91565b5b611ff58254611796565b612000828285611f82565b6000601f83116001811461202f576000841561201d578287013590505b6120278582611c50565b86555061208f565b601f19841661203d86611f6d565b60005b8281101561206557848901358255600182019150602085019450602081019050612040565b86831015612082578489013561207e601f891682611c32565b8355505b6001600288020188555050505b50505050505050565b6120a3838383611fc8565b505050565b60008160401b9050919050565b60006fffffffffffffffff00000000000000006120d1846120a8565b9350801983169250808416831791505092915050565b6120f082611eb0565b6121036120fc82611ed2565b83546120b5565b8255505050565b60008101600083018061211c81611e70565b90506121288184611edc565b50505060008101602083018061213d81611e70565b905061214981846120e7565b5050505050565b61215a828261210a565b5050565b600081016000830161217081856119fb565b61217a8184611e4b565b505050600281016020830161218f81856119fb565b6121998184611e4b565b5050506004810160408301806121ae81611e70565b90506121ba8184611edc565b50505060058101606083016121cf8185611eff565b6121da818386612098565b505050506006810160808301806121f18184612150565b5050505050565b612202828261215e565b5050565b7f4f776e61626c653a206e6577206f776e657220697320746865207a65726f206160008201527f6464726573730000000000000000000000000000000000000000000000000000602082015250565b60006122626026836117c8565b915061226d82612206565b604082019050919050565b6000602082019050818103600083015261229181612255565b9050919050565b60006122a48385611208565b93506122b1838584611963565b6122ba8361113a565b840190509392505050565b6000819050919050565b60006122ea6122e56122e0846122c5565b611b44565b6111da565b9050919050565b6122fa816122cf565b82525050565b600060608201905061231560008301876114d3565b8181036020830152612328818587612298565b905061233760408301846122f1565b95945050505050565b7f4f776e61626c653a2063616c6c6572206973206e6f7420746865206f776e6572600082015250565b60006123766020836117c8565b915061238182612340565b602082019050919050565b600060208201905081810360008301526123a581612369565b905091905056fea2646970667358221220f492853bdfef2c5827a30d28e7c99cd6582324084523212af0f1555f499e6eda64736f6c63430008090033",
  "linkReferences": {},
  "deployedLinkReferences": {}
}