{
  "_format": "hh-sol-artifact-1",
  "contractName": "Mars",
  "sourceName": "contracts/Mars.sol",
  "abi": [
    {
      "anonymous": false,
      "inputs": [
        {
          "indexed": true,
          "internalType": "address",
          "name": "previousOwner",
          "type": "address"
        },
        {
          "indexed": true,
          "internalType": "address",
          "name": "newOwner",
          "type": "address"
        }
      ],
      "name": "OwnershipTransferred",
      "type": "event"
    },
    {
      "inputs": [
        {
          "internalType": "uint256",
          "name": "",
          "type": "uint256"
        }
      ],
      "name": "ackPackets",
      "outputs": [
        {
          "components": [
            {
              "internalType": "string",
              "name": "portId",
              "type": "string"
            },
            {
              "internalType": "bytes32",
              "name": "channelId",
              "type": "bytes32"
            }
          ],
          "internalType": "struct IbcEndpoint",
          "name": "src",
          "type": "tuple"
        },
        {
          "components": [
            {
              "internalType": "string",
              "name": "portId",
              "type": "string"
            },
            {
              "internalType": "bytes32",
              "name": "channelId",
              "type": "bytes32"
            }
          ],
          "internalType": "struct IbcEndpoint",
          "name": "dest",
          "type": "tuple"
        },
        {
          "internalType": "uint64",
          "name": "sequence",
          "type": "uint64"
        },
        {
          "internalType": "bytes",
          "name": "data",
          "type": "bytes"
        },
        {
          "components": [
            {
              "internalType": "uint64",
              "name": "block",
              "type": "uint64"
            },
            {
              "internalType": "uint64",
              "name": "timestamp",
              "type": "uint64"
            }
          ],
          "internalType": "struct IbcTimeout",
          "name": "timeout",
          "type": "tuple"
        }
      ],
      "stateMutability": "view",
      "type": "function"
    },
    {
      "inputs": [
        {
          "internalType": "uint256",
          "name": "",
          "type": "uint256"
        }
      ],
      "name": "connectedChannels",
      "outputs": [
        {
          "internalType": "string",
          "name": "",
          "type": "string"
        }
      ],
      "stateMutability": "view",
      "type": "function"
    },
    {
      "inputs": [
        {
          "internalType": "address",
          "name": "dispatcher",
          "type": "address"
        },
        {
          "internalType": "string",
          "name": "message",
          "type": "string"
        },
        {
          "internalType": "bytes32",
          "name": "channelId",
          "type": "bytes32"
        }
      ],
      "name": "greet",
      "outputs": [],
      "stateMutability": "nonpayable",
      "type": "function"
    },
    {
      "inputs": [
        {
          "components": [
            {
              "components": [
                {
                  "internalType": "string",
                  "name": "portId",
                  "type": "string"
                },
                {
                  "internalType": "bytes32",
                  "name": "channelId",
                  "type": "bytes32"
                }
              ],
              "internalType": "struct IbcEndpoint",
              "name": "src",
              "type": "tuple"
            },
            {
              "components": [
                {
                  "internalType": "string",
                  "name": "portId",
                  "type": "string"
                },
                {
                  "internalType": "bytes32",
                  "name": "channelId",
                  "type": "bytes32"
                }
              ],
              "internalType": "struct IbcEndpoint",
              "name": "dest",
              "type": "tuple"
            },
            {
              "internalType": "uint64",
              "name": "sequence",
              "type": "uint64"
            },
            {
              "internalType": "bytes",
              "name": "data",
              "type": "bytes"
            },
            {
              "components": [
                {
                  "internalType": "uint64",
                  "name": "block",
                  "type": "uint64"
                },
                {
                  "internalType": "uint64",
                  "name": "timestamp",
                  "type": "uint64"
                }
              ],
              "internalType": "struct IbcTimeout",
              "name": "timeout",
              "type": "tuple"
            }
          ],
          "internalType": "struct IbcPacket",
          "name": "packet",
          "type": "tuple"
        }
      ],
      "name": "onAcknowledgementPacket",
      "outputs": [],
      "stateMutability": "nonpayable",
      "type": "function"
    },
    {
      "inputs": [
        {
          "internalType": "string",
          "name": "channelId",
          "type": "string"
        },
        {
          "internalType": "string",
          "name": "error",
          "type": "string"
        }
      ],
      "name": "onCloseIbcChannel",
      "outputs": [],
      "stateMutability": "nonpayable",
      "type": "function"
    },
    {
      "inputs": [
        {
          "internalType": "string",
          "name": "channelId",
          "type": "string"
        },
        {
          "internalType": "string",
          "name": "error",
          "type": "string"
        }
      ],
      "name": "onConnectIbcChannel",
      "outputs": [],
      "stateMutability": "nonpayable",
      "type": "function"
    },
    {
      "inputs": [
        {
          "internalType": "bytes32",
          "name": "channelId",
          "type": "bytes32"
        },
        {
          "internalType": "bytes32",
          "name": "version",
          "type": "bytes32"
        },
        {
          "internalType": "enum ChannelOrder",
          "name": "ordering",
          "type": "uint8"
        },
        {
          "internalType": "string[]",
          "name": "connectionHops",
          "type": "string[]"
        },
        {
          "internalType": "bytes32",
          "name": "counterpartyChannelId",
          "type": "bytes32"
        },
        {
          "internalType": "string",
          "name": "counterpartyPortId",
          "type": "string"
        },
        {
          "internalType": "bytes32",
          "name": "counterpartyVersion",
          "type": "bytes32"
        }
      ],
      "name": "onOpenIbcChannel",
      "outputs": [
        {
          "internalType": "bytes32",
          "name": "selectedVersion",
          "type": "bytes32"
        }
      ],
      "stateMutability": "nonpayable",
      "type": "function"
    },
    {
      "inputs": [
        {
          "components": [
            {
              "components": [
                {
                  "internalType": "string",
                  "name": "portId",
                  "type": "string"
                },
                {
                  "internalType": "bytes32",
                  "name": "channelId",
                  "type": "bytes32"
                }
              ],
              "internalType": "struct IbcEndpoint",
              "name": "src",
              "type": "tuple"
            },
            {
              "components": [
                {
                  "internalType": "string",
                  "name": "portId",
                  "type": "string"
                },
                {
                  "internalType": "bytes32",
                  "name": "channelId",
                  "type": "bytes32"
                }
              ],
              "internalType": "struct IbcEndpoint",
              "name": "dest",
              "type": "tuple"
            },
            {
              "internalType": "uint64",
              "name": "sequence",
              "type": "uint64"
            },
            {
              "internalType": "bytes",
              "name": "data",
              "type": "bytes"
            },
            {
              "components": [
                {
                  "internalType": "uint64",
                  "name": "block",
                  "type": "uint64"
                },
                {
                  "internalType": "uint64",
                  "name": "timestamp",
                  "type": "uint64"
                }
              ],
              "internalType": "struct IbcTimeout",
              "name": "timeout",
              "type": "tuple"
            }
          ],
          "internalType": "struct IbcPacket",
          "name": "packet",
          "type": "tuple"
        }
      ],
      "name": "onRecvPacket",
      "outputs": [],
      "stateMutability": "nonpayable",
      "type": "function"
    },
    {
      "inputs": [
        {
          "components": [
            {
              "components": [
                {
                  "internalType": "string",
                  "name": "portId",
                  "type": "string"
                },
                {
                  "internalType": "bytes32",
                  "name": "channelId",
                  "type": "bytes32"
                }
              ],
              "internalType": "struct IbcEndpoint",
              "name": "src",
              "type": "tuple"
            },
            {
              "components": [
                {
                  "internalType": "string",
                  "name": "portId",
                  "type": "string"
                },
                {
                  "internalType": "bytes32",
                  "name": "channelId",
                  "type": "bytes32"
                }
              ],
              "internalType": "struct IbcEndpoint",
              "name": "dest",
              "type": "tuple"
            },
            {
              "internalType": "uint64",
              "name": "sequence",
              "type": "uint64"
            },
            {
              "internalType": "bytes",
              "name": "data",
              "type": "bytes"
            },
            {
              "components": [
                {
                  "internalType": "uint64",
                  "name": "block",
                  "type": "uint64"
                },
                {
                  "internalType": "uint64",
                  "name": "timestamp",
                  "type": "uint64"
                }
              ],
              "internalType": "struct IbcTimeout",
              "name": "timeout",
              "type": "tuple"
            }
          ],
          "internalType": "struct IbcPacket",
          "name": "packet",
          "type": "tuple"
        }
      ],
      "name": "onTimeoutPacket",
      "outputs": [],
      "stateMutability": "nonpayable",
      "type": "function"
    },
    {
      "inputs": [
        {
          "internalType": "uint256",
          "name": "",
          "type": "uint256"
        }
      ],
      "name": "openChannels",
      "outputs": [
        {
          "internalType": "bytes32",
          "name": "",
          "type": "bytes32"
        }
      ],
      "stateMutability": "view",
      "type": "function"
    },
    {
      "inputs": [],
      "name": "owner",
      "outputs": [
        {
          "internalType": "address",
          "name": "",
          "type": "address"
        }
      ],
      "stateMutability": "view",
      "type": "function"
    },
    {
      "inputs": [
        {
          "internalType": "uint256",
          "name": "",
          "type": "uint256"
        }
      ],
      "name": "recvedPackets",
      "outputs": [
        {
          "components": [
            {
              "internalType": "string",
              "name": "portId",
              "type": "string"
            },
            {
              "internalType": "bytes32",
              "name": "channelId",
              "type": "bytes32"
            }
          ],
          "internalType": "struct IbcEndpoint",
          "name": "src",
          "type": "tuple"
        },
        {
          "components": [
            {
              "internalType": "string",
              "name": "portId",
              "type": "string"
            },
            {
              "internalType": "bytes32",
              "name": "channelId",
              "type": "bytes32"
            }
          ],
          "internalType": "struct IbcEndpoint",
          "name": "dest",
          "type": "tuple"
        },
        {
          "internalType": "uint64",
          "name": "sequence",
          "type": "uint64"
        },
        {
          "internalType": "bytes",
          "name": "data",
          "type": "bytes"
        },
        {
          "components": [
            {
              "internalType": "uint64",
              "name": "block",
              "type": "uint64"
            },
            {
              "internalType": "uint64",
              "name": "timestamp",
              "type": "uint64"
            }
          ],
          "internalType": "struct IbcTimeout",
          "name": "timeout",
          "type": "tuple"
        }
      ],
      "stateMutability": "view",
      "type": "function"
    },
    {
      "inputs": [],
      "name": "renounceOwnership",
      "outputs": [],
      "stateMutability": "nonpayable",
      "type": "function"
    },
    {
      "inputs": [
        {
          "internalType": "uint256",
          "name": "",
          "type": "uint256"
        }
      ],
      "name": "timeoutPackets",
      "outputs": [
        {
          "components": [
            {
              "internalType": "string",
              "name": "portId",
              "type": "string"
            },
            {
              "internalType": "bytes32",
              "name": "channelId",
              "type": "bytes32"
            }
          ],
          "internalType": "struct IbcEndpoint",
          "name": "src",
          "type": "tuple"
        },
        {
          "components": [
            {
              "internalType": "string",
              "name": "portId",
              "type": "string"
            },
            {
              "internalType": "bytes32",
              "name": "channelId",
              "type": "bytes32"
            }
          ],
          "internalType": "struct IbcEndpoint",
          "name": "dest",
          "type": "tuple"
        },
        {
          "internalType": "uint64",
          "name": "sequence",
          "type": "uint64"
        },
        {
          "internalType": "bytes",
          "name": "data",
          "type": "bytes"
        },
        {
          "components": [
            {
              "internalType": "uint64",
              "name": "block",
              "type": "uint64"
            },
            {
              "internalType": "uint64",
              "name": "timestamp",
              "type": "uint64"
            }
          ],
          "internalType": "struct IbcTimeout",
          "name": "timeout",
          "type": "tuple"
        }
      ],
      "stateMutability": "view",
      "type": "function"
    },
    {
      "inputs": [
        {
          "internalType": "address",
          "name": "newOwner",
          "type": "address"
        }
      ],
      "name": "transferOwnership",
      "outputs": [],
      "stateMutability": "nonpayable",
      "type": "function"
    }
  ],
  "bytecode": "0x608060405260405180604001604052807f312e30000000000000000000000000000000000000000000000000000000000081526020017f322e30000000000000000000000000000000000000000000000000000000000081525060069060026200006b9291906200016c565b503480156200007957600080fd5b506200009a6200008e620000a060201b60201c565b620000a860201b60201c565b620001dd565b600033905090565b60008060009054906101000a900473ffffffffffffffffffffffffffffffffffffffff169050816000806101000a81548173ffffffffffffffffffffffffffffffffffffffff021916908373ffffffffffffffffffffffffffffffffffffffff1602179055508173ffffffffffffffffffffffffffffffffffffffff168173ffffffffffffffffffffffffffffffffffffffff167f8be0079c531659141344cd1fd0a4f28419497f9722a3daafe3b4186f6b6457e060405160405180910390a35050565b828054828255906000526020600020908101928215620001ab579160200282015b82811115620001aa5782518255916020019190600101906200018d565b5b509050620001ba9190620001be565b5090565b5b80821115620001d9576000816000905550600101620001bf565b5090565b6126c180620001ed6000396000f3fe608060405234801561001057600080fd5b50600436106100f55760003560e01c8063b058e81a11610097578063f12b758a11610066578063f12b758a1461028a578063f2fde38b146102be578063f45cf5e4146102da578063f6431b50146102f6576100f5565b8063b058e81a146101f2578063b33c25771461020e578063bb3f9f8d1461022a578063da972ca61461025a576100f5565b80636afd6174116100d35780636afd61741461017e578063715018a61461019a5780638da5cb5b146101a45780639d0c54f4146101c2576100f5565b80630a845081146100fa5780634252ae9b146101165780634eeb73911461014a575b600080fd5b610114600480360381019061010f9190611306565b610312565b005b610130600480360381019061012b91906113bd565b610356565b60405161014195949392919061158f565b60405180910390f35b610164600480360381019061015f91906113bd565b6105f2565b60405161017595949392919061158f565b60405180910390f35b61019860048036038101906101939190611306565b61088e565b005b6101a26109e6565b005b6101ac6109fa565b6040516101b99190611638565b60405180910390f35b6101dc60048036038101906101d791906113bd565b610a23565b6040516101e99190611662565b60405180910390f35b61020c600480360381019061020791906116a1565b610a47565b005b610228600480360381019061022391906116a1565b610a84565b005b610244600480360381019061023f91906113bd565b610ac1565b6040516102519190611734565b60405180910390f35b610274600480360381019061026f91906117fd565b610b6d565b6040516102819190611662565b60405180910390f35b6102a4600480360381019061029f91906113bd565b610c95565b6040516102b595949392919061158f565b60405180910390f35b6102d860048036038101906102d3919061190b565b610f31565b005b6102f460048036038101906102ef91906116a1565b610fb5565b005b610310600480360381019061030b9190611938565b610ff2565b005b600584849091806001815401808255809150506001900390600052602060002001600090919290919290919290919250919061034f9291906111b4565b5050505050565b6002818154811061036657600080fd5b906000526020600020906007020160009150905080600001604051806040016040529081600082018054610399906119db565b80601f01602080910402602001604051908101604052809291908181526020018280546103c5906119db565b80156104125780601f106103e757610100808354040283529160200191610412565b820191906000526020600020905b8154815290600101906020018083116103f557829003601f168201915b505050505081526020016001820154815250509080600201604051806040016040529081600082018054610445906119db565b80601f0160208091040260200160405190810160405280929190818152602001828054610471906119db565b80156104be5780601f10610493576101008083540402835291602001916104be565b820191906000526020600020905b8154815290600101906020018083116104a157829003601f168201915b50505050508152602001600182015481525050908060040160009054906101000a900467ffffffffffffffff16908060050180546104fb906119db565b80601f0160208091040260200160405190810160405280929190818152602001828054610527906119db565b80156105745780601f1061054957610100808354040283529160200191610574565b820191906000526020600020905b81548152906001019060200180831161055757829003601f168201915b505050505090806006016040518060400160405290816000820160009054906101000a900467ffffffffffffffff1667ffffffffffffffff1667ffffffffffffffff1681526020016000820160089054906101000a900467ffffffffffffffff1667ffffffffffffffff1667ffffffffffffffff1681525050905085565b6003818154811061060257600080fd5b906000526020600020906007020160009150905080600001604051806040016040529081600082018054610635906119db565b80601f0160208091040260200160405190810160405280929190818152602001828054610661906119db565b80156106ae5780601f10610683576101008083540402835291602001916106ae565b820191906000526020600020905b81548152906001019060200180831161069157829003601f168201915b5050505050815260200160018201548152505090806002016040518060400160405290816000820180546106e1906119db565b80601f016020809104026020016040519081016040528092919081815260200182805461070d906119db565b801561075a5780601f1061072f5761010080835404028352916020019161075a565b820191906000526020600020905b81548152906001019060200180831161073d57829003601f168201915b50505050508152602001600182015481525050908060040160009054906101000a900467ffffffffffffffff1690806005018054610797906119db565b80601f01602080910402602001604051908101604052809291908181526020018280546107c3906119db565b80156108105780601f106107e557610100808354040283529160200191610810565b820191906000526020600020905b8154815290600101906020018083116107f357829003601f168201915b505050505090806006016040518060400160405290816000820160009054906101000a900467ffffffffffffffff1667ffffffffffffffff1667ffffffffffffffff1681526020016000820160089054906101000a900467ffffffffffffffff1667ffffffffffffffff1667ffffffffffffffff1681525050905085565b60005b60048054905081101561093b5784846040516108ae929190611a4c565b6040518091039020600482815481106108ca576108c9611a65565b5b90600052602060002001546040516020016108e59190611ab5565b604051602081830303815290604052805190602001201415610928576004818154811061091557610914611a65565b5b906000526020600020016000905561093b565b808061093390611aff565b915050610891565b5060005b6005805490508110156109df57848460405161095c929190611a4c565b60405180910390206005828154811061097857610977611a65565b5b9060005260206000200160405161098f9190611bdc565b604051809103902014156109cc57600581815481106109b1576109b0611a65565b5b9060005260206000200160006109c7919061123a565b6109df565b80806109d790611aff565b91505061093f565b5050505050565b6109ee61106a565b6109f860006110e8565b565b60008060009054906101000a900473ffffffffffffffffffffffffffffffffffffffff16905090565b60048181548110610a3357600080fd5b906000526020600020016000915090505481565b60018190806001815401808255809150506001900390600052602060002090600702016000909190919091508181610a7f91906123ff565b505050565b60038190806001815401808255809150506001900390600052602060002090600702016000909190919091508181610abc91906123ff565b505050565b60058181548110610ad157600080fd5b906000526020600020016000915090508054610aec906119db565b80601f0160208091040260200160405190810160405280929190818152602001828054610b18906119db565b8015610b655780601f10610b3a57610100808354040283529160200191610b65565b820191906000526020600020905b815481529060010190602001808311610b4857829003601f168201915b505050505081565b600060088484905011610bb5576040517f08c379a0000000000000000000000000000000000000000000000000000000008152600401610bac90612459565b60405180910390fd5b6000808019168a14610bc75789610bc9565b825b915060005b600680549050811015610c1d5760068181548110610bef57610bee611a65565b5b9060005260206000200154831415610c0a5760019150610c1d565b8080610c1590611aff565b915050610bce565b5080610c5e576040517f08c379a0000000000000000000000000000000000000000000000000000000008152600401610c55906124c5565b60405180910390fd5b60048b9080600181540180825580915050600190039060005260206000200160009091909190915055509998505050505050505050565b60018181548110610ca557600080fd5b906000526020600020906007020160009150905080600001604051806040016040529081600082018054610cd8906119db565b80601f0160208091040260200160405190810160405280929190818152602001828054610d04906119db565b8015610d515780601f10610d2657610100808354040283529160200191610d51565b820191906000526020600020905b815481529060010190602001808311610d3457829003601f168201915b505050505081526020016001820154815250509080600201604051806040016040529081600082018054610d84906119db565b80601f0160208091040260200160405190810160405280929190818152602001828054610db0906119db565b8015610dfd5780601f10610dd257610100808354040283529160200191610dfd565b820191906000526020600020905b815481529060010190602001808311610de057829003601f168201915b50505050508152602001600182015481525050908060040160009054906101000a900467ffffffffffffffff1690806005018054610e3a906119db565b80601f0160208091040260200160405190810160405280929190818152602001828054610e66906119db565b8015610eb35780601f10610e8857610100808354040283529160200191610eb3565b820191906000526020600020905b815481529060010190602001808311610e9657829003601f168201915b505050505090806006016040518060400160405290816000820160009054906101000a900467ffffffffffffffff1667ffffffffffffffff1667ffffffffffffffff1681526020016000820160089054906101000a900467ffffffffffffffff1667ffffffffffffffff1667ffffffffffffffff1681525050905085565b610f3961106a565b600073ffffffffffffffffffffffffffffffffffffffff168173ffffffffffffffffffffffffffffffffffffffff161415610fa9576040517f08c379a0000000000000000000000000000000000000000000000000000000008152600401610fa090612557565b60405180910390fd5b610fb2816110e8565b50565b60028190806001815401808255809150506001900390600052602060002090600702016000909190919091508181610fed91906123ff565b505050565b8373ffffffffffffffffffffffffffffffffffffffff1663c3e1155c82858560006040518563ffffffff1660e01b815260040161103294939291906125df565b600060405180830381600087803b15801561104c57600080fd5b505af1158015611060573d6000803e3d6000fd5b5050505050505050565b6110726111ac565b73ffffffffffffffffffffffffffffffffffffffff166110906109fa565b73ffffffffffffffffffffffffffffffffffffffff16146110e6576040517f08c379a00000000000000000000000000000000000000000000000000000000081526004016110dd9061266b565b60405180910390fd5b565b60008060009054906101000a900473ffffffffffffffffffffffffffffffffffffffff169050816000806101000a81548173ffffffffffffffffffffffffffffffffffffffff021916908373ffffffffffffffffffffffffffffffffffffffff1602179055508173ffffffffffffffffffffffffffffffffffffffff168173ffffffffffffffffffffffffffffffffffffffff167f8be0079c531659141344cd1fd0a4f28419497f9722a3daafe3b4186f6b6457e060405160405180910390a35050565b600033905090565b8280546111c0906119db565b90600052602060002090601f0160209004810192826111e25760008555611229565b82601f106111fb57803560ff1916838001178555611229565b82800160010185558215611229579182015b8281111561122857823582559160200191906001019061120d565b5b509050611236919061127a565b5090565b508054611246906119db565b6000825580601f106112585750611277565b601f016020900490600052602060002090810190611276919061127a565b5b50565b5b8082111561129357600081600090555060010161127b565b5090565b600080fd5b600080fd5b600080fd5b600080fd5b600080fd5b60008083601f8401126112c6576112c56112a1565b5b8235905067ffffffffffffffff8111156112e3576112e26112a6565b5b6020830191508360018202830111156112ff576112fe6112ab565b5b9250929050565b600080600080604085870312156113205761131f611297565b5b600085013567ffffffffffffffff81111561133e5761133d61129c565b5b61134a878288016112b0565b9450945050602085013567ffffffffffffffff81111561136d5761136c61129c565b5b611379878288016112b0565b925092505092959194509250565b6000819050919050565b61139a81611387565b81146113a557600080fd5b50565b6000813590506113b781611391565b92915050565b6000602082840312156113d3576113d2611297565b5b60006113e1848285016113a8565b91505092915050565b600081519050919050565b600082825260208201905092915050565b60005b83811015611424578082015181840152602081019050611409565b83811115611433576000848401525b50505050565b6000601f19601f8301169050919050565b6000611455826113ea565b61145f81856113f5565b935061146f818560208601611406565b61147881611439565b840191505092915050565b6000819050919050565b61149681611483565b82525050565b600060408301600083015184820360008601526114b9828261144a565b91505060208301516114ce602086018261148d565b508091505092915050565b600067ffffffffffffffff82169050919050565b6114f6816114d9565b82525050565b600081519050919050565b600082825260208201905092915050565b6000611523826114fc565b61152d8185611507565b935061153d818560208601611406565b61154681611439565b840191505092915050565b61155a816114d9565b82525050565b6040820160008201516115766000850182611551565b5060208201516115896020850182611551565b50505050565b600060c08201905081810360008301526115a9818861149c565b905081810360208301526115bd818761149c565b90506115cc60408301866114ed565b81810360608301526115de8185611518565b90506115ed6080830184611560565b9695505050505050565b600073ffffffffffffffffffffffffffffffffffffffff82169050919050565b6000611622826115f7565b9050919050565b61163281611617565b82525050565b600060208201905061164d6000830184611629565b92915050565b61165c81611483565b82525050565b60006020820190506116776000830184611653565b92915050565b600080fd5b600060c082840312156116985761169761167d565b5b81905092915050565b6000602082840312156116b7576116b6611297565b5b600082013567ffffffffffffffff8111156116d5576116d461129c565b5b6116e184828501611682565b91505092915050565b600082825260208201905092915050565b6000611706826113ea565b61171081856116ea565b9350611720818560208601611406565b61172981611439565b840191505092915050565b6000602082019050818103600083015261174e81846116fb565b905092915050565b61175f81611483565b811461176a57600080fd5b50565b60008135905061177c81611756565b92915050565b6002811061178f57600080fd5b50565b6000813590506117a181611782565b92915050565b60008083601f8401126117bd576117bc6112a1565b5b8235905067ffffffffffffffff8111156117da576117d96112a6565b5b6020830191508360208202830111156117f6576117f56112ab565b5b9250929050565b600080600080600080600080600060e08a8c03121561181f5761181e611297565b5b600061182d8c828d0161176d565b995050602061183e8c828d0161176d565b985050604061184f8c828d01611792565b97505060608a013567ffffffffffffffff8111156118705761186f61129c565b5b61187c8c828d016117a7565b9650965050608061188f8c828d0161176d565b94505060a08a013567ffffffffffffffff8111156118b0576118af61129c565b5b6118bc8c828d016112b0565b935093505060c06118cf8c828d0161176d565b9150509295985092959850929598565b6118e881611617565b81146118f357600080fd5b50565b600081359050611905816118df565b92915050565b60006020828403121561192157611920611297565b5b600061192f848285016118f6565b91505092915050565b6000806000806060858703121561195257611951611297565b5b6000611960878288016118f6565b945050602085013567ffffffffffffffff8111156119815761198061129c565b5b61198d878288016112b0565b935093505060406119a08782880161176d565b91505092959194509250565b7f4e487b7100000000000000000000000000000000000000000000000000000000600052602260045260246000fd5b600060028204905060018216806119f357607f821691505b60208210811415611a0757611a066119ac565b5b50919050565b600081905092915050565b82818337600083830152505050565b6000611a338385611a0d565b9350611a40838584611a18565b82840190509392505050565b6000611a59828486611a27565b91508190509392505050565b7f4e487b7100000000000000000000000000000000000000000000000000000000600052603260045260246000fd5b6000819050919050565b611aaf611aaa82611483565b611a94565b82525050565b6000611ac18284611a9e565b60208201915081905092915050565b7f4e487b7100000000000000000000000000000000000000000000000000000000600052601160045260246000fd5b6000611b0a82611387565b91507fffffffffffffffffffffffffffffffffffffffffffffffffffffffffffffffff821415611b3d57611b3c611ad0565b5b600182019050919050565b60008190508160005260206000209050919050565b60008154611b6a816119db565b611b748186611a0d565b94506001821660008114611b8f5760018114611ba057611bd3565b60ff19831686528186019350611bd3565b611ba985611b48565b60005b83811015611bcb57815481890152600182019150602081019050611bac565b838801955050505b50505092915050565b6000611be88284611b5d565b915081905092915050565b600080fd5b600080fd5b600080fd5b600082356001604003833603038112611c1e57611c1d611bf3565b5b80830191505092915050565b60008083356001602003843603038112611c4757611c46611bf3565b5b80840192508235915067ffffffffffffffff821115611c6957611c68611bf8565b5b602083019250600182023603831315611c8557611c84611bfd565b5b509250929050565b600082905092915050565b7f4e487b7100000000000000000000000000000000000000000000000000000000600052604160045260246000fd5b60008190508160005260206000209050919050565b60006020601f8301049050919050565b600082821b905092915050565b600060088302611d297fffffffffffffffffffffffffffffffffffffffffffffffffffffffffffffffff82611cec565b611d338683611cec565b95508019841693508086168417925050509392505050565b6000819050919050565b6000611d70611d6b611d6684611387565b611d4b565b611387565b9050919050565b6000819050919050565b611d8a83611d55565b611d9e611d9682611d77565b848454611cf9565b825550505050565b600090565b611db3611da6565b611dbe818484611d81565b505050565b5b81811015611de257611dd7600082611dab565b600181019050611dc4565b5050565b601f821115611e2757611df881611cc7565b611e0184611cdc565b81016020851015611e10578190505b611e24611e1c85611cdc565b830182611dc3565b50505b505050565b600082821c905092915050565b6000611e4a60001984600802611e2c565b1980831691505092915050565b6000611e638383611e39565b9150826002028217905092915050565b611e7d8383611c8d565b67ffffffffffffffff811115611e9657611e95611c98565b5b611ea082546119db565b611eab828285611de6565b6000601f831160018114611eda5760008415611ec8578287013590505b611ed28582611e57565b865550611f3a565b601f198416611ee886611cc7565b60005b82811015611f1057848901358255600182019150602085019450602081019050611eeb565b86831015611f2d5784890135611f29601f891682611e39565b8355505b6001600288020188555050505b50505050505050565b611f4e838383611e73565b505050565b60008135611f6081611756565b80915050919050565b60008160001b9050919050565b60007fffffffffffffffffffffffffffffffffffffffffffffffffffffffffffffffff611fa284611f69565b9350801983169250808416831791505092915050565b6000611fc382611483565b9050919050565b60008160001c9050919050565b6000611fe282611fca565b9050919050565b611ff282611fb8565b612005611ffe82611fd7565b8354611f76565b8255505050565b600081016000830161201e8185611c2a565b612029818386611f43565b5050505060018101602083018061203f81611f53565b905061204b8184611fe9565b5050505050565b61205c828261200c565b5050565b612069816114d9565b811461207457600080fd5b50565b6000813561208481612060565b80915050919050565b600067ffffffffffffffff6120a184611f69565b9350801983169250808416831791505092915050565b60006120d26120cd6120c8846114d9565b611d4b565b6114d9565b9050919050565b6000819050919050565b6120ec826120b7565b6120ff6120f8826120d9565b835461208d565b8255505050565b6000808335600160200384360303811261212357612122611bf3565b5b80840192508235915067ffffffffffffffff82111561214557612144611bf8565b5b60208301925060018202360383131561216157612160611bfd565b5b509250929050565b600082905092915050565b60008190508160005260206000209050919050565b601f8211156121ca5761219b81612174565b6121a484611cdc565b810160208510156121b3578190505b6121c76121bf85611cdc565b830182611dc3565b50505b505050565b6121d98383612169565b67ffffffffffffffff8111156121f2576121f1611c98565b5b6121fc82546119db565b612207828285612189565b6000601f8311600181146122365760008415612224578287013590505b61222e8582611e57565b865550612296565b601f19841661224486612174565b60005b8281101561226c57848901358255600182019150602085019450602081019050612247565b868310156122895784890135612285601f891682611e39565b8355505b6001600288020188555050505b50505050505050565b6122aa8383836121cf565b505050565b60008160401b9050919050565b60006fffffffffffffffff00000000000000006122d8846122af565b9350801983169250808416831791505092915050565b6122f7826120b7565b61230a612303826120d9565b83546122bc565b8255505050565b60008101600083018061232381612077565b905061232f81846120e3565b50505060008101602083018061234481612077565b905061235081846122ee565b5050505050565b6123618282612311565b5050565b60008101600083016123778185611c02565b6123818184612052565b50505060028101602083016123968185611c02565b6123a08184612052565b5050506004810160408301806123b581612077565b90506123c181846120e3565b50505060058101606083016123d68185612106565b6123e181838661229f565b505050506006810160808301806123f88184612357565b5050505050565b6124098282612365565b5050565b7f496e76616c696420636f756e7465727061727479506f72744964000000000000600082015250565b6000612443601a836116ea565b915061244e8261240d565b602082019050919050565b6000602082019050818103600083015261247281612436565b9050919050565b7f556e737570706f727465642076657273696f6e00000000000000000000000000600082015250565b60006124af6013836116ea565b91506124ba82612479565b602082019050919050565b600060208201905081810360008301526124de816124a2565b9050919050565b7f4f776e61626c653a206e6577206f776e657220697320746865207a65726f206160008201527f6464726573730000000000000000000000000000000000000000000000000000602082015250565b60006125416026836116ea565b915061254c826124e5565b604082019050919050565b6000602082019050818103600083015261257081612534565b9050919050565b60006125838385611507565b9350612590838584611a18565b61259983611439565b840190509392505050565b6000819050919050565b60006125c96125c46125bf846125a4565b611d4b565b6114d9565b9050919050565b6125d9816125ae565b82525050565b60006060820190506125f46000830187611653565b8181036020830152612607818587612577565b905061261660408301846125d0565b95945050505050565b7f4f776e61626c653a2063616c6c6572206973206e6f7420746865206f776e6572600082015250565b60006126556020836116ea565b91506126608261261f565b602082019050919050565b6000602082019050818103600083015261268481612648565b905091905056fea2646970667358221220951842844faa07dfbe483faf7cb872d081d017702841d215ea51481a3280c3f964736f6c63430008090033",
  "linkReferences": {},
  "deployedLinkReferences": {}
}