{
  "_format": "hh-sol-artifact-1",
  "contractName": "Mars",
  "sourceName": "contracts/Mars.sol",
  "abi": [
    {
      "anonymous": false,
      "inputs": [
        {
          "indexed": true,
          "internalType": "address",
          "name": "previousOwner",
          "type": "address"
        },
        {
          "indexed": true,
          "internalType": "address",
          "name": "newOwner",
          "type": "address"
        }
      ],
      "name": "OwnershipTransferred",
      "type": "event"
    },
    {
      "inputs": [
        {
          "internalType": "uint256",
          "name": "",
          "type": "uint256"
        }
      ],
      "name": "ackPackets",
      "outputs": [
        {
          "components": [
            {
              "internalType": "string",
              "name": "portId",
              "type": "string"
            },
            {
              "internalType": "bytes32",
              "name": "channelId",
              "type": "bytes32"
            }
          ],
          "internalType": "struct IbcEndpoint",
          "name": "src",
          "type": "tuple"
        },
        {
          "components": [
            {
              "internalType": "string",
              "name": "portId",
              "type": "string"
            },
            {
              "internalType": "bytes32",
              "name": "channelId",
              "type": "bytes32"
            }
          ],
          "internalType": "struct IbcEndpoint",
          "name": "dest",
          "type": "tuple"
        },
        {
          "internalType": "uint64",
          "name": "sequence",
          "type": "uint64"
        },
        {
          "internalType": "bytes",
          "name": "data",
          "type": "bytes"
        },
        {
          "components": [
            {
              "internalType": "uint64",
              "name": "block",
              "type": "uint64"
            },
            {
              "internalType": "uint64",
              "name": "timestamp",
              "type": "uint64"
            }
          ],
          "internalType": "struct IbcTimeout",
          "name": "timeout",
          "type": "tuple"
        }
      ],
      "stateMutability": "view",
      "type": "function"
    },
    {
      "inputs": [
        {
          "internalType": "uint256",
          "name": "",
          "type": "uint256"
        }
      ],
      "name": "connectedChannels",
      "outputs": [
        {
          "internalType": "bytes32",
          "name": "",
          "type": "bytes32"
        }
      ],
      "stateMutability": "view",
      "type": "function"
    },
    {
      "inputs": [
        {
          "internalType": "contract IbcDispatcher",
          "name": "dispatcher",
          "type": "address"
        },
        {
          "internalType": "string",
          "name": "message",
          "type": "string"
        },
        {
          "internalType": "bytes32",
          "name": "channelId",
          "type": "bytes32"
        },
        {
          "internalType": "uint64",
          "name": "timeoutTimestamp",
          "type": "uint64"
        },
        {
          "internalType": "uint256",
          "name": "fee",
          "type": "uint256"
        }
      ],
      "name": "greet",
      "outputs": [],
      "stateMutability": "payable",
      "type": "function"
    },
    {
      "inputs": [
        {
          "components": [
            {
              "components": [
                {
                  "internalType": "string",
                  "name": "portId",
                  "type": "string"
                },
                {
                  "internalType": "bytes32",
                  "name": "channelId",
                  "type": "bytes32"
                }
              ],
              "internalType": "struct IbcEndpoint",
              "name": "src",
              "type": "tuple"
            },
            {
              "components": [
                {
                  "internalType": "string",
                  "name": "portId",
                  "type": "string"
                },
                {
                  "internalType": "bytes32",
                  "name": "channelId",
                  "type": "bytes32"
                }
              ],
              "internalType": "struct IbcEndpoint",
              "name": "dest",
              "type": "tuple"
            },
            {
              "internalType": "uint64",
              "name": "sequence",
              "type": "uint64"
            },
            {
              "internalType": "bytes",
              "name": "data",
              "type": "bytes"
            },
            {
              "components": [
                {
                  "internalType": "uint64",
                  "name": "block",
                  "type": "uint64"
                },
                {
                  "internalType": "uint64",
                  "name": "timestamp",
                  "type": "uint64"
                }
              ],
              "internalType": "struct IbcTimeout",
              "name": "timeout",
              "type": "tuple"
            }
          ],
          "internalType": "struct IbcPacket",
          "name": "packet",
          "type": "tuple"
        }
      ],
      "name": "onAcknowledgementPacket",
      "outputs": [],
      "stateMutability": "nonpayable",
      "type": "function"
    },
    {
      "inputs": [
        {
          "internalType": "bytes32",
          "name": "channelId",
          "type": "bytes32"
        },
        {
          "internalType": "string",
          "name": "counterpartyPortId",
          "type": "string"
        },
        {
          "internalType": "bytes32",
          "name": "counterpartyChannelId",
          "type": "bytes32"
        }
      ],
      "name": "onCloseIbcChannel",
      "outputs": [],
      "stateMutability": "nonpayable",
      "type": "function"
    },
    {
      "inputs": [
        {
          "internalType": "bytes32",
          "name": "channelId",
          "type": "bytes32"
        },
        {
          "internalType": "bytes32",
          "name": "counterpartyChannelId",
          "type": "bytes32"
        },
        {
          "internalType": "bytes32",
          "name": "counterpartyVersion",
          "type": "bytes32"
        }
      ],
      "name": "onConnectIbcChannel",
      "outputs": [],
      "stateMutability": "nonpayable",
      "type": "function"
    },
    {
      "inputs": [
        {
          "internalType": "bytes32",
          "name": "version",
          "type": "bytes32"
        },
        {
          "internalType": "enum ChannelOrder",
          "name": "ordering",
          "type": "uint8"
        },
        {
          "internalType": "string[]",
          "name": "connectionHops",
          "type": "string[]"
        },
        {
          "internalType": "bytes32",
          "name": "counterpartyChannelId",
          "type": "bytes32"
        },
        {
          "internalType": "string",
          "name": "counterpartyPortId",
          "type": "string"
        },
        {
          "internalType": "bytes32",
          "name": "counterpartyVersion",
          "type": "bytes32"
        }
      ],
      "name": "onOpenIbcChannel",
      "outputs": [
        {
          "internalType": "bytes32",
          "name": "selectedVersion",
          "type": "bytes32"
        }
      ],
      "stateMutability": "nonpayable",
      "type": "function"
    },
    {
      "inputs": [
        {
          "components": [
            {
              "components": [
                {
                  "internalType": "string",
                  "name": "portId",
                  "type": "string"
                },
                {
                  "internalType": "bytes32",
                  "name": "channelId",
                  "type": "bytes32"
                }
              ],
              "internalType": "struct IbcEndpoint",
              "name": "src",
              "type": "tuple"
            },
            {
              "components": [
                {
                  "internalType": "string",
                  "name": "portId",
                  "type": "string"
                },
                {
                  "internalType": "bytes32",
                  "name": "channelId",
                  "type": "bytes32"
                }
              ],
              "internalType": "struct IbcEndpoint",
              "name": "dest",
              "type": "tuple"
            },
            {
              "internalType": "uint64",
              "name": "sequence",
              "type": "uint64"
            },
            {
              "internalType": "bytes",
              "name": "data",
              "type": "bytes"
            },
            {
              "components": [
                {
                  "internalType": "uint64",
                  "name": "block",
                  "type": "uint64"
                },
                {
                  "internalType": "uint64",
                  "name": "timestamp",
                  "type": "uint64"
                }
              ],
              "internalType": "struct IbcTimeout",
              "name": "timeout",
              "type": "tuple"
            }
          ],
          "internalType": "struct IbcPacket",
          "name": "packet",
          "type": "tuple"
        }
      ],
      "name": "onRecvPacket",
      "outputs": [],
      "stateMutability": "nonpayable",
      "type": "function"
    },
    {
      "inputs": [
        {
          "components": [
            {
              "components": [
                {
                  "internalType": "string",
                  "name": "portId",
                  "type": "string"
                },
                {
                  "internalType": "bytes32",
                  "name": "channelId",
                  "type": "bytes32"
                }
              ],
              "internalType": "struct IbcEndpoint",
              "name": "src",
              "type": "tuple"
            },
            {
              "components": [
                {
                  "internalType": "string",
                  "name": "portId",
                  "type": "string"
                },
                {
                  "internalType": "bytes32",
                  "name": "channelId",
                  "type": "bytes32"
                }
              ],
              "internalType": "struct IbcEndpoint",
              "name": "dest",
              "type": "tuple"
            },
            {
              "internalType": "uint64",
              "name": "sequence",
              "type": "uint64"
            },
            {
              "internalType": "bytes",
              "name": "data",
              "type": "bytes"
            },
            {
              "components": [
                {
                  "internalType": "uint64",
                  "name": "block",
                  "type": "uint64"
                },
                {
                  "internalType": "uint64",
                  "name": "timestamp",
                  "type": "uint64"
                }
              ],
              "internalType": "struct IbcTimeout",
              "name": "timeout",
              "type": "tuple"
            }
          ],
          "internalType": "struct IbcPacket",
          "name": "packet",
          "type": "tuple"
        }
      ],
      "name": "onTimeoutPacket",
      "outputs": [],
      "stateMutability": "nonpayable",
      "type": "function"
    },
    {
      "inputs": [],
      "name": "owner",
      "outputs": [
        {
          "internalType": "address",
          "name": "",
          "type": "address"
        }
      ],
      "stateMutability": "view",
      "type": "function"
    },
    {
      "inputs": [
        {
          "internalType": "uint256",
          "name": "",
          "type": "uint256"
        }
      ],
      "name": "recvedPackets",
      "outputs": [
        {
          "components": [
            {
              "internalType": "string",
              "name": "portId",
              "type": "string"
            },
            {
              "internalType": "bytes32",
              "name": "channelId",
              "type": "bytes32"
            }
          ],
          "internalType": "struct IbcEndpoint",
          "name": "src",
          "type": "tuple"
        },
        {
          "components": [
            {
              "internalType": "string",
              "name": "portId",
              "type": "string"
            },
            {
              "internalType": "bytes32",
              "name": "channelId",
              "type": "bytes32"
            }
          ],
          "internalType": "struct IbcEndpoint",
          "name": "dest",
          "type": "tuple"
        },
        {
          "internalType": "uint64",
          "name": "sequence",
          "type": "uint64"
        },
        {
          "internalType": "bytes",
          "name": "data",
          "type": "bytes"
        },
        {
          "components": [
            {
              "internalType": "uint64",
              "name": "block",
              "type": "uint64"
            },
            {
              "internalType": "uint64",
              "name": "timestamp",
              "type": "uint64"
            }
          ],
          "internalType": "struct IbcTimeout",
          "name": "timeout",
          "type": "tuple"
        }
      ],
      "stateMutability": "view",
      "type": "function"
    },
    {
      "inputs": [],
      "name": "renounceOwnership",
      "outputs": [],
      "stateMutability": "nonpayable",
      "type": "function"
    },
    {
      "inputs": [
        {
          "internalType": "uint256",
          "name": "",
          "type": "uint256"
        }
      ],
      "name": "timeoutPackets",
      "outputs": [
        {
          "components": [
            {
              "internalType": "string",
              "name": "portId",
              "type": "string"
            },
            {
              "internalType": "bytes32",
              "name": "channelId",
              "type": "bytes32"
            }
          ],
          "internalType": "struct IbcEndpoint",
          "name": "src",
          "type": "tuple"
        },
        {
          "components": [
            {
              "internalType": "string",
              "name": "portId",
              "type": "string"
            },
            {
              "internalType": "bytes32",
              "name": "channelId",
              "type": "bytes32"
            }
          ],
          "internalType": "struct IbcEndpoint",
          "name": "dest",
          "type": "tuple"
        },
        {
          "internalType": "uint64",
          "name": "sequence",
          "type": "uint64"
        },
        {
          "internalType": "bytes",
          "name": "data",
          "type": "bytes"
        },
        {
          "components": [
            {
              "internalType": "uint64",
              "name": "block",
              "type": "uint64"
            },
            {
              "internalType": "uint64",
              "name": "timestamp",
              "type": "uint64"
            }
          ],
          "internalType": "struct IbcTimeout",
          "name": "timeout",
          "type": "tuple"
        }
      ],
      "stateMutability": "view",
      "type": "function"
    },
    {
      "inputs": [
        {
          "internalType": "address",
          "name": "newOwner",
          "type": "address"
        }
      ],
      "name": "transferOwnership",
      "outputs": [],
      "stateMutability": "nonpayable",
      "type": "function"
    },
    {
      "inputs": [
        {
          "internalType": "bytes32",
          "name": "channelId",
          "type": "bytes32"
        },
        {
          "internalType": "contract IbcDispatcher",
          "name": "dispatcher",
          "type": "address"
        }
      ],
      "name": "triggerChannelClose",
      "outputs": [],
      "stateMutability": "nonpayable",
      "type": "function"
    }
  ],
  "bytecode": "0x608060405260405180604001604052807f312e30000000000000000000000000000000000000000000000000000000000081526020017f322e30000000000000000000000000000000000000000000000000000000000081525060059060026200006b9291906200016c565b503480156200007957600080fd5b506200009a6200008e620000a060201b60201c565b620000a860201b60201c565b620001dd565b600033905090565b60008060009054906101000a900473ffffffffffffffffffffffffffffffffffffffff169050816000806101000a81548173ffffffffffffffffffffffffffffffffffffffff021916908373ffffffffffffffffffffffffffffffffffffffff1602179055508173ffffffffffffffffffffffffffffffffffffffff168173ffffffffffffffffffffffffffffffffffffffff167f8be0079c531659141344cd1fd0a4f28419497f9722a3daafe3b4186f6b6457e060405160405180910390a35050565b828054828255906000526020600020908101928215620001ab579160200282015b82811115620001aa5782518255916020019190600101906200018d565b5b509050620001ba9190620001be565b5090565b5b80821115620001d9576000816000905550600101620001bf565b5090565b6125ab80620001ed6000396000f3fe6080604052600436106100e85760003560e01c8063b33c25771161008a578063e60a729311610059578063e60a7293146102eb578063f12b758a14610314578063f2fde38b14610355578063f45cf5e41461037e576100e8565b8063b33c257714610240578063b7be251214610269578063bb3f9f8d14610285578063e0a37bb6146102c2576100e8565b80635fe39e0d116100c65780635fe39e0d146101ac578063715018a6146101d55780638da5cb5b146101ec578063b058e81a14610217576100e8565b80634252ae9b146100ed578063486592191461012e5780634eeb73911461016b575b600080fd5b3480156100f957600080fd5b50610114600480360381019061010f9190611212565b6103a7565b6040516101259594939291906113e4565b60405180910390f35b34801561013a57600080fd5b5061015560048036038101906101509190611558565b610643565b6040516101629190611636565b60405180910390f35b34801561017757600080fd5b50610192600480360381019061018d9190611212565b610741565b6040516101a39594939291906113e4565b60405180910390f35b3480156101b857600080fd5b506101d360048036038101906101ce9190611651565b6109dd565b005b3480156101e157600080fd5b506101ea610a9a565b005b3480156101f857600080fd5b50610201610aae565b60405161020e9190611706565b60405180910390f35b34801561022357600080fd5b5061023e60048036038101906102399190611745565b610ad7565b005b34801561024c57600080fd5b5061026760048036038101906102629190611745565b610b14565b005b610283600480360381019061027e91906117f8565b610b51565b005b34801561029157600080fd5b506102ac60048036038101906102a79190611212565b610bcd565b6040516102b99190611636565b60405180910390f35b3480156102ce57600080fd5b506102e960048036038101906102e49190611892565b610bf1565b005b3480156102f757600080fd5b50610312600480360381019061030d91906118d2565b610c68565b005b34801561032057600080fd5b5061033b60048036038101906103369190611212565b610d2b565b60405161034c9594939291906113e4565b60405180910390f35b34801561036157600080fd5b5061037c60048036038101906103779190611951565b610fc7565b005b34801561038a57600080fd5b506103a560048036038101906103a09190611745565b61104b565b005b600281815481106103b757600080fd5b9060005260206000209060070201600091509050806000016040518060400160405290816000820180546103ea906119ad565b80601f0160208091040260200160405190810160405280929190818152602001828054610416906119ad565b80156104635780601f1061043857610100808354040283529160200191610463565b820191906000526020600020905b81548152906001019060200180831161044657829003601f168201915b505050505081526020016001820154815250509080600201604051806040016040529081600082018054610496906119ad565b80601f01602080910402602001604051908101604052809291908181526020018280546104c2906119ad565b801561050f5780601f106104e45761010080835404028352916020019161050f565b820191906000526020600020905b8154815290600101906020018083116104f257829003601f168201915b50505050508152602001600182015481525050908060040160009054906101000a900467ffffffffffffffff169080600501805461054c906119ad565b80601f0160208091040260200160405190810160405280929190818152602001828054610578906119ad565b80156105c55780601f1061059a576101008083540402835291602001916105c5565b820191906000526020600020905b8154815290600101906020018083116105a857829003601f168201915b505050505090806006016040518060400160405290816000820160009054906101000a900467ffffffffffffffff1667ffffffffffffffff1667ffffffffffffffff1681526020016000820160089054906101000a900467ffffffffffffffff1667ffffffffffffffff1667ffffffffffffffff1681525050905085565b60006008848490501161068b576040517f08c379a000000000000000000000000000000000000000000000000000000000815260040161068290611a3c565b60405180910390fd5b6000808019168a1461069d578961069f565b825b915060005b6005805490508110156106f357600581815481106106c5576106c4611a5c565b5b90600052602060002001548314156106e057600191506106f3565b80806106eb90611aba565b9150506106a4565b5080610734576040517f08c379a000000000000000000000000000000000000000000000000000000000815260040161072b90611b4f565b60405180910390fd5b5098975050505050505050565b6003818154811061075157600080fd5b906000526020600020906007020160009150905080600001604051806040016040529081600082018054610784906119ad565b80601f01602080910402602001604051908101604052809291908181526020018280546107b0906119ad565b80156107fd5780601f106107d2576101008083540402835291602001916107fd565b820191906000526020600020905b8154815290600101906020018083116107e057829003601f168201915b505050505081526020016001820154815250509080600201604051806040016040529081600082018054610830906119ad565b80601f016020809104026020016040519081016040528092919081815260200182805461085c906119ad565b80156108a95780601f1061087e576101008083540402835291602001916108a9565b820191906000526020600020905b81548152906001019060200180831161088c57829003601f168201915b50505050508152602001600182015481525050908060040160009054906101000a900467ffffffffffffffff16908060050180546108e6906119ad565b80601f0160208091040260200160405190810160405280929190818152602001828054610912906119ad565b801561095f5780601f106109345761010080835404028352916020019161095f565b820191906000526020600020905b81548152906001019060200180831161094257829003601f168201915b505050505090806006016040518060400160405290816000820160009054906101000a900467ffffffffffffffff1667ffffffffffffffff1667ffffffffffffffff1681526020016000820160089054906101000a900467ffffffffffffffff1667ffffffffffffffff1667ffffffffffffffff1681525050905085565b6000805b600480549050811015610a52578560048281548110610a0357610a02611a5c565b5b90600052602060002001541415610a3f5760048181548110610a2857610a27611a5c565b5b906000526020600020016000905560019150610a52565b8080610a4a90611aba565b9150506109e1565b5080610a93576040517f08c379a0000000000000000000000000000000000000000000000000000000008152600401610a8a90611bbb565b60405180910390fd5b5050505050565b610aa2611088565b610aac6000611106565b565b60008060009054906101000a900473ffffffffffffffffffffffffffffffffffffffff16905090565b60018190806001815401808255809150506001900390600052602060002090600702016000909190919091508181610b0f91906123d0565b505050565b60038190806001815401808255809150506001900390600052602060002090600702016000909190919091508181610b4c91906123d0565b505050565b8573ffffffffffffffffffffffffffffffffffffffff16638d3d5aa98285888887876040518763ffffffff1660e01b8152600401610b93959493929190612429565b6000604051808303818588803b158015610bac57600080fd5b505af1158015610bc0573d6000803e3d6000fd5b5050505050505050505050565b60048181548110610bdd57600080fd5b906000526020600020016000915090505481565b610bf9611088565b8073ffffffffffffffffffffffffffffffffffffffff16638b24b4cb836040518263ffffffff1660e01b8152600401610c329190611636565b600060405180830381600087803b158015610c4c57600080fd5b505af1158015610c60573d6000803e3d6000fd5b505050505050565b6000805b600580549050811015610cbb5760058181548110610c8d57610c8c611a5c565b5b9060005260206000200154831415610ca85760019150610cbb565b8080610cb390611aba565b915050610c6c565b5080610cfc576040517f08c379a0000000000000000000000000000000000000000000000000000000008152600401610cf390611b4f565b60405180910390fd5b600484908060018154018082558091505060019003906000526020600020016000909190919091505550505050565b60018181548110610d3b57600080fd5b906000526020600020906007020160009150905080600001604051806040016040529081600082018054610d6e906119ad565b80601f0160208091040260200160405190810160405280929190818152602001828054610d9a906119ad565b8015610de75780601f10610dbc57610100808354040283529160200191610de7565b820191906000526020600020905b815481529060010190602001808311610dca57829003601f168201915b505050505081526020016001820154815250509080600201604051806040016040529081600082018054610e1a906119ad565b80601f0160208091040260200160405190810160405280929190818152602001828054610e46906119ad565b8015610e935780601f10610e6857610100808354040283529160200191610e93565b820191906000526020600020905b815481529060010190602001808311610e7657829003601f168201915b50505050508152602001600182015481525050908060040160009054906101000a900467ffffffffffffffff1690806005018054610ed0906119ad565b80601f0160208091040260200160405190810160405280929190818152602001828054610efc906119ad565b8015610f495780601f10610f1e57610100808354040283529160200191610f49565b820191906000526020600020905b815481529060010190602001808311610f2c57829003601f168201915b505050505090806006016040518060400160405290816000820160009054906101000a900467ffffffffffffffff1667ffffffffffffffff1667ffffffffffffffff1681526020016000820160089054906101000a900467ffffffffffffffff1667ffffffffffffffff1667ffffffffffffffff1681525050905085565b610fcf611088565b600073ffffffffffffffffffffffffffffffffffffffff168173ffffffffffffffffffffffffffffffffffffffff16141561103f576040517f08c379a0000000000000000000000000000000000000000000000000000000008152600401611036906124e9565b60405180910390fd5b61104881611106565b50565b6002819080600181540180825580915050600190039060005260206000209060070201600090919091909150818161108391906123d0565b505050565b6110906111ca565b73ffffffffffffffffffffffffffffffffffffffff166110ae610aae565b73ffffffffffffffffffffffffffffffffffffffff1614611104576040517f08c379a00000000000000000000000000000000000000000000000000000000081526004016110fb90612555565b60405180910390fd5b565b60008060009054906101000a900473ffffffffffffffffffffffffffffffffffffffff169050816000806101000a81548173ffffffffffffffffffffffffffffffffffffffff021916908373ffffffffffffffffffffffffffffffffffffffff1602179055508173ffffffffffffffffffffffffffffffffffffffff168173ffffffffffffffffffffffffffffffffffffffff167f8be0079c531659141344cd1fd0a4f28419497f9722a3daafe3b4186f6b6457e060405160405180910390a35050565b600033905090565b600080fd5b600080fd5b6000819050919050565b6111ef816111dc565b81146111fa57600080fd5b50565b60008135905061120c816111e6565b92915050565b600060208284031215611228576112276111d2565b5b6000611236848285016111fd565b91505092915050565b600081519050919050565b600082825260208201905092915050565b60005b8381101561127957808201518184015260208101905061125e565b83811115611288576000848401525b50505050565b6000601f19601f8301169050919050565b60006112aa8261123f565b6112b4818561124a565b93506112c481856020860161125b565b6112cd8161128e565b840191505092915050565b6000819050919050565b6112eb816112d8565b82525050565b6000604083016000830151848203600086015261130e828261129f565b915050602083015161132360208601826112e2565b508091505092915050565b600067ffffffffffffffff82169050919050565b61134b8161132e565b82525050565b600081519050919050565b600082825260208201905092915050565b600061137882611351565b611382818561135c565b935061139281856020860161125b565b61139b8161128e565b840191505092915050565b6113af8161132e565b82525050565b6040820160008201516113cb60008501826113a6565b5060208201516113de60208501826113a6565b50505050565b600060c08201905081810360008301526113fe81886112f1565b9050818103602083015261141281876112f1565b90506114216040830186611342565b8181036060830152611433818561136d565b905061144260808301846113b5565b9695505050505050565b611455816112d8565b811461146057600080fd5b50565b6000813590506114728161144c565b92915050565b6002811061148557600080fd5b50565b60008135905061149781611478565b92915050565b600080fd5b600080fd5b600080fd5b60008083601f8401126114c2576114c161149d565b5b8235905067ffffffffffffffff8111156114df576114de6114a2565b5b6020830191508360208202830111156114fb576114fa6114a7565b5b9250929050565b60008083601f8401126115185761151761149d565b5b8235905067ffffffffffffffff811115611535576115346114a2565b5b602083019150836001820283011115611551576115506114a7565b5b9250929050565b60008060008060008060008060c0898b031215611578576115776111d2565b5b60006115868b828c01611463565b98505060206115978b828c01611488565b975050604089013567ffffffffffffffff8111156115b8576115b76111d7565b5b6115c48b828c016114ac565b965096505060606115d78b828c01611463565b945050608089013567ffffffffffffffff8111156115f8576115f76111d7565b5b6116048b828c01611502565b935093505060a06116178b828c01611463565b9150509295985092959890939650565b611630816112d8565b82525050565b600060208201905061164b6000830184611627565b92915050565b6000806000806060858703121561166b5761166a6111d2565b5b600061167987828801611463565b945050602085013567ffffffffffffffff81111561169a576116996111d7565b5b6116a687828801611502565b935093505060406116b987828801611463565b91505092959194509250565b600073ffffffffffffffffffffffffffffffffffffffff82169050919050565b60006116f0826116c5565b9050919050565b611700816116e5565b82525050565b600060208201905061171b60008301846116f7565b92915050565b600080fd5b600060c0828403121561173c5761173b611721565b5b81905092915050565b60006020828403121561175b5761175a6111d2565b5b600082013567ffffffffffffffff811115611779576117786111d7565b5b61178584828501611726565b91505092915050565b6000611799826116e5565b9050919050565b6117a98161178e565b81146117b457600080fd5b50565b6000813590506117c6816117a0565b92915050565b6117d58161132e565b81146117e057600080fd5b50565b6000813590506117f2816117cc565b92915050565b60008060008060008060a08789031215611815576118146111d2565b5b600061182389828a016117b7565b965050602087013567ffffffffffffffff811115611844576118436111d7565b5b61185089828a01611502565b9550955050604061186389828a01611463565b935050606061187489828a016117e3565b925050608061188589828a016111fd565b9150509295509295509295565b600080604083850312156118a9576118a86111d2565b5b60006118b785828601611463565b92505060206118c8858286016117b7565b9150509250929050565b6000806000606084860312156118eb576118ea6111d2565b5b60006118f986828701611463565b935050602061190a86828701611463565b925050604061191b86828701611463565b9150509250925092565b61192e816116e5565b811461193957600080fd5b50565b60008135905061194b81611925565b92915050565b600060208284031215611967576119666111d2565b5b60006119758482850161193c565b91505092915050565b7f4e487b7100000000000000000000000000000000000000000000000000000000600052602260045260246000fd5b600060028204905060018216806119c557607f821691505b602082108114156119d9576119d861197e565b5b50919050565b600082825260208201905092915050565b7f496e76616c696420636f756e7465727061727479506f72744964000000000000600082015250565b6000611a26601a836119df565b9150611a31826119f0565b602082019050919050565b60006020820190508181036000830152611a5581611a19565b9050919050565b7f4e487b7100000000000000000000000000000000000000000000000000000000600052603260045260246000fd5b7f4e487b7100000000000000000000000000000000000000000000000000000000600052601160045260246000fd5b6000611ac5826111dc565b91507fffffffffffffffffffffffffffffffffffffffffffffffffffffffffffffffff821415611af857611af7611a8b565b5b600182019050919050565b7f556e737570706f727465642076657273696f6e00000000000000000000000000600082015250565b6000611b396013836119df565b9150611b4482611b03565b602082019050919050565b60006020820190508181036000830152611b6881611b2c565b9050919050565b7f4368616e6e656c206e6f7420666f756e64000000000000000000000000000000600082015250565b6000611ba56011836119df565b9150611bb082611b6f565b602082019050919050565b60006020820190508181036000830152611bd481611b98565b9050919050565b600080fd5b600080fd5b600080fd5b600082356001604003833603038112611c0657611c05611bdb565b5b80830191505092915050565b60008083356001602003843603038112611c2f57611c2e611bdb565b5b80840192508235915067ffffffffffffffff821115611c5157611c50611be0565b5b602083019250600182023603831315611c6d57611c6c611be5565b5b509250929050565b600082905092915050565b7f4e487b7100000000000000000000000000000000000000000000000000000000600052604160045260246000fd5b60008190508160005260206000209050919050565b60006020601f8301049050919050565b600082821b905092915050565b600060088302611d117fffffffffffffffffffffffffffffffffffffffffffffffffffffffffffffffff82611cd4565b611d1b8683611cd4565b95508019841693508086168417925050509392505050565b6000819050919050565b6000611d58611d53611d4e846111dc565b611d33565b6111dc565b9050919050565b6000819050919050565b611d7283611d3d565b611d86611d7e82611d5f565b848454611ce1565b825550505050565b600090565b611d9b611d8e565b611da6818484611d69565b505050565b5b81811015611dca57611dbf600082611d93565b600181019050611dac565b5050565b601f821115611e0f57611de081611caf565b611de984611cc4565b81016020851015611df8578190505b611e0c611e0485611cc4565b830182611dab565b50505b505050565b600082821c905092915050565b6000611e3260001984600802611e14565b1980831691505092915050565b6000611e4b8383611e21565b9150826002028217905092915050565b611e658383611c75565b67ffffffffffffffff811115611e7e57611e7d611c80565b5b611e8882546119ad565b611e93828285611dce565b6000601f831160018114611ec25760008415611eb0578287013590505b611eba8582611e3f565b865550611f22565b601f198416611ed086611caf565b60005b82811015611ef857848901358255600182019150602085019450602081019050611ed3565b86831015611f155784890135611f11601f891682611e21565b8355505b6001600288020188555050505b50505050505050565b611f36838383611e5b565b505050565b60008135611f488161144c565b80915050919050565b60008160001b9050919050565b60007fffffffffffffffffffffffffffffffffffffffffffffffffffffffffffffffff611f8a84611f51565b9350801983169250808416831791505092915050565b6000611fab826112d8565b9050919050565b60008160001c9050919050565b6000611fca82611fb2565b9050919050565b611fda82611fa0565b611fed611fe682611fbf565b8354611f5e565b8255505050565b60008101600083016120068185611c12565b612011818386611f2b565b5050505060018101602083018061202781611f3b565b90506120338184611fd1565b5050505050565b6120448282611ff4565b5050565b60008135612055816117cc565b80915050919050565b600067ffffffffffffffff61207284611f51565b9350801983169250808416831791505092915050565b60006120a361209e6120998461132e565b611d33565b61132e565b9050919050565b6000819050919050565b6120bd82612088565b6120d06120c9826120aa565b835461205e565b8255505050565b600080833560016020038436030381126120f4576120f3611bdb565b5b80840192508235915067ffffffffffffffff82111561211657612115611be0565b5b60208301925060018202360383131561213257612131611be5565b5b509250929050565b600082905092915050565b60008190508160005260206000209050919050565b601f82111561219b5761216c81612145565b61217584611cc4565b81016020851015612184578190505b61219861219085611cc4565b830182611dab565b50505b505050565b6121aa838361213a565b67ffffffffffffffff8111156121c3576121c2611c80565b5b6121cd82546119ad565b6121d882828561215a565b6000601f83116001811461220757600084156121f5578287013590505b6121ff8582611e3f565b865550612267565b601f19841661221586612145565b60005b8281101561223d57848901358255600182019150602085019450602081019050612218565b8683101561225a5784890135612256601f891682611e21565b8355505b6001600288020188555050505b50505050505050565b61227b8383836121a0565b505050565b60008160401b9050919050565b60006fffffffffffffffff00000000000000006122a984612280565b9350801983169250808416831791505092915050565b6122c882612088565b6122db6122d4826120aa565b835461228d565b8255505050565b6000810160008301806122f481612048565b905061230081846120b4565b50505060008101602083018061231581612048565b905061232181846122bf565b5050505050565b61233282826122e2565b5050565b60008101600083016123488185611bea565b612352818461203a565b50505060028101602083016123678185611bea565b612371818461203a565b50505060048101604083018061238681612048565b905061239281846120b4565b50505060058101606083016123a781856120d7565b6123b2818386612270565b505050506006810160808301806123c98184612328565b5050505050565b6123da8282612336565b5050565b82818337600083830152505050565b60006123f9838561135c565b93506124068385846123de565b61240f8361128e565b840190509392505050565b612423816111dc565b82525050565b600060808201905061243e6000830188611627565b81810360208301526124518186886123ed565b90506124606040830185611342565b61246d606083018461241a565b9695505050505050565b7f4f776e61626c653a206e6577206f776e657220697320746865207a65726f206160008201527f6464726573730000000000000000000000000000000000000000000000000000602082015250565b60006124d36026836119df565b91506124de82612477565b604082019050919050565b60006020820190508181036000830152612502816124c6565b9050919050565b7f4f776e61626c653a2063616c6c6572206973206e6f7420746865206f776e6572600082015250565b600061253f6020836119df565b915061254a82612509565b602082019050919050565b6000602082019050818103600083015261256e81612532565b905091905056fea2646970667358221220c0ea9d3c701110baab8b15b9d851cc4b405c9f2b4d4ef9281f4323dc44af155a64736f6c63430008090033",
  "linkReferences": {},
  "deployedLinkReferences": {}
}