{
  "_format": "hh-sol-artifact-1",
  "contractName": "Mars",
  "sourceName": "contracts/Mars.sol",
  "abi": [
    {
      "anonymous": false,
      "inputs": [
        {
          "indexed": true,
          "internalType": "address",
          "name": "previousOwner",
          "type": "address"
        },
        {
          "indexed": true,
          "internalType": "address",
          "name": "newOwner",
          "type": "address"
        }
      ],
      "name": "OwnershipTransferred",
      "type": "event"
    },
    {
      "inputs": [
        {
          "internalType": "uint256",
          "name": "",
          "type": "uint256"
        }
      ],
      "name": "ackPackets",
      "outputs": [
        {
          "components": [
            {
              "internalType": "string",
              "name": "portId",
              "type": "string"
            },
            {
              "internalType": "bytes32",
              "name": "channelId",
              "type": "bytes32"
            }
          ],
          "internalType": "struct IbcEndpoint",
          "name": "src",
          "type": "tuple"
        },
        {
          "components": [
            {
              "internalType": "string",
              "name": "portId",
              "type": "string"
            },
            {
              "internalType": "bytes32",
              "name": "channelId",
              "type": "bytes32"
            }
          ],
          "internalType": "struct IbcEndpoint",
          "name": "dest",
          "type": "tuple"
        },
        {
          "internalType": "uint64",
          "name": "sequence",
          "type": "uint64"
        },
        {
          "internalType": "bytes",
          "name": "data",
          "type": "bytes"
        },
        {
          "components": [
            {
              "internalType": "uint64",
              "name": "block",
              "type": "uint64"
            },
            {
              "internalType": "uint64",
              "name": "timestamp",
              "type": "uint64"
            }
          ],
          "internalType": "struct IbcTimeout",
          "name": "timeout",
          "type": "tuple"
        }
      ],
      "stateMutability": "view",
      "type": "function"
    },
    {
      "inputs": [
        {
          "internalType": "uint256",
          "name": "",
          "type": "uint256"
        }
      ],
      "name": "connectedChannels",
      "outputs": [
        {
          "internalType": "bytes32",
          "name": "",
          "type": "bytes32"
        }
      ],
      "stateMutability": "view",
      "type": "function"
    },
    {
      "inputs": [
        {
          "internalType": "address",
          "name": "dispatcher",
          "type": "address"
        },
        {
          "internalType": "string",
          "name": "message",
          "type": "string"
        },
        {
          "internalType": "bytes32",
          "name": "channelId",
          "type": "bytes32"
        }
      ],
      "name": "greet",
      "outputs": [],
      "stateMutability": "nonpayable",
      "type": "function"
    },
    {
      "inputs": [
        {
          "components": [
            {
              "components": [
                {
                  "internalType": "string",
                  "name": "portId",
                  "type": "string"
                },
                {
                  "internalType": "bytes32",
                  "name": "channelId",
                  "type": "bytes32"
                }
              ],
              "internalType": "struct IbcEndpoint",
              "name": "src",
              "type": "tuple"
            },
            {
              "components": [
                {
                  "internalType": "string",
                  "name": "portId",
                  "type": "string"
                },
                {
                  "internalType": "bytes32",
                  "name": "channelId",
                  "type": "bytes32"
                }
              ],
              "internalType": "struct IbcEndpoint",
              "name": "dest",
              "type": "tuple"
            },
            {
              "internalType": "uint64",
              "name": "sequence",
              "type": "uint64"
            },
            {
              "internalType": "bytes",
              "name": "data",
              "type": "bytes"
            },
            {
              "components": [
                {
                  "internalType": "uint64",
                  "name": "block",
                  "type": "uint64"
                },
                {
                  "internalType": "uint64",
                  "name": "timestamp",
                  "type": "uint64"
                }
              ],
              "internalType": "struct IbcTimeout",
              "name": "timeout",
              "type": "tuple"
            }
          ],
          "internalType": "struct IbcPacket",
          "name": "packet",
          "type": "tuple"
        }
      ],
      "name": "onAcknowledgementPacket",
      "outputs": [],
      "stateMutability": "nonpayable",
      "type": "function"
    },
    {
      "inputs": [
        {
          "internalType": "string",
          "name": "channelId",
          "type": "string"
        },
        {
          "internalType": "string",
          "name": "error",
          "type": "string"
        }
      ],
      "name": "onCloseIbcChannel",
      "outputs": [],
      "stateMutability": "nonpayable",
      "type": "function"
    },
    {
      "inputs": [
        {
          "internalType": "bytes32",
          "name": "channelId",
          "type": "bytes32"
        },
        {
          "internalType": "bytes32",
          "name": "counterpartyChannelId",
          "type": "bytes32"
        },
        {
          "internalType": "bytes32",
          "name": "counterpartyVersion",
          "type": "bytes32"
        }
      ],
      "name": "onConnectIbcChannel",
      "outputs": [],
      "stateMutability": "nonpayable",
      "type": "function"
    },
    {
      "inputs": [
        {
          "internalType": "bytes32",
          "name": "channelId",
          "type": "bytes32"
        },
        {
          "internalType": "bytes32",
          "name": "version",
          "type": "bytes32"
        },
        {
          "internalType": "enum ChannelOrder",
          "name": "ordering",
          "type": "uint8"
        },
        {
          "internalType": "string[]",
          "name": "connectionHops",
          "type": "string[]"
        },
        {
          "internalType": "bytes32",
          "name": "counterpartyChannelId",
          "type": "bytes32"
        },
        {
          "internalType": "string",
          "name": "counterpartyPortId",
          "type": "string"
        },
        {
          "internalType": "bytes32",
          "name": "counterpartyVersion",
          "type": "bytes32"
        }
      ],
      "name": "onOpenIbcChannel",
      "outputs": [
        {
          "internalType": "bytes32",
          "name": "selectedVersion",
          "type": "bytes32"
        }
      ],
      "stateMutability": "nonpayable",
      "type": "function"
    },
    {
      "inputs": [
        {
          "components": [
            {
              "components": [
                {
                  "internalType": "string",
                  "name": "portId",
                  "type": "string"
                },
                {
                  "internalType": "bytes32",
                  "name": "channelId",
                  "type": "bytes32"
                }
              ],
              "internalType": "struct IbcEndpoint",
              "name": "src",
              "type": "tuple"
            },
            {
              "components": [
                {
                  "internalType": "string",
                  "name": "portId",
                  "type": "string"
                },
                {
                  "internalType": "bytes32",
                  "name": "channelId",
                  "type": "bytes32"
                }
              ],
              "internalType": "struct IbcEndpoint",
              "name": "dest",
              "type": "tuple"
            },
            {
              "internalType": "uint64",
              "name": "sequence",
              "type": "uint64"
            },
            {
              "internalType": "bytes",
              "name": "data",
              "type": "bytes"
            },
            {
              "components": [
                {
                  "internalType": "uint64",
                  "name": "block",
                  "type": "uint64"
                },
                {
                  "internalType": "uint64",
                  "name": "timestamp",
                  "type": "uint64"
                }
              ],
              "internalType": "struct IbcTimeout",
              "name": "timeout",
              "type": "tuple"
            }
          ],
          "internalType": "struct IbcPacket",
          "name": "packet",
          "type": "tuple"
        }
      ],
      "name": "onRecvPacket",
      "outputs": [],
      "stateMutability": "nonpayable",
      "type": "function"
    },
    {
      "inputs": [
        {
          "components": [
            {
              "components": [
                {
                  "internalType": "string",
                  "name": "portId",
                  "type": "string"
                },
                {
                  "internalType": "bytes32",
                  "name": "channelId",
                  "type": "bytes32"
                }
              ],
              "internalType": "struct IbcEndpoint",
              "name": "src",
              "type": "tuple"
            },
            {
              "components": [
                {
                  "internalType": "string",
                  "name": "portId",
                  "type": "string"
                },
                {
                  "internalType": "bytes32",
                  "name": "channelId",
                  "type": "bytes32"
                }
              ],
              "internalType": "struct IbcEndpoint",
              "name": "dest",
              "type": "tuple"
            },
            {
              "internalType": "uint64",
              "name": "sequence",
              "type": "uint64"
            },
            {
              "internalType": "bytes",
              "name": "data",
              "type": "bytes"
            },
            {
              "components": [
                {
                  "internalType": "uint64",
                  "name": "block",
                  "type": "uint64"
                },
                {
                  "internalType": "uint64",
                  "name": "timestamp",
                  "type": "uint64"
                }
              ],
              "internalType": "struct IbcTimeout",
              "name": "timeout",
              "type": "tuple"
            }
          ],
          "internalType": "struct IbcPacket",
          "name": "packet",
          "type": "tuple"
        }
      ],
      "name": "onTimeoutPacket",
      "outputs": [],
      "stateMutability": "nonpayable",
      "type": "function"
    },
    {
      "inputs": [],
      "name": "owner",
      "outputs": [
        {
          "internalType": "address",
          "name": "",
          "type": "address"
        }
      ],
      "stateMutability": "view",
      "type": "function"
    },
    {
      "inputs": [
        {
          "internalType": "uint256",
          "name": "",
          "type": "uint256"
        }
      ],
      "name": "recvedPackets",
      "outputs": [
        {
          "components": [
            {
              "internalType": "string",
              "name": "portId",
              "type": "string"
            },
            {
              "internalType": "bytes32",
              "name": "channelId",
              "type": "bytes32"
            }
          ],
          "internalType": "struct IbcEndpoint",
          "name": "src",
          "type": "tuple"
        },
        {
          "components": [
            {
              "internalType": "string",
              "name": "portId",
              "type": "string"
            },
            {
              "internalType": "bytes32",
              "name": "channelId",
              "type": "bytes32"
            }
          ],
          "internalType": "struct IbcEndpoint",
          "name": "dest",
          "type": "tuple"
        },
        {
          "internalType": "uint64",
          "name": "sequence",
          "type": "uint64"
        },
        {
          "internalType": "bytes",
          "name": "data",
          "type": "bytes"
        },
        {
          "components": [
            {
              "internalType": "uint64",
              "name": "block",
              "type": "uint64"
            },
            {
              "internalType": "uint64",
              "name": "timestamp",
              "type": "uint64"
            }
          ],
          "internalType": "struct IbcTimeout",
          "name": "timeout",
          "type": "tuple"
        }
      ],
      "stateMutability": "view",
      "type": "function"
    },
    {
      "inputs": [],
      "name": "renounceOwnership",
      "outputs": [],
      "stateMutability": "nonpayable",
      "type": "function"
    },
    {
      "inputs": [
        {
          "internalType": "uint256",
          "name": "",
          "type": "uint256"
        }
      ],
      "name": "timeoutPackets",
      "outputs": [
        {
          "components": [
            {
              "internalType": "string",
              "name": "portId",
              "type": "string"
            },
            {
              "internalType": "bytes32",
              "name": "channelId",
              "type": "bytes32"
            }
          ],
          "internalType": "struct IbcEndpoint",
          "name": "src",
          "type": "tuple"
        },
        {
          "components": [
            {
              "internalType": "string",
              "name": "portId",
              "type": "string"
            },
            {
              "internalType": "bytes32",
              "name": "channelId",
              "type": "bytes32"
            }
          ],
          "internalType": "struct IbcEndpoint",
          "name": "dest",
          "type": "tuple"
        },
        {
          "internalType": "uint64",
          "name": "sequence",
          "type": "uint64"
        },
        {
          "internalType": "bytes",
          "name": "data",
          "type": "bytes"
        },
        {
          "components": [
            {
              "internalType": "uint64",
              "name": "block",
              "type": "uint64"
            },
            {
              "internalType": "uint64",
              "name": "timestamp",
              "type": "uint64"
            }
          ],
          "internalType": "struct IbcTimeout",
          "name": "timeout",
          "type": "tuple"
        }
      ],
      "stateMutability": "view",
      "type": "function"
    },
    {
      "inputs": [
        {
          "internalType": "address",
          "name": "newOwner",
          "type": "address"
        }
      ],
      "name": "transferOwnership",
      "outputs": [],
      "stateMutability": "nonpayable",
      "type": "function"
    }
  ],
  "bytecode": "0x608060405260405180604001604052807f312e30000000000000000000000000000000000000000000000000000000000081526020017f322e30000000000000000000000000000000000000000000000000000000000081525060059060026200006b9291906200016c565b503480156200007957600080fd5b506200009a6200008e620000a060201b60201c565b620000a860201b60201c565b620001dd565b600033905090565b60008060009054906101000a900473ffffffffffffffffffffffffffffffffffffffff169050816000806101000a81548173ffffffffffffffffffffffffffffffffffffffff021916908373ffffffffffffffffffffffffffffffffffffffff1602179055508173ffffffffffffffffffffffffffffffffffffffff168173ffffffffffffffffffffffffffffffffffffffff167f8be0079c531659141344cd1fd0a4f28419497f9722a3daafe3b4186f6b6457e060405160405180910390a35050565b828054828255906000526020600020908101928215620001ab579160200282015b82811115620001aa5782518255916020019190600101906200018d565b5b509050620001ba9190620001be565b5090565b5b80821115620001d9576000816000905550600101620001bf565b5090565b6123f680620001ed6000396000f3fe608060405234801561001057600080fd5b50600436106100ea5760003560e01c8063bb3f9f8d1161008c578063f12b758a11610066578063f12b758a1461024f578063f2fde38b14610283578063f45cf5e41461029f578063f6431b50146102bb576100ea565b8063bb3f9f8d146101d3578063da972ca614610203578063e60a729314610233576100ea565b8063715018a6116100c8578063715018a6146101735780638da5cb5b1461017d578063b058e81a1461019b578063b33c2577146101b7576100ea565b80634252ae9b146100ef5780634eeb7391146101235780636afd617414610157575b600080fd5b610109600480360381019061010491906110bf565b6102d7565b60405161011a959493929190611291565b60405180910390f35b61013d600480360381019061013891906110bf565b610573565b60405161014e959493929190611291565b60405180910390f35b610171600480360381019061016c919061135e565b61080f565b005b61017b6108c3565b005b6101856108d7565b6040516101929190611420565b60405180910390f35b6101b560048036038101906101b0919061145f565b610900565b005b6101d160048036038101906101cc919061145f565b61093d565b005b6101ed60048036038101906101e891906110bf565b61097a565b6040516101fa91906114b7565b60405180910390f35b61021d60048036038101906102189190611579565b61099e565b60405161022a91906114b7565b60405180910390f35b61024d6004803603810190610248919061165b565b610a9d565b005b610269600480360381019061026491906110bf565b610b60565b60405161027a959493929190611291565b60405180910390f35b61029d600480360381019061029891906116da565b610dfc565b005b6102b960048036038101906102b4919061145f565b610e80565b005b6102d560048036038101906102d09190611707565b610ebd565b005b600281815481106102e757600080fd5b90600052602060002090600702016000915090508060000160405180604001604052908160008201805461031a906117aa565b80601f0160208091040260200160405190810160405280929190818152602001828054610346906117aa565b80156103935780601f1061036857610100808354040283529160200191610393565b820191906000526020600020905b81548152906001019060200180831161037657829003601f168201915b5050505050815260200160018201548152505090806002016040518060400160405290816000820180546103c6906117aa565b80601f01602080910402602001604051908101604052809291908181526020018280546103f2906117aa565b801561043f5780601f106104145761010080835404028352916020019161043f565b820191906000526020600020905b81548152906001019060200180831161042257829003601f168201915b50505050508152602001600182015481525050908060040160009054906101000a900467ffffffffffffffff169080600501805461047c906117aa565b80601f01602080910402602001604051908101604052809291908181526020018280546104a8906117aa565b80156104f55780601f106104ca576101008083540402835291602001916104f5565b820191906000526020600020905b8154815290600101906020018083116104d857829003601f168201915b505050505090806006016040518060400160405290816000820160009054906101000a900467ffffffffffffffff1667ffffffffffffffff1667ffffffffffffffff1681526020016000820160089054906101000a900467ffffffffffffffff1667ffffffffffffffff1667ffffffffffffffff1681525050905085565b6003818154811061058357600080fd5b9060005260206000209060070201600091509050806000016040518060400160405290816000820180546105b6906117aa565b80601f01602080910402602001604051908101604052809291908181526020018280546105e2906117aa565b801561062f5780601f106106045761010080835404028352916020019161062f565b820191906000526020600020905b81548152906001019060200180831161061257829003601f168201915b505050505081526020016001820154815250509080600201604051806040016040529081600082018054610662906117aa565b80601f016020809104026020016040519081016040528092919081815260200182805461068e906117aa565b80156106db5780601f106106b0576101008083540402835291602001916106db565b820191906000526020600020905b8154815290600101906020018083116106be57829003601f168201915b50505050508152602001600182015481525050908060040160009054906101000a900467ffffffffffffffff1690806005018054610718906117aa565b80601f0160208091040260200160405190810160405280929190818152602001828054610744906117aa565b80156107915780601f1061076657610100808354040283529160200191610791565b820191906000526020600020905b81548152906001019060200180831161077457829003601f168201915b505050505090806006016040518060400160405290816000820160009054906101000a900467ffffffffffffffff1667ffffffffffffffff1667ffffffffffffffff1681526020016000820160089054906101000a900467ffffffffffffffff1667ffffffffffffffff1667ffffffffffffffff1681525050905085565b60005b6004805490508110156108bc57848460405161082f92919061181b565b60405180910390206004828154811061084b5761084a611834565b5b90600052602060002001546040516020016108669190611884565b6040516020818303038152906040528051906020012014156108a9576004818154811061089657610895611834565b5b90600052602060002001600090556108bc565b80806108b4906118ce565b915050610812565b5050505050565b6108cb610f35565b6108d56000610fb3565b565b60008060009054906101000a900473ffffffffffffffffffffffffffffffffffffffff16905090565b600181908060018154018082558091505060019003906000526020600020906007020160009091909190915081816109389190612123565b505050565b600381908060018154018082558091505060019003906000526020600020906007020160009091909190915081816109759190612123565b505050565b6004818154811061098a57600080fd5b906000526020600020016000915090505481565b6000600884849050116109e6576040517f08c379a00000000000000000000000000000000000000000000000000000000081526004016109dd9061218e565b60405180910390fd5b6000808019168a146109f857896109fa565b825b915060005b600580549050811015610a4e5760058181548110610a2057610a1f611834565b5b9060005260206000200154831415610a3b5760019150610a4e565b8080610a46906118ce565b9150506109ff565b5080610a8f576040517f08c379a0000000000000000000000000000000000000000000000000000000008152600401610a86906121fa565b60405180910390fd5b509998505050505050505050565b6000805b600580549050811015610af05760058181548110610ac257610ac1611834565b5b9060005260206000200154831415610add5760019150610af0565b8080610ae8906118ce565b915050610aa1565b5080610b31576040517f08c379a0000000000000000000000000000000000000000000000000000000008152600401610b28906121fa565b60405180910390fd5b600484908060018154018082558091505060019003906000526020600020016000909190919091505550505050565b60018181548110610b7057600080fd5b906000526020600020906007020160009150905080600001604051806040016040529081600082018054610ba3906117aa565b80601f0160208091040260200160405190810160405280929190818152602001828054610bcf906117aa565b8015610c1c5780601f10610bf157610100808354040283529160200191610c1c565b820191906000526020600020905b815481529060010190602001808311610bff57829003601f168201915b505050505081526020016001820154815250509080600201604051806040016040529081600082018054610c4f906117aa565b80601f0160208091040260200160405190810160405280929190818152602001828054610c7b906117aa565b8015610cc85780601f10610c9d57610100808354040283529160200191610cc8565b820191906000526020600020905b815481529060010190602001808311610cab57829003601f168201915b50505050508152602001600182015481525050908060040160009054906101000a900467ffffffffffffffff1690806005018054610d05906117aa565b80601f0160208091040260200160405190810160405280929190818152602001828054610d31906117aa565b8015610d7e5780601f10610d5357610100808354040283529160200191610d7e565b820191906000526020600020905b815481529060010190602001808311610d6157829003601f168201915b505050505090806006016040518060400160405290816000820160009054906101000a900467ffffffffffffffff1667ffffffffffffffff1667ffffffffffffffff1681526020016000820160089054906101000a900467ffffffffffffffff1667ffffffffffffffff1667ffffffffffffffff1681525050905085565b610e04610f35565b600073ffffffffffffffffffffffffffffffffffffffff168173ffffffffffffffffffffffffffffffffffffffff161415610e74576040517f08c379a0000000000000000000000000000000000000000000000000000000008152600401610e6b9061228c565b60405180910390fd5b610e7d81610fb3565b50565b60028190806001815401808255809150506001900390600052602060002090600702016000909190919091508181610eb89190612123565b505050565b8373ffffffffffffffffffffffffffffffffffffffff1663c3e1155c82858560006040518563ffffffff1660e01b8152600401610efd9493929190612314565b600060405180830381600087803b158015610f1757600080fd5b505af1158015610f2b573d6000803e3d6000fd5b5050505050505050565b610f3d611077565b73ffffffffffffffffffffffffffffffffffffffff16610f5b6108d7565b73ffffffffffffffffffffffffffffffffffffffff1614610fb1576040517f08c379a0000000000000000000000000000000000000000000000000000000008152600401610fa8906123a0565b60405180910390fd5b565b60008060009054906101000a900473ffffffffffffffffffffffffffffffffffffffff169050816000806101000a81548173ffffffffffffffffffffffffffffffffffffffff021916908373ffffffffffffffffffffffffffffffffffffffff1602179055508173ffffffffffffffffffffffffffffffffffffffff168173ffffffffffffffffffffffffffffffffffffffff167f8be0079c531659141344cd1fd0a4f28419497f9722a3daafe3b4186f6b6457e060405160405180910390a35050565b600033905090565b600080fd5b600080fd5b6000819050919050565b61109c81611089565b81146110a757600080fd5b50565b6000813590506110b981611093565b92915050565b6000602082840312156110d5576110d461107f565b5b60006110e3848285016110aa565b91505092915050565b600081519050919050565b600082825260208201905092915050565b60005b8381101561112657808201518184015260208101905061110b565b83811115611135576000848401525b50505050565b6000601f19601f8301169050919050565b6000611157826110ec565b61116181856110f7565b9350611171818560208601611108565b61117a8161113b565b840191505092915050565b6000819050919050565b61119881611185565b82525050565b600060408301600083015184820360008601526111bb828261114c565b91505060208301516111d0602086018261118f565b508091505092915050565b600067ffffffffffffffff82169050919050565b6111f8816111db565b82525050565b600081519050919050565b600082825260208201905092915050565b6000611225826111fe565b61122f8185611209565b935061123f818560208601611108565b6112488161113b565b840191505092915050565b61125c816111db565b82525050565b6040820160008201516112786000850182611253565b50602082015161128b6020850182611253565b50505050565b600060c08201905081810360008301526112ab818861119e565b905081810360208301526112bf818761119e565b90506112ce60408301866111ef565b81810360608301526112e0818561121a565b90506112ef6080830184611262565b9695505050505050565b600080fd5b600080fd5b600080fd5b60008083601f84011261131e5761131d6112f9565b5b8235905067ffffffffffffffff81111561133b5761133a6112fe565b5b60208301915083600182028301111561135757611356611303565b5b9250929050565b600080600080604085870312156113785761137761107f565b5b600085013567ffffffffffffffff81111561139657611395611084565b5b6113a287828801611308565b9450945050602085013567ffffffffffffffff8111156113c5576113c4611084565b5b6113d187828801611308565b925092505092959194509250565b600073ffffffffffffffffffffffffffffffffffffffff82169050919050565b600061140a826113df565b9050919050565b61141a816113ff565b82525050565b60006020820190506114356000830184611411565b92915050565b600080fd5b600060c082840312156114565761145561143b565b5b81905092915050565b6000602082840312156114755761147461107f565b5b600082013567ffffffffffffffff81111561149357611492611084565b5b61149f84828501611440565b91505092915050565b6114b181611185565b82525050565b60006020820190506114cc60008301846114a8565b92915050565b6114db81611185565b81146114e657600080fd5b50565b6000813590506114f8816114d2565b92915050565b6002811061150b57600080fd5b50565b60008135905061151d816114fe565b92915050565b60008083601f840112611539576115386112f9565b5b8235905067ffffffffffffffff811115611556576115556112fe565b5b60208301915083602082028301111561157257611571611303565b5b9250929050565b600080600080600080600080600060e08a8c03121561159b5761159a61107f565b5b60006115a98c828d016114e9565b99505060206115ba8c828d016114e9565b98505060406115cb8c828d0161150e565b97505060608a013567ffffffffffffffff8111156115ec576115eb611084565b5b6115f88c828d01611523565b9650965050608061160b8c828d016114e9565b94505060a08a013567ffffffffffffffff81111561162c5761162b611084565b5b6116388c828d01611308565b935093505060c061164b8c828d016114e9565b9150509295985092959850929598565b6000806000606084860312156116745761167361107f565b5b6000611682868287016114e9565b9350506020611693868287016114e9565b92505060406116a4868287016114e9565b9150509250925092565b6116b7816113ff565b81146116c257600080fd5b50565b6000813590506116d4816116ae565b92915050565b6000602082840312156116f0576116ef61107f565b5b60006116fe848285016116c5565b91505092915050565b600080600080606085870312156117215761172061107f565b5b600061172f878288016116c5565b945050602085013567ffffffffffffffff8111156117505761174f611084565b5b61175c87828801611308565b9350935050604061176f878288016114e9565b91505092959194509250565b7f4e487b7100000000000000000000000000000000000000000000000000000000600052602260045260246000fd5b600060028204905060018216806117c257607f821691505b602082108114156117d6576117d561177b565b5b50919050565b600081905092915050565b82818337600083830152505050565b600061180283856117dc565b935061180f8385846117e7565b82840190509392505050565b60006118288284866117f6565b91508190509392505050565b7f4e487b7100000000000000000000000000000000000000000000000000000000600052603260045260246000fd5b6000819050919050565b61187e61187982611185565b611863565b82525050565b6000611890828461186d565b60208201915081905092915050565b7f4e487b7100000000000000000000000000000000000000000000000000000000600052601160045260246000fd5b60006118d982611089565b91507fffffffffffffffffffffffffffffffffffffffffffffffffffffffffffffffff82141561190c5761190b61189f565b5b600182019050919050565b600080fd5b600080fd5b600080fd5b60008235600160400383360303811261194257611941611917565b5b80830191505092915050565b6000808335600160200384360303811261196b5761196a611917565b5b80840192508235915067ffffffffffffffff82111561198d5761198c61191c565b5b6020830192506001820236038313156119a9576119a8611921565b5b509250929050565b600082905092915050565b7f4e487b7100000000000000000000000000000000000000000000000000000000600052604160045260246000fd5b60008190508160005260206000209050919050565b60006020601f8301049050919050565b600082821b905092915050565b600060088302611a4d7fffffffffffffffffffffffffffffffffffffffffffffffffffffffffffffffff82611a10565b611a578683611a10565b95508019841693508086168417925050509392505050565b6000819050919050565b6000611a94611a8f611a8a84611089565b611a6f565b611089565b9050919050565b6000819050919050565b611aae83611a79565b611ac2611aba82611a9b565b848454611a1d565b825550505050565b600090565b611ad7611aca565b611ae2818484611aa5565b505050565b5b81811015611b0657611afb600082611acf565b600181019050611ae8565b5050565b601f821115611b4b57611b1c816119eb565b611b2584611a00565b81016020851015611b34578190505b611b48611b4085611a00565b830182611ae7565b50505b505050565b600082821c905092915050565b6000611b6e60001984600802611b50565b1980831691505092915050565b6000611b878383611b5d565b9150826002028217905092915050565b611ba183836119b1565b67ffffffffffffffff811115611bba57611bb96119bc565b5b611bc482546117aa565b611bcf828285611b0a565b6000601f831160018114611bfe5760008415611bec578287013590505b611bf68582611b7b565b865550611c5e565b601f198416611c0c866119eb565b60005b82811015611c3457848901358255600182019150602085019450602081019050611c0f565b86831015611c515784890135611c4d601f891682611b5d565b8355505b6001600288020188555050505b50505050505050565b611c72838383611b97565b505050565b60008135611c84816114d2565b80915050919050565b60008160001b9050919050565b60007fffffffffffffffffffffffffffffffffffffffffffffffffffffffffffffffff611cc684611c8d565b9350801983169250808416831791505092915050565b6000611ce782611185565b9050919050565b60008160001c9050919050565b6000611d0682611cee565b9050919050565b611d1682611cdc565b611d29611d2282611cfb565b8354611c9a565b8255505050565b6000810160008301611d42818561194e565b611d4d818386611c67565b50505050600181016020830180611d6381611c77565b9050611d6f8184611d0d565b5050505050565b611d808282611d30565b5050565b611d8d816111db565b8114611d9857600080fd5b50565b60008135611da881611d84565b80915050919050565b600067ffffffffffffffff611dc584611c8d565b9350801983169250808416831791505092915050565b6000611df6611df1611dec846111db565b611a6f565b6111db565b9050919050565b6000819050919050565b611e1082611ddb565b611e23611e1c82611dfd565b8354611db1565b8255505050565b60008083356001602003843603038112611e4757611e46611917565b5b80840192508235915067ffffffffffffffff821115611e6957611e6861191c565b5b602083019250600182023603831315611e8557611e84611921565b5b509250929050565b600082905092915050565b60008190508160005260206000209050919050565b601f821115611eee57611ebf81611e98565b611ec884611a00565b81016020851015611ed7578190505b611eeb611ee385611a00565b830182611ae7565b50505b505050565b611efd8383611e8d565b67ffffffffffffffff811115611f1657611f156119bc565b5b611f2082546117aa565b611f2b828285611ead565b6000601f831160018114611f5a5760008415611f48578287013590505b611f528582611b7b565b865550611fba565b601f198416611f6886611e98565b60005b82811015611f9057848901358255600182019150602085019450602081019050611f6b565b86831015611fad5784890135611fa9601f891682611b5d565b8355505b6001600288020188555050505b50505050505050565b611fce838383611ef3565b505050565b60008160401b9050919050565b60006fffffffffffffffff0000000000000000611ffc84611fd3565b9350801983169250808416831791505092915050565b61201b82611ddb565b61202e61202782611dfd565b8354611fe0565b8255505050565b60008101600083018061204781611d9b565b90506120538184611e07565b50505060008101602083018061206881611d9b565b90506120748184612012565b5050505050565b6120858282612035565b5050565b600081016000830161209b8185611926565b6120a58184611d76565b50505060028101602083016120ba8185611926565b6120c48184611d76565b5050506004810160408301806120d981611d9b565b90506120e58184611e07565b50505060058101606083016120fa8185611e2a565b612105818386611fc3565b5050505060068101608083018061211c818461207b565b5050505050565b61212d8282612089565b5050565b600082825260208201905092915050565b7f496e76616c696420636f756e7465727061727479506f72744964000000000000600082015250565b6000612178601a83612131565b915061218382612142565b602082019050919050565b600060208201905081810360008301526121a78161216b565b9050919050565b7f556e737570706f727465642076657273696f6e00000000000000000000000000600082015250565b60006121e4601383612131565b91506121ef826121ae565b602082019050919050565b60006020820190508181036000830152612213816121d7565b9050919050565b7f4f776e61626c653a206e6577206f776e657220697320746865207a65726f206160008201527f6464726573730000000000000000000000000000000000000000000000000000602082015250565b6000612276602683612131565b91506122818261221a565b604082019050919050565b600060208201905081810360008301526122a581612269565b9050919050565b60006122b88385611209565b93506122c58385846117e7565b6122ce8361113b565b840190509392505050565b6000819050919050565b60006122fe6122f96122f4846122d9565b611a6f565b6111db565b9050919050565b61230e816122e3565b82525050565b600060608201905061232960008301876114a8565b818103602083015261233c8185876122ac565b905061234b6040830184612305565b95945050505050565b7f4f776e61626c653a2063616c6c6572206973206e6f7420746865206f776e6572600082015250565b600061238a602083612131565b915061239582612354565b602082019050919050565b600060208201905081810360008301526123b98161237d565b905091905056fea26469706673582212202fd6115161ebb32ef0e2f33abcb6cf153565712638b836c4d8ef516b818e6dc464736f6c63430008090033",
  "linkReferences": {},
  "deployedLinkReferences": {}
}