{
  "_format": "hh-sol-artifact-1",
  "contractName": "Mars",
  "sourceName": "contracts/Mars.sol",
  "abi": [
    {
      "anonymous": false,
      "inputs": [
        {
          "indexed": true,
          "internalType": "address",
          "name": "previousOwner",
          "type": "address"
        },
        {
          "indexed": true,
          "internalType": "address",
          "name": "newOwner",
          "type": "address"
        }
      ],
      "name": "OwnershipTransferred",
      "type": "event"
    },
    {
      "inputs": [
        {
          "internalType": "uint256",
          "name": "",
          "type": "uint256"
        }
      ],
      "name": "ackPackets",
      "outputs": [
        {
          "components": [
            {
              "internalType": "string",
              "name": "portId",
              "type": "string"
            },
            {
              "internalType": "bytes32",
              "name": "channelId",
              "type": "bytes32"
            }
          ],
          "internalType": "struct IbcEndpoint",
          "name": "src",
          "type": "tuple"
        },
        {
          "components": [
            {
              "internalType": "string",
              "name": "portId",
              "type": "string"
            },
            {
              "internalType": "bytes32",
              "name": "channelId",
              "type": "bytes32"
            }
          ],
          "internalType": "struct IbcEndpoint",
          "name": "dest",
          "type": "tuple"
        },
        {
          "internalType": "uint64",
          "name": "sequence",
          "type": "uint64"
        },
        {
          "internalType": "bytes",
          "name": "data",
          "type": "bytes"
        },
        {
          "components": [
            {
              "internalType": "uint64",
              "name": "block",
              "type": "uint64"
            },
            {
              "internalType": "uint64",
              "name": "timestamp",
              "type": "uint64"
            }
          ],
          "internalType": "struct IbcTimeout",
          "name": "timeout",
          "type": "tuple"
        }
      ],
      "stateMutability": "view",
      "type": "function"
    },
    {
      "inputs": [
        {
          "internalType": "uint256",
          "name": "",
          "type": "uint256"
        }
      ],
      "name": "connectedChannels",
      "outputs": [
        {
          "internalType": "string",
          "name": "",
          "type": "string"
        }
      ],
      "stateMutability": "view",
      "type": "function"
    },
    {
      "inputs": [
        {
          "internalType": "address",
          "name": "dispatcher",
          "type": "address"
        },
        {
          "internalType": "string",
          "name": "message",
          "type": "string"
        },
        {
          "internalType": "bytes32",
          "name": "channelId",
          "type": "bytes32"
        }
      ],
      "name": "greet",
      "outputs": [],
      "stateMutability": "nonpayable",
      "type": "function"
    },
    {
      "inputs": [
        {
          "components": [
            {
              "components": [
                {
                  "internalType": "string",
                  "name": "portId",
                  "type": "string"
                },
                {
                  "internalType": "bytes32",
                  "name": "channelId",
                  "type": "bytes32"
                }
              ],
              "internalType": "struct IbcEndpoint",
              "name": "src",
              "type": "tuple"
            },
            {
              "components": [
                {
                  "internalType": "string",
                  "name": "portId",
                  "type": "string"
                },
                {
                  "internalType": "bytes32",
                  "name": "channelId",
                  "type": "bytes32"
                }
              ],
              "internalType": "struct IbcEndpoint",
              "name": "dest",
              "type": "tuple"
            },
            {
              "internalType": "uint64",
              "name": "sequence",
              "type": "uint64"
            },
            {
              "internalType": "bytes",
              "name": "data",
              "type": "bytes"
            },
            {
              "components": [
                {
                  "internalType": "uint64",
                  "name": "block",
                  "type": "uint64"
                },
                {
                  "internalType": "uint64",
                  "name": "timestamp",
                  "type": "uint64"
                }
              ],
              "internalType": "struct IbcTimeout",
              "name": "timeout",
              "type": "tuple"
            }
          ],
          "internalType": "struct IbcPacket",
          "name": "packet",
          "type": "tuple"
        }
      ],
      "name": "onAcknowledgementPacket",
      "outputs": [],
      "stateMutability": "nonpayable",
      "type": "function"
    },
    {
      "inputs": [
        {
          "internalType": "string",
          "name": "channelId",
          "type": "string"
        },
        {
          "internalType": "string",
          "name": "error",
          "type": "string"
        }
      ],
      "name": "onCloseIbcChannel",
      "outputs": [],
      "stateMutability": "nonpayable",
      "type": "function"
    },
    {
      "inputs": [
        {
          "internalType": "string",
          "name": "channelId",
          "type": "string"
        },
        {
          "internalType": "string",
          "name": "error",
          "type": "string"
        }
      ],
      "name": "onConnectIbcChannel",
      "outputs": [],
      "stateMutability": "nonpayable",
      "type": "function"
    },
    {
      "inputs": [
        {
          "internalType": "bytes32",
          "name": "channelId",
          "type": "bytes32"
        },
        {
          "internalType": "bytes32",
          "name": "version",
          "type": "bytes32"
        },
        {
          "internalType": "enum ChannelOrder",
          "name": "ordering",
          "type": "uint8"
        },
        {
          "internalType": "string[]",
          "name": "connectionHops",
          "type": "string[]"
        },
        {
          "internalType": "bytes32",
          "name": "counterpartyChannelId",
          "type": "bytes32"
        },
        {
          "internalType": "string",
          "name": "counterpartyPortId",
          "type": "string"
        },
        {
          "internalType": "bytes32",
          "name": "counterpartyVersion",
          "type": "bytes32"
        }
      ],
      "name": "onOpenIbcChannel",
      "outputs": [
        {
          "internalType": "bytes32",
          "name": "selectedVersion",
          "type": "bytes32"
        }
      ],
      "stateMutability": "nonpayable",
      "type": "function"
    },
    {
      "inputs": [
        {
          "components": [
            {
              "components": [
                {
                  "internalType": "string",
                  "name": "portId",
                  "type": "string"
                },
                {
                  "internalType": "bytes32",
                  "name": "channelId",
                  "type": "bytes32"
                }
              ],
              "internalType": "struct IbcEndpoint",
              "name": "src",
              "type": "tuple"
            },
            {
              "components": [
                {
                  "internalType": "string",
                  "name": "portId",
                  "type": "string"
                },
                {
                  "internalType": "bytes32",
                  "name": "channelId",
                  "type": "bytes32"
                }
              ],
              "internalType": "struct IbcEndpoint",
              "name": "dest",
              "type": "tuple"
            },
            {
              "internalType": "uint64",
              "name": "sequence",
              "type": "uint64"
            },
            {
              "internalType": "bytes",
              "name": "data",
              "type": "bytes"
            },
            {
              "components": [
                {
                  "internalType": "uint64",
                  "name": "block",
                  "type": "uint64"
                },
                {
                  "internalType": "uint64",
                  "name": "timestamp",
                  "type": "uint64"
                }
              ],
              "internalType": "struct IbcTimeout",
              "name": "timeout",
              "type": "tuple"
            }
          ],
          "internalType": "struct IbcPacket",
          "name": "packet",
          "type": "tuple"
        }
      ],
      "name": "onRecvPacket",
      "outputs": [],
      "stateMutability": "nonpayable",
      "type": "function"
    },
    {
      "inputs": [
        {
          "components": [
            {
              "components": [
                {
                  "internalType": "string",
                  "name": "portId",
                  "type": "string"
                },
                {
                  "internalType": "bytes32",
                  "name": "channelId",
                  "type": "bytes32"
                }
              ],
              "internalType": "struct IbcEndpoint",
              "name": "src",
              "type": "tuple"
            },
            {
              "components": [
                {
                  "internalType": "string",
                  "name": "portId",
                  "type": "string"
                },
                {
                  "internalType": "bytes32",
                  "name": "channelId",
                  "type": "bytes32"
                }
              ],
              "internalType": "struct IbcEndpoint",
              "name": "dest",
              "type": "tuple"
            },
            {
              "internalType": "uint64",
              "name": "sequence",
              "type": "uint64"
            },
            {
              "internalType": "bytes",
              "name": "data",
              "type": "bytes"
            },
            {
              "components": [
                {
                  "internalType": "uint64",
                  "name": "block",
                  "type": "uint64"
                },
                {
                  "internalType": "uint64",
                  "name": "timestamp",
                  "type": "uint64"
                }
              ],
              "internalType": "struct IbcTimeout",
              "name": "timeout",
              "type": "tuple"
            }
          ],
          "internalType": "struct IbcPacket",
          "name": "packet",
          "type": "tuple"
        }
      ],
      "name": "onTimeoutPacket",
      "outputs": [],
      "stateMutability": "nonpayable",
      "type": "function"
    },
    {
      "inputs": [
        {
          "internalType": "uint256",
          "name": "",
          "type": "uint256"
        }
      ],
      "name": "openChannels",
      "outputs": [
        {
          "internalType": "bytes32",
          "name": "",
          "type": "bytes32"
        }
      ],
      "stateMutability": "view",
      "type": "function"
    },
    {
      "inputs": [],
      "name": "owner",
      "outputs": [
        {
          "internalType": "address",
          "name": "",
          "type": "address"
        }
      ],
      "stateMutability": "view",
      "type": "function"
    },
    {
      "inputs": [
        {
          "internalType": "uint256",
          "name": "",
          "type": "uint256"
        }
      ],
      "name": "recvedPackets",
      "outputs": [
        {
          "components": [
            {
              "internalType": "string",
              "name": "portId",
              "type": "string"
            },
            {
              "internalType": "bytes32",
              "name": "channelId",
              "type": "bytes32"
            }
          ],
          "internalType": "struct IbcEndpoint",
          "name": "src",
          "type": "tuple"
        },
        {
          "components": [
            {
              "internalType": "string",
              "name": "portId",
              "type": "string"
            },
            {
              "internalType": "bytes32",
              "name": "channelId",
              "type": "bytes32"
            }
          ],
          "internalType": "struct IbcEndpoint",
          "name": "dest",
          "type": "tuple"
        },
        {
          "internalType": "uint64",
          "name": "sequence",
          "type": "uint64"
        },
        {
          "internalType": "bytes",
          "name": "data",
          "type": "bytes"
        },
        {
          "components": [
            {
              "internalType": "uint64",
              "name": "block",
              "type": "uint64"
            },
            {
              "internalType": "uint64",
              "name": "timestamp",
              "type": "uint64"
            }
          ],
          "internalType": "struct IbcTimeout",
          "name": "timeout",
          "type": "tuple"
        }
      ],
      "stateMutability": "view",
      "type": "function"
    },
    {
      "inputs": [],
      "name": "renounceOwnership",
      "outputs": [],
      "stateMutability": "nonpayable",
      "type": "function"
    },
    {
      "inputs": [
        {
          "internalType": "uint256",
          "name": "",
          "type": "uint256"
        }
      ],
      "name": "timeoutPackets",
      "outputs": [
        {
          "components": [
            {
              "internalType": "string",
              "name": "portId",
              "type": "string"
            },
            {
              "internalType": "bytes32",
              "name": "channelId",
              "type": "bytes32"
            }
          ],
          "internalType": "struct IbcEndpoint",
          "name": "src",
          "type": "tuple"
        },
        {
          "components": [
            {
              "internalType": "string",
              "name": "portId",
              "type": "string"
            },
            {
              "internalType": "bytes32",
              "name": "channelId",
              "type": "bytes32"
            }
          ],
          "internalType": "struct IbcEndpoint",
          "name": "dest",
          "type": "tuple"
        },
        {
          "internalType": "uint64",
          "name": "sequence",
          "type": "uint64"
        },
        {
          "internalType": "bytes",
          "name": "data",
          "type": "bytes"
        },
        {
          "components": [
            {
              "internalType": "uint64",
              "name": "block",
              "type": "uint64"
            },
            {
              "internalType": "uint64",
              "name": "timestamp",
              "type": "uint64"
            }
          ],
          "internalType": "struct IbcTimeout",
          "name": "timeout",
          "type": "tuple"
        }
      ],
      "stateMutability": "view",
      "type": "function"
    },
    {
      "inputs": [
        {
          "internalType": "address",
          "name": "newOwner",
          "type": "address"
        }
      ],
      "name": "transferOwnership",
      "outputs": [],
      "stateMutability": "nonpayable",
      "type": "function"
    }
  ],
  "bytecode": "0x608060405260405180604001604052807f312e30000000000000000000000000000000000000000000000000000000000081526020017f322e30000000000000000000000000000000000000000000000000000000000081525060069060026200006b9291906200016c565b503480156200007957600080fd5b506200009a6200008e620000a060201b60201c565b620000a860201b60201c565b620001dd565b600033905090565b60008060009054906101000a900473ffffffffffffffffffffffffffffffffffffffff169050816000806101000a81548173ffffffffffffffffffffffffffffffffffffffff021916908373ffffffffffffffffffffffffffffffffffffffff1602179055508173ffffffffffffffffffffffffffffffffffffffff168173ffffffffffffffffffffffffffffffffffffffff167f8be0079c531659141344cd1fd0a4f28419497f9722a3daafe3b4186f6b6457e060405160405180910390a35050565b828054828255906000526020600020908101928215620001ab579160200282015b82811115620001aa5782518255916020019190600101906200018d565b5b509050620001ba9190620001be565b5090565b5b80821115620001d9576000816000905550600101620001bf565b5090565b6126cf80620001ed6000396000f3fe608060405234801561001057600080fd5b50600436106100f55760003560e01c8063b058e81a11610097578063f12b758a11610066578063f12b758a1461028a578063f2fde38b146102be578063f45cf5e4146102da578063f6431b50146102f6576100f5565b8063b058e81a146101f2578063b33c25771461020e578063bb3f9f8d1461022a578063da972ca61461025a576100f5565b80636afd6174116100d35780636afd61741461017e578063715018a61461019a5780638da5cb5b146101a45780639d0c54f4146101c2576100f5565b80630a845081146100fa5780634252ae9b146101165780634eeb73911461014a575b600080fd5b610114600480360381019061010f9190611314565b610312565b005b610130600480360381019061012b91906113cb565b610356565b60405161014195949392919061159d565b60405180910390f35b610164600480360381019061015f91906113cb565b6105f2565b60405161017595949392919061159d565b60405180910390f35b61019860048036038101906101939190611314565b61088e565b005b6101a26109e6565b005b6101ac6109fa565b6040516101b99190611646565b60405180910390f35b6101dc60048036038101906101d791906113cb565b610a23565b6040516101e99190611670565b60405180910390f35b61020c600480360381019061020791906116af565b610a47565b005b610228600480360381019061022391906116af565b610a84565b005b610244600480360381019061023f91906113cb565b610ac1565b6040516102519190611742565b60405180910390f35b610274600480360381019061026f919061180b565b610b6d565b6040516102819190611670565b60405180910390f35b6102a4600480360381019061029f91906113cb565b610ca3565b6040516102b595949392919061159d565b60405180910390f35b6102d860048036038101906102d39190611919565b610f3f565b005b6102f460048036038101906102ef91906116af565b610fc3565b005b610310600480360381019061030b9190611946565b611000565b005b600584849091806001815401808255809150506001900390600052602060002001600090919290919290919290919250919061034f9291906111c2565b5050505050565b6002818154811061036657600080fd5b906000526020600020906007020160009150905080600001604051806040016040529081600082018054610399906119e9565b80601f01602080910402602001604051908101604052809291908181526020018280546103c5906119e9565b80156104125780601f106103e757610100808354040283529160200191610412565b820191906000526020600020905b8154815290600101906020018083116103f557829003601f168201915b505050505081526020016001820154815250509080600201604051806040016040529081600082018054610445906119e9565b80601f0160208091040260200160405190810160405280929190818152602001828054610471906119e9565b80156104be5780601f10610493576101008083540402835291602001916104be565b820191906000526020600020905b8154815290600101906020018083116104a157829003601f168201915b50505050508152602001600182015481525050908060040160009054906101000a900467ffffffffffffffff16908060050180546104fb906119e9565b80601f0160208091040260200160405190810160405280929190818152602001828054610527906119e9565b80156105745780601f1061054957610100808354040283529160200191610574565b820191906000526020600020905b81548152906001019060200180831161055757829003601f168201915b505050505090806006016040518060400160405290816000820160009054906101000a900467ffffffffffffffff1667ffffffffffffffff1667ffffffffffffffff1681526020016000820160089054906101000a900467ffffffffffffffff1667ffffffffffffffff1667ffffffffffffffff1681525050905085565b6003818154811061060257600080fd5b906000526020600020906007020160009150905080600001604051806040016040529081600082018054610635906119e9565b80601f0160208091040260200160405190810160405280929190818152602001828054610661906119e9565b80156106ae5780601f10610683576101008083540402835291602001916106ae565b820191906000526020600020905b81548152906001019060200180831161069157829003601f168201915b5050505050815260200160018201548152505090806002016040518060400160405290816000820180546106e1906119e9565b80601f016020809104026020016040519081016040528092919081815260200182805461070d906119e9565b801561075a5780601f1061072f5761010080835404028352916020019161075a565b820191906000526020600020905b81548152906001019060200180831161073d57829003601f168201915b50505050508152602001600182015481525050908060040160009054906101000a900467ffffffffffffffff1690806005018054610797906119e9565b80601f01602080910402602001604051908101604052809291908181526020018280546107c3906119e9565b80156108105780601f106107e557610100808354040283529160200191610810565b820191906000526020600020905b8154815290600101906020018083116107f357829003601f168201915b505050505090806006016040518060400160405290816000820160009054906101000a900467ffffffffffffffff1667ffffffffffffffff1667ffffffffffffffff1681526020016000820160089054906101000a900467ffffffffffffffff1667ffffffffffffffff1667ffffffffffffffff1681525050905085565b60005b60048054905081101561093b5784846040516108ae929190611a5a565b6040518091039020600482815481106108ca576108c9611a73565b5b90600052602060002001546040516020016108e59190611ac3565b604051602081830303815290604052805190602001201415610928576004818154811061091557610914611a73565b5b906000526020600020016000905561093b565b808061093390611b0d565b915050610891565b5060005b6005805490508110156109df57848460405161095c929190611a5a565b60405180910390206005828154811061097857610977611a73565b5b9060005260206000200160405161098f9190611bea565b604051809103902014156109cc57600581815481106109b1576109b0611a73565b5b9060005260206000200160006109c79190611248565b6109df565b80806109d790611b0d565b91505061093f565b5050505050565b6109ee611078565b6109f860006110f6565b565b60008060009054906101000a900473ffffffffffffffffffffffffffffffffffffffff16905090565b60048181548110610a3357600080fd5b906000526020600020016000915090505481565b60018190806001815401808255809150506001900390600052602060002090600702016000909190919091508181610a7f919061240d565b505050565b60038190806001815401808255809150506001900390600052602060002090600702016000909190919091508181610abc919061240d565b505050565b60058181548110610ad157600080fd5b906000526020600020016000915090508054610aec906119e9565b80601f0160208091040260200160405190810160405280929190818152602001828054610b18906119e9565b8015610b655780601f10610b3a57610100808354040283529160200191610b65565b820191906000526020600020905b815481529060010190602001808311610b4857829003601f168201915b505050505081565b600060088484905011610bb5576040517f08c379a0000000000000000000000000000000000000000000000000000000008152600401610bac90612467565b60405180910390fd5b6000805b600680549050811015610c08578a60068281548110610bdb57610bda611a73565b5b90600052602060002001541415610bf55760019150610c08565b8080610c0090611b0d565b915050610bb9565b5080610c49576040517f08c379a0000000000000000000000000000000000000000000000000000000008152600401610c40906124d3565b60405180910390fd5b60048b90806001815401808255809150506001900390600052602060002001600090919091909150557f312e3000000000000000000000000000000000000000000000000000000000009150509998505050505050505050565b60018181548110610cb357600080fd5b906000526020600020906007020160009150905080600001604051806040016040529081600082018054610ce6906119e9565b80601f0160208091040260200160405190810160405280929190818152602001828054610d12906119e9565b8015610d5f5780601f10610d3457610100808354040283529160200191610d5f565b820191906000526020600020905b815481529060010190602001808311610d4257829003601f168201915b505050505081526020016001820154815250509080600201604051806040016040529081600082018054610d92906119e9565b80601f0160208091040260200160405190810160405280929190818152602001828054610dbe906119e9565b8015610e0b5780601f10610de057610100808354040283529160200191610e0b565b820191906000526020600020905b815481529060010190602001808311610dee57829003601f168201915b50505050508152602001600182015481525050908060040160009054906101000a900467ffffffffffffffff1690806005018054610e48906119e9565b80601f0160208091040260200160405190810160405280929190818152602001828054610e74906119e9565b8015610ec15780601f10610e9657610100808354040283529160200191610ec1565b820191906000526020600020905b815481529060010190602001808311610ea457829003601f168201915b505050505090806006016040518060400160405290816000820160009054906101000a900467ffffffffffffffff1667ffffffffffffffff1667ffffffffffffffff1681526020016000820160089054906101000a900467ffffffffffffffff1667ffffffffffffffff1667ffffffffffffffff1681525050905085565b610f47611078565b600073ffffffffffffffffffffffffffffffffffffffff168173ffffffffffffffffffffffffffffffffffffffff161415610fb7576040517f08c379a0000000000000000000000000000000000000000000000000000000008152600401610fae90612565565b60405180910390fd5b610fc0816110f6565b50565b60028190806001815401808255809150506001900390600052602060002090600702016000909190919091508181610ffb919061240d565b505050565b8373ffffffffffffffffffffffffffffffffffffffff1663c3e1155c82858560006040518563ffffffff1660e01b815260040161104094939291906125ed565b600060405180830381600087803b15801561105a57600080fd5b505af115801561106e573d6000803e3d6000fd5b5050505050505050565b6110806111ba565b73ffffffffffffffffffffffffffffffffffffffff1661109e6109fa565b73ffffffffffffffffffffffffffffffffffffffff16146110f4576040517f08c379a00000000000000000000000000000000000000000000000000000000081526004016110eb90612679565b60405180910390fd5b565b60008060009054906101000a900473ffffffffffffffffffffffffffffffffffffffff169050816000806101000a81548173ffffffffffffffffffffffffffffffffffffffff021916908373ffffffffffffffffffffffffffffffffffffffff1602179055508173ffffffffffffffffffffffffffffffffffffffff168173ffffffffffffffffffffffffffffffffffffffff167f8be0079c531659141344cd1fd0a4f28419497f9722a3daafe3b4186f6b6457e060405160405180910390a35050565b600033905090565b8280546111ce906119e9565b90600052602060002090601f0160209004810192826111f05760008555611237565b82601f1061120957803560ff1916838001178555611237565b82800160010185558215611237579182015b8281111561123657823582559160200191906001019061121b565b5b5090506112449190611288565b5090565b508054611254906119e9565b6000825580601f106112665750611285565b601f0160209004906000526020600020908101906112849190611288565b5b50565b5b808211156112a1576000816000905550600101611289565b5090565b600080fd5b600080fd5b600080fd5b600080fd5b600080fd5b60008083601f8401126112d4576112d36112af565b5b8235905067ffffffffffffffff8111156112f1576112f06112b4565b5b60208301915083600182028301111561130d5761130c6112b9565b5b9250929050565b6000806000806040858703121561132e5761132d6112a5565b5b600085013567ffffffffffffffff81111561134c5761134b6112aa565b5b611358878288016112be565b9450945050602085013567ffffffffffffffff81111561137b5761137a6112aa565b5b611387878288016112be565b925092505092959194509250565b6000819050919050565b6113a881611395565b81146113b357600080fd5b50565b6000813590506113c58161139f565b92915050565b6000602082840312156113e1576113e06112a5565b5b60006113ef848285016113b6565b91505092915050565b600081519050919050565b600082825260208201905092915050565b60005b83811015611432578082015181840152602081019050611417565b83811115611441576000848401525b50505050565b6000601f19601f8301169050919050565b6000611463826113f8565b61146d8185611403565b935061147d818560208601611414565b61148681611447565b840191505092915050565b6000819050919050565b6114a481611491565b82525050565b600060408301600083015184820360008601526114c78282611458565b91505060208301516114dc602086018261149b565b508091505092915050565b600067ffffffffffffffff82169050919050565b611504816114e7565b82525050565b600081519050919050565b600082825260208201905092915050565b60006115318261150a565b61153b8185611515565b935061154b818560208601611414565b61155481611447565b840191505092915050565b611568816114e7565b82525050565b604082016000820151611584600085018261155f565b506020820151611597602085018261155f565b50505050565b600060c08201905081810360008301526115b781886114aa565b905081810360208301526115cb81876114aa565b90506115da60408301866114fb565b81810360608301526115ec8185611526565b90506115fb608083018461156e565b9695505050505050565b600073ffffffffffffffffffffffffffffffffffffffff82169050919050565b600061163082611605565b9050919050565b61164081611625565b82525050565b600060208201905061165b6000830184611637565b92915050565b61166a81611491565b82525050565b60006020820190506116856000830184611661565b92915050565b600080fd5b600060c082840312156116a6576116a561168b565b5b81905092915050565b6000602082840312156116c5576116c46112a5565b5b600082013567ffffffffffffffff8111156116e3576116e26112aa565b5b6116ef84828501611690565b91505092915050565b600082825260208201905092915050565b6000611714826113f8565b61171e81856116f8565b935061172e818560208601611414565b61173781611447565b840191505092915050565b6000602082019050818103600083015261175c8184611709565b905092915050565b61176d81611491565b811461177857600080fd5b50565b60008135905061178a81611764565b92915050565b6002811061179d57600080fd5b50565b6000813590506117af81611790565b92915050565b60008083601f8401126117cb576117ca6112af565b5b8235905067ffffffffffffffff8111156117e8576117e76112b4565b5b602083019150836020820283011115611804576118036112b9565b5b9250929050565b600080600080600080600080600060e08a8c03121561182d5761182c6112a5565b5b600061183b8c828d0161177b565b995050602061184c8c828d0161177b565b985050604061185d8c828d016117a0565b97505060608a013567ffffffffffffffff81111561187e5761187d6112aa565b5b61188a8c828d016117b5565b9650965050608061189d8c828d0161177b565b94505060a08a013567ffffffffffffffff8111156118be576118bd6112aa565b5b6118ca8c828d016112be565b935093505060c06118dd8c828d0161177b565b9150509295985092959850929598565b6118f681611625565b811461190157600080fd5b50565b600081359050611913816118ed565b92915050565b60006020828403121561192f5761192e6112a5565b5b600061193d84828501611904565b91505092915050565b600080600080606085870312156119605761195f6112a5565b5b600061196e87828801611904565b945050602085013567ffffffffffffffff81111561198f5761198e6112aa565b5b61199b878288016112be565b935093505060406119ae8782880161177b565b91505092959194509250565b7f4e487b7100000000000000000000000000000000000000000000000000000000600052602260045260246000fd5b60006002820490506001821680611a0157607f821691505b60208210811415611a1557611a146119ba565b5b50919050565b600081905092915050565b82818337600083830152505050565b6000611a418385611a1b565b9350611a4e838584611a26565b82840190509392505050565b6000611a67828486611a35565b91508190509392505050565b7f4e487b7100000000000000000000000000000000000000000000000000000000600052603260045260246000fd5b6000819050919050565b611abd611ab882611491565b611aa2565b82525050565b6000611acf8284611aac565b60208201915081905092915050565b7f4e487b7100000000000000000000000000000000000000000000000000000000600052601160045260246000fd5b6000611b1882611395565b91507fffffffffffffffffffffffffffffffffffffffffffffffffffffffffffffffff821415611b4b57611b4a611ade565b5b600182019050919050565b60008190508160005260206000209050919050565b60008154611b78816119e9565b611b828186611a1b565b94506001821660008114611b9d5760018114611bae57611be1565b60ff19831686528186019350611be1565b611bb785611b56565b60005b83811015611bd957815481890152600182019150602081019050611bba565b838801955050505b50505092915050565b6000611bf68284611b6b565b915081905092915050565b600080fd5b600080fd5b600080fd5b600082356001604003833603038112611c2c57611c2b611c01565b5b80830191505092915050565b60008083356001602003843603038112611c5557611c54611c01565b5b80840192508235915067ffffffffffffffff821115611c7757611c76611c06565b5b602083019250600182023603831315611c9357611c92611c0b565b5b509250929050565b600082905092915050565b7f4e487b7100000000000000000000000000000000000000000000000000000000600052604160045260246000fd5b60008190508160005260206000209050919050565b60006020601f8301049050919050565b600082821b905092915050565b600060088302611d377fffffffffffffffffffffffffffffffffffffffffffffffffffffffffffffffff82611cfa565b611d418683611cfa565b95508019841693508086168417925050509392505050565b6000819050919050565b6000611d7e611d79611d7484611395565b611d59565b611395565b9050919050565b6000819050919050565b611d9883611d63565b611dac611da482611d85565b848454611d07565b825550505050565b600090565b611dc1611db4565b611dcc818484611d8f565b505050565b5b81811015611df057611de5600082611db9565b600181019050611dd2565b5050565b601f821115611e3557611e0681611cd5565b611e0f84611cea565b81016020851015611e1e578190505b611e32611e2a85611cea565b830182611dd1565b50505b505050565b600082821c905092915050565b6000611e5860001984600802611e3a565b1980831691505092915050565b6000611e718383611e47565b9150826002028217905092915050565b611e8b8383611c9b565b67ffffffffffffffff811115611ea457611ea3611ca6565b5b611eae82546119e9565b611eb9828285611df4565b6000601f831160018114611ee85760008415611ed6578287013590505b611ee08582611e65565b865550611f48565b601f198416611ef686611cd5565b60005b82811015611f1e57848901358255600182019150602085019450602081019050611ef9565b86831015611f3b5784890135611f37601f891682611e47565b8355505b6001600288020188555050505b50505050505050565b611f5c838383611e81565b505050565b60008135611f6e81611764565b80915050919050565b60008160001b9050919050565b60007fffffffffffffffffffffffffffffffffffffffffffffffffffffffffffffffff611fb084611f77565b9350801983169250808416831791505092915050565b6000611fd182611491565b9050919050565b60008160001c9050919050565b6000611ff082611fd8565b9050919050565b61200082611fc6565b61201361200c82611fe5565b8354611f84565b8255505050565b600081016000830161202c8185611c38565b612037818386611f51565b5050505060018101602083018061204d81611f61565b90506120598184611ff7565b5050505050565b61206a828261201a565b5050565b612077816114e7565b811461208257600080fd5b50565b600081356120928161206e565b80915050919050565b600067ffffffffffffffff6120af84611f77565b9350801983169250808416831791505092915050565b60006120e06120db6120d6846114e7565b611d59565b6114e7565b9050919050565b6000819050919050565b6120fa826120c5565b61210d612106826120e7565b835461209b565b8255505050565b6000808335600160200384360303811261213157612130611c01565b5b80840192508235915067ffffffffffffffff82111561215357612152611c06565b5b60208301925060018202360383131561216f5761216e611c0b565b5b509250929050565b600082905092915050565b60008190508160005260206000209050919050565b601f8211156121d8576121a981612182565b6121b284611cea565b810160208510156121c1578190505b6121d56121cd85611cea565b830182611dd1565b50505b505050565b6121e78383612177565b67ffffffffffffffff811115612200576121ff611ca6565b5b61220a82546119e9565b612215828285612197565b6000601f8311600181146122445760008415612232578287013590505b61223c8582611e65565b8655506122a4565b601f19841661225286612182565b60005b8281101561227a57848901358255600182019150602085019450602081019050612255565b868310156122975784890135612293601f891682611e47565b8355505b6001600288020188555050505b50505050505050565b6122b88383836121dd565b505050565b60008160401b9050919050565b60006fffffffffffffffff00000000000000006122e6846122bd565b9350801983169250808416831791505092915050565b612305826120c5565b612318612311826120e7565b83546122ca565b8255505050565b60008101600083018061233181612085565b905061233d81846120f1565b50505060008101602083018061235281612085565b905061235e81846122fc565b5050505050565b61236f828261231f565b5050565b60008101600083016123858185611c10565b61238f8184612060565b50505060028101602083016123a48185611c10565b6123ae8184612060565b5050506004810160408301806123c381612085565b90506123cf81846120f1565b50505060058101606083016123e48185612114565b6123ef8183866122ad565b505050506006810160808301806124068184612365565b5050505050565b6124178282612373565b5050565b7f496e76616c696420636f756e7465727061727479506f72744964000000000000600082015250565b6000612451601a836116f8565b915061245c8261241b565b602082019050919050565b6000602082019050818103600083015261248081612444565b9050919050565b7f556e737570706f727465642076657273696f6e00000000000000000000000000600082015250565b60006124bd6013836116f8565b91506124c882612487565b602082019050919050565b600060208201905081810360008301526124ec816124b0565b9050919050565b7f4f776e61626c653a206e6577206f776e657220697320746865207a65726f206160008201527f6464726573730000000000000000000000000000000000000000000000000000602082015250565b600061254f6026836116f8565b915061255a826124f3565b604082019050919050565b6000602082019050818103600083015261257e81612542565b9050919050565b60006125918385611515565b935061259e838584611a26565b6125a783611447565b840190509392505050565b6000819050919050565b60006125d76125d26125cd846125b2565b611d59565b6114e7565b9050919050565b6125e7816125bc565b82525050565b60006060820190506126026000830187611661565b8181036020830152612615818587612585565b905061262460408301846125de565b95945050505050565b7f4f776e61626c653a2063616c6c6572206973206e6f7420746865206f776e6572600082015250565b60006126636020836116f8565b915061266e8261262d565b602082019050919050565b6000602082019050818103600083015261269281612656565b905091905056fea2646970667358221220017a7e84402411101db164fd7bf58412bb1686f996a62fee64f4d4fdfe2546da64736f6c63430008090033",
  "linkReferences": {},
  "deployedLinkReferences": {}
}