{
  "_format": "hh-sol-artifact-1",
  "contractName": "Mars",
  "sourceName": "contracts/Mars.sol",
  "abi": [
    {
      "anonymous": false,
      "inputs": [
        {
          "indexed": true,
          "internalType": "address",
          "name": "previousOwner",
          "type": "address"
        },
        {
          "indexed": true,
          "internalType": "address",
          "name": "newOwner",
          "type": "address"
        }
      ],
      "name": "OwnershipTransferred",
      "type": "event"
    },
    {
      "inputs": [
        {
          "internalType": "uint256",
          "name": "",
          "type": "uint256"
        }
      ],
      "name": "ackPackets",
      "outputs": [
        {
          "components": [
            {
              "internalType": "string",
              "name": "portId",
              "type": "string"
            },
            {
              "internalType": "bytes32",
              "name": "channelId",
              "type": "bytes32"
            }
          ],
          "internalType": "struct IbcEndpoint",
          "name": "src",
          "type": "tuple"
        },
        {
          "components": [
            {
              "internalType": "string",
              "name": "portId",
              "type": "string"
            },
            {
              "internalType": "bytes32",
              "name": "channelId",
              "type": "bytes32"
            }
          ],
          "internalType": "struct IbcEndpoint",
          "name": "dest",
          "type": "tuple"
        },
        {
          "internalType": "uint64",
          "name": "sequence",
          "type": "uint64"
        },
        {
          "internalType": "bytes",
          "name": "data",
          "type": "bytes"
        },
        {
          "components": [
            {
              "internalType": "uint64",
              "name": "block",
              "type": "uint64"
            },
            {
              "internalType": "uint64",
              "name": "timestamp",
              "type": "uint64"
            }
          ],
          "internalType": "struct IbcTimeout",
          "name": "timeout",
          "type": "tuple"
        }
      ],
      "stateMutability": "view",
      "type": "function"
    },
    {
      "inputs": [
        {
          "internalType": "uint256",
          "name": "",
          "type": "uint256"
        }
      ],
      "name": "connectedChannels",
      "outputs": [
        {
          "internalType": "string",
          "name": "",
          "type": "string"
        }
      ],
      "stateMutability": "view",
      "type": "function"
    },
    {
      "inputs": [
        {
          "internalType": "address",
          "name": "dispatcher",
          "type": "address"
        },
        {
          "internalType": "string",
          "name": "message",
          "type": "string"
        },
        {
          "internalType": "bytes32",
          "name": "channelId",
          "type": "bytes32"
        }
      ],
      "name": "greet",
      "outputs": [],
      "stateMutability": "nonpayable",
      "type": "function"
    },
    {
      "inputs": [
        {
          "components": [
            {
              "components": [
                {
                  "internalType": "string",
                  "name": "portId",
                  "type": "string"
                },
                {
                  "internalType": "bytes32",
                  "name": "channelId",
                  "type": "bytes32"
                }
              ],
              "internalType": "struct IbcEndpoint",
              "name": "src",
              "type": "tuple"
            },
            {
              "components": [
                {
                  "internalType": "string",
                  "name": "portId",
                  "type": "string"
                },
                {
                  "internalType": "bytes32",
                  "name": "channelId",
                  "type": "bytes32"
                }
              ],
              "internalType": "struct IbcEndpoint",
              "name": "dest",
              "type": "tuple"
            },
            {
              "internalType": "uint64",
              "name": "sequence",
              "type": "uint64"
            },
            {
              "internalType": "bytes",
              "name": "data",
              "type": "bytes"
            },
            {
              "components": [
                {
                  "internalType": "uint64",
                  "name": "block",
                  "type": "uint64"
                },
                {
                  "internalType": "uint64",
                  "name": "timestamp",
                  "type": "uint64"
                }
              ],
              "internalType": "struct IbcTimeout",
              "name": "timeout",
              "type": "tuple"
            }
          ],
          "internalType": "struct IbcPacket",
          "name": "packet",
          "type": "tuple"
        }
      ],
      "name": "onAcknowledgementPacket",
      "outputs": [],
      "stateMutability": "nonpayable",
      "type": "function"
    },
    {
      "inputs": [
        {
          "internalType": "string",
          "name": "channelId",
          "type": "string"
        },
        {
          "internalType": "string",
          "name": "error",
          "type": "string"
        }
      ],
      "name": "onCloseIbcChannel",
      "outputs": [],
      "stateMutability": "nonpayable",
      "type": "function"
    },
    {
      "inputs": [
        {
          "internalType": "string",
          "name": "channelId",
          "type": "string"
        },
        {
          "internalType": "string",
          "name": "error",
          "type": "string"
        }
      ],
      "name": "onConnectIbcChannel",
      "outputs": [],
      "stateMutability": "nonpayable",
      "type": "function"
    },
    {
      "inputs": [
        {
          "internalType": "bytes32",
          "name": "channelId",
          "type": "bytes32"
        },
        {
          "internalType": "string",
          "name": "version",
          "type": "string"
        },
        {
          "internalType": "enum ChannelOrder",
          "name": "ordering",
          "type": "uint8"
        },
        {
          "internalType": "string[]",
          "name": "connectionHops",
          "type": "string[]"
        },
        {
          "internalType": "bytes32",
          "name": "counterpartyChannelId",
          "type": "bytes32"
        },
        {
          "internalType": "string",
          "name": "counterpartyPortId",
          "type": "string"
        },
        {
          "internalType": "string",
          "name": "counterpartyVersion",
          "type": "string"
        }
      ],
      "name": "onOpenIbcChannel",
      "outputs": [],
      "stateMutability": "nonpayable",
      "type": "function"
    },
    {
      "inputs": [
        {
          "components": [
            {
              "components": [
                {
                  "internalType": "string",
                  "name": "portId",
                  "type": "string"
                },
                {
                  "internalType": "bytes32",
                  "name": "channelId",
                  "type": "bytes32"
                }
              ],
              "internalType": "struct IbcEndpoint",
              "name": "src",
              "type": "tuple"
            },
            {
              "components": [
                {
                  "internalType": "string",
                  "name": "portId",
                  "type": "string"
                },
                {
                  "internalType": "bytes32",
                  "name": "channelId",
                  "type": "bytes32"
                }
              ],
              "internalType": "struct IbcEndpoint",
              "name": "dest",
              "type": "tuple"
            },
            {
              "internalType": "uint64",
              "name": "sequence",
              "type": "uint64"
            },
            {
              "internalType": "bytes",
              "name": "data",
              "type": "bytes"
            },
            {
              "components": [
                {
                  "internalType": "uint64",
                  "name": "block",
                  "type": "uint64"
                },
                {
                  "internalType": "uint64",
                  "name": "timestamp",
                  "type": "uint64"
                }
              ],
              "internalType": "struct IbcTimeout",
              "name": "timeout",
              "type": "tuple"
            }
          ],
          "internalType": "struct IbcPacket",
          "name": "packet",
          "type": "tuple"
        }
      ],
      "name": "onRecvPacket",
      "outputs": [],
      "stateMutability": "nonpayable",
      "type": "function"
    },
    {
      "inputs": [
        {
          "components": [
            {
              "components": [
                {
                  "internalType": "string",
                  "name": "portId",
                  "type": "string"
                },
                {
                  "internalType": "bytes32",
                  "name": "channelId",
                  "type": "bytes32"
                }
              ],
              "internalType": "struct IbcEndpoint",
              "name": "src",
              "type": "tuple"
            },
            {
              "components": [
                {
                  "internalType": "string",
                  "name": "portId",
                  "type": "string"
                },
                {
                  "internalType": "bytes32",
                  "name": "channelId",
                  "type": "bytes32"
                }
              ],
              "internalType": "struct IbcEndpoint",
              "name": "dest",
              "type": "tuple"
            },
            {
              "internalType": "uint64",
              "name": "sequence",
              "type": "uint64"
            },
            {
              "internalType": "bytes",
              "name": "data",
              "type": "bytes"
            },
            {
              "components": [
                {
                  "internalType": "uint64",
                  "name": "block",
                  "type": "uint64"
                },
                {
                  "internalType": "uint64",
                  "name": "timestamp",
                  "type": "uint64"
                }
              ],
              "internalType": "struct IbcTimeout",
              "name": "timeout",
              "type": "tuple"
            }
          ],
          "internalType": "struct IbcPacket",
          "name": "packet",
          "type": "tuple"
        }
      ],
      "name": "onTimeoutPacket",
      "outputs": [],
      "stateMutability": "nonpayable",
      "type": "function"
    },
    {
      "inputs": [
        {
          "internalType": "uint256",
          "name": "",
          "type": "uint256"
        }
      ],
      "name": "openChannels",
      "outputs": [
        {
          "internalType": "bytes32",
          "name": "",
          "type": "bytes32"
        }
      ],
      "stateMutability": "view",
      "type": "function"
    },
    {
      "inputs": [],
      "name": "owner",
      "outputs": [
        {
          "internalType": "address",
          "name": "",
          "type": "address"
        }
      ],
      "stateMutability": "view",
      "type": "function"
    },
    {
      "inputs": [
        {
          "internalType": "uint256",
          "name": "",
          "type": "uint256"
        }
      ],
      "name": "recvedPackets",
      "outputs": [
        {
          "components": [
            {
              "internalType": "string",
              "name": "portId",
              "type": "string"
            },
            {
              "internalType": "bytes32",
              "name": "channelId",
              "type": "bytes32"
            }
          ],
          "internalType": "struct IbcEndpoint",
          "name": "src",
          "type": "tuple"
        },
        {
          "components": [
            {
              "internalType": "string",
              "name": "portId",
              "type": "string"
            },
            {
              "internalType": "bytes32",
              "name": "channelId",
              "type": "bytes32"
            }
          ],
          "internalType": "struct IbcEndpoint",
          "name": "dest",
          "type": "tuple"
        },
        {
          "internalType": "uint64",
          "name": "sequence",
          "type": "uint64"
        },
        {
          "internalType": "bytes",
          "name": "data",
          "type": "bytes"
        },
        {
          "components": [
            {
              "internalType": "uint64",
              "name": "block",
              "type": "uint64"
            },
            {
              "internalType": "uint64",
              "name": "timestamp",
              "type": "uint64"
            }
          ],
          "internalType": "struct IbcTimeout",
          "name": "timeout",
          "type": "tuple"
        }
      ],
      "stateMutability": "view",
      "type": "function"
    },
    {
      "inputs": [],
      "name": "renounceOwnership",
      "outputs": [],
      "stateMutability": "nonpayable",
      "type": "function"
    },
    {
      "inputs": [
        {
          "internalType": "uint256",
          "name": "",
          "type": "uint256"
        }
      ],
      "name": "timeoutPackets",
      "outputs": [
        {
          "components": [
            {
              "internalType": "string",
              "name": "portId",
              "type": "string"
            },
            {
              "internalType": "bytes32",
              "name": "channelId",
              "type": "bytes32"
            }
          ],
          "internalType": "struct IbcEndpoint",
          "name": "src",
          "type": "tuple"
        },
        {
          "components": [
            {
              "internalType": "string",
              "name": "portId",
              "type": "string"
            },
            {
              "internalType": "bytes32",
              "name": "channelId",
              "type": "bytes32"
            }
          ],
          "internalType": "struct IbcEndpoint",
          "name": "dest",
          "type": "tuple"
        },
        {
          "internalType": "uint64",
          "name": "sequence",
          "type": "uint64"
        },
        {
          "internalType": "bytes",
          "name": "data",
          "type": "bytes"
        },
        {
          "components": [
            {
              "internalType": "uint64",
              "name": "block",
              "type": "uint64"
            },
            {
              "internalType": "uint64",
              "name": "timestamp",
              "type": "uint64"
            }
          ],
          "internalType": "struct IbcTimeout",
          "name": "timeout",
          "type": "tuple"
        }
      ],
      "stateMutability": "view",
      "type": "function"
    },
    {
      "inputs": [
        {
          "internalType": "address",
          "name": "newOwner",
          "type": "address"
        }
      ],
      "name": "transferOwnership",
      "outputs": [],
      "stateMutability": "nonpayable",
      "type": "function"
    }
  ],
  "bytecode": "0x60806040523480156200001157600080fd5b5062000032620000266200003860201b60201c565b6200004060201b60201c565b62000104565b600033905090565b60008060009054906101000a900473ffffffffffffffffffffffffffffffffffffffff169050816000806101000a81548173ffffffffffffffffffffffffffffffffffffffff021916908373ffffffffffffffffffffffffffffffffffffffff1602179055508173ffffffffffffffffffffffffffffffffffffffff168173ffffffffffffffffffffffffffffffffffffffff167f8be0079c531659141344cd1fd0a4f28419497f9722a3daafe3b4186f6b6457e060405160405180910390a35050565b61252580620001146000396000f3fe608060405234801561001057600080fd5b50600436106100f55760003560e01c80639d0c54f411610097578063f12b758a11610066578063f12b758a14610276578063f2fde38b146102aa578063f45cf5e4146102c6578063f6431b50146102e2576100f5565b80639d0c54f4146101de578063b058e81a1461020e578063b33c25771461022a578063bb3f9f8d14610246576100f5565b806352e33bf3116100d357806352e33bf31461017e5780636afd61741461019a578063715018a6146101b65780638da5cb5b146101c0576100f5565b80630a845081146100fa5780634252ae9b146101165780634eeb73911461014a575b600080fd5b610114600480360381019061010f9190611200565b6102fe565b005b610130600480360381019061012b91906112b7565b610342565b604051610141959493929190611489565b60405180910390f35b610164600480360381019061015f91906112b7565b6105de565b604051610175959493929190611489565b60405180910390f35b61019860048036038101906101939190611598565b61087a565b005b6101b460048036038101906101af9190611200565b6108b0565b005b6101be610a08565b005b6101c8610a1c565b6040516101d591906116fd565b60405180910390f35b6101f860048036038101906101f391906112b7565b610a45565b6040516102059190611727565b60405180910390f35b61022860048036038101906102239190611766565b610a69565b005b610244600480360381019061023f9190611766565b610aa6565b005b610260600480360381019061025b91906112b7565b610ae3565b60405161026d91906117f9565b60405180910390f35b610290600480360381019061028b91906112b7565b610b8f565b6040516102a1959493929190611489565b60405180910390f35b6102c460048036038101906102bf9190611847565b610e2b565b005b6102e060048036038101906102db9190611766565b610eaf565b005b6102fc60048036038101906102f79190611874565b610eec565b005b600584849091806001815401808255809150506001900390600052602060002001600090919290919290919290919250919061033b9291906110ae565b5050505050565b6002818154811061035257600080fd5b90600052602060002090600702016000915090508060000160405180604001604052908160008201805461038590611917565b80601f01602080910402602001604051908101604052809291908181526020018280546103b190611917565b80156103fe5780601f106103d3576101008083540402835291602001916103fe565b820191906000526020600020905b8154815290600101906020018083116103e157829003601f168201915b50505050508152602001600182015481525050908060020160405180604001604052908160008201805461043190611917565b80601f016020809104026020016040519081016040528092919081815260200182805461045d90611917565b80156104aa5780601f1061047f576101008083540402835291602001916104aa565b820191906000526020600020905b81548152906001019060200180831161048d57829003601f168201915b50505050508152602001600182015481525050908060040160009054906101000a900467ffffffffffffffff16908060050180546104e790611917565b80601f016020809104026020016040519081016040528092919081815260200182805461051390611917565b80156105605780601f1061053557610100808354040283529160200191610560565b820191906000526020600020905b81548152906001019060200180831161054357829003601f168201915b505050505090806006016040518060400160405290816000820160009054906101000a900467ffffffffffffffff1667ffffffffffffffff1667ffffffffffffffff1681526020016000820160089054906101000a900467ffffffffffffffff1667ffffffffffffffff1667ffffffffffffffff1681525050905085565b600381815481106105ee57600080fd5b90600052602060002090600702016000915090508060000160405180604001604052908160008201805461062190611917565b80601f016020809104026020016040519081016040528092919081815260200182805461064d90611917565b801561069a5780601f1061066f5761010080835404028352916020019161069a565b820191906000526020600020905b81548152906001019060200180831161067d57829003601f168201915b5050505050815260200160018201548152505090806002016040518060400160405290816000820180546106cd90611917565b80601f01602080910402602001604051908101604052809291908181526020018280546106f990611917565b80156107465780601f1061071b57610100808354040283529160200191610746565b820191906000526020600020905b81548152906001019060200180831161072957829003601f168201915b50505050508152602001600182015481525050908060040160009054906101000a900467ffffffffffffffff169080600501805461078390611917565b80601f01602080910402602001604051908101604052809291908181526020018280546107af90611917565b80156107fc5780601f106107d1576101008083540402835291602001916107fc565b820191906000526020600020905b8154815290600101906020018083116107df57829003601f168201915b505050505090806006016040518060400160405290816000820160009054906101000a900467ffffffffffffffff1667ffffffffffffffff1667ffffffffffffffff1681526020016000820160089054906101000a900467ffffffffffffffff1667ffffffffffffffff1667ffffffffffffffff1681525050905085565b60048b90806001815401808255809150506001900390600052602060002001600090919091909150555050505050505050505050565b60005b60048054905081101561095d5784846040516108d0929190611988565b6040518091039020600482815481106108ec576108eb6119a1565b5b906000526020600020015460405160200161090791906119f1565b60405160208183030381529060405280519060200120141561094a5760048181548110610937576109366119a1565b5b906000526020600020016000905561095d565b808061095590611a3b565b9150506108b3565b5060005b600580549050811015610a0157848460405161097e929190611988565b60405180910390206005828154811061099a576109996119a1565b5b906000526020600020016040516109b19190611b18565b604051809103902014156109ee57600581815481106109d3576109d26119a1565b5b9060005260206000200160006109e99190611134565b610a01565b80806109f990611a3b565b915050610961565b5050505050565b610a10610f64565b610a1a6000610fe2565b565b60008060009054906101000a900473ffffffffffffffffffffffffffffffffffffffff16905090565b60048181548110610a5557600080fd5b906000526020600020016000915090505481565b60018190806001815401808255809150506001900390600052602060002090600702016000909190919091508181610aa1919061233b565b505050565b60038190806001815401808255809150506001900390600052602060002090600702016000909190919091508181610ade919061233b565b505050565b60058181548110610af357600080fd5b906000526020600020016000915090508054610b0e90611917565b80601f0160208091040260200160405190810160405280929190818152602001828054610b3a90611917565b8015610b875780601f10610b5c57610100808354040283529160200191610b87565b820191906000526020600020905b815481529060010190602001808311610b6a57829003601f168201915b505050505081565b60018181548110610b9f57600080fd5b906000526020600020906007020160009150905080600001604051806040016040529081600082018054610bd290611917565b80601f0160208091040260200160405190810160405280929190818152602001828054610bfe90611917565b8015610c4b5780601f10610c2057610100808354040283529160200191610c4b565b820191906000526020600020905b815481529060010190602001808311610c2e57829003601f168201915b505050505081526020016001820154815250509080600201604051806040016040529081600082018054610c7e90611917565b80601f0160208091040260200160405190810160405280929190818152602001828054610caa90611917565b8015610cf75780601f10610ccc57610100808354040283529160200191610cf7565b820191906000526020600020905b815481529060010190602001808311610cda57829003601f168201915b50505050508152602001600182015481525050908060040160009054906101000a900467ffffffffffffffff1690806005018054610d3490611917565b80601f0160208091040260200160405190810160405280929190818152602001828054610d6090611917565b8015610dad5780601f10610d8257610100808354040283529160200191610dad565b820191906000526020600020905b815481529060010190602001808311610d9057829003601f168201915b505050505090806006016040518060400160405290816000820160009054906101000a900467ffffffffffffffff1667ffffffffffffffff1667ffffffffffffffff1681526020016000820160089054906101000a900467ffffffffffffffff1667ffffffffffffffff1667ffffffffffffffff1681525050905085565b610e33610f64565b600073ffffffffffffffffffffffffffffffffffffffff168173ffffffffffffffffffffffffffffffffffffffff161415610ea3576040517f08c379a0000000000000000000000000000000000000000000000000000000008152600401610e9a906123bb565b60405180910390fd5b610eac81610fe2565b50565b60028190806001815401808255809150506001900390600052602060002090600702016000909190919091508181610ee7919061233b565b505050565b8373ffffffffffffffffffffffffffffffffffffffff1663c3e1155c82858560006040518563ffffffff1660e01b8152600401610f2c9493929190612443565b600060405180830381600087803b158015610f4657600080fd5b505af1158015610f5a573d6000803e3d6000fd5b5050505050505050565b610f6c6110a6565b73ffffffffffffffffffffffffffffffffffffffff16610f8a610a1c565b73ffffffffffffffffffffffffffffffffffffffff1614610fe0576040517f08c379a0000000000000000000000000000000000000000000000000000000008152600401610fd7906124cf565b60405180910390fd5b565b60008060009054906101000a900473ffffffffffffffffffffffffffffffffffffffff169050816000806101000a81548173ffffffffffffffffffffffffffffffffffffffff021916908373ffffffffffffffffffffffffffffffffffffffff1602179055508173ffffffffffffffffffffffffffffffffffffffff168173ffffffffffffffffffffffffffffffffffffffff167f8be0079c531659141344cd1fd0a4f28419497f9722a3daafe3b4186f6b6457e060405160405180910390a35050565b600033905090565b8280546110ba90611917565b90600052602060002090601f0160209004810192826110dc5760008555611123565b82601f106110f557803560ff1916838001178555611123565b82800160010185558215611123579182015b82811115611122578235825591602001919060010190611107565b5b5090506111309190611174565b5090565b50805461114090611917565b6000825580601f106111525750611171565b601f0160209004906000526020600020908101906111709190611174565b5b50565b5b8082111561118d576000816000905550600101611175565b5090565b600080fd5b600080fd5b600080fd5b600080fd5b600080fd5b60008083601f8401126111c0576111bf61119b565b5b8235905067ffffffffffffffff8111156111dd576111dc6111a0565b5b6020830191508360018202830111156111f9576111f86111a5565b5b9250929050565b6000806000806040858703121561121a57611219611191565b5b600085013567ffffffffffffffff81111561123857611237611196565b5b611244878288016111aa565b9450945050602085013567ffffffffffffffff81111561126757611266611196565b5b611273878288016111aa565b925092505092959194509250565b6000819050919050565b61129481611281565b811461129f57600080fd5b50565b6000813590506112b18161128b565b92915050565b6000602082840312156112cd576112cc611191565b5b60006112db848285016112a2565b91505092915050565b600081519050919050565b600082825260208201905092915050565b60005b8381101561131e578082015181840152602081019050611303565b8381111561132d576000848401525b50505050565b6000601f19601f8301169050919050565b600061134f826112e4565b61135981856112ef565b9350611369818560208601611300565b61137281611333565b840191505092915050565b6000819050919050565b6113908161137d565b82525050565b600060408301600083015184820360008601526113b38282611344565b91505060208301516113c86020860182611387565b508091505092915050565b600067ffffffffffffffff82169050919050565b6113f0816113d3565b82525050565b600081519050919050565b600082825260208201905092915050565b600061141d826113f6565b6114278185611401565b9350611437818560208601611300565b61144081611333565b840191505092915050565b611454816113d3565b82525050565b604082016000820151611470600085018261144b565b506020820151611483602085018261144b565b50505050565b600060c08201905081810360008301526114a38188611396565b905081810360208301526114b78187611396565b90506114c660408301866113e7565b81810360608301526114d88185611412565b90506114e7608083018461145a565b9695505050505050565b6114fa8161137d565b811461150557600080fd5b50565b600081359050611517816114f1565b92915050565b6002811061152a57600080fd5b50565b60008135905061153c8161151d565b92915050565b60008083601f8401126115585761155761119b565b5b8235905067ffffffffffffffff811115611575576115746111a0565b5b602083019150836020820283011115611591576115906111a5565b5b9250929050565b600080600080600080600080600080600060e08c8e0312156115bd576115bc611191565b5b60006115cb8e828f01611508565b9b505060208c013567ffffffffffffffff8111156115ec576115eb611196565b5b6115f88e828f016111aa565b9a509a5050604061160b8e828f0161152d565b98505060608c013567ffffffffffffffff81111561162c5761162b611196565b5b6116388e828f01611542565b9750975050608061164b8e828f01611508565b95505060a08c013567ffffffffffffffff81111561166c5761166b611196565b5b6116788e828f016111aa565b945094505060c08c013567ffffffffffffffff81111561169b5761169a611196565b5b6116a78e828f016111aa565b92509250509295989b509295989b9093969950565b600073ffffffffffffffffffffffffffffffffffffffff82169050919050565b60006116e7826116bc565b9050919050565b6116f7816116dc565b82525050565b600060208201905061171260008301846116ee565b92915050565b6117218161137d565b82525050565b600060208201905061173c6000830184611718565b92915050565b600080fd5b600060c0828403121561175d5761175c611742565b5b81905092915050565b60006020828403121561177c5761177b611191565b5b600082013567ffffffffffffffff81111561179a57611799611196565b5b6117a684828501611747565b91505092915050565b600082825260208201905092915050565b60006117cb826112e4565b6117d581856117af565b93506117e5818560208601611300565b6117ee81611333565b840191505092915050565b6000602082019050818103600083015261181381846117c0565b905092915050565b611824816116dc565b811461182f57600080fd5b50565b6000813590506118418161181b565b92915050565b60006020828403121561185d5761185c611191565b5b600061186b84828501611832565b91505092915050565b6000806000806060858703121561188e5761188d611191565b5b600061189c87828801611832565b945050602085013567ffffffffffffffff8111156118bd576118bc611196565b5b6118c9878288016111aa565b935093505060406118dc87828801611508565b91505092959194509250565b7f4e487b7100000000000000000000000000000000000000000000000000000000600052602260045260246000fd5b6000600282049050600182168061192f57607f821691505b60208210811415611943576119426118e8565b5b50919050565b600081905092915050565b82818337600083830152505050565b600061196f8385611949565b935061197c838584611954565b82840190509392505050565b6000611995828486611963565b91508190509392505050565b7f4e487b7100000000000000000000000000000000000000000000000000000000600052603260045260246000fd5b6000819050919050565b6119eb6119e68261137d565b6119d0565b82525050565b60006119fd82846119da565b60208201915081905092915050565b7f4e487b7100000000000000000000000000000000000000000000000000000000600052601160045260246000fd5b6000611a4682611281565b91507fffffffffffffffffffffffffffffffffffffffffffffffffffffffffffffffff821415611a7957611a78611a0c565b5b600182019050919050565b60008190508160005260206000209050919050565b60008154611aa681611917565b611ab08186611949565b94506001821660008114611acb5760018114611adc57611b0f565b60ff19831686528186019350611b0f565b611ae585611a84565b60005b83811015611b0757815481890152600182019150602081019050611ae8565b838801955050505b50505092915050565b6000611b248284611a99565b915081905092915050565b600080fd5b600080fd5b600080fd5b600082356001604003833603038112611b5a57611b59611b2f565b5b80830191505092915050565b60008083356001602003843603038112611b8357611b82611b2f565b5b80840192508235915067ffffffffffffffff821115611ba557611ba4611b34565b5b602083019250600182023603831315611bc157611bc0611b39565b5b509250929050565b600082905092915050565b7f4e487b7100000000000000000000000000000000000000000000000000000000600052604160045260246000fd5b60008190508160005260206000209050919050565b60006020601f8301049050919050565b600082821b905092915050565b600060088302611c657fffffffffffffffffffffffffffffffffffffffffffffffffffffffffffffffff82611c28565b611c6f8683611c28565b95508019841693508086168417925050509392505050565b6000819050919050565b6000611cac611ca7611ca284611281565b611c87565b611281565b9050919050565b6000819050919050565b611cc683611c91565b611cda611cd282611cb3565b848454611c35565b825550505050565b600090565b611cef611ce2565b611cfa818484611cbd565b505050565b5b81811015611d1e57611d13600082611ce7565b600181019050611d00565b5050565b601f821115611d6357611d3481611c03565b611d3d84611c18565b81016020851015611d4c578190505b611d60611d5885611c18565b830182611cff565b50505b505050565b600082821c905092915050565b6000611d8660001984600802611d68565b1980831691505092915050565b6000611d9f8383611d75565b9150826002028217905092915050565b611db98383611bc9565b67ffffffffffffffff811115611dd257611dd1611bd4565b5b611ddc8254611917565b611de7828285611d22565b6000601f831160018114611e165760008415611e04578287013590505b611e0e8582611d93565b865550611e76565b601f198416611e2486611c03565b60005b82811015611e4c57848901358255600182019150602085019450602081019050611e27565b86831015611e695784890135611e65601f891682611d75565b8355505b6001600288020188555050505b50505050505050565b611e8a838383611daf565b505050565b60008135611e9c816114f1565b80915050919050565b60008160001b9050919050565b60007fffffffffffffffffffffffffffffffffffffffffffffffffffffffffffffffff611ede84611ea5565b9350801983169250808416831791505092915050565b6000611eff8261137d565b9050919050565b60008160001c9050919050565b6000611f1e82611f06565b9050919050565b611f2e82611ef4565b611f41611f3a82611f13565b8354611eb2565b8255505050565b6000810160008301611f5a8185611b66565b611f65818386611e7f565b50505050600181016020830180611f7b81611e8f565b9050611f878184611f25565b5050505050565b611f988282611f48565b5050565b611fa5816113d3565b8114611fb057600080fd5b50565b60008135611fc081611f9c565b80915050919050565b600067ffffffffffffffff611fdd84611ea5565b9350801983169250808416831791505092915050565b600061200e612009612004846113d3565b611c87565b6113d3565b9050919050565b6000819050919050565b61202882611ff3565b61203b61203482612015565b8354611fc9565b8255505050565b6000808335600160200384360303811261205f5761205e611b2f565b5b80840192508235915067ffffffffffffffff82111561208157612080611b34565b5b60208301925060018202360383131561209d5761209c611b39565b5b509250929050565b600082905092915050565b60008190508160005260206000209050919050565b601f821115612106576120d7816120b0565b6120e084611c18565b810160208510156120ef578190505b6121036120fb85611c18565b830182611cff565b50505b505050565b61211583836120a5565b67ffffffffffffffff81111561212e5761212d611bd4565b5b6121388254611917565b6121438282856120c5565b6000601f8311600181146121725760008415612160578287013590505b61216a8582611d93565b8655506121d2565b601f198416612180866120b0565b60005b828110156121a857848901358255600182019150602085019450602081019050612183565b868310156121c557848901356121c1601f891682611d75565b8355505b6001600288020188555050505b50505050505050565b6121e683838361210b565b505050565b60008160401b9050919050565b60006fffffffffffffffff0000000000000000612214846121eb565b9350801983169250808416831791505092915050565b61223382611ff3565b61224661223f82612015565b83546121f8565b8255505050565b60008101600083018061225f81611fb3565b905061226b818461201f565b50505060008101602083018061228081611fb3565b905061228c818461222a565b5050505050565b61229d828261224d565b5050565b60008101600083016122b38185611b3e565b6122bd8184611f8e565b50505060028101602083016122d28185611b3e565b6122dc8184611f8e565b5050506004810160408301806122f181611fb3565b90506122fd818461201f565b50505060058101606083016123128185612042565b61231d8183866121db565b505050506006810160808301806123348184612293565b5050505050565b61234582826122a1565b5050565b7f4f776e61626c653a206e6577206f776e657220697320746865207a65726f206160008201527f6464726573730000000000000000000000000000000000000000000000000000602082015250565b60006123a56026836117af565b91506123b082612349565b604082019050919050565b600060208201905081810360008301526123d481612398565b9050919050565b60006123e78385611401565b93506123f4838584611954565b6123fd83611333565b840190509392505050565b6000819050919050565b600061242d61242861242384612408565b611c87565b6113d3565b9050919050565b61243d81612412565b82525050565b60006060820190506124586000830187611718565b818103602083015261246b8185876123db565b905061247a6040830184612434565b95945050505050565b7f4f776e61626c653a2063616c6c6572206973206e6f7420746865206f776e6572600082015250565b60006124b96020836117af565b91506124c482612483565b602082019050919050565b600060208201905081810360008301526124e8816124ac565b905091905056fea2646970667358221220d2d72b1d22cf127d1cc05df635d0e1b80b80d84e47a83362af0cd4cd837f3f9f64736f6c63430008090033",
  "linkReferences": {},
  "deployedLinkReferences": {}
}