{
  "_format": "hh-sol-artifact-1",
  "contractName": "Mars",
  "sourceName": "contracts/Mars.sol",
  "abi": [
    {
      "anonymous": false,
      "inputs": [
        {
          "indexed": true,
          "internalType": "address",
          "name": "previousOwner",
          "type": "address"
        },
        {
          "indexed": true,
          "internalType": "address",
          "name": "newOwner",
          "type": "address"
        }
      ],
      "name": "OwnershipTransferred",
      "type": "event"
    },
    {
      "inputs": [
        {
          "internalType": "uint256",
          "name": "",
          "type": "uint256"
        }
      ],
      "name": "ackPackets",
      "outputs": [
        {
          "components": [
            {
              "internalType": "string",
              "name": "portId",
              "type": "string"
            },
            {
              "internalType": "bytes32",
              "name": "channelId",
              "type": "bytes32"
            }
          ],
          "internalType": "struct IbcEndpoint",
          "name": "src",
          "type": "tuple"
        },
        {
          "components": [
            {
              "internalType": "string",
              "name": "portId",
              "type": "string"
            },
            {
              "internalType": "bytes32",
              "name": "channelId",
              "type": "bytes32"
            }
          ],
          "internalType": "struct IbcEndpoint",
          "name": "dest",
          "type": "tuple"
        },
        {
          "internalType": "uint64",
          "name": "sequence",
          "type": "uint64"
        },
        {
          "internalType": "bytes",
          "name": "data",
          "type": "bytes"
        },
        {
          "components": [
            {
              "internalType": "uint64",
              "name": "block",
              "type": "uint64"
            },
            {
              "internalType": "uint64",
              "name": "timestamp",
              "type": "uint64"
            }
          ],
          "internalType": "struct IbcTimeout",
          "name": "timeout",
          "type": "tuple"
        }
      ],
      "stateMutability": "view",
      "type": "function"
    },
    {
      "inputs": [
        {
          "internalType": "uint256",
          "name": "",
          "type": "uint256"
        }
      ],
      "name": "connectedChannels",
      "outputs": [
        {
          "internalType": "bytes32",
          "name": "",
          "type": "bytes32"
        }
      ],
      "stateMutability": "view",
      "type": "function"
    },
    {
      "inputs": [
        {
          "internalType": "address",
          "name": "dispatcher",
          "type": "address"
        },
        {
          "internalType": "string",
          "name": "message",
          "type": "string"
        },
        {
          "internalType": "bytes32",
          "name": "channelId",
          "type": "bytes32"
        }
      ],
      "name": "greet",
      "outputs": [],
      "stateMutability": "nonpayable",
      "type": "function"
    },
    {
      "inputs": [
        {
          "components": [
            {
              "components": [
                {
                  "internalType": "string",
                  "name": "portId",
                  "type": "string"
                },
                {
                  "internalType": "bytes32",
                  "name": "channelId",
                  "type": "bytes32"
                }
              ],
              "internalType": "struct IbcEndpoint",
              "name": "src",
              "type": "tuple"
            },
            {
              "components": [
                {
                  "internalType": "string",
                  "name": "portId",
                  "type": "string"
                },
                {
                  "internalType": "bytes32",
                  "name": "channelId",
                  "type": "bytes32"
                }
              ],
              "internalType": "struct IbcEndpoint",
              "name": "dest",
              "type": "tuple"
            },
            {
              "internalType": "uint64",
              "name": "sequence",
              "type": "uint64"
            },
            {
              "internalType": "bytes",
              "name": "data",
              "type": "bytes"
            },
            {
              "components": [
                {
                  "internalType": "uint64",
                  "name": "block",
                  "type": "uint64"
                },
                {
                  "internalType": "uint64",
                  "name": "timestamp",
                  "type": "uint64"
                }
              ],
              "internalType": "struct IbcTimeout",
              "name": "timeout",
              "type": "tuple"
            }
          ],
          "internalType": "struct IbcPacket",
          "name": "packet",
          "type": "tuple"
        }
      ],
      "name": "onAcknowledgementPacket",
      "outputs": [],
      "stateMutability": "nonpayable",
      "type": "function"
    },
    {
      "inputs": [
        {
          "internalType": "bytes32",
          "name": "channelId",
          "type": "bytes32"
        },
        {
          "internalType": "string",
          "name": "counterpartyPortId",
          "type": "string"
        },
        {
          "internalType": "bytes32",
          "name": "counterpartyChannelId",
          "type": "bytes32"
        }
      ],
      "name": "onCloseIbcChannel",
      "outputs": [],
      "stateMutability": "nonpayable",
      "type": "function"
    },
    {
      "inputs": [
        {
          "internalType": "bytes32",
          "name": "channelId",
          "type": "bytes32"
        },
        {
          "internalType": "bytes32",
          "name": "counterpartyChannelId",
          "type": "bytes32"
        },
        {
          "internalType": "bytes32",
          "name": "counterpartyVersion",
          "type": "bytes32"
        }
      ],
      "name": "onConnectIbcChannel",
      "outputs": [],
      "stateMutability": "nonpayable",
      "type": "function"
    },
    {
      "inputs": [
        {
          "internalType": "bytes32",
          "name": "version",
          "type": "bytes32"
        },
        {
          "internalType": "enum ChannelOrder",
          "name": "ordering",
          "type": "uint8"
        },
        {
          "internalType": "string[]",
          "name": "connectionHops",
          "type": "string[]"
        },
        {
          "internalType": "bytes32",
          "name": "counterpartyChannelId",
          "type": "bytes32"
        },
        {
          "internalType": "string",
          "name": "counterpartyPortId",
          "type": "string"
        },
        {
          "internalType": "bytes32",
          "name": "counterpartyVersion",
          "type": "bytes32"
        }
      ],
      "name": "onOpenIbcChannel",
      "outputs": [
        {
          "internalType": "bytes32",
          "name": "selectedVersion",
          "type": "bytes32"
        }
      ],
      "stateMutability": "nonpayable",
      "type": "function"
    },
    {
      "inputs": [
        {
          "components": [
            {
              "components": [
                {
                  "internalType": "string",
                  "name": "portId",
                  "type": "string"
                },
                {
                  "internalType": "bytes32",
                  "name": "channelId",
                  "type": "bytes32"
                }
              ],
              "internalType": "struct IbcEndpoint",
              "name": "src",
              "type": "tuple"
            },
            {
              "components": [
                {
                  "internalType": "string",
                  "name": "portId",
                  "type": "string"
                },
                {
                  "internalType": "bytes32",
                  "name": "channelId",
                  "type": "bytes32"
                }
              ],
              "internalType": "struct IbcEndpoint",
              "name": "dest",
              "type": "tuple"
            },
            {
              "internalType": "uint64",
              "name": "sequence",
              "type": "uint64"
            },
            {
              "internalType": "bytes",
              "name": "data",
              "type": "bytes"
            },
            {
              "components": [
                {
                  "internalType": "uint64",
                  "name": "block",
                  "type": "uint64"
                },
                {
                  "internalType": "uint64",
                  "name": "timestamp",
                  "type": "uint64"
                }
              ],
              "internalType": "struct IbcTimeout",
              "name": "timeout",
              "type": "tuple"
            }
          ],
          "internalType": "struct IbcPacket",
          "name": "packet",
          "type": "tuple"
        }
      ],
      "name": "onRecvPacket",
      "outputs": [],
      "stateMutability": "nonpayable",
      "type": "function"
    },
    {
      "inputs": [
        {
          "components": [
            {
              "components": [
                {
                  "internalType": "string",
                  "name": "portId",
                  "type": "string"
                },
                {
                  "internalType": "bytes32",
                  "name": "channelId",
                  "type": "bytes32"
                }
              ],
              "internalType": "struct IbcEndpoint",
              "name": "src",
              "type": "tuple"
            },
            {
              "components": [
                {
                  "internalType": "string",
                  "name": "portId",
                  "type": "string"
                },
                {
                  "internalType": "bytes32",
                  "name": "channelId",
                  "type": "bytes32"
                }
              ],
              "internalType": "struct IbcEndpoint",
              "name": "dest",
              "type": "tuple"
            },
            {
              "internalType": "uint64",
              "name": "sequence",
              "type": "uint64"
            },
            {
              "internalType": "bytes",
              "name": "data",
              "type": "bytes"
            },
            {
              "components": [
                {
                  "internalType": "uint64",
                  "name": "block",
                  "type": "uint64"
                },
                {
                  "internalType": "uint64",
                  "name": "timestamp",
                  "type": "uint64"
                }
              ],
              "internalType": "struct IbcTimeout",
              "name": "timeout",
              "type": "tuple"
            }
          ],
          "internalType": "struct IbcPacket",
          "name": "packet",
          "type": "tuple"
        }
      ],
      "name": "onTimeoutPacket",
      "outputs": [],
      "stateMutability": "nonpayable",
      "type": "function"
    },
    {
      "inputs": [],
      "name": "owner",
      "outputs": [
        {
          "internalType": "address",
          "name": "",
          "type": "address"
        }
      ],
      "stateMutability": "view",
      "type": "function"
    },
    {
      "inputs": [
        {
          "internalType": "uint256",
          "name": "",
          "type": "uint256"
        }
      ],
      "name": "recvedPackets",
      "outputs": [
        {
          "components": [
            {
              "internalType": "string",
              "name": "portId",
              "type": "string"
            },
            {
              "internalType": "bytes32",
              "name": "channelId",
              "type": "bytes32"
            }
          ],
          "internalType": "struct IbcEndpoint",
          "name": "src",
          "type": "tuple"
        },
        {
          "components": [
            {
              "internalType": "string",
              "name": "portId",
              "type": "string"
            },
            {
              "internalType": "bytes32",
              "name": "channelId",
              "type": "bytes32"
            }
          ],
          "internalType": "struct IbcEndpoint",
          "name": "dest",
          "type": "tuple"
        },
        {
          "internalType": "uint64",
          "name": "sequence",
          "type": "uint64"
        },
        {
          "internalType": "bytes",
          "name": "data",
          "type": "bytes"
        },
        {
          "components": [
            {
              "internalType": "uint64",
              "name": "block",
              "type": "uint64"
            },
            {
              "internalType": "uint64",
              "name": "timestamp",
              "type": "uint64"
            }
          ],
          "internalType": "struct IbcTimeout",
          "name": "timeout",
          "type": "tuple"
        }
      ],
      "stateMutability": "view",
      "type": "function"
    },
    {
      "inputs": [],
      "name": "renounceOwnership",
      "outputs": [],
      "stateMutability": "nonpayable",
      "type": "function"
    },
    {
      "inputs": [
        {
          "internalType": "uint256",
          "name": "",
          "type": "uint256"
        }
      ],
      "name": "timeoutPackets",
      "outputs": [
        {
          "components": [
            {
              "internalType": "string",
              "name": "portId",
              "type": "string"
            },
            {
              "internalType": "bytes32",
              "name": "channelId",
              "type": "bytes32"
            }
          ],
          "internalType": "struct IbcEndpoint",
          "name": "src",
          "type": "tuple"
        },
        {
          "components": [
            {
              "internalType": "string",
              "name": "portId",
              "type": "string"
            },
            {
              "internalType": "bytes32",
              "name": "channelId",
              "type": "bytes32"
            }
          ],
          "internalType": "struct IbcEndpoint",
          "name": "dest",
          "type": "tuple"
        },
        {
          "internalType": "uint64",
          "name": "sequence",
          "type": "uint64"
        },
        {
          "internalType": "bytes",
          "name": "data",
          "type": "bytes"
        },
        {
          "components": [
            {
              "internalType": "uint64",
              "name": "block",
              "type": "uint64"
            },
            {
              "internalType": "uint64",
              "name": "timestamp",
              "type": "uint64"
            }
          ],
          "internalType": "struct IbcTimeout",
          "name": "timeout",
          "type": "tuple"
        }
      ],
      "stateMutability": "view",
      "type": "function"
    },
    {
      "inputs": [
        {
          "internalType": "address",
          "name": "newOwner",
          "type": "address"
        }
      ],
      "name": "transferOwnership",
      "outputs": [],
      "stateMutability": "nonpayable",
      "type": "function"
    },
    {
      "inputs": [
        {
          "internalType": "bytes32",
          "name": "channelId",
          "type": "bytes32"
        },
        {
          "internalType": "contract IbcDispatcher",
          "name": "dispatcher",
          "type": "address"
        }
      ],
      "name": "triggerChannelClose",
      "outputs": [],
      "stateMutability": "nonpayable",
      "type": "function"
    }
  ],
  "bytecode": "0x608060405260405180604001604052807f312e30000000000000000000000000000000000000000000000000000000000081526020017f322e30000000000000000000000000000000000000000000000000000000000081525060059060026200006b9291906200016c565b503480156200007957600080fd5b506200009a6200008e620000a060201b60201c565b620000a860201b60201c565b620001dd565b600033905090565b60008060009054906101000a900473ffffffffffffffffffffffffffffffffffffffff169050816000806101000a81548173ffffffffffffffffffffffffffffffffffffffff021916908373ffffffffffffffffffffffffffffffffffffffff1602179055508173ffffffffffffffffffffffffffffffffffffffff168173ffffffffffffffffffffffffffffffffffffffff167f8be0079c531659141344cd1fd0a4f28419497f9722a3daafe3b4186f6b6457e060405160405180910390a35050565b828054828255906000526020600020908101928215620001ab579160200282015b82811115620001aa5782518255916020019190600101906200018d565b5b509050620001ba9190620001be565b5090565b5b80821115620001d9576000816000905550600101620001bf565b5090565b6124e180620001ed6000396000f3fe608060405234801561001057600080fd5b50600436106100f55760003560e01c8063b33c257711610097578063f12b758a11610066578063f12b758a14610276578063f2fde38b146102aa578063f45cf5e4146102c6578063f6431b50146102e2576100f5565b8063b33c2577146101f2578063bb3f9f8d1461020e578063e0a37bb61461023e578063e60a72931461025a576100f5565b80635fe39e0d116100d35780635fe39e0d14610192578063715018a6146101ae5780638da5cb5b146101b8578063b058e81a146101d6576100f5565b80634252ae9b146100fa578063486592191461012e5780634eeb73911461015e575b600080fd5b610114600480360381019061010f9190611165565b6102fe565b604051610125959493929190611337565b60405180910390f35b610148600480360381019061014391906114ab565b61059a565b6040516101559190611589565b60405180910390f35b61017860048036038101906101739190611165565b610698565b604051610189959493929190611337565b60405180910390f35b6101ac60048036038101906101a791906115a4565b610934565b005b6101b66109f1565b005b6101c0610a05565b6040516101cd9190611659565b60405180910390f35b6101f060048036038101906101eb9190611698565b610a2e565b005b61020c60048036038101906102079190611698565b610a6b565b005b61022860048036038101906102239190611165565b610aa8565b6040516102359190611589565b60405180910390f35b6102586004803603810190610253919061171f565b610acc565b005b610274600480360381019061026f919061175f565b610b43565b005b610290600480360381019061028b9190611165565b610c06565b6040516102a1959493929190611337565b60405180910390f35b6102c460048036038101906102bf91906117de565b610ea2565b005b6102e060048036038101906102db9190611698565b610f26565b005b6102fc60048036038101906102f7919061180b565b610f63565b005b6002818154811061030e57600080fd5b906000526020600020906007020160009150905080600001604051806040016040529081600082018054610341906118ae565b80601f016020809104026020016040519081016040528092919081815260200182805461036d906118ae565b80156103ba5780601f1061038f576101008083540402835291602001916103ba565b820191906000526020600020905b81548152906001019060200180831161039d57829003601f168201915b5050505050815260200160018201548152505090806002016040518060400160405290816000820180546103ed906118ae565b80601f0160208091040260200160405190810160405280929190818152602001828054610419906118ae565b80156104665780601f1061043b57610100808354040283529160200191610466565b820191906000526020600020905b81548152906001019060200180831161044957829003601f168201915b50505050508152602001600182015481525050908060040160009054906101000a900467ffffffffffffffff16908060050180546104a3906118ae565b80601f01602080910402602001604051908101604052809291908181526020018280546104cf906118ae565b801561051c5780601f106104f15761010080835404028352916020019161051c565b820191906000526020600020905b8154815290600101906020018083116104ff57829003601f168201915b505050505090806006016040518060400160405290816000820160009054906101000a900467ffffffffffffffff1667ffffffffffffffff1667ffffffffffffffff1681526020016000820160089054906101000a900467ffffffffffffffff1667ffffffffffffffff1667ffffffffffffffff1681525050905085565b6000600884849050116105e2576040517f08c379a00000000000000000000000000000000000000000000000000000000081526004016105d99061193d565b60405180910390fd5b6000808019168a146105f457896105f6565b825b915060005b60058054905081101561064a576005818154811061061c5761061b61195d565b5b9060005260206000200154831415610637576001915061064a565b8080610642906119bb565b9150506105fb565b508061068b576040517f08c379a000000000000000000000000000000000000000000000000000000000815260040161068290611a50565b60405180910390fd5b5098975050505050505050565b600381815481106106a857600080fd5b9060005260206000209060070201600091509050806000016040518060400160405290816000820180546106db906118ae565b80601f0160208091040260200160405190810160405280929190818152602001828054610707906118ae565b80156107545780601f1061072957610100808354040283529160200191610754565b820191906000526020600020905b81548152906001019060200180831161073757829003601f168201915b505050505081526020016001820154815250509080600201604051806040016040529081600082018054610787906118ae565b80601f01602080910402602001604051908101604052809291908181526020018280546107b3906118ae565b80156108005780601f106107d557610100808354040283529160200191610800565b820191906000526020600020905b8154815290600101906020018083116107e357829003601f168201915b50505050508152602001600182015481525050908060040160009054906101000a900467ffffffffffffffff169080600501805461083d906118ae565b80601f0160208091040260200160405190810160405280929190818152602001828054610869906118ae565b80156108b65780601f1061088b576101008083540402835291602001916108b6565b820191906000526020600020905b81548152906001019060200180831161089957829003601f168201915b505050505090806006016040518060400160405290816000820160009054906101000a900467ffffffffffffffff1667ffffffffffffffff1667ffffffffffffffff1681526020016000820160089054906101000a900467ffffffffffffffff1667ffffffffffffffff1667ffffffffffffffff1681525050905085565b6000805b6004805490508110156109a957856004828154811061095a5761095961195d565b5b90600052602060002001541415610996576004818154811061097f5761097e61195d565b5b9060005260206000200160009055600191506109a9565b80806109a1906119bb565b915050610938565b50806109ea576040517f08c379a00000000000000000000000000000000000000000000000000000000081526004016109e190611abc565b60405180910390fd5b5050505050565b6109f9610fdb565b610a036000611059565b565b60008060009054906101000a900473ffffffffffffffffffffffffffffffffffffffff16905090565b60018190806001815401808255809150506001900390600052602060002090600702016000909190919091508181610a6691906122e8565b505050565b60038190806001815401808255809150506001900390600052602060002090600702016000909190919091508181610aa391906122e8565b505050565b60048181548110610ab857600080fd5b906000526020600020016000915090505481565b610ad4610fdb565b8073ffffffffffffffffffffffffffffffffffffffff16638b24b4cb836040518263ffffffff1660e01b8152600401610b0d9190611589565b600060405180830381600087803b158015610b2757600080fd5b505af1158015610b3b573d6000803e3d6000fd5b505050505050565b6000805b600580549050811015610b965760058181548110610b6857610b6761195d565b5b9060005260206000200154831415610b835760019150610b96565b8080610b8e906119bb565b915050610b47565b5080610bd7576040517f08c379a0000000000000000000000000000000000000000000000000000000008152600401610bce90611a50565b60405180910390fd5b600484908060018154018082558091505060019003906000526020600020016000909190919091505550505050565b60018181548110610c1657600080fd5b906000526020600020906007020160009150905080600001604051806040016040529081600082018054610c49906118ae565b80601f0160208091040260200160405190810160405280929190818152602001828054610c75906118ae565b8015610cc25780601f10610c9757610100808354040283529160200191610cc2565b820191906000526020600020905b815481529060010190602001808311610ca557829003601f168201915b505050505081526020016001820154815250509080600201604051806040016040529081600082018054610cf5906118ae565b80601f0160208091040260200160405190810160405280929190818152602001828054610d21906118ae565b8015610d6e5780601f10610d4357610100808354040283529160200191610d6e565b820191906000526020600020905b815481529060010190602001808311610d5157829003601f168201915b50505050508152602001600182015481525050908060040160009054906101000a900467ffffffffffffffff1690806005018054610dab906118ae565b80601f0160208091040260200160405190810160405280929190818152602001828054610dd7906118ae565b8015610e245780601f10610df957610100808354040283529160200191610e24565b820191906000526020600020905b815481529060010190602001808311610e0757829003601f168201915b505050505090806006016040518060400160405290816000820160009054906101000a900467ffffffffffffffff1667ffffffffffffffff1667ffffffffffffffff1681526020016000820160089054906101000a900467ffffffffffffffff1667ffffffffffffffff1667ffffffffffffffff1681525050905085565b610eaa610fdb565b600073ffffffffffffffffffffffffffffffffffffffff168173ffffffffffffffffffffffffffffffffffffffff161415610f1a576040517f08c379a0000000000000000000000000000000000000000000000000000000008152600401610f1190612368565b60405180910390fd5b610f2381611059565b50565b60028190806001815401808255809150506001900390600052602060002090600702016000909190919091508181610f5e91906122e8565b505050565b8373ffffffffffffffffffffffffffffffffffffffff1663c3e1155c82858560006040518563ffffffff1660e01b8152600401610fa394939291906123ff565b600060405180830381600087803b158015610fbd57600080fd5b505af1158015610fd1573d6000803e3d6000fd5b5050505050505050565b610fe361111d565b73ffffffffffffffffffffffffffffffffffffffff16611001610a05565b73ffffffffffffffffffffffffffffffffffffffff1614611057576040517f08c379a000000000000000000000000000000000000000000000000000000000815260040161104e9061248b565b60405180910390fd5b565b60008060009054906101000a900473ffffffffffffffffffffffffffffffffffffffff169050816000806101000a81548173ffffffffffffffffffffffffffffffffffffffff021916908373ffffffffffffffffffffffffffffffffffffffff1602179055508173ffffffffffffffffffffffffffffffffffffffff168173ffffffffffffffffffffffffffffffffffffffff167f8be0079c531659141344cd1fd0a4f28419497f9722a3daafe3b4186f6b6457e060405160405180910390a35050565b600033905090565b600080fd5b600080fd5b6000819050919050565b6111428161112f565b811461114d57600080fd5b50565b60008135905061115f81611139565b92915050565b60006020828403121561117b5761117a611125565b5b600061118984828501611150565b91505092915050565b600081519050919050565b600082825260208201905092915050565b60005b838110156111cc5780820151818401526020810190506111b1565b838111156111db576000848401525b50505050565b6000601f19601f8301169050919050565b60006111fd82611192565b611207818561119d565b93506112178185602086016111ae565b611220816111e1565b840191505092915050565b6000819050919050565b61123e8161122b565b82525050565b6000604083016000830151848203600086015261126182826111f2565b91505060208301516112766020860182611235565b508091505092915050565b600067ffffffffffffffff82169050919050565b61129e81611281565b82525050565b600081519050919050565b600082825260208201905092915050565b60006112cb826112a4565b6112d581856112af565b93506112e58185602086016111ae565b6112ee816111e1565b840191505092915050565b61130281611281565b82525050565b60408201600082015161131e60008501826112f9565b50602082015161133160208501826112f9565b50505050565b600060c08201905081810360008301526113518188611244565b905081810360208301526113658187611244565b90506113746040830186611295565b818103606083015261138681856112c0565b90506113956080830184611308565b9695505050505050565b6113a88161122b565b81146113b357600080fd5b50565b6000813590506113c58161139f565b92915050565b600281106113d857600080fd5b50565b6000813590506113ea816113cb565b92915050565b600080fd5b600080fd5b600080fd5b60008083601f840112611415576114146113f0565b5b8235905067ffffffffffffffff811115611432576114316113f5565b5b60208301915083602082028301111561144e5761144d6113fa565b5b9250929050565b60008083601f84011261146b5761146a6113f0565b5b8235905067ffffffffffffffff811115611488576114876113f5565b5b6020830191508360018202830111156114a4576114a36113fa565b5b9250929050565b60008060008060008060008060c0898b0312156114cb576114ca611125565b5b60006114d98b828c016113b6565b98505060206114ea8b828c016113db565b975050604089013567ffffffffffffffff81111561150b5761150a61112a565b5b6115178b828c016113ff565b9650965050606061152a8b828c016113b6565b945050608089013567ffffffffffffffff81111561154b5761154a61112a565b5b6115578b828c01611455565b935093505060a061156a8b828c016113b6565b9150509295985092959890939650565b6115838161122b565b82525050565b600060208201905061159e600083018461157a565b92915050565b600080600080606085870312156115be576115bd611125565b5b60006115cc878288016113b6565b945050602085013567ffffffffffffffff8111156115ed576115ec61112a565b5b6115f987828801611455565b9350935050604061160c878288016113b6565b91505092959194509250565b600073ffffffffffffffffffffffffffffffffffffffff82169050919050565b600061164382611618565b9050919050565b61165381611638565b82525050565b600060208201905061166e600083018461164a565b92915050565b600080fd5b600060c0828403121561168f5761168e611674565b5b81905092915050565b6000602082840312156116ae576116ad611125565b5b600082013567ffffffffffffffff8111156116cc576116cb61112a565b5b6116d884828501611679565b91505092915050565b60006116ec82611638565b9050919050565b6116fc816116e1565b811461170757600080fd5b50565b600081359050611719816116f3565b92915050565b6000806040838503121561173657611735611125565b5b6000611744858286016113b6565b92505060206117558582860161170a565b9150509250929050565b60008060006060848603121561177857611777611125565b5b6000611786868287016113b6565b9350506020611797868287016113b6565b92505060406117a8868287016113b6565b9150509250925092565b6117bb81611638565b81146117c657600080fd5b50565b6000813590506117d8816117b2565b92915050565b6000602082840312156117f4576117f3611125565b5b6000611802848285016117c9565b91505092915050565b6000806000806060858703121561182557611824611125565b5b6000611833878288016117c9565b945050602085013567ffffffffffffffff8111156118545761185361112a565b5b61186087828801611455565b93509350506040611873878288016113b6565b91505092959194509250565b7f4e487b7100000000000000000000000000000000000000000000000000000000600052602260045260246000fd5b600060028204905060018216806118c657607f821691505b602082108114156118da576118d961187f565b5b50919050565b600082825260208201905092915050565b7f496e76616c696420636f756e7465727061727479506f72744964000000000000600082015250565b6000611927601a836118e0565b9150611932826118f1565b602082019050919050565b600060208201905081810360008301526119568161191a565b9050919050565b7f4e487b7100000000000000000000000000000000000000000000000000000000600052603260045260246000fd5b7f4e487b7100000000000000000000000000000000000000000000000000000000600052601160045260246000fd5b60006119c68261112f565b91507fffffffffffffffffffffffffffffffffffffffffffffffffffffffffffffffff8214156119f9576119f861198c565b5b600182019050919050565b7f556e737570706f727465642076657273696f6e00000000000000000000000000600082015250565b6000611a3a6013836118e0565b9150611a4582611a04565b602082019050919050565b60006020820190508181036000830152611a6981611a2d565b9050919050565b7f4368616e6e656c206e6f7420666f756e64000000000000000000000000000000600082015250565b6000611aa66011836118e0565b9150611ab182611a70565b602082019050919050565b60006020820190508181036000830152611ad581611a99565b9050919050565b600080fd5b600080fd5b600080fd5b600082356001604003833603038112611b0757611b06611adc565b5b80830191505092915050565b60008083356001602003843603038112611b3057611b2f611adc565b5b80840192508235915067ffffffffffffffff821115611b5257611b51611ae1565b5b602083019250600182023603831315611b6e57611b6d611ae6565b5b509250929050565b600082905092915050565b7f4e487b7100000000000000000000000000000000000000000000000000000000600052604160045260246000fd5b60008190508160005260206000209050919050565b60006020601f8301049050919050565b600082821b905092915050565b600060088302611c127fffffffffffffffffffffffffffffffffffffffffffffffffffffffffffffffff82611bd5565b611c1c8683611bd5565b95508019841693508086168417925050509392505050565b6000819050919050565b6000611c59611c54611c4f8461112f565b611c34565b61112f565b9050919050565b6000819050919050565b611c7383611c3e565b611c87611c7f82611c60565b848454611be2565b825550505050565b600090565b611c9c611c8f565b611ca7818484611c6a565b505050565b5b81811015611ccb57611cc0600082611c94565b600181019050611cad565b5050565b601f821115611d1057611ce181611bb0565b611cea84611bc5565b81016020851015611cf9578190505b611d0d611d0585611bc5565b830182611cac565b50505b505050565b600082821c905092915050565b6000611d3360001984600802611d15565b1980831691505092915050565b6000611d4c8383611d22565b9150826002028217905092915050565b611d668383611b76565b67ffffffffffffffff811115611d7f57611d7e611b81565b5b611d8982546118ae565b611d94828285611ccf565b6000601f831160018114611dc35760008415611db1578287013590505b611dbb8582611d40565b865550611e23565b601f198416611dd186611bb0565b60005b82811015611df957848901358255600182019150602085019450602081019050611dd4565b86831015611e165784890135611e12601f891682611d22565b8355505b6001600288020188555050505b50505050505050565b611e37838383611d5c565b505050565b60008135611e498161139f565b80915050919050565b60008160001b9050919050565b60007fffffffffffffffffffffffffffffffffffffffffffffffffffffffffffffffff611e8b84611e52565b9350801983169250808416831791505092915050565b6000611eac8261122b565b9050919050565b60008160001c9050919050565b6000611ecb82611eb3565b9050919050565b611edb82611ea1565b611eee611ee782611ec0565b8354611e5f565b8255505050565b6000810160008301611f078185611b13565b611f12818386611e2c565b50505050600181016020830180611f2881611e3c565b9050611f348184611ed2565b5050505050565b611f458282611ef5565b5050565b611f5281611281565b8114611f5d57600080fd5b50565b60008135611f6d81611f49565b80915050919050565b600067ffffffffffffffff611f8a84611e52565b9350801983169250808416831791505092915050565b6000611fbb611fb6611fb184611281565b611c34565b611281565b9050919050565b6000819050919050565b611fd582611fa0565b611fe8611fe182611fc2565b8354611f76565b8255505050565b6000808335600160200384360303811261200c5761200b611adc565b5b80840192508235915067ffffffffffffffff82111561202e5761202d611ae1565b5b60208301925060018202360383131561204a57612049611ae6565b5b509250929050565b600082905092915050565b60008190508160005260206000209050919050565b601f8211156120b3576120848161205d565b61208d84611bc5565b8101602085101561209c578190505b6120b06120a885611bc5565b830182611cac565b50505b505050565b6120c28383612052565b67ffffffffffffffff8111156120db576120da611b81565b5b6120e582546118ae565b6120f0828285612072565b6000601f83116001811461211f576000841561210d578287013590505b6121178582611d40565b86555061217f565b601f19841661212d8661205d565b60005b8281101561215557848901358255600182019150602085019450602081019050612130565b86831015612172578489013561216e601f891682611d22565b8355505b6001600288020188555050505b50505050505050565b6121938383836120b8565b505050565b60008160401b9050919050565b60006fffffffffffffffff00000000000000006121c184612198565b9350801983169250808416831791505092915050565b6121e082611fa0565b6121f36121ec82611fc2565b83546121a5565b8255505050565b60008101600083018061220c81611f60565b90506122188184611fcc565b50505060008101602083018061222d81611f60565b905061223981846121d7565b5050505050565b61224a82826121fa565b5050565b60008101600083016122608185611aeb565b61226a8184611f3b565b505050600281016020830161227f8185611aeb565b6122898184611f3b565b50505060048101604083018061229e81611f60565b90506122aa8184611fcc565b50505060058101606083016122bf8185611fef565b6122ca818386612188565b505050506006810160808301806122e18184612240565b5050505050565b6122f2828261224e565b5050565b7f4f776e61626c653a206e6577206f776e657220697320746865207a65726f206160008201527f6464726573730000000000000000000000000000000000000000000000000000602082015250565b60006123526026836118e0565b915061235d826122f6565b604082019050919050565b6000602082019050818103600083015261238181612345565b9050919050565b82818337600083830152505050565b60006123a383856112af565b93506123b0838584612388565b6123b9836111e1565b840190509392505050565b6000819050919050565b60006123e96123e46123df846123c4565b611c34565b611281565b9050919050565b6123f9816123ce565b82525050565b6000606082019050612414600083018761157a565b8181036020830152612427818587612397565b905061243660408301846123f0565b95945050505050565b7f4f776e61626c653a2063616c6c6572206973206e6f7420746865206f776e6572600082015250565b60006124756020836118e0565b91506124808261243f565b602082019050919050565b600060208201905081810360008301526124a481612468565b905091905056fea26469706673582212201a7c93864f87ed2258c3dd271d934d33cafcf032761b52c75f647ee6808a38cc64736f6c63430008090033",
  "linkReferences": {},
  "deployedLinkReferences": {}
}