{
  "_format": "hh-sol-artifact-1",
  "contractName": "Mars",
  "sourceName": "contracts/Mars.sol",
  "abi": [
    {
      "anonymous": false,
      "inputs": [
        {
          "indexed": true,
          "internalType": "address",
          "name": "previousOwner",
          "type": "address"
        },
        {
          "indexed": true,
          "internalType": "address",
          "name": "newOwner",
          "type": "address"
        }
      ],
      "name": "OwnershipTransferred",
      "type": "event"
    },
    {
      "inputs": [
        {
          "internalType": "uint256",
          "name": "",
          "type": "uint256"
        }
      ],
      "name": "ackPackets",
      "outputs": [
        {
          "components": [
            {
              "internalType": "string",
              "name": "portId",
              "type": "string"
            },
            {
              "internalType": "bytes32",
              "name": "channelId",
              "type": "bytes32"
            }
          ],
          "internalType": "struct IbcEndpoint",
          "name": "src",
          "type": "tuple"
        },
        {
          "components": [
            {
              "internalType": "string",
              "name": "portId",
              "type": "string"
            },
            {
              "internalType": "bytes32",
              "name": "channelId",
              "type": "bytes32"
            }
          ],
          "internalType": "struct IbcEndpoint",
          "name": "dest",
          "type": "tuple"
        },
        {
          "internalType": "uint64",
          "name": "sequence",
          "type": "uint64"
        },
        {
          "internalType": "bytes",
          "name": "data",
          "type": "bytes"
        },
        {
          "components": [
            {
              "internalType": "uint64",
              "name": "block",
              "type": "uint64"
            },
            {
              "internalType": "uint64",
              "name": "timestamp",
              "type": "uint64"
            }
          ],
          "internalType": "struct IbcTimeout",
          "name": "timeout",
          "type": "tuple"
        }
      ],
      "stateMutability": "view",
      "type": "function"
    },
    {
      "inputs": [
        {
          "internalType": "uint256",
          "name": "",
          "type": "uint256"
        }
      ],
      "name": "connectedChannels",
      "outputs": [
        {
          "internalType": "bytes32",
          "name": "",
          "type": "bytes32"
        }
      ],
      "stateMutability": "view",
      "type": "function"
    },
    {
      "inputs": [
        {
          "internalType": "address",
          "name": "dispatcher",
          "type": "address"
        },
        {
          "internalType": "string",
          "name": "message",
          "type": "string"
        },
        {
          "internalType": "bytes32",
          "name": "channelId",
          "type": "bytes32"
        }
      ],
      "name": "greet",
      "outputs": [],
      "stateMutability": "nonpayable",
      "type": "function"
    },
    {
      "inputs": [
        {
          "components": [
            {
              "components": [
                {
                  "internalType": "string",
                  "name": "portId",
                  "type": "string"
                },
                {
                  "internalType": "bytes32",
                  "name": "channelId",
                  "type": "bytes32"
                }
              ],
              "internalType": "struct IbcEndpoint",
              "name": "src",
              "type": "tuple"
            },
            {
              "components": [
                {
                  "internalType": "string",
                  "name": "portId",
                  "type": "string"
                },
                {
                  "internalType": "bytes32",
                  "name": "channelId",
                  "type": "bytes32"
                }
              ],
              "internalType": "struct IbcEndpoint",
              "name": "dest",
              "type": "tuple"
            },
            {
              "internalType": "uint64",
              "name": "sequence",
              "type": "uint64"
            },
            {
              "internalType": "bytes",
              "name": "data",
              "type": "bytes"
            },
            {
              "components": [
                {
                  "internalType": "uint64",
                  "name": "block",
                  "type": "uint64"
                },
                {
                  "internalType": "uint64",
                  "name": "timestamp",
                  "type": "uint64"
                }
              ],
              "internalType": "struct IbcTimeout",
              "name": "timeout",
              "type": "tuple"
            }
          ],
          "internalType": "struct IbcPacket",
          "name": "packet",
          "type": "tuple"
        }
      ],
      "name": "onAcknowledgementPacket",
      "outputs": [],
      "stateMutability": "nonpayable",
      "type": "function"
    },
    {
      "inputs": [
        {
          "internalType": "bytes32",
          "name": "channelId",
          "type": "bytes32"
        },
        {
          "internalType": "string",
          "name": "counterpartyPortId",
          "type": "string"
        },
        {
          "internalType": "bytes32",
          "name": "counterpartyChannelId",
          "type": "bytes32"
        }
      ],
      "name": "onCloseIbcChannel",
      "outputs": [],
      "stateMutability": "nonpayable",
      "type": "function"
    },
    {
      "inputs": [
        {
          "internalType": "bytes32",
          "name": "channelId",
          "type": "bytes32"
        },
        {
          "internalType": "bytes32",
          "name": "counterpartyChannelId",
          "type": "bytes32"
        },
        {
          "internalType": "bytes32",
          "name": "counterpartyVersion",
          "type": "bytes32"
        }
      ],
      "name": "onConnectIbcChannel",
      "outputs": [],
      "stateMutability": "nonpayable",
      "type": "function"
    },
    {
      "inputs": [
        {
          "internalType": "bytes32",
          "name": "version",
          "type": "bytes32"
        },
        {
          "internalType": "enum ChannelOrder",
          "name": "ordering",
          "type": "uint8"
        },
        {
          "internalType": "string[]",
          "name": "connectionHops",
          "type": "string[]"
        },
        {
          "internalType": "bytes32",
          "name": "counterpartyChannelId",
          "type": "bytes32"
        },
        {
          "internalType": "string",
          "name": "counterpartyPortId",
          "type": "string"
        },
        {
          "internalType": "bytes32",
          "name": "counterpartyVersion",
          "type": "bytes32"
        }
      ],
      "name": "onOpenIbcChannel",
      "outputs": [
        {
          "internalType": "bytes32",
          "name": "selectedVersion",
          "type": "bytes32"
        }
      ],
      "stateMutability": "nonpayable",
      "type": "function"
    },
    {
      "inputs": [
        {
          "components": [
            {
              "components": [
                {
                  "internalType": "string",
                  "name": "portId",
                  "type": "string"
                },
                {
                  "internalType": "bytes32",
                  "name": "channelId",
                  "type": "bytes32"
                }
              ],
              "internalType": "struct IbcEndpoint",
              "name": "src",
              "type": "tuple"
            },
            {
              "components": [
                {
                  "internalType": "string",
                  "name": "portId",
                  "type": "string"
                },
                {
                  "internalType": "bytes32",
                  "name": "channelId",
                  "type": "bytes32"
                }
              ],
              "internalType": "struct IbcEndpoint",
              "name": "dest",
              "type": "tuple"
            },
            {
              "internalType": "uint64",
              "name": "sequence",
              "type": "uint64"
            },
            {
              "internalType": "bytes",
              "name": "data",
              "type": "bytes"
            },
            {
              "components": [
                {
                  "internalType": "uint64",
                  "name": "block",
                  "type": "uint64"
                },
                {
                  "internalType": "uint64",
                  "name": "timestamp",
                  "type": "uint64"
                }
              ],
              "internalType": "struct IbcTimeout",
              "name": "timeout",
              "type": "tuple"
            }
          ],
          "internalType": "struct IbcPacket",
          "name": "packet",
          "type": "tuple"
        }
      ],
      "name": "onRecvPacket",
      "outputs": [],
      "stateMutability": "nonpayable",
      "type": "function"
    },
    {
      "inputs": [
        {
          "components": [
            {
              "components": [
                {
                  "internalType": "string",
                  "name": "portId",
                  "type": "string"
                },
                {
                  "internalType": "bytes32",
                  "name": "channelId",
                  "type": "bytes32"
                }
              ],
              "internalType": "struct IbcEndpoint",
              "name": "src",
              "type": "tuple"
            },
            {
              "components": [
                {
                  "internalType": "string",
                  "name": "portId",
                  "type": "string"
                },
                {
                  "internalType": "bytes32",
                  "name": "channelId",
                  "type": "bytes32"
                }
              ],
              "internalType": "struct IbcEndpoint",
              "name": "dest",
              "type": "tuple"
            },
            {
              "internalType": "uint64",
              "name": "sequence",
              "type": "uint64"
            },
            {
              "internalType": "bytes",
              "name": "data",
              "type": "bytes"
            },
            {
              "components": [
                {
                  "internalType": "uint64",
                  "name": "block",
                  "type": "uint64"
                },
                {
                  "internalType": "uint64",
                  "name": "timestamp",
                  "type": "uint64"
                }
              ],
              "internalType": "struct IbcTimeout",
              "name": "timeout",
              "type": "tuple"
            }
          ],
          "internalType": "struct IbcPacket",
          "name": "packet",
          "type": "tuple"
        }
      ],
      "name": "onTimeoutPacket",
      "outputs": [],
      "stateMutability": "nonpayable",
      "type": "function"
    },
    {
      "inputs": [],
      "name": "owner",
      "outputs": [
        {
          "internalType": "address",
          "name": "",
          "type": "address"
        }
      ],
      "stateMutability": "view",
      "type": "function"
    },
    {
      "inputs": [
        {
          "internalType": "uint256",
          "name": "",
          "type": "uint256"
        }
      ],
      "name": "recvedPackets",
      "outputs": [
        {
          "components": [
            {
              "internalType": "string",
              "name": "portId",
              "type": "string"
            },
            {
              "internalType": "bytes32",
              "name": "channelId",
              "type": "bytes32"
            }
          ],
          "internalType": "struct IbcEndpoint",
          "name": "src",
          "type": "tuple"
        },
        {
          "components": [
            {
              "internalType": "string",
              "name": "portId",
              "type": "string"
            },
            {
              "internalType": "bytes32",
              "name": "channelId",
              "type": "bytes32"
            }
          ],
          "internalType": "struct IbcEndpoint",
          "name": "dest",
          "type": "tuple"
        },
        {
          "internalType": "uint64",
          "name": "sequence",
          "type": "uint64"
        },
        {
          "internalType": "bytes",
          "name": "data",
          "type": "bytes"
        },
        {
          "components": [
            {
              "internalType": "uint64",
              "name": "block",
              "type": "uint64"
            },
            {
              "internalType": "uint64",
              "name": "timestamp",
              "type": "uint64"
            }
          ],
          "internalType": "struct IbcTimeout",
          "name": "timeout",
          "type": "tuple"
        }
      ],
      "stateMutability": "view",
      "type": "function"
    },
    {
      "inputs": [],
      "name": "renounceOwnership",
      "outputs": [],
      "stateMutability": "nonpayable",
      "type": "function"
    },
    {
      "inputs": [
        {
          "internalType": "uint256",
          "name": "",
          "type": "uint256"
        }
      ],
      "name": "timeoutPackets",
      "outputs": [
        {
          "components": [
            {
              "internalType": "string",
              "name": "portId",
              "type": "string"
            },
            {
              "internalType": "bytes32",
              "name": "channelId",
              "type": "bytes32"
            }
          ],
          "internalType": "struct IbcEndpoint",
          "name": "src",
          "type": "tuple"
        },
        {
          "components": [
            {
              "internalType": "string",
              "name": "portId",
              "type": "string"
            },
            {
              "internalType": "bytes32",
              "name": "channelId",
              "type": "bytes32"
            }
          ],
          "internalType": "struct IbcEndpoint",
          "name": "dest",
          "type": "tuple"
        },
        {
          "internalType": "uint64",
          "name": "sequence",
          "type": "uint64"
        },
        {
          "internalType": "bytes",
          "name": "data",
          "type": "bytes"
        },
        {
          "components": [
            {
              "internalType": "uint64",
              "name": "block",
              "type": "uint64"
            },
            {
              "internalType": "uint64",
              "name": "timestamp",
              "type": "uint64"
            }
          ],
          "internalType": "struct IbcTimeout",
          "name": "timeout",
          "type": "tuple"
        }
      ],
      "stateMutability": "view",
      "type": "function"
    },
    {
      "inputs": [
        {
          "internalType": "address",
          "name": "newOwner",
          "type": "address"
        }
      ],
      "name": "transferOwnership",
      "outputs": [],
      "stateMutability": "nonpayable",
      "type": "function"
    }
  ],
  "bytecode": "0x608060405260405180604001604052807f312e30000000000000000000000000000000000000000000000000000000000081526020017f322e30000000000000000000000000000000000000000000000000000000000081525060059060026200006b9291906200016c565b503480156200007957600080fd5b506200009a6200008e620000a060201b60201c565b620000a860201b60201c565b620001dd565b600033905090565b60008060009054906101000a900473ffffffffffffffffffffffffffffffffffffffff169050816000806101000a81548173ffffffffffffffffffffffffffffffffffffffff021916908373ffffffffffffffffffffffffffffffffffffffff1602179055508173ffffffffffffffffffffffffffffffffffffffff168173ffffffffffffffffffffffffffffffffffffffff167f8be0079c531659141344cd1fd0a4f28419497f9722a3daafe3b4186f6b6457e060405160405180910390a35050565b828054828255906000526020600020908101928215620001ab579160200282015b82811115620001aa5782518255916020019190600101906200018d565b5b509050620001ba9190620001be565b5090565b5b80821115620001d9576000816000905550600101620001bf565b5090565b61231980620001ed6000396000f3fe608060405234801561001057600080fd5b50600436106100ea5760003560e01c8063b33c25771161008c578063f12b758a11610066578063f12b758a1461024f578063f2fde38b14610283578063f45cf5e41461029f578063f6431b50146102bb576100ea565b8063b33c2577146101e7578063bb3f9f8d14610203578063e60a729314610233576100ea565b80635fe39e0d116100c85780635fe39e0d14610187578063715018a6146101a35780638da5cb5b146101ad578063b058e81a146101cb576100ea565b80634252ae9b146100ef57806348659219146101235780634eeb739114610153575b600080fd5b61010960048036038101906101049190611087565b6102d7565b60405161011a959493929190611259565b60405180910390f35b61013d600480360381019061013891906113cd565b610573565b60405161014a91906114ab565b60405180910390f35b61016d60048036038101906101689190611087565b610671565b60405161017e959493929190611259565b60405180910390f35b6101a1600480360381019061019c91906114c6565b61090d565b005b6101ab61098a565b005b6101b561099e565b6040516101c2919061157b565b60405180910390f35b6101e560048036038101906101e091906115ba565b6109c7565b005b61020160048036038101906101fc91906115ba565b610a04565b005b61021d60048036038101906102189190611087565b610a41565b60405161022a91906114ab565b60405180910390f35b61024d60048036038101906102489190611603565b610a65565b005b61026960048036038101906102649190611087565b610b28565b60405161027a959493929190611259565b60405180910390f35b61029d60048036038101906102989190611682565b610dc4565b005b6102b960048036038101906102b491906115ba565b610e48565b005b6102d560048036038101906102d091906116af565b610e85565b005b600281815481106102e757600080fd5b90600052602060002090600702016000915090508060000160405180604001604052908160008201805461031a90611752565b80601f016020809104026020016040519081016040528092919081815260200182805461034690611752565b80156103935780601f1061036857610100808354040283529160200191610393565b820191906000526020600020905b81548152906001019060200180831161037657829003601f168201915b5050505050815260200160018201548152505090806002016040518060400160405290816000820180546103c690611752565b80601f01602080910402602001604051908101604052809291908181526020018280546103f290611752565b801561043f5780601f106104145761010080835404028352916020019161043f565b820191906000526020600020905b81548152906001019060200180831161042257829003601f168201915b50505050508152602001600182015481525050908060040160009054906101000a900467ffffffffffffffff169080600501805461047c90611752565b80601f01602080910402602001604051908101604052809291908181526020018280546104a890611752565b80156104f55780601f106104ca576101008083540402835291602001916104f5565b820191906000526020600020905b8154815290600101906020018083116104d857829003601f168201915b505050505090806006016040518060400160405290816000820160009054906101000a900467ffffffffffffffff1667ffffffffffffffff1667ffffffffffffffff1681526020016000820160089054906101000a900467ffffffffffffffff1667ffffffffffffffff1667ffffffffffffffff1681525050905085565b6000600884849050116105bb576040517f08c379a00000000000000000000000000000000000000000000000000000000081526004016105b2906117e1565b60405180910390fd5b6000808019168a146105cd57896105cf565b825b915060005b60058054905081101561062357600581815481106105f5576105f4611801565b5b90600052602060002001548314156106105760019150610623565b808061061b9061185f565b9150506105d4565b5080610664576040517f08c379a000000000000000000000000000000000000000000000000000000000815260040161065b906118f4565b60405180910390fd5b5098975050505050505050565b6003818154811061068157600080fd5b9060005260206000209060070201600091509050806000016040518060400160405290816000820180546106b490611752565b80601f01602080910402602001604051908101604052809291908181526020018280546106e090611752565b801561072d5780601f106107025761010080835404028352916020019161072d565b820191906000526020600020905b81548152906001019060200180831161071057829003601f168201915b50505050508152602001600182015481525050908060020160405180604001604052908160008201805461076090611752565b80601f016020809104026020016040519081016040528092919081815260200182805461078c90611752565b80156107d95780601f106107ae576101008083540402835291602001916107d9565b820191906000526020600020905b8154815290600101906020018083116107bc57829003601f168201915b50505050508152602001600182015481525050908060040160009054906101000a900467ffffffffffffffff169080600501805461081690611752565b80601f016020809104026020016040519081016040528092919081815260200182805461084290611752565b801561088f5780601f106108645761010080835404028352916020019161088f565b820191906000526020600020905b81548152906001019060200180831161087257829003601f168201915b505050505090806006016040518060400160405290816000820160009054906101000a900467ffffffffffffffff1667ffffffffffffffff1667ffffffffffffffff1681526020016000820160089054906101000a900467ffffffffffffffff1667ffffffffffffffff1667ffffffffffffffff1681525050905085565b6000805b60048054905081101561098257856004828154811061093357610932611801565b5b9060005260206000200154141561096f576004818154811061095857610957611801565b5b906000526020600020016000905560019150610982565b808061097a9061185f565b915050610911565b505050505050565b610992610efd565b61099c6000610f7b565b565b60008060009054906101000a900473ffffffffffffffffffffffffffffffffffffffff16905090565b600181908060018154018082558091505060019003906000526020600020906007020160009091909190915081816109ff9190612120565b505050565b60038190806001815401808255809150506001900390600052602060002090600702016000909190919091508181610a3c9190612120565b505050565b60048181548110610a5157600080fd5b906000526020600020016000915090505481565b6000805b600580549050811015610ab85760058181548110610a8a57610a89611801565b5b9060005260206000200154831415610aa55760019150610ab8565b8080610ab09061185f565b915050610a69565b5080610af9576040517f08c379a0000000000000000000000000000000000000000000000000000000008152600401610af0906118f4565b60405180910390fd5b600484908060018154018082558091505060019003906000526020600020016000909190919091505550505050565b60018181548110610b3857600080fd5b906000526020600020906007020160009150905080600001604051806040016040529081600082018054610b6b90611752565b80601f0160208091040260200160405190810160405280929190818152602001828054610b9790611752565b8015610be45780601f10610bb957610100808354040283529160200191610be4565b820191906000526020600020905b815481529060010190602001808311610bc757829003601f168201915b505050505081526020016001820154815250509080600201604051806040016040529081600082018054610c1790611752565b80601f0160208091040260200160405190810160405280929190818152602001828054610c4390611752565b8015610c905780601f10610c6557610100808354040283529160200191610c90565b820191906000526020600020905b815481529060010190602001808311610c7357829003601f168201915b50505050508152602001600182015481525050908060040160009054906101000a900467ffffffffffffffff1690806005018054610ccd90611752565b80601f0160208091040260200160405190810160405280929190818152602001828054610cf990611752565b8015610d465780601f10610d1b57610100808354040283529160200191610d46565b820191906000526020600020905b815481529060010190602001808311610d2957829003601f168201915b505050505090806006016040518060400160405290816000820160009054906101000a900467ffffffffffffffff1667ffffffffffffffff1667ffffffffffffffff1681526020016000820160089054906101000a900467ffffffffffffffff1667ffffffffffffffff1667ffffffffffffffff1681525050905085565b610dcc610efd565b600073ffffffffffffffffffffffffffffffffffffffff168173ffffffffffffffffffffffffffffffffffffffff161415610e3c576040517f08c379a0000000000000000000000000000000000000000000000000000000008152600401610e33906121a0565b60405180910390fd5b610e4581610f7b565b50565b60028190806001815401808255809150506001900390600052602060002090600702016000909190919091508181610e809190612120565b505050565b8373ffffffffffffffffffffffffffffffffffffffff1663c3e1155c82858560006040518563ffffffff1660e01b8152600401610ec59493929190612237565b600060405180830381600087803b158015610edf57600080fd5b505af1158015610ef3573d6000803e3d6000fd5b5050505050505050565b610f0561103f565b73ffffffffffffffffffffffffffffffffffffffff16610f2361099e565b73ffffffffffffffffffffffffffffffffffffffff1614610f79576040517f08c379a0000000000000000000000000000000000000000000000000000000008152600401610f70906122c3565b60405180910390fd5b565b60008060009054906101000a900473ffffffffffffffffffffffffffffffffffffffff169050816000806101000a81548173ffffffffffffffffffffffffffffffffffffffff021916908373ffffffffffffffffffffffffffffffffffffffff1602179055508173ffffffffffffffffffffffffffffffffffffffff168173ffffffffffffffffffffffffffffffffffffffff167f8be0079c531659141344cd1fd0a4f28419497f9722a3daafe3b4186f6b6457e060405160405180910390a35050565b600033905090565b600080fd5b600080fd5b6000819050919050565b61106481611051565b811461106f57600080fd5b50565b6000813590506110818161105b565b92915050565b60006020828403121561109d5761109c611047565b5b60006110ab84828501611072565b91505092915050565b600081519050919050565b600082825260208201905092915050565b60005b838110156110ee5780820151818401526020810190506110d3565b838111156110fd576000848401525b50505050565b6000601f19601f8301169050919050565b600061111f826110b4565b61112981856110bf565b93506111398185602086016110d0565b61114281611103565b840191505092915050565b6000819050919050565b6111608161114d565b82525050565b600060408301600083015184820360008601526111838282611114565b91505060208301516111986020860182611157565b508091505092915050565b600067ffffffffffffffff82169050919050565b6111c0816111a3565b82525050565b600081519050919050565b600082825260208201905092915050565b60006111ed826111c6565b6111f781856111d1565b93506112078185602086016110d0565b61121081611103565b840191505092915050565b611224816111a3565b82525050565b604082016000820151611240600085018261121b565b506020820151611253602085018261121b565b50505050565b600060c08201905081810360008301526112738188611166565b905081810360208301526112878187611166565b905061129660408301866111b7565b81810360608301526112a881856111e2565b90506112b7608083018461122a565b9695505050505050565b6112ca8161114d565b81146112d557600080fd5b50565b6000813590506112e7816112c1565b92915050565b600281106112fa57600080fd5b50565b60008135905061130c816112ed565b92915050565b600080fd5b600080fd5b600080fd5b60008083601f84011261133757611336611312565b5b8235905067ffffffffffffffff81111561135457611353611317565b5b6020830191508360208202830111156113705761136f61131c565b5b9250929050565b60008083601f84011261138d5761138c611312565b5b8235905067ffffffffffffffff8111156113aa576113a9611317565b5b6020830191508360018202830111156113c6576113c561131c565b5b9250929050565b60008060008060008060008060c0898b0312156113ed576113ec611047565b5b60006113fb8b828c016112d8565b985050602061140c8b828c016112fd565b975050604089013567ffffffffffffffff81111561142d5761142c61104c565b5b6114398b828c01611321565b9650965050606061144c8b828c016112d8565b945050608089013567ffffffffffffffff81111561146d5761146c61104c565b5b6114798b828c01611377565b935093505060a061148c8b828c016112d8565b9150509295985092959890939650565b6114a58161114d565b82525050565b60006020820190506114c0600083018461149c565b92915050565b600080600080606085870312156114e0576114df611047565b5b60006114ee878288016112d8565b945050602085013567ffffffffffffffff81111561150f5761150e61104c565b5b61151b87828801611377565b9350935050604061152e878288016112d8565b91505092959194509250565b600073ffffffffffffffffffffffffffffffffffffffff82169050919050565b60006115658261153a565b9050919050565b6115758161155a565b82525050565b6000602082019050611590600083018461156c565b92915050565b600080fd5b600060c082840312156115b1576115b0611596565b5b81905092915050565b6000602082840312156115d0576115cf611047565b5b600082013567ffffffffffffffff8111156115ee576115ed61104c565b5b6115fa8482850161159b565b91505092915050565b60008060006060848603121561161c5761161b611047565b5b600061162a868287016112d8565b935050602061163b868287016112d8565b925050604061164c868287016112d8565b9150509250925092565b61165f8161155a565b811461166a57600080fd5b50565b60008135905061167c81611656565b92915050565b60006020828403121561169857611697611047565b5b60006116a68482850161166d565b91505092915050565b600080600080606085870312156116c9576116c8611047565b5b60006116d78782880161166d565b945050602085013567ffffffffffffffff8111156116f8576116f761104c565b5b61170487828801611377565b93509350506040611717878288016112d8565b91505092959194509250565b7f4e487b7100000000000000000000000000000000000000000000000000000000600052602260045260246000fd5b6000600282049050600182168061176a57607f821691505b6020821081141561177e5761177d611723565b5b50919050565b600082825260208201905092915050565b7f496e76616c696420636f756e7465727061727479506f72744964000000000000600082015250565b60006117cb601a83611784565b91506117d682611795565b602082019050919050565b600060208201905081810360008301526117fa816117be565b9050919050565b7f4e487b7100000000000000000000000000000000000000000000000000000000600052603260045260246000fd5b7f4e487b7100000000000000000000000000000000000000000000000000000000600052601160045260246000fd5b600061186a82611051565b91507fffffffffffffffffffffffffffffffffffffffffffffffffffffffffffffffff82141561189d5761189c611830565b5b600182019050919050565b7f556e737570706f727465642076657273696f6e00000000000000000000000000600082015250565b60006118de601383611784565b91506118e9826118a8565b602082019050919050565b6000602082019050818103600083015261190d816118d1565b9050919050565b600080fd5b600080fd5b600080fd5b60008235600160400383360303811261193f5761193e611914565b5b80830191505092915050565b6000808335600160200384360303811261196857611967611914565b5b80840192508235915067ffffffffffffffff82111561198a57611989611919565b5b6020830192506001820236038313156119a6576119a561191e565b5b509250929050565b600082905092915050565b7f4e487b7100000000000000000000000000000000000000000000000000000000600052604160045260246000fd5b60008190508160005260206000209050919050565b60006020601f8301049050919050565b600082821b905092915050565b600060088302611a4a7fffffffffffffffffffffffffffffffffffffffffffffffffffffffffffffffff82611a0d565b611a548683611a0d565b95508019841693508086168417925050509392505050565b6000819050919050565b6000611a91611a8c611a8784611051565b611a6c565b611051565b9050919050565b6000819050919050565b611aab83611a76565b611abf611ab782611a98565b848454611a1a565b825550505050565b600090565b611ad4611ac7565b611adf818484611aa2565b505050565b5b81811015611b0357611af8600082611acc565b600181019050611ae5565b5050565b601f821115611b4857611b19816119e8565b611b22846119fd565b81016020851015611b31578190505b611b45611b3d856119fd565b830182611ae4565b50505b505050565b600082821c905092915050565b6000611b6b60001984600802611b4d565b1980831691505092915050565b6000611b848383611b5a565b9150826002028217905092915050565b611b9e83836119ae565b67ffffffffffffffff811115611bb757611bb66119b9565b5b611bc18254611752565b611bcc828285611b07565b6000601f831160018114611bfb5760008415611be9578287013590505b611bf38582611b78565b865550611c5b565b601f198416611c09866119e8565b60005b82811015611c3157848901358255600182019150602085019450602081019050611c0c565b86831015611c4e5784890135611c4a601f891682611b5a565b8355505b6001600288020188555050505b50505050505050565b611c6f838383611b94565b505050565b60008135611c81816112c1565b80915050919050565b60008160001b9050919050565b60007fffffffffffffffffffffffffffffffffffffffffffffffffffffffffffffffff611cc384611c8a565b9350801983169250808416831791505092915050565b6000611ce48261114d565b9050919050565b60008160001c9050919050565b6000611d0382611ceb565b9050919050565b611d1382611cd9565b611d26611d1f82611cf8565b8354611c97565b8255505050565b6000810160008301611d3f818561194b565b611d4a818386611c64565b50505050600181016020830180611d6081611c74565b9050611d6c8184611d0a565b5050505050565b611d7d8282611d2d565b5050565b611d8a816111a3565b8114611d9557600080fd5b50565b60008135611da581611d81565b80915050919050565b600067ffffffffffffffff611dc284611c8a565b9350801983169250808416831791505092915050565b6000611df3611dee611de9846111a3565b611a6c565b6111a3565b9050919050565b6000819050919050565b611e0d82611dd8565b611e20611e1982611dfa565b8354611dae565b8255505050565b60008083356001602003843603038112611e4457611e43611914565b5b80840192508235915067ffffffffffffffff821115611e6657611e65611919565b5b602083019250600182023603831315611e8257611e8161191e565b5b509250929050565b600082905092915050565b60008190508160005260206000209050919050565b601f821115611eeb57611ebc81611e95565b611ec5846119fd565b81016020851015611ed4578190505b611ee8611ee0856119fd565b830182611ae4565b50505b505050565b611efa8383611e8a565b67ffffffffffffffff811115611f1357611f126119b9565b5b611f1d8254611752565b611f28828285611eaa565b6000601f831160018114611f575760008415611f45578287013590505b611f4f8582611b78565b865550611fb7565b601f198416611f6586611e95565b60005b82811015611f8d57848901358255600182019150602085019450602081019050611f68565b86831015611faa5784890135611fa6601f891682611b5a565b8355505b6001600288020188555050505b50505050505050565b611fcb838383611ef0565b505050565b60008160401b9050919050565b60006fffffffffffffffff0000000000000000611ff984611fd0565b9350801983169250808416831791505092915050565b61201882611dd8565b61202b61202482611dfa565b8354611fdd565b8255505050565b60008101600083018061204481611d98565b90506120508184611e04565b50505060008101602083018061206581611d98565b9050612071818461200f565b5050505050565b6120828282612032565b5050565b60008101600083016120988185611923565b6120a28184611d73565b50505060028101602083016120b78185611923565b6120c18184611d73565b5050506004810160408301806120d681611d98565b90506120e28184611e04565b50505060058101606083016120f78185611e27565b612102818386611fc0565b505050506006810160808301806121198184612078565b5050505050565b61212a8282612086565b5050565b7f4f776e61626c653a206e6577206f776e657220697320746865207a65726f206160008201527f6464726573730000000000000000000000000000000000000000000000000000602082015250565b600061218a602683611784565b91506121958261212e565b604082019050919050565b600060208201905081810360008301526121b98161217d565b9050919050565b82818337600083830152505050565b60006121db83856111d1565b93506121e88385846121c0565b6121f183611103565b840190509392505050565b6000819050919050565b600061222161221c612217846121fc565b611a6c565b6111a3565b9050919050565b61223181612206565b82525050565b600060608201905061224c600083018761149c565b818103602083015261225f8185876121cf565b905061226e6040830184612228565b95945050505050565b7f4f776e61626c653a2063616c6c6572206973206e6f7420746865206f776e6572600082015250565b60006122ad602083611784565b91506122b882612277565b602082019050919050565b600060208201905081810360008301526122dc816122a0565b905091905056fea2646970667358221220a6c0872518e476ff3453376d4fd5025eefcba41fb9c093fea9ebfd218da591fe64736f6c63430008090033",
  "linkReferences": {},
  "deployedLinkReferences": {}
}