{
  "_format": "hh-sol-artifact-1",
  "contractName": "Earth",
  "sourceName": "contracts/Earth.sol",
  "abi": [
    {
      "anonymous": false,
      "inputs": [
        {
          "indexed": true,
          "internalType": "address",
          "name": "previousOwner",
          "type": "address"
        },
        {
          "indexed": true,
          "internalType": "address",
          "name": "newOwner",
          "type": "address"
        }
      ],
      "name": "OwnershipTransferred",
      "type": "event"
    },
    {
      "inputs": [
        {
          "internalType": "uint256",
          "name": "",
          "type": "uint256"
        }
      ],
      "name": "ackPackets",
      "outputs": [
        {
          "components": [
            {
              "internalType": "string",
              "name": "portId",
              "type": "string"
            },
            {
              "internalType": "bytes32",
              "name": "channelId",
              "type": "bytes32"
            }
          ],
          "internalType": "struct IbcEndpoint",
          "name": "src",
          "type": "tuple"
        },
        {
          "components": [
            {
              "internalType": "string",
              "name": "portId",
              "type": "string"
            },
            {
              "internalType": "bytes32",
              "name": "channelId",
              "type": "bytes32"
            }
          ],
          "internalType": "struct IbcEndpoint",
          "name": "dest",
          "type": "tuple"
        },
        {
          "internalType": "uint64",
          "name": "sequence",
          "type": "uint64"
        },
        {
          "internalType": "bytes",
          "name": "data",
          "type": "bytes"
        },
        {
          "components": [
            {
              "internalType": "uint64",
              "name": "block",
              "type": "uint64"
            },
            {
              "internalType": "uint64",
              "name": "timestamp",
              "type": "uint64"
            }
          ],
          "internalType": "struct IbcTimeout",
          "name": "timeout",
          "type": "tuple"
        }
      ],
      "stateMutability": "view",
      "type": "function"
    },
    {
      "inputs": [
        {
          "internalType": "uint256",
          "name": "",
          "type": "uint256"
        }
      ],
      "name": "connectedChannels",
      "outputs": [
        {
          "internalType": "string",
          "name": "",
          "type": "string"
        }
      ],
      "stateMutability": "view",
      "type": "function"
    },
    {
      "inputs": [
        {
          "internalType": "address",
          "name": "dispatcher",
          "type": "address"
        },
        {
          "internalType": "string",
          "name": "message",
          "type": "string"
        },
        {
          "internalType": "bytes32",
          "name": "channelId",
          "type": "bytes32"
        }
      ],
      "name": "greet",
      "outputs": [],
      "stateMutability": "nonpayable",
      "type": "function"
    },
    {
      "inputs": [
        {
          "components": [
            {
              "components": [
                {
                  "internalType": "string",
                  "name": "portId",
                  "type": "string"
                },
                {
                  "internalType": "bytes32",
                  "name": "channelId",
                  "type": "bytes32"
                }
              ],
              "internalType": "struct IbcEndpoint",
              "name": "src",
              "type": "tuple"
            },
            {
              "components": [
                {
                  "internalType": "string",
                  "name": "portId",
                  "type": "string"
                },
                {
                  "internalType": "bytes32",
                  "name": "channelId",
                  "type": "bytes32"
                }
              ],
              "internalType": "struct IbcEndpoint",
              "name": "dest",
              "type": "tuple"
            },
            {
              "internalType": "uint64",
              "name": "sequence",
              "type": "uint64"
            },
            {
              "internalType": "bytes",
              "name": "data",
              "type": "bytes"
            },
            {
              "components": [
                {
                  "internalType": "uint64",
                  "name": "block",
                  "type": "uint64"
                },
                {
                  "internalType": "uint64",
                  "name": "timestamp",
                  "type": "uint64"
                }
              ],
              "internalType": "struct IbcTimeout",
              "name": "timeout",
              "type": "tuple"
            }
          ],
          "internalType": "struct IbcPacket",
          "name": "packet",
          "type": "tuple"
        }
      ],
      "name": "onAcknowledgementPacket",
      "outputs": [],
      "stateMutability": "nonpayable",
      "type": "function"
    },
    {
      "inputs": [
        {
          "internalType": "string",
          "name": "channelId",
          "type": "string"
        },
        {
          "internalType": "string",
          "name": "error",
          "type": "string"
        }
      ],
      "name": "onCloseIbcChannel",
      "outputs": [],
      "stateMutability": "nonpayable",
      "type": "function"
    },
    {
      "inputs": [
        {
          "internalType": "string",
          "name": "channelId",
          "type": "string"
        },
        {
          "internalType": "string",
          "name": "error",
          "type": "string"
        }
      ],
      "name": "onConnectIbcChannel",
      "outputs": [],
      "stateMutability": "nonpayable",
      "type": "function"
    },
    {
      "inputs": [
        {
          "internalType": "string",
          "name": "channelId",
          "type": "string"
        },
        {
          "internalType": "string",
          "name": "version",
          "type": "string"
        },
        {
          "internalType": "string",
          "name": "error",
          "type": "string"
        }
      ],
      "name": "onOpenIbcChannel",
      "outputs": [],
      "stateMutability": "nonpayable",
      "type": "function"
    },
    {
      "inputs": [
        {
          "components": [
            {
              "components": [
                {
                  "internalType": "string",
                  "name": "portId",
                  "type": "string"
                },
                {
                  "internalType": "bytes32",
                  "name": "channelId",
                  "type": "bytes32"
                }
              ],
              "internalType": "struct IbcEndpoint",
              "name": "src",
              "type": "tuple"
            },
            {
              "components": [
                {
                  "internalType": "string",
                  "name": "portId",
                  "type": "string"
                },
                {
                  "internalType": "bytes32",
                  "name": "channelId",
                  "type": "bytes32"
                }
              ],
              "internalType": "struct IbcEndpoint",
              "name": "dest",
              "type": "tuple"
            },
            {
              "internalType": "uint64",
              "name": "sequence",
              "type": "uint64"
            },
            {
              "internalType": "bytes",
              "name": "data",
              "type": "bytes"
            },
            {
              "components": [
                {
                  "internalType": "uint64",
                  "name": "block",
                  "type": "uint64"
                },
                {
                  "internalType": "uint64",
                  "name": "timestamp",
                  "type": "uint64"
                }
              ],
              "internalType": "struct IbcTimeout",
              "name": "timeout",
              "type": "tuple"
            }
          ],
          "internalType": "struct IbcPacket",
          "name": "packet",
          "type": "tuple"
        }
      ],
      "name": "onRecvPacket",
      "outputs": [],
      "stateMutability": "nonpayable",
      "type": "function"
    },
    {
      "inputs": [
        {
          "components": [
            {
              "components": [
                {
                  "internalType": "string",
                  "name": "portId",
                  "type": "string"
                },
                {
                  "internalType": "bytes32",
                  "name": "channelId",
                  "type": "bytes32"
                }
              ],
              "internalType": "struct IbcEndpoint",
              "name": "src",
              "type": "tuple"
            },
            {
              "components": [
                {
                  "internalType": "string",
                  "name": "portId",
                  "type": "string"
                },
                {
                  "internalType": "bytes32",
                  "name": "channelId",
                  "type": "bytes32"
                }
              ],
              "internalType": "struct IbcEndpoint",
              "name": "dest",
              "type": "tuple"
            },
            {
              "internalType": "uint64",
              "name": "sequence",
              "type": "uint64"
            },
            {
              "internalType": "bytes",
              "name": "data",
              "type": "bytes"
            },
            {
              "components": [
                {
                  "internalType": "uint64",
                  "name": "block",
                  "type": "uint64"
                },
                {
                  "internalType": "uint64",
                  "name": "timestamp",
                  "type": "uint64"
                }
              ],
              "internalType": "struct IbcTimeout",
              "name": "timeout",
              "type": "tuple"
            }
          ],
          "internalType": "struct IbcPacket",
          "name": "packet",
          "type": "tuple"
        }
      ],
      "name": "onTimeoutPacket",
      "outputs": [],
      "stateMutability": "nonpayable",
      "type": "function"
    },
    {
      "inputs": [
        {
          "internalType": "uint256",
          "name": "",
          "type": "uint256"
        }
      ],
      "name": "openChannels",
      "outputs": [
        {
          "internalType": "string",
          "name": "",
          "type": "string"
        }
      ],
      "stateMutability": "view",
      "type": "function"
    },
    {
      "inputs": [],
      "name": "owner",
      "outputs": [
        {
          "internalType": "address",
          "name": "",
          "type": "address"
        }
      ],
      "stateMutability": "view",
      "type": "function"
    },
    {
      "inputs": [
        {
          "internalType": "uint256",
          "name": "",
          "type": "uint256"
        }
      ],
      "name": "recvedPackets",
      "outputs": [
        {
          "components": [
            {
              "internalType": "string",
              "name": "portId",
              "type": "string"
            },
            {
              "internalType": "bytes32",
              "name": "channelId",
              "type": "bytes32"
            }
          ],
          "internalType": "struct IbcEndpoint",
          "name": "src",
          "type": "tuple"
        },
        {
          "components": [
            {
              "internalType": "string",
              "name": "portId",
              "type": "string"
            },
            {
              "internalType": "bytes32",
              "name": "channelId",
              "type": "bytes32"
            }
          ],
          "internalType": "struct IbcEndpoint",
          "name": "dest",
          "type": "tuple"
        },
        {
          "internalType": "uint64",
          "name": "sequence",
          "type": "uint64"
        },
        {
          "internalType": "bytes",
          "name": "data",
          "type": "bytes"
        },
        {
          "components": [
            {
              "internalType": "uint64",
              "name": "block",
              "type": "uint64"
            },
            {
              "internalType": "uint64",
              "name": "timestamp",
              "type": "uint64"
            }
          ],
          "internalType": "struct IbcTimeout",
          "name": "timeout",
          "type": "tuple"
        }
      ],
      "stateMutability": "view",
      "type": "function"
    },
    {
      "inputs": [],
      "name": "renounceOwnership",
      "outputs": [],
      "stateMutability": "nonpayable",
      "type": "function"
    },
    {
      "inputs": [
        {
          "internalType": "uint256",
          "name": "",
          "type": "uint256"
        }
      ],
      "name": "timeoutPackets",
      "outputs": [
        {
          "components": [
            {
              "internalType": "string",
              "name": "portId",
              "type": "string"
            },
            {
              "internalType": "bytes32",
              "name": "channelId",
              "type": "bytes32"
            }
          ],
          "internalType": "struct IbcEndpoint",
          "name": "src",
          "type": "tuple"
        },
        {
          "components": [
            {
              "internalType": "string",
              "name": "portId",
              "type": "string"
            },
            {
              "internalType": "bytes32",
              "name": "channelId",
              "type": "bytes32"
            }
          ],
          "internalType": "struct IbcEndpoint",
          "name": "dest",
          "type": "tuple"
        },
        {
          "internalType": "uint64",
          "name": "sequence",
          "type": "uint64"
        },
        {
          "internalType": "bytes",
          "name": "data",
          "type": "bytes"
        },
        {
          "components": [
            {
              "internalType": "uint64",
              "name": "block",
              "type": "uint64"
            },
            {
              "internalType": "uint64",
              "name": "timestamp",
              "type": "uint64"
            }
          ],
          "internalType": "struct IbcTimeout",
          "name": "timeout",
          "type": "tuple"
        }
      ],
      "stateMutability": "view",
      "type": "function"
    },
    {
      "inputs": [
        {
          "internalType": "address",
          "name": "newOwner",
          "type": "address"
        }
      ],
      "name": "transferOwnership",
      "outputs": [],
      "stateMutability": "nonpayable",
      "type": "function"
    }
  ],
  "bytecode": "0x608060405234801561001057600080fd5b5061002d61002261003260201b60201c565b61003a60201b60201c565b6100fe565b600033905090565b60008060009054906101000a900473ffffffffffffffffffffffffffffffffffffffff169050816000806101000a81548173ffffffffffffffffffffffffffffffffffffffff021916908373ffffffffffffffffffffffffffffffffffffffff1602179055508173ffffffffffffffffffffffffffffffffffffffff168173ffffffffffffffffffffffffffffffffffffffff167f8be0079c531659141344cd1fd0a4f28419497f9722a3daafe3b4186f6b6457e060405160405180910390a35050565b612471806200010e6000396000f3fe608060405234801561001057600080fd5b50600436106100f55760003560e01c80639d0c54f411610097578063f12b758a11610066578063f12b758a14610276578063f2fde38b146102aa578063f45cf5e4146102c6578063f6431b50146102e2576100f5565b80639d0c54f4146101de578063b058e81a1461020e578063b33c25771461022a578063bb3f9f8d14610246576100f5565b80634eeb7391116100d35780634eeb7391146101665780636afd61741461019a578063715018a6146101b65780638da5cb5b146101c0576100f5565b80630a845081146100fa5780632719503e146101165780634252ae9b14610132575b600080fd5b610114600480360381019061010f919061128e565b6102fe565b005b610130600480360381019061012b919061130f565b610342565b005b61014c600480360381019061014791906113f9565b610388565b60405161015d9594939291906115cb565b60405180910390f35b610180600480360381019061017b91906113f9565b610624565b6040516101919594939291906115cb565b60405180910390f35b6101b460048036038101906101af919061128e565b6108c0565b005b6101be610a0e565b005b6101c8610a22565b6040516101d59190611674565b60405180910390f35b6101f860048036038101906101f391906113f9565b610a4b565b60405161020591906116d9565b60405180910390f35b6102286004803603810190610223919061171f565b610af7565b005b610244600480360381019061023f919061171f565b610b34565b005b610260600480360381019061025b91906113f9565b610b71565b60405161026d91906116d9565b60405180910390f35b610290600480360381019061028b91906113f9565b610c1d565b6040516102a19594939291906115cb565b60405180910390f35b6102c460048036038101906102bf9190611794565b610eb9565b005b6102e060048036038101906102db919061171f565b610f3d565b005b6102fc60048036038101906102f791906117ed565b610f7a565b005b600584849091806001815401808255809150506001900390600052602060002001600090919290919290919290919250919061033b92919061113c565b5050505050565b600486869091806001815401808255809150506001900390600052602060002001600090919290919290919290919250919061037f92919061113c565b50505050505050565b6002818154811061039857600080fd5b9060005260206000209060070201600091509050806000016040518060400160405290816000820180546103cb90611890565b80601f01602080910402602001604051908101604052809291908181526020018280546103f790611890565b80156104445780601f1061041957610100808354040283529160200191610444565b820191906000526020600020905b81548152906001019060200180831161042757829003601f168201915b50505050508152602001600182015481525050908060020160405180604001604052908160008201805461047790611890565b80601f01602080910402602001604051908101604052809291908181526020018280546104a390611890565b80156104f05780601f106104c5576101008083540402835291602001916104f0565b820191906000526020600020905b8154815290600101906020018083116104d357829003601f168201915b50505050508152602001600182015481525050908060040160009054906101000a900467ffffffffffffffff169080600501805461052d90611890565b80601f016020809104026020016040519081016040528092919081815260200182805461055990611890565b80156105a65780601f1061057b576101008083540402835291602001916105a6565b820191906000526020600020905b81548152906001019060200180831161058957829003601f168201915b505050505090806006016040518060400160405290816000820160009054906101000a900467ffffffffffffffff1667ffffffffffffffff1667ffffffffffffffff1681526020016000820160089054906101000a900467ffffffffffffffff1667ffffffffffffffff1667ffffffffffffffff1681525050905085565b6003818154811061063457600080fd5b90600052602060002090600702016000915090508060000160405180604001604052908160008201805461066790611890565b80601f016020809104026020016040519081016040528092919081815260200182805461069390611890565b80156106e05780601f106106b5576101008083540402835291602001916106e0565b820191906000526020600020905b8154815290600101906020018083116106c357829003601f168201915b50505050508152602001600182015481525050908060020160405180604001604052908160008201805461071390611890565b80601f016020809104026020016040519081016040528092919081815260200182805461073f90611890565b801561078c5780601f106107615761010080835404028352916020019161078c565b820191906000526020600020905b81548152906001019060200180831161076f57829003601f168201915b50505050508152602001600182015481525050908060040160009054906101000a900467ffffffffffffffff16908060050180546107c990611890565b80601f01602080910402602001604051908101604052809291908181526020018280546107f590611890565b80156108425780601f1061081757610100808354040283529160200191610842565b820191906000526020600020905b81548152906001019060200180831161082557829003601f168201915b505050505090806006016040518060400160405290816000820160009054906101000a900467ffffffffffffffff1667ffffffffffffffff1667ffffffffffffffff1681526020016000820160089054906101000a900467ffffffffffffffff1667ffffffffffffffff1667ffffffffffffffff1681525050905085565b60005b6004805490508110156109635784846040516108e0929190611901565b6040518091039020600482815481106108fc576108fb61191a565b5b9060005260206000200160405161091391906119dd565b6040518091039020141561095057600481815481106109355761093461191a565b5b90600052602060002001600061094b91906111c2565b610963565b808061095b90611a23565b9150506108c3565b5060005b600580549050811015610a07578484604051610984929190611901565b6040518091039020600582815481106109a05761099f61191a565b5b906000526020600020016040516109b791906119dd565b604051809103902014156109f457600581815481106109d9576109d861191a565b5b9060005260206000200160006109ef91906111c2565b610a07565b80806109ff90611a23565b915050610967565b5050505050565b610a16610ff2565b610a206000611070565b565b60008060009054906101000a900473ffffffffffffffffffffffffffffffffffffffff16905090565b60048181548110610a5b57600080fd5b906000526020600020016000915090508054610a7690611890565b80601f0160208091040260200160405190810160405280929190818152602001828054610aa290611890565b8015610aef5780601f10610ac457610100808354040283529160200191610aef565b820191906000526020600020905b815481529060010190602001808311610ad257829003601f168201915b505050505081565b60018190806001815401808255809150506001900390600052602060002090600702016000909190919091508181610b2f9190612278565b505050565b60038190806001815401808255809150506001900390600052602060002090600702016000909190919091508181610b6c9190612278565b505050565b60058181548110610b8157600080fd5b906000526020600020016000915090508054610b9c90611890565b80601f0160208091040260200160405190810160405280929190818152602001828054610bc890611890565b8015610c155780601f10610bea57610100808354040283529160200191610c15565b820191906000526020600020905b815481529060010190602001808311610bf857829003601f168201915b505050505081565b60018181548110610c2d57600080fd5b906000526020600020906007020160009150905080600001604051806040016040529081600082018054610c6090611890565b80601f0160208091040260200160405190810160405280929190818152602001828054610c8c90611890565b8015610cd95780601f10610cae57610100808354040283529160200191610cd9565b820191906000526020600020905b815481529060010190602001808311610cbc57829003601f168201915b505050505081526020016001820154815250509080600201604051806040016040529081600082018054610d0c90611890565b80601f0160208091040260200160405190810160405280929190818152602001828054610d3890611890565b8015610d855780601f10610d5a57610100808354040283529160200191610d85565b820191906000526020600020905b815481529060010190602001808311610d6857829003601f168201915b50505050508152602001600182015481525050908060040160009054906101000a900467ffffffffffffffff1690806005018054610dc290611890565b80601f0160208091040260200160405190810160405280929190818152602001828054610dee90611890565b8015610e3b5780601f10610e1057610100808354040283529160200191610e3b565b820191906000526020600020905b815481529060010190602001808311610e1e57829003601f168201915b505050505090806006016040518060400160405290816000820160009054906101000a900467ffffffffffffffff1667ffffffffffffffff1667ffffffffffffffff1681526020016000820160089054906101000a900467ffffffffffffffff1667ffffffffffffffff1667ffffffffffffffff1681525050905085565b610ec1610ff2565b600073ffffffffffffffffffffffffffffffffffffffff168173ffffffffffffffffffffffffffffffffffffffff161415610f31576040517f08c379a0000000000000000000000000000000000000000000000000000000008152600401610f28906122f8565b60405180910390fd5b610f3a81611070565b50565b60028190806001815401808255809150506001900390600052602060002090600702016000909190919091508181610f759190612278565b505050565b8373ffffffffffffffffffffffffffffffffffffffff1663c51289b582858560006040518563ffffffff1660e01b8152600401610fba949392919061238f565b600060405180830381600087803b158015610fd457600080fd5b505af1158015610fe8573d6000803e3d6000fd5b5050505050505050565b610ffa611134565b73ffffffffffffffffffffffffffffffffffffffff16611018610a22565b73ffffffffffffffffffffffffffffffffffffffff161461106e576040517f08c379a00000000000000000000000000000000000000000000000000000000081526004016110659061241b565b60405180910390fd5b565b60008060009054906101000a900473ffffffffffffffffffffffffffffffffffffffff169050816000806101000a81548173ffffffffffffffffffffffffffffffffffffffff021916908373ffffffffffffffffffffffffffffffffffffffff1602179055508173ffffffffffffffffffffffffffffffffffffffff168173ffffffffffffffffffffffffffffffffffffffff167f8be0079c531659141344cd1fd0a4f28419497f9722a3daafe3b4186f6b6457e060405160405180910390a35050565b600033905090565b82805461114890611890565b90600052602060002090601f01602090048101928261116a57600085556111b1565b82601f1061118357803560ff19168380011785556111b1565b828001600101855582156111b1579182015b828111156111b0578235825591602001919060010190611195565b5b5090506111be9190611202565b5090565b5080546111ce90611890565b6000825580601f106111e057506111ff565b601f0160209004906000526020600020908101906111fe9190611202565b5b50565b5b8082111561121b576000816000905550600101611203565b5090565b600080fd5b600080fd5b600080fd5b600080fd5b600080fd5b60008083601f84011261124e5761124d611229565b5b8235905067ffffffffffffffff81111561126b5761126a61122e565b5b60208301915083600182028301111561128757611286611233565b5b9250929050565b600080600080604085870312156112a8576112a761121f565b5b600085013567ffffffffffffffff8111156112c6576112c5611224565b5b6112d287828801611238565b9450945050602085013567ffffffffffffffff8111156112f5576112f4611224565b5b61130187828801611238565b925092505092959194509250565b6000806000806000806060878903121561132c5761132b61121f565b5b600087013567ffffffffffffffff81111561134a57611349611224565b5b61135689828a01611238565b9650965050602087013567ffffffffffffffff81111561137957611378611224565b5b61138589828a01611238565b9450945050604087013567ffffffffffffffff8111156113a8576113a7611224565b5b6113b489828a01611238565b92509250509295509295509295565b6000819050919050565b6113d6816113c3565b81146113e157600080fd5b50565b6000813590506113f3816113cd565b92915050565b60006020828403121561140f5761140e61121f565b5b600061141d848285016113e4565b91505092915050565b600081519050919050565b600082825260208201905092915050565b60005b83811015611460578082015181840152602081019050611445565b8381111561146f576000848401525b50505050565b6000601f19601f8301169050919050565b600061149182611426565b61149b8185611431565b93506114ab818560208601611442565b6114b481611475565b840191505092915050565b6000819050919050565b6114d2816114bf565b82525050565b600060408301600083015184820360008601526114f58282611486565b915050602083015161150a60208601826114c9565b508091505092915050565b600067ffffffffffffffff82169050919050565b61153281611515565b82525050565b600081519050919050565b600082825260208201905092915050565b600061155f82611538565b6115698185611543565b9350611579818560208601611442565b61158281611475565b840191505092915050565b61159681611515565b82525050565b6040820160008201516115b2600085018261158d565b5060208201516115c5602085018261158d565b50505050565b600060c08201905081810360008301526115e581886114d8565b905081810360208301526115f981876114d8565b90506116086040830186611529565b818103606083015261161a8185611554565b9050611629608083018461159c565b9695505050505050565b600073ffffffffffffffffffffffffffffffffffffffff82169050919050565b600061165e82611633565b9050919050565b61166e81611653565b82525050565b60006020820190506116896000830184611665565b92915050565b600082825260208201905092915050565b60006116ab82611426565b6116b5818561168f565b93506116c5818560208601611442565b6116ce81611475565b840191505092915050565b600060208201905081810360008301526116f381846116a0565b905092915050565b600080fd5b600060c08284031215611716576117156116fb565b5b81905092915050565b6000602082840312156117355761173461121f565b5b600082013567ffffffffffffffff81111561175357611752611224565b5b61175f84828501611700565b91505092915050565b61177181611653565b811461177c57600080fd5b50565b60008135905061178e81611768565b92915050565b6000602082840312156117aa576117a961121f565b5b60006117b88482850161177f565b91505092915050565b6117ca816114bf565b81146117d557600080fd5b50565b6000813590506117e7816117c1565b92915050565b600080600080606085870312156118075761180661121f565b5b60006118158782880161177f565b945050602085013567ffffffffffffffff81111561183657611835611224565b5b61184287828801611238565b93509350506040611855878288016117d8565b91505092959194509250565b7f4e487b7100000000000000000000000000000000000000000000000000000000600052602260045260246000fd5b600060028204905060018216806118a857607f821691505b602082108114156118bc576118bb611861565b5b50919050565b600081905092915050565b82818337600083830152505050565b60006118e883856118c2565b93506118f58385846118cd565b82840190509392505050565b600061190e8284866118dc565b91508190509392505050565b7f4e487b7100000000000000000000000000000000000000000000000000000000600052603260045260246000fd5b60008190508160005260206000209050919050565b6000815461196b81611890565b61197581866118c2565b9450600182166000811461199057600181146119a1576119d4565b60ff198316865281860193506119d4565b6119aa85611949565b60005b838110156119cc578154818901526001820191506020810190506119ad565b838801955050505b50505092915050565b60006119e9828461195e565b915081905092915050565b7f4e487b7100000000000000000000000000000000000000000000000000000000600052601160045260246000fd5b6000611a2e826113c3565b91507fffffffffffffffffffffffffffffffffffffffffffffffffffffffffffffffff821415611a6157611a606119f4565b5b600182019050919050565b600080fd5b600080fd5b600080fd5b600082356001604003833603038112611a9757611a96611a6c565b5b80830191505092915050565b60008083356001602003843603038112611ac057611abf611a6c565b5b80840192508235915067ffffffffffffffff821115611ae257611ae1611a71565b5b602083019250600182023603831315611afe57611afd611a76565b5b509250929050565b600082905092915050565b7f4e487b7100000000000000000000000000000000000000000000000000000000600052604160045260246000fd5b60008190508160005260206000209050919050565b60006020601f8301049050919050565b600082821b905092915050565b600060088302611ba27fffffffffffffffffffffffffffffffffffffffffffffffffffffffffffffffff82611b65565b611bac8683611b65565b95508019841693508086168417925050509392505050565b6000819050919050565b6000611be9611be4611bdf846113c3565b611bc4565b6113c3565b9050919050565b6000819050919050565b611c0383611bce565b611c17611c0f82611bf0565b848454611b72565b825550505050565b600090565b611c2c611c1f565b611c37818484611bfa565b505050565b5b81811015611c5b57611c50600082611c24565b600181019050611c3d565b5050565b601f821115611ca057611c7181611b40565b611c7a84611b55565b81016020851015611c89578190505b611c9d611c9585611b55565b830182611c3c565b50505b505050565b600082821c905092915050565b6000611cc360001984600802611ca5565b1980831691505092915050565b6000611cdc8383611cb2565b9150826002028217905092915050565b611cf68383611b06565b67ffffffffffffffff811115611d0f57611d0e611b11565b5b611d198254611890565b611d24828285611c5f565b6000601f831160018114611d535760008415611d41578287013590505b611d4b8582611cd0565b865550611db3565b601f198416611d6186611b40565b60005b82811015611d8957848901358255600182019150602085019450602081019050611d64565b86831015611da65784890135611da2601f891682611cb2565b8355505b6001600288020188555050505b50505050505050565b611dc7838383611cec565b505050565b60008135611dd9816117c1565b80915050919050565b60008160001b9050919050565b60007fffffffffffffffffffffffffffffffffffffffffffffffffffffffffffffffff611e1b84611de2565b9350801983169250808416831791505092915050565b6000611e3c826114bf565b9050919050565b60008160001c9050919050565b6000611e5b82611e43565b9050919050565b611e6b82611e31565b611e7e611e7782611e50565b8354611def565b8255505050565b6000810160008301611e978185611aa3565b611ea2818386611dbc565b50505050600181016020830180611eb881611dcc565b9050611ec48184611e62565b5050505050565b611ed58282611e85565b5050565b611ee281611515565b8114611eed57600080fd5b50565b60008135611efd81611ed9565b80915050919050565b600067ffffffffffffffff611f1a84611de2565b9350801983169250808416831791505092915050565b6000611f4b611f46611f4184611515565b611bc4565b611515565b9050919050565b6000819050919050565b611f6582611f30565b611f78611f7182611f52565b8354611f06565b8255505050565b60008083356001602003843603038112611f9c57611f9b611a6c565b5b80840192508235915067ffffffffffffffff821115611fbe57611fbd611a71565b5b602083019250600182023603831315611fda57611fd9611a76565b5b509250929050565b600082905092915050565b60008190508160005260206000209050919050565b601f8211156120435761201481611fed565b61201d84611b55565b8101602085101561202c578190505b61204061203885611b55565b830182611c3c565b50505b505050565b6120528383611fe2565b67ffffffffffffffff81111561206b5761206a611b11565b5b6120758254611890565b612080828285612002565b6000601f8311600181146120af576000841561209d578287013590505b6120a78582611cd0565b86555061210f565b601f1984166120bd86611fed565b60005b828110156120e5578489013582556001820191506020850194506020810190506120c0565b8683101561210257848901356120fe601f891682611cb2565b8355505b6001600288020188555050505b50505050505050565b612123838383612048565b505050565b60008160401b9050919050565b60006fffffffffffffffff000000000000000061215184612128565b9350801983169250808416831791505092915050565b61217082611f30565b61218361217c82611f52565b8354612135565b8255505050565b60008101600083018061219c81611ef0565b90506121a88184611f5c565b5050506000810160208301806121bd81611ef0565b90506121c98184612167565b5050505050565b6121da828261218a565b5050565b60008101600083016121f08185611a7b565b6121fa8184611ecb565b505050600281016020830161220f8185611a7b565b6122198184611ecb565b50505060048101604083018061222e81611ef0565b905061223a8184611f5c565b505050600581016060830161224f8185611f7f565b61225a818386612118565b5050505060068101608083018061227181846121d0565b5050505050565b61228282826121de565b5050565b7f4f776e61626c653a206e6577206f776e657220697320746865207a65726f206160008201527f6464726573730000000000000000000000000000000000000000000000000000602082015250565b60006122e260268361168f565b91506122ed82612286565b604082019050919050565b60006020820190508181036000830152612311816122d5565b9050919050565b612321816114bf565b82525050565b60006123338385611543565b93506123408385846118cd565b61234983611475565b840190509392505050565b6000819050919050565b600061237961237461236f84612354565b611bc4565b611515565b9050919050565b6123898161235e565b82525050565b60006060820190506123a46000830187612318565b81810360208301526123b7818587612327565b90506123c66040830184612380565b95945050505050565b7f4f776e61626c653a2063616c6c6572206973206e6f7420746865206f776e6572600082015250565b600061240560208361168f565b9150612410826123cf565b602082019050919050565b60006020820190508181036000830152612434816123f8565b905091905056fea2646970667358221220f566699cc47553a207790716c9e346ece210d741d1d3704426dea54b33bfaba064736f6c63430008090033",
  "linkReferences": {},
  "deployedLinkReferences": {}
}