{
  "_format": "hh-sol-artifact-1",
  "contractName": "Verifier",
  "sourceName": "contracts/Verifier.sol",
  "abi": [
    {
      "inputs": [
        {
          "internalType": "bytes",
          "name": "proof",
          "type": "bytes"
        }
      ],
      "name": "verify",
      "outputs": [
        {
          "internalType": "bool",
          "name": "",
          "type": "bool"
        }
      ],
      "stateMutability": "nonpayable",
      "type": "function"
    }
  ],
  "bytecode": "0x608060405234801561001057600080fd5b506101a9806100206000396000f3fe608060405234801561001057600080fd5b506004361061002b5760003560e01c80638e760afe14610030575b600080fd5b61004a600480360381019061004591906100f0565b610060565b6040516100579190610158565b60405180910390f35b600080838390501415610076576000905061007b565b600190505b92915050565b600080fd5b600080fd5b600080fd5b600080fd5b600080fd5b60008083601f8401126100b0576100af61008b565b5b8235905067ffffffffffffffff8111156100cd576100cc610090565b5b6020830191508360018202830111156100e9576100e8610095565b5b9250929050565b6000806020838503121561010757610106610081565b5b600083013567ffffffffffffffff81111561012557610124610086565b5b6101318582860161009a565b92509250509250929050565b60008115159050919050565b6101528161013d565b82525050565b600060208201905061016d6000830184610149565b9291505056fea2646970667358221220713c7ec3708d420fc793575f2951a6fdee755214bce2c4d5f0399b4f90a74fb764736f6c63430008090033",
  "linkReferences": {},
  "deployedLinkReferences": {}
}