{
  "_format": "hh-sol-artifact-1",
  "contractName": "Verifier",
  "sourceName": "contracts/Verifier.sol",
  "abi": [
    {
      "inputs": [
        {
          "internalType": "bytes",
          "name": "consensusState",
          "type": "bytes"
        },
        {
          "components": [
            {
              "internalType": "uint64",
              "name": "proofHeight",
              "type": "uint64"
            },
            {
              "internalType": "bytes",
              "name": "proof",
              "type": "bytes"
            }
          ],
          "internalType": "struct Proof",
          "name": "proof",
          "type": "tuple"
        },
        {
          "internalType": "bytes",
          "name": "key",
          "type": "bytes"
        },
        {
          "internalType": "bytes",
          "name": "expectedValue",
          "type": "bytes"
        }
      ],
      "name": "verifyMembership",
      "outputs": [
        {
          "internalType": "bool",
          "name": "",
          "type": "bool"
        }
      ],
      "stateMutability": "pure",
      "type": "function"
    },
    {
      "inputs": [
        {
          "internalType": "bytes",
          "name": "consensusState",
          "type": "bytes"
        },
        {
          "components": [
            {
              "internalType": "uint64",
              "name": "proofHeight",
              "type": "uint64"
            },
            {
              "internalType": "bytes",
              "name": "proof",
              "type": "bytes"
            }
          ],
          "internalType": "struct Proof",
          "name": "proof",
          "type": "tuple"
        },
        {
          "internalType": "bytes",
          "name": "key",
          "type": "bytes"
        }
      ],
      "name": "verifyNonMembership",
      "outputs": [
        {
          "internalType": "bool",
          "name": "",
          "type": "bool"
        }
      ],
      "stateMutability": "pure",
      "type": "function"
    },
    {
      "inputs": [
        {
          "internalType": "bytes",
          "name": "lastConsensusState",
          "type": "bytes"
        },
        {
          "components": [
            {
              "internalType": "bytes",
              "name": "consensusState",
              "type": "bytes"
            },
            {
              "internalType": "uint64",
              "name": "height",
              "type": "uint64"
            },
            {
              "internalType": "bytes",
              "name": "zkProof",
              "type": "bytes"
            }
          ],
          "internalType": "struct UpdateClientMsg",
          "name": "updateClientMsg",
          "type": "tuple"
        }
      ],
      "name": "verifyUpdateClientMsg",
      "outputs": [
        {
          "internalType": "bool",
          "name": "",
          "type": "bool"
        }
      ],
      "stateMutability": "pure",
      "type": "function"
    }
  ],
  "bytecode": "0x608060405234801561001057600080fd5b50610506806100206000396000f3fe608060405234801561001057600080fd5b50600436106100415760003560e01c806301630871146100465780639511059d1461006d578063ab5eba2614610080575b600080fd5b61005961005436600461028e565b610093565b604051901515815260200160405180910390f35b61005961007b366004610323565b61011b565b61005961008e3660046103e2565b6101e9565b6000846100bb5760405162461bcd60e51b81526004016100b290610452565b60405180910390fd5b816100fe5760405162461bcd60e51b81526020600482015260136024820152724b65792063616e6e6f7420626520656d70747960681b60448201526064016100b2565b600061010d6020860186610489565b905011905095945050505050565b60008661013a5760405162461bcd60e51b81526004016100b290610452565b8361017d5760405162461bcd60e51b81526020600482015260136024820152724b65792063616e6e6f7420626520656d70747960681b60448201526064016100b2565b816101ca5760405162461bcd60e51b815260206004820152601e60248201527f45787065637465642076616c75652063616e6e6f7420626520656d707479000060448201526064016100b2565b60006101d96020880188610489565b9050119050979650505050505050565b6000806101f68380610489565b9050116102155760405162461bcd60e51b81526004016100b290610452565b826102208380610489565b9050101590509392505050565b60008083601f84011261023f57600080fd5b50813567ffffffffffffffff81111561025757600080fd5b60208301915083602082850101111561026f57600080fd5b9250929050565b60006040828403121561028857600080fd5b50919050565b6000806000806000606086880312156102a657600080fd5b853567ffffffffffffffff808211156102be57600080fd5b6102ca89838a0161022d565b909750955060208801359150808211156102e357600080fd5b6102ef89838a01610276565b9450604088013591508082111561030557600080fd5b506103128882890161022d565b969995985093965092949392505050565b60008060008060008060006080888a03121561033e57600080fd5b873567ffffffffffffffff8082111561035657600080fd5b6103628b838c0161022d565b909950975060208a013591508082111561037b57600080fd5b6103878b838c01610276565b965060408a013591508082111561039d57600080fd5b6103a98b838c0161022d565b909650945060608a01359150808211156103c257600080fd5b506103cf8a828b0161022d565b989b979a50959850939692959293505050565b6000806000604084860312156103f757600080fd5b833567ffffffffffffffff8082111561040f57600080fd5b61041b8783880161022d565b9095509350602086013591508082111561043457600080fd5b5084016060818703121561044757600080fd5b809150509250925092565b6020808252601f908201527f496e76616c696420506f6c796d657220636f6e73656e73757320737461746500604082015260600190565b6000808335601e198436030181126104a057600080fd5b83018035915067ffffffffffffffff8211156104bb57600080fd5b60200191503681900382131561026f57600080fdfea2646970667358221220fa3baa13c2f139e6cb4ca7e672d0aa65cb1cd59abeb43095193dcae3dc53c0e664736f6c63430008090033",
  "linkReferences": {},
  "deployedLinkReferences": {}
}