{
  "_format": "hh-sol-artifact-1",
  "contractName": "Verifier",
  "sourceName": "contracts/Verifier.sol",
  "abi": [
    {
      "inputs": [
        {
          "internalType": "bytes",
          "name": "consensusState",
          "type": "bytes"
        },
        {
          "components": [
            {
              "internalType": "uint64",
              "name": "proofHeight",
              "type": "uint64"
            },
            {
              "internalType": "bytes",
              "name": "proof",
              "type": "bytes"
            }
          ],
          "internalType": "struct Proof",
          "name": "proof",
          "type": "tuple"
        },
        {
          "internalType": "bytes",
          "name": "key",
          "type": "bytes"
        },
        {
          "internalType": "bytes",
          "name": "expectedValue",
          "type": "bytes"
        }
      ],
      "name": "verifyMembership",
      "outputs": [
        {
          "internalType": "bool",
          "name": "",
          "type": "bool"
        }
      ],
      "stateMutability": "pure",
      "type": "function"
    },
    {
      "inputs": [
        {
          "internalType": "bytes",
          "name": "consensusState",
          "type": "bytes"
        },
        {
          "components": [
            {
              "internalType": "uint64",
              "name": "proofHeight",
              "type": "uint64"
            },
            {
              "internalType": "bytes",
              "name": "proof",
              "type": "bytes"
            }
          ],
          "internalType": "struct Proof",
          "name": "proof",
          "type": "tuple"
        },
        {
          "internalType": "bytes",
          "name": "key",
          "type": "bytes"
        }
      ],
      "name": "verifyNonMembership",
      "outputs": [
        {
          "internalType": "bool",
          "name": "",
          "type": "bool"
        }
      ],
      "stateMutability": "pure",
      "type": "function"
    },
    {
      "inputs": [
        {
          "internalType": "bytes",
          "name": "lastConsensusState",
          "type": "bytes"
        },
        {
          "components": [
            {
              "internalType": "bytes",
              "name": "consensusState",
              "type": "bytes"
            },
            {
              "internalType": "uint64",
              "name": "height",
              "type": "uint64"
            },
            {
              "internalType": "bytes",
              "name": "zkProof",
              "type": "bytes"
            }
          ],
          "internalType": "struct UpdateClientMsg",
          "name": "updateClientMsg",
          "type": "tuple"
        }
      ],
      "name": "verifyUpdateClientMsg",
      "outputs": [
        {
          "internalType": "bool",
          "name": "",
          "type": "bool"
        }
      ],
      "stateMutability": "pure",
      "type": "function"
    }
  ],
  "bytecode": "0x608060405234801561001057600080fd5b506107e5806100206000396000f3fe608060405234801561001057600080fd5b50600436106100415760003560e01c806301630871146100465780639511059d14610076578063ab5eba26146100a6575b600080fd5b610060600480360381019061005b9190610381565b6100d6565b60405161006d919061044d565b60405180910390f35b610090600480360381019061008b9190610468565b610183565b60405161009d919061044d565b60405180910390f35b6100c060048036038101906100bb919061056c565b610278565b6040516100cd919061044d565b60405180910390f35b600080868690501161011d576040517f08c379a000000000000000000000000000000000000000000000000000000000815260040161011490610645565b60405180910390fd5b60008383905011610163576040517f08c379a000000000000000000000000000000000000000000000000000000000815260040161015a906106b1565b60405180910390fd5b600084806020019061017591906106e0565b905011905095945050505050565b60008088889050116101ca576040517f08c379a00000000000000000000000000000000000000000000000000000000081526004016101c190610645565b60405180910390fd5b60008585905011610210576040517f08c379a0000000000000000000000000000000000000000000000000000000008152600401610207906106b1565b60405180910390fd5b60008383905011610256576040517f08c379a000000000000000000000000000000000000000000000000000000000815260040161024d9061078f565b60405180910390fd5b600086806020019061026891906106e0565b9050119050979650505050505050565b60008082806000019061028b91906106e0565b9050116102cd576040517f08c379a00000000000000000000000000000000000000000000000000000000081526004016102c490610645565b60405180910390fd5b838390508280600001906102e191906106e0565b9050101590509392505050565b600080fd5b600080fd5b600080fd5b600080fd5b600080fd5b60008083601f84011261031d5761031c6102f8565b5b8235905067ffffffffffffffff81111561033a576103396102fd565b5b60208301915083600182028301111561035657610355610302565b5b9250929050565b600080fd5b6000604082840312156103785761037761035d565b5b81905092915050565b60008060008060006060868803121561039d5761039c6102ee565b5b600086013567ffffffffffffffff8111156103bb576103ba6102f3565b5b6103c788828901610307565b9550955050602086013567ffffffffffffffff8111156103ea576103e96102f3565b5b6103f688828901610362565b935050604086013567ffffffffffffffff811115610417576104166102f3565b5b61042388828901610307565b92509250509295509295909350565b60008115159050919050565b61044781610432565b82525050565b6000602082019050610462600083018461043e565b92915050565b60008060008060008060006080888a031215610487576104866102ee565b5b600088013567ffffffffffffffff8111156104a5576104a46102f3565b5b6104b18a828b01610307565b9750975050602088013567ffffffffffffffff8111156104d4576104d36102f3565b5b6104e08a828b01610362565b955050604088013567ffffffffffffffff811115610501576105006102f3565b5b61050d8a828b01610307565b9450945050606088013567ffffffffffffffff8111156105305761052f6102f3565b5b61053c8a828b01610307565b925092505092959891949750929550565b6000606082840312156105635761056261035d565b5b81905092915050565b600080600060408486031215610585576105846102ee565b5b600084013567ffffffffffffffff8111156105a3576105a26102f3565b5b6105af86828701610307565b9350935050602084013567ffffffffffffffff8111156105d2576105d16102f3565b5b6105de8682870161054d565b9150509250925092565b600082825260208201905092915050565b7f496e76616c696420506f6c796d657220636f6e73656e73757320737461746500600082015250565b600061062f601f836105e8565b915061063a826105f9565b602082019050919050565b6000602082019050818103600083015261065e81610622565b9050919050565b7f4b65792063616e6e6f7420626520656d70747900000000000000000000000000600082015250565b600061069b6013836105e8565b91506106a682610665565b602082019050919050565b600060208201905081810360008301526106ca8161068e565b9050919050565b600080fd5b600080fd5b600080fd5b600080833560016020038436030381126106fd576106fc6106d1565b5b80840192508235915067ffffffffffffffff82111561071f5761071e6106d6565b5b60208301925060018202360383131561073b5761073a6106db565b5b509250929050565b7f45787065637465642076616c75652063616e6e6f7420626520656d7074790000600082015250565b6000610779601e836105e8565b915061078482610743565b602082019050919050565b600060208201905081810360008301526107a88161076c565b905091905056fea2646970667358221220bcd40a709d28b9018106a83f8e56f781a01753784154b36b7959c94121b8d83a64736f6c63430008090033",
  "linkReferences": {},
  "deployedLinkReferences": {}
}