{
  "_format": "hh-sol-artifact-1",
  "contractName": "Verifier",
  "sourceName": "contracts/Verifier.sol",
  "abi": [
    {
      "inputs": [
        {
          "internalType": "bytes",
          "name": "lastConsensusState",
          "type": "bytes"
        },
        {
          "internalType": "bytes",
          "name": "newConsensusState",
          "type": "bytes"
        }
      ],
      "name": "verifyConsensusState",
      "outputs": [
        {
          "internalType": "bool",
          "name": "",
          "type": "bool"
        }
      ],
      "stateMutability": "pure",
      "type": "function"
    },
    {
      "inputs": [
        {
          "internalType": "bytes",
          "name": "consensusState",
          "type": "bytes"
        },
        {
          "components": [
            {
              "internalType": "uint64",
              "name": "proofHeight",
              "type": "uint64"
            },
            {
              "internalType": "bytes",
              "name": "proof",
              "type": "bytes"
            }
          ],
          "internalType": "struct Proof",
          "name": "proof",
          "type": "tuple"
        },
        {
          "internalType": "bytes",
          "name": "key",
          "type": "bytes"
        },
        {
          "internalType": "bytes",
          "name": "expectedValue",
          "type": "bytes"
        }
      ],
      "name": "verifyMembership",
      "outputs": [
        {
          "internalType": "bool",
          "name": "",
          "type": "bool"
        }
      ],
      "stateMutability": "pure",
      "type": "function"
    },
    {
      "inputs": [
        {
          "internalType": "bytes",
          "name": "consensusState",
          "type": "bytes"
        },
        {
          "components": [
            {
              "internalType": "uint64",
              "name": "proofHeight",
              "type": "uint64"
            },
            {
              "internalType": "bytes",
              "name": "proof",
              "type": "bytes"
            }
          ],
          "internalType": "struct Proof",
          "name": "proof",
          "type": "tuple"
        },
        {
          "internalType": "bytes",
          "name": "key",
          "type": "bytes"
        }
      ],
      "name": "verifyNonMembership",
      "outputs": [
        {
          "internalType": "bool",
          "name": "",
          "type": "bool"
        }
      ],
      "stateMutability": "pure",
      "type": "function"
    }
  ],
  "bytecode": "0x608060405234801561001057600080fd5b506107b0806100206000396000f3fe608060405234801561001057600080fd5b50600436106100415760003560e01c806301630871146100465780639511059d14610076578063e1ec100c146100a6575b600080fd5b610060600480360381019061005b9190610366565b6100d6565b60405161006d9190610432565b60405180910390f35b610090600480360381019061008b919061044d565b610183565b60405161009d9190610432565b60405180910390f35b6100c060048036038101906100bb9190610532565b610278565b6040516100cd9190610432565b60405180910390f35b600080868690501161011d576040517f08c379a000000000000000000000000000000000000000000000000000000000815260040161011490610610565b60405180910390fd5b60008383905011610163576040517f08c379a000000000000000000000000000000000000000000000000000000000815260040161015a9061067c565b60405180910390fd5b600084806020019061017591906106ab565b905011905095945050505050565b60008088889050116101ca576040517f08c379a00000000000000000000000000000000000000000000000000000000081526004016101c190610610565b60405180910390fd5b60008585905011610210576040517f08c379a00000000000000000000000000000000000000000000000000000000081526004016102079061067c565b60405180910390fd5b60008383905011610256576040517f08c379a000000000000000000000000000000000000000000000000000000000815260040161024d9061075a565b60405180910390fd5b600086806020019061026891906106ab565b9050119050979650505050505050565b60008083839050116102bf576040517f08c379a00000000000000000000000000000000000000000000000000000000081526004016102b690610610565b60405180910390fd5b848490508383905010159050949350505050565b600080fd5b600080fd5b600080fd5b600080fd5b600080fd5b60008083601f840112610302576103016102dd565b5b8235905067ffffffffffffffff81111561031f5761031e6102e2565b5b60208301915083600182028301111561033b5761033a6102e7565b5b9250929050565b600080fd5b60006040828403121561035d5761035c610342565b5b81905092915050565b600080600080600060608688031215610382576103816102d3565b5b600086013567ffffffffffffffff8111156103a05761039f6102d8565b5b6103ac888289016102ec565b9550955050602086013567ffffffffffffffff8111156103cf576103ce6102d8565b5b6103db88828901610347565b935050604086013567ffffffffffffffff8111156103fc576103fb6102d8565b5b610408888289016102ec565b92509250509295509295909350565b60008115159050919050565b61042c81610417565b82525050565b60006020820190506104476000830184610423565b92915050565b60008060008060008060006080888a03121561046c5761046b6102d3565b5b600088013567ffffffffffffffff81111561048a576104896102d8565b5b6104968a828b016102ec565b9750975050602088013567ffffffffffffffff8111156104b9576104b86102d8565b5b6104c58a828b01610347565b955050604088013567ffffffffffffffff8111156104e6576104e56102d8565b5b6104f28a828b016102ec565b9450945050606088013567ffffffffffffffff811115610515576105146102d8565b5b6105218a828b016102ec565b925092505092959891949750929550565b6000806000806040858703121561054c5761054b6102d3565b5b600085013567ffffffffffffffff81111561056a576105696102d8565b5b610576878288016102ec565b9450945050602085013567ffffffffffffffff811115610599576105986102d8565b5b6105a5878288016102ec565b925092505092959194509250565b600082825260208201905092915050565b7f496e76616c696420506f6c796d657220636f6e73656e73757320737461746500600082015250565b60006105fa601f836105b3565b9150610605826105c4565b602082019050919050565b60006020820190508181036000830152610629816105ed565b9050919050565b7f4b65792063616e6e6f7420626520656d70747900000000000000000000000000600082015250565b60006106666013836105b3565b915061067182610630565b602082019050919050565b6000602082019050818103600083015261069581610659565b9050919050565b600080fd5b600080fd5b600080fd5b600080833560016020038436030381126106c8576106c761069c565b5b80840192508235915067ffffffffffffffff8211156106ea576106e96106a1565b5b602083019250600182023603831315610706576107056106a6565b5b509250929050565b7f45787065637465642076616c75652063616e6e6f7420626520656d7074790000600082015250565b6000610744601e836105b3565b915061074f8261070e565b602082019050919050565b6000602082019050818103600083015261077381610737565b905091905056fea2646970667358221220400e7cd42718cdbe25d4ff11182117ff42f933faa4c22f4ff44c8cf77dd0c2e164736f6c63430008090033",
  "linkReferences": {},
  "deployedLinkReferences": {}
}