{
  "_format": "hh-sol-artifact-1",
  "contractName": "Dispatcher",
  "sourceName": "contracts/Dispatcher.sol",
  "abi": [
    {
      "inputs": [
        {
          "internalType": "contract ZKMintVerifier",
          "name": "_verifier",
          "type": "address"
        }
      ],
      "stateMutability": "nonpayable",
      "type": "constructor"
    },
    {
      "anonymous": false,
      "inputs": [
        {
          "indexed": true,
          "internalType": "address",
          "name": "portAddress",
          "type": "address"
        },
        {
          "indexed": true,
          "internalType": "bytes32",
          "name": "channelId",
          "type": "bytes32"
        }
      ],
      "name": "CloseIbcChannel",
      "type": "event"
    },
    {
      "anonymous": false,
      "inputs": [
        {
          "indexed": true,
          "internalType": "address",
          "name": "portAddress",
          "type": "address"
        },
        {
          "indexed": true,
          "internalType": "bytes32",
          "name": "channelId",
          "type": "bytes32"
        },
        {
          "indexed": false,
          "internalType": "string",
          "name": "counterpartyPortId",
          "type": "string"
        },
        {
          "indexed": true,
          "internalType": "bytes32",
          "name": "counterpartyChannelId",
          "type": "bytes32"
        },
        {
          "indexed": false,
          "internalType": "string[]",
          "name": "connectionHops",
          "type": "string[]"
        }
      ],
      "name": "ConnectIbcChannel",
      "type": "event"
    },
    {
      "anonymous": false,
      "inputs": [
        {
          "indexed": true,
          "internalType": "bytes32",
          "name": "srcChannelId",
          "type": "bytes32"
        },
        {
          "indexed": false,
          "internalType": "string",
          "name": "srcPortId",
          "type": "string"
        },
        {
          "indexed": true,
          "internalType": "bytes32",
          "name": "destChannelId",
          "type": "bytes32"
        },
        {
          "indexed": false,
          "internalType": "string",
          "name": "destPortId",
          "type": "string"
        },
        {
          "indexed": false,
          "internalType": "bytes",
          "name": "data",
          "type": "bytes"
        },
        {
          "indexed": false,
          "internalType": "uint64",
          "name": "sequence",
          "type": "uint64"
        }
      ],
      "name": "OnRecvPacket",
      "type": "event"
    },
    {
      "anonymous": false,
      "inputs": [
        {
          "indexed": true,
          "internalType": "address",
          "name": "portAddress",
          "type": "address"
        },
        {
          "indexed": true,
          "internalType": "bytes32",
          "name": "counterpartyChannelId",
          "type": "bytes32"
        },
        {
          "indexed": false,
          "internalType": "bytes32",
          "name": "version",
          "type": "bytes32"
        },
        {
          "indexed": false,
          "internalType": "enum ChannelOrder",
          "name": "ordering",
          "type": "uint8"
        },
        {
          "indexed": false,
          "internalType": "string[]",
          "name": "connectionHops",
          "type": "string[]"
        },
        {
          "indexed": false,
          "internalType": "string",
          "name": "counterpartyPortId",
          "type": "string"
        },
        {
          "indexed": false,
          "internalType": "bytes32",
          "name": "counterpartyVersion",
          "type": "bytes32"
        }
      ],
      "name": "OpenIbcChannel",
      "type": "event"
    },
    {
      "anonymous": false,
      "inputs": [
        {
          "indexed": true,
          "internalType": "address",
          "name": "previousOwner",
          "type": "address"
        },
        {
          "indexed": true,
          "internalType": "address",
          "name": "newOwner",
          "type": "address"
        }
      ],
      "name": "OwnershipTransferred",
      "type": "event"
    },
    {
      "anonymous": false,
      "inputs": [
        {
          "indexed": true,
          "internalType": "address",
          "name": "portId",
          "type": "address"
        },
        {
          "indexed": true,
          "internalType": "bytes32",
          "name": "channelId",
          "type": "bytes32"
        },
        {
          "indexed": false,
          "internalType": "bytes",
          "name": "packet",
          "type": "bytes"
        },
        {
          "indexed": false,
          "internalType": "uint64",
          "name": "timeoutTimestamp",
          "type": "uint64"
        }
      ],
      "name": "SendPacket",
      "type": "event"
    },
    {
      "inputs": [
        {
          "internalType": "bytes32",
          "name": "channelId",
          "type": "bytes32"
        }
      ],
      "name": "closeIbcChannel",
      "outputs": [],
      "stateMutability": "nonpayable",
      "type": "function"
    },
    {
      "inputs": [
        {
          "internalType": "contract IbcReceiver",
          "name": "portAddress",
          "type": "address"
        },
        {
          "internalType": "bytes32",
          "name": "channelId",
          "type": "bytes32"
        },
        {
          "internalType": "string[]",
          "name": "connectionHops",
          "type": "string[]"
        },
        {
          "internalType": "enum ChannelOrder",
          "name": "ordering",
          "type": "uint8"
        },
        {
          "internalType": "string",
          "name": "counterpartyPortId",
          "type": "string"
        },
        {
          "internalType": "bytes32",
          "name": "counterpartyChannelId",
          "type": "bytes32"
        },
        {
          "internalType": "bytes32",
          "name": "counterpartyVersion",
          "type": "bytes32"
        },
        {
          "components": [
            {
              "internalType": "uint64",
              "name": "proofHeight",
              "type": "uint64"
            },
            {
              "internalType": "bytes",
              "name": "proof",
              "type": "bytes"
            }
          ],
          "internalType": "struct Proof",
          "name": "proof",
          "type": "tuple"
        }
      ],
      "name": "connectIbcChannel",
      "outputs": [],
      "stateMutability": "nonpayable",
      "type": "function"
    },
    {
      "inputs": [
        {
          "internalType": "bytes",
          "name": "clientState",
          "type": "bytes"
        },
        {
          "internalType": "bytes",
          "name": "consensusState",
          "type": "bytes"
        }
      ],
      "name": "createClient",
      "outputs": [],
      "stateMutability": "nonpayable",
      "type": "function"
    },
    {
      "inputs": [
        {
          "internalType": "address",
          "name": "portAddress",
          "type": "address"
        },
        {
          "internalType": "bytes32",
          "name": "channelId",
          "type": "bytes32"
        }
      ],
      "name": "getChannel",
      "outputs": [
        {
          "components": [
            {
              "internalType": "bytes32",
              "name": "version",
              "type": "bytes32"
            },
            {
              "internalType": "enum ChannelOrder",
              "name": "ordering",
              "type": "uint8"
            },
            {
              "internalType": "string[]",
              "name": "connectionHops",
              "type": "string[]"
            },
            {
              "internalType": "string",
              "name": "counterpartyPortId",
              "type": "string"
            },
            {
              "internalType": "bytes32",
              "name": "counterpartyChannelId",
              "type": "bytes32"
            }
          ],
          "internalType": "struct Channel",
          "name": "",
          "type": "tuple"
        }
      ],
      "stateMutability": "view",
      "type": "function"
    },
    {
      "inputs": [],
      "name": "latestConsensusState",
      "outputs": [
        {
          "internalType": "bytes",
          "name": "",
          "type": "bytes"
        }
      ],
      "stateMutability": "view",
      "type": "function"
    },
    {
      "inputs": [
        {
          "internalType": "contract IbcReceiver",
          "name": "receiver",
          "type": "address"
        },
        {
          "components": [
            {
              "components": [
                {
                  "internalType": "string",
                  "name": "portId",
                  "type": "string"
                },
                {
                  "internalType": "bytes32",
                  "name": "channelId",
                  "type": "bytes32"
                }
              ],
              "internalType": "struct IbcEndpoint",
              "name": "src",
              "type": "tuple"
            },
            {
              "components": [
                {
                  "internalType": "string",
                  "name": "portId",
                  "type": "string"
                },
                {
                  "internalType": "bytes32",
                  "name": "channelId",
                  "type": "bytes32"
                }
              ],
              "internalType": "struct IbcEndpoint",
              "name": "dest",
              "type": "tuple"
            },
            {
              "internalType": "uint64",
              "name": "sequence",
              "type": "uint64"
            },
            {
              "internalType": "bytes",
              "name": "data",
              "type": "bytes"
            },
            {
              "components": [
                {
                  "internalType": "uint64",
                  "name": "block",
                  "type": "uint64"
                },
                {
                  "internalType": "uint64",
                  "name": "timestamp",
                  "type": "uint64"
                }
              ],
              "internalType": "struct IbcTimeout",
              "name": "timeout",
              "type": "tuple"
            }
          ],
          "internalType": "struct IbcPacket",
          "name": "packet",
          "type": "tuple"
        },
        {
          "internalType": "bytes",
          "name": "acknowledgement",
          "type": "bytes"
        },
        {
          "components": [
            {
              "internalType": "uint64",
              "name": "proofHeight",
              "type": "uint64"
            },
            {
              "internalType": "bytes",
              "name": "proof",
              "type": "bytes"
            }
          ],
          "internalType": "struct Proof",
          "name": "proof",
          "type": "tuple"
        }
      ],
      "name": "onAcknowledgementPacket",
      "outputs": [],
      "stateMutability": "nonpayable",
      "type": "function"
    },
    {
      "inputs": [
        {
          "internalType": "address",
          "name": "portAddress",
          "type": "address"
        },
        {
          "internalType": "bytes32",
          "name": "channelId",
          "type": "bytes32"
        },
        {
          "components": [
            {
              "internalType": "uint64",
              "name": "proofHeight",
              "type": "uint64"
            },
            {
              "internalType": "bytes",
              "name": "proof",
              "type": "bytes"
            }
          ],
          "internalType": "struct Proof",
          "name": "proof",
          "type": "tuple"
        }
      ],
      "name": "onCloseIbcChannel",
      "outputs": [],
      "stateMutability": "nonpayable",
      "type": "function"
    },
    {
      "inputs": [
        {
          "internalType": "contract IbcReceiver",
          "name": "receiver",
          "type": "address"
        },
        {
          "components": [
            {
              "components": [
                {
                  "internalType": "string",
                  "name": "portId",
                  "type": "string"
                },
                {
                  "internalType": "bytes32",
                  "name": "channelId",
                  "type": "bytes32"
                }
              ],
              "internalType": "struct IbcEndpoint",
              "name": "src",
              "type": "tuple"
            },
            {
              "components": [
                {
                  "internalType": "string",
                  "name": "portId",
                  "type": "string"
                },
                {
                  "internalType": "bytes32",
                  "name": "channelId",
                  "type": "bytes32"
                }
              ],
              "internalType": "struct IbcEndpoint",
              "name": "dest",
              "type": "tuple"
            },
            {
              "internalType": "uint64",
              "name": "sequence",
              "type": "uint64"
            },
            {
              "internalType": "bytes",
              "name": "data",
              "type": "bytes"
            },
            {
              "components": [
                {
                  "internalType": "uint64",
                  "name": "block",
                  "type": "uint64"
                },
                {
                  "internalType": "uint64",
                  "name": "timestamp",
                  "type": "uint64"
                }
              ],
              "internalType": "struct IbcTimeout",
              "name": "timeout",
              "type": "tuple"
            }
          ],
          "internalType": "struct IbcPacket",
          "name": "packet",
          "type": "tuple"
        },
        {
          "components": [
            {
              "internalType": "uint64",
              "name": "proofHeight",
              "type": "uint64"
            },
            {
              "internalType": "bytes",
              "name": "proof",
              "type": "bytes"
            }
          ],
          "internalType": "struct Proof",
          "name": "proof",
          "type": "tuple"
        }
      ],
      "name": "onRecvPacket",
      "outputs": [],
      "stateMutability": "nonpayable",
      "type": "function"
    },
    {
      "inputs": [
        {
          "internalType": "contract IbcReceiver",
          "name": "receiver",
          "type": "address"
        },
        {
          "components": [
            {
              "components": [
                {
                  "internalType": "string",
                  "name": "portId",
                  "type": "string"
                },
                {
                  "internalType": "bytes32",
                  "name": "channelId",
                  "type": "bytes32"
                }
              ],
              "internalType": "struct IbcEndpoint",
              "name": "src",
              "type": "tuple"
            },
            {
              "components": [
                {
                  "internalType": "string",
                  "name": "portId",
                  "type": "string"
                },
                {
                  "internalType": "bytes32",
                  "name": "channelId",
                  "type": "bytes32"
                }
              ],
              "internalType": "struct IbcEndpoint",
              "name": "dest",
              "type": "tuple"
            },
            {
              "internalType": "uint64",
              "name": "sequence",
              "type": "uint64"
            },
            {
              "internalType": "bytes",
              "name": "data",
              "type": "bytes"
            },
            {
              "components": [
                {
                  "internalType": "uint64",
                  "name": "block",
                  "type": "uint64"
                },
                {
                  "internalType": "uint64",
                  "name": "timestamp",
                  "type": "uint64"
                }
              ],
              "internalType": "struct IbcTimeout",
              "name": "timeout",
              "type": "tuple"
            }
          ],
          "internalType": "struct IbcPacket",
          "name": "packet",
          "type": "tuple"
        },
        {
          "components": [
            {
              "internalType": "uint64",
              "name": "proofHeight",
              "type": "uint64"
            },
            {
              "internalType": "bytes",
              "name": "proof",
              "type": "bytes"
            }
          ],
          "internalType": "struct Proof",
          "name": "proof",
          "type": "tuple"
        }
      ],
      "name": "onTimeoutPacket",
      "outputs": [],
      "stateMutability": "nonpayable",
      "type": "function"
    },
    {
      "inputs": [
        {
          "internalType": "contract IbcReceiver",
          "name": "portAddress",
          "type": "address"
        },
        {
          "internalType": "bytes32",
          "name": "version",
          "type": "bytes32"
        },
        {
          "internalType": "enum ChannelOrder",
          "name": "ordering",
          "type": "uint8"
        },
        {
          "internalType": "string[]",
          "name": "connectionHops",
          "type": "string[]"
        },
        {
          "internalType": "bytes32",
          "name": "counterpartyChannelId",
          "type": "bytes32"
        },
        {
          "internalType": "string",
          "name": "counterpartyPortId",
          "type": "string"
        },
        {
          "internalType": "bytes32",
          "name": "counterpartyVersion",
          "type": "bytes32"
        }
      ],
      "name": "openIbcChannel",
      "outputs": [],
      "stateMutability": "nonpayable",
      "type": "function"
    },
    {
      "inputs": [],
      "name": "owner",
      "outputs": [
        {
          "internalType": "address",
          "name": "",
          "type": "address"
        }
      ],
      "stateMutability": "view",
      "type": "function"
    },
    {
      "inputs": [
        {
          "internalType": "address",
          "name": "",
          "type": "address"
        },
        {
          "internalType": "bytes32",
          "name": "",
          "type": "bytes32"
        }
      ],
      "name": "portChannelMap",
      "outputs": [
        {
          "internalType": "bytes32",
          "name": "version",
          "type": "bytes32"
        },
        {
          "internalType": "enum ChannelOrder",
          "name": "ordering",
          "type": "uint8"
        },
        {
          "internalType": "string",
          "name": "counterpartyPortId",
          "type": "string"
        },
        {
          "internalType": "bytes32",
          "name": "counterpartyChannelId",
          "type": "bytes32"
        }
      ],
      "stateMutability": "view",
      "type": "function"
    },
    {
      "inputs": [],
      "name": "renounceOwnership",
      "outputs": [],
      "stateMutability": "nonpayable",
      "type": "function"
    },
    {
      "inputs": [
        {
          "internalType": "bytes32",
          "name": "channelId",
          "type": "bytes32"
        },
        {
          "internalType": "bytes",
          "name": "packet",
          "type": "bytes"
        },
        {
          "internalType": "uint64",
          "name": "timeoutTimestamp",
          "type": "uint64"
        }
      ],
      "name": "sendPacket",
      "outputs": [],
      "stateMutability": "nonpayable",
      "type": "function"
    },
    {
      "inputs": [
        {
          "internalType": "address",
          "name": "newOwner",
          "type": "address"
        }
      ],
      "name": "transferOwnership",
      "outputs": [],
      "stateMutability": "nonpayable",
      "type": "function"
    },
    {
      "inputs": [
        {
          "internalType": "bytes",
          "name": "consensusState",
          "type": "bytes"
        }
      ],
      "name": "updateClient",
      "outputs": [],
      "stateMutability": "nonpayable",
      "type": "function"
    }
  ],
  "bytecode": "0x60806040526000600360006101000a81548167ffffffffffffffff021916908367ffffffffffffffff1602179055503480156200003b57600080fd5b5060405162003b7b38038062003b7b83398181016040528101906200006191906200022e565b6200008162000075620000e460201b60201c565b620000ec60201b60201c565b80600160006101000a81548173ffffffffffffffffffffffffffffffffffffffff021916908373ffffffffffffffffffffffffffffffffffffffff1602179055506000600160146101000a81548160ff0219169083151502179055505062000260565b600033905090565b60008060009054906101000a900473ffffffffffffffffffffffffffffffffffffffff169050816000806101000a81548173ffffffffffffffffffffffffffffffffffffffff021916908373ffffffffffffffffffffffffffffffffffffffff1602179055508173ffffffffffffffffffffffffffffffffffffffff168173ffffffffffffffffffffffffffffffffffffffff167f8be0079c531659141344cd1fd0a4f28419497f9722a3daafe3b4186f6b6457e060405160405180910390a35050565b600080fd5b600073ffffffffffffffffffffffffffffffffffffffff82169050919050565b6000620001e282620001b5565b9050919050565b6000620001f682620001d5565b9050919050565b6200020881620001e9565b81146200021457600080fd5b50565b6000815190506200022881620001fd565b92915050565b600060208284031215620002475762000246620001b0565b5b6000620002578482850162000217565b91505092915050565b61390b80620002706000396000f3fe608060405234801561001057600080fd5b50600436106101005760003560e01c80638b24b4cb11610097578063c2a2514d11610066578063c2a2514d14610270578063c3e1155c1461028e578063d2e9aa56146102aa578063f2fde38b146102c657610100565b80638b24b4cb146101e75780638da5cb5b14610203578063951538f314610221578063b2b1bf031461023d57610100565b806342852d24116100d357806342852d24146101755780634c9778d3146101a557806364260a60146101c1578063715018a6146101dd57610100565b80630ad8d666146101055780630bece356146101215780631f456c1e1461013d5780633e24aaf314610159575b600080fd5b61011f600480360381019061011a9190611c9d565b6102e2565b005b61013b60048036038101906101369190611d8d565b6103f4565b005b61015760048036038101906101529190611ee1565b610548565b005b610173600480360381019061016e9190611fc3565b61064c565b005b61018f600480360381019061018a9190612070565b6106d6565b60405161019c919061230e565b60405180910390f35b6101bf60048036038101906101ba9190612330565b6108fb565b005b6101db60048036038101906101d69190611c9d565b610c2d565b005b6101e5610ce5565b005b61020160048036038101906101fc9190612443565b610cf9565b005b61020b611021565b604051610218919061247f565b60405180910390f35b61023b6004803603810190610236919061249a565b61104a565b005b61025760048036038101906102529190612070565b611512565b6040516102679493929190612571565b60405180910390f35b6102786115e4565b6040516102859190612612565b60405180910390f35b6102a860048036038101906102a39190612674565b611672565b005b6102c460048036038101906102bf91906126e8565b6116cb565b005b6102e060048036038101906102db91906127a8565b611785565b005b6102eb81611809565b61032a576040517f08c379a000000000000000000000000000000000000000000000000000000000815260040161032190612821565b60405180910390fd5b81806020019061033a9190612850565b6020013582806000019061034e9190612850565b602001357f080631928e492258b6a102fc2ab3e0a8dfcb747ab0885c25f9cb7a8d486210368480600001906103839190612850565b80600001906103929190612878565b8680602001906103a29190612850565b80600001906103b19190612878565b8880606001906103c191906128db565b8a60400160208101906103d4919061293e565b6040516103e797969594939291906129e3565b60405180910390a3505050565b600160149054906101000a900460ff16610443576040517f08c379a000000000000000000000000000000000000000000000000000000000815260040161043a90612a8f565b60405180910390fd5b600160009054906101000a900473ffffffffffffffffffffffffffffffffffffffff1673ffffffffffffffffffffffffffffffffffffffff1663e1ec100c600284846040518463ffffffff1660e01b81526004016104a393929190612ba5565b60206040518083038186803b1580156104bb57600080fd5b505afa1580156104cf573d6000803e3d6000fd5b505050506040513d601f19601f820116820180604052508101906104f39190612c16565b610532576040517f08c379a000000000000000000000000000000000000000000000000000000000815260040161052990612cb5565b60405180910390fd5b818160029190610543929190611981565b505050565b60008973ffffffffffffffffffffffffffffffffffffffff1663486592198a8a8a8a8a8a8a8a6040518963ffffffff1660e01b8152600401610591989796959493929190612e28565b602060405180830381600087803b1580156105ab57600080fd5b505af11580156105bf573d6000803e3d6000fd5b505050506040513d601f19601f820116820180604052508101906105e39190612eb0565b9050848a73ffffffffffffffffffffffffffffffffffffffff167f9a93c124e7f0aa93d3fbe660b1366e0483b4267619924382261498efbb92c873838b8b8b8a8a8a6040516106389796959493929190612edd565b60405180910390a350505050505050505050565b610654611837565b600160149054906101000a900460ff16156106a4576040517f08c379a000000000000000000000000000000000000000000000000000000000815260040161069b90612f8e565b60405180910390fd5b60018060146101000a81548160ff0219169083151502179055508181600291906106cf929190611981565b5050505050565b6106de611a07565b600460008473ffffffffffffffffffffffffffffffffffffffff1673ffffffffffffffffffffffffffffffffffffffff16815260200190815260200160002060008381526020019081526020016000206040518060a0016040529081600082015481526020016001820160009054906101000a900460ff166001811115610768576107676120bf565b5b600181111561077a576107796120bf565b5b815260200160028201805480602002602001604051908101604052809291908181526020016000905b8282101561084f5783829060005260206000200180546107c290612ade565b80601f01602080910402602001604051908101604052809291908181526020018280546107ee90612ade565b801561083b5780601f106108105761010080835404028352916020019161083b565b820191906000526020600020905b81548152906001019060200180831161081e57829003601f168201915b5050505050815260200190600101906107a3565b50505050815260200160038201805461086790612ade565b80601f016020809104026020016040519081016040528092919081815260200182805461089390612ade565b80156108e05780601f106108b5576101008083540402835291602001916108e0565b820191906000526020600020905b8154815290600101906020018083116108c357829003601f168201915b50505050508152602001600482015481525050905092915050565b600160009054906101000a900473ffffffffffffffffffffffffffffffffffffffff1673ffffffffffffffffffffffffffffffffffffffff16639511059d6002836040518060800160405280605e8152602001613825605e91396040518463ffffffff1660e01b815260040161097393929190613110565b60206040518083038186803b15801561098b57600080fd5b505afa15801561099f573d6000803e3d6000fd5b505050506040513d601f19601f820116820180604052508101906109c39190612c16565b610a02576040517f08c379a00000000000000000000000000000000000000000000000000000000081526004016109f9906131bb565b60405180910390fd5b8973ffffffffffffffffffffffffffffffffffffffff1663e60a72938a85856040518463ffffffff1660e01b8152600401610a3f939291906131db565b600060405180830381600087803b158015610a5957600080fd5b505af1158015610a6d573d6000803e3d6000fd5b505050506040518060a00160405280838152602001876001811115610a9557610a946120bf565b5b8152602001898990610aa791906133e6565b815260200186868080601f016020809104026020016040519081016040528093929190818152602001838380828437600081840152601f19601f82011690508083019250505050505050815260200184815250600460008c73ffffffffffffffffffffffffffffffffffffffff1673ffffffffffffffffffffffffffffffffffffffff16815260200190815260200160002060008b81526020019081526020016000206000820151816000015560208201518160010160006101000a81548160ff02191690836001811115610b7f57610b7e6120bf565b5b02179055506040820151816002019080519060200190610ba0929190611a4e565b506060820151816003019080519060200190610bbd929190611aae565b506080820151816004015590505082898b73ffffffffffffffffffffffffffffffffffffffff167f57ea540ad7b8bfd2813b8637764ba029fedc52de3f812934a46511506aa11b8e88888d8d604051610c1994939291906133fb565b60405180910390a450505050505050505050565b610c3681611809565b610c75576040517f08c379a0000000000000000000000000000000000000000000000000000000008152600401610c6c90612821565b60405180910390fd5b8273ffffffffffffffffffffffffffffffffffffffff1663b33c2577836040518263ffffffff1660e01b8152600401610cae91906135bc565b600060405180830381600087803b158015610cc857600080fd5b505af1158015610cdc573d6000803e3d6000fd5b50505050505050565b610ced611837565b610cf760006118b5565b565b6000600460003373ffffffffffffffffffffffffffffffffffffffff1673ffffffffffffffffffffffffffffffffffffffff16815260200190815260200160002060008381526020019081526020016000206040518060a0016040529081600082015481526020016001820160009054906101000a900460ff166001811115610d8557610d846120bf565b5b6001811115610d9757610d966120bf565b5b815260200160028201805480602002602001604051908101604052809291908181526020016000905b82821015610e6c578382906000526020600020018054610ddf90612ade565b80601f0160208091040260200160405190810160405280929190818152602001828054610e0b90612ade565b8015610e585780601f10610e2d57610100808354040283529160200191610e58565b820191906000526020600020905b815481529060010190602001808311610e3b57829003601f168201915b505050505081526020019060010190610dc0565b505050508152602001600382018054610e8490612ade565b80601f0160208091040260200160405190810160405280929190818152602001828054610eb090612ade565b8015610efd5780601f10610ed257610100808354040283529160200191610efd565b820191906000526020600020905b815481529060010190602001808311610ee057829003601f168201915b5050505050815260200160048201548152505090506000801b81608001511415610f5c576040517f08c379a0000000000000000000000000000000000000000000000000000000008152600401610f539061362a565b60405180910390fd5b60003390508073ffffffffffffffffffffffffffffffffffffffff16635fe39e0d84846060015185608001516040518463ffffffff1660e01b8152600401610fa69392919061364a565b600060405180830381600087803b158015610fc057600080fd5b505af1158015610fd4573d6000803e3d6000fd5b50505050823373ffffffffffffffffffffffffffffffffffffffff167fe893e4ba0e364cdc96364b1e1e0d53b0d91e5fd6aa0ee9d81a17ecd61178bf1760405160405180910390a3505050565b60008060009054906101000a900473ffffffffffffffffffffffffffffffffffffffff16905090565b600160009054906101000a900473ffffffffffffffffffffffffffffffffffffffff1673ffffffffffffffffffffffffffffffffffffffff16639511059d600283604051806080016040528060538152602001613883605391396040518463ffffffff1660e01b81526004016110c293929190613110565b60206040518083038186803b1580156110da57600080fd5b505afa1580156110ee573d6000803e3d6000fd5b505050506040513d601f19601f820116820180604052508101906111129190612c16565b611151576040517f08c379a0000000000000000000000000000000000000000000000000000000008152600401611148906131bb565b60405180910390fd5b6000600460008573ffffffffffffffffffffffffffffffffffffffff1673ffffffffffffffffffffffffffffffffffffffff16815260200190815260200160002060008481526020019081526020016000206040518060a0016040529081600082015481526020016001820160009054906101000a900460ff1660018111156111dd576111dc6120bf565b5b60018111156111ef576111ee6120bf565b5b815260200160028201805480602002602001604051908101604052809291908181526020016000905b828210156112c457838290600052602060002001805461123790612ade565b80601f016020809104026020016040519081016040528092919081815260200182805461126390612ade565b80156112b05780601f10611285576101008083540402835291602001916112b0565b820191906000526020600020905b81548152906001019060200180831161129357829003601f168201915b505050505081526020019060010190611218565b5050505081526020016003820180546112dc90612ade565b80601f016020809104026020016040519081016040528092919081815260200182805461130890612ade565b80156113555780601f1061132a57610100808354040283529160200191611355565b820191906000526020600020905b81548152906001019060200180831161133857829003601f168201915b5050505050815260200160048201548152505090506000801b816080015114156113b4576040517f08c379a00000000000000000000000000000000000000000000000000000000081526004016113ab906136d4565b60405180910390fd5b60008490508073ffffffffffffffffffffffffffffffffffffffff16635fe39e0d85846060015185608001516040518463ffffffff1660e01b81526004016113fe9392919061364a565b600060405180830381600087803b15801561141857600080fd5b505af115801561142c573d6000803e3d6000fd5b50505050600460008673ffffffffffffffffffffffffffffffffffffffff1673ffffffffffffffffffffffffffffffffffffffff16815260200190815260200160002060008581526020019081526020016000206000808201600090556001820160006101000a81549060ff02191690556002820160006114ad9190611b34565b6003820160006114bd9190611b55565b60048201600090555050838573ffffffffffffffffffffffffffffffffffffffff167fe893e4ba0e364cdc96364b1e1e0d53b0d91e5fd6aa0ee9d81a17ecd61178bf1760405160405180910390a35050505050565b6004602052816000526040600020602052806000526040600020600091509150508060000154908060010160009054906101000a900460ff169080600301805461155b90612ade565b80601f016020809104026020016040519081016040528092919081815260200182805461158790612ade565b80156115d45780601f106115a9576101008083540402835291602001916115d4565b820191906000526020600020905b8154815290600101906020018083116115b757829003601f168201915b5050505050908060040154905084565b600280546115f190612ade565b80601f016020809104026020016040519081016040528092919081815260200182805461161d90612ade565b801561166a5780601f1061163f5761010080835404028352916020019161166a565b820191906000526020600020905b81548152906001019060200180831161164d57829003601f168201915b505050505081565b833373ffffffffffffffffffffffffffffffffffffffff167fe5f4762afde15256ce24aa385b449d27b7d2776921f3c673f8162ddb5b7a2f168585856040516116bd939291906136f4565b60405180910390a350505050565b6116d481611809565b611713576040517f08c379a000000000000000000000000000000000000000000000000000000000815260040161170a90612821565b60405180910390fd5b8473ffffffffffffffffffffffffffffffffffffffff1663f45cf5e4856040518263ffffffff1660e01b815260040161174c91906135bc565b600060405180830381600087803b15801561176657600080fd5b505af115801561177a573d6000803e3d6000fd5b505050505050505050565b61178d611837565b600073ffffffffffffffffffffffffffffffffffffffff168173ffffffffffffffffffffffffffffffffffffffff1614156117fd576040517f08c379a00000000000000000000000000000000000000000000000000000000081526004016117f490613798565b60405180910390fd5b611806816118b5565b50565b60008082806020019061181c91906128db565b9050141561182d5760009050611832565b600190505b919050565b61183f611979565b73ffffffffffffffffffffffffffffffffffffffff1661185d611021565b73ffffffffffffffffffffffffffffffffffffffff16146118b3576040517f08c379a00000000000000000000000000000000000000000000000000000000081526004016118aa90613804565b60405180910390fd5b565b60008060009054906101000a900473ffffffffffffffffffffffffffffffffffffffff169050816000806101000a81548173ffffffffffffffffffffffffffffffffffffffff021916908373ffffffffffffffffffffffffffffffffffffffff1602179055508173ffffffffffffffffffffffffffffffffffffffff168173ffffffffffffffffffffffffffffffffffffffff167f8be0079c531659141344cd1fd0a4f28419497f9722a3daafe3b4186f6b6457e060405160405180910390a35050565b600033905090565b82805461198d90612ade565b90600052602060002090601f0160209004810192826119af57600085556119f6565b82601f106119c857803560ff19168380011785556119f6565b828001600101855582156119f6579182015b828111156119f55782358255916020019190600101906119da565b5b509050611a039190611b95565b5090565b6040518060a001604052806000801916815260200160006001811115611a3057611a2f6120bf565b5b81526020016060815260200160608152602001600080191681525090565b828054828255906000526020600020908101928215611a9d579160200282015b82811115611a9c578251829080519060200190611a8c929190611aae565b5091602001919060010190611a6e565b5b509050611aaa9190611bb2565b5090565b828054611aba90612ade565b90600052602060002090601f016020900481019282611adc5760008555611b23565b82601f10611af557805160ff1916838001178555611b23565b82800160010185558215611b23579182015b82811115611b22578251825591602001919060010190611b07565b5b509050611b309190611b95565b5090565b5080546000825590600052602060002090810190611b529190611bb2565b50565b508054611b6190612ade565b6000825580601f10611b735750611b92565b601f016020900490600052602060002090810190611b919190611b95565b5b50565b5b80821115611bae576000816000905550600101611b96565b5090565b5b80821115611bd25760008181611bc99190611b55565b50600101611bb3565b5090565b6000604051905090565b600080fd5b600080fd5b600073ffffffffffffffffffffffffffffffffffffffff82169050919050565b6000611c1582611bea565b9050919050565b6000611c2782611c0a565b9050919050565b611c3781611c1c565b8114611c4257600080fd5b50565b600081359050611c5481611c2e565b92915050565b600080fd5b600060c08284031215611c7557611c74611c5a565b5b81905092915050565b600060408284031215611c9457611c93611c5a565b5b81905092915050565b600080600060608486031215611cb657611cb5611be0565b5b6000611cc486828701611c45565b935050602084013567ffffffffffffffff811115611ce557611ce4611be5565b5b611cf186828701611c5f565b925050604084013567ffffffffffffffff811115611d1257611d11611be5565b5b611d1e86828701611c7e565b9150509250925092565b600080fd5b600080fd5b600080fd5b60008083601f840112611d4d57611d4c611d28565b5b8235905067ffffffffffffffff811115611d6a57611d69611d2d565b5b602083019150836001820283011115611d8657611d85611d32565b5b9250929050565b60008060208385031215611da457611da3611be0565b5b600083013567ffffffffffffffff811115611dc257611dc1611be5565b5b611dce85828601611d37565b92509250509250929050565b6000819050919050565b611ded81611dda565b8114611df857600080fd5b50565b600081359050611e0a81611de4565b92915050565b60028110611e1d57600080fd5b50565b600081359050611e2f81611e10565b92915050565b60008083601f840112611e4b57611e4a611d28565b5b8235905067ffffffffffffffff811115611e6857611e67611d2d565b5b602083019150836020820283011115611e8457611e83611d32565b5b9250929050565b60008083601f840112611ea157611ea0611d28565b5b8235905067ffffffffffffffff811115611ebe57611ebd611d2d565b5b602083019150836001820283011115611eda57611ed9611d32565b5b9250929050565b600080600080600080600080600060e08a8c031215611f0357611f02611be0565b5b6000611f118c828d01611c45565b9950506020611f228c828d01611dfb565b9850506040611f338c828d01611e20565b97505060608a013567ffffffffffffffff811115611f5457611f53611be5565b5b611f608c828d01611e35565b96509650506080611f738c828d01611dfb565b94505060a08a013567ffffffffffffffff811115611f9457611f93611be5565b5b611fa08c828d01611e8b565b935093505060c0611fb38c828d01611dfb565b9150509295985092959850929598565b60008060008060408587031215611fdd57611fdc611be0565b5b600085013567ffffffffffffffff811115611ffb57611ffa611be5565b5b61200787828801611d37565b9450945050602085013567ffffffffffffffff81111561202a57612029611be5565b5b61203687828801611d37565b925092505092959194509250565b61204d81611c0a565b811461205857600080fd5b50565b60008135905061206a81612044565b92915050565b6000806040838503121561208757612086611be0565b5b60006120958582860161205b565b92505060206120a685828601611dfb565b9150509250929050565b6120b981611dda565b82525050565b7f4e487b7100000000000000000000000000000000000000000000000000000000600052602160045260246000fd5b600281106120ff576120fe6120bf565b5b50565b6000819050612110826120ee565b919050565b600061212082612102565b9050919050565b61213081612115565b82525050565b600081519050919050565b600082825260208201905092915050565b6000819050602082019050919050565b600081519050919050565b600082825260208201905092915050565b60005b8381101561219c578082015181840152602081019050612181565b838111156121ab576000848401525b50505050565b6000601f19601f8301169050919050565b60006121cd82612162565b6121d7818561216d565b93506121e781856020860161217e565b6121f0816121b1565b840191505092915050565b600061220783836121c2565b905092915050565b6000602082019050919050565b600061222782612136565b6122318185612141565b93508360208202850161224385612152565b8060005b8581101561227f578484038952815161226085826121fb565b945061226b8361220f565b925060208a01995050600181019050612247565b50829750879550505050505092915050565b600060a0830160008301516122a960008601826120b0565b5060208301516122bc6020860182612127565b50604083015184820360408601526122d4828261221c565b915050606083015184820360608601526122ee82826121c2565b915050608083015161230360808601826120b0565b508091505092915050565b600060208201905081810360008301526123288184612291565b905092915050565b6000806000806000806000806000806101008b8d03121561235457612353611be0565b5b60006123628d828e01611c45565b9a505060206123738d828e01611dfb565b99505060408b013567ffffffffffffffff81111561239457612393611be5565b5b6123a08d828e01611e35565b985098505060606123b38d828e01611e20565b96505060808b013567ffffffffffffffff8111156123d4576123d3611be5565b5b6123e08d828e01611e8b565b955095505060a06123f38d828e01611dfb565b93505060c06124048d828e01611dfb565b92505060e08b013567ffffffffffffffff81111561242557612424611be5565b5b6124318d828e01611c7e565b9150509295989b9194979a5092959850565b60006020828403121561245957612458611be0565b5b600061246784828501611dfb565b91505092915050565b61247981611c0a565b82525050565b60006020820190506124946000830184612470565b92915050565b6000806000606084860312156124b3576124b2611be0565b5b60006124c18682870161205b565b93505060206124d286828701611dfb565b925050604084013567ffffffffffffffff8111156124f3576124f2611be5565b5b6124ff86828701611c7e565b9150509250925092565b61251281611dda565b82525050565b61252181612115565b82525050565b600082825260208201905092915050565b600061254382612162565b61254d8185612527565b935061255d81856020860161217e565b612566816121b1565b840191505092915050565b60006080820190506125866000830187612509565b6125936020830186612518565b81810360408301526125a58185612538565b90506125b46060830184612509565b95945050505050565b600081519050919050565b600082825260208201905092915050565b60006125e4826125bd565b6125ee81856125c8565b93506125fe81856020860161217e565b612607816121b1565b840191505092915050565b6000602082019050818103600083015261262c81846125d9565b905092915050565b600067ffffffffffffffff82169050919050565b61265181612634565b811461265c57600080fd5b50565b60008135905061266e81612648565b92915050565b6000806000806060858703121561268e5761268d611be0565b5b600061269c87828801611dfb565b945050602085013567ffffffffffffffff8111156126bd576126bc611be5565b5b6126c987828801611d37565b935093505060406126dc8782880161265f565b91505092959194509250565b60008060008060006080868803121561270457612703611be0565b5b600061271288828901611c45565b955050602086013567ffffffffffffffff81111561273357612732611be5565b5b61273f88828901611c5f565b945050604086013567ffffffffffffffff8111156127605761275f611be5565b5b61276c88828901611d37565b9350935050606086013567ffffffffffffffff81111561278f5761278e611be5565b5b61279b88828901611c7e565b9150509295509295909350565b6000602082840312156127be576127bd611be0565b5b60006127cc8482850161205b565b91505092915050565b7f50726f6f6620766572696669636174696f6e206661696c656400000000000000600082015250565b600061280b601983612527565b9150612816826127d5565b602082019050919050565b6000602082019050818103600083015261283a816127fe565b9050919050565b600080fd5b600080fd5b600080fd5b60008235600160400383360303811261286c5761286b612841565b5b80830191505092915050565b6000808335600160200384360303811261289557612894612841565b5b80840192508235915067ffffffffffffffff8211156128b7576128b6612846565b5b6020830192506001820236038313156128d3576128d261284b565b5b509250929050565b600080833560016020038436030381126128f8576128f7612841565b5b80840192508235915067ffffffffffffffff82111561291a57612919612846565b5b6020830192506001820236038313156129365761293561284b565b5b509250929050565b60006020828403121561295457612953611be0565b5b60006129628482850161265f565b91505092915050565b82818337600083830152505050565b60006129868385612527565b935061299383858461296b565b61299c836121b1565b840190509392505050565b60006129b383856125c8565b93506129c083858461296b565b6129c9836121b1565b840190509392505050565b6129dd81612634565b82525050565b600060808201905081810360008301526129fe81898b61297a565b90508181036020830152612a1381878961297a565b90508181036040830152612a288185876129a7565b9050612a3760608301846129d4565b98975050505050505050565b7f436c69656e74206e6f7420637265617465640000000000000000000000000000600082015250565b6000612a79601283612527565b9150612a8482612a43565b602082019050919050565b60006020820190508181036000830152612aa881612a6c565b9050919050565b7f4e487b7100000000000000000000000000000000000000000000000000000000600052602260045260246000fd5b60006002820490506001821680612af657607f821691505b60208210811415612b0a57612b09612aaf565b5b50919050565b60008190508160005260206000209050919050565b60008154612b3281612ade565b612b3c81866125c8565b94506001821660008114612b575760018114612b6957612b9c565b60ff1983168652602086019350612b9c565b612b7285612b10565b60005b83811015612b9457815481890152600182019150602081019050612b75565b808801955050505b50505092915050565b60006040820190508181036000830152612bbf8186612b25565b90508181036020830152612bd48184866129a7565b9050949350505050565b60008115159050919050565b612bf381612bde565b8114612bfe57600080fd5b50565b600081519050612c1081612bea565b92915050565b600060208284031215612c2c57612c2b611be0565b5b6000612c3a84828501612c01565b91505092915050565b7f436f6e73656e73757320737461746520766572696669636174696f6e2066616960008201527f6c65640000000000000000000000000000000000000000000000000000000000602082015250565b6000612c9f602383612527565b9150612caa82612c43565b604082019050919050565b60006020820190508181036000830152612cce81612c92565b9050919050565b600082825260208201905092915050565b6000819050919050565b6000612cfc838561216d565b9350612d0983858461296b565b612d12836121b1565b840190509392505050565b6000612d2a848484612cf0565b90509392505050565b600080fd5b600080fd5b600080fd5b60008083356001602003843603038112612d5f57612d5e612d3d565b5b83810192508235915060208301925067ffffffffffffffff821115612d8757612d86612d33565b5b600182023603841315612d9d57612d9c612d38565b5b509250929050565b6000602082019050919050565b6000612dbe8385612cd5565b935083602084028501612dd084612ce6565b8060005b87811015612e16578484038952612deb8284612d42565b612df6868284612d1d565b9550612e0184612da5565b935060208b019a505050600181019050612dd4565b50829750879450505050509392505050565b600060c082019050612e3d600083018b612509565b612e4a602083018a612518565b8181036040830152612e5d81888a612db2565b9050612e6c6060830187612509565b8181036080830152612e7f81858761297a565b9050612e8e60a0830184612509565b9998505050505050505050565b600081519050612eaa81611de4565b92915050565b600060208284031215612ec657612ec5611be0565b5b6000612ed484828501612e9b565b91505092915050565b600060a082019050612ef2600083018a612509565b612eff6020830189612518565b8181036040830152612f12818789612db2565b90508181036060830152612f2781858761297a565b9050612f366080830184612509565b98975050505050505050565b7f436c69656e7420616c7265616479206372656174656400000000000000000000600082015250565b6000612f78601683612527565b9150612f8382612f42565b602082019050919050565b60006020820190508181036000830152612fa781612f6b565b9050919050565b6000612fbd602084018461265f565b905092915050565b612fce81612634565b82525050565b60008083356001602003843603038112612ff157612ff0612d3d565b5b83810192508235915060208301925067ffffffffffffffff82111561301957613018612d33565b5b60018202360384131561302f5761302e612d38565b5b509250929050565b600082825260208201905092915050565b60006130548385613037565b935061306183858461296b565b61306a836121b1565b840190509392505050565b6000604083016130886000840184612fae565b6130956000860182612fc5565b506130a36020840184612fd4565b85830360208701526130b6838284613048565b925050508091505092915050565b7f6368616e6e656c2f706174682f746f2f62652f61646465642f68657265000000600082015250565b60006130fa601d836125c8565b9150613105826130c4565b602082019050919050565b6000608082019050818103600083015261312a8186612b25565b9050818103602083015261313e8185613075565b90508181036040830152613151816130ed565b9050818103606083015261316581846125d9565b9050949350505050565b7f4661696c20746f2070726f7665206368616e6e656c2073746174650000000000600082015250565b60006131a5601b83612527565b91506131b08261316f565b602082019050919050565b600060208201905081810360008301526131d481613198565b9050919050565b60006060820190506131f06000830186612509565b6131fd6020830185612509565b61320a6040830184612509565b949350505050565b7f4e487b7100000000000000000000000000000000000000000000000000000000600052604160045260246000fd5b61324a826121b1565b810181811067ffffffffffffffff8211171561326957613268613212565b5b80604052505050565b600061327c611bd6565b90506132888282613241565b919050565b600067ffffffffffffffff8211156132a8576132a7613212565b5b602082029050602081019050919050565b600080fd5b600067ffffffffffffffff8211156132d9576132d8613212565b5b6132e2826121b1565b9050602081019050919050565b60006133026132fd846132be565b613272565b90508281526020810184848401111561331e5761331d6132b9565b5b61332984828561296b565b509392505050565b600082601f83011261334657613345611d28565b5b81356133568482602086016132ef565b91505092915050565b600061337261336d8461328d565b613272565b9050808382526020820190506020840283018581111561339557613394611d32565b5b835b818110156133dc57803567ffffffffffffffff8111156133ba576133b9611d28565b5b8086016133c78982613331565b85526020850194505050602081019050613397565b5050509392505050565b60006133f336848461335f565b905092915050565b6000604082019050818103600083015261341681868861297a565b9050818103602083015261342b818486612db2565b905095945050505050565b60008235600160400383360303811261345257613451612d3d565b5b82810191505092915050565b600061346d6020840184611dfb565b905092915050565b6000604083016134886000840184612d42565b858303600087015261349b838284612cf0565b925050506134ac602084018461345e565b6134b960208601826120b0565b508091505092915050565b600082905092915050565b604082016134e06000830183612fae565b6134ed6000850182612fc5565b506134fb6020830183612fae565b6135086020850182612fc5565b50505050565b600060c083016135216000840184613436565b84820360008601526135338282613475565b9150506135436020840184613436565b84820360208601526135558282613475565b9150506135656040840184612fae565b6135726040860182612fc5565b506135806060840184612fd4565b8583036060870152613593838284613048565b925050506135a460808401846134c4565b6135b160808601826134cf565b508091505092915050565b600060208201905081810360008301526135d6818461350e565b905092915050565b7f4368616e6e656c206e6f74206f776e6564206279206d73672e73656e64657200600082015250565b6000613614601f83612527565b915061361f826135de565b602082019050919050565b6000602082019050818103600083015261364381613607565b9050919050565b600060608201905061365f6000830186612509565b81810360208301526136718185612538565b90506136806040830184612509565b949350505050565b7f4368616e6e656c206e6f74206f776e656420627920706f727441646472657373600082015250565b60006136be602083612527565b91506136c982613688565b602082019050919050565b600060208201905081810360008301526136ed816136b1565b9050919050565b6000604082019050818103600083015261370f8185876129a7565b905061371e60208301846129d4565b949350505050565b7f4f776e61626c653a206e6577206f776e657220697320746865207a65726f206160008201527f6464726573730000000000000000000000000000000000000000000000000000602082015250565b6000613782602683612527565b915061378d82613726565b604082019050919050565b600060208201905081810360008301526137b181613775565b9050919050565b7f4f776e61626c653a2063616c6c6572206973206e6f7420746865206f776e6572600082015250565b60006137ee602083612527565b91506137f9826137b8565b602082019050919050565b6000602082019050818103600083015261381d816137e1565b905091905056fe6578706563746564206368616e6e656c20627974657320636f6e73747275637465642066726f6d20706172616d732e204368616e6e656c2e5374617465203d207b41636b5f50656e64696e672c20436f6e6669726d5f50656e64696e677d6578706563746564206368616e6e656c20627974657320636f6e73747275637465642066726f6d20706172616d732e204368616e6e656c2e5374617465203d207b436c6f736564285f50656e64696e673f297da26469706673582212201ea3ea713fa7e02f5dbe53fedca58fa794f83a78cf97ba630c34156ae33123b064736f6c63430008090033",
  "linkReferences": {},
  "deployedLinkReferences": {}
}