{
  "_format": "hh-sol-artifact-1",
  "contractName": "Dispatcher",
  "sourceName": "contracts/Dispatcher.sol",
  "abi": [
    {
      "inputs": [
        {
          "internalType": "address",
          "name": "_verifier",
          "type": "address"
        }
      ],
      "stateMutability": "nonpayable",
      "type": "constructor"
    },
    {
      "anonymous": false,
      "inputs": [
        {
          "indexed": false,
          "internalType": "string",
          "name": "channelId",
          "type": "string"
        },
        {
          "indexed": true,
          "internalType": "address",
          "name": "portId",
          "type": "address"
        }
      ],
      "name": "CloseIbcChannel",
      "type": "event"
    },
    {
      "anonymous": false,
      "inputs": [
        {
          "indexed": false,
          "internalType": "string",
          "name": "channelId",
          "type": "string"
        },
        {
          "indexed": true,
          "internalType": "address",
          "name": "portId",
          "type": "address"
        },
        {
          "indexed": false,
          "internalType": "string",
          "name": "counterPartyChannelId",
          "type": "string"
        },
        {
          "indexed": false,
          "internalType": "string",
          "name": "counterPartyPortId",
          "type": "string"
        },
        {
          "indexed": false,
          "internalType": "string",
          "name": "counterPartyVersion",
          "type": "string"
        }
      ],
      "name": "ConnectIbcChannel",
      "type": "event"
    },
    {
      "anonymous": false,
      "inputs": [
        {
          "indexed": true,
          "internalType": "bytes32",
          "name": "srcChannelId",
          "type": "bytes32"
        },
        {
          "indexed": false,
          "internalType": "string",
          "name": "srcPortId",
          "type": "string"
        },
        {
          "indexed": true,
          "internalType": "bytes32",
          "name": "destChannelId",
          "type": "bytes32"
        },
        {
          "indexed": false,
          "internalType": "string",
          "name": "destPortId",
          "type": "string"
        },
        {
          "indexed": false,
          "internalType": "bytes",
          "name": "data",
          "type": "bytes"
        },
        {
          "indexed": false,
          "internalType": "uint64",
          "name": "sequence",
          "type": "uint64"
        }
      ],
      "name": "OnRecvPacket",
      "type": "event"
    },
    {
      "anonymous": false,
      "inputs": [
        {
          "indexed": true,
          "internalType": "address",
          "name": "portAddress",
          "type": "address"
        },
        {
          "indexed": true,
          "internalType": "bytes32",
          "name": "channelId",
          "type": "bytes32"
        },
        {
          "indexed": true,
          "internalType": "bytes32",
          "name": "counterpartyChannelId",
          "type": "bytes32"
        },
        {
          "indexed": false,
          "internalType": "string",
          "name": "version",
          "type": "string"
        },
        {
          "indexed": false,
          "internalType": "enum ChannelOrder",
          "name": "ordering",
          "type": "uint8"
        },
        {
          "indexed": false,
          "internalType": "string[]",
          "name": "connectionHops",
          "type": "string[]"
        },
        {
          "indexed": false,
          "internalType": "string",
          "name": "counterpartyPortId",
          "type": "string"
        },
        {
          "indexed": false,
          "internalType": "string",
          "name": "counterpartyVersion",
          "type": "string"
        }
      ],
      "name": "OpenIbcChannel",
      "type": "event"
    },
    {
      "anonymous": false,
      "inputs": [
        {
          "indexed": true,
          "internalType": "address",
          "name": "previousOwner",
          "type": "address"
        },
        {
          "indexed": true,
          "internalType": "address",
          "name": "newOwner",
          "type": "address"
        }
      ],
      "name": "OwnershipTransferred",
      "type": "event"
    },
    {
      "anonymous": false,
      "inputs": [
        {
          "indexed": true,
          "internalType": "address",
          "name": "portId",
          "type": "address"
        },
        {
          "indexed": true,
          "internalType": "bytes32",
          "name": "channelId",
          "type": "bytes32"
        },
        {
          "indexed": false,
          "internalType": "bytes",
          "name": "packet",
          "type": "bytes"
        },
        {
          "indexed": false,
          "internalType": "uint64",
          "name": "timeoutTimestamp",
          "type": "uint64"
        }
      ],
      "name": "SendPacket",
      "type": "event"
    },
    {
      "inputs": [
        {
          "internalType": "string",
          "name": "channelId",
          "type": "string"
        }
      ],
      "name": "closeIbcChannel",
      "outputs": [],
      "stateMutability": "nonpayable",
      "type": "function"
    },
    {
      "inputs": [
        {
          "internalType": "string",
          "name": "channelId",
          "type": "string"
        },
        {
          "internalType": "string",
          "name": "counterPartyChannelId",
          "type": "string"
        },
        {
          "internalType": "string",
          "name": "counterPartyPortId",
          "type": "string"
        },
        {
          "internalType": "string",
          "name": "counterPartyVersion",
          "type": "string"
        }
      ],
      "name": "connectIbcChannel",
      "outputs": [],
      "stateMutability": "nonpayable",
      "type": "function"
    },
    {
      "inputs": [
        {
          "internalType": "bytes",
          "name": "clientState",
          "type": "bytes"
        },
        {
          "internalType": "bytes",
          "name": "consensusState",
          "type": "bytes"
        }
      ],
      "name": "createClient",
      "outputs": [],
      "stateMutability": "nonpayable",
      "type": "function"
    },
    {
      "inputs": [],
      "name": "latestConsensusState",
      "outputs": [
        {
          "internalType": "bytes",
          "name": "",
          "type": "bytes"
        }
      ],
      "stateMutability": "view",
      "type": "function"
    },
    {
      "inputs": [
        {
          "internalType": "contract IbcReceiver",
          "name": "receiver",
          "type": "address"
        },
        {
          "components": [
            {
              "components": [
                {
                  "internalType": "string",
                  "name": "portId",
                  "type": "string"
                },
                {
                  "internalType": "bytes32",
                  "name": "channelId",
                  "type": "bytes32"
                }
              ],
              "internalType": "struct IbcEndpoint",
              "name": "src",
              "type": "tuple"
            },
            {
              "components": [
                {
                  "internalType": "string",
                  "name": "portId",
                  "type": "string"
                },
                {
                  "internalType": "bytes32",
                  "name": "channelId",
                  "type": "bytes32"
                }
              ],
              "internalType": "struct IbcEndpoint",
              "name": "dest",
              "type": "tuple"
            },
            {
              "internalType": "uint64",
              "name": "sequence",
              "type": "uint64"
            },
            {
              "internalType": "bytes",
              "name": "data",
              "type": "bytes"
            },
            {
              "components": [
                {
                  "internalType": "uint64",
                  "name": "block",
                  "type": "uint64"
                },
                {
                  "internalType": "uint64",
                  "name": "timestamp",
                  "type": "uint64"
                }
              ],
              "internalType": "struct IbcTimeout",
              "name": "timeout",
              "type": "tuple"
            }
          ],
          "internalType": "struct IbcPacket",
          "name": "packet",
          "type": "tuple"
        },
        {
          "internalType": "bytes",
          "name": "acknowledgement",
          "type": "bytes"
        },
        {
          "components": [
            {
              "internalType": "bytes",
              "name": "keyPath",
              "type": "bytes"
            },
            {
              "internalType": "bytes",
              "name": "value",
              "type": "bytes"
            },
            {
              "internalType": "bytes",
              "name": "proof",
              "type": "bytes"
            }
          ],
          "internalType": "struct Proof",
          "name": "proof",
          "type": "tuple"
        }
      ],
      "name": "onAcknowledgementPacket",
      "outputs": [],
      "stateMutability": "nonpayable",
      "type": "function"
    },
    {
      "inputs": [
        {
          "internalType": "contract IbcReceiver",
          "name": "receiver",
          "type": "address"
        },
        {
          "internalType": "string",
          "name": "channelId",
          "type": "string"
        },
        {
          "components": [
            {
              "internalType": "bytes",
              "name": "keyPath",
              "type": "bytes"
            },
            {
              "internalType": "bytes",
              "name": "value",
              "type": "bytes"
            },
            {
              "internalType": "bytes",
              "name": "proof",
              "type": "bytes"
            }
          ],
          "internalType": "struct Proof",
          "name": "proof",
          "type": "tuple"
        },
        {
          "internalType": "string",
          "name": "error",
          "type": "string"
        }
      ],
      "name": "onCloseIbcChannel",
      "outputs": [],
      "stateMutability": "nonpayable",
      "type": "function"
    },
    {
      "inputs": [
        {
          "internalType": "contract IbcReceiver",
          "name": "receiver",
          "type": "address"
        },
        {
          "internalType": "string",
          "name": "channelId",
          "type": "string"
        },
        {
          "components": [
            {
              "internalType": "bytes",
              "name": "keyPath",
              "type": "bytes"
            },
            {
              "internalType": "bytes",
              "name": "value",
              "type": "bytes"
            },
            {
              "internalType": "bytes",
              "name": "proof",
              "type": "bytes"
            }
          ],
          "internalType": "struct Proof",
          "name": "proof",
          "type": "tuple"
        },
        {
          "internalType": "string",
          "name": "error",
          "type": "string"
        }
      ],
      "name": "onConnectIbcChannel",
      "outputs": [],
      "stateMutability": "nonpayable",
      "type": "function"
    },
    {
      "inputs": [
        {
          "internalType": "contract IbcReceiver",
          "name": "receiver",
          "type": "address"
        },
        {
          "components": [
            {
              "components": [
                {
                  "internalType": "string",
                  "name": "portId",
                  "type": "string"
                },
                {
                  "internalType": "bytes32",
                  "name": "channelId",
                  "type": "bytes32"
                }
              ],
              "internalType": "struct IbcEndpoint",
              "name": "src",
              "type": "tuple"
            },
            {
              "components": [
                {
                  "internalType": "string",
                  "name": "portId",
                  "type": "string"
                },
                {
                  "internalType": "bytes32",
                  "name": "channelId",
                  "type": "bytes32"
                }
              ],
              "internalType": "struct IbcEndpoint",
              "name": "dest",
              "type": "tuple"
            },
            {
              "internalType": "uint64",
              "name": "sequence",
              "type": "uint64"
            },
            {
              "internalType": "bytes",
              "name": "data",
              "type": "bytes"
            },
            {
              "components": [
                {
                  "internalType": "uint64",
                  "name": "block",
                  "type": "uint64"
                },
                {
                  "internalType": "uint64",
                  "name": "timestamp",
                  "type": "uint64"
                }
              ],
              "internalType": "struct IbcTimeout",
              "name": "timeout",
              "type": "tuple"
            }
          ],
          "internalType": "struct IbcPacket",
          "name": "packet",
          "type": "tuple"
        },
        {
          "components": [
            {
              "internalType": "bytes",
              "name": "keyPath",
              "type": "bytes"
            },
            {
              "internalType": "bytes",
              "name": "value",
              "type": "bytes"
            },
            {
              "internalType": "bytes",
              "name": "proof",
              "type": "bytes"
            }
          ],
          "internalType": "struct Proof",
          "name": "proof",
          "type": "tuple"
        }
      ],
      "name": "onRecvPacket",
      "outputs": [],
      "stateMutability": "nonpayable",
      "type": "function"
    },
    {
      "inputs": [
        {
          "internalType": "contract IbcReceiver",
          "name": "receiver",
          "type": "address"
        },
        {
          "components": [
            {
              "components": [
                {
                  "internalType": "string",
                  "name": "portId",
                  "type": "string"
                },
                {
                  "internalType": "bytes32",
                  "name": "channelId",
                  "type": "bytes32"
                }
              ],
              "internalType": "struct IbcEndpoint",
              "name": "src",
              "type": "tuple"
            },
            {
              "components": [
                {
                  "internalType": "string",
                  "name": "portId",
                  "type": "string"
                },
                {
                  "internalType": "bytes32",
                  "name": "channelId",
                  "type": "bytes32"
                }
              ],
              "internalType": "struct IbcEndpoint",
              "name": "dest",
              "type": "tuple"
            },
            {
              "internalType": "uint64",
              "name": "sequence",
              "type": "uint64"
            },
            {
              "internalType": "bytes",
              "name": "data",
              "type": "bytes"
            },
            {
              "components": [
                {
                  "internalType": "uint64",
                  "name": "block",
                  "type": "uint64"
                },
                {
                  "internalType": "uint64",
                  "name": "timestamp",
                  "type": "uint64"
                }
              ],
              "internalType": "struct IbcTimeout",
              "name": "timeout",
              "type": "tuple"
            }
          ],
          "internalType": "struct IbcPacket",
          "name": "packet",
          "type": "tuple"
        },
        {
          "components": [
            {
              "internalType": "bytes",
              "name": "keyPath",
              "type": "bytes"
            },
            {
              "internalType": "bytes",
              "name": "value",
              "type": "bytes"
            },
            {
              "internalType": "bytes",
              "name": "proof",
              "type": "bytes"
            }
          ],
          "internalType": "struct Proof",
          "name": "proof",
          "type": "tuple"
        }
      ],
      "name": "onTimeoutPacket",
      "outputs": [],
      "stateMutability": "nonpayable",
      "type": "function"
    },
    {
      "inputs": [
        {
          "internalType": "address",
          "name": "portAddress",
          "type": "address"
        },
        {
          "internalType": "string",
          "name": "version",
          "type": "string"
        },
        {
          "internalType": "enum ChannelOrder",
          "name": "ordering",
          "type": "uint8"
        },
        {
          "internalType": "string[]",
          "name": "connectionHops",
          "type": "string[]"
        },
        {
          "internalType": "bytes32",
          "name": "counterpartyChannelId",
          "type": "bytes32"
        },
        {
          "internalType": "string",
          "name": "counterpartyPortId",
          "type": "string"
        },
        {
          "internalType": "string",
          "name": "counterpartyVersion",
          "type": "string"
        }
      ],
      "name": "openIbcChannel",
      "outputs": [],
      "stateMutability": "nonpayable",
      "type": "function"
    },
    {
      "inputs": [],
      "name": "owner",
      "outputs": [
        {
          "internalType": "address",
          "name": "",
          "type": "address"
        }
      ],
      "stateMutability": "view",
      "type": "function"
    },
    {
      "inputs": [],
      "name": "renounceOwnership",
      "outputs": [],
      "stateMutability": "nonpayable",
      "type": "function"
    },
    {
      "inputs": [
        {
          "internalType": "bytes32",
          "name": "channelId",
          "type": "bytes32"
        },
        {
          "internalType": "bytes",
          "name": "packet",
          "type": "bytes"
        },
        {
          "internalType": "uint64",
          "name": "timeoutTimestamp",
          "type": "uint64"
        }
      ],
      "name": "sendPacket",
      "outputs": [],
      "stateMutability": "nonpayable",
      "type": "function"
    },
    {
      "inputs": [
        {
          "internalType": "address",
          "name": "newOwner",
          "type": "address"
        }
      ],
      "name": "transferOwnership",
      "outputs": [],
      "stateMutability": "nonpayable",
      "type": "function"
    },
    {
      "inputs": [
        {
          "internalType": "bytes",
          "name": "consensusState",
          "type": "bytes"
        }
      ],
      "name": "updateClient",
      "outputs": [],
      "stateMutability": "nonpayable",
      "type": "function"
    },
    {
      "inputs": [],
      "name": "verifier",
      "outputs": [
        {
          "internalType": "contract ZKMintVerifier",
          "name": "",
          "type": "address"
        }
      ],
      "stateMutability": "view",
      "type": "function"
    }
  ],
  "bytecode": "0x60806040526000600360006101000a81548167ffffffffffffffff021916908367ffffffffffffffff1602179055503480156200003b57600080fd5b5060405162002b8e38038062002b8e83398181016040528101906200006191906200021a565b6200008162000075620000e460201b60201c565b620000ec60201b60201c565b80600160006101000a81548173ffffffffffffffffffffffffffffffffffffffff021916908373ffffffffffffffffffffffffffffffffffffffff1602179055506000600160146101000a81548160ff021916908315150217905550506200024c565b600033905090565b60008060009054906101000a900473ffffffffffffffffffffffffffffffffffffffff169050816000806101000a81548173ffffffffffffffffffffffffffffffffffffffff021916908373ffffffffffffffffffffffffffffffffffffffff1602179055508173ffffffffffffffffffffffffffffffffffffffff168173ffffffffffffffffffffffffffffffffffffffff167f8be0079c531659141344cd1fd0a4f28419497f9722a3daafe3b4186f6b6457e060405160405180910390a35050565b600080fd5b600073ffffffffffffffffffffffffffffffffffffffff82169050919050565b6000620001e282620001b5565b9050919050565b620001f481620001d5565b81146200020057600080fd5b50565b6000815190506200021481620001e9565b92915050565b600060208284031215620002335762000232620001b0565b5b6000620002438482850162000203565b91505092915050565b612932806200025c6000396000f3fe608060405234801561001057600080fd5b50600436106101005760003560e01c80638da5cb5b11610097578063d12f3e4e11610066578063d12f3e4e14610249578063dc44310014610265578063e6815c1214610281578063f2fde38b1461029d57610100565b80638da5cb5b146101d5578063c2a2514d146101f3578063c3e1155c14610211578063ca1288ed1461022d57610100565b80633e24aaf3116100d35780633e24aaf31461017757806370c5dd5314610193578063715018a6146101af5780638b116848146101b957610100565b806303941ec5146101055780630bece35614610121578063260012e81461013d5780632b7ac3f314610159575b600080fd5b61011f600480360381019061011a9190611254565b6102b9565b005b61013b60048036038101906101369190611314565b610373565b005b61015760048036038101906101529190611361565b6104c6565b005b6101616105d8565b60405161016e919061144b565b60405180910390f35b610191600480360381019061018c9190611466565b6105fe565b005b6101ad60048036038101906101a8919061153d565b610688565b005b6101b7610749565b005b6101d360048036038101906101ce919061153d565b61075d565b005b6101dd61081e565b6040516101ea919061160f565b60405180910390f35b6101fb610847565b60405161020891906116c3565b60405180910390f35b61022b6004803603810190610226919061175b565b6108d5565b005b610247600480360381019061024291906117cf565b61092e565b005b610263600480360381019061025e919061195f565b610994565b005b61027f600480360381019061027a9190611361565b610b30565b005b61029b60048036038101906102969190611a83565b610be8565b005b6102b760048036038101906102b29190611ad0565b610c3c565b005b6102c281610cc0565b610301576040517f08c379a00000000000000000000000000000000000000000000000000000000081526004016102f890611b5a565b60405180910390fd5b8473ffffffffffffffffffffffffffffffffffffffff1663f45cf5e4856040518263ffffffff1660e01b815260040161033a9190611e95565b600060405180830381600087803b15801561035457600080fd5b505af1158015610368573d6000803e3d6000fd5b505050505050505050565b600160149054906101000a900460ff166103c2576040517f08c379a00000000000000000000000000000000000000000000000000000000081526004016103b990611f03565b60405180910390fd5b600160009054906101000a900473ffffffffffffffffffffffffffffffffffffffff1673ffffffffffffffffffffffffffffffffffffffff16638e760afe83836040518363ffffffff1660e01b815260040161041f929190611f50565b602060405180830381600087803b15801561043957600080fd5b505af115801561044d573d6000803e3d6000fd5b505050506040513d601f19601f820116820180604052508101906104719190611fac565b6104b0576040517f08c379a00000000000000000000000000000000000000000000000000000000081526004016104a79061204b565b60405180910390fd5b8181600291906104c192919061108f565b505050565b6104cf81610cc0565b61050e576040517f08c379a000000000000000000000000000000000000000000000000000000000815260040161050590611b5a565b60405180910390fd5b81806020019061051e919061207a565b60200135828060000190610532919061207a565b602001357f080631928e492258b6a102fc2ab3e0a8dfcb747ab0885c25f9cb7a8d48621036848060000190610567919061207a565b806000019061057691906120a2565b868060200190610586919061207a565b806000019061059591906120a2565b8880606001906105a59190612105565b8a60400160208101906105b89190612168565b6040516105cb97969594939291906121d1565b60405180910390a3505050565b600160009054906101000a900473ffffffffffffffffffffffffffffffffffffffff1681565b610606610cee565b600160149054906101000a900460ff1615610656576040517f08c379a000000000000000000000000000000000000000000000000000000000815260040161064d9061227d565b60405180910390fd5b60018060146101000a81548160ff02191690831515021790555081816002919061068192919061108f565b5050505050565b61069183610cc0565b6106d0576040517f08c379a00000000000000000000000000000000000000000000000000000000081526004016106c790611b5a565b60405180910390fd5b8573ffffffffffffffffffffffffffffffffffffffff16630a845081868685856040518563ffffffff1660e01b815260040161070f949392919061229d565b600060405180830381600087803b15801561072957600080fd5b505af115801561073d573d6000803e3d6000fd5b50505050505050505050565b610751610cee565b61075b6000610d6c565b565b61076683610cc0565b6107a5576040517f08c379a000000000000000000000000000000000000000000000000000000000815260040161079c90611b5a565b60405180910390fd5b8573ffffffffffffffffffffffffffffffffffffffff16636afd6174868685856040518563ffffffff1660e01b81526004016107e4949392919061229d565b600060405180830381600087803b1580156107fe57600080fd5b505af1158015610812573d6000803e3d6000fd5b50505050505050505050565b60008060009054906101000a900473ffffffffffffffffffffffffffffffffffffffff16905090565b6002805461085490612307565b80601f016020809104026020016040519081016040528092919081815260200182805461088090612307565b80156108cd5780601f106108a2576101008083540402835291602001916108cd565b820191906000526020600020905b8154815290600101906020018083116108b057829003601f168201915b505050505081565b833373ffffffffffffffffffffffffffffffffffffffff167fe5f4762afde15256ce24aa385b449d27b7d2776921f3c673f8162ddb5b7a2f1685858560405161092093929190612339565b60405180910390a350505050565b3373ffffffffffffffffffffffffffffffffffffffff167fd38dbe544e1f1277b020a61acc0dd2cf9ddcf99471a49a288a3ada57f3206a73898989898989898960405161098298979695949392919061236b565b60405180910390a25050505050505050565b60008b90506000610a376040518060400160405280600881526020017f6368616e6e656c2d000000000000000000000000000000000000000000000000815250610a326003600081819054906101000a900467ffffffffffffffff16809291906109fd90612403565b91906101000a81548167ffffffffffffffff021916908367ffffffffffffffff16021790555067ffffffffffffffff16610e30565b610f08565b610a4090612466565b90508173ffffffffffffffffffffffffffffffffffffffff166352e33bf3828e8e8e8e8e8e8e8e8e8e6040518c63ffffffff1660e01b8152600401610a8f9b9a99989796959493929190612607565b600060405180830381600087803b158015610aa957600080fd5b505af1158015610abd573d6000803e3d6000fd5b5050505086818e73ffffffffffffffffffffffffffffffffffffffff167f8f8282a394b616ee15e772e7a9e7cc7376706676c97ee903789a8d503e82f1f98f8f8f8f8f8e8e8e8e604051610b199998979695949392919061269a565b60405180910390a450505050505050505050505050565b610b3981610cc0565b610b78576040517f08c379a0000000000000000000000000000000000000000000000000000000008152600401610b6f90611b5a565b60405180910390fd5b8273ffffffffffffffffffffffffffffffffffffffff1663b33c2577836040518263ffffffff1660e01b8152600401610bb19190611e95565b600060405180830381600087803b158015610bcb57600080fd5b505af1158015610bdf573d6000803e3d6000fd5b50505050505050565b3373ffffffffffffffffffffffffffffffffffffffff167f18280cf62c6d3f3519d7cff5c5b7e91021dd17a0278ba5668976d82bdc9faa9e8383604051610c30929190612711565b60405180910390a25050565b610c44610cee565b600073ffffffffffffffffffffffffffffffffffffffff168173ffffffffffffffffffffffffffffffffffffffff161415610cb4576040517f08c379a0000000000000000000000000000000000000000000000000000000008152600401610cab906127a7565b60405180910390fd5b610cbd81610d6c565b50565b600080828060400190610cd39190612105565b90501415610ce45760009050610ce9565b600190505b919050565b610cf6610f34565b73ffffffffffffffffffffffffffffffffffffffff16610d1461081e565b73ffffffffffffffffffffffffffffffffffffffff1614610d6a576040517f08c379a0000000000000000000000000000000000000000000000000000000008152600401610d6190612813565b60405180910390fd5b565b60008060009054906101000a900473ffffffffffffffffffffffffffffffffffffffff169050816000806101000a81548173ffffffffffffffffffffffffffffffffffffffff021916908373ffffffffffffffffffffffffffffffffffffffff1602179055508173ffffffffffffffffffffffffffffffffffffffff168173ffffffffffffffffffffffffffffffffffffffff167f8be0079c531659141344cd1fd0a4f28419497f9722a3daafe3b4186f6b6457e060405160405180910390a35050565b606060006001610e3f84610f3c565b01905060008167ffffffffffffffff811115610e5e57610e5d612833565b5b6040519080825280601f01601f191660200182016040528015610e905781602001600182028036833780820191505090505b509050600082602001820190505b600115610efd578080600190039150507f3031323334353637383961626364656600000000000000000000000000000000600a86061a8153600a8581610ee757610ee6612862565b5b0494506000851415610ef857610efd565b610e9e565b819350505050919050565b60608282604051602001610f1d9291906128d8565b604051602081830303815290604052905092915050565b600033905090565b600080600090507a184f03e93ff9f4daa797ed6e38ed64bf6a1f0100000000000000008310610f9a577a184f03e93ff9f4daa797ed6e38ed64bf6a1f0100000000000000008381610f9057610f8f612862565b5b0492506040810190505b6d04ee2d6d415b85acef81000000008310610fd7576d04ee2d6d415b85acef81000000008381610fcd57610fcc612862565b5b0492506020810190505b662386f26fc10000831061100657662386f26fc100008381610ffc57610ffb612862565b5b0492506010810190505b6305f5e100831061102f576305f5e100838161102557611024612862565b5b0492506008810190505b612710831061105457612710838161104a57611049612862565b5b0492506004810190505b60648310611077576064838161106d5761106c612862565b5b0492506002810190505b600a8310611086576001810190505b80915050919050565b82805461109b90612307565b90600052602060002090601f0160209004810192826110bd5760008555611104565b82601f106110d657803560ff1916838001178555611104565b82800160010185558215611104579182015b828111156111035782358255916020019190600101906110e8565b5b5090506111119190611115565b5090565b5b8082111561112e576000816000905550600101611116565b5090565b600080fd5b600080fd5b600073ffffffffffffffffffffffffffffffffffffffff82169050919050565b60006111678261113c565b9050919050565b60006111798261115c565b9050919050565b6111898161116e565b811461119457600080fd5b50565b6000813590506111a681611180565b92915050565b600080fd5b600060c082840312156111c7576111c66111ac565b5b81905092915050565b600080fd5b600080fd5b600080fd5b60008083601f8401126111f5576111f46111d0565b5b8235905067ffffffffffffffff811115611212576112116111d5565b5b60208301915083600182028301111561122e5761122d6111da565b5b9250929050565b60006060828403121561124b5761124a6111ac565b5b81905092915050565b6000806000806000608086880312156112705761126f611132565b5b600061127e88828901611197565b955050602086013567ffffffffffffffff81111561129f5761129e611137565b5b6112ab888289016111b1565b945050604086013567ffffffffffffffff8111156112cc576112cb611137565b5b6112d8888289016111df565b9350935050606086013567ffffffffffffffff8111156112fb576112fa611137565b5b61130788828901611235565b9150509295509295909350565b6000806020838503121561132b5761132a611132565b5b600083013567ffffffffffffffff81111561134957611348611137565b5b611355858286016111df565b92509250509250929050565b60008060006060848603121561137a57611379611132565b5b600061138886828701611197565b935050602084013567ffffffffffffffff8111156113a9576113a8611137565b5b6113b5868287016111b1565b925050604084013567ffffffffffffffff8111156113d6576113d5611137565b5b6113e286828701611235565b9150509250925092565b6000819050919050565b600061141161140c6114078461113c565b6113ec565b61113c565b9050919050565b6000611423826113f6565b9050919050565b600061143582611418565b9050919050565b6114458161142a565b82525050565b6000602082019050611460600083018461143c565b92915050565b600080600080604085870312156114805761147f611132565b5b600085013567ffffffffffffffff81111561149e5761149d611137565b5b6114aa878288016111df565b9450945050602085013567ffffffffffffffff8111156114cd576114cc611137565b5b6114d9878288016111df565b925092505092959194509250565b60008083601f8401126114fd576114fc6111d0565b5b8235905067ffffffffffffffff81111561151a576115196111d5565b5b602083019150836001820283011115611536576115356111da565b5b9250929050565b6000806000806000806080878903121561155a57611559611132565b5b600061156889828a01611197565b965050602087013567ffffffffffffffff81111561158957611588611137565b5b61159589828a016114e7565b9550955050604087013567ffffffffffffffff8111156115b8576115b7611137565b5b6115c489828a01611235565b935050606087013567ffffffffffffffff8111156115e5576115e4611137565b5b6115f189828a016114e7565b92509250509295509295509295565b6116098161115c565b82525050565b60006020820190506116246000830184611600565b92915050565b600081519050919050565b600082825260208201905092915050565b60005b83811015611664578082015181840152602081019050611649565b83811115611673576000848401525b50505050565b6000601f19601f8301169050919050565b60006116958261162a565b61169f8185611635565b93506116af818560208601611646565b6116b881611679565b840191505092915050565b600060208201905081810360008301526116dd818461168a565b905092915050565b6000819050919050565b6116f8816116e5565b811461170357600080fd5b50565b600081359050611715816116ef565b92915050565b600067ffffffffffffffff82169050919050565b6117388161171b565b811461174357600080fd5b50565b6000813590506117558161172f565b92915050565b6000806000806060858703121561177557611774611132565b5b600061178387828801611706565b945050602085013567ffffffffffffffff8111156117a4576117a3611137565b5b6117b0878288016111df565b935093505060406117c387828801611746565b91505092959194509250565b6000806000806000806000806080898b0312156117ef576117ee611132565b5b600089013567ffffffffffffffff81111561180d5761180c611137565b5b6118198b828c016114e7565b9850985050602089013567ffffffffffffffff81111561183c5761183b611137565b5b6118488b828c016114e7565b9650965050604089013567ffffffffffffffff81111561186b5761186a611137565b5b6118778b828c016114e7565b9450945050606089013567ffffffffffffffff81111561189a57611899611137565b5b6118a68b828c016114e7565b92509250509295985092959890939650565b6118c18161115c565b81146118cc57600080fd5b50565b6000813590506118de816118b8565b92915050565b600281106118f157600080fd5b50565b600081359050611903816118e4565b92915050565b60008083601f84011261191f5761191e6111d0565b5b8235905067ffffffffffffffff81111561193c5761193b6111d5565b5b602083019150836020820283011115611958576119576111da565b5b9250929050565b600080600080600080600080600080600060e08c8e03121561198457611983611132565b5b60006119928e828f016118cf565b9b505060208c013567ffffffffffffffff8111156119b3576119b2611137565b5b6119bf8e828f016114e7565b9a509a505060406119d28e828f016118f4565b98505060608c013567ffffffffffffffff8111156119f3576119f2611137565b5b6119ff8e828f01611909565b97509750506080611a128e828f01611706565b95505060a08c013567ffffffffffffffff811115611a3357611a32611137565b5b611a3f8e828f016114e7565b945094505060c08c013567ffffffffffffffff811115611a6257611a61611137565b5b611a6e8e828f016114e7565b92509250509295989b509295989b9093969950565b60008060208385031215611a9a57611a99611132565b5b600083013567ffffffffffffffff811115611ab857611ab7611137565b5b611ac4858286016114e7565b92509250509250929050565b600060208284031215611ae657611ae5611132565b5b6000611af4848285016118cf565b91505092915050565b600082825260208201905092915050565b7f50726f6f6620766572696669636174696f6e206661696c656400000000000000600082015250565b6000611b44601983611afd565b9150611b4f82611b0e565b602082019050919050565b60006020820190508181036000830152611b7381611b37565b9050919050565b600080fd5b600082356001604003833603038112611b9b57611b9a611b7a565b5b82810191505092915050565b600080fd5b600080fd5b60008083356001602003843603038112611bce57611bcd611b7a565b5b83810192508235915060208301925067ffffffffffffffff821115611bf657611bf5611ba7565b5b600182023603841315611c0c57611c0b611bac565b5b509250929050565b600082825260208201905092915050565b82818337600083830152505050565b6000611c408385611c14565b9350611c4d838584611c25565b611c5683611679565b840190509392505050565b6000611c706020840184611706565b905092915050565b611c81816116e5565b82525050565b600060408301611c9a6000840184611bb1565b8583036000870152611cad838284611c34565b92505050611cbe6020840184611c61565b611ccb6020860182611c78565b508091505092915050565b6000611ce56020840184611746565b905092915050565b611cf68161171b565b82525050565b60008083356001602003843603038112611d1957611d18611b7a565b5b83810192508235915060208301925067ffffffffffffffff821115611d4157611d40611ba7565b5b600182023603841315611d5757611d56611bac565b5b509250929050565b600082825260208201905092915050565b6000611d7c8385611d5f565b9350611d89838584611c25565b611d9283611679565b840190509392505050565b600082905092915050565b60408201611db96000830183611cd6565b611dc66000850182611ced565b50611dd46020830183611cd6565b611de16020850182611ced565b50505050565b600060c08301611dfa6000840184611b7f565b8482036000860152611e0c8282611c87565b915050611e1c6020840184611b7f565b8482036020860152611e2e8282611c87565b915050611e3e6040840184611cd6565b611e4b6040860182611ced565b50611e596060840184611cfc565b8583036060870152611e6c838284611d70565b92505050611e7d6080840184611d9d565b611e8a6080860182611da8565b508091505092915050565b60006020820190508181036000830152611eaf8184611de7565b905092915050565b7f436c69656e74206e6f7420637265617465640000000000000000000000000000600082015250565b6000611eed601283611afd565b9150611ef882611eb7565b602082019050919050565b60006020820190508181036000830152611f1c81611ee0565b9050919050565b6000611f2f8385611635565b9350611f3c838584611c25565b611f4583611679565b840190509392505050565b60006020820190508181036000830152611f6b818486611f23565b90509392505050565b60008115159050919050565b611f8981611f74565b8114611f9457600080fd5b50565b600081519050611fa681611f80565b92915050565b600060208284031215611fc257611fc1611132565b5b6000611fd084828501611f97565b91505092915050565b7f436f6e73656e73757320737461746520766572696669636174696f6e2066616960008201527f6c65640000000000000000000000000000000000000000000000000000000000602082015250565b6000612035602383611afd565b915061204082611fd9565b604082019050919050565b6000602082019050818103600083015261206481612028565b9050919050565b600080fd5b600080fd5b600080fd5b6000823560016040038336030381126120965761209561206b565b5b80830191505092915050565b600080833560016020038436030381126120bf576120be61206b565b5b80840192508235915067ffffffffffffffff8211156120e1576120e0612070565b5b6020830192506001820236038313156120fd576120fc612075565b5b509250929050565b600080833560016020038436030381126121225761212161206b565b5b80840192508235915067ffffffffffffffff82111561214457612143612070565b5b6020830192506001820236038313156121605761215f612075565b5b509250929050565b60006020828403121561217e5761217d611132565b5b600061218c84828501611746565b91505092915050565b60006121a18385611afd565b93506121ae838584611c25565b6121b783611679565b840190509392505050565b6121cb8161171b565b82525050565b600060808201905081810360008301526121ec81898b612195565b90508181036020830152612201818789612195565b90508181036040830152612216818587611f23565b905061222560608301846121c2565b98975050505050505050565b7f436c69656e7420616c7265616479206372656174656400000000000000000000600082015250565b6000612267601683611afd565b915061227282612231565b602082019050919050565b600060208201905081810360008301526122968161225a565b9050919050565b600060408201905081810360008301526122b8818688612195565b905081810360208301526122cd818486612195565b905095945050505050565b7f4e487b7100000000000000000000000000000000000000000000000000000000600052602260045260246000fd5b6000600282049050600182168061231f57607f821691505b60208210811415612333576123326122d8565b5b50919050565b60006040820190508181036000830152612354818587611f23565b905061236360208301846121c2565b949350505050565b60006080820190508181036000830152612386818a8c612195565b9050818103602083015261239b81888a612195565b905081810360408301526123b0818688612195565b905081810360608301526123c5818486612195565b90509998505050505050505050565b7f4e487b7100000000000000000000000000000000000000000000000000000000600052601160045260246000fd5b600061240e8261171b565b915067ffffffffffffffff821415612429576124286123d4565b5b600182019050919050565b6000819050602082019050919050565b600061245082516116e5565b80915050919050565b600082821b905092915050565b60006124718261162a565b8261247b84612434565b905061248681612444565b925060208210156124c6576124c17fffffffffffffffffffffffffffffffffffffffffffffffffffffffffffffffff83602003600802612459565b831692505b5050919050565b6124d6816116e5565b82525050565b7f4e487b7100000000000000000000000000000000000000000000000000000000600052602160045260246000fd5b6002811061251c5761251b6124dc565b5b50565b600081905061252d8261250b565b919050565b600061253d8261251f565b9050919050565b61254d81612532565b82525050565b600082825260208201905092915050565b6000819050919050565b600061257b848484611c34565b90509392505050565b6000602082019050919050565b600061259d8385612553565b9350836020840285016125af84612564565b8060005b878110156125f55784840389526125ca8284611bb1565b6125d586828461256e565b95506125e084612584565b935060208b019a5050506001810190506125b3565b50829750879450505050509392505050565b600060e08201905061261c600083018e6124cd565b818103602083015261262f818c8e612195565b905061263e604083018b612544565b818103606083015261265181898b612591565b905061266060808301886124cd565b81810360a0830152612673818688612195565b905081810360c0830152612688818486612195565b90509c9b505050505050505050505050565b600060a08201905081810360008301526126b5818b8d612195565b90506126c4602083018a612544565b81810360408301526126d781888a612591565b905081810360608301526126ec818688612195565b90508181036080830152612701818486612195565b90509a9950505050505050505050565b6000602082019050818103600083015261272c818486612195565b90509392505050565b7f4f776e61626c653a206e6577206f776e657220697320746865207a65726f206160008201527f6464726573730000000000000000000000000000000000000000000000000000602082015250565b6000612791602683611afd565b915061279c82612735565b604082019050919050565b600060208201905081810360008301526127c081612784565b9050919050565b7f4f776e61626c653a2063616c6c6572206973206e6f7420746865206f776e6572600082015250565b60006127fd602083611afd565b9150612808826127c7565b602082019050919050565b6000602082019050818103600083015261282c816127f0565b9050919050565b7f4e487b7100000000000000000000000000000000000000000000000000000000600052604160045260246000fd5b7f4e487b7100000000000000000000000000000000000000000000000000000000600052601260045260246000fd5b600081519050919050565b600081905092915050565b60006128b282612891565b6128bc818561289c565b93506128cc818560208601611646565b80840191505092915050565b60006128e482856128a7565b91506128f082846128a7565b9150819050939250505056fea2646970667358221220513d02af3afef684a1cb7b863555be774dccbfb8811a3aaa544d3f4886e0315364736f6c63430008090033",
  "linkReferences": {},
  "deployedLinkReferences": {}
}