{
  "_format": "hh-sol-artifact-1",
  "contractName": "Dispatcher",
  "sourceName": "contracts/Dispatcher.sol",
  "abi": [
    {
      "inputs": [
        {
          "internalType": "contract ZKMintVerifier",
          "name": "_verifier",
          "type": "address"
        }
      ],
      "stateMutability": "nonpayable",
      "type": "constructor"
    },
    {
      "anonymous": false,
      "inputs": [
        {
          "indexed": true,
          "internalType": "address",
          "name": "portAddress",
          "type": "address"
        },
        {
          "indexed": true,
          "internalType": "bytes32",
          "name": "channelId",
          "type": "bytes32"
        }
      ],
      "name": "CloseIbcChannel",
      "type": "event"
    },
    {
      "anonymous": false,
      "inputs": [
        {
          "indexed": true,
          "internalType": "address",
          "name": "portAddress",
          "type": "address"
        },
        {
          "indexed": true,
          "internalType": "bytes32",
          "name": "channelId",
          "type": "bytes32"
        },
        {
          "indexed": false,
          "internalType": "string",
          "name": "counterpartyPortId",
          "type": "string"
        },
        {
          "indexed": true,
          "internalType": "bytes32",
          "name": "counterpartyChannelId",
          "type": "bytes32"
        },
        {
          "indexed": false,
          "internalType": "string[]",
          "name": "connectionHops",
          "type": "string[]"
        }
      ],
      "name": "ConnectIbcChannel",
      "type": "event"
    },
    {
      "anonymous": false,
      "inputs": [
        {
          "indexed": true,
          "internalType": "bytes32",
          "name": "srcChannelId",
          "type": "bytes32"
        },
        {
          "indexed": false,
          "internalType": "string",
          "name": "srcPortId",
          "type": "string"
        },
        {
          "indexed": true,
          "internalType": "bytes32",
          "name": "destChannelId",
          "type": "bytes32"
        },
        {
          "indexed": false,
          "internalType": "string",
          "name": "destPortId",
          "type": "string"
        },
        {
          "indexed": false,
          "internalType": "bytes",
          "name": "data",
          "type": "bytes"
        },
        {
          "indexed": false,
          "internalType": "uint64",
          "name": "sequence",
          "type": "uint64"
        }
      ],
      "name": "OnRecvPacket",
      "type": "event"
    },
    {
      "anonymous": false,
      "inputs": [
        {
          "indexed": true,
          "internalType": "address",
          "name": "portAddress",
          "type": "address"
        },
        {
          "indexed": true,
          "internalType": "bytes32",
          "name": "counterpartyChannelId",
          "type": "bytes32"
        },
        {
          "indexed": false,
          "internalType": "bytes32",
          "name": "version",
          "type": "bytes32"
        },
        {
          "indexed": false,
          "internalType": "enum ChannelOrder",
          "name": "ordering",
          "type": "uint8"
        },
        {
          "indexed": false,
          "internalType": "string[]",
          "name": "connectionHops",
          "type": "string[]"
        },
        {
          "indexed": false,
          "internalType": "string",
          "name": "counterpartyPortId",
          "type": "string"
        },
        {
          "indexed": false,
          "internalType": "bytes32",
          "name": "counterpartyVersion",
          "type": "bytes32"
        }
      ],
      "name": "OpenIbcChannel",
      "type": "event"
    },
    {
      "anonymous": false,
      "inputs": [
        {
          "indexed": true,
          "internalType": "address",
          "name": "previousOwner",
          "type": "address"
        },
        {
          "indexed": true,
          "internalType": "address",
          "name": "newOwner",
          "type": "address"
        }
      ],
      "name": "OwnershipTransferred",
      "type": "event"
    },
    {
      "anonymous": false,
      "inputs": [
        {
          "indexed": true,
          "internalType": "address",
          "name": "portId",
          "type": "address"
        },
        {
          "indexed": true,
          "internalType": "bytes32",
          "name": "channelId",
          "type": "bytes32"
        },
        {
          "indexed": false,
          "internalType": "bytes",
          "name": "packet",
          "type": "bytes"
        },
        {
          "indexed": false,
          "internalType": "uint64",
          "name": "timeoutTimestamp",
          "type": "uint64"
        }
      ],
      "name": "SendPacket",
      "type": "event"
    },
    {
      "inputs": [
        {
          "internalType": "bytes32",
          "name": "channelId",
          "type": "bytes32"
        }
      ],
      "name": "closeIbcChannel",
      "outputs": [],
      "stateMutability": "nonpayable",
      "type": "function"
    },
    {
      "inputs": [
        {
          "internalType": "contract IbcReceiver",
          "name": "portAddress",
          "type": "address"
        },
        {
          "internalType": "bytes32",
          "name": "channelId",
          "type": "bytes32"
        },
        {
          "internalType": "string[]",
          "name": "connectionHops",
          "type": "string[]"
        },
        {
          "internalType": "enum ChannelOrder",
          "name": "ordering",
          "type": "uint8"
        },
        {
          "internalType": "string",
          "name": "counterpartyPortId",
          "type": "string"
        },
        {
          "internalType": "bytes32",
          "name": "counterpartyChannelId",
          "type": "bytes32"
        },
        {
          "internalType": "bytes32",
          "name": "counterpartyVersion",
          "type": "bytes32"
        },
        {
          "components": [
            {
              "internalType": "uint64",
              "name": "proofHeight",
              "type": "uint64"
            },
            {
              "internalType": "bytes",
              "name": "proof",
              "type": "bytes"
            }
          ],
          "internalType": "struct Proof",
          "name": "proof",
          "type": "tuple"
        }
      ],
      "name": "connectIbcChannel",
      "outputs": [],
      "stateMutability": "nonpayable",
      "type": "function"
    },
    {
      "inputs": [
        {
          "internalType": "bytes",
          "name": "clientState",
          "type": "bytes"
        },
        {
          "internalType": "bytes",
          "name": "consensusState",
          "type": "bytes"
        }
      ],
      "name": "createClient",
      "outputs": [],
      "stateMutability": "nonpayable",
      "type": "function"
    },
    {
      "inputs": [
        {
          "internalType": "address",
          "name": "portAddress",
          "type": "address"
        },
        {
          "internalType": "bytes32",
          "name": "channelId",
          "type": "bytes32"
        }
      ],
      "name": "getChannel",
      "outputs": [
        {
          "components": [
            {
              "internalType": "bytes32",
              "name": "version",
              "type": "bytes32"
            },
            {
              "internalType": "enum ChannelOrder",
              "name": "ordering",
              "type": "uint8"
            },
            {
              "internalType": "string[]",
              "name": "connectionHops",
              "type": "string[]"
            },
            {
              "internalType": "string",
              "name": "counterpartyPortId",
              "type": "string"
            },
            {
              "internalType": "bytes32",
              "name": "counterpartyChannelId",
              "type": "bytes32"
            }
          ],
          "internalType": "struct Channel",
          "name": "",
          "type": "tuple"
        }
      ],
      "stateMutability": "view",
      "type": "function"
    },
    {
      "inputs": [],
      "name": "latestConsensusState",
      "outputs": [
        {
          "internalType": "bytes",
          "name": "",
          "type": "bytes"
        }
      ],
      "stateMutability": "view",
      "type": "function"
    },
    {
      "inputs": [
        {
          "internalType": "contract IbcReceiver",
          "name": "receiver",
          "type": "address"
        },
        {
          "components": [
            {
              "components": [
                {
                  "internalType": "string",
                  "name": "portId",
                  "type": "string"
                },
                {
                  "internalType": "bytes32",
                  "name": "channelId",
                  "type": "bytes32"
                }
              ],
              "internalType": "struct IbcEndpoint",
              "name": "src",
              "type": "tuple"
            },
            {
              "components": [
                {
                  "internalType": "string",
                  "name": "portId",
                  "type": "string"
                },
                {
                  "internalType": "bytes32",
                  "name": "channelId",
                  "type": "bytes32"
                }
              ],
              "internalType": "struct IbcEndpoint",
              "name": "dest",
              "type": "tuple"
            },
            {
              "internalType": "uint64",
              "name": "sequence",
              "type": "uint64"
            },
            {
              "internalType": "bytes",
              "name": "data",
              "type": "bytes"
            },
            {
              "components": [
                {
                  "internalType": "uint64",
                  "name": "block",
                  "type": "uint64"
                },
                {
                  "internalType": "uint64",
                  "name": "timestamp",
                  "type": "uint64"
                }
              ],
              "internalType": "struct IbcTimeout",
              "name": "timeout",
              "type": "tuple"
            }
          ],
          "internalType": "struct IbcPacket",
          "name": "packet",
          "type": "tuple"
        },
        {
          "internalType": "bytes",
          "name": "acknowledgement",
          "type": "bytes"
        },
        {
          "components": [
            {
              "internalType": "uint64",
              "name": "proofHeight",
              "type": "uint64"
            },
            {
              "internalType": "bytes",
              "name": "proof",
              "type": "bytes"
            }
          ],
          "internalType": "struct Proof",
          "name": "proof",
          "type": "tuple"
        }
      ],
      "name": "onAcknowledgementPacket",
      "outputs": [],
      "stateMutability": "nonpayable",
      "type": "function"
    },
    {
      "inputs": [
        {
          "internalType": "address",
          "name": "portAddress",
          "type": "address"
        },
        {
          "internalType": "bytes32",
          "name": "channelId",
          "type": "bytes32"
        }
      ],
      "name": "onCloseIbcChannel",
      "outputs": [],
      "stateMutability": "nonpayable",
      "type": "function"
    },
    {
      "inputs": [
        {
          "internalType": "contract IbcReceiver",
          "name": "receiver",
          "type": "address"
        },
        {
          "components": [
            {
              "components": [
                {
                  "internalType": "string",
                  "name": "portId",
                  "type": "string"
                },
                {
                  "internalType": "bytes32",
                  "name": "channelId",
                  "type": "bytes32"
                }
              ],
              "internalType": "struct IbcEndpoint",
              "name": "src",
              "type": "tuple"
            },
            {
              "components": [
                {
                  "internalType": "string",
                  "name": "portId",
                  "type": "string"
                },
                {
                  "internalType": "bytes32",
                  "name": "channelId",
                  "type": "bytes32"
                }
              ],
              "internalType": "struct IbcEndpoint",
              "name": "dest",
              "type": "tuple"
            },
            {
              "internalType": "uint64",
              "name": "sequence",
              "type": "uint64"
            },
            {
              "internalType": "bytes",
              "name": "data",
              "type": "bytes"
            },
            {
              "components": [
                {
                  "internalType": "uint64",
                  "name": "block",
                  "type": "uint64"
                },
                {
                  "internalType": "uint64",
                  "name": "timestamp",
                  "type": "uint64"
                }
              ],
              "internalType": "struct IbcTimeout",
              "name": "timeout",
              "type": "tuple"
            }
          ],
          "internalType": "struct IbcPacket",
          "name": "packet",
          "type": "tuple"
        },
        {
          "components": [
            {
              "internalType": "uint64",
              "name": "proofHeight",
              "type": "uint64"
            },
            {
              "internalType": "bytes",
              "name": "proof",
              "type": "bytes"
            }
          ],
          "internalType": "struct Proof",
          "name": "proof",
          "type": "tuple"
        }
      ],
      "name": "onRecvPacket",
      "outputs": [],
      "stateMutability": "nonpayable",
      "type": "function"
    },
    {
      "inputs": [
        {
          "internalType": "contract IbcReceiver",
          "name": "receiver",
          "type": "address"
        },
        {
          "components": [
            {
              "components": [
                {
                  "internalType": "string",
                  "name": "portId",
                  "type": "string"
                },
                {
                  "internalType": "bytes32",
                  "name": "channelId",
                  "type": "bytes32"
                }
              ],
              "internalType": "struct IbcEndpoint",
              "name": "src",
              "type": "tuple"
            },
            {
              "components": [
                {
                  "internalType": "string",
                  "name": "portId",
                  "type": "string"
                },
                {
                  "internalType": "bytes32",
                  "name": "channelId",
                  "type": "bytes32"
                }
              ],
              "internalType": "struct IbcEndpoint",
              "name": "dest",
              "type": "tuple"
            },
            {
              "internalType": "uint64",
              "name": "sequence",
              "type": "uint64"
            },
            {
              "internalType": "bytes",
              "name": "data",
              "type": "bytes"
            },
            {
              "components": [
                {
                  "internalType": "uint64",
                  "name": "block",
                  "type": "uint64"
                },
                {
                  "internalType": "uint64",
                  "name": "timestamp",
                  "type": "uint64"
                }
              ],
              "internalType": "struct IbcTimeout",
              "name": "timeout",
              "type": "tuple"
            }
          ],
          "internalType": "struct IbcPacket",
          "name": "packet",
          "type": "tuple"
        },
        {
          "components": [
            {
              "internalType": "uint64",
              "name": "proofHeight",
              "type": "uint64"
            },
            {
              "internalType": "bytes",
              "name": "proof",
              "type": "bytes"
            }
          ],
          "internalType": "struct Proof",
          "name": "proof",
          "type": "tuple"
        }
      ],
      "name": "onTimeoutPacket",
      "outputs": [],
      "stateMutability": "nonpayable",
      "type": "function"
    },
    {
      "inputs": [
        {
          "internalType": "contract IbcReceiver",
          "name": "portAddress",
          "type": "address"
        },
        {
          "internalType": "bytes32",
          "name": "version",
          "type": "bytes32"
        },
        {
          "internalType": "enum ChannelOrder",
          "name": "ordering",
          "type": "uint8"
        },
        {
          "internalType": "string[]",
          "name": "connectionHops",
          "type": "string[]"
        },
        {
          "internalType": "bytes32",
          "name": "counterpartyChannelId",
          "type": "bytes32"
        },
        {
          "internalType": "string",
          "name": "counterpartyPortId",
          "type": "string"
        },
        {
          "internalType": "bytes32",
          "name": "counterpartyVersion",
          "type": "bytes32"
        }
      ],
      "name": "openIbcChannel",
      "outputs": [],
      "stateMutability": "nonpayable",
      "type": "function"
    },
    {
      "inputs": [],
      "name": "owner",
      "outputs": [
        {
          "internalType": "address",
          "name": "",
          "type": "address"
        }
      ],
      "stateMutability": "view",
      "type": "function"
    },
    {
      "inputs": [
        {
          "internalType": "address",
          "name": "",
          "type": "address"
        },
        {
          "internalType": "bytes32",
          "name": "",
          "type": "bytes32"
        }
      ],
      "name": "portChannelMap",
      "outputs": [
        {
          "internalType": "bytes32",
          "name": "version",
          "type": "bytes32"
        },
        {
          "internalType": "enum ChannelOrder",
          "name": "ordering",
          "type": "uint8"
        },
        {
          "internalType": "string",
          "name": "counterpartyPortId",
          "type": "string"
        },
        {
          "internalType": "bytes32",
          "name": "counterpartyChannelId",
          "type": "bytes32"
        }
      ],
      "stateMutability": "view",
      "type": "function"
    },
    {
      "inputs": [],
      "name": "renounceOwnership",
      "outputs": [],
      "stateMutability": "nonpayable",
      "type": "function"
    },
    {
      "inputs": [
        {
          "internalType": "bytes32",
          "name": "channelId",
          "type": "bytes32"
        },
        {
          "internalType": "bytes",
          "name": "packet",
          "type": "bytes"
        },
        {
          "internalType": "uint64",
          "name": "timeoutTimestamp",
          "type": "uint64"
        }
      ],
      "name": "sendPacket",
      "outputs": [],
      "stateMutability": "nonpayable",
      "type": "function"
    },
    {
      "inputs": [
        {
          "internalType": "address",
          "name": "newOwner",
          "type": "address"
        }
      ],
      "name": "transferOwnership",
      "outputs": [],
      "stateMutability": "nonpayable",
      "type": "function"
    },
    {
      "inputs": [
        {
          "internalType": "bytes",
          "name": "consensusState",
          "type": "bytes"
        }
      ],
      "name": "updateClient",
      "outputs": [],
      "stateMutability": "nonpayable",
      "type": "function"
    }
  ],
  "bytecode": "0x60806040526000600360006101000a81548167ffffffffffffffff021916908367ffffffffffffffff1602179055503480156200003b57600080fd5b50604051620039b1380380620039b183398181016040528101906200006191906200022e565b6200008162000075620000e460201b60201c565b620000ec60201b60201c565b80600160006101000a81548173ffffffffffffffffffffffffffffffffffffffff021916908373ffffffffffffffffffffffffffffffffffffffff1602179055506000600160146101000a81548160ff0219169083151502179055505062000260565b600033905090565b60008060009054906101000a900473ffffffffffffffffffffffffffffffffffffffff169050816000806101000a81548173ffffffffffffffffffffffffffffffffffffffff021916908373ffffffffffffffffffffffffffffffffffffffff1602179055508173ffffffffffffffffffffffffffffffffffffffff168173ffffffffffffffffffffffffffffffffffffffff167f8be0079c531659141344cd1fd0a4f28419497f9722a3daafe3b4186f6b6457e060405160405180910390a35050565b600080fd5b600073ffffffffffffffffffffffffffffffffffffffff82169050919050565b6000620001e282620001b5565b9050919050565b6000620001f682620001d5565b9050919050565b6200020881620001e9565b81146200021457600080fd5b50565b6000815190506200022881620001fd565b92915050565b600060208284031215620002475762000246620001b0565b5b6000620002578482850162000217565b91505092915050565b61374180620002706000396000f3fe608060405234801561001057600080fd5b50600436106101005760003560e01c80638174d65c11610097578063c2a2514d11610066578063c2a2514d14610270578063c3e1155c1461028e578063d2e9aa56146102aa578063f2fde38b146102c657610100565b80638174d65c146101e75780638b24b4cb146102035780638da5cb5b1461021f578063b2b1bf031461023d57610100565b806342852d24116100d357806342852d24146101755780634c9778d3146101a557806364260a60146101c1578063715018a6146101dd57610100565b80630ad8d666146101055780630bece356146101215780631f456c1e1461013d5780633e24aaf314610159575b600080fd5b61011f600480360381019061011a9190611b95565b6102e2565b005b61013b60048036038101906101369190611c85565b6103f4565b005b61015760048036038101906101529190611dd9565b610548565b005b610173600480360381019061016e9190611ebb565b61064c565b005b61018f600480360381019061018a9190611f68565b6106d6565b60405161019c9190612206565b60405180910390f35b6101bf60048036038101906101ba9190612228565b6108fb565b005b6101db60048036038101906101d69190611b95565b610c2d565b005b6101e5610ce5565b005b61020160048036038101906101fc9190611f68565b610cf9565b005b61021d6004803603810190610218919061233b565b6110b9565b005b6102276113e1565b6040516102349190612377565b60405180910390f35b61025760048036038101906102529190611f68565b61140a565b60405161026794939291906123fa565b60405180910390f35b6102786114dc565b604051610285919061249b565b60405180910390f35b6102a860048036038101906102a391906124fd565b61156a565b005b6102c460048036038101906102bf9190612571565b6115c3565b005b6102e060048036038101906102db9190612631565b61167d565b005b6102eb81611701565b61032a576040517f08c379a0000000000000000000000000000000000000000000000000000000008152600401610321906126aa565b60405180910390fd5b81806020019061033a91906126d9565b6020013582806000019061034e91906126d9565b602001357f080631928e492258b6a102fc2ab3e0a8dfcb747ab0885c25f9cb7a8d4862103684806000019061038391906126d9565b80600001906103929190612701565b8680602001906103a291906126d9565b80600001906103b19190612701565b8880606001906103c19190612764565b8a60400160208101906103d491906127c7565b6040516103e7979695949392919061286c565b60405180910390a3505050565b600160149054906101000a900460ff16610443576040517f08c379a000000000000000000000000000000000000000000000000000000000815260040161043a90612918565b60405180910390fd5b600160009054906101000a900473ffffffffffffffffffffffffffffffffffffffff1673ffffffffffffffffffffffffffffffffffffffff1663e1ec100c600284846040518463ffffffff1660e01b81526004016104a393929190612a2e565b60206040518083038186803b1580156104bb57600080fd5b505afa1580156104cf573d6000803e3d6000fd5b505050506040513d601f19601f820116820180604052508101906104f39190612a9f565b610532576040517f08c379a000000000000000000000000000000000000000000000000000000000815260040161052990612b3e565b60405180910390fd5b818160029190610543929190611879565b505050565b60008973ffffffffffffffffffffffffffffffffffffffff1663486592198a8a8a8a8a8a8a8a6040518963ffffffff1660e01b8152600401610591989796959493929190612cb1565b602060405180830381600087803b1580156105ab57600080fd5b505af11580156105bf573d6000803e3d6000fd5b505050506040513d601f19601f820116820180604052508101906105e39190612d39565b9050848a73ffffffffffffffffffffffffffffffffffffffff167f9a93c124e7f0aa93d3fbe660b1366e0483b4267619924382261498efbb92c873838b8b8b8a8a8a6040516106389796959493929190612d66565b60405180910390a350505050505050505050565b61065461172f565b600160149054906101000a900460ff16156106a4576040517f08c379a000000000000000000000000000000000000000000000000000000000815260040161069b90612e17565b60405180910390fd5b60018060146101000a81548160ff0219169083151502179055508181600291906106cf929190611879565b5050505050565b6106de6118ff565b600460008473ffffffffffffffffffffffffffffffffffffffff1673ffffffffffffffffffffffffffffffffffffffff16815260200190815260200160002060008381526020019081526020016000206040518060a0016040529081600082015481526020016001820160009054906101000a900460ff16600181111561076857610767611fb7565b5b600181111561077a57610779611fb7565b5b815260200160028201805480602002602001604051908101604052809291908181526020016000905b8282101561084f5783829060005260206000200180546107c290612967565b80601f01602080910402602001604051908101604052809291908181526020018280546107ee90612967565b801561083b5780601f106108105761010080835404028352916020019161083b565b820191906000526020600020905b81548152906001019060200180831161081e57829003601f168201915b5050505050815260200190600101906107a3565b50505050815260200160038201805461086790612967565b80601f016020809104026020016040519081016040528092919081815260200182805461089390612967565b80156108e05780601f106108b5576101008083540402835291602001916108e0565b820191906000526020600020905b8154815290600101906020018083116108c357829003601f168201915b50505050508152602001600482015481525050905092915050565b600160009054906101000a900473ffffffffffffffffffffffffffffffffffffffff1673ffffffffffffffffffffffffffffffffffffffff16639511059d6002836040518060800160405280605e81526020016136ae605e91396040518463ffffffff1660e01b815260040161097393929190612f99565b60206040518083038186803b15801561098b57600080fd5b505afa15801561099f573d6000803e3d6000fd5b505050506040513d601f19601f820116820180604052508101906109c39190612a9f565b610a02576040517f08c379a00000000000000000000000000000000000000000000000000000000081526004016109f990613044565b60405180910390fd5b8973ffffffffffffffffffffffffffffffffffffffff1663e60a72938a85856040518463ffffffff1660e01b8152600401610a3f93929190613064565b600060405180830381600087803b158015610a5957600080fd5b505af1158015610a6d573d6000803e3d6000fd5b505050506040518060a00160405280838152602001876001811115610a9557610a94611fb7565b5b8152602001898990610aa7919061326f565b815260200186868080601f016020809104026020016040519081016040528093929190818152602001838380828437600081840152601f19601f82011690508083019250505050505050815260200184815250600460008c73ffffffffffffffffffffffffffffffffffffffff1673ffffffffffffffffffffffffffffffffffffffff16815260200190815260200160002060008b81526020019081526020016000206000820151816000015560208201518160010160006101000a81548160ff02191690836001811115610b7f57610b7e611fb7565b5b02179055506040820151816002019080519060200190610ba0929190611946565b506060820151816003019080519060200190610bbd9291906119a6565b506080820151816004015590505082898b73ffffffffffffffffffffffffffffffffffffffff167f57ea540ad7b8bfd2813b8637764ba029fedc52de3f812934a46511506aa11b8e88888d8d604051610c199493929190613284565b60405180910390a450505050505050505050565b610c3681611701565b610c75576040517f08c379a0000000000000000000000000000000000000000000000000000000008152600401610c6c906126aa565b60405180910390fd5b8273ffffffffffffffffffffffffffffffffffffffff1663b33c2577836040518263ffffffff1660e01b8152600401610cae9190613445565b600060405180830381600087803b158015610cc857600080fd5b505af1158015610cdc573d6000803e3d6000fd5b50505050505050565b610ced61172f565b610cf760006117ad565b565b6000600460008473ffffffffffffffffffffffffffffffffffffffff1673ffffffffffffffffffffffffffffffffffffffff16815260200190815260200160002060008381526020019081526020016000206040518060a0016040529081600082015481526020016001820160009054906101000a900460ff166001811115610d8557610d84611fb7565b5b6001811115610d9757610d96611fb7565b5b815260200160028201805480602002602001604051908101604052809291908181526020016000905b82821015610e6c578382906000526020600020018054610ddf90612967565b80601f0160208091040260200160405190810160405280929190818152602001828054610e0b90612967565b8015610e585780601f10610e2d57610100808354040283529160200191610e58565b820191906000526020600020905b815481529060010190602001808311610e3b57829003601f168201915b505050505081526020019060010190610dc0565b505050508152602001600382018054610e8490612967565b80601f0160208091040260200160405190810160405280929190818152602001828054610eb090612967565b8015610efd5780601f10610ed257610100808354040283529160200191610efd565b820191906000526020600020905b815481529060010190602001808311610ee057829003601f168201915b5050505050815260200160048201548152505090506000801b81608001511415610f5c576040517f08c379a0000000000000000000000000000000000000000000000000000000008152600401610f53906134b3565b60405180910390fd5b60008390508073ffffffffffffffffffffffffffffffffffffffff16635fe39e0d84846060015185608001516040518463ffffffff1660e01b8152600401610fa6939291906134d3565b600060405180830381600087803b158015610fc057600080fd5b505af1158015610fd4573d6000803e3d6000fd5b50505050600460008573ffffffffffffffffffffffffffffffffffffffff1673ffffffffffffffffffffffffffffffffffffffff16815260200190815260200160002060008481526020019081526020016000206000808201600090556001820160006101000a81549060ff02191690556002820160006110559190611a2c565b6003820160006110659190611a4d565b60048201600090555050828473ffffffffffffffffffffffffffffffffffffffff167fe893e4ba0e364cdc96364b1e1e0d53b0d91e5fd6aa0ee9d81a17ecd61178bf1760405160405180910390a350505050565b6000600460003373ffffffffffffffffffffffffffffffffffffffff1673ffffffffffffffffffffffffffffffffffffffff16815260200190815260200160002060008381526020019081526020016000206040518060a0016040529081600082015481526020016001820160009054906101000a900460ff16600181111561114557611144611fb7565b5b600181111561115757611156611fb7565b5b815260200160028201805480602002602001604051908101604052809291908181526020016000905b8282101561122c57838290600052602060002001805461119f90612967565b80601f01602080910402602001604051908101604052809291908181526020018280546111cb90612967565b80156112185780601f106111ed57610100808354040283529160200191611218565b820191906000526020600020905b8154815290600101906020018083116111fb57829003601f168201915b505050505081526020019060010190611180565b50505050815260200160038201805461124490612967565b80601f016020809104026020016040519081016040528092919081815260200182805461127090612967565b80156112bd5780601f10611292576101008083540402835291602001916112bd565b820191906000526020600020905b8154815290600101906020018083116112a057829003601f168201915b5050505050815260200160048201548152505090506000801b8160800151141561131c576040517f08c379a00000000000000000000000000000000000000000000000000000000081526004016113139061355d565b60405180910390fd5b60003390508073ffffffffffffffffffffffffffffffffffffffff16635fe39e0d84846060015185608001516040518463ffffffff1660e01b8152600401611366939291906134d3565b600060405180830381600087803b15801561138057600080fd5b505af1158015611394573d6000803e3d6000fd5b50505050823373ffffffffffffffffffffffffffffffffffffffff167fe893e4ba0e364cdc96364b1e1e0d53b0d91e5fd6aa0ee9d81a17ecd61178bf1760405160405180910390a3505050565b60008060009054906101000a900473ffffffffffffffffffffffffffffffffffffffff16905090565b6004602052816000526040600020602052806000526040600020600091509150508060000154908060010160009054906101000a900460ff169080600301805461145390612967565b80601f016020809104026020016040519081016040528092919081815260200182805461147f90612967565b80156114cc5780601f106114a1576101008083540402835291602001916114cc565b820191906000526020600020905b8154815290600101906020018083116114af57829003601f168201915b5050505050908060040154905084565b600280546114e990612967565b80601f016020809104026020016040519081016040528092919081815260200182805461151590612967565b80156115625780601f1061153757610100808354040283529160200191611562565b820191906000526020600020905b81548152906001019060200180831161154557829003601f168201915b505050505081565b833373ffffffffffffffffffffffffffffffffffffffff167fe5f4762afde15256ce24aa385b449d27b7d2776921f3c673f8162ddb5b7a2f168585856040516115b59392919061357d565b60405180910390a350505050565b6115cc81611701565b61160b576040517f08c379a0000000000000000000000000000000000000000000000000000000008152600401611602906126aa565b60405180910390fd5b8473ffffffffffffffffffffffffffffffffffffffff1663f45cf5e4856040518263ffffffff1660e01b81526004016116449190613445565b600060405180830381600087803b15801561165e57600080fd5b505af1158015611672573d6000803e3d6000fd5b505050505050505050565b61168561172f565b600073ffffffffffffffffffffffffffffffffffffffff168173ffffffffffffffffffffffffffffffffffffffff1614156116f5576040517f08c379a00000000000000000000000000000000000000000000000000000000081526004016116ec90613621565b60405180910390fd5b6116fe816117ad565b50565b6000808280602001906117149190612764565b90501415611725576000905061172a565b600190505b919050565b611737611871565b73ffffffffffffffffffffffffffffffffffffffff166117556113e1565b73ffffffffffffffffffffffffffffffffffffffff16146117ab576040517f08c379a00000000000000000000000000000000000000000000000000000000081526004016117a29061368d565b60405180910390fd5b565b60008060009054906101000a900473ffffffffffffffffffffffffffffffffffffffff169050816000806101000a81548173ffffffffffffffffffffffffffffffffffffffff021916908373ffffffffffffffffffffffffffffffffffffffff1602179055508173ffffffffffffffffffffffffffffffffffffffff168173ffffffffffffffffffffffffffffffffffffffff167f8be0079c531659141344cd1fd0a4f28419497f9722a3daafe3b4186f6b6457e060405160405180910390a35050565b600033905090565b82805461188590612967565b90600052602060002090601f0160209004810192826118a757600085556118ee565b82601f106118c057803560ff19168380011785556118ee565b828001600101855582156118ee579182015b828111156118ed5782358255916020019190600101906118d2565b5b5090506118fb9190611a8d565b5090565b6040518060a00160405280600080191681526020016000600181111561192857611927611fb7565b5b81526020016060815260200160608152602001600080191681525090565b828054828255906000526020600020908101928215611995579160200282015b828111156119945782518290805190602001906119849291906119a6565b5091602001919060010190611966565b5b5090506119a29190611aaa565b5090565b8280546119b290612967565b90600052602060002090601f0160209004810192826119d45760008555611a1b565b82601f106119ed57805160ff1916838001178555611a1b565b82800160010185558215611a1b579182015b82811115611a1a5782518255916020019190600101906119ff565b5b509050611a289190611a8d565b5090565b5080546000825590600052602060002090810190611a4a9190611aaa565b50565b508054611a5990612967565b6000825580601f10611a6b5750611a8a565b601f016020900490600052602060002090810190611a899190611a8d565b5b50565b5b80821115611aa6576000816000905550600101611a8e565b5090565b5b80821115611aca5760008181611ac19190611a4d565b50600101611aab565b5090565b6000604051905090565b600080fd5b600080fd5b600073ffffffffffffffffffffffffffffffffffffffff82169050919050565b6000611b0d82611ae2565b9050919050565b6000611b1f82611b02565b9050919050565b611b2f81611b14565b8114611b3a57600080fd5b50565b600081359050611b4c81611b26565b92915050565b600080fd5b600060c08284031215611b6d57611b6c611b52565b5b81905092915050565b600060408284031215611b8c57611b8b611b52565b5b81905092915050565b600080600060608486031215611bae57611bad611ad8565b5b6000611bbc86828701611b3d565b935050602084013567ffffffffffffffff811115611bdd57611bdc611add565b5b611be986828701611b57565b925050604084013567ffffffffffffffff811115611c0a57611c09611add565b5b611c1686828701611b76565b9150509250925092565b600080fd5b600080fd5b600080fd5b60008083601f840112611c4557611c44611c20565b5b8235905067ffffffffffffffff811115611c6257611c61611c25565b5b602083019150836001820283011115611c7e57611c7d611c2a565b5b9250929050565b60008060208385031215611c9c57611c9b611ad8565b5b600083013567ffffffffffffffff811115611cba57611cb9611add565b5b611cc685828601611c2f565b92509250509250929050565b6000819050919050565b611ce581611cd2565b8114611cf057600080fd5b50565b600081359050611d0281611cdc565b92915050565b60028110611d1557600080fd5b50565b600081359050611d2781611d08565b92915050565b60008083601f840112611d4357611d42611c20565b5b8235905067ffffffffffffffff811115611d6057611d5f611c25565b5b602083019150836020820283011115611d7c57611d7b611c2a565b5b9250929050565b60008083601f840112611d9957611d98611c20565b5b8235905067ffffffffffffffff811115611db657611db5611c25565b5b602083019150836001820283011115611dd257611dd1611c2a565b5b9250929050565b600080600080600080600080600060e08a8c031215611dfb57611dfa611ad8565b5b6000611e098c828d01611b3d565b9950506020611e1a8c828d01611cf3565b9850506040611e2b8c828d01611d18565b97505060608a013567ffffffffffffffff811115611e4c57611e4b611add565b5b611e588c828d01611d2d565b96509650506080611e6b8c828d01611cf3565b94505060a08a013567ffffffffffffffff811115611e8c57611e8b611add565b5b611e988c828d01611d83565b935093505060c0611eab8c828d01611cf3565b9150509295985092959850929598565b60008060008060408587031215611ed557611ed4611ad8565b5b600085013567ffffffffffffffff811115611ef357611ef2611add565b5b611eff87828801611c2f565b9450945050602085013567ffffffffffffffff811115611f2257611f21611add565b5b611f2e87828801611c2f565b925092505092959194509250565b611f4581611b02565b8114611f5057600080fd5b50565b600081359050611f6281611f3c565b92915050565b60008060408385031215611f7f57611f7e611ad8565b5b6000611f8d85828601611f53565b9250506020611f9e85828601611cf3565b9150509250929050565b611fb181611cd2565b82525050565b7f4e487b7100000000000000000000000000000000000000000000000000000000600052602160045260246000fd5b60028110611ff757611ff6611fb7565b5b50565b600081905061200882611fe6565b919050565b600061201882611ffa565b9050919050565b6120288161200d565b82525050565b600081519050919050565b600082825260208201905092915050565b6000819050602082019050919050565b600081519050919050565b600082825260208201905092915050565b60005b83811015612094578082015181840152602081019050612079565b838111156120a3576000848401525b50505050565b6000601f19601f8301169050919050565b60006120c58261205a565b6120cf8185612065565b93506120df818560208601612076565b6120e8816120a9565b840191505092915050565b60006120ff83836120ba565b905092915050565b6000602082019050919050565b600061211f8261202e565b6121298185612039565b93508360208202850161213b8561204a565b8060005b85811015612177578484038952815161215885826120f3565b945061216383612107565b925060208a0199505060018101905061213f565b50829750879550505050505092915050565b600060a0830160008301516121a16000860182611fa8565b5060208301516121b4602086018261201f565b50604083015184820360408601526121cc8282612114565b915050606083015184820360608601526121e682826120ba565b91505060808301516121fb6080860182611fa8565b508091505092915050565b600060208201905081810360008301526122208184612189565b905092915050565b6000806000806000806000806000806101008b8d03121561224c5761224b611ad8565b5b600061225a8d828e01611b3d565b9a5050602061226b8d828e01611cf3565b99505060408b013567ffffffffffffffff81111561228c5761228b611add565b5b6122988d828e01611d2d565b985098505060606122ab8d828e01611d18565b96505060808b013567ffffffffffffffff8111156122cc576122cb611add565b5b6122d88d828e01611d83565b955095505060a06122eb8d828e01611cf3565b93505060c06122fc8d828e01611cf3565b92505060e08b013567ffffffffffffffff81111561231d5761231c611add565b5b6123298d828e01611b76565b9150509295989b9194979a5092959850565b60006020828403121561235157612350611ad8565b5b600061235f84828501611cf3565b91505092915050565b61237181611b02565b82525050565b600060208201905061238c6000830184612368565b92915050565b61239b81611cd2565b82525050565b6123aa8161200d565b82525050565b600082825260208201905092915050565b60006123cc8261205a565b6123d681856123b0565b93506123e6818560208601612076565b6123ef816120a9565b840191505092915050565b600060808201905061240f6000830187612392565b61241c60208301866123a1565b818103604083015261242e81856123c1565b905061243d6060830184612392565b95945050505050565b600081519050919050565b600082825260208201905092915050565b600061246d82612446565b6124778185612451565b9350612487818560208601612076565b612490816120a9565b840191505092915050565b600060208201905081810360008301526124b58184612462565b905092915050565b600067ffffffffffffffff82169050919050565b6124da816124bd565b81146124e557600080fd5b50565b6000813590506124f7816124d1565b92915050565b6000806000806060858703121561251757612516611ad8565b5b600061252587828801611cf3565b945050602085013567ffffffffffffffff81111561254657612545611add565b5b61255287828801611c2f565b93509350506040612565878288016124e8565b91505092959194509250565b60008060008060006080868803121561258d5761258c611ad8565b5b600061259b88828901611b3d565b955050602086013567ffffffffffffffff8111156125bc576125bb611add565b5b6125c888828901611b57565b945050604086013567ffffffffffffffff8111156125e9576125e8611add565b5b6125f588828901611c2f565b9350935050606086013567ffffffffffffffff81111561261857612617611add565b5b61262488828901611b76565b9150509295509295909350565b60006020828403121561264757612646611ad8565b5b600061265584828501611f53565b91505092915050565b7f50726f6f6620766572696669636174696f6e206661696c656400000000000000600082015250565b60006126946019836123b0565b915061269f8261265e565b602082019050919050565b600060208201905081810360008301526126c381612687565b9050919050565b600080fd5b600080fd5b600080fd5b6000823560016040038336030381126126f5576126f46126ca565b5b80830191505092915050565b6000808335600160200384360303811261271e5761271d6126ca565b5b80840192508235915067ffffffffffffffff8211156127405761273f6126cf565b5b60208301925060018202360383131561275c5761275b6126d4565b5b509250929050565b60008083356001602003843603038112612781576127806126ca565b5b80840192508235915067ffffffffffffffff8211156127a3576127a26126cf565b5b6020830192506001820236038313156127bf576127be6126d4565b5b509250929050565b6000602082840312156127dd576127dc611ad8565b5b60006127eb848285016124e8565b91505092915050565b82818337600083830152505050565b600061280f83856123b0565b935061281c8385846127f4565b612825836120a9565b840190509392505050565b600061283c8385612451565b93506128498385846127f4565b612852836120a9565b840190509392505050565b612866816124bd565b82525050565b6000608082019050818103600083015261288781898b612803565b9050818103602083015261289c818789612803565b905081810360408301526128b1818587612830565b90506128c0606083018461285d565b98975050505050505050565b7f436c69656e74206e6f7420637265617465640000000000000000000000000000600082015250565b60006129026012836123b0565b915061290d826128cc565b602082019050919050565b60006020820190508181036000830152612931816128f5565b9050919050565b7f4e487b7100000000000000000000000000000000000000000000000000000000600052602260045260246000fd5b6000600282049050600182168061297f57607f821691505b6020821081141561299357612992612938565b5b50919050565b60008190508160005260206000209050919050565b600081546129bb81612967565b6129c58186612451565b945060018216600081146129e057600181146129f257612a25565b60ff1983168652602086019350612a25565b6129fb85612999565b60005b83811015612a1d578154818901526001820191506020810190506129fe565b808801955050505b50505092915050565b60006040820190508181036000830152612a4881866129ae565b90508181036020830152612a5d818486612830565b9050949350505050565b60008115159050919050565b612a7c81612a67565b8114612a8757600080fd5b50565b600081519050612a9981612a73565b92915050565b600060208284031215612ab557612ab4611ad8565b5b6000612ac384828501612a8a565b91505092915050565b7f436f6e73656e73757320737461746520766572696669636174696f6e2066616960008201527f6c65640000000000000000000000000000000000000000000000000000000000602082015250565b6000612b286023836123b0565b9150612b3382612acc565b604082019050919050565b60006020820190508181036000830152612b5781612b1b565b9050919050565b600082825260208201905092915050565b6000819050919050565b6000612b858385612065565b9350612b928385846127f4565b612b9b836120a9565b840190509392505050565b6000612bb3848484612b79565b90509392505050565b600080fd5b600080fd5b600080fd5b60008083356001602003843603038112612be857612be7612bc6565b5b83810192508235915060208301925067ffffffffffffffff821115612c1057612c0f612bbc565b5b600182023603841315612c2657612c25612bc1565b5b509250929050565b6000602082019050919050565b6000612c478385612b5e565b935083602084028501612c5984612b6f565b8060005b87811015612c9f578484038952612c748284612bcb565b612c7f868284612ba6565b9550612c8a84612c2e565b935060208b019a505050600181019050612c5d565b50829750879450505050509392505050565b600060c082019050612cc6600083018b612392565b612cd3602083018a6123a1565b8181036040830152612ce681888a612c3b565b9050612cf56060830187612392565b8181036080830152612d08818587612803565b9050612d1760a0830184612392565b9998505050505050505050565b600081519050612d3381611cdc565b92915050565b600060208284031215612d4f57612d4e611ad8565b5b6000612d5d84828501612d24565b91505092915050565b600060a082019050612d7b600083018a612392565b612d8860208301896123a1565b8181036040830152612d9b818789612c3b565b90508181036060830152612db0818587612803565b9050612dbf6080830184612392565b98975050505050505050565b7f436c69656e7420616c7265616479206372656174656400000000000000000000600082015250565b6000612e016016836123b0565b9150612e0c82612dcb565b602082019050919050565b60006020820190508181036000830152612e3081612df4565b9050919050565b6000612e4660208401846124e8565b905092915050565b612e57816124bd565b82525050565b60008083356001602003843603038112612e7a57612e79612bc6565b5b83810192508235915060208301925067ffffffffffffffff821115612ea257612ea1612bbc565b5b600182023603841315612eb857612eb7612bc1565b5b509250929050565b600082825260208201905092915050565b6000612edd8385612ec0565b9350612eea8385846127f4565b612ef3836120a9565b840190509392505050565b600060408301612f116000840184612e37565b612f1e6000860182612e4e565b50612f2c6020840184612e5d565b8583036020870152612f3f838284612ed1565b925050508091505092915050565b7f6368616e6e656c2f706174682f746f2f62652f61646465642f68657265000000600082015250565b6000612f83601d83612451565b9150612f8e82612f4d565b602082019050919050565b60006080820190508181036000830152612fb381866129ae565b90508181036020830152612fc78185612efe565b90508181036040830152612fda81612f76565b90508181036060830152612fee8184612462565b9050949350505050565b7f4661696c20746f2070726f7665206368616e6e656c2073746174650000000000600082015250565b600061302e601b836123b0565b915061303982612ff8565b602082019050919050565b6000602082019050818103600083015261305d81613021565b9050919050565b60006060820190506130796000830186612392565b6130866020830185612392565b6130936040830184612392565b949350505050565b7f4e487b7100000000000000000000000000000000000000000000000000000000600052604160045260246000fd5b6130d3826120a9565b810181811067ffffffffffffffff821117156130f2576130f161309b565b5b80604052505050565b6000613105611ace565b905061311182826130ca565b919050565b600067ffffffffffffffff8211156131315761313061309b565b5b602082029050602081019050919050565b600080fd5b600067ffffffffffffffff8211156131625761316161309b565b5b61316b826120a9565b9050602081019050919050565b600061318b61318684613147565b6130fb565b9050828152602081018484840111156131a7576131a6613142565b5b6131b28482856127f4565b509392505050565b600082601f8301126131cf576131ce611c20565b5b81356131df848260208601613178565b91505092915050565b60006131fb6131f684613116565b6130fb565b9050808382526020820190506020840283018581111561321e5761321d611c2a565b5b835b8181101561326557803567ffffffffffffffff81111561324357613242611c20565b5b80860161325089826131ba565b85526020850194505050602081019050613220565b5050509392505050565b600061327c3684846131e8565b905092915050565b6000604082019050818103600083015261329f818688612803565b905081810360208301526132b4818486612c3b565b905095945050505050565b6000823560016040038336030381126132db576132da612bc6565b5b82810191505092915050565b60006132f66020840184611cf3565b905092915050565b6000604083016133116000840184612bcb565b8583036000870152613324838284612b79565b9250505061333560208401846132e7565b6133426020860182611fa8565b508091505092915050565b600082905092915050565b604082016133696000830183612e37565b6133766000850182612e4e565b506133846020830183612e37565b6133916020850182612e4e565b50505050565b600060c083016133aa60008401846132bf565b84820360008601526133bc82826132fe565b9150506133cc60208401846132bf565b84820360208601526133de82826132fe565b9150506133ee6040840184612e37565b6133fb6040860182612e4e565b506134096060840184612e5d565b858303606087015261341c838284612ed1565b9250505061342d608084018461334d565b61343a6080860182613358565b508091505092915050565b6000602082019050818103600083015261345f8184613397565b905092915050565b7f4368616e6e656c206e6f74206f776e656420627920706f727441646472657373600082015250565b600061349d6020836123b0565b91506134a882613467565b602082019050919050565b600060208201905081810360008301526134cc81613490565b9050919050565b60006060820190506134e86000830186612392565b81810360208301526134fa81856123c1565b90506135096040830184612392565b949350505050565b7f4368616e6e656c206e6f74206f776e6564206279206d73672e73656e64657200600082015250565b6000613547601f836123b0565b915061355282613511565b602082019050919050565b600060208201905081810360008301526135768161353a565b9050919050565b60006040820190508181036000830152613598818587612830565b90506135a7602083018461285d565b949350505050565b7f4f776e61626c653a206e6577206f776e657220697320746865207a65726f206160008201527f6464726573730000000000000000000000000000000000000000000000000000602082015250565b600061360b6026836123b0565b9150613616826135af565b604082019050919050565b6000602082019050818103600083015261363a816135fe565b9050919050565b7f4f776e61626c653a2063616c6c6572206973206e6f7420746865206f776e6572600082015250565b60006136776020836123b0565b915061368282613641565b602082019050919050565b600060208201905081810360008301526136a68161366a565b905091905056fe6578706563746564206368616e6e656c20627974657320636f6e73747275637465642066726f6d20706172616d732e204368616e6e656c2e5374617465203d207b41636b5f50656e64696e672c20436f6e6669726d5f50656e64696e677da2646970667358221220539b730cafa404e6414a204e03ef54f44378645300460b74f921a7f510301fed64736f6c63430008090033",
  "linkReferences": {},
  "deployedLinkReferences": {}
}