{
  "_format": "hh-sol-artifact-1",
  "contractName": "Dispatcher",
  "sourceName": "contracts/Dispatcher.sol",
  "abi": [
    {
      "inputs": [
        {
          "internalType": "contract ZKMintVerifier",
          "name": "_verifier",
          "type": "address"
        }
      ],
      "stateMutability": "nonpayable",
      "type": "constructor"
    },
    {
      "anonymous": false,
      "inputs": [
        {
          "indexed": true,
          "internalType": "address",
          "name": "portAddress",
          "type": "address"
        },
        {
          "indexed": true,
          "internalType": "bytes32",
          "name": "channelId",
          "type": "bytes32"
        }
      ],
      "name": "CloseIbcChannel",
      "type": "event"
    },
    {
      "anonymous": false,
      "inputs": [
        {
          "indexed": true,
          "internalType": "address",
          "name": "portAddress",
          "type": "address"
        },
        {
          "indexed": true,
          "internalType": "bytes32",
          "name": "channelId",
          "type": "bytes32"
        },
        {
          "indexed": false,
          "internalType": "string",
          "name": "counterpartyPortId",
          "type": "string"
        },
        {
          "indexed": true,
          "internalType": "bytes32",
          "name": "counterpartyChannelId",
          "type": "bytes32"
        },
        {
          "indexed": false,
          "internalType": "string[]",
          "name": "connectionHops",
          "type": "string[]"
        }
      ],
      "name": "ConnectIbcChannel",
      "type": "event"
    },
    {
      "anonymous": false,
      "inputs": [
        {
          "indexed": true,
          "internalType": "bytes32",
          "name": "srcChannelId",
          "type": "bytes32"
        },
        {
          "indexed": false,
          "internalType": "string",
          "name": "srcPortId",
          "type": "string"
        },
        {
          "indexed": true,
          "internalType": "bytes32",
          "name": "destChannelId",
          "type": "bytes32"
        },
        {
          "indexed": false,
          "internalType": "string",
          "name": "destPortId",
          "type": "string"
        },
        {
          "indexed": false,
          "internalType": "bytes",
          "name": "data",
          "type": "bytes"
        },
        {
          "indexed": false,
          "internalType": "uint64",
          "name": "sequence",
          "type": "uint64"
        }
      ],
      "name": "OnRecvPacket",
      "type": "event"
    },
    {
      "anonymous": false,
      "inputs": [
        {
          "indexed": true,
          "internalType": "address",
          "name": "portAddress",
          "type": "address"
        },
        {
          "indexed": true,
          "internalType": "bytes32",
          "name": "counterpartyChannelId",
          "type": "bytes32"
        },
        {
          "indexed": false,
          "internalType": "bytes32",
          "name": "version",
          "type": "bytes32"
        },
        {
          "indexed": false,
          "internalType": "enum ChannelOrder",
          "name": "ordering",
          "type": "uint8"
        },
        {
          "indexed": false,
          "internalType": "string[]",
          "name": "connectionHops",
          "type": "string[]"
        },
        {
          "indexed": false,
          "internalType": "string",
          "name": "counterpartyPortId",
          "type": "string"
        },
        {
          "indexed": false,
          "internalType": "bytes32",
          "name": "counterpartyVersion",
          "type": "bytes32"
        }
      ],
      "name": "OpenIbcChannel",
      "type": "event"
    },
    {
      "anonymous": false,
      "inputs": [
        {
          "indexed": true,
          "internalType": "address",
          "name": "previousOwner",
          "type": "address"
        },
        {
          "indexed": true,
          "internalType": "address",
          "name": "newOwner",
          "type": "address"
        }
      ],
      "name": "OwnershipTransferred",
      "type": "event"
    },
    {
      "anonymous": false,
      "inputs": [
        {
          "indexed": true,
          "internalType": "address",
          "name": "portId",
          "type": "address"
        },
        {
          "indexed": true,
          "internalType": "bytes32",
          "name": "channelId",
          "type": "bytes32"
        },
        {
          "indexed": false,
          "internalType": "bytes",
          "name": "packet",
          "type": "bytes"
        },
        {
          "indexed": false,
          "internalType": "uint64",
          "name": "timeoutTimestamp",
          "type": "uint64"
        }
      ],
      "name": "SendPacket",
      "type": "event"
    },
    {
      "inputs": [
        {
          "internalType": "bytes32",
          "name": "channelId",
          "type": "bytes32"
        }
      ],
      "name": "closeIbcChannel",
      "outputs": [],
      "stateMutability": "nonpayable",
      "type": "function"
    },
    {
      "inputs": [
        {
          "internalType": "contract IbcReceiver",
          "name": "portAddress",
          "type": "address"
        },
        {
          "internalType": "bytes32",
          "name": "channelId",
          "type": "bytes32"
        },
        {
          "internalType": "string[]",
          "name": "connectionHops",
          "type": "string[]"
        },
        {
          "internalType": "enum ChannelOrder",
          "name": "ordering",
          "type": "uint8"
        },
        {
          "internalType": "string",
          "name": "counterpartyPortId",
          "type": "string"
        },
        {
          "internalType": "bytes32",
          "name": "counterpartyChannelId",
          "type": "bytes32"
        },
        {
          "internalType": "bytes32",
          "name": "counterpartyVersion",
          "type": "bytes32"
        },
        {
          "components": [
            {
              "internalType": "uint64",
              "name": "proofHeight",
              "type": "uint64"
            },
            {
              "internalType": "bytes",
              "name": "proof",
              "type": "bytes"
            }
          ],
          "internalType": "struct Proof",
          "name": "proof",
          "type": "tuple"
        }
      ],
      "name": "connectIbcChannel",
      "outputs": [],
      "stateMutability": "nonpayable",
      "type": "function"
    },
    {
      "inputs": [
        {
          "internalType": "bytes",
          "name": "clientState",
          "type": "bytes"
        },
        {
          "internalType": "bytes",
          "name": "consensusState",
          "type": "bytes"
        }
      ],
      "name": "createClient",
      "outputs": [],
      "stateMutability": "nonpayable",
      "type": "function"
    },
    {
      "inputs": [
        {
          "internalType": "address",
          "name": "portAddress",
          "type": "address"
        },
        {
          "internalType": "bytes32",
          "name": "channelId",
          "type": "bytes32"
        }
      ],
      "name": "getChannel",
      "outputs": [
        {
          "components": [
            {
              "internalType": "bytes32",
              "name": "version",
              "type": "bytes32"
            },
            {
              "internalType": "enum ChannelOrder",
              "name": "ordering",
              "type": "uint8"
            },
            {
              "internalType": "string[]",
              "name": "connectionHops",
              "type": "string[]"
            },
            {
              "internalType": "string",
              "name": "counterpartyPortId",
              "type": "string"
            },
            {
              "internalType": "bytes32",
              "name": "counterpartyChannelId",
              "type": "bytes32"
            }
          ],
          "internalType": "struct Channel",
          "name": "",
          "type": "tuple"
        }
      ],
      "stateMutability": "view",
      "type": "function"
    },
    {
      "inputs": [],
      "name": "latestConsensusState",
      "outputs": [
        {
          "internalType": "bytes",
          "name": "",
          "type": "bytes"
        }
      ],
      "stateMutability": "view",
      "type": "function"
    },
    {
      "inputs": [
        {
          "internalType": "contract IbcReceiver",
          "name": "receiver",
          "type": "address"
        },
        {
          "components": [
            {
              "components": [
                {
                  "internalType": "string",
                  "name": "portId",
                  "type": "string"
                },
                {
                  "internalType": "bytes32",
                  "name": "channelId",
                  "type": "bytes32"
                }
              ],
              "internalType": "struct IbcEndpoint",
              "name": "src",
              "type": "tuple"
            },
            {
              "components": [
                {
                  "internalType": "string",
                  "name": "portId",
                  "type": "string"
                },
                {
                  "internalType": "bytes32",
                  "name": "channelId",
                  "type": "bytes32"
                }
              ],
              "internalType": "struct IbcEndpoint",
              "name": "dest",
              "type": "tuple"
            },
            {
              "internalType": "uint64",
              "name": "sequence",
              "type": "uint64"
            },
            {
              "internalType": "bytes",
              "name": "data",
              "type": "bytes"
            },
            {
              "components": [
                {
                  "internalType": "uint64",
                  "name": "block",
                  "type": "uint64"
                },
                {
                  "internalType": "uint64",
                  "name": "timestamp",
                  "type": "uint64"
                }
              ],
              "internalType": "struct IbcTimeout",
              "name": "timeout",
              "type": "tuple"
            }
          ],
          "internalType": "struct IbcPacket",
          "name": "packet",
          "type": "tuple"
        },
        {
          "internalType": "bytes",
          "name": "acknowledgement",
          "type": "bytes"
        },
        {
          "components": [
            {
              "internalType": "uint64",
              "name": "proofHeight",
              "type": "uint64"
            },
            {
              "internalType": "bytes",
              "name": "proof",
              "type": "bytes"
            }
          ],
          "internalType": "struct Proof",
          "name": "proof",
          "type": "tuple"
        }
      ],
      "name": "onAcknowledgementPacket",
      "outputs": [],
      "stateMutability": "nonpayable",
      "type": "function"
    },
    {
      "inputs": [
        {
          "internalType": "contract IbcReceiver",
          "name": "receiver",
          "type": "address"
        },
        {
          "components": [
            {
              "components": [
                {
                  "internalType": "string",
                  "name": "portId",
                  "type": "string"
                },
                {
                  "internalType": "bytes32",
                  "name": "channelId",
                  "type": "bytes32"
                }
              ],
              "internalType": "struct IbcEndpoint",
              "name": "src",
              "type": "tuple"
            },
            {
              "components": [
                {
                  "internalType": "string",
                  "name": "portId",
                  "type": "string"
                },
                {
                  "internalType": "bytes32",
                  "name": "channelId",
                  "type": "bytes32"
                }
              ],
              "internalType": "struct IbcEndpoint",
              "name": "dest",
              "type": "tuple"
            },
            {
              "internalType": "uint64",
              "name": "sequence",
              "type": "uint64"
            },
            {
              "internalType": "bytes",
              "name": "data",
              "type": "bytes"
            },
            {
              "components": [
                {
                  "internalType": "uint64",
                  "name": "block",
                  "type": "uint64"
                },
                {
                  "internalType": "uint64",
                  "name": "timestamp",
                  "type": "uint64"
                }
              ],
              "internalType": "struct IbcTimeout",
              "name": "timeout",
              "type": "tuple"
            }
          ],
          "internalType": "struct IbcPacket",
          "name": "packet",
          "type": "tuple"
        },
        {
          "components": [
            {
              "internalType": "uint64",
              "name": "proofHeight",
              "type": "uint64"
            },
            {
              "internalType": "bytes",
              "name": "proof",
              "type": "bytes"
            }
          ],
          "internalType": "struct Proof",
          "name": "proof",
          "type": "tuple"
        }
      ],
      "name": "onRecvPacket",
      "outputs": [],
      "stateMutability": "nonpayable",
      "type": "function"
    },
    {
      "inputs": [
        {
          "internalType": "contract IbcReceiver",
          "name": "receiver",
          "type": "address"
        },
        {
          "components": [
            {
              "components": [
                {
                  "internalType": "string",
                  "name": "portId",
                  "type": "string"
                },
                {
                  "internalType": "bytes32",
                  "name": "channelId",
                  "type": "bytes32"
                }
              ],
              "internalType": "struct IbcEndpoint",
              "name": "src",
              "type": "tuple"
            },
            {
              "components": [
                {
                  "internalType": "string",
                  "name": "portId",
                  "type": "string"
                },
                {
                  "internalType": "bytes32",
                  "name": "channelId",
                  "type": "bytes32"
                }
              ],
              "internalType": "struct IbcEndpoint",
              "name": "dest",
              "type": "tuple"
            },
            {
              "internalType": "uint64",
              "name": "sequence",
              "type": "uint64"
            },
            {
              "internalType": "bytes",
              "name": "data",
              "type": "bytes"
            },
            {
              "components": [
                {
                  "internalType": "uint64",
                  "name": "block",
                  "type": "uint64"
                },
                {
                  "internalType": "uint64",
                  "name": "timestamp",
                  "type": "uint64"
                }
              ],
              "internalType": "struct IbcTimeout",
              "name": "timeout",
              "type": "tuple"
            }
          ],
          "internalType": "struct IbcPacket",
          "name": "packet",
          "type": "tuple"
        },
        {
          "components": [
            {
              "internalType": "uint64",
              "name": "proofHeight",
              "type": "uint64"
            },
            {
              "internalType": "bytes",
              "name": "proof",
              "type": "bytes"
            }
          ],
          "internalType": "struct Proof",
          "name": "proof",
          "type": "tuple"
        }
      ],
      "name": "onTimeoutPacket",
      "outputs": [],
      "stateMutability": "nonpayable",
      "type": "function"
    },
    {
      "inputs": [
        {
          "internalType": "contract IbcReceiver",
          "name": "portAddress",
          "type": "address"
        },
        {
          "internalType": "bytes32",
          "name": "version",
          "type": "bytes32"
        },
        {
          "internalType": "enum ChannelOrder",
          "name": "ordering",
          "type": "uint8"
        },
        {
          "internalType": "string[]",
          "name": "connectionHops",
          "type": "string[]"
        },
        {
          "internalType": "bytes32",
          "name": "counterpartyChannelId",
          "type": "bytes32"
        },
        {
          "internalType": "string",
          "name": "counterpartyPortId",
          "type": "string"
        },
        {
          "internalType": "bytes32",
          "name": "counterpartyVersion",
          "type": "bytes32"
        }
      ],
      "name": "openIbcChannel",
      "outputs": [],
      "stateMutability": "nonpayable",
      "type": "function"
    },
    {
      "inputs": [],
      "name": "owner",
      "outputs": [
        {
          "internalType": "address",
          "name": "",
          "type": "address"
        }
      ],
      "stateMutability": "view",
      "type": "function"
    },
    {
      "inputs": [
        {
          "internalType": "address",
          "name": "",
          "type": "address"
        },
        {
          "internalType": "bytes32",
          "name": "",
          "type": "bytes32"
        }
      ],
      "name": "portChannelMap",
      "outputs": [
        {
          "internalType": "bytes32",
          "name": "version",
          "type": "bytes32"
        },
        {
          "internalType": "enum ChannelOrder",
          "name": "ordering",
          "type": "uint8"
        },
        {
          "internalType": "string",
          "name": "counterpartyPortId",
          "type": "string"
        },
        {
          "internalType": "bytes32",
          "name": "counterpartyChannelId",
          "type": "bytes32"
        }
      ],
      "stateMutability": "view",
      "type": "function"
    },
    {
      "inputs": [],
      "name": "renounceOwnership",
      "outputs": [],
      "stateMutability": "nonpayable",
      "type": "function"
    },
    {
      "inputs": [
        {
          "internalType": "bytes32",
          "name": "channelId",
          "type": "bytes32"
        },
        {
          "internalType": "bytes",
          "name": "packet",
          "type": "bytes"
        },
        {
          "internalType": "uint64",
          "name": "timeoutTimestamp",
          "type": "uint64"
        }
      ],
      "name": "sendPacket",
      "outputs": [],
      "stateMutability": "nonpayable",
      "type": "function"
    },
    {
      "inputs": [
        {
          "internalType": "address",
          "name": "newOwner",
          "type": "address"
        }
      ],
      "name": "transferOwnership",
      "outputs": [],
      "stateMutability": "nonpayable",
      "type": "function"
    },
    {
      "inputs": [
        {
          "internalType": "bytes",
          "name": "consensusState",
          "type": "bytes"
        }
      ],
      "name": "updateClient",
      "outputs": [],
      "stateMutability": "nonpayable",
      "type": "function"
    }
  ],
  "bytecode": "0x60806040526000600360006101000a81548167ffffffffffffffff021916908367ffffffffffffffff1602179055503480156200003b57600080fd5b506040516200353d3803806200353d83398181016040528101906200006191906200022e565b6200008162000075620000e460201b60201c565b620000ec60201b60201c565b80600160006101000a81548173ffffffffffffffffffffffffffffffffffffffff021916908373ffffffffffffffffffffffffffffffffffffffff1602179055506000600160146101000a81548160ff0219169083151502179055505062000260565b600033905090565b60008060009054906101000a900473ffffffffffffffffffffffffffffffffffffffff169050816000806101000a81548173ffffffffffffffffffffffffffffffffffffffff021916908373ffffffffffffffffffffffffffffffffffffffff1602179055508173ffffffffffffffffffffffffffffffffffffffff168173ffffffffffffffffffffffffffffffffffffffff167f8be0079c531659141344cd1fd0a4f28419497f9722a3daafe3b4186f6b6457e060405160405180910390a35050565b600080fd5b600073ffffffffffffffffffffffffffffffffffffffff82169050919050565b6000620001e282620001b5565b9050919050565b6000620001f682620001d5565b9050919050565b6200020881620001e9565b81146200021457600080fd5b50565b6000815190506200022881620001fd565b92915050565b600060208284031215620002475762000246620001b0565b5b6000620002578482850162000217565b91505092915050565b6132cd80620002706000396000f3fe608060405234801561001057600080fd5b50600436106100f55760003560e01c8063715018a611610097578063c2a2514d11610066578063c2a2514d14610249578063c3e1155c14610267578063d2e9aa5614610283578063f2fde38b1461029f576100f5565b8063715018a6146101d25780638b24b4cb146101dc5780638da5cb5b146101f8578063b2b1bf0314610216576100f5565b80633e24aaf3116100d35780633e24aaf31461014e57806342852d241461016a5780634c9778d31461019a57806364260a60146101b6576100f5565b80630ad8d666146100fa5780630bece356146101165780631f456c1e14610132575b600080fd5b610114600480360381019061010f919061178d565b6102bb565b005b610130600480360381019061012b919061187d565b6103cd565b005b61014c600480360381019061014791906119d1565b610521565b005b61016860048036038101906101639190611ab3565b610625565b005b610184600480360381019061017f9190611b60565b6106af565b6040516101919190611dfe565b60405180910390f35b6101b460048036038101906101af9190611e20565b6108d4565b005b6101d060048036038101906101cb919061178d565b610c06565b005b6101da610cbe565b005b6101f660048036038101906101f19190611f33565b610cd2565b005b610200610ffa565b60405161020d9190611f6f565b60405180910390f35b610230600480360381019061022b9190611b60565b611023565b6040516102409493929190611ff2565b60405180910390f35b6102516110f5565b60405161025e9190612093565b60405180910390f35b610281600480360381019061027c91906120f5565b611183565b005b61029d60048036038101906102989190612169565b6111dc565b005b6102b960048036038101906102b49190612229565b611296565b005b6102c48161131a565b610303576040517f08c379a00000000000000000000000000000000000000000000000000000000081526004016102fa906122a2565b60405180910390fd5b81806020019061031391906122d1565b6020013582806000019061032791906122d1565b602001357f080631928e492258b6a102fc2ab3e0a8dfcb747ab0885c25f9cb7a8d4862103684806000019061035c91906122d1565b806000019061036b91906122f9565b86806020019061037b91906122d1565b806000019061038a91906122f9565b88806060019061039a919061235c565b8a60400160208101906103ad91906123bf565b6040516103c09796959493929190612464565b60405180910390a3505050565b600160149054906101000a900460ff1661041c576040517f08c379a000000000000000000000000000000000000000000000000000000000815260040161041390612510565b60405180910390fd5b600160009054906101000a900473ffffffffffffffffffffffffffffffffffffffff1673ffffffffffffffffffffffffffffffffffffffff1663e1ec100c600284846040518463ffffffff1660e01b815260040161047c93929190612626565b60206040518083038186803b15801561049457600080fd5b505afa1580156104a8573d6000803e3d6000fd5b505050506040513d601f19601f820116820180604052508101906104cc9190612697565b61050b576040517f08c379a000000000000000000000000000000000000000000000000000000000815260040161050290612736565b60405180910390fd5b81816002919061051c929190611492565b505050565b60008973ffffffffffffffffffffffffffffffffffffffff1663486592198a8a8a8a8a8a8a8a6040518963ffffffff1660e01b815260040161056a9897969594939291906128a9565b602060405180830381600087803b15801561058457600080fd5b505af1158015610598573d6000803e3d6000fd5b505050506040513d601f19601f820116820180604052508101906105bc9190612931565b9050848a73ffffffffffffffffffffffffffffffffffffffff167f9a93c124e7f0aa93d3fbe660b1366e0483b4267619924382261498efbb92c873838b8b8b8a8a8a604051610611979695949392919061295e565b60405180910390a350505050505050505050565b61062d611348565b600160149054906101000a900460ff161561067d576040517f08c379a000000000000000000000000000000000000000000000000000000000815260040161067490612a0f565b60405180910390fd5b60018060146101000a81548160ff0219169083151502179055508181600291906106a8929190611492565b5050505050565b6106b7611518565b600460008473ffffffffffffffffffffffffffffffffffffffff1673ffffffffffffffffffffffffffffffffffffffff16815260200190815260200160002060008381526020019081526020016000206040518060a0016040529081600082015481526020016001820160009054906101000a900460ff16600181111561074157610740611baf565b5b600181111561075357610752611baf565b5b815260200160028201805480602002602001604051908101604052809291908181526020016000905b8282101561082857838290600052602060002001805461079b9061255f565b80601f01602080910402602001604051908101604052809291908181526020018280546107c79061255f565b80156108145780601f106107e957610100808354040283529160200191610814565b820191906000526020600020905b8154815290600101906020018083116107f757829003601f168201915b50505050508152602001906001019061077c565b5050505081526020016003820180546108409061255f565b80601f016020809104026020016040519081016040528092919081815260200182805461086c9061255f565b80156108b95780601f1061088e576101008083540402835291602001916108b9565b820191906000526020600020905b81548152906001019060200180831161089c57829003601f168201915b50505050508152602001600482015481525050905092915050565b600160009054906101000a900473ffffffffffffffffffffffffffffffffffffffff1673ffffffffffffffffffffffffffffffffffffffff16639511059d6002836040518060800160405280605e815260200161323a605e91396040518463ffffffff1660e01b815260040161094c93929190612b91565b60206040518083038186803b15801561096457600080fd5b505afa158015610978573d6000803e3d6000fd5b505050506040513d601f19601f8201168201806040525081019061099c9190612697565b6109db576040517f08c379a00000000000000000000000000000000000000000000000000000000081526004016109d290612c3c565b60405180910390fd5b8973ffffffffffffffffffffffffffffffffffffffff1663e60a72938a85856040518463ffffffff1660e01b8152600401610a1893929190612c5c565b600060405180830381600087803b158015610a3257600080fd5b505af1158015610a46573d6000803e3d6000fd5b505050506040518060a00160405280838152602001876001811115610a6e57610a6d611baf565b5b8152602001898990610a809190612e67565b815260200186868080601f016020809104026020016040519081016040528093929190818152602001838380828437600081840152601f19601f82011690508083019250505050505050815260200184815250600460008c73ffffffffffffffffffffffffffffffffffffffff1673ffffffffffffffffffffffffffffffffffffffff16815260200190815260200160002060008b81526020019081526020016000206000820151816000015560208201518160010160006101000a81548160ff02191690836001811115610b5857610b57611baf565b5b02179055506040820151816002019080519060200190610b7992919061155f565b506060820151816003019080519060200190610b969291906115bf565b506080820151816004015590505082898b73ffffffffffffffffffffffffffffffffffffffff167f57ea540ad7b8bfd2813b8637764ba029fedc52de3f812934a46511506aa11b8e88888d8d604051610bf29493929190612e7c565b60405180910390a450505050505050505050565b610c0f8161131a565b610c4e576040517f08c379a0000000000000000000000000000000000000000000000000000000008152600401610c45906122a2565b60405180910390fd5b8273ffffffffffffffffffffffffffffffffffffffff1663b33c2577836040518263ffffffff1660e01b8152600401610c87919061303d565b600060405180830381600087803b158015610ca157600080fd5b505af1158015610cb5573d6000803e3d6000fd5b50505050505050565b610cc6611348565b610cd060006113c6565b565b6000600460003373ffffffffffffffffffffffffffffffffffffffff1673ffffffffffffffffffffffffffffffffffffffff16815260200190815260200160002060008381526020019081526020016000206040518060a0016040529081600082015481526020016001820160009054906101000a900460ff166001811115610d5e57610d5d611baf565b5b6001811115610d7057610d6f611baf565b5b815260200160028201805480602002602001604051908101604052809291908181526020016000905b82821015610e45578382906000526020600020018054610db89061255f565b80601f0160208091040260200160405190810160405280929190818152602001828054610de49061255f565b8015610e315780601f10610e0657610100808354040283529160200191610e31565b820191906000526020600020905b815481529060010190602001808311610e1457829003601f168201915b505050505081526020019060010190610d99565b505050508152602001600382018054610e5d9061255f565b80601f0160208091040260200160405190810160405280929190818152602001828054610e899061255f565b8015610ed65780601f10610eab57610100808354040283529160200191610ed6565b820191906000526020600020905b815481529060010190602001808311610eb957829003601f168201915b5050505050815260200160048201548152505090506000801b81608001511415610f35576040517f08c379a0000000000000000000000000000000000000000000000000000000008152600401610f2c906130ab565b60405180910390fd5b60003390508073ffffffffffffffffffffffffffffffffffffffff16635fe39e0d84846060015185608001516040518463ffffffff1660e01b8152600401610f7f939291906130cb565b600060405180830381600087803b158015610f9957600080fd5b505af1158015610fad573d6000803e3d6000fd5b50505050823373ffffffffffffffffffffffffffffffffffffffff167fe893e4ba0e364cdc96364b1e1e0d53b0d91e5fd6aa0ee9d81a17ecd61178bf1760405160405180910390a3505050565b60008060009054906101000a900473ffffffffffffffffffffffffffffffffffffffff16905090565b6004602052816000526040600020602052806000526040600020600091509150508060000154908060010160009054906101000a900460ff169080600301805461106c9061255f565b80601f01602080910402602001604051908101604052809291908181526020018280546110989061255f565b80156110e55780601f106110ba576101008083540402835291602001916110e5565b820191906000526020600020905b8154815290600101906020018083116110c857829003601f168201915b5050505050908060040154905084565b600280546111029061255f565b80601f016020809104026020016040519081016040528092919081815260200182805461112e9061255f565b801561117b5780601f106111505761010080835404028352916020019161117b565b820191906000526020600020905b81548152906001019060200180831161115e57829003601f168201915b505050505081565b833373ffffffffffffffffffffffffffffffffffffffff167fe5f4762afde15256ce24aa385b449d27b7d2776921f3c673f8162ddb5b7a2f168585856040516111ce93929190613109565b60405180910390a350505050565b6111e58161131a565b611224576040517f08c379a000000000000000000000000000000000000000000000000000000000815260040161121b906122a2565b60405180910390fd5b8473ffffffffffffffffffffffffffffffffffffffff1663f45cf5e4856040518263ffffffff1660e01b815260040161125d919061303d565b600060405180830381600087803b15801561127757600080fd5b505af115801561128b573d6000803e3d6000fd5b505050505050505050565b61129e611348565b600073ffffffffffffffffffffffffffffffffffffffff168173ffffffffffffffffffffffffffffffffffffffff16141561130e576040517f08c379a0000000000000000000000000000000000000000000000000000000008152600401611305906131ad565b60405180910390fd5b611317816113c6565b50565b60008082806020019061132d919061235c565b9050141561133e5760009050611343565b600190505b919050565b61135061148a565b73ffffffffffffffffffffffffffffffffffffffff1661136e610ffa565b73ffffffffffffffffffffffffffffffffffffffff16146113c4576040517f08c379a00000000000000000000000000000000000000000000000000000000081526004016113bb90613219565b60405180910390fd5b565b60008060009054906101000a900473ffffffffffffffffffffffffffffffffffffffff169050816000806101000a81548173ffffffffffffffffffffffffffffffffffffffff021916908373ffffffffffffffffffffffffffffffffffffffff1602179055508173ffffffffffffffffffffffffffffffffffffffff168173ffffffffffffffffffffffffffffffffffffffff167f8be0079c531659141344cd1fd0a4f28419497f9722a3daafe3b4186f6b6457e060405160405180910390a35050565b600033905090565b82805461149e9061255f565b90600052602060002090601f0160209004810192826114c05760008555611507565b82601f106114d957803560ff1916838001178555611507565b82800160010185558215611507579182015b828111156115065782358255916020019190600101906114eb565b5b5090506115149190611645565b5090565b6040518060a00160405280600080191681526020016000600181111561154157611540611baf565b5b81526020016060815260200160608152602001600080191681525090565b8280548282559060005260206000209081019282156115ae579160200282015b828111156115ad57825182908051906020019061159d9291906115bf565b509160200191906001019061157f565b5b5090506115bb9190611662565b5090565b8280546115cb9061255f565b90600052602060002090601f0160209004810192826115ed5760008555611634565b82601f1061160657805160ff1916838001178555611634565b82800160010185558215611634579182015b82811115611633578251825591602001919060010190611618565b5b5090506116419190611645565b5090565b5b8082111561165e576000816000905550600101611646565b5090565b5b8082111561168257600081816116799190611686565b50600101611663565b5090565b5080546116929061255f565b6000825580601f106116a457506116c3565b601f0160209004906000526020600020908101906116c29190611645565b5b50565b6000604051905090565b600080fd5b600080fd5b600073ffffffffffffffffffffffffffffffffffffffff82169050919050565b6000611705826116da565b9050919050565b6000611717826116fa565b9050919050565b6117278161170c565b811461173257600080fd5b50565b6000813590506117448161171e565b92915050565b600080fd5b600060c082840312156117655761176461174a565b5b81905092915050565b6000604082840312156117845761178361174a565b5b81905092915050565b6000806000606084860312156117a6576117a56116d0565b5b60006117b486828701611735565b935050602084013567ffffffffffffffff8111156117d5576117d46116d5565b5b6117e18682870161174f565b925050604084013567ffffffffffffffff811115611802576118016116d5565b5b61180e8682870161176e565b9150509250925092565b600080fd5b600080fd5b600080fd5b60008083601f84011261183d5761183c611818565b5b8235905067ffffffffffffffff81111561185a5761185961181d565b5b60208301915083600182028301111561187657611875611822565b5b9250929050565b60008060208385031215611894576118936116d0565b5b600083013567ffffffffffffffff8111156118b2576118b16116d5565b5b6118be85828601611827565b92509250509250929050565b6000819050919050565b6118dd816118ca565b81146118e857600080fd5b50565b6000813590506118fa816118d4565b92915050565b6002811061190d57600080fd5b50565b60008135905061191f81611900565b92915050565b60008083601f84011261193b5761193a611818565b5b8235905067ffffffffffffffff8111156119585761195761181d565b5b60208301915083602082028301111561197457611973611822565b5b9250929050565b60008083601f84011261199157611990611818565b5b8235905067ffffffffffffffff8111156119ae576119ad61181d565b5b6020830191508360018202830111156119ca576119c9611822565b5b9250929050565b600080600080600080600080600060e08a8c0312156119f3576119f26116d0565b5b6000611a018c828d01611735565b9950506020611a128c828d016118eb565b9850506040611a238c828d01611910565b97505060608a013567ffffffffffffffff811115611a4457611a436116d5565b5b611a508c828d01611925565b96509650506080611a638c828d016118eb565b94505060a08a013567ffffffffffffffff811115611a8457611a836116d5565b5b611a908c828d0161197b565b935093505060c0611aa38c828d016118eb565b9150509295985092959850929598565b60008060008060408587031215611acd57611acc6116d0565b5b600085013567ffffffffffffffff811115611aeb57611aea6116d5565b5b611af787828801611827565b9450945050602085013567ffffffffffffffff811115611b1a57611b196116d5565b5b611b2687828801611827565b925092505092959194509250565b611b3d816116fa565b8114611b4857600080fd5b50565b600081359050611b5a81611b34565b92915050565b60008060408385031215611b7757611b766116d0565b5b6000611b8585828601611b4b565b9250506020611b96858286016118eb565b9150509250929050565b611ba9816118ca565b82525050565b7f4e487b7100000000000000000000000000000000000000000000000000000000600052602160045260246000fd5b60028110611bef57611bee611baf565b5b50565b6000819050611c0082611bde565b919050565b6000611c1082611bf2565b9050919050565b611c2081611c05565b82525050565b600081519050919050565b600082825260208201905092915050565b6000819050602082019050919050565b600081519050919050565b600082825260208201905092915050565b60005b83811015611c8c578082015181840152602081019050611c71565b83811115611c9b576000848401525b50505050565b6000601f19601f8301169050919050565b6000611cbd82611c52565b611cc78185611c5d565b9350611cd7818560208601611c6e565b611ce081611ca1565b840191505092915050565b6000611cf78383611cb2565b905092915050565b6000602082019050919050565b6000611d1782611c26565b611d218185611c31565b935083602082028501611d3385611c42565b8060005b85811015611d6f5784840389528151611d508582611ceb565b9450611d5b83611cff565b925060208a01995050600181019050611d37565b50829750879550505050505092915050565b600060a083016000830151611d996000860182611ba0565b506020830151611dac6020860182611c17565b5060408301518482036040860152611dc48282611d0c565b91505060608301518482036060860152611dde8282611cb2565b9150506080830151611df36080860182611ba0565b508091505092915050565b60006020820190508181036000830152611e188184611d81565b905092915050565b6000806000806000806000806000806101008b8d031215611e4457611e436116d0565b5b6000611e528d828e01611735565b9a50506020611e638d828e016118eb565b99505060408b013567ffffffffffffffff811115611e8457611e836116d5565b5b611e908d828e01611925565b98509850506060611ea38d828e01611910565b96505060808b013567ffffffffffffffff811115611ec457611ec36116d5565b5b611ed08d828e0161197b565b955095505060a0611ee38d828e016118eb565b93505060c0611ef48d828e016118eb565b92505060e08b013567ffffffffffffffff811115611f1557611f146116d5565b5b611f218d828e0161176e565b9150509295989b9194979a5092959850565b600060208284031215611f4957611f486116d0565b5b6000611f57848285016118eb565b91505092915050565b611f69816116fa565b82525050565b6000602082019050611f846000830184611f60565b92915050565b611f93816118ca565b82525050565b611fa281611c05565b82525050565b600082825260208201905092915050565b6000611fc482611c52565b611fce8185611fa8565b9350611fde818560208601611c6e565b611fe781611ca1565b840191505092915050565b60006080820190506120076000830187611f8a565b6120146020830186611f99565b81810360408301526120268185611fb9565b90506120356060830184611f8a565b95945050505050565b600081519050919050565b600082825260208201905092915050565b60006120658261203e565b61206f8185612049565b935061207f818560208601611c6e565b61208881611ca1565b840191505092915050565b600060208201905081810360008301526120ad818461205a565b905092915050565b600067ffffffffffffffff82169050919050565b6120d2816120b5565b81146120dd57600080fd5b50565b6000813590506120ef816120c9565b92915050565b6000806000806060858703121561210f5761210e6116d0565b5b600061211d878288016118eb565b945050602085013567ffffffffffffffff81111561213e5761213d6116d5565b5b61214a87828801611827565b9350935050604061215d878288016120e0565b91505092959194509250565b600080600080600060808688031215612185576121846116d0565b5b600061219388828901611735565b955050602086013567ffffffffffffffff8111156121b4576121b36116d5565b5b6121c08882890161174f565b945050604086013567ffffffffffffffff8111156121e1576121e06116d5565b5b6121ed88828901611827565b9350935050606086013567ffffffffffffffff8111156122105761220f6116d5565b5b61221c8882890161176e565b9150509295509295909350565b60006020828403121561223f5761223e6116d0565b5b600061224d84828501611b4b565b91505092915050565b7f50726f6f6620766572696669636174696f6e206661696c656400000000000000600082015250565b600061228c601983611fa8565b915061229782612256565b602082019050919050565b600060208201905081810360008301526122bb8161227f565b9050919050565b600080fd5b600080fd5b600080fd5b6000823560016040038336030381126122ed576122ec6122c2565b5b80830191505092915050565b60008083356001602003843603038112612316576123156122c2565b5b80840192508235915067ffffffffffffffff821115612338576123376122c7565b5b602083019250600182023603831315612354576123536122cc565b5b509250929050565b60008083356001602003843603038112612379576123786122c2565b5b80840192508235915067ffffffffffffffff82111561239b5761239a6122c7565b5b6020830192506001820236038313156123b7576123b66122cc565b5b509250929050565b6000602082840312156123d5576123d46116d0565b5b60006123e3848285016120e0565b91505092915050565b82818337600083830152505050565b60006124078385611fa8565b93506124148385846123ec565b61241d83611ca1565b840190509392505050565b60006124348385612049565b93506124418385846123ec565b61244a83611ca1565b840190509392505050565b61245e816120b5565b82525050565b6000608082019050818103600083015261247f81898b6123fb565b905081810360208301526124948187896123fb565b905081810360408301526124a9818587612428565b90506124b86060830184612455565b98975050505050505050565b7f436c69656e74206e6f7420637265617465640000000000000000000000000000600082015250565b60006124fa601283611fa8565b9150612505826124c4565b602082019050919050565b60006020820190508181036000830152612529816124ed565b9050919050565b7f4e487b7100000000000000000000000000000000000000000000000000000000600052602260045260246000fd5b6000600282049050600182168061257757607f821691505b6020821081141561258b5761258a612530565b5b50919050565b60008190508160005260206000209050919050565b600081546125b38161255f565b6125bd8186612049565b945060018216600081146125d857600181146125ea5761261d565b60ff198316865260208601935061261d565b6125f385612591565b60005b83811015612615578154818901526001820191506020810190506125f6565b808801955050505b50505092915050565b6000604082019050818103600083015261264081866125a6565b90508181036020830152612655818486612428565b9050949350505050565b60008115159050919050565b6126748161265f565b811461267f57600080fd5b50565b6000815190506126918161266b565b92915050565b6000602082840312156126ad576126ac6116d0565b5b60006126bb84828501612682565b91505092915050565b7f436f6e73656e73757320737461746520766572696669636174696f6e2066616960008201527f6c65640000000000000000000000000000000000000000000000000000000000602082015250565b6000612720602383611fa8565b915061272b826126c4565b604082019050919050565b6000602082019050818103600083015261274f81612713565b9050919050565b600082825260208201905092915050565b6000819050919050565b600061277d8385611c5d565b935061278a8385846123ec565b61279383611ca1565b840190509392505050565b60006127ab848484612771565b90509392505050565b600080fd5b600080fd5b600080fd5b600080833560016020038436030381126127e0576127df6127be565b5b83810192508235915060208301925067ffffffffffffffff821115612808576128076127b4565b5b60018202360384131561281e5761281d6127b9565b5b509250929050565b6000602082019050919050565b600061283f8385612756565b93508360208402850161285184612767565b8060005b8781101561289757848403895261286c82846127c3565b61287786828461279e565b955061288284612826565b935060208b019a505050600181019050612855565b50829750879450505050509392505050565b600060c0820190506128be600083018b611f8a565b6128cb602083018a611f99565b81810360408301526128de81888a612833565b90506128ed6060830187611f8a565b81810360808301526129008185876123fb565b905061290f60a0830184611f8a565b9998505050505050505050565b60008151905061292b816118d4565b92915050565b600060208284031215612947576129466116d0565b5b60006129558482850161291c565b91505092915050565b600060a082019050612973600083018a611f8a565b6129806020830189611f99565b8181036040830152612993818789612833565b905081810360608301526129a88185876123fb565b90506129b76080830184611f8a565b98975050505050505050565b7f436c69656e7420616c7265616479206372656174656400000000000000000000600082015250565b60006129f9601683611fa8565b9150612a04826129c3565b602082019050919050565b60006020820190508181036000830152612a28816129ec565b9050919050565b6000612a3e60208401846120e0565b905092915050565b612a4f816120b5565b82525050565b60008083356001602003843603038112612a7257612a716127be565b5b83810192508235915060208301925067ffffffffffffffff821115612a9a57612a996127b4565b5b600182023603841315612ab057612aaf6127b9565b5b509250929050565b600082825260208201905092915050565b6000612ad58385612ab8565b9350612ae28385846123ec565b612aeb83611ca1565b840190509392505050565b600060408301612b096000840184612a2f565b612b166000860182612a46565b50612b246020840184612a55565b8583036020870152612b37838284612ac9565b925050508091505092915050565b7f6368616e6e656c2f706174682f746f2f62652f61646465642f68657265000000600082015250565b6000612b7b601d83612049565b9150612b8682612b45565b602082019050919050565b60006080820190508181036000830152612bab81866125a6565b90508181036020830152612bbf8185612af6565b90508181036040830152612bd281612b6e565b90508181036060830152612be6818461205a565b9050949350505050565b7f4661696c20746f2070726f7665206368616e6e656c2073746174650000000000600082015250565b6000612c26601b83611fa8565b9150612c3182612bf0565b602082019050919050565b60006020820190508181036000830152612c5581612c19565b9050919050565b6000606082019050612c716000830186611f8a565b612c7e6020830185611f8a565b612c8b6040830184611f8a565b949350505050565b7f4e487b7100000000000000000000000000000000000000000000000000000000600052604160045260246000fd5b612ccb82611ca1565b810181811067ffffffffffffffff82111715612cea57612ce9612c93565b5b80604052505050565b6000612cfd6116c6565b9050612d098282612cc2565b919050565b600067ffffffffffffffff821115612d2957612d28612c93565b5b602082029050602081019050919050565b600080fd5b600067ffffffffffffffff821115612d5a57612d59612c93565b5b612d6382611ca1565b9050602081019050919050565b6000612d83612d7e84612d3f565b612cf3565b905082815260208101848484011115612d9f57612d9e612d3a565b5b612daa8482856123ec565b509392505050565b600082601f830112612dc757612dc6611818565b5b8135612dd7848260208601612d70565b91505092915050565b6000612df3612dee84612d0e565b612cf3565b90508083825260208201905060208402830185811115612e1657612e15611822565b5b835b81811015612e5d57803567ffffffffffffffff811115612e3b57612e3a611818565b5b808601612e488982612db2565b85526020850194505050602081019050612e18565b5050509392505050565b6000612e74368484612de0565b905092915050565b60006040820190508181036000830152612e978186886123fb565b90508181036020830152612eac818486612833565b905095945050505050565b600082356001604003833603038112612ed357612ed26127be565b5b82810191505092915050565b6000612eee60208401846118eb565b905092915050565b600060408301612f0960008401846127c3565b8583036000870152612f1c838284612771565b92505050612f2d6020840184612edf565b612f3a6020860182611ba0565b508091505092915050565b600082905092915050565b60408201612f616000830183612a2f565b612f6e6000850182612a46565b50612f7c6020830183612a2f565b612f896020850182612a46565b50505050565b600060c08301612fa26000840184612eb7565b8482036000860152612fb48282612ef6565b915050612fc46020840184612eb7565b8482036020860152612fd68282612ef6565b915050612fe66040840184612a2f565b612ff36040860182612a46565b506130016060840184612a55565b8583036060870152613014838284612ac9565b925050506130256080840184612f45565b6130326080860182612f50565b508091505092915050565b600060208201905081810360008301526130578184612f8f565b905092915050565b7f4368616e6e656c206e6f74206f776e6564206279206d73672e73656e64657200600082015250565b6000613095601f83611fa8565b91506130a08261305f565b602082019050919050565b600060208201905081810360008301526130c481613088565b9050919050565b60006060820190506130e06000830186611f8a565b81810360208301526130f28185611fb9565b90506131016040830184611f8a565b949350505050565b60006040820190508181036000830152613124818587612428565b90506131336020830184612455565b949350505050565b7f4f776e61626c653a206e6577206f776e657220697320746865207a65726f206160008201527f6464726573730000000000000000000000000000000000000000000000000000602082015250565b6000613197602683611fa8565b91506131a28261313b565b604082019050919050565b600060208201905081810360008301526131c68161318a565b9050919050565b7f4f776e61626c653a2063616c6c6572206973206e6f7420746865206f776e6572600082015250565b6000613203602083611fa8565b915061320e826131cd565b602082019050919050565b60006020820190508181036000830152613232816131f6565b905091905056fe6578706563746564206368616e6e656c20627974657320636f6e73747275637465642066726f6d20706172616d732e204368616e6e656c2e5374617465203d207b41636b5f50656e64696e672c20436f6e6669726d5f50656e64696e677da26469706673582212208256589cb495ab5c1dbbaf7de1d72613c8bd0cd2a0e4403686cac98521cb117464736f6c63430008090033",
  "linkReferences": {},
  "deployedLinkReferences": {}
}