{
  "_format": "hh-sol-artifact-1",
  "contractName": "Dispatcher",
  "sourceName": "contracts/Dispatcher.sol",
  "abi": [
    {
      "inputs": [
        {
          "internalType": "contract ZKMintVerifier",
          "name": "_verifier",
          "type": "address"
        },
        {
          "internalType": "address payable",
          "name": "_escrow",
          "type": "address"
        }
      ],
      "stateMutability": "nonpayable",
      "type": "constructor"
    },
    {
      "anonymous": false,
      "inputs": [
        {
          "indexed": true,
          "internalType": "address",
          "name": "sourcePortAddress",
          "type": "address"
        },
        {
          "indexed": true,
          "internalType": "bytes32",
          "name": "sourceChannelId",
          "type": "bytes32"
        },
        {
          "indexed": false,
          "internalType": "bytes",
          "name": "acknowledgement",
          "type": "bytes"
        },
        {
          "indexed": false,
          "internalType": "uint64",
          "name": "sequence",
          "type": "uint64"
        }
      ],
      "name": "Acknowledgement",
      "type": "event"
    },
    {
      "anonymous": false,
      "inputs": [
        {
          "indexed": true,
          "internalType": "address",
          "name": "portAddress",
          "type": "address"
        },
        {
          "indexed": true,
          "internalType": "bytes32",
          "name": "channelId",
          "type": "bytes32"
        }
      ],
      "name": "CloseIbcChannel",
      "type": "event"
    },
    {
      "anonymous": false,
      "inputs": [
        {
          "indexed": true,
          "internalType": "address",
          "name": "portAddress",
          "type": "address"
        },
        {
          "indexed": true,
          "internalType": "bytes32",
          "name": "channelId",
          "type": "bytes32"
        },
        {
          "indexed": false,
          "internalType": "string",
          "name": "counterpartyPortId",
          "type": "string"
        },
        {
          "indexed": true,
          "internalType": "bytes32",
          "name": "counterpartyChannelId",
          "type": "bytes32"
        },
        {
          "indexed": false,
          "internalType": "string[]",
          "name": "connectionHops",
          "type": "string[]"
        }
      ],
      "name": "ConnectIbcChannel",
      "type": "event"
    },
    {
      "anonymous": false,
      "inputs": [
        {
          "indexed": true,
          "internalType": "bytes32",
          "name": "srcChannelId",
          "type": "bytes32"
        },
        {
          "indexed": false,
          "internalType": "string",
          "name": "srcPortId",
          "type": "string"
        },
        {
          "indexed": true,
          "internalType": "bytes32",
          "name": "destChannelId",
          "type": "bytes32"
        },
        {
          "indexed": false,
          "internalType": "string",
          "name": "destPortId",
          "type": "string"
        },
        {
          "indexed": false,
          "internalType": "bytes",
          "name": "data",
          "type": "bytes"
        },
        {
          "indexed": false,
          "internalType": "uint64",
          "name": "sequence",
          "type": "uint64"
        }
      ],
      "name": "OnRecvPacket",
      "type": "event"
    },
    {
      "anonymous": false,
      "inputs": [
        {
          "indexed": true,
          "internalType": "address",
          "name": "portAddress",
          "type": "address"
        },
        {
          "indexed": true,
          "internalType": "bytes32",
          "name": "counterpartyChannelId",
          "type": "bytes32"
        },
        {
          "indexed": false,
          "internalType": "bytes32",
          "name": "version",
          "type": "bytes32"
        },
        {
          "indexed": false,
          "internalType": "enum ChannelOrder",
          "name": "ordering",
          "type": "uint8"
        },
        {
          "indexed": false,
          "internalType": "string[]",
          "name": "connectionHops",
          "type": "string[]"
        },
        {
          "indexed": false,
          "internalType": "string",
          "name": "counterpartyPortId",
          "type": "string"
        },
        {
          "indexed": false,
          "internalType": "bytes32",
          "name": "counterpartyVersion",
          "type": "bytes32"
        }
      ],
      "name": "OpenIbcChannel",
      "type": "event"
    },
    {
      "anonymous": false,
      "inputs": [
        {
          "indexed": true,
          "internalType": "address",
          "name": "previousOwner",
          "type": "address"
        },
        {
          "indexed": true,
          "internalType": "address",
          "name": "newOwner",
          "type": "address"
        }
      ],
      "name": "OwnershipTransferred",
      "type": "event"
    },
    {
      "anonymous": false,
      "inputs": [
        {
          "indexed": true,
          "internalType": "address",
          "name": "sourcePortAddress",
          "type": "address"
        },
        {
          "indexed": true,
          "internalType": "bytes32",
          "name": "sourceChannelId",
          "type": "bytes32"
        },
        {
          "indexed": false,
          "internalType": "bytes",
          "name": "packet",
          "type": "bytes"
        },
        {
          "indexed": false,
          "internalType": "uint64",
          "name": "sequence",
          "type": "uint64"
        },
        {
          "indexed": false,
          "internalType": "uint64",
          "name": "timeoutTimestamp",
          "type": "uint64"
        },
        {
          "indexed": false,
          "internalType": "uint256",
          "name": "fee",
          "type": "uint256"
        }
      ],
      "name": "SendPacket",
      "type": "event"
    },
    {
      "inputs": [
        {
          "internalType": "contract IbcReceiver",
          "name": "receiver",
          "type": "address"
        },
        {
          "components": [
            {
              "components": [
                {
                  "internalType": "string",
                  "name": "portId",
                  "type": "string"
                },
                {
                  "internalType": "bytes32",
                  "name": "channelId",
                  "type": "bytes32"
                }
              ],
              "internalType": "struct IbcEndpoint",
              "name": "src",
              "type": "tuple"
            },
            {
              "components": [
                {
                  "internalType": "string",
                  "name": "portId",
                  "type": "string"
                },
                {
                  "internalType": "bytes32",
                  "name": "channelId",
                  "type": "bytes32"
                }
              ],
              "internalType": "struct IbcEndpoint",
              "name": "dest",
              "type": "tuple"
            },
            {
              "internalType": "uint64",
              "name": "sequence",
              "type": "uint64"
            },
            {
              "internalType": "bytes",
              "name": "data",
              "type": "bytes"
            },
            {
              "components": [
                {
                  "internalType": "uint64",
                  "name": "block",
                  "type": "uint64"
                },
                {
                  "internalType": "uint64",
                  "name": "timestamp",
                  "type": "uint64"
                }
              ],
              "internalType": "struct IbcTimeout",
              "name": "timeout",
              "type": "tuple"
            }
          ],
          "internalType": "struct IbcPacket",
          "name": "packet",
          "type": "tuple"
        },
        {
          "internalType": "bytes",
          "name": "acknowledgement",
          "type": "bytes"
        },
        {
          "components": [
            {
              "internalType": "uint64",
              "name": "proofHeight",
              "type": "uint64"
            },
            {
              "internalType": "bytes",
              "name": "proof",
              "type": "bytes"
            }
          ],
          "internalType": "struct Proof",
          "name": "proof",
          "type": "tuple"
        }
      ],
      "name": "acknowledgement",
      "outputs": [],
      "stateMutability": "nonpayable",
      "type": "function"
    },
    {
      "inputs": [
        {
          "internalType": "bytes32",
          "name": "channelId",
          "type": "bytes32"
        }
      ],
      "name": "closeIbcChannel",
      "outputs": [],
      "stateMutability": "nonpayable",
      "type": "function"
    },
    {
      "inputs": [
        {
          "internalType": "contract IbcReceiver",
          "name": "portAddress",
          "type": "address"
        },
        {
          "internalType": "bytes32",
          "name": "channelId",
          "type": "bytes32"
        },
        {
          "internalType": "string[]",
          "name": "connectionHops",
          "type": "string[]"
        },
        {
          "internalType": "enum ChannelOrder",
          "name": "ordering",
          "type": "uint8"
        },
        {
          "internalType": "string",
          "name": "counterpartyPortId",
          "type": "string"
        },
        {
          "internalType": "bytes32",
          "name": "counterpartyChannelId",
          "type": "bytes32"
        },
        {
          "internalType": "bytes32",
          "name": "counterpartyVersion",
          "type": "bytes32"
        },
        {
          "components": [
            {
              "internalType": "uint64",
              "name": "proofHeight",
              "type": "uint64"
            },
            {
              "internalType": "bytes",
              "name": "proof",
              "type": "bytes"
            }
          ],
          "internalType": "struct Proof",
          "name": "proof",
          "type": "tuple"
        }
      ],
      "name": "connectIbcChannel",
      "outputs": [],
      "stateMutability": "nonpayable",
      "type": "function"
    },
    {
      "inputs": [
        {
          "components": [
            {
              "internalType": "bytes",
              "name": "clientState",
              "type": "bytes"
            },
            {
              "internalType": "bytes",
              "name": "consensusState",
              "type": "bytes"
            }
          ],
          "internalType": "struct InitClientMsg",
          "name": "initClientMsg",
          "type": "tuple"
        }
      ],
      "name": "createClient",
      "outputs": [],
      "stateMutability": "nonpayable",
      "type": "function"
    },
    {
      "inputs": [
        {
          "internalType": "address",
          "name": "portAddress",
          "type": "address"
        },
        {
          "internalType": "bytes32",
          "name": "channelId",
          "type": "bytes32"
        }
      ],
      "name": "getChannel",
      "outputs": [
        {
          "components": [
            {
              "internalType": "bytes32",
              "name": "version",
              "type": "bytes32"
            },
            {
              "internalType": "enum ChannelOrder",
              "name": "ordering",
              "type": "uint8"
            },
            {
              "internalType": "string[]",
              "name": "connectionHops",
              "type": "string[]"
            },
            {
              "internalType": "string",
              "name": "counterpartyPortId",
              "type": "string"
            },
            {
              "internalType": "bytes32",
              "name": "counterpartyChannelId",
              "type": "bytes32"
            }
          ],
          "internalType": "struct Channel",
          "name": "",
          "type": "tuple"
        }
      ],
      "stateMutability": "view",
      "type": "function"
    },
    {
      "inputs": [],
      "name": "latestConsensusState",
      "outputs": [
        {
          "internalType": "bytes",
          "name": "",
          "type": "bytes"
        }
      ],
      "stateMutability": "view",
      "type": "function"
    },
    {
      "inputs": [
        {
          "internalType": "address",
          "name": "portAddress",
          "type": "address"
        },
        {
          "internalType": "bytes32",
          "name": "channelId",
          "type": "bytes32"
        },
        {
          "components": [
            {
              "internalType": "uint64",
              "name": "proofHeight",
              "type": "uint64"
            },
            {
              "internalType": "bytes",
              "name": "proof",
              "type": "bytes"
            }
          ],
          "internalType": "struct Proof",
          "name": "proof",
          "type": "tuple"
        }
      ],
      "name": "onCloseIbcChannel",
      "outputs": [],
      "stateMutability": "nonpayable",
      "type": "function"
    },
    {
      "inputs": [
        {
          "internalType": "contract IbcReceiver",
          "name": "receiver",
          "type": "address"
        },
        {
          "components": [
            {
              "components": [
                {
                  "internalType": "string",
                  "name": "portId",
                  "type": "string"
                },
                {
                  "internalType": "bytes32",
                  "name": "channelId",
                  "type": "bytes32"
                }
              ],
              "internalType": "struct IbcEndpoint",
              "name": "src",
              "type": "tuple"
            },
            {
              "components": [
                {
                  "internalType": "string",
                  "name": "portId",
                  "type": "string"
                },
                {
                  "internalType": "bytes32",
                  "name": "channelId",
                  "type": "bytes32"
                }
              ],
              "internalType": "struct IbcEndpoint",
              "name": "dest",
              "type": "tuple"
            },
            {
              "internalType": "uint64",
              "name": "sequence",
              "type": "uint64"
            },
            {
              "internalType": "bytes",
              "name": "data",
              "type": "bytes"
            },
            {
              "components": [
                {
                  "internalType": "uint64",
                  "name": "block",
                  "type": "uint64"
                },
                {
                  "internalType": "uint64",
                  "name": "timestamp",
                  "type": "uint64"
                }
              ],
              "internalType": "struct IbcTimeout",
              "name": "timeout",
              "type": "tuple"
            }
          ],
          "internalType": "struct IbcPacket",
          "name": "packet",
          "type": "tuple"
        },
        {
          "components": [
            {
              "internalType": "uint64",
              "name": "proofHeight",
              "type": "uint64"
            },
            {
              "internalType": "bytes",
              "name": "proof",
              "type": "bytes"
            }
          ],
          "internalType": "struct Proof",
          "name": "proof",
          "type": "tuple"
        }
      ],
      "name": "onRecvPacket",
      "outputs": [],
      "stateMutability": "nonpayable",
      "type": "function"
    },
    {
      "inputs": [
        {
          "internalType": "contract IbcReceiver",
          "name": "receiver",
          "type": "address"
        },
        {
          "components": [
            {
              "components": [
                {
                  "internalType": "string",
                  "name": "portId",
                  "type": "string"
                },
                {
                  "internalType": "bytes32",
                  "name": "channelId",
                  "type": "bytes32"
                }
              ],
              "internalType": "struct IbcEndpoint",
              "name": "src",
              "type": "tuple"
            },
            {
              "components": [
                {
                  "internalType": "string",
                  "name": "portId",
                  "type": "string"
                },
                {
                  "internalType": "bytes32",
                  "name": "channelId",
                  "type": "bytes32"
                }
              ],
              "internalType": "struct IbcEndpoint",
              "name": "dest",
              "type": "tuple"
            },
            {
              "internalType": "uint64",
              "name": "sequence",
              "type": "uint64"
            },
            {
              "internalType": "bytes",
              "name": "data",
              "type": "bytes"
            },
            {
              "components": [
                {
                  "internalType": "uint64",
                  "name": "block",
                  "type": "uint64"
                },
                {
                  "internalType": "uint64",
                  "name": "timestamp",
                  "type": "uint64"
                }
              ],
              "internalType": "struct IbcTimeout",
              "name": "timeout",
              "type": "tuple"
            }
          ],
          "internalType": "struct IbcPacket",
          "name": "packet",
          "type": "tuple"
        },
        {
          "components": [
            {
              "internalType": "uint64",
              "name": "proofHeight",
              "type": "uint64"
            },
            {
              "internalType": "bytes",
              "name": "proof",
              "type": "bytes"
            }
          ],
          "internalType": "struct Proof",
          "name": "proof",
          "type": "tuple"
        }
      ],
      "name": "onTimeoutPacket",
      "outputs": [],
      "stateMutability": "nonpayable",
      "type": "function"
    },
    {
      "inputs": [
        {
          "internalType": "contract IbcReceiver",
          "name": "portAddress",
          "type": "address"
        },
        {
          "internalType": "bytes32",
          "name": "version",
          "type": "bytes32"
        },
        {
          "internalType": "enum ChannelOrder",
          "name": "ordering",
          "type": "uint8"
        },
        {
          "internalType": "string[]",
          "name": "connectionHops",
          "type": "string[]"
        },
        {
          "internalType": "bytes32",
          "name": "counterpartyChannelId",
          "type": "bytes32"
        },
        {
          "internalType": "string",
          "name": "counterpartyPortId",
          "type": "string"
        },
        {
          "internalType": "bytes32",
          "name": "counterpartyVersion",
          "type": "bytes32"
        }
      ],
      "name": "openIbcChannel",
      "outputs": [],
      "stateMutability": "nonpayable",
      "type": "function"
    },
    {
      "inputs": [],
      "name": "owner",
      "outputs": [
        {
          "internalType": "address",
          "name": "",
          "type": "address"
        }
      ],
      "stateMutability": "view",
      "type": "function"
    },
    {
      "inputs": [
        {
          "internalType": "address",
          "name": "",
          "type": "address"
        },
        {
          "internalType": "bytes32",
          "name": "",
          "type": "bytes32"
        }
      ],
      "name": "portChannelMap",
      "outputs": [
        {
          "internalType": "bytes32",
          "name": "version",
          "type": "bytes32"
        },
        {
          "internalType": "enum ChannelOrder",
          "name": "ordering",
          "type": "uint8"
        },
        {
          "internalType": "string",
          "name": "counterpartyPortId",
          "type": "string"
        },
        {
          "internalType": "bytes32",
          "name": "counterpartyChannelId",
          "type": "bytes32"
        }
      ],
      "stateMutability": "view",
      "type": "function"
    },
    {
      "inputs": [],
      "name": "renounceOwnership",
      "outputs": [],
      "stateMutability": "nonpayable",
      "type": "function"
    },
    {
      "inputs": [
        {
          "internalType": "bytes32",
          "name": "channelId",
          "type": "bytes32"
        },
        {
          "internalType": "bytes",
          "name": "packet",
          "type": "bytes"
        },
        {
          "internalType": "uint64",
          "name": "timeoutTimestamp",
          "type": "uint64"
        },
        {
          "internalType": "uint256",
          "name": "fee",
          "type": "uint256"
        }
      ],
      "name": "sendPacket",
      "outputs": [],
      "stateMutability": "payable",
      "type": "function"
    },
    {
      "inputs": [
        {
          "internalType": "address",
          "name": "newOwner",
          "type": "address"
        }
      ],
      "name": "transferOwnership",
      "outputs": [],
      "stateMutability": "nonpayable",
      "type": "function"
    },
    {
      "inputs": [
        {
          "components": [
            {
              "internalType": "bytes",
              "name": "consensusState",
              "type": "bytes"
            },
            {
              "internalType": "uint64",
              "name": "height",
              "type": "uint64"
            },
            {
              "internalType": "bytes",
              "name": "zkProof",
              "type": "bytes"
            }
          ],
          "internalType": "struct UpdateClientMsg",
          "name": "updateClientMsg",
          "type": "tuple"
        }
      ],
      "name": "updateClient",
      "outputs": [],
      "stateMutability": "nonpayable",
      "type": "function"
    },
    {
      "inputs": [
        {
          "components": [
            {
              "internalType": "bytes",
              "name": "clientState",
              "type": "bytes"
            },
            {
              "internalType": "bytes",
              "name": "consensusState",
              "type": "bytes"
            }
          ],
          "internalType": "struct UpgradeClientMsg",
          "name": "upgradeClientMsg",
          "type": "tuple"
        }
      ],
      "name": "upgradeClient",
      "outputs": [],
      "stateMutability": "nonpayable",
      "type": "function"
    }
  ],
  "bytecode": "0x60806040526000600260146101000a81548160ff0219169083151502179055506000600460006101000a81548167ffffffffffffffff021916908367ffffffffffffffff1602179055503480156200005657600080fd5b50604051620048e5380380620048e583398181016040528101906200007c91906200034a565b6200009c62000090620001bb60201b60201c565b620001c360201b60201c565b81600160006101000a81548173ffffffffffffffffffffffffffffffffffffffff021916908373ffffffffffffffffffffffffffffffffffffffff16021790555080600260006101000a81548173ffffffffffffffffffffffffffffffffffffffff021916908373ffffffffffffffffffffffffffffffffffffffff160217905550600073ffffffffffffffffffffffffffffffffffffffff16600260009054906101000a900473ffffffffffffffffffffffffffffffffffffffff1673ffffffffffffffffffffffffffffffffffffffff161415620001b3576040517f08c379a0000000000000000000000000000000000000000000000000000000008152600401620001aa90620003f2565b60405180910390fd5b505062000414565b600033905090565b60008060009054906101000a900473ffffffffffffffffffffffffffffffffffffffff169050816000806101000a81548173ffffffffffffffffffffffffffffffffffffffff021916908373ffffffffffffffffffffffffffffffffffffffff1602179055508173ffffffffffffffffffffffffffffffffffffffff168173ffffffffffffffffffffffffffffffffffffffff167f8be0079c531659141344cd1fd0a4f28419497f9722a3daafe3b4186f6b6457e060405160405180910390a35050565b600080fd5b600073ffffffffffffffffffffffffffffffffffffffff82169050919050565b6000620002b9826200028c565b9050919050565b6000620002cd82620002ac565b9050919050565b620002df81620002c0565b8114620002eb57600080fd5b50565b600081519050620002ff81620002d4565b92915050565b600062000312826200028c565b9050919050565b620003248162000305565b81146200033057600080fd5b50565b600081519050620003448162000319565b92915050565b6000806040838503121562000364576200036362000287565b5b60006200037485828601620002ee565b9250506020620003878582860162000333565b9150509250929050565b600082825260208201905092915050565b7f457363726f772063616e6e6f74206265207a65726f2061646472657373000000600082015250565b6000620003da601d8362000391565b9150620003e782620003a2565b602082019050919050565b600060208201905081810360008301526200040d81620003cb565b9050919050565b6144c180620004246000396000f3fe6080604052600436106100fe5760003560e01c8063715018a611610095578063951538f311610064578063951538f3146102e6578063b2b1bf031461030f578063c2a2514d1461034f578063f2fde38b1461037a578063f726a384146103a3576100fe565b8063715018a61461025f5780638b24b4cb146102765780638d3d5aa91461029f5780638da5cb5b146102bb576100fe565b80634c9778d3116100d15780634c9778d3146101bb5780634efde434146101e457806364260a601461020d5780636787464914610236576100fe565b80630ad8d666146101035780631f456c1e1461012c57806342852d2414610155578063487fca7e14610192575b600080fd5b34801561010f57600080fd5b5061012a600480360381019061012591906124da565b6103cc565b005b34801561013857600080fd5b50610153600480360381019061014e919061267b565b6104de565b005b34801561016157600080fd5b5061017c60048036038101906101779190612789565b6105e2565b6040516101899190612a27565b60405180910390f35b34801561019e57600080fd5b506101b960048036038101906101b49190612a68565b610807565b005b3480156101c757600080fd5b506101e260048036038101906101dd9190612ab1565b61089d565b005b3480156101f057600080fd5b5061020b60048036038101906102069190612be3565b610bcf565b005b34801561021957600080fd5b50610234600480360381019061022f91906124da565b610c49565b005b34801561024257600080fd5b5061025d60048036038101906102589190612c4b565b610d01565b005b34801561026b57600080fd5b50610274610e60565b005b34801561028257600080fd5b5061029d60048036038101906102989190612c94565b610e74565b005b6102b960048036038101906102b49190612d8d565b61119c565b005b3480156102c757600080fd5b506102d06116a8565b6040516102dd9190612e24565b60405180910390f35b3480156102f257600080fd5b5061030d60048036038101906103089190612e3f565b6116d1565b005b34801561031b57600080fd5b5061033660048036038101906103319190612789565b611b99565b6040516103469493929190612f16565b60405180910390f35b34801561035b57600080fd5b50610364611c6b565b6040516103719190612fb7565b60405180910390f35b34801561038657600080fd5b506103a1600480360381019061039c9190612fd9565b611cf9565b005b3480156103af57600080fd5b506103ca60048036038101906103c59190613006565b611d7d565b005b6103d581612046565b610414576040517f08c379a000000000000000000000000000000000000000000000000000000000815260040161040b90613112565b60405180910390fd5b8180602001906104249190613141565b602001358280600001906104389190613141565b602001357f080631928e492258b6a102fc2ab3e0a8dfcb747ab0885c25f9cb7a8d4862103684806000019061046d9190613141565b806000019061047c9190613169565b86806020019061048c9190613141565b806000019061049b9190613169565b8880606001906104ab91906131cc565b8a60400160208101906104be919061322f565b6040516104d197969594939291906132d4565b60405180910390a3505050565b60008973ffffffffffffffffffffffffffffffffffffffff1663486592198a8a8a8a8a8a8a8a6040518963ffffffff1660e01b8152600401610527989796959493929190613487565b602060405180830381600087803b15801561054157600080fd5b505af1158015610555573d6000803e3d6000fd5b505050506040513d601f19601f82011682018060405250810190610579919061350f565b9050848a73ffffffffffffffffffffffffffffffffffffffff167f9a93c124e7f0aa93d3fbe660b1366e0483b4267619924382261498efbb92c873838b8b8b8a8a8a6040516105ce979695949392919061353c565b60405180910390a350505050505050505050565b6105ea6121be565b600560008473ffffffffffffffffffffffffffffffffffffffff1673ffffffffffffffffffffffffffffffffffffffff16815260200190815260200160002060008381526020019081526020016000206040518060a0016040529081600082015481526020016001820160009054906101000a900460ff166001811115610674576106736127d8565b5b6001811115610686576106856127d8565b5b815260200160028201805480602002602001604051908101604052809291908181526020016000905b8282101561075b5783829060005260206000200180546106ce906135d0565b80601f01602080910402602001604051908101604052809291908181526020018280546106fa906135d0565b80156107475780601f1061071c57610100808354040283529160200191610747565b820191906000526020600020905b81548152906001019060200180831161072a57829003601f168201915b5050505050815260200190600101906106af565b505050508152602001600382018054610773906135d0565b80601f016020809104026020016040519081016040528092919081815260200182805461079f906135d0565b80156107ec5780601f106107c1576101008083540402835291602001916107ec565b820191906000526020600020905b8154815290600101906020018083116107cf57829003601f168201915b50505050508152602001600482015481525050905092915050565b61080f612074565b600260149054906101000a900460ff161561085f576040517f08c379a00000000000000000000000000000000000000000000000000000000081526004016108569061364e565b60405180910390fd5b6001600260146101000a81548160ff02191690831515021790555080806020019061088a91906131cc565b60039190610899929190612205565b5050565b600160009054906101000a900473ffffffffffffffffffffffffffffffffffffffff1673ffffffffffffffffffffffffffffffffffffffff16639511059d6003836040518060800160405280605e81526020016143db605e91396040518463ffffffff1660e01b815260040161091593929190613865565b60206040518083038186803b15801561092d57600080fd5b505afa158015610941573d6000803e3d6000fd5b505050506040513d601f19601f8201168201806040525081019061096591906138fc565b6109a4576040517f08c379a000000000000000000000000000000000000000000000000000000000815260040161099b90613975565b60405180910390fd5b8973ffffffffffffffffffffffffffffffffffffffff1663e60a72938a85856040518463ffffffff1660e01b81526004016109e193929190613995565b600060405180830381600087803b1580156109fb57600080fd5b505af1158015610a0f573d6000803e3d6000fd5b505050506040518060a00160405280838152602001876001811115610a3757610a366127d8565b5b8152602001898990610a499190613ba0565b815260200186868080601f016020809104026020016040519081016040528093929190818152602001838380828437600081840152601f19601f82011690508083019250505050505050815260200184815250600560008c73ffffffffffffffffffffffffffffffffffffffff1673ffffffffffffffffffffffffffffffffffffffff16815260200190815260200160002060008b81526020019081526020016000206000820151816000015560208201518160010160006101000a81548160ff02191690836001811115610b2157610b206127d8565b5b02179055506040820151816002019080519060200190610b4292919061228b565b506060820151816003019080519060200190610b5f9291906122eb565b506080820151816004015590505082898b73ffffffffffffffffffffffffffffffffffffffff167f57ea540ad7b8bfd2813b8637764ba029fedc52de3f812934a46511506aa11b8e88888d8d604051610bbb9493929190613bb5565b60405180910390a450505050505050505050565b610bd7612074565b600260149054906101000a900460ff16610c26576040517f08c379a0000000000000000000000000000000000000000000000000000000008152600401610c1d90613c3c565b60405180910390fd5b808060200190610c3691906131cc565b60039190610c45929190612205565b5050565b610c5281612046565b610c91576040517f08c379a0000000000000000000000000000000000000000000000000000000008152600401610c8890613112565b60405180910390fd5b8273ffffffffffffffffffffffffffffffffffffffff1663b33c2577836040518263ffffffff1660e01b8152600401610cca9190613de2565b600060405180830381600087803b158015610ce457600080fd5b505af1158015610cf8573d6000803e3d6000fd5b50505050505050565b600260149054906101000a900460ff16610d50576040517f08c379a0000000000000000000000000000000000000000000000000000000008152600401610d4790613c3c565b60405180910390fd5b600160009054906101000a900473ffffffffffffffffffffffffffffffffffffffff1673ffffffffffffffffffffffffffffffffffffffff1663ab5eba266003836040518363ffffffff1660e01b8152600401610dae929190613e77565b60206040518083038186803b158015610dc657600080fd5b505afa158015610dda573d6000803e3d6000fd5b505050506040513d601f19601f82011682018060405250810190610dfe91906138fc565b610e3d576040517f08c379a0000000000000000000000000000000000000000000000000000000008152600401610e3490613f20565b60405180910390fd5b808060000190610e4d91906131cc565b60039190610e5c929190612205565b5050565b610e68612074565b610e7260006120f2565b565b6000600560003373ffffffffffffffffffffffffffffffffffffffff1673ffffffffffffffffffffffffffffffffffffffff16815260200190815260200160002060008381526020019081526020016000206040518060a0016040529081600082015481526020016001820160009054906101000a900460ff166001811115610f0057610eff6127d8565b5b6001811115610f1257610f116127d8565b5b815260200160028201805480602002602001604051908101604052809291908181526020016000905b82821015610fe7578382906000526020600020018054610f5a906135d0565b80601f0160208091040260200160405190810160405280929190818152602001828054610f86906135d0565b8015610fd35780601f10610fa857610100808354040283529160200191610fd3565b820191906000526020600020905b815481529060010190602001808311610fb657829003601f168201915b505050505081526020019060010190610f3b565b505050508152602001600382018054610fff906135d0565b80601f016020809104026020016040519081016040528092919081815260200182805461102b906135d0565b80156110785780601f1061104d57610100808354040283529160200191611078565b820191906000526020600020905b81548152906001019060200180831161105b57829003601f168201915b5050505050815260200160048201548152505090506000801b816080015114156110d7576040517f08c379a00000000000000000000000000000000000000000000000000000000081526004016110ce90613f8c565b60405180910390fd5b60003390508073ffffffffffffffffffffffffffffffffffffffff16635fe39e0d84846060015185608001516040518463ffffffff1660e01b815260040161112193929190613fac565b600060405180830381600087803b15801561113b57600080fd5b505af115801561114f573d6000803e3d6000fd5b50505050823373ffffffffffffffffffffffffffffffffffffffff167fe893e4ba0e364cdc96364b1e1e0d53b0d91e5fd6aa0ee9d81a17ecd61178bf1760405160405180910390a3505050565b6000600560003373ffffffffffffffffffffffffffffffffffffffff1673ffffffffffffffffffffffffffffffffffffffff16815260200190815260200160002060008781526020019081526020016000206040518060a0016040529081600082015481526020016001820160009054906101000a900460ff166001811115611228576112276127d8565b5b600181111561123a576112396127d8565b5b815260200160028201805480602002602001604051908101604052809291908181526020016000905b8282101561130f578382906000526020600020018054611282906135d0565b80601f01602080910402602001604051908101604052809291908181526020018280546112ae906135d0565b80156112fb5780601f106112d0576101008083540402835291602001916112fb565b820191906000526020600020905b8154815290600101906020018083116112de57829003601f168201915b505050505081526020019060010190611263565b505050508152602001600382018054611327906135d0565b80601f0160208091040260200160405190810160405280929190818152602001828054611353906135d0565b80156113a05780601f10611375576101008083540402835291602001916113a0565b820191906000526020600020905b81548152906001019060200180831161138357829003601f168201915b5050505050815260200160048201548152505090506000801b816080015114156113ff576040517f08c379a00000000000000000000000000000000000000000000000000000000081526004016113f690614036565b60405180910390fd5b6000600260009054906101000a900473ffffffffffffffffffffffffffffffffffffffff1673ffffffffffffffffffffffffffffffffffffffff168360405161144790614087565b60006040518083038185875af1925050503d8060008114611484576040519150601f19603f3d011682016040523d82523d6000602084013e611489565b606091505b50509050806114cd576040517f08c379a00000000000000000000000000000000000000000000000000000000081526004016114c4906140e8565b60405180910390fd5b6000600660003373ffffffffffffffffffffffffffffffffffffffff1673ffffffffffffffffffffffffffffffffffffffff168152602001908152602001600020600089815260200190815260200160002060009054906101000a900467ffffffffffffffff1690506001816115439190614137565b600660003373ffffffffffffffffffffffffffffffffffffffff1673ffffffffffffffffffffffffffffffffffffffff16815260200190815260200160002060008a815260200190815260200160002060006101000a81548167ffffffffffffffff021916908367ffffffffffffffff1602179055506001600760003373ffffffffffffffffffffffffffffffffffffffff1673ffffffffffffffffffffffffffffffffffffffff16815260200190815260200160002060008a815260200190815260200160002060008367ffffffffffffffff1667ffffffffffffffff16815260200190815260200160002060006101000a81548160ff021916908315150217905550873373ffffffffffffffffffffffffffffffffffffffff167fc55a6c1340ca55a6b61de30037455a7f9f4a5b8ff106e4eaa0c23ea886fa03608989858a8a604051611696959493929190614184565b60405180910390a35050505050505050565b60008060009054906101000a900473ffffffffffffffffffffffffffffffffffffffff16905090565b600160009054906101000a900473ffffffffffffffffffffffffffffffffffffffff1673ffffffffffffffffffffffffffffffffffffffff16639511059d600383604051806080016040528060538152602001614439605391396040518463ffffffff1660e01b815260040161174993929190613865565b60206040518083038186803b15801561176157600080fd5b505afa158015611775573d6000803e3d6000fd5b505050506040513d601f19601f8201168201806040525081019061179991906138fc565b6117d8576040517f08c379a00000000000000000000000000000000000000000000000000000000081526004016117cf90613975565b60405180910390fd5b6000600560008573ffffffffffffffffffffffffffffffffffffffff1673ffffffffffffffffffffffffffffffffffffffff16815260200190815260200160002060008481526020019081526020016000206040518060a0016040529081600082015481526020016001820160009054906101000a900460ff166001811115611864576118636127d8565b5b6001811115611876576118756127d8565b5b815260200160028201805480602002602001604051908101604052809291908181526020016000905b8282101561194b5783829060005260206000200180546118be906135d0565b80601f01602080910402602001604051908101604052809291908181526020018280546118ea906135d0565b80156119375780601f1061190c57610100808354040283529160200191611937565b820191906000526020600020905b81548152906001019060200180831161191a57829003601f168201915b50505050508152602001906001019061189f565b505050508152602001600382018054611963906135d0565b80601f016020809104026020016040519081016040528092919081815260200182805461198f906135d0565b80156119dc5780601f106119b1576101008083540402835291602001916119dc565b820191906000526020600020905b8154815290600101906020018083116119bf57829003601f168201915b5050505050815260200160048201548152505090506000801b81608001511415611a3b576040517f08c379a0000000000000000000000000000000000000000000000000000000008152600401611a329061421e565b60405180910390fd5b60008490508073ffffffffffffffffffffffffffffffffffffffff16635fe39e0d85846060015185608001516040518463ffffffff1660e01b8152600401611a8593929190613fac565b600060405180830381600087803b158015611a9f57600080fd5b505af1158015611ab3573d6000803e3d6000fd5b50505050600560008673ffffffffffffffffffffffffffffffffffffffff1673ffffffffffffffffffffffffffffffffffffffff16815260200190815260200160002060008581526020019081526020016000206000808201600090556001820160006101000a81549060ff0219169055600282016000611b349190612371565b600382016000611b449190612392565b60048201600090555050838573ffffffffffffffffffffffffffffffffffffffff167fe893e4ba0e364cdc96364b1e1e0d53b0d91e5fd6aa0ee9d81a17ecd61178bf1760405160405180910390a35050505050565b6005602052816000526040600020602052806000526040600020600091509150508060000154908060010160009054906101000a900460ff1690806003018054611be2906135d0565b80601f0160208091040260200160405190810160405280929190818152602001828054611c0e906135d0565b8015611c5b5780601f10611c3057610100808354040283529160200191611c5b565b820191906000526020600020905b815481529060010190602001808311611c3e57829003601f168201915b5050505050908060040154905084565b60038054611c78906135d0565b80601f0160208091040260200160405190810160405280929190818152602001828054611ca4906135d0565b8015611cf15780601f10611cc657610100808354040283529160200191611cf1565b820191906000526020600020905b815481529060010190602001808311611cd457829003601f168201915b505050505081565b611d01612074565b600073ffffffffffffffffffffffffffffffffffffffff168173ffffffffffffffffffffffffffffffffffffffff161415611d71576040517f08c379a0000000000000000000000000000000000000000000000000000000008152600401611d68906142b0565b60405180910390fd5b611d7a816120f2565b50565b611d8681612046565b611dc5576040517f08c379a0000000000000000000000000000000000000000000000000000000008152600401611dbc90613112565b60405180910390fd5b6000600760008773ffffffffffffffffffffffffffffffffffffffff1673ffffffffffffffffffffffffffffffffffffffff1681526020019081526020016000206000868060000190611e189190613141565b6020013581526020019081526020016000206000866040016020810190611e3f919061322f565b67ffffffffffffffff1667ffffffffffffffff16815260200190815260200160002060009054906101000a900460ff16905080611eb1576040517f08c379a0000000000000000000000000000000000000000000000000000000008152600401611ea89061431c565b60405180910390fd5b8573ffffffffffffffffffffffffffffffffffffffff1663f45cf5e4866040518263ffffffff1660e01b8152600401611eea9190613de2565b600060405180830381600087803b158015611f0457600080fd5b505af1158015611f18573d6000803e3d6000fd5b50505050600760008773ffffffffffffffffffffffffffffffffffffffff1673ffffffffffffffffffffffffffffffffffffffff1681526020019081526020016000206000868060000190611f6d9190613141565b6020013581526020019081526020016000206000866040016020810190611f94919061322f565b67ffffffffffffffff1667ffffffffffffffff16815260200190815260200160002060006101000a81549060ff0219169055848060000190611fd69190613141565b602001358673ffffffffffffffffffffffffffffffffffffffff167f2200d57beee43012979c8117df494fc02516ea0a24509b99be3b586c773ba2d08686896040016020810190612027919061322f565b6040516120369392919061433c565b60405180910390a3505050505050565b60008082806020019061205991906131cc565b9050141561206a576000905061206f565b600190505b919050565b61207c6121b6565b73ffffffffffffffffffffffffffffffffffffffff1661209a6116a8565b73ffffffffffffffffffffffffffffffffffffffff16146120f0576040517f08c379a00000000000000000000000000000000000000000000000000000000081526004016120e7906143ba565b60405180910390fd5b565b60008060009054906101000a900473ffffffffffffffffffffffffffffffffffffffff169050816000806101000a81548173ffffffffffffffffffffffffffffffffffffffff021916908373ffffffffffffffffffffffffffffffffffffffff1602179055508173ffffffffffffffffffffffffffffffffffffffff168173ffffffffffffffffffffffffffffffffffffffff167f8be0079c531659141344cd1fd0a4f28419497f9722a3daafe3b4186f6b6457e060405160405180910390a35050565b600033905090565b6040518060a0016040528060008019168152602001600060018111156121e7576121e66127d8565b5b81526020016060815260200160608152602001600080191681525090565b828054612211906135d0565b90600052602060002090601f016020900481019282612233576000855561227a565b82601f1061224c57803560ff191683800117855561227a565b8280016001018555821561227a579182015b8281111561227957823582559160200191906001019061225e565b5b50905061228791906123d2565b5090565b8280548282559060005260206000209081019282156122da579160200282015b828111156122d95782518290805190602001906122c99291906122eb565b50916020019190600101906122ab565b5b5090506122e791906123ef565b5090565b8280546122f7906135d0565b90600052602060002090601f0160209004810192826123195760008555612360565b82601f1061233257805160ff1916838001178555612360565b82800160010185558215612360579182015b8281111561235f578251825591602001919060010190612344565b5b50905061236d91906123d2565b5090565b508054600082559060005260206000209081019061238f91906123ef565b50565b50805461239e906135d0565b6000825580601f106123b057506123cf565b601f0160209004906000526020600020908101906123ce91906123d2565b5b50565b5b808211156123eb5760008160009055506001016123d3565b5090565b5b8082111561240f57600081816124069190612392565b506001016123f0565b5090565b6000604051905090565b600080fd5b600080fd5b600073ffffffffffffffffffffffffffffffffffffffff82169050919050565b600061245282612427565b9050919050565b600061246482612447565b9050919050565b61247481612459565b811461247f57600080fd5b50565b6000813590506124918161246b565b92915050565b600080fd5b600060c082840312156124b2576124b1612497565b5b81905092915050565b6000604082840312156124d1576124d0612497565b5b81905092915050565b6000806000606084860312156124f3576124f261241d565b5b600061250186828701612482565b935050602084013567ffffffffffffffff81111561252257612521612422565b5b61252e8682870161249c565b925050604084013567ffffffffffffffff81111561254f5761254e612422565b5b61255b868287016124bb565b9150509250925092565b6000819050919050565b61257881612565565b811461258357600080fd5b50565b6000813590506125958161256f565b92915050565b600281106125a857600080fd5b50565b6000813590506125ba8161259b565b92915050565b600080fd5b600080fd5b600080fd5b60008083601f8401126125e5576125e46125c0565b5b8235905067ffffffffffffffff811115612602576126016125c5565b5b60208301915083602082028301111561261e5761261d6125ca565b5b9250929050565b60008083601f84011261263b5761263a6125c0565b5b8235905067ffffffffffffffff811115612658576126576125c5565b5b602083019150836001820283011115612674576126736125ca565b5b9250929050565b600080600080600080600080600060e08a8c03121561269d5761269c61241d565b5b60006126ab8c828d01612482565b99505060206126bc8c828d01612586565b98505060406126cd8c828d016125ab565b97505060608a013567ffffffffffffffff8111156126ee576126ed612422565b5b6126fa8c828d016125cf565b9650965050608061270d8c828d01612586565b94505060a08a013567ffffffffffffffff81111561272e5761272d612422565b5b61273a8c828d01612625565b935093505060c061274d8c828d01612586565b9150509295985092959850929598565b61276681612447565b811461277157600080fd5b50565b6000813590506127838161275d565b92915050565b600080604083850312156127a05761279f61241d565b5b60006127ae85828601612774565b92505060206127bf85828601612586565b9150509250929050565b6127d281612565565b82525050565b7f4e487b7100000000000000000000000000000000000000000000000000000000600052602160045260246000fd5b60028110612818576128176127d8565b5b50565b600081905061282982612807565b919050565b60006128398261281b565b9050919050565b6128498161282e565b82525050565b600081519050919050565b600082825260208201905092915050565b6000819050602082019050919050565b600081519050919050565b600082825260208201905092915050565b60005b838110156128b557808201518184015260208101905061289a565b838111156128c4576000848401525b50505050565b6000601f19601f8301169050919050565b60006128e68261287b565b6128f08185612886565b9350612900818560208601612897565b612909816128ca565b840191505092915050565b600061292083836128db565b905092915050565b6000602082019050919050565b60006129408261284f565b61294a818561285a565b93508360208202850161295c8561286b565b8060005b8581101561299857848403895281516129798582612914565b945061298483612928565b925060208a01995050600181019050612960565b50829750879550505050505092915050565b600060a0830160008301516129c260008601826127c9565b5060208301516129d56020860182612840565b50604083015184820360408601526129ed8282612935565b91505060608301518482036060860152612a0782826128db565b9150506080830151612a1c60808601826127c9565b508091505092915050565b60006020820190508181036000830152612a4181846129aa565b905092915050565b600060408284031215612a5f57612a5e612497565b5b81905092915050565b600060208284031215612a7e57612a7d61241d565b5b600082013567ffffffffffffffff811115612a9c57612a9b612422565b5b612aa884828501612a49565b91505092915050565b6000806000806000806000806000806101008b8d031215612ad557612ad461241d565b5b6000612ae38d828e01612482565b9a50506020612af48d828e01612586565b99505060408b013567ffffffffffffffff811115612b1557612b14612422565b5b612b218d828e016125cf565b98509850506060612b348d828e016125ab565b96505060808b013567ffffffffffffffff811115612b5557612b54612422565b5b612b618d828e01612625565b955095505060a0612b748d828e01612586565b93505060c0612b858d828e01612586565b92505060e08b013567ffffffffffffffff811115612ba657612ba5612422565b5b612bb28d828e016124bb565b9150509295989b9194979a5092959850565b600060408284031215612bda57612bd9612497565b5b81905092915050565b600060208284031215612bf957612bf861241d565b5b600082013567ffffffffffffffff811115612c1757612c16612422565b5b612c2384828501612bc4565b91505092915050565b600060608284031215612c4257612c41612497565b5b81905092915050565b600060208284031215612c6157612c6061241d565b5b600082013567ffffffffffffffff811115612c7f57612c7e612422565b5b612c8b84828501612c2c565b91505092915050565b600060208284031215612caa57612ca961241d565b5b6000612cb884828501612586565b91505092915050565b60008083601f840112612cd757612cd66125c0565b5b8235905067ffffffffffffffff811115612cf457612cf36125c5565b5b602083019150836001820283011115612d1057612d0f6125ca565b5b9250929050565b600067ffffffffffffffff82169050919050565b612d3481612d17565b8114612d3f57600080fd5b50565b600081359050612d5181612d2b565b92915050565b6000819050919050565b612d6a81612d57565b8114612d7557600080fd5b50565b600081359050612d8781612d61565b92915050565b600080600080600060808688031215612da957612da861241d565b5b6000612db788828901612586565b955050602086013567ffffffffffffffff811115612dd857612dd7612422565b5b612de488828901612cc1565b94509450506040612df788828901612d42565b9250506060612e0888828901612d78565b9150509295509295909350565b612e1e81612447565b82525050565b6000602082019050612e396000830184612e15565b92915050565b600080600060608486031215612e5857612e5761241d565b5b6000612e6686828701612774565b9350506020612e7786828701612586565b925050604084013567ffffffffffffffff811115612e9857612e97612422565b5b612ea4868287016124bb565b9150509250925092565b612eb781612565565b82525050565b612ec68161282e565b82525050565b600082825260208201905092915050565b6000612ee88261287b565b612ef28185612ecc565b9350612f02818560208601612897565b612f0b816128ca565b840191505092915050565b6000608082019050612f2b6000830187612eae565b612f386020830186612ebd565b8181036040830152612f4a8185612edd565b9050612f596060830184612eae565b95945050505050565b600081519050919050565b600082825260208201905092915050565b6000612f8982612f62565b612f938185612f6d565b9350612fa3818560208601612897565b612fac816128ca565b840191505092915050565b60006020820190508181036000830152612fd18184612f7e565b905092915050565b600060208284031215612fef57612fee61241d565b5b6000612ffd84828501612774565b91505092915050565b6000806000806000608086880312156130225761302161241d565b5b600061303088828901612482565b955050602086013567ffffffffffffffff81111561305157613050612422565b5b61305d8882890161249c565b945050604086013567ffffffffffffffff81111561307e5761307d612422565b5b61308a88828901612cc1565b9350935050606086013567ffffffffffffffff8111156130ad576130ac612422565b5b6130b9888289016124bb565b9150509295509295909350565b7f50726f6f6620766572696669636174696f6e206661696c656400000000000000600082015250565b60006130fc601983612ecc565b9150613107826130c6565b602082019050919050565b6000602082019050818103600083015261312b816130ef565b9050919050565b600080fd5b600080fd5b600080fd5b60008235600160400383360303811261315d5761315c613132565b5b80830191505092915050565b6000808335600160200384360303811261318657613185613132565b5b80840192508235915067ffffffffffffffff8211156131a8576131a7613137565b5b6020830192506001820236038313156131c4576131c361313c565b5b509250929050565b600080833560016020038436030381126131e9576131e8613132565b5b80840192508235915067ffffffffffffffff82111561320b5761320a613137565b5b6020830192506001820236038313156132275761322661313c565b5b509250929050565b6000602082840312156132455761324461241d565b5b600061325384828501612d42565b91505092915050565b82818337600083830152505050565b60006132778385612ecc565b935061328483858461325c565b61328d836128ca565b840190509392505050565b60006132a48385612f6d565b93506132b183858461325c565b6132ba836128ca565b840190509392505050565b6132ce81612d17565b82525050565b600060808201905081810360008301526132ef81898b61326b565b9050818103602083015261330481878961326b565b90508181036040830152613319818587613298565b905061332860608301846132c5565b98975050505050505050565b600082825260208201905092915050565b6000819050919050565b600061335b8385612886565b935061336883858461325c565b613371836128ca565b840190509392505050565b600061338984848461334f565b90509392505050565b600080fd5b600080fd5b600080fd5b600080833560016020038436030381126133be576133bd61339c565b5b83810192508235915060208301925067ffffffffffffffff8211156133e6576133e5613392565b5b6001820236038413156133fc576133fb613397565b5b509250929050565b6000602082019050919050565b600061341d8385613334565b93508360208402850161342f84613345565b8060005b8781101561347557848403895261344a82846133a1565b61345586828461337c565b955061346084613404565b935060208b019a505050600181019050613433565b50829750879450505050509392505050565b600060c08201905061349c600083018b612eae565b6134a9602083018a612ebd565b81810360408301526134bc81888a613411565b90506134cb6060830187612eae565b81810360808301526134de81858761326b565b90506134ed60a0830184612eae565b9998505050505050505050565b6000815190506135098161256f565b92915050565b6000602082840312156135255761352461241d565b5b6000613533848285016134fa565b91505092915050565b600060a082019050613551600083018a612eae565b61355e6020830189612ebd565b8181036040830152613571818789613411565b9050818103606083015261358681858761326b565b90506135956080830184612eae565b98975050505050505050565b7f4e487b7100000000000000000000000000000000000000000000000000000000600052602260045260246000fd5b600060028204905060018216806135e857607f821691505b602082108114156135fc576135fb6135a1565b5b50919050565b7f436c69656e7420616c7265616479206372656174656400000000000000000000600082015250565b6000613638601683612ecc565b915061364382613602565b602082019050919050565b600060208201905081810360008301526136678161362b565b9050919050565b60008190508160005260206000209050919050565b60008154613690816135d0565b61369a8186612f6d565b945060018216600081146136b557600181146136c7576136fa565b60ff19831686526020860193506136fa565b6136d08561366e565b60005b838110156136f2578154818901526001820191506020810190506136d3565b808801955050505b50505092915050565b60006137126020840184612d42565b905092915050565b61372381612d17565b82525050565b600080833560016020038436030381126137465761374561339c565b5b83810192508235915060208301925067ffffffffffffffff82111561376e5761376d613392565b5b60018202360384131561378457613783613397565b5b509250929050565b600082825260208201905092915050565b60006137a9838561378c565b93506137b683858461325c565b6137bf836128ca565b840190509392505050565b6000604083016137dd6000840184613703565b6137ea600086018261371a565b506137f86020840184613729565b858303602087015261380b83828461379d565b925050508091505092915050565b7f6368616e6e656c2f706174682f746f2f62652f61646465642f68657265000000600082015250565b600061384f601d83612f6d565b915061385a82613819565b602082019050919050565b6000608082019050818103600083015261387f8186613683565b9050818103602083015261389381856137ca565b905081810360408301526138a681613842565b905081810360608301526138ba8184612f7e565b9050949350505050565b60008115159050919050565b6138d9816138c4565b81146138e457600080fd5b50565b6000815190506138f6816138d0565b92915050565b6000602082840312156139125761391161241d565b5b6000613920848285016138e7565b91505092915050565b7f4661696c20746f2070726f7665206368616e6e656c2073746174650000000000600082015250565b600061395f601b83612ecc565b915061396a82613929565b602082019050919050565b6000602082019050818103600083015261398e81613952565b9050919050565b60006060820190506139aa6000830186612eae565b6139b76020830185612eae565b6139c46040830184612eae565b949350505050565b7f4e487b7100000000000000000000000000000000000000000000000000000000600052604160045260246000fd5b613a04826128ca565b810181811067ffffffffffffffff82111715613a2357613a226139cc565b5b80604052505050565b6000613a36612413565b9050613a4282826139fb565b919050565b600067ffffffffffffffff821115613a6257613a616139cc565b5b602082029050602081019050919050565b600080fd5b600067ffffffffffffffff821115613a9357613a926139cc565b5b613a9c826128ca565b9050602081019050919050565b6000613abc613ab784613a78565b613a2c565b905082815260208101848484011115613ad857613ad7613a73565b5b613ae384828561325c565b509392505050565b600082601f830112613b0057613aff6125c0565b5b8135613b10848260208601613aa9565b91505092915050565b6000613b2c613b2784613a47565b613a2c565b90508083825260208201905060208402830185811115613b4f57613b4e6125ca565b5b835b81811015613b9657803567ffffffffffffffff811115613b7457613b736125c0565b5b808601613b818982613aeb565b85526020850194505050602081019050613b51565b5050509392505050565b6000613bad368484613b19565b905092915050565b60006040820190508181036000830152613bd081868861326b565b90508181036020830152613be5818486613411565b905095945050505050565b7f436c69656e74206e6f7420637265617465640000000000000000000000000000600082015250565b6000613c26601283612ecc565b9150613c3182613bf0565b602082019050919050565b60006020820190508181036000830152613c5581613c19565b9050919050565b600082356001604003833603038112613c7857613c7761339c565b5b82810191505092915050565b6000613c936020840184612586565b905092915050565b600060408301613cae60008401846133a1565b8583036000870152613cc183828461334f565b92505050613cd26020840184613c84565b613cdf60208601826127c9565b508091505092915050565b600082905092915050565b60408201613d066000830183613703565b613d13600085018261371a565b50613d216020830183613703565b613d2e602085018261371a565b50505050565b600060c08301613d476000840184613c5c565b8482036000860152613d598282613c9b565b915050613d696020840184613c5c565b8482036020860152613d7b8282613c9b565b915050613d8b6040840184613703565b613d98604086018261371a565b50613da66060840184613729565b8583036060870152613db983828461379d565b92505050613dca6080840184613cea565b613dd76080860182613cf5565b508091505092915050565b60006020820190508181036000830152613dfc8184613d34565b905092915050565b600060608301613e176000840184613729565b8583036000870152613e2a83828461379d565b92505050613e3b6020840184613703565b613e48602086018261371a565b50613e566040840184613729565b8583036040870152613e6983828461379d565b925050508091505092915050565b60006040820190508181036000830152613e918185613683565b90508181036020830152613ea58184613e04565b90509392505050565b7f557064617465436c69656e744d73672070726f6f66207665726966696361746960008201527f6f6e206661696c65640000000000000000000000000000000000000000000000602082015250565b6000613f0a602983612ecc565b9150613f1582613eae565b604082019050919050565b60006020820190508181036000830152613f3981613efd565b9050919050565b7f4368616e6e656c206e6f74206f776e6564206279206d73672e73656e64657200600082015250565b6000613f76601f83612ecc565b9150613f8182613f40565b602082019050919050565b60006020820190508181036000830152613fa581613f69565b9050919050565b6000606082019050613fc16000830186612eae565b8181036020830152613fd38185612edd565b9050613fe26040830184612eae565b949350505050565b7f4368616e6e656c206e6f74206f776e65642062792073656e6465720000000000600082015250565b6000614020601b83612ecc565b915061402b82613fea565b602082019050919050565b6000602082019050818103600083015261404f81614013565b9050919050565b600081905092915050565b50565b6000614071600083614056565b915061407c82614061565b600082019050919050565b600061409282614064565b9150819050919050565b7f4661696c656420746f20657363726f77207061636b6574206665650000000000600082015250565b60006140d2601b83612ecc565b91506140dd8261409c565b602082019050919050565b60006020820190508181036000830152614101816140c5565b9050919050565b7f4e487b7100000000000000000000000000000000000000000000000000000000600052601160045260246000fd5b600061414282612d17565b915061414d83612d17565b92508267ffffffffffffffff0382111561416a57614169614108565b5b828201905092915050565b61417e81612d57565b82525050565b6000608082019050818103600083015261419f818789613298565b90506141ae60208301866132c5565b6141bb60408301856132c5565b6141c86060830184614175565b9695505050505050565b7f4368616e6e656c206e6f74206f776e656420627920706f727441646472657373600082015250565b6000614208602083612ecc565b9150614213826141d2565b602082019050919050565b60006020820190508181036000830152614237816141fb565b9050919050565b7f4f776e61626c653a206e6577206f776e657220697320746865207a65726f206160008201527f6464726573730000000000000000000000000000000000000000000000000000602082015250565b600061429a602683612ecc565b91506142a58261423e565b604082019050919050565b600060208201905081810360008301526142c98161428d565b9050919050565b7f5061636b657420636f6d6d69746d656e74206e6f7420666f756e640000000000600082015250565b6000614306601b83612ecc565b9150614311826142d0565b602082019050919050565b60006020820190508181036000830152614335816142f9565b9050919050565b60006040820190508181036000830152614357818587613298565b905061436660208301846132c5565b949350505050565b7f4f776e61626c653a2063616c6c6572206973206e6f7420746865206f776e6572600082015250565b60006143a4602083612ecc565b91506143af8261436e565b602082019050919050565b600060208201905081810360008301526143d381614397565b905091905056fe6578706563746564206368616e6e656c20627974657320636f6e73747275637465642066726f6d20706172616d732e204368616e6e656c2e5374617465203d207b41636b5f50656e64696e672c20436f6e6669726d5f50656e64696e677d6578706563746564206368616e6e656c20627974657320636f6e73747275637465642066726f6d20706172616d732e204368616e6e656c2e5374617465203d207b436c6f736564285f50656e64696e673f297da26469706673582212203f43137546a9f3aa78150877ad27600f6ee4a353f01fdf632818d35ccff910f364736f6c63430008090033",
  "linkReferences": {},
  "deployedLinkReferences": {}
}