{
  "_format": "hh-sol-artifact-1",
  "contractName": "Dispatcher",
  "sourceName": "contracts/Dispatcher.sol",
  "abi": [
    {
      "inputs": [
        {
          "internalType": "contract ZKMintVerifier",
          "name": "_verifier",
          "type": "address"
        },
        {
          "internalType": "address payable",
          "name": "_escrow",
          "type": "address"
        }
      ],
      "stateMutability": "nonpayable",
      "type": "constructor"
    },
    {
      "anonymous": false,
      "inputs": [
        {
          "indexed": true,
          "internalType": "address",
          "name": "portAddress",
          "type": "address"
        },
        {
          "indexed": true,
          "internalType": "bytes32",
          "name": "channelId",
          "type": "bytes32"
        }
      ],
      "name": "CloseIbcChannel",
      "type": "event"
    },
    {
      "anonymous": false,
      "inputs": [
        {
          "indexed": true,
          "internalType": "address",
          "name": "portAddress",
          "type": "address"
        },
        {
          "indexed": true,
          "internalType": "bytes32",
          "name": "channelId",
          "type": "bytes32"
        },
        {
          "indexed": false,
          "internalType": "string",
          "name": "counterpartyPortId",
          "type": "string"
        },
        {
          "indexed": true,
          "internalType": "bytes32",
          "name": "counterpartyChannelId",
          "type": "bytes32"
        },
        {
          "indexed": false,
          "internalType": "string[]",
          "name": "connectionHops",
          "type": "string[]"
        }
      ],
      "name": "ConnectIbcChannel",
      "type": "event"
    },
    {
      "anonymous": false,
      "inputs": [
        {
          "indexed": true,
          "internalType": "bytes32",
          "name": "srcChannelId",
          "type": "bytes32"
        },
        {
          "indexed": false,
          "internalType": "string",
          "name": "srcPortId",
          "type": "string"
        },
        {
          "indexed": true,
          "internalType": "bytes32",
          "name": "destChannelId",
          "type": "bytes32"
        },
        {
          "indexed": false,
          "internalType": "string",
          "name": "destPortId",
          "type": "string"
        },
        {
          "indexed": false,
          "internalType": "bytes",
          "name": "data",
          "type": "bytes"
        },
        {
          "indexed": false,
          "internalType": "uint64",
          "name": "sequence",
          "type": "uint64"
        }
      ],
      "name": "OnRecvPacket",
      "type": "event"
    },
    {
      "anonymous": false,
      "inputs": [
        {
          "indexed": true,
          "internalType": "address",
          "name": "portAddress",
          "type": "address"
        },
        {
          "indexed": true,
          "internalType": "bytes32",
          "name": "counterpartyChannelId",
          "type": "bytes32"
        },
        {
          "indexed": false,
          "internalType": "bytes32",
          "name": "version",
          "type": "bytes32"
        },
        {
          "indexed": false,
          "internalType": "enum ChannelOrder",
          "name": "ordering",
          "type": "uint8"
        },
        {
          "indexed": false,
          "internalType": "string[]",
          "name": "connectionHops",
          "type": "string[]"
        },
        {
          "indexed": false,
          "internalType": "string",
          "name": "counterpartyPortId",
          "type": "string"
        },
        {
          "indexed": false,
          "internalType": "bytes32",
          "name": "counterpartyVersion",
          "type": "bytes32"
        }
      ],
      "name": "OpenIbcChannel",
      "type": "event"
    },
    {
      "anonymous": false,
      "inputs": [
        {
          "indexed": true,
          "internalType": "address",
          "name": "previousOwner",
          "type": "address"
        },
        {
          "indexed": true,
          "internalType": "address",
          "name": "newOwner",
          "type": "address"
        }
      ],
      "name": "OwnershipTransferred",
      "type": "event"
    },
    {
      "anonymous": false,
      "inputs": [
        {
          "indexed": true,
          "internalType": "address",
          "name": "sourcePortAddress",
          "type": "address"
        },
        {
          "indexed": true,
          "internalType": "bytes32",
          "name": "sourceChannelId",
          "type": "bytes32"
        },
        {
          "indexed": false,
          "internalType": "bytes",
          "name": "packet",
          "type": "bytes"
        },
        {
          "indexed": false,
          "internalType": "uint64",
          "name": "sequence",
          "type": "uint64"
        },
        {
          "indexed": false,
          "internalType": "uint64",
          "name": "timeoutTimestamp",
          "type": "uint64"
        },
        {
          "indexed": false,
          "internalType": "uint256",
          "name": "fee",
          "type": "uint256"
        }
      ],
      "name": "SendPacket",
      "type": "event"
    },
    {
      "inputs": [
        {
          "internalType": "bytes32",
          "name": "channelId",
          "type": "bytes32"
        }
      ],
      "name": "closeIbcChannel",
      "outputs": [],
      "stateMutability": "nonpayable",
      "type": "function"
    },
    {
      "inputs": [
        {
          "internalType": "contract IbcReceiver",
          "name": "portAddress",
          "type": "address"
        },
        {
          "internalType": "bytes32",
          "name": "channelId",
          "type": "bytes32"
        },
        {
          "internalType": "string[]",
          "name": "connectionHops",
          "type": "string[]"
        },
        {
          "internalType": "enum ChannelOrder",
          "name": "ordering",
          "type": "uint8"
        },
        {
          "internalType": "string",
          "name": "counterpartyPortId",
          "type": "string"
        },
        {
          "internalType": "bytes32",
          "name": "counterpartyChannelId",
          "type": "bytes32"
        },
        {
          "internalType": "bytes32",
          "name": "counterpartyVersion",
          "type": "bytes32"
        },
        {
          "components": [
            {
              "internalType": "uint64",
              "name": "proofHeight",
              "type": "uint64"
            },
            {
              "internalType": "bytes",
              "name": "proof",
              "type": "bytes"
            }
          ],
          "internalType": "struct Proof",
          "name": "proof",
          "type": "tuple"
        }
      ],
      "name": "connectIbcChannel",
      "outputs": [],
      "stateMutability": "nonpayable",
      "type": "function"
    },
    {
      "inputs": [
        {
          "components": [
            {
              "internalType": "bytes",
              "name": "clientState",
              "type": "bytes"
            },
            {
              "internalType": "bytes",
              "name": "consensusState",
              "type": "bytes"
            }
          ],
          "internalType": "struct InitClientMsg",
          "name": "initClientMsg",
          "type": "tuple"
        }
      ],
      "name": "createClient",
      "outputs": [],
      "stateMutability": "nonpayable",
      "type": "function"
    },
    {
      "inputs": [
        {
          "internalType": "address",
          "name": "portAddress",
          "type": "address"
        },
        {
          "internalType": "bytes32",
          "name": "channelId",
          "type": "bytes32"
        }
      ],
      "name": "getChannel",
      "outputs": [
        {
          "components": [
            {
              "internalType": "bytes32",
              "name": "version",
              "type": "bytes32"
            },
            {
              "internalType": "enum ChannelOrder",
              "name": "ordering",
              "type": "uint8"
            },
            {
              "internalType": "string[]",
              "name": "connectionHops",
              "type": "string[]"
            },
            {
              "internalType": "string",
              "name": "counterpartyPortId",
              "type": "string"
            },
            {
              "internalType": "bytes32",
              "name": "counterpartyChannelId",
              "type": "bytes32"
            }
          ],
          "internalType": "struct Channel",
          "name": "",
          "type": "tuple"
        }
      ],
      "stateMutability": "view",
      "type": "function"
    },
    {
      "inputs": [],
      "name": "latestConsensusState",
      "outputs": [
        {
          "internalType": "bytes",
          "name": "",
          "type": "bytes"
        }
      ],
      "stateMutability": "view",
      "type": "function"
    },
    {
      "inputs": [
        {
          "internalType": "contract IbcReceiver",
          "name": "receiver",
          "type": "address"
        },
        {
          "components": [
            {
              "components": [
                {
                  "internalType": "string",
                  "name": "portId",
                  "type": "string"
                },
                {
                  "internalType": "bytes32",
                  "name": "channelId",
                  "type": "bytes32"
                }
              ],
              "internalType": "struct IbcEndpoint",
              "name": "src",
              "type": "tuple"
            },
            {
              "components": [
                {
                  "internalType": "string",
                  "name": "portId",
                  "type": "string"
                },
                {
                  "internalType": "bytes32",
                  "name": "channelId",
                  "type": "bytes32"
                }
              ],
              "internalType": "struct IbcEndpoint",
              "name": "dest",
              "type": "tuple"
            },
            {
              "internalType": "uint64",
              "name": "sequence",
              "type": "uint64"
            },
            {
              "internalType": "bytes",
              "name": "data",
              "type": "bytes"
            },
            {
              "components": [
                {
                  "internalType": "uint64",
                  "name": "block",
                  "type": "uint64"
                },
                {
                  "internalType": "uint64",
                  "name": "timestamp",
                  "type": "uint64"
                }
              ],
              "internalType": "struct IbcTimeout",
              "name": "timeout",
              "type": "tuple"
            }
          ],
          "internalType": "struct IbcPacket",
          "name": "packet",
          "type": "tuple"
        },
        {
          "internalType": "bytes",
          "name": "acknowledgement",
          "type": "bytes"
        },
        {
          "components": [
            {
              "internalType": "uint64",
              "name": "proofHeight",
              "type": "uint64"
            },
            {
              "internalType": "bytes",
              "name": "proof",
              "type": "bytes"
            }
          ],
          "internalType": "struct Proof",
          "name": "proof",
          "type": "tuple"
        }
      ],
      "name": "onAcknowledgementPacket",
      "outputs": [],
      "stateMutability": "nonpayable",
      "type": "function"
    },
    {
      "inputs": [
        {
          "internalType": "address",
          "name": "portAddress",
          "type": "address"
        },
        {
          "internalType": "bytes32",
          "name": "channelId",
          "type": "bytes32"
        },
        {
          "components": [
            {
              "internalType": "uint64",
              "name": "proofHeight",
              "type": "uint64"
            },
            {
              "internalType": "bytes",
              "name": "proof",
              "type": "bytes"
            }
          ],
          "internalType": "struct Proof",
          "name": "proof",
          "type": "tuple"
        }
      ],
      "name": "onCloseIbcChannel",
      "outputs": [],
      "stateMutability": "nonpayable",
      "type": "function"
    },
    {
      "inputs": [
        {
          "internalType": "contract IbcReceiver",
          "name": "receiver",
          "type": "address"
        },
        {
          "components": [
            {
              "components": [
                {
                  "internalType": "string",
                  "name": "portId",
                  "type": "string"
                },
                {
                  "internalType": "bytes32",
                  "name": "channelId",
                  "type": "bytes32"
                }
              ],
              "internalType": "struct IbcEndpoint",
              "name": "src",
              "type": "tuple"
            },
            {
              "components": [
                {
                  "internalType": "string",
                  "name": "portId",
                  "type": "string"
                },
                {
                  "internalType": "bytes32",
                  "name": "channelId",
                  "type": "bytes32"
                }
              ],
              "internalType": "struct IbcEndpoint",
              "name": "dest",
              "type": "tuple"
            },
            {
              "internalType": "uint64",
              "name": "sequence",
              "type": "uint64"
            },
            {
              "internalType": "bytes",
              "name": "data",
              "type": "bytes"
            },
            {
              "components": [
                {
                  "internalType": "uint64",
                  "name": "block",
                  "type": "uint64"
                },
                {
                  "internalType": "uint64",
                  "name": "timestamp",
                  "type": "uint64"
                }
              ],
              "internalType": "struct IbcTimeout",
              "name": "timeout",
              "type": "tuple"
            }
          ],
          "internalType": "struct IbcPacket",
          "name": "packet",
          "type": "tuple"
        },
        {
          "components": [
            {
              "internalType": "uint64",
              "name": "proofHeight",
              "type": "uint64"
            },
            {
              "internalType": "bytes",
              "name": "proof",
              "type": "bytes"
            }
          ],
          "internalType": "struct Proof",
          "name": "proof",
          "type": "tuple"
        }
      ],
      "name": "onRecvPacket",
      "outputs": [],
      "stateMutability": "nonpayable",
      "type": "function"
    },
    {
      "inputs": [
        {
          "internalType": "contract IbcReceiver",
          "name": "receiver",
          "type": "address"
        },
        {
          "components": [
            {
              "components": [
                {
                  "internalType": "string",
                  "name": "portId",
                  "type": "string"
                },
                {
                  "internalType": "bytes32",
                  "name": "channelId",
                  "type": "bytes32"
                }
              ],
              "internalType": "struct IbcEndpoint",
              "name": "src",
              "type": "tuple"
            },
            {
              "components": [
                {
                  "internalType": "string",
                  "name": "portId",
                  "type": "string"
                },
                {
                  "internalType": "bytes32",
                  "name": "channelId",
                  "type": "bytes32"
                }
              ],
              "internalType": "struct IbcEndpoint",
              "name": "dest",
              "type": "tuple"
            },
            {
              "internalType": "uint64",
              "name": "sequence",
              "type": "uint64"
            },
            {
              "internalType": "bytes",
              "name": "data",
              "type": "bytes"
            },
            {
              "components": [
                {
                  "internalType": "uint64",
                  "name": "block",
                  "type": "uint64"
                },
                {
                  "internalType": "uint64",
                  "name": "timestamp",
                  "type": "uint64"
                }
              ],
              "internalType": "struct IbcTimeout",
              "name": "timeout",
              "type": "tuple"
            }
          ],
          "internalType": "struct IbcPacket",
          "name": "packet",
          "type": "tuple"
        },
        {
          "components": [
            {
              "internalType": "uint64",
              "name": "proofHeight",
              "type": "uint64"
            },
            {
              "internalType": "bytes",
              "name": "proof",
              "type": "bytes"
            }
          ],
          "internalType": "struct Proof",
          "name": "proof",
          "type": "tuple"
        }
      ],
      "name": "onTimeoutPacket",
      "outputs": [],
      "stateMutability": "nonpayable",
      "type": "function"
    },
    {
      "inputs": [
        {
          "internalType": "contract IbcReceiver",
          "name": "portAddress",
          "type": "address"
        },
        {
          "internalType": "bytes32",
          "name": "version",
          "type": "bytes32"
        },
        {
          "internalType": "enum ChannelOrder",
          "name": "ordering",
          "type": "uint8"
        },
        {
          "internalType": "string[]",
          "name": "connectionHops",
          "type": "string[]"
        },
        {
          "internalType": "bytes32",
          "name": "counterpartyChannelId",
          "type": "bytes32"
        },
        {
          "internalType": "string",
          "name": "counterpartyPortId",
          "type": "string"
        },
        {
          "internalType": "bytes32",
          "name": "counterpartyVersion",
          "type": "bytes32"
        }
      ],
      "name": "openIbcChannel",
      "outputs": [],
      "stateMutability": "nonpayable",
      "type": "function"
    },
    {
      "inputs": [],
      "name": "owner",
      "outputs": [
        {
          "internalType": "address",
          "name": "",
          "type": "address"
        }
      ],
      "stateMutability": "view",
      "type": "function"
    },
    {
      "inputs": [
        {
          "internalType": "address",
          "name": "",
          "type": "address"
        },
        {
          "internalType": "bytes32",
          "name": "",
          "type": "bytes32"
        }
      ],
      "name": "portChannelMap",
      "outputs": [
        {
          "internalType": "bytes32",
          "name": "version",
          "type": "bytes32"
        },
        {
          "internalType": "enum ChannelOrder",
          "name": "ordering",
          "type": "uint8"
        },
        {
          "internalType": "string",
          "name": "counterpartyPortId",
          "type": "string"
        },
        {
          "internalType": "bytes32",
          "name": "counterpartyChannelId",
          "type": "bytes32"
        }
      ],
      "stateMutability": "view",
      "type": "function"
    },
    {
      "inputs": [],
      "name": "renounceOwnership",
      "outputs": [],
      "stateMutability": "nonpayable",
      "type": "function"
    },
    {
      "inputs": [
        {
          "internalType": "bytes32",
          "name": "channelId",
          "type": "bytes32"
        },
        {
          "internalType": "bytes",
          "name": "packet",
          "type": "bytes"
        },
        {
          "internalType": "uint64",
          "name": "timeoutTimestamp",
          "type": "uint64"
        },
        {
          "internalType": "uint256",
          "name": "fee",
          "type": "uint256"
        }
      ],
      "name": "sendPacket",
      "outputs": [],
      "stateMutability": "payable",
      "type": "function"
    },
    {
      "inputs": [
        {
          "internalType": "address",
          "name": "newOwner",
          "type": "address"
        }
      ],
      "name": "transferOwnership",
      "outputs": [],
      "stateMutability": "nonpayable",
      "type": "function"
    },
    {
      "inputs": [
        {
          "components": [
            {
              "internalType": "bytes",
              "name": "consensusState",
              "type": "bytes"
            },
            {
              "internalType": "uint64",
              "name": "height",
              "type": "uint64"
            },
            {
              "internalType": "bytes",
              "name": "zkProof",
              "type": "bytes"
            }
          ],
          "internalType": "struct UpdateClientMsg",
          "name": "updateClientMsg",
          "type": "tuple"
        }
      ],
      "name": "updateClient",
      "outputs": [],
      "stateMutability": "nonpayable",
      "type": "function"
    },
    {
      "inputs": [
        {
          "components": [
            {
              "internalType": "bytes",
              "name": "clientState",
              "type": "bytes"
            },
            {
              "internalType": "bytes",
              "name": "consensusState",
              "type": "bytes"
            }
          ],
          "internalType": "struct UpgradeClientMsg",
          "name": "upgradeClientMsg",
          "type": "tuple"
        }
      ],
      "name": "upgradeClient",
      "outputs": [],
      "stateMutability": "nonpayable",
      "type": "function"
    }
  ],
  "bytecode": "0x60806040526000600260146101000a81548160ff0219169083151502179055506000600460006101000a81548167ffffffffffffffff021916908367ffffffffffffffff1602179055503480156200005657600080fd5b50604051620045aa380380620045aa83398181016040528101906200007c91906200034a565b6200009c62000090620001bb60201b60201c565b620001c360201b60201c565b81600160006101000a81548173ffffffffffffffffffffffffffffffffffffffff021916908373ffffffffffffffffffffffffffffffffffffffff16021790555080600260006101000a81548173ffffffffffffffffffffffffffffffffffffffff021916908373ffffffffffffffffffffffffffffffffffffffff160217905550600073ffffffffffffffffffffffffffffffffffffffff16600260009054906101000a900473ffffffffffffffffffffffffffffffffffffffff1673ffffffffffffffffffffffffffffffffffffffff161415620001b3576040517f08c379a0000000000000000000000000000000000000000000000000000000008152600401620001aa90620003f2565b60405180910390fd5b505062000414565b600033905090565b60008060009054906101000a900473ffffffffffffffffffffffffffffffffffffffff169050816000806101000a81548173ffffffffffffffffffffffffffffffffffffffff021916908373ffffffffffffffffffffffffffffffffffffffff1602179055508173ffffffffffffffffffffffffffffffffffffffff168173ffffffffffffffffffffffffffffffffffffffff167f8be0079c531659141344cd1fd0a4f28419497f9722a3daafe3b4186f6b6457e060405160405180910390a35050565b600080fd5b600073ffffffffffffffffffffffffffffffffffffffff82169050919050565b6000620002b9826200028c565b9050919050565b6000620002cd82620002ac565b9050919050565b620002df81620002c0565b8114620002eb57600080fd5b50565b600081519050620002ff81620002d4565b92915050565b600062000312826200028c565b9050919050565b620003248162000305565b81146200033057600080fd5b50565b600081519050620003448162000319565b92915050565b6000806040838503121562000364576200036362000287565b5b60006200037485828601620002ee565b9250506020620003878582860162000333565b9150509250929050565b600082825260208201905092915050565b7f457363726f772063616e6e6f74206265207a65726f2061646472657373000000600082015250565b6000620003da601d8362000391565b9150620003e782620003a2565b602082019050919050565b600060208201905081810360008301526200040d81620003cb565b9050919050565b61418680620004246000396000f3fe6080604052600436106100fe5760003560e01c8063715018a611610095578063951538f311610064578063951538f3146102e6578063b2b1bf031461030f578063c2a2514d1461034f578063d2e9aa561461037a578063f2fde38b146103a3576100fe565b8063715018a61461025f5780638b24b4cb146102765780638d3d5aa91461029f5780638da5cb5b146102bb576100fe565b80634c9778d3116100d15780634c9778d3146101bb5780634efde434146101e457806364260a601461020d5780636787464914610236576100fe565b80630ad8d666146101035780631f456c1e1461012c57806342852d2414610155578063487fca7e14610192575b600080fd5b34801561010f57600080fd5b5061012a6004803603810190610125919061223d565b6103cc565b005b34801561013857600080fd5b50610153600480360381019061014e91906123de565b6104de565b005b34801561016157600080fd5b5061017c600480360381019061017791906124ec565b6105e2565b604051610189919061278a565b60405180910390f35b34801561019e57600080fd5b506101b960048036038101906101b491906127cb565b610807565b005b3480156101c757600080fd5b506101e260048036038101906101dd9190612814565b61089d565b005b3480156101f057600080fd5b5061020b60048036038101906102069190612946565b610bcf565b005b34801561021957600080fd5b50610234600480360381019061022f919061223d565b610c49565b005b34801561024257600080fd5b5061025d600480360381019061025891906129ae565b610d01565b005b34801561026b57600080fd5b50610274610e60565b005b34801561028257600080fd5b5061029d600480360381019061029891906129f7565b610e74565b005b6102b960048036038101906102b49190612af0565b61119c565b005b3480156102c757600080fd5b506102d061161a565b6040516102dd9190612b87565b60405180910390f35b3480156102f257600080fd5b5061030d60048036038101906103089190612ba2565b611643565b005b34801561031b57600080fd5b50610336600480360381019061033191906124ec565b611b0b565b6040516103469493929190612c79565b60405180910390f35b34801561035b57600080fd5b50610364611bdd565b6040516103719190612d1a565b60405180910390f35b34801561038657600080fd5b506103a1600480360381019061039c9190612d3c565b611c6b565b005b3480156103af57600080fd5b506103ca60048036038101906103c59190612dfc565b611d25565b005b6103d581611da9565b610414576040517f08c379a000000000000000000000000000000000000000000000000000000000815260040161040b90612e75565b60405180910390fd5b8180602001906104249190612ea4565b602001358280600001906104389190612ea4565b602001357f080631928e492258b6a102fc2ab3e0a8dfcb747ab0885c25f9cb7a8d4862103684806000019061046d9190612ea4565b806000019061047c9190612ecc565b86806020019061048c9190612ea4565b806000019061049b9190612ecc565b8880606001906104ab9190612f2f565b8a60400160208101906104be9190612f92565b6040516104d19796959493929190613037565b60405180910390a3505050565b60008973ffffffffffffffffffffffffffffffffffffffff1663486592198a8a8a8a8a8a8a8a6040518963ffffffff1660e01b81526004016105279897969594939291906131ea565b602060405180830381600087803b15801561054157600080fd5b505af1158015610555573d6000803e3d6000fd5b505050506040513d601f19601f820116820180604052508101906105799190613272565b9050848a73ffffffffffffffffffffffffffffffffffffffff167f9a93c124e7f0aa93d3fbe660b1366e0483b4267619924382261498efbb92c873838b8b8b8a8a8a6040516105ce979695949392919061329f565b60405180910390a350505050505050505050565b6105ea611f21565b600560008473ffffffffffffffffffffffffffffffffffffffff1673ffffffffffffffffffffffffffffffffffffffff16815260200190815260200160002060008381526020019081526020016000206040518060a0016040529081600082015481526020016001820160009054906101000a900460ff1660018111156106745761067361253b565b5b60018111156106865761068561253b565b5b815260200160028201805480602002602001604051908101604052809291908181526020016000905b8282101561075b5783829060005260206000200180546106ce90613333565b80601f01602080910402602001604051908101604052809291908181526020018280546106fa90613333565b80156107475780601f1061071c57610100808354040283529160200191610747565b820191906000526020600020905b81548152906001019060200180831161072a57829003601f168201915b5050505050815260200190600101906106af565b50505050815260200160038201805461077390613333565b80601f016020809104026020016040519081016040528092919081815260200182805461079f90613333565b80156107ec5780601f106107c1576101008083540402835291602001916107ec565b820191906000526020600020905b8154815290600101906020018083116107cf57829003601f168201915b50505050508152602001600482015481525050905092915050565b61080f611dd7565b600260149054906101000a900460ff161561085f576040517f08c379a0000000000000000000000000000000000000000000000000000000008152600401610856906133b1565b60405180910390fd5b6001600260146101000a81548160ff02191690831515021790555080806020019061088a9190612f2f565b60039190610899929190611f68565b5050565b600160009054906101000a900473ffffffffffffffffffffffffffffffffffffffff1673ffffffffffffffffffffffffffffffffffffffff16639511059d6003836040518060800160405280605e81526020016140a0605e91396040518463ffffffff1660e01b8152600401610915939291906135c8565b60206040518083038186803b15801561092d57600080fd5b505afa158015610941573d6000803e3d6000fd5b505050506040513d601f19601f82011682018060405250810190610965919061365f565b6109a4576040517f08c379a000000000000000000000000000000000000000000000000000000000815260040161099b906136d8565b60405180910390fd5b8973ffffffffffffffffffffffffffffffffffffffff1663e60a72938a85856040518463ffffffff1660e01b81526004016109e1939291906136f8565b600060405180830381600087803b1580156109fb57600080fd5b505af1158015610a0f573d6000803e3d6000fd5b505050506040518060a00160405280838152602001876001811115610a3757610a3661253b565b5b8152602001898990610a499190613903565b815260200186868080601f016020809104026020016040519081016040528093929190818152602001838380828437600081840152601f19601f82011690508083019250505050505050815260200184815250600560008c73ffffffffffffffffffffffffffffffffffffffff1673ffffffffffffffffffffffffffffffffffffffff16815260200190815260200160002060008b81526020019081526020016000206000820151816000015560208201518160010160006101000a81548160ff02191690836001811115610b2157610b2061253b565b5b02179055506040820151816002019080519060200190610b42929190611fee565b506060820151816003019080519060200190610b5f92919061204e565b506080820151816004015590505082898b73ffffffffffffffffffffffffffffffffffffffff167f57ea540ad7b8bfd2813b8637764ba029fedc52de3f812934a46511506aa11b8e88888d8d604051610bbb9493929190613918565b60405180910390a450505050505050505050565b610bd7611dd7565b600260149054906101000a900460ff16610c26576040517f08c379a0000000000000000000000000000000000000000000000000000000008152600401610c1d9061399f565b60405180910390fd5b808060200190610c369190612f2f565b60039190610c45929190611f68565b5050565b610c5281611da9565b610c91576040517f08c379a0000000000000000000000000000000000000000000000000000000008152600401610c8890612e75565b60405180910390fd5b8273ffffffffffffffffffffffffffffffffffffffff1663b33c2577836040518263ffffffff1660e01b8152600401610cca9190613b45565b600060405180830381600087803b158015610ce457600080fd5b505af1158015610cf8573d6000803e3d6000fd5b50505050505050565b600260149054906101000a900460ff16610d50576040517f08c379a0000000000000000000000000000000000000000000000000000000008152600401610d479061399f565b60405180910390fd5b600160009054906101000a900473ffffffffffffffffffffffffffffffffffffffff1673ffffffffffffffffffffffffffffffffffffffff1663ab5eba266003836040518363ffffffff1660e01b8152600401610dae929190613bda565b60206040518083038186803b158015610dc657600080fd5b505afa158015610dda573d6000803e3d6000fd5b505050506040513d601f19601f82011682018060405250810190610dfe919061365f565b610e3d576040517f08c379a0000000000000000000000000000000000000000000000000000000008152600401610e3490613c83565b60405180910390fd5b808060000190610e4d9190612f2f565b60039190610e5c929190611f68565b5050565b610e68611dd7565b610e726000611e55565b565b6000600560003373ffffffffffffffffffffffffffffffffffffffff1673ffffffffffffffffffffffffffffffffffffffff16815260200190815260200160002060008381526020019081526020016000206040518060a0016040529081600082015481526020016001820160009054906101000a900460ff166001811115610f0057610eff61253b565b5b6001811115610f1257610f1161253b565b5b815260200160028201805480602002602001604051908101604052809291908181526020016000905b82821015610fe7578382906000526020600020018054610f5a90613333565b80601f0160208091040260200160405190810160405280929190818152602001828054610f8690613333565b8015610fd35780601f10610fa857610100808354040283529160200191610fd3565b820191906000526020600020905b815481529060010190602001808311610fb657829003601f168201915b505050505081526020019060010190610f3b565b505050508152602001600382018054610fff90613333565b80601f016020809104026020016040519081016040528092919081815260200182805461102b90613333565b80156110785780601f1061104d57610100808354040283529160200191611078565b820191906000526020600020905b81548152906001019060200180831161105b57829003601f168201915b5050505050815260200160048201548152505090506000801b816080015114156110d7576040517f08c379a00000000000000000000000000000000000000000000000000000000081526004016110ce90613cef565b60405180910390fd5b60003390508073ffffffffffffffffffffffffffffffffffffffff16635fe39e0d84846060015185608001516040518463ffffffff1660e01b815260040161112193929190613d0f565b600060405180830381600087803b15801561113b57600080fd5b505af115801561114f573d6000803e3d6000fd5b50505050823373ffffffffffffffffffffffffffffffffffffffff167fe893e4ba0e364cdc96364b1e1e0d53b0d91e5fd6aa0ee9d81a17ecd61178bf1760405160405180910390a3505050565b6000600560003373ffffffffffffffffffffffffffffffffffffffff1673ffffffffffffffffffffffffffffffffffffffff16815260200190815260200160002060008781526020019081526020016000206040518060a0016040529081600082015481526020016001820160009054906101000a900460ff1660018111156112285761122761253b565b5b600181111561123a5761123961253b565b5b815260200160028201805480602002602001604051908101604052809291908181526020016000905b8282101561130f57838290600052602060002001805461128290613333565b80601f01602080910402602001604051908101604052809291908181526020018280546112ae90613333565b80156112fb5780601f106112d0576101008083540402835291602001916112fb565b820191906000526020600020905b8154815290600101906020018083116112de57829003601f168201915b505050505081526020019060010190611263565b50505050815260200160038201805461132790613333565b80601f016020809104026020016040519081016040528092919081815260200182805461135390613333565b80156113a05780601f10611375576101008083540402835291602001916113a0565b820191906000526020600020905b81548152906001019060200180831161138357829003601f168201915b5050505050815260200160048201548152505090506000801b816080015114156113ff576040517f08c379a00000000000000000000000000000000000000000000000000000000081526004016113f690613d99565b60405180910390fd5b6000600260009054906101000a900473ffffffffffffffffffffffffffffffffffffffff1673ffffffffffffffffffffffffffffffffffffffff168360405161144790613dea565b60006040518083038185875af1925050503d8060008114611484576040519150601f19603f3d011682016040523d82523d6000602084013e611489565b606091505b50509050806114cd576040517f08c379a00000000000000000000000000000000000000000000000000000000081526004016114c490613e4b565b60405180910390fd5b6000600660003373ffffffffffffffffffffffffffffffffffffffff1673ffffffffffffffffffffffffffffffffffffffff168152602001908152602001600020600089815260200190815260200160002060009054906101000a900467ffffffffffffffff1690506001816115439190613e9a565b600660003373ffffffffffffffffffffffffffffffffffffffff1673ffffffffffffffffffffffffffffffffffffffff16815260200190815260200160002060008a815260200190815260200160002060006101000a81548167ffffffffffffffff021916908367ffffffffffffffff160217905550873373ffffffffffffffffffffffffffffffffffffffff167fc55a6c1340ca55a6b61de30037455a7f9f4a5b8ff106e4eaa0c23ea886fa03608989858a8a604051611608959493929190613ee7565b60405180910390a35050505050505050565b60008060009054906101000a900473ffffffffffffffffffffffffffffffffffffffff16905090565b600160009054906101000a900473ffffffffffffffffffffffffffffffffffffffff1673ffffffffffffffffffffffffffffffffffffffff16639511059d6003836040518060800160405280605381526020016140fe605391396040518463ffffffff1660e01b81526004016116bb939291906135c8565b60206040518083038186803b1580156116d357600080fd5b505afa1580156116e7573d6000803e3d6000fd5b505050506040513d601f19601f8201168201806040525081019061170b919061365f565b61174a576040517f08c379a0000000000000000000000000000000000000000000000000000000008152600401611741906136d8565b60405180910390fd5b6000600560008573ffffffffffffffffffffffffffffffffffffffff1673ffffffffffffffffffffffffffffffffffffffff16815260200190815260200160002060008481526020019081526020016000206040518060a0016040529081600082015481526020016001820160009054906101000a900460ff1660018111156117d6576117d561253b565b5b60018111156117e8576117e761253b565b5b815260200160028201805480602002602001604051908101604052809291908181526020016000905b828210156118bd57838290600052602060002001805461183090613333565b80601f016020809104026020016040519081016040528092919081815260200182805461185c90613333565b80156118a95780601f1061187e576101008083540402835291602001916118a9565b820191906000526020600020905b81548152906001019060200180831161188c57829003601f168201915b505050505081526020019060010190611811565b5050505081526020016003820180546118d590613333565b80601f016020809104026020016040519081016040528092919081815260200182805461190190613333565b801561194e5780601f106119235761010080835404028352916020019161194e565b820191906000526020600020905b81548152906001019060200180831161193157829003601f168201915b5050505050815260200160048201548152505090506000801b816080015114156119ad576040517f08c379a00000000000000000000000000000000000000000000000000000000081526004016119a490613f81565b60405180910390fd5b60008490508073ffffffffffffffffffffffffffffffffffffffff16635fe39e0d85846060015185608001516040518463ffffffff1660e01b81526004016119f793929190613d0f565b600060405180830381600087803b158015611a1157600080fd5b505af1158015611a25573d6000803e3d6000fd5b50505050600560008673ffffffffffffffffffffffffffffffffffffffff1673ffffffffffffffffffffffffffffffffffffffff16815260200190815260200160002060008581526020019081526020016000206000808201600090556001820160006101000a81549060ff0219169055600282016000611aa691906120d4565b600382016000611ab691906120f5565b60048201600090555050838573ffffffffffffffffffffffffffffffffffffffff167fe893e4ba0e364cdc96364b1e1e0d53b0d91e5fd6aa0ee9d81a17ecd61178bf1760405160405180910390a35050505050565b6005602052816000526040600020602052806000526040600020600091509150508060000154908060010160009054906101000a900460ff1690806003018054611b5490613333565b80601f0160208091040260200160405190810160405280929190818152602001828054611b8090613333565b8015611bcd5780601f10611ba257610100808354040283529160200191611bcd565b820191906000526020600020905b815481529060010190602001808311611bb057829003601f168201915b5050505050908060040154905084565b60038054611bea90613333565b80601f0160208091040260200160405190810160405280929190818152602001828054611c1690613333565b8015611c635780601f10611c3857610100808354040283529160200191611c63565b820191906000526020600020905b815481529060010190602001808311611c4657829003601f168201915b505050505081565b611c7481611da9565b611cb3576040517f08c379a0000000000000000000000000000000000000000000000000000000008152600401611caa90612e75565b60405180910390fd5b8473ffffffffffffffffffffffffffffffffffffffff1663f45cf5e4856040518263ffffffff1660e01b8152600401611cec9190613b45565b600060405180830381600087803b158015611d0657600080fd5b505af1158015611d1a573d6000803e3d6000fd5b505050505050505050565b611d2d611dd7565b600073ffffffffffffffffffffffffffffffffffffffff168173ffffffffffffffffffffffffffffffffffffffff161415611d9d576040517f08c379a0000000000000000000000000000000000000000000000000000000008152600401611d9490614013565b60405180910390fd5b611da681611e55565b50565b600080828060200190611dbc9190612f2f565b90501415611dcd5760009050611dd2565b600190505b919050565b611ddf611f19565b73ffffffffffffffffffffffffffffffffffffffff16611dfd61161a565b73ffffffffffffffffffffffffffffffffffffffff1614611e53576040517f08c379a0000000000000000000000000000000000000000000000000000000008152600401611e4a9061407f565b60405180910390fd5b565b60008060009054906101000a900473ffffffffffffffffffffffffffffffffffffffff169050816000806101000a81548173ffffffffffffffffffffffffffffffffffffffff021916908373ffffffffffffffffffffffffffffffffffffffff1602179055508173ffffffffffffffffffffffffffffffffffffffff168173ffffffffffffffffffffffffffffffffffffffff167f8be0079c531659141344cd1fd0a4f28419497f9722a3daafe3b4186f6b6457e060405160405180910390a35050565b600033905090565b6040518060a001604052806000801916815260200160006001811115611f4a57611f4961253b565b5b81526020016060815260200160608152602001600080191681525090565b828054611f7490613333565b90600052602060002090601f016020900481019282611f965760008555611fdd565b82601f10611faf57803560ff1916838001178555611fdd565b82800160010185558215611fdd579182015b82811115611fdc578235825591602001919060010190611fc1565b5b509050611fea9190612135565b5090565b82805482825590600052602060002090810192821561203d579160200282015b8281111561203c57825182908051906020019061202c92919061204e565b509160200191906001019061200e565b5b50905061204a9190612152565b5090565b82805461205a90613333565b90600052602060002090601f01602090048101928261207c57600085556120c3565b82601f1061209557805160ff19168380011785556120c3565b828001600101855582156120c3579182015b828111156120c25782518255916020019190600101906120a7565b5b5090506120d09190612135565b5090565b50805460008255906000526020600020908101906120f29190612152565b50565b50805461210190613333565b6000825580601f106121135750612132565b601f0160209004906000526020600020908101906121319190612135565b5b50565b5b8082111561214e576000816000905550600101612136565b5090565b5b80821115612172576000818161216991906120f5565b50600101612153565b5090565b6000604051905090565b600080fd5b600080fd5b600073ffffffffffffffffffffffffffffffffffffffff82169050919050565b60006121b58261218a565b9050919050565b60006121c7826121aa565b9050919050565b6121d7816121bc565b81146121e257600080fd5b50565b6000813590506121f4816121ce565b92915050565b600080fd5b600060c08284031215612215576122146121fa565b5b81905092915050565b600060408284031215612234576122336121fa565b5b81905092915050565b60008060006060848603121561225657612255612180565b5b6000612264868287016121e5565b935050602084013567ffffffffffffffff81111561228557612284612185565b5b612291868287016121ff565b925050604084013567ffffffffffffffff8111156122b2576122b1612185565b5b6122be8682870161221e565b9150509250925092565b6000819050919050565b6122db816122c8565b81146122e657600080fd5b50565b6000813590506122f8816122d2565b92915050565b6002811061230b57600080fd5b50565b60008135905061231d816122fe565b92915050565b600080fd5b600080fd5b600080fd5b60008083601f84011261234857612347612323565b5b8235905067ffffffffffffffff81111561236557612364612328565b5b6020830191508360208202830111156123815761238061232d565b5b9250929050565b60008083601f84011261239e5761239d612323565b5b8235905067ffffffffffffffff8111156123bb576123ba612328565b5b6020830191508360018202830111156123d7576123d661232d565b5b9250929050565b600080600080600080600080600060e08a8c031215612400576123ff612180565b5b600061240e8c828d016121e5565b995050602061241f8c828d016122e9565b98505060406124308c828d0161230e565b97505060608a013567ffffffffffffffff81111561245157612450612185565b5b61245d8c828d01612332565b965096505060806124708c828d016122e9565b94505060a08a013567ffffffffffffffff81111561249157612490612185565b5b61249d8c828d01612388565b935093505060c06124b08c828d016122e9565b9150509295985092959850929598565b6124c9816121aa565b81146124d457600080fd5b50565b6000813590506124e6816124c0565b92915050565b6000806040838503121561250357612502612180565b5b6000612511858286016124d7565b9250506020612522858286016122e9565b9150509250929050565b612535816122c8565b82525050565b7f4e487b7100000000000000000000000000000000000000000000000000000000600052602160045260246000fd5b6002811061257b5761257a61253b565b5b50565b600081905061258c8261256a565b919050565b600061259c8261257e565b9050919050565b6125ac81612591565b82525050565b600081519050919050565b600082825260208201905092915050565b6000819050602082019050919050565b600081519050919050565b600082825260208201905092915050565b60005b838110156126185780820151818401526020810190506125fd565b83811115612627576000848401525b50505050565b6000601f19601f8301169050919050565b6000612649826125de565b61265381856125e9565b93506126638185602086016125fa565b61266c8161262d565b840191505092915050565b6000612683838361263e565b905092915050565b6000602082019050919050565b60006126a3826125b2565b6126ad81856125bd565b9350836020820285016126bf856125ce565b8060005b858110156126fb57848403895281516126dc8582612677565b94506126e78361268b565b925060208a019950506001810190506126c3565b50829750879550505050505092915050565b600060a083016000830151612725600086018261252c565b50602083015161273860208601826125a3565b50604083015184820360408601526127508282612698565b9150506060830151848203606086015261276a828261263e565b915050608083015161277f608086018261252c565b508091505092915050565b600060208201905081810360008301526127a4818461270d565b905092915050565b6000604082840312156127c2576127c16121fa565b5b81905092915050565b6000602082840312156127e1576127e0612180565b5b600082013567ffffffffffffffff8111156127ff576127fe612185565b5b61280b848285016127ac565b91505092915050565b6000806000806000806000806000806101008b8d03121561283857612837612180565b5b60006128468d828e016121e5565b9a505060206128578d828e016122e9565b99505060408b013567ffffffffffffffff81111561287857612877612185565b5b6128848d828e01612332565b985098505060606128978d828e0161230e565b96505060808b013567ffffffffffffffff8111156128b8576128b7612185565b5b6128c48d828e01612388565b955095505060a06128d78d828e016122e9565b93505060c06128e88d828e016122e9565b92505060e08b013567ffffffffffffffff81111561290957612908612185565b5b6129158d828e0161221e565b9150509295989b9194979a5092959850565b60006040828403121561293d5761293c6121fa565b5b81905092915050565b60006020828403121561295c5761295b612180565b5b600082013567ffffffffffffffff81111561297a57612979612185565b5b61298684828501612927565b91505092915050565b6000606082840312156129a5576129a46121fa565b5b81905092915050565b6000602082840312156129c4576129c3612180565b5b600082013567ffffffffffffffff8111156129e2576129e1612185565b5b6129ee8482850161298f565b91505092915050565b600060208284031215612a0d57612a0c612180565b5b6000612a1b848285016122e9565b91505092915050565b60008083601f840112612a3a57612a39612323565b5b8235905067ffffffffffffffff811115612a5757612a56612328565b5b602083019150836001820283011115612a7357612a7261232d565b5b9250929050565b600067ffffffffffffffff82169050919050565b612a9781612a7a565b8114612aa257600080fd5b50565b600081359050612ab481612a8e565b92915050565b6000819050919050565b612acd81612aba565b8114612ad857600080fd5b50565b600081359050612aea81612ac4565b92915050565b600080600080600060808688031215612b0c57612b0b612180565b5b6000612b1a888289016122e9565b955050602086013567ffffffffffffffff811115612b3b57612b3a612185565b5b612b4788828901612a24565b94509450506040612b5a88828901612aa5565b9250506060612b6b88828901612adb565b9150509295509295909350565b612b81816121aa565b82525050565b6000602082019050612b9c6000830184612b78565b92915050565b600080600060608486031215612bbb57612bba612180565b5b6000612bc9868287016124d7565b9350506020612bda868287016122e9565b925050604084013567ffffffffffffffff811115612bfb57612bfa612185565b5b612c078682870161221e565b9150509250925092565b612c1a816122c8565b82525050565b612c2981612591565b82525050565b600082825260208201905092915050565b6000612c4b826125de565b612c558185612c2f565b9350612c658185602086016125fa565b612c6e8161262d565b840191505092915050565b6000608082019050612c8e6000830187612c11565b612c9b6020830186612c20565b8181036040830152612cad8185612c40565b9050612cbc6060830184612c11565b95945050505050565b600081519050919050565b600082825260208201905092915050565b6000612cec82612cc5565b612cf68185612cd0565b9350612d068185602086016125fa565b612d0f8161262d565b840191505092915050565b60006020820190508181036000830152612d348184612ce1565b905092915050565b600080600080600060808688031215612d5857612d57612180565b5b6000612d66888289016121e5565b955050602086013567ffffffffffffffff811115612d8757612d86612185565b5b612d93888289016121ff565b945050604086013567ffffffffffffffff811115612db457612db3612185565b5b612dc088828901612a24565b9350935050606086013567ffffffffffffffff811115612de357612de2612185565b5b612def8882890161221e565b9150509295509295909350565b600060208284031215612e1257612e11612180565b5b6000612e20848285016124d7565b91505092915050565b7f50726f6f6620766572696669636174696f6e206661696c656400000000000000600082015250565b6000612e5f601983612c2f565b9150612e6a82612e29565b602082019050919050565b60006020820190508181036000830152612e8e81612e52565b9050919050565b600080fd5b600080fd5b600080fd5b600082356001604003833603038112612ec057612ebf612e95565b5b80830191505092915050565b60008083356001602003843603038112612ee957612ee8612e95565b5b80840192508235915067ffffffffffffffff821115612f0b57612f0a612e9a565b5b602083019250600182023603831315612f2757612f26612e9f565b5b509250929050565b60008083356001602003843603038112612f4c57612f4b612e95565b5b80840192508235915067ffffffffffffffff821115612f6e57612f6d612e9a565b5b602083019250600182023603831315612f8a57612f89612e9f565b5b509250929050565b600060208284031215612fa857612fa7612180565b5b6000612fb684828501612aa5565b91505092915050565b82818337600083830152505050565b6000612fda8385612c2f565b9350612fe7838584612fbf565b612ff08361262d565b840190509392505050565b60006130078385612cd0565b9350613014838584612fbf565b61301d8361262d565b840190509392505050565b61303181612a7a565b82525050565b6000608082019050818103600083015261305281898b612fce565b90508181036020830152613067818789612fce565b9050818103604083015261307c818587612ffb565b905061308b6060830184613028565b98975050505050505050565b600082825260208201905092915050565b6000819050919050565b60006130be83856125e9565b93506130cb838584612fbf565b6130d48361262d565b840190509392505050565b60006130ec8484846130b2565b90509392505050565b600080fd5b600080fd5b600080fd5b60008083356001602003843603038112613121576131206130ff565b5b83810192508235915060208301925067ffffffffffffffff821115613149576131486130f5565b5b60018202360384131561315f5761315e6130fa565b5b509250929050565b6000602082019050919050565b60006131808385613097565b935083602084028501613192846130a8565b8060005b878110156131d85784840389526131ad8284613104565b6131b88682846130df565b95506131c384613167565b935060208b019a505050600181019050613196565b50829750879450505050509392505050565b600060c0820190506131ff600083018b612c11565b61320c602083018a612c20565b818103604083015261321f81888a613174565b905061322e6060830187612c11565b8181036080830152613241818587612fce565b905061325060a0830184612c11565b9998505050505050505050565b60008151905061326c816122d2565b92915050565b60006020828403121561328857613287612180565b5b60006132968482850161325d565b91505092915050565b600060a0820190506132b4600083018a612c11565b6132c16020830189612c20565b81810360408301526132d4818789613174565b905081810360608301526132e9818587612fce565b90506132f86080830184612c11565b98975050505050505050565b7f4e487b7100000000000000000000000000000000000000000000000000000000600052602260045260246000fd5b6000600282049050600182168061334b57607f821691505b6020821081141561335f5761335e613304565b5b50919050565b7f436c69656e7420616c7265616479206372656174656400000000000000000000600082015250565b600061339b601683612c2f565b91506133a682613365565b602082019050919050565b600060208201905081810360008301526133ca8161338e565b9050919050565b60008190508160005260206000209050919050565b600081546133f381613333565b6133fd8186612cd0565b94506001821660008114613418576001811461342a5761345d565b60ff198316865260208601935061345d565b613433856133d1565b60005b8381101561345557815481890152600182019150602081019050613436565b808801955050505b50505092915050565b60006134756020840184612aa5565b905092915050565b61348681612a7a565b82525050565b600080833560016020038436030381126134a9576134a86130ff565b5b83810192508235915060208301925067ffffffffffffffff8211156134d1576134d06130f5565b5b6001820236038413156134e7576134e66130fa565b5b509250929050565b600082825260208201905092915050565b600061350c83856134ef565b9350613519838584612fbf565b6135228361262d565b840190509392505050565b6000604083016135406000840184613466565b61354d600086018261347d565b5061355b602084018461348c565b858303602087015261356e838284613500565b925050508091505092915050565b7f6368616e6e656c2f706174682f746f2f62652f61646465642f68657265000000600082015250565b60006135b2601d83612cd0565b91506135bd8261357c565b602082019050919050565b600060808201905081810360008301526135e281866133e6565b905081810360208301526135f6818561352d565b90508181036040830152613609816135a5565b9050818103606083015261361d8184612ce1565b9050949350505050565b60008115159050919050565b61363c81613627565b811461364757600080fd5b50565b60008151905061365981613633565b92915050565b60006020828403121561367557613674612180565b5b60006136838482850161364a565b91505092915050565b7f4661696c20746f2070726f7665206368616e6e656c2073746174650000000000600082015250565b60006136c2601b83612c2f565b91506136cd8261368c565b602082019050919050565b600060208201905081810360008301526136f1816136b5565b9050919050565b600060608201905061370d6000830186612c11565b61371a6020830185612c11565b6137276040830184612c11565b949350505050565b7f4e487b7100000000000000000000000000000000000000000000000000000000600052604160045260246000fd5b6137678261262d565b810181811067ffffffffffffffff821117156137865761378561372f565b5b80604052505050565b6000613799612176565b90506137a5828261375e565b919050565b600067ffffffffffffffff8211156137c5576137c461372f565b5b602082029050602081019050919050565b600080fd5b600067ffffffffffffffff8211156137f6576137f561372f565b5b6137ff8261262d565b9050602081019050919050565b600061381f61381a846137db565b61378f565b90508281526020810184848401111561383b5761383a6137d6565b5b613846848285612fbf565b509392505050565b600082601f83011261386357613862612323565b5b813561387384826020860161380c565b91505092915050565b600061388f61388a846137aa565b61378f565b905080838252602082019050602084028301858111156138b2576138b161232d565b5b835b818110156138f957803567ffffffffffffffff8111156138d7576138d6612323565b5b8086016138e4898261384e565b855260208501945050506020810190506138b4565b5050509392505050565b600061391036848461387c565b905092915050565b60006040820190508181036000830152613933818688612fce565b90508181036020830152613948818486613174565b905095945050505050565b7f436c69656e74206e6f7420637265617465640000000000000000000000000000600082015250565b6000613989601283612c2f565b915061399482613953565b602082019050919050565b600060208201905081810360008301526139b88161397c565b9050919050565b6000823560016040038336030381126139db576139da6130ff565b5b82810191505092915050565b60006139f660208401846122e9565b905092915050565b600060408301613a116000840184613104565b8583036000870152613a248382846130b2565b92505050613a3560208401846139e7565b613a42602086018261252c565b508091505092915050565b600082905092915050565b60408201613a696000830183613466565b613a76600085018261347d565b50613a846020830183613466565b613a91602085018261347d565b50505050565b600060c08301613aaa60008401846139bf565b8482036000860152613abc82826139fe565b915050613acc60208401846139bf565b8482036020860152613ade82826139fe565b915050613aee6040840184613466565b613afb604086018261347d565b50613b09606084018461348c565b8583036060870152613b1c838284613500565b92505050613b2d6080840184613a4d565b613b3a6080860182613a58565b508091505092915050565b60006020820190508181036000830152613b5f8184613a97565b905092915050565b600060608301613b7a600084018461348c565b8583036000870152613b8d838284613500565b92505050613b9e6020840184613466565b613bab602086018261347d565b50613bb9604084018461348c565b8583036040870152613bcc838284613500565b925050508091505092915050565b60006040820190508181036000830152613bf481856133e6565b90508181036020830152613c088184613b67565b90509392505050565b7f557064617465436c69656e744d73672070726f6f66207665726966696361746960008201527f6f6e206661696c65640000000000000000000000000000000000000000000000602082015250565b6000613c6d602983612c2f565b9150613c7882613c11565b604082019050919050565b60006020820190508181036000830152613c9c81613c60565b9050919050565b7f4368616e6e656c206e6f74206f776e6564206279206d73672e73656e64657200600082015250565b6000613cd9601f83612c2f565b9150613ce482613ca3565b602082019050919050565b60006020820190508181036000830152613d0881613ccc565b9050919050565b6000606082019050613d246000830186612c11565b8181036020830152613d368185612c40565b9050613d456040830184612c11565b949350505050565b7f4368616e6e656c206e6f74206f776e65642062792073656e6465720000000000600082015250565b6000613d83601b83612c2f565b9150613d8e82613d4d565b602082019050919050565b60006020820190508181036000830152613db281613d76565b9050919050565b600081905092915050565b50565b6000613dd4600083613db9565b9150613ddf82613dc4565b600082019050919050565b6000613df582613dc7565b9150819050919050565b7f4661696c656420746f20657363726f77207061636b6574206665650000000000600082015250565b6000613e35601b83612c2f565b9150613e4082613dff565b602082019050919050565b60006020820190508181036000830152613e6481613e28565b9050919050565b7f4e487b7100000000000000000000000000000000000000000000000000000000600052601160045260246000fd5b6000613ea582612a7a565b9150613eb083612a7a565b92508267ffffffffffffffff03821115613ecd57613ecc613e6b565b5b828201905092915050565b613ee181612aba565b82525050565b60006080820190508181036000830152613f02818789612ffb565b9050613f116020830186613028565b613f1e6040830185613028565b613f2b6060830184613ed8565b9695505050505050565b7f4368616e6e656c206e6f74206f776e656420627920706f727441646472657373600082015250565b6000613f6b602083612c2f565b9150613f7682613f35565b602082019050919050565b60006020820190508181036000830152613f9a81613f5e565b9050919050565b7f4f776e61626c653a206e6577206f776e657220697320746865207a65726f206160008201527f6464726573730000000000000000000000000000000000000000000000000000602082015250565b6000613ffd602683612c2f565b915061400882613fa1565b604082019050919050565b6000602082019050818103600083015261402c81613ff0565b9050919050565b7f4f776e61626c653a2063616c6c6572206973206e6f7420746865206f776e6572600082015250565b6000614069602083612c2f565b915061407482614033565b602082019050919050565b600060208201905081810360008301526140988161405c565b905091905056fe6578706563746564206368616e6e656c20627974657320636f6e73747275637465642066726f6d20706172616d732e204368616e6e656c2e5374617465203d207b41636b5f50656e64696e672c20436f6e6669726d5f50656e64696e677d6578706563746564206368616e6e656c20627974657320636f6e73747275637465642066726f6d20706172616d732e204368616e6e656c2e5374617465203d207b436c6f736564285f50656e64696e673f297da26469706673582212205918b6ce75019e01242a176183e672636dcec183b10c76637abfc10a1a86691a64736f6c63430008090033",
  "linkReferences": {},
  "deployedLinkReferences": {}
}