{
  "_format": "hh-sol-artifact-1",
  "contractName": "Dispatcher",
  "sourceName": "contracts/Dispatcher.sol",
  "abi": [
    {
      "inputs": [
        {
          "internalType": "address",
          "name": "_verifier",
          "type": "address"
        }
      ],
      "stateMutability": "nonpayable",
      "type": "constructor"
    },
    {
      "anonymous": false,
      "inputs": [
        {
          "indexed": false,
          "internalType": "string",
          "name": "channelId",
          "type": "string"
        },
        {
          "indexed": true,
          "internalType": "address",
          "name": "portId",
          "type": "address"
        }
      ],
      "name": "CloseIbcChannel",
      "type": "event"
    },
    {
      "anonymous": false,
      "inputs": [
        {
          "indexed": false,
          "internalType": "string",
          "name": "channelId",
          "type": "string"
        },
        {
          "indexed": true,
          "internalType": "address",
          "name": "portId",
          "type": "address"
        },
        {
          "indexed": false,
          "internalType": "string",
          "name": "counterPartyChannelId",
          "type": "string"
        },
        {
          "indexed": false,
          "internalType": "string",
          "name": "counterPartyPortId",
          "type": "string"
        },
        {
          "indexed": false,
          "internalType": "string",
          "name": "counterPartyVersion",
          "type": "string"
        }
      ],
      "name": "ConnectIbcChannel",
      "type": "event"
    },
    {
      "anonymous": false,
      "inputs": [
        {
          "indexed": true,
          "internalType": "bytes32",
          "name": "srcChannelId",
          "type": "bytes32"
        },
        {
          "indexed": false,
          "internalType": "string",
          "name": "srcPortId",
          "type": "string"
        },
        {
          "indexed": true,
          "internalType": "bytes32",
          "name": "destChannelId",
          "type": "bytes32"
        },
        {
          "indexed": false,
          "internalType": "string",
          "name": "destPortId",
          "type": "string"
        },
        {
          "indexed": false,
          "internalType": "bytes",
          "name": "data",
          "type": "bytes"
        },
        {
          "indexed": false,
          "internalType": "uint64",
          "name": "sequence",
          "type": "uint64"
        }
      ],
      "name": "OnRecvPacket",
      "type": "event"
    },
    {
      "anonymous": false,
      "inputs": [
        {
          "indexed": true,
          "internalType": "address",
          "name": "portAddress",
          "type": "address"
        },
        {
          "indexed": true,
          "internalType": "bytes32",
          "name": "channelId",
          "type": "bytes32"
        },
        {
          "indexed": true,
          "internalType": "bytes32",
          "name": "counterpartyChannelId",
          "type": "bytes32"
        },
        {
          "indexed": false,
          "internalType": "bytes32",
          "name": "version",
          "type": "bytes32"
        },
        {
          "indexed": false,
          "internalType": "enum ChannelOrder",
          "name": "ordering",
          "type": "uint8"
        },
        {
          "indexed": false,
          "internalType": "string[]",
          "name": "connectionHops",
          "type": "string[]"
        },
        {
          "indexed": false,
          "internalType": "string",
          "name": "counterpartyPortId",
          "type": "string"
        },
        {
          "indexed": false,
          "internalType": "bytes32",
          "name": "counterpartyVersion",
          "type": "bytes32"
        }
      ],
      "name": "OpenIbcChannel",
      "type": "event"
    },
    {
      "anonymous": false,
      "inputs": [
        {
          "indexed": true,
          "internalType": "address",
          "name": "previousOwner",
          "type": "address"
        },
        {
          "indexed": true,
          "internalType": "address",
          "name": "newOwner",
          "type": "address"
        }
      ],
      "name": "OwnershipTransferred",
      "type": "event"
    },
    {
      "anonymous": false,
      "inputs": [
        {
          "indexed": true,
          "internalType": "address",
          "name": "portId",
          "type": "address"
        },
        {
          "indexed": true,
          "internalType": "bytes32",
          "name": "channelId",
          "type": "bytes32"
        },
        {
          "indexed": false,
          "internalType": "bytes",
          "name": "packet",
          "type": "bytes"
        },
        {
          "indexed": false,
          "internalType": "uint64",
          "name": "timeoutTimestamp",
          "type": "uint64"
        }
      ],
      "name": "SendPacket",
      "type": "event"
    },
    {
      "inputs": [
        {
          "internalType": "string",
          "name": "channelId",
          "type": "string"
        }
      ],
      "name": "closeIbcChannel",
      "outputs": [],
      "stateMutability": "nonpayable",
      "type": "function"
    },
    {
      "inputs": [
        {
          "internalType": "string",
          "name": "channelId",
          "type": "string"
        },
        {
          "internalType": "string",
          "name": "counterPartyChannelId",
          "type": "string"
        },
        {
          "internalType": "string",
          "name": "counterPartyPortId",
          "type": "string"
        },
        {
          "internalType": "string",
          "name": "counterPartyVersion",
          "type": "string"
        }
      ],
      "name": "connectIbcChannel",
      "outputs": [],
      "stateMutability": "nonpayable",
      "type": "function"
    },
    {
      "inputs": [
        {
          "internalType": "bytes",
          "name": "clientState",
          "type": "bytes"
        },
        {
          "internalType": "bytes",
          "name": "consensusState",
          "type": "bytes"
        }
      ],
      "name": "createClient",
      "outputs": [],
      "stateMutability": "nonpayable",
      "type": "function"
    },
    {
      "inputs": [],
      "name": "latestConsensusState",
      "outputs": [
        {
          "internalType": "bytes",
          "name": "",
          "type": "bytes"
        }
      ],
      "stateMutability": "view",
      "type": "function"
    },
    {
      "inputs": [
        {
          "internalType": "contract IbcReceiver",
          "name": "receiver",
          "type": "address"
        },
        {
          "components": [
            {
              "components": [
                {
                  "internalType": "string",
                  "name": "portId",
                  "type": "string"
                },
                {
                  "internalType": "bytes32",
                  "name": "channelId",
                  "type": "bytes32"
                }
              ],
              "internalType": "struct IbcEndpoint",
              "name": "src",
              "type": "tuple"
            },
            {
              "components": [
                {
                  "internalType": "string",
                  "name": "portId",
                  "type": "string"
                },
                {
                  "internalType": "bytes32",
                  "name": "channelId",
                  "type": "bytes32"
                }
              ],
              "internalType": "struct IbcEndpoint",
              "name": "dest",
              "type": "tuple"
            },
            {
              "internalType": "uint64",
              "name": "sequence",
              "type": "uint64"
            },
            {
              "internalType": "bytes",
              "name": "data",
              "type": "bytes"
            },
            {
              "components": [
                {
                  "internalType": "uint64",
                  "name": "block",
                  "type": "uint64"
                },
                {
                  "internalType": "uint64",
                  "name": "timestamp",
                  "type": "uint64"
                }
              ],
              "internalType": "struct IbcTimeout",
              "name": "timeout",
              "type": "tuple"
            }
          ],
          "internalType": "struct IbcPacket",
          "name": "packet",
          "type": "tuple"
        },
        {
          "internalType": "bytes",
          "name": "acknowledgement",
          "type": "bytes"
        },
        {
          "components": [
            {
              "internalType": "bytes",
              "name": "keyPath",
              "type": "bytes"
            },
            {
              "internalType": "bytes",
              "name": "value",
              "type": "bytes"
            },
            {
              "internalType": "bytes",
              "name": "proof",
              "type": "bytes"
            }
          ],
          "internalType": "struct Proof",
          "name": "proof",
          "type": "tuple"
        }
      ],
      "name": "onAcknowledgementPacket",
      "outputs": [],
      "stateMutability": "nonpayable",
      "type": "function"
    },
    {
      "inputs": [
        {
          "internalType": "contract IbcReceiver",
          "name": "receiver",
          "type": "address"
        },
        {
          "internalType": "string",
          "name": "channelId",
          "type": "string"
        },
        {
          "components": [
            {
              "internalType": "bytes",
              "name": "keyPath",
              "type": "bytes"
            },
            {
              "internalType": "bytes",
              "name": "value",
              "type": "bytes"
            },
            {
              "internalType": "bytes",
              "name": "proof",
              "type": "bytes"
            }
          ],
          "internalType": "struct Proof",
          "name": "proof",
          "type": "tuple"
        },
        {
          "internalType": "string",
          "name": "error",
          "type": "string"
        }
      ],
      "name": "onCloseIbcChannel",
      "outputs": [],
      "stateMutability": "nonpayable",
      "type": "function"
    },
    {
      "inputs": [
        {
          "internalType": "contract IbcReceiver",
          "name": "receiver",
          "type": "address"
        },
        {
          "internalType": "string",
          "name": "channelId",
          "type": "string"
        },
        {
          "components": [
            {
              "internalType": "bytes",
              "name": "keyPath",
              "type": "bytes"
            },
            {
              "internalType": "bytes",
              "name": "value",
              "type": "bytes"
            },
            {
              "internalType": "bytes",
              "name": "proof",
              "type": "bytes"
            }
          ],
          "internalType": "struct Proof",
          "name": "proof",
          "type": "tuple"
        },
        {
          "internalType": "string",
          "name": "error",
          "type": "string"
        }
      ],
      "name": "onConnectIbcChannel",
      "outputs": [],
      "stateMutability": "nonpayable",
      "type": "function"
    },
    {
      "inputs": [
        {
          "internalType": "contract IbcReceiver",
          "name": "receiver",
          "type": "address"
        },
        {
          "components": [
            {
              "components": [
                {
                  "internalType": "string",
                  "name": "portId",
                  "type": "string"
                },
                {
                  "internalType": "bytes32",
                  "name": "channelId",
                  "type": "bytes32"
                }
              ],
              "internalType": "struct IbcEndpoint",
              "name": "src",
              "type": "tuple"
            },
            {
              "components": [
                {
                  "internalType": "string",
                  "name": "portId",
                  "type": "string"
                },
                {
                  "internalType": "bytes32",
                  "name": "channelId",
                  "type": "bytes32"
                }
              ],
              "internalType": "struct IbcEndpoint",
              "name": "dest",
              "type": "tuple"
            },
            {
              "internalType": "uint64",
              "name": "sequence",
              "type": "uint64"
            },
            {
              "internalType": "bytes",
              "name": "data",
              "type": "bytes"
            },
            {
              "components": [
                {
                  "internalType": "uint64",
                  "name": "block",
                  "type": "uint64"
                },
                {
                  "internalType": "uint64",
                  "name": "timestamp",
                  "type": "uint64"
                }
              ],
              "internalType": "struct IbcTimeout",
              "name": "timeout",
              "type": "tuple"
            }
          ],
          "internalType": "struct IbcPacket",
          "name": "packet",
          "type": "tuple"
        },
        {
          "components": [
            {
              "internalType": "bytes",
              "name": "keyPath",
              "type": "bytes"
            },
            {
              "internalType": "bytes",
              "name": "value",
              "type": "bytes"
            },
            {
              "internalType": "bytes",
              "name": "proof",
              "type": "bytes"
            }
          ],
          "internalType": "struct Proof",
          "name": "proof",
          "type": "tuple"
        }
      ],
      "name": "onRecvPacket",
      "outputs": [],
      "stateMutability": "nonpayable",
      "type": "function"
    },
    {
      "inputs": [
        {
          "internalType": "contract IbcReceiver",
          "name": "receiver",
          "type": "address"
        },
        {
          "components": [
            {
              "components": [
                {
                  "internalType": "string",
                  "name": "portId",
                  "type": "string"
                },
                {
                  "internalType": "bytes32",
                  "name": "channelId",
                  "type": "bytes32"
                }
              ],
              "internalType": "struct IbcEndpoint",
              "name": "src",
              "type": "tuple"
            },
            {
              "components": [
                {
                  "internalType": "string",
                  "name": "portId",
                  "type": "string"
                },
                {
                  "internalType": "bytes32",
                  "name": "channelId",
                  "type": "bytes32"
                }
              ],
              "internalType": "struct IbcEndpoint",
              "name": "dest",
              "type": "tuple"
            },
            {
              "internalType": "uint64",
              "name": "sequence",
              "type": "uint64"
            },
            {
              "internalType": "bytes",
              "name": "data",
              "type": "bytes"
            },
            {
              "components": [
                {
                  "internalType": "uint64",
                  "name": "block",
                  "type": "uint64"
                },
                {
                  "internalType": "uint64",
                  "name": "timestamp",
                  "type": "uint64"
                }
              ],
              "internalType": "struct IbcTimeout",
              "name": "timeout",
              "type": "tuple"
            }
          ],
          "internalType": "struct IbcPacket",
          "name": "packet",
          "type": "tuple"
        },
        {
          "components": [
            {
              "internalType": "bytes",
              "name": "keyPath",
              "type": "bytes"
            },
            {
              "internalType": "bytes",
              "name": "value",
              "type": "bytes"
            },
            {
              "internalType": "bytes",
              "name": "proof",
              "type": "bytes"
            }
          ],
          "internalType": "struct Proof",
          "name": "proof",
          "type": "tuple"
        }
      ],
      "name": "onTimeoutPacket",
      "outputs": [],
      "stateMutability": "nonpayable",
      "type": "function"
    },
    {
      "inputs": [
        {
          "internalType": "address",
          "name": "portAddress",
          "type": "address"
        },
        {
          "internalType": "bytes32",
          "name": "version",
          "type": "bytes32"
        },
        {
          "internalType": "enum ChannelOrder",
          "name": "ordering",
          "type": "uint8"
        },
        {
          "internalType": "string[]",
          "name": "connectionHops",
          "type": "string[]"
        },
        {
          "internalType": "bytes32",
          "name": "counterpartyChannelId",
          "type": "bytes32"
        },
        {
          "internalType": "string",
          "name": "counterpartyPortId",
          "type": "string"
        },
        {
          "internalType": "bytes32",
          "name": "counterpartyVersion",
          "type": "bytes32"
        }
      ],
      "name": "openIbcChannel",
      "outputs": [],
      "stateMutability": "nonpayable",
      "type": "function"
    },
    {
      "inputs": [],
      "name": "owner",
      "outputs": [
        {
          "internalType": "address",
          "name": "",
          "type": "address"
        }
      ],
      "stateMutability": "view",
      "type": "function"
    },
    {
      "inputs": [],
      "name": "renounceOwnership",
      "outputs": [],
      "stateMutability": "nonpayable",
      "type": "function"
    },
    {
      "inputs": [
        {
          "internalType": "bytes32",
          "name": "channelId",
          "type": "bytes32"
        },
        {
          "internalType": "bytes",
          "name": "packet",
          "type": "bytes"
        },
        {
          "internalType": "uint64",
          "name": "timeoutTimestamp",
          "type": "uint64"
        }
      ],
      "name": "sendPacket",
      "outputs": [],
      "stateMutability": "nonpayable",
      "type": "function"
    },
    {
      "inputs": [
        {
          "internalType": "address",
          "name": "newOwner",
          "type": "address"
        }
      ],
      "name": "transferOwnership",
      "outputs": [],
      "stateMutability": "nonpayable",
      "type": "function"
    },
    {
      "inputs": [
        {
          "internalType": "bytes",
          "name": "consensusState",
          "type": "bytes"
        }
      ],
      "name": "updateClient",
      "outputs": [],
      "stateMutability": "nonpayable",
      "type": "function"
    },
    {
      "inputs": [],
      "name": "verifier",
      "outputs": [
        {
          "internalType": "contract ZKMintVerifier",
          "name": "",
          "type": "address"
        }
      ],
      "stateMutability": "view",
      "type": "function"
    }
  ],
  "bytecode": "0x60806040526000600360006101000a81548167ffffffffffffffff021916908367ffffffffffffffff1602179055503480156200003b57600080fd5b5060405162002b8538038062002b8583398181016040528101906200006191906200021a565b6200008162000075620000e460201b60201c565b620000ec60201b60201c565b80600160006101000a81548173ffffffffffffffffffffffffffffffffffffffff021916908373ffffffffffffffffffffffffffffffffffffffff1602179055506000600160146101000a81548160ff021916908315150217905550506200024c565b600033905090565b60008060009054906101000a900473ffffffffffffffffffffffffffffffffffffffff169050816000806101000a81548173ffffffffffffffffffffffffffffffffffffffff021916908373ffffffffffffffffffffffffffffffffffffffff1602179055508173ffffffffffffffffffffffffffffffffffffffff168173ffffffffffffffffffffffffffffffffffffffff167f8be0079c531659141344cd1fd0a4f28419497f9722a3daafe3b4186f6b6457e060405160405180910390a35050565b600080fd5b600073ffffffffffffffffffffffffffffffffffffffff82169050919050565b6000620001e282620001b5565b9050919050565b620001f481620001d5565b81146200020057600080fd5b50565b6000815190506200021481620001e9565b92915050565b600060208284031215620002335762000232620001b0565b5b6000620002438482850162000203565b91505092915050565b612929806200025c6000396000f3fe608060405234801561001057600080fd5b50600436106101005760003560e01c80638b11684811610097578063ca1288ed11610066578063ca1288ed14610249578063dc44310014610265578063e6815c1214610281578063f2fde38b1461029d57610100565b80638b116848146101d55780638da5cb5b146101f1578063c2a2514d1461020f578063c3e1155c1461022d57610100565b80632b7ac3f3116100d35780632b7ac3f3146101755780633e24aaf31461019357806370c5dd53146101af578063715018a6146101cb57610100565b806303941ec5146101055780630bece356146101215780631f456c1e1461013d578063260012e814610159575b600080fd5b61011f600480360381019061011a919061126f565b6102b9565b005b61013b6004803603810190610136919061132f565b610373565b005b610157600480360381019061015291906114af565b6104c6565b005b610173600480360381019061016e9190611591565b61067d565b005b61017d61078f565b60405161018a919061167b565b60405180910390f35b6101ad60048036038101906101a89190611696565b6107b5565b005b6101c960048036038101906101c49190611717565b61083f565b005b6101d3610900565b005b6101ef60048036038101906101ea9190611717565b610914565b005b6101f96109d5565b60405161020691906117e9565b60405180910390f35b6102176109fe565b604051610224919061189d565b60405180910390f35b610247600480360381019061024291906118ff565b610a8c565b005b610263600480360381019061025e9190611973565b610ae5565b005b61027f600480360381019061027a9190611591565b610b4b565b005b61029b60048036038101906102969190611a5c565b610c03565b005b6102b760048036038101906102b29190611aa9565b610c57565b005b6102c281610cdb565b610301576040517f08c379a00000000000000000000000000000000000000000000000000000000081526004016102f890611b33565b60405180910390fd5b8473ffffffffffffffffffffffffffffffffffffffff1663f45cf5e4856040518263ffffffff1660e01b815260040161033a9190611e6e565b600060405180830381600087803b15801561035457600080fd5b505af1158015610368573d6000803e3d6000fd5b505050505050505050565b600160149054906101000a900460ff166103c2576040517f08c379a00000000000000000000000000000000000000000000000000000000081526004016103b990611edc565b60405180910390fd5b600160009054906101000a900473ffffffffffffffffffffffffffffffffffffffff1673ffffffffffffffffffffffffffffffffffffffff16638e760afe83836040518363ffffffff1660e01b815260040161041f929190611f29565b602060405180830381600087803b15801561043957600080fd5b505af115801561044d573d6000803e3d6000fd5b505050506040513d601f19601f820116820180604052508101906104719190611f85565b6104b0576040517f08c379a00000000000000000000000000000000000000000000000000000000081526004016104a790612024565b60405180910390fd5b8181600291906104c19291906110aa565b505050565b600089905060006105696040518060400160405280600881526020017f6368616e6e656c2d0000000000000000000000000000000000000000000000008152506105646003600081819054906101000a900467ffffffffffffffff168092919061052f90612073565b91906101000a81548167ffffffffffffffff021916908367ffffffffffffffff16021790555067ffffffffffffffff16610d09565b610de1565b610572906120d6565b905060008273ffffffffffffffffffffffffffffffffffffffff1663da972ca6838d8d8d8d8d8d8d8d6040518a63ffffffff1660e01b81526004016105bf999897969594939291906122a4565b602060405180830381600087803b1580156105d957600080fd5b505af11580156105ed573d6000803e3d6000fd5b505050506040513d601f19601f82011682018060405250810190610611919061233a565b905086828d73ffffffffffffffffffffffffffffffffffffffff167f3a062c69da5f8c9a2e92280798c3c02f22a85b94ab35c8d54dc32b03252ae68b848e8e8e8d8d8d6040516106679796959493929190612367565b60405180910390a4505050505050505050505050565b61068681610cdb565b6106c5576040517f08c379a00000000000000000000000000000000000000000000000000000000081526004016106bc90611b33565b60405180910390fd5b8180602001906106d591906123db565b602001358280600001906106e991906123db565b602001357f080631928e492258b6a102fc2ab3e0a8dfcb747ab0885c25f9cb7a8d4862103684806000019061071e91906123db565b806000019061072d9190612403565b86806020019061073d91906123db565b806000019061074c9190612403565b88806060019061075c9190612466565b8a604001602081019061076f91906124c9565b6040516107829796959493929190612505565b60405180910390a3505050565b600160009054906101000a900473ffffffffffffffffffffffffffffffffffffffff1681565b6107bd610e0d565b600160149054906101000a900460ff161561080d576040517f08c379a0000000000000000000000000000000000000000000000000000000008152600401610804906125b1565b60405180910390fd5b60018060146101000a81548160ff0219169083151502179055508181600291906108389291906110aa565b5050505050565b61084883610cdb565b610887576040517f08c379a000000000000000000000000000000000000000000000000000000000815260040161087e90611b33565b60405180910390fd5b8573ffffffffffffffffffffffffffffffffffffffff16630a845081868685856040518563ffffffff1660e01b81526004016108c694939291906125d1565b600060405180830381600087803b1580156108e057600080fd5b505af11580156108f4573d6000803e3d6000fd5b50505050505050505050565b610908610e0d565b6109126000610e8b565b565b61091d83610cdb565b61095c576040517f08c379a000000000000000000000000000000000000000000000000000000000815260040161095390611b33565b60405180910390fd5b8573ffffffffffffffffffffffffffffffffffffffff16636afd6174868685856040518563ffffffff1660e01b815260040161099b94939291906125d1565b600060405180830381600087803b1580156109b557600080fd5b505af11580156109c9573d6000803e3d6000fd5b50505050505050505050565b60008060009054906101000a900473ffffffffffffffffffffffffffffffffffffffff16905090565b60028054610a0b9061263b565b80601f0160208091040260200160405190810160405280929190818152602001828054610a379061263b565b8015610a845780601f10610a5957610100808354040283529160200191610a84565b820191906000526020600020905b815481529060010190602001808311610a6757829003601f168201915b505050505081565b833373ffffffffffffffffffffffffffffffffffffffff167fe5f4762afde15256ce24aa385b449d27b7d2776921f3c673f8162ddb5b7a2f16858585604051610ad79392919061266d565b60405180910390a350505050565b3373ffffffffffffffffffffffffffffffffffffffff167fd38dbe544e1f1277b020a61acc0dd2cf9ddcf99471a49a288a3ada57f3206a738989898989898989604051610b3998979695949392919061269f565b60405180910390a25050505050505050565b610b5481610cdb565b610b93576040517f08c379a0000000000000000000000000000000000000000000000000000000008152600401610b8a90611b33565b60405180910390fd5b8273ffffffffffffffffffffffffffffffffffffffff1663b33c2577836040518263ffffffff1660e01b8152600401610bcc9190611e6e565b600060405180830381600087803b158015610be657600080fd5b505af1158015610bfa573d6000803e3d6000fd5b50505050505050565b3373ffffffffffffffffffffffffffffffffffffffff167f18280cf62c6d3f3519d7cff5c5b7e91021dd17a0278ba5668976d82bdc9faa9e8383604051610c4b929190612708565b60405180910390a25050565b610c5f610e0d565b600073ffffffffffffffffffffffffffffffffffffffff168173ffffffffffffffffffffffffffffffffffffffff161415610ccf576040517f08c379a0000000000000000000000000000000000000000000000000000000008152600401610cc69061279e565b60405180910390fd5b610cd881610e8b565b50565b600080828060400190610cee9190612466565b90501415610cff5760009050610d04565b600190505b919050565b606060006001610d1884610f4f565b01905060008167ffffffffffffffff811115610d3757610d366127be565b5b6040519080825280601f01601f191660200182016040528015610d695781602001600182028036833780820191505090505b509050600082602001820190505b600115610dd6578080600190039150507f3031323334353637383961626364656600000000000000000000000000000000600a86061a8153600a8581610dc057610dbf6127ed565b5b0494506000851415610dd157610dd6565b610d77565b819350505050919050565b60608282604051602001610df6929190612863565b604051602081830303815290604052905092915050565b610e156110a2565b73ffffffffffffffffffffffffffffffffffffffff16610e336109d5565b73ffffffffffffffffffffffffffffffffffffffff1614610e89576040517f08c379a0000000000000000000000000000000000000000000000000000000008152600401610e80906128d3565b60405180910390fd5b565b60008060009054906101000a900473ffffffffffffffffffffffffffffffffffffffff169050816000806101000a81548173ffffffffffffffffffffffffffffffffffffffff021916908373ffffffffffffffffffffffffffffffffffffffff1602179055508173ffffffffffffffffffffffffffffffffffffffff168173ffffffffffffffffffffffffffffffffffffffff167f8be0079c531659141344cd1fd0a4f28419497f9722a3daafe3b4186f6b6457e060405160405180910390a35050565b600080600090507a184f03e93ff9f4daa797ed6e38ed64bf6a1f0100000000000000008310610fad577a184f03e93ff9f4daa797ed6e38ed64bf6a1f0100000000000000008381610fa357610fa26127ed565b5b0492506040810190505b6d04ee2d6d415b85acef81000000008310610fea576d04ee2d6d415b85acef81000000008381610fe057610fdf6127ed565b5b0492506020810190505b662386f26fc10000831061101957662386f26fc10000838161100f5761100e6127ed565b5b0492506010810190505b6305f5e1008310611042576305f5e1008381611038576110376127ed565b5b0492506008810190505b612710831061106757612710838161105d5761105c6127ed565b5b0492506004810190505b6064831061108a57606483816110805761107f6127ed565b5b0492506002810190505b600a8310611099576001810190505b80915050919050565b600033905090565b8280546110b69061263b565b90600052602060002090601f0160209004810192826110d8576000855561111f565b82601f106110f157803560ff191683800117855561111f565b8280016001018555821561111f579182015b8281111561111e578235825591602001919060010190611103565b5b50905061112c9190611130565b5090565b5b80821115611149576000816000905550600101611131565b5090565b600080fd5b600080fd5b600073ffffffffffffffffffffffffffffffffffffffff82169050919050565b600061118282611157565b9050919050565b600061119482611177565b9050919050565b6111a481611189565b81146111af57600080fd5b50565b6000813590506111c18161119b565b92915050565b600080fd5b600060c082840312156111e2576111e16111c7565b5b81905092915050565b600080fd5b600080fd5b600080fd5b60008083601f8401126112105761120f6111eb565b5b8235905067ffffffffffffffff81111561122d5761122c6111f0565b5b602083019150836001820283011115611249576112486111f5565b5b9250929050565b600060608284031215611266576112656111c7565b5b81905092915050565b60008060008060006080868803121561128b5761128a61114d565b5b6000611299888289016111b2565b955050602086013567ffffffffffffffff8111156112ba576112b9611152565b5b6112c6888289016111cc565b945050604086013567ffffffffffffffff8111156112e7576112e6611152565b5b6112f3888289016111fa565b9350935050606086013567ffffffffffffffff81111561131657611315611152565b5b61132288828901611250565b9150509295509295909350565b600080602083850312156113465761134561114d565b5b600083013567ffffffffffffffff81111561136457611363611152565b5b611370858286016111fa565b92509250509250929050565b61138581611177565b811461139057600080fd5b50565b6000813590506113a28161137c565b92915050565b6000819050919050565b6113bb816113a8565b81146113c657600080fd5b50565b6000813590506113d8816113b2565b92915050565b600281106113eb57600080fd5b50565b6000813590506113fd816113de565b92915050565b60008083601f840112611419576114186111eb565b5b8235905067ffffffffffffffff811115611436576114356111f0565b5b602083019150836020820283011115611452576114516111f5565b5b9250929050565b60008083601f84011261146f5761146e6111eb565b5b8235905067ffffffffffffffff81111561148c5761148b6111f0565b5b6020830191508360018202830111156114a8576114a76111f5565b5b9250929050565b600080600080600080600080600060e08a8c0312156114d1576114d061114d565b5b60006114df8c828d01611393565b99505060206114f08c828d016113c9565b98505060406115018c828d016113ee565b97505060608a013567ffffffffffffffff81111561152257611521611152565b5b61152e8c828d01611403565b965096505060806115418c828d016113c9565b94505060a08a013567ffffffffffffffff81111561156257611561611152565b5b61156e8c828d01611459565b935093505060c06115818c828d016113c9565b9150509295985092959850929598565b6000806000606084860312156115aa576115a961114d565b5b60006115b8868287016111b2565b935050602084013567ffffffffffffffff8111156115d9576115d8611152565b5b6115e5868287016111cc565b925050604084013567ffffffffffffffff81111561160657611605611152565b5b61161286828701611250565b9150509250925092565b6000819050919050565b600061164161163c61163784611157565b61161c565b611157565b9050919050565b600061165382611626565b9050919050565b600061166582611648565b9050919050565b6116758161165a565b82525050565b6000602082019050611690600083018461166c565b92915050565b600080600080604085870312156116b0576116af61114d565b5b600085013567ffffffffffffffff8111156116ce576116cd611152565b5b6116da878288016111fa565b9450945050602085013567ffffffffffffffff8111156116fd576116fc611152565b5b611709878288016111fa565b925092505092959194509250565b600080600080600080608087890312156117345761173361114d565b5b600061174289828a016111b2565b965050602087013567ffffffffffffffff81111561176357611762611152565b5b61176f89828a01611459565b9550955050604087013567ffffffffffffffff81111561179257611791611152565b5b61179e89828a01611250565b935050606087013567ffffffffffffffff8111156117bf576117be611152565b5b6117cb89828a01611459565b92509250509295509295509295565b6117e381611177565b82525050565b60006020820190506117fe60008301846117da565b92915050565b600081519050919050565b600082825260208201905092915050565b60005b8381101561183e578082015181840152602081019050611823565b8381111561184d576000848401525b50505050565b6000601f19601f8301169050919050565b600061186f82611804565b611879818561180f565b9350611889818560208601611820565b61189281611853565b840191505092915050565b600060208201905081810360008301526118b78184611864565b905092915050565b600067ffffffffffffffff82169050919050565b6118dc816118bf565b81146118e757600080fd5b50565b6000813590506118f9816118d3565b92915050565b600080600080606085870312156119195761191861114d565b5b6000611927878288016113c9565b945050602085013567ffffffffffffffff81111561194857611947611152565b5b611954878288016111fa565b93509350506040611967878288016118ea565b91505092959194509250565b6000806000806000806000806080898b0312156119935761199261114d565b5b600089013567ffffffffffffffff8111156119b1576119b0611152565b5b6119bd8b828c01611459565b9850985050602089013567ffffffffffffffff8111156119e0576119df611152565b5b6119ec8b828c01611459565b9650965050604089013567ffffffffffffffff811115611a0f57611a0e611152565b5b611a1b8b828c01611459565b9450945050606089013567ffffffffffffffff811115611a3e57611a3d611152565b5b611a4a8b828c01611459565b92509250509295985092959890939650565b60008060208385031215611a7357611a7261114d565b5b600083013567ffffffffffffffff811115611a9157611a90611152565b5b611a9d85828601611459565b92509250509250929050565b600060208284031215611abf57611abe61114d565b5b6000611acd84828501611393565b91505092915050565b600082825260208201905092915050565b7f50726f6f6620766572696669636174696f6e206661696c656400000000000000600082015250565b6000611b1d601983611ad6565b9150611b2882611ae7565b602082019050919050565b60006020820190508181036000830152611b4c81611b10565b9050919050565b600080fd5b600082356001604003833603038112611b7457611b73611b53565b5b82810191505092915050565b600080fd5b600080fd5b60008083356001602003843603038112611ba757611ba6611b53565b5b83810192508235915060208301925067ffffffffffffffff821115611bcf57611bce611b80565b5b600182023603841315611be557611be4611b85565b5b509250929050565b600082825260208201905092915050565b82818337600083830152505050565b6000611c198385611bed565b9350611c26838584611bfe565b611c2f83611853565b840190509392505050565b6000611c4960208401846113c9565b905092915050565b611c5a816113a8565b82525050565b600060408301611c736000840184611b8a565b8583036000870152611c86838284611c0d565b92505050611c976020840184611c3a565b611ca46020860182611c51565b508091505092915050565b6000611cbe60208401846118ea565b905092915050565b611ccf816118bf565b82525050565b60008083356001602003843603038112611cf257611cf1611b53565b5b83810192508235915060208301925067ffffffffffffffff821115611d1a57611d19611b80565b5b600182023603841315611d3057611d2f611b85565b5b509250929050565b600082825260208201905092915050565b6000611d558385611d38565b9350611d62838584611bfe565b611d6b83611853565b840190509392505050565b600082905092915050565b60408201611d926000830183611caf565b611d9f6000850182611cc6565b50611dad6020830183611caf565b611dba6020850182611cc6565b50505050565b600060c08301611dd36000840184611b58565b8482036000860152611de58282611c60565b915050611df56020840184611b58565b8482036020860152611e078282611c60565b915050611e176040840184611caf565b611e246040860182611cc6565b50611e326060840184611cd5565b8583036060870152611e45838284611d49565b92505050611e566080840184611d76565b611e636080860182611d81565b508091505092915050565b60006020820190508181036000830152611e888184611dc0565b905092915050565b7f436c69656e74206e6f7420637265617465640000000000000000000000000000600082015250565b6000611ec6601283611ad6565b9150611ed182611e90565b602082019050919050565b60006020820190508181036000830152611ef581611eb9565b9050919050565b6000611f08838561180f565b9350611f15838584611bfe565b611f1e83611853565b840190509392505050565b60006020820190508181036000830152611f44818486611efc565b90509392505050565b60008115159050919050565b611f6281611f4d565b8114611f6d57600080fd5b50565b600081519050611f7f81611f59565b92915050565b600060208284031215611f9b57611f9a61114d565b5b6000611fa984828501611f70565b91505092915050565b7f436f6e73656e73757320737461746520766572696669636174696f6e2066616960008201527f6c65640000000000000000000000000000000000000000000000000000000000602082015250565b600061200e602383611ad6565b915061201982611fb2565b604082019050919050565b6000602082019050818103600083015261203d81612001565b9050919050565b7f4e487b7100000000000000000000000000000000000000000000000000000000600052601160045260246000fd5b600061207e826118bf565b915067ffffffffffffffff82141561209957612098612044565b5b600182019050919050565b6000819050602082019050919050565b60006120c082516113a8565b80915050919050565b600082821b905092915050565b60006120e182611804565b826120eb846120a4565b90506120f6816120b4565b92506020821015612136576121317fffffffffffffffffffffffffffffffffffffffffffffffffffffffffffffffff836020036008026120c9565b831692505b5050919050565b612146816113a8565b82525050565b7f4e487b7100000000000000000000000000000000000000000000000000000000600052602160045260246000fd5b6002811061218c5761218b61214c565b5b50565b600081905061219d8261217b565b919050565b60006121ad8261218f565b9050919050565b6121bd816121a2565b82525050565b600082825260208201905092915050565b6000819050919050565b60006121eb848484611c0d565b90509392505050565b6000602082019050919050565b600061220d83856121c3565b93508360208402850161221f846121d4565b8060005b8781101561226557848403895261223a8284611b8a565b6122458682846121de565b9550612250846121f4565b935060208b019a505050600181019050612223565b50829750879450505050509392505050565b60006122838385611ad6565b9350612290838584611bfe565b61229983611853565b840190509392505050565b600060e0820190506122b9600083018c61213d565b6122c6602083018b61213d565b6122d3604083018a6121b4565b81810360608301526122e681888a612201565b90506122f5608083018761213d565b81810360a0830152612308818587612277565b905061231760c083018461213d565b9a9950505050505050505050565b600081519050612334816113b2565b92915050565b6000602082840312156123505761234f61114d565b5b600061235e84828501612325565b91505092915050565b600060a08201905061237c600083018a61213d565b61238960208301896121b4565b818103604083015261239c818789612201565b905081810360608301526123b1818587612277565b90506123c0608083018461213d565b98975050505050505050565b600080fd5b600080fd5b600080fd5b6000823560016040038336030381126123f7576123f66123cc565b5b80830191505092915050565b600080833560016020038436030381126124205761241f6123cc565b5b80840192508235915067ffffffffffffffff821115612442576124416123d1565b5b60208301925060018202360383131561245e5761245d6123d6565b5b509250929050565b60008083356001602003843603038112612483576124826123cc565b5b80840192508235915067ffffffffffffffff8211156124a5576124a46123d1565b5b6020830192506001820236038313156124c1576124c06123d6565b5b509250929050565b6000602082840312156124df576124de61114d565b5b60006124ed848285016118ea565b91505092915050565b6124ff816118bf565b82525050565b6000608082019050818103600083015261252081898b612277565b90508181036020830152612535818789612277565b9050818103604083015261254a818587611efc565b905061255960608301846124f6565b98975050505050505050565b7f436c69656e7420616c7265616479206372656174656400000000000000000000600082015250565b600061259b601683611ad6565b91506125a682612565565b602082019050919050565b600060208201905081810360008301526125ca8161258e565b9050919050565b600060408201905081810360008301526125ec818688612277565b90508181036020830152612601818486612277565b905095945050505050565b7f4e487b7100000000000000000000000000000000000000000000000000000000600052602260045260246000fd5b6000600282049050600182168061265357607f821691505b602082108114156126675761266661260c565b5b50919050565b60006040820190508181036000830152612688818587611efc565b905061269760208301846124f6565b949350505050565b600060808201905081810360008301526126ba818a8c612277565b905081810360208301526126cf81888a612277565b905081810360408301526126e4818688612277565b905081810360608301526126f9818486612277565b90509998505050505050505050565b60006020820190508181036000830152612723818486612277565b90509392505050565b7f4f776e61626c653a206e6577206f776e657220697320746865207a65726f206160008201527f6464726573730000000000000000000000000000000000000000000000000000602082015250565b6000612788602683611ad6565b91506127938261272c565b604082019050919050565b600060208201905081810360008301526127b78161277b565b9050919050565b7f4e487b7100000000000000000000000000000000000000000000000000000000600052604160045260246000fd5b7f4e487b7100000000000000000000000000000000000000000000000000000000600052601260045260246000fd5b600081519050919050565b600081905092915050565b600061283d8261281c565b6128478185612827565b9350612857818560208601611820565b80840191505092915050565b600061286f8285612832565b915061287b8284612832565b91508190509392505050565b7f4f776e61626c653a2063616c6c6572206973206e6f7420746865206f776e6572600082015250565b60006128bd602083611ad6565b91506128c882612887565b602082019050919050565b600060208201905081810360008301526128ec816128b0565b905091905056fea2646970667358221220de3dcd19eebf6d1c545d302110d2268d301b06ade15d66ff1cc3c1c3fc7e61c164736f6c63430008090033",
  "linkReferences": {},
  "deployedLinkReferences": {}
}