{
  "_format": "hh-sol-artifact-1",
  "contractName": "Dispatcher",
  "sourceName": "contracts/Dispatcher.sol",
  "abi": [
    {
      "inputs": [
        {
          "internalType": "contract ZKMintVerifier",
          "name": "_verifier",
          "type": "address"
        },
        {
          "internalType": "address payable",
          "name": "_escrow",
          "type": "address"
        }
      ],
      "stateMutability": "nonpayable",
      "type": "constructor"
    },
    {
      "anonymous": false,
      "inputs": [
        {
          "indexed": true,
          "internalType": "address",
          "name": "sourcePortAddress",
          "type": "address"
        },
        {
          "indexed": true,
          "internalType": "bytes32",
          "name": "sourceChannelId",
          "type": "bytes32"
        },
        {
          "indexed": false,
          "internalType": "bytes",
          "name": "acknowledgement",
          "type": "bytes"
        },
        {
          "indexed": false,
          "internalType": "uint64",
          "name": "sequence",
          "type": "uint64"
        }
      ],
      "name": "Acknowledgement",
      "type": "event"
    },
    {
      "anonymous": false,
      "inputs": [
        {
          "indexed": true,
          "internalType": "address",
          "name": "portAddress",
          "type": "address"
        },
        {
          "indexed": true,
          "internalType": "bytes32",
          "name": "channelId",
          "type": "bytes32"
        }
      ],
      "name": "CloseIbcChannel",
      "type": "event"
    },
    {
      "anonymous": false,
      "inputs": [
        {
          "indexed": true,
          "internalType": "address",
          "name": "portAddress",
          "type": "address"
        },
        {
          "indexed": true,
          "internalType": "bytes32",
          "name": "channelId",
          "type": "bytes32"
        },
        {
          "indexed": false,
          "internalType": "string",
          "name": "counterpartyPortId",
          "type": "string"
        },
        {
          "indexed": true,
          "internalType": "bytes32",
          "name": "counterpartyChannelId",
          "type": "bytes32"
        },
        {
          "indexed": false,
          "internalType": "string[]",
          "name": "connectionHops",
          "type": "string[]"
        }
      ],
      "name": "ConnectIbcChannel",
      "type": "event"
    },
    {
      "anonymous": false,
      "inputs": [
        {
          "indexed": true,
          "internalType": "bytes32",
          "name": "srcChannelId",
          "type": "bytes32"
        },
        {
          "indexed": false,
          "internalType": "string",
          "name": "srcPortId",
          "type": "string"
        },
        {
          "indexed": true,
          "internalType": "bytes32",
          "name": "destChannelId",
          "type": "bytes32"
        },
        {
          "indexed": false,
          "internalType": "string",
          "name": "destPortId",
          "type": "string"
        },
        {
          "indexed": false,
          "internalType": "bytes",
          "name": "data",
          "type": "bytes"
        },
        {
          "indexed": false,
          "internalType": "uint64",
          "name": "sequence",
          "type": "uint64"
        }
      ],
      "name": "OnRecvPacket",
      "type": "event"
    },
    {
      "anonymous": false,
      "inputs": [
        {
          "indexed": true,
          "internalType": "address",
          "name": "portAddress",
          "type": "address"
        },
        {
          "indexed": true,
          "internalType": "bytes32",
          "name": "counterpartyChannelId",
          "type": "bytes32"
        },
        {
          "indexed": false,
          "internalType": "bytes32",
          "name": "version",
          "type": "bytes32"
        },
        {
          "indexed": false,
          "internalType": "enum ChannelOrder",
          "name": "ordering",
          "type": "uint8"
        },
        {
          "indexed": false,
          "internalType": "string[]",
          "name": "connectionHops",
          "type": "string[]"
        },
        {
          "indexed": false,
          "internalType": "string",
          "name": "counterpartyPortId",
          "type": "string"
        },
        {
          "indexed": false,
          "internalType": "bytes32",
          "name": "counterpartyVersion",
          "type": "bytes32"
        }
      ],
      "name": "OpenIbcChannel",
      "type": "event"
    },
    {
      "anonymous": false,
      "inputs": [
        {
          "indexed": true,
          "internalType": "address",
          "name": "previousOwner",
          "type": "address"
        },
        {
          "indexed": true,
          "internalType": "address",
          "name": "newOwner",
          "type": "address"
        }
      ],
      "name": "OwnershipTransferred",
      "type": "event"
    },
    {
      "anonymous": false,
      "inputs": [
        {
          "indexed": true,
          "internalType": "address",
          "name": "sourcePortAddress",
          "type": "address"
        },
        {
          "indexed": true,
          "internalType": "bytes32",
          "name": "sourceChannelId",
          "type": "bytes32"
        },
        {
          "indexed": false,
          "internalType": "bytes",
          "name": "packet",
          "type": "bytes"
        },
        {
          "indexed": false,
          "internalType": "uint64",
          "name": "sequence",
          "type": "uint64"
        },
        {
          "indexed": false,
          "internalType": "uint64",
          "name": "timeoutTimestamp",
          "type": "uint64"
        },
        {
          "indexed": false,
          "internalType": "uint256",
          "name": "fee",
          "type": "uint256"
        }
      ],
      "name": "SendPacket",
      "type": "event"
    },
    {
      "inputs": [
        {
          "internalType": "bytes32",
          "name": "channelId",
          "type": "bytes32"
        }
      ],
      "name": "closeIbcChannel",
      "outputs": [],
      "stateMutability": "nonpayable",
      "type": "function"
    },
    {
      "inputs": [
        {
          "internalType": "contract IbcReceiver",
          "name": "portAddress",
          "type": "address"
        },
        {
          "internalType": "bytes32",
          "name": "channelId",
          "type": "bytes32"
        },
        {
          "internalType": "string[]",
          "name": "connectionHops",
          "type": "string[]"
        },
        {
          "internalType": "enum ChannelOrder",
          "name": "ordering",
          "type": "uint8"
        },
        {
          "internalType": "string",
          "name": "counterpartyPortId",
          "type": "string"
        },
        {
          "internalType": "bytes32",
          "name": "counterpartyChannelId",
          "type": "bytes32"
        },
        {
          "internalType": "bytes32",
          "name": "counterpartyVersion",
          "type": "bytes32"
        },
        {
          "components": [
            {
              "internalType": "uint64",
              "name": "proofHeight",
              "type": "uint64"
            },
            {
              "internalType": "bytes",
              "name": "proof",
              "type": "bytes"
            }
          ],
          "internalType": "struct Proof",
          "name": "proof",
          "type": "tuple"
        }
      ],
      "name": "connectIbcChannel",
      "outputs": [],
      "stateMutability": "nonpayable",
      "type": "function"
    },
    {
      "inputs": [
        {
          "components": [
            {
              "internalType": "bytes",
              "name": "clientState",
              "type": "bytes"
            },
            {
              "internalType": "bytes",
              "name": "consensusState",
              "type": "bytes"
            }
          ],
          "internalType": "struct InitClientMsg",
          "name": "initClientMsg",
          "type": "tuple"
        }
      ],
      "name": "createClient",
      "outputs": [],
      "stateMutability": "nonpayable",
      "type": "function"
    },
    {
      "inputs": [
        {
          "internalType": "address",
          "name": "portAddress",
          "type": "address"
        },
        {
          "internalType": "bytes32",
          "name": "channelId",
          "type": "bytes32"
        }
      ],
      "name": "getChannel",
      "outputs": [
        {
          "components": [
            {
              "internalType": "bytes32",
              "name": "version",
              "type": "bytes32"
            },
            {
              "internalType": "enum ChannelOrder",
              "name": "ordering",
              "type": "uint8"
            },
            {
              "internalType": "string[]",
              "name": "connectionHops",
              "type": "string[]"
            },
            {
              "internalType": "string",
              "name": "counterpartyPortId",
              "type": "string"
            },
            {
              "internalType": "bytes32",
              "name": "counterpartyChannelId",
              "type": "bytes32"
            }
          ],
          "internalType": "struct Channel",
          "name": "",
          "type": "tuple"
        }
      ],
      "stateMutability": "view",
      "type": "function"
    },
    {
      "inputs": [],
      "name": "latestConsensusState",
      "outputs": [
        {
          "internalType": "bytes",
          "name": "",
          "type": "bytes"
        }
      ],
      "stateMutability": "view",
      "type": "function"
    },
    {
      "inputs": [
        {
          "internalType": "contract IbcReceiver",
          "name": "receiver",
          "type": "address"
        },
        {
          "components": [
            {
              "components": [
                {
                  "internalType": "string",
                  "name": "portId",
                  "type": "string"
                },
                {
                  "internalType": "bytes32",
                  "name": "channelId",
                  "type": "bytes32"
                }
              ],
              "internalType": "struct IbcEndpoint",
              "name": "src",
              "type": "tuple"
            },
            {
              "components": [
                {
                  "internalType": "string",
                  "name": "portId",
                  "type": "string"
                },
                {
                  "internalType": "bytes32",
                  "name": "channelId",
                  "type": "bytes32"
                }
              ],
              "internalType": "struct IbcEndpoint",
              "name": "dest",
              "type": "tuple"
            },
            {
              "internalType": "uint64",
              "name": "sequence",
              "type": "uint64"
            },
            {
              "internalType": "bytes",
              "name": "data",
              "type": "bytes"
            },
            {
              "components": [
                {
                  "internalType": "uint64",
                  "name": "block",
                  "type": "uint64"
                },
                {
                  "internalType": "uint64",
                  "name": "timestamp",
                  "type": "uint64"
                }
              ],
              "internalType": "struct IbcTimeout",
              "name": "timeout",
              "type": "tuple"
            }
          ],
          "internalType": "struct IbcPacket",
          "name": "packet",
          "type": "tuple"
        },
        {
          "internalType": "bytes",
          "name": "acknowledgement",
          "type": "bytes"
        },
        {
          "components": [
            {
              "internalType": "uint64",
              "name": "proofHeight",
              "type": "uint64"
            },
            {
              "internalType": "bytes",
              "name": "proof",
              "type": "bytes"
            }
          ],
          "internalType": "struct Proof",
          "name": "proof",
          "type": "tuple"
        }
      ],
      "name": "onAcknowledgementPacket",
      "outputs": [],
      "stateMutability": "nonpayable",
      "type": "function"
    },
    {
      "inputs": [
        {
          "internalType": "address",
          "name": "portAddress",
          "type": "address"
        },
        {
          "internalType": "bytes32",
          "name": "channelId",
          "type": "bytes32"
        },
        {
          "components": [
            {
              "internalType": "uint64",
              "name": "proofHeight",
              "type": "uint64"
            },
            {
              "internalType": "bytes",
              "name": "proof",
              "type": "bytes"
            }
          ],
          "internalType": "struct Proof",
          "name": "proof",
          "type": "tuple"
        }
      ],
      "name": "onCloseIbcChannel",
      "outputs": [],
      "stateMutability": "nonpayable",
      "type": "function"
    },
    {
      "inputs": [
        {
          "internalType": "contract IbcReceiver",
          "name": "receiver",
          "type": "address"
        },
        {
          "components": [
            {
              "components": [
                {
                  "internalType": "string",
                  "name": "portId",
                  "type": "string"
                },
                {
                  "internalType": "bytes32",
                  "name": "channelId",
                  "type": "bytes32"
                }
              ],
              "internalType": "struct IbcEndpoint",
              "name": "src",
              "type": "tuple"
            },
            {
              "components": [
                {
                  "internalType": "string",
                  "name": "portId",
                  "type": "string"
                },
                {
                  "internalType": "bytes32",
                  "name": "channelId",
                  "type": "bytes32"
                }
              ],
              "internalType": "struct IbcEndpoint",
              "name": "dest",
              "type": "tuple"
            },
            {
              "internalType": "uint64",
              "name": "sequence",
              "type": "uint64"
            },
            {
              "internalType": "bytes",
              "name": "data",
              "type": "bytes"
            },
            {
              "components": [
                {
                  "internalType": "uint64",
                  "name": "block",
                  "type": "uint64"
                },
                {
                  "internalType": "uint64",
                  "name": "timestamp",
                  "type": "uint64"
                }
              ],
              "internalType": "struct IbcTimeout",
              "name": "timeout",
              "type": "tuple"
            }
          ],
          "internalType": "struct IbcPacket",
          "name": "packet",
          "type": "tuple"
        },
        {
          "components": [
            {
              "internalType": "uint64",
              "name": "proofHeight",
              "type": "uint64"
            },
            {
              "internalType": "bytes",
              "name": "proof",
              "type": "bytes"
            }
          ],
          "internalType": "struct Proof",
          "name": "proof",
          "type": "tuple"
        }
      ],
      "name": "onRecvPacket",
      "outputs": [],
      "stateMutability": "nonpayable",
      "type": "function"
    },
    {
      "inputs": [
        {
          "internalType": "contract IbcReceiver",
          "name": "receiver",
          "type": "address"
        },
        {
          "components": [
            {
              "components": [
                {
                  "internalType": "string",
                  "name": "portId",
                  "type": "string"
                },
                {
                  "internalType": "bytes32",
                  "name": "channelId",
                  "type": "bytes32"
                }
              ],
              "internalType": "struct IbcEndpoint",
              "name": "src",
              "type": "tuple"
            },
            {
              "components": [
                {
                  "internalType": "string",
                  "name": "portId",
                  "type": "string"
                },
                {
                  "internalType": "bytes32",
                  "name": "channelId",
                  "type": "bytes32"
                }
              ],
              "internalType": "struct IbcEndpoint",
              "name": "dest",
              "type": "tuple"
            },
            {
              "internalType": "uint64",
              "name": "sequence",
              "type": "uint64"
            },
            {
              "internalType": "bytes",
              "name": "data",
              "type": "bytes"
            },
            {
              "components": [
                {
                  "internalType": "uint64",
                  "name": "block",
                  "type": "uint64"
                },
                {
                  "internalType": "uint64",
                  "name": "timestamp",
                  "type": "uint64"
                }
              ],
              "internalType": "struct IbcTimeout",
              "name": "timeout",
              "type": "tuple"
            }
          ],
          "internalType": "struct IbcPacket",
          "name": "packet",
          "type": "tuple"
        },
        {
          "components": [
            {
              "internalType": "uint64",
              "name": "proofHeight",
              "type": "uint64"
            },
            {
              "internalType": "bytes",
              "name": "proof",
              "type": "bytes"
            }
          ],
          "internalType": "struct Proof",
          "name": "proof",
          "type": "tuple"
        }
      ],
      "name": "onTimeoutPacket",
      "outputs": [],
      "stateMutability": "nonpayable",
      "type": "function"
    },
    {
      "inputs": [
        {
          "internalType": "contract IbcReceiver",
          "name": "portAddress",
          "type": "address"
        },
        {
          "internalType": "bytes32",
          "name": "version",
          "type": "bytes32"
        },
        {
          "internalType": "enum ChannelOrder",
          "name": "ordering",
          "type": "uint8"
        },
        {
          "internalType": "string[]",
          "name": "connectionHops",
          "type": "string[]"
        },
        {
          "internalType": "bytes32",
          "name": "counterpartyChannelId",
          "type": "bytes32"
        },
        {
          "internalType": "string",
          "name": "counterpartyPortId",
          "type": "string"
        },
        {
          "internalType": "bytes32",
          "name": "counterpartyVersion",
          "type": "bytes32"
        }
      ],
      "name": "openIbcChannel",
      "outputs": [],
      "stateMutability": "nonpayable",
      "type": "function"
    },
    {
      "inputs": [],
      "name": "owner",
      "outputs": [
        {
          "internalType": "address",
          "name": "",
          "type": "address"
        }
      ],
      "stateMutability": "view",
      "type": "function"
    },
    {
      "inputs": [
        {
          "internalType": "address",
          "name": "",
          "type": "address"
        },
        {
          "internalType": "bytes32",
          "name": "",
          "type": "bytes32"
        }
      ],
      "name": "portChannelMap",
      "outputs": [
        {
          "internalType": "bytes32",
          "name": "version",
          "type": "bytes32"
        },
        {
          "internalType": "enum ChannelOrder",
          "name": "ordering",
          "type": "uint8"
        },
        {
          "internalType": "string",
          "name": "counterpartyPortId",
          "type": "string"
        },
        {
          "internalType": "bytes32",
          "name": "counterpartyChannelId",
          "type": "bytes32"
        }
      ],
      "stateMutability": "view",
      "type": "function"
    },
    {
      "inputs": [],
      "name": "renounceOwnership",
      "outputs": [],
      "stateMutability": "nonpayable",
      "type": "function"
    },
    {
      "inputs": [
        {
          "internalType": "bytes32",
          "name": "channelId",
          "type": "bytes32"
        },
        {
          "internalType": "bytes",
          "name": "packet",
          "type": "bytes"
        },
        {
          "internalType": "uint64",
          "name": "timeoutTimestamp",
          "type": "uint64"
        },
        {
          "internalType": "uint256",
          "name": "fee",
          "type": "uint256"
        }
      ],
      "name": "sendPacket",
      "outputs": [],
      "stateMutability": "payable",
      "type": "function"
    },
    {
      "inputs": [
        {
          "internalType": "address",
          "name": "newOwner",
          "type": "address"
        }
      ],
      "name": "transferOwnership",
      "outputs": [],
      "stateMutability": "nonpayable",
      "type": "function"
    },
    {
      "inputs": [
        {
          "components": [
            {
              "internalType": "bytes",
              "name": "consensusState",
              "type": "bytes"
            },
            {
              "internalType": "uint64",
              "name": "height",
              "type": "uint64"
            },
            {
              "internalType": "bytes",
              "name": "zkProof",
              "type": "bytes"
            }
          ],
          "internalType": "struct UpdateClientMsg",
          "name": "updateClientMsg",
          "type": "tuple"
        }
      ],
      "name": "updateClient",
      "outputs": [],
      "stateMutability": "nonpayable",
      "type": "function"
    },
    {
      "inputs": [
        {
          "components": [
            {
              "internalType": "bytes",
              "name": "clientState",
              "type": "bytes"
            },
            {
              "internalType": "bytes",
              "name": "consensusState",
              "type": "bytes"
            }
          ],
          "internalType": "struct UpgradeClientMsg",
          "name": "upgradeClientMsg",
          "type": "tuple"
        }
      ],
      "name": "upgradeClient",
      "outputs": [],
      "stateMutability": "nonpayable",
      "type": "function"
    }
  ],
  "bytecode": "0x60806040526000600260146101000a81548160ff0219169083151502179055506000600460006101000a81548167ffffffffffffffff021916908367ffffffffffffffff1602179055503480156200005657600080fd5b50604051620046e2380380620046e283398181016040528101906200007c91906200034a565b6200009c62000090620001bb60201b60201c565b620001c360201b60201c565b81600160006101000a81548173ffffffffffffffffffffffffffffffffffffffff021916908373ffffffffffffffffffffffffffffffffffffffff16021790555080600260006101000a81548173ffffffffffffffffffffffffffffffffffffffff021916908373ffffffffffffffffffffffffffffffffffffffff160217905550600073ffffffffffffffffffffffffffffffffffffffff16600260009054906101000a900473ffffffffffffffffffffffffffffffffffffffff1673ffffffffffffffffffffffffffffffffffffffff161415620001b3576040517f08c379a0000000000000000000000000000000000000000000000000000000008152600401620001aa90620003f2565b60405180910390fd5b505062000414565b600033905090565b60008060009054906101000a900473ffffffffffffffffffffffffffffffffffffffff169050816000806101000a81548173ffffffffffffffffffffffffffffffffffffffff021916908373ffffffffffffffffffffffffffffffffffffffff1602179055508173ffffffffffffffffffffffffffffffffffffffff168173ffffffffffffffffffffffffffffffffffffffff167f8be0079c531659141344cd1fd0a4f28419497f9722a3daafe3b4186f6b6457e060405160405180910390a35050565b600080fd5b600073ffffffffffffffffffffffffffffffffffffffff82169050919050565b6000620002b9826200028c565b9050919050565b6000620002cd82620002ac565b9050919050565b620002df81620002c0565b8114620002eb57600080fd5b50565b600081519050620002ff81620002d4565b92915050565b600062000312826200028c565b9050919050565b620003248162000305565b81146200033057600080fd5b50565b600081519050620003448162000319565b92915050565b6000806040838503121562000364576200036362000287565b5b60006200037485828601620002ee565b9250506020620003878582860162000333565b9150509250929050565b600082825260208201905092915050565b7f457363726f772063616e6e6f74206265207a65726f2061646472657373000000600082015250565b6000620003da601d8362000391565b9150620003e782620003a2565b602082019050919050565b600060208201905081810360008301526200040d81620003cb565b9050919050565b6142be80620004246000396000f3fe6080604052600436106100fe5760003560e01c8063715018a611610095578063951538f311610064578063951538f3146102e6578063b2b1bf031461030f578063c2a2514d1461034f578063d2e9aa561461037a578063f2fde38b146103a3576100fe565b8063715018a61461025f5780638b24b4cb146102765780638d3d5aa91461029f5780638da5cb5b146102bb576100fe565b80634c9778d3116100d15780634c9778d3146101bb5780634efde434146101e457806364260a601461020d5780636787464914610236576100fe565b80630ad8d666146101035780631f456c1e1461012c57806342852d2414610155578063487fca7e14610192575b600080fd5b34801561010f57600080fd5b5061012a60048036038101906101259190612343565b6103cc565b005b34801561013857600080fd5b50610153600480360381019061014e91906124e4565b6104de565b005b34801561016157600080fd5b5061017c600480360381019061017791906125f2565b6105e2565b6040516101899190612890565b60405180910390f35b34801561019e57600080fd5b506101b960048036038101906101b491906128d1565b610807565b005b3480156101c757600080fd5b506101e260048036038101906101dd919061291a565b61089d565b005b3480156101f057600080fd5b5061020b60048036038101906102069190612a4c565b610bcf565b005b34801561021957600080fd5b50610234600480360381019061022f9190612343565b610c49565b005b34801561024257600080fd5b5061025d60048036038101906102589190612ab4565b610d01565b005b34801561026b57600080fd5b50610274610e60565b005b34801561028257600080fd5b5061029d60048036038101906102989190612afd565b610e74565b005b6102b960048036038101906102b49190612bf6565b61119c565b005b3480156102c757600080fd5b506102d06116a8565b6040516102dd9190612c8d565b60405180910390f35b3480156102f257600080fd5b5061030d60048036038101906103089190612ca8565b6116d1565b005b34801561031b57600080fd5b50610336600480360381019061033191906125f2565b611b99565b6040516103469493929190612d7f565b60405180910390f35b34801561035b57600080fd5b50610364611c6b565b6040516103719190612e20565b60405180910390f35b34801561038657600080fd5b506103a1600480360381019061039c9190612e42565b611cf9565b005b3480156103af57600080fd5b506103ca60048036038101906103c59190612f02565b611e2b565b005b6103d581611eaf565b610414576040517f08c379a000000000000000000000000000000000000000000000000000000000815260040161040b90612f7b565b60405180910390fd5b8180602001906104249190612faa565b602001358280600001906104389190612faa565b602001357f080631928e492258b6a102fc2ab3e0a8dfcb747ab0885c25f9cb7a8d4862103684806000019061046d9190612faa565b806000019061047c9190612fd2565b86806020019061048c9190612faa565b806000019061049b9190612fd2565b8880606001906104ab9190613035565b8a60400160208101906104be9190613098565b6040516104d1979695949392919061313d565b60405180910390a3505050565b60008973ffffffffffffffffffffffffffffffffffffffff1663486592198a8a8a8a8a8a8a8a6040518963ffffffff1660e01b81526004016105279897969594939291906132f0565b602060405180830381600087803b15801561054157600080fd5b505af1158015610555573d6000803e3d6000fd5b505050506040513d601f19601f820116820180604052508101906105799190613378565b9050848a73ffffffffffffffffffffffffffffffffffffffff167f9a93c124e7f0aa93d3fbe660b1366e0483b4267619924382261498efbb92c873838b8b8b8a8a8a6040516105ce97969594939291906133a5565b60405180910390a350505050505050505050565b6105ea612027565b600560008473ffffffffffffffffffffffffffffffffffffffff1673ffffffffffffffffffffffffffffffffffffffff16815260200190815260200160002060008381526020019081526020016000206040518060a0016040529081600082015481526020016001820160009054906101000a900460ff16600181111561067457610673612641565b5b600181111561068657610685612641565b5b815260200160028201805480602002602001604051908101604052809291908181526020016000905b8282101561075b5783829060005260206000200180546106ce90613439565b80601f01602080910402602001604051908101604052809291908181526020018280546106fa90613439565b80156107475780601f1061071c57610100808354040283529160200191610747565b820191906000526020600020905b81548152906001019060200180831161072a57829003601f168201915b5050505050815260200190600101906106af565b50505050815260200160038201805461077390613439565b80601f016020809104026020016040519081016040528092919081815260200182805461079f90613439565b80156107ec5780601f106107c1576101008083540402835291602001916107ec565b820191906000526020600020905b8154815290600101906020018083116107cf57829003601f168201915b50505050508152602001600482015481525050905092915050565b61080f611edd565b600260149054906101000a900460ff161561085f576040517f08c379a0000000000000000000000000000000000000000000000000000000008152600401610856906134b7565b60405180910390fd5b6001600260146101000a81548160ff02191690831515021790555080806020019061088a9190613035565b6003919061089992919061206e565b5050565b600160009054906101000a900473ffffffffffffffffffffffffffffffffffffffff1673ffffffffffffffffffffffffffffffffffffffff16639511059d6003836040518060800160405280605e81526020016141d8605e91396040518463ffffffff1660e01b8152600401610915939291906136ce565b60206040518083038186803b15801561092d57600080fd5b505afa158015610941573d6000803e3d6000fd5b505050506040513d601f19601f820116820180604052508101906109659190613765565b6109a4576040517f08c379a000000000000000000000000000000000000000000000000000000000815260040161099b906137de565b60405180910390fd5b8973ffffffffffffffffffffffffffffffffffffffff1663e60a72938a85856040518463ffffffff1660e01b81526004016109e1939291906137fe565b600060405180830381600087803b1580156109fb57600080fd5b505af1158015610a0f573d6000803e3d6000fd5b505050506040518060a00160405280838152602001876001811115610a3757610a36612641565b5b8152602001898990610a499190613a09565b815260200186868080601f016020809104026020016040519081016040528093929190818152602001838380828437600081840152601f19601f82011690508083019250505050505050815260200184815250600560008c73ffffffffffffffffffffffffffffffffffffffff1673ffffffffffffffffffffffffffffffffffffffff16815260200190815260200160002060008b81526020019081526020016000206000820151816000015560208201518160010160006101000a81548160ff02191690836001811115610b2157610b20612641565b5b02179055506040820151816002019080519060200190610b429291906120f4565b506060820151816003019080519060200190610b5f929190612154565b506080820151816004015590505082898b73ffffffffffffffffffffffffffffffffffffffff167f57ea540ad7b8bfd2813b8637764ba029fedc52de3f812934a46511506aa11b8e88888d8d604051610bbb9493929190613a1e565b60405180910390a450505050505050505050565b610bd7611edd565b600260149054906101000a900460ff16610c26576040517f08c379a0000000000000000000000000000000000000000000000000000000008152600401610c1d90613aa5565b60405180910390fd5b808060200190610c369190613035565b60039190610c4592919061206e565b5050565b610c5281611eaf565b610c91576040517f08c379a0000000000000000000000000000000000000000000000000000000008152600401610c8890612f7b565b60405180910390fd5b8273ffffffffffffffffffffffffffffffffffffffff1663b33c2577836040518263ffffffff1660e01b8152600401610cca9190613c4b565b600060405180830381600087803b158015610ce457600080fd5b505af1158015610cf8573d6000803e3d6000fd5b50505050505050565b600260149054906101000a900460ff16610d50576040517f08c379a0000000000000000000000000000000000000000000000000000000008152600401610d4790613aa5565b60405180910390fd5b600160009054906101000a900473ffffffffffffffffffffffffffffffffffffffff1673ffffffffffffffffffffffffffffffffffffffff1663ab5eba266003836040518363ffffffff1660e01b8152600401610dae929190613ce0565b60206040518083038186803b158015610dc657600080fd5b505afa158015610dda573d6000803e3d6000fd5b505050506040513d601f19601f82011682018060405250810190610dfe9190613765565b610e3d576040517f08c379a0000000000000000000000000000000000000000000000000000000008152600401610e3490613d89565b60405180910390fd5b808060000190610e4d9190613035565b60039190610e5c92919061206e565b5050565b610e68611edd565b610e726000611f5b565b565b6000600560003373ffffffffffffffffffffffffffffffffffffffff1673ffffffffffffffffffffffffffffffffffffffff16815260200190815260200160002060008381526020019081526020016000206040518060a0016040529081600082015481526020016001820160009054906101000a900460ff166001811115610f0057610eff612641565b5b6001811115610f1257610f11612641565b5b815260200160028201805480602002602001604051908101604052809291908181526020016000905b82821015610fe7578382906000526020600020018054610f5a90613439565b80601f0160208091040260200160405190810160405280929190818152602001828054610f8690613439565b8015610fd35780601f10610fa857610100808354040283529160200191610fd3565b820191906000526020600020905b815481529060010190602001808311610fb657829003601f168201915b505050505081526020019060010190610f3b565b505050508152602001600382018054610fff90613439565b80601f016020809104026020016040519081016040528092919081815260200182805461102b90613439565b80156110785780601f1061104d57610100808354040283529160200191611078565b820191906000526020600020905b81548152906001019060200180831161105b57829003601f168201915b5050505050815260200160048201548152505090506000801b816080015114156110d7576040517f08c379a00000000000000000000000000000000000000000000000000000000081526004016110ce90613df5565b60405180910390fd5b60003390508073ffffffffffffffffffffffffffffffffffffffff16635fe39e0d84846060015185608001516040518463ffffffff1660e01b815260040161112193929190613e15565b600060405180830381600087803b15801561113b57600080fd5b505af115801561114f573d6000803e3d6000fd5b50505050823373ffffffffffffffffffffffffffffffffffffffff167fe893e4ba0e364cdc96364b1e1e0d53b0d91e5fd6aa0ee9d81a17ecd61178bf1760405160405180910390a3505050565b6000600560003373ffffffffffffffffffffffffffffffffffffffff1673ffffffffffffffffffffffffffffffffffffffff16815260200190815260200160002060008781526020019081526020016000206040518060a0016040529081600082015481526020016001820160009054906101000a900460ff16600181111561122857611227612641565b5b600181111561123a57611239612641565b5b815260200160028201805480602002602001604051908101604052809291908181526020016000905b8282101561130f57838290600052602060002001805461128290613439565b80601f01602080910402602001604051908101604052809291908181526020018280546112ae90613439565b80156112fb5780601f106112d0576101008083540402835291602001916112fb565b820191906000526020600020905b8154815290600101906020018083116112de57829003601f168201915b505050505081526020019060010190611263565b50505050815260200160038201805461132790613439565b80601f016020809104026020016040519081016040528092919081815260200182805461135390613439565b80156113a05780601f10611375576101008083540402835291602001916113a0565b820191906000526020600020905b81548152906001019060200180831161138357829003601f168201915b5050505050815260200160048201548152505090506000801b816080015114156113ff576040517f08c379a00000000000000000000000000000000000000000000000000000000081526004016113f690613e9f565b60405180910390fd5b6000600260009054906101000a900473ffffffffffffffffffffffffffffffffffffffff1673ffffffffffffffffffffffffffffffffffffffff168360405161144790613ef0565b60006040518083038185875af1925050503d8060008114611484576040519150601f19603f3d011682016040523d82523d6000602084013e611489565b606091505b50509050806114cd576040517f08c379a00000000000000000000000000000000000000000000000000000000081526004016114c490613f51565b60405180910390fd5b6000600660003373ffffffffffffffffffffffffffffffffffffffff1673ffffffffffffffffffffffffffffffffffffffff168152602001908152602001600020600089815260200190815260200160002060009054906101000a900467ffffffffffffffff1690506001816115439190613fa0565b600660003373ffffffffffffffffffffffffffffffffffffffff1673ffffffffffffffffffffffffffffffffffffffff16815260200190815260200160002060008a815260200190815260200160002060006101000a81548167ffffffffffffffff021916908367ffffffffffffffff1602179055506001600760003373ffffffffffffffffffffffffffffffffffffffff1673ffffffffffffffffffffffffffffffffffffffff16815260200190815260200160002060008a815260200190815260200160002060008367ffffffffffffffff1667ffffffffffffffff16815260200190815260200160002060006101000a81548160ff021916908315150217905550873373ffffffffffffffffffffffffffffffffffffffff167fc55a6c1340ca55a6b61de30037455a7f9f4a5b8ff106e4eaa0c23ea886fa03608989858a8a604051611696959493929190613fed565b60405180910390a35050505050505050565b60008060009054906101000a900473ffffffffffffffffffffffffffffffffffffffff16905090565b600160009054906101000a900473ffffffffffffffffffffffffffffffffffffffff1673ffffffffffffffffffffffffffffffffffffffff16639511059d600383604051806080016040528060538152602001614236605391396040518463ffffffff1660e01b8152600401611749939291906136ce565b60206040518083038186803b15801561176157600080fd5b505afa158015611775573d6000803e3d6000fd5b505050506040513d601f19601f820116820180604052508101906117999190613765565b6117d8576040517f08c379a00000000000000000000000000000000000000000000000000000000081526004016117cf906137de565b60405180910390fd5b6000600560008573ffffffffffffffffffffffffffffffffffffffff1673ffffffffffffffffffffffffffffffffffffffff16815260200190815260200160002060008481526020019081526020016000206040518060a0016040529081600082015481526020016001820160009054906101000a900460ff16600181111561186457611863612641565b5b600181111561187657611875612641565b5b815260200160028201805480602002602001604051908101604052809291908181526020016000905b8282101561194b5783829060005260206000200180546118be90613439565b80601f01602080910402602001604051908101604052809291908181526020018280546118ea90613439565b80156119375780601f1061190c57610100808354040283529160200191611937565b820191906000526020600020905b81548152906001019060200180831161191a57829003601f168201915b50505050508152602001906001019061189f565b50505050815260200160038201805461196390613439565b80601f016020809104026020016040519081016040528092919081815260200182805461198f90613439565b80156119dc5780601f106119b1576101008083540402835291602001916119dc565b820191906000526020600020905b8154815290600101906020018083116119bf57829003601f168201915b5050505050815260200160048201548152505090506000801b81608001511415611a3b576040517f08c379a0000000000000000000000000000000000000000000000000000000008152600401611a3290614087565b60405180910390fd5b60008490508073ffffffffffffffffffffffffffffffffffffffff16635fe39e0d85846060015185608001516040518463ffffffff1660e01b8152600401611a8593929190613e15565b600060405180830381600087803b158015611a9f57600080fd5b505af1158015611ab3573d6000803e3d6000fd5b50505050600560008673ffffffffffffffffffffffffffffffffffffffff1673ffffffffffffffffffffffffffffffffffffffff16815260200190815260200160002060008581526020019081526020016000206000808201600090556001820160006101000a81549060ff0219169055600282016000611b3491906121da565b600382016000611b4491906121fb565b60048201600090555050838573ffffffffffffffffffffffffffffffffffffffff167fe893e4ba0e364cdc96364b1e1e0d53b0d91e5fd6aa0ee9d81a17ecd61178bf1760405160405180910390a35050505050565b6005602052816000526040600020602052806000526040600020600091509150508060000154908060010160009054906101000a900460ff1690806003018054611be290613439565b80601f0160208091040260200160405190810160405280929190818152602001828054611c0e90613439565b8015611c5b5780601f10611c3057610100808354040283529160200191611c5b565b820191906000526020600020905b815481529060010190602001808311611c3e57829003601f168201915b5050505050908060040154905084565b60038054611c7890613439565b80601f0160208091040260200160405190810160405280929190818152602001828054611ca490613439565b8015611cf15780601f10611cc657610100808354040283529160200191611cf1565b820191906000526020600020905b815481529060010190602001808311611cd457829003601f168201915b505050505081565b611d0281611eaf565b611d41576040517f08c379a0000000000000000000000000000000000000000000000000000000008152600401611d3890612f7b565b60405180910390fd5b8473ffffffffffffffffffffffffffffffffffffffff1663f45cf5e4856040518263ffffffff1660e01b8152600401611d7a9190613c4b565b600060405180830381600087803b158015611d9457600080fd5b505af1158015611da8573d6000803e3d6000fd5b50505050838060000190611dbc9190612faa565b602001358573ffffffffffffffffffffffffffffffffffffffff167f2200d57beee43012979c8117df494fc02516ea0a24509b99be3b586c773ba2d08585886040016020810190611e0d9190613098565b604051611e1c939291906140a7565b60405180910390a35050505050565b611e33611edd565b600073ffffffffffffffffffffffffffffffffffffffff168173ffffffffffffffffffffffffffffffffffffffff161415611ea3576040517f08c379a0000000000000000000000000000000000000000000000000000000008152600401611e9a9061414b565b60405180910390fd5b611eac81611f5b565b50565b600080828060200190611ec29190613035565b90501415611ed35760009050611ed8565b600190505b919050565b611ee561201f565b73ffffffffffffffffffffffffffffffffffffffff16611f036116a8565b73ffffffffffffffffffffffffffffffffffffffff1614611f59576040517f08c379a0000000000000000000000000000000000000000000000000000000008152600401611f50906141b7565b60405180910390fd5b565b60008060009054906101000a900473ffffffffffffffffffffffffffffffffffffffff169050816000806101000a81548173ffffffffffffffffffffffffffffffffffffffff021916908373ffffffffffffffffffffffffffffffffffffffff1602179055508173ffffffffffffffffffffffffffffffffffffffff168173ffffffffffffffffffffffffffffffffffffffff167f8be0079c531659141344cd1fd0a4f28419497f9722a3daafe3b4186f6b6457e060405160405180910390a35050565b600033905090565b6040518060a0016040528060008019168152602001600060018111156120505761204f612641565b5b81526020016060815260200160608152602001600080191681525090565b82805461207a90613439565b90600052602060002090601f01602090048101928261209c57600085556120e3565b82601f106120b557803560ff19168380011785556120e3565b828001600101855582156120e3579182015b828111156120e25782358255916020019190600101906120c7565b5b5090506120f0919061223b565b5090565b828054828255906000526020600020908101928215612143579160200282015b82811115612142578251829080519060200190612132929190612154565b5091602001919060010190612114565b5b5090506121509190612258565b5090565b82805461216090613439565b90600052602060002090601f01602090048101928261218257600085556121c9565b82601f1061219b57805160ff19168380011785556121c9565b828001600101855582156121c9579182015b828111156121c85782518255916020019190600101906121ad565b5b5090506121d6919061223b565b5090565b50805460008255906000526020600020908101906121f89190612258565b50565b50805461220790613439565b6000825580601f106122195750612238565b601f016020900490600052602060002090810190612237919061223b565b5b50565b5b8082111561225457600081600090555060010161223c565b5090565b5b80821115612278576000818161226f91906121fb565b50600101612259565b5090565b6000604051905090565b600080fd5b600080fd5b600073ffffffffffffffffffffffffffffffffffffffff82169050919050565b60006122bb82612290565b9050919050565b60006122cd826122b0565b9050919050565b6122dd816122c2565b81146122e857600080fd5b50565b6000813590506122fa816122d4565b92915050565b600080fd5b600060c0828403121561231b5761231a612300565b5b81905092915050565b60006040828403121561233a57612339612300565b5b81905092915050565b60008060006060848603121561235c5761235b612286565b5b600061236a868287016122eb565b935050602084013567ffffffffffffffff81111561238b5761238a61228b565b5b61239786828701612305565b925050604084013567ffffffffffffffff8111156123b8576123b761228b565b5b6123c486828701612324565b9150509250925092565b6000819050919050565b6123e1816123ce565b81146123ec57600080fd5b50565b6000813590506123fe816123d8565b92915050565b6002811061241157600080fd5b50565b60008135905061242381612404565b92915050565b600080fd5b600080fd5b600080fd5b60008083601f84011261244e5761244d612429565b5b8235905067ffffffffffffffff81111561246b5761246a61242e565b5b60208301915083602082028301111561248757612486612433565b5b9250929050565b60008083601f8401126124a4576124a3612429565b5b8235905067ffffffffffffffff8111156124c1576124c061242e565b5b6020830191508360018202830111156124dd576124dc612433565b5b9250929050565b600080600080600080600080600060e08a8c03121561250657612505612286565b5b60006125148c828d016122eb565b99505060206125258c828d016123ef565b98505060406125368c828d01612414565b97505060608a013567ffffffffffffffff8111156125575761255661228b565b5b6125638c828d01612438565b965096505060806125768c828d016123ef565b94505060a08a013567ffffffffffffffff8111156125975761259661228b565b5b6125a38c828d0161248e565b935093505060c06125b68c828d016123ef565b9150509295985092959850929598565b6125cf816122b0565b81146125da57600080fd5b50565b6000813590506125ec816125c6565b92915050565b6000806040838503121561260957612608612286565b5b6000612617858286016125dd565b9250506020612628858286016123ef565b9150509250929050565b61263b816123ce565b82525050565b7f4e487b7100000000000000000000000000000000000000000000000000000000600052602160045260246000fd5b6002811061268157612680612641565b5b50565b600081905061269282612670565b919050565b60006126a282612684565b9050919050565b6126b281612697565b82525050565b600081519050919050565b600082825260208201905092915050565b6000819050602082019050919050565b600081519050919050565b600082825260208201905092915050565b60005b8381101561271e578082015181840152602081019050612703565b8381111561272d576000848401525b50505050565b6000601f19601f8301169050919050565b600061274f826126e4565b61275981856126ef565b9350612769818560208601612700565b61277281612733565b840191505092915050565b60006127898383612744565b905092915050565b6000602082019050919050565b60006127a9826126b8565b6127b381856126c3565b9350836020820285016127c5856126d4565b8060005b8581101561280157848403895281516127e2858261277d565b94506127ed83612791565b925060208a019950506001810190506127c9565b50829750879550505050505092915050565b600060a08301600083015161282b6000860182612632565b50602083015161283e60208601826126a9565b5060408301518482036040860152612856828261279e565b915050606083015184820360608601526128708282612744565b91505060808301516128856080860182612632565b508091505092915050565b600060208201905081810360008301526128aa8184612813565b905092915050565b6000604082840312156128c8576128c7612300565b5b81905092915050565b6000602082840312156128e7576128e6612286565b5b600082013567ffffffffffffffff8111156129055761290461228b565b5b612911848285016128b2565b91505092915050565b6000806000806000806000806000806101008b8d03121561293e5761293d612286565b5b600061294c8d828e016122eb565b9a5050602061295d8d828e016123ef565b99505060408b013567ffffffffffffffff81111561297e5761297d61228b565b5b61298a8d828e01612438565b9850985050606061299d8d828e01612414565b96505060808b013567ffffffffffffffff8111156129be576129bd61228b565b5b6129ca8d828e0161248e565b955095505060a06129dd8d828e016123ef565b93505060c06129ee8d828e016123ef565b92505060e08b013567ffffffffffffffff811115612a0f57612a0e61228b565b5b612a1b8d828e01612324565b9150509295989b9194979a5092959850565b600060408284031215612a4357612a42612300565b5b81905092915050565b600060208284031215612a6257612a61612286565b5b600082013567ffffffffffffffff811115612a8057612a7f61228b565b5b612a8c84828501612a2d565b91505092915050565b600060608284031215612aab57612aaa612300565b5b81905092915050565b600060208284031215612aca57612ac9612286565b5b600082013567ffffffffffffffff811115612ae857612ae761228b565b5b612af484828501612a95565b91505092915050565b600060208284031215612b1357612b12612286565b5b6000612b21848285016123ef565b91505092915050565b60008083601f840112612b4057612b3f612429565b5b8235905067ffffffffffffffff811115612b5d57612b5c61242e565b5b602083019150836001820283011115612b7957612b78612433565b5b9250929050565b600067ffffffffffffffff82169050919050565b612b9d81612b80565b8114612ba857600080fd5b50565b600081359050612bba81612b94565b92915050565b6000819050919050565b612bd381612bc0565b8114612bde57600080fd5b50565b600081359050612bf081612bca565b92915050565b600080600080600060808688031215612c1257612c11612286565b5b6000612c20888289016123ef565b955050602086013567ffffffffffffffff811115612c4157612c4061228b565b5b612c4d88828901612b2a565b94509450506040612c6088828901612bab565b9250506060612c7188828901612be1565b9150509295509295909350565b612c87816122b0565b82525050565b6000602082019050612ca26000830184612c7e565b92915050565b600080600060608486031215612cc157612cc0612286565b5b6000612ccf868287016125dd565b9350506020612ce0868287016123ef565b925050604084013567ffffffffffffffff811115612d0157612d0061228b565b5b612d0d86828701612324565b9150509250925092565b612d20816123ce565b82525050565b612d2f81612697565b82525050565b600082825260208201905092915050565b6000612d51826126e4565b612d5b8185612d35565b9350612d6b818560208601612700565b612d7481612733565b840191505092915050565b6000608082019050612d946000830187612d17565b612da16020830186612d26565b8181036040830152612db38185612d46565b9050612dc26060830184612d17565b95945050505050565b600081519050919050565b600082825260208201905092915050565b6000612df282612dcb565b612dfc8185612dd6565b9350612e0c818560208601612700565b612e1581612733565b840191505092915050565b60006020820190508181036000830152612e3a8184612de7565b905092915050565b600080600080600060808688031215612e5e57612e5d612286565b5b6000612e6c888289016122eb565b955050602086013567ffffffffffffffff811115612e8d57612e8c61228b565b5b612e9988828901612305565b945050604086013567ffffffffffffffff811115612eba57612eb961228b565b5b612ec688828901612b2a565b9350935050606086013567ffffffffffffffff811115612ee957612ee861228b565b5b612ef588828901612324565b9150509295509295909350565b600060208284031215612f1857612f17612286565b5b6000612f26848285016125dd565b91505092915050565b7f50726f6f6620766572696669636174696f6e206661696c656400000000000000600082015250565b6000612f65601983612d35565b9150612f7082612f2f565b602082019050919050565b60006020820190508181036000830152612f9481612f58565b9050919050565b600080fd5b600080fd5b600080fd5b600082356001604003833603038112612fc657612fc5612f9b565b5b80830191505092915050565b60008083356001602003843603038112612fef57612fee612f9b565b5b80840192508235915067ffffffffffffffff82111561301157613010612fa0565b5b60208301925060018202360383131561302d5761302c612fa5565b5b509250929050565b6000808335600160200384360303811261305257613051612f9b565b5b80840192508235915067ffffffffffffffff82111561307457613073612fa0565b5b6020830192506001820236038313156130905761308f612fa5565b5b509250929050565b6000602082840312156130ae576130ad612286565b5b60006130bc84828501612bab565b91505092915050565b82818337600083830152505050565b60006130e08385612d35565b93506130ed8385846130c5565b6130f683612733565b840190509392505050565b600061310d8385612dd6565b935061311a8385846130c5565b61312383612733565b840190509392505050565b61313781612b80565b82525050565b6000608082019050818103600083015261315881898b6130d4565b9050818103602083015261316d8187896130d4565b90508181036040830152613182818587613101565b9050613191606083018461312e565b98975050505050505050565b600082825260208201905092915050565b6000819050919050565b60006131c483856126ef565b93506131d18385846130c5565b6131da83612733565b840190509392505050565b60006131f28484846131b8565b90509392505050565b600080fd5b600080fd5b600080fd5b6000808335600160200384360303811261322757613226613205565b5b83810192508235915060208301925067ffffffffffffffff82111561324f5761324e6131fb565b5b60018202360384131561326557613264613200565b5b509250929050565b6000602082019050919050565b6000613286838561319d565b935083602084028501613298846131ae565b8060005b878110156132de5784840389526132b3828461320a565b6132be8682846131e5565b95506132c98461326d565b935060208b019a50505060018101905061329c565b50829750879450505050509392505050565b600060c082019050613305600083018b612d17565b613312602083018a612d26565b818103604083015261332581888a61327a565b90506133346060830187612d17565b81810360808301526133478185876130d4565b905061335660a0830184612d17565b9998505050505050505050565b600081519050613372816123d8565b92915050565b60006020828403121561338e5761338d612286565b5b600061339c84828501613363565b91505092915050565b600060a0820190506133ba600083018a612d17565b6133c76020830189612d26565b81810360408301526133da81878961327a565b905081810360608301526133ef8185876130d4565b90506133fe6080830184612d17565b98975050505050505050565b7f4e487b7100000000000000000000000000000000000000000000000000000000600052602260045260246000fd5b6000600282049050600182168061345157607f821691505b602082108114156134655761346461340a565b5b50919050565b7f436c69656e7420616c7265616479206372656174656400000000000000000000600082015250565b60006134a1601683612d35565b91506134ac8261346b565b602082019050919050565b600060208201905081810360008301526134d081613494565b9050919050565b60008190508160005260206000209050919050565b600081546134f981613439565b6135038186612dd6565b9450600182166000811461351e576001811461353057613563565b60ff1983168652602086019350613563565b613539856134d7565b60005b8381101561355b5781548189015260018201915060208101905061353c565b808801955050505b50505092915050565b600061357b6020840184612bab565b905092915050565b61358c81612b80565b82525050565b600080833560016020038436030381126135af576135ae613205565b5b83810192508235915060208301925067ffffffffffffffff8211156135d7576135d66131fb565b5b6001820236038413156135ed576135ec613200565b5b509250929050565b600082825260208201905092915050565b600061361283856135f5565b935061361f8385846130c5565b61362883612733565b840190509392505050565b600060408301613646600084018461356c565b6136536000860182613583565b506136616020840184613592565b8583036020870152613674838284613606565b925050508091505092915050565b7f6368616e6e656c2f706174682f746f2f62652f61646465642f68657265000000600082015250565b60006136b8601d83612dd6565b91506136c382613682565b602082019050919050565b600060808201905081810360008301526136e881866134ec565b905081810360208301526136fc8185613633565b9050818103604083015261370f816136ab565b905081810360608301526137238184612de7565b9050949350505050565b60008115159050919050565b6137428161372d565b811461374d57600080fd5b50565b60008151905061375f81613739565b92915050565b60006020828403121561377b5761377a612286565b5b600061378984828501613750565b91505092915050565b7f4661696c20746f2070726f7665206368616e6e656c2073746174650000000000600082015250565b60006137c8601b83612d35565b91506137d382613792565b602082019050919050565b600060208201905081810360008301526137f7816137bb565b9050919050565b60006060820190506138136000830186612d17565b6138206020830185612d17565b61382d6040830184612d17565b949350505050565b7f4e487b7100000000000000000000000000000000000000000000000000000000600052604160045260246000fd5b61386d82612733565b810181811067ffffffffffffffff8211171561388c5761388b613835565b5b80604052505050565b600061389f61227c565b90506138ab8282613864565b919050565b600067ffffffffffffffff8211156138cb576138ca613835565b5b602082029050602081019050919050565b600080fd5b600067ffffffffffffffff8211156138fc576138fb613835565b5b61390582612733565b9050602081019050919050565b6000613925613920846138e1565b613895565b905082815260208101848484011115613941576139406138dc565b5b61394c8482856130c5565b509392505050565b600082601f83011261396957613968612429565b5b8135613979848260208601613912565b91505092915050565b6000613995613990846138b0565b613895565b905080838252602082019050602084028301858111156139b8576139b7612433565b5b835b818110156139ff57803567ffffffffffffffff8111156139dd576139dc612429565b5b8086016139ea8982613954565b855260208501945050506020810190506139ba565b5050509392505050565b6000613a16368484613982565b905092915050565b60006040820190508181036000830152613a398186886130d4565b90508181036020830152613a4e81848661327a565b905095945050505050565b7f436c69656e74206e6f7420637265617465640000000000000000000000000000600082015250565b6000613a8f601283612d35565b9150613a9a82613a59565b602082019050919050565b60006020820190508181036000830152613abe81613a82565b9050919050565b600082356001604003833603038112613ae157613ae0613205565b5b82810191505092915050565b6000613afc60208401846123ef565b905092915050565b600060408301613b17600084018461320a565b8583036000870152613b2a8382846131b8565b92505050613b3b6020840184613aed565b613b486020860182612632565b508091505092915050565b600082905092915050565b60408201613b6f600083018361356c565b613b7c6000850182613583565b50613b8a602083018361356c565b613b976020850182613583565b50505050565b600060c08301613bb06000840184613ac5565b8482036000860152613bc28282613b04565b915050613bd26020840184613ac5565b8482036020860152613be48282613b04565b915050613bf4604084018461356c565b613c016040860182613583565b50613c0f6060840184613592565b8583036060870152613c22838284613606565b92505050613c336080840184613b53565b613c406080860182613b5e565b508091505092915050565b60006020820190508181036000830152613c658184613b9d565b905092915050565b600060608301613c806000840184613592565b8583036000870152613c93838284613606565b92505050613ca4602084018461356c565b613cb16020860182613583565b50613cbf6040840184613592565b8583036040870152613cd2838284613606565b925050508091505092915050565b60006040820190508181036000830152613cfa81856134ec565b90508181036020830152613d0e8184613c6d565b90509392505050565b7f557064617465436c69656e744d73672070726f6f66207665726966696361746960008201527f6f6e206661696c65640000000000000000000000000000000000000000000000602082015250565b6000613d73602983612d35565b9150613d7e82613d17565b604082019050919050565b60006020820190508181036000830152613da281613d66565b9050919050565b7f4368616e6e656c206e6f74206f776e6564206279206d73672e73656e64657200600082015250565b6000613ddf601f83612d35565b9150613dea82613da9565b602082019050919050565b60006020820190508181036000830152613e0e81613dd2565b9050919050565b6000606082019050613e2a6000830186612d17565b8181036020830152613e3c8185612d46565b9050613e4b6040830184612d17565b949350505050565b7f4368616e6e656c206e6f74206f776e65642062792073656e6465720000000000600082015250565b6000613e89601b83612d35565b9150613e9482613e53565b602082019050919050565b60006020820190508181036000830152613eb881613e7c565b9050919050565b600081905092915050565b50565b6000613eda600083613ebf565b9150613ee582613eca565b600082019050919050565b6000613efb82613ecd565b9150819050919050565b7f4661696c656420746f20657363726f77207061636b6574206665650000000000600082015250565b6000613f3b601b83612d35565b9150613f4682613f05565b602082019050919050565b60006020820190508181036000830152613f6a81613f2e565b9050919050565b7f4e487b7100000000000000000000000000000000000000000000000000000000600052601160045260246000fd5b6000613fab82612b80565b9150613fb683612b80565b92508267ffffffffffffffff03821115613fd357613fd2613f71565b5b828201905092915050565b613fe781612bc0565b82525050565b60006080820190508181036000830152614008818789613101565b9050614017602083018661312e565b614024604083018561312e565b6140316060830184613fde565b9695505050505050565b7f4368616e6e656c206e6f74206f776e656420627920706f727441646472657373600082015250565b6000614071602083612d35565b915061407c8261403b565b602082019050919050565b600060208201905081810360008301526140a081614064565b9050919050565b600060408201905081810360008301526140c2818587613101565b90506140d1602083018461312e565b949350505050565b7f4f776e61626c653a206e6577206f776e657220697320746865207a65726f206160008201527f6464726573730000000000000000000000000000000000000000000000000000602082015250565b6000614135602683612d35565b9150614140826140d9565b604082019050919050565b6000602082019050818103600083015261416481614128565b9050919050565b7f4f776e61626c653a2063616c6c6572206973206e6f7420746865206f776e6572600082015250565b60006141a1602083612d35565b91506141ac8261416b565b602082019050919050565b600060208201905081810360008301526141d081614194565b905091905056fe6578706563746564206368616e6e656c20627974657320636f6e73747275637465642066726f6d20706172616d732e204368616e6e656c2e5374617465203d207b41636b5f50656e64696e672c20436f6e6669726d5f50656e64696e677d6578706563746564206368616e6e656c20627974657320636f6e73747275637465642066726f6d20706172616d732e204368616e6e656c2e5374617465203d207b436c6f736564285f50656e64696e673f297da264697066735822122070fca32fd330e8a987859209fc22d0a07013dea84939015c4ab08b5c8f62f3d764736f6c63430008090033",
  "linkReferences": {},
  "deployedLinkReferences": {}
}