{
  "_format": "hh-sol-artifact-1",
  "contractName": "Dispatcher",
  "sourceName": "contracts/Dispatcher.sol",
  "abi": [
    {
      "inputs": [
        {
          "internalType": "contract ZKMintVerifier",
          "name": "_verifier",
          "type": "address"
        },
        {
          "internalType": "address payable",
          "name": "_escrow",
          "type": "address"
        }
      ],
      "stateMutability": "nonpayable",
      "type": "constructor"
    },
    {
      "anonymous": false,
      "inputs": [
        {
          "indexed": true,
          "internalType": "address",
          "name": "sourcePortAddress",
          "type": "address"
        },
        {
          "indexed": true,
          "internalType": "bytes32",
          "name": "sourceChannelId",
          "type": "bytes32"
        },
        {
          "components": [
            {
              "internalType": "bool",
              "name": "success",
              "type": "bool"
            },
            {
              "internalType": "bytes",
              "name": "data",
              "type": "bytes"
            }
          ],
          "indexed": false,
          "internalType": "struct AckPacket",
          "name": "AckPacket",
          "type": "tuple"
        },
        {
          "indexed": false,
          "internalType": "uint64",
          "name": "sequence",
          "type": "uint64"
        }
      ],
      "name": "Acknowledgement",
      "type": "event"
    },
    {
      "anonymous": false,
      "inputs": [
        {
          "indexed": true,
          "internalType": "address",
          "name": "portAddress",
          "type": "address"
        },
        {
          "indexed": true,
          "internalType": "bytes32",
          "name": "channelId",
          "type": "bytes32"
        }
      ],
      "name": "CloseIbcChannel",
      "type": "event"
    },
    {
      "anonymous": false,
      "inputs": [
        {
          "indexed": true,
          "internalType": "address",
          "name": "portAddress",
          "type": "address"
        },
        {
          "indexed": true,
          "internalType": "bytes32",
          "name": "channelId",
          "type": "bytes32"
        },
        {
          "indexed": false,
          "internalType": "string",
          "name": "counterpartyPortId",
          "type": "string"
        },
        {
          "indexed": true,
          "internalType": "bytes32",
          "name": "counterpartyChannelId",
          "type": "bytes32"
        },
        {
          "indexed": false,
          "internalType": "string[]",
          "name": "connectionHops",
          "type": "string[]"
        }
      ],
      "name": "ConnectIbcChannel",
      "type": "event"
    },
    {
      "anonymous": false,
      "inputs": [
        {
          "indexed": true,
          "internalType": "bytes32",
          "name": "srcChannelId",
          "type": "bytes32"
        },
        {
          "indexed": false,
          "internalType": "string",
          "name": "srcPortId",
          "type": "string"
        },
        {
          "indexed": true,
          "internalType": "bytes32",
          "name": "destChannelId",
          "type": "bytes32"
        },
        {
          "indexed": false,
          "internalType": "string",
          "name": "destPortId",
          "type": "string"
        },
        {
          "indexed": false,
          "internalType": "bytes",
          "name": "data",
          "type": "bytes"
        },
        {
          "indexed": false,
          "internalType": "uint64",
          "name": "sequence",
          "type": "uint64"
        }
      ],
      "name": "OnRecvPacket",
      "type": "event"
    },
    {
      "anonymous": false,
      "inputs": [
        {
          "indexed": true,
          "internalType": "address",
          "name": "portAddress",
          "type": "address"
        },
        {
          "indexed": true,
          "internalType": "bytes32",
          "name": "counterpartyChannelId",
          "type": "bytes32"
        },
        {
          "indexed": false,
          "internalType": "bytes32",
          "name": "version",
          "type": "bytes32"
        },
        {
          "indexed": false,
          "internalType": "enum ChannelOrder",
          "name": "ordering",
          "type": "uint8"
        },
        {
          "indexed": false,
          "internalType": "string[]",
          "name": "connectionHops",
          "type": "string[]"
        },
        {
          "indexed": false,
          "internalType": "string",
          "name": "counterpartyPortId",
          "type": "string"
        },
        {
          "indexed": false,
          "internalType": "bytes32",
          "name": "counterpartyVersion",
          "type": "bytes32"
        }
      ],
      "name": "OpenIbcChannel",
      "type": "event"
    },
    {
      "anonymous": false,
      "inputs": [
        {
          "indexed": true,
          "internalType": "address",
          "name": "previousOwner",
          "type": "address"
        },
        {
          "indexed": true,
          "internalType": "address",
          "name": "newOwner",
          "type": "address"
        }
      ],
      "name": "OwnershipTransferred",
      "type": "event"
    },
    {
      "anonymous": false,
      "inputs": [
        {
          "indexed": true,
          "internalType": "address",
          "name": "sourcePortAddress",
          "type": "address"
        },
        {
          "indexed": true,
          "internalType": "bytes32",
          "name": "sourceChannelId",
          "type": "bytes32"
        },
        {
          "indexed": false,
          "internalType": "bytes",
          "name": "packet",
          "type": "bytes"
        },
        {
          "indexed": false,
          "internalType": "uint64",
          "name": "sequence",
          "type": "uint64"
        },
        {
          "indexed": false,
          "internalType": "uint64",
          "name": "timeoutTimestamp",
          "type": "uint64"
        },
        {
          "indexed": false,
          "internalType": "uint256",
          "name": "fee",
          "type": "uint256"
        }
      ],
      "name": "SendPacket",
      "type": "event"
    },
    {
      "inputs": [
        {
          "internalType": "contract IbcReceiver",
          "name": "receiver",
          "type": "address"
        },
        {
          "components": [
            {
              "components": [
                {
                  "internalType": "string",
                  "name": "portId",
                  "type": "string"
                },
                {
                  "internalType": "bytes32",
                  "name": "channelId",
                  "type": "bytes32"
                }
              ],
              "internalType": "struct IbcEndpoint",
              "name": "src",
              "type": "tuple"
            },
            {
              "components": [
                {
                  "internalType": "string",
                  "name": "portId",
                  "type": "string"
                },
                {
                  "internalType": "bytes32",
                  "name": "channelId",
                  "type": "bytes32"
                }
              ],
              "internalType": "struct IbcEndpoint",
              "name": "dest",
              "type": "tuple"
            },
            {
              "internalType": "uint64",
              "name": "sequence",
              "type": "uint64"
            },
            {
              "internalType": "bytes",
              "name": "data",
              "type": "bytes"
            },
            {
              "components": [
                {
                  "internalType": "uint64",
                  "name": "block",
                  "type": "uint64"
                },
                {
                  "internalType": "uint64",
                  "name": "timestamp",
                  "type": "uint64"
                }
              ],
              "internalType": "struct IbcTimeout",
              "name": "timeout",
              "type": "tuple"
            }
          ],
          "internalType": "struct IbcPacket",
          "name": "packet",
          "type": "tuple"
        },
        {
          "components": [
            {
              "internalType": "bool",
              "name": "success",
              "type": "bool"
            },
            {
              "internalType": "bytes",
              "name": "data",
              "type": "bytes"
            }
          ],
          "internalType": "struct AckPacket",
          "name": "ackPacket",
          "type": "tuple"
        },
        {
          "components": [
            {
              "internalType": "uint64",
              "name": "proofHeight",
              "type": "uint64"
            },
            {
              "internalType": "bytes",
              "name": "proof",
              "type": "bytes"
            }
          ],
          "internalType": "struct Proof",
          "name": "proof",
          "type": "tuple"
        }
      ],
      "name": "acknowledgement",
      "outputs": [],
      "stateMutability": "nonpayable",
      "type": "function"
    },
    {
      "inputs": [
        {
          "internalType": "bytes32",
          "name": "channelId",
          "type": "bytes32"
        }
      ],
      "name": "closeIbcChannel",
      "outputs": [],
      "stateMutability": "nonpayable",
      "type": "function"
    },
    {
      "inputs": [
        {
          "internalType": "contract IbcReceiver",
          "name": "portAddress",
          "type": "address"
        },
        {
          "internalType": "bytes32",
          "name": "channelId",
          "type": "bytes32"
        },
        {
          "internalType": "string[]",
          "name": "connectionHops",
          "type": "string[]"
        },
        {
          "internalType": "enum ChannelOrder",
          "name": "ordering",
          "type": "uint8"
        },
        {
          "internalType": "string",
          "name": "counterpartyPortId",
          "type": "string"
        },
        {
          "internalType": "bytes32",
          "name": "counterpartyChannelId",
          "type": "bytes32"
        },
        {
          "internalType": "bytes32",
          "name": "counterpartyVersion",
          "type": "bytes32"
        },
        {
          "components": [
            {
              "internalType": "uint64",
              "name": "proofHeight",
              "type": "uint64"
            },
            {
              "internalType": "bytes",
              "name": "proof",
              "type": "bytes"
            }
          ],
          "internalType": "struct Proof",
          "name": "proof",
          "type": "tuple"
        }
      ],
      "name": "connectIbcChannel",
      "outputs": [],
      "stateMutability": "nonpayable",
      "type": "function"
    },
    {
      "inputs": [
        {
          "components": [
            {
              "internalType": "bytes",
              "name": "clientState",
              "type": "bytes"
            },
            {
              "internalType": "bytes",
              "name": "consensusState",
              "type": "bytes"
            }
          ],
          "internalType": "struct InitClientMsg",
          "name": "initClientMsg",
          "type": "tuple"
        }
      ],
      "name": "createClient",
      "outputs": [],
      "stateMutability": "nonpayable",
      "type": "function"
    },
    {
      "inputs": [
        {
          "internalType": "address",
          "name": "portAddress",
          "type": "address"
        },
        {
          "internalType": "bytes32",
          "name": "channelId",
          "type": "bytes32"
        }
      ],
      "name": "getChannel",
      "outputs": [
        {
          "components": [
            {
              "internalType": "bytes32",
              "name": "version",
              "type": "bytes32"
            },
            {
              "internalType": "enum ChannelOrder",
              "name": "ordering",
              "type": "uint8"
            },
            {
              "internalType": "string[]",
              "name": "connectionHops",
              "type": "string[]"
            },
            {
              "internalType": "string",
              "name": "counterpartyPortId",
              "type": "string"
            },
            {
              "internalType": "bytes32",
              "name": "counterpartyChannelId",
              "type": "bytes32"
            }
          ],
          "internalType": "struct Channel",
          "name": "",
          "type": "tuple"
        }
      ],
      "stateMutability": "view",
      "type": "function"
    },
    {
      "inputs": [],
      "name": "latestConsensusState",
      "outputs": [
        {
          "internalType": "bytes",
          "name": "",
          "type": "bytes"
        }
      ],
      "stateMutability": "view",
      "type": "function"
    },
    {
      "inputs": [
        {
          "internalType": "address",
          "name": "portAddress",
          "type": "address"
        },
        {
          "internalType": "bytes32",
          "name": "channelId",
          "type": "bytes32"
        },
        {
          "components": [
            {
              "internalType": "uint64",
              "name": "proofHeight",
              "type": "uint64"
            },
            {
              "internalType": "bytes",
              "name": "proof",
              "type": "bytes"
            }
          ],
          "internalType": "struct Proof",
          "name": "proof",
          "type": "tuple"
        }
      ],
      "name": "onCloseIbcChannel",
      "outputs": [],
      "stateMutability": "nonpayable",
      "type": "function"
    },
    {
      "inputs": [
        {
          "internalType": "contract IbcReceiver",
          "name": "receiver",
          "type": "address"
        },
        {
          "components": [
            {
              "components": [
                {
                  "internalType": "string",
                  "name": "portId",
                  "type": "string"
                },
                {
                  "internalType": "bytes32",
                  "name": "channelId",
                  "type": "bytes32"
                }
              ],
              "internalType": "struct IbcEndpoint",
              "name": "src",
              "type": "tuple"
            },
            {
              "components": [
                {
                  "internalType": "string",
                  "name": "portId",
                  "type": "string"
                },
                {
                  "internalType": "bytes32",
                  "name": "channelId",
                  "type": "bytes32"
                }
              ],
              "internalType": "struct IbcEndpoint",
              "name": "dest",
              "type": "tuple"
            },
            {
              "internalType": "uint64",
              "name": "sequence",
              "type": "uint64"
            },
            {
              "internalType": "bytes",
              "name": "data",
              "type": "bytes"
            },
            {
              "components": [
                {
                  "internalType": "uint64",
                  "name": "block",
                  "type": "uint64"
                },
                {
                  "internalType": "uint64",
                  "name": "timestamp",
                  "type": "uint64"
                }
              ],
              "internalType": "struct IbcTimeout",
              "name": "timeout",
              "type": "tuple"
            }
          ],
          "internalType": "struct IbcPacket",
          "name": "packet",
          "type": "tuple"
        },
        {
          "components": [
            {
              "internalType": "uint64",
              "name": "proofHeight",
              "type": "uint64"
            },
            {
              "internalType": "bytes",
              "name": "proof",
              "type": "bytes"
            }
          ],
          "internalType": "struct Proof",
          "name": "proof",
          "type": "tuple"
        }
      ],
      "name": "onRecvPacket",
      "outputs": [],
      "stateMutability": "nonpayable",
      "type": "function"
    },
    {
      "inputs": [
        {
          "internalType": "contract IbcReceiver",
          "name": "receiver",
          "type": "address"
        },
        {
          "components": [
            {
              "components": [
                {
                  "internalType": "string",
                  "name": "portId",
                  "type": "string"
                },
                {
                  "internalType": "bytes32",
                  "name": "channelId",
                  "type": "bytes32"
                }
              ],
              "internalType": "struct IbcEndpoint",
              "name": "src",
              "type": "tuple"
            },
            {
              "components": [
                {
                  "internalType": "string",
                  "name": "portId",
                  "type": "string"
                },
                {
                  "internalType": "bytes32",
                  "name": "channelId",
                  "type": "bytes32"
                }
              ],
              "internalType": "struct IbcEndpoint",
              "name": "dest",
              "type": "tuple"
            },
            {
              "internalType": "uint64",
              "name": "sequence",
              "type": "uint64"
            },
            {
              "internalType": "bytes",
              "name": "data",
              "type": "bytes"
            },
            {
              "components": [
                {
                  "internalType": "uint64",
                  "name": "block",
                  "type": "uint64"
                },
                {
                  "internalType": "uint64",
                  "name": "timestamp",
                  "type": "uint64"
                }
              ],
              "internalType": "struct IbcTimeout",
              "name": "timeout",
              "type": "tuple"
            }
          ],
          "internalType": "struct IbcPacket",
          "name": "packet",
          "type": "tuple"
        },
        {
          "components": [
            {
              "internalType": "uint64",
              "name": "proofHeight",
              "type": "uint64"
            },
            {
              "internalType": "bytes",
              "name": "proof",
              "type": "bytes"
            }
          ],
          "internalType": "struct Proof",
          "name": "proof",
          "type": "tuple"
        }
      ],
      "name": "onTimeoutPacket",
      "outputs": [],
      "stateMutability": "nonpayable",
      "type": "function"
    },
    {
      "inputs": [
        {
          "internalType": "contract IbcReceiver",
          "name": "portAddress",
          "type": "address"
        },
        {
          "internalType": "bytes32",
          "name": "version",
          "type": "bytes32"
        },
        {
          "internalType": "enum ChannelOrder",
          "name": "ordering",
          "type": "uint8"
        },
        {
          "internalType": "string[]",
          "name": "connectionHops",
          "type": "string[]"
        },
        {
          "internalType": "bytes32",
          "name": "counterpartyChannelId",
          "type": "bytes32"
        },
        {
          "internalType": "string",
          "name": "counterpartyPortId",
          "type": "string"
        },
        {
          "internalType": "bytes32",
          "name": "counterpartyVersion",
          "type": "bytes32"
        }
      ],
      "name": "openIbcChannel",
      "outputs": [],
      "stateMutability": "nonpayable",
      "type": "function"
    },
    {
      "inputs": [],
      "name": "owner",
      "outputs": [
        {
          "internalType": "address",
          "name": "",
          "type": "address"
        }
      ],
      "stateMutability": "view",
      "type": "function"
    },
    {
      "inputs": [
        {
          "internalType": "address",
          "name": "",
          "type": "address"
        },
        {
          "internalType": "bytes32",
          "name": "",
          "type": "bytes32"
        }
      ],
      "name": "portChannelMap",
      "outputs": [
        {
          "internalType": "bytes32",
          "name": "version",
          "type": "bytes32"
        },
        {
          "internalType": "enum ChannelOrder",
          "name": "ordering",
          "type": "uint8"
        },
        {
          "internalType": "string",
          "name": "counterpartyPortId",
          "type": "string"
        },
        {
          "internalType": "bytes32",
          "name": "counterpartyChannelId",
          "type": "bytes32"
        }
      ],
      "stateMutability": "view",
      "type": "function"
    },
    {
      "inputs": [],
      "name": "renounceOwnership",
      "outputs": [],
      "stateMutability": "nonpayable",
      "type": "function"
    },
    {
      "inputs": [
        {
          "internalType": "bytes32",
          "name": "channelId",
          "type": "bytes32"
        },
        {
          "internalType": "bytes",
          "name": "packet",
          "type": "bytes"
        },
        {
          "internalType": "uint64",
          "name": "timeoutTimestamp",
          "type": "uint64"
        },
        {
          "internalType": "uint256",
          "name": "fee",
          "type": "uint256"
        }
      ],
      "name": "sendPacket",
      "outputs": [],
      "stateMutability": "payable",
      "type": "function"
    },
    {
      "inputs": [
        {
          "internalType": "address",
          "name": "newOwner",
          "type": "address"
        }
      ],
      "name": "transferOwnership",
      "outputs": [],
      "stateMutability": "nonpayable",
      "type": "function"
    },
    {
      "inputs": [
        {
          "components": [
            {
              "internalType": "bytes",
              "name": "consensusState",
              "type": "bytes"
            },
            {
              "internalType": "uint64",
              "name": "height",
              "type": "uint64"
            },
            {
              "internalType": "bytes",
              "name": "zkProof",
              "type": "bytes"
            }
          ],
          "internalType": "struct UpdateClientMsg",
          "name": "updateClientMsg",
          "type": "tuple"
        }
      ],
      "name": "updateClient",
      "outputs": [],
      "stateMutability": "nonpayable",
      "type": "function"
    },
    {
      "inputs": [
        {
          "components": [
            {
              "internalType": "bytes",
              "name": "clientState",
              "type": "bytes"
            },
            {
              "internalType": "bytes",
              "name": "consensusState",
              "type": "bytes"
            }
          ],
          "internalType": "struct UpgradeClientMsg",
          "name": "upgradeClientMsg",
          "type": "tuple"
        }
      ],
      "name": "upgradeClient",
      "outputs": [],
      "stateMutability": "nonpayable",
      "type": "function"
    }
  ],
  "bytecode": "0x60806040526000600260146101000a81548160ff0219169083151502179055506000600460006101000a81548167ffffffffffffffff021916908367ffffffffffffffff1602179055503480156200005657600080fd5b50604051620049843803806200498483398181016040528101906200007c91906200034a565b6200009c62000090620001bb60201b60201c565b620001c360201b60201c565b81600160006101000a81548173ffffffffffffffffffffffffffffffffffffffff021916908373ffffffffffffffffffffffffffffffffffffffff16021790555080600260006101000a81548173ffffffffffffffffffffffffffffffffffffffff021916908373ffffffffffffffffffffffffffffffffffffffff160217905550600073ffffffffffffffffffffffffffffffffffffffff16600260009054906101000a900473ffffffffffffffffffffffffffffffffffffffff1673ffffffffffffffffffffffffffffffffffffffff161415620001b3576040517f08c379a0000000000000000000000000000000000000000000000000000000008152600401620001aa90620003f2565b60405180910390fd5b505062000414565b600033905090565b60008060009054906101000a900473ffffffffffffffffffffffffffffffffffffffff169050816000806101000a81548173ffffffffffffffffffffffffffffffffffffffff021916908373ffffffffffffffffffffffffffffffffffffffff1602179055508173ffffffffffffffffffffffffffffffffffffffff168173ffffffffffffffffffffffffffffffffffffffff167f8be0079c531659141344cd1fd0a4f28419497f9722a3daafe3b4186f6b6457e060405160405180910390a35050565b600080fd5b600073ffffffffffffffffffffffffffffffffffffffff82169050919050565b6000620002b9826200028c565b9050919050565b6000620002cd82620002ac565b9050919050565b620002df81620002c0565b8114620002eb57600080fd5b50565b600081519050620002ff81620002d4565b92915050565b600062000312826200028c565b9050919050565b620003248162000305565b81146200033057600080fd5b50565b600081519050620003448162000319565b92915050565b6000806040838503121562000364576200036362000287565b5b60006200037485828601620002ee565b9250506020620003878582860162000333565b9150509250929050565b600082825260208201905092915050565b7f457363726f772063616e6e6f74206265207a65726f2061646472657373000000600082015250565b6000620003da601d8362000391565b9150620003e782620003a2565b602082019050919050565b600060208201905081810360008301526200040d81620003cb565b9050919050565b61456080620004246000396000f3fe6080604052600436106100fe5760003560e01c806367874649116100955780638da5cb5b116100645780638da5cb5b146102e4578063951538f31461030f578063b2b1bf0314610338578063c2a2514d14610378578063f2fde38b146103a3576100fe565b8063678746491461025f578063715018a6146102885780638b24b4cb1461029f5780638d3d5aa9146102c8576100fe565b80634c9778d3116100d15780634c9778d3146101bb5780634efde434146101e4578063520b128e1461020d57806364260a6014610236576100fe565b80630ad8d666146101035780631f456c1e1461012c57806342852d2414610155578063487fca7e14610192575b600080fd5b34801561010f57600080fd5b5061012a600480360381019061012591906124d7565b6103cc565b005b34801561013857600080fd5b50610153600480360381019061014e9190612678565b6104de565b005b34801561016157600080fd5b5061017c60048036038101906101779190612786565b6105e2565b6040516101899190612a24565b60405180910390f35b34801561019e57600080fd5b506101b960048036038101906101b49190612a65565b610807565b005b3480156101c757600080fd5b506101e260048036038101906101dd9190612aae565b61089d565b005b3480156101f057600080fd5b5061020b60048036038101906102069190612be0565b610bcf565b005b34801561021957600080fd5b50610234600480360381019061022f9190612c48565b610c49565b005b34801561024257600080fd5b5061025d600480360381019061025891906124d7565b610f0f565b005b34801561026b57600080fd5b5061028660048036038101906102819190612d22565b610fc7565b005b34801561029457600080fd5b5061029d611126565b005b3480156102ab57600080fd5b506102c660048036038101906102c19190612d6b565b61113a565b005b6102e260048036038101906102dd9190612e64565b611462565b005b3480156102f057600080fd5b506102f961196e565b6040516103069190612efb565b60405180910390f35b34801561031b57600080fd5b5061033660048036038101906103319190612f16565b611997565b005b34801561034457600080fd5b5061035f600480360381019061035a9190612786565b611e5f565b60405161036f9493929190612fed565b60405180910390f35b34801561038457600080fd5b5061038d611f31565b60405161039a919061308e565b60405180910390f35b3480156103af57600080fd5b506103ca60048036038101906103c591906130b0565b611fbf565b005b6103d581612043565b610414576040517f08c379a000000000000000000000000000000000000000000000000000000000815260040161040b90613129565b60405180910390fd5b8180602001906104249190613158565b602001358280600001906104389190613158565b602001357f080631928e492258b6a102fc2ab3e0a8dfcb747ab0885c25f9cb7a8d4862103684806000019061046d9190613158565b806000019061047c9190613180565b86806020019061048c9190613158565b806000019061049b9190613180565b8880606001906104ab91906131e3565b8a60400160208101906104be9190613246565b6040516104d197969594939291906132eb565b60405180910390a3505050565b60008973ffffffffffffffffffffffffffffffffffffffff1663486592198a8a8a8a8a8a8a8a6040518963ffffffff1660e01b815260040161052798979695949392919061349e565b602060405180830381600087803b15801561054157600080fd5b505af1158015610555573d6000803e3d6000fd5b505050506040513d601f19601f820116820180604052508101906105799190613526565b9050848a73ffffffffffffffffffffffffffffffffffffffff167f9a93c124e7f0aa93d3fbe660b1366e0483b4267619924382261498efbb92c873838b8b8b8a8a8a6040516105ce9796959493929190613553565b60405180910390a350505050505050505050565b6105ea6121bb565b600560008473ffffffffffffffffffffffffffffffffffffffff1673ffffffffffffffffffffffffffffffffffffffff16815260200190815260200160002060008381526020019081526020016000206040518060a0016040529081600082015481526020016001820160009054906101000a900460ff166001811115610674576106736127d5565b5b6001811115610686576106856127d5565b5b815260200160028201805480602002602001604051908101604052809291908181526020016000905b8282101561075b5783829060005260206000200180546106ce906135e7565b80601f01602080910402602001604051908101604052809291908181526020018280546106fa906135e7565b80156107475780601f1061071c57610100808354040283529160200191610747565b820191906000526020600020905b81548152906001019060200180831161072a57829003601f168201915b5050505050815260200190600101906106af565b505050508152602001600382018054610773906135e7565b80601f016020809104026020016040519081016040528092919081815260200182805461079f906135e7565b80156107ec5780601f106107c1576101008083540402835291602001916107ec565b820191906000526020600020905b8154815290600101906020018083116107cf57829003601f168201915b50505050508152602001600482015481525050905092915050565b61080f612071565b600260149054906101000a900460ff161561085f576040517f08c379a000000000000000000000000000000000000000000000000000000000815260040161085690613665565b60405180910390fd5b6001600260146101000a81548160ff02191690831515021790555080806020019061088a91906131e3565b60039190610899929190612202565b5050565b600160009054906101000a900473ffffffffffffffffffffffffffffffffffffffff1673ffffffffffffffffffffffffffffffffffffffff16639511059d6003836040518060800160405280605e815260200161447a605e91396040518463ffffffff1660e01b81526004016109159392919061387c565b60206040518083038186803b15801561092d57600080fd5b505afa158015610941573d6000803e3d6000fd5b505050506040513d601f19601f820116820180604052508101906109659190613913565b6109a4576040517f08c379a000000000000000000000000000000000000000000000000000000000815260040161099b9061398c565b60405180910390fd5b8973ffffffffffffffffffffffffffffffffffffffff1663e60a72938a85856040518463ffffffff1660e01b81526004016109e1939291906139ac565b600060405180830381600087803b1580156109fb57600080fd5b505af1158015610a0f573d6000803e3d6000fd5b505050506040518060a00160405280838152602001876001811115610a3757610a366127d5565b5b8152602001898990610a499190613bb7565b815260200186868080601f016020809104026020016040519081016040528093929190818152602001838380828437600081840152601f19601f82011690508083019250505050505050815260200184815250600560008c73ffffffffffffffffffffffffffffffffffffffff1673ffffffffffffffffffffffffffffffffffffffff16815260200190815260200160002060008b81526020019081526020016000206000820151816000015560208201518160010160006101000a81548160ff02191690836001811115610b2157610b206127d5565b5b02179055506040820151816002019080519060200190610b42929190612288565b506060820151816003019080519060200190610b5f9291906122e8565b506080820151816004015590505082898b73ffffffffffffffffffffffffffffffffffffffff167f57ea540ad7b8bfd2813b8637764ba029fedc52de3f812934a46511506aa11b8e88888d8d604051610bbb9493929190613bcc565b60405180910390a450505050505050505050565b610bd7612071565b600260149054906101000a900460ff16610c26576040517f08c379a0000000000000000000000000000000000000000000000000000000008152600401610c1d90613c53565b60405180910390fd5b808060200190610c3691906131e3565b60039190610c45929190612202565b5050565b610c5281612043565b610c91576040517f08c379a0000000000000000000000000000000000000000000000000000000008152600401610c8890613129565b60405180910390fd5b6000600760008673ffffffffffffffffffffffffffffffffffffffff1673ffffffffffffffffffffffffffffffffffffffff1681526020019081526020016000206000858060000190610ce49190613158565b6020013581526020019081526020016000206000856040016020810190610d0b9190613246565b67ffffffffffffffff1667ffffffffffffffff16815260200190815260200160002060009054906101000a900460ff16905080610d7d576040517f08c379a0000000000000000000000000000000000000000000000000000000008152600401610d7490613cbf565b60405180910390fd5b8473ffffffffffffffffffffffffffffffffffffffff1663f45cf5e4856040518263ffffffff1660e01b8152600401610db69190613e65565b600060405180830381600087803b158015610dd057600080fd5b505af1158015610de4573d6000803e3d6000fd5b50505050600760008673ffffffffffffffffffffffffffffffffffffffff1673ffffffffffffffffffffffffffffffffffffffff1681526020019081526020016000206000858060000190610e399190613158565b6020013581526020019081526020016000206000856040016020810190610e609190613246565b67ffffffffffffffff1667ffffffffffffffff16815260200190815260200160002060006101000a81549060ff0219169055838060000190610ea29190613158565b602001358573ffffffffffffffffffffffffffffffffffffffff167fc4198f9e29f113c5464c20bc273a0861cf81d5fdef68c6a7cc9993d9437d1a0b85876040016020810190610ef29190613246565b604051610f00929190613f11565b60405180910390a35050505050565b610f1881612043565b610f57576040517f08c379a0000000000000000000000000000000000000000000000000000000008152600401610f4e90613129565b60405180910390fd5b8273ffffffffffffffffffffffffffffffffffffffff1663b33c2577836040518263ffffffff1660e01b8152600401610f909190613e65565b600060405180830381600087803b158015610faa57600080fd5b505af1158015610fbe573d6000803e3d6000fd5b50505050505050565b600260149054906101000a900460ff16611016576040517f08c379a000000000000000000000000000000000000000000000000000000000815260040161100d90613c53565b60405180910390fd5b600160009054906101000a900473ffffffffffffffffffffffffffffffffffffffff1673ffffffffffffffffffffffffffffffffffffffff1663ab5eba266003836040518363ffffffff1660e01b8152600401611074929190613fb4565b60206040518083038186803b15801561108c57600080fd5b505afa1580156110a0573d6000803e3d6000fd5b505050506040513d601f19601f820116820180604052508101906110c49190613913565b611103576040517f08c379a00000000000000000000000000000000000000000000000000000000081526004016110fa9061405d565b60405180910390fd5b80806000019061111391906131e3565b60039190611122929190612202565b5050565b61112e612071565b61113860006120ef565b565b6000600560003373ffffffffffffffffffffffffffffffffffffffff1673ffffffffffffffffffffffffffffffffffffffff16815260200190815260200160002060008381526020019081526020016000206040518060a0016040529081600082015481526020016001820160009054906101000a900460ff1660018111156111c6576111c56127d5565b5b60018111156111d8576111d76127d5565b5b815260200160028201805480602002602001604051908101604052809291908181526020016000905b828210156112ad578382906000526020600020018054611220906135e7565b80601f016020809104026020016040519081016040528092919081815260200182805461124c906135e7565b80156112995780601f1061126e57610100808354040283529160200191611299565b820191906000526020600020905b81548152906001019060200180831161127c57829003601f168201915b505050505081526020019060010190611201565b5050505081526020016003820180546112c5906135e7565b80601f01602080910402602001604051908101604052809291908181526020018280546112f1906135e7565b801561133e5780601f106113135761010080835404028352916020019161133e565b820191906000526020600020905b81548152906001019060200180831161132157829003601f168201915b5050505050815260200160048201548152505090506000801b8160800151141561139d576040517f08c379a0000000000000000000000000000000000000000000000000000000008152600401611394906140c9565b60405180910390fd5b60003390508073ffffffffffffffffffffffffffffffffffffffff16635fe39e0d84846060015185608001516040518463ffffffff1660e01b81526004016113e7939291906140e9565b600060405180830381600087803b15801561140157600080fd5b505af1158015611415573d6000803e3d6000fd5b50505050823373ffffffffffffffffffffffffffffffffffffffff167fe893e4ba0e364cdc96364b1e1e0d53b0d91e5fd6aa0ee9d81a17ecd61178bf1760405160405180910390a3505050565b6000600560003373ffffffffffffffffffffffffffffffffffffffff1673ffffffffffffffffffffffffffffffffffffffff16815260200190815260200160002060008781526020019081526020016000206040518060a0016040529081600082015481526020016001820160009054906101000a900460ff1660018111156114ee576114ed6127d5565b5b6001811115611500576114ff6127d5565b5b815260200160028201805480602002602001604051908101604052809291908181526020016000905b828210156115d5578382906000526020600020018054611548906135e7565b80601f0160208091040260200160405190810160405280929190818152602001828054611574906135e7565b80156115c15780601f10611596576101008083540402835291602001916115c1565b820191906000526020600020905b8154815290600101906020018083116115a457829003601f168201915b505050505081526020019060010190611529565b5050505081526020016003820180546115ed906135e7565b80601f0160208091040260200160405190810160405280929190818152602001828054611619906135e7565b80156116665780601f1061163b57610100808354040283529160200191611666565b820191906000526020600020905b81548152906001019060200180831161164957829003601f168201915b5050505050815260200160048201548152505090506000801b816080015114156116c5576040517f08c379a00000000000000000000000000000000000000000000000000000000081526004016116bc90614173565b60405180910390fd5b6000600260009054906101000a900473ffffffffffffffffffffffffffffffffffffffff1673ffffffffffffffffffffffffffffffffffffffff168360405161170d906141c4565b60006040518083038185875af1925050503d806000811461174a576040519150601f19603f3d011682016040523d82523d6000602084013e61174f565b606091505b5050905080611793576040517f08c379a000000000000000000000000000000000000000000000000000000000815260040161178a90614225565b60405180910390fd5b6000600660003373ffffffffffffffffffffffffffffffffffffffff1673ffffffffffffffffffffffffffffffffffffffff168152602001908152602001600020600089815260200190815260200160002060009054906101000a900467ffffffffffffffff1690506001816118099190614274565b600660003373ffffffffffffffffffffffffffffffffffffffff1673ffffffffffffffffffffffffffffffffffffffff16815260200190815260200160002060008a815260200190815260200160002060006101000a81548167ffffffffffffffff021916908367ffffffffffffffff1602179055506001600760003373ffffffffffffffffffffffffffffffffffffffff1673ffffffffffffffffffffffffffffffffffffffff16815260200190815260200160002060008a815260200190815260200160002060008367ffffffffffffffff1667ffffffffffffffff16815260200190815260200160002060006101000a81548160ff021916908315150217905550873373ffffffffffffffffffffffffffffffffffffffff167fc55a6c1340ca55a6b61de30037455a7f9f4a5b8ff106e4eaa0c23ea886fa03608989858a8a60405161195c9594939291906142c1565b60405180910390a35050505050505050565b60008060009054906101000a900473ffffffffffffffffffffffffffffffffffffffff16905090565b600160009054906101000a900473ffffffffffffffffffffffffffffffffffffffff1673ffffffffffffffffffffffffffffffffffffffff16639511059d6003836040518060800160405280605381526020016144d8605391396040518463ffffffff1660e01b8152600401611a0f9392919061387c565b60206040518083038186803b158015611a2757600080fd5b505afa158015611a3b573d6000803e3d6000fd5b505050506040513d601f19601f82011682018060405250810190611a5f9190613913565b611a9e576040517f08c379a0000000000000000000000000000000000000000000000000000000008152600401611a959061398c565b60405180910390fd5b6000600560008573ffffffffffffffffffffffffffffffffffffffff1673ffffffffffffffffffffffffffffffffffffffff16815260200190815260200160002060008481526020019081526020016000206040518060a0016040529081600082015481526020016001820160009054906101000a900460ff166001811115611b2a57611b296127d5565b5b6001811115611b3c57611b3b6127d5565b5b815260200160028201805480602002602001604051908101604052809291908181526020016000905b82821015611c11578382906000526020600020018054611b84906135e7565b80601f0160208091040260200160405190810160405280929190818152602001828054611bb0906135e7565b8015611bfd5780601f10611bd257610100808354040283529160200191611bfd565b820191906000526020600020905b815481529060010190602001808311611be057829003601f168201915b505050505081526020019060010190611b65565b505050508152602001600382018054611c29906135e7565b80601f0160208091040260200160405190810160405280929190818152602001828054611c55906135e7565b8015611ca25780601f10611c7757610100808354040283529160200191611ca2565b820191906000526020600020905b815481529060010190602001808311611c8557829003601f168201915b5050505050815260200160048201548152505090506000801b81608001511415611d01576040517f08c379a0000000000000000000000000000000000000000000000000000000008152600401611cf89061435b565b60405180910390fd5b60008490508073ffffffffffffffffffffffffffffffffffffffff16635fe39e0d85846060015185608001516040518463ffffffff1660e01b8152600401611d4b939291906140e9565b600060405180830381600087803b158015611d6557600080fd5b505af1158015611d79573d6000803e3d6000fd5b50505050600560008673ffffffffffffffffffffffffffffffffffffffff1673ffffffffffffffffffffffffffffffffffffffff16815260200190815260200160002060008581526020019081526020016000206000808201600090556001820160006101000a81549060ff0219169055600282016000611dfa919061236e565b600382016000611e0a919061238f565b60048201600090555050838573ffffffffffffffffffffffffffffffffffffffff167fe893e4ba0e364cdc96364b1e1e0d53b0d91e5fd6aa0ee9d81a17ecd61178bf1760405160405180910390a35050505050565b6005602052816000526040600020602052806000526040600020600091509150508060000154908060010160009054906101000a900460ff1690806003018054611ea8906135e7565b80601f0160208091040260200160405190810160405280929190818152602001828054611ed4906135e7565b8015611f215780601f10611ef657610100808354040283529160200191611f21565b820191906000526020600020905b815481529060010190602001808311611f0457829003601f168201915b5050505050908060040154905084565b60038054611f3e906135e7565b80601f0160208091040260200160405190810160405280929190818152602001828054611f6a906135e7565b8015611fb75780601f10611f8c57610100808354040283529160200191611fb7565b820191906000526020600020905b815481529060010190602001808311611f9a57829003601f168201915b505050505081565b611fc7612071565b600073ffffffffffffffffffffffffffffffffffffffff168173ffffffffffffffffffffffffffffffffffffffff161415612037576040517f08c379a000000000000000000000000000000000000000000000000000000000815260040161202e906143ed565b60405180910390fd5b612040816120ef565b50565b60008082806020019061205691906131e3565b90501415612067576000905061206c565b600190505b919050565b6120796121b3565b73ffffffffffffffffffffffffffffffffffffffff1661209761196e565b73ffffffffffffffffffffffffffffffffffffffff16146120ed576040517f08c379a00000000000000000000000000000000000000000000000000000000081526004016120e490614459565b60405180910390fd5b565b60008060009054906101000a900473ffffffffffffffffffffffffffffffffffffffff169050816000806101000a81548173ffffffffffffffffffffffffffffffffffffffff021916908373ffffffffffffffffffffffffffffffffffffffff1602179055508173ffffffffffffffffffffffffffffffffffffffff168173ffffffffffffffffffffffffffffffffffffffff167f8be0079c531659141344cd1fd0a4f28419497f9722a3daafe3b4186f6b6457e060405160405180910390a35050565b600033905090565b6040518060a0016040528060008019168152602001600060018111156121e4576121e36127d5565b5b81526020016060815260200160608152602001600080191681525090565b82805461220e906135e7565b90600052602060002090601f0160209004810192826122305760008555612277565b82601f1061224957803560ff1916838001178555612277565b82800160010185558215612277579182015b8281111561227657823582559160200191906001019061225b565b5b50905061228491906123cf565b5090565b8280548282559060005260206000209081019282156122d7579160200282015b828111156122d65782518290805190602001906122c69291906122e8565b50916020019190600101906122a8565b5b5090506122e491906123ec565b5090565b8280546122f4906135e7565b90600052602060002090601f016020900481019282612316576000855561235d565b82601f1061232f57805160ff191683800117855561235d565b8280016001018555821561235d579182015b8281111561235c578251825591602001919060010190612341565b5b50905061236a91906123cf565b5090565b508054600082559060005260206000209081019061238c91906123ec565b50565b50805461239b906135e7565b6000825580601f106123ad57506123cc565b601f0160209004906000526020600020908101906123cb91906123cf565b5b50565b5b808211156123e85760008160009055506001016123d0565b5090565b5b8082111561240c5760008181612403919061238f565b506001016123ed565b5090565b6000604051905090565b600080fd5b600080fd5b600073ffffffffffffffffffffffffffffffffffffffff82169050919050565b600061244f82612424565b9050919050565b600061246182612444565b9050919050565b61247181612456565b811461247c57600080fd5b50565b60008135905061248e81612468565b92915050565b600080fd5b600060c082840312156124af576124ae612494565b5b81905092915050565b6000604082840312156124ce576124cd612494565b5b81905092915050565b6000806000606084860312156124f0576124ef61241a565b5b60006124fe8682870161247f565b935050602084013567ffffffffffffffff81111561251f5761251e61241f565b5b61252b86828701612499565b925050604084013567ffffffffffffffff81111561254c5761254b61241f565b5b612558868287016124b8565b9150509250925092565b6000819050919050565b61257581612562565b811461258057600080fd5b50565b6000813590506125928161256c565b92915050565b600281106125a557600080fd5b50565b6000813590506125b781612598565b92915050565b600080fd5b600080fd5b600080fd5b60008083601f8401126125e2576125e16125bd565b5b8235905067ffffffffffffffff8111156125ff576125fe6125c2565b5b60208301915083602082028301111561261b5761261a6125c7565b5b9250929050565b60008083601f840112612638576126376125bd565b5b8235905067ffffffffffffffff811115612655576126546125c2565b5b602083019150836001820283011115612671576126706125c7565b5b9250929050565b600080600080600080600080600060e08a8c03121561269a5761269961241a565b5b60006126a88c828d0161247f565b99505060206126b98c828d01612583565b98505060406126ca8c828d016125a8565b97505060608a013567ffffffffffffffff8111156126eb576126ea61241f565b5b6126f78c828d016125cc565b9650965050608061270a8c828d01612583565b94505060a08a013567ffffffffffffffff81111561272b5761272a61241f565b5b6127378c828d01612622565b935093505060c061274a8c828d01612583565b9150509295985092959850929598565b61276381612444565b811461276e57600080fd5b50565b6000813590506127808161275a565b92915050565b6000806040838503121561279d5761279c61241a565b5b60006127ab85828601612771565b92505060206127bc85828601612583565b9150509250929050565b6127cf81612562565b82525050565b7f4e487b7100000000000000000000000000000000000000000000000000000000600052602160045260246000fd5b60028110612815576128146127d5565b5b50565b600081905061282682612804565b919050565b600061283682612818565b9050919050565b6128468161282b565b82525050565b600081519050919050565b600082825260208201905092915050565b6000819050602082019050919050565b600081519050919050565b600082825260208201905092915050565b60005b838110156128b2578082015181840152602081019050612897565b838111156128c1576000848401525b50505050565b6000601f19601f8301169050919050565b60006128e382612878565b6128ed8185612883565b93506128fd818560208601612894565b612906816128c7565b840191505092915050565b600061291d83836128d8565b905092915050565b6000602082019050919050565b600061293d8261284c565b6129478185612857565b93508360208202850161295985612868565b8060005b8581101561299557848403895281516129768582612911565b945061298183612925565b925060208a0199505060018101905061295d565b50829750879550505050505092915050565b600060a0830160008301516129bf60008601826127c6565b5060208301516129d2602086018261283d565b50604083015184820360408601526129ea8282612932565b91505060608301518482036060860152612a0482826128d8565b9150506080830151612a1960808601826127c6565b508091505092915050565b60006020820190508181036000830152612a3e81846129a7565b905092915050565b600060408284031215612a5c57612a5b612494565b5b81905092915050565b600060208284031215612a7b57612a7a61241a565b5b600082013567ffffffffffffffff811115612a9957612a9861241f565b5b612aa584828501612a46565b91505092915050565b6000806000806000806000806000806101008b8d031215612ad257612ad161241a565b5b6000612ae08d828e0161247f565b9a50506020612af18d828e01612583565b99505060408b013567ffffffffffffffff811115612b1257612b1161241f565b5b612b1e8d828e016125cc565b98509850506060612b318d828e016125a8565b96505060808b013567ffffffffffffffff811115612b5257612b5161241f565b5b612b5e8d828e01612622565b955095505060a0612b718d828e01612583565b93505060c0612b828d828e01612583565b92505060e08b013567ffffffffffffffff811115612ba357612ba261241f565b5b612baf8d828e016124b8565b9150509295989b9194979a5092959850565b600060408284031215612bd757612bd6612494565b5b81905092915050565b600060208284031215612bf657612bf561241a565b5b600082013567ffffffffffffffff811115612c1457612c1361241f565b5b612c2084828501612bc1565b91505092915050565b600060408284031215612c3f57612c3e612494565b5b81905092915050565b60008060008060808587031215612c6257612c6161241a565b5b6000612c708782880161247f565b945050602085013567ffffffffffffffff811115612c9157612c9061241f565b5b612c9d87828801612499565b935050604085013567ffffffffffffffff811115612cbe57612cbd61241f565b5b612cca87828801612c29565b925050606085013567ffffffffffffffff811115612ceb57612cea61241f565b5b612cf7878288016124b8565b91505092959194509250565b600060608284031215612d1957612d18612494565b5b81905092915050565b600060208284031215612d3857612d3761241a565b5b600082013567ffffffffffffffff811115612d5657612d5561241f565b5b612d6284828501612d03565b91505092915050565b600060208284031215612d8157612d8061241a565b5b6000612d8f84828501612583565b91505092915050565b60008083601f840112612dae57612dad6125bd565b5b8235905067ffffffffffffffff811115612dcb57612dca6125c2565b5b602083019150836001820283011115612de757612de66125c7565b5b9250929050565b600067ffffffffffffffff82169050919050565b612e0b81612dee565b8114612e1657600080fd5b50565b600081359050612e2881612e02565b92915050565b6000819050919050565b612e4181612e2e565b8114612e4c57600080fd5b50565b600081359050612e5e81612e38565b92915050565b600080600080600060808688031215612e8057612e7f61241a565b5b6000612e8e88828901612583565b955050602086013567ffffffffffffffff811115612eaf57612eae61241f565b5b612ebb88828901612d98565b94509450506040612ece88828901612e19565b9250506060612edf88828901612e4f565b9150509295509295909350565b612ef581612444565b82525050565b6000602082019050612f106000830184612eec565b92915050565b600080600060608486031215612f2f57612f2e61241a565b5b6000612f3d86828701612771565b9350506020612f4e86828701612583565b925050604084013567ffffffffffffffff811115612f6f57612f6e61241f565b5b612f7b868287016124b8565b9150509250925092565b612f8e81612562565b82525050565b612f9d8161282b565b82525050565b600082825260208201905092915050565b6000612fbf82612878565b612fc98185612fa3565b9350612fd9818560208601612894565b612fe2816128c7565b840191505092915050565b60006080820190506130026000830187612f85565b61300f6020830186612f94565b81810360408301526130218185612fb4565b90506130306060830184612f85565b95945050505050565b600081519050919050565b600082825260208201905092915050565b600061306082613039565b61306a8185613044565b935061307a818560208601612894565b613083816128c7565b840191505092915050565b600060208201905081810360008301526130a88184613055565b905092915050565b6000602082840312156130c6576130c561241a565b5b60006130d484828501612771565b91505092915050565b7f50726f6f6620766572696669636174696f6e206661696c656400000000000000600082015250565b6000613113601983612fa3565b915061311e826130dd565b602082019050919050565b6000602082019050818103600083015261314281613106565b9050919050565b600080fd5b600080fd5b600080fd5b60008235600160400383360303811261317457613173613149565b5b80830191505092915050565b6000808335600160200384360303811261319d5761319c613149565b5b80840192508235915067ffffffffffffffff8211156131bf576131be61314e565b5b6020830192506001820236038313156131db576131da613153565b5b509250929050565b60008083356001602003843603038112613200576131ff613149565b5b80840192508235915067ffffffffffffffff8211156132225761322161314e565b5b60208301925060018202360383131561323e5761323d613153565b5b509250929050565b60006020828403121561325c5761325b61241a565b5b600061326a84828501612e19565b91505092915050565b82818337600083830152505050565b600061328e8385612fa3565b935061329b838584613273565b6132a4836128c7565b840190509392505050565b60006132bb8385613044565b93506132c8838584613273565b6132d1836128c7565b840190509392505050565b6132e581612dee565b82525050565b6000608082019050818103600083015261330681898b613282565b9050818103602083015261331b818789613282565b905081810360408301526133308185876132af565b905061333f60608301846132dc565b98975050505050505050565b600082825260208201905092915050565b6000819050919050565b60006133728385612883565b935061337f838584613273565b613388836128c7565b840190509392505050565b60006133a0848484613366565b90509392505050565b600080fd5b600080fd5b600080fd5b600080833560016020038436030381126133d5576133d46133b3565b5b83810192508235915060208301925067ffffffffffffffff8211156133fd576133fc6133a9565b5b600182023603841315613413576134126133ae565b5b509250929050565b6000602082019050919050565b6000613434838561334b565b9350836020840285016134468461335c565b8060005b8781101561348c57848403895261346182846133b8565b61346c868284613393565b95506134778461341b565b935060208b019a50505060018101905061344a565b50829750879450505050509392505050565b600060c0820190506134b3600083018b612f85565b6134c0602083018a612f94565b81810360408301526134d381888a613428565b90506134e26060830187612f85565b81810360808301526134f5818587613282565b905061350460a0830184612f85565b9998505050505050505050565b6000815190506135208161256c565b92915050565b60006020828403121561353c5761353b61241a565b5b600061354a84828501613511565b91505092915050565b600060a082019050613568600083018a612f85565b6135756020830189612f94565b8181036040830152613588818789613428565b9050818103606083015261359d818587613282565b90506135ac6080830184612f85565b98975050505050505050565b7f4e487b7100000000000000000000000000000000000000000000000000000000600052602260045260246000fd5b600060028204905060018216806135ff57607f821691505b60208210811415613613576136126135b8565b5b50919050565b7f436c69656e7420616c7265616479206372656174656400000000000000000000600082015250565b600061364f601683612fa3565b915061365a82613619565b602082019050919050565b6000602082019050818103600083015261367e81613642565b9050919050565b60008190508160005260206000209050919050565b600081546136a7816135e7565b6136b18186613044565b945060018216600081146136cc57600181146136de57613711565b60ff1983168652602086019350613711565b6136e785613685565b60005b83811015613709578154818901526001820191506020810190506136ea565b808801955050505b50505092915050565b60006137296020840184612e19565b905092915050565b61373a81612dee565b82525050565b6000808335600160200384360303811261375d5761375c6133b3565b5b83810192508235915060208301925067ffffffffffffffff821115613785576137846133a9565b5b60018202360384131561379b5761379a6133ae565b5b509250929050565b600082825260208201905092915050565b60006137c083856137a3565b93506137cd838584613273565b6137d6836128c7565b840190509392505050565b6000604083016137f4600084018461371a565b6138016000860182613731565b5061380f6020840184613740565b85830360208701526138228382846137b4565b925050508091505092915050565b7f6368616e6e656c2f706174682f746f2f62652f61646465642f68657265000000600082015250565b6000613866601d83613044565b915061387182613830565b602082019050919050565b60006080820190508181036000830152613896818661369a565b905081810360208301526138aa81856137e1565b905081810360408301526138bd81613859565b905081810360608301526138d18184613055565b9050949350505050565b60008115159050919050565b6138f0816138db565b81146138fb57600080fd5b50565b60008151905061390d816138e7565b92915050565b6000602082840312156139295761392861241a565b5b6000613937848285016138fe565b91505092915050565b7f4661696c20746f2070726f7665206368616e6e656c2073746174650000000000600082015250565b6000613976601b83612fa3565b915061398182613940565b602082019050919050565b600060208201905081810360008301526139a581613969565b9050919050565b60006060820190506139c16000830186612f85565b6139ce6020830185612f85565b6139db6040830184612f85565b949350505050565b7f4e487b7100000000000000000000000000000000000000000000000000000000600052604160045260246000fd5b613a1b826128c7565b810181811067ffffffffffffffff82111715613a3a57613a396139e3565b5b80604052505050565b6000613a4d612410565b9050613a598282613a12565b919050565b600067ffffffffffffffff821115613a7957613a786139e3565b5b602082029050602081019050919050565b600080fd5b600067ffffffffffffffff821115613aaa57613aa96139e3565b5b613ab3826128c7565b9050602081019050919050565b6000613ad3613ace84613a8f565b613a43565b905082815260208101848484011115613aef57613aee613a8a565b5b613afa848285613273565b509392505050565b600082601f830112613b1757613b166125bd565b5b8135613b27848260208601613ac0565b91505092915050565b6000613b43613b3e84613a5e565b613a43565b90508083825260208201905060208402830185811115613b6657613b656125c7565b5b835b81811015613bad57803567ffffffffffffffff811115613b8b57613b8a6125bd565b5b808601613b988982613b02565b85526020850194505050602081019050613b68565b5050509392505050565b6000613bc4368484613b30565b905092915050565b60006040820190508181036000830152613be7818688613282565b90508181036020830152613bfc818486613428565b905095945050505050565b7f436c69656e74206e6f7420637265617465640000000000000000000000000000600082015250565b6000613c3d601283612fa3565b9150613c4882613c07565b602082019050919050565b60006020820190508181036000830152613c6c81613c30565b9050919050565b7f5061636b657420636f6d6d69746d656e74206e6f7420666f756e640000000000600082015250565b6000613ca9601b83612fa3565b9150613cb482613c73565b602082019050919050565b60006020820190508181036000830152613cd881613c9c565b9050919050565b600082356001604003833603038112613cfb57613cfa6133b3565b5b82810191505092915050565b6000613d166020840184612583565b905092915050565b600060408301613d3160008401846133b8565b8583036000870152613d44838284613366565b92505050613d556020840184613d07565b613d6260208601826127c6565b508091505092915050565b600082905092915050565b60408201613d89600083018361371a565b613d966000850182613731565b50613da4602083018361371a565b613db16020850182613731565b50505050565b600060c08301613dca6000840184613cdf565b8482036000860152613ddc8282613d1e565b915050613dec6020840184613cdf565b8482036020860152613dfe8282613d1e565b915050613e0e604084018461371a565b613e1b6040860182613731565b50613e296060840184613740565b8583036060870152613e3c8382846137b4565b92505050613e4d6080840184613d6d565b613e5a6080860182613d78565b508091505092915050565b60006020820190508181036000830152613e7f8184613db7565b905092915050565b600081359050613e96816138e7565b92915050565b6000613eab6020840184613e87565b905092915050565b613ebc816138db565b82525050565b600060408301613ed56000840184613e9c565b613ee26000860182613eb3565b50613ef06020840184613740565b8583036020870152613f038382846137b4565b925050508091505092915050565b60006040820190508181036000830152613f2b8185613ec2565b9050613f3a60208301846132dc565b9392505050565b600060608301613f546000840184613740565b8583036000870152613f678382846137b4565b92505050613f78602084018461371a565b613f856020860182613731565b50613f936040840184613740565b8583036040870152613fa68382846137b4565b925050508091505092915050565b60006040820190508181036000830152613fce818561369a565b90508181036020830152613fe28184613f41565b90509392505050565b7f557064617465436c69656e744d73672070726f6f66207665726966696361746960008201527f6f6e206661696c65640000000000000000000000000000000000000000000000602082015250565b6000614047602983612fa3565b915061405282613feb565b604082019050919050565b600060208201905081810360008301526140768161403a565b9050919050565b7f4368616e6e656c206e6f74206f776e6564206279206d73672e73656e64657200600082015250565b60006140b3601f83612fa3565b91506140be8261407d565b602082019050919050565b600060208201905081810360008301526140e2816140a6565b9050919050565b60006060820190506140fe6000830186612f85565b81810360208301526141108185612fb4565b905061411f6040830184612f85565b949350505050565b7f4368616e6e656c206e6f74206f776e65642062792073656e6465720000000000600082015250565b600061415d601b83612fa3565b915061416882614127565b602082019050919050565b6000602082019050818103600083015261418c81614150565b9050919050565b600081905092915050565b50565b60006141ae600083614193565b91506141b98261419e565b600082019050919050565b60006141cf826141a1565b9150819050919050565b7f4661696c656420746f20657363726f77207061636b6574206665650000000000600082015250565b600061420f601b83612fa3565b915061421a826141d9565b602082019050919050565b6000602082019050818103600083015261423e81614202565b9050919050565b7f4e487b7100000000000000000000000000000000000000000000000000000000600052601160045260246000fd5b600061427f82612dee565b915061428a83612dee565b92508267ffffffffffffffff038211156142a7576142a6614245565b5b828201905092915050565b6142bb81612e2e565b82525050565b600060808201905081810360008301526142dc8187896132af565b90506142eb60208301866132dc565b6142f860408301856132dc565b61430560608301846142b2565b9695505050505050565b7f4368616e6e656c206e6f74206f776e656420627920706f727441646472657373600082015250565b6000614345602083612fa3565b91506143508261430f565b602082019050919050565b6000602082019050818103600083015261437481614338565b9050919050565b7f4f776e61626c653a206e6577206f776e657220697320746865207a65726f206160008201527f6464726573730000000000000000000000000000000000000000000000000000602082015250565b60006143d7602683612fa3565b91506143e28261437b565b604082019050919050565b60006020820190508181036000830152614406816143ca565b9050919050565b7f4f776e61626c653a2063616c6c6572206973206e6f7420746865206f776e6572600082015250565b6000614443602083612fa3565b915061444e8261440d565b602082019050919050565b6000602082019050818103600083015261447281614436565b905091905056fe6578706563746564206368616e6e656c20627974657320636f6e73747275637465642066726f6d20706172616d732e204368616e6e656c2e5374617465203d207b41636b5f50656e64696e672c20436f6e6669726d5f50656e64696e677d6578706563746564206368616e6e656c20627974657320636f6e73747275637465642066726f6d20706172616d732e204368616e6e656c2e5374617465203d207b436c6f736564285f50656e64696e673f297da2646970667358221220a2e53aa791844009b32806d8ff81fc98a81262856ea81747379eb5673f6fa70764736f6c63430008090033",
  "linkReferences": {},
  "deployedLinkReferences": {}
}