{
  "_format": "hh-sol-artifact-1",
  "contractName": "Dispatcher",
  "sourceName": "contracts/Dispatcher.sol",
  "abi": [
    {
      "inputs": [
        {
          "internalType": "contract ZKMintVerifier",
          "name": "_verifier",
          "type": "address"
        }
      ],
      "stateMutability": "nonpayable",
      "type": "constructor"
    },
    {
      "anonymous": false,
      "inputs": [
        {
          "indexed": false,
          "internalType": "string",
          "name": "channelId",
          "type": "string"
        },
        {
          "indexed": true,
          "internalType": "address",
          "name": "portId",
          "type": "address"
        }
      ],
      "name": "CloseIbcChannel",
      "type": "event"
    },
    {
      "anonymous": false,
      "inputs": [
        {
          "indexed": true,
          "internalType": "address",
          "name": "portAddress",
          "type": "address"
        },
        {
          "indexed": true,
          "internalType": "bytes32",
          "name": "channelId",
          "type": "bytes32"
        },
        {
          "indexed": false,
          "internalType": "string",
          "name": "counterpartyPortId",
          "type": "string"
        },
        {
          "indexed": true,
          "internalType": "bytes32",
          "name": "counterpartyChannelId",
          "type": "bytes32"
        },
        {
          "indexed": false,
          "internalType": "string[]",
          "name": "connectionHops",
          "type": "string[]"
        }
      ],
      "name": "ConnectIbcChannel",
      "type": "event"
    },
    {
      "anonymous": false,
      "inputs": [
        {
          "indexed": true,
          "internalType": "bytes32",
          "name": "srcChannelId",
          "type": "bytes32"
        },
        {
          "indexed": false,
          "internalType": "string",
          "name": "srcPortId",
          "type": "string"
        },
        {
          "indexed": true,
          "internalType": "bytes32",
          "name": "destChannelId",
          "type": "bytes32"
        },
        {
          "indexed": false,
          "internalType": "string",
          "name": "destPortId",
          "type": "string"
        },
        {
          "indexed": false,
          "internalType": "bytes",
          "name": "data",
          "type": "bytes"
        },
        {
          "indexed": false,
          "internalType": "uint64",
          "name": "sequence",
          "type": "uint64"
        }
      ],
      "name": "OnRecvPacket",
      "type": "event"
    },
    {
      "anonymous": false,
      "inputs": [
        {
          "indexed": true,
          "internalType": "address",
          "name": "portAddress",
          "type": "address"
        },
        {
          "indexed": true,
          "internalType": "bytes32",
          "name": "counterpartyChannelId",
          "type": "bytes32"
        },
        {
          "indexed": false,
          "internalType": "bytes32",
          "name": "version",
          "type": "bytes32"
        },
        {
          "indexed": false,
          "internalType": "enum ChannelOrder",
          "name": "ordering",
          "type": "uint8"
        },
        {
          "indexed": false,
          "internalType": "string[]",
          "name": "connectionHops",
          "type": "string[]"
        },
        {
          "indexed": false,
          "internalType": "string",
          "name": "counterpartyPortId",
          "type": "string"
        },
        {
          "indexed": false,
          "internalType": "bytes32",
          "name": "counterpartyVersion",
          "type": "bytes32"
        }
      ],
      "name": "OpenIbcChannel",
      "type": "event"
    },
    {
      "anonymous": false,
      "inputs": [
        {
          "indexed": true,
          "internalType": "address",
          "name": "previousOwner",
          "type": "address"
        },
        {
          "indexed": true,
          "internalType": "address",
          "name": "newOwner",
          "type": "address"
        }
      ],
      "name": "OwnershipTransferred",
      "type": "event"
    },
    {
      "anonymous": false,
      "inputs": [
        {
          "indexed": true,
          "internalType": "address",
          "name": "portId",
          "type": "address"
        },
        {
          "indexed": true,
          "internalType": "bytes32",
          "name": "channelId",
          "type": "bytes32"
        },
        {
          "indexed": false,
          "internalType": "bytes",
          "name": "packet",
          "type": "bytes"
        },
        {
          "indexed": false,
          "internalType": "uint64",
          "name": "timeoutTimestamp",
          "type": "uint64"
        }
      ],
      "name": "SendPacket",
      "type": "event"
    },
    {
      "inputs": [
        {
          "internalType": "string",
          "name": "channelId",
          "type": "string"
        }
      ],
      "name": "closeIbcChannel",
      "outputs": [],
      "stateMutability": "nonpayable",
      "type": "function"
    },
    {
      "inputs": [
        {
          "internalType": "contract IbcReceiver",
          "name": "portAddress",
          "type": "address"
        },
        {
          "internalType": "bytes32",
          "name": "channelId",
          "type": "bytes32"
        },
        {
          "internalType": "string[]",
          "name": "connectionHops",
          "type": "string[]"
        },
        {
          "internalType": "enum ChannelOrder",
          "name": "ordering",
          "type": "uint8"
        },
        {
          "internalType": "string",
          "name": "counterpartyPortId",
          "type": "string"
        },
        {
          "internalType": "bytes32",
          "name": "counterpartyChannelId",
          "type": "bytes32"
        },
        {
          "internalType": "bytes32",
          "name": "counterpartyVersion",
          "type": "bytes32"
        },
        {
          "components": [
            {
              "internalType": "uint64",
              "name": "proofHeight",
              "type": "uint64"
            },
            {
              "internalType": "bytes",
              "name": "proof",
              "type": "bytes"
            }
          ],
          "internalType": "struct Proof",
          "name": "proof",
          "type": "tuple"
        }
      ],
      "name": "connectIbcChannel",
      "outputs": [],
      "stateMutability": "nonpayable",
      "type": "function"
    },
    {
      "inputs": [
        {
          "internalType": "bytes",
          "name": "clientState",
          "type": "bytes"
        },
        {
          "internalType": "bytes",
          "name": "consensusState",
          "type": "bytes"
        }
      ],
      "name": "createClient",
      "outputs": [],
      "stateMutability": "nonpayable",
      "type": "function"
    },
    {
      "inputs": [
        {
          "internalType": "address",
          "name": "portAddress",
          "type": "address"
        },
        {
          "internalType": "bytes32",
          "name": "channelId",
          "type": "bytes32"
        }
      ],
      "name": "getChannel",
      "outputs": [
        {
          "components": [
            {
              "internalType": "bytes32",
              "name": "version",
              "type": "bytes32"
            },
            {
              "internalType": "enum ChannelOrder",
              "name": "ordering",
              "type": "uint8"
            },
            {
              "internalType": "string[]",
              "name": "connectionHops",
              "type": "string[]"
            },
            {
              "internalType": "string",
              "name": "counterpartyPortId",
              "type": "string"
            },
            {
              "internalType": "bytes32",
              "name": "counterpartyChannelId",
              "type": "bytes32"
            }
          ],
          "internalType": "struct Channel",
          "name": "",
          "type": "tuple"
        }
      ],
      "stateMutability": "view",
      "type": "function"
    },
    {
      "inputs": [],
      "name": "latestConsensusState",
      "outputs": [
        {
          "internalType": "bytes",
          "name": "",
          "type": "bytes"
        }
      ],
      "stateMutability": "view",
      "type": "function"
    },
    {
      "inputs": [
        {
          "internalType": "contract IbcReceiver",
          "name": "receiver",
          "type": "address"
        },
        {
          "components": [
            {
              "components": [
                {
                  "internalType": "string",
                  "name": "portId",
                  "type": "string"
                },
                {
                  "internalType": "bytes32",
                  "name": "channelId",
                  "type": "bytes32"
                }
              ],
              "internalType": "struct IbcEndpoint",
              "name": "src",
              "type": "tuple"
            },
            {
              "components": [
                {
                  "internalType": "string",
                  "name": "portId",
                  "type": "string"
                },
                {
                  "internalType": "bytes32",
                  "name": "channelId",
                  "type": "bytes32"
                }
              ],
              "internalType": "struct IbcEndpoint",
              "name": "dest",
              "type": "tuple"
            },
            {
              "internalType": "uint64",
              "name": "sequence",
              "type": "uint64"
            },
            {
              "internalType": "bytes",
              "name": "data",
              "type": "bytes"
            },
            {
              "components": [
                {
                  "internalType": "uint64",
                  "name": "block",
                  "type": "uint64"
                },
                {
                  "internalType": "uint64",
                  "name": "timestamp",
                  "type": "uint64"
                }
              ],
              "internalType": "struct IbcTimeout",
              "name": "timeout",
              "type": "tuple"
            }
          ],
          "internalType": "struct IbcPacket",
          "name": "packet",
          "type": "tuple"
        },
        {
          "internalType": "bytes",
          "name": "acknowledgement",
          "type": "bytes"
        },
        {
          "components": [
            {
              "internalType": "uint64",
              "name": "proofHeight",
              "type": "uint64"
            },
            {
              "internalType": "bytes",
              "name": "proof",
              "type": "bytes"
            }
          ],
          "internalType": "struct Proof",
          "name": "proof",
          "type": "tuple"
        }
      ],
      "name": "onAcknowledgementPacket",
      "outputs": [],
      "stateMutability": "nonpayable",
      "type": "function"
    },
    {
      "inputs": [
        {
          "internalType": "contract IbcReceiver",
          "name": "receiver",
          "type": "address"
        },
        {
          "components": [
            {
              "components": [
                {
                  "internalType": "string",
                  "name": "portId",
                  "type": "string"
                },
                {
                  "internalType": "bytes32",
                  "name": "channelId",
                  "type": "bytes32"
                }
              ],
              "internalType": "struct IbcEndpoint",
              "name": "src",
              "type": "tuple"
            },
            {
              "components": [
                {
                  "internalType": "string",
                  "name": "portId",
                  "type": "string"
                },
                {
                  "internalType": "bytes32",
                  "name": "channelId",
                  "type": "bytes32"
                }
              ],
              "internalType": "struct IbcEndpoint",
              "name": "dest",
              "type": "tuple"
            },
            {
              "internalType": "uint64",
              "name": "sequence",
              "type": "uint64"
            },
            {
              "internalType": "bytes",
              "name": "data",
              "type": "bytes"
            },
            {
              "components": [
                {
                  "internalType": "uint64",
                  "name": "block",
                  "type": "uint64"
                },
                {
                  "internalType": "uint64",
                  "name": "timestamp",
                  "type": "uint64"
                }
              ],
              "internalType": "struct IbcTimeout",
              "name": "timeout",
              "type": "tuple"
            }
          ],
          "internalType": "struct IbcPacket",
          "name": "packet",
          "type": "tuple"
        },
        {
          "components": [
            {
              "internalType": "uint64",
              "name": "proofHeight",
              "type": "uint64"
            },
            {
              "internalType": "bytes",
              "name": "proof",
              "type": "bytes"
            }
          ],
          "internalType": "struct Proof",
          "name": "proof",
          "type": "tuple"
        }
      ],
      "name": "onRecvPacket",
      "outputs": [],
      "stateMutability": "nonpayable",
      "type": "function"
    },
    {
      "inputs": [
        {
          "internalType": "contract IbcReceiver",
          "name": "receiver",
          "type": "address"
        },
        {
          "components": [
            {
              "components": [
                {
                  "internalType": "string",
                  "name": "portId",
                  "type": "string"
                },
                {
                  "internalType": "bytes32",
                  "name": "channelId",
                  "type": "bytes32"
                }
              ],
              "internalType": "struct IbcEndpoint",
              "name": "src",
              "type": "tuple"
            },
            {
              "components": [
                {
                  "internalType": "string",
                  "name": "portId",
                  "type": "string"
                },
                {
                  "internalType": "bytes32",
                  "name": "channelId",
                  "type": "bytes32"
                }
              ],
              "internalType": "struct IbcEndpoint",
              "name": "dest",
              "type": "tuple"
            },
            {
              "internalType": "uint64",
              "name": "sequence",
              "type": "uint64"
            },
            {
              "internalType": "bytes",
              "name": "data",
              "type": "bytes"
            },
            {
              "components": [
                {
                  "internalType": "uint64",
                  "name": "block",
                  "type": "uint64"
                },
                {
                  "internalType": "uint64",
                  "name": "timestamp",
                  "type": "uint64"
                }
              ],
              "internalType": "struct IbcTimeout",
              "name": "timeout",
              "type": "tuple"
            }
          ],
          "internalType": "struct IbcPacket",
          "name": "packet",
          "type": "tuple"
        },
        {
          "components": [
            {
              "internalType": "uint64",
              "name": "proofHeight",
              "type": "uint64"
            },
            {
              "internalType": "bytes",
              "name": "proof",
              "type": "bytes"
            }
          ],
          "internalType": "struct Proof",
          "name": "proof",
          "type": "tuple"
        }
      ],
      "name": "onTimeoutPacket",
      "outputs": [],
      "stateMutability": "nonpayable",
      "type": "function"
    },
    {
      "inputs": [
        {
          "internalType": "contract IbcReceiver",
          "name": "portAddress",
          "type": "address"
        },
        {
          "internalType": "bytes32",
          "name": "version",
          "type": "bytes32"
        },
        {
          "internalType": "enum ChannelOrder",
          "name": "ordering",
          "type": "uint8"
        },
        {
          "internalType": "string[]",
          "name": "connectionHops",
          "type": "string[]"
        },
        {
          "internalType": "bytes32",
          "name": "counterpartyChannelId",
          "type": "bytes32"
        },
        {
          "internalType": "string",
          "name": "counterpartyPortId",
          "type": "string"
        },
        {
          "internalType": "bytes32",
          "name": "counterpartyVersion",
          "type": "bytes32"
        },
        {
          "components": [
            {
              "internalType": "uint64",
              "name": "proofHeight",
              "type": "uint64"
            },
            {
              "internalType": "bytes",
              "name": "proof",
              "type": "bytes"
            }
          ],
          "internalType": "struct Proof",
          "name": "proof",
          "type": "tuple"
        }
      ],
      "name": "openIbcChannel",
      "outputs": [],
      "stateMutability": "nonpayable",
      "type": "function"
    },
    {
      "inputs": [],
      "name": "owner",
      "outputs": [
        {
          "internalType": "address",
          "name": "",
          "type": "address"
        }
      ],
      "stateMutability": "view",
      "type": "function"
    },
    {
      "inputs": [
        {
          "internalType": "address",
          "name": "",
          "type": "address"
        },
        {
          "internalType": "bytes32",
          "name": "",
          "type": "bytes32"
        }
      ],
      "name": "portChannelMap",
      "outputs": [
        {
          "internalType": "bytes32",
          "name": "version",
          "type": "bytes32"
        },
        {
          "internalType": "enum ChannelOrder",
          "name": "ordering",
          "type": "uint8"
        },
        {
          "internalType": "string",
          "name": "counterpartyPortId",
          "type": "string"
        },
        {
          "internalType": "bytes32",
          "name": "counterpartyChannelId",
          "type": "bytes32"
        }
      ],
      "stateMutability": "view",
      "type": "function"
    },
    {
      "inputs": [],
      "name": "renounceOwnership",
      "outputs": [],
      "stateMutability": "nonpayable",
      "type": "function"
    },
    {
      "inputs": [
        {
          "internalType": "bytes32",
          "name": "channelId",
          "type": "bytes32"
        },
        {
          "internalType": "bytes",
          "name": "packet",
          "type": "bytes"
        },
        {
          "internalType": "uint64",
          "name": "timeoutTimestamp",
          "type": "uint64"
        }
      ],
      "name": "sendPacket",
      "outputs": [],
      "stateMutability": "nonpayable",
      "type": "function"
    },
    {
      "inputs": [
        {
          "internalType": "address",
          "name": "newOwner",
          "type": "address"
        }
      ],
      "name": "transferOwnership",
      "outputs": [],
      "stateMutability": "nonpayable",
      "type": "function"
    },
    {
      "inputs": [
        {
          "internalType": "bytes",
          "name": "consensusState",
          "type": "bytes"
        }
      ],
      "name": "updateClient",
      "outputs": [],
      "stateMutability": "nonpayable",
      "type": "function"
    }
  ],
  "bytecode": "0x60806040526000600360006101000a81548167ffffffffffffffff021916908367ffffffffffffffff1602179055503480156200003b57600080fd5b50604051620033973803806200339783398181016040528101906200006191906200022e565b6200008162000075620000e460201b60201c565b620000ec60201b60201c565b80600160006101000a81548173ffffffffffffffffffffffffffffffffffffffff021916908373ffffffffffffffffffffffffffffffffffffffff1602179055506000600160146101000a81548160ff0219169083151502179055505062000260565b600033905090565b60008060009054906101000a900473ffffffffffffffffffffffffffffffffffffffff169050816000806101000a81548173ffffffffffffffffffffffffffffffffffffffff021916908373ffffffffffffffffffffffffffffffffffffffff1602179055508173ffffffffffffffffffffffffffffffffffffffff168173ffffffffffffffffffffffffffffffffffffffff167f8be0079c531659141344cd1fd0a4f28419497f9722a3daafe3b4186f6b6457e060405160405180910390a35050565b600080fd5b600073ffffffffffffffffffffffffffffffffffffffff82169050919050565b6000620001e282620001b5565b9050919050565b6000620001f682620001d5565b9050919050565b6200020881620001e9565b81146200021457600080fd5b50565b6000815190506200022881620001fd565b92915050565b600060208284031215620002475762000246620001b0565b5b6000620002578482850162000217565b91505092915050565b61312780620002706000396000f3fe608060405234801561001057600080fd5b50600436106100f55760003560e01c8063715018a611610097578063c3e1155c11610066578063c3e1155c1461024b578063d2e9aa5614610267578063e6815c1214610283578063f2fde38b1461029f576100f5565b8063715018a6146101d25780638da5cb5b146101dc578063b2b1bf03146101fa578063c2a2514d1461022d576100f5565b80633e24aaf3116100d35780633e24aaf31461014e57806342852d241461016a5780634c9778d31461019a57806364260a60146101b6576100f5565b80630ad8d666146100fa5780630bece3561461011657806328f2c4c014610132575b600080fd5b610114600480360381019061010f91906115c1565b6102bb565b005b610130600480360381019061012b91906116b1565b6103cd565b005b61014c60048036038101906101479190611805565b610521565b005b61016860048036038101906101639190611918565b61072d565b005b610184600480360381019061017f91906119c5565b6107b7565b6040516101919190611c63565b60405180910390f35b6101b460048036038101906101af9190611c85565b6109dc565b005b6101d060048036038101906101cb91906115c1565b610d0e565b005b6101da610dc6565b005b6101e4610dda565b6040516101f19190611da7565b60405180910390f35b610214600480360381019061020f91906119c5565b610e03565b6040516102249493929190611e2a565b60405180910390f35b610235610ed5565b6040516102429190611ecb565b60405180910390f35b61026560048036038101906102609190611f2d565b610f63565b005b610281600480360381019061027c9190611fa1565b610fbc565b005b61029d60048036038101906102989190612061565b611076565b005b6102b960048036038101906102b491906120ae565b6110ca565b005b6102c48161114e565b610303576040517f08c379a00000000000000000000000000000000000000000000000000000000081526004016102fa90612127565b60405180910390fd5b8180602001906103139190612156565b602001358280600001906103279190612156565b602001357f080631928e492258b6a102fc2ab3e0a8dfcb747ab0885c25f9cb7a8d4862103684806000019061035c9190612156565b806000019061036b919061217e565b86806020019061037b9190612156565b806000019061038a919061217e565b88806060019061039a91906121e1565b8a60400160208101906103ad9190612244565b6040516103c097969594939291906122e9565b60405180910390a3505050565b600160149054906101000a900460ff1661041c576040517f08c379a000000000000000000000000000000000000000000000000000000000815260040161041390612395565b60405180910390fd5b600160009054906101000a900473ffffffffffffffffffffffffffffffffffffffff1673ffffffffffffffffffffffffffffffffffffffff1663e1ec100c600284846040518463ffffffff1660e01b815260040161047c939291906124ab565b60206040518083038186803b15801561049457600080fd5b505afa1580156104a8573d6000803e3d6000fd5b505050506040513d601f19601f820116820180604052508101906104cc919061251c565b61050b576040517f08c379a0000000000000000000000000000000000000000000000000000000008152600401610502906125bb565b60405180910390fd5b81816002919061051c9291906112c6565b505050565b600160009054906101000a900473ffffffffffffffffffffffffffffffffffffffff1673ffffffffffffffffffffffffffffffffffffffff16639511059d6002836040518060800160405280605b8152602001613097605b91396040518463ffffffff1660e01b81526004016105999392919061274c565b60206040518083038186803b1580156105b157600080fd5b505afa1580156105c5573d6000803e3d6000fd5b505050506040513d601f19601f820116820180604052508101906105e9919061251c565b610628576040517f08c379a000000000000000000000000000000000000000000000000000000000815260040161061f906127f7565b60405180910390fd5b60008a73ffffffffffffffffffffffffffffffffffffffff1663486592198b8b8b8b8b8b8b8b6040518963ffffffff1660e01b815260040161067198979695949392919061295b565b602060405180830381600087803b15801561068b57600080fd5b505af115801561069f573d6000803e3d6000fd5b505050506040513d601f19601f820116820180604052508101906106c391906129e3565b9050858b73ffffffffffffffffffffffffffffffffffffffff167f9a93c124e7f0aa93d3fbe660b1366e0483b4267619924382261498efbb92c873838c8c8c8b8b8b6040516107189796959493929190612a10565b60405180910390a35050505050505050505050565b61073561117c565b600160149054906101000a900460ff1615610785576040517f08c379a000000000000000000000000000000000000000000000000000000000815260040161077c90612ac1565b60405180910390fd5b60018060146101000a81548160ff0219169083151502179055508181600291906107b09291906112c6565b5050505050565b6107bf61134c565b600460008473ffffffffffffffffffffffffffffffffffffffff1673ffffffffffffffffffffffffffffffffffffffff16815260200190815260200160002060008381526020019081526020016000206040518060a0016040529081600082015481526020016001820160009054906101000a900460ff16600181111561084957610848611a14565b5b600181111561085b5761085a611a14565b5b815260200160028201805480602002602001604051908101604052809291908181526020016000905b828210156109305783829060005260206000200180546108a3906123e4565b80601f01602080910402602001604051908101604052809291908181526020018280546108cf906123e4565b801561091c5780601f106108f15761010080835404028352916020019161091c565b820191906000526020600020905b8154815290600101906020018083116108ff57829003601f168201915b505050505081526020019060010190610884565b505050508152602001600382018054610948906123e4565b80601f0160208091040260200160405190810160405280929190818152602001828054610974906123e4565b80156109c15780601f10610996576101008083540402835291602001916109c1565b820191906000526020600020905b8154815290600101906020018083116109a457829003601f168201915b50505050508152602001600482015481525050905092915050565b600160009054906101000a900473ffffffffffffffffffffffffffffffffffffffff1673ffffffffffffffffffffffffffffffffffffffff16639511059d6002836040518060800160405280605e8152602001613039605e91396040518463ffffffff1660e01b8152600401610a549392919061274c565b60206040518083038186803b158015610a6c57600080fd5b505afa158015610a80573d6000803e3d6000fd5b505050506040513d601f19601f82011682018060405250810190610aa4919061251c565b610ae3576040517f08c379a0000000000000000000000000000000000000000000000000000000008152600401610ada906127f7565b60405180910390fd5b8973ffffffffffffffffffffffffffffffffffffffff1663e60a72938a85856040518463ffffffff1660e01b8152600401610b2093929190612ae1565b600060405180830381600087803b158015610b3a57600080fd5b505af1158015610b4e573d6000803e3d6000fd5b505050506040518060a00160405280838152602001876001811115610b7657610b75611a14565b5b8152602001898990610b889190612cec565b815260200186868080601f016020809104026020016040519081016040528093929190818152602001838380828437600081840152601f19601f82011690508083019250505050505050815260200184815250600460008c73ffffffffffffffffffffffffffffffffffffffff1673ffffffffffffffffffffffffffffffffffffffff16815260200190815260200160002060008b81526020019081526020016000206000820151816000015560208201518160010160006101000a81548160ff02191690836001811115610c6057610c5f611a14565b5b02179055506040820151816002019080519060200190610c81929190611393565b506060820151816003019080519060200190610c9e9291906113f3565b506080820151816004015590505082898b73ffffffffffffffffffffffffffffffffffffffff167f57ea540ad7b8bfd2813b8637764ba029fedc52de3f812934a46511506aa11b8e88888d8d604051610cfa9493929190612d01565b60405180910390a450505050505050505050565b610d178161114e565b610d56576040517f08c379a0000000000000000000000000000000000000000000000000000000008152600401610d4d90612127565b60405180910390fd5b8273ffffffffffffffffffffffffffffffffffffffff1663b33c2577836040518263ffffffff1660e01b8152600401610d8f9190612ec2565b600060405180830381600087803b158015610da957600080fd5b505af1158015610dbd573d6000803e3d6000fd5b50505050505050565b610dce61117c565b610dd860006111fa565b565b60008060009054906101000a900473ffffffffffffffffffffffffffffffffffffffff16905090565b6004602052816000526040600020602052806000526040600020600091509150508060000154908060010160009054906101000a900460ff1690806003018054610e4c906123e4565b80601f0160208091040260200160405190810160405280929190818152602001828054610e78906123e4565b8015610ec55780601f10610e9a57610100808354040283529160200191610ec5565b820191906000526020600020905b815481529060010190602001808311610ea857829003601f168201915b5050505050908060040154905084565b60028054610ee2906123e4565b80601f0160208091040260200160405190810160405280929190818152602001828054610f0e906123e4565b8015610f5b5780601f10610f3057610100808354040283529160200191610f5b565b820191906000526020600020905b815481529060010190602001808311610f3e57829003601f168201915b505050505081565b833373ffffffffffffffffffffffffffffffffffffffff167fe5f4762afde15256ce24aa385b449d27b7d2776921f3c673f8162ddb5b7a2f16858585604051610fae93929190612ee4565b60405180910390a350505050565b610fc58161114e565b611004576040517f08c379a0000000000000000000000000000000000000000000000000000000008152600401610ffb90612127565b60405180910390fd5b8473ffffffffffffffffffffffffffffffffffffffff1663f45cf5e4856040518263ffffffff1660e01b815260040161103d9190612ec2565b600060405180830381600087803b15801561105757600080fd5b505af115801561106b573d6000803e3d6000fd5b505050505050505050565b3373ffffffffffffffffffffffffffffffffffffffff167f18280cf62c6d3f3519d7cff5c5b7e91021dd17a0278ba5668976d82bdc9faa9e83836040516110be929190612f16565b60405180910390a25050565b6110d261117c565b600073ffffffffffffffffffffffffffffffffffffffff168173ffffffffffffffffffffffffffffffffffffffff161415611142576040517f08c379a000000000000000000000000000000000000000000000000000000000815260040161113990612fac565b60405180910390fd5b61114b816111fa565b50565b60008082806020019061116191906121e1565b905014156111725760009050611177565b600190505b919050565b6111846112be565b73ffffffffffffffffffffffffffffffffffffffff166111a2610dda565b73ffffffffffffffffffffffffffffffffffffffff16146111f8576040517f08c379a00000000000000000000000000000000000000000000000000000000081526004016111ef90613018565b60405180910390fd5b565b60008060009054906101000a900473ffffffffffffffffffffffffffffffffffffffff169050816000806101000a81548173ffffffffffffffffffffffffffffffffffffffff021916908373ffffffffffffffffffffffffffffffffffffffff1602179055508173ffffffffffffffffffffffffffffffffffffffff168173ffffffffffffffffffffffffffffffffffffffff167f8be0079c531659141344cd1fd0a4f28419497f9722a3daafe3b4186f6b6457e060405160405180910390a35050565b600033905090565b8280546112d2906123e4565b90600052602060002090601f0160209004810192826112f4576000855561133b565b82601f1061130d57803560ff191683800117855561133b565b8280016001018555821561133b579182015b8281111561133a57823582559160200191906001019061131f565b5b5090506113489190611479565b5090565b6040518060a00160405280600080191681526020016000600181111561137557611374611a14565b5b81526020016060815260200160608152602001600080191681525090565b8280548282559060005260206000209081019282156113e2579160200282015b828111156113e15782518290805190602001906113d19291906113f3565b50916020019190600101906113b3565b5b5090506113ef9190611496565b5090565b8280546113ff906123e4565b90600052602060002090601f0160209004810192826114215760008555611468565b82601f1061143a57805160ff1916838001178555611468565b82800160010185558215611468579182015b8281111561146757825182559160200191906001019061144c565b5b5090506114759190611479565b5090565b5b8082111561149257600081600090555060010161147a565b5090565b5b808211156114b657600081816114ad91906114ba565b50600101611497565b5090565b5080546114c6906123e4565b6000825580601f106114d857506114f7565b601f0160209004906000526020600020908101906114f69190611479565b5b50565b6000604051905090565b600080fd5b600080fd5b600073ffffffffffffffffffffffffffffffffffffffff82169050919050565b60006115398261150e565b9050919050565b600061154b8261152e565b9050919050565b61155b81611540565b811461156657600080fd5b50565b60008135905061157881611552565b92915050565b600080fd5b600060c082840312156115995761159861157e565b5b81905092915050565b6000604082840312156115b8576115b761157e565b5b81905092915050565b6000806000606084860312156115da576115d9611504565b5b60006115e886828701611569565b935050602084013567ffffffffffffffff81111561160957611608611509565b5b61161586828701611583565b925050604084013567ffffffffffffffff81111561163657611635611509565b5b611642868287016115a2565b9150509250925092565b600080fd5b600080fd5b600080fd5b60008083601f8401126116715761167061164c565b5b8235905067ffffffffffffffff81111561168e5761168d611651565b5b6020830191508360018202830111156116aa576116a9611656565b5b9250929050565b600080602083850312156116c8576116c7611504565b5b600083013567ffffffffffffffff8111156116e6576116e5611509565b5b6116f28582860161165b565b92509250509250929050565b6000819050919050565b611711816116fe565b811461171c57600080fd5b50565b60008135905061172e81611708565b92915050565b6002811061174157600080fd5b50565b60008135905061175381611734565b92915050565b60008083601f84011261176f5761176e61164c565b5b8235905067ffffffffffffffff81111561178c5761178b611651565b5b6020830191508360208202830111156117a8576117a7611656565b5b9250929050565b60008083601f8401126117c5576117c461164c565b5b8235905067ffffffffffffffff8111156117e2576117e1611651565b5b6020830191508360018202830111156117fe576117fd611656565b5b9250929050565b6000806000806000806000806000806101008b8d03121561182957611828611504565b5b60006118378d828e01611569565b9a505060206118488d828e0161171f565b99505060406118598d828e01611744565b98505060608b013567ffffffffffffffff81111561187a57611879611509565b5b6118868d828e01611759565b975097505060806118998d828e0161171f565b95505060a08b013567ffffffffffffffff8111156118ba576118b9611509565b5b6118c68d828e016117af565b945094505060c06118d98d828e0161171f565b92505060e08b013567ffffffffffffffff8111156118fa576118f9611509565b5b6119068d828e016115a2565b9150509295989b9194979a5092959850565b6000806000806040858703121561193257611931611504565b5b600085013567ffffffffffffffff8111156119505761194f611509565b5b61195c8782880161165b565b9450945050602085013567ffffffffffffffff81111561197f5761197e611509565b5b61198b8782880161165b565b925092505092959194509250565b6119a28161152e565b81146119ad57600080fd5b50565b6000813590506119bf81611999565b92915050565b600080604083850312156119dc576119db611504565b5b60006119ea858286016119b0565b92505060206119fb8582860161171f565b9150509250929050565b611a0e816116fe565b82525050565b7f4e487b7100000000000000000000000000000000000000000000000000000000600052602160045260246000fd5b60028110611a5457611a53611a14565b5b50565b6000819050611a6582611a43565b919050565b6000611a7582611a57565b9050919050565b611a8581611a6a565b82525050565b600081519050919050565b600082825260208201905092915050565b6000819050602082019050919050565b600081519050919050565b600082825260208201905092915050565b60005b83811015611af1578082015181840152602081019050611ad6565b83811115611b00576000848401525b50505050565b6000601f19601f8301169050919050565b6000611b2282611ab7565b611b2c8185611ac2565b9350611b3c818560208601611ad3565b611b4581611b06565b840191505092915050565b6000611b5c8383611b17565b905092915050565b6000602082019050919050565b6000611b7c82611a8b565b611b868185611a96565b935083602082028501611b9885611aa7565b8060005b85811015611bd45784840389528151611bb58582611b50565b9450611bc083611b64565b925060208a01995050600181019050611b9c565b50829750879550505050505092915050565b600060a083016000830151611bfe6000860182611a05565b506020830151611c116020860182611a7c565b5060408301518482036040860152611c298282611b71565b91505060608301518482036060860152611c438282611b17565b9150506080830151611c586080860182611a05565b508091505092915050565b60006020820190508181036000830152611c7d8184611be6565b905092915050565b6000806000806000806000806000806101008b8d031215611ca957611ca8611504565b5b6000611cb78d828e01611569565b9a50506020611cc88d828e0161171f565b99505060408b013567ffffffffffffffff811115611ce957611ce8611509565b5b611cf58d828e01611759565b98509850506060611d088d828e01611744565b96505060808b013567ffffffffffffffff811115611d2957611d28611509565b5b611d358d828e016117af565b955095505060a0611d488d828e0161171f565b93505060c0611d598d828e0161171f565b92505060e08b013567ffffffffffffffff811115611d7a57611d79611509565b5b611d868d828e016115a2565b9150509295989b9194979a5092959850565b611da18161152e565b82525050565b6000602082019050611dbc6000830184611d98565b92915050565b611dcb816116fe565b82525050565b611dda81611a6a565b82525050565b600082825260208201905092915050565b6000611dfc82611ab7565b611e068185611de0565b9350611e16818560208601611ad3565b611e1f81611b06565b840191505092915050565b6000608082019050611e3f6000830187611dc2565b611e4c6020830186611dd1565b8181036040830152611e5e8185611df1565b9050611e6d6060830184611dc2565b95945050505050565b600081519050919050565b600082825260208201905092915050565b6000611e9d82611e76565b611ea78185611e81565b9350611eb7818560208601611ad3565b611ec081611b06565b840191505092915050565b60006020820190508181036000830152611ee58184611e92565b905092915050565b600067ffffffffffffffff82169050919050565b611f0a81611eed565b8114611f1557600080fd5b50565b600081359050611f2781611f01565b92915050565b60008060008060608587031215611f4757611f46611504565b5b6000611f558782880161171f565b945050602085013567ffffffffffffffff811115611f7657611f75611509565b5b611f828782880161165b565b93509350506040611f9587828801611f18565b91505092959194509250565b600080600080600060808688031215611fbd57611fbc611504565b5b6000611fcb88828901611569565b955050602086013567ffffffffffffffff811115611fec57611feb611509565b5b611ff888828901611583565b945050604086013567ffffffffffffffff81111561201957612018611509565b5b6120258882890161165b565b9350935050606086013567ffffffffffffffff81111561204857612047611509565b5b612054888289016115a2565b9150509295509295909350565b6000806020838503121561207857612077611504565b5b600083013567ffffffffffffffff81111561209657612095611509565b5b6120a2858286016117af565b92509250509250929050565b6000602082840312156120c4576120c3611504565b5b60006120d2848285016119b0565b91505092915050565b7f50726f6f6620766572696669636174696f6e206661696c656400000000000000600082015250565b6000612111601983611de0565b915061211c826120db565b602082019050919050565b6000602082019050818103600083015261214081612104565b9050919050565b600080fd5b600080fd5b600080fd5b60008235600160400383360303811261217257612171612147565b5b80830191505092915050565b6000808335600160200384360303811261219b5761219a612147565b5b80840192508235915067ffffffffffffffff8211156121bd576121bc61214c565b5b6020830192506001820236038313156121d9576121d8612151565b5b509250929050565b600080833560016020038436030381126121fe576121fd612147565b5b80840192508235915067ffffffffffffffff8211156122205761221f61214c565b5b60208301925060018202360383131561223c5761223b612151565b5b509250929050565b60006020828403121561225a57612259611504565b5b600061226884828501611f18565b91505092915050565b82818337600083830152505050565b600061228c8385611de0565b9350612299838584612271565b6122a283611b06565b840190509392505050565b60006122b98385611e81565b93506122c6838584612271565b6122cf83611b06565b840190509392505050565b6122e381611eed565b82525050565b6000608082019050818103600083015261230481898b612280565b90508181036020830152612319818789612280565b9050818103604083015261232e8185876122ad565b905061233d60608301846122da565b98975050505050505050565b7f436c69656e74206e6f7420637265617465640000000000000000000000000000600082015250565b600061237f601283611de0565b915061238a82612349565b602082019050919050565b600060208201905081810360008301526123ae81612372565b9050919050565b7f4e487b7100000000000000000000000000000000000000000000000000000000600052602260045260246000fd5b600060028204905060018216806123fc57607f821691505b602082108114156124105761240f6123b5565b5b50919050565b60008190508160005260206000209050919050565b60008154612438816123e4565b6124428186611e81565b9450600182166000811461245d576001811461246f576124a2565b60ff19831686526020860193506124a2565b61247885612416565b60005b8381101561249a5781548189015260018201915060208101905061247b565b808801955050505b50505092915050565b600060408201905081810360008301526124c5818661242b565b905081810360208301526124da8184866122ad565b9050949350505050565b60008115159050919050565b6124f9816124e4565b811461250457600080fd5b50565b600081519050612516816124f0565b92915050565b60006020828403121561253257612531611504565b5b600061254084828501612507565b91505092915050565b7f436f6e73656e73757320737461746520766572696669636174696f6e2066616960008201527f6c65640000000000000000000000000000000000000000000000000000000000602082015250565b60006125a5602383611de0565b91506125b082612549565b604082019050919050565b600060208201905081810360008301526125d481612598565b9050919050565b60006125ea6020840184611f18565b905092915050565b6125fb81611eed565b82525050565b600080fd5b600080fd5b600080fd5b6000808335600160200384360303811261262d5761262c61260b565b5b83810192508235915060208301925067ffffffffffffffff82111561265557612654612601565b5b60018202360384131561266b5761266a612606565b5b509250929050565b600082825260208201905092915050565b60006126908385612673565b935061269d838584612271565b6126a683611b06565b840190509392505050565b6000604083016126c460008401846125db565b6126d160008601826125f2565b506126df6020840184612610565b85830360208701526126f2838284612684565b925050508091505092915050565b7f6368616e6e656c2f706174682f746f2f62652f61646465642f68657265000000600082015250565b6000612736601d83611e81565b915061274182612700565b602082019050919050565b60006080820190508181036000830152612766818661242b565b9050818103602083015261277a81856126b1565b9050818103604083015261278d81612729565b905081810360608301526127a18184611e92565b9050949350505050565b7f4661696c20746f2070726f7665206368616e6e656c2073746174650000000000600082015250565b60006127e1601b83611de0565b91506127ec826127ab565b602082019050919050565b60006020820190508181036000830152612810816127d4565b9050919050565b600082825260208201905092915050565b6000819050919050565b600061283e8385611ac2565b935061284b838584612271565b61285483611b06565b840190509392505050565b600061286c848484612832565b90509392505050565b600080833560016020038436030381126128925761289161260b565b5b83810192508235915060208301925067ffffffffffffffff8211156128ba576128b9612601565b5b6001820236038413156128d0576128cf612606565b5b509250929050565b6000602082019050919050565b60006128f18385612817565b93508360208402850161290384612828565b8060005b8781101561294957848403895261291e8284612875565b61292986828461285f565b9550612934846128d8565b935060208b019a505050600181019050612907565b50829750879450505050509392505050565b600060c082019050612970600083018b611dc2565b61297d602083018a611dd1565b818103604083015261299081888a6128e5565b905061299f6060830187611dc2565b81810360808301526129b2818587612280565b90506129c160a0830184611dc2565b9998505050505050505050565b6000815190506129dd81611708565b92915050565b6000602082840312156129f9576129f8611504565b5b6000612a07848285016129ce565b91505092915050565b600060a082019050612a25600083018a611dc2565b612a326020830189611dd1565b8181036040830152612a458187896128e5565b90508181036060830152612a5a818587612280565b9050612a696080830184611dc2565b98975050505050505050565b7f436c69656e7420616c7265616479206372656174656400000000000000000000600082015250565b6000612aab601683611de0565b9150612ab682612a75565b602082019050919050565b60006020820190508181036000830152612ada81612a9e565b9050919050565b6000606082019050612af66000830186611dc2565b612b036020830185611dc2565b612b106040830184611dc2565b949350505050565b7f4e487b7100000000000000000000000000000000000000000000000000000000600052604160045260246000fd5b612b5082611b06565b810181811067ffffffffffffffff82111715612b6f57612b6e612b18565b5b80604052505050565b6000612b826114fa565b9050612b8e8282612b47565b919050565b600067ffffffffffffffff821115612bae57612bad612b18565b5b602082029050602081019050919050565b600080fd5b600067ffffffffffffffff821115612bdf57612bde612b18565b5b612be882611b06565b9050602081019050919050565b6000612c08612c0384612bc4565b612b78565b905082815260208101848484011115612c2457612c23612bbf565b5b612c2f848285612271565b509392505050565b600082601f830112612c4c57612c4b61164c565b5b8135612c5c848260208601612bf5565b91505092915050565b6000612c78612c7384612b93565b612b78565b90508083825260208201905060208402830185811115612c9b57612c9a611656565b5b835b81811015612ce257803567ffffffffffffffff811115612cc057612cbf61164c565b5b808601612ccd8982612c37565b85526020850194505050602081019050612c9d565b5050509392505050565b6000612cf9368484612c65565b905092915050565b60006040820190508181036000830152612d1c818688612280565b90508181036020830152612d318184866128e5565b905095945050505050565b600082356001604003833603038112612d5857612d5761260b565b5b82810191505092915050565b6000612d73602084018461171f565b905092915050565b600060408301612d8e6000840184612875565b8583036000870152612da1838284612832565b92505050612db26020840184612d64565b612dbf6020860182611a05565b508091505092915050565b600082905092915050565b60408201612de660008301836125db565b612df360008501826125f2565b50612e0160208301836125db565b612e0e60208501826125f2565b50505050565b600060c08301612e276000840184612d3c565b8482036000860152612e398282612d7b565b915050612e496020840184612d3c565b8482036020860152612e5b8282612d7b565b915050612e6b60408401846125db565b612e7860408601826125f2565b50612e866060840184612610565b8583036060870152612e99838284612684565b92505050612eaa6080840184612dca565b612eb76080860182612dd5565b508091505092915050565b60006020820190508181036000830152612edc8184612e14565b905092915050565b60006040820190508181036000830152612eff8185876122ad565b9050612f0e60208301846122da565b949350505050565b60006020820190508181036000830152612f31818486612280565b90509392505050565b7f4f776e61626c653a206e6577206f776e657220697320746865207a65726f206160008201527f6464726573730000000000000000000000000000000000000000000000000000602082015250565b6000612f96602683611de0565b9150612fa182612f3a565b604082019050919050565b60006020820190508181036000830152612fc581612f89565b9050919050565b7f4f776e61626c653a2063616c6c6572206973206e6f7420746865206f776e6572600082015250565b6000613002602083611de0565b915061300d82612fcc565b602082019050919050565b6000602082019050818103600083015261303181612ff5565b905091905056fe6578706563746564206368616e6e656c20627974657320636f6e73747275637465642066726f6d20706172616d732e204368616e6e656c2e5374617465203d207b41636b5f50656e64696e672c20436f6e6669726d5f50656e64696e677d6578706563746564206368616e6e656c20627974657320636f6e73747275637465642066726f6d20706172616d732e204368616e6e656c2e5374617465203d207b496e69745f50656e64696e672c205472795f50656e64696e677da2646970667358221220103041d0e0c8bd55874122dbcdadce6358fa65ca5843fb4fbe281eb5a5337ba964736f6c63430008090033",
  "linkReferences": {},
  "deployedLinkReferences": {}
}