{
  "_format": "hh-sol-artifact-1",
  "contractName": "Dispatcher",
  "sourceName": "contracts/Dispatcher.sol",
  "abi": [
    {
      "inputs": [
        {
          "internalType": "contract ZKMintVerifier",
          "name": "_verifier",
          "type": "address"
        },
        {
          "internalType": "address payable",
          "name": "_escrow",
          "type": "address"
        }
      ],
      "stateMutability": "nonpayable",
      "type": "constructor"
    },
    {
      "anonymous": false,
      "inputs": [
        {
          "indexed": true,
          "internalType": "address",
          "name": "sourcePortAddress",
          "type": "address"
        },
        {
          "indexed": true,
          "internalType": "bytes32",
          "name": "sourceChannelId",
          "type": "bytes32"
        },
        {
          "components": [
            {
              "internalType": "bool",
              "name": "success",
              "type": "bool"
            },
            {
              "internalType": "bytes",
              "name": "data",
              "type": "bytes"
            }
          ],
          "indexed": false,
          "internalType": "struct AckPacket",
          "name": "AckPacket",
          "type": "tuple"
        },
        {
          "indexed": false,
          "internalType": "uint64",
          "name": "sequence",
          "type": "uint64"
        }
      ],
      "name": "Acknowledgement",
      "type": "event"
    },
    {
      "anonymous": false,
      "inputs": [
        {
          "indexed": true,
          "internalType": "address",
          "name": "portAddress",
          "type": "address"
        },
        {
          "indexed": true,
          "internalType": "bytes32",
          "name": "channelId",
          "type": "bytes32"
        }
      ],
      "name": "CloseIbcChannel",
      "type": "event"
    },
    {
      "anonymous": false,
      "inputs": [
        {
          "indexed": true,
          "internalType": "address",
          "name": "portAddress",
          "type": "address"
        },
        {
          "indexed": true,
          "internalType": "bytes32",
          "name": "channelId",
          "type": "bytes32"
        },
        {
          "indexed": false,
          "internalType": "string",
          "name": "counterpartyPortId",
          "type": "string"
        },
        {
          "indexed": true,
          "internalType": "bytes32",
          "name": "counterpartyChannelId",
          "type": "bytes32"
        },
        {
          "indexed": false,
          "internalType": "string[]",
          "name": "connectionHops",
          "type": "string[]"
        }
      ],
      "name": "ConnectIbcChannel",
      "type": "event"
    },
    {
      "anonymous": false,
      "inputs": [
        {
          "indexed": true,
          "internalType": "address",
          "name": "portAddress",
          "type": "address"
        },
        {
          "indexed": true,
          "internalType": "bytes32",
          "name": "counterpartyChannelId",
          "type": "bytes32"
        },
        {
          "indexed": false,
          "internalType": "bytes32",
          "name": "version",
          "type": "bytes32"
        },
        {
          "indexed": false,
          "internalType": "enum ChannelOrder",
          "name": "ordering",
          "type": "uint8"
        },
        {
          "indexed": false,
          "internalType": "string[]",
          "name": "connectionHops",
          "type": "string[]"
        },
        {
          "indexed": false,
          "internalType": "string",
          "name": "counterpartyPortId",
          "type": "string"
        },
        {
          "indexed": false,
          "internalType": "bytes32",
          "name": "counterpartyVersion",
          "type": "bytes32"
        }
      ],
      "name": "OpenIbcChannel",
      "type": "event"
    },
    {
      "anonymous": false,
      "inputs": [
        {
          "indexed": true,
          "internalType": "address",
          "name": "previousOwner",
          "type": "address"
        },
        {
          "indexed": true,
          "internalType": "address",
          "name": "newOwner",
          "type": "address"
        }
      ],
      "name": "OwnershipTransferred",
      "type": "event"
    },
    {
      "anonymous": false,
      "inputs": [
        {
          "indexed": true,
          "internalType": "address",
          "name": "destPortAddress",
          "type": "address"
        },
        {
          "indexed": true,
          "internalType": "bytes32",
          "name": "destChannelId",
          "type": "bytes32"
        },
        {
          "indexed": false,
          "internalType": "string",
          "name": "srcPortId",
          "type": "string"
        },
        {
          "indexed": true,
          "internalType": "bytes32",
          "name": "srcChannelId",
          "type": "bytes32"
        },
        {
          "indexed": false,
          "internalType": "uint64",
          "name": "sequence",
          "type": "uint64"
        }
      ],
      "name": "RecvPacket",
      "type": "event"
    },
    {
      "anonymous": false,
      "inputs": [
        {
          "indexed": true,
          "internalType": "address",
          "name": "sourcePortAddress",
          "type": "address"
        },
        {
          "indexed": true,
          "internalType": "bytes32",
          "name": "sourceChannelId",
          "type": "bytes32"
        },
        {
          "indexed": false,
          "internalType": "bytes",
          "name": "packet",
          "type": "bytes"
        },
        {
          "indexed": false,
          "internalType": "uint64",
          "name": "sequence",
          "type": "uint64"
        },
        {
          "indexed": false,
          "internalType": "uint64",
          "name": "timeoutTimestamp",
          "type": "uint64"
        },
        {
          "indexed": false,
          "internalType": "uint256",
          "name": "fee",
          "type": "uint256"
        }
      ],
      "name": "SendPacket",
      "type": "event"
    },
    {
      "anonymous": false,
      "inputs": [
        {
          "indexed": true,
          "internalType": "address",
          "name": "sourcePortAddress",
          "type": "address"
        },
        {
          "indexed": true,
          "internalType": "bytes32",
          "name": "sourceChannelId",
          "type": "bytes32"
        },
        {
          "indexed": true,
          "internalType": "uint64",
          "name": "sequence",
          "type": "uint64"
        }
      ],
      "name": "Timeout",
      "type": "event"
    },
    {
      "anonymous": false,
      "inputs": [
        {
          "indexed": true,
          "internalType": "address",
          "name": "writerPortAddress",
          "type": "address"
        },
        {
          "indexed": true,
          "internalType": "bytes32",
          "name": "writerChannelId",
          "type": "bytes32"
        },
        {
          "indexed": false,
          "internalType": "uint64",
          "name": "sequence",
          "type": "uint64"
        },
        {
          "components": [
            {
              "internalType": "bool",
              "name": "success",
              "type": "bool"
            },
            {
              "internalType": "bytes",
              "name": "data",
              "type": "bytes"
            }
          ],
          "indexed": false,
          "internalType": "struct AckPacket",
          "name": "ackPacket",
          "type": "tuple"
        }
      ],
      "name": "WriteAckPacket",
      "type": "event"
    },
    {
      "anonymous": false,
      "inputs": [
        {
          "indexed": true,
          "internalType": "address",
          "name": "writerPortAddress",
          "type": "address"
        },
        {
          "indexed": true,
          "internalType": "bytes32",
          "name": "writerChannelId",
          "type": "bytes32"
        },
        {
          "indexed": false,
          "internalType": "uint64",
          "name": "sequence",
          "type": "uint64"
        }
      ],
      "name": "WriteTimeoutPacket",
      "type": "event"
    },
    {
      "inputs": [
        {
          "internalType": "contract IbcReceiver",
          "name": "receiver",
          "type": "address"
        },
        {
          "components": [
            {
              "components": [
                {
                  "internalType": "string",
                  "name": "portId",
                  "type": "string"
                },
                {
                  "internalType": "bytes32",
                  "name": "channelId",
                  "type": "bytes32"
                }
              ],
              "internalType": "struct IbcEndpoint",
              "name": "src",
              "type": "tuple"
            },
            {
              "components": [
                {
                  "internalType": "string",
                  "name": "portId",
                  "type": "string"
                },
                {
                  "internalType": "bytes32",
                  "name": "channelId",
                  "type": "bytes32"
                }
              ],
              "internalType": "struct IbcEndpoint",
              "name": "dest",
              "type": "tuple"
            },
            {
              "internalType": "uint64",
              "name": "sequence",
              "type": "uint64"
            },
            {
              "internalType": "bytes",
              "name": "data",
              "type": "bytes"
            },
            {
              "components": [
                {
                  "internalType": "uint64",
                  "name": "blockHeight",
                  "type": "uint64"
                },
                {
                  "internalType": "uint64",
                  "name": "timestamp",
                  "type": "uint64"
                }
              ],
              "internalType": "struct IbcTimeout",
              "name": "timeout",
              "type": "tuple"
            }
          ],
          "internalType": "struct IbcPacket",
          "name": "packet",
          "type": "tuple"
        },
        {
          "components": [
            {
              "internalType": "bool",
              "name": "success",
              "type": "bool"
            },
            {
              "internalType": "bytes",
              "name": "data",
              "type": "bytes"
            }
          ],
          "internalType": "struct AckPacket",
          "name": "ackPacket",
          "type": "tuple"
        },
        {
          "components": [
            {
              "internalType": "uint64",
              "name": "proofHeight",
              "type": "uint64"
            },
            {
              "internalType": "bytes",
              "name": "proof",
              "type": "bytes"
            }
          ],
          "internalType": "struct Proof",
          "name": "proof",
          "type": "tuple"
        }
      ],
      "name": "acknowledgement",
      "outputs": [],
      "stateMutability": "nonpayable",
      "type": "function"
    },
    {
      "inputs": [
        {
          "internalType": "bytes32",
          "name": "channelId",
          "type": "bytes32"
        }
      ],
      "name": "closeIbcChannel",
      "outputs": [],
      "stateMutability": "nonpayable",
      "type": "function"
    },
    {
      "inputs": [
        {
          "internalType": "contract IbcReceiver",
          "name": "portAddress",
          "type": "address"
        },
        {
          "internalType": "bytes32",
          "name": "channelId",
          "type": "bytes32"
        },
        {
          "internalType": "string[]",
          "name": "connectionHops",
          "type": "string[]"
        },
        {
          "internalType": "enum ChannelOrder",
          "name": "ordering",
          "type": "uint8"
        },
        {
          "internalType": "string",
          "name": "counterpartyPortId",
          "type": "string"
        },
        {
          "internalType": "bytes32",
          "name": "counterpartyChannelId",
          "type": "bytes32"
        },
        {
          "internalType": "bytes32",
          "name": "counterpartyVersion",
          "type": "bytes32"
        },
        {
          "components": [
            {
              "internalType": "uint64",
              "name": "proofHeight",
              "type": "uint64"
            },
            {
              "internalType": "bytes",
              "name": "proof",
              "type": "bytes"
            }
          ],
          "internalType": "struct Proof",
          "name": "proof",
          "type": "tuple"
        }
      ],
      "name": "connectIbcChannel",
      "outputs": [],
      "stateMutability": "nonpayable",
      "type": "function"
    },
    {
      "inputs": [
        {
          "components": [
            {
              "internalType": "bytes",
              "name": "clientState",
              "type": "bytes"
            },
            {
              "internalType": "bytes",
              "name": "consensusState",
              "type": "bytes"
            }
          ],
          "internalType": "struct InitClientMsg",
          "name": "initClientMsg",
          "type": "tuple"
        }
      ],
      "name": "createClient",
      "outputs": [],
      "stateMutability": "nonpayable",
      "type": "function"
    },
    {
      "inputs": [
        {
          "internalType": "address",
          "name": "portAddress",
          "type": "address"
        },
        {
          "internalType": "bytes32",
          "name": "channelId",
          "type": "bytes32"
        }
      ],
      "name": "getChannel",
      "outputs": [
        {
          "components": [
            {
              "internalType": "bytes32",
              "name": "version",
              "type": "bytes32"
            },
            {
              "internalType": "enum ChannelOrder",
              "name": "ordering",
              "type": "uint8"
            },
            {
              "internalType": "string[]",
              "name": "connectionHops",
              "type": "string[]"
            },
            {
              "internalType": "string",
              "name": "counterpartyPortId",
              "type": "string"
            },
            {
              "internalType": "bytes32",
              "name": "counterpartyChannelId",
              "type": "bytes32"
            }
          ],
          "internalType": "struct Channel",
          "name": "",
          "type": "tuple"
        }
      ],
      "stateMutability": "view",
      "type": "function"
    },
    {
      "inputs": [
        {
          "internalType": "string",
          "name": "hexStr",
          "type": "string"
        }
      ],
      "name": "hexStrToAddress",
      "outputs": [
        {
          "internalType": "address",
          "name": "",
          "type": "address"
        }
      ],
      "stateMutability": "pure",
      "type": "function"
    },
    {
      "inputs": [],
      "name": "latestConsensusState",
      "outputs": [
        {
          "internalType": "bytes",
          "name": "",
          "type": "bytes"
        }
      ],
      "stateMutability": "view",
      "type": "function"
    },
    {
      "inputs": [
        {
          "internalType": "address",
          "name": "portAddress",
          "type": "address"
        },
        {
          "internalType": "bytes32",
          "name": "channelId",
          "type": "bytes32"
        },
        {
          "components": [
            {
              "internalType": "uint64",
              "name": "proofHeight",
              "type": "uint64"
            },
            {
              "internalType": "bytes",
              "name": "proof",
              "type": "bytes"
            }
          ],
          "internalType": "struct Proof",
          "name": "proof",
          "type": "tuple"
        }
      ],
      "name": "onCloseIbcChannel",
      "outputs": [],
      "stateMutability": "nonpayable",
      "type": "function"
    },
    {
      "inputs": [
        {
          "internalType": "contract IbcReceiver",
          "name": "portAddress",
          "type": "address"
        },
        {
          "internalType": "bytes32",
          "name": "version",
          "type": "bytes32"
        },
        {
          "internalType": "enum ChannelOrder",
          "name": "ordering",
          "type": "uint8"
        },
        {
          "internalType": "string[]",
          "name": "connectionHops",
          "type": "string[]"
        },
        {
          "internalType": "bytes32",
          "name": "counterpartyChannelId",
          "type": "bytes32"
        },
        {
          "internalType": "string",
          "name": "counterpartyPortId",
          "type": "string"
        },
        {
          "internalType": "bytes32",
          "name": "counterpartyVersion",
          "type": "bytes32"
        }
      ],
      "name": "openIbcChannel",
      "outputs": [],
      "stateMutability": "nonpayable",
      "type": "function"
    },
    {
      "inputs": [],
      "name": "owner",
      "outputs": [
        {
          "internalType": "address",
          "name": "",
          "type": "address"
        }
      ],
      "stateMutability": "view",
      "type": "function"
    },
    {
      "inputs": [
        {
          "internalType": "address",
          "name": "",
          "type": "address"
        },
        {
          "internalType": "bytes32",
          "name": "",
          "type": "bytes32"
        }
      ],
      "name": "portChannelMap",
      "outputs": [
        {
          "internalType": "bytes32",
          "name": "version",
          "type": "bytes32"
        },
        {
          "internalType": "enum ChannelOrder",
          "name": "ordering",
          "type": "uint8"
        },
        {
          "internalType": "string",
          "name": "counterpartyPortId",
          "type": "string"
        },
        {
          "internalType": "bytes32",
          "name": "counterpartyChannelId",
          "type": "bytes32"
        }
      ],
      "stateMutability": "view",
      "type": "function"
    },
    {
      "inputs": [
        {
          "internalType": "address",
          "name": "addr",
          "type": "address"
        },
        {
          "internalType": "string",
          "name": "portId",
          "type": "string"
        }
      ],
      "name": "portIdAddressMatch",
      "outputs": [
        {
          "internalType": "bool",
          "name": "",
          "type": "bool"
        }
      ],
      "stateMutability": "view",
      "type": "function"
    },
    {
      "inputs": [
        {
          "internalType": "contract IbcReceiver",
          "name": "receiver",
          "type": "address"
        },
        {
          "components": [
            {
              "components": [
                {
                  "internalType": "string",
                  "name": "portId",
                  "type": "string"
                },
                {
                  "internalType": "bytes32",
                  "name": "channelId",
                  "type": "bytes32"
                }
              ],
              "internalType": "struct IbcEndpoint",
              "name": "src",
              "type": "tuple"
            },
            {
              "components": [
                {
                  "internalType": "string",
                  "name": "portId",
                  "type": "string"
                },
                {
                  "internalType": "bytes32",
                  "name": "channelId",
                  "type": "bytes32"
                }
              ],
              "internalType": "struct IbcEndpoint",
              "name": "dest",
              "type": "tuple"
            },
            {
              "internalType": "uint64",
              "name": "sequence",
              "type": "uint64"
            },
            {
              "internalType": "bytes",
              "name": "data",
              "type": "bytes"
            },
            {
              "components": [
                {
                  "internalType": "uint64",
                  "name": "blockHeight",
                  "type": "uint64"
                },
                {
                  "internalType": "uint64",
                  "name": "timestamp",
                  "type": "uint64"
                }
              ],
              "internalType": "struct IbcTimeout",
              "name": "timeout",
              "type": "tuple"
            }
          ],
          "internalType": "struct IbcPacket",
          "name": "packet",
          "type": "tuple"
        },
        {
          "components": [
            {
              "internalType": "uint64",
              "name": "proofHeight",
              "type": "uint64"
            },
            {
              "internalType": "bytes",
              "name": "proof",
              "type": "bytes"
            }
          ],
          "internalType": "struct Proof",
          "name": "proof",
          "type": "tuple"
        }
      ],
      "name": "recvPacket",
      "outputs": [],
      "stateMutability": "nonpayable",
      "type": "function"
    },
    {
      "inputs": [],
      "name": "renounceOwnership",
      "outputs": [],
      "stateMutability": "nonpayable",
      "type": "function"
    },
    {
      "inputs": [
        {
          "internalType": "bytes32",
          "name": "channelId",
          "type": "bytes32"
        },
        {
          "internalType": "bytes",
          "name": "packet",
          "type": "bytes"
        },
        {
          "internalType": "uint64",
          "name": "timeoutTimestamp",
          "type": "uint64"
        },
        {
          "internalType": "uint256",
          "name": "fee",
          "type": "uint256"
        }
      ],
      "name": "sendPacket",
      "outputs": [],
      "stateMutability": "payable",
      "type": "function"
    },
    {
      "inputs": [
        {
          "internalType": "contract IbcReceiver",
          "name": "receiver",
          "type": "address"
        },
        {
          "components": [
            {
              "components": [
                {
                  "internalType": "string",
                  "name": "portId",
                  "type": "string"
                },
                {
                  "internalType": "bytes32",
                  "name": "channelId",
                  "type": "bytes32"
                }
              ],
              "internalType": "struct IbcEndpoint",
              "name": "src",
              "type": "tuple"
            },
            {
              "components": [
                {
                  "internalType": "string",
                  "name": "portId",
                  "type": "string"
                },
                {
                  "internalType": "bytes32",
                  "name": "channelId",
                  "type": "bytes32"
                }
              ],
              "internalType": "struct IbcEndpoint",
              "name": "dest",
              "type": "tuple"
            },
            {
              "internalType": "uint64",
              "name": "sequence",
              "type": "uint64"
            },
            {
              "internalType": "bytes",
              "name": "data",
              "type": "bytes"
            },
            {
              "components": [
                {
                  "internalType": "uint64",
                  "name": "blockHeight",
                  "type": "uint64"
                },
                {
                  "internalType": "uint64",
                  "name": "timestamp",
                  "type": "uint64"
                }
              ],
              "internalType": "struct IbcTimeout",
              "name": "timeout",
              "type": "tuple"
            }
          ],
          "internalType": "struct IbcPacket",
          "name": "packet",
          "type": "tuple"
        },
        {
          "components": [
            {
              "internalType": "uint64",
              "name": "proofHeight",
              "type": "uint64"
            },
            {
              "internalType": "bytes",
              "name": "proof",
              "type": "bytes"
            }
          ],
          "internalType": "struct Proof",
          "name": "proof",
          "type": "tuple"
        }
      ],
      "name": "timeout",
      "outputs": [],
      "stateMutability": "nonpayable",
      "type": "function"
    },
    {
      "inputs": [
        {
          "internalType": "address",
          "name": "newOwner",
          "type": "address"
        }
      ],
      "name": "transferOwnership",
      "outputs": [],
      "stateMutability": "nonpayable",
      "type": "function"
    },
    {
      "inputs": [
        {
          "components": [
            {
              "internalType": "bytes",
              "name": "consensusState",
              "type": "bytes"
            },
            {
              "internalType": "uint64",
              "name": "height",
              "type": "uint64"
            },
            {
              "internalType": "bytes",
              "name": "zkProof",
              "type": "bytes"
            }
          ],
          "internalType": "struct UpdateClientMsg",
          "name": "updateClientMsg",
          "type": "tuple"
        }
      ],
      "name": "updateClient",
      "outputs": [],
      "stateMutability": "nonpayable",
      "type": "function"
    },
    {
      "inputs": [
        {
          "components": [
            {
              "internalType": "bytes",
              "name": "clientState",
              "type": "bytes"
            },
            {
              "internalType": "bytes",
              "name": "consensusState",
              "type": "bytes"
            }
          ],
          "internalType": "struct UpgradeClientMsg",
          "name": "upgradeClientMsg",
          "type": "tuple"
        }
      ],
      "name": "upgradeClient",
      "outputs": [],
      "stateMutability": "nonpayable",
      "type": "function"
    },
    {
      "inputs": [
        {
          "internalType": "address",
          "name": "receiver",
          "type": "address"
        },
        {
          "components": [
            {
              "components": [
                {
                  "internalType": "string",
                  "name": "portId",
                  "type": "string"
                },
                {
                  "internalType": "bytes32",
                  "name": "channelId",
                  "type": "bytes32"
                }
              ],
              "internalType": "struct IbcEndpoint",
              "name": "src",
              "type": "tuple"
            },
            {
              "components": [
                {
                  "internalType": "string",
                  "name": "portId",
                  "type": "string"
                },
                {
                  "internalType": "bytes32",
                  "name": "channelId",
                  "type": "bytes32"
                }
              ],
              "internalType": "struct IbcEndpoint",
              "name": "dest",
              "type": "tuple"
            },
            {
              "internalType": "uint64",
              "name": "sequence",
              "type": "uint64"
            },
            {
              "internalType": "bytes",
              "name": "data",
              "type": "bytes"
            },
            {
              "components": [
                {
                  "internalType": "uint64",
                  "name": "blockHeight",
                  "type": "uint64"
                },
                {
                  "internalType": "uint64",
                  "name": "timestamp",
                  "type": "uint64"
                }
              ],
              "internalType": "struct IbcTimeout",
              "name": "timeout",
              "type": "tuple"
            }
          ],
          "internalType": "struct IbcPacket",
          "name": "packet",
          "type": "tuple"
        }
      ],
      "name": "writeTimeoutPacket",
      "outputs": [],
      "stateMutability": "nonpayable",
      "type": "function"
    }
  ],
  "bytecode": "0x6002805460ff60a01b1916905560c0604052600c60808190526b32ba34173837b63cb4b1319760a11b60a09081526200003c916004919062000162565b50600580546001600160401b031916600c1790553480156200005d57600080fd5b50604051620043bc380380620043bc833981016040819052620000809162000221565b6200008b3362000112565b600180546001600160a01b038085166001600160a01b0319928316179092556002805492841692909116821790556200010a5760405162461bcd60e51b815260206004820152601d60248201527f457363726f772063616e6e6f74206265207a65726f2061646472657373000000604482015260640160405180910390fd5b50506200029d565b600080546001600160a01b038381166001600160a01b0319831681178455604051919092169283917f8be0079c531659141344cd1fd0a4f28419497f9722a3daafe3b4186f6b6457e09190a35050565b828054620001709062000260565b90600052602060002090601f016020900481019282620001945760008555620001df565b82601f10620001af57805160ff1916838001178555620001df565b82800160010185558215620001df579182015b82811115620001df578251825591602001919060010190620001c2565b50620001ed929150620001f1565b5090565b5b80821115620001ed5760008155600101620001f2565b6001600160a01b03811681146200021e57600080fd5b50565b600080604083850312156200023557600080fd5b8251620002428162000208565b6020840151909250620002558162000208565b809150509250929050565b600181811c908216806200027557607f821691505b602082108114156200029757634e487b7160e01b600052602260045260246000fd5b50919050565b61410f80620002ad6000396000f3fe60806040526004361061011f5760003560e01c80638d3d5aa9116100a0578063b2b1bf0311610064578063b2b1bf0314610316578063bba1051714610346578063c2a2514d14610366578063e36e013f14610388578063f2fde38b146103b857600080fd5b80638d3d5aa9146102715780638da5cb5b1461028457806394e47af8146102b6578063951538f3146102d6578063a1ef9a98146102f657600080fd5b80634efde434116100e75780634efde434146101dc578063520b128e146101fc578063678746491461021c578063715018a61461023c5780638b24b4cb1461025157600080fd5b80631f456c1e146101245780633f7625ab1461014657806342852d2414610166578063487fca7e1461019c5780634c9778d3146101bc575b600080fd5b34801561013057600080fd5b5061014461013f366004612cef565b6103d8565b005b34801561015257600080fd5b50610144610161366004612db4565b6104c3565b34801561017257600080fd5b50610186610181366004612e03565b6106f6565b6040516101939190612ec3565b60405180910390f35b3480156101a857600080fd5b506101446101b7366004612f89565b610909565b3480156101c857600080fd5b506101446101d7366004612fc5565b610994565b3480156101e857600080fd5b506101446101f7366004612f89565b610c44565b34801561020857600080fd5b50610144610217366004613099565b610ca7565b34801561022857600080fd5b50610144610237366004613133565b610f7a565b34801561024857600080fd5b506101446110b3565b34801561025d57600080fd5b5061014461026c366004613174565b6110c7565b61014461027f3660046131a4565b611387565b34801561029057600080fd5b506000546001600160a01b03165b6040516001600160a01b039091168152602001610193565b3480156102c257600080fd5b506101446102d1366004613209565b61172d565b3480156102e257600080fd5b506101446102f136600461327e565b611ef0565b34801561030257600080fd5b5061029e6103113660046133b7565b612313565b34801561032257600080fd5b50610336610331366004612e03565b612496565b60405161019394939291906133eb565b34801561035257600080fd5b50610144610361366004613209565b612556565b34801561037257600080fd5b5061037b61282b565b6040516101939190613422565b34801561039457600080fd5b506103a86103a3366004613435565b6128b9565b6040519015158152602001610193565b3480156103c457600080fd5b506101446103d3366004613489565b612935565b604051634865921960e01b81526000906001600160a01b038b1690634865921990610415908c908c908c908c908c908c908c908c90600401613571565b602060405180830381600087803b15801561042f57600080fd5b505af1158015610443573d6000803e3d6000fd5b505050506040513d601f19601f8201168201806040525081019061046791906135c7565b9050848a6001600160a01b03167f9a93c124e7f0aa93d3fbe660b1366e0483b4267619924382261498efbb92c873838b8b8b8a8a8a6040516104af97969594939291906135e0565b60405180910390a350505050505050505050565b6104db826104d1838061362f565b6103a3908061364f565b6105005760405162461bcd60e51b81526004016104f790613695565b60405180910390fd5b6001600160a01b038216600090815260096020908152604082209082906105299085018561362f565b602001358152602001908152602001600020600083604001602081019061055091906136e4565b6001600160401b0316815260208101919091526040016000205460ff16905080156105bd5760405162461bcd60e51b815260206004820152601d60248201527f5061636b6574207265636569707420616c72656164792065786973747300000060448201526064016104f7565b6105cd60c0830160a084016136e4565b6001600160401b031615806105fa57506105ed60c0830160a084016136e4565b6001600160401b03164210155b801561063e575061061160a08301608084016136e4565b6001600160401b0316158061063e575061063160a08301608084016136e4565b6001600160401b03164310155b61068a5760405162461bcd60e51b815260206004820152601860248201527f5061636b6574206e6f742074696d6564206f757420796574000000000000000060448201526064016104f7565b610697602083018361362f565b602001356001600160a01b0384167f7333461763c7d92fc71194a27f0a170adc7a8ee782bede3d71b9d0580f116f3a6106d660608601604087016136e4565b6040516001600160401b03909116815260200160405180910390a3505050565b6107286040805160a0810190915260008082526020820190815260606020820181905260408201819052600091015290565b6001600160a01b0383166000908152600660209081526040808320858452825291829020825160a0810190935280548352600180820154919284019160ff169081111561077757610777612e2f565b600181111561078857610788612e2f565b815260200160028201805480602002602001604051908101604052809291908181526020016000905b8282101561085d5783829060005260206000200180546107d0906136ff565b80601f01602080910402602001604051908101604052809291908181526020018280546107fc906136ff565b80156108495780601f1061081e57610100808354040283529160200191610849565b820191906000526020600020905b81548152906001019060200180831161082c57829003601f168201915b5050505050815260200190600101906107b1565b505050508152602001600382018054610875906136ff565b80601f01602080910402602001604051908101604052809291908181526020018280546108a1906136ff565b80156108ee5780601f106108c3576101008083540402835291602001916108ee565b820191906000526020600020905b8154815290600101906020018083116108d157829003601f168201915b50505050508152602001600482015481525050905092915050565b6109116129ae565b600254600160a01b900460ff16156109645760405162461bcd60e51b815260206004820152601660248201527510db1a595b9d08185b1c9958591e4818dc99585d195960521b60448201526064016104f7565b6002805460ff60a01b1916600160a01b179055610984602082018261364f565b61099091600391612a58565b5050565b6001546040805160808101909152605e8082526001600160a01b0390921691639511059d9160039185919061402960208301396040518463ffffffff1660e01b81526004016109e593929190613815565b60206040518083038186803b1580156109fd57600080fd5b505afa158015610a11573d6000803e3d6000fd5b505050506040513d601f19601f82011682018060405250810190610a35919061389e565b610a815760405162461bcd60e51b815260206004820152601b60248201527f4661696c20746f2070726f7665206368616e6e656c207374617465000000000060448201526064016104f7565b60405163e60a729360e01b8152600481018a905260248101849052604481018390526001600160a01b038b169063e60a729390606401600060405180830381600087803b158015610ad157600080fd5b505af1158015610ae5573d6000803e3d6000fd5b505050506040518060a00160405280838152602001876001811115610b0c57610b0c612e2f565b8152602001610b1b898b6138bb565b815260200186868080601f016020809104026020016040519081016040528093929190818152602001838380828437600092018290525093855250505060209182018690526001600160a01b038d1681526006825260408082208d835283529020825181559082015160018083018054909160ff19909116908381811115610ba557610ba5612e2f565b021790555060408201518051610bc5916002840191602090910190612adc565b5060608201518051610be1916003840191602090910190612b35565b506080820151816004015590505082898b6001600160a01b03167f57ea540ad7b8bfd2813b8637764ba029fedc52de3f812934a46511506aa11b8e88888d8d604051610c30949392919061393e565b60405180910390a450505050505050505050565b610c4c6129ae565b600254600160a01b900460ff16610c9a5760405162461bcd60e51b815260206004820152601260248201527110db1a595b9d081b9bdd0818dc99585d195960721b60448201526064016104f7565b610984602082018261364f565b610cb5846104d1858061362f565b610cd15760405162461bcd60e51b81526004016104f790613970565b600154604051639511059d60e01b81526001600160a01b0390911690639511059d90610d049060039085906004016139ba565b60206040518083038186803b158015610d1c57600080fd5b505afa158015610d30573d6000803e3d6000fd5b505050506040513d601f19601f82011682018060405250810190610d54919061389e565b610d945760405162461bcd60e51b81526020600482015260116024820152704661696c20746f2070726f76652061636b60781b60448201526064016104f7565b6001600160a01b038416600090815260086020526040812081610db7868061362f565b6020013581526020019081526020016000206000856040016020810190610dde91906136e4565b6001600160401b0316815260208101919091526040016000205460ff16905080610e4a5760405162461bcd60e51b815260206004820152601b60248201527f5061636b657420636f6d6d69746d656e74206e6f7420666f756e64000000000060448201526064016104f7565b604051633d173d7960e21b81526001600160a01b0386169063f45cf5e490610e76908790600401613ab2565b600060405180830381600087803b158015610e9057600080fd5b505af1158015610ea4573d6000803e3d6000fd5b5050506001600160a01b03861660009081526008602052604081209150610ecb868061362f565b6020013581526020019081526020016000206000856040016020810190610ef291906136e4565b6001600160401b031681526020810191909152604001600020805460ff19169055610f1d848061362f565b602001356001600160a01b0386167fc4198f9e29f113c5464c20bc273a0861cf81d5fdef68c6a7cc9993d9437d1a0b85610f5d6060890160408a016136e4565b604051610f6b929190613b76565b60405180910390a35050505050565b600254600160a01b900460ff16610fc85760405162461bcd60e51b815260206004820152601260248201527110db1a595b9d081b9bdd0818dc99585d195960721b60448201526064016104f7565b6001546040516355af5d1360e11b81526001600160a01b039091169063ab5eba2690610ffb906003908590600401613bca565b60206040518083038186803b15801561101357600080fd5b505afa158015611027573d6000803e3d6000fd5b505050506040513d601f19601f8201168201806040525081019061104b919061389e565b6110a95760405162461bcd60e51b815260206004820152602960248201527f557064617465436c69656e744d73672070726f6f6620766572696669636174696044820152681bdb8819985a5b195960ba1b60648201526084016104f7565b610984818061364f565b6110bb6129ae565b6110c56000612a08565b565b3360009081526006602090815260408083208484528252808320815160a0810190925280548252600180820154929391929184019160ff169081111561110f5761110f612e2f565b600181111561112057611120612e2f565b815260200160028201805480602002602001604051908101604052809291908181526020016000905b828210156111f5578382906000526020600020018054611168906136ff565b80601f0160208091040260200160405190810160405280929190818152602001828054611194906136ff565b80156111e15780601f106111b6576101008083540402835291602001916111e1565b820191906000526020600020905b8154815290600101906020018083116111c457829003601f168201915b505050505081526020019060010190611149565b50505050815260200160038201805461120d906136ff565b80601f0160208091040260200160405190810160405280929190818152602001828054611239906136ff565b80156112865780601f1061125b57610100808354040283529160200191611286565b820191906000526020600020905b81548152906001019060200180831161126957829003601f168201915b5050505050815260200160048201548152505090506000801b816080015114156112f25760405162461bcd60e51b815260206004820152601f60248201527f4368616e6e656c206e6f74206f776e6564206279206d73672e73656e6465720060448201526064016104f7565b60608101516080820151604051635fe39e0d60e01b815233928392635fe39e0d926113239288929091600401613c4a565b600060405180830381600087803b15801561133d57600080fd5b505af1158015611351573d6000803e3d6000fd5b50506040518592503391507fe893e4ba0e364cdc96364b1e1e0d53b0d91e5fd6aa0ee9d81a17ecd61178bf1790600090a3505050565b3360009081526006602090815260408083208884528252808320815160a0810190925280548252600180820154929391929184019160ff16908111156113cf576113cf612e2f565b60018111156113e0576113e0612e2f565b815260200160028201805480602002602001604051908101604052809291908181526020016000905b828210156114b5578382906000526020600020018054611428906136ff565b80601f0160208091040260200160405190810160405280929190818152602001828054611454906136ff565b80156114a15780601f10611476576101008083540402835291602001916114a1565b820191906000526020600020905b81548152906001019060200180831161148457829003601f168201915b505050505081526020019060010190611409565b5050505081526020016003820180546114cd906136ff565b80601f01602080910402602001604051908101604052809291908181526020018280546114f9906136ff565b80156115465780601f1061151b57610100808354040283529160200191611546565b820191906000526020600020905b81548152906001019060200180831161152957829003601f168201915b5050505050815260200160048201548152505090506000801b816080015114156115b25760405162461bcd60e51b815260206004820152601b60248201527f4368616e6e656c206e6f74206f776e65642062792073656e646572000000000060448201526064016104f7565b6002546040516000916001600160a01b03169084908381818185875af1925050503d80600081146115ff576040519150601f19603f3d011682016040523d82523d6000602084013e611604565b606091505b50509050806116555760405162461bcd60e51b815260206004820152601b60248201527f4661696c656420746f20657363726f77207061636b657420666565000000000060448201526064016104f7565b3360009081526007602090815260408083208a84529091529020546001600160401b0316611684816001613c89565b3360008181526007602090815260408083208d84528252808320805467ffffffffffffffff19166001600160401b03968716179055838352600882528083208d845282528083209486168352939052829020805460ff1916600117905590518991907fc55a6c1340ca55a6b61de30037455a7f9f4a5b8ff106e4eaa0c23ea886fa03609061171b908b908b9087908c908c90613cb4565b60405180910390a35050505050505050565b61173e836104d1602085018561362f565b61175a5760405162461bcd60e51b81526004016104f790613695565b600154604051639511059d60e01b81526001600160a01b0390911690639511059d9061178d906003908590600401613cec565b60206040518083038186803b1580156117a557600080fd5b505afa1580156117b9573d6000803e3d6000fd5b505050506040513d601f19601f820116820180604052508101906117dd919061389e565b6118295760405162461bcd60e51b815260206004820152601f60248201527f4661696c20746f2070726f7665207061636b657420636f6d6d69746d656e740060448201526064016104f7565b6001600160a01b038316600090815260096020908152604082209082906118529086018661362f565b602001358152602001908152602001600020600084604001602081019061187991906136e4565b6001600160401b0316815260208101919091526040016000205460ff16905080156118e65760405162461bcd60e51b815260206004820152601d60248201527f5061636b6574207265636569707420616c72656164792065786973747300000060448201526064016104f7565b6001600160a01b0384166000908152600660209081526040822090829061190f9087018761362f565b6020013581526020019081526020016000206040518060a0016040529081600082015481526020016001820160009054906101000a900460ff16600181111561195a5761195a612e2f565b600181111561196b5761196b612e2f565b815260200160028201805480602002602001604051908101604052809291908181526020016000905b82821015611a405783829060005260206000200180546119b3906136ff565b80601f01602080910402602001604051908101604052809291908181526020018280546119df906136ff565b8015611a2c5780601f10611a0157610100808354040283529160200191611a2c565b820191906000526020600020905b815481529060010190602001808311611a0f57829003601f168201915b505050505081526020019060010190611994565b505050508152602001600382018054611a58906136ff565b80601f0160208091040260200160405190810160405280929190818152602001828054611a84906136ff565b8015611ad15780601f10611aa657610100808354040283529160200191611ad1565b820191906000526020600020905b815481529060010190602001808311611ab457829003601f168201915b5050509183525050600491909101546020909101529050600181602001516001811115611b0057611b00612e2f565b1415611c2f576001600160a01b0385166000908152600a6020908152604082209190611b2e9087018761362f565b60209081013582528101919091526040908101600020546001600160401b031690611b5f90606087019087016136e4565b6001600160401b031614611bb55760405162461bcd60e51b815260206004820152601a60248201527f556e6578706563746564207061636b65742073657175656e636500000000000060448201526064016104f7565b611bc560608501604086016136e4565b611bd0906001613c89565b6001600160a01b0386166000908152600a6020908152604082209190611bf89088018861362f565b60200135815260200190815260200160002060006101000a8154816001600160401b0302191690836001600160401b031602179055505b60405163582c740d60e11b81526000906001600160a01b0387169063b058e81a90611c5e908890600401613ab2565b600060405180830381600087803b158015611c7857600080fd5b505af1158015611c8c573d6000803e3d6000fd5b505050506040513d6000823e601f3d908101601f19168201604052611cb49190810190613daa565b6001600160a01b0387166000908152600b6020908152604082209293509091908290611ce29089018961362f565b6020013581526020019081526020016000206000876040016020810190611d0991906136e4565b6001600160401b0316815260208101919091526040016000205460ff1690508015611d825760405162461bcd60e51b8152602060048201526024808201527f41636b207061636b657420636f6d6d69746d656e7420616c72656164792065786044820152636973747360e01b60648201526084016104f7565b6001600160a01b0387166000908152600b6020908152604082206001929091611dad908a018a61362f565b6020013581526020019081526020016000206000886040016020810190611dd491906136e4565b6001600160401b031681526020810191909152604001600020805460ff1916911515919091179055611e06868061362f565b60200135868060200190611e1a919061362f565b602001356001600160a01b0389167f91b260514b25c153f5a81bfa045f6f31daf97c690a9fbd19c959f2530f93a9be611e538a8061362f565b611e5d908061364f565b611e6d60608d0160408e016136e4565b604051611e7c93929190613e67565b60405180910390a4611e91602087018761362f565b602001356001600160a01b0388167fa32e6f42b1d63fb83ad73b009a6dbb9413d1da02e95b1bb08f081815eea8db20611ed060608a0160408b016136e4565b85604051611edf929190613e94565b60405180910390a350505050505050565b600154604080516080810190915260538082526001600160a01b0390921691639511059d9160039185919061408760208301396040518463ffffffff1660e01b8152600401611f4193929190613815565b60206040518083038186803b158015611f5957600080fd5b505afa158015611f6d573d6000803e3d6000fd5b505050506040513d601f19601f82011682018060405250810190611f91919061389e565b611fdd5760405162461bcd60e51b815260206004820152601b60248201527f4661696c20746f2070726f7665206368616e6e656c207374617465000000000060448201526064016104f7565b6001600160a01b03831660009081526006602090815260408083208584528252808320815160a0810190925280548252600180820154929391929184019160ff169081111561202e5761202e612e2f565b600181111561203f5761203f612e2f565b815260200160028201805480602002602001604051908101604052809291908181526020016000905b82821015612114578382906000526020600020018054612087906136ff565b80601f01602080910402602001604051908101604052809291908181526020018280546120b3906136ff565b80156121005780601f106120d557610100808354040283529160200191612100565b820191906000526020600020905b8154815290600101906020018083116120e357829003601f168201915b505050505081526020019060010190612068565b50505050815260200160038201805461212c906136ff565b80601f0160208091040260200160405190810160405280929190818152602001828054612158906136ff565b80156121a55780601f1061217a576101008083540402835291602001916121a5565b820191906000526020600020905b81548152906001019060200180831161218857829003601f168201915b5050505050815260200160048201548152505090506000801b816080015114156122115760405162461bcd60e51b815260206004820181905260248201527f4368616e6e656c206e6f74206f776e656420627920706f72744164647265737360448201526064016104f7565b60608101516080820151604051635fe39e0d60e01b815286926001600160a01b03841692635fe39e0d9261224b9289929091600401613c4a565b600060405180830381600087803b15801561226557600080fd5b505af1158015612279573d6000803e3d6000fd5b5050506001600160a01b0386166000908152600660209081526040808320888452909152812081815560018101805460ff1916905591506122bd6002830182612ba9565b6122cb600383016000612bc7565b6004820160009055505083856001600160a01b03167fe893e4ba0e364cdc96364b1e1e0d53b0d91e5fd6aa0ee9d81a17ecd61178bf1760405160405180910390a35050505050565b600081516028146123665760405162461bcd60e51b815260206004820152601960248201527f496e76616c69642068657820737472696e67206c656e6774680000000000000060448201526064016104f7565b60408051601480825281830190925283916000919060208201818036833701905050905060005b601481101561248a576000836123a4836002613ecb565b815181106123b4576123b4613eea565b016020015160f81c90506000846123cc846002613ecb565b6123d7906001613f00565b815181106123e7576123e7613eea565b016020015160f81c905060006061821015612403576030612406565b60575b6124109083613f18565b60618460ff161015612423576030612426565b60575b6124309085613f18565b61243b906010613f3b565b6124459190613f64565b90508060f81b85858151811061245d5761245d613eea565b60200101906001600160f81b031916908160001a905350505050808061248290613f89565b91505061238d565b50601401519392505050565b6006602090815260009283526040808420909152908252902080546001820154600383018054929360ff909216926124cd906136ff565b80601f01602080910402602001604051908101604052809291908181526020018280546124f9906136ff565b80156125465780601f1061251b57610100808354040283529160200191612546565b820191906000526020600020905b81548152906001019060200180831161252957829003601f168201915b5050505050908060040154905084565b612564836104d1848061362f565b6125805760405162461bcd60e51b81526004016104f790613970565b600154604051630163087160e01b81526001600160a01b03909116906301630871906125b3906003908590600401613fa4565b60206040518083038186803b1580156125cb57600080fd5b505afa1580156125df573d6000803e3d6000fd5b505050506040513d601f19601f82011682018060405250810190612603919061389e565b6126475760405162461bcd60e51b815260206004820152601560248201527411985a5b081d1bc81c1c9bdd99481d1a5b595bdd5d605a1b60448201526064016104f7565b6001600160a01b03831660009081526008602052604081208161266a858061362f565b602001358152602001908152602001600020600084604001602081019061269191906136e4565b6001600160401b0316815260208101919091526040016000205460ff169050806126fd5760405162461bcd60e51b815260206004820152601b60248201527f5061636b657420636f6d6d69746d656e74206e6f7420666f756e64000000000060448201526064016104f7565b60405163b33c257760e01b81526001600160a01b0385169063b33c257790612729908690600401613ab2565b600060405180830381600087803b15801561274357600080fd5b505af1158015612757573d6000803e3d6000fd5b5050506001600160a01b0385166000908152600860205260408120915061277e858061362f565b60200135815260200190815260200160002060008460400160208101906127a591906136e4565b6001600160401b0316815260208101919091526040908101600020805460ff191690556127d890606085019085016136e4565b6001600160401b03166127eb848061362f565b60200135856001600160a01b03167f19ac40c4084d9bfb5b43f819a94bf01c70789b0d579871f59e4f86def04d934460405160405180910390a450505050565b60038054612838906136ff565b80601f0160208091040260200160405190810160405280929190818152602001828054612864906136ff565b80156128b15780601f10612886576101008083540402835291602001916128b1565b820191906000526020600020905b81548152906001019060200180831161289457829003601f168201915b505050505081565b60055460009081906128d79084906001600160401b03168187613ffe565b8080601f01602080910402602001604051908101604052809392919081815260200183838082843760009201919091525092935050506001600160a01b038616905061292282612313565b6001600160a01b03161495945050505050565b61293d6129ae565b6001600160a01b0381166129a25760405162461bcd60e51b815260206004820152602660248201527f4f776e61626c653a206e6577206f776e657220697320746865207a65726f206160448201526564647265737360d01b60648201526084016104f7565b6129ab81612a08565b50565b6000546001600160a01b031633146110c55760405162461bcd60e51b815260206004820181905260248201527f4f776e61626c653a2063616c6c6572206973206e6f7420746865206f776e657260448201526064016104f7565b600080546001600160a01b038381166001600160a01b0319831681178455604051919092169283917f8be0079c531659141344cd1fd0a4f28419497f9722a3daafe3b4186f6b6457e09190a35050565b828054612a64906136ff565b90600052602060002090601f016020900481019282612a865760008555612acc565b82601f10612a9f5782800160ff19823516178555612acc565b82800160010185558215612acc579182015b82811115612acc578235825591602001919060010190612ab1565b50612ad8929150612bfd565b5090565b828054828255906000526020600020908101928215612b29579160200282015b82811115612b295782518051612b19918491602090910190612b35565b5091602001919060010190612afc565b50612ad8929150612c12565b828054612b41906136ff565b90600052602060002090601f016020900481019282612b635760008555612acc565b82601f10612b7c57805160ff1916838001178555612acc565b82800160010185558215612acc579182015b82811115612acc578251825591602001919060010190612b8e565b50805460008255906000526020600020908101906129ab9190612c12565b508054612bd3906136ff565b6000825580601f10612be3575050565b601f0160209004906000526020600020908101906129ab91905b5b80821115612ad85760008155600101612bfe565b80821115612ad8576000612c268282612bc7565b50600101612c12565b6001600160a01b03811681146129ab57600080fd5b8035612c4f81612c2f565b919050565b803560028110612c4f57600080fd5b60008083601f840112612c7557600080fd5b5081356001600160401b03811115612c8c57600080fd5b6020830191508360208260051b8501011115612ca757600080fd5b9250929050565b60008083601f840112612cc057600080fd5b5081356001600160401b03811115612cd757600080fd5b602083019150836020828501011115612ca757600080fd5b600080600080600080600080600060e08a8c031215612d0d57600080fd5b8935612d1881612c2f565b985060208a01359750612d2d60408b01612c54565b965060608a01356001600160401b0380821115612d4957600080fd5b612d558d838e01612c63565b909850965060808c0135955060a08c0135915080821115612d7557600080fd5b50612d828c828d01612cae565b9a9d999c50979a9699959894979660c00135949350505050565b600060c08284031215612dae57600080fd5b50919050565b60008060408385031215612dc757600080fd5b8235612dd281612c2f565b915060208301356001600160401b03811115612ded57600080fd5b612df985828601612d9c565b9150509250929050565b60008060408385031215612e1657600080fd5b8235612e2181612c2f565b946020939093013593505050565b634e487b7160e01b600052602160045260246000fd5b60028110612e6357634e487b7160e01b600052602160045260246000fd5b9052565b60005b83811015612e82578181015183820152602001612e6a565b83811115612e91576000848401525b50505050565b60008151808452612eaf816020860160208601612e67565b601f01601f19169290920160200192915050565b6000602080835260c0830184518285015281850151612ee56040860182612e45565b50604085015160a0606086015281815180845260e08701915060e08160051b8801019350848301925060005b81811015612f3f5760df19888603018352612f2d858551612e97565b94509285019291850191600101612f11565b505050506060850151848203601f190160808601529150612f608183612e97565b915050608084015160a08401528091505092915050565b600060408284031215612dae57600080fd5b600060208284031215612f9b57600080fd5b81356001600160401b03811115612fb157600080fd5b612fbd84828501612f77565b949350505050565b6000806000806000806000806000806101008b8d031215612fe557600080fd5b612fee8b612c44565b995060208b0135985060408b01356001600160401b038082111561301157600080fd5b61301d8e838f01612c63565b909a50985088915061303160608e01612c54565b975060808d013591508082111561304757600080fd5b6130538e838f01612cae565b909750955060a08d0135945060c08d0135935060e08d013591508082111561307a57600080fd5b506130878d828e01612f77565b9150509295989b9194979a5092959850565b600080600080608085870312156130af57600080fd5b84356130ba81612c2f565b935060208501356001600160401b03808211156130d657600080fd5b6130e288838901612d9c565b945060408701359150808211156130f857600080fd5b61310488838901612f77565b9350606087013591508082111561311a57600080fd5b5061312787828801612f77565b91505092959194509250565b60006020828403121561314557600080fd5b81356001600160401b0381111561315b57600080fd5b82016060818503121561316d57600080fd5b9392505050565b60006020828403121561318657600080fd5b5035919050565b80356001600160401b0381168114612c4f57600080fd5b6000806000806000608086880312156131bc57600080fd5b8535945060208601356001600160401b038111156131d957600080fd5b6131e588828901612cae565b90955093506131f890506040870161318d565b949793965091946060013592915050565b60008060006060848603121561321e57600080fd5b833561322981612c2f565b925060208401356001600160401b038082111561324557600080fd5b61325187838801612d9c565b9350604086013591508082111561326757600080fd5b5061327486828701612f77565b9150509250925092565b60008060006060848603121561329357600080fd5b833561329e81612c2f565b92506020840135915060408401356001600160401b038111156132c057600080fd5b61327486828701612f77565b634e487b7160e01b600052604160045260246000fd5b604080519081016001600160401b0381118282101715613304576133046132cc565b60405290565b604051601f8201601f191681016001600160401b0381118282101715613332576133326132cc565b604052919050565b60006001600160401b03821115613353576133536132cc565b50601f01601f191660200190565b600082601f83011261337257600080fd5b81356133856133808261333a565b61330a565b81815284602083860101111561339a57600080fd5b816020850160208301376000918101602001919091529392505050565b6000602082840312156133c957600080fd5b81356001600160401b038111156133df57600080fd5b612fbd84828501613361565b8481526133fb6020820185612e45565b6080604082015260006134116080830185612e97565b905082606083015295945050505050565b60208152600061316d6020830184612e97565b60008060006040848603121561344a57600080fd5b833561345581612c2f565b925060208401356001600160401b0381111561347057600080fd5b61347c86828701612cae565b9497909650939450505050565b60006020828403121561349b57600080fd5b813561316d81612c2f565b81835281816020850137506000828201602090810191909152601f909101601f19169091010190565b6000808335601e198436030181126134e657600080fd5b83016020810192503590506001600160401b0381111561350557600080fd5b803603831315612ca757600080fd5b81835260006020808501808196508560051b810191508460005b8781101561356457828403895261354582886134cf565b6135508682846134a6565b9a87019a955050509084019060010161352e565b5091979650505050505050565b8881526135816020820189612e45565b60c06040820152600061359860c08301888a613514565b86606084015282810360808401526135b18186886134a6565b9150508260a08301529998505050505050505050565b6000602082840312156135d957600080fd5b5051919050565b8781526135f06020820188612e45565b60a06040820152600061360760a083018789613514565b828103606084015261361a8186886134a6565b91505082608083015298975050505050505050565b60008235603e1983360301811261364557600080fd5b9190910192915050565b6000808335601e1984360301811261366657600080fd5b8301803591506001600160401b0382111561368057600080fd5b602001915036819003821315612ca757600080fd5b6020808252602f908201527f5265636569766572206973206e6f742074686520696e74656e6465642070616360408201526e35b2ba103232b9ba34b730ba34b7b760891b606082015260800190565b6000602082840312156136f657600080fd5b61316d8261318d565b600181811c9082168061371357607f821691505b60208210811415612dae57634e487b7160e01b600052602260045260246000fd5b8054600090600181811c908083168061374e57607f831692505b602080841082141561377057634e487b7160e01b600052602260045260246000fd5b8388526020880182801561378b576001811461379c576137c7565b60ff198716825282820197506137c7565b60008981526020902060005b878110156137c1578154848201529086019084016137a8565b83019850505b5050505050505092915050565b6001600160401b036137e58261318d565b16825260006137f760208301836134cf565b6040602086015261380c6040860182846134a6565b95945050505050565b6080815260006138286080830186613734565b828103602084015261383a81866137d4565b9050828103806040850152601d82527f6368616e6e656c2f706174682f746f2f62652f61646465642f686572650000006020830152604081016060850152506138866040820185612e97565b9695505050505050565b80151581146129ab57600080fd5b6000602082840312156138b057600080fd5b815161316d81613890565b60006001600160401b03808411156138d5576138d56132cc565b8360051b60206138e681830161330a565b8681529185019181810190368411156138fe57600080fd5b865b84811015613932578035868111156139185760008081fd5b61392436828b01613361565b845250918301918301613900565b50979650505050505050565b6040815260006139526040830186886134a6565b8281036020840152613965818587613514565b979650505050505050565b6020808252602a908201527f5265636569766572206973206e6f7420746865206f726967696e616c2070616360408201526935b2ba1039b2b73232b960b11b606082015260800190565b6080815260006139cd6080830185613734565b82810360208401526139df81856137d4565b9050828103806040850152600f82526e0c2c6d65ee0c2c6d6cae85ee0c2e8d608b1b602083015260408101606085015250602a60408201527f65787065637465642061636b20726563656970742068617368206f6e20506f6c6060820152693cb6b2b91031b430b4b760b11b608082015260a081019150509392505050565b60008235603e19833603018112613a7457600080fd5b90910192915050565b6000613a8982836134cf565b60408552613a9b6040860182846134a6565b915050602083013560208501528091505092915050565b602081526000613ac28384613a5e565b60c06020840152613ad660e0840182613a7d565b9050613ae56020850185613a5e565b601f1980858403016040860152613afc8383613a7d565b9250613b0a6040870161318d565b91506001600160401b038083166060870152613b2960608801886134cf565b935082878603016080880152613b408585836134a6565b94505080613b506080890161318d565b1660a087015280613b6360a0890161318d565b1660c08701525050508091505092915050565b6040815260008335613b8781613890565b15156040830152613b9b60208501856134cf565b60406060850152613bb06080850182846134a6565b925050506001600160401b03831660208301529392505050565b604081526000613bdd6040830185613734565b8281036020840152613bef84856134cf565b60608352613c016060840182846134a6565b9150506001600160401b03613c186020870161318d565b166020830152613c2b60408601866134cf565b8383036040850152613c3e8382846134a6565b98975050505050505050565b838152606060208201526000613c636060830185612e97565b9050826040830152949350505050565b634e487b7160e01b600052601160045260246000fd5b60006001600160401b03808316818516808303821115613cab57613cab613c73565b01949350505050565b608081526000613cc86080830187896134a6565b6001600160401b039586166020840152939094166040820152606001529392505050565b608081526000613cff6080830185613734565b8281036020840152613d1181856137d4565b905082810380604085015260168252750e0c2c6d6cae85ec6dedadad2e8dacadce85ee0c2e8d60531b602083015260408101606085015250603860408201527f6578706563746564207669727475616c207061636b657420636f6d6d69746d6560608201527f6e742068617368206f6e20506f6c796d657220636861696e0000000000000000608082015260a081019150509392505050565b60006020808385031215613dbd57600080fd5b82516001600160401b0380821115613dd457600080fd5b9084019060408287031215613de857600080fd5b613df06132e2565b8251613dfb81613890565b81528284015182811115613e0e57600080fd5b80840193505086601f840112613e2357600080fd5b82519150613e336133808361333a565b8281528785848601011115613e4757600080fd5b613e5683868301878701612e67565b938101939093525090949350505050565b604081526000613e7b6040830185876134a6565b90506001600160401b0383166020830152949350505050565b6001600160401b038316815260406020820152815115156040820152600060208301516040606084015261380c6080840182612e97565b6000816000190483118215151615613ee557613ee5613c73565b500290565b634e487b7160e01b600052603260045260246000fd5b60008219821115613f1357613f13613c73565b500190565b600060ff821660ff841680821015613f3257613f32613c73565b90039392505050565b600060ff821660ff84168160ff0481118215151615613f5c57613f5c613c73565b029392505050565b600060ff821660ff84168060ff03821115613f8157613f81613c73565b019392505050565b6000600019821415613f9d57613f9d613c73565b5060010190565b606081526000613fb76060830185613734565b8281036020840152613fc981856137d4565b83810360409485015260138152720e0c2c6d6cae85ee4cac6cad2e0e85ee0c2e8d606b1b602082015292909201949350505050565b6000808585111561400e57600080fd5b8386111561401b57600080fd5b505082019391909203915056fe6578706563746564206368616e6e656c20627974657320636f6e73747275637465642066726f6d20706172616d732e204368616e6e656c2e5374617465203d207b41636b5f50656e64696e672c20436f6e6669726d5f50656e64696e677d6578706563746564206368616e6e656c20627974657320636f6e73747275637465642066726f6d20706172616d732e204368616e6e656c2e5374617465203d207b436c6f736564285f50656e64696e673f297da2646970667358221220da7f89df448cb3a5ce7d59bd3b29095458d78f55d98401eff0e420359ad7665264736f6c63430008090033",
  "linkReferences": {},
  "deployedLinkReferences": {}
}