{
  "_format": "hh-sol-artifact-1",
  "contractName": "Dispatcher",
  "sourceName": "contracts/Dispatcher.sol",
  "abi": [
    {
      "inputs": [
        {
          "internalType": "contract ZKMintVerifier",
          "name": "_verifier",
          "type": "address"
        },
        {
          "internalType": "address payable",
          "name": "_escrow",
          "type": "address"
        }
      ],
      "stateMutability": "nonpayable",
      "type": "constructor"
    },
    {
      "anonymous": false,
      "inputs": [
        {
          "indexed": true,
          "internalType": "address",
          "name": "sourcePortAddress",
          "type": "address"
        },
        {
          "indexed": true,
          "internalType": "bytes32",
          "name": "sourceChannelId",
          "type": "bytes32"
        },
        {
          "components": [
            {
              "internalType": "bool",
              "name": "success",
              "type": "bool"
            },
            {
              "internalType": "bytes",
              "name": "data",
              "type": "bytes"
            }
          ],
          "indexed": false,
          "internalType": "struct AckPacket",
          "name": "AckPacket",
          "type": "tuple"
        },
        {
          "indexed": false,
          "internalType": "uint64",
          "name": "sequence",
          "type": "uint64"
        }
      ],
      "name": "Acknowledgement",
      "type": "event"
    },
    {
      "anonymous": false,
      "inputs": [
        {
          "indexed": true,
          "internalType": "address",
          "name": "portAddress",
          "type": "address"
        },
        {
          "indexed": true,
          "internalType": "bytes32",
          "name": "channelId",
          "type": "bytes32"
        }
      ],
      "name": "CloseIbcChannel",
      "type": "event"
    },
    {
      "anonymous": false,
      "inputs": [
        {
          "indexed": true,
          "internalType": "address",
          "name": "portAddress",
          "type": "address"
        },
        {
          "indexed": true,
          "internalType": "bytes32",
          "name": "channelId",
          "type": "bytes32"
        },
        {
          "indexed": false,
          "internalType": "string",
          "name": "counterpartyPortId",
          "type": "string"
        },
        {
          "indexed": true,
          "internalType": "bytes32",
          "name": "counterpartyChannelId",
          "type": "bytes32"
        },
        {
          "indexed": false,
          "internalType": "string[]",
          "name": "connectionHops",
          "type": "string[]"
        }
      ],
      "name": "ConnectIbcChannel",
      "type": "event"
    },
    {
      "anonymous": false,
      "inputs": [
        {
          "indexed": true,
          "internalType": "bytes32",
          "name": "srcChannelId",
          "type": "bytes32"
        },
        {
          "indexed": false,
          "internalType": "string",
          "name": "srcPortId",
          "type": "string"
        },
        {
          "indexed": true,
          "internalType": "bytes32",
          "name": "destChannelId",
          "type": "bytes32"
        },
        {
          "indexed": false,
          "internalType": "string",
          "name": "destPortId",
          "type": "string"
        },
        {
          "indexed": false,
          "internalType": "bytes",
          "name": "data",
          "type": "bytes"
        },
        {
          "indexed": false,
          "internalType": "uint64",
          "name": "sequence",
          "type": "uint64"
        }
      ],
      "name": "OnRecvPacket",
      "type": "event"
    },
    {
      "anonymous": false,
      "inputs": [
        {
          "indexed": true,
          "internalType": "address",
          "name": "portAddress",
          "type": "address"
        },
        {
          "indexed": true,
          "internalType": "bytes32",
          "name": "counterpartyChannelId",
          "type": "bytes32"
        },
        {
          "indexed": false,
          "internalType": "bytes32",
          "name": "version",
          "type": "bytes32"
        },
        {
          "indexed": false,
          "internalType": "enum ChannelOrder",
          "name": "ordering",
          "type": "uint8"
        },
        {
          "indexed": false,
          "internalType": "string[]",
          "name": "connectionHops",
          "type": "string[]"
        },
        {
          "indexed": false,
          "internalType": "string",
          "name": "counterpartyPortId",
          "type": "string"
        },
        {
          "indexed": false,
          "internalType": "bytes32",
          "name": "counterpartyVersion",
          "type": "bytes32"
        }
      ],
      "name": "OpenIbcChannel",
      "type": "event"
    },
    {
      "anonymous": false,
      "inputs": [
        {
          "indexed": true,
          "internalType": "address",
          "name": "previousOwner",
          "type": "address"
        },
        {
          "indexed": true,
          "internalType": "address",
          "name": "newOwner",
          "type": "address"
        }
      ],
      "name": "OwnershipTransferred",
      "type": "event"
    },
    {
      "anonymous": false,
      "inputs": [
        {
          "indexed": true,
          "internalType": "address",
          "name": "sourcePortAddress",
          "type": "address"
        },
        {
          "indexed": true,
          "internalType": "bytes32",
          "name": "sourceChannelId",
          "type": "bytes32"
        },
        {
          "indexed": false,
          "internalType": "bytes",
          "name": "packet",
          "type": "bytes"
        },
        {
          "indexed": false,
          "internalType": "uint64",
          "name": "sequence",
          "type": "uint64"
        },
        {
          "indexed": false,
          "internalType": "uint64",
          "name": "timeoutTimestamp",
          "type": "uint64"
        },
        {
          "indexed": false,
          "internalType": "uint256",
          "name": "fee",
          "type": "uint256"
        }
      ],
      "name": "SendPacket",
      "type": "event"
    },
    {
      "inputs": [
        {
          "internalType": "contract IbcReceiver",
          "name": "receiver",
          "type": "address"
        },
        {
          "components": [
            {
              "components": [
                {
                  "internalType": "string",
                  "name": "portId",
                  "type": "string"
                },
                {
                  "internalType": "bytes32",
                  "name": "channelId",
                  "type": "bytes32"
                }
              ],
              "internalType": "struct IbcEndpoint",
              "name": "src",
              "type": "tuple"
            },
            {
              "components": [
                {
                  "internalType": "string",
                  "name": "portId",
                  "type": "string"
                },
                {
                  "internalType": "bytes32",
                  "name": "channelId",
                  "type": "bytes32"
                }
              ],
              "internalType": "struct IbcEndpoint",
              "name": "dest",
              "type": "tuple"
            },
            {
              "internalType": "uint64",
              "name": "sequence",
              "type": "uint64"
            },
            {
              "internalType": "bytes",
              "name": "data",
              "type": "bytes"
            },
            {
              "components": [
                {
                  "internalType": "uint64",
                  "name": "block",
                  "type": "uint64"
                },
                {
                  "internalType": "uint64",
                  "name": "timestamp",
                  "type": "uint64"
                }
              ],
              "internalType": "struct IbcTimeout",
              "name": "timeout",
              "type": "tuple"
            }
          ],
          "internalType": "struct IbcPacket",
          "name": "packet",
          "type": "tuple"
        },
        {
          "components": [
            {
              "internalType": "bool",
              "name": "success",
              "type": "bool"
            },
            {
              "internalType": "bytes",
              "name": "data",
              "type": "bytes"
            }
          ],
          "internalType": "struct AckPacket",
          "name": "ackPacket",
          "type": "tuple"
        },
        {
          "components": [
            {
              "internalType": "uint64",
              "name": "proofHeight",
              "type": "uint64"
            },
            {
              "internalType": "bytes",
              "name": "proof",
              "type": "bytes"
            }
          ],
          "internalType": "struct Proof",
          "name": "proof",
          "type": "tuple"
        }
      ],
      "name": "acknowledgement",
      "outputs": [],
      "stateMutability": "nonpayable",
      "type": "function"
    },
    {
      "inputs": [
        {
          "internalType": "bytes32",
          "name": "channelId",
          "type": "bytes32"
        }
      ],
      "name": "closeIbcChannel",
      "outputs": [],
      "stateMutability": "nonpayable",
      "type": "function"
    },
    {
      "inputs": [
        {
          "internalType": "contract IbcReceiver",
          "name": "portAddress",
          "type": "address"
        },
        {
          "internalType": "bytes32",
          "name": "channelId",
          "type": "bytes32"
        },
        {
          "internalType": "string[]",
          "name": "connectionHops",
          "type": "string[]"
        },
        {
          "internalType": "enum ChannelOrder",
          "name": "ordering",
          "type": "uint8"
        },
        {
          "internalType": "string",
          "name": "counterpartyPortId",
          "type": "string"
        },
        {
          "internalType": "bytes32",
          "name": "counterpartyChannelId",
          "type": "bytes32"
        },
        {
          "internalType": "bytes32",
          "name": "counterpartyVersion",
          "type": "bytes32"
        },
        {
          "components": [
            {
              "internalType": "uint64",
              "name": "proofHeight",
              "type": "uint64"
            },
            {
              "internalType": "bytes",
              "name": "proof",
              "type": "bytes"
            }
          ],
          "internalType": "struct Proof",
          "name": "proof",
          "type": "tuple"
        }
      ],
      "name": "connectIbcChannel",
      "outputs": [],
      "stateMutability": "nonpayable",
      "type": "function"
    },
    {
      "inputs": [
        {
          "components": [
            {
              "internalType": "bytes",
              "name": "clientState",
              "type": "bytes"
            },
            {
              "internalType": "bytes",
              "name": "consensusState",
              "type": "bytes"
            }
          ],
          "internalType": "struct InitClientMsg",
          "name": "initClientMsg",
          "type": "tuple"
        }
      ],
      "name": "createClient",
      "outputs": [],
      "stateMutability": "nonpayable",
      "type": "function"
    },
    {
      "inputs": [
        {
          "internalType": "address",
          "name": "portAddress",
          "type": "address"
        },
        {
          "internalType": "bytes32",
          "name": "channelId",
          "type": "bytes32"
        }
      ],
      "name": "getChannel",
      "outputs": [
        {
          "components": [
            {
              "internalType": "bytes32",
              "name": "version",
              "type": "bytes32"
            },
            {
              "internalType": "enum ChannelOrder",
              "name": "ordering",
              "type": "uint8"
            },
            {
              "internalType": "string[]",
              "name": "connectionHops",
              "type": "string[]"
            },
            {
              "internalType": "string",
              "name": "counterpartyPortId",
              "type": "string"
            },
            {
              "internalType": "bytes32",
              "name": "counterpartyChannelId",
              "type": "bytes32"
            }
          ],
          "internalType": "struct Channel",
          "name": "",
          "type": "tuple"
        }
      ],
      "stateMutability": "view",
      "type": "function"
    },
    {
      "inputs": [
        {
          "internalType": "string",
          "name": "hexStr",
          "type": "string"
        }
      ],
      "name": "hexStrToAddress",
      "outputs": [
        {
          "internalType": "address",
          "name": "",
          "type": "address"
        }
      ],
      "stateMutability": "pure",
      "type": "function"
    },
    {
      "inputs": [],
      "name": "latestConsensusState",
      "outputs": [
        {
          "internalType": "bytes",
          "name": "",
          "type": "bytes"
        }
      ],
      "stateMutability": "view",
      "type": "function"
    },
    {
      "inputs": [
        {
          "internalType": "address",
          "name": "portAddress",
          "type": "address"
        },
        {
          "internalType": "bytes32",
          "name": "channelId",
          "type": "bytes32"
        },
        {
          "components": [
            {
              "internalType": "uint64",
              "name": "proofHeight",
              "type": "uint64"
            },
            {
              "internalType": "bytes",
              "name": "proof",
              "type": "bytes"
            }
          ],
          "internalType": "struct Proof",
          "name": "proof",
          "type": "tuple"
        }
      ],
      "name": "onCloseIbcChannel",
      "outputs": [],
      "stateMutability": "nonpayable",
      "type": "function"
    },
    {
      "inputs": [
        {
          "internalType": "contract IbcReceiver",
          "name": "receiver",
          "type": "address"
        },
        {
          "components": [
            {
              "components": [
                {
                  "internalType": "string",
                  "name": "portId",
                  "type": "string"
                },
                {
                  "internalType": "bytes32",
                  "name": "channelId",
                  "type": "bytes32"
                }
              ],
              "internalType": "struct IbcEndpoint",
              "name": "src",
              "type": "tuple"
            },
            {
              "components": [
                {
                  "internalType": "string",
                  "name": "portId",
                  "type": "string"
                },
                {
                  "internalType": "bytes32",
                  "name": "channelId",
                  "type": "bytes32"
                }
              ],
              "internalType": "struct IbcEndpoint",
              "name": "dest",
              "type": "tuple"
            },
            {
              "internalType": "uint64",
              "name": "sequence",
              "type": "uint64"
            },
            {
              "internalType": "bytes",
              "name": "data",
              "type": "bytes"
            },
            {
              "components": [
                {
                  "internalType": "uint64",
                  "name": "block",
                  "type": "uint64"
                },
                {
                  "internalType": "uint64",
                  "name": "timestamp",
                  "type": "uint64"
                }
              ],
              "internalType": "struct IbcTimeout",
              "name": "timeout",
              "type": "tuple"
            }
          ],
          "internalType": "struct IbcPacket",
          "name": "packet",
          "type": "tuple"
        },
        {
          "components": [
            {
              "internalType": "uint64",
              "name": "proofHeight",
              "type": "uint64"
            },
            {
              "internalType": "bytes",
              "name": "proof",
              "type": "bytes"
            }
          ],
          "internalType": "struct Proof",
          "name": "proof",
          "type": "tuple"
        }
      ],
      "name": "onRecvPacket",
      "outputs": [],
      "stateMutability": "nonpayable",
      "type": "function"
    },
    {
      "inputs": [
        {
          "internalType": "contract IbcReceiver",
          "name": "receiver",
          "type": "address"
        },
        {
          "components": [
            {
              "components": [
                {
                  "internalType": "string",
                  "name": "portId",
                  "type": "string"
                },
                {
                  "internalType": "bytes32",
                  "name": "channelId",
                  "type": "bytes32"
                }
              ],
              "internalType": "struct IbcEndpoint",
              "name": "src",
              "type": "tuple"
            },
            {
              "components": [
                {
                  "internalType": "string",
                  "name": "portId",
                  "type": "string"
                },
                {
                  "internalType": "bytes32",
                  "name": "channelId",
                  "type": "bytes32"
                }
              ],
              "internalType": "struct IbcEndpoint",
              "name": "dest",
              "type": "tuple"
            },
            {
              "internalType": "uint64",
              "name": "sequence",
              "type": "uint64"
            },
            {
              "internalType": "bytes",
              "name": "data",
              "type": "bytes"
            },
            {
              "components": [
                {
                  "internalType": "uint64",
                  "name": "block",
                  "type": "uint64"
                },
                {
                  "internalType": "uint64",
                  "name": "timestamp",
                  "type": "uint64"
                }
              ],
              "internalType": "struct IbcTimeout",
              "name": "timeout",
              "type": "tuple"
            }
          ],
          "internalType": "struct IbcPacket",
          "name": "packet",
          "type": "tuple"
        },
        {
          "components": [
            {
              "internalType": "uint64",
              "name": "proofHeight",
              "type": "uint64"
            },
            {
              "internalType": "bytes",
              "name": "proof",
              "type": "bytes"
            }
          ],
          "internalType": "struct Proof",
          "name": "proof",
          "type": "tuple"
        }
      ],
      "name": "onTimeoutPacket",
      "outputs": [],
      "stateMutability": "nonpayable",
      "type": "function"
    },
    {
      "inputs": [
        {
          "internalType": "contract IbcReceiver",
          "name": "portAddress",
          "type": "address"
        },
        {
          "internalType": "bytes32",
          "name": "version",
          "type": "bytes32"
        },
        {
          "internalType": "enum ChannelOrder",
          "name": "ordering",
          "type": "uint8"
        },
        {
          "internalType": "string[]",
          "name": "connectionHops",
          "type": "string[]"
        },
        {
          "internalType": "bytes32",
          "name": "counterpartyChannelId",
          "type": "bytes32"
        },
        {
          "internalType": "string",
          "name": "counterpartyPortId",
          "type": "string"
        },
        {
          "internalType": "bytes32",
          "name": "counterpartyVersion",
          "type": "bytes32"
        }
      ],
      "name": "openIbcChannel",
      "outputs": [],
      "stateMutability": "nonpayable",
      "type": "function"
    },
    {
      "inputs": [],
      "name": "owner",
      "outputs": [
        {
          "internalType": "address",
          "name": "",
          "type": "address"
        }
      ],
      "stateMutability": "view",
      "type": "function"
    },
    {
      "inputs": [
        {
          "internalType": "address",
          "name": "",
          "type": "address"
        },
        {
          "internalType": "bytes32",
          "name": "",
          "type": "bytes32"
        }
      ],
      "name": "portChannelMap",
      "outputs": [
        {
          "internalType": "bytes32",
          "name": "version",
          "type": "bytes32"
        },
        {
          "internalType": "enum ChannelOrder",
          "name": "ordering",
          "type": "uint8"
        },
        {
          "internalType": "string",
          "name": "counterpartyPortId",
          "type": "string"
        },
        {
          "internalType": "bytes32",
          "name": "counterpartyChannelId",
          "type": "bytes32"
        }
      ],
      "stateMutability": "view",
      "type": "function"
    },
    {
      "inputs": [
        {
          "internalType": "address",
          "name": "addr",
          "type": "address"
        },
        {
          "internalType": "string",
          "name": "portId",
          "type": "string"
        }
      ],
      "name": "portIdAddressMatch",
      "outputs": [
        {
          "internalType": "bool",
          "name": "",
          "type": "bool"
        }
      ],
      "stateMutability": "view",
      "type": "function"
    },
    {
      "inputs": [],
      "name": "renounceOwnership",
      "outputs": [],
      "stateMutability": "nonpayable",
      "type": "function"
    },
    {
      "inputs": [
        {
          "internalType": "bytes32",
          "name": "channelId",
          "type": "bytes32"
        },
        {
          "internalType": "bytes",
          "name": "packet",
          "type": "bytes"
        },
        {
          "internalType": "uint64",
          "name": "timeoutTimestamp",
          "type": "uint64"
        },
        {
          "internalType": "uint256",
          "name": "fee",
          "type": "uint256"
        }
      ],
      "name": "sendPacket",
      "outputs": [],
      "stateMutability": "payable",
      "type": "function"
    },
    {
      "inputs": [
        {
          "internalType": "address",
          "name": "newOwner",
          "type": "address"
        }
      ],
      "name": "transferOwnership",
      "outputs": [],
      "stateMutability": "nonpayable",
      "type": "function"
    },
    {
      "inputs": [
        {
          "components": [
            {
              "internalType": "bytes",
              "name": "consensusState",
              "type": "bytes"
            },
            {
              "internalType": "uint64",
              "name": "height",
              "type": "uint64"
            },
            {
              "internalType": "bytes",
              "name": "zkProof",
              "type": "bytes"
            }
          ],
          "internalType": "struct UpdateClientMsg",
          "name": "updateClientMsg",
          "type": "tuple"
        }
      ],
      "name": "updateClient",
      "outputs": [],
      "stateMutability": "nonpayable",
      "type": "function"
    },
    {
      "inputs": [
        {
          "components": [
            {
              "internalType": "bytes",
              "name": "clientState",
              "type": "bytes"
            },
            {
              "internalType": "bytes",
              "name": "consensusState",
              "type": "bytes"
            }
          ],
          "internalType": "struct UpgradeClientMsg",
          "name": "upgradeClientMsg",
          "type": "tuple"
        }
      ],
      "name": "upgradeClient",
      "outputs": [],
      "stateMutability": "nonpayable",
      "type": "function"
    }
  ],
  "bytecode": "0x60806040526000600260146101000a81548160ff0219169083151502179055506040518060400160405280600c81526020017f6574682e706f6c796962632e0000000000000000000000000000000000000000815250600490805190602001906200006c929190620002d5565b50600c600560006101000a81548167ffffffffffffffff021916908367ffffffffffffffff160217905550348015620000a457600080fd5b506040516200549a3803806200549a8339818101604052810190620000ca919062000448565b620000ea620000de6200020960201b60201c565b6200021160201b60201c565b81600160006101000a81548173ffffffffffffffffffffffffffffffffffffffff021916908373ffffffffffffffffffffffffffffffffffffffff16021790555080600260006101000a81548173ffffffffffffffffffffffffffffffffffffffff021916908373ffffffffffffffffffffffffffffffffffffffff160217905550600073ffffffffffffffffffffffffffffffffffffffff16600260009054906101000a900473ffffffffffffffffffffffffffffffffffffffff1673ffffffffffffffffffffffffffffffffffffffff16141562000201576040517f08c379a0000000000000000000000000000000000000000000000000000000008152600401620001f890620004f0565b60405180910390fd5b505062000577565b600033905090565b60008060009054906101000a900473ffffffffffffffffffffffffffffffffffffffff169050816000806101000a81548173ffffffffffffffffffffffffffffffffffffffff021916908373ffffffffffffffffffffffffffffffffffffffff1602179055508173ffffffffffffffffffffffffffffffffffffffff168173ffffffffffffffffffffffffffffffffffffffff167f8be0079c531659141344cd1fd0a4f28419497f9722a3daafe3b4186f6b6457e060405160405180910390a35050565b828054620002e39062000541565b90600052602060002090601f01602090048101928262000307576000855562000353565b82601f106200032257805160ff191683800117855562000353565b8280016001018555821562000353579182015b828111156200035257825182559160200191906001019062000335565b5b50905062000362919062000366565b5090565b5b808211156200038157600081600090555060010162000367565b5090565b600080fd5b600073ffffffffffffffffffffffffffffffffffffffff82169050919050565b6000620003b7826200038a565b9050919050565b6000620003cb82620003aa565b9050919050565b620003dd81620003be565b8114620003e957600080fd5b50565b600081519050620003fd81620003d2565b92915050565b600062000410826200038a565b9050919050565b620004228162000403565b81146200042e57600080fd5b50565b600081519050620004428162000417565b92915050565b6000806040838503121562000462576200046162000385565b5b60006200047285828601620003ec565b9250506020620004858582860162000431565b9150509250929050565b600082825260208201905092915050565b7f457363726f772063616e6e6f74206265207a65726f2061646472657373000000600082015250565b6000620004d8601d836200048f565b9150620004e582620004a0565b602082019050919050565b600060208201905081810360008301526200050b81620004c9565b9050919050565b7f4e487b7100000000000000000000000000000000000000000000000000000000600052602260045260246000fd5b600060028204905060018216806200055a57607f821691505b6020821081141562000571576200057062000512565b5b50919050565b614f1380620005876000396000f3fe6080604052600436106101145760003560e01c8063715018a6116100a0578063a1ef9a9811610064578063a1ef9a981461034e578063b2b1bf031461038b578063c2a2514d146103cb578063e36e013f146103f6578063f2fde38b1461043357610114565b8063715018a61461029e5780638b24b4cb146102b55780638d3d5aa9146102de5780638da5cb5b146102fa578063951538f31461032557610114565b80634c9778d3116100e75780634c9778d3146101d15780634efde434146101fa578063520b128e1461022357806364260a601461024c578063678746491461027557610114565b80630ad8d666146101195780631f456c1e1461014257806342852d241461016b578063487fca7e146101a8575b600080fd5b34801561012557600080fd5b50610140600480360381019061013b9190612912565b61045c565b005b34801561014e57600080fd5b5061016960048036038101906101649190612ab3565b61056e565b005b34801561017757600080fd5b50610192600480360381019061018d9190612bc1565b610672565b60405161019f9190612e5f565b60405180910390f35b3480156101b457600080fd5b506101cf60048036038101906101ca9190612ea0565b610897565b005b3480156101dd57600080fd5b506101f860048036038101906101f39190612ee9565b61092d565b005b34801561020657600080fd5b50610221600480360381019061021c919061301b565b610c5f565b005b34801561022f57600080fd5b5061024a60048036038101906102459190613083565b610cd9565b005b34801561025857600080fd5b50610273600480360381019061026e9190612912565b6110ab565b005b34801561028157600080fd5b5061029c6004803603810190610297919061315d565b611163565b005b3480156102aa57600080fd5b506102b36112c2565b005b3480156102c157600080fd5b506102dc60048036038101906102d791906131a6565b6112d6565b005b6102f860048036038101906102f3919061329f565b6115fe565b005b34801561030657600080fd5b5061030f611b0a565b60405161031c9190613336565b60405180910390f35b34801561033157600080fd5b5061034c60048036038101906103479190613351565b611b33565b005b34801561035a57600080fd5b50610375600480360381019061037091906134f0565b611ffb565b6040516103829190613336565b60405180910390f35b34801561039757600080fd5b506103b260048036038101906103ad9190612bc1565b6121df565b6040516103c294939291906135a1565b60405180910390f35b3480156103d757600080fd5b506103e06122b1565b6040516103ed9190613642565b60405180910390f35b34801561040257600080fd5b5061041d60048036038101906104189190613664565b61233f565b60405161042a91906136df565b60405180910390f35b34801561043f57600080fd5b5061045a600480360381019061045591906136fa565b6123fa565b005b6104658161247e565b6104a4576040517f08c379a000000000000000000000000000000000000000000000000000000000815260040161049b90613773565b60405180910390fd5b8180602001906104b491906137a2565b602001358280600001906104c891906137a2565b602001357f080631928e492258b6a102fc2ab3e0a8dfcb747ab0885c25f9cb7a8d486210368480600001906104fd91906137a2565b806000019061050c91906137ca565b86806020019061051c91906137a2565b806000019061052b91906137ca565b88806060019061053b919061382d565b8a604001602081019061054e9190613890565b6040516105619796959493929190613926565b60405180910390a3505050565b60008973ffffffffffffffffffffffffffffffffffffffff1663486592198a8a8a8a8a8a8a8a6040518963ffffffff1660e01b81526004016105b7989796959493929190613ad9565b602060405180830381600087803b1580156105d157600080fd5b505af11580156105e5573d6000803e3d6000fd5b505050506040513d601f19601f820116820180604052508101906106099190613b61565b9050848a73ffffffffffffffffffffffffffffffffffffffff167f9a93c124e7f0aa93d3fbe660b1366e0483b4267619924382261498efbb92c873838b8b8b8a8a8a60405161065e9796959493929190613b8e565b60405180910390a350505050505050505050565b61067a6125f6565b600660008473ffffffffffffffffffffffffffffffffffffffff1673ffffffffffffffffffffffffffffffffffffffff16815260200190815260200160002060008381526020019081526020016000206040518060a0016040529081600082015481526020016001820160009054906101000a900460ff16600181111561070457610703612c10565b5b600181111561071657610715612c10565b5b815260200160028201805480602002602001604051908101604052809291908181526020016000905b828210156107eb57838290600052602060002001805461075e90613c22565b80601f016020809104026020016040519081016040528092919081815260200182805461078a90613c22565b80156107d75780601f106107ac576101008083540402835291602001916107d7565b820191906000526020600020905b8154815290600101906020018083116107ba57829003601f168201915b50505050508152602001906001019061073f565b50505050815260200160038201805461080390613c22565b80601f016020809104026020016040519081016040528092919081815260200182805461082f90613c22565b801561087c5780601f106108515761010080835404028352916020019161087c565b820191906000526020600020905b81548152906001019060200180831161085f57829003601f168201915b50505050508152602001600482015481525050905092915050565b61089f6124ac565b600260149054906101000a900460ff16156108ef576040517f08c379a00000000000000000000000000000000000000000000000000000000081526004016108e690613ca0565b60405180910390fd5b6001600260146101000a81548160ff02191690831515021790555080806020019061091a919061382d565b6003919061092992919061263d565b5050565b600160009054906101000a900473ffffffffffffffffffffffffffffffffffffffff1673ffffffffffffffffffffffffffffffffffffffff16639511059d6003836040518060800160405280605e8152602001614e2d605e91396040518463ffffffff1660e01b81526004016109a593929190613eb7565b60206040518083038186803b1580156109bd57600080fd5b505afa1580156109d1573d6000803e3d6000fd5b505050506040513d601f19601f820116820180604052508101906109f59190613f42565b610a34576040517f08c379a0000000000000000000000000000000000000000000000000000000008152600401610a2b90613fbb565b60405180910390fd5b8973ffffffffffffffffffffffffffffffffffffffff1663e60a72938a85856040518463ffffffff1660e01b8152600401610a7193929190613fdb565b600060405180830381600087803b158015610a8b57600080fd5b505af1158015610a9f573d6000803e3d6000fd5b505050506040518060a00160405280838152602001876001811115610ac757610ac6612c10565b5b8152602001898990610ad991906140c5565b815260200186868080601f016020809104026020016040519081016040528093929190818152602001838380828437600081840152601f19601f82011690508083019250505050505050815260200184815250600660008c73ffffffffffffffffffffffffffffffffffffffff1673ffffffffffffffffffffffffffffffffffffffff16815260200190815260200160002060008b81526020019081526020016000206000820151816000015560208201518160010160006101000a81548160ff02191690836001811115610bb157610bb0612c10565b5b02179055506040820151816002019080519060200190610bd29291906126c3565b506060820151816003019080519060200190610bef929190612723565b506080820151816004015590505082898b73ffffffffffffffffffffffffffffffffffffffff167f57ea540ad7b8bfd2813b8637764ba029fedc52de3f812934a46511506aa11b8e88888d8d604051610c4b94939291906140da565b60405180910390a450505050505050505050565b610c676124ac565b600260149054906101000a900460ff16610cb6576040517f08c379a0000000000000000000000000000000000000000000000000000000008152600401610cad90614161565b60405180910390fd5b808060200190610cc6919061382d565b60039190610cd592919061263d565b5050565b610d0184848060000190610ced91906137a2565b8060000190610cfc91906137ca565b61233f565b610d40576040517f08c379a0000000000000000000000000000000000000000000000000000000008152600401610d37906141f3565b60405180910390fd5b600160009054906101000a900473ffffffffffffffffffffffffffffffffffffffff1673ffffffffffffffffffffffffffffffffffffffff16639511059d6003836040518363ffffffff1660e01b8152600401610d9e9291906142d1565b60206040518083038186803b158015610db657600080fd5b505afa158015610dca573d6000803e3d6000fd5b505050506040513d601f19601f82011682018060405250810190610dee9190613f42565b610e2d576040517f08c379a0000000000000000000000000000000000000000000000000000000008152600401610e249061437a565b60405180910390fd5b6000600860008673ffffffffffffffffffffffffffffffffffffffff1673ffffffffffffffffffffffffffffffffffffffff1681526020019081526020016000206000858060000190610e8091906137a2565b6020013581526020019081526020016000206000856040016020810190610ea79190613890565b67ffffffffffffffff1667ffffffffffffffff16815260200190815260200160002060009054906101000a900460ff16905080610f19576040517f08c379a0000000000000000000000000000000000000000000000000000000008152600401610f10906143e6565b60405180910390fd5b8473ffffffffffffffffffffffffffffffffffffffff1663f45cf5e4856040518263ffffffff1660e01b8152600401610f52919061458c565b600060405180830381600087803b158015610f6c57600080fd5b505af1158015610f80573d6000803e3d6000fd5b50505050600860008673ffffffffffffffffffffffffffffffffffffffff1673ffffffffffffffffffffffffffffffffffffffff1681526020019081526020016000206000858060000190610fd591906137a2565b6020013581526020019081526020016000206000856040016020810190610ffc9190613890565b67ffffffffffffffff1667ffffffffffffffff16815260200190815260200160002060006101000a81549060ff021916905583806000019061103e91906137a2565b602001358573ffffffffffffffffffffffffffffffffffffffff167fc4198f9e29f113c5464c20bc273a0861cf81d5fdef68c6a7cc9993d9437d1a0b8587604001602081019061108e9190613890565b60405161109c929190614638565b60405180910390a35050505050565b6110b48161247e565b6110f3576040517f08c379a00000000000000000000000000000000000000000000000000000000081526004016110ea90613773565b60405180910390fd5b8273ffffffffffffffffffffffffffffffffffffffff1663b33c2577836040518263ffffffff1660e01b815260040161112c919061458c565b600060405180830381600087803b15801561114657600080fd5b505af115801561115a573d6000803e3d6000fd5b50505050505050565b600260149054906101000a900460ff166111b2576040517f08c379a00000000000000000000000000000000000000000000000000000000081526004016111a990614161565b60405180910390fd5b600160009054906101000a900473ffffffffffffffffffffffffffffffffffffffff1673ffffffffffffffffffffffffffffffffffffffff1663ab5eba266003836040518363ffffffff1660e01b81526004016112109291906146db565b60206040518083038186803b15801561122857600080fd5b505afa15801561123c573d6000803e3d6000fd5b505050506040513d601f19601f820116820180604052508101906112609190613f42565b61129f576040517f08c379a000000000000000000000000000000000000000000000000000000000815260040161129690614784565b60405180910390fd5b8080600001906112af919061382d565b600391906112be92919061263d565b5050565b6112ca6124ac565b6112d4600061252a565b565b6000600660003373ffffffffffffffffffffffffffffffffffffffff1673ffffffffffffffffffffffffffffffffffffffff16815260200190815260200160002060008381526020019081526020016000206040518060a0016040529081600082015481526020016001820160009054906101000a900460ff16600181111561136257611361612c10565b5b600181111561137457611373612c10565b5b815260200160028201805480602002602001604051908101604052809291908181526020016000905b828210156114495783829060005260206000200180546113bc90613c22565b80601f01602080910402602001604051908101604052809291908181526020018280546113e890613c22565b80156114355780601f1061140a57610100808354040283529160200191611435565b820191906000526020600020905b81548152906001019060200180831161141857829003601f168201915b50505050508152602001906001019061139d565b50505050815260200160038201805461146190613c22565b80601f016020809104026020016040519081016040528092919081815260200182805461148d90613c22565b80156114da5780601f106114af576101008083540402835291602001916114da565b820191906000526020600020905b8154815290600101906020018083116114bd57829003601f168201915b5050505050815260200160048201548152505090506000801b81608001511415611539576040517f08c379a0000000000000000000000000000000000000000000000000000000008152600401611530906147f0565b60405180910390fd5b60003390508073ffffffffffffffffffffffffffffffffffffffff16635fe39e0d84846060015185608001516040518463ffffffff1660e01b815260040161158393929190614810565b600060405180830381600087803b15801561159d57600080fd5b505af11580156115b1573d6000803e3d6000fd5b50505050823373ffffffffffffffffffffffffffffffffffffffff167fe893e4ba0e364cdc96364b1e1e0d53b0d91e5fd6aa0ee9d81a17ecd61178bf1760405160405180910390a3505050565b6000600660003373ffffffffffffffffffffffffffffffffffffffff1673ffffffffffffffffffffffffffffffffffffffff16815260200190815260200160002060008781526020019081526020016000206040518060a0016040529081600082015481526020016001820160009054906101000a900460ff16600181111561168a57611689612c10565b5b600181111561169c5761169b612c10565b5b815260200160028201805480602002602001604051908101604052809291908181526020016000905b828210156117715783829060005260206000200180546116e490613c22565b80601f016020809104026020016040519081016040528092919081815260200182805461171090613c22565b801561175d5780601f106117325761010080835404028352916020019161175d565b820191906000526020600020905b81548152906001019060200180831161174057829003601f168201915b5050505050815260200190600101906116c5565b50505050815260200160038201805461178990613c22565b80601f01602080910402602001604051908101604052809291908181526020018280546117b590613c22565b80156118025780601f106117d757610100808354040283529160200191611802565b820191906000526020600020905b8154815290600101906020018083116117e557829003601f168201915b5050505050815260200160048201548152505090506000801b81608001511415611861576040517f08c379a00000000000000000000000000000000000000000000000000000000081526004016118589061489a565b60405180910390fd5b6000600260009054906101000a900473ffffffffffffffffffffffffffffffffffffffff1673ffffffffffffffffffffffffffffffffffffffff16836040516118a9906148eb565b60006040518083038185875af1925050503d80600081146118e6576040519150601f19603f3d011682016040523d82523d6000602084013e6118eb565b606091505b505090508061192f576040517f08c379a00000000000000000000000000000000000000000000000000000000081526004016119269061494c565b60405180910390fd5b6000600760003373ffffffffffffffffffffffffffffffffffffffff1673ffffffffffffffffffffffffffffffffffffffff168152602001908152602001600020600089815260200190815260200160002060009054906101000a900467ffffffffffffffff1690506001816119a5919061499b565b600760003373ffffffffffffffffffffffffffffffffffffffff1673ffffffffffffffffffffffffffffffffffffffff16815260200190815260200160002060008a815260200190815260200160002060006101000a81548167ffffffffffffffff021916908367ffffffffffffffff1602179055506001600860003373ffffffffffffffffffffffffffffffffffffffff1673ffffffffffffffffffffffffffffffffffffffff16815260200190815260200160002060008a815260200190815260200160002060008367ffffffffffffffff1667ffffffffffffffff16815260200190815260200160002060006101000a81548160ff021916908315150217905550873373ffffffffffffffffffffffffffffffffffffffff167fc55a6c1340ca55a6b61de30037455a7f9f4a5b8ff106e4eaa0c23ea886fa03608989858a8a604051611af89594939291906149e8565b60405180910390a35050505050505050565b60008060009054906101000a900473ffffffffffffffffffffffffffffffffffffffff16905090565b600160009054906101000a900473ffffffffffffffffffffffffffffffffffffffff1673ffffffffffffffffffffffffffffffffffffffff16639511059d600383604051806080016040528060538152602001614e8b605391396040518463ffffffff1660e01b8152600401611bab93929190613eb7565b60206040518083038186803b158015611bc357600080fd5b505afa158015611bd7573d6000803e3d6000fd5b505050506040513d601f19601f82011682018060405250810190611bfb9190613f42565b611c3a576040517f08c379a0000000000000000000000000000000000000000000000000000000008152600401611c3190613fbb565b60405180910390fd5b6000600660008573ffffffffffffffffffffffffffffffffffffffff1673ffffffffffffffffffffffffffffffffffffffff16815260200190815260200160002060008481526020019081526020016000206040518060a0016040529081600082015481526020016001820160009054906101000a900460ff166001811115611cc657611cc5612c10565b5b6001811115611cd857611cd7612c10565b5b815260200160028201805480602002602001604051908101604052809291908181526020016000905b82821015611dad578382906000526020600020018054611d2090613c22565b80601f0160208091040260200160405190810160405280929190818152602001828054611d4c90613c22565b8015611d995780601f10611d6e57610100808354040283529160200191611d99565b820191906000526020600020905b815481529060010190602001808311611d7c57829003601f168201915b505050505081526020019060010190611d01565b505050508152602001600382018054611dc590613c22565b80601f0160208091040260200160405190810160405280929190818152602001828054611df190613c22565b8015611e3e5780601f10611e1357610100808354040283529160200191611e3e565b820191906000526020600020905b815481529060010190602001808311611e2157829003601f168201915b5050505050815260200160048201548152505090506000801b81608001511415611e9d576040517f08c379a0000000000000000000000000000000000000000000000000000000008152600401611e9490614a82565b60405180910390fd5b60008490508073ffffffffffffffffffffffffffffffffffffffff16635fe39e0d85846060015185608001516040518463ffffffff1660e01b8152600401611ee793929190614810565b600060405180830381600087803b158015611f0157600080fd5b505af1158015611f15573d6000803e3d6000fd5b50505050600660008673ffffffffffffffffffffffffffffffffffffffff1673ffffffffffffffffffffffffffffffffffffffff16815260200190815260200160002060008581526020019081526020016000206000808201600090556001820160006101000a81549060ff0219169055600282016000611f9691906127a9565b600382016000611fa691906127ca565b60048201600090555050838573ffffffffffffffffffffffffffffffffffffffff167fe893e4ba0e364cdc96364b1e1e0d53b0d91e5fd6aa0ee9d81a17ecd61178bf1760405160405180910390a35050505050565b60006028825114612041576040517f08c379a000000000000000000000000000000000000000000000000000000000815260040161203890614aee565b60405180910390fd5b60008290506000601467ffffffffffffffff811115612063576120626133c5565b5b6040519080825280601f01601f1916602001820160405280156120955781602001600182028036833780820191505090505b50905060005b60148110156121ca576000836002836120b49190614b0e565b815181106120c5576120c4614b68565b5b602001015160f81c60f81b60f81c90506000846002846120e59190614b0e565b60016120f19190614b97565b8151811061210257612101614b68565b5b602001015160f81c60f81b60f81c9050600060618260ff16101561212757603061212a565b60575b826121359190614bfa565b601060618560ff16101561214a57603061214d565b60575b856121589190614bfa565b6121629190614c2e565b61216c9190614c69565b90508060f81b85858151811061218557612184614b68565b5b60200101907effffffffffffffffffffffffffffffffffffffffffffffffffffffffffffff1916908160001a90535050505080806121c290614ca0565b91505061209b565b50600060148201519050809350505050919050565b6006602052816000526040600020602052806000526040600020600091509150508060000154908060010160009054906101000a900460ff169080600301805461222890613c22565b80601f016020809104026020016040519081016040528092919081815260200182805461225490613c22565b80156122a15780601f10612276576101008083540402835291602001916122a1565b820191906000526020600020905b81548152906001019060200180831161228457829003601f168201915b5050505050908060040154905084565b600380546122be90613c22565b80601f01602080910402602001604051908101604052809291908181526020018280546122ea90613c22565b80156123375780601f1061230c57610100808354040283529160200191612337565b820191906000526020600020905b81548152906001019060200180831161231a57829003601f168201915b505050505081565b6000808383600560009054906101000a900467ffffffffffffffff1667ffffffffffffffff1690809261237493929190614cf3565b8080601f016020809104026020016040519081016040528093929190818152602001838380828437600081840152601f19601f8201169050808301925050505050505090508473ffffffffffffffffffffffffffffffffffffffff166123d982611ffb565b73ffffffffffffffffffffffffffffffffffffffff16149150509392505050565b6124026124ac565b600073ffffffffffffffffffffffffffffffffffffffff168173ffffffffffffffffffffffffffffffffffffffff161415612472576040517f08c379a000000000000000000000000000000000000000000000000000000000815260040161246990614da0565b60405180910390fd5b61247b8161252a565b50565b600080828060200190612491919061382d565b905014156124a257600090506124a7565b600190505b919050565b6124b46125ee565b73ffffffffffffffffffffffffffffffffffffffff166124d2611b0a565b73ffffffffffffffffffffffffffffffffffffffff1614612528576040517f08c379a000000000000000000000000000000000000000000000000000000000815260040161251f90614e0c565b60405180910390fd5b565b60008060009054906101000a900473ffffffffffffffffffffffffffffffffffffffff169050816000806101000a81548173ffffffffffffffffffffffffffffffffffffffff021916908373ffffffffffffffffffffffffffffffffffffffff1602179055508173ffffffffffffffffffffffffffffffffffffffff168173ffffffffffffffffffffffffffffffffffffffff167f8be0079c531659141344cd1fd0a4f28419497f9722a3daafe3b4186f6b6457e060405160405180910390a35050565b600033905090565b6040518060a00160405280600080191681526020016000600181111561261f5761261e612c10565b5b81526020016060815260200160608152602001600080191681525090565b82805461264990613c22565b90600052602060002090601f01602090048101928261266b57600085556126b2565b82601f1061268457803560ff19168380011785556126b2565b828001600101855582156126b2579182015b828111156126b1578235825591602001919060010190612696565b5b5090506126bf919061280a565b5090565b828054828255906000526020600020908101928215612712579160200282015b82811115612711578251829080519060200190612701929190612723565b50916020019190600101906126e3565b5b50905061271f9190612827565b5090565b82805461272f90613c22565b90600052602060002090601f0160209004810192826127515760008555612798565b82601f1061276a57805160ff1916838001178555612798565b82800160010185558215612798579182015b8281111561279757825182559160200191906001019061277c565b5b5090506127a5919061280a565b5090565b50805460008255906000526020600020908101906127c79190612827565b50565b5080546127d690613c22565b6000825580601f106127e85750612807565b601f016020900490600052602060002090810190612806919061280a565b5b50565b5b8082111561282357600081600090555060010161280b565b5090565b5b80821115612847576000818161283e91906127ca565b50600101612828565b5090565b6000604051905090565b600080fd5b600080fd5b600073ffffffffffffffffffffffffffffffffffffffff82169050919050565b600061288a8261285f565b9050919050565b600061289c8261287f565b9050919050565b6128ac81612891565b81146128b757600080fd5b50565b6000813590506128c9816128a3565b92915050565b600080fd5b600060c082840312156128ea576128e96128cf565b5b81905092915050565b600060408284031215612909576129086128cf565b5b81905092915050565b60008060006060848603121561292b5761292a612855565b5b6000612939868287016128ba565b935050602084013567ffffffffffffffff81111561295a5761295961285a565b5b612966868287016128d4565b925050604084013567ffffffffffffffff8111156129875761298661285a565b5b612993868287016128f3565b9150509250925092565b6000819050919050565b6129b08161299d565b81146129bb57600080fd5b50565b6000813590506129cd816129a7565b92915050565b600281106129e057600080fd5b50565b6000813590506129f2816129d3565b92915050565b600080fd5b600080fd5b600080fd5b60008083601f840112612a1d57612a1c6129f8565b5b8235905067ffffffffffffffff811115612a3a57612a396129fd565b5b602083019150836020820283011115612a5657612a55612a02565b5b9250929050565b60008083601f840112612a7357612a726129f8565b5b8235905067ffffffffffffffff811115612a9057612a8f6129fd565b5b602083019150836001820283011115612aac57612aab612a02565b5b9250929050565b600080600080600080600080600060e08a8c031215612ad557612ad4612855565b5b6000612ae38c828d016128ba565b9950506020612af48c828d016129be565b9850506040612b058c828d016129e3565b97505060608a013567ffffffffffffffff811115612b2657612b2561285a565b5b612b328c828d01612a07565b96509650506080612b458c828d016129be565b94505060a08a013567ffffffffffffffff811115612b6657612b6561285a565b5b612b728c828d01612a5d565b935093505060c0612b858c828d016129be565b9150509295985092959850929598565b612b9e8161287f565b8114612ba957600080fd5b50565b600081359050612bbb81612b95565b92915050565b60008060408385031215612bd857612bd7612855565b5b6000612be685828601612bac565b9250506020612bf7858286016129be565b9150509250929050565b612c0a8161299d565b82525050565b7f4e487b7100000000000000000000000000000000000000000000000000000000600052602160045260246000fd5b60028110612c5057612c4f612c10565b5b50565b6000819050612c6182612c3f565b919050565b6000612c7182612c53565b9050919050565b612c8181612c66565b82525050565b600081519050919050565b600082825260208201905092915050565b6000819050602082019050919050565b600081519050919050565b600082825260208201905092915050565b60005b83811015612ced578082015181840152602081019050612cd2565b83811115612cfc576000848401525b50505050565b6000601f19601f8301169050919050565b6000612d1e82612cb3565b612d288185612cbe565b9350612d38818560208601612ccf565b612d4181612d02565b840191505092915050565b6000612d588383612d13565b905092915050565b6000602082019050919050565b6000612d7882612c87565b612d828185612c92565b935083602082028501612d9485612ca3565b8060005b85811015612dd05784840389528151612db18582612d4c565b9450612dbc83612d60565b925060208a01995050600181019050612d98565b50829750879550505050505092915050565b600060a083016000830151612dfa6000860182612c01565b506020830151612e0d6020860182612c78565b5060408301518482036040860152612e258282612d6d565b91505060608301518482036060860152612e3f8282612d13565b9150506080830151612e546080860182612c01565b508091505092915050565b60006020820190508181036000830152612e798184612de2565b905092915050565b600060408284031215612e9757612e966128cf565b5b81905092915050565b600060208284031215612eb657612eb5612855565b5b600082013567ffffffffffffffff811115612ed457612ed361285a565b5b612ee084828501612e81565b91505092915050565b6000806000806000806000806000806101008b8d031215612f0d57612f0c612855565b5b6000612f1b8d828e016128ba565b9a50506020612f2c8d828e016129be565b99505060408b013567ffffffffffffffff811115612f4d57612f4c61285a565b5b612f598d828e01612a07565b98509850506060612f6c8d828e016129e3565b96505060808b013567ffffffffffffffff811115612f8d57612f8c61285a565b5b612f998d828e01612a5d565b955095505060a0612fac8d828e016129be565b93505060c0612fbd8d828e016129be565b92505060e08b013567ffffffffffffffff811115612fde57612fdd61285a565b5b612fea8d828e016128f3565b9150509295989b9194979a5092959850565b600060408284031215613012576130116128cf565b5b81905092915050565b60006020828403121561303157613030612855565b5b600082013567ffffffffffffffff81111561304f5761304e61285a565b5b61305b84828501612ffc565b91505092915050565b60006040828403121561307a576130796128cf565b5b81905092915050565b6000806000806080858703121561309d5761309c612855565b5b60006130ab878288016128ba565b945050602085013567ffffffffffffffff8111156130cc576130cb61285a565b5b6130d8878288016128d4565b935050604085013567ffffffffffffffff8111156130f9576130f861285a565b5b61310587828801613064565b925050606085013567ffffffffffffffff8111156131265761312561285a565b5b613132878288016128f3565b91505092959194509250565b600060608284031215613154576131536128cf565b5b81905092915050565b60006020828403121561317357613172612855565b5b600082013567ffffffffffffffff8111156131915761319061285a565b5b61319d8482850161313e565b91505092915050565b6000602082840312156131bc576131bb612855565b5b60006131ca848285016129be565b91505092915050565b60008083601f8401126131e9576131e86129f8565b5b8235905067ffffffffffffffff811115613206576132056129fd565b5b60208301915083600182028301111561322257613221612a02565b5b9250929050565b600067ffffffffffffffff82169050919050565b61324681613229565b811461325157600080fd5b50565b6000813590506132638161323d565b92915050565b6000819050919050565b61327c81613269565b811461328757600080fd5b50565b60008135905061329981613273565b92915050565b6000806000806000608086880312156132bb576132ba612855565b5b60006132c9888289016129be565b955050602086013567ffffffffffffffff8111156132ea576132e961285a565b5b6132f6888289016131d3565b9450945050604061330988828901613254565b925050606061331a8882890161328a565b9150509295509295909350565b6133308161287f565b82525050565b600060208201905061334b6000830184613327565b92915050565b60008060006060848603121561336a57613369612855565b5b600061337886828701612bac565b9350506020613389868287016129be565b925050604084013567ffffffffffffffff8111156133aa576133a961285a565b5b6133b6868287016128f3565b9150509250925092565b600080fd5b7f4e487b7100000000000000000000000000000000000000000000000000000000600052604160045260246000fd5b6133fd82612d02565b810181811067ffffffffffffffff8211171561341c5761341b6133c5565b5b80604052505050565b600061342f61284b565b905061343b82826133f4565b919050565b600067ffffffffffffffff82111561345b5761345a6133c5565b5b61346482612d02565b9050602081019050919050565b82818337600083830152505050565b600061349361348e84613440565b613425565b9050828152602081018484840111156134af576134ae6133c0565b5b6134ba848285613471565b509392505050565b600082601f8301126134d7576134d66129f8565b5b81356134e7848260208601613480565b91505092915050565b60006020828403121561350657613505612855565b5b600082013567ffffffffffffffff8111156135245761352361285a565b5b613530848285016134c2565b91505092915050565b6135428161299d565b82525050565b61355181612c66565b82525050565b600082825260208201905092915050565b600061357382612cb3565b61357d8185613557565b935061358d818560208601612ccf565b61359681612d02565b840191505092915050565b60006080820190506135b66000830187613539565b6135c36020830186613548565b81810360408301526135d58185613568565b90506135e46060830184613539565b95945050505050565b600081519050919050565b600082825260208201905092915050565b6000613614826135ed565b61361e81856135f8565b935061362e818560208601612ccf565b61363781612d02565b840191505092915050565b6000602082019050818103600083015261365c8184613609565b905092915050565b60008060006040848603121561367d5761367c612855565b5b600061368b86828701612bac565b935050602084013567ffffffffffffffff8111156136ac576136ab61285a565b5b6136b886828701612a5d565b92509250509250925092565b60008115159050919050565b6136d9816136c4565b82525050565b60006020820190506136f460008301846136d0565b92915050565b6000602082840312156137105761370f612855565b5b600061371e84828501612bac565b91505092915050565b7f50726f6f6620766572696669636174696f6e206661696c656400000000000000600082015250565b600061375d601983613557565b915061376882613727565b602082019050919050565b6000602082019050818103600083015261378c81613750565b9050919050565b600080fd5b600080fd5b600080fd5b6000823560016040038336030381126137be576137bd613793565b5b80830191505092915050565b600080833560016020038436030381126137e7576137e6613793565b5b80840192508235915067ffffffffffffffff82111561380957613808613798565b5b6020830192506001820236038313156138255761382461379d565b5b509250929050565b6000808335600160200384360303811261384a57613849613793565b5b80840192508235915067ffffffffffffffff82111561386c5761386b613798565b5b6020830192506001820236038313156138885761388761379d565b5b509250929050565b6000602082840312156138a6576138a5612855565b5b60006138b484828501613254565b91505092915050565b60006138c98385613557565b93506138d6838584613471565b6138df83612d02565b840190509392505050565b60006138f683856135f8565b9350613903838584613471565b61390c83612d02565b840190509392505050565b61392081613229565b82525050565b6000608082019050818103600083015261394181898b6138bd565b905081810360208301526139568187896138bd565b9050818103604083015261396b8185876138ea565b905061397a6060830184613917565b98975050505050505050565b600082825260208201905092915050565b6000819050919050565b60006139ad8385612cbe565b93506139ba838584613471565b6139c383612d02565b840190509392505050565b60006139db8484846139a1565b90509392505050565b600080fd5b600080fd5b600080fd5b60008083356001602003843603038112613a1057613a0f6139ee565b5b83810192508235915060208301925067ffffffffffffffff821115613a3857613a376139e4565b5b600182023603841315613a4e57613a4d6139e9565b5b509250929050565b6000602082019050919050565b6000613a6f8385613986565b935083602084028501613a8184613997565b8060005b87811015613ac7578484038952613a9c82846139f3565b613aa78682846139ce565b9550613ab284613a56565b935060208b019a505050600181019050613a85565b50829750879450505050509392505050565b600060c082019050613aee600083018b613539565b613afb602083018a613548565b8181036040830152613b0e81888a613a63565b9050613b1d6060830187613539565b8181036080830152613b308185876138bd565b9050613b3f60a0830184613539565b9998505050505050505050565b600081519050613b5b816129a7565b92915050565b600060208284031215613b7757613b76612855565b5b6000613b8584828501613b4c565b91505092915050565b600060a082019050613ba3600083018a613539565b613bb06020830189613548565b8181036040830152613bc3818789613a63565b90508181036060830152613bd88185876138bd565b9050613be76080830184613539565b98975050505050505050565b7f4e487b7100000000000000000000000000000000000000000000000000000000600052602260045260246000fd5b60006002820490506001821680613c3a57607f821691505b60208210811415613c4e57613c4d613bf3565b5b50919050565b7f436c69656e7420616c7265616479206372656174656400000000000000000000600082015250565b6000613c8a601683613557565b9150613c9582613c54565b602082019050919050565b60006020820190508181036000830152613cb981613c7d565b9050919050565b60008190508160005260206000209050919050565b60008154613ce281613c22565b613cec81866135f8565b94506001821660008114613d075760018114613d1957613d4c565b60ff1983168652602086019350613d4c565b613d2285613cc0565b60005b83811015613d4457815481890152600182019150602081019050613d25565b808801955050505b50505092915050565b6000613d646020840184613254565b905092915050565b613d7581613229565b82525050565b60008083356001602003843603038112613d9857613d976139ee565b5b83810192508235915060208301925067ffffffffffffffff821115613dc057613dbf6139e4565b5b600182023603841315613dd657613dd56139e9565b5b509250929050565b600082825260208201905092915050565b6000613dfb8385613dde565b9350613e08838584613471565b613e1183612d02565b840190509392505050565b600060408301613e2f6000840184613d55565b613e3c6000860182613d6c565b50613e4a6020840184613d7b565b8583036020870152613e5d838284613def565b925050508091505092915050565b7f6368616e6e656c2f706174682f746f2f62652f61646465642f68657265000000600082015250565b6000613ea1601d836135f8565b9150613eac82613e6b565b602082019050919050565b60006080820190508181036000830152613ed18186613cd5565b90508181036020830152613ee58185613e1c565b90508181036040830152613ef881613e94565b90508181036060830152613f0c8184613609565b9050949350505050565b613f1f816136c4565b8114613f2a57600080fd5b50565b600081519050613f3c81613f16565b92915050565b600060208284031215613f5857613f57612855565b5b6000613f6684828501613f2d565b91505092915050565b7f4661696c20746f2070726f7665206368616e6e656c2073746174650000000000600082015250565b6000613fa5601b83613557565b9150613fb082613f6f565b602082019050919050565b60006020820190508181036000830152613fd481613f98565b9050919050565b6000606082019050613ff06000830186613539565b613ffd6020830185613539565b61400a6040830184613539565b949350505050565b600067ffffffffffffffff82111561402d5761402c6133c5565b5b602082029050602081019050919050565b600061405161404c84614012565b613425565b9050808382526020820190506020840283018581111561407457614073612a02565b5b835b818110156140bb57803567ffffffffffffffff811115614099576140986129f8565b5b8086016140a689826134c2565b85526020850194505050602081019050614076565b5050509392505050565b60006140d236848461403e565b905092915050565b600060408201905081810360008301526140f58186886138bd565b9050818103602083015261410a818486613a63565b905095945050505050565b7f436c69656e74206e6f7420637265617465640000000000000000000000000000600082015250565b600061414b601283613557565b915061415682614115565b602082019050919050565b6000602082019050818103600083015261417a8161413e565b9050919050565b7f5265636569766572206973206e6f7420746865206f726967696e616c2070616360008201527f6b65742073656e64657200000000000000000000000000000000000000000000602082015250565b60006141dd602a83613557565b91506141e882614181565b604082019050919050565b6000602082019050818103600083015261420c816141d0565b9050919050565b7f61636b2f706174682f746f2f62652f61646465642f6865726500000000000000600082015250565b60006142496019836135f8565b915061425482614213565b602082019050919050565b7f65787065637465642061636b20726563656970742068617368206f6e20506f6c60008201527f796d657220636861696e00000000000000000000000000000000000000000000602082015250565b60006142bb602a836135f8565b91506142c68261425f565b604082019050919050565b600060808201905081810360008301526142eb8185613cd5565b905081810360208301526142ff8184613e1c565b905081810360408301526143128161423c565b90508181036060830152614325816142ae565b90509392505050565b7f4661696c20746f2070726f76652061636b000000000000000000000000000000600082015250565b6000614364601183613557565b915061436f8261432e565b602082019050919050565b6000602082019050818103600083015261439381614357565b9050919050565b7f5061636b657420636f6d6d69746d656e74206e6f7420666f756e640000000000600082015250565b60006143d0601b83613557565b91506143db8261439a565b602082019050919050565b600060208201905081810360008301526143ff816143c3565b9050919050565b600082356001604003833603038112614422576144216139ee565b5b82810191505092915050565b600061443d60208401846129be565b905092915050565b60006040830161445860008401846139f3565b858303600087015261446b8382846139a1565b9250505061447c602084018461442e565b6144896020860182612c01565b508091505092915050565b600082905092915050565b604082016144b06000830183613d55565b6144bd6000850182613d6c565b506144cb6020830183613d55565b6144d86020850182613d6c565b50505050565b600060c083016144f16000840184614406565b84820360008601526145038282614445565b9150506145136020840184614406565b84820360208601526145258282614445565b9150506145356040840184613d55565b6145426040860182613d6c565b506145506060840184613d7b565b8583036060870152614563838284613def565b925050506145746080840184614494565b614581608086018261449f565b508091505092915050565b600060208201905081810360008301526145a681846144de565b905092915050565b6000813590506145bd81613f16565b92915050565b60006145d260208401846145ae565b905092915050565b6145e3816136c4565b82525050565b6000604083016145fc60008401846145c3565b61460960008601826145da565b506146176020840184613d7b565b858303602087015261462a838284613def565b925050508091505092915050565b6000604082019050818103600083015261465281856145e9565b90506146616020830184613917565b9392505050565b60006060830161467b6000840184613d7b565b858303600087015261468e838284613def565b9250505061469f6020840184613d55565b6146ac6020860182613d6c565b506146ba6040840184613d7b565b85830360408701526146cd838284613def565b925050508091505092915050565b600060408201905081810360008301526146f58185613cd5565b905081810360208301526147098184614668565b90509392505050565b7f557064617465436c69656e744d73672070726f6f66207665726966696361746960008201527f6f6e206661696c65640000000000000000000000000000000000000000000000602082015250565b600061476e602983613557565b915061477982614712565b604082019050919050565b6000602082019050818103600083015261479d81614761565b9050919050565b7f4368616e6e656c206e6f74206f776e6564206279206d73672e73656e64657200600082015250565b60006147da601f83613557565b91506147e5826147a4565b602082019050919050565b60006020820190508181036000830152614809816147cd565b9050919050565b60006060820190506148256000830186613539565b81810360208301526148378185613568565b90506148466040830184613539565b949350505050565b7f4368616e6e656c206e6f74206f776e65642062792073656e6465720000000000600082015250565b6000614884601b83613557565b915061488f8261484e565b602082019050919050565b600060208201905081810360008301526148b381614877565b9050919050565b600081905092915050565b50565b60006148d56000836148ba565b91506148e0826148c5565b600082019050919050565b60006148f6826148c8565b9150819050919050565b7f4661696c656420746f20657363726f77207061636b6574206665650000000000600082015250565b6000614936601b83613557565b915061494182614900565b602082019050919050565b6000602082019050818103600083015261496581614929565b9050919050565b7f4e487b7100000000000000000000000000000000000000000000000000000000600052601160045260246000fd5b60006149a682613229565b91506149b183613229565b92508267ffffffffffffffff038211156149ce576149cd61496c565b5b828201905092915050565b6149e281613269565b82525050565b60006080820190508181036000830152614a038187896138ea565b9050614a126020830186613917565b614a1f6040830185613917565b614a2c60608301846149d9565b9695505050505050565b7f4368616e6e656c206e6f74206f776e656420627920706f727441646472657373600082015250565b6000614a6c602083613557565b9150614a7782614a36565b602082019050919050565b60006020820190508181036000830152614a9b81614a5f565b9050919050565b7f496e76616c69642068657820737472696e67206c656e67746800000000000000600082015250565b6000614ad8601983613557565b9150614ae382614aa2565b602082019050919050565b60006020820190508181036000830152614b0781614acb565b9050919050565b6000614b1982613269565b9150614b2483613269565b9250817fffffffffffffffffffffffffffffffffffffffffffffffffffffffffffffffff0483118215151615614b5d57614b5c61496c565b5b828202905092915050565b7f4e487b7100000000000000000000000000000000000000000000000000000000600052603260045260246000fd5b6000614ba282613269565b9150614bad83613269565b9250827fffffffffffffffffffffffffffffffffffffffffffffffffffffffffffffffff03821115614be257614be161496c565b5b828201905092915050565b600060ff82169050919050565b6000614c0582614bed565b9150614c1083614bed565b925082821015614c2357614c2261496c565b5b828203905092915050565b6000614c3982614bed565b9150614c4483614bed565b92508160ff0483118215151615614c5e57614c5d61496c565b5b828202905092915050565b6000614c7482614bed565b9150614c7f83614bed565b92508260ff03821115614c9557614c9461496c565b5b828201905092915050565b6000614cab82613269565b91507fffffffffffffffffffffffffffffffffffffffffffffffffffffffffffffffff821415614cde57614cdd61496c565b5b600182019050919050565b600080fd5b600080fd5b60008085851115614d0757614d06614ce9565b5b83861115614d1857614d17614cee565b5b6001850283019150848603905094509492505050565b7f4f776e61626c653a206e6577206f776e657220697320746865207a65726f206160008201527f6464726573730000000000000000000000000000000000000000000000000000602082015250565b6000614d8a602683613557565b9150614d9582614d2e565b604082019050919050565b60006020820190508181036000830152614db981614d7d565b9050919050565b7f4f776e61626c653a2063616c6c6572206973206e6f7420746865206f776e6572600082015250565b6000614df6602083613557565b9150614e0182614dc0565b602082019050919050565b60006020820190508181036000830152614e2581614de9565b905091905056fe6578706563746564206368616e6e656c20627974657320636f6e73747275637465642066726f6d20706172616d732e204368616e6e656c2e5374617465203d207b41636b5f50656e64696e672c20436f6e6669726d5f50656e64696e677d6578706563746564206368616e6e656c20627974657320636f6e73747275637465642066726f6d20706172616d732e204368616e6e656c2e5374617465203d207b436c6f736564285f50656e64696e673f297da2646970667358221220f17a938084102bd723af2f4067c016e94218b4038f7b1f0fc53994f343d3e87364736f6c63430008090033",
  "linkReferences": {},
  "deployedLinkReferences": {}
}