{
  "_format": "hh-sol-artifact-1",
  "contractName": "Dispatcher",
  "sourceName": "contracts/Dispatcher.sol",
  "abi": [
    {
      "inputs": [
        {
          "internalType": "contract ZKMintVerifier",
          "name": "_verifier",
          "type": "address"
        },
        {
          "internalType": "address",
          "name": "_escrow",
          "type": "address"
        }
      ],
      "stateMutability": "nonpayable",
      "type": "constructor"
    },
    {
      "anonymous": false,
      "inputs": [
        {
          "indexed": true,
          "internalType": "address",
          "name": "portAddress",
          "type": "address"
        },
        {
          "indexed": true,
          "internalType": "bytes32",
          "name": "channelId",
          "type": "bytes32"
        }
      ],
      "name": "CloseIbcChannel",
      "type": "event"
    },
    {
      "anonymous": false,
      "inputs": [
        {
          "indexed": true,
          "internalType": "address",
          "name": "portAddress",
          "type": "address"
        },
        {
          "indexed": true,
          "internalType": "bytes32",
          "name": "channelId",
          "type": "bytes32"
        },
        {
          "indexed": false,
          "internalType": "string",
          "name": "counterpartyPortId",
          "type": "string"
        },
        {
          "indexed": true,
          "internalType": "bytes32",
          "name": "counterpartyChannelId",
          "type": "bytes32"
        },
        {
          "indexed": false,
          "internalType": "string[]",
          "name": "connectionHops",
          "type": "string[]"
        }
      ],
      "name": "ConnectIbcChannel",
      "type": "event"
    },
    {
      "anonymous": false,
      "inputs": [
        {
          "indexed": true,
          "internalType": "bytes32",
          "name": "srcChannelId",
          "type": "bytes32"
        },
        {
          "indexed": false,
          "internalType": "string",
          "name": "srcPortId",
          "type": "string"
        },
        {
          "indexed": true,
          "internalType": "bytes32",
          "name": "destChannelId",
          "type": "bytes32"
        },
        {
          "indexed": false,
          "internalType": "string",
          "name": "destPortId",
          "type": "string"
        },
        {
          "indexed": false,
          "internalType": "bytes",
          "name": "data",
          "type": "bytes"
        },
        {
          "indexed": false,
          "internalType": "uint64",
          "name": "sequence",
          "type": "uint64"
        }
      ],
      "name": "OnRecvPacket",
      "type": "event"
    },
    {
      "anonymous": false,
      "inputs": [
        {
          "indexed": true,
          "internalType": "address",
          "name": "portAddress",
          "type": "address"
        },
        {
          "indexed": true,
          "internalType": "bytes32",
          "name": "counterpartyChannelId",
          "type": "bytes32"
        },
        {
          "indexed": false,
          "internalType": "bytes32",
          "name": "version",
          "type": "bytes32"
        },
        {
          "indexed": false,
          "internalType": "enum ChannelOrder",
          "name": "ordering",
          "type": "uint8"
        },
        {
          "indexed": false,
          "internalType": "string[]",
          "name": "connectionHops",
          "type": "string[]"
        },
        {
          "indexed": false,
          "internalType": "string",
          "name": "counterpartyPortId",
          "type": "string"
        },
        {
          "indexed": false,
          "internalType": "bytes32",
          "name": "counterpartyVersion",
          "type": "bytes32"
        }
      ],
      "name": "OpenIbcChannel",
      "type": "event"
    },
    {
      "anonymous": false,
      "inputs": [
        {
          "indexed": true,
          "internalType": "address",
          "name": "previousOwner",
          "type": "address"
        },
        {
          "indexed": true,
          "internalType": "address",
          "name": "newOwner",
          "type": "address"
        }
      ],
      "name": "OwnershipTransferred",
      "type": "event"
    },
    {
      "anonymous": false,
      "inputs": [
        {
          "indexed": true,
          "internalType": "address",
          "name": "portId",
          "type": "address"
        },
        {
          "indexed": true,
          "internalType": "bytes32",
          "name": "channelId",
          "type": "bytes32"
        },
        {
          "indexed": false,
          "internalType": "bytes",
          "name": "packet",
          "type": "bytes"
        },
        {
          "indexed": false,
          "internalType": "uint64",
          "name": "timeoutTimestamp",
          "type": "uint64"
        }
      ],
      "name": "SendPacket",
      "type": "event"
    },
    {
      "inputs": [
        {
          "internalType": "bytes32",
          "name": "channelId",
          "type": "bytes32"
        }
      ],
      "name": "closeIbcChannel",
      "outputs": [],
      "stateMutability": "nonpayable",
      "type": "function"
    },
    {
      "inputs": [
        {
          "internalType": "contract IbcReceiver",
          "name": "portAddress",
          "type": "address"
        },
        {
          "internalType": "bytes32",
          "name": "channelId",
          "type": "bytes32"
        },
        {
          "internalType": "string[]",
          "name": "connectionHops",
          "type": "string[]"
        },
        {
          "internalType": "enum ChannelOrder",
          "name": "ordering",
          "type": "uint8"
        },
        {
          "internalType": "string",
          "name": "counterpartyPortId",
          "type": "string"
        },
        {
          "internalType": "bytes32",
          "name": "counterpartyChannelId",
          "type": "bytes32"
        },
        {
          "internalType": "bytes32",
          "name": "counterpartyVersion",
          "type": "bytes32"
        },
        {
          "components": [
            {
              "internalType": "uint64",
              "name": "proofHeight",
              "type": "uint64"
            },
            {
              "internalType": "bytes",
              "name": "proof",
              "type": "bytes"
            }
          ],
          "internalType": "struct Proof",
          "name": "proof",
          "type": "tuple"
        }
      ],
      "name": "connectIbcChannel",
      "outputs": [],
      "stateMutability": "nonpayable",
      "type": "function"
    },
    {
      "inputs": [
        {
          "internalType": "bytes",
          "name": "clientState",
          "type": "bytes"
        },
        {
          "internalType": "bytes",
          "name": "consensusState",
          "type": "bytes"
        }
      ],
      "name": "createClient",
      "outputs": [],
      "stateMutability": "nonpayable",
      "type": "function"
    },
    {
      "inputs": [
        {
          "internalType": "address",
          "name": "portAddress",
          "type": "address"
        },
        {
          "internalType": "bytes32",
          "name": "channelId",
          "type": "bytes32"
        }
      ],
      "name": "getChannel",
      "outputs": [
        {
          "components": [
            {
              "internalType": "bytes32",
              "name": "version",
              "type": "bytes32"
            },
            {
              "internalType": "enum ChannelOrder",
              "name": "ordering",
              "type": "uint8"
            },
            {
              "internalType": "string[]",
              "name": "connectionHops",
              "type": "string[]"
            },
            {
              "internalType": "string",
              "name": "counterpartyPortId",
              "type": "string"
            },
            {
              "internalType": "bytes32",
              "name": "counterpartyChannelId",
              "type": "bytes32"
            }
          ],
          "internalType": "struct Channel",
          "name": "",
          "type": "tuple"
        }
      ],
      "stateMutability": "view",
      "type": "function"
    },
    {
      "inputs": [],
      "name": "latestConsensusState",
      "outputs": [
        {
          "internalType": "bytes",
          "name": "",
          "type": "bytes"
        }
      ],
      "stateMutability": "view",
      "type": "function"
    },
    {
      "inputs": [
        {
          "internalType": "contract IbcReceiver",
          "name": "receiver",
          "type": "address"
        },
        {
          "components": [
            {
              "components": [
                {
                  "internalType": "string",
                  "name": "portId",
                  "type": "string"
                },
                {
                  "internalType": "bytes32",
                  "name": "channelId",
                  "type": "bytes32"
                }
              ],
              "internalType": "struct IbcEndpoint",
              "name": "src",
              "type": "tuple"
            },
            {
              "components": [
                {
                  "internalType": "string",
                  "name": "portId",
                  "type": "string"
                },
                {
                  "internalType": "bytes32",
                  "name": "channelId",
                  "type": "bytes32"
                }
              ],
              "internalType": "struct IbcEndpoint",
              "name": "dest",
              "type": "tuple"
            },
            {
              "internalType": "uint64",
              "name": "sequence",
              "type": "uint64"
            },
            {
              "internalType": "bytes",
              "name": "data",
              "type": "bytes"
            },
            {
              "components": [
                {
                  "internalType": "uint64",
                  "name": "block",
                  "type": "uint64"
                },
                {
                  "internalType": "uint64",
                  "name": "timestamp",
                  "type": "uint64"
                }
              ],
              "internalType": "struct IbcTimeout",
              "name": "timeout",
              "type": "tuple"
            }
          ],
          "internalType": "struct IbcPacket",
          "name": "packet",
          "type": "tuple"
        },
        {
          "internalType": "bytes",
          "name": "acknowledgement",
          "type": "bytes"
        },
        {
          "components": [
            {
              "internalType": "uint64",
              "name": "proofHeight",
              "type": "uint64"
            },
            {
              "internalType": "bytes",
              "name": "proof",
              "type": "bytes"
            }
          ],
          "internalType": "struct Proof",
          "name": "proof",
          "type": "tuple"
        }
      ],
      "name": "onAcknowledgementPacket",
      "outputs": [],
      "stateMutability": "nonpayable",
      "type": "function"
    },
    {
      "inputs": [
        {
          "internalType": "address",
          "name": "portAddress",
          "type": "address"
        },
        {
          "internalType": "bytes32",
          "name": "channelId",
          "type": "bytes32"
        },
        {
          "components": [
            {
              "internalType": "uint64",
              "name": "proofHeight",
              "type": "uint64"
            },
            {
              "internalType": "bytes",
              "name": "proof",
              "type": "bytes"
            }
          ],
          "internalType": "struct Proof",
          "name": "proof",
          "type": "tuple"
        }
      ],
      "name": "onCloseIbcChannel",
      "outputs": [],
      "stateMutability": "nonpayable",
      "type": "function"
    },
    {
      "inputs": [
        {
          "internalType": "contract IbcReceiver",
          "name": "receiver",
          "type": "address"
        },
        {
          "components": [
            {
              "components": [
                {
                  "internalType": "string",
                  "name": "portId",
                  "type": "string"
                },
                {
                  "internalType": "bytes32",
                  "name": "channelId",
                  "type": "bytes32"
                }
              ],
              "internalType": "struct IbcEndpoint",
              "name": "src",
              "type": "tuple"
            },
            {
              "components": [
                {
                  "internalType": "string",
                  "name": "portId",
                  "type": "string"
                },
                {
                  "internalType": "bytes32",
                  "name": "channelId",
                  "type": "bytes32"
                }
              ],
              "internalType": "struct IbcEndpoint",
              "name": "dest",
              "type": "tuple"
            },
            {
              "internalType": "uint64",
              "name": "sequence",
              "type": "uint64"
            },
            {
              "internalType": "bytes",
              "name": "data",
              "type": "bytes"
            },
            {
              "components": [
                {
                  "internalType": "uint64",
                  "name": "block",
                  "type": "uint64"
                },
                {
                  "internalType": "uint64",
                  "name": "timestamp",
                  "type": "uint64"
                }
              ],
              "internalType": "struct IbcTimeout",
              "name": "timeout",
              "type": "tuple"
            }
          ],
          "internalType": "struct IbcPacket",
          "name": "packet",
          "type": "tuple"
        },
        {
          "components": [
            {
              "internalType": "uint64",
              "name": "proofHeight",
              "type": "uint64"
            },
            {
              "internalType": "bytes",
              "name": "proof",
              "type": "bytes"
            }
          ],
          "internalType": "struct Proof",
          "name": "proof",
          "type": "tuple"
        }
      ],
      "name": "onRecvPacket",
      "outputs": [],
      "stateMutability": "nonpayable",
      "type": "function"
    },
    {
      "inputs": [
        {
          "internalType": "contract IbcReceiver",
          "name": "receiver",
          "type": "address"
        },
        {
          "components": [
            {
              "components": [
                {
                  "internalType": "string",
                  "name": "portId",
                  "type": "string"
                },
                {
                  "internalType": "bytes32",
                  "name": "channelId",
                  "type": "bytes32"
                }
              ],
              "internalType": "struct IbcEndpoint",
              "name": "src",
              "type": "tuple"
            },
            {
              "components": [
                {
                  "internalType": "string",
                  "name": "portId",
                  "type": "string"
                },
                {
                  "internalType": "bytes32",
                  "name": "channelId",
                  "type": "bytes32"
                }
              ],
              "internalType": "struct IbcEndpoint",
              "name": "dest",
              "type": "tuple"
            },
            {
              "internalType": "uint64",
              "name": "sequence",
              "type": "uint64"
            },
            {
              "internalType": "bytes",
              "name": "data",
              "type": "bytes"
            },
            {
              "components": [
                {
                  "internalType": "uint64",
                  "name": "block",
                  "type": "uint64"
                },
                {
                  "internalType": "uint64",
                  "name": "timestamp",
                  "type": "uint64"
                }
              ],
              "internalType": "struct IbcTimeout",
              "name": "timeout",
              "type": "tuple"
            }
          ],
          "internalType": "struct IbcPacket",
          "name": "packet",
          "type": "tuple"
        },
        {
          "components": [
            {
              "internalType": "uint64",
              "name": "proofHeight",
              "type": "uint64"
            },
            {
              "internalType": "bytes",
              "name": "proof",
              "type": "bytes"
            }
          ],
          "internalType": "struct Proof",
          "name": "proof",
          "type": "tuple"
        }
      ],
      "name": "onTimeoutPacket",
      "outputs": [],
      "stateMutability": "nonpayable",
      "type": "function"
    },
    {
      "inputs": [
        {
          "internalType": "contract IbcReceiver",
          "name": "portAddress",
          "type": "address"
        },
        {
          "internalType": "bytes32",
          "name": "version",
          "type": "bytes32"
        },
        {
          "internalType": "enum ChannelOrder",
          "name": "ordering",
          "type": "uint8"
        },
        {
          "internalType": "string[]",
          "name": "connectionHops",
          "type": "string[]"
        },
        {
          "internalType": "bytes32",
          "name": "counterpartyChannelId",
          "type": "bytes32"
        },
        {
          "internalType": "string",
          "name": "counterpartyPortId",
          "type": "string"
        },
        {
          "internalType": "bytes32",
          "name": "counterpartyVersion",
          "type": "bytes32"
        }
      ],
      "name": "openIbcChannel",
      "outputs": [],
      "stateMutability": "nonpayable",
      "type": "function"
    },
    {
      "inputs": [],
      "name": "owner",
      "outputs": [
        {
          "internalType": "address",
          "name": "",
          "type": "address"
        }
      ],
      "stateMutability": "view",
      "type": "function"
    },
    {
      "inputs": [
        {
          "internalType": "address",
          "name": "",
          "type": "address"
        },
        {
          "internalType": "bytes32",
          "name": "",
          "type": "bytes32"
        }
      ],
      "name": "portChannelMap",
      "outputs": [
        {
          "internalType": "bytes32",
          "name": "version",
          "type": "bytes32"
        },
        {
          "internalType": "enum ChannelOrder",
          "name": "ordering",
          "type": "uint8"
        },
        {
          "internalType": "string",
          "name": "counterpartyPortId",
          "type": "string"
        },
        {
          "internalType": "bytes32",
          "name": "counterpartyChannelId",
          "type": "bytes32"
        }
      ],
      "stateMutability": "view",
      "type": "function"
    },
    {
      "inputs": [],
      "name": "renounceOwnership",
      "outputs": [],
      "stateMutability": "nonpayable",
      "type": "function"
    },
    {
      "inputs": [
        {
          "internalType": "bytes32",
          "name": "channelId",
          "type": "bytes32"
        },
        {
          "internalType": "bytes",
          "name": "packet",
          "type": "bytes"
        },
        {
          "internalType": "uint64",
          "name": "timeoutTimestamp",
          "type": "uint64"
        }
      ],
      "name": "sendPacket",
      "outputs": [],
      "stateMutability": "nonpayable",
      "type": "function"
    },
    {
      "inputs": [
        {
          "internalType": "address",
          "name": "newOwner",
          "type": "address"
        }
      ],
      "name": "transferOwnership",
      "outputs": [],
      "stateMutability": "nonpayable",
      "type": "function"
    },
    {
      "inputs": [
        {
          "internalType": "bytes",
          "name": "consensusState",
          "type": "bytes"
        }
      ],
      "name": "updateClient",
      "outputs": [],
      "stateMutability": "nonpayable",
      "type": "function"
    }
  ],
  "bytecode": "0x60806040526000600260146101000a81548160ff0219169083151502179055506000600460006101000a81548167ffffffffffffffff021916908367ffffffffffffffff1602179055503480156200005657600080fd5b5060405162003d1c38038062003d1c83398181016040528101906200007c919062000336565b6200009c62000090620001bb60201b60201c565b620001c360201b60201c565b81600160006101000a81548173ffffffffffffffffffffffffffffffffffffffff021916908373ffffffffffffffffffffffffffffffffffffffff16021790555080600260006101000a81548173ffffffffffffffffffffffffffffffffffffffff021916908373ffffffffffffffffffffffffffffffffffffffff160217905550600073ffffffffffffffffffffffffffffffffffffffff16600260009054906101000a900473ffffffffffffffffffffffffffffffffffffffff1673ffffffffffffffffffffffffffffffffffffffff161415620001b3576040517f08c379a0000000000000000000000000000000000000000000000000000000008152600401620001aa90620003de565b60405180910390fd5b505062000400565b600033905090565b60008060009054906101000a900473ffffffffffffffffffffffffffffffffffffffff169050816000806101000a81548173ffffffffffffffffffffffffffffffffffffffff021916908373ffffffffffffffffffffffffffffffffffffffff1602179055508173ffffffffffffffffffffffffffffffffffffffff168173ffffffffffffffffffffffffffffffffffffffff167f8be0079c531659141344cd1fd0a4f28419497f9722a3daafe3b4186f6b6457e060405160405180910390a35050565b600080fd5b600073ffffffffffffffffffffffffffffffffffffffff82169050919050565b6000620002b9826200028c565b9050919050565b6000620002cd82620002ac565b9050919050565b620002df81620002c0565b8114620002eb57600080fd5b50565b600081519050620002ff81620002d4565b92915050565b6200031081620002ac565b81146200031c57600080fd5b50565b600081519050620003308162000305565b92915050565b6000806040838503121562000350576200034f62000287565b5b60006200036085828601620002ee565b925050602062000373858286016200031f565b9150509250929050565b600082825260208201905092915050565b7f457363726f772063616e6e6f74206265207a65726f2061646472657373000000600082015250565b6000620003c6601d836200037d565b9150620003d3826200038e565b602082019050919050565b60006020820190508181036000830152620003f981620003b7565b9050919050565b61390c80620004106000396000f3fe608060405234801561001057600080fd5b50600436106101005760003560e01c80638b24b4cb11610097578063c2a2514d11610066578063c2a2514d14610270578063c3e1155c1461028e578063d2e9aa56146102aa578063f2fde38b146102c657610100565b80638b24b4cb146101e75780638da5cb5b14610203578063951538f314610221578063b2b1bf031461023d57610100565b806342852d24116100d357806342852d24146101755780634c9778d3146101a557806364260a60146101c1578063715018a6146101dd57610100565b80630ad8d666146101055780630bece356146101215780631f456c1e1461013d5780633e24aaf314610159575b600080fd5b61011f600480360381019061011a9190611c9e565b6102e2565b005b61013b60048036038101906101369190611d8e565b6103f4565b005b61015760048036038101906101529190611ee2565b610548565b005b610173600480360381019061016e9190611fc4565b61064c565b005b61018f600480360381019061018a9190612071565b6106d7565b60405161019c919061230f565b60405180910390f35b6101bf60048036038101906101ba9190612331565b6108fc565b005b6101db60048036038101906101d69190611c9e565b610c2e565b005b6101e5610ce6565b005b61020160048036038101906101fc9190612444565b610cfa565b005b61020b611022565b6040516102189190612480565b60405180910390f35b61023b6004803603810190610236919061249b565b61104b565b005b61025760048036038101906102529190612071565b611513565b6040516102679493929190612572565b60405180910390f35b6102786115e5565b6040516102859190612613565b60405180910390f35b6102a860048036038101906102a39190612675565b611673565b005b6102c460048036038101906102bf91906126e9565b6116cc565b005b6102e060048036038101906102db91906127a9565b611786565b005b6102eb8161180a565b61032a576040517f08c379a000000000000000000000000000000000000000000000000000000000815260040161032190612822565b60405180910390fd5b81806020019061033a9190612851565b6020013582806000019061034e9190612851565b602001357f080631928e492258b6a102fc2ab3e0a8dfcb747ab0885c25f9cb7a8d486210368480600001906103839190612851565b80600001906103929190612879565b8680602001906103a29190612851565b80600001906103b19190612879565b8880606001906103c191906128dc565b8a60400160208101906103d4919061293f565b6040516103e797969594939291906129e4565b60405180910390a3505050565b600260149054906101000a900460ff16610443576040517f08c379a000000000000000000000000000000000000000000000000000000000815260040161043a90612a90565b60405180910390fd5b600160009054906101000a900473ffffffffffffffffffffffffffffffffffffffff1673ffffffffffffffffffffffffffffffffffffffff1663e1ec100c600384846040518463ffffffff1660e01b81526004016104a393929190612ba6565b60206040518083038186803b1580156104bb57600080fd5b505afa1580156104cf573d6000803e3d6000fd5b505050506040513d601f19601f820116820180604052508101906104f39190612c17565b610532576040517f08c379a000000000000000000000000000000000000000000000000000000000815260040161052990612cb6565b60405180910390fd5b818160039190610543929190611982565b505050565b60008973ffffffffffffffffffffffffffffffffffffffff1663486592198a8a8a8a8a8a8a8a6040518963ffffffff1660e01b8152600401610591989796959493929190612e29565b602060405180830381600087803b1580156105ab57600080fd5b505af11580156105bf573d6000803e3d6000fd5b505050506040513d601f19601f820116820180604052508101906105e39190612eb1565b9050848a73ffffffffffffffffffffffffffffffffffffffff167f9a93c124e7f0aa93d3fbe660b1366e0483b4267619924382261498efbb92c873838b8b8b8a8a8a6040516106389796959493929190612ede565b60405180910390a350505050505050505050565b610654611838565b600260149054906101000a900460ff16156106a4576040517f08c379a000000000000000000000000000000000000000000000000000000000815260040161069b90612f8f565b60405180910390fd5b6001600260146101000a81548160ff0219169083151502179055508181600391906106d0929190611982565b5050505050565b6106df611a08565b600560008473ffffffffffffffffffffffffffffffffffffffff1673ffffffffffffffffffffffffffffffffffffffff16815260200190815260200160002060008381526020019081526020016000206040518060a0016040529081600082015481526020016001820160009054906101000a900460ff166001811115610769576107686120c0565b5b600181111561077b5761077a6120c0565b5b815260200160028201805480602002602001604051908101604052809291908181526020016000905b828210156108505783829060005260206000200180546107c390612adf565b80601f01602080910402602001604051908101604052809291908181526020018280546107ef90612adf565b801561083c5780601f106108115761010080835404028352916020019161083c565b820191906000526020600020905b81548152906001019060200180831161081f57829003601f168201915b5050505050815260200190600101906107a4565b50505050815260200160038201805461086890612adf565b80601f016020809104026020016040519081016040528092919081815260200182805461089490612adf565b80156108e15780601f106108b6576101008083540402835291602001916108e1565b820191906000526020600020905b8154815290600101906020018083116108c457829003601f168201915b50505050508152602001600482015481525050905092915050565b600160009054906101000a900473ffffffffffffffffffffffffffffffffffffffff1673ffffffffffffffffffffffffffffffffffffffff16639511059d6003836040518060800160405280605e8152602001613826605e91396040518463ffffffff1660e01b815260040161097493929190613111565b60206040518083038186803b15801561098c57600080fd5b505afa1580156109a0573d6000803e3d6000fd5b505050506040513d601f19601f820116820180604052508101906109c49190612c17565b610a03576040517f08c379a00000000000000000000000000000000000000000000000000000000081526004016109fa906131bc565b60405180910390fd5b8973ffffffffffffffffffffffffffffffffffffffff1663e60a72938a85856040518463ffffffff1660e01b8152600401610a40939291906131dc565b600060405180830381600087803b158015610a5a57600080fd5b505af1158015610a6e573d6000803e3d6000fd5b505050506040518060a00160405280838152602001876001811115610a9657610a956120c0565b5b8152602001898990610aa891906133e7565b815260200186868080601f016020809104026020016040519081016040528093929190818152602001838380828437600081840152601f19601f82011690508083019250505050505050815260200184815250600560008c73ffffffffffffffffffffffffffffffffffffffff1673ffffffffffffffffffffffffffffffffffffffff16815260200190815260200160002060008b81526020019081526020016000206000820151816000015560208201518160010160006101000a81548160ff02191690836001811115610b8057610b7f6120c0565b5b02179055506040820151816002019080519060200190610ba1929190611a4f565b506060820151816003019080519060200190610bbe929190611aaf565b506080820151816004015590505082898b73ffffffffffffffffffffffffffffffffffffffff167f57ea540ad7b8bfd2813b8637764ba029fedc52de3f812934a46511506aa11b8e88888d8d604051610c1a94939291906133fc565b60405180910390a450505050505050505050565b610c378161180a565b610c76576040517f08c379a0000000000000000000000000000000000000000000000000000000008152600401610c6d90612822565b60405180910390fd5b8273ffffffffffffffffffffffffffffffffffffffff1663b33c2577836040518263ffffffff1660e01b8152600401610caf91906135bd565b600060405180830381600087803b158015610cc957600080fd5b505af1158015610cdd573d6000803e3d6000fd5b50505050505050565b610cee611838565b610cf860006118b6565b565b6000600560003373ffffffffffffffffffffffffffffffffffffffff1673ffffffffffffffffffffffffffffffffffffffff16815260200190815260200160002060008381526020019081526020016000206040518060a0016040529081600082015481526020016001820160009054906101000a900460ff166001811115610d8657610d856120c0565b5b6001811115610d9857610d976120c0565b5b815260200160028201805480602002602001604051908101604052809291908181526020016000905b82821015610e6d578382906000526020600020018054610de090612adf565b80601f0160208091040260200160405190810160405280929190818152602001828054610e0c90612adf565b8015610e595780601f10610e2e57610100808354040283529160200191610e59565b820191906000526020600020905b815481529060010190602001808311610e3c57829003601f168201915b505050505081526020019060010190610dc1565b505050508152602001600382018054610e8590612adf565b80601f0160208091040260200160405190810160405280929190818152602001828054610eb190612adf565b8015610efe5780601f10610ed357610100808354040283529160200191610efe565b820191906000526020600020905b815481529060010190602001808311610ee157829003601f168201915b5050505050815260200160048201548152505090506000801b81608001511415610f5d576040517f08c379a0000000000000000000000000000000000000000000000000000000008152600401610f549061362b565b60405180910390fd5b60003390508073ffffffffffffffffffffffffffffffffffffffff16635fe39e0d84846060015185608001516040518463ffffffff1660e01b8152600401610fa79392919061364b565b600060405180830381600087803b158015610fc157600080fd5b505af1158015610fd5573d6000803e3d6000fd5b50505050823373ffffffffffffffffffffffffffffffffffffffff167fe893e4ba0e364cdc96364b1e1e0d53b0d91e5fd6aa0ee9d81a17ecd61178bf1760405160405180910390a3505050565b60008060009054906101000a900473ffffffffffffffffffffffffffffffffffffffff16905090565b600160009054906101000a900473ffffffffffffffffffffffffffffffffffffffff1673ffffffffffffffffffffffffffffffffffffffff16639511059d600383604051806080016040528060538152602001613884605391396040518463ffffffff1660e01b81526004016110c393929190613111565b60206040518083038186803b1580156110db57600080fd5b505afa1580156110ef573d6000803e3d6000fd5b505050506040513d601f19601f820116820180604052508101906111139190612c17565b611152576040517f08c379a0000000000000000000000000000000000000000000000000000000008152600401611149906131bc565b60405180910390fd5b6000600560008573ffffffffffffffffffffffffffffffffffffffff1673ffffffffffffffffffffffffffffffffffffffff16815260200190815260200160002060008481526020019081526020016000206040518060a0016040529081600082015481526020016001820160009054906101000a900460ff1660018111156111de576111dd6120c0565b5b60018111156111f0576111ef6120c0565b5b815260200160028201805480602002602001604051908101604052809291908181526020016000905b828210156112c557838290600052602060002001805461123890612adf565b80601f016020809104026020016040519081016040528092919081815260200182805461126490612adf565b80156112b15780601f10611286576101008083540402835291602001916112b1565b820191906000526020600020905b81548152906001019060200180831161129457829003601f168201915b505050505081526020019060010190611219565b5050505081526020016003820180546112dd90612adf565b80601f016020809104026020016040519081016040528092919081815260200182805461130990612adf565b80156113565780601f1061132b57610100808354040283529160200191611356565b820191906000526020600020905b81548152906001019060200180831161133957829003601f168201915b5050505050815260200160048201548152505090506000801b816080015114156113b5576040517f08c379a00000000000000000000000000000000000000000000000000000000081526004016113ac906136d5565b60405180910390fd5b60008490508073ffffffffffffffffffffffffffffffffffffffff16635fe39e0d85846060015185608001516040518463ffffffff1660e01b81526004016113ff9392919061364b565b600060405180830381600087803b15801561141957600080fd5b505af115801561142d573d6000803e3d6000fd5b50505050600560008673ffffffffffffffffffffffffffffffffffffffff1673ffffffffffffffffffffffffffffffffffffffff16815260200190815260200160002060008581526020019081526020016000206000808201600090556001820160006101000a81549060ff02191690556002820160006114ae9190611b35565b6003820160006114be9190611b56565b60048201600090555050838573ffffffffffffffffffffffffffffffffffffffff167fe893e4ba0e364cdc96364b1e1e0d53b0d91e5fd6aa0ee9d81a17ecd61178bf1760405160405180910390a35050505050565b6005602052816000526040600020602052806000526040600020600091509150508060000154908060010160009054906101000a900460ff169080600301805461155c90612adf565b80601f016020809104026020016040519081016040528092919081815260200182805461158890612adf565b80156115d55780601f106115aa576101008083540402835291602001916115d5565b820191906000526020600020905b8154815290600101906020018083116115b857829003601f168201915b5050505050908060040154905084565b600380546115f290612adf565b80601f016020809104026020016040519081016040528092919081815260200182805461161e90612adf565b801561166b5780601f106116405761010080835404028352916020019161166b565b820191906000526020600020905b81548152906001019060200180831161164e57829003601f168201915b505050505081565b833373ffffffffffffffffffffffffffffffffffffffff167fe5f4762afde15256ce24aa385b449d27b7d2776921f3c673f8162ddb5b7a2f168585856040516116be939291906136f5565b60405180910390a350505050565b6116d58161180a565b611714576040517f08c379a000000000000000000000000000000000000000000000000000000000815260040161170b90612822565b60405180910390fd5b8473ffffffffffffffffffffffffffffffffffffffff1663f45cf5e4856040518263ffffffff1660e01b815260040161174d91906135bd565b600060405180830381600087803b15801561176757600080fd5b505af115801561177b573d6000803e3d6000fd5b505050505050505050565b61178e611838565b600073ffffffffffffffffffffffffffffffffffffffff168173ffffffffffffffffffffffffffffffffffffffff1614156117fe576040517f08c379a00000000000000000000000000000000000000000000000000000000081526004016117f590613799565b60405180910390fd5b611807816118b6565b50565b60008082806020019061181d91906128dc565b9050141561182e5760009050611833565b600190505b919050565b61184061197a565b73ffffffffffffffffffffffffffffffffffffffff1661185e611022565b73ffffffffffffffffffffffffffffffffffffffff16146118b4576040517f08c379a00000000000000000000000000000000000000000000000000000000081526004016118ab90613805565b60405180910390fd5b565b60008060009054906101000a900473ffffffffffffffffffffffffffffffffffffffff169050816000806101000a81548173ffffffffffffffffffffffffffffffffffffffff021916908373ffffffffffffffffffffffffffffffffffffffff1602179055508173ffffffffffffffffffffffffffffffffffffffff168173ffffffffffffffffffffffffffffffffffffffff167f8be0079c531659141344cd1fd0a4f28419497f9722a3daafe3b4186f6b6457e060405160405180910390a35050565b600033905090565b82805461198e90612adf565b90600052602060002090601f0160209004810192826119b057600085556119f7565b82601f106119c957803560ff19168380011785556119f7565b828001600101855582156119f7579182015b828111156119f65782358255916020019190600101906119db565b5b509050611a049190611b96565b5090565b6040518060a001604052806000801916815260200160006001811115611a3157611a306120c0565b5b81526020016060815260200160608152602001600080191681525090565b828054828255906000526020600020908101928215611a9e579160200282015b82811115611a9d578251829080519060200190611a8d929190611aaf565b5091602001919060010190611a6f565b5b509050611aab9190611bb3565b5090565b828054611abb90612adf565b90600052602060002090601f016020900481019282611add5760008555611b24565b82601f10611af657805160ff1916838001178555611b24565b82800160010185558215611b24579182015b82811115611b23578251825591602001919060010190611b08565b5b509050611b319190611b96565b5090565b5080546000825590600052602060002090810190611b539190611bb3565b50565b508054611b6290612adf565b6000825580601f10611b745750611b93565b601f016020900490600052602060002090810190611b929190611b96565b5b50565b5b80821115611baf576000816000905550600101611b97565b5090565b5b80821115611bd35760008181611bca9190611b56565b50600101611bb4565b5090565b6000604051905090565b600080fd5b600080fd5b600073ffffffffffffffffffffffffffffffffffffffff82169050919050565b6000611c1682611beb565b9050919050565b6000611c2882611c0b565b9050919050565b611c3881611c1d565b8114611c4357600080fd5b50565b600081359050611c5581611c2f565b92915050565b600080fd5b600060c08284031215611c7657611c75611c5b565b5b81905092915050565b600060408284031215611c9557611c94611c5b565b5b81905092915050565b600080600060608486031215611cb757611cb6611be1565b5b6000611cc586828701611c46565b935050602084013567ffffffffffffffff811115611ce657611ce5611be6565b5b611cf286828701611c60565b925050604084013567ffffffffffffffff811115611d1357611d12611be6565b5b611d1f86828701611c7f565b9150509250925092565b600080fd5b600080fd5b600080fd5b60008083601f840112611d4e57611d4d611d29565b5b8235905067ffffffffffffffff811115611d6b57611d6a611d2e565b5b602083019150836001820283011115611d8757611d86611d33565b5b9250929050565b60008060208385031215611da557611da4611be1565b5b600083013567ffffffffffffffff811115611dc357611dc2611be6565b5b611dcf85828601611d38565b92509250509250929050565b6000819050919050565b611dee81611ddb565b8114611df957600080fd5b50565b600081359050611e0b81611de5565b92915050565b60028110611e1e57600080fd5b50565b600081359050611e3081611e11565b92915050565b60008083601f840112611e4c57611e4b611d29565b5b8235905067ffffffffffffffff811115611e6957611e68611d2e565b5b602083019150836020820283011115611e8557611e84611d33565b5b9250929050565b60008083601f840112611ea257611ea1611d29565b5b8235905067ffffffffffffffff811115611ebf57611ebe611d2e565b5b602083019150836001820283011115611edb57611eda611d33565b5b9250929050565b600080600080600080600080600060e08a8c031215611f0457611f03611be1565b5b6000611f128c828d01611c46565b9950506020611f238c828d01611dfc565b9850506040611f348c828d01611e21565b97505060608a013567ffffffffffffffff811115611f5557611f54611be6565b5b611f618c828d01611e36565b96509650506080611f748c828d01611dfc565b94505060a08a013567ffffffffffffffff811115611f9557611f94611be6565b5b611fa18c828d01611e8c565b935093505060c0611fb48c828d01611dfc565b9150509295985092959850929598565b60008060008060408587031215611fde57611fdd611be1565b5b600085013567ffffffffffffffff811115611ffc57611ffb611be6565b5b61200887828801611d38565b9450945050602085013567ffffffffffffffff81111561202b5761202a611be6565b5b61203787828801611d38565b925092505092959194509250565b61204e81611c0b565b811461205957600080fd5b50565b60008135905061206b81612045565b92915050565b6000806040838503121561208857612087611be1565b5b60006120968582860161205c565b92505060206120a785828601611dfc565b9150509250929050565b6120ba81611ddb565b82525050565b7f4e487b7100000000000000000000000000000000000000000000000000000000600052602160045260246000fd5b60028110612100576120ff6120c0565b5b50565b6000819050612111826120ef565b919050565b600061212182612103565b9050919050565b61213181612116565b82525050565b600081519050919050565b600082825260208201905092915050565b6000819050602082019050919050565b600081519050919050565b600082825260208201905092915050565b60005b8381101561219d578082015181840152602081019050612182565b838111156121ac576000848401525b50505050565b6000601f19601f8301169050919050565b60006121ce82612163565b6121d8818561216e565b93506121e881856020860161217f565b6121f1816121b2565b840191505092915050565b600061220883836121c3565b905092915050565b6000602082019050919050565b600061222882612137565b6122328185612142565b93508360208202850161224485612153565b8060005b85811015612280578484038952815161226185826121fc565b945061226c83612210565b925060208a01995050600181019050612248565b50829750879550505050505092915050565b600060a0830160008301516122aa60008601826120b1565b5060208301516122bd6020860182612128565b50604083015184820360408601526122d5828261221d565b915050606083015184820360608601526122ef82826121c3565b915050608083015161230460808601826120b1565b508091505092915050565b600060208201905081810360008301526123298184612292565b905092915050565b6000806000806000806000806000806101008b8d03121561235557612354611be1565b5b60006123638d828e01611c46565b9a505060206123748d828e01611dfc565b99505060408b013567ffffffffffffffff81111561239557612394611be6565b5b6123a18d828e01611e36565b985098505060606123b48d828e01611e21565b96505060808b013567ffffffffffffffff8111156123d5576123d4611be6565b5b6123e18d828e01611e8c565b955095505060a06123f48d828e01611dfc565b93505060c06124058d828e01611dfc565b92505060e08b013567ffffffffffffffff81111561242657612425611be6565b5b6124328d828e01611c7f565b9150509295989b9194979a5092959850565b60006020828403121561245a57612459611be1565b5b600061246884828501611dfc565b91505092915050565b61247a81611c0b565b82525050565b60006020820190506124956000830184612471565b92915050565b6000806000606084860312156124b4576124b3611be1565b5b60006124c28682870161205c565b93505060206124d386828701611dfc565b925050604084013567ffffffffffffffff8111156124f4576124f3611be6565b5b61250086828701611c7f565b9150509250925092565b61251381611ddb565b82525050565b61252281612116565b82525050565b600082825260208201905092915050565b600061254482612163565b61254e8185612528565b935061255e81856020860161217f565b612567816121b2565b840191505092915050565b6000608082019050612587600083018761250a565b6125946020830186612519565b81810360408301526125a68185612539565b90506125b5606083018461250a565b95945050505050565b600081519050919050565b600082825260208201905092915050565b60006125e5826125be565b6125ef81856125c9565b93506125ff81856020860161217f565b612608816121b2565b840191505092915050565b6000602082019050818103600083015261262d81846125da565b905092915050565b600067ffffffffffffffff82169050919050565b61265281612635565b811461265d57600080fd5b50565b60008135905061266f81612649565b92915050565b6000806000806060858703121561268f5761268e611be1565b5b600061269d87828801611dfc565b945050602085013567ffffffffffffffff8111156126be576126bd611be6565b5b6126ca87828801611d38565b935093505060406126dd87828801612660565b91505092959194509250565b60008060008060006080868803121561270557612704611be1565b5b600061271388828901611c46565b955050602086013567ffffffffffffffff81111561273457612733611be6565b5b61274088828901611c60565b945050604086013567ffffffffffffffff81111561276157612760611be6565b5b61276d88828901611d38565b9350935050606086013567ffffffffffffffff8111156127905761278f611be6565b5b61279c88828901611c7f565b9150509295509295909350565b6000602082840312156127bf576127be611be1565b5b60006127cd8482850161205c565b91505092915050565b7f50726f6f6620766572696669636174696f6e206661696c656400000000000000600082015250565b600061280c601983612528565b9150612817826127d6565b602082019050919050565b6000602082019050818103600083015261283b816127ff565b9050919050565b600080fd5b600080fd5b600080fd5b60008235600160400383360303811261286d5761286c612842565b5b80830191505092915050565b6000808335600160200384360303811261289657612895612842565b5b80840192508235915067ffffffffffffffff8211156128b8576128b7612847565b5b6020830192506001820236038313156128d4576128d361284c565b5b509250929050565b600080833560016020038436030381126128f9576128f8612842565b5b80840192508235915067ffffffffffffffff82111561291b5761291a612847565b5b6020830192506001820236038313156129375761293661284c565b5b509250929050565b60006020828403121561295557612954611be1565b5b600061296384828501612660565b91505092915050565b82818337600083830152505050565b60006129878385612528565b935061299483858461296c565b61299d836121b2565b840190509392505050565b60006129b483856125c9565b93506129c183858461296c565b6129ca836121b2565b840190509392505050565b6129de81612635565b82525050565b600060808201905081810360008301526129ff81898b61297b565b90508181036020830152612a1481878961297b565b90508181036040830152612a298185876129a8565b9050612a3860608301846129d5565b98975050505050505050565b7f436c69656e74206e6f7420637265617465640000000000000000000000000000600082015250565b6000612a7a601283612528565b9150612a8582612a44565b602082019050919050565b60006020820190508181036000830152612aa981612a6d565b9050919050565b7f4e487b7100000000000000000000000000000000000000000000000000000000600052602260045260246000fd5b60006002820490506001821680612af757607f821691505b60208210811415612b0b57612b0a612ab0565b5b50919050565b60008190508160005260206000209050919050565b60008154612b3381612adf565b612b3d81866125c9565b94506001821660008114612b585760018114612b6a57612b9d565b60ff1983168652602086019350612b9d565b612b7385612b11565b60005b83811015612b9557815481890152600182019150602081019050612b76565b808801955050505b50505092915050565b60006040820190508181036000830152612bc08186612b26565b90508181036020830152612bd58184866129a8565b9050949350505050565b60008115159050919050565b612bf481612bdf565b8114612bff57600080fd5b50565b600081519050612c1181612beb565b92915050565b600060208284031215612c2d57612c2c611be1565b5b6000612c3b84828501612c02565b91505092915050565b7f436f6e73656e73757320737461746520766572696669636174696f6e2066616960008201527f6c65640000000000000000000000000000000000000000000000000000000000602082015250565b6000612ca0602383612528565b9150612cab82612c44565b604082019050919050565b60006020820190508181036000830152612ccf81612c93565b9050919050565b600082825260208201905092915050565b6000819050919050565b6000612cfd838561216e565b9350612d0a83858461296c565b612d13836121b2565b840190509392505050565b6000612d2b848484612cf1565b90509392505050565b600080fd5b600080fd5b600080fd5b60008083356001602003843603038112612d6057612d5f612d3e565b5b83810192508235915060208301925067ffffffffffffffff821115612d8857612d87612d34565b5b600182023603841315612d9e57612d9d612d39565b5b509250929050565b6000602082019050919050565b6000612dbf8385612cd6565b935083602084028501612dd184612ce7565b8060005b87811015612e17578484038952612dec8284612d43565b612df7868284612d1e565b9550612e0284612da6565b935060208b019a505050600181019050612dd5565b50829750879450505050509392505050565b600060c082019050612e3e600083018b61250a565b612e4b602083018a612519565b8181036040830152612e5e81888a612db3565b9050612e6d606083018761250a565b8181036080830152612e8081858761297b565b9050612e8f60a083018461250a565b9998505050505050505050565b600081519050612eab81611de5565b92915050565b600060208284031215612ec757612ec6611be1565b5b6000612ed584828501612e9c565b91505092915050565b600060a082019050612ef3600083018a61250a565b612f006020830189612519565b8181036040830152612f13818789612db3565b90508181036060830152612f2881858761297b565b9050612f37608083018461250a565b98975050505050505050565b7f436c69656e7420616c7265616479206372656174656400000000000000000000600082015250565b6000612f79601683612528565b9150612f8482612f43565b602082019050919050565b60006020820190508181036000830152612fa881612f6c565b9050919050565b6000612fbe6020840184612660565b905092915050565b612fcf81612635565b82525050565b60008083356001602003843603038112612ff257612ff1612d3e565b5b83810192508235915060208301925067ffffffffffffffff82111561301a57613019612d34565b5b6001820236038413156130305761302f612d39565b5b509250929050565b600082825260208201905092915050565b60006130558385613038565b935061306283858461296c565b61306b836121b2565b840190509392505050565b6000604083016130896000840184612faf565b6130966000860182612fc6565b506130a46020840184612fd5565b85830360208701526130b7838284613049565b925050508091505092915050565b7f6368616e6e656c2f706174682f746f2f62652f61646465642f68657265000000600082015250565b60006130fb601d836125c9565b9150613106826130c5565b602082019050919050565b6000608082019050818103600083015261312b8186612b26565b9050818103602083015261313f8185613076565b90508181036040830152613152816130ee565b9050818103606083015261316681846125da565b9050949350505050565b7f4661696c20746f2070726f7665206368616e6e656c2073746174650000000000600082015250565b60006131a6601b83612528565b91506131b182613170565b602082019050919050565b600060208201905081810360008301526131d581613199565b9050919050565b60006060820190506131f1600083018661250a565b6131fe602083018561250a565b61320b604083018461250a565b949350505050565b7f4e487b7100000000000000000000000000000000000000000000000000000000600052604160045260246000fd5b61324b826121b2565b810181811067ffffffffffffffff8211171561326a57613269613213565b5b80604052505050565b600061327d611bd7565b90506132898282613242565b919050565b600067ffffffffffffffff8211156132a9576132a8613213565b5b602082029050602081019050919050565b600080fd5b600067ffffffffffffffff8211156132da576132d9613213565b5b6132e3826121b2565b9050602081019050919050565b60006133036132fe846132bf565b613273565b90508281526020810184848401111561331f5761331e6132ba565b5b61332a84828561296c565b509392505050565b600082601f83011261334757613346611d29565b5b81356133578482602086016132f0565b91505092915050565b600061337361336e8461328e565b613273565b9050808382526020820190506020840283018581111561339657613395611d33565b5b835b818110156133dd57803567ffffffffffffffff8111156133bb576133ba611d29565b5b8086016133c88982613332565b85526020850194505050602081019050613398565b5050509392505050565b60006133f4368484613360565b905092915050565b6000604082019050818103600083015261341781868861297b565b9050818103602083015261342c818486612db3565b905095945050505050565b60008235600160400383360303811261345357613452612d3e565b5b82810191505092915050565b600061346e6020840184611dfc565b905092915050565b6000604083016134896000840184612d43565b858303600087015261349c838284612cf1565b925050506134ad602084018461345f565b6134ba60208601826120b1565b508091505092915050565b600082905092915050565b604082016134e16000830183612faf565b6134ee6000850182612fc6565b506134fc6020830183612faf565b6135096020850182612fc6565b50505050565b600060c083016135226000840184613437565b84820360008601526135348282613476565b9150506135446020840184613437565b84820360208601526135568282613476565b9150506135666040840184612faf565b6135736040860182612fc6565b506135816060840184612fd5565b8583036060870152613594838284613049565b925050506135a560808401846134c5565b6135b260808601826134d0565b508091505092915050565b600060208201905081810360008301526135d7818461350f565b905092915050565b7f4368616e6e656c206e6f74206f776e6564206279206d73672e73656e64657200600082015250565b6000613615601f83612528565b9150613620826135df565b602082019050919050565b6000602082019050818103600083015261364481613608565b9050919050565b6000606082019050613660600083018661250a565b81810360208301526136728185612539565b9050613681604083018461250a565b949350505050565b7f4368616e6e656c206e6f74206f776e656420627920706f727441646472657373600082015250565b60006136bf602083612528565b91506136ca82613689565b602082019050919050565b600060208201905081810360008301526136ee816136b2565b9050919050565b600060408201905081810360008301526137108185876129a8565b905061371f60208301846129d5565b949350505050565b7f4f776e61626c653a206e6577206f776e657220697320746865207a65726f206160008201527f6464726573730000000000000000000000000000000000000000000000000000602082015250565b6000613783602683612528565b915061378e82613727565b604082019050919050565b600060208201905081810360008301526137b281613776565b9050919050565b7f4f776e61626c653a2063616c6c6572206973206e6f7420746865206f776e6572600082015250565b60006137ef602083612528565b91506137fa826137b9565b602082019050919050565b6000602082019050818103600083015261381e816137e2565b905091905056fe6578706563746564206368616e6e656c20627974657320636f6e73747275637465642066726f6d20706172616d732e204368616e6e656c2e5374617465203d207b41636b5f50656e64696e672c20436f6e6669726d5f50656e64696e677d6578706563746564206368616e6e656c20627974657320636f6e73747275637465642066726f6d20706172616d732e204368616e6e656c2e5374617465203d207b436c6f736564285f50656e64696e673f297da26469706673582212205ebaae2fbcef0e183a758462936ebf36a3e89b4074c51152e96d2abdc7376a1b64736f6c63430008090033",
  "linkReferences": {},
  "deployedLinkReferences": {}
}