{
  "_format": "hh-sol-artifact-1",
  "contractName": "Dispatcher",
  "sourceName": "contracts/Dispatcher.sol",
  "abi": [
    {
      "inputs": [
        {
          "internalType": "contract ZKMintVerifier",
          "name": "_verifier",
          "type": "address"
        },
        {
          "internalType": "address payable",
          "name": "_escrow",
          "type": "address"
        }
      ],
      "stateMutability": "nonpayable",
      "type": "constructor"
    },
    {
      "anonymous": false,
      "inputs": [
        {
          "indexed": true,
          "internalType": "address",
          "name": "portAddress",
          "type": "address"
        },
        {
          "indexed": true,
          "internalType": "bytes32",
          "name": "channelId",
          "type": "bytes32"
        }
      ],
      "name": "CloseIbcChannel",
      "type": "event"
    },
    {
      "anonymous": false,
      "inputs": [
        {
          "indexed": true,
          "internalType": "address",
          "name": "portAddress",
          "type": "address"
        },
        {
          "indexed": true,
          "internalType": "bytes32",
          "name": "channelId",
          "type": "bytes32"
        },
        {
          "indexed": false,
          "internalType": "string",
          "name": "counterpartyPortId",
          "type": "string"
        },
        {
          "indexed": true,
          "internalType": "bytes32",
          "name": "counterpartyChannelId",
          "type": "bytes32"
        },
        {
          "indexed": false,
          "internalType": "string[]",
          "name": "connectionHops",
          "type": "string[]"
        }
      ],
      "name": "ConnectIbcChannel",
      "type": "event"
    },
    {
      "anonymous": false,
      "inputs": [
        {
          "indexed": true,
          "internalType": "bytes32",
          "name": "srcChannelId",
          "type": "bytes32"
        },
        {
          "indexed": false,
          "internalType": "string",
          "name": "srcPortId",
          "type": "string"
        },
        {
          "indexed": true,
          "internalType": "bytes32",
          "name": "destChannelId",
          "type": "bytes32"
        },
        {
          "indexed": false,
          "internalType": "string",
          "name": "destPortId",
          "type": "string"
        },
        {
          "indexed": false,
          "internalType": "bytes",
          "name": "data",
          "type": "bytes"
        },
        {
          "indexed": false,
          "internalType": "uint64",
          "name": "sequence",
          "type": "uint64"
        }
      ],
      "name": "OnRecvPacket",
      "type": "event"
    },
    {
      "anonymous": false,
      "inputs": [
        {
          "indexed": true,
          "internalType": "address",
          "name": "portAddress",
          "type": "address"
        },
        {
          "indexed": true,
          "internalType": "bytes32",
          "name": "counterpartyChannelId",
          "type": "bytes32"
        },
        {
          "indexed": false,
          "internalType": "bytes32",
          "name": "version",
          "type": "bytes32"
        },
        {
          "indexed": false,
          "internalType": "enum ChannelOrder",
          "name": "ordering",
          "type": "uint8"
        },
        {
          "indexed": false,
          "internalType": "string[]",
          "name": "connectionHops",
          "type": "string[]"
        },
        {
          "indexed": false,
          "internalType": "string",
          "name": "counterpartyPortId",
          "type": "string"
        },
        {
          "indexed": false,
          "internalType": "bytes32",
          "name": "counterpartyVersion",
          "type": "bytes32"
        }
      ],
      "name": "OpenIbcChannel",
      "type": "event"
    },
    {
      "anonymous": false,
      "inputs": [
        {
          "indexed": true,
          "internalType": "address",
          "name": "previousOwner",
          "type": "address"
        },
        {
          "indexed": true,
          "internalType": "address",
          "name": "newOwner",
          "type": "address"
        }
      ],
      "name": "OwnershipTransferred",
      "type": "event"
    },
    {
      "anonymous": false,
      "inputs": [
        {
          "indexed": true,
          "internalType": "address",
          "name": "sourcePortAddress",
          "type": "address"
        },
        {
          "indexed": true,
          "internalType": "bytes32",
          "name": "sourceChannelId",
          "type": "bytes32"
        },
        {
          "indexed": false,
          "internalType": "bytes",
          "name": "packet",
          "type": "bytes"
        },
        {
          "indexed": false,
          "internalType": "uint64",
          "name": "sequence",
          "type": "uint64"
        },
        {
          "indexed": false,
          "internalType": "uint64",
          "name": "timeoutTimestamp",
          "type": "uint64"
        },
        {
          "indexed": false,
          "internalType": "uint256",
          "name": "fee",
          "type": "uint256"
        }
      ],
      "name": "SendPacket",
      "type": "event"
    },
    {
      "inputs": [
        {
          "internalType": "bytes32",
          "name": "channelId",
          "type": "bytes32"
        }
      ],
      "name": "closeIbcChannel",
      "outputs": [],
      "stateMutability": "nonpayable",
      "type": "function"
    },
    {
      "inputs": [
        {
          "internalType": "contract IbcReceiver",
          "name": "portAddress",
          "type": "address"
        },
        {
          "internalType": "bytes32",
          "name": "channelId",
          "type": "bytes32"
        },
        {
          "internalType": "string[]",
          "name": "connectionHops",
          "type": "string[]"
        },
        {
          "internalType": "enum ChannelOrder",
          "name": "ordering",
          "type": "uint8"
        },
        {
          "internalType": "string",
          "name": "counterpartyPortId",
          "type": "string"
        },
        {
          "internalType": "bytes32",
          "name": "counterpartyChannelId",
          "type": "bytes32"
        },
        {
          "internalType": "bytes32",
          "name": "counterpartyVersion",
          "type": "bytes32"
        },
        {
          "components": [
            {
              "internalType": "uint64",
              "name": "proofHeight",
              "type": "uint64"
            },
            {
              "internalType": "bytes",
              "name": "proof",
              "type": "bytes"
            }
          ],
          "internalType": "struct Proof",
          "name": "proof",
          "type": "tuple"
        }
      ],
      "name": "connectIbcChannel",
      "outputs": [],
      "stateMutability": "nonpayable",
      "type": "function"
    },
    {
      "inputs": [
        {
          "internalType": "bytes",
          "name": "clientState",
          "type": "bytes"
        },
        {
          "internalType": "bytes",
          "name": "consensusState",
          "type": "bytes"
        }
      ],
      "name": "createClient",
      "outputs": [],
      "stateMutability": "nonpayable",
      "type": "function"
    },
    {
      "inputs": [
        {
          "internalType": "address",
          "name": "portAddress",
          "type": "address"
        },
        {
          "internalType": "bytes32",
          "name": "channelId",
          "type": "bytes32"
        }
      ],
      "name": "getChannel",
      "outputs": [
        {
          "components": [
            {
              "internalType": "bytes32",
              "name": "version",
              "type": "bytes32"
            },
            {
              "internalType": "enum ChannelOrder",
              "name": "ordering",
              "type": "uint8"
            },
            {
              "internalType": "string[]",
              "name": "connectionHops",
              "type": "string[]"
            },
            {
              "internalType": "string",
              "name": "counterpartyPortId",
              "type": "string"
            },
            {
              "internalType": "bytes32",
              "name": "counterpartyChannelId",
              "type": "bytes32"
            }
          ],
          "internalType": "struct Channel",
          "name": "",
          "type": "tuple"
        }
      ],
      "stateMutability": "view",
      "type": "function"
    },
    {
      "inputs": [],
      "name": "latestConsensusState",
      "outputs": [
        {
          "internalType": "bytes",
          "name": "",
          "type": "bytes"
        }
      ],
      "stateMutability": "view",
      "type": "function"
    },
    {
      "inputs": [
        {
          "internalType": "contract IbcReceiver",
          "name": "receiver",
          "type": "address"
        },
        {
          "components": [
            {
              "components": [
                {
                  "internalType": "string",
                  "name": "portId",
                  "type": "string"
                },
                {
                  "internalType": "bytes32",
                  "name": "channelId",
                  "type": "bytes32"
                }
              ],
              "internalType": "struct IbcEndpoint",
              "name": "src",
              "type": "tuple"
            },
            {
              "components": [
                {
                  "internalType": "string",
                  "name": "portId",
                  "type": "string"
                },
                {
                  "internalType": "bytes32",
                  "name": "channelId",
                  "type": "bytes32"
                }
              ],
              "internalType": "struct IbcEndpoint",
              "name": "dest",
              "type": "tuple"
            },
            {
              "internalType": "uint64",
              "name": "sequence",
              "type": "uint64"
            },
            {
              "internalType": "bytes",
              "name": "data",
              "type": "bytes"
            },
            {
              "components": [
                {
                  "internalType": "uint64",
                  "name": "block",
                  "type": "uint64"
                },
                {
                  "internalType": "uint64",
                  "name": "timestamp",
                  "type": "uint64"
                }
              ],
              "internalType": "struct IbcTimeout",
              "name": "timeout",
              "type": "tuple"
            }
          ],
          "internalType": "struct IbcPacket",
          "name": "packet",
          "type": "tuple"
        },
        {
          "internalType": "bytes",
          "name": "acknowledgement",
          "type": "bytes"
        },
        {
          "components": [
            {
              "internalType": "uint64",
              "name": "proofHeight",
              "type": "uint64"
            },
            {
              "internalType": "bytes",
              "name": "proof",
              "type": "bytes"
            }
          ],
          "internalType": "struct Proof",
          "name": "proof",
          "type": "tuple"
        }
      ],
      "name": "onAcknowledgementPacket",
      "outputs": [],
      "stateMutability": "nonpayable",
      "type": "function"
    },
    {
      "inputs": [
        {
          "internalType": "address",
          "name": "portAddress",
          "type": "address"
        },
        {
          "internalType": "bytes32",
          "name": "channelId",
          "type": "bytes32"
        },
        {
          "components": [
            {
              "internalType": "uint64",
              "name": "proofHeight",
              "type": "uint64"
            },
            {
              "internalType": "bytes",
              "name": "proof",
              "type": "bytes"
            }
          ],
          "internalType": "struct Proof",
          "name": "proof",
          "type": "tuple"
        }
      ],
      "name": "onCloseIbcChannel",
      "outputs": [],
      "stateMutability": "nonpayable",
      "type": "function"
    },
    {
      "inputs": [
        {
          "internalType": "contract IbcReceiver",
          "name": "receiver",
          "type": "address"
        },
        {
          "components": [
            {
              "components": [
                {
                  "internalType": "string",
                  "name": "portId",
                  "type": "string"
                },
                {
                  "internalType": "bytes32",
                  "name": "channelId",
                  "type": "bytes32"
                }
              ],
              "internalType": "struct IbcEndpoint",
              "name": "src",
              "type": "tuple"
            },
            {
              "components": [
                {
                  "internalType": "string",
                  "name": "portId",
                  "type": "string"
                },
                {
                  "internalType": "bytes32",
                  "name": "channelId",
                  "type": "bytes32"
                }
              ],
              "internalType": "struct IbcEndpoint",
              "name": "dest",
              "type": "tuple"
            },
            {
              "internalType": "uint64",
              "name": "sequence",
              "type": "uint64"
            },
            {
              "internalType": "bytes",
              "name": "data",
              "type": "bytes"
            },
            {
              "components": [
                {
                  "internalType": "uint64",
                  "name": "block",
                  "type": "uint64"
                },
                {
                  "internalType": "uint64",
                  "name": "timestamp",
                  "type": "uint64"
                }
              ],
              "internalType": "struct IbcTimeout",
              "name": "timeout",
              "type": "tuple"
            }
          ],
          "internalType": "struct IbcPacket",
          "name": "packet",
          "type": "tuple"
        },
        {
          "components": [
            {
              "internalType": "uint64",
              "name": "proofHeight",
              "type": "uint64"
            },
            {
              "internalType": "bytes",
              "name": "proof",
              "type": "bytes"
            }
          ],
          "internalType": "struct Proof",
          "name": "proof",
          "type": "tuple"
        }
      ],
      "name": "onRecvPacket",
      "outputs": [],
      "stateMutability": "nonpayable",
      "type": "function"
    },
    {
      "inputs": [
        {
          "internalType": "contract IbcReceiver",
          "name": "receiver",
          "type": "address"
        },
        {
          "components": [
            {
              "components": [
                {
                  "internalType": "string",
                  "name": "portId",
                  "type": "string"
                },
                {
                  "internalType": "bytes32",
                  "name": "channelId",
                  "type": "bytes32"
                }
              ],
              "internalType": "struct IbcEndpoint",
              "name": "src",
              "type": "tuple"
            },
            {
              "components": [
                {
                  "internalType": "string",
                  "name": "portId",
                  "type": "string"
                },
                {
                  "internalType": "bytes32",
                  "name": "channelId",
                  "type": "bytes32"
                }
              ],
              "internalType": "struct IbcEndpoint",
              "name": "dest",
              "type": "tuple"
            },
            {
              "internalType": "uint64",
              "name": "sequence",
              "type": "uint64"
            },
            {
              "internalType": "bytes",
              "name": "data",
              "type": "bytes"
            },
            {
              "components": [
                {
                  "internalType": "uint64",
                  "name": "block",
                  "type": "uint64"
                },
                {
                  "internalType": "uint64",
                  "name": "timestamp",
                  "type": "uint64"
                }
              ],
              "internalType": "struct IbcTimeout",
              "name": "timeout",
              "type": "tuple"
            }
          ],
          "internalType": "struct IbcPacket",
          "name": "packet",
          "type": "tuple"
        },
        {
          "components": [
            {
              "internalType": "uint64",
              "name": "proofHeight",
              "type": "uint64"
            },
            {
              "internalType": "bytes",
              "name": "proof",
              "type": "bytes"
            }
          ],
          "internalType": "struct Proof",
          "name": "proof",
          "type": "tuple"
        }
      ],
      "name": "onTimeoutPacket",
      "outputs": [],
      "stateMutability": "nonpayable",
      "type": "function"
    },
    {
      "inputs": [
        {
          "internalType": "contract IbcReceiver",
          "name": "portAddress",
          "type": "address"
        },
        {
          "internalType": "bytes32",
          "name": "version",
          "type": "bytes32"
        },
        {
          "internalType": "enum ChannelOrder",
          "name": "ordering",
          "type": "uint8"
        },
        {
          "internalType": "string[]",
          "name": "connectionHops",
          "type": "string[]"
        },
        {
          "internalType": "bytes32",
          "name": "counterpartyChannelId",
          "type": "bytes32"
        },
        {
          "internalType": "string",
          "name": "counterpartyPortId",
          "type": "string"
        },
        {
          "internalType": "bytes32",
          "name": "counterpartyVersion",
          "type": "bytes32"
        }
      ],
      "name": "openIbcChannel",
      "outputs": [],
      "stateMutability": "nonpayable",
      "type": "function"
    },
    {
      "inputs": [],
      "name": "owner",
      "outputs": [
        {
          "internalType": "address",
          "name": "",
          "type": "address"
        }
      ],
      "stateMutability": "view",
      "type": "function"
    },
    {
      "inputs": [
        {
          "internalType": "address",
          "name": "",
          "type": "address"
        },
        {
          "internalType": "bytes32",
          "name": "",
          "type": "bytes32"
        }
      ],
      "name": "portChannelMap",
      "outputs": [
        {
          "internalType": "bytes32",
          "name": "version",
          "type": "bytes32"
        },
        {
          "internalType": "enum ChannelOrder",
          "name": "ordering",
          "type": "uint8"
        },
        {
          "internalType": "string",
          "name": "counterpartyPortId",
          "type": "string"
        },
        {
          "internalType": "bytes32",
          "name": "counterpartyChannelId",
          "type": "bytes32"
        }
      ],
      "stateMutability": "view",
      "type": "function"
    },
    {
      "inputs": [],
      "name": "renounceOwnership",
      "outputs": [],
      "stateMutability": "nonpayable",
      "type": "function"
    },
    {
      "inputs": [
        {
          "internalType": "bytes32",
          "name": "channelId",
          "type": "bytes32"
        },
        {
          "internalType": "bytes",
          "name": "packet",
          "type": "bytes"
        },
        {
          "internalType": "uint64",
          "name": "timeoutTimestamp",
          "type": "uint64"
        },
        {
          "internalType": "uint256",
          "name": "fee",
          "type": "uint256"
        }
      ],
      "name": "sendPacket",
      "outputs": [],
      "stateMutability": "payable",
      "type": "function"
    },
    {
      "inputs": [
        {
          "internalType": "address",
          "name": "newOwner",
          "type": "address"
        }
      ],
      "name": "transferOwnership",
      "outputs": [],
      "stateMutability": "nonpayable",
      "type": "function"
    },
    {
      "inputs": [
        {
          "internalType": "bytes",
          "name": "consensusState",
          "type": "bytes"
        }
      ],
      "name": "updateClient",
      "outputs": [],
      "stateMutability": "nonpayable",
      "type": "function"
    }
  ],
  "bytecode": "0x60806040526000600260146101000a81548160ff0219169083151502179055506000600460006101000a81548167ffffffffffffffff021916908367ffffffffffffffff1602179055503480156200005657600080fd5b506040516200440b3803806200440b83398181016040528101906200007c91906200034a565b6200009c62000090620001bb60201b60201c565b620001c360201b60201c565b81600160006101000a81548173ffffffffffffffffffffffffffffffffffffffff021916908373ffffffffffffffffffffffffffffffffffffffff16021790555080600260006101000a81548173ffffffffffffffffffffffffffffffffffffffff021916908373ffffffffffffffffffffffffffffffffffffffff160217905550600073ffffffffffffffffffffffffffffffffffffffff16600260009054906101000a900473ffffffffffffffffffffffffffffffffffffffff1673ffffffffffffffffffffffffffffffffffffffff161415620001b3576040517f08c379a0000000000000000000000000000000000000000000000000000000008152600401620001aa90620003f2565b60405180910390fd5b505062000414565b600033905090565b60008060009054906101000a900473ffffffffffffffffffffffffffffffffffffffff169050816000806101000a81548173ffffffffffffffffffffffffffffffffffffffff021916908373ffffffffffffffffffffffffffffffffffffffff1602179055508173ffffffffffffffffffffffffffffffffffffffff168173ffffffffffffffffffffffffffffffffffffffff167f8be0079c531659141344cd1fd0a4f28419497f9722a3daafe3b4186f6b6457e060405160405180910390a35050565b600080fd5b600073ffffffffffffffffffffffffffffffffffffffff82169050919050565b6000620002b9826200028c565b9050919050565b6000620002cd82620002ac565b9050919050565b620002df81620002c0565b8114620002eb57600080fd5b50565b600081519050620002ff81620002d4565b92915050565b600062000312826200028c565b9050919050565b620003248162000305565b81146200033057600080fd5b50565b600081519050620003448162000319565b92915050565b6000806040838503121562000364576200036362000287565b5b60006200037485828601620002ee565b9250506020620003878582860162000333565b9150509250929050565b600082825260208201905092915050565b7f457363726f772063616e6e6f74206265207a65726f2061646472657373000000600082015250565b6000620003da601d8362000391565b9150620003e782620003a2565b602082019050919050565b600060208201905081810360008301526200040d81620003cb565b9050919050565b613fe780620004246000396000f3fe6080604052600436106100f35760003560e01c80638b24b4cb1161008a578063b2b1bf0311610059578063b2b1bf03146102db578063c2a2514d1461031b578063d2e9aa5614610346578063f2fde38b1461036f576100f3565b80638b24b4cb146102425780638d3d5aa91461026b5780638da5cb5b14610287578063951538f3146102b2576100f3565b806342852d24116100c657806342852d241461019c5780634c9778d3146101d957806364260a6014610202578063715018a61461022b576100f3565b80630ad8d666146100f85780630bece356146101215780631f456c1e1461014a5780633e24aaf314610173575b600080fd5b34801561010457600080fd5b5061011f600480360381019061011a9190612179565b610398565b005b34801561012d57600080fd5b5061014860048036038101906101439190612269565b6104aa565b005b34801561015657600080fd5b50610171600480360381019061016c91906123bd565b6105fe565b005b34801561017f57600080fd5b5061019a6004803603810190610195919061249f565b610702565b005b3480156101a857600080fd5b506101c360048036038101906101be919061254c565b61078d565b6040516101d091906127ea565b60405180910390f35b3480156101e557600080fd5b5061020060048036038101906101fb919061280c565b6109b2565b005b34801561020e57600080fd5b5061022960048036038101906102249190612179565b610ce4565b005b34801561023757600080fd5b50610240610d9c565b005b34801561024e57600080fd5b506102696004803603810190610264919061291f565b610db0565b005b610285600480360381019061028091906129c2565b6110d8565b005b34801561029357600080fd5b5061029c611556565b6040516102a99190612a59565b60405180910390f35b3480156102be57600080fd5b506102d960048036038101906102d49190612a74565b61157f565b005b3480156102e757600080fd5b5061030260048036038101906102fd919061254c565b611a47565b6040516103129493929190612b4b565b60405180910390f35b34801561032757600080fd5b50610330611b19565b60405161033d9190612bec565b60405180910390f35b34801561035257600080fd5b5061036d60048036038101906103689190612c0e565b611ba7565b005b34801561037b57600080fd5b5061039660048036038101906103919190612cce565b611c61565b005b6103a181611ce5565b6103e0576040517f08c379a00000000000000000000000000000000000000000000000000000000081526004016103d790612d47565b60405180910390fd5b8180602001906103f09190612d76565b602001358280600001906104049190612d76565b602001357f080631928e492258b6a102fc2ab3e0a8dfcb747ab0885c25f9cb7a8d486210368480600001906104399190612d76565b80600001906104489190612d9e565b8680602001906104589190612d76565b80600001906104679190612d9e565b8880606001906104779190612e01565b8a604001602081019061048a9190612e64565b60405161049d9796959493929190612f09565b60405180910390a3505050565b600260149054906101000a900460ff166104f9576040517f08c379a00000000000000000000000000000000000000000000000000000000081526004016104f090612fb5565b60405180910390fd5b600160009054906101000a900473ffffffffffffffffffffffffffffffffffffffff1673ffffffffffffffffffffffffffffffffffffffff1663e1ec100c600384846040518463ffffffff1660e01b8152600401610559939291906130cb565b60206040518083038186803b15801561057157600080fd5b505afa158015610585573d6000803e3d6000fd5b505050506040513d601f19601f820116820180604052508101906105a9919061313c565b6105e8576040517f08c379a00000000000000000000000000000000000000000000000000000000081526004016105df906131db565b60405180910390fd5b8181600391906105f9929190611e5d565b505050565b60008973ffffffffffffffffffffffffffffffffffffffff1663486592198a8a8a8a8a8a8a8a6040518963ffffffff1660e01b815260040161064798979695949392919061334e565b602060405180830381600087803b15801561066157600080fd5b505af1158015610675573d6000803e3d6000fd5b505050506040513d601f19601f8201168201806040525081019061069991906133d6565b9050848a73ffffffffffffffffffffffffffffffffffffffff167f9a93c124e7f0aa93d3fbe660b1366e0483b4267619924382261498efbb92c873838b8b8b8a8a8a6040516106ee9796959493929190613403565b60405180910390a350505050505050505050565b61070a611d13565b600260149054906101000a900460ff161561075a576040517f08c379a0000000000000000000000000000000000000000000000000000000008152600401610751906134b4565b60405180910390fd5b6001600260146101000a81548160ff021916908315150217905550818160039190610786929190611e5d565b5050505050565b610795611ee3565b600560008473ffffffffffffffffffffffffffffffffffffffff1673ffffffffffffffffffffffffffffffffffffffff16815260200190815260200160002060008381526020019081526020016000206040518060a0016040529081600082015481526020016001820160009054906101000a900460ff16600181111561081f5761081e61259b565b5b60018111156108315761083061259b565b5b815260200160028201805480602002602001604051908101604052809291908181526020016000905b8282101561090657838290600052602060002001805461087990613004565b80601f01602080910402602001604051908101604052809291908181526020018280546108a590613004565b80156108f25780601f106108c7576101008083540402835291602001916108f2565b820191906000526020600020905b8154815290600101906020018083116108d557829003601f168201915b50505050508152602001906001019061085a565b50505050815260200160038201805461091e90613004565b80601f016020809104026020016040519081016040528092919081815260200182805461094a90613004565b80156109975780601f1061096c57610100808354040283529160200191610997565b820191906000526020600020905b81548152906001019060200180831161097a57829003601f168201915b50505050508152602001600482015481525050905092915050565b600160009054906101000a900473ffffffffffffffffffffffffffffffffffffffff1673ffffffffffffffffffffffffffffffffffffffff16639511059d6003836040518060800160405280605e8152602001613f01605e91396040518463ffffffff1660e01b8152600401610a2a93929190613636565b60206040518083038186803b158015610a4257600080fd5b505afa158015610a56573d6000803e3d6000fd5b505050506040513d601f19601f82011682018060405250810190610a7a919061313c565b610ab9576040517f08c379a0000000000000000000000000000000000000000000000000000000008152600401610ab0906136e1565b60405180910390fd5b8973ffffffffffffffffffffffffffffffffffffffff1663e60a72938a85856040518463ffffffff1660e01b8152600401610af693929190613701565b600060405180830381600087803b158015610b1057600080fd5b505af1158015610b24573d6000803e3d6000fd5b505050506040518060a00160405280838152602001876001811115610b4c57610b4b61259b565b5b8152602001898990610b5e919061390c565b815260200186868080601f016020809104026020016040519081016040528093929190818152602001838380828437600081840152601f19601f82011690508083019250505050505050815260200184815250600560008c73ffffffffffffffffffffffffffffffffffffffff1673ffffffffffffffffffffffffffffffffffffffff16815260200190815260200160002060008b81526020019081526020016000206000820151816000015560208201518160010160006101000a81548160ff02191690836001811115610c3657610c3561259b565b5b02179055506040820151816002019080519060200190610c57929190611f2a565b506060820151816003019080519060200190610c74929190611f8a565b506080820151816004015590505082898b73ffffffffffffffffffffffffffffffffffffffff167f57ea540ad7b8bfd2813b8637764ba029fedc52de3f812934a46511506aa11b8e88888d8d604051610cd09493929190613921565b60405180910390a450505050505050505050565b610ced81611ce5565b610d2c576040517f08c379a0000000000000000000000000000000000000000000000000000000008152600401610d2390612d47565b60405180910390fd5b8273ffffffffffffffffffffffffffffffffffffffff1663b33c2577836040518263ffffffff1660e01b8152600401610d659190613ae2565b600060405180830381600087803b158015610d7f57600080fd5b505af1158015610d93573d6000803e3d6000fd5b50505050505050565b610da4611d13565b610dae6000611d91565b565b6000600560003373ffffffffffffffffffffffffffffffffffffffff1673ffffffffffffffffffffffffffffffffffffffff16815260200190815260200160002060008381526020019081526020016000206040518060a0016040529081600082015481526020016001820160009054906101000a900460ff166001811115610e3c57610e3b61259b565b5b6001811115610e4e57610e4d61259b565b5b815260200160028201805480602002602001604051908101604052809291908181526020016000905b82821015610f23578382906000526020600020018054610e9690613004565b80601f0160208091040260200160405190810160405280929190818152602001828054610ec290613004565b8015610f0f5780601f10610ee457610100808354040283529160200191610f0f565b820191906000526020600020905b815481529060010190602001808311610ef257829003601f168201915b505050505081526020019060010190610e77565b505050508152602001600382018054610f3b90613004565b80601f0160208091040260200160405190810160405280929190818152602001828054610f6790613004565b8015610fb45780601f10610f8957610100808354040283529160200191610fb4565b820191906000526020600020905b815481529060010190602001808311610f9757829003601f168201915b5050505050815260200160048201548152505090506000801b81608001511415611013576040517f08c379a000000000000000000000000000000000000000000000000000000000815260040161100a90613b50565b60405180910390fd5b60003390508073ffffffffffffffffffffffffffffffffffffffff16635fe39e0d84846060015185608001516040518463ffffffff1660e01b815260040161105d93929190613b70565b600060405180830381600087803b15801561107757600080fd5b505af115801561108b573d6000803e3d6000fd5b50505050823373ffffffffffffffffffffffffffffffffffffffff167fe893e4ba0e364cdc96364b1e1e0d53b0d91e5fd6aa0ee9d81a17ecd61178bf1760405160405180910390a3505050565b6000600560003373ffffffffffffffffffffffffffffffffffffffff1673ffffffffffffffffffffffffffffffffffffffff16815260200190815260200160002060008781526020019081526020016000206040518060a0016040529081600082015481526020016001820160009054906101000a900460ff1660018111156111645761116361259b565b5b60018111156111765761117561259b565b5b815260200160028201805480602002602001604051908101604052809291908181526020016000905b8282101561124b5783829060005260206000200180546111be90613004565b80601f01602080910402602001604051908101604052809291908181526020018280546111ea90613004565b80156112375780601f1061120c57610100808354040283529160200191611237565b820191906000526020600020905b81548152906001019060200180831161121a57829003601f168201915b50505050508152602001906001019061119f565b50505050815260200160038201805461126390613004565b80601f016020809104026020016040519081016040528092919081815260200182805461128f90613004565b80156112dc5780601f106112b1576101008083540402835291602001916112dc565b820191906000526020600020905b8154815290600101906020018083116112bf57829003601f168201915b5050505050815260200160048201548152505090506000801b8160800151141561133b576040517f08c379a000000000000000000000000000000000000000000000000000000000815260040161133290613bfa565b60405180910390fd5b6000600260009054906101000a900473ffffffffffffffffffffffffffffffffffffffff1673ffffffffffffffffffffffffffffffffffffffff168360405161138390613c4b565b60006040518083038185875af1925050503d80600081146113c0576040519150601f19603f3d011682016040523d82523d6000602084013e6113c5565b606091505b5050905080611409576040517f08c379a000000000000000000000000000000000000000000000000000000000815260040161140090613cac565b60405180910390fd5b6000600660003373ffffffffffffffffffffffffffffffffffffffff1673ffffffffffffffffffffffffffffffffffffffff168152602001908152602001600020600089815260200190815260200160002060009054906101000a900467ffffffffffffffff16905060018161147f9190613cfb565b600660003373ffffffffffffffffffffffffffffffffffffffff1673ffffffffffffffffffffffffffffffffffffffff16815260200190815260200160002060008a815260200190815260200160002060006101000a81548167ffffffffffffffff021916908367ffffffffffffffff160217905550873373ffffffffffffffffffffffffffffffffffffffff167fc55a6c1340ca55a6b61de30037455a7f9f4a5b8ff106e4eaa0c23ea886fa03608989858a8a604051611544959493929190613d48565b60405180910390a35050505050505050565b60008060009054906101000a900473ffffffffffffffffffffffffffffffffffffffff16905090565b600160009054906101000a900473ffffffffffffffffffffffffffffffffffffffff1673ffffffffffffffffffffffffffffffffffffffff16639511059d600383604051806080016040528060538152602001613f5f605391396040518463ffffffff1660e01b81526004016115f793929190613636565b60206040518083038186803b15801561160f57600080fd5b505afa158015611623573d6000803e3d6000fd5b505050506040513d601f19601f82011682018060405250810190611647919061313c565b611686576040517f08c379a000000000000000000000000000000000000000000000000000000000815260040161167d906136e1565b60405180910390fd5b6000600560008573ffffffffffffffffffffffffffffffffffffffff1673ffffffffffffffffffffffffffffffffffffffff16815260200190815260200160002060008481526020019081526020016000206040518060a0016040529081600082015481526020016001820160009054906101000a900460ff1660018111156117125761171161259b565b5b60018111156117245761172361259b565b5b815260200160028201805480602002602001604051908101604052809291908181526020016000905b828210156117f957838290600052602060002001805461176c90613004565b80601f016020809104026020016040519081016040528092919081815260200182805461179890613004565b80156117e55780601f106117ba576101008083540402835291602001916117e5565b820191906000526020600020905b8154815290600101906020018083116117c857829003601f168201915b50505050508152602001906001019061174d565b50505050815260200160038201805461181190613004565b80601f016020809104026020016040519081016040528092919081815260200182805461183d90613004565b801561188a5780601f1061185f5761010080835404028352916020019161188a565b820191906000526020600020905b81548152906001019060200180831161186d57829003601f168201915b5050505050815260200160048201548152505090506000801b816080015114156118e9576040517f08c379a00000000000000000000000000000000000000000000000000000000081526004016118e090613de2565b60405180910390fd5b60008490508073ffffffffffffffffffffffffffffffffffffffff16635fe39e0d85846060015185608001516040518463ffffffff1660e01b815260040161193393929190613b70565b600060405180830381600087803b15801561194d57600080fd5b505af1158015611961573d6000803e3d6000fd5b50505050600560008673ffffffffffffffffffffffffffffffffffffffff1673ffffffffffffffffffffffffffffffffffffffff16815260200190815260200160002060008581526020019081526020016000206000808201600090556001820160006101000a81549060ff02191690556002820160006119e29190612010565b6003820160006119f29190612031565b60048201600090555050838573ffffffffffffffffffffffffffffffffffffffff167fe893e4ba0e364cdc96364b1e1e0d53b0d91e5fd6aa0ee9d81a17ecd61178bf1760405160405180910390a35050505050565b6005602052816000526040600020602052806000526040600020600091509150508060000154908060010160009054906101000a900460ff1690806003018054611a9090613004565b80601f0160208091040260200160405190810160405280929190818152602001828054611abc90613004565b8015611b095780601f10611ade57610100808354040283529160200191611b09565b820191906000526020600020905b815481529060010190602001808311611aec57829003601f168201915b5050505050908060040154905084565b60038054611b2690613004565b80601f0160208091040260200160405190810160405280929190818152602001828054611b5290613004565b8015611b9f5780601f10611b7457610100808354040283529160200191611b9f565b820191906000526020600020905b815481529060010190602001808311611b8257829003601f168201915b505050505081565b611bb081611ce5565b611bef576040517f08c379a0000000000000000000000000000000000000000000000000000000008152600401611be690612d47565b60405180910390fd5b8473ffffffffffffffffffffffffffffffffffffffff1663f45cf5e4856040518263ffffffff1660e01b8152600401611c289190613ae2565b600060405180830381600087803b158015611c4257600080fd5b505af1158015611c56573d6000803e3d6000fd5b505050505050505050565b611c69611d13565b600073ffffffffffffffffffffffffffffffffffffffff168173ffffffffffffffffffffffffffffffffffffffff161415611cd9576040517f08c379a0000000000000000000000000000000000000000000000000000000008152600401611cd090613e74565b60405180910390fd5b611ce281611d91565b50565b600080828060200190611cf89190612e01565b90501415611d095760009050611d0e565b600190505b919050565b611d1b611e55565b73ffffffffffffffffffffffffffffffffffffffff16611d39611556565b73ffffffffffffffffffffffffffffffffffffffff1614611d8f576040517f08c379a0000000000000000000000000000000000000000000000000000000008152600401611d8690613ee0565b60405180910390fd5b565b60008060009054906101000a900473ffffffffffffffffffffffffffffffffffffffff169050816000806101000a81548173ffffffffffffffffffffffffffffffffffffffff021916908373ffffffffffffffffffffffffffffffffffffffff1602179055508173ffffffffffffffffffffffffffffffffffffffff168173ffffffffffffffffffffffffffffffffffffffff167f8be0079c531659141344cd1fd0a4f28419497f9722a3daafe3b4186f6b6457e060405160405180910390a35050565b600033905090565b828054611e6990613004565b90600052602060002090601f016020900481019282611e8b5760008555611ed2565b82601f10611ea457803560ff1916838001178555611ed2565b82800160010185558215611ed2579182015b82811115611ed1578235825591602001919060010190611eb6565b5b509050611edf9190612071565b5090565b6040518060a001604052806000801916815260200160006001811115611f0c57611f0b61259b565b5b81526020016060815260200160608152602001600080191681525090565b828054828255906000526020600020908101928215611f79579160200282015b82811115611f78578251829080519060200190611f68929190611f8a565b5091602001919060010190611f4a565b5b509050611f86919061208e565b5090565b828054611f9690613004565b90600052602060002090601f016020900481019282611fb85760008555611fff565b82601f10611fd157805160ff1916838001178555611fff565b82800160010185558215611fff579182015b82811115611ffe578251825591602001919060010190611fe3565b5b50905061200c9190612071565b5090565b508054600082559060005260206000209081019061202e919061208e565b50565b50805461203d90613004565b6000825580601f1061204f575061206e565b601f01602090049060005260206000209081019061206d9190612071565b5b50565b5b8082111561208a576000816000905550600101612072565b5090565b5b808211156120ae57600081816120a59190612031565b5060010161208f565b5090565b6000604051905090565b600080fd5b600080fd5b600073ffffffffffffffffffffffffffffffffffffffff82169050919050565b60006120f1826120c6565b9050919050565b6000612103826120e6565b9050919050565b612113816120f8565b811461211e57600080fd5b50565b6000813590506121308161210a565b92915050565b600080fd5b600060c0828403121561215157612150612136565b5b81905092915050565b6000604082840312156121705761216f612136565b5b81905092915050565b600080600060608486031215612192576121916120bc565b5b60006121a086828701612121565b935050602084013567ffffffffffffffff8111156121c1576121c06120c1565b5b6121cd8682870161213b565b925050604084013567ffffffffffffffff8111156121ee576121ed6120c1565b5b6121fa8682870161215a565b9150509250925092565b600080fd5b600080fd5b600080fd5b60008083601f84011261222957612228612204565b5b8235905067ffffffffffffffff81111561224657612245612209565b5b6020830191508360018202830111156122625761226161220e565b5b9250929050565b600080602083850312156122805761227f6120bc565b5b600083013567ffffffffffffffff81111561229e5761229d6120c1565b5b6122aa85828601612213565b92509250509250929050565b6000819050919050565b6122c9816122b6565b81146122d457600080fd5b50565b6000813590506122e6816122c0565b92915050565b600281106122f957600080fd5b50565b60008135905061230b816122ec565b92915050565b60008083601f84011261232757612326612204565b5b8235905067ffffffffffffffff81111561234457612343612209565b5b6020830191508360208202830111156123605761235f61220e565b5b9250929050565b60008083601f84011261237d5761237c612204565b5b8235905067ffffffffffffffff81111561239a57612399612209565b5b6020830191508360018202830111156123b6576123b561220e565b5b9250929050565b600080600080600080600080600060e08a8c0312156123df576123de6120bc565b5b60006123ed8c828d01612121565b99505060206123fe8c828d016122d7565b985050604061240f8c828d016122fc565b97505060608a013567ffffffffffffffff8111156124305761242f6120c1565b5b61243c8c828d01612311565b9650965050608061244f8c828d016122d7565b94505060a08a013567ffffffffffffffff8111156124705761246f6120c1565b5b61247c8c828d01612367565b935093505060c061248f8c828d016122d7565b9150509295985092959850929598565b600080600080604085870312156124b9576124b86120bc565b5b600085013567ffffffffffffffff8111156124d7576124d66120c1565b5b6124e387828801612213565b9450945050602085013567ffffffffffffffff811115612506576125056120c1565b5b61251287828801612213565b925092505092959194509250565b612529816120e6565b811461253457600080fd5b50565b60008135905061254681612520565b92915050565b60008060408385031215612563576125626120bc565b5b600061257185828601612537565b9250506020612582858286016122d7565b9150509250929050565b612595816122b6565b82525050565b7f4e487b7100000000000000000000000000000000000000000000000000000000600052602160045260246000fd5b600281106125db576125da61259b565b5b50565b60008190506125ec826125ca565b919050565b60006125fc826125de565b9050919050565b61260c816125f1565b82525050565b600081519050919050565b600082825260208201905092915050565b6000819050602082019050919050565b600081519050919050565b600082825260208201905092915050565b60005b8381101561267857808201518184015260208101905061265d565b83811115612687576000848401525b50505050565b6000601f19601f8301169050919050565b60006126a98261263e565b6126b38185612649565b93506126c381856020860161265a565b6126cc8161268d565b840191505092915050565b60006126e3838361269e565b905092915050565b6000602082019050919050565b600061270382612612565b61270d818561261d565b93508360208202850161271f8561262e565b8060005b8581101561275b578484038952815161273c85826126d7565b9450612747836126eb565b925060208a01995050600181019050612723565b50829750879550505050505092915050565b600060a083016000830151612785600086018261258c565b5060208301516127986020860182612603565b50604083015184820360408601526127b082826126f8565b915050606083015184820360608601526127ca828261269e565b91505060808301516127df608086018261258c565b508091505092915050565b60006020820190508181036000830152612804818461276d565b905092915050565b6000806000806000806000806000806101008b8d0312156128305761282f6120bc565b5b600061283e8d828e01612121565b9a5050602061284f8d828e016122d7565b99505060408b013567ffffffffffffffff8111156128705761286f6120c1565b5b61287c8d828e01612311565b9850985050606061288f8d828e016122fc565b96505060808b013567ffffffffffffffff8111156128b0576128af6120c1565b5b6128bc8d828e01612367565b955095505060a06128cf8d828e016122d7565b93505060c06128e08d828e016122d7565b92505060e08b013567ffffffffffffffff811115612901576129006120c1565b5b61290d8d828e0161215a565b9150509295989b9194979a5092959850565b600060208284031215612935576129346120bc565b5b6000612943848285016122d7565b91505092915050565b600067ffffffffffffffff82169050919050565b6129698161294c565b811461297457600080fd5b50565b60008135905061298681612960565b92915050565b6000819050919050565b61299f8161298c565b81146129aa57600080fd5b50565b6000813590506129bc81612996565b92915050565b6000806000806000608086880312156129de576129dd6120bc565b5b60006129ec888289016122d7565b955050602086013567ffffffffffffffff811115612a0d57612a0c6120c1565b5b612a1988828901612213565b94509450506040612a2c88828901612977565b9250506060612a3d888289016129ad565b9150509295509295909350565b612a53816120e6565b82525050565b6000602082019050612a6e6000830184612a4a565b92915050565b600080600060608486031215612a8d57612a8c6120bc565b5b6000612a9b86828701612537565b9350506020612aac868287016122d7565b925050604084013567ffffffffffffffff811115612acd57612acc6120c1565b5b612ad98682870161215a565b9150509250925092565b612aec816122b6565b82525050565b612afb816125f1565b82525050565b600082825260208201905092915050565b6000612b1d8261263e565b612b278185612b01565b9350612b3781856020860161265a565b612b408161268d565b840191505092915050565b6000608082019050612b606000830187612ae3565b612b6d6020830186612af2565b8181036040830152612b7f8185612b12565b9050612b8e6060830184612ae3565b95945050505050565b600081519050919050565b600082825260208201905092915050565b6000612bbe82612b97565b612bc88185612ba2565b9350612bd881856020860161265a565b612be18161268d565b840191505092915050565b60006020820190508181036000830152612c068184612bb3565b905092915050565b600080600080600060808688031215612c2a57612c296120bc565b5b6000612c3888828901612121565b955050602086013567ffffffffffffffff811115612c5957612c586120c1565b5b612c658882890161213b565b945050604086013567ffffffffffffffff811115612c8657612c856120c1565b5b612c9288828901612213565b9350935050606086013567ffffffffffffffff811115612cb557612cb46120c1565b5b612cc18882890161215a565b9150509295509295909350565b600060208284031215612ce457612ce36120bc565b5b6000612cf284828501612537565b91505092915050565b7f50726f6f6620766572696669636174696f6e206661696c656400000000000000600082015250565b6000612d31601983612b01565b9150612d3c82612cfb565b602082019050919050565b60006020820190508181036000830152612d6081612d24565b9050919050565b600080fd5b600080fd5b600080fd5b600082356001604003833603038112612d9257612d91612d67565b5b80830191505092915050565b60008083356001602003843603038112612dbb57612dba612d67565b5b80840192508235915067ffffffffffffffff821115612ddd57612ddc612d6c565b5b602083019250600182023603831315612df957612df8612d71565b5b509250929050565b60008083356001602003843603038112612e1e57612e1d612d67565b5b80840192508235915067ffffffffffffffff821115612e4057612e3f612d6c565b5b602083019250600182023603831315612e5c57612e5b612d71565b5b509250929050565b600060208284031215612e7a57612e796120bc565b5b6000612e8884828501612977565b91505092915050565b82818337600083830152505050565b6000612eac8385612b01565b9350612eb9838584612e91565b612ec28361268d565b840190509392505050565b6000612ed98385612ba2565b9350612ee6838584612e91565b612eef8361268d565b840190509392505050565b612f038161294c565b82525050565b60006080820190508181036000830152612f2481898b612ea0565b90508181036020830152612f39818789612ea0565b90508181036040830152612f4e818587612ecd565b9050612f5d6060830184612efa565b98975050505050505050565b7f436c69656e74206e6f7420637265617465640000000000000000000000000000600082015250565b6000612f9f601283612b01565b9150612faa82612f69565b602082019050919050565b60006020820190508181036000830152612fce81612f92565b9050919050565b7f4e487b7100000000000000000000000000000000000000000000000000000000600052602260045260246000fd5b6000600282049050600182168061301c57607f821691505b602082108114156130305761302f612fd5565b5b50919050565b60008190508160005260206000209050919050565b6000815461305881613004565b6130628186612ba2565b9450600182166000811461307d576001811461308f576130c2565b60ff19831686526020860193506130c2565b61309885613036565b60005b838110156130ba5781548189015260018201915060208101905061309b565b808801955050505b50505092915050565b600060408201905081810360008301526130e5818661304b565b905081810360208301526130fa818486612ecd565b9050949350505050565b60008115159050919050565b61311981613104565b811461312457600080fd5b50565b60008151905061313681613110565b92915050565b600060208284031215613152576131516120bc565b5b600061316084828501613127565b91505092915050565b7f436f6e73656e73757320737461746520766572696669636174696f6e2066616960008201527f6c65640000000000000000000000000000000000000000000000000000000000602082015250565b60006131c5602383612b01565b91506131d082613169565b604082019050919050565b600060208201905081810360008301526131f4816131b8565b9050919050565b600082825260208201905092915050565b6000819050919050565b60006132228385612649565b935061322f838584612e91565b6132388361268d565b840190509392505050565b6000613250848484613216565b90509392505050565b600080fd5b600080fd5b600080fd5b6000808335600160200384360303811261328557613284613263565b5b83810192508235915060208301925067ffffffffffffffff8211156132ad576132ac613259565b5b6001820236038413156132c3576132c261325e565b5b509250929050565b6000602082019050919050565b60006132e483856131fb565b9350836020840285016132f68461320c565b8060005b8781101561333c5784840389526133118284613268565b61331c868284613243565b9550613327846132cb565b935060208b019a5050506001810190506132fa565b50829750879450505050509392505050565b600060c082019050613363600083018b612ae3565b613370602083018a612af2565b818103604083015261338381888a6132d8565b90506133926060830187612ae3565b81810360808301526133a5818587612ea0565b90506133b460a0830184612ae3565b9998505050505050505050565b6000815190506133d0816122c0565b92915050565b6000602082840312156133ec576133eb6120bc565b5b60006133fa848285016133c1565b91505092915050565b600060a082019050613418600083018a612ae3565b6134256020830189612af2565b81810360408301526134388187896132d8565b9050818103606083015261344d818587612ea0565b905061345c6080830184612ae3565b98975050505050505050565b7f436c69656e7420616c7265616479206372656174656400000000000000000000600082015250565b600061349e601683612b01565b91506134a982613468565b602082019050919050565b600060208201905081810360008301526134cd81613491565b9050919050565b60006134e36020840184612977565b905092915050565b6134f48161294c565b82525050565b6000808335600160200384360303811261351757613516613263565b5b83810192508235915060208301925067ffffffffffffffff82111561353f5761353e613259565b5b6001820236038413156135555761355461325e565b5b509250929050565b600082825260208201905092915050565b600061357a838561355d565b9350613587838584612e91565b6135908361268d565b840190509392505050565b6000604083016135ae60008401846134d4565b6135bb60008601826134eb565b506135c960208401846134fa565b85830360208701526135dc83828461356e565b925050508091505092915050565b7f6368616e6e656c2f706174682f746f2f62652f61646465642f68657265000000600082015250565b6000613620601d83612ba2565b915061362b826135ea565b602082019050919050565b60006080820190508181036000830152613650818661304b565b90508181036020830152613664818561359b565b9050818103604083015261367781613613565b9050818103606083015261368b8184612bb3565b9050949350505050565b7f4661696c20746f2070726f7665206368616e6e656c2073746174650000000000600082015250565b60006136cb601b83612b01565b91506136d682613695565b602082019050919050565b600060208201905081810360008301526136fa816136be565b9050919050565b60006060820190506137166000830186612ae3565b6137236020830185612ae3565b6137306040830184612ae3565b949350505050565b7f4e487b7100000000000000000000000000000000000000000000000000000000600052604160045260246000fd5b6137708261268d565b810181811067ffffffffffffffff8211171561378f5761378e613738565b5b80604052505050565b60006137a26120b2565b90506137ae8282613767565b919050565b600067ffffffffffffffff8211156137ce576137cd613738565b5b602082029050602081019050919050565b600080fd5b600067ffffffffffffffff8211156137ff576137fe613738565b5b6138088261268d565b9050602081019050919050565b6000613828613823846137e4565b613798565b905082815260208101848484011115613844576138436137df565b5b61384f848285612e91565b509392505050565b600082601f83011261386c5761386b612204565b5b813561387c848260208601613815565b91505092915050565b6000613898613893846137b3565b613798565b905080838252602082019050602084028301858111156138bb576138ba61220e565b5b835b8181101561390257803567ffffffffffffffff8111156138e0576138df612204565b5b8086016138ed8982613857565b855260208501945050506020810190506138bd565b5050509392505050565b6000613919368484613885565b905092915050565b6000604082019050818103600083015261393c818688612ea0565b905081810360208301526139518184866132d8565b905095945050505050565b60008235600160400383360303811261397857613977613263565b5b82810191505092915050565b600061399360208401846122d7565b905092915050565b6000604083016139ae6000840184613268565b85830360008701526139c1838284613216565b925050506139d26020840184613984565b6139df602086018261258c565b508091505092915050565b600082905092915050565b60408201613a0660008301836134d4565b613a1360008501826134eb565b50613a2160208301836134d4565b613a2e60208501826134eb565b50505050565b600060c08301613a47600084018461395c565b8482036000860152613a59828261399b565b915050613a69602084018461395c565b8482036020860152613a7b828261399b565b915050613a8b60408401846134d4565b613a9860408601826134eb565b50613aa660608401846134fa565b8583036060870152613ab983828461356e565b92505050613aca60808401846139ea565b613ad760808601826139f5565b508091505092915050565b60006020820190508181036000830152613afc8184613a34565b905092915050565b7f4368616e6e656c206e6f74206f776e6564206279206d73672e73656e64657200600082015250565b6000613b3a601f83612b01565b9150613b4582613b04565b602082019050919050565b60006020820190508181036000830152613b6981613b2d565b9050919050565b6000606082019050613b856000830186612ae3565b8181036020830152613b978185612b12565b9050613ba66040830184612ae3565b949350505050565b7f4368616e6e656c206e6f74206f776e65642062792073656e6465720000000000600082015250565b6000613be4601b83612b01565b9150613bef82613bae565b602082019050919050565b60006020820190508181036000830152613c1381613bd7565b9050919050565b600081905092915050565b50565b6000613c35600083613c1a565b9150613c4082613c25565b600082019050919050565b6000613c5682613c28565b9150819050919050565b7f4661696c656420746f20657363726f77207061636b6574206665650000000000600082015250565b6000613c96601b83612b01565b9150613ca182613c60565b602082019050919050565b60006020820190508181036000830152613cc581613c89565b9050919050565b7f4e487b7100000000000000000000000000000000000000000000000000000000600052601160045260246000fd5b6000613d068261294c565b9150613d118361294c565b92508267ffffffffffffffff03821115613d2e57613d2d613ccc565b5b828201905092915050565b613d428161298c565b82525050565b60006080820190508181036000830152613d63818789612ecd565b9050613d726020830186612efa565b613d7f6040830185612efa565b613d8c6060830184613d39565b9695505050505050565b7f4368616e6e656c206e6f74206f776e656420627920706f727441646472657373600082015250565b6000613dcc602083612b01565b9150613dd782613d96565b602082019050919050565b60006020820190508181036000830152613dfb81613dbf565b9050919050565b7f4f776e61626c653a206e6577206f776e657220697320746865207a65726f206160008201527f6464726573730000000000000000000000000000000000000000000000000000602082015250565b6000613e5e602683612b01565b9150613e6982613e02565b604082019050919050565b60006020820190508181036000830152613e8d81613e51565b9050919050565b7f4f776e61626c653a2063616c6c6572206973206e6f7420746865206f776e6572600082015250565b6000613eca602083612b01565b9150613ed582613e94565b602082019050919050565b60006020820190508181036000830152613ef981613ebd565b905091905056fe6578706563746564206368616e6e656c20627974657320636f6e73747275637465642066726f6d20706172616d732e204368616e6e656c2e5374617465203d207b41636b5f50656e64696e672c20436f6e6669726d5f50656e64696e677d6578706563746564206368616e6e656c20627974657320636f6e73747275637465642066726f6d20706172616d732e204368616e6e656c2e5374617465203d207b436c6f736564285f50656e64696e673f297da26469706673582212208232b74b851daef2ac06abd28ebe8af1aac18e28baff34f402fb826edafb556764736f6c63430008090033",
  "linkReferences": {},
  "deployedLinkReferences": {}
}