{
  "_format": "hh-sol-artifact-1",
  "contractName": "Dispatcher",
  "sourceName": "contracts/Dispatcher.sol",
  "abi": [
    {
      "inputs": [
        {
          "internalType": "contract ZKMintVerifier",
          "name": "_verifier",
          "type": "address"
        },
        {
          "internalType": "address payable",
          "name": "_escrow",
          "type": "address"
        }
      ],
      "stateMutability": "nonpayable",
      "type": "constructor"
    },
    {
      "anonymous": false,
      "inputs": [
        {
          "indexed": true,
          "internalType": "address",
          "name": "sourcePortAddress",
          "type": "address"
        },
        {
          "indexed": true,
          "internalType": "bytes32",
          "name": "sourceChannelId",
          "type": "bytes32"
        },
        {
          "components": [
            {
              "internalType": "bool",
              "name": "success",
              "type": "bool"
            },
            {
              "internalType": "bytes",
              "name": "data",
              "type": "bytes"
            }
          ],
          "indexed": false,
          "internalType": "struct AckPacket",
          "name": "AckPacket",
          "type": "tuple"
        },
        {
          "indexed": false,
          "internalType": "uint64",
          "name": "sequence",
          "type": "uint64"
        }
      ],
      "name": "Acknowledgement",
      "type": "event"
    },
    {
      "anonymous": false,
      "inputs": [
        {
          "indexed": true,
          "internalType": "address",
          "name": "portAddress",
          "type": "address"
        },
        {
          "indexed": true,
          "internalType": "bytes32",
          "name": "channelId",
          "type": "bytes32"
        }
      ],
      "name": "CloseIbcChannel",
      "type": "event"
    },
    {
      "anonymous": false,
      "inputs": [
        {
          "indexed": true,
          "internalType": "address",
          "name": "portAddress",
          "type": "address"
        },
        {
          "indexed": true,
          "internalType": "bytes32",
          "name": "channelId",
          "type": "bytes32"
        },
        {
          "indexed": false,
          "internalType": "string",
          "name": "counterpartyPortId",
          "type": "string"
        },
        {
          "indexed": true,
          "internalType": "bytes32",
          "name": "counterpartyChannelId",
          "type": "bytes32"
        },
        {
          "indexed": false,
          "internalType": "string[]",
          "name": "connectionHops",
          "type": "string[]"
        }
      ],
      "name": "ConnectIbcChannel",
      "type": "event"
    },
    {
      "anonymous": false,
      "inputs": [
        {
          "indexed": true,
          "internalType": "bytes32",
          "name": "srcChannelId",
          "type": "bytes32"
        },
        {
          "indexed": false,
          "internalType": "string",
          "name": "srcPortId",
          "type": "string"
        },
        {
          "indexed": true,
          "internalType": "bytes32",
          "name": "destChannelId",
          "type": "bytes32"
        },
        {
          "indexed": false,
          "internalType": "string",
          "name": "destPortId",
          "type": "string"
        },
        {
          "indexed": false,
          "internalType": "bytes",
          "name": "data",
          "type": "bytes"
        },
        {
          "indexed": false,
          "internalType": "uint64",
          "name": "sequence",
          "type": "uint64"
        }
      ],
      "name": "OnRecvPacket",
      "type": "event"
    },
    {
      "anonymous": false,
      "inputs": [
        {
          "indexed": true,
          "internalType": "address",
          "name": "portAddress",
          "type": "address"
        },
        {
          "indexed": true,
          "internalType": "bytes32",
          "name": "counterpartyChannelId",
          "type": "bytes32"
        },
        {
          "indexed": false,
          "internalType": "bytes32",
          "name": "version",
          "type": "bytes32"
        },
        {
          "indexed": false,
          "internalType": "enum ChannelOrder",
          "name": "ordering",
          "type": "uint8"
        },
        {
          "indexed": false,
          "internalType": "string[]",
          "name": "connectionHops",
          "type": "string[]"
        },
        {
          "indexed": false,
          "internalType": "string",
          "name": "counterpartyPortId",
          "type": "string"
        },
        {
          "indexed": false,
          "internalType": "bytes32",
          "name": "counterpartyVersion",
          "type": "bytes32"
        }
      ],
      "name": "OpenIbcChannel",
      "type": "event"
    },
    {
      "anonymous": false,
      "inputs": [
        {
          "indexed": true,
          "internalType": "address",
          "name": "previousOwner",
          "type": "address"
        },
        {
          "indexed": true,
          "internalType": "address",
          "name": "newOwner",
          "type": "address"
        }
      ],
      "name": "OwnershipTransferred",
      "type": "event"
    },
    {
      "anonymous": false,
      "inputs": [
        {
          "indexed": true,
          "internalType": "address",
          "name": "sourcePortAddress",
          "type": "address"
        },
        {
          "indexed": true,
          "internalType": "bytes32",
          "name": "sourceChannelId",
          "type": "bytes32"
        },
        {
          "indexed": false,
          "internalType": "bytes",
          "name": "packet",
          "type": "bytes"
        },
        {
          "indexed": false,
          "internalType": "uint64",
          "name": "sequence",
          "type": "uint64"
        },
        {
          "indexed": false,
          "internalType": "uint64",
          "name": "timeoutTimestamp",
          "type": "uint64"
        },
        {
          "indexed": false,
          "internalType": "uint256",
          "name": "fee",
          "type": "uint256"
        }
      ],
      "name": "SendPacket",
      "type": "event"
    },
    {
      "anonymous": false,
      "inputs": [
        {
          "indexed": true,
          "internalType": "address",
          "name": "sourcePortAddress",
          "type": "address"
        },
        {
          "indexed": true,
          "internalType": "bytes32",
          "name": "sourceChannelId",
          "type": "bytes32"
        },
        {
          "indexed": true,
          "internalType": "uint64",
          "name": "sequence",
          "type": "uint64"
        }
      ],
      "name": "Timeout",
      "type": "event"
    },
    {
      "inputs": [
        {
          "internalType": "contract IbcReceiver",
          "name": "receiver",
          "type": "address"
        },
        {
          "components": [
            {
              "components": [
                {
                  "internalType": "string",
                  "name": "portId",
                  "type": "string"
                },
                {
                  "internalType": "bytes32",
                  "name": "channelId",
                  "type": "bytes32"
                }
              ],
              "internalType": "struct IbcEndpoint",
              "name": "src",
              "type": "tuple"
            },
            {
              "components": [
                {
                  "internalType": "string",
                  "name": "portId",
                  "type": "string"
                },
                {
                  "internalType": "bytes32",
                  "name": "channelId",
                  "type": "bytes32"
                }
              ],
              "internalType": "struct IbcEndpoint",
              "name": "dest",
              "type": "tuple"
            },
            {
              "internalType": "uint64",
              "name": "sequence",
              "type": "uint64"
            },
            {
              "internalType": "bytes",
              "name": "data",
              "type": "bytes"
            },
            {
              "components": [
                {
                  "internalType": "uint64",
                  "name": "block",
                  "type": "uint64"
                },
                {
                  "internalType": "uint64",
                  "name": "timestamp",
                  "type": "uint64"
                }
              ],
              "internalType": "struct IbcTimeout",
              "name": "timeout",
              "type": "tuple"
            }
          ],
          "internalType": "struct IbcPacket",
          "name": "packet",
          "type": "tuple"
        },
        {
          "components": [
            {
              "internalType": "bool",
              "name": "success",
              "type": "bool"
            },
            {
              "internalType": "bytes",
              "name": "data",
              "type": "bytes"
            }
          ],
          "internalType": "struct AckPacket",
          "name": "ackPacket",
          "type": "tuple"
        },
        {
          "components": [
            {
              "internalType": "uint64",
              "name": "proofHeight",
              "type": "uint64"
            },
            {
              "internalType": "bytes",
              "name": "proof",
              "type": "bytes"
            }
          ],
          "internalType": "struct Proof",
          "name": "proof",
          "type": "tuple"
        }
      ],
      "name": "acknowledgement",
      "outputs": [],
      "stateMutability": "nonpayable",
      "type": "function"
    },
    {
      "inputs": [
        {
          "internalType": "bytes32",
          "name": "channelId",
          "type": "bytes32"
        }
      ],
      "name": "closeIbcChannel",
      "outputs": [],
      "stateMutability": "nonpayable",
      "type": "function"
    },
    {
      "inputs": [
        {
          "internalType": "contract IbcReceiver",
          "name": "portAddress",
          "type": "address"
        },
        {
          "internalType": "bytes32",
          "name": "channelId",
          "type": "bytes32"
        },
        {
          "internalType": "string[]",
          "name": "connectionHops",
          "type": "string[]"
        },
        {
          "internalType": "enum ChannelOrder",
          "name": "ordering",
          "type": "uint8"
        },
        {
          "internalType": "string",
          "name": "counterpartyPortId",
          "type": "string"
        },
        {
          "internalType": "bytes32",
          "name": "counterpartyChannelId",
          "type": "bytes32"
        },
        {
          "internalType": "bytes32",
          "name": "counterpartyVersion",
          "type": "bytes32"
        },
        {
          "components": [
            {
              "internalType": "uint64",
              "name": "proofHeight",
              "type": "uint64"
            },
            {
              "internalType": "bytes",
              "name": "proof",
              "type": "bytes"
            }
          ],
          "internalType": "struct Proof",
          "name": "proof",
          "type": "tuple"
        }
      ],
      "name": "connectIbcChannel",
      "outputs": [],
      "stateMutability": "nonpayable",
      "type": "function"
    },
    {
      "inputs": [
        {
          "components": [
            {
              "internalType": "bytes",
              "name": "clientState",
              "type": "bytes"
            },
            {
              "internalType": "bytes",
              "name": "consensusState",
              "type": "bytes"
            }
          ],
          "internalType": "struct InitClientMsg",
          "name": "initClientMsg",
          "type": "tuple"
        }
      ],
      "name": "createClient",
      "outputs": [],
      "stateMutability": "nonpayable",
      "type": "function"
    },
    {
      "inputs": [
        {
          "internalType": "address",
          "name": "portAddress",
          "type": "address"
        },
        {
          "internalType": "bytes32",
          "name": "channelId",
          "type": "bytes32"
        }
      ],
      "name": "getChannel",
      "outputs": [
        {
          "components": [
            {
              "internalType": "bytes32",
              "name": "version",
              "type": "bytes32"
            },
            {
              "internalType": "enum ChannelOrder",
              "name": "ordering",
              "type": "uint8"
            },
            {
              "internalType": "string[]",
              "name": "connectionHops",
              "type": "string[]"
            },
            {
              "internalType": "string",
              "name": "counterpartyPortId",
              "type": "string"
            },
            {
              "internalType": "bytes32",
              "name": "counterpartyChannelId",
              "type": "bytes32"
            }
          ],
          "internalType": "struct Channel",
          "name": "",
          "type": "tuple"
        }
      ],
      "stateMutability": "view",
      "type": "function"
    },
    {
      "inputs": [
        {
          "internalType": "string",
          "name": "hexStr",
          "type": "string"
        }
      ],
      "name": "hexStrToAddress",
      "outputs": [
        {
          "internalType": "address",
          "name": "",
          "type": "address"
        }
      ],
      "stateMutability": "pure",
      "type": "function"
    },
    {
      "inputs": [],
      "name": "latestConsensusState",
      "outputs": [
        {
          "internalType": "bytes",
          "name": "",
          "type": "bytes"
        }
      ],
      "stateMutability": "view",
      "type": "function"
    },
    {
      "inputs": [
        {
          "internalType": "address",
          "name": "portAddress",
          "type": "address"
        },
        {
          "internalType": "bytes32",
          "name": "channelId",
          "type": "bytes32"
        },
        {
          "components": [
            {
              "internalType": "uint64",
              "name": "proofHeight",
              "type": "uint64"
            },
            {
              "internalType": "bytes",
              "name": "proof",
              "type": "bytes"
            }
          ],
          "internalType": "struct Proof",
          "name": "proof",
          "type": "tuple"
        }
      ],
      "name": "onCloseIbcChannel",
      "outputs": [],
      "stateMutability": "nonpayable",
      "type": "function"
    },
    {
      "inputs": [
        {
          "internalType": "contract IbcReceiver",
          "name": "receiver",
          "type": "address"
        },
        {
          "components": [
            {
              "components": [
                {
                  "internalType": "string",
                  "name": "portId",
                  "type": "string"
                },
                {
                  "internalType": "bytes32",
                  "name": "channelId",
                  "type": "bytes32"
                }
              ],
              "internalType": "struct IbcEndpoint",
              "name": "src",
              "type": "tuple"
            },
            {
              "components": [
                {
                  "internalType": "string",
                  "name": "portId",
                  "type": "string"
                },
                {
                  "internalType": "bytes32",
                  "name": "channelId",
                  "type": "bytes32"
                }
              ],
              "internalType": "struct IbcEndpoint",
              "name": "dest",
              "type": "tuple"
            },
            {
              "internalType": "uint64",
              "name": "sequence",
              "type": "uint64"
            },
            {
              "internalType": "bytes",
              "name": "data",
              "type": "bytes"
            },
            {
              "components": [
                {
                  "internalType": "uint64",
                  "name": "block",
                  "type": "uint64"
                },
                {
                  "internalType": "uint64",
                  "name": "timestamp",
                  "type": "uint64"
                }
              ],
              "internalType": "struct IbcTimeout",
              "name": "timeout",
              "type": "tuple"
            }
          ],
          "internalType": "struct IbcPacket",
          "name": "packet",
          "type": "tuple"
        },
        {
          "components": [
            {
              "internalType": "uint64",
              "name": "proofHeight",
              "type": "uint64"
            },
            {
              "internalType": "bytes",
              "name": "proof",
              "type": "bytes"
            }
          ],
          "internalType": "struct Proof",
          "name": "proof",
          "type": "tuple"
        }
      ],
      "name": "onRecvPacket",
      "outputs": [],
      "stateMutability": "nonpayable",
      "type": "function"
    },
    {
      "inputs": [
        {
          "internalType": "contract IbcReceiver",
          "name": "portAddress",
          "type": "address"
        },
        {
          "internalType": "bytes32",
          "name": "version",
          "type": "bytes32"
        },
        {
          "internalType": "enum ChannelOrder",
          "name": "ordering",
          "type": "uint8"
        },
        {
          "internalType": "string[]",
          "name": "connectionHops",
          "type": "string[]"
        },
        {
          "internalType": "bytes32",
          "name": "counterpartyChannelId",
          "type": "bytes32"
        },
        {
          "internalType": "string",
          "name": "counterpartyPortId",
          "type": "string"
        },
        {
          "internalType": "bytes32",
          "name": "counterpartyVersion",
          "type": "bytes32"
        }
      ],
      "name": "openIbcChannel",
      "outputs": [],
      "stateMutability": "nonpayable",
      "type": "function"
    },
    {
      "inputs": [],
      "name": "owner",
      "outputs": [
        {
          "internalType": "address",
          "name": "",
          "type": "address"
        }
      ],
      "stateMutability": "view",
      "type": "function"
    },
    {
      "inputs": [
        {
          "internalType": "address",
          "name": "",
          "type": "address"
        },
        {
          "internalType": "bytes32",
          "name": "",
          "type": "bytes32"
        }
      ],
      "name": "portChannelMap",
      "outputs": [
        {
          "internalType": "bytes32",
          "name": "version",
          "type": "bytes32"
        },
        {
          "internalType": "enum ChannelOrder",
          "name": "ordering",
          "type": "uint8"
        },
        {
          "internalType": "string",
          "name": "counterpartyPortId",
          "type": "string"
        },
        {
          "internalType": "bytes32",
          "name": "counterpartyChannelId",
          "type": "bytes32"
        }
      ],
      "stateMutability": "view",
      "type": "function"
    },
    {
      "inputs": [
        {
          "internalType": "address",
          "name": "addr",
          "type": "address"
        },
        {
          "internalType": "string",
          "name": "portId",
          "type": "string"
        }
      ],
      "name": "portIdAddressMatch",
      "outputs": [
        {
          "internalType": "bool",
          "name": "",
          "type": "bool"
        }
      ],
      "stateMutability": "view",
      "type": "function"
    },
    {
      "inputs": [],
      "name": "renounceOwnership",
      "outputs": [],
      "stateMutability": "nonpayable",
      "type": "function"
    },
    {
      "inputs": [
        {
          "internalType": "bytes32",
          "name": "channelId",
          "type": "bytes32"
        },
        {
          "internalType": "bytes",
          "name": "packet",
          "type": "bytes"
        },
        {
          "internalType": "uint64",
          "name": "timeoutTimestamp",
          "type": "uint64"
        },
        {
          "internalType": "uint256",
          "name": "fee",
          "type": "uint256"
        }
      ],
      "name": "sendPacket",
      "outputs": [],
      "stateMutability": "payable",
      "type": "function"
    },
    {
      "inputs": [
        {
          "internalType": "contract IbcReceiver",
          "name": "receiver",
          "type": "address"
        },
        {
          "components": [
            {
              "components": [
                {
                  "internalType": "string",
                  "name": "portId",
                  "type": "string"
                },
                {
                  "internalType": "bytes32",
                  "name": "channelId",
                  "type": "bytes32"
                }
              ],
              "internalType": "struct IbcEndpoint",
              "name": "src",
              "type": "tuple"
            },
            {
              "components": [
                {
                  "internalType": "string",
                  "name": "portId",
                  "type": "string"
                },
                {
                  "internalType": "bytes32",
                  "name": "channelId",
                  "type": "bytes32"
                }
              ],
              "internalType": "struct IbcEndpoint",
              "name": "dest",
              "type": "tuple"
            },
            {
              "internalType": "uint64",
              "name": "sequence",
              "type": "uint64"
            },
            {
              "internalType": "bytes",
              "name": "data",
              "type": "bytes"
            },
            {
              "components": [
                {
                  "internalType": "uint64",
                  "name": "block",
                  "type": "uint64"
                },
                {
                  "internalType": "uint64",
                  "name": "timestamp",
                  "type": "uint64"
                }
              ],
              "internalType": "struct IbcTimeout",
              "name": "timeout",
              "type": "tuple"
            }
          ],
          "internalType": "struct IbcPacket",
          "name": "packet",
          "type": "tuple"
        },
        {
          "components": [
            {
              "internalType": "uint64",
              "name": "proofHeight",
              "type": "uint64"
            },
            {
              "internalType": "bytes",
              "name": "proof",
              "type": "bytes"
            }
          ],
          "internalType": "struct Proof",
          "name": "proof",
          "type": "tuple"
        }
      ],
      "name": "timeout",
      "outputs": [],
      "stateMutability": "nonpayable",
      "type": "function"
    },
    {
      "inputs": [
        {
          "internalType": "address",
          "name": "newOwner",
          "type": "address"
        }
      ],
      "name": "transferOwnership",
      "outputs": [],
      "stateMutability": "nonpayable",
      "type": "function"
    },
    {
      "inputs": [
        {
          "components": [
            {
              "internalType": "bytes",
              "name": "consensusState",
              "type": "bytes"
            },
            {
              "internalType": "uint64",
              "name": "height",
              "type": "uint64"
            },
            {
              "internalType": "bytes",
              "name": "zkProof",
              "type": "bytes"
            }
          ],
          "internalType": "struct UpdateClientMsg",
          "name": "updateClientMsg",
          "type": "tuple"
        }
      ],
      "name": "updateClient",
      "outputs": [],
      "stateMutability": "nonpayable",
      "type": "function"
    },
    {
      "inputs": [
        {
          "components": [
            {
              "internalType": "bytes",
              "name": "clientState",
              "type": "bytes"
            },
            {
              "internalType": "bytes",
              "name": "consensusState",
              "type": "bytes"
            }
          ],
          "internalType": "struct UpgradeClientMsg",
          "name": "upgradeClientMsg",
          "type": "tuple"
        }
      ],
      "name": "upgradeClient",
      "outputs": [],
      "stateMutability": "nonpayable",
      "type": "function"
    }
  ],
  "bytecode": "0x60806040526000600260146101000a81548160ff0219169083151502179055506040518060400160405280600c81526020017f6574682e706f6c796962632e0000000000000000000000000000000000000000815250600490805190602001906200006c929190620002d5565b50600c600560006101000a81548167ffffffffffffffff021916908367ffffffffffffffff160217905550348015620000a457600080fd5b50604051620058b3380380620058b38339818101604052810190620000ca919062000448565b620000ea620000de6200020960201b60201c565b6200021160201b60201c565b81600160006101000a81548173ffffffffffffffffffffffffffffffffffffffff021916908373ffffffffffffffffffffffffffffffffffffffff16021790555080600260006101000a81548173ffffffffffffffffffffffffffffffffffffffff021916908373ffffffffffffffffffffffffffffffffffffffff160217905550600073ffffffffffffffffffffffffffffffffffffffff16600260009054906101000a900473ffffffffffffffffffffffffffffffffffffffff1673ffffffffffffffffffffffffffffffffffffffff16141562000201576040517f08c379a0000000000000000000000000000000000000000000000000000000008152600401620001f890620004f0565b60405180910390fd5b505062000577565b600033905090565b60008060009054906101000a900473ffffffffffffffffffffffffffffffffffffffff169050816000806101000a81548173ffffffffffffffffffffffffffffffffffffffff021916908373ffffffffffffffffffffffffffffffffffffffff1602179055508173ffffffffffffffffffffffffffffffffffffffff168173ffffffffffffffffffffffffffffffffffffffff167f8be0079c531659141344cd1fd0a4f28419497f9722a3daafe3b4186f6b6457e060405160405180910390a35050565b828054620002e39062000541565b90600052602060002090601f01602090048101928262000307576000855562000353565b82601f106200032257805160ff191683800117855562000353565b8280016001018555821562000353579182015b828111156200035257825182559160200191906001019062000335565b5b50905062000362919062000366565b5090565b5b808211156200038157600081600090555060010162000367565b5090565b600080fd5b600073ffffffffffffffffffffffffffffffffffffffff82169050919050565b6000620003b7826200038a565b9050919050565b6000620003cb82620003aa565b9050919050565b620003dd81620003be565b8114620003e957600080fd5b50565b600081519050620003fd81620003d2565b92915050565b600062000410826200038a565b9050919050565b620004228162000403565b81146200042e57600080fd5b50565b600081519050620004428162000417565b92915050565b6000806040838503121562000462576200046162000385565b5b60006200047285828601620003ec565b9250506020620004858582860162000431565b9150509250929050565b600082825260208201905092915050565b7f457363726f772063616e6e6f74206265207a65726f2061646472657373000000600082015250565b6000620004d8601d836200048f565b9150620004e582620004a0565b602082019050919050565b600060208201905081810360008301526200050b81620004c9565b9050919050565b7f4e487b7100000000000000000000000000000000000000000000000000000000600052602260045260246000fd5b600060028204905060018216806200055a57607f821691505b6020821081141562000571576200057062000512565b5b50919050565b61532c80620005876000396000f3fe6080604052600436106101145760003560e01c80638b24b4cb116100a0578063b2b1bf0311610064578063b2b1bf0314610362578063bba10517146103a2578063c2a2514d146103cb578063e36e013f146103f6578063f2fde38b1461043357610114565b80638b24b4cb1461028c5780638d3d5aa9146102b55780638da5cb5b146102d1578063951538f3146102fc578063a1ef9a981461032557610114565b80634c9778d3116100e75780634c9778d3146101d15780634efde434146101fa578063520b128e14610223578063678746491461024c578063715018a61461027557610114565b80630ad8d666146101195780631f456c1e1461014257806342852d241461016b578063487fca7e146101a8575b600080fd5b34801561012557600080fd5b50610140600480360381019061013b9190612c29565b61045c565b005b34801561014e57600080fd5b5061016960048036038101906101649190612dca565b61056e565b005b34801561017757600080fd5b50610192600480360381019061018d9190612ed8565b610672565b60405161019f9190613176565b60405180910390f35b3480156101b457600080fd5b506101cf60048036038101906101ca91906131b7565b610897565b005b3480156101dd57600080fd5b506101f860048036038101906101f39190613200565b61092d565b005b34801561020657600080fd5b50610221600480360381019061021c9190613332565b610c5f565b005b34801561022f57600080fd5b5061024a6004803603810190610245919061339a565b610cd9565b005b34801561025857600080fd5b50610273600480360381019061026e9190613474565b6110ab565b005b34801561028157600080fd5b5061028a61120a565b005b34801561029857600080fd5b506102b360048036038101906102ae91906134bd565b61121e565b005b6102cf60048036038101906102ca91906135b6565b611546565b005b3480156102dd57600080fd5b506102e6611a52565b6040516102f3919061364d565b60405180910390f35b34801561030857600080fd5b50610323600480360381019061031e9190613668565b611a7b565b005b34801561033157600080fd5b5061034c60048036038101906103479190613807565b611f43565b604051610359919061364d565b60405180910390f35b34801561036e57600080fd5b5061038960048036038101906103849190612ed8565b612127565b60405161039994939291906138b8565b60405180910390f35b3480156103ae57600080fd5b506103c960048036038101906103c49190612c29565b6121f9565b005b3480156103d757600080fd5b506103e06125c8565b6040516103ed9190613959565b60405180910390f35b34801561040257600080fd5b5061041d6004803603810190610418919061397b565b612656565b60405161042a91906139f6565b60405180910390f35b34801561043f57600080fd5b5061045a60048036038101906104559190613a11565b612711565b005b61046581612795565b6104a4576040517f08c379a000000000000000000000000000000000000000000000000000000000815260040161049b90613a8a565b60405180910390fd5b8180602001906104b49190613ab9565b602001358280600001906104c89190613ab9565b602001357f080631928e492258b6a102fc2ab3e0a8dfcb747ab0885c25f9cb7a8d486210368480600001906104fd9190613ab9565b806000019061050c9190613ae1565b86806020019061051c9190613ab9565b806000019061052b9190613ae1565b88806060019061053b9190613b44565b8a604001602081019061054e9190613ba7565b6040516105619796959493929190613c3d565b60405180910390a3505050565b60008973ffffffffffffffffffffffffffffffffffffffff1663486592198a8a8a8a8a8a8a8a6040518963ffffffff1660e01b81526004016105b7989796959493929190613df0565b602060405180830381600087803b1580156105d157600080fd5b505af11580156105e5573d6000803e3d6000fd5b505050506040513d601f19601f820116820180604052508101906106099190613e78565b9050848a73ffffffffffffffffffffffffffffffffffffffff167f9a93c124e7f0aa93d3fbe660b1366e0483b4267619924382261498efbb92c873838b8b8b8a8a8a60405161065e9796959493929190613ea5565b60405180910390a350505050505050505050565b61067a61290d565b600660008473ffffffffffffffffffffffffffffffffffffffff1673ffffffffffffffffffffffffffffffffffffffff16815260200190815260200160002060008381526020019081526020016000206040518060a0016040529081600082015481526020016001820160009054906101000a900460ff16600181111561070457610703612f27565b5b600181111561071657610715612f27565b5b815260200160028201805480602002602001604051908101604052809291908181526020016000905b828210156107eb57838290600052602060002001805461075e90613f39565b80601f016020809104026020016040519081016040528092919081815260200182805461078a90613f39565b80156107d75780601f106107ac576101008083540402835291602001916107d7565b820191906000526020600020905b8154815290600101906020018083116107ba57829003601f168201915b50505050508152602001906001019061073f565b50505050815260200160038201805461080390613f39565b80601f016020809104026020016040519081016040528092919081815260200182805461082f90613f39565b801561087c5780601f106108515761010080835404028352916020019161087c565b820191906000526020600020905b81548152906001019060200180831161085f57829003601f168201915b50505050508152602001600482015481525050905092915050565b61089f6127c3565b600260149054906101000a900460ff16156108ef576040517f08c379a00000000000000000000000000000000000000000000000000000000081526004016108e690613fb7565b60405180910390fd5b6001600260146101000a81548160ff02191690831515021790555080806020019061091a9190613b44565b60039190610929929190612954565b5050565b600160009054906101000a900473ffffffffffffffffffffffffffffffffffffffff1673ffffffffffffffffffffffffffffffffffffffff16639511059d6003836040518060800160405280605e8152602001615246605e91396040518463ffffffff1660e01b81526004016109a5939291906141ce565b60206040518083038186803b1580156109bd57600080fd5b505afa1580156109d1573d6000803e3d6000fd5b505050506040513d601f19601f820116820180604052508101906109f59190614259565b610a34576040517f08c379a0000000000000000000000000000000000000000000000000000000008152600401610a2b906142d2565b60405180910390fd5b8973ffffffffffffffffffffffffffffffffffffffff1663e60a72938a85856040518463ffffffff1660e01b8152600401610a71939291906142f2565b600060405180830381600087803b158015610a8b57600080fd5b505af1158015610a9f573d6000803e3d6000fd5b505050506040518060a00160405280838152602001876001811115610ac757610ac6612f27565b5b8152602001898990610ad991906143dc565b815260200186868080601f016020809104026020016040519081016040528093929190818152602001838380828437600081840152601f19601f82011690508083019250505050505050815260200184815250600660008c73ffffffffffffffffffffffffffffffffffffffff1673ffffffffffffffffffffffffffffffffffffffff16815260200190815260200160002060008b81526020019081526020016000206000820151816000015560208201518160010160006101000a81548160ff02191690836001811115610bb157610bb0612f27565b5b02179055506040820151816002019080519060200190610bd29291906129da565b506060820151816003019080519060200190610bef929190612a3a565b506080820151816004015590505082898b73ffffffffffffffffffffffffffffffffffffffff167f57ea540ad7b8bfd2813b8637764ba029fedc52de3f812934a46511506aa11b8e88888d8d604051610c4b94939291906143f1565b60405180910390a450505050505050505050565b610c676127c3565b600260149054906101000a900460ff16610cb6576040517f08c379a0000000000000000000000000000000000000000000000000000000008152600401610cad90614478565b60405180910390fd5b808060200190610cc69190613b44565b60039190610cd5929190612954565b5050565b610d0184848060000190610ced9190613ab9565b8060000190610cfc9190613ae1565b612656565b610d40576040517f08c379a0000000000000000000000000000000000000000000000000000000008152600401610d379061450a565b60405180910390fd5b600160009054906101000a900473ffffffffffffffffffffffffffffffffffffffff1673ffffffffffffffffffffffffffffffffffffffff16639511059d6003836040518363ffffffff1660e01b8152600401610d9e9291906145e8565b60206040518083038186803b158015610db657600080fd5b505afa158015610dca573d6000803e3d6000fd5b505050506040513d601f19601f82011682018060405250810190610dee9190614259565b610e2d576040517f08c379a0000000000000000000000000000000000000000000000000000000008152600401610e2490614691565b60405180910390fd5b6000600860008673ffffffffffffffffffffffffffffffffffffffff1673ffffffffffffffffffffffffffffffffffffffff1681526020019081526020016000206000858060000190610e809190613ab9565b6020013581526020019081526020016000206000856040016020810190610ea79190613ba7565b67ffffffffffffffff1667ffffffffffffffff16815260200190815260200160002060009054906101000a900460ff16905080610f19576040517f08c379a0000000000000000000000000000000000000000000000000000000008152600401610f10906146fd565b60405180910390fd5b8473ffffffffffffffffffffffffffffffffffffffff1663f45cf5e4856040518263ffffffff1660e01b8152600401610f5291906148a3565b600060405180830381600087803b158015610f6c57600080fd5b505af1158015610f80573d6000803e3d6000fd5b50505050600860008673ffffffffffffffffffffffffffffffffffffffff1673ffffffffffffffffffffffffffffffffffffffff1681526020019081526020016000206000858060000190610fd59190613ab9565b6020013581526020019081526020016000206000856040016020810190610ffc9190613ba7565b67ffffffffffffffff1667ffffffffffffffff16815260200190815260200160002060006101000a81549060ff021916905583806000019061103e9190613ab9565b602001358573ffffffffffffffffffffffffffffffffffffffff167fc4198f9e29f113c5464c20bc273a0861cf81d5fdef68c6a7cc9993d9437d1a0b8587604001602081019061108e9190613ba7565b60405161109c92919061494f565b60405180910390a35050505050565b600260149054906101000a900460ff166110fa576040517f08c379a00000000000000000000000000000000000000000000000000000000081526004016110f190614478565b60405180910390fd5b600160009054906101000a900473ffffffffffffffffffffffffffffffffffffffff1673ffffffffffffffffffffffffffffffffffffffff1663ab5eba266003836040518363ffffffff1660e01b81526004016111589291906149f2565b60206040518083038186803b15801561117057600080fd5b505afa158015611184573d6000803e3d6000fd5b505050506040513d601f19601f820116820180604052508101906111a89190614259565b6111e7576040517f08c379a00000000000000000000000000000000000000000000000000000000081526004016111de90614a9b565b60405180910390fd5b8080600001906111f79190613b44565b60039190611206929190612954565b5050565b6112126127c3565b61121c6000612841565b565b6000600660003373ffffffffffffffffffffffffffffffffffffffff1673ffffffffffffffffffffffffffffffffffffffff16815260200190815260200160002060008381526020019081526020016000206040518060a0016040529081600082015481526020016001820160009054906101000a900460ff1660018111156112aa576112a9612f27565b5b60018111156112bc576112bb612f27565b5b815260200160028201805480602002602001604051908101604052809291908181526020016000905b8282101561139157838290600052602060002001805461130490613f39565b80601f016020809104026020016040519081016040528092919081815260200182805461133090613f39565b801561137d5780601f106113525761010080835404028352916020019161137d565b820191906000526020600020905b81548152906001019060200180831161136057829003601f168201915b5050505050815260200190600101906112e5565b5050505081526020016003820180546113a990613f39565b80601f01602080910402602001604051908101604052809291908181526020018280546113d590613f39565b80156114225780601f106113f757610100808354040283529160200191611422565b820191906000526020600020905b81548152906001019060200180831161140557829003601f168201915b5050505050815260200160048201548152505090506000801b81608001511415611481576040517f08c379a000000000000000000000000000000000000000000000000000000000815260040161147890614b07565b60405180910390fd5b60003390508073ffffffffffffffffffffffffffffffffffffffff16635fe39e0d84846060015185608001516040518463ffffffff1660e01b81526004016114cb93929190614b27565b600060405180830381600087803b1580156114e557600080fd5b505af11580156114f9573d6000803e3d6000fd5b50505050823373ffffffffffffffffffffffffffffffffffffffff167fe893e4ba0e364cdc96364b1e1e0d53b0d91e5fd6aa0ee9d81a17ecd61178bf1760405160405180910390a3505050565b6000600660003373ffffffffffffffffffffffffffffffffffffffff1673ffffffffffffffffffffffffffffffffffffffff16815260200190815260200160002060008781526020019081526020016000206040518060a0016040529081600082015481526020016001820160009054906101000a900460ff1660018111156115d2576115d1612f27565b5b60018111156115e4576115e3612f27565b5b815260200160028201805480602002602001604051908101604052809291908181526020016000905b828210156116b957838290600052602060002001805461162c90613f39565b80601f016020809104026020016040519081016040528092919081815260200182805461165890613f39565b80156116a55780601f1061167a576101008083540402835291602001916116a5565b820191906000526020600020905b81548152906001019060200180831161168857829003601f168201915b50505050508152602001906001019061160d565b5050505081526020016003820180546116d190613f39565b80601f01602080910402602001604051908101604052809291908181526020018280546116fd90613f39565b801561174a5780601f1061171f5761010080835404028352916020019161174a565b820191906000526020600020905b81548152906001019060200180831161172d57829003601f168201915b5050505050815260200160048201548152505090506000801b816080015114156117a9576040517f08c379a00000000000000000000000000000000000000000000000000000000081526004016117a090614bb1565b60405180910390fd5b6000600260009054906101000a900473ffffffffffffffffffffffffffffffffffffffff1673ffffffffffffffffffffffffffffffffffffffff16836040516117f190614c02565b60006040518083038185875af1925050503d806000811461182e576040519150601f19603f3d011682016040523d82523d6000602084013e611833565b606091505b5050905080611877576040517f08c379a000000000000000000000000000000000000000000000000000000000815260040161186e90614c63565b60405180910390fd5b6000600760003373ffffffffffffffffffffffffffffffffffffffff1673ffffffffffffffffffffffffffffffffffffffff168152602001908152602001600020600089815260200190815260200160002060009054906101000a900467ffffffffffffffff1690506001816118ed9190614cb2565b600760003373ffffffffffffffffffffffffffffffffffffffff1673ffffffffffffffffffffffffffffffffffffffff16815260200190815260200160002060008a815260200190815260200160002060006101000a81548167ffffffffffffffff021916908367ffffffffffffffff1602179055506001600860003373ffffffffffffffffffffffffffffffffffffffff1673ffffffffffffffffffffffffffffffffffffffff16815260200190815260200160002060008a815260200190815260200160002060008367ffffffffffffffff1667ffffffffffffffff16815260200190815260200160002060006101000a81548160ff021916908315150217905550873373ffffffffffffffffffffffffffffffffffffffff167fc55a6c1340ca55a6b61de30037455a7f9f4a5b8ff106e4eaa0c23ea886fa03608989858a8a604051611a40959493929190614cff565b60405180910390a35050505050505050565b60008060009054906101000a900473ffffffffffffffffffffffffffffffffffffffff16905090565b600160009054906101000a900473ffffffffffffffffffffffffffffffffffffffff1673ffffffffffffffffffffffffffffffffffffffff16639511059d6003836040518060800160405280605381526020016152a4605391396040518463ffffffff1660e01b8152600401611af3939291906141ce565b60206040518083038186803b158015611b0b57600080fd5b505afa158015611b1f573d6000803e3d6000fd5b505050506040513d601f19601f82011682018060405250810190611b439190614259565b611b82576040517f08c379a0000000000000000000000000000000000000000000000000000000008152600401611b79906142d2565b60405180910390fd5b6000600660008573ffffffffffffffffffffffffffffffffffffffff1673ffffffffffffffffffffffffffffffffffffffff16815260200190815260200160002060008481526020019081526020016000206040518060a0016040529081600082015481526020016001820160009054906101000a900460ff166001811115611c0e57611c0d612f27565b5b6001811115611c2057611c1f612f27565b5b815260200160028201805480602002602001604051908101604052809291908181526020016000905b82821015611cf5578382906000526020600020018054611c6890613f39565b80601f0160208091040260200160405190810160405280929190818152602001828054611c9490613f39565b8015611ce15780601f10611cb657610100808354040283529160200191611ce1565b820191906000526020600020905b815481529060010190602001808311611cc457829003601f168201915b505050505081526020019060010190611c49565b505050508152602001600382018054611d0d90613f39565b80601f0160208091040260200160405190810160405280929190818152602001828054611d3990613f39565b8015611d865780601f10611d5b57610100808354040283529160200191611d86565b820191906000526020600020905b815481529060010190602001808311611d6957829003601f168201915b5050505050815260200160048201548152505090506000801b81608001511415611de5576040517f08c379a0000000000000000000000000000000000000000000000000000000008152600401611ddc90614d99565b60405180910390fd5b60008490508073ffffffffffffffffffffffffffffffffffffffff16635fe39e0d85846060015185608001516040518463ffffffff1660e01b8152600401611e2f93929190614b27565b600060405180830381600087803b158015611e4957600080fd5b505af1158015611e5d573d6000803e3d6000fd5b50505050600660008673ffffffffffffffffffffffffffffffffffffffff1673ffffffffffffffffffffffffffffffffffffffff16815260200190815260200160002060008581526020019081526020016000206000808201600090556001820160006101000a81549060ff0219169055600282016000611ede9190612ac0565b600382016000611eee9190612ae1565b60048201600090555050838573ffffffffffffffffffffffffffffffffffffffff167fe893e4ba0e364cdc96364b1e1e0d53b0d91e5fd6aa0ee9d81a17ecd61178bf1760405160405180910390a35050505050565b60006028825114611f89576040517f08c379a0000000000000000000000000000000000000000000000000000000008152600401611f8090614e05565b60405180910390fd5b60008290506000601467ffffffffffffffff811115611fab57611faa6136dc565b5b6040519080825280601f01601f191660200182016040528015611fdd5781602001600182028036833780820191505090505b50905060005b601481101561211257600083600283611ffc9190614e25565b8151811061200d5761200c614e7f565b5b602001015160f81c60f81b60f81c905060008460028461202d9190614e25565b60016120399190614eae565b8151811061204a57612049614e7f565b5b602001015160f81c60f81b60f81c9050600060618260ff16101561206f576030612072565b60575b8261207d9190614f11565b601060618560ff161015612092576030612095565b60575b856120a09190614f11565b6120aa9190614f45565b6120b49190614f80565b90508060f81b8585815181106120cd576120cc614e7f565b5b60200101907effffffffffffffffffffffffffffffffffffffffffffffffffffffffffffff1916908160001a905350505050808061210a90614fb7565b915050611fe3565b50600060148201519050809350505050919050565b6006602052816000526040600020602052806000526040600020600091509150508060000154908060010160009054906101000a900460ff169080600301805461217090613f39565b80601f016020809104026020016040519081016040528092919081815260200182805461219c90613f39565b80156121e95780601f106121be576101008083540402835291602001916121e9565b820191906000526020600020905b8154815290600101906020018083116121cc57829003601f168201915b5050505050908060040154905084565b6122218383806000019061220d9190613ab9565b806000019061221c9190613ae1565b612656565b612260576040517f08c379a00000000000000000000000000000000000000000000000000000000081526004016122579061450a565b60405180910390fd5b600160009054906101000a900473ffffffffffffffffffffffffffffffffffffffff1673ffffffffffffffffffffffffffffffffffffffff1663016308716003836040518363ffffffff1660e01b81526004016122be92919061504c565b60206040518083038186803b1580156122d657600080fd5b505afa1580156122ea573d6000803e3d6000fd5b505050506040513d601f19601f8201168201806040525081019061230e9190614259565b61234d576040517f08c379a0000000000000000000000000000000000000000000000000000000008152600401612344906150e2565b60405180910390fd5b6000600860008573ffffffffffffffffffffffffffffffffffffffff1673ffffffffffffffffffffffffffffffffffffffff16815260200190815260200160002060008480600001906123a09190613ab9565b60200135815260200190815260200160002060008460400160208101906123c79190613ba7565b67ffffffffffffffff1667ffffffffffffffff16815260200190815260200160002060009054906101000a900460ff16905080612439576040517f08c379a0000000000000000000000000000000000000000000000000000000008152600401612430906146fd565b60405180910390fd5b8373ffffffffffffffffffffffffffffffffffffffff1663b33c2577846040518263ffffffff1660e01b815260040161247291906148a3565b600060405180830381600087803b15801561248c57600080fd5b505af11580156124a0573d6000803e3d6000fd5b50505050600860008573ffffffffffffffffffffffffffffffffffffffff1673ffffffffffffffffffffffffffffffffffffffff16815260200190815260200160002060008480600001906124f59190613ab9565b602001358152602001908152602001600020600084604001602081019061251c9190613ba7565b67ffffffffffffffff1667ffffffffffffffff16815260200190815260200160002060006101000a81549060ff02191690558260400160208101906125619190613ba7565b67ffffffffffffffff1683806000019061257b9190613ab9565b602001358573ffffffffffffffffffffffffffffffffffffffff167f19ac40c4084d9bfb5b43f819a94bf01c70789b0d579871f59e4f86def04d934460405160405180910390a450505050565b600380546125d590613f39565b80601f016020809104026020016040519081016040528092919081815260200182805461260190613f39565b801561264e5780601f106126235761010080835404028352916020019161264e565b820191906000526020600020905b81548152906001019060200180831161263157829003601f168201915b505050505081565b6000808383600560009054906101000a900467ffffffffffffffff1667ffffffffffffffff1690809261268b9392919061510c565b8080601f016020809104026020016040519081016040528093929190818152602001838380828437600081840152601f19601f8201169050808301925050505050505090508473ffffffffffffffffffffffffffffffffffffffff166126f082611f43565b73ffffffffffffffffffffffffffffffffffffffff16149150509392505050565b6127196127c3565b600073ffffffffffffffffffffffffffffffffffffffff168173ffffffffffffffffffffffffffffffffffffffff161415612789576040517f08c379a0000000000000000000000000000000000000000000000000000000008152600401612780906151b9565b60405180910390fd5b61279281612841565b50565b6000808280602001906127a89190613b44565b905014156127b957600090506127be565b600190505b919050565b6127cb612905565b73ffffffffffffffffffffffffffffffffffffffff166127e9611a52565b73ffffffffffffffffffffffffffffffffffffffff161461283f576040517f08c379a000000000000000000000000000000000000000000000000000000000815260040161283690615225565b60405180910390fd5b565b60008060009054906101000a900473ffffffffffffffffffffffffffffffffffffffff169050816000806101000a81548173ffffffffffffffffffffffffffffffffffffffff021916908373ffffffffffffffffffffffffffffffffffffffff1602179055508173ffffffffffffffffffffffffffffffffffffffff168173ffffffffffffffffffffffffffffffffffffffff167f8be0079c531659141344cd1fd0a4f28419497f9722a3daafe3b4186f6b6457e060405160405180910390a35050565b600033905090565b6040518060a00160405280600080191681526020016000600181111561293657612935612f27565b5b81526020016060815260200160608152602001600080191681525090565b82805461296090613f39565b90600052602060002090601f01602090048101928261298257600085556129c9565b82601f1061299b57803560ff19168380011785556129c9565b828001600101855582156129c9579182015b828111156129c85782358255916020019190600101906129ad565b5b5090506129d69190612b21565b5090565b828054828255906000526020600020908101928215612a29579160200282015b82811115612a28578251829080519060200190612a18929190612a3a565b50916020019190600101906129fa565b5b509050612a369190612b3e565b5090565b828054612a4690613f39565b90600052602060002090601f016020900481019282612a685760008555612aaf565b82601f10612a8157805160ff1916838001178555612aaf565b82800160010185558215612aaf579182015b82811115612aae578251825591602001919060010190612a93565b5b509050612abc9190612b21565b5090565b5080546000825590600052602060002090810190612ade9190612b3e565b50565b508054612aed90613f39565b6000825580601f10612aff5750612b1e565b601f016020900490600052602060002090810190612b1d9190612b21565b5b50565b5b80821115612b3a576000816000905550600101612b22565b5090565b5b80821115612b5e5760008181612b559190612ae1565b50600101612b3f565b5090565b6000604051905090565b600080fd5b600080fd5b600073ffffffffffffffffffffffffffffffffffffffff82169050919050565b6000612ba182612b76565b9050919050565b6000612bb382612b96565b9050919050565b612bc381612ba8565b8114612bce57600080fd5b50565b600081359050612be081612bba565b92915050565b600080fd5b600060c08284031215612c0157612c00612be6565b5b81905092915050565b600060408284031215612c2057612c1f612be6565b5b81905092915050565b600080600060608486031215612c4257612c41612b6c565b5b6000612c5086828701612bd1565b935050602084013567ffffffffffffffff811115612c7157612c70612b71565b5b612c7d86828701612beb565b925050604084013567ffffffffffffffff811115612c9e57612c9d612b71565b5b612caa86828701612c0a565b9150509250925092565b6000819050919050565b612cc781612cb4565b8114612cd257600080fd5b50565b600081359050612ce481612cbe565b92915050565b60028110612cf757600080fd5b50565b600081359050612d0981612cea565b92915050565b600080fd5b600080fd5b600080fd5b60008083601f840112612d3457612d33612d0f565b5b8235905067ffffffffffffffff811115612d5157612d50612d14565b5b602083019150836020820283011115612d6d57612d6c612d19565b5b9250929050565b60008083601f840112612d8a57612d89612d0f565b5b8235905067ffffffffffffffff811115612da757612da6612d14565b5b602083019150836001820283011115612dc357612dc2612d19565b5b9250929050565b600080600080600080600080600060e08a8c031215612dec57612deb612b6c565b5b6000612dfa8c828d01612bd1565b9950506020612e0b8c828d01612cd5565b9850506040612e1c8c828d01612cfa565b97505060608a013567ffffffffffffffff811115612e3d57612e3c612b71565b5b612e498c828d01612d1e565b96509650506080612e5c8c828d01612cd5565b94505060a08a013567ffffffffffffffff811115612e7d57612e7c612b71565b5b612e898c828d01612d74565b935093505060c0612e9c8c828d01612cd5565b9150509295985092959850929598565b612eb581612b96565b8114612ec057600080fd5b50565b600081359050612ed281612eac565b92915050565b60008060408385031215612eef57612eee612b6c565b5b6000612efd85828601612ec3565b9250506020612f0e85828601612cd5565b9150509250929050565b612f2181612cb4565b82525050565b7f4e487b7100000000000000000000000000000000000000000000000000000000600052602160045260246000fd5b60028110612f6757612f66612f27565b5b50565b6000819050612f7882612f56565b919050565b6000612f8882612f6a565b9050919050565b612f9881612f7d565b82525050565b600081519050919050565b600082825260208201905092915050565b6000819050602082019050919050565b600081519050919050565b600082825260208201905092915050565b60005b83811015613004578082015181840152602081019050612fe9565b83811115613013576000848401525b50505050565b6000601f19601f8301169050919050565b600061303582612fca565b61303f8185612fd5565b935061304f818560208601612fe6565b61305881613019565b840191505092915050565b600061306f838361302a565b905092915050565b6000602082019050919050565b600061308f82612f9e565b6130998185612fa9565b9350836020820285016130ab85612fba565b8060005b858110156130e757848403895281516130c88582613063565b94506130d383613077565b925060208a019950506001810190506130af565b50829750879550505050505092915050565b600060a0830160008301516131116000860182612f18565b5060208301516131246020860182612f8f565b506040830151848203604086015261313c8282613084565b91505060608301518482036060860152613156828261302a565b915050608083015161316b6080860182612f18565b508091505092915050565b6000602082019050818103600083015261319081846130f9565b905092915050565b6000604082840312156131ae576131ad612be6565b5b81905092915050565b6000602082840312156131cd576131cc612b6c565b5b600082013567ffffffffffffffff8111156131eb576131ea612b71565b5b6131f784828501613198565b91505092915050565b6000806000806000806000806000806101008b8d03121561322457613223612b6c565b5b60006132328d828e01612bd1565b9a505060206132438d828e01612cd5565b99505060408b013567ffffffffffffffff81111561326457613263612b71565b5b6132708d828e01612d1e565b985098505060606132838d828e01612cfa565b96505060808b013567ffffffffffffffff8111156132a4576132a3612b71565b5b6132b08d828e01612d74565b955095505060a06132c38d828e01612cd5565b93505060c06132d48d828e01612cd5565b92505060e08b013567ffffffffffffffff8111156132f5576132f4612b71565b5b6133018d828e01612c0a565b9150509295989b9194979a5092959850565b60006040828403121561332957613328612be6565b5b81905092915050565b60006020828403121561334857613347612b6c565b5b600082013567ffffffffffffffff81111561336657613365612b71565b5b61337284828501613313565b91505092915050565b60006040828403121561339157613390612be6565b5b81905092915050565b600080600080608085870312156133b4576133b3612b6c565b5b60006133c287828801612bd1565b945050602085013567ffffffffffffffff8111156133e3576133e2612b71565b5b6133ef87828801612beb565b935050604085013567ffffffffffffffff8111156134105761340f612b71565b5b61341c8782880161337b565b925050606085013567ffffffffffffffff81111561343d5761343c612b71565b5b61344987828801612c0a565b91505092959194509250565b60006060828403121561346b5761346a612be6565b5b81905092915050565b60006020828403121561348a57613489612b6c565b5b600082013567ffffffffffffffff8111156134a8576134a7612b71565b5b6134b484828501613455565b91505092915050565b6000602082840312156134d3576134d2612b6c565b5b60006134e184828501612cd5565b91505092915050565b60008083601f840112613500576134ff612d0f565b5b8235905067ffffffffffffffff81111561351d5761351c612d14565b5b60208301915083600182028301111561353957613538612d19565b5b9250929050565b600067ffffffffffffffff82169050919050565b61355d81613540565b811461356857600080fd5b50565b60008135905061357a81613554565b92915050565b6000819050919050565b61359381613580565b811461359e57600080fd5b50565b6000813590506135b08161358a565b92915050565b6000806000806000608086880312156135d2576135d1612b6c565b5b60006135e088828901612cd5565b955050602086013567ffffffffffffffff81111561360157613600612b71565b5b61360d888289016134ea565b945094505060406136208882890161356b565b9250506060613631888289016135a1565b9150509295509295909350565b61364781612b96565b82525050565b6000602082019050613662600083018461363e565b92915050565b60008060006060848603121561368157613680612b6c565b5b600061368f86828701612ec3565b93505060206136a086828701612cd5565b925050604084013567ffffffffffffffff8111156136c1576136c0612b71565b5b6136cd86828701612c0a565b9150509250925092565b600080fd5b7f4e487b7100000000000000000000000000000000000000000000000000000000600052604160045260246000fd5b61371482613019565b810181811067ffffffffffffffff82111715613733576137326136dc565b5b80604052505050565b6000613746612b62565b9050613752828261370b565b919050565b600067ffffffffffffffff821115613772576137716136dc565b5b61377b82613019565b9050602081019050919050565b82818337600083830152505050565b60006137aa6137a584613757565b61373c565b9050828152602081018484840111156137c6576137c56136d7565b5b6137d1848285613788565b509392505050565b600082601f8301126137ee576137ed612d0f565b5b81356137fe848260208601613797565b91505092915050565b60006020828403121561381d5761381c612b6c565b5b600082013567ffffffffffffffff81111561383b5761383a612b71565b5b613847848285016137d9565b91505092915050565b61385981612cb4565b82525050565b61386881612f7d565b82525050565b600082825260208201905092915050565b600061388a82612fca565b613894818561386e565b93506138a4818560208601612fe6565b6138ad81613019565b840191505092915050565b60006080820190506138cd6000830187613850565b6138da602083018661385f565b81810360408301526138ec818561387f565b90506138fb6060830184613850565b95945050505050565b600081519050919050565b600082825260208201905092915050565b600061392b82613904565b613935818561390f565b9350613945818560208601612fe6565b61394e81613019565b840191505092915050565b600060208201905081810360008301526139738184613920565b905092915050565b60008060006040848603121561399457613993612b6c565b5b60006139a286828701612ec3565b935050602084013567ffffffffffffffff8111156139c3576139c2612b71565b5b6139cf86828701612d74565b92509250509250925092565b60008115159050919050565b6139f0816139db565b82525050565b6000602082019050613a0b60008301846139e7565b92915050565b600060208284031215613a2757613a26612b6c565b5b6000613a3584828501612ec3565b91505092915050565b7f50726f6f6620766572696669636174696f6e206661696c656400000000000000600082015250565b6000613a7460198361386e565b9150613a7f82613a3e565b602082019050919050565b60006020820190508181036000830152613aa381613a67565b9050919050565b600080fd5b600080fd5b600080fd5b600082356001604003833603038112613ad557613ad4613aaa565b5b80830191505092915050565b60008083356001602003843603038112613afe57613afd613aaa565b5b80840192508235915067ffffffffffffffff821115613b2057613b1f613aaf565b5b602083019250600182023603831315613b3c57613b3b613ab4565b5b509250929050565b60008083356001602003843603038112613b6157613b60613aaa565b5b80840192508235915067ffffffffffffffff821115613b8357613b82613aaf565b5b602083019250600182023603831315613b9f57613b9e613ab4565b5b509250929050565b600060208284031215613bbd57613bbc612b6c565b5b6000613bcb8482850161356b565b91505092915050565b6000613be0838561386e565b9350613bed838584613788565b613bf683613019565b840190509392505050565b6000613c0d838561390f565b9350613c1a838584613788565b613c2383613019565b840190509392505050565b613c3781613540565b82525050565b60006080820190508181036000830152613c5881898b613bd4565b90508181036020830152613c6d818789613bd4565b90508181036040830152613c82818587613c01565b9050613c916060830184613c2e565b98975050505050505050565b600082825260208201905092915050565b6000819050919050565b6000613cc48385612fd5565b9350613cd1838584613788565b613cda83613019565b840190509392505050565b6000613cf2848484613cb8565b90509392505050565b600080fd5b600080fd5b600080fd5b60008083356001602003843603038112613d2757613d26613d05565b5b83810192508235915060208301925067ffffffffffffffff821115613d4f57613d4e613cfb565b5b600182023603841315613d6557613d64613d00565b5b509250929050565b6000602082019050919050565b6000613d868385613c9d565b935083602084028501613d9884613cae565b8060005b87811015613dde578484038952613db38284613d0a565b613dbe868284613ce5565b9550613dc984613d6d565b935060208b019a505050600181019050613d9c565b50829750879450505050509392505050565b600060c082019050613e05600083018b613850565b613e12602083018a61385f565b8181036040830152613e2581888a613d7a565b9050613e346060830187613850565b8181036080830152613e47818587613bd4565b9050613e5660a0830184613850565b9998505050505050505050565b600081519050613e7281612cbe565b92915050565b600060208284031215613e8e57613e8d612b6c565b5b6000613e9c84828501613e63565b91505092915050565b600060a082019050613eba600083018a613850565b613ec7602083018961385f565b8181036040830152613eda818789613d7a565b90508181036060830152613eef818587613bd4565b9050613efe6080830184613850565b98975050505050505050565b7f4e487b7100000000000000000000000000000000000000000000000000000000600052602260045260246000fd5b60006002820490506001821680613f5157607f821691505b60208210811415613f6557613f64613f0a565b5b50919050565b7f436c69656e7420616c7265616479206372656174656400000000000000000000600082015250565b6000613fa160168361386e565b9150613fac82613f6b565b602082019050919050565b60006020820190508181036000830152613fd081613f94565b9050919050565b60008190508160005260206000209050919050565b60008154613ff981613f39565b614003818661390f565b9450600182166000811461401e576001811461403057614063565b60ff1983168652602086019350614063565b61403985613fd7565b60005b8381101561405b5781548189015260018201915060208101905061403c565b808801955050505b50505092915050565b600061407b602084018461356b565b905092915050565b61408c81613540565b82525050565b600080833560016020038436030381126140af576140ae613d05565b5b83810192508235915060208301925067ffffffffffffffff8211156140d7576140d6613cfb565b5b6001820236038413156140ed576140ec613d00565b5b509250929050565b600082825260208201905092915050565b600061411283856140f5565b935061411f838584613788565b61412883613019565b840190509392505050565b600060408301614146600084018461406c565b6141536000860182614083565b506141616020840184614092565b8583036020870152614174838284614106565b925050508091505092915050565b7f6368616e6e656c2f706174682f746f2f62652f61646465642f68657265000000600082015250565b60006141b8601d8361390f565b91506141c382614182565b602082019050919050565b600060808201905081810360008301526141e88186613fec565b905081810360208301526141fc8185614133565b9050818103604083015261420f816141ab565b905081810360608301526142238184613920565b9050949350505050565b614236816139db565b811461424157600080fd5b50565b6000815190506142538161422d565b92915050565b60006020828403121561426f5761426e612b6c565b5b600061427d84828501614244565b91505092915050565b7f4661696c20746f2070726f7665206368616e6e656c2073746174650000000000600082015250565b60006142bc601b8361386e565b91506142c782614286565b602082019050919050565b600060208201905081810360008301526142eb816142af565b9050919050565b60006060820190506143076000830186613850565b6143146020830185613850565b6143216040830184613850565b949350505050565b600067ffffffffffffffff821115614344576143436136dc565b5b602082029050602081019050919050565b600061436861436384614329565b61373c565b9050808382526020820190506020840283018581111561438b5761438a612d19565b5b835b818110156143d257803567ffffffffffffffff8111156143b0576143af612d0f565b5b8086016143bd89826137d9565b8552602085019450505060208101905061438d565b5050509392505050565b60006143e9368484614355565b905092915050565b6000604082019050818103600083015261440c818688613bd4565b90508181036020830152614421818486613d7a565b905095945050505050565b7f436c69656e74206e6f7420637265617465640000000000000000000000000000600082015250565b600061446260128361386e565b915061446d8261442c565b602082019050919050565b6000602082019050818103600083015261449181614455565b9050919050565b7f5265636569766572206973206e6f7420746865206f726967696e616c2070616360008201527f6b65742073656e64657200000000000000000000000000000000000000000000602082015250565b60006144f4602a8361386e565b91506144ff82614498565b604082019050919050565b60006020820190508181036000830152614523816144e7565b9050919050565b7f61636b2f7061636b65742f706174680000000000000000000000000000000000600082015250565b6000614560600f8361390f565b915061456b8261452a565b602082019050919050565b7f65787065637465642061636b20726563656970742068617368206f6e20506f6c60008201527f796d657220636861696e00000000000000000000000000000000000000000000602082015250565b60006145d2602a8361390f565b91506145dd82614576565b604082019050919050565b600060808201905081810360008301526146028185613fec565b905081810360208301526146168184614133565b9050818103604083015261462981614553565b9050818103606083015261463c816145c5565b90509392505050565b7f4661696c20746f2070726f76652061636b000000000000000000000000000000600082015250565b600061467b60118361386e565b915061468682614645565b602082019050919050565b600060208201905081810360008301526146aa8161466e565b9050919050565b7f5061636b657420636f6d6d69746d656e74206e6f7420666f756e640000000000600082015250565b60006146e7601b8361386e565b91506146f2826146b1565b602082019050919050565b60006020820190508181036000830152614716816146da565b9050919050565b60008235600160400383360303811261473957614738613d05565b5b82810191505092915050565b60006147546020840184612cd5565b905092915050565b60006040830161476f6000840184613d0a565b8583036000870152614782838284613cb8565b925050506147936020840184614745565b6147a06020860182612f18565b508091505092915050565b600082905092915050565b604082016147c7600083018361406c565b6147d46000850182614083565b506147e2602083018361406c565b6147ef6020850182614083565b50505050565b600060c08301614808600084018461471d565b848203600086015261481a828261475c565b91505061482a602084018461471d565b848203602086015261483c828261475c565b91505061484c604084018461406c565b6148596040860182614083565b506148676060840184614092565b858303606087015261487a838284614106565b9250505061488b60808401846147ab565b61489860808601826147b6565b508091505092915050565b600060208201905081810360008301526148bd81846147f5565b905092915050565b6000813590506148d48161422d565b92915050565b60006148e960208401846148c5565b905092915050565b6148fa816139db565b82525050565b60006040830161491360008401846148da565b61492060008601826148f1565b5061492e6020840184614092565b8583036020870152614941838284614106565b925050508091505092915050565b600060408201905081810360008301526149698185614900565b90506149786020830184613c2e565b9392505050565b6000606083016149926000840184614092565b85830360008701526149a5838284614106565b925050506149b6602084018461406c565b6149c36020860182614083565b506149d16040840184614092565b85830360408701526149e4838284614106565b925050508091505092915050565b60006040820190508181036000830152614a0c8185613fec565b90508181036020830152614a20818461497f565b90509392505050565b7f557064617465436c69656e744d73672070726f6f66207665726966696361746960008201527f6f6e206661696c65640000000000000000000000000000000000000000000000602082015250565b6000614a8560298361386e565b9150614a9082614a29565b604082019050919050565b60006020820190508181036000830152614ab481614a78565b9050919050565b7f4368616e6e656c206e6f74206f776e6564206279206d73672e73656e64657200600082015250565b6000614af1601f8361386e565b9150614afc82614abb565b602082019050919050565b60006020820190508181036000830152614b2081614ae4565b9050919050565b6000606082019050614b3c6000830186613850565b8181036020830152614b4e818561387f565b9050614b5d6040830184613850565b949350505050565b7f4368616e6e656c206e6f74206f776e65642062792073656e6465720000000000600082015250565b6000614b9b601b8361386e565b9150614ba682614b65565b602082019050919050565b60006020820190508181036000830152614bca81614b8e565b9050919050565b600081905092915050565b50565b6000614bec600083614bd1565b9150614bf782614bdc565b600082019050919050565b6000614c0d82614bdf565b9150819050919050565b7f4661696c656420746f20657363726f77207061636b6574206665650000000000600082015250565b6000614c4d601b8361386e565b9150614c5882614c17565b602082019050919050565b60006020820190508181036000830152614c7c81614c40565b9050919050565b7f4e487b7100000000000000000000000000000000000000000000000000000000600052601160045260246000fd5b6000614cbd82613540565b9150614cc883613540565b92508267ffffffffffffffff03821115614ce557614ce4614c83565b5b828201905092915050565b614cf981613580565b82525050565b60006080820190508181036000830152614d1a818789613c01565b9050614d296020830186613c2e565b614d366040830185613c2e565b614d436060830184614cf0565b9695505050505050565b7f4368616e6e656c206e6f74206f776e656420627920706f727441646472657373600082015250565b6000614d8360208361386e565b9150614d8e82614d4d565b602082019050919050565b60006020820190508181036000830152614db281614d76565b9050919050565b7f496e76616c69642068657820737472696e67206c656e67746800000000000000600082015250565b6000614def60198361386e565b9150614dfa82614db9565b602082019050919050565b60006020820190508181036000830152614e1e81614de2565b9050919050565b6000614e3082613580565b9150614e3b83613580565b9250817fffffffffffffffffffffffffffffffffffffffffffffffffffffffffffffffff0483118215151615614e7457614e73614c83565b5b828202905092915050565b7f4e487b7100000000000000000000000000000000000000000000000000000000600052603260045260246000fd5b6000614eb982613580565b9150614ec483613580565b9250827fffffffffffffffffffffffffffffffffffffffffffffffffffffffffffffffff03821115614ef957614ef8614c83565b5b828201905092915050565b600060ff82169050919050565b6000614f1c82614f04565b9150614f2783614f04565b925082821015614f3a57614f39614c83565b5b828203905092915050565b6000614f5082614f04565b9150614f5b83614f04565b92508160ff0483118215151615614f7557614f74614c83565b5b828202905092915050565b6000614f8b82614f04565b9150614f9683614f04565b92508260ff03821115614fac57614fab614c83565b5b828201905092915050565b6000614fc282613580565b91507fffffffffffffffffffffffffffffffffffffffffffffffffffffffffffffffff821415614ff557614ff4614c83565b5b600182019050919050565b7f7061636b65742f726563656970742f7061746800000000000000000000000000600082015250565b600061503660138361390f565b915061504182615000565b602082019050919050565b600060608201905081810360008301526150668185613fec565b9050818103602083015261507a8184614133565b9050818103604083015261508d81615029565b90509392505050565b7f4661696c20746f2070726f76652074696d656f75740000000000000000000000600082015250565b60006150cc60158361386e565b91506150d782615096565b602082019050919050565b600060208201905081810360008301526150fb816150bf565b9050919050565b600080fd5b600080fd5b600080858511156151205761511f615102565b5b8386111561513157615130615107565b5b6001850283019150848603905094509492505050565b7f4f776e61626c653a206e6577206f776e657220697320746865207a65726f206160008201527f6464726573730000000000000000000000000000000000000000000000000000602082015250565b60006151a360268361386e565b91506151ae82615147565b604082019050919050565b600060208201905081810360008301526151d281615196565b9050919050565b7f4f776e61626c653a2063616c6c6572206973206e6f7420746865206f776e6572600082015250565b600061520f60208361386e565b915061521a826151d9565b602082019050919050565b6000602082019050818103600083015261523e81615202565b905091905056fe6578706563746564206368616e6e656c20627974657320636f6e73747275637465642066726f6d20706172616d732e204368616e6e656c2e5374617465203d207b41636b5f50656e64696e672c20436f6e6669726d5f50656e64696e677d6578706563746564206368616e6e656c20627974657320636f6e73747275637465642066726f6d20706172616d732e204368616e6e656c2e5374617465203d207b436c6f736564285f50656e64696e673f297da2646970667358221220eff640bf26c837265b037c753b80d4561af26e7af525d0025e404075bc9df68364736f6c63430008090033",
  "linkReferences": {},
  "deployedLinkReferences": {}
}