{
  "_format": "hh-sol-artifact-1",
  "contractName": "Dispatcher",
  "sourceName": "contracts/Dispatcher.sol",
  "abi": [
    {
      "inputs": [
        {
          "internalType": "address",
          "name": "_verifier",
          "type": "address"
        }
      ],
      "stateMutability": "nonpayable",
      "type": "constructor"
    },
    {
      "anonymous": false,
      "inputs": [
        {
          "indexed": false,
          "internalType": "string",
          "name": "channelId",
          "type": "string"
        },
        {
          "indexed": true,
          "internalType": "address",
          "name": "portId",
          "type": "address"
        }
      ],
      "name": "CloseIbcChannel",
      "type": "event"
    },
    {
      "anonymous": false,
      "inputs": [
        {
          "indexed": false,
          "internalType": "string",
          "name": "channelId",
          "type": "string"
        },
        {
          "indexed": true,
          "internalType": "address",
          "name": "portId",
          "type": "address"
        },
        {
          "indexed": false,
          "internalType": "string",
          "name": "counterPartyChannelId",
          "type": "string"
        },
        {
          "indexed": false,
          "internalType": "string",
          "name": "counterPartyPortId",
          "type": "string"
        },
        {
          "indexed": false,
          "internalType": "string",
          "name": "counterPartyVersion",
          "type": "string"
        }
      ],
      "name": "ConnectIbcChannel",
      "type": "event"
    },
    {
      "anonymous": false,
      "inputs": [
        {
          "indexed": true,
          "internalType": "bytes32",
          "name": "srcChannelId",
          "type": "bytes32"
        },
        {
          "indexed": false,
          "internalType": "string",
          "name": "srcPortId",
          "type": "string"
        },
        {
          "indexed": true,
          "internalType": "bytes32",
          "name": "destChannelId",
          "type": "bytes32"
        },
        {
          "indexed": false,
          "internalType": "string",
          "name": "destPortId",
          "type": "string"
        },
        {
          "indexed": false,
          "internalType": "bytes",
          "name": "data",
          "type": "bytes"
        },
        {
          "indexed": false,
          "internalType": "uint64",
          "name": "sequence",
          "type": "uint64"
        }
      ],
      "name": "OnRecvPacket",
      "type": "event"
    },
    {
      "anonymous": false,
      "inputs": [
        {
          "indexed": false,
          "internalType": "string",
          "name": "connectionId",
          "type": "string"
        },
        {
          "indexed": true,
          "internalType": "address",
          "name": "connectionPortId",
          "type": "address"
        },
        {
          "indexed": false,
          "internalType": "string",
          "name": "counterPartyConnectionId",
          "type": "string"
        },
        {
          "indexed": false,
          "internalType": "string",
          "name": "counterPartyPortId",
          "type": "string"
        },
        {
          "indexed": false,
          "internalType": "string",
          "name": "version",
          "type": "string"
        }
      ],
      "name": "OpenIbcChannel",
      "type": "event"
    },
    {
      "anonymous": false,
      "inputs": [
        {
          "indexed": true,
          "internalType": "address",
          "name": "previousOwner",
          "type": "address"
        },
        {
          "indexed": true,
          "internalType": "address",
          "name": "newOwner",
          "type": "address"
        }
      ],
      "name": "OwnershipTransferred",
      "type": "event"
    },
    {
      "anonymous": false,
      "inputs": [
        {
          "indexed": true,
          "internalType": "address",
          "name": "portId",
          "type": "address"
        },
        {
          "indexed": true,
          "internalType": "bytes32",
          "name": "channelId",
          "type": "bytes32"
        },
        {
          "indexed": false,
          "internalType": "bytes",
          "name": "packet",
          "type": "bytes"
        },
        {
          "indexed": false,
          "internalType": "uint64",
          "name": "timeoutBlockTimestamp",
          "type": "uint64"
        }
      ],
      "name": "SendIbcPacket",
      "type": "event"
    },
    {
      "inputs": [
        {
          "internalType": "string",
          "name": "",
          "type": "string"
        }
      ],
      "name": "clients",
      "outputs": [
        {
          "internalType": "bytes",
          "name": "clientState",
          "type": "bytes"
        },
        {
          "internalType": "bytes",
          "name": "consensusState",
          "type": "bytes"
        }
      ],
      "stateMutability": "view",
      "type": "function"
    },
    {
      "inputs": [
        {
          "internalType": "string",
          "name": "channelId",
          "type": "string"
        }
      ],
      "name": "closeIbcChannel",
      "outputs": [],
      "stateMutability": "nonpayable",
      "type": "function"
    },
    {
      "inputs": [
        {
          "internalType": "string",
          "name": "channelId",
          "type": "string"
        },
        {
          "internalType": "string",
          "name": "counterPartyChannelId",
          "type": "string"
        },
        {
          "internalType": "string",
          "name": "counterPartyPortId",
          "type": "string"
        },
        {
          "internalType": "string",
          "name": "counterPartyVersion",
          "type": "string"
        }
      ],
      "name": "connectIbcChannel",
      "outputs": [],
      "stateMutability": "nonpayable",
      "type": "function"
    },
    {
      "inputs": [
        {
          "internalType": "string",
          "name": "clientId",
          "type": "string"
        },
        {
          "internalType": "bytes",
          "name": "clientState",
          "type": "bytes"
        },
        {
          "internalType": "bytes",
          "name": "consensusState",
          "type": "bytes"
        }
      ],
      "name": "createClient",
      "outputs": [],
      "stateMutability": "nonpayable",
      "type": "function"
    },
    {
      "inputs": [
        {
          "internalType": "contract IbcReceiver",
          "name": "receiver",
          "type": "address"
        },
        {
          "components": [
            {
              "components": [
                {
                  "internalType": "string",
                  "name": "portId",
                  "type": "string"
                },
                {
                  "internalType": "bytes32",
                  "name": "channelId",
                  "type": "bytes32"
                }
              ],
              "internalType": "struct IbcEndpoint",
              "name": "src",
              "type": "tuple"
            },
            {
              "components": [
                {
                  "internalType": "string",
                  "name": "portId",
                  "type": "string"
                },
                {
                  "internalType": "bytes32",
                  "name": "channelId",
                  "type": "bytes32"
                }
              ],
              "internalType": "struct IbcEndpoint",
              "name": "dest",
              "type": "tuple"
            },
            {
              "internalType": "uint64",
              "name": "sequence",
              "type": "uint64"
            },
            {
              "internalType": "bytes",
              "name": "data",
              "type": "bytes"
            },
            {
              "components": [
                {
                  "internalType": "uint64",
                  "name": "block",
                  "type": "uint64"
                },
                {
                  "internalType": "uint64",
                  "name": "timestamp",
                  "type": "uint64"
                }
              ],
              "internalType": "struct IbcTimeout",
              "name": "timeout",
              "type": "tuple"
            }
          ],
          "internalType": "struct IbcPacket",
          "name": "packet",
          "type": "tuple"
        },
        {
          "internalType": "bytes",
          "name": "acknowledgement",
          "type": "bytes"
        },
        {
          "components": [
            {
              "internalType": "bytes",
              "name": "keyPath",
              "type": "bytes"
            },
            {
              "internalType": "bytes",
              "name": "value",
              "type": "bytes"
            },
            {
              "internalType": "bytes",
              "name": "proof",
              "type": "bytes"
            }
          ],
          "internalType": "struct Proof",
          "name": "proof",
          "type": "tuple"
        }
      ],
      "name": "onAcknowledgementPacket",
      "outputs": [],
      "stateMutability": "nonpayable",
      "type": "function"
    },
    {
      "inputs": [
        {
          "internalType": "contract IbcReceiver",
          "name": "receiver",
          "type": "address"
        },
        {
          "internalType": "string",
          "name": "channelId",
          "type": "string"
        },
        {
          "components": [
            {
              "internalType": "bytes",
              "name": "keyPath",
              "type": "bytes"
            },
            {
              "internalType": "bytes",
              "name": "value",
              "type": "bytes"
            },
            {
              "internalType": "bytes",
              "name": "proof",
              "type": "bytes"
            }
          ],
          "internalType": "struct Proof",
          "name": "proof",
          "type": "tuple"
        },
        {
          "internalType": "string",
          "name": "error",
          "type": "string"
        }
      ],
      "name": "onCloseIbcChannel",
      "outputs": [],
      "stateMutability": "nonpayable",
      "type": "function"
    },
    {
      "inputs": [
        {
          "internalType": "contract IbcReceiver",
          "name": "receiver",
          "type": "address"
        },
        {
          "internalType": "string",
          "name": "channelId",
          "type": "string"
        },
        {
          "components": [
            {
              "internalType": "bytes",
              "name": "keyPath",
              "type": "bytes"
            },
            {
              "internalType": "bytes",
              "name": "value",
              "type": "bytes"
            },
            {
              "internalType": "bytes",
              "name": "proof",
              "type": "bytes"
            }
          ],
          "internalType": "struct Proof",
          "name": "proof",
          "type": "tuple"
        },
        {
          "internalType": "string",
          "name": "error",
          "type": "string"
        }
      ],
      "name": "onConnectIbcChannel",
      "outputs": [],
      "stateMutability": "nonpayable",
      "type": "function"
    },
    {
      "inputs": [
        {
          "internalType": "contract IbcReceiver",
          "name": "receiver",
          "type": "address"
        },
        {
          "internalType": "string",
          "name": "channelId",
          "type": "string"
        },
        {
          "internalType": "string",
          "name": "version",
          "type": "string"
        },
        {
          "components": [
            {
              "internalType": "bytes",
              "name": "keyPath",
              "type": "bytes"
            },
            {
              "internalType": "bytes",
              "name": "value",
              "type": "bytes"
            },
            {
              "internalType": "bytes",
              "name": "proof",
              "type": "bytes"
            }
          ],
          "internalType": "struct Proof",
          "name": "proof",
          "type": "tuple"
        },
        {
          "internalType": "string",
          "name": "error",
          "type": "string"
        }
      ],
      "name": "onOpenIbcChannel",
      "outputs": [],
      "stateMutability": "nonpayable",
      "type": "function"
    },
    {
      "inputs": [
        {
          "internalType": "contract IbcReceiver",
          "name": "receiver",
          "type": "address"
        },
        {
          "components": [
            {
              "components": [
                {
                  "internalType": "string",
                  "name": "portId",
                  "type": "string"
                },
                {
                  "internalType": "bytes32",
                  "name": "channelId",
                  "type": "bytes32"
                }
              ],
              "internalType": "struct IbcEndpoint",
              "name": "src",
              "type": "tuple"
            },
            {
              "components": [
                {
                  "internalType": "string",
                  "name": "portId",
                  "type": "string"
                },
                {
                  "internalType": "bytes32",
                  "name": "channelId",
                  "type": "bytes32"
                }
              ],
              "internalType": "struct IbcEndpoint",
              "name": "dest",
              "type": "tuple"
            },
            {
              "internalType": "uint64",
              "name": "sequence",
              "type": "uint64"
            },
            {
              "internalType": "bytes",
              "name": "data",
              "type": "bytes"
            },
            {
              "components": [
                {
                  "internalType": "uint64",
                  "name": "block",
                  "type": "uint64"
                },
                {
                  "internalType": "uint64",
                  "name": "timestamp",
                  "type": "uint64"
                }
              ],
              "internalType": "struct IbcTimeout",
              "name": "timeout",
              "type": "tuple"
            }
          ],
          "internalType": "struct IbcPacket",
          "name": "packet",
          "type": "tuple"
        },
        {
          "components": [
            {
              "internalType": "bytes",
              "name": "keyPath",
              "type": "bytes"
            },
            {
              "internalType": "bytes",
              "name": "value",
              "type": "bytes"
            },
            {
              "internalType": "bytes",
              "name": "proof",
              "type": "bytes"
            }
          ],
          "internalType": "struct Proof",
          "name": "proof",
          "type": "tuple"
        }
      ],
      "name": "onRecvPacket",
      "outputs": [],
      "stateMutability": "nonpayable",
      "type": "function"
    },
    {
      "inputs": [
        {
          "internalType": "contract IbcReceiver",
          "name": "receiver",
          "type": "address"
        },
        {
          "components": [
            {
              "components": [
                {
                  "internalType": "string",
                  "name": "portId",
                  "type": "string"
                },
                {
                  "internalType": "bytes32",
                  "name": "channelId",
                  "type": "bytes32"
                }
              ],
              "internalType": "struct IbcEndpoint",
              "name": "src",
              "type": "tuple"
            },
            {
              "components": [
                {
                  "internalType": "string",
                  "name": "portId",
                  "type": "string"
                },
                {
                  "internalType": "bytes32",
                  "name": "channelId",
                  "type": "bytes32"
                }
              ],
              "internalType": "struct IbcEndpoint",
              "name": "dest",
              "type": "tuple"
            },
            {
              "internalType": "uint64",
              "name": "sequence",
              "type": "uint64"
            },
            {
              "internalType": "bytes",
              "name": "data",
              "type": "bytes"
            },
            {
              "components": [
                {
                  "internalType": "uint64",
                  "name": "block",
                  "type": "uint64"
                },
                {
                  "internalType": "uint64",
                  "name": "timestamp",
                  "type": "uint64"
                }
              ],
              "internalType": "struct IbcTimeout",
              "name": "timeout",
              "type": "tuple"
            }
          ],
          "internalType": "struct IbcPacket",
          "name": "packet",
          "type": "tuple"
        },
        {
          "components": [
            {
              "internalType": "bytes",
              "name": "keyPath",
              "type": "bytes"
            },
            {
              "internalType": "bytes",
              "name": "value",
              "type": "bytes"
            },
            {
              "internalType": "bytes",
              "name": "proof",
              "type": "bytes"
            }
          ],
          "internalType": "struct Proof",
          "name": "proof",
          "type": "tuple"
        }
      ],
      "name": "onTimeoutPacket",
      "outputs": [],
      "stateMutability": "nonpayable",
      "type": "function"
    },
    {
      "inputs": [
        {
          "internalType": "string",
          "name": "connectionId",
          "type": "string"
        },
        {
          "internalType": "string",
          "name": "counterPartyConnectionId",
          "type": "string"
        },
        {
          "internalType": "string",
          "name": "counterPartyPortId",
          "type": "string"
        },
        {
          "internalType": "enum IbcOrder",
          "name": "order",
          "type": "uint8"
        },
        {
          "internalType": "string",
          "name": "version",
          "type": "string"
        }
      ],
      "name": "openIbcChannel",
      "outputs": [],
      "stateMutability": "nonpayable",
      "type": "function"
    },
    {
      "inputs": [],
      "name": "owner",
      "outputs": [
        {
          "internalType": "address",
          "name": "",
          "type": "address"
        }
      ],
      "stateMutability": "view",
      "type": "function"
    },
    {
      "inputs": [],
      "name": "renounceOwnership",
      "outputs": [],
      "stateMutability": "nonpayable",
      "type": "function"
    },
    {
      "inputs": [
        {
          "internalType": "bytes32",
          "name": "channelId",
          "type": "bytes32"
        },
        {
          "internalType": "bytes",
          "name": "packet",
          "type": "bytes"
        },
        {
          "internalType": "uint64",
          "name": "timeoutBlockTimestamp",
          "type": "uint64"
        }
      ],
      "name": "sendIbcPacket",
      "outputs": [],
      "stateMutability": "nonpayable",
      "type": "function"
    },
    {
      "inputs": [
        {
          "internalType": "address",
          "name": "newOwner",
          "type": "address"
        }
      ],
      "name": "transferOwnership",
      "outputs": [],
      "stateMutability": "nonpayable",
      "type": "function"
    },
    {
      "inputs": [
        {
          "internalType": "string",
          "name": "clientId",
          "type": "string"
        },
        {
          "internalType": "bytes",
          "name": "consensusState",
          "type": "bytes"
        }
      ],
      "name": "updateClient",
      "outputs": [],
      "stateMutability": "nonpayable",
      "type": "function"
    },
    {
      "inputs": [],
      "name": "verifier",
      "outputs": [
        {
          "internalType": "contract ZKMintVerifier",
          "name": "",
          "type": "address"
        }
      ],
      "stateMutability": "view",
      "type": "function"
    }
  ],
  "bytecode": "0x60806040523480156200001157600080fd5b50604051620029ea380380620029ea8339818101604052810190620000379190620001d5565b620000576200004b6200009f60201b60201c565b620000a760201b60201c565b80600160006101000a81548173ffffffffffffffffffffffffffffffffffffffff021916908373ffffffffffffffffffffffffffffffffffffffff1602179055505062000207565b600033905090565b60008060009054906101000a900473ffffffffffffffffffffffffffffffffffffffff169050816000806101000a81548173ffffffffffffffffffffffffffffffffffffffff021916908373ffffffffffffffffffffffffffffffffffffffff1602179055508173ffffffffffffffffffffffffffffffffffffffff168173ffffffffffffffffffffffffffffffffffffffff167f8be0079c531659141344cd1fd0a4f28419497f9722a3daafe3b4186f6b6457e060405160405180910390a35050565b600080fd5b600073ffffffffffffffffffffffffffffffffffffffff82169050919050565b60006200019d8262000170565b9050919050565b620001af8162000190565b8114620001bb57600080fd5b50565b600081519050620001cf81620001a4565b92915050565b600060208284031215620001ee57620001ed6200016b565b5b6000620001fe84828501620001be565b91505092915050565b6127d380620002176000396000f3fe608060405234801561001057600080fd5b506004361061010b5760003560e01c8063715018a6116100a2578063c51289b511610071578063c51289b514610267578063ca1288ed14610283578063dc4431001461029f578063e6815c12146102bb578063f2fde38b146102d75761010b565b8063715018a6146102075780638b116848146102115780638da5cb5b1461022d578063a878e1ba1461024b5761010b565b806329393014116100de57806329393014146101955780632b7ac3f3146101b15780636fbf8079146101cf57806370c5dd53146101eb5761010b565b806303941ec51461011057806320ba1e9f1461012c578063260012e81461015d5780632629636b14610179575b600080fd5b61012a60048036038101906101259190611246565b6102f3565b005b61014660048036038101906101419190611447565b6103ad565b604051610154929190611518565b60405180910390f35b6101776004803603810190610172919061154f565b6104f7565b005b610193600480360381019061018e9190611630565b610609565b005b6101af60048036038101906101aa9190611709565b61077d565b005b6101b96107e4565b6040516101c69190611864565b60405180910390f35b6101e960048036038101906101e4919061187f565b61080a565b005b61020560048036038101906102009190611900565b6109a4565b005b61020f610a65565b005b61022b60048036038101906102269190611900565b610a79565b005b610235610b3a565b60405161024291906119d2565b60405180910390f35b610265600480360381019061026091906119ed565b610b63565b005b610281600480360381019061027c9190611b5b565b610c2a565b005b61029d60048036038101906102989190611bcf565b610c83565b005b6102b960048036038101906102b4919061154f565b610ce9565b005b6102d560048036038101906102d09190611cb8565b610da1565b005b6102f160048036038101906102ec9190611d31565b610df5565b005b6102fc81610e79565b61033b576040517f08c379a000000000000000000000000000000000000000000000000000000000815260040161033290611dbb565b60405180910390fd5b8473ffffffffffffffffffffffffffffffffffffffff1663f45cf5e4856040518263ffffffff1660e01b815260040161037491906120e7565b600060405180830381600087803b15801561038e57600080fd5b505af11580156103a2573d6000803e3d6000fd5b505050505050505050565b6002818051602081018201805184825260208301602085012081835280955050505050506000915090508060000180546103e690612138565b80601f016020809104026020016040519081016040528092919081815260200182805461041290612138565b801561045f5780601f106104345761010080835404028352916020019161045f565b820191906000526020600020905b81548152906001019060200180831161044257829003601f168201915b50505050509080600101805461047490612138565b80601f01602080910402602001604051908101604052809291908181526020018280546104a090612138565b80156104ed5780601f106104c2576101008083540402835291602001916104ed565b820191906000526020600020905b8154815290600101906020018083116104d057829003601f168201915b5050505050905082565b61050081610e79565b61053f576040517f08c379a000000000000000000000000000000000000000000000000000000000815260040161053690611dbb565b60405180910390fd5b81806020019061054f9190612179565b602001358280600001906105639190612179565b602001357f080631928e492258b6a102fc2ab3e0a8dfcb747ab0885c25f9cb7a8d486210368480600001906105989190612179565b80600001906105a791906121a1565b8680602001906105b79190612179565b80600001906105c691906121a1565b8880606001906105d69190612204565b8a60400160208101906105e99190612267565b6040516105fc97969594939291906122fd565b60405180910390a3505050565b60006002878760405161061d92919061238d565b9081526020016040518091039020600001805461063990612138565b90501461067b576040517f08c379a000000000000000000000000000000000000000000000000000000000815260040161067290612418565b60405180910390fd5b604051806040016040528085858080601f016020809104026020016040519081016040528093929190818152602001838380828437600081840152601f19601f82011690508083019250505050505050815260200183838080601f016020809104026020016040519081016040528093929190818152602001838380828437600081840152601f19601f820116905080830192505050505050508152506002878760405161072a92919061238d565b90815260200160405180910390206000820151816000019080519060200190610754929190610ff1565b506020820151816001019080519060200190610771929190610ff1565b50905050505050505050565b3373ffffffffffffffffffffffffffffffffffffffff167f9ce02b1b641bb5e30c72716c9c859589507ea98e427becc1da24ef96341cfdc78a8a8a8a8a8a89896040516107d1989796959493929190612438565b60405180910390a2505050505050505050565b600160009054906101000a900473ffffffffffffffffffffffffffffffffffffffff1681565b60006002858560405161081e92919061238d565b9081526020016040518091039020600001805461083a90612138565b9050141561087d576040517f08c379a000000000000000000000000000000000000000000000000000000000815260040161087490612513565b60405180910390fd5b600160009054906101000a900473ffffffffffffffffffffffffffffffffffffffff1673ffffffffffffffffffffffffffffffffffffffff16638e760afe83836040518363ffffffff1660e01b81526004016108da929190612533565b602060405180830381600087803b1580156108f457600080fd5b505af1158015610908573d6000803e3d6000fd5b505050506040513d601f19601f8201168201806040525081019061092c919061258f565b61096b576040517f08c379a000000000000000000000000000000000000000000000000000000000815260040161096290611dbb565b60405180910390fd5b81816002868660405161097f92919061238d565b9081526020016040518091039020600101919061099d929190611077565b5050505050565b6109ad83610e79565b6109ec576040517f08c379a00000000000000000000000000000000000000000000000000000000081526004016109e390611dbb565b60405180910390fd5b8573ffffffffffffffffffffffffffffffffffffffff16630a845081868685856040518563ffffffff1660e01b8152600401610a2b94939291906125bc565b600060405180830381600087803b158015610a4557600080fd5b505af1158015610a59573d6000803e3d6000fd5b50505050505050505050565b610a6d610ea7565b610a776000610f25565b565b610a8283610e79565b610ac1576040517f08c379a0000000000000000000000000000000000000000000000000000000008152600401610ab890611dbb565b60405180910390fd5b8573ffffffffffffffffffffffffffffffffffffffff16636afd6174868685856040518563ffffffff1660e01b8152600401610b0094939291906125bc565b600060405180830381600087803b158015610b1a57600080fd5b505af1158015610b2e573d6000803e3d6000fd5b50505050505050505050565b60008060009054906101000a900473ffffffffffffffffffffffffffffffffffffffff16905090565b610b6c83610e79565b610bab576040517f08c379a0000000000000000000000000000000000000000000000000000000008152600401610ba290611dbb565b60405180910390fd5b8773ffffffffffffffffffffffffffffffffffffffff16632719503e8888888887876040518763ffffffff1660e01b8152600401610bee969594939291906125f7565b600060405180830381600087803b158015610c0857600080fd5b505af1158015610c1c573d6000803e3d6000fd5b505050505050505050505050565b833373ffffffffffffffffffffffffffffffffffffffff167f3623db14ea518e01acc6d3cb8b5dea34b853de4b455571275bacf9225f8a28dd858585604051610c7593929190612649565b60405180910390a350505050565b3373ffffffffffffffffffffffffffffffffffffffff167fd38dbe544e1f1277b020a61acc0dd2cf9ddcf99471a49a288a3ada57f3206a738989898989898989604051610cd7989796959493929190612438565b60405180910390a25050505050505050565b610cf281610e79565b610d31576040517f08c379a0000000000000000000000000000000000000000000000000000000008152600401610d2890611dbb565b60405180910390fd5b8273ffffffffffffffffffffffffffffffffffffffff1663b33c2577836040518263ffffffff1660e01b8152600401610d6a91906120e7565b600060405180830381600087803b158015610d8457600080fd5b505af1158015610d98573d6000803e3d6000fd5b50505050505050565b3373ffffffffffffffffffffffffffffffffffffffff167f18280cf62c6d3f3519d7cff5c5b7e91021dd17a0278ba5668976d82bdc9faa9e8383604051610de992919061267b565b60405180910390a25050565b610dfd610ea7565b600073ffffffffffffffffffffffffffffffffffffffff168173ffffffffffffffffffffffffffffffffffffffff161415610e6d576040517f08c379a0000000000000000000000000000000000000000000000000000000008152600401610e6490612711565b60405180910390fd5b610e7681610f25565b50565b600080828060400190610e8c9190612204565b90501415610e9d5760009050610ea2565b600190505b919050565b610eaf610fe9565b73ffffffffffffffffffffffffffffffffffffffff16610ecd610b3a565b73ffffffffffffffffffffffffffffffffffffffff1614610f23576040517f08c379a0000000000000000000000000000000000000000000000000000000008152600401610f1a9061277d565b60405180910390fd5b565b60008060009054906101000a900473ffffffffffffffffffffffffffffffffffffffff169050816000806101000a81548173ffffffffffffffffffffffffffffffffffffffff021916908373ffffffffffffffffffffffffffffffffffffffff1602179055508173ffffffffffffffffffffffffffffffffffffffff168173ffffffffffffffffffffffffffffffffffffffff167f8be0079c531659141344cd1fd0a4f28419497f9722a3daafe3b4186f6b6457e060405160405180910390a35050565b600033905090565b828054610ffd90612138565b90600052602060002090601f01602090048101928261101f5760008555611066565b82601f1061103857805160ff1916838001178555611066565b82800160010185558215611066579182015b8281111561106557825182559160200191906001019061104a565b5b50905061107391906110fd565b5090565b82805461108390612138565b90600052602060002090601f0160209004810192826110a557600085556110ec565b82601f106110be57803560ff19168380011785556110ec565b828001600101855582156110ec579182015b828111156110eb5782358255916020019190600101906110d0565b5b5090506110f991906110fd565b5090565b5b808211156111165760008160009055506001016110fe565b5090565b6000604051905090565b600080fd5b600080fd5b600073ffffffffffffffffffffffffffffffffffffffff82169050919050565b60006111598261112e565b9050919050565b600061116b8261114e565b9050919050565b61117b81611160565b811461118657600080fd5b50565b60008135905061119881611172565b92915050565b600080fd5b600060c082840312156111b9576111b861119e565b5b81905092915050565b600080fd5b600080fd5b600080fd5b60008083601f8401126111e7576111e66111c2565b5b8235905067ffffffffffffffff811115611204576112036111c7565b5b6020830191508360018202830111156112205761121f6111cc565b5b9250929050565b60006060828403121561123d5761123c61119e565b5b81905092915050565b60008060008060006080868803121561126257611261611124565b5b600061127088828901611189565b955050602086013567ffffffffffffffff81111561129157611290611129565b5b61129d888289016111a3565b945050604086013567ffffffffffffffff8111156112be576112bd611129565b5b6112ca888289016111d1565b9350935050606086013567ffffffffffffffff8111156112ed576112ec611129565b5b6112f988828901611227565b9150509295509295909350565b600080fd5b6000601f19601f8301169050919050565b7f4e487b7100000000000000000000000000000000000000000000000000000000600052604160045260246000fd5b6113548261130b565b810181811067ffffffffffffffff821117156113735761137261131c565b5b80604052505050565b600061138661111a565b9050611392828261134b565b919050565b600067ffffffffffffffff8211156113b2576113b161131c565b5b6113bb8261130b565b9050602081019050919050565b82818337600083830152505050565b60006113ea6113e584611397565b61137c565b90508281526020810184848401111561140657611405611306565b5b6114118482856113c8565b509392505050565b600082601f83011261142e5761142d6111c2565b5b813561143e8482602086016113d7565b91505092915050565b60006020828403121561145d5761145c611124565b5b600082013567ffffffffffffffff81111561147b5761147a611129565b5b61148784828501611419565b91505092915050565b600081519050919050565b600082825260208201905092915050565b60005b838110156114ca5780820151818401526020810190506114af565b838111156114d9576000848401525b50505050565b60006114ea82611490565b6114f4818561149b565b93506115048185602086016114ac565b61150d8161130b565b840191505092915050565b6000604082019050818103600083015261153281856114df565b9050818103602083015261154681846114df565b90509392505050565b60008060006060848603121561156857611567611124565b5b600061157686828701611189565b935050602084013567ffffffffffffffff81111561159757611596611129565b5b6115a3868287016111a3565b925050604084013567ffffffffffffffff8111156115c4576115c3611129565b5b6115d086828701611227565b9150509250925092565b60008083601f8401126115f0576115ef6111c2565b5b8235905067ffffffffffffffff81111561160d5761160c6111c7565b5b602083019150836001820283011115611629576116286111cc565b5b9250929050565b6000806000806000806060878903121561164d5761164c611124565b5b600087013567ffffffffffffffff81111561166b5761166a611129565b5b61167789828a016115da565b9650965050602087013567ffffffffffffffff81111561169a57611699611129565b5b6116a689828a016111d1565b9450945050604087013567ffffffffffffffff8111156116c9576116c8611129565b5b6116d589828a016111d1565b92509250509295509295509295565b600281106116f157600080fd5b50565b600081359050611703816116e4565b92915050565b600080600080600080600080600060a08a8c03121561172b5761172a611124565b5b60008a013567ffffffffffffffff81111561174957611748611129565b5b6117558c828d016115da565b995099505060208a013567ffffffffffffffff81111561177857611777611129565b5b6117848c828d016115da565b975097505060408a013567ffffffffffffffff8111156117a7576117a6611129565b5b6117b38c828d016115da565b955095505060606117c68c828d016116f4565b93505060808a013567ffffffffffffffff8111156117e7576117e6611129565b5b6117f38c828d016115da565b92509250509295985092959850929598565b6000819050919050565b600061182a6118256118208461112e565b611805565b61112e565b9050919050565b600061183c8261180f565b9050919050565b600061184e82611831565b9050919050565b61185e81611843565b82525050565b60006020820190506118796000830184611855565b92915050565b6000806000806040858703121561189957611898611124565b5b600085013567ffffffffffffffff8111156118b7576118b6611129565b5b6118c3878288016115da565b9450945050602085013567ffffffffffffffff8111156118e6576118e5611129565b5b6118f2878288016111d1565b925092505092959194509250565b6000806000806000806080878903121561191d5761191c611124565b5b600061192b89828a01611189565b965050602087013567ffffffffffffffff81111561194c5761194b611129565b5b61195889828a016115da565b9550955050604087013567ffffffffffffffff81111561197b5761197a611129565b5b61198789828a01611227565b935050606087013567ffffffffffffffff8111156119a8576119a7611129565b5b6119b489828a016115da565b92509250509295509295509295565b6119cc8161114e565b82525050565b60006020820190506119e760008301846119c3565b92915050565b60008060008060008060008060a0898b031215611a0d57611a0c611124565b5b6000611a1b8b828c01611189565b985050602089013567ffffffffffffffff811115611a3c57611a3b611129565b5b611a488b828c016115da565b9750975050604089013567ffffffffffffffff811115611a6b57611a6a611129565b5b611a778b828c016115da565b9550955050606089013567ffffffffffffffff811115611a9a57611a99611129565b5b611aa68b828c01611227565b935050608089013567ffffffffffffffff811115611ac757611ac6611129565b5b611ad38b828c016115da565b92509250509295985092959890939650565b6000819050919050565b611af881611ae5565b8114611b0357600080fd5b50565b600081359050611b1581611aef565b92915050565b600067ffffffffffffffff82169050919050565b611b3881611b1b565b8114611b4357600080fd5b50565b600081359050611b5581611b2f565b92915050565b60008060008060608587031215611b7557611b74611124565b5b6000611b8387828801611b06565b945050602085013567ffffffffffffffff811115611ba457611ba3611129565b5b611bb0878288016111d1565b93509350506040611bc387828801611b46565b91505092959194509250565b6000806000806000806000806080898b031215611bef57611bee611124565b5b600089013567ffffffffffffffff811115611c0d57611c0c611129565b5b611c198b828c016115da565b9850985050602089013567ffffffffffffffff811115611c3c57611c3b611129565b5b611c488b828c016115da565b9650965050604089013567ffffffffffffffff811115611c6b57611c6a611129565b5b611c778b828c016115da565b9450945050606089013567ffffffffffffffff811115611c9a57611c99611129565b5b611ca68b828c016115da565b92509250509295985092959890939650565b60008060208385031215611ccf57611cce611124565b5b600083013567ffffffffffffffff811115611ced57611cec611129565b5b611cf9858286016115da565b92509250509250929050565b611d0e8161114e565b8114611d1957600080fd5b50565b600081359050611d2b81611d05565b92915050565b600060208284031215611d4757611d46611124565b5b6000611d5584828501611d1c565b91505092915050565b600082825260208201905092915050565b7f50726f6f6620766572696669636174696f6e206661696c656400000000000000600082015250565b6000611da5601983611d5e565b9150611db082611d6f565b602082019050919050565b60006020820190508181036000830152611dd481611d98565b9050919050565b600080fd5b600082356001604003833603038112611dfc57611dfb611ddb565b5b82810191505092915050565b600080fd5b600080fd5b60008083356001602003843603038112611e2f57611e2e611ddb565b5b83810192508235915060208301925067ffffffffffffffff821115611e5757611e56611e08565b5b600182023603841315611e6d57611e6c611e0d565b5b509250929050565b600082825260208201905092915050565b6000611e928385611e75565b9350611e9f8385846113c8565b611ea88361130b565b840190509392505050565b6000611ec26020840184611b06565b905092915050565b611ed381611ae5565b82525050565b600060408301611eec6000840184611e12565b8583036000870152611eff838284611e86565b92505050611f106020840184611eb3565b611f1d6020860182611eca565b508091505092915050565b6000611f376020840184611b46565b905092915050565b611f4881611b1b565b82525050565b60008083356001602003843603038112611f6b57611f6a611ddb565b5b83810192508235915060208301925067ffffffffffffffff821115611f9357611f92611e08565b5b600182023603841315611fa957611fa8611e0d565b5b509250929050565b600082825260208201905092915050565b6000611fce8385611fb1565b9350611fdb8385846113c8565b611fe48361130b565b840190509392505050565b600082905092915050565b6040820161200b6000830183611f28565b6120186000850182611f3f565b506120266020830183611f28565b6120336020850182611f3f565b50505050565b600060c0830161204c6000840184611de0565b848203600086015261205e8282611ed9565b91505061206e6020840184611de0565b84820360208601526120808282611ed9565b9150506120906040840184611f28565b61209d6040860182611f3f565b506120ab6060840184611f4e565b85830360608701526120be838284611fc2565b925050506120cf6080840184611fef565b6120dc6080860182611ffa565b508091505092915050565b600060208201905081810360008301526121018184612039565b905092915050565b7f4e487b7100000000000000000000000000000000000000000000000000000000600052602260045260246000fd5b6000600282049050600182168061215057607f821691505b6020821081141561216457612163612109565b5b50919050565b600080fd5b600080fd5b600080fd5b6000823560016040038336030381126121955761219461216a565b5b80830191505092915050565b600080833560016020038436030381126121be576121bd61216a565b5b80840192508235915067ffffffffffffffff8211156121e0576121df61216f565b5b6020830192506001820236038313156121fc576121fb612174565b5b509250929050565b600080833560016020038436030381126122215761222061216a565b5b80840192508235915067ffffffffffffffff8211156122435761224261216f565b5b60208301925060018202360383131561225f5761225e612174565b5b509250929050565b60006020828403121561227d5761227c611124565b5b600061228b84828501611b46565b91505092915050565b60006122a08385611d5e565b93506122ad8385846113c8565b6122b68361130b565b840190509392505050565b60006122cd838561149b565b93506122da8385846113c8565b6122e38361130b565b840190509392505050565b6122f781611b1b565b82525050565b6000608082019050818103600083015261231881898b612294565b9050818103602083015261232d818789612294565b905081810360408301526123428185876122c1565b905061235160608301846122ee565b98975050505050505050565b600081905092915050565b6000612374838561235d565b93506123818385846113c8565b82840190509392505050565b600061239a828486612368565b91508190509392505050565b7f436c69656e742077697468207468697320494420616c7265616479206578697360008201527f7473000000000000000000000000000000000000000000000000000000000000602082015250565b6000612402602283611d5e565b915061240d826123a6565b604082019050919050565b60006020820190508181036000830152612431816123f5565b9050919050565b60006080820190508181036000830152612453818a8c612294565b9050818103602083015261246881888a612294565b9050818103604083015261247d818688612294565b90508181036060830152612492818486612294565b90509998505050505050505050565b7f436c69656e742077697468207468697320494420646f65736e2774206578697360008201527f7400000000000000000000000000000000000000000000000000000000000000602082015250565b60006124fd602183611d5e565b9150612508826124a1565b604082019050919050565b6000602082019050818103600083015261252c816124f0565b9050919050565b6000602082019050818103600083015261254e8184866122c1565b90509392505050565b60008115159050919050565b61256c81612557565b811461257757600080fd5b50565b60008151905061258981612563565b92915050565b6000602082840312156125a5576125a4611124565b5b60006125b38482850161257a565b91505092915050565b600060408201905081810360008301526125d7818688612294565b905081810360208301526125ec818486612294565b905095945050505050565b6000606082019050818103600083015261261281888a612294565b90508181036020830152612627818688612294565b9050818103604083015261263c818486612294565b9050979650505050505050565b600060408201905081810360008301526126648185876122c1565b905061267360208301846122ee565b949350505050565b60006020820190508181036000830152612696818486612294565b90509392505050565b7f4f776e61626c653a206e6577206f776e657220697320746865207a65726f206160008201527f6464726573730000000000000000000000000000000000000000000000000000602082015250565b60006126fb602683611d5e565b91506127068261269f565b604082019050919050565b6000602082019050818103600083015261272a816126ee565b9050919050565b7f4f776e61626c653a2063616c6c6572206973206e6f7420746865206f776e6572600082015250565b6000612767602083611d5e565b915061277282612731565b602082019050919050565b600060208201905081810360008301526127968161275a565b905091905056fea26469706673582212209be3c514b1786f150be11dc9d4b22be6b25f3e7677b650442d90856c78062bd564736f6c63430008090033",
  "linkReferences": {},
  "deployedLinkReferences": {}
}