{
  "_format": "hh-sol-artifact-1",
  "contractName": "Dispatcher",
  "sourceName": "contracts/Dispatcher.sol",
  "abi": [
    {
      "inputs": [
        {
          "internalType": "address",
          "name": "_verifier",
          "type": "address"
        }
      ],
      "stateMutability": "nonpayable",
      "type": "constructor"
    },
    {
      "anonymous": false,
      "inputs": [
        {
          "indexed": false,
          "internalType": "string",
          "name": "channelId",
          "type": "string"
        },
        {
          "indexed": true,
          "internalType": "address",
          "name": "portId",
          "type": "address"
        }
      ],
      "name": "CloseIbcChannel",
      "type": "event"
    },
    {
      "anonymous": false,
      "inputs": [
        {
          "indexed": true,
          "internalType": "address",
          "name": "portAddress",
          "type": "address"
        },
        {
          "indexed": true,
          "internalType": "bytes32",
          "name": "channelId",
          "type": "bytes32"
        },
        {
          "indexed": false,
          "internalType": "string",
          "name": "counterpartyPortId",
          "type": "string"
        },
        {
          "indexed": true,
          "internalType": "bytes32",
          "name": "counterpartyChannelId",
          "type": "bytes32"
        },
        {
          "indexed": false,
          "internalType": "string[]",
          "name": "connectionHops",
          "type": "string[]"
        }
      ],
      "name": "ConnectIbcChannel",
      "type": "event"
    },
    {
      "anonymous": false,
      "inputs": [
        {
          "indexed": true,
          "internalType": "bytes32",
          "name": "srcChannelId",
          "type": "bytes32"
        },
        {
          "indexed": false,
          "internalType": "string",
          "name": "srcPortId",
          "type": "string"
        },
        {
          "indexed": true,
          "internalType": "bytes32",
          "name": "destChannelId",
          "type": "bytes32"
        },
        {
          "indexed": false,
          "internalType": "string",
          "name": "destPortId",
          "type": "string"
        },
        {
          "indexed": false,
          "internalType": "bytes",
          "name": "data",
          "type": "bytes"
        },
        {
          "indexed": false,
          "internalType": "uint64",
          "name": "sequence",
          "type": "uint64"
        }
      ],
      "name": "OnRecvPacket",
      "type": "event"
    },
    {
      "anonymous": false,
      "inputs": [
        {
          "indexed": true,
          "internalType": "address",
          "name": "portAddress",
          "type": "address"
        },
        {
          "indexed": true,
          "internalType": "bytes32",
          "name": "channelId",
          "type": "bytes32"
        },
        {
          "indexed": true,
          "internalType": "bytes32",
          "name": "counterpartyChannelId",
          "type": "bytes32"
        },
        {
          "indexed": false,
          "internalType": "bytes32",
          "name": "version",
          "type": "bytes32"
        },
        {
          "indexed": false,
          "internalType": "enum ChannelOrder",
          "name": "ordering",
          "type": "uint8"
        },
        {
          "indexed": false,
          "internalType": "string[]",
          "name": "connectionHops",
          "type": "string[]"
        },
        {
          "indexed": false,
          "internalType": "string",
          "name": "counterpartyPortId",
          "type": "string"
        },
        {
          "indexed": false,
          "internalType": "bytes32",
          "name": "counterpartyVersion",
          "type": "bytes32"
        }
      ],
      "name": "OpenIbcChannel",
      "type": "event"
    },
    {
      "anonymous": false,
      "inputs": [
        {
          "indexed": true,
          "internalType": "address",
          "name": "previousOwner",
          "type": "address"
        },
        {
          "indexed": true,
          "internalType": "address",
          "name": "newOwner",
          "type": "address"
        }
      ],
      "name": "OwnershipTransferred",
      "type": "event"
    },
    {
      "anonymous": false,
      "inputs": [
        {
          "indexed": true,
          "internalType": "address",
          "name": "portId",
          "type": "address"
        },
        {
          "indexed": true,
          "internalType": "bytes32",
          "name": "channelId",
          "type": "bytes32"
        },
        {
          "indexed": false,
          "internalType": "bytes",
          "name": "packet",
          "type": "bytes"
        },
        {
          "indexed": false,
          "internalType": "uint64",
          "name": "timeoutTimestamp",
          "type": "uint64"
        }
      ],
      "name": "SendPacket",
      "type": "event"
    },
    {
      "inputs": [
        {
          "internalType": "string",
          "name": "channelId",
          "type": "string"
        }
      ],
      "name": "closeIbcChannel",
      "outputs": [],
      "stateMutability": "nonpayable",
      "type": "function"
    },
    {
      "inputs": [
        {
          "internalType": "address",
          "name": "portAddress",
          "type": "address"
        },
        {
          "internalType": "bytes32",
          "name": "channelId",
          "type": "bytes32"
        },
        {
          "internalType": "string[]",
          "name": "connectionHops",
          "type": "string[]"
        },
        {
          "internalType": "enum ChannelOrder",
          "name": "ordering",
          "type": "uint8"
        },
        {
          "internalType": "string",
          "name": "counterpartyPortId",
          "type": "string"
        },
        {
          "internalType": "bytes32",
          "name": "counterpartyChannelId",
          "type": "bytes32"
        },
        {
          "internalType": "bytes32",
          "name": "counterpartyVersion",
          "type": "bytes32"
        },
        {
          "components": [
            {
              "internalType": "uint64",
              "name": "proofHeight",
              "type": "uint64"
            },
            {
              "internalType": "bytes",
              "name": "proof",
              "type": "bytes"
            }
          ],
          "internalType": "struct Proof",
          "name": "proof",
          "type": "tuple"
        }
      ],
      "name": "connectIbcChannel",
      "outputs": [],
      "stateMutability": "nonpayable",
      "type": "function"
    },
    {
      "inputs": [
        {
          "internalType": "bytes",
          "name": "clientState",
          "type": "bytes"
        },
        {
          "internalType": "bytes",
          "name": "consensusState",
          "type": "bytes"
        }
      ],
      "name": "createClient",
      "outputs": [],
      "stateMutability": "nonpayable",
      "type": "function"
    },
    {
      "inputs": [],
      "name": "latestConsensusState",
      "outputs": [
        {
          "internalType": "bytes",
          "name": "",
          "type": "bytes"
        }
      ],
      "stateMutability": "view",
      "type": "function"
    },
    {
      "inputs": [
        {
          "internalType": "contract IbcReceiver",
          "name": "receiver",
          "type": "address"
        },
        {
          "components": [
            {
              "components": [
                {
                  "internalType": "string",
                  "name": "portId",
                  "type": "string"
                },
                {
                  "internalType": "bytes32",
                  "name": "channelId",
                  "type": "bytes32"
                }
              ],
              "internalType": "struct IbcEndpoint",
              "name": "src",
              "type": "tuple"
            },
            {
              "components": [
                {
                  "internalType": "string",
                  "name": "portId",
                  "type": "string"
                },
                {
                  "internalType": "bytes32",
                  "name": "channelId",
                  "type": "bytes32"
                }
              ],
              "internalType": "struct IbcEndpoint",
              "name": "dest",
              "type": "tuple"
            },
            {
              "internalType": "uint64",
              "name": "sequence",
              "type": "uint64"
            },
            {
              "internalType": "bytes",
              "name": "data",
              "type": "bytes"
            },
            {
              "components": [
                {
                  "internalType": "uint64",
                  "name": "block",
                  "type": "uint64"
                },
                {
                  "internalType": "uint64",
                  "name": "timestamp",
                  "type": "uint64"
                }
              ],
              "internalType": "struct IbcTimeout",
              "name": "timeout",
              "type": "tuple"
            }
          ],
          "internalType": "struct IbcPacket",
          "name": "packet",
          "type": "tuple"
        },
        {
          "internalType": "bytes",
          "name": "acknowledgement",
          "type": "bytes"
        },
        {
          "components": [
            {
              "internalType": "uint64",
              "name": "proofHeight",
              "type": "uint64"
            },
            {
              "internalType": "bytes",
              "name": "proof",
              "type": "bytes"
            }
          ],
          "internalType": "struct Proof",
          "name": "proof",
          "type": "tuple"
        }
      ],
      "name": "onAcknowledgementPacket",
      "outputs": [],
      "stateMutability": "nonpayable",
      "type": "function"
    },
    {
      "inputs": [
        {
          "internalType": "contract IbcReceiver",
          "name": "receiver",
          "type": "address"
        },
        {
          "components": [
            {
              "components": [
                {
                  "internalType": "string",
                  "name": "portId",
                  "type": "string"
                },
                {
                  "internalType": "bytes32",
                  "name": "channelId",
                  "type": "bytes32"
                }
              ],
              "internalType": "struct IbcEndpoint",
              "name": "src",
              "type": "tuple"
            },
            {
              "components": [
                {
                  "internalType": "string",
                  "name": "portId",
                  "type": "string"
                },
                {
                  "internalType": "bytes32",
                  "name": "channelId",
                  "type": "bytes32"
                }
              ],
              "internalType": "struct IbcEndpoint",
              "name": "dest",
              "type": "tuple"
            },
            {
              "internalType": "uint64",
              "name": "sequence",
              "type": "uint64"
            },
            {
              "internalType": "bytes",
              "name": "data",
              "type": "bytes"
            },
            {
              "components": [
                {
                  "internalType": "uint64",
                  "name": "block",
                  "type": "uint64"
                },
                {
                  "internalType": "uint64",
                  "name": "timestamp",
                  "type": "uint64"
                }
              ],
              "internalType": "struct IbcTimeout",
              "name": "timeout",
              "type": "tuple"
            }
          ],
          "internalType": "struct IbcPacket",
          "name": "packet",
          "type": "tuple"
        },
        {
          "components": [
            {
              "internalType": "uint64",
              "name": "proofHeight",
              "type": "uint64"
            },
            {
              "internalType": "bytes",
              "name": "proof",
              "type": "bytes"
            }
          ],
          "internalType": "struct Proof",
          "name": "proof",
          "type": "tuple"
        }
      ],
      "name": "onRecvPacket",
      "outputs": [],
      "stateMutability": "nonpayable",
      "type": "function"
    },
    {
      "inputs": [
        {
          "internalType": "contract IbcReceiver",
          "name": "receiver",
          "type": "address"
        },
        {
          "components": [
            {
              "components": [
                {
                  "internalType": "string",
                  "name": "portId",
                  "type": "string"
                },
                {
                  "internalType": "bytes32",
                  "name": "channelId",
                  "type": "bytes32"
                }
              ],
              "internalType": "struct IbcEndpoint",
              "name": "src",
              "type": "tuple"
            },
            {
              "components": [
                {
                  "internalType": "string",
                  "name": "portId",
                  "type": "string"
                },
                {
                  "internalType": "bytes32",
                  "name": "channelId",
                  "type": "bytes32"
                }
              ],
              "internalType": "struct IbcEndpoint",
              "name": "dest",
              "type": "tuple"
            },
            {
              "internalType": "uint64",
              "name": "sequence",
              "type": "uint64"
            },
            {
              "internalType": "bytes",
              "name": "data",
              "type": "bytes"
            },
            {
              "components": [
                {
                  "internalType": "uint64",
                  "name": "block",
                  "type": "uint64"
                },
                {
                  "internalType": "uint64",
                  "name": "timestamp",
                  "type": "uint64"
                }
              ],
              "internalType": "struct IbcTimeout",
              "name": "timeout",
              "type": "tuple"
            }
          ],
          "internalType": "struct IbcPacket",
          "name": "packet",
          "type": "tuple"
        },
        {
          "components": [
            {
              "internalType": "uint64",
              "name": "proofHeight",
              "type": "uint64"
            },
            {
              "internalType": "bytes",
              "name": "proof",
              "type": "bytes"
            }
          ],
          "internalType": "struct Proof",
          "name": "proof",
          "type": "tuple"
        }
      ],
      "name": "onTimeoutPacket",
      "outputs": [],
      "stateMutability": "nonpayable",
      "type": "function"
    },
    {
      "inputs": [
        {
          "internalType": "address",
          "name": "portAddress",
          "type": "address"
        },
        {
          "internalType": "bytes32",
          "name": "version",
          "type": "bytes32"
        },
        {
          "internalType": "enum ChannelOrder",
          "name": "ordering",
          "type": "uint8"
        },
        {
          "internalType": "string[]",
          "name": "connectionHops",
          "type": "string[]"
        },
        {
          "internalType": "bytes32",
          "name": "counterpartyChannelId",
          "type": "bytes32"
        },
        {
          "internalType": "string",
          "name": "counterpartyPortId",
          "type": "string"
        },
        {
          "internalType": "bytes32",
          "name": "counterpartyVersion",
          "type": "bytes32"
        },
        {
          "components": [
            {
              "internalType": "uint64",
              "name": "proofHeight",
              "type": "uint64"
            },
            {
              "internalType": "bytes",
              "name": "proof",
              "type": "bytes"
            }
          ],
          "internalType": "struct Proof",
          "name": "proof",
          "type": "tuple"
        }
      ],
      "name": "openIbcChannel",
      "outputs": [],
      "stateMutability": "nonpayable",
      "type": "function"
    },
    {
      "inputs": [],
      "name": "owner",
      "outputs": [
        {
          "internalType": "address",
          "name": "",
          "type": "address"
        }
      ],
      "stateMutability": "view",
      "type": "function"
    },
    {
      "inputs": [
        {
          "internalType": "address",
          "name": "",
          "type": "address"
        },
        {
          "internalType": "bytes32",
          "name": "",
          "type": "bytes32"
        }
      ],
      "name": "portChannelMap",
      "outputs": [
        {
          "internalType": "bytes32",
          "name": "version",
          "type": "bytes32"
        },
        {
          "internalType": "enum ChannelOrder",
          "name": "ordering",
          "type": "uint8"
        },
        {
          "internalType": "string",
          "name": "counterpartyPortId",
          "type": "string"
        },
        {
          "internalType": "bytes32",
          "name": "counterpartyChannelId",
          "type": "bytes32"
        }
      ],
      "stateMutability": "view",
      "type": "function"
    },
    {
      "inputs": [],
      "name": "renounceOwnership",
      "outputs": [],
      "stateMutability": "nonpayable",
      "type": "function"
    },
    {
      "inputs": [
        {
          "internalType": "bytes32",
          "name": "channelId",
          "type": "bytes32"
        },
        {
          "internalType": "bytes",
          "name": "packet",
          "type": "bytes"
        },
        {
          "internalType": "uint64",
          "name": "timeoutTimestamp",
          "type": "uint64"
        }
      ],
      "name": "sendPacket",
      "outputs": [],
      "stateMutability": "nonpayable",
      "type": "function"
    },
    {
      "inputs": [
        {
          "internalType": "address",
          "name": "newOwner",
          "type": "address"
        }
      ],
      "name": "transferOwnership",
      "outputs": [],
      "stateMutability": "nonpayable",
      "type": "function"
    },
    {
      "inputs": [
        {
          "internalType": "bytes",
          "name": "consensusState",
          "type": "bytes"
        }
      ],
      "name": "updateClient",
      "outputs": [],
      "stateMutability": "nonpayable",
      "type": "function"
    }
  ],
  "bytecode": "0x60806040526000600360006101000a81548167ffffffffffffffff021916908367ffffffffffffffff1602179055503480156200003b57600080fd5b50604051620033d9380380620033d983398181016040528101906200006191906200021a565b6200008162000075620000e460201b60201c565b620000ec60201b60201c565b80600160006101000a81548173ffffffffffffffffffffffffffffffffffffffff021916908373ffffffffffffffffffffffffffffffffffffffff1602179055506000600160146101000a81548160ff021916908315150217905550506200024c565b600033905090565b60008060009054906101000a900473ffffffffffffffffffffffffffffffffffffffff169050816000806101000a81548173ffffffffffffffffffffffffffffffffffffffff021916908373ffffffffffffffffffffffffffffffffffffffff1602179055508173ffffffffffffffffffffffffffffffffffffffff168173ffffffffffffffffffffffffffffffffffffffff167f8be0079c531659141344cd1fd0a4f28419497f9722a3daafe3b4186f6b6457e060405160405180910390a35050565b600080fd5b600073ffffffffffffffffffffffffffffffffffffffff82169050919050565b6000620001e282620001b5565b9050919050565b620001f481620001d5565b81146200020057600080fd5b50565b6000815190506200021481620001e9565b92915050565b600060208284031215620002335762000232620001b0565b5b6000620002438482850162000203565b91505092915050565b61317d806200025c6000396000f3fe608060405234801561001057600080fd5b50600436106100ea5760003560e01c80638da5cb5b1161008c578063c3e1155c11610066578063c3e1155c14610210578063d2e9aa561461022c578063e6815c1214610248578063f2fde38b14610264576100ea565b80638da5cb5b146101a1578063b2b1bf03146101bf578063c2a2514d146101f2576100ea565b80633e24aaf3116100c85780633e24aaf3146101435780634c9778d31461015f57806364260a601461017b578063715018a614610197576100ea565b80630ad8d666146100ef5780630bece3561461010b57806328f2c4c014610127575b600080fd5b6101096004803603810190610104919061162a565b610280565b005b6101256004803603810190610120919061171a565b610392565b005b610141600480360381019061013c919061189a565b6104e6565b005b61015d600480360381019061015891906119ad565b6107a5565b005b61017960048036038101906101749190611a2e565b61082f565b005b6101956004803603810190610190919061162a565b610b67565b005b61019f610c1f565b005b6101a9610c33565b6040516101b69190611b50565b60405180910390f35b6101d960048036038101906101d49190611b6b565b610c5c565b6040516101e99493929190611cca565b60405180910390f35b6101fa610d2e565b6040516102079190611d6b565b60405180910390f35b61022a60048036038101906102259190611dcd565b610dbc565b005b61024660048036038101906102419190611e41565b610e15565b005b610262600480360381019061025d9190611f01565b610ecf565b005b61027e60048036038101906102799190611f4e565b610f23565b005b61028981610fa7565b6102c8576040517f08c379a00000000000000000000000000000000000000000000000000000000081526004016102bf90611fc7565b60405180910390fd5b8180602001906102d89190611ff6565b602001358280600001906102ec9190611ff6565b602001357f080631928e492258b6a102fc2ab3e0a8dfcb747ab0885c25f9cb7a8d486210368480600001906103219190611ff6565b8060000190610330919061201e565b8680602001906103409190611ff6565b806000019061034f919061201e565b88806060019061035f9190612081565b8a604001602081019061037291906120e4565b6040516103859796959493929190612189565b60405180910390a3505050565b600160149054906101000a900460ff166103e1576040517f08c379a00000000000000000000000000000000000000000000000000000000081526004016103d890612235565b60405180910390fd5b600160009054906101000a900473ffffffffffffffffffffffffffffffffffffffff1673ffffffffffffffffffffffffffffffffffffffff1663e1ec100c600284846040518463ffffffff1660e01b81526004016104419392919061234b565b60206040518083038186803b15801561045957600080fd5b505afa15801561046d573d6000803e3d6000fd5b505050506040513d601f19601f8201168201806040525081019061049191906123bc565b6104d0576040517f08c379a00000000000000000000000000000000000000000000000000000000081526004016104c79061245b565b60405180910390fd5b8181600291906104e1929190611376565b505050565b600160009054906101000a900473ffffffffffffffffffffffffffffffffffffffff1673ffffffffffffffffffffffffffffffffffffffff16639511059d6002836040518060800160405280605b81526020016130ed605b91396040518463ffffffff1660e01b815260040161055e939291906125ec565b60206040518083038186803b15801561057657600080fd5b505afa15801561058a573d6000803e3d6000fd5b505050506040513d601f19601f820116820180604052508101906105ae91906123bc565b6105ed576040517f08c379a00000000000000000000000000000000000000000000000000000000081526004016105e490612697565b60405180910390fd5b60008a905060006106906040518060400160405280600881526020017f6368616e6e656c2d00000000000000000000000000000000000000000000000081525061068b6003600081819054906101000a900467ffffffffffffffff1680929190610656906126e6565b91906101000a81548167ffffffffffffffff021916908367ffffffffffffffff16021790555067ffffffffffffffff16610fd5565b6110ad565b61069990612749565b905060008273ffffffffffffffffffffffffffffffffffffffff1663da972ca6838e8e8e8e8e8e8e8e6040518a63ffffffff1660e01b81526004016106e699989796959493929190612905565b602060405180830381600087803b15801561070057600080fd5b505af1158015610714573d6000803e3d6000fd5b505050506040513d601f19601f82011682018060405250810190610738919061299b565b905087828e73ffffffffffffffffffffffffffffffffffffffff167f3a062c69da5f8c9a2e92280798c3c02f22a85b94ab35c8d54dc32b03252ae68b848f8f8f8e8e8e60405161078e97969594939291906129c8565b60405180910390a450505050505050505050505050565b6107ad6110d9565b600160149054906101000a900460ff16156107fd576040517f08c379a00000000000000000000000000000000000000000000000000000000081526004016107f490612a79565b60405180910390fd5b60018060146101000a81548160ff021916908315150217905550818160029190610828929190611376565b5050505050565b600160009054906101000a900473ffffffffffffffffffffffffffffffffffffffff1673ffffffffffffffffffffffffffffffffffffffff16639511059d6002836040518060800160405280605e815260200161308f605e91396040518463ffffffff1660e01b81526004016108a7939291906125ec565b60206040518083038186803b1580156108bf57600080fd5b505afa1580156108d3573d6000803e3d6000fd5b505050506040513d601f19601f820116820180604052508101906108f791906123bc565b610936576040517f08c379a000000000000000000000000000000000000000000000000000000000815260040161092d90612697565b60405180910390fd5b60008a90508073ffffffffffffffffffffffffffffffffffffffff1663e60a72938b86866040518463ffffffff1660e01b815260040161097893929190612a99565b600060405180830381600087803b15801561099257600080fd5b505af11580156109a6573d6000803e3d6000fd5b505050506040518060a001604052808481526020018860018111156109ce576109cd611bba565b5b81526020018a8a906109e09190612ca4565b815260200187878080601f016020809104026020016040519081016040528093929190818152602001838380828437600081840152601f19601f82011690508083019250505050505050815260200185815250600460008d73ffffffffffffffffffffffffffffffffffffffff1673ffffffffffffffffffffffffffffffffffffffff16815260200190815260200160002060008c81526020019081526020016000206000820151816000015560208201518160010160006101000a81548160ff02191690836001811115610ab857610ab7611bba565b5b02179055506040820151816002019080519060200190610ad99291906113fc565b506060820151816003019080519060200190610af692919061145c565b5060808201518160040155905050838a8c73ffffffffffffffffffffffffffffffffffffffff167f57ea540ad7b8bfd2813b8637764ba029fedc52de3f812934a46511506aa11b8e89898e8e604051610b529493929190612cb9565b60405180910390a45050505050505050505050565b610b7081610fa7565b610baf576040517f08c379a0000000000000000000000000000000000000000000000000000000008152600401610ba690611fc7565b60405180910390fd5b8273ffffffffffffffffffffffffffffffffffffffff1663b33c2577836040518263ffffffff1660e01b8152600401610be89190612e89565b600060405180830381600087803b158015610c0257600080fd5b505af1158015610c16573d6000803e3d6000fd5b50505050505050565b610c276110d9565b610c316000611157565b565b60008060009054906101000a900473ffffffffffffffffffffffffffffffffffffffff16905090565b6004602052816000526040600020602052806000526040600020600091509150508060000154908060010160009054906101000a900460ff1690806003018054610ca590612284565b80601f0160208091040260200160405190810160405280929190818152602001828054610cd190612284565b8015610d1e5780601f10610cf357610100808354040283529160200191610d1e565b820191906000526020600020905b815481529060010190602001808311610d0157829003601f168201915b5050505050908060040154905084565b60028054610d3b90612284565b80601f0160208091040260200160405190810160405280929190818152602001828054610d6790612284565b8015610db45780601f10610d8957610100808354040283529160200191610db4565b820191906000526020600020905b815481529060010190602001808311610d9757829003601f168201915b505050505081565b833373ffffffffffffffffffffffffffffffffffffffff167fe5f4762afde15256ce24aa385b449d27b7d2776921f3c673f8162ddb5b7a2f16858585604051610e0793929190612eab565b60405180910390a350505050565b610e1e81610fa7565b610e5d576040517f08c379a0000000000000000000000000000000000000000000000000000000008152600401610e5490611fc7565b60405180910390fd5b8473ffffffffffffffffffffffffffffffffffffffff1663f45cf5e4856040518263ffffffff1660e01b8152600401610e969190612e89565b600060405180830381600087803b158015610eb057600080fd5b505af1158015610ec4573d6000803e3d6000fd5b505050505050505050565b3373ffffffffffffffffffffffffffffffffffffffff167f18280cf62c6d3f3519d7cff5c5b7e91021dd17a0278ba5668976d82bdc9faa9e8383604051610f17929190612edd565b60405180910390a25050565b610f2b6110d9565b600073ffffffffffffffffffffffffffffffffffffffff168173ffffffffffffffffffffffffffffffffffffffff161415610f9b576040517f08c379a0000000000000000000000000000000000000000000000000000000008152600401610f9290612f73565b60405180910390fd5b610fa481611157565b50565b600080828060200190610fba9190612081565b90501415610fcb5760009050610fd0565b600190505b919050565b606060006001610fe48461121b565b01905060008167ffffffffffffffff81111561100357611002612ad0565b5b6040519080825280601f01601f1916602001820160405280156110355781602001600182028036833780820191505090505b509050600082602001820190505b6001156110a2578080600190039150507f3031323334353637383961626364656600000000000000000000000000000000600a86061a8153600a858161108c5761108b612f93565b5b049450600085141561109d576110a2565b611043565b819350505050919050565b606082826040516020016110c2929190612ffe565b604051602081830303815290604052905092915050565b6110e161136e565b73ffffffffffffffffffffffffffffffffffffffff166110ff610c33565b73ffffffffffffffffffffffffffffffffffffffff1614611155576040517f08c379a000000000000000000000000000000000000000000000000000000000815260040161114c9061306e565b60405180910390fd5b565b60008060009054906101000a900473ffffffffffffffffffffffffffffffffffffffff169050816000806101000a81548173ffffffffffffffffffffffffffffffffffffffff021916908373ffffffffffffffffffffffffffffffffffffffff1602179055508173ffffffffffffffffffffffffffffffffffffffff168173ffffffffffffffffffffffffffffffffffffffff167f8be0079c531659141344cd1fd0a4f28419497f9722a3daafe3b4186f6b6457e060405160405180910390a35050565b600080600090507a184f03e93ff9f4daa797ed6e38ed64bf6a1f0100000000000000008310611279577a184f03e93ff9f4daa797ed6e38ed64bf6a1f010000000000000000838161126f5761126e612f93565b5b0492506040810190505b6d04ee2d6d415b85acef810000000083106112b6576d04ee2d6d415b85acef810000000083816112ac576112ab612f93565b5b0492506020810190505b662386f26fc1000083106112e557662386f26fc1000083816112db576112da612f93565b5b0492506010810190505b6305f5e100831061130e576305f5e100838161130457611303612f93565b5b0492506008810190505b612710831061133357612710838161132957611328612f93565b5b0492506004810190505b60648310611356576064838161134c5761134b612f93565b5b0492506002810190505b600a8310611365576001810190505b80915050919050565b600033905090565b82805461138290612284565b90600052602060002090601f0160209004810192826113a457600085556113eb565b82601f106113bd57803560ff19168380011785556113eb565b828001600101855582156113eb579182015b828111156113ea5782358255916020019190600101906113cf565b5b5090506113f891906114e2565b5090565b82805482825590600052602060002090810192821561144b579160200282015b8281111561144a57825182908051906020019061143a92919061145c565b509160200191906001019061141c565b5b50905061145891906114ff565b5090565b82805461146890612284565b90600052602060002090601f01602090048101928261148a57600085556114d1565b82601f106114a357805160ff19168380011785556114d1565b828001600101855582156114d1579182015b828111156114d05782518255916020019190600101906114b5565b5b5090506114de91906114e2565b5090565b5b808211156114fb5760008160009055506001016114e3565b5090565b5b8082111561151f57600081816115169190611523565b50600101611500565b5090565b50805461152f90612284565b6000825580601f106115415750611560565b601f01602090049060005260206000209081019061155f91906114e2565b5b50565b6000604051905090565b600080fd5b600080fd5b600073ffffffffffffffffffffffffffffffffffffffff82169050919050565b60006115a282611577565b9050919050565b60006115b482611597565b9050919050565b6115c4816115a9565b81146115cf57600080fd5b50565b6000813590506115e1816115bb565b92915050565b600080fd5b600060c08284031215611602576116016115e7565b5b81905092915050565b600060408284031215611621576116206115e7565b5b81905092915050565b6000806000606084860312156116435761164261156d565b5b6000611651868287016115d2565b935050602084013567ffffffffffffffff81111561167257611671611572565b5b61167e868287016115ec565b925050604084013567ffffffffffffffff81111561169f5761169e611572565b5b6116ab8682870161160b565b9150509250925092565b600080fd5b600080fd5b600080fd5b60008083601f8401126116da576116d96116b5565b5b8235905067ffffffffffffffff8111156116f7576116f66116ba565b5b602083019150836001820283011115611713576117126116bf565b5b9250929050565b600080602083850312156117315761173061156d565b5b600083013567ffffffffffffffff81111561174f5761174e611572565b5b61175b858286016116c4565b92509250509250929050565b61177081611597565b811461177b57600080fd5b50565b60008135905061178d81611767565b92915050565b6000819050919050565b6117a681611793565b81146117b157600080fd5b50565b6000813590506117c38161179d565b92915050565b600281106117d657600080fd5b50565b6000813590506117e8816117c9565b92915050565b60008083601f840112611804576118036116b5565b5b8235905067ffffffffffffffff811115611821576118206116ba565b5b60208301915083602082028301111561183d5761183c6116bf565b5b9250929050565b60008083601f84011261185a576118596116b5565b5b8235905067ffffffffffffffff811115611877576118766116ba565b5b602083019150836001820283011115611893576118926116bf565b5b9250929050565b6000806000806000806000806000806101008b8d0312156118be576118bd61156d565b5b60006118cc8d828e0161177e565b9a505060206118dd8d828e016117b4565b99505060406118ee8d828e016117d9565b98505060608b013567ffffffffffffffff81111561190f5761190e611572565b5b61191b8d828e016117ee565b9750975050608061192e8d828e016117b4565b95505060a08b013567ffffffffffffffff81111561194f5761194e611572565b5b61195b8d828e01611844565b945094505060c061196e8d828e016117b4565b92505060e08b013567ffffffffffffffff81111561198f5761198e611572565b5b61199b8d828e0161160b565b9150509295989b9194979a5092959850565b600080600080604085870312156119c7576119c661156d565b5b600085013567ffffffffffffffff8111156119e5576119e4611572565b5b6119f1878288016116c4565b9450945050602085013567ffffffffffffffff811115611a1457611a13611572565b5b611a20878288016116c4565b925092505092959194509250565b6000806000806000806000806000806101008b8d031215611a5257611a5161156d565b5b6000611a608d828e0161177e565b9a50506020611a718d828e016117b4565b99505060408b013567ffffffffffffffff811115611a9257611a91611572565b5b611a9e8d828e016117ee565b98509850506060611ab18d828e016117d9565b96505060808b013567ffffffffffffffff811115611ad257611ad1611572565b5b611ade8d828e01611844565b955095505060a0611af18d828e016117b4565b93505060c0611b028d828e016117b4565b92505060e08b013567ffffffffffffffff811115611b2357611b22611572565b5b611b2f8d828e0161160b565b9150509295989b9194979a5092959850565b611b4a81611597565b82525050565b6000602082019050611b656000830184611b41565b92915050565b60008060408385031215611b8257611b8161156d565b5b6000611b908582860161177e565b9250506020611ba1858286016117b4565b9150509250929050565b611bb481611793565b82525050565b7f4e487b7100000000000000000000000000000000000000000000000000000000600052602160045260246000fd5b60028110611bfa57611bf9611bba565b5b50565b6000819050611c0b82611be9565b919050565b6000611c1b82611bfd565b9050919050565b611c2b81611c10565b82525050565b600081519050919050565b600082825260208201905092915050565b60005b83811015611c6b578082015181840152602081019050611c50565b83811115611c7a576000848401525b50505050565b6000601f19601f8301169050919050565b6000611c9c82611c31565b611ca68185611c3c565b9350611cb6818560208601611c4d565b611cbf81611c80565b840191505092915050565b6000608082019050611cdf6000830187611bab565b611cec6020830186611c22565b8181036040830152611cfe8185611c91565b9050611d0d6060830184611bab565b95945050505050565b600081519050919050565b600082825260208201905092915050565b6000611d3d82611d16565b611d478185611d21565b9350611d57818560208601611c4d565b611d6081611c80565b840191505092915050565b60006020820190508181036000830152611d858184611d32565b905092915050565b600067ffffffffffffffff82169050919050565b611daa81611d8d565b8114611db557600080fd5b50565b600081359050611dc781611da1565b92915050565b60008060008060608587031215611de757611de661156d565b5b6000611df5878288016117b4565b945050602085013567ffffffffffffffff811115611e1657611e15611572565b5b611e22878288016116c4565b93509350506040611e3587828801611db8565b91505092959194509250565b600080600080600060808688031215611e5d57611e5c61156d565b5b6000611e6b888289016115d2565b955050602086013567ffffffffffffffff811115611e8c57611e8b611572565b5b611e98888289016115ec565b945050604086013567ffffffffffffffff811115611eb957611eb8611572565b5b611ec5888289016116c4565b9350935050606086013567ffffffffffffffff811115611ee857611ee7611572565b5b611ef48882890161160b565b9150509295509295909350565b60008060208385031215611f1857611f1761156d565b5b600083013567ffffffffffffffff811115611f3657611f35611572565b5b611f4285828601611844565b92509250509250929050565b600060208284031215611f6457611f6361156d565b5b6000611f728482850161177e565b91505092915050565b7f50726f6f6620766572696669636174696f6e206661696c656400000000000000600082015250565b6000611fb1601983611c3c565b9150611fbc82611f7b565b602082019050919050565b60006020820190508181036000830152611fe081611fa4565b9050919050565b600080fd5b600080fd5b600080fd5b60008235600160400383360303811261201257612011611fe7565b5b80830191505092915050565b6000808335600160200384360303811261203b5761203a611fe7565b5b80840192508235915067ffffffffffffffff82111561205d5761205c611fec565b5b60208301925060018202360383131561207957612078611ff1565b5b509250929050565b6000808335600160200384360303811261209e5761209d611fe7565b5b80840192508235915067ffffffffffffffff8211156120c0576120bf611fec565b5b6020830192506001820236038313156120dc576120db611ff1565b5b509250929050565b6000602082840312156120fa576120f961156d565b5b600061210884828501611db8565b91505092915050565b82818337600083830152505050565b600061212c8385611c3c565b9350612139838584612111565b61214283611c80565b840190509392505050565b60006121598385611d21565b9350612166838584612111565b61216f83611c80565b840190509392505050565b61218381611d8d565b82525050565b600060808201905081810360008301526121a481898b612120565b905081810360208301526121b9818789612120565b905081810360408301526121ce81858761214d565b90506121dd606083018461217a565b98975050505050505050565b7f436c69656e74206e6f7420637265617465640000000000000000000000000000600082015250565b600061221f601283611c3c565b915061222a826121e9565b602082019050919050565b6000602082019050818103600083015261224e81612212565b9050919050565b7f4e487b7100000000000000000000000000000000000000000000000000000000600052602260045260246000fd5b6000600282049050600182168061229c57607f821691505b602082108114156122b0576122af612255565b5b50919050565b60008190508160005260206000209050919050565b600081546122d881612284565b6122e28186611d21565b945060018216600081146122fd576001811461230f57612342565b60ff1983168652602086019350612342565b612318856122b6565b60005b8381101561233a5781548189015260018201915060208101905061231b565b808801955050505b50505092915050565b6000604082019050818103600083015261236581866122cb565b9050818103602083015261237a81848661214d565b9050949350505050565b60008115159050919050565b61239981612384565b81146123a457600080fd5b50565b6000815190506123b681612390565b92915050565b6000602082840312156123d2576123d161156d565b5b60006123e0848285016123a7565b91505092915050565b7f436f6e73656e73757320737461746520766572696669636174696f6e2066616960008201527f6c65640000000000000000000000000000000000000000000000000000000000602082015250565b6000612445602383611c3c565b9150612450826123e9565b604082019050919050565b6000602082019050818103600083015261247481612438565b9050919050565b600061248a6020840184611db8565b905092915050565b61249b81611d8d565b82525050565b600080fd5b600080fd5b600080fd5b600080833560016020038436030381126124cd576124cc6124ab565b5b83810192508235915060208301925067ffffffffffffffff8211156124f5576124f46124a1565b5b60018202360384131561250b5761250a6124a6565b5b509250929050565b600082825260208201905092915050565b60006125308385612513565b935061253d838584612111565b61254683611c80565b840190509392505050565b600060408301612564600084018461247b565b6125716000860182612492565b5061257f60208401846124b0565b8583036020870152612592838284612524565b925050508091505092915050565b7f6368616e6e656c2f706174682f746f2f62652f61646465642f68657265000000600082015250565b60006125d6601d83611d21565b91506125e1826125a0565b602082019050919050565b6000608082019050818103600083015261260681866122cb565b9050818103602083015261261a8185612551565b9050818103604083015261262d816125c9565b905081810360608301526126418184611d32565b9050949350505050565b7f4661696c20746f2070726f7665206368616e6e656c2073746174650000000000600082015250565b6000612681601b83611c3c565b915061268c8261264b565b602082019050919050565b600060208201905081810360008301526126b081612674565b9050919050565b7f4e487b7100000000000000000000000000000000000000000000000000000000600052601160045260246000fd5b60006126f182611d8d565b915067ffffffffffffffff82141561270c5761270b6126b7565b5b600182019050919050565b6000819050602082019050919050565b60006127338251611793565b80915050919050565b600082821b905092915050565b600061275482611d16565b8261275e84612717565b905061276981612727565b925060208210156127a9576127a47fffffffffffffffffffffffffffffffffffffffffffffffffffffffffffffffff8360200360080261273c565b831692505b5050919050565b600082825260208201905092915050565b6000819050919050565b600082825260208201905092915050565b60006127e883856127cb565b93506127f5838584612111565b6127fe83611c80565b840190509392505050565b60006128168484846127dc565b90509392505050565b6000808335600160200384360303811261283c5761283b6124ab565b5b83810192508235915060208301925067ffffffffffffffff821115612864576128636124a1565b5b60018202360384131561287a576128796124a6565b5b509250929050565b6000602082019050919050565b600061289b83856127b0565b9350836020840285016128ad846127c1565b8060005b878110156128f35784840389526128c8828461281f565b6128d3868284612809565b95506128de84612882565b935060208b019a5050506001810190506128b1565b50829750879450505050509392505050565b600060e08201905061291a600083018c611bab565b612927602083018b611bab565b612934604083018a611c22565b818103606083015261294781888a61288f565b90506129566080830187611bab565b81810360a0830152612969818587612120565b905061297860c0830184611bab565b9a9950505050505050505050565b6000815190506129958161179d565b92915050565b6000602082840312156129b1576129b061156d565b5b60006129bf84828501612986565b91505092915050565b600060a0820190506129dd600083018a611bab565b6129ea6020830189611c22565b81810360408301526129fd81878961288f565b90508181036060830152612a12818587612120565b9050612a216080830184611bab565b98975050505050505050565b7f436c69656e7420616c7265616479206372656174656400000000000000000000600082015250565b6000612a63601683611c3c565b9150612a6e82612a2d565b602082019050919050565b60006020820190508181036000830152612a9281612a56565b9050919050565b6000606082019050612aae6000830186611bab565b612abb6020830185611bab565b612ac86040830184611bab565b949350505050565b7f4e487b7100000000000000000000000000000000000000000000000000000000600052604160045260246000fd5b612b0882611c80565b810181811067ffffffffffffffff82111715612b2757612b26612ad0565b5b80604052505050565b6000612b3a611563565b9050612b468282612aff565b919050565b600067ffffffffffffffff821115612b6657612b65612ad0565b5b602082029050602081019050919050565b600080fd5b600067ffffffffffffffff821115612b9757612b96612ad0565b5b612ba082611c80565b9050602081019050919050565b6000612bc0612bbb84612b7c565b612b30565b905082815260208101848484011115612bdc57612bdb612b77565b5b612be7848285612111565b509392505050565b600082601f830112612c0457612c036116b5565b5b8135612c14848260208601612bad565b91505092915050565b6000612c30612c2b84612b4b565b612b30565b90508083825260208201905060208402830185811115612c5357612c526116bf565b5b835b81811015612c9a57803567ffffffffffffffff811115612c7857612c776116b5565b5b808601612c858982612bef565b85526020850194505050602081019050612c55565b5050509392505050565b6000612cb1368484612c1d565b905092915050565b60006040820190508181036000830152612cd4818688612120565b90508181036020830152612ce981848661288f565b905095945050505050565b600082356001604003833603038112612d1057612d0f6124ab565b5b82810191505092915050565b6000612d2b60208401846117b4565b905092915050565b612d3c81611793565b82525050565b600060408301612d55600084018461281f565b8583036000870152612d688382846127dc565b92505050612d796020840184612d1c565b612d866020860182612d33565b508091505092915050565b600082905092915050565b60408201612dad600083018361247b565b612dba6000850182612492565b50612dc8602083018361247b565b612dd56020850182612492565b50505050565b600060c08301612dee6000840184612cf4565b8482036000860152612e008282612d42565b915050612e106020840184612cf4565b8482036020860152612e228282612d42565b915050612e32604084018461247b565b612e3f6040860182612492565b50612e4d60608401846124b0565b8583036060870152612e60838284612524565b92505050612e716080840184612d91565b612e7e6080860182612d9c565b508091505092915050565b60006020820190508181036000830152612ea38184612ddb565b905092915050565b60006040820190508181036000830152612ec681858761214d565b9050612ed5602083018461217a565b949350505050565b60006020820190508181036000830152612ef8818486612120565b90509392505050565b7f4f776e61626c653a206e6577206f776e657220697320746865207a65726f206160008201527f6464726573730000000000000000000000000000000000000000000000000000602082015250565b6000612f5d602683611c3c565b9150612f6882612f01565b604082019050919050565b60006020820190508181036000830152612f8c81612f50565b9050919050565b7f4e487b7100000000000000000000000000000000000000000000000000000000600052601260045260246000fd5b600081905092915050565b6000612fd882611c31565b612fe28185612fc2565b9350612ff2818560208601611c4d565b80840191505092915050565b600061300a8285612fcd565b91506130168284612fcd565b91508190509392505050565b7f4f776e61626c653a2063616c6c6572206973206e6f7420746865206f776e6572600082015250565b6000613058602083611c3c565b915061306382613022565b602082019050919050565b600060208201905081810360008301526130878161304b565b905091905056fe6578706563746564206368616e6e656c20627974657320636f6e73747275637465642066726f6d20706172616d732e204368616e6e656c2e5374617465203d207b41636b5f50656e64696e672c20436f6e6669726d5f50656e64696e677d6578706563746564206368616e6e656c20627974657320636f6e73747275637465642066726f6d20706172616d732e204368616e6e656c2e5374617465203d207b496e69745f50656e64696e672c205472795f50656e64696e677da26469706673582212200cb32279d63438e39edf7ebfcc0e8b786bb2b46e28fb947464261d99b23e7c8e64736f6c63430008090033",
  "linkReferences": {},
  "deployedLinkReferences": {}
}