{
  "_format": "hh-sol-artifact-1",
  "contractName": "Dispatcher",
  "sourceName": "contracts/Dispatcher.sol",
  "abi": [
    {
      "inputs": [
        {
          "internalType": "contract ZKMintVerifier",
          "name": "_verifier",
          "type": "address"
        },
        {
          "internalType": "address payable",
          "name": "_escrow",
          "type": "address"
        }
      ],
      "stateMutability": "nonpayable",
      "type": "constructor"
    },
    {
      "anonymous": false,
      "inputs": [
        {
          "indexed": true,
          "internalType": "address",
          "name": "portAddress",
          "type": "address"
        },
        {
          "indexed": true,
          "internalType": "bytes32",
          "name": "channelId",
          "type": "bytes32"
        }
      ],
      "name": "CloseIbcChannel",
      "type": "event"
    },
    {
      "anonymous": false,
      "inputs": [
        {
          "indexed": true,
          "internalType": "address",
          "name": "portAddress",
          "type": "address"
        },
        {
          "indexed": true,
          "internalType": "bytes32",
          "name": "channelId",
          "type": "bytes32"
        },
        {
          "indexed": false,
          "internalType": "string",
          "name": "counterpartyPortId",
          "type": "string"
        },
        {
          "indexed": true,
          "internalType": "bytes32",
          "name": "counterpartyChannelId",
          "type": "bytes32"
        },
        {
          "indexed": false,
          "internalType": "string[]",
          "name": "connectionHops",
          "type": "string[]"
        }
      ],
      "name": "ConnectIbcChannel",
      "type": "event"
    },
    {
      "anonymous": false,
      "inputs": [
        {
          "indexed": true,
          "internalType": "bytes32",
          "name": "srcChannelId",
          "type": "bytes32"
        },
        {
          "indexed": false,
          "internalType": "string",
          "name": "srcPortId",
          "type": "string"
        },
        {
          "indexed": true,
          "internalType": "bytes32",
          "name": "destChannelId",
          "type": "bytes32"
        },
        {
          "indexed": false,
          "internalType": "string",
          "name": "destPortId",
          "type": "string"
        },
        {
          "indexed": false,
          "internalType": "bytes",
          "name": "data",
          "type": "bytes"
        },
        {
          "indexed": false,
          "internalType": "uint64",
          "name": "sequence",
          "type": "uint64"
        }
      ],
      "name": "OnRecvPacket",
      "type": "event"
    },
    {
      "anonymous": false,
      "inputs": [
        {
          "indexed": true,
          "internalType": "address",
          "name": "portAddress",
          "type": "address"
        },
        {
          "indexed": true,
          "internalType": "bytes32",
          "name": "counterpartyChannelId",
          "type": "bytes32"
        },
        {
          "indexed": false,
          "internalType": "bytes32",
          "name": "version",
          "type": "bytes32"
        },
        {
          "indexed": false,
          "internalType": "enum ChannelOrder",
          "name": "ordering",
          "type": "uint8"
        },
        {
          "indexed": false,
          "internalType": "string[]",
          "name": "connectionHops",
          "type": "string[]"
        },
        {
          "indexed": false,
          "internalType": "string",
          "name": "counterpartyPortId",
          "type": "string"
        },
        {
          "indexed": false,
          "internalType": "bytes32",
          "name": "counterpartyVersion",
          "type": "bytes32"
        }
      ],
      "name": "OpenIbcChannel",
      "type": "event"
    },
    {
      "anonymous": false,
      "inputs": [
        {
          "indexed": true,
          "internalType": "address",
          "name": "previousOwner",
          "type": "address"
        },
        {
          "indexed": true,
          "internalType": "address",
          "name": "newOwner",
          "type": "address"
        }
      ],
      "name": "OwnershipTransferred",
      "type": "event"
    },
    {
      "anonymous": false,
      "inputs": [
        {
          "indexed": true,
          "internalType": "address",
          "name": "sourcePortAddress",
          "type": "address"
        },
        {
          "indexed": true,
          "internalType": "bytes32",
          "name": "sourceChannelId",
          "type": "bytes32"
        },
        {
          "indexed": false,
          "internalType": "bytes",
          "name": "packet",
          "type": "bytes"
        },
        {
          "indexed": false,
          "internalType": "uint64",
          "name": "sequence",
          "type": "uint64"
        },
        {
          "indexed": false,
          "internalType": "uint64",
          "name": "timeoutTimestamp",
          "type": "uint64"
        },
        {
          "indexed": false,
          "internalType": "uint256",
          "name": "fee",
          "type": "uint256"
        }
      ],
      "name": "SendPacket",
      "type": "event"
    },
    {
      "inputs": [
        {
          "internalType": "bytes32",
          "name": "channelId",
          "type": "bytes32"
        }
      ],
      "name": "closeIbcChannel",
      "outputs": [],
      "stateMutability": "nonpayable",
      "type": "function"
    },
    {
      "inputs": [
        {
          "internalType": "contract IbcReceiver",
          "name": "portAddress",
          "type": "address"
        },
        {
          "internalType": "bytes32",
          "name": "channelId",
          "type": "bytes32"
        },
        {
          "internalType": "string[]",
          "name": "connectionHops",
          "type": "string[]"
        },
        {
          "internalType": "enum ChannelOrder",
          "name": "ordering",
          "type": "uint8"
        },
        {
          "internalType": "string",
          "name": "counterpartyPortId",
          "type": "string"
        },
        {
          "internalType": "bytes32",
          "name": "counterpartyChannelId",
          "type": "bytes32"
        },
        {
          "internalType": "bytes32",
          "name": "counterpartyVersion",
          "type": "bytes32"
        },
        {
          "components": [
            {
              "internalType": "uint64",
              "name": "proofHeight",
              "type": "uint64"
            },
            {
              "internalType": "bytes",
              "name": "proof",
              "type": "bytes"
            }
          ],
          "internalType": "struct Proof",
          "name": "proof",
          "type": "tuple"
        }
      ],
      "name": "connectIbcChannel",
      "outputs": [],
      "stateMutability": "nonpayable",
      "type": "function"
    },
    {
      "inputs": [
        {
          "components": [
            {
              "internalType": "bytes",
              "name": "clientState",
              "type": "bytes"
            },
            {
              "internalType": "bytes",
              "name": "consensusState",
              "type": "bytes"
            }
          ],
          "internalType": "struct InitClientMsg",
          "name": "initClientMsg",
          "type": "tuple"
        }
      ],
      "name": "createClient",
      "outputs": [],
      "stateMutability": "nonpayable",
      "type": "function"
    },
    {
      "inputs": [
        {
          "internalType": "address",
          "name": "portAddress",
          "type": "address"
        },
        {
          "internalType": "bytes32",
          "name": "channelId",
          "type": "bytes32"
        }
      ],
      "name": "getChannel",
      "outputs": [
        {
          "components": [
            {
              "internalType": "bytes32",
              "name": "version",
              "type": "bytes32"
            },
            {
              "internalType": "enum ChannelOrder",
              "name": "ordering",
              "type": "uint8"
            },
            {
              "internalType": "string[]",
              "name": "connectionHops",
              "type": "string[]"
            },
            {
              "internalType": "string",
              "name": "counterpartyPortId",
              "type": "string"
            },
            {
              "internalType": "bytes32",
              "name": "counterpartyChannelId",
              "type": "bytes32"
            }
          ],
          "internalType": "struct Channel",
          "name": "",
          "type": "tuple"
        }
      ],
      "stateMutability": "view",
      "type": "function"
    },
    {
      "inputs": [],
      "name": "latestConsensusState",
      "outputs": [
        {
          "internalType": "bytes",
          "name": "",
          "type": "bytes"
        }
      ],
      "stateMutability": "view",
      "type": "function"
    },
    {
      "inputs": [
        {
          "internalType": "contract IbcReceiver",
          "name": "receiver",
          "type": "address"
        },
        {
          "components": [
            {
              "components": [
                {
                  "internalType": "string",
                  "name": "portId",
                  "type": "string"
                },
                {
                  "internalType": "bytes32",
                  "name": "channelId",
                  "type": "bytes32"
                }
              ],
              "internalType": "struct IbcEndpoint",
              "name": "src",
              "type": "tuple"
            },
            {
              "components": [
                {
                  "internalType": "string",
                  "name": "portId",
                  "type": "string"
                },
                {
                  "internalType": "bytes32",
                  "name": "channelId",
                  "type": "bytes32"
                }
              ],
              "internalType": "struct IbcEndpoint",
              "name": "dest",
              "type": "tuple"
            },
            {
              "internalType": "uint64",
              "name": "sequence",
              "type": "uint64"
            },
            {
              "internalType": "bytes",
              "name": "data",
              "type": "bytes"
            },
            {
              "components": [
                {
                  "internalType": "uint64",
                  "name": "block",
                  "type": "uint64"
                },
                {
                  "internalType": "uint64",
                  "name": "timestamp",
                  "type": "uint64"
                }
              ],
              "internalType": "struct IbcTimeout",
              "name": "timeout",
              "type": "tuple"
            }
          ],
          "internalType": "struct IbcPacket",
          "name": "packet",
          "type": "tuple"
        },
        {
          "internalType": "bytes",
          "name": "acknowledgement",
          "type": "bytes"
        },
        {
          "components": [
            {
              "internalType": "uint64",
              "name": "proofHeight",
              "type": "uint64"
            },
            {
              "internalType": "bytes",
              "name": "proof",
              "type": "bytes"
            }
          ],
          "internalType": "struct Proof",
          "name": "proof",
          "type": "tuple"
        }
      ],
      "name": "onAcknowledgementPacket",
      "outputs": [],
      "stateMutability": "nonpayable",
      "type": "function"
    },
    {
      "inputs": [
        {
          "internalType": "address",
          "name": "portAddress",
          "type": "address"
        },
        {
          "internalType": "bytes32",
          "name": "channelId",
          "type": "bytes32"
        },
        {
          "components": [
            {
              "internalType": "uint64",
              "name": "proofHeight",
              "type": "uint64"
            },
            {
              "internalType": "bytes",
              "name": "proof",
              "type": "bytes"
            }
          ],
          "internalType": "struct Proof",
          "name": "proof",
          "type": "tuple"
        }
      ],
      "name": "onCloseIbcChannel",
      "outputs": [],
      "stateMutability": "nonpayable",
      "type": "function"
    },
    {
      "inputs": [
        {
          "internalType": "contract IbcReceiver",
          "name": "receiver",
          "type": "address"
        },
        {
          "components": [
            {
              "components": [
                {
                  "internalType": "string",
                  "name": "portId",
                  "type": "string"
                },
                {
                  "internalType": "bytes32",
                  "name": "channelId",
                  "type": "bytes32"
                }
              ],
              "internalType": "struct IbcEndpoint",
              "name": "src",
              "type": "tuple"
            },
            {
              "components": [
                {
                  "internalType": "string",
                  "name": "portId",
                  "type": "string"
                },
                {
                  "internalType": "bytes32",
                  "name": "channelId",
                  "type": "bytes32"
                }
              ],
              "internalType": "struct IbcEndpoint",
              "name": "dest",
              "type": "tuple"
            },
            {
              "internalType": "uint64",
              "name": "sequence",
              "type": "uint64"
            },
            {
              "internalType": "bytes",
              "name": "data",
              "type": "bytes"
            },
            {
              "components": [
                {
                  "internalType": "uint64",
                  "name": "block",
                  "type": "uint64"
                },
                {
                  "internalType": "uint64",
                  "name": "timestamp",
                  "type": "uint64"
                }
              ],
              "internalType": "struct IbcTimeout",
              "name": "timeout",
              "type": "tuple"
            }
          ],
          "internalType": "struct IbcPacket",
          "name": "packet",
          "type": "tuple"
        },
        {
          "components": [
            {
              "internalType": "uint64",
              "name": "proofHeight",
              "type": "uint64"
            },
            {
              "internalType": "bytes",
              "name": "proof",
              "type": "bytes"
            }
          ],
          "internalType": "struct Proof",
          "name": "proof",
          "type": "tuple"
        }
      ],
      "name": "onRecvPacket",
      "outputs": [],
      "stateMutability": "nonpayable",
      "type": "function"
    },
    {
      "inputs": [
        {
          "internalType": "contract IbcReceiver",
          "name": "receiver",
          "type": "address"
        },
        {
          "components": [
            {
              "components": [
                {
                  "internalType": "string",
                  "name": "portId",
                  "type": "string"
                },
                {
                  "internalType": "bytes32",
                  "name": "channelId",
                  "type": "bytes32"
                }
              ],
              "internalType": "struct IbcEndpoint",
              "name": "src",
              "type": "tuple"
            },
            {
              "components": [
                {
                  "internalType": "string",
                  "name": "portId",
                  "type": "string"
                },
                {
                  "internalType": "bytes32",
                  "name": "channelId",
                  "type": "bytes32"
                }
              ],
              "internalType": "struct IbcEndpoint",
              "name": "dest",
              "type": "tuple"
            },
            {
              "internalType": "uint64",
              "name": "sequence",
              "type": "uint64"
            },
            {
              "internalType": "bytes",
              "name": "data",
              "type": "bytes"
            },
            {
              "components": [
                {
                  "internalType": "uint64",
                  "name": "block",
                  "type": "uint64"
                },
                {
                  "internalType": "uint64",
                  "name": "timestamp",
                  "type": "uint64"
                }
              ],
              "internalType": "struct IbcTimeout",
              "name": "timeout",
              "type": "tuple"
            }
          ],
          "internalType": "struct IbcPacket",
          "name": "packet",
          "type": "tuple"
        },
        {
          "components": [
            {
              "internalType": "uint64",
              "name": "proofHeight",
              "type": "uint64"
            },
            {
              "internalType": "bytes",
              "name": "proof",
              "type": "bytes"
            }
          ],
          "internalType": "struct Proof",
          "name": "proof",
          "type": "tuple"
        }
      ],
      "name": "onTimeoutPacket",
      "outputs": [],
      "stateMutability": "nonpayable",
      "type": "function"
    },
    {
      "inputs": [
        {
          "internalType": "contract IbcReceiver",
          "name": "portAddress",
          "type": "address"
        },
        {
          "internalType": "bytes32",
          "name": "version",
          "type": "bytes32"
        },
        {
          "internalType": "enum ChannelOrder",
          "name": "ordering",
          "type": "uint8"
        },
        {
          "internalType": "string[]",
          "name": "connectionHops",
          "type": "string[]"
        },
        {
          "internalType": "bytes32",
          "name": "counterpartyChannelId",
          "type": "bytes32"
        },
        {
          "internalType": "string",
          "name": "counterpartyPortId",
          "type": "string"
        },
        {
          "internalType": "bytes32",
          "name": "counterpartyVersion",
          "type": "bytes32"
        }
      ],
      "name": "openIbcChannel",
      "outputs": [],
      "stateMutability": "nonpayable",
      "type": "function"
    },
    {
      "inputs": [],
      "name": "owner",
      "outputs": [
        {
          "internalType": "address",
          "name": "",
          "type": "address"
        }
      ],
      "stateMutability": "view",
      "type": "function"
    },
    {
      "inputs": [
        {
          "internalType": "address",
          "name": "",
          "type": "address"
        },
        {
          "internalType": "bytes32",
          "name": "",
          "type": "bytes32"
        }
      ],
      "name": "portChannelMap",
      "outputs": [
        {
          "internalType": "bytes32",
          "name": "version",
          "type": "bytes32"
        },
        {
          "internalType": "enum ChannelOrder",
          "name": "ordering",
          "type": "uint8"
        },
        {
          "internalType": "string",
          "name": "counterpartyPortId",
          "type": "string"
        },
        {
          "internalType": "bytes32",
          "name": "counterpartyChannelId",
          "type": "bytes32"
        }
      ],
      "stateMutability": "view",
      "type": "function"
    },
    {
      "inputs": [],
      "name": "renounceOwnership",
      "outputs": [],
      "stateMutability": "nonpayable",
      "type": "function"
    },
    {
      "inputs": [
        {
          "internalType": "bytes32",
          "name": "channelId",
          "type": "bytes32"
        },
        {
          "internalType": "bytes",
          "name": "packet",
          "type": "bytes"
        },
        {
          "internalType": "uint64",
          "name": "timeoutTimestamp",
          "type": "uint64"
        },
        {
          "internalType": "uint256",
          "name": "fee",
          "type": "uint256"
        }
      ],
      "name": "sendPacket",
      "outputs": [],
      "stateMutability": "payable",
      "type": "function"
    },
    {
      "inputs": [
        {
          "internalType": "address",
          "name": "newOwner",
          "type": "address"
        }
      ],
      "name": "transferOwnership",
      "outputs": [],
      "stateMutability": "nonpayable",
      "type": "function"
    },
    {
      "inputs": [
        {
          "components": [
            {
              "internalType": "bytes",
              "name": "consensusState",
              "type": "bytes"
            },
            {
              "internalType": "uint64",
              "name": "height",
              "type": "uint64"
            },
            {
              "internalType": "bytes",
              "name": "zkProof",
              "type": "bytes"
            }
          ],
          "internalType": "struct UpdateClientMsg",
          "name": "updateClientMsg",
          "type": "tuple"
        }
      ],
      "name": "updateClient",
      "outputs": [],
      "stateMutability": "nonpayable",
      "type": "function"
    }
  ],
  "bytecode": "0x60806040526000600260146101000a81548160ff0219169083151502179055506000600460006101000a81548167ffffffffffffffff021916908367ffffffffffffffff1602179055503480156200005657600080fd5b50604051620044943803806200449483398181016040528101906200007c91906200034a565b6200009c62000090620001bb60201b60201c565b620001c360201b60201c565b81600160006101000a81548173ffffffffffffffffffffffffffffffffffffffff021916908373ffffffffffffffffffffffffffffffffffffffff16021790555080600260006101000a81548173ffffffffffffffffffffffffffffffffffffffff021916908373ffffffffffffffffffffffffffffffffffffffff160217905550600073ffffffffffffffffffffffffffffffffffffffff16600260009054906101000a900473ffffffffffffffffffffffffffffffffffffffff1673ffffffffffffffffffffffffffffffffffffffff161415620001b3576040517f08c379a0000000000000000000000000000000000000000000000000000000008152600401620001aa90620003f2565b60405180910390fd5b505062000414565b600033905090565b60008060009054906101000a900473ffffffffffffffffffffffffffffffffffffffff169050816000806101000a81548173ffffffffffffffffffffffffffffffffffffffff021916908373ffffffffffffffffffffffffffffffffffffffff1602179055508173ffffffffffffffffffffffffffffffffffffffff168173ffffffffffffffffffffffffffffffffffffffff167f8be0079c531659141344cd1fd0a4f28419497f9722a3daafe3b4186f6b6457e060405160405180910390a35050565b600080fd5b600073ffffffffffffffffffffffffffffffffffffffff82169050919050565b6000620002b9826200028c565b9050919050565b6000620002cd82620002ac565b9050919050565b620002df81620002c0565b8114620002eb57600080fd5b50565b600081519050620002ff81620002d4565b92915050565b600062000312826200028c565b9050919050565b620003248162000305565b81146200033057600080fd5b50565b600081519050620003448162000319565b92915050565b6000806040838503121562000364576200036362000287565b5b60006200037485828601620002ee565b9250506020620003878582860162000333565b9150509250929050565b600082825260208201905092915050565b7f457363726f772063616e6e6f74206265207a65726f2061646472657373000000600082015250565b6000620003da601d8362000391565b9150620003e782620003a2565b602082019050919050565b600060208201905081810360008301526200040d81620003cb565b9050919050565b61407080620004246000396000f3fe6080604052600436106100f35760003560e01c80638b24b4cb1161008a578063b2b1bf0311610059578063b2b1bf03146102db578063c2a2514d1461031b578063d2e9aa5614610346578063f2fde38b1461036f576100f3565b80638b24b4cb146102425780638d3d5aa91461026b5780638da5cb5b14610287578063951538f3146102b2576100f3565b80634c9778d3116100c65780634c9778d3146101b057806364260a60146101d95780636787464914610202578063715018a61461022b576100f3565b80630ad8d666146100f85780631f456c1e1461012157806342852d241461014a578063487fca7e14610187575b600080fd5b34801561010457600080fd5b5061011f600480360381019061011a919061218f565b610398565b005b34801561012d57600080fd5b5061014860048036038101906101439190612330565b6104aa565b005b34801561015657600080fd5b50610171600480360381019061016c919061243e565b6105ae565b60405161017e91906126dc565b60405180910390f35b34801561019357600080fd5b506101ae60048036038101906101a9919061271d565b6107d3565b005b3480156101bc57600080fd5b506101d760048036038101906101d29190612766565b610869565b005b3480156101e557600080fd5b5061020060048036038101906101fb919061218f565b610b9b565b005b34801561020e57600080fd5b5061022960048036038101906102249190612898565b610c53565b005b34801561023757600080fd5b50610240610db2565b005b34801561024e57600080fd5b50610269600480360381019061026491906128e1565b610dc6565b005b610285600480360381019061028091906129da565b6110ee565b005b34801561029357600080fd5b5061029c61156c565b6040516102a99190612a71565b60405180910390f35b3480156102be57600080fd5b506102d960048036038101906102d49190612a8c565b611595565b005b3480156102e757600080fd5b5061030260048036038101906102fd919061243e565b611a5d565b6040516103129493929190612b63565b60405180910390f35b34801561032757600080fd5b50610330611b2f565b60405161033d9190612c04565b60405180910390f35b34801561035257600080fd5b5061036d60048036038101906103689190612c26565b611bbd565b005b34801561037b57600080fd5b5061039660048036038101906103919190612ce6565b611c77565b005b6103a181611cfb565b6103e0576040517f08c379a00000000000000000000000000000000000000000000000000000000081526004016103d790612d5f565b60405180910390fd5b8180602001906103f09190612d8e565b602001358280600001906104049190612d8e565b602001357f080631928e492258b6a102fc2ab3e0a8dfcb747ab0885c25f9cb7a8d486210368480600001906104399190612d8e565b80600001906104489190612db6565b8680602001906104589190612d8e565b80600001906104679190612db6565b8880606001906104779190612e19565b8a604001602081019061048a9190612e7c565b60405161049d9796959493929190612f21565b60405180910390a3505050565b60008973ffffffffffffffffffffffffffffffffffffffff1663486592198a8a8a8a8a8a8a8a6040518963ffffffff1660e01b81526004016104f39897969594939291906130d4565b602060405180830381600087803b15801561050d57600080fd5b505af1158015610521573d6000803e3d6000fd5b505050506040513d601f19601f82011682018060405250810190610545919061315c565b9050848a73ffffffffffffffffffffffffffffffffffffffff167f9a93c124e7f0aa93d3fbe660b1366e0483b4267619924382261498efbb92c873838b8b8b8a8a8a60405161059a9796959493929190613189565b60405180910390a350505050505050505050565b6105b6611e73565b600560008473ffffffffffffffffffffffffffffffffffffffff1673ffffffffffffffffffffffffffffffffffffffff16815260200190815260200160002060008381526020019081526020016000206040518060a0016040529081600082015481526020016001820160009054906101000a900460ff1660018111156106405761063f61248d565b5b60018111156106525761065161248d565b5b815260200160028201805480602002602001604051908101604052809291908181526020016000905b8282101561072757838290600052602060002001805461069a9061321d565b80601f01602080910402602001604051908101604052809291908181526020018280546106c69061321d565b80156107135780601f106106e857610100808354040283529160200191610713565b820191906000526020600020905b8154815290600101906020018083116106f657829003601f168201915b50505050508152602001906001019061067b565b50505050815260200160038201805461073f9061321d565b80601f016020809104026020016040519081016040528092919081815260200182805461076b9061321d565b80156107b85780601f1061078d576101008083540402835291602001916107b8565b820191906000526020600020905b81548152906001019060200180831161079b57829003601f168201915b50505050508152602001600482015481525050905092915050565b6107db611d29565b600260149054906101000a900460ff161561082b576040517f08c379a00000000000000000000000000000000000000000000000000000000081526004016108229061329b565b60405180910390fd5b6001600260146101000a81548160ff0219169083151502179055508080602001906108569190612e19565b60039190610865929190611eba565b5050565b600160009054906101000a900473ffffffffffffffffffffffffffffffffffffffff1673ffffffffffffffffffffffffffffffffffffffff16639511059d6003836040518060800160405280605e8152602001613f8a605e91396040518463ffffffff1660e01b81526004016108e1939291906134b2565b60206040518083038186803b1580156108f957600080fd5b505afa15801561090d573d6000803e3d6000fd5b505050506040513d601f19601f820116820180604052508101906109319190613549565b610970576040517f08c379a0000000000000000000000000000000000000000000000000000000008152600401610967906135c2565b60405180910390fd5b8973ffffffffffffffffffffffffffffffffffffffff1663e60a72938a85856040518463ffffffff1660e01b81526004016109ad939291906135e2565b600060405180830381600087803b1580156109c757600080fd5b505af11580156109db573d6000803e3d6000fd5b505050506040518060a00160405280838152602001876001811115610a0357610a0261248d565b5b8152602001898990610a1591906137ed565b815260200186868080601f016020809104026020016040519081016040528093929190818152602001838380828437600081840152601f19601f82011690508083019250505050505050815260200184815250600560008c73ffffffffffffffffffffffffffffffffffffffff1673ffffffffffffffffffffffffffffffffffffffff16815260200190815260200160002060008b81526020019081526020016000206000820151816000015560208201518160010160006101000a81548160ff02191690836001811115610aed57610aec61248d565b5b02179055506040820151816002019080519060200190610b0e929190611f40565b506060820151816003019080519060200190610b2b929190611fa0565b506080820151816004015590505082898b73ffffffffffffffffffffffffffffffffffffffff167f57ea540ad7b8bfd2813b8637764ba029fedc52de3f812934a46511506aa11b8e88888d8d604051610b879493929190613802565b60405180910390a450505050505050505050565b610ba481611cfb565b610be3576040517f08c379a0000000000000000000000000000000000000000000000000000000008152600401610bda90612d5f565b60405180910390fd5b8273ffffffffffffffffffffffffffffffffffffffff1663b33c2577836040518263ffffffff1660e01b8152600401610c1c91906139c3565b600060405180830381600087803b158015610c3657600080fd5b505af1158015610c4a573d6000803e3d6000fd5b50505050505050565b600260149054906101000a900460ff16610ca2576040517f08c379a0000000000000000000000000000000000000000000000000000000008152600401610c9990613a31565b60405180910390fd5b600160009054906101000a900473ffffffffffffffffffffffffffffffffffffffff1673ffffffffffffffffffffffffffffffffffffffff1663ab5eba266003836040518363ffffffff1660e01b8152600401610d00929190613ac4565b60206040518083038186803b158015610d1857600080fd5b505afa158015610d2c573d6000803e3d6000fd5b505050506040513d601f19601f82011682018060405250810190610d509190613549565b610d8f576040517f08c379a0000000000000000000000000000000000000000000000000000000008152600401610d8690613b6d565b60405180910390fd5b808060000190610d9f9190612e19565b60039190610dae929190611eba565b5050565b610dba611d29565b610dc46000611da7565b565b6000600560003373ffffffffffffffffffffffffffffffffffffffff1673ffffffffffffffffffffffffffffffffffffffff16815260200190815260200160002060008381526020019081526020016000206040518060a0016040529081600082015481526020016001820160009054906101000a900460ff166001811115610e5257610e5161248d565b5b6001811115610e6457610e6361248d565b5b815260200160028201805480602002602001604051908101604052809291908181526020016000905b82821015610f39578382906000526020600020018054610eac9061321d565b80601f0160208091040260200160405190810160405280929190818152602001828054610ed89061321d565b8015610f255780601f10610efa57610100808354040283529160200191610f25565b820191906000526020600020905b815481529060010190602001808311610f0857829003601f168201915b505050505081526020019060010190610e8d565b505050508152602001600382018054610f519061321d565b80601f0160208091040260200160405190810160405280929190818152602001828054610f7d9061321d565b8015610fca5780601f10610f9f57610100808354040283529160200191610fca565b820191906000526020600020905b815481529060010190602001808311610fad57829003601f168201915b5050505050815260200160048201548152505090506000801b81608001511415611029576040517f08c379a000000000000000000000000000000000000000000000000000000000815260040161102090613bd9565b60405180910390fd5b60003390508073ffffffffffffffffffffffffffffffffffffffff16635fe39e0d84846060015185608001516040518463ffffffff1660e01b815260040161107393929190613bf9565b600060405180830381600087803b15801561108d57600080fd5b505af11580156110a1573d6000803e3d6000fd5b50505050823373ffffffffffffffffffffffffffffffffffffffff167fe893e4ba0e364cdc96364b1e1e0d53b0d91e5fd6aa0ee9d81a17ecd61178bf1760405160405180910390a3505050565b6000600560003373ffffffffffffffffffffffffffffffffffffffff1673ffffffffffffffffffffffffffffffffffffffff16815260200190815260200160002060008781526020019081526020016000206040518060a0016040529081600082015481526020016001820160009054906101000a900460ff16600181111561117a5761117961248d565b5b600181111561118c5761118b61248d565b5b815260200160028201805480602002602001604051908101604052809291908181526020016000905b828210156112615783829060005260206000200180546111d49061321d565b80601f01602080910402602001604051908101604052809291908181526020018280546112009061321d565b801561124d5780601f106112225761010080835404028352916020019161124d565b820191906000526020600020905b81548152906001019060200180831161123057829003601f168201915b5050505050815260200190600101906111b5565b5050505081526020016003820180546112799061321d565b80601f01602080910402602001604051908101604052809291908181526020018280546112a59061321d565b80156112f25780601f106112c7576101008083540402835291602001916112f2565b820191906000526020600020905b8154815290600101906020018083116112d557829003601f168201915b5050505050815260200160048201548152505090506000801b81608001511415611351576040517f08c379a000000000000000000000000000000000000000000000000000000000815260040161134890613c83565b60405180910390fd5b6000600260009054906101000a900473ffffffffffffffffffffffffffffffffffffffff1673ffffffffffffffffffffffffffffffffffffffff168360405161139990613cd4565b60006040518083038185875af1925050503d80600081146113d6576040519150601f19603f3d011682016040523d82523d6000602084013e6113db565b606091505b505090508061141f576040517f08c379a000000000000000000000000000000000000000000000000000000000815260040161141690613d35565b60405180910390fd5b6000600660003373ffffffffffffffffffffffffffffffffffffffff1673ffffffffffffffffffffffffffffffffffffffff168152602001908152602001600020600089815260200190815260200160002060009054906101000a900467ffffffffffffffff1690506001816114959190613d84565b600660003373ffffffffffffffffffffffffffffffffffffffff1673ffffffffffffffffffffffffffffffffffffffff16815260200190815260200160002060008a815260200190815260200160002060006101000a81548167ffffffffffffffff021916908367ffffffffffffffff160217905550873373ffffffffffffffffffffffffffffffffffffffff167fc55a6c1340ca55a6b61de30037455a7f9f4a5b8ff106e4eaa0c23ea886fa03608989858a8a60405161155a959493929190613dd1565b60405180910390a35050505050505050565b60008060009054906101000a900473ffffffffffffffffffffffffffffffffffffffff16905090565b600160009054906101000a900473ffffffffffffffffffffffffffffffffffffffff1673ffffffffffffffffffffffffffffffffffffffff16639511059d600383604051806080016040528060538152602001613fe8605391396040518463ffffffff1660e01b815260040161160d939291906134b2565b60206040518083038186803b15801561162557600080fd5b505afa158015611639573d6000803e3d6000fd5b505050506040513d601f19601f8201168201806040525081019061165d9190613549565b61169c576040517f08c379a0000000000000000000000000000000000000000000000000000000008152600401611693906135c2565b60405180910390fd5b6000600560008573ffffffffffffffffffffffffffffffffffffffff1673ffffffffffffffffffffffffffffffffffffffff16815260200190815260200160002060008481526020019081526020016000206040518060a0016040529081600082015481526020016001820160009054906101000a900460ff1660018111156117285761172761248d565b5b600181111561173a5761173961248d565b5b815260200160028201805480602002602001604051908101604052809291908181526020016000905b8282101561180f5783829060005260206000200180546117829061321d565b80601f01602080910402602001604051908101604052809291908181526020018280546117ae9061321d565b80156117fb5780601f106117d0576101008083540402835291602001916117fb565b820191906000526020600020905b8154815290600101906020018083116117de57829003601f168201915b505050505081526020019060010190611763565b5050505081526020016003820180546118279061321d565b80601f01602080910402602001604051908101604052809291908181526020018280546118539061321d565b80156118a05780601f10611875576101008083540402835291602001916118a0565b820191906000526020600020905b81548152906001019060200180831161188357829003601f168201915b5050505050815260200160048201548152505090506000801b816080015114156118ff576040517f08c379a00000000000000000000000000000000000000000000000000000000081526004016118f690613e6b565b60405180910390fd5b60008490508073ffffffffffffffffffffffffffffffffffffffff16635fe39e0d85846060015185608001516040518463ffffffff1660e01b815260040161194993929190613bf9565b600060405180830381600087803b15801561196357600080fd5b505af1158015611977573d6000803e3d6000fd5b50505050600560008673ffffffffffffffffffffffffffffffffffffffff1673ffffffffffffffffffffffffffffffffffffffff16815260200190815260200160002060008581526020019081526020016000206000808201600090556001820160006101000a81549060ff02191690556002820160006119f89190612026565b600382016000611a089190612047565b60048201600090555050838573ffffffffffffffffffffffffffffffffffffffff167fe893e4ba0e364cdc96364b1e1e0d53b0d91e5fd6aa0ee9d81a17ecd61178bf1760405160405180910390a35050505050565b6005602052816000526040600020602052806000526040600020600091509150508060000154908060010160009054906101000a900460ff1690806003018054611aa69061321d565b80601f0160208091040260200160405190810160405280929190818152602001828054611ad29061321d565b8015611b1f5780601f10611af457610100808354040283529160200191611b1f565b820191906000526020600020905b815481529060010190602001808311611b0257829003601f168201915b5050505050908060040154905084565b60038054611b3c9061321d565b80601f0160208091040260200160405190810160405280929190818152602001828054611b689061321d565b8015611bb55780601f10611b8a57610100808354040283529160200191611bb5565b820191906000526020600020905b815481529060010190602001808311611b9857829003601f168201915b505050505081565b611bc681611cfb565b611c05576040517f08c379a0000000000000000000000000000000000000000000000000000000008152600401611bfc90612d5f565b60405180910390fd5b8473ffffffffffffffffffffffffffffffffffffffff1663f45cf5e4856040518263ffffffff1660e01b8152600401611c3e91906139c3565b600060405180830381600087803b158015611c5857600080fd5b505af1158015611c6c573d6000803e3d6000fd5b505050505050505050565b611c7f611d29565b600073ffffffffffffffffffffffffffffffffffffffff168173ffffffffffffffffffffffffffffffffffffffff161415611cef576040517f08c379a0000000000000000000000000000000000000000000000000000000008152600401611ce690613efd565b60405180910390fd5b611cf881611da7565b50565b600080828060200190611d0e9190612e19565b90501415611d1f5760009050611d24565b600190505b919050565b611d31611e6b565b73ffffffffffffffffffffffffffffffffffffffff16611d4f61156c565b73ffffffffffffffffffffffffffffffffffffffff1614611da5576040517f08c379a0000000000000000000000000000000000000000000000000000000008152600401611d9c90613f69565b60405180910390fd5b565b60008060009054906101000a900473ffffffffffffffffffffffffffffffffffffffff169050816000806101000a81548173ffffffffffffffffffffffffffffffffffffffff021916908373ffffffffffffffffffffffffffffffffffffffff1602179055508173ffffffffffffffffffffffffffffffffffffffff168173ffffffffffffffffffffffffffffffffffffffff167f8be0079c531659141344cd1fd0a4f28419497f9722a3daafe3b4186f6b6457e060405160405180910390a35050565b600033905090565b6040518060a001604052806000801916815260200160006001811115611e9c57611e9b61248d565b5b81526020016060815260200160608152602001600080191681525090565b828054611ec69061321d565b90600052602060002090601f016020900481019282611ee85760008555611f2f565b82601f10611f0157803560ff1916838001178555611f2f565b82800160010185558215611f2f579182015b82811115611f2e578235825591602001919060010190611f13565b5b509050611f3c9190612087565b5090565b828054828255906000526020600020908101928215611f8f579160200282015b82811115611f8e578251829080519060200190611f7e929190611fa0565b5091602001919060010190611f60565b5b509050611f9c91906120a4565b5090565b828054611fac9061321d565b90600052602060002090601f016020900481019282611fce5760008555612015565b82601f10611fe757805160ff1916838001178555612015565b82800160010185558215612015579182015b82811115612014578251825591602001919060010190611ff9565b5b5090506120229190612087565b5090565b508054600082559060005260206000209081019061204491906120a4565b50565b5080546120539061321d565b6000825580601f106120655750612084565b601f0160209004906000526020600020908101906120839190612087565b5b50565b5b808211156120a0576000816000905550600101612088565b5090565b5b808211156120c457600081816120bb9190612047565b506001016120a5565b5090565b6000604051905090565b600080fd5b600080fd5b600073ffffffffffffffffffffffffffffffffffffffff82169050919050565b6000612107826120dc565b9050919050565b6000612119826120fc565b9050919050565b6121298161210e565b811461213457600080fd5b50565b60008135905061214681612120565b92915050565b600080fd5b600060c082840312156121675761216661214c565b5b81905092915050565b6000604082840312156121865761218561214c565b5b81905092915050565b6000806000606084860312156121a8576121a76120d2565b5b60006121b686828701612137565b935050602084013567ffffffffffffffff8111156121d7576121d66120d7565b5b6121e386828701612151565b925050604084013567ffffffffffffffff811115612204576122036120d7565b5b61221086828701612170565b9150509250925092565b6000819050919050565b61222d8161221a565b811461223857600080fd5b50565b60008135905061224a81612224565b92915050565b6002811061225d57600080fd5b50565b60008135905061226f81612250565b92915050565b600080fd5b600080fd5b600080fd5b60008083601f84011261229a57612299612275565b5b8235905067ffffffffffffffff8111156122b7576122b661227a565b5b6020830191508360208202830111156122d3576122d261227f565b5b9250929050565b60008083601f8401126122f0576122ef612275565b5b8235905067ffffffffffffffff81111561230d5761230c61227a565b5b6020830191508360018202830111156123295761232861227f565b5b9250929050565b600080600080600080600080600060e08a8c031215612352576123516120d2565b5b60006123608c828d01612137565b99505060206123718c828d0161223b565b98505060406123828c828d01612260565b97505060608a013567ffffffffffffffff8111156123a3576123a26120d7565b5b6123af8c828d01612284565b965096505060806123c28c828d0161223b565b94505060a08a013567ffffffffffffffff8111156123e3576123e26120d7565b5b6123ef8c828d016122da565b935093505060c06124028c828d0161223b565b9150509295985092959850929598565b61241b816120fc565b811461242657600080fd5b50565b60008135905061243881612412565b92915050565b60008060408385031215612455576124546120d2565b5b600061246385828601612429565b92505060206124748582860161223b565b9150509250929050565b6124878161221a565b82525050565b7f4e487b7100000000000000000000000000000000000000000000000000000000600052602160045260246000fd5b600281106124cd576124cc61248d565b5b50565b60008190506124de826124bc565b919050565b60006124ee826124d0565b9050919050565b6124fe816124e3565b82525050565b600081519050919050565b600082825260208201905092915050565b6000819050602082019050919050565b600081519050919050565b600082825260208201905092915050565b60005b8381101561256a57808201518184015260208101905061254f565b83811115612579576000848401525b50505050565b6000601f19601f8301169050919050565b600061259b82612530565b6125a5818561253b565b93506125b581856020860161254c565b6125be8161257f565b840191505092915050565b60006125d58383612590565b905092915050565b6000602082019050919050565b60006125f582612504565b6125ff818561250f565b93508360208202850161261185612520565b8060005b8581101561264d578484038952815161262e85826125c9565b9450612639836125dd565b925060208a01995050600181019050612615565b50829750879550505050505092915050565b600060a083016000830151612677600086018261247e565b50602083015161268a60208601826124f5565b50604083015184820360408601526126a282826125ea565b915050606083015184820360608601526126bc8282612590565b91505060808301516126d1608086018261247e565b508091505092915050565b600060208201905081810360008301526126f6818461265f565b905092915050565b6000604082840312156127145761271361214c565b5b81905092915050565b600060208284031215612733576127326120d2565b5b600082013567ffffffffffffffff811115612751576127506120d7565b5b61275d848285016126fe565b91505092915050565b6000806000806000806000806000806101008b8d03121561278a576127896120d2565b5b60006127988d828e01612137565b9a505060206127a98d828e0161223b565b99505060408b013567ffffffffffffffff8111156127ca576127c96120d7565b5b6127d68d828e01612284565b985098505060606127e98d828e01612260565b96505060808b013567ffffffffffffffff81111561280a576128096120d7565b5b6128168d828e016122da565b955095505060a06128298d828e0161223b565b93505060c061283a8d828e0161223b565b92505060e08b013567ffffffffffffffff81111561285b5761285a6120d7565b5b6128678d828e01612170565b9150509295989b9194979a5092959850565b60006060828403121561288f5761288e61214c565b5b81905092915050565b6000602082840312156128ae576128ad6120d2565b5b600082013567ffffffffffffffff8111156128cc576128cb6120d7565b5b6128d884828501612879565b91505092915050565b6000602082840312156128f7576128f66120d2565b5b60006129058482850161223b565b91505092915050565b60008083601f84011261292457612923612275565b5b8235905067ffffffffffffffff8111156129415761294061227a565b5b60208301915083600182028301111561295d5761295c61227f565b5b9250929050565b600067ffffffffffffffff82169050919050565b61298181612964565b811461298c57600080fd5b50565b60008135905061299e81612978565b92915050565b6000819050919050565b6129b7816129a4565b81146129c257600080fd5b50565b6000813590506129d4816129ae565b92915050565b6000806000806000608086880312156129f6576129f56120d2565b5b6000612a048882890161223b565b955050602086013567ffffffffffffffff811115612a2557612a246120d7565b5b612a318882890161290e565b94509450506040612a448882890161298f565b9250506060612a55888289016129c5565b9150509295509295909350565b612a6b816120fc565b82525050565b6000602082019050612a866000830184612a62565b92915050565b600080600060608486031215612aa557612aa46120d2565b5b6000612ab386828701612429565b9350506020612ac48682870161223b565b925050604084013567ffffffffffffffff811115612ae557612ae46120d7565b5b612af186828701612170565b9150509250925092565b612b048161221a565b82525050565b612b13816124e3565b82525050565b600082825260208201905092915050565b6000612b3582612530565b612b3f8185612b19565b9350612b4f81856020860161254c565b612b588161257f565b840191505092915050565b6000608082019050612b786000830187612afb565b612b856020830186612b0a565b8181036040830152612b978185612b2a565b9050612ba66060830184612afb565b95945050505050565b600081519050919050565b600082825260208201905092915050565b6000612bd682612baf565b612be08185612bba565b9350612bf081856020860161254c565b612bf98161257f565b840191505092915050565b60006020820190508181036000830152612c1e8184612bcb565b905092915050565b600080600080600060808688031215612c4257612c416120d2565b5b6000612c5088828901612137565b955050602086013567ffffffffffffffff811115612c7157612c706120d7565b5b612c7d88828901612151565b945050604086013567ffffffffffffffff811115612c9e57612c9d6120d7565b5b612caa8882890161290e565b9350935050606086013567ffffffffffffffff811115612ccd57612ccc6120d7565b5b612cd988828901612170565b9150509295509295909350565b600060208284031215612cfc57612cfb6120d2565b5b6000612d0a84828501612429565b91505092915050565b7f50726f6f6620766572696669636174696f6e206661696c656400000000000000600082015250565b6000612d49601983612b19565b9150612d5482612d13565b602082019050919050565b60006020820190508181036000830152612d7881612d3c565b9050919050565b600080fd5b600080fd5b600080fd5b600082356001604003833603038112612daa57612da9612d7f565b5b80830191505092915050565b60008083356001602003843603038112612dd357612dd2612d7f565b5b80840192508235915067ffffffffffffffff821115612df557612df4612d84565b5b602083019250600182023603831315612e1157612e10612d89565b5b509250929050565b60008083356001602003843603038112612e3657612e35612d7f565b5b80840192508235915067ffffffffffffffff821115612e5857612e57612d84565b5b602083019250600182023603831315612e7457612e73612d89565b5b509250929050565b600060208284031215612e9257612e916120d2565b5b6000612ea08482850161298f565b91505092915050565b82818337600083830152505050565b6000612ec48385612b19565b9350612ed1838584612ea9565b612eda8361257f565b840190509392505050565b6000612ef18385612bba565b9350612efe838584612ea9565b612f078361257f565b840190509392505050565b612f1b81612964565b82525050565b60006080820190508181036000830152612f3c81898b612eb8565b90508181036020830152612f51818789612eb8565b90508181036040830152612f66818587612ee5565b9050612f756060830184612f12565b98975050505050505050565b600082825260208201905092915050565b6000819050919050565b6000612fa8838561253b565b9350612fb5838584612ea9565b612fbe8361257f565b840190509392505050565b6000612fd6848484612f9c565b90509392505050565b600080fd5b600080fd5b600080fd5b6000808335600160200384360303811261300b5761300a612fe9565b5b83810192508235915060208301925067ffffffffffffffff82111561303357613032612fdf565b5b60018202360384131561304957613048612fe4565b5b509250929050565b6000602082019050919050565b600061306a8385612f81565b93508360208402850161307c84612f92565b8060005b878110156130c25784840389526130978284612fee565b6130a2868284612fc9565b95506130ad84613051565b935060208b019a505050600181019050613080565b50829750879450505050509392505050565b600060c0820190506130e9600083018b612afb565b6130f6602083018a612b0a565b818103604083015261310981888a61305e565b90506131186060830187612afb565b818103608083015261312b818587612eb8565b905061313a60a0830184612afb565b9998505050505050505050565b60008151905061315681612224565b92915050565b600060208284031215613172576131716120d2565b5b600061318084828501613147565b91505092915050565b600060a08201905061319e600083018a612afb565b6131ab6020830189612b0a565b81810360408301526131be81878961305e565b905081810360608301526131d3818587612eb8565b90506131e26080830184612afb565b98975050505050505050565b7f4e487b7100000000000000000000000000000000000000000000000000000000600052602260045260246000fd5b6000600282049050600182168061323557607f821691505b60208210811415613249576132486131ee565b5b50919050565b7f436c69656e7420616c7265616479206372656174656400000000000000000000600082015250565b6000613285601683612b19565b91506132908261324f565b602082019050919050565b600060208201905081810360008301526132b481613278565b9050919050565b60008190508160005260206000209050919050565b600081546132dd8161321d565b6132e78186612bba565b94506001821660008114613302576001811461331457613347565b60ff1983168652602086019350613347565b61331d856132bb565b60005b8381101561333f57815481890152600182019150602081019050613320565b808801955050505b50505092915050565b600061335f602084018461298f565b905092915050565b61337081612964565b82525050565b6000808335600160200384360303811261339357613392612fe9565b5b83810192508235915060208301925067ffffffffffffffff8211156133bb576133ba612fdf565b5b6001820236038413156133d1576133d0612fe4565b5b509250929050565b600082825260208201905092915050565b60006133f683856133d9565b9350613403838584612ea9565b61340c8361257f565b840190509392505050565b60006040830161342a6000840184613350565b6134376000860182613367565b506134456020840184613376565b85830360208701526134588382846133ea565b925050508091505092915050565b7f6368616e6e656c2f706174682f746f2f62652f61646465642f68657265000000600082015250565b600061349c601d83612bba565b91506134a782613466565b602082019050919050565b600060808201905081810360008301526134cc81866132d0565b905081810360208301526134e08185613417565b905081810360408301526134f38161348f565b905081810360608301526135078184612bcb565b9050949350505050565b60008115159050919050565b61352681613511565b811461353157600080fd5b50565b6000815190506135438161351d565b92915050565b60006020828403121561355f5761355e6120d2565b5b600061356d84828501613534565b91505092915050565b7f4661696c20746f2070726f7665206368616e6e656c2073746174650000000000600082015250565b60006135ac601b83612b19565b91506135b782613576565b602082019050919050565b600060208201905081810360008301526135db8161359f565b9050919050565b60006060820190506135f76000830186612afb565b6136046020830185612afb565b6136116040830184612afb565b949350505050565b7f4e487b7100000000000000000000000000000000000000000000000000000000600052604160045260246000fd5b6136518261257f565b810181811067ffffffffffffffff821117156136705761366f613619565b5b80604052505050565b60006136836120c8565b905061368f8282613648565b919050565b600067ffffffffffffffff8211156136af576136ae613619565b5b602082029050602081019050919050565b600080fd5b600067ffffffffffffffff8211156136e0576136df613619565b5b6136e98261257f565b9050602081019050919050565b6000613709613704846136c5565b613679565b905082815260208101848484011115613725576137246136c0565b5b613730848285612ea9565b509392505050565b600082601f83011261374d5761374c612275565b5b813561375d8482602086016136f6565b91505092915050565b600061377961377484613694565b613679565b9050808382526020820190506020840283018581111561379c5761379b61227f565b5b835b818110156137e357803567ffffffffffffffff8111156137c1576137c0612275565b5b8086016137ce8982613738565b8552602085019450505060208101905061379e565b5050509392505050565b60006137fa368484613766565b905092915050565b6000604082019050818103600083015261381d818688612eb8565b9050818103602083015261383281848661305e565b905095945050505050565b60008235600160400383360303811261385957613858612fe9565b5b82810191505092915050565b6000613874602084018461223b565b905092915050565b60006040830161388f6000840184612fee565b85830360008701526138a2838284612f9c565b925050506138b36020840184613865565b6138c0602086018261247e565b508091505092915050565b600082905092915050565b604082016138e76000830183613350565b6138f46000850182613367565b506139026020830183613350565b61390f6020850182613367565b50505050565b600060c08301613928600084018461383d565b848203600086015261393a828261387c565b91505061394a602084018461383d565b848203602086015261395c828261387c565b91505061396c6040840184613350565b6139796040860182613367565b506139876060840184613376565b858303606087015261399a8382846133ea565b925050506139ab60808401846138cb565b6139b860808601826138d6565b508091505092915050565b600060208201905081810360008301526139dd8184613915565b905092915050565b7f436c69656e74206e6f7420637265617465640000000000000000000000000000600082015250565b6000613a1b601283612b19565b9150613a26826139e5565b602082019050919050565b60006020820190508181036000830152613a4a81613a0e565b9050919050565b600060608301613a646000840184613376565b8583036000870152613a778382846133ea565b92505050613a886020840184613350565b613a956020860182613367565b50613aa36040840184613376565b8583036040870152613ab68382846133ea565b925050508091505092915050565b60006040820190508181036000830152613ade81856132d0565b90508181036020830152613af28184613a51565b90509392505050565b7f557064617465436c69656e744d73672070726f6f66207665726966696361746960008201527f6f6e206661696c65640000000000000000000000000000000000000000000000602082015250565b6000613b57602983612b19565b9150613b6282613afb565b604082019050919050565b60006020820190508181036000830152613b8681613b4a565b9050919050565b7f4368616e6e656c206e6f74206f776e6564206279206d73672e73656e64657200600082015250565b6000613bc3601f83612b19565b9150613bce82613b8d565b602082019050919050565b60006020820190508181036000830152613bf281613bb6565b9050919050565b6000606082019050613c0e6000830186612afb565b8181036020830152613c208185612b2a565b9050613c2f6040830184612afb565b949350505050565b7f4368616e6e656c206e6f74206f776e65642062792073656e6465720000000000600082015250565b6000613c6d601b83612b19565b9150613c7882613c37565b602082019050919050565b60006020820190508181036000830152613c9c81613c60565b9050919050565b600081905092915050565b50565b6000613cbe600083613ca3565b9150613cc982613cae565b600082019050919050565b6000613cdf82613cb1565b9150819050919050565b7f4661696c656420746f20657363726f77207061636b6574206665650000000000600082015250565b6000613d1f601b83612b19565b9150613d2a82613ce9565b602082019050919050565b60006020820190508181036000830152613d4e81613d12565b9050919050565b7f4e487b7100000000000000000000000000000000000000000000000000000000600052601160045260246000fd5b6000613d8f82612964565b9150613d9a83612964565b92508267ffffffffffffffff03821115613db757613db6613d55565b5b828201905092915050565b613dcb816129a4565b82525050565b60006080820190508181036000830152613dec818789612ee5565b9050613dfb6020830186612f12565b613e086040830185612f12565b613e156060830184613dc2565b9695505050505050565b7f4368616e6e656c206e6f74206f776e656420627920706f727441646472657373600082015250565b6000613e55602083612b19565b9150613e6082613e1f565b602082019050919050565b60006020820190508181036000830152613e8481613e48565b9050919050565b7f4f776e61626c653a206e6577206f776e657220697320746865207a65726f206160008201527f6464726573730000000000000000000000000000000000000000000000000000602082015250565b6000613ee7602683612b19565b9150613ef282613e8b565b604082019050919050565b60006020820190508181036000830152613f1681613eda565b9050919050565b7f4f776e61626c653a2063616c6c6572206973206e6f7420746865206f776e6572600082015250565b6000613f53602083612b19565b9150613f5e82613f1d565b602082019050919050565b60006020820190508181036000830152613f8281613f46565b905091905056fe6578706563746564206368616e6e656c20627974657320636f6e73747275637465642066726f6d20706172616d732e204368616e6e656c2e5374617465203d207b41636b5f50656e64696e672c20436f6e6669726d5f50656e64696e677d6578706563746564206368616e6e656c20627974657320636f6e73747275637465642066726f6d20706172616d732e204368616e6e656c2e5374617465203d207b436c6f736564285f50656e64696e673f297da2646970667358221220caabb33ecf85bd1645210289a95ad6dd0c3e8aeb2fdaacabb9fc92498a5ed31d64736f6c63430008090033",
  "linkReferences": {},
  "deployedLinkReferences": {}
}