{
  "_format": "hh-sol-artifact-1",
  "contractName": "Dispatcher",
  "sourceName": "contracts/Dispatcher.sol",
  "abi": [
    {
      "inputs": [
        {
          "internalType": "address",
          "name": "_verifier",
          "type": "address"
        }
      ],
      "stateMutability": "nonpayable",
      "type": "constructor"
    },
    {
      "anonymous": false,
      "inputs": [
        {
          "indexed": false,
          "internalType": "string",
          "name": "channelId",
          "type": "string"
        },
        {
          "indexed": true,
          "internalType": "address",
          "name": "portId",
          "type": "address"
        }
      ],
      "name": "CloseIbcChannel",
      "type": "event"
    },
    {
      "anonymous": false,
      "inputs": [
        {
          "indexed": true,
          "internalType": "address",
          "name": "portAddress",
          "type": "address"
        },
        {
          "indexed": true,
          "internalType": "bytes32",
          "name": "channelId",
          "type": "bytes32"
        },
        {
          "indexed": false,
          "internalType": "string",
          "name": "counterpartyPortId",
          "type": "string"
        },
        {
          "indexed": true,
          "internalType": "bytes32",
          "name": "counterpartyChannelId",
          "type": "bytes32"
        },
        {
          "indexed": false,
          "internalType": "string[]",
          "name": "connectionHops",
          "type": "string[]"
        }
      ],
      "name": "ConnectIbcChannel",
      "type": "event"
    },
    {
      "anonymous": false,
      "inputs": [
        {
          "indexed": true,
          "internalType": "bytes32",
          "name": "srcChannelId",
          "type": "bytes32"
        },
        {
          "indexed": false,
          "internalType": "string",
          "name": "srcPortId",
          "type": "string"
        },
        {
          "indexed": true,
          "internalType": "bytes32",
          "name": "destChannelId",
          "type": "bytes32"
        },
        {
          "indexed": false,
          "internalType": "string",
          "name": "destPortId",
          "type": "string"
        },
        {
          "indexed": false,
          "internalType": "bytes",
          "name": "data",
          "type": "bytes"
        },
        {
          "indexed": false,
          "internalType": "uint64",
          "name": "sequence",
          "type": "uint64"
        }
      ],
      "name": "OnRecvPacket",
      "type": "event"
    },
    {
      "anonymous": false,
      "inputs": [
        {
          "indexed": true,
          "internalType": "address",
          "name": "portAddress",
          "type": "address"
        },
        {
          "indexed": true,
          "internalType": "bytes32",
          "name": "counterpartyChannelId",
          "type": "bytes32"
        },
        {
          "indexed": false,
          "internalType": "bytes32",
          "name": "version",
          "type": "bytes32"
        },
        {
          "indexed": false,
          "internalType": "enum ChannelOrder",
          "name": "ordering",
          "type": "uint8"
        },
        {
          "indexed": false,
          "internalType": "string[]",
          "name": "connectionHops",
          "type": "string[]"
        },
        {
          "indexed": false,
          "internalType": "string",
          "name": "counterpartyPortId",
          "type": "string"
        },
        {
          "indexed": false,
          "internalType": "bytes32",
          "name": "counterpartyVersion",
          "type": "bytes32"
        }
      ],
      "name": "OpenIbcChannel",
      "type": "event"
    },
    {
      "anonymous": false,
      "inputs": [
        {
          "indexed": true,
          "internalType": "address",
          "name": "previousOwner",
          "type": "address"
        },
        {
          "indexed": true,
          "internalType": "address",
          "name": "newOwner",
          "type": "address"
        }
      ],
      "name": "OwnershipTransferred",
      "type": "event"
    },
    {
      "anonymous": false,
      "inputs": [
        {
          "indexed": true,
          "internalType": "address",
          "name": "portId",
          "type": "address"
        },
        {
          "indexed": true,
          "internalType": "bytes32",
          "name": "channelId",
          "type": "bytes32"
        },
        {
          "indexed": false,
          "internalType": "bytes",
          "name": "packet",
          "type": "bytes"
        },
        {
          "indexed": false,
          "internalType": "uint64",
          "name": "timeoutTimestamp",
          "type": "uint64"
        }
      ],
      "name": "SendPacket",
      "type": "event"
    },
    {
      "inputs": [
        {
          "internalType": "string",
          "name": "channelId",
          "type": "string"
        }
      ],
      "name": "closeIbcChannel",
      "outputs": [],
      "stateMutability": "nonpayable",
      "type": "function"
    },
    {
      "inputs": [
        {
          "internalType": "address",
          "name": "portAddress",
          "type": "address"
        },
        {
          "internalType": "bytes32",
          "name": "channelId",
          "type": "bytes32"
        },
        {
          "internalType": "string[]",
          "name": "connectionHops",
          "type": "string[]"
        },
        {
          "internalType": "enum ChannelOrder",
          "name": "ordering",
          "type": "uint8"
        },
        {
          "internalType": "string",
          "name": "counterpartyPortId",
          "type": "string"
        },
        {
          "internalType": "bytes32",
          "name": "counterpartyChannelId",
          "type": "bytes32"
        },
        {
          "internalType": "bytes32",
          "name": "counterpartyVersion",
          "type": "bytes32"
        },
        {
          "components": [
            {
              "internalType": "uint64",
              "name": "proofHeight",
              "type": "uint64"
            },
            {
              "internalType": "bytes",
              "name": "proof",
              "type": "bytes"
            }
          ],
          "internalType": "struct Proof",
          "name": "proof",
          "type": "tuple"
        }
      ],
      "name": "connectIbcChannel",
      "outputs": [],
      "stateMutability": "nonpayable",
      "type": "function"
    },
    {
      "inputs": [
        {
          "internalType": "bytes",
          "name": "clientState",
          "type": "bytes"
        },
        {
          "internalType": "bytes",
          "name": "consensusState",
          "type": "bytes"
        }
      ],
      "name": "createClient",
      "outputs": [],
      "stateMutability": "nonpayable",
      "type": "function"
    },
    {
      "inputs": [],
      "name": "latestConsensusState",
      "outputs": [
        {
          "internalType": "bytes",
          "name": "",
          "type": "bytes"
        }
      ],
      "stateMutability": "view",
      "type": "function"
    },
    {
      "inputs": [
        {
          "internalType": "contract IbcReceiver",
          "name": "receiver",
          "type": "address"
        },
        {
          "components": [
            {
              "components": [
                {
                  "internalType": "string",
                  "name": "portId",
                  "type": "string"
                },
                {
                  "internalType": "bytes32",
                  "name": "channelId",
                  "type": "bytes32"
                }
              ],
              "internalType": "struct IbcEndpoint",
              "name": "src",
              "type": "tuple"
            },
            {
              "components": [
                {
                  "internalType": "string",
                  "name": "portId",
                  "type": "string"
                },
                {
                  "internalType": "bytes32",
                  "name": "channelId",
                  "type": "bytes32"
                }
              ],
              "internalType": "struct IbcEndpoint",
              "name": "dest",
              "type": "tuple"
            },
            {
              "internalType": "uint64",
              "name": "sequence",
              "type": "uint64"
            },
            {
              "internalType": "bytes",
              "name": "data",
              "type": "bytes"
            },
            {
              "components": [
                {
                  "internalType": "uint64",
                  "name": "block",
                  "type": "uint64"
                },
                {
                  "internalType": "uint64",
                  "name": "timestamp",
                  "type": "uint64"
                }
              ],
              "internalType": "struct IbcTimeout",
              "name": "timeout",
              "type": "tuple"
            }
          ],
          "internalType": "struct IbcPacket",
          "name": "packet",
          "type": "tuple"
        },
        {
          "internalType": "bytes",
          "name": "acknowledgement",
          "type": "bytes"
        },
        {
          "components": [
            {
              "internalType": "uint64",
              "name": "proofHeight",
              "type": "uint64"
            },
            {
              "internalType": "bytes",
              "name": "proof",
              "type": "bytes"
            }
          ],
          "internalType": "struct Proof",
          "name": "proof",
          "type": "tuple"
        }
      ],
      "name": "onAcknowledgementPacket",
      "outputs": [],
      "stateMutability": "nonpayable",
      "type": "function"
    },
    {
      "inputs": [
        {
          "internalType": "contract IbcReceiver",
          "name": "receiver",
          "type": "address"
        },
        {
          "components": [
            {
              "components": [
                {
                  "internalType": "string",
                  "name": "portId",
                  "type": "string"
                },
                {
                  "internalType": "bytes32",
                  "name": "channelId",
                  "type": "bytes32"
                }
              ],
              "internalType": "struct IbcEndpoint",
              "name": "src",
              "type": "tuple"
            },
            {
              "components": [
                {
                  "internalType": "string",
                  "name": "portId",
                  "type": "string"
                },
                {
                  "internalType": "bytes32",
                  "name": "channelId",
                  "type": "bytes32"
                }
              ],
              "internalType": "struct IbcEndpoint",
              "name": "dest",
              "type": "tuple"
            },
            {
              "internalType": "uint64",
              "name": "sequence",
              "type": "uint64"
            },
            {
              "internalType": "bytes",
              "name": "data",
              "type": "bytes"
            },
            {
              "components": [
                {
                  "internalType": "uint64",
                  "name": "block",
                  "type": "uint64"
                },
                {
                  "internalType": "uint64",
                  "name": "timestamp",
                  "type": "uint64"
                }
              ],
              "internalType": "struct IbcTimeout",
              "name": "timeout",
              "type": "tuple"
            }
          ],
          "internalType": "struct IbcPacket",
          "name": "packet",
          "type": "tuple"
        },
        {
          "components": [
            {
              "internalType": "uint64",
              "name": "proofHeight",
              "type": "uint64"
            },
            {
              "internalType": "bytes",
              "name": "proof",
              "type": "bytes"
            }
          ],
          "internalType": "struct Proof",
          "name": "proof",
          "type": "tuple"
        }
      ],
      "name": "onRecvPacket",
      "outputs": [],
      "stateMutability": "nonpayable",
      "type": "function"
    },
    {
      "inputs": [
        {
          "internalType": "contract IbcReceiver",
          "name": "receiver",
          "type": "address"
        },
        {
          "components": [
            {
              "components": [
                {
                  "internalType": "string",
                  "name": "portId",
                  "type": "string"
                },
                {
                  "internalType": "bytes32",
                  "name": "channelId",
                  "type": "bytes32"
                }
              ],
              "internalType": "struct IbcEndpoint",
              "name": "src",
              "type": "tuple"
            },
            {
              "components": [
                {
                  "internalType": "string",
                  "name": "portId",
                  "type": "string"
                },
                {
                  "internalType": "bytes32",
                  "name": "channelId",
                  "type": "bytes32"
                }
              ],
              "internalType": "struct IbcEndpoint",
              "name": "dest",
              "type": "tuple"
            },
            {
              "internalType": "uint64",
              "name": "sequence",
              "type": "uint64"
            },
            {
              "internalType": "bytes",
              "name": "data",
              "type": "bytes"
            },
            {
              "components": [
                {
                  "internalType": "uint64",
                  "name": "block",
                  "type": "uint64"
                },
                {
                  "internalType": "uint64",
                  "name": "timestamp",
                  "type": "uint64"
                }
              ],
              "internalType": "struct IbcTimeout",
              "name": "timeout",
              "type": "tuple"
            }
          ],
          "internalType": "struct IbcPacket",
          "name": "packet",
          "type": "tuple"
        },
        {
          "components": [
            {
              "internalType": "uint64",
              "name": "proofHeight",
              "type": "uint64"
            },
            {
              "internalType": "bytes",
              "name": "proof",
              "type": "bytes"
            }
          ],
          "internalType": "struct Proof",
          "name": "proof",
          "type": "tuple"
        }
      ],
      "name": "onTimeoutPacket",
      "outputs": [],
      "stateMutability": "nonpayable",
      "type": "function"
    },
    {
      "inputs": [
        {
          "internalType": "address",
          "name": "portAddress",
          "type": "address"
        },
        {
          "internalType": "bytes32",
          "name": "version",
          "type": "bytes32"
        },
        {
          "internalType": "enum ChannelOrder",
          "name": "ordering",
          "type": "uint8"
        },
        {
          "internalType": "string[]",
          "name": "connectionHops",
          "type": "string[]"
        },
        {
          "internalType": "bytes32",
          "name": "counterpartyChannelId",
          "type": "bytes32"
        },
        {
          "internalType": "string",
          "name": "counterpartyPortId",
          "type": "string"
        },
        {
          "internalType": "bytes32",
          "name": "counterpartyVersion",
          "type": "bytes32"
        },
        {
          "components": [
            {
              "internalType": "uint64",
              "name": "proofHeight",
              "type": "uint64"
            },
            {
              "internalType": "bytes",
              "name": "proof",
              "type": "bytes"
            }
          ],
          "internalType": "struct Proof",
          "name": "proof",
          "type": "tuple"
        }
      ],
      "name": "openIbcChannel",
      "outputs": [],
      "stateMutability": "nonpayable",
      "type": "function"
    },
    {
      "inputs": [],
      "name": "owner",
      "outputs": [
        {
          "internalType": "address",
          "name": "",
          "type": "address"
        }
      ],
      "stateMutability": "view",
      "type": "function"
    },
    {
      "inputs": [
        {
          "internalType": "address",
          "name": "",
          "type": "address"
        },
        {
          "internalType": "bytes32",
          "name": "",
          "type": "bytes32"
        }
      ],
      "name": "portChannelMap",
      "outputs": [
        {
          "internalType": "bytes32",
          "name": "version",
          "type": "bytes32"
        },
        {
          "internalType": "enum ChannelOrder",
          "name": "ordering",
          "type": "uint8"
        },
        {
          "internalType": "string",
          "name": "counterpartyPortId",
          "type": "string"
        },
        {
          "internalType": "bytes32",
          "name": "counterpartyChannelId",
          "type": "bytes32"
        }
      ],
      "stateMutability": "view",
      "type": "function"
    },
    {
      "inputs": [],
      "name": "renounceOwnership",
      "outputs": [],
      "stateMutability": "nonpayable",
      "type": "function"
    },
    {
      "inputs": [
        {
          "internalType": "bytes32",
          "name": "channelId",
          "type": "bytes32"
        },
        {
          "internalType": "bytes",
          "name": "packet",
          "type": "bytes"
        },
        {
          "internalType": "uint64",
          "name": "timeoutTimestamp",
          "type": "uint64"
        }
      ],
      "name": "sendPacket",
      "outputs": [],
      "stateMutability": "nonpayable",
      "type": "function"
    },
    {
      "inputs": [
        {
          "internalType": "address",
          "name": "newOwner",
          "type": "address"
        }
      ],
      "name": "transferOwnership",
      "outputs": [],
      "stateMutability": "nonpayable",
      "type": "function"
    },
    {
      "inputs": [
        {
          "internalType": "bytes",
          "name": "consensusState",
          "type": "bytes"
        }
      ],
      "name": "updateClient",
      "outputs": [],
      "stateMutability": "nonpayable",
      "type": "function"
    }
  ],
  "bytecode": "0x60806040526000600360006101000a81548167ffffffffffffffff021916908367ffffffffffffffff1602179055503480156200003b57600080fd5b5060405162002f3f38038062002f3f83398181016040528101906200006191906200021a565b6200008162000075620000e460201b60201c565b620000ec60201b60201c565b80600160006101000a81548173ffffffffffffffffffffffffffffffffffffffff021916908373ffffffffffffffffffffffffffffffffffffffff1602179055506000600160146101000a81548160ff021916908315150217905550506200024c565b600033905090565b60008060009054906101000a900473ffffffffffffffffffffffffffffffffffffffff169050816000806101000a81548173ffffffffffffffffffffffffffffffffffffffff021916908373ffffffffffffffffffffffffffffffffffffffff1602179055508173ffffffffffffffffffffffffffffffffffffffff168173ffffffffffffffffffffffffffffffffffffffff167f8be0079c531659141344cd1fd0a4f28419497f9722a3daafe3b4186f6b6457e060405160405180910390a35050565b600080fd5b600073ffffffffffffffffffffffffffffffffffffffff82169050919050565b6000620001e282620001b5565b9050919050565b620001f481620001d5565b81146200020057600080fd5b50565b6000815190506200021481620001e9565b92915050565b600060208284031215620002335762000232620001b0565b5b6000620002438482850162000203565b91505092915050565b612ce3806200025c6000396000f3fe608060405234801561001057600080fd5b50600436106100ea5760003560e01c80638da5cb5b1161008c578063c3e1155c11610066578063c3e1155c14610210578063d2e9aa561461022c578063e6815c1214610248578063f2fde38b14610264576100ea565b80638da5cb5b146101a1578063b2b1bf03146101bf578063c2a2514d146101f2576100ea565b80633e24aaf3116100c85780633e24aaf3146101435780634c9778d31461015f57806364260a601461017b578063715018a614610197576100ea565b80630ad8d666146100ef5780630bece3561461010b57806328f2c4c014610127575b600080fd5b61010960048036038101906101049190611326565b610280565b005b61012560048036038101906101209190611416565b610392565b005b610141600480360381019061013c9190611596565b6104e6565b005b61015d600480360381019061015891906116a9565b6106f8565b005b6101796004803603810190610174919061172a565b610782565b005b61019560048036038101906101909190611326565b610aba565b005b61019f610b72565b005b6101a9610b86565b6040516101b6919061184c565b60405180910390f35b6101d960048036038101906101d49190611867565b610baf565b6040516101e994939291906119c6565b60405180910390f35b6101fa610c81565b6040516102079190611a67565b60405180910390f35b61022a60048036038101906102259190611ac9565b610d0f565b005b61024660048036038101906102419190611b3d565b610d68565b005b610262600480360381019061025d9190611bfd565b610e22565b005b61027e60048036038101906102799190611c4a565b610e76565b005b61028981610efa565b6102c8576040517f08c379a00000000000000000000000000000000000000000000000000000000081526004016102bf90611cc3565b60405180910390fd5b8180602001906102d89190611cf2565b602001358280600001906102ec9190611cf2565b602001357f080631928e492258b6a102fc2ab3e0a8dfcb747ab0885c25f9cb7a8d486210368480600001906103219190611cf2565b80600001906103309190611d1a565b8680602001906103409190611cf2565b806000019061034f9190611d1a565b88806060019061035f9190611d7d565b8a60400160208101906103729190611de0565b6040516103859796959493929190611e85565b60405180910390a3505050565b600160149054906101000a900460ff166103e1576040517f08c379a00000000000000000000000000000000000000000000000000000000081526004016103d890611f31565b60405180910390fd5b600160009054906101000a900473ffffffffffffffffffffffffffffffffffffffff1673ffffffffffffffffffffffffffffffffffffffff1663e1ec100c600284846040518463ffffffff1660e01b815260040161044193929190612047565b60206040518083038186803b15801561045957600080fd5b505afa15801561046d573d6000803e3d6000fd5b505050506040513d601f19601f8201168201806040525081019061049191906120b8565b6104d0576040517f08c379a00000000000000000000000000000000000000000000000000000000081526004016104c790612157565b60405180910390fd5b8181600291906104e1929190611072565b505050565b600160009054906101000a900473ffffffffffffffffffffffffffffffffffffffff1673ffffffffffffffffffffffffffffffffffffffff16639511059d6002836040518060800160405280605b8152602001612c53605b91396040518463ffffffff1660e01b815260040161055e939291906122e8565b60206040518083038186803b15801561057657600080fd5b505afa15801561058a573d6000803e3d6000fd5b505050506040513d601f19601f820116820180604052508101906105ae91906120b8565b6105ed576040517f08c379a00000000000000000000000000000000000000000000000000000000081526004016105e490612393565b60405180910390fd5b60008a905060008173ffffffffffffffffffffffffffffffffffffffff1663486592198c8c8c8c8c8c8c8c6040518963ffffffff1660e01b815260040161063b989796959493929190612508565b602060405180830381600087803b15801561065557600080fd5b505af1158015610669573d6000803e3d6000fd5b505050506040513d601f19601f8201168201806040525081019061068d9190612590565b9050868c73ffffffffffffffffffffffffffffffffffffffff167f9a93c124e7f0aa93d3fbe660b1366e0483b4267619924382261498efbb92c873838d8d8d8c8c8c6040516106e297969594939291906125bd565b60405180910390a3505050505050505050505050565b610700610f28565b600160149054906101000a900460ff1615610750576040517f08c379a00000000000000000000000000000000000000000000000000000000081526004016107479061266e565b60405180910390fd5b60018060146101000a81548160ff02191690831515021790555081816002919061077b929190611072565b5050505050565b600160009054906101000a900473ffffffffffffffffffffffffffffffffffffffff1673ffffffffffffffffffffffffffffffffffffffff16639511059d6002836040518060800160405280605e8152602001612bf5605e91396040518463ffffffff1660e01b81526004016107fa939291906122e8565b60206040518083038186803b15801561081257600080fd5b505afa158015610826573d6000803e3d6000fd5b505050506040513d601f19601f8201168201806040525081019061084a91906120b8565b610889576040517f08c379a000000000000000000000000000000000000000000000000000000000815260040161088090612393565b60405180910390fd5b60008a90508073ffffffffffffffffffffffffffffffffffffffff1663e60a72938b86866040518463ffffffff1660e01b81526004016108cb9392919061268e565b600060405180830381600087803b1580156108e557600080fd5b505af11580156108f9573d6000803e3d6000fd5b505050506040518060a00160405280848152602001886001811115610921576109206118b6565b5b81526020018a8a906109339190612899565b815260200187878080601f016020809104026020016040519081016040528093929190818152602001838380828437600081840152601f19601f82011690508083019250505050505050815260200185815250600460008d73ffffffffffffffffffffffffffffffffffffffff1673ffffffffffffffffffffffffffffffffffffffff16815260200190815260200160002060008c81526020019081526020016000206000820151816000015560208201518160010160006101000a81548160ff02191690836001811115610a0b57610a0a6118b6565b5b02179055506040820151816002019080519060200190610a2c9291906110f8565b506060820151816003019080519060200190610a49929190611158565b5060808201518160040155905050838a8c73ffffffffffffffffffffffffffffffffffffffff167f57ea540ad7b8bfd2813b8637764ba029fedc52de3f812934a46511506aa11b8e89898e8e604051610aa594939291906128ae565b60405180910390a45050505050505050505050565b610ac381610efa565b610b02576040517f08c379a0000000000000000000000000000000000000000000000000000000008152600401610af990611cc3565b60405180910390fd5b8273ffffffffffffffffffffffffffffffffffffffff1663b33c2577836040518263ffffffff1660e01b8152600401610b3b9190612a7e565b600060405180830381600087803b158015610b5557600080fd5b505af1158015610b69573d6000803e3d6000fd5b50505050505050565b610b7a610f28565b610b846000610fa6565b565b60008060009054906101000a900473ffffffffffffffffffffffffffffffffffffffff16905090565b6004602052816000526040600020602052806000526040600020600091509150508060000154908060010160009054906101000a900460ff1690806003018054610bf890611f80565b80601f0160208091040260200160405190810160405280929190818152602001828054610c2490611f80565b8015610c715780601f10610c4657610100808354040283529160200191610c71565b820191906000526020600020905b815481529060010190602001808311610c5457829003601f168201915b5050505050908060040154905084565b60028054610c8e90611f80565b80601f0160208091040260200160405190810160405280929190818152602001828054610cba90611f80565b8015610d075780601f10610cdc57610100808354040283529160200191610d07565b820191906000526020600020905b815481529060010190602001808311610cea57829003601f168201915b505050505081565b833373ffffffffffffffffffffffffffffffffffffffff167fe5f4762afde15256ce24aa385b449d27b7d2776921f3c673f8162ddb5b7a2f16858585604051610d5a93929190612aa0565b60405180910390a350505050565b610d7181610efa565b610db0576040517f08c379a0000000000000000000000000000000000000000000000000000000008152600401610da790611cc3565b60405180910390fd5b8473ffffffffffffffffffffffffffffffffffffffff1663f45cf5e4856040518263ffffffff1660e01b8152600401610de99190612a7e565b600060405180830381600087803b158015610e0357600080fd5b505af1158015610e17573d6000803e3d6000fd5b505050505050505050565b3373ffffffffffffffffffffffffffffffffffffffff167f18280cf62c6d3f3519d7cff5c5b7e91021dd17a0278ba5668976d82bdc9faa9e8383604051610e6a929190612ad2565b60405180910390a25050565b610e7e610f28565b600073ffffffffffffffffffffffffffffffffffffffff168173ffffffffffffffffffffffffffffffffffffffff161415610eee576040517f08c379a0000000000000000000000000000000000000000000000000000000008152600401610ee590612b68565b60405180910390fd5b610ef781610fa6565b50565b600080828060200190610f0d9190611d7d565b90501415610f1e5760009050610f23565b600190505b919050565b610f3061106a565b73ffffffffffffffffffffffffffffffffffffffff16610f4e610b86565b73ffffffffffffffffffffffffffffffffffffffff1614610fa4576040517f08c379a0000000000000000000000000000000000000000000000000000000008152600401610f9b90612bd4565b60405180910390fd5b565b60008060009054906101000a900473ffffffffffffffffffffffffffffffffffffffff169050816000806101000a81548173ffffffffffffffffffffffffffffffffffffffff021916908373ffffffffffffffffffffffffffffffffffffffff1602179055508173ffffffffffffffffffffffffffffffffffffffff168173ffffffffffffffffffffffffffffffffffffffff167f8be0079c531659141344cd1fd0a4f28419497f9722a3daafe3b4186f6b6457e060405160405180910390a35050565b600033905090565b82805461107e90611f80565b90600052602060002090601f0160209004810192826110a057600085556110e7565b82601f106110b957803560ff19168380011785556110e7565b828001600101855582156110e7579182015b828111156110e65782358255916020019190600101906110cb565b5b5090506110f491906111de565b5090565b828054828255906000526020600020908101928215611147579160200282015b82811115611146578251829080519060200190611136929190611158565b5091602001919060010190611118565b5b50905061115491906111fb565b5090565b82805461116490611f80565b90600052602060002090601f01602090048101928261118657600085556111cd565b82601f1061119f57805160ff19168380011785556111cd565b828001600101855582156111cd579182015b828111156111cc5782518255916020019190600101906111b1565b5b5090506111da91906111de565b5090565b5b808211156111f75760008160009055506001016111df565b5090565b5b8082111561121b5760008181611212919061121f565b506001016111fc565b5090565b50805461122b90611f80565b6000825580601f1061123d575061125c565b601f01602090049060005260206000209081019061125b91906111de565b5b50565b6000604051905090565b600080fd5b600080fd5b600073ffffffffffffffffffffffffffffffffffffffff82169050919050565b600061129e82611273565b9050919050565b60006112b082611293565b9050919050565b6112c0816112a5565b81146112cb57600080fd5b50565b6000813590506112dd816112b7565b92915050565b600080fd5b600060c082840312156112fe576112fd6112e3565b5b81905092915050565b60006040828403121561131d5761131c6112e3565b5b81905092915050565b60008060006060848603121561133f5761133e611269565b5b600061134d868287016112ce565b935050602084013567ffffffffffffffff81111561136e5761136d61126e565b5b61137a868287016112e8565b925050604084013567ffffffffffffffff81111561139b5761139a61126e565b5b6113a786828701611307565b9150509250925092565b600080fd5b600080fd5b600080fd5b60008083601f8401126113d6576113d56113b1565b5b8235905067ffffffffffffffff8111156113f3576113f26113b6565b5b60208301915083600182028301111561140f5761140e6113bb565b5b9250929050565b6000806020838503121561142d5761142c611269565b5b600083013567ffffffffffffffff81111561144b5761144a61126e565b5b611457858286016113c0565b92509250509250929050565b61146c81611293565b811461147757600080fd5b50565b60008135905061148981611463565b92915050565b6000819050919050565b6114a28161148f565b81146114ad57600080fd5b50565b6000813590506114bf81611499565b92915050565b600281106114d257600080fd5b50565b6000813590506114e4816114c5565b92915050565b60008083601f840112611500576114ff6113b1565b5b8235905067ffffffffffffffff81111561151d5761151c6113b6565b5b602083019150836020820283011115611539576115386113bb565b5b9250929050565b60008083601f840112611556576115556113b1565b5b8235905067ffffffffffffffff811115611573576115726113b6565b5b60208301915083600182028301111561158f5761158e6113bb565b5b9250929050565b6000806000806000806000806000806101008b8d0312156115ba576115b9611269565b5b60006115c88d828e0161147a565b9a505060206115d98d828e016114b0565b99505060406115ea8d828e016114d5565b98505060608b013567ffffffffffffffff81111561160b5761160a61126e565b5b6116178d828e016114ea565b9750975050608061162a8d828e016114b0565b95505060a08b013567ffffffffffffffff81111561164b5761164a61126e565b5b6116578d828e01611540565b945094505060c061166a8d828e016114b0565b92505060e08b013567ffffffffffffffff81111561168b5761168a61126e565b5b6116978d828e01611307565b9150509295989b9194979a5092959850565b600080600080604085870312156116c3576116c2611269565b5b600085013567ffffffffffffffff8111156116e1576116e061126e565b5b6116ed878288016113c0565b9450945050602085013567ffffffffffffffff8111156117105761170f61126e565b5b61171c878288016113c0565b925092505092959194509250565b6000806000806000806000806000806101008b8d03121561174e5761174d611269565b5b600061175c8d828e0161147a565b9a5050602061176d8d828e016114b0565b99505060408b013567ffffffffffffffff81111561178e5761178d61126e565b5b61179a8d828e016114ea565b985098505060606117ad8d828e016114d5565b96505060808b013567ffffffffffffffff8111156117ce576117cd61126e565b5b6117da8d828e01611540565b955095505060a06117ed8d828e016114b0565b93505060c06117fe8d828e016114b0565b92505060e08b013567ffffffffffffffff81111561181f5761181e61126e565b5b61182b8d828e01611307565b9150509295989b9194979a5092959850565b61184681611293565b82525050565b6000602082019050611861600083018461183d565b92915050565b6000806040838503121561187e5761187d611269565b5b600061188c8582860161147a565b925050602061189d858286016114b0565b9150509250929050565b6118b08161148f565b82525050565b7f4e487b7100000000000000000000000000000000000000000000000000000000600052602160045260246000fd5b600281106118f6576118f56118b6565b5b50565b6000819050611907826118e5565b919050565b6000611917826118f9565b9050919050565b6119278161190c565b82525050565b600081519050919050565b600082825260208201905092915050565b60005b8381101561196757808201518184015260208101905061194c565b83811115611976576000848401525b50505050565b6000601f19601f8301169050919050565b60006119988261192d565b6119a28185611938565b93506119b2818560208601611949565b6119bb8161197c565b840191505092915050565b60006080820190506119db60008301876118a7565b6119e8602083018661191e565b81810360408301526119fa818561198d565b9050611a0960608301846118a7565b95945050505050565b600081519050919050565b600082825260208201905092915050565b6000611a3982611a12565b611a438185611a1d565b9350611a53818560208601611949565b611a5c8161197c565b840191505092915050565b60006020820190508181036000830152611a818184611a2e565b905092915050565b600067ffffffffffffffff82169050919050565b611aa681611a89565b8114611ab157600080fd5b50565b600081359050611ac381611a9d565b92915050565b60008060008060608587031215611ae357611ae2611269565b5b6000611af1878288016114b0565b945050602085013567ffffffffffffffff811115611b1257611b1161126e565b5b611b1e878288016113c0565b93509350506040611b3187828801611ab4565b91505092959194509250565b600080600080600060808688031215611b5957611b58611269565b5b6000611b67888289016112ce565b955050602086013567ffffffffffffffff811115611b8857611b8761126e565b5b611b94888289016112e8565b945050604086013567ffffffffffffffff811115611bb557611bb461126e565b5b611bc1888289016113c0565b9350935050606086013567ffffffffffffffff811115611be457611be361126e565b5b611bf088828901611307565b9150509295509295909350565b60008060208385031215611c1457611c13611269565b5b600083013567ffffffffffffffff811115611c3257611c3161126e565b5b611c3e85828601611540565b92509250509250929050565b600060208284031215611c6057611c5f611269565b5b6000611c6e8482850161147a565b91505092915050565b7f50726f6f6620766572696669636174696f6e206661696c656400000000000000600082015250565b6000611cad601983611938565b9150611cb882611c77565b602082019050919050565b60006020820190508181036000830152611cdc81611ca0565b9050919050565b600080fd5b600080fd5b600080fd5b600082356001604003833603038112611d0e57611d0d611ce3565b5b80830191505092915050565b60008083356001602003843603038112611d3757611d36611ce3565b5b80840192508235915067ffffffffffffffff821115611d5957611d58611ce8565b5b602083019250600182023603831315611d7557611d74611ced565b5b509250929050565b60008083356001602003843603038112611d9a57611d99611ce3565b5b80840192508235915067ffffffffffffffff821115611dbc57611dbb611ce8565b5b602083019250600182023603831315611dd857611dd7611ced565b5b509250929050565b600060208284031215611df657611df5611269565b5b6000611e0484828501611ab4565b91505092915050565b82818337600083830152505050565b6000611e288385611938565b9350611e35838584611e0d565b611e3e8361197c565b840190509392505050565b6000611e558385611a1d565b9350611e62838584611e0d565b611e6b8361197c565b840190509392505050565b611e7f81611a89565b82525050565b60006080820190508181036000830152611ea081898b611e1c565b90508181036020830152611eb5818789611e1c565b90508181036040830152611eca818587611e49565b9050611ed96060830184611e76565b98975050505050505050565b7f436c69656e74206e6f7420637265617465640000000000000000000000000000600082015250565b6000611f1b601283611938565b9150611f2682611ee5565b602082019050919050565b60006020820190508181036000830152611f4a81611f0e565b9050919050565b7f4e487b7100000000000000000000000000000000000000000000000000000000600052602260045260246000fd5b60006002820490506001821680611f9857607f821691505b60208210811415611fac57611fab611f51565b5b50919050565b60008190508160005260206000209050919050565b60008154611fd481611f80565b611fde8186611a1d565b94506001821660008114611ff9576001811461200b5761203e565b60ff198316865260208601935061203e565b61201485611fb2565b60005b8381101561203657815481890152600182019150602081019050612017565b808801955050505b50505092915050565b600060408201905081810360008301526120618186611fc7565b90508181036020830152612076818486611e49565b9050949350505050565b60008115159050919050565b61209581612080565b81146120a057600080fd5b50565b6000815190506120b28161208c565b92915050565b6000602082840312156120ce576120cd611269565b5b60006120dc848285016120a3565b91505092915050565b7f436f6e73656e73757320737461746520766572696669636174696f6e2066616960008201527f6c65640000000000000000000000000000000000000000000000000000000000602082015250565b6000612141602383611938565b915061214c826120e5565b604082019050919050565b6000602082019050818103600083015261217081612134565b9050919050565b60006121866020840184611ab4565b905092915050565b61219781611a89565b82525050565b600080fd5b600080fd5b600080fd5b600080833560016020038436030381126121c9576121c86121a7565b5b83810192508235915060208301925067ffffffffffffffff8211156121f1576121f061219d565b5b600182023603841315612207576122066121a2565b5b509250929050565b600082825260208201905092915050565b600061222c838561220f565b9350612239838584611e0d565b6122428361197c565b840190509392505050565b6000604083016122606000840184612177565b61226d600086018261218e565b5061227b60208401846121ac565b858303602087015261228e838284612220565b925050508091505092915050565b7f6368616e6e656c2f706174682f746f2f62652f61646465642f68657265000000600082015250565b60006122d2601d83611a1d565b91506122dd8261229c565b602082019050919050565b600060808201905081810360008301526123028186611fc7565b90508181036020830152612316818561224d565b90508181036040830152612329816122c5565b9050818103606083015261233d8184611a2e565b9050949350505050565b7f4661696c20746f2070726f7665206368616e6e656c2073746174650000000000600082015250565b600061237d601b83611938565b915061238882612347565b602082019050919050565b600060208201905081810360008301526123ac81612370565b9050919050565b600082825260208201905092915050565b6000819050919050565b600082825260208201905092915050565b60006123eb83856123ce565b93506123f8838584611e0d565b6124018361197c565b840190509392505050565b60006124198484846123df565b90509392505050565b6000808335600160200384360303811261243f5761243e6121a7565b5b83810192508235915060208301925067ffffffffffffffff8211156124675761246661219d565b5b60018202360384131561247d5761247c6121a2565b5b509250929050565b6000602082019050919050565b600061249e83856123b3565b9350836020840285016124b0846123c4565b8060005b878110156124f65784840389526124cb8284612422565b6124d686828461240c565b95506124e184612485565b935060208b019a5050506001810190506124b4565b50829750879450505050509392505050565b600060c08201905061251d600083018b6118a7565b61252a602083018a61191e565b818103604083015261253d81888a612492565b905061254c60608301876118a7565b818103608083015261255f818587611e1c565b905061256e60a08301846118a7565b9998505050505050505050565b60008151905061258a81611499565b92915050565b6000602082840312156125a6576125a5611269565b5b60006125b48482850161257b565b91505092915050565b600060a0820190506125d2600083018a6118a7565b6125df602083018961191e565b81810360408301526125f2818789612492565b90508181036060830152612607818587611e1c565b905061261660808301846118a7565b98975050505050505050565b7f436c69656e7420616c7265616479206372656174656400000000000000000000600082015250565b6000612658601683611938565b915061266382612622565b602082019050919050565b600060208201905081810360008301526126878161264b565b9050919050565b60006060820190506126a360008301866118a7565b6126b060208301856118a7565b6126bd60408301846118a7565b949350505050565b7f4e487b7100000000000000000000000000000000000000000000000000000000600052604160045260246000fd5b6126fd8261197c565b810181811067ffffffffffffffff8211171561271c5761271b6126c5565b5b80604052505050565b600061272f61125f565b905061273b82826126f4565b919050565b600067ffffffffffffffff82111561275b5761275a6126c5565b5b602082029050602081019050919050565b600080fd5b600067ffffffffffffffff82111561278c5761278b6126c5565b5b6127958261197c565b9050602081019050919050565b60006127b56127b084612771565b612725565b9050828152602081018484840111156127d1576127d061276c565b5b6127dc848285611e0d565b509392505050565b600082601f8301126127f9576127f86113b1565b5b81356128098482602086016127a2565b91505092915050565b600061282561282084612740565b612725565b90508083825260208201905060208402830185811115612848576128476113bb565b5b835b8181101561288f57803567ffffffffffffffff81111561286d5761286c6113b1565b5b80860161287a89826127e4565b8552602085019450505060208101905061284a565b5050509392505050565b60006128a6368484612812565b905092915050565b600060408201905081810360008301526128c9818688611e1c565b905081810360208301526128de818486612492565b905095945050505050565b600082356001604003833603038112612905576129046121a7565b5b82810191505092915050565b600061292060208401846114b0565b905092915050565b6129318161148f565b82525050565b60006040830161294a6000840184612422565b858303600087015261295d8382846123df565b9250505061296e6020840184612911565b61297b6020860182612928565b508091505092915050565b600082905092915050565b604082016129a26000830183612177565b6129af600085018261218e565b506129bd6020830183612177565b6129ca602085018261218e565b50505050565b600060c083016129e360008401846128e9565b84820360008601526129f58282612937565b915050612a0560208401846128e9565b8482036020860152612a178282612937565b915050612a276040840184612177565b612a34604086018261218e565b50612a4260608401846121ac565b8583036060870152612a55838284612220565b92505050612a666080840184612986565b612a736080860182612991565b508091505092915050565b60006020820190508181036000830152612a9881846129d0565b905092915050565b60006040820190508181036000830152612abb818587611e49565b9050612aca6020830184611e76565b949350505050565b60006020820190508181036000830152612aed818486611e1c565b90509392505050565b7f4f776e61626c653a206e6577206f776e657220697320746865207a65726f206160008201527f6464726573730000000000000000000000000000000000000000000000000000602082015250565b6000612b52602683611938565b9150612b5d82612af6565b604082019050919050565b60006020820190508181036000830152612b8181612b45565b9050919050565b7f4f776e61626c653a2063616c6c6572206973206e6f7420746865206f776e6572600082015250565b6000612bbe602083611938565b9150612bc982612b88565b602082019050919050565b60006020820190508181036000830152612bed81612bb1565b905091905056fe6578706563746564206368616e6e656c20627974657320636f6e73747275637465642066726f6d20706172616d732e204368616e6e656c2e5374617465203d207b41636b5f50656e64696e672c20436f6e6669726d5f50656e64696e677d6578706563746564206368616e6e656c20627974657320636f6e73747275637465642066726f6d20706172616d732e204368616e6e656c2e5374617465203d207b496e69745f50656e64696e672c205472795f50656e64696e677da2646970667358221220236abcfa30f964deb86e7ca2ea2285b2952c437bf898962128c7a5d9364090aa64736f6c63430008090033",
  "linkReferences": {},
  "deployedLinkReferences": {}
}