{
  "_format": "hh-sol-artifact-1",
  "contractName": "Dispatcher",
  "sourceName": "contracts/Dispatcher.sol",
  "abi": [
    {
      "inputs": [
        {
          "internalType": "contract ZKMintVerifier",
          "name": "_verifier",
          "type": "address"
        },
        {
          "internalType": "address payable",
          "name": "_escrow",
          "type": "address"
        }
      ],
      "stateMutability": "nonpayable",
      "type": "constructor"
    },
    {
      "anonymous": false,
      "inputs": [
        {
          "indexed": true,
          "internalType": "address",
          "name": "sourcePortAddress",
          "type": "address"
        },
        {
          "indexed": true,
          "internalType": "bytes32",
          "name": "sourceChannelId",
          "type": "bytes32"
        },
        {
          "components": [
            {
              "internalType": "bool",
              "name": "success",
              "type": "bool"
            },
            {
              "internalType": "bytes",
              "name": "data",
              "type": "bytes"
            }
          ],
          "indexed": false,
          "internalType": "struct AckPacket",
          "name": "AckPacket",
          "type": "tuple"
        },
        {
          "indexed": false,
          "internalType": "uint64",
          "name": "sequence",
          "type": "uint64"
        }
      ],
      "name": "Acknowledgement",
      "type": "event"
    },
    {
      "anonymous": false,
      "inputs": [
        {
          "indexed": true,
          "internalType": "address",
          "name": "portAddress",
          "type": "address"
        },
        {
          "indexed": true,
          "internalType": "bytes32",
          "name": "channelId",
          "type": "bytes32"
        }
      ],
      "name": "CloseIbcChannel",
      "type": "event"
    },
    {
      "anonymous": false,
      "inputs": [
        {
          "indexed": true,
          "internalType": "address",
          "name": "portAddress",
          "type": "address"
        },
        {
          "indexed": true,
          "internalType": "bytes32",
          "name": "channelId",
          "type": "bytes32"
        },
        {
          "indexed": false,
          "internalType": "string",
          "name": "counterpartyPortId",
          "type": "string"
        },
        {
          "indexed": true,
          "internalType": "bytes32",
          "name": "counterpartyChannelId",
          "type": "bytes32"
        },
        {
          "indexed": false,
          "internalType": "string[]",
          "name": "connectionHops",
          "type": "string[]"
        }
      ],
      "name": "ConnectIbcChannel",
      "type": "event"
    },
    {
      "anonymous": false,
      "inputs": [
        {
          "indexed": true,
          "internalType": "address",
          "name": "portAddress",
          "type": "address"
        },
        {
          "indexed": true,
          "internalType": "bytes32",
          "name": "counterpartyChannelId",
          "type": "bytes32"
        },
        {
          "indexed": false,
          "internalType": "bytes32",
          "name": "version",
          "type": "bytes32"
        },
        {
          "indexed": false,
          "internalType": "enum ChannelOrder",
          "name": "ordering",
          "type": "uint8"
        },
        {
          "indexed": false,
          "internalType": "string[]",
          "name": "connectionHops",
          "type": "string[]"
        },
        {
          "indexed": false,
          "internalType": "string",
          "name": "counterpartyPortId",
          "type": "string"
        },
        {
          "indexed": false,
          "internalType": "bytes32",
          "name": "counterpartyVersion",
          "type": "bytes32"
        }
      ],
      "name": "OpenIbcChannel",
      "type": "event"
    },
    {
      "anonymous": false,
      "inputs": [
        {
          "indexed": true,
          "internalType": "address",
          "name": "previousOwner",
          "type": "address"
        },
        {
          "indexed": true,
          "internalType": "address",
          "name": "newOwner",
          "type": "address"
        }
      ],
      "name": "OwnershipTransferred",
      "type": "event"
    },
    {
      "anonymous": false,
      "inputs": [
        {
          "indexed": true,
          "internalType": "address",
          "name": "destPortAddress",
          "type": "address"
        },
        {
          "indexed": true,
          "internalType": "bytes32",
          "name": "destChannelId",
          "type": "bytes32"
        },
        {
          "indexed": false,
          "internalType": "string",
          "name": "srcPortId",
          "type": "string"
        },
        {
          "indexed": true,
          "internalType": "bytes32",
          "name": "srcChannelId",
          "type": "bytes32"
        },
        {
          "indexed": false,
          "internalType": "uint64",
          "name": "sequence",
          "type": "uint64"
        }
      ],
      "name": "RecvPacket",
      "type": "event"
    },
    {
      "anonymous": false,
      "inputs": [
        {
          "indexed": true,
          "internalType": "address",
          "name": "sourcePortAddress",
          "type": "address"
        },
        {
          "indexed": true,
          "internalType": "bytes32",
          "name": "sourceChannelId",
          "type": "bytes32"
        },
        {
          "indexed": false,
          "internalType": "bytes",
          "name": "packet",
          "type": "bytes"
        },
        {
          "indexed": false,
          "internalType": "uint64",
          "name": "sequence",
          "type": "uint64"
        },
        {
          "indexed": false,
          "internalType": "uint64",
          "name": "timeoutTimestamp",
          "type": "uint64"
        },
        {
          "indexed": false,
          "internalType": "uint256",
          "name": "fee",
          "type": "uint256"
        }
      ],
      "name": "SendPacket",
      "type": "event"
    },
    {
      "anonymous": false,
      "inputs": [
        {
          "indexed": true,
          "internalType": "address",
          "name": "sourcePortAddress",
          "type": "address"
        },
        {
          "indexed": true,
          "internalType": "bytes32",
          "name": "sourceChannelId",
          "type": "bytes32"
        },
        {
          "indexed": true,
          "internalType": "uint64",
          "name": "sequence",
          "type": "uint64"
        }
      ],
      "name": "Timeout",
      "type": "event"
    },
    {
      "anonymous": false,
      "inputs": [
        {
          "indexed": true,
          "internalType": "address",
          "name": "writerPortAddress",
          "type": "address"
        },
        {
          "indexed": true,
          "internalType": "bytes32",
          "name": "writerChannelId",
          "type": "bytes32"
        },
        {
          "indexed": false,
          "internalType": "uint64",
          "name": "sequence",
          "type": "uint64"
        },
        {
          "components": [
            {
              "internalType": "bool",
              "name": "success",
              "type": "bool"
            },
            {
              "internalType": "bytes",
              "name": "data",
              "type": "bytes"
            }
          ],
          "indexed": false,
          "internalType": "struct AckPacket",
          "name": "ackPacket",
          "type": "tuple"
        }
      ],
      "name": "WriteAckPacket",
      "type": "event"
    },
    {
      "inputs": [
        {
          "internalType": "contract IbcReceiver",
          "name": "receiver",
          "type": "address"
        },
        {
          "components": [
            {
              "components": [
                {
                  "internalType": "string",
                  "name": "portId",
                  "type": "string"
                },
                {
                  "internalType": "bytes32",
                  "name": "channelId",
                  "type": "bytes32"
                }
              ],
              "internalType": "struct IbcEndpoint",
              "name": "src",
              "type": "tuple"
            },
            {
              "components": [
                {
                  "internalType": "string",
                  "name": "portId",
                  "type": "string"
                },
                {
                  "internalType": "bytes32",
                  "name": "channelId",
                  "type": "bytes32"
                }
              ],
              "internalType": "struct IbcEndpoint",
              "name": "dest",
              "type": "tuple"
            },
            {
              "internalType": "uint64",
              "name": "sequence",
              "type": "uint64"
            },
            {
              "internalType": "bytes",
              "name": "data",
              "type": "bytes"
            },
            {
              "components": [
                {
                  "internalType": "uint64",
                  "name": "block",
                  "type": "uint64"
                },
                {
                  "internalType": "uint64",
                  "name": "timestamp",
                  "type": "uint64"
                }
              ],
              "internalType": "struct IbcTimeout",
              "name": "timeout",
              "type": "tuple"
            }
          ],
          "internalType": "struct IbcPacket",
          "name": "packet",
          "type": "tuple"
        },
        {
          "components": [
            {
              "internalType": "bool",
              "name": "success",
              "type": "bool"
            },
            {
              "internalType": "bytes",
              "name": "data",
              "type": "bytes"
            }
          ],
          "internalType": "struct AckPacket",
          "name": "ackPacket",
          "type": "tuple"
        },
        {
          "components": [
            {
              "internalType": "uint64",
              "name": "proofHeight",
              "type": "uint64"
            },
            {
              "internalType": "bytes",
              "name": "proof",
              "type": "bytes"
            }
          ],
          "internalType": "struct Proof",
          "name": "proof",
          "type": "tuple"
        }
      ],
      "name": "acknowledgement",
      "outputs": [],
      "stateMutability": "nonpayable",
      "type": "function"
    },
    {
      "inputs": [
        {
          "internalType": "bytes32",
          "name": "channelId",
          "type": "bytes32"
        }
      ],
      "name": "closeIbcChannel",
      "outputs": [],
      "stateMutability": "nonpayable",
      "type": "function"
    },
    {
      "inputs": [
        {
          "internalType": "contract IbcReceiver",
          "name": "portAddress",
          "type": "address"
        },
        {
          "internalType": "bytes32",
          "name": "channelId",
          "type": "bytes32"
        },
        {
          "internalType": "string[]",
          "name": "connectionHops",
          "type": "string[]"
        },
        {
          "internalType": "enum ChannelOrder",
          "name": "ordering",
          "type": "uint8"
        },
        {
          "internalType": "string",
          "name": "counterpartyPortId",
          "type": "string"
        },
        {
          "internalType": "bytes32",
          "name": "counterpartyChannelId",
          "type": "bytes32"
        },
        {
          "internalType": "bytes32",
          "name": "counterpartyVersion",
          "type": "bytes32"
        },
        {
          "components": [
            {
              "internalType": "uint64",
              "name": "proofHeight",
              "type": "uint64"
            },
            {
              "internalType": "bytes",
              "name": "proof",
              "type": "bytes"
            }
          ],
          "internalType": "struct Proof",
          "name": "proof",
          "type": "tuple"
        }
      ],
      "name": "connectIbcChannel",
      "outputs": [],
      "stateMutability": "nonpayable",
      "type": "function"
    },
    {
      "inputs": [
        {
          "components": [
            {
              "internalType": "bytes",
              "name": "clientState",
              "type": "bytes"
            },
            {
              "internalType": "bytes",
              "name": "consensusState",
              "type": "bytes"
            }
          ],
          "internalType": "struct InitClientMsg",
          "name": "initClientMsg",
          "type": "tuple"
        }
      ],
      "name": "createClient",
      "outputs": [],
      "stateMutability": "nonpayable",
      "type": "function"
    },
    {
      "inputs": [
        {
          "internalType": "address",
          "name": "portAddress",
          "type": "address"
        },
        {
          "internalType": "bytes32",
          "name": "channelId",
          "type": "bytes32"
        }
      ],
      "name": "getChannel",
      "outputs": [
        {
          "components": [
            {
              "internalType": "bytes32",
              "name": "version",
              "type": "bytes32"
            },
            {
              "internalType": "enum ChannelOrder",
              "name": "ordering",
              "type": "uint8"
            },
            {
              "internalType": "string[]",
              "name": "connectionHops",
              "type": "string[]"
            },
            {
              "internalType": "string",
              "name": "counterpartyPortId",
              "type": "string"
            },
            {
              "internalType": "bytes32",
              "name": "counterpartyChannelId",
              "type": "bytes32"
            }
          ],
          "internalType": "struct Channel",
          "name": "",
          "type": "tuple"
        }
      ],
      "stateMutability": "view",
      "type": "function"
    },
    {
      "inputs": [
        {
          "internalType": "string",
          "name": "hexStr",
          "type": "string"
        }
      ],
      "name": "hexStrToAddress",
      "outputs": [
        {
          "internalType": "address",
          "name": "",
          "type": "address"
        }
      ],
      "stateMutability": "pure",
      "type": "function"
    },
    {
      "inputs": [],
      "name": "latestConsensusState",
      "outputs": [
        {
          "internalType": "bytes",
          "name": "",
          "type": "bytes"
        }
      ],
      "stateMutability": "view",
      "type": "function"
    },
    {
      "inputs": [
        {
          "internalType": "address",
          "name": "portAddress",
          "type": "address"
        },
        {
          "internalType": "bytes32",
          "name": "channelId",
          "type": "bytes32"
        },
        {
          "components": [
            {
              "internalType": "uint64",
              "name": "proofHeight",
              "type": "uint64"
            },
            {
              "internalType": "bytes",
              "name": "proof",
              "type": "bytes"
            }
          ],
          "internalType": "struct Proof",
          "name": "proof",
          "type": "tuple"
        }
      ],
      "name": "onCloseIbcChannel",
      "outputs": [],
      "stateMutability": "nonpayable",
      "type": "function"
    },
    {
      "inputs": [
        {
          "internalType": "contract IbcReceiver",
          "name": "portAddress",
          "type": "address"
        },
        {
          "internalType": "bytes32",
          "name": "version",
          "type": "bytes32"
        },
        {
          "internalType": "enum ChannelOrder",
          "name": "ordering",
          "type": "uint8"
        },
        {
          "internalType": "string[]",
          "name": "connectionHops",
          "type": "string[]"
        },
        {
          "internalType": "bytes32",
          "name": "counterpartyChannelId",
          "type": "bytes32"
        },
        {
          "internalType": "string",
          "name": "counterpartyPortId",
          "type": "string"
        },
        {
          "internalType": "bytes32",
          "name": "counterpartyVersion",
          "type": "bytes32"
        }
      ],
      "name": "openIbcChannel",
      "outputs": [],
      "stateMutability": "nonpayable",
      "type": "function"
    },
    {
      "inputs": [],
      "name": "owner",
      "outputs": [
        {
          "internalType": "address",
          "name": "",
          "type": "address"
        }
      ],
      "stateMutability": "view",
      "type": "function"
    },
    {
      "inputs": [
        {
          "internalType": "address",
          "name": "",
          "type": "address"
        },
        {
          "internalType": "bytes32",
          "name": "",
          "type": "bytes32"
        }
      ],
      "name": "portChannelMap",
      "outputs": [
        {
          "internalType": "bytes32",
          "name": "version",
          "type": "bytes32"
        },
        {
          "internalType": "enum ChannelOrder",
          "name": "ordering",
          "type": "uint8"
        },
        {
          "internalType": "string",
          "name": "counterpartyPortId",
          "type": "string"
        },
        {
          "internalType": "bytes32",
          "name": "counterpartyChannelId",
          "type": "bytes32"
        }
      ],
      "stateMutability": "view",
      "type": "function"
    },
    {
      "inputs": [
        {
          "internalType": "address",
          "name": "addr",
          "type": "address"
        },
        {
          "internalType": "string",
          "name": "portId",
          "type": "string"
        }
      ],
      "name": "portIdAddressMatch",
      "outputs": [
        {
          "internalType": "bool",
          "name": "",
          "type": "bool"
        }
      ],
      "stateMutability": "view",
      "type": "function"
    },
    {
      "inputs": [
        {
          "internalType": "contract IbcReceiver",
          "name": "receiver",
          "type": "address"
        },
        {
          "components": [
            {
              "components": [
                {
                  "internalType": "string",
                  "name": "portId",
                  "type": "string"
                },
                {
                  "internalType": "bytes32",
                  "name": "channelId",
                  "type": "bytes32"
                }
              ],
              "internalType": "struct IbcEndpoint",
              "name": "src",
              "type": "tuple"
            },
            {
              "components": [
                {
                  "internalType": "string",
                  "name": "portId",
                  "type": "string"
                },
                {
                  "internalType": "bytes32",
                  "name": "channelId",
                  "type": "bytes32"
                }
              ],
              "internalType": "struct IbcEndpoint",
              "name": "dest",
              "type": "tuple"
            },
            {
              "internalType": "uint64",
              "name": "sequence",
              "type": "uint64"
            },
            {
              "internalType": "bytes",
              "name": "data",
              "type": "bytes"
            },
            {
              "components": [
                {
                  "internalType": "uint64",
                  "name": "block",
                  "type": "uint64"
                },
                {
                  "internalType": "uint64",
                  "name": "timestamp",
                  "type": "uint64"
                }
              ],
              "internalType": "struct IbcTimeout",
              "name": "timeout",
              "type": "tuple"
            }
          ],
          "internalType": "struct IbcPacket",
          "name": "packet",
          "type": "tuple"
        },
        {
          "components": [
            {
              "internalType": "uint64",
              "name": "proofHeight",
              "type": "uint64"
            },
            {
              "internalType": "bytes",
              "name": "proof",
              "type": "bytes"
            }
          ],
          "internalType": "struct Proof",
          "name": "proof",
          "type": "tuple"
        }
      ],
      "name": "recvPacket",
      "outputs": [],
      "stateMutability": "nonpayable",
      "type": "function"
    },
    {
      "inputs": [],
      "name": "renounceOwnership",
      "outputs": [],
      "stateMutability": "nonpayable",
      "type": "function"
    },
    {
      "inputs": [
        {
          "internalType": "bytes32",
          "name": "channelId",
          "type": "bytes32"
        },
        {
          "internalType": "bytes",
          "name": "packet",
          "type": "bytes"
        },
        {
          "internalType": "uint64",
          "name": "timeoutTimestamp",
          "type": "uint64"
        },
        {
          "internalType": "uint256",
          "name": "fee",
          "type": "uint256"
        }
      ],
      "name": "sendPacket",
      "outputs": [],
      "stateMutability": "payable",
      "type": "function"
    },
    {
      "inputs": [
        {
          "internalType": "contract IbcReceiver",
          "name": "receiver",
          "type": "address"
        },
        {
          "components": [
            {
              "components": [
                {
                  "internalType": "string",
                  "name": "portId",
                  "type": "string"
                },
                {
                  "internalType": "bytes32",
                  "name": "channelId",
                  "type": "bytes32"
                }
              ],
              "internalType": "struct IbcEndpoint",
              "name": "src",
              "type": "tuple"
            },
            {
              "components": [
                {
                  "internalType": "string",
                  "name": "portId",
                  "type": "string"
                },
                {
                  "internalType": "bytes32",
                  "name": "channelId",
                  "type": "bytes32"
                }
              ],
              "internalType": "struct IbcEndpoint",
              "name": "dest",
              "type": "tuple"
            },
            {
              "internalType": "uint64",
              "name": "sequence",
              "type": "uint64"
            },
            {
              "internalType": "bytes",
              "name": "data",
              "type": "bytes"
            },
            {
              "components": [
                {
                  "internalType": "uint64",
                  "name": "block",
                  "type": "uint64"
                },
                {
                  "internalType": "uint64",
                  "name": "timestamp",
                  "type": "uint64"
                }
              ],
              "internalType": "struct IbcTimeout",
              "name": "timeout",
              "type": "tuple"
            }
          ],
          "internalType": "struct IbcPacket",
          "name": "packet",
          "type": "tuple"
        },
        {
          "components": [
            {
              "internalType": "uint64",
              "name": "proofHeight",
              "type": "uint64"
            },
            {
              "internalType": "bytes",
              "name": "proof",
              "type": "bytes"
            }
          ],
          "internalType": "struct Proof",
          "name": "proof",
          "type": "tuple"
        }
      ],
      "name": "timeout",
      "outputs": [],
      "stateMutability": "nonpayable",
      "type": "function"
    },
    {
      "inputs": [
        {
          "internalType": "address",
          "name": "newOwner",
          "type": "address"
        }
      ],
      "name": "transferOwnership",
      "outputs": [],
      "stateMutability": "nonpayable",
      "type": "function"
    },
    {
      "inputs": [
        {
          "components": [
            {
              "internalType": "bytes",
              "name": "consensusState",
              "type": "bytes"
            },
            {
              "internalType": "uint64",
              "name": "height",
              "type": "uint64"
            },
            {
              "internalType": "bytes",
              "name": "zkProof",
              "type": "bytes"
            }
          ],
          "internalType": "struct UpdateClientMsg",
          "name": "updateClientMsg",
          "type": "tuple"
        }
      ],
      "name": "updateClient",
      "outputs": [],
      "stateMutability": "nonpayable",
      "type": "function"
    },
    {
      "inputs": [
        {
          "components": [
            {
              "internalType": "bytes",
              "name": "clientState",
              "type": "bytes"
            },
            {
              "internalType": "bytes",
              "name": "consensusState",
              "type": "bytes"
            }
          ],
          "internalType": "struct UpgradeClientMsg",
          "name": "upgradeClientMsg",
          "type": "tuple"
        }
      ],
      "name": "upgradeClient",
      "outputs": [],
      "stateMutability": "nonpayable",
      "type": "function"
    }
  ],
  "bytecode": "0x60806040526000600260146101000a81548160ff0219169083151502179055506040518060400160405280600c81526020017f6574682e706f6c796962632e0000000000000000000000000000000000000000815250600490805190602001906200006c929190620002d5565b50600c600560006101000a81548167ffffffffffffffff021916908367ffffffffffffffff160217905550348015620000a457600080fd5b5060405162006508380380620065088339818101604052810190620000ca919062000448565b620000ea620000de6200020960201b60201c565b6200021160201b60201c565b81600160006101000a81548173ffffffffffffffffffffffffffffffffffffffff021916908373ffffffffffffffffffffffffffffffffffffffff16021790555080600260006101000a81548173ffffffffffffffffffffffffffffffffffffffff021916908373ffffffffffffffffffffffffffffffffffffffff160217905550600073ffffffffffffffffffffffffffffffffffffffff16600260009054906101000a900473ffffffffffffffffffffffffffffffffffffffff1673ffffffffffffffffffffffffffffffffffffffff16141562000201576040517f08c379a0000000000000000000000000000000000000000000000000000000008152600401620001f890620004f0565b60405180910390fd5b505062000577565b600033905090565b60008060009054906101000a900473ffffffffffffffffffffffffffffffffffffffff169050816000806101000a81548173ffffffffffffffffffffffffffffffffffffffff021916908373ffffffffffffffffffffffffffffffffffffffff1602179055508173ffffffffffffffffffffffffffffffffffffffff168173ffffffffffffffffffffffffffffffffffffffff167f8be0079c531659141344cd1fd0a4f28419497f9722a3daafe3b4186f6b6457e060405160405180910390a35050565b828054620002e39062000541565b90600052602060002090601f01602090048101928262000307576000855562000353565b82601f106200032257805160ff191683800117855562000353565b8280016001018555821562000353579182015b828111156200035257825182559160200191906001019062000335565b5b50905062000362919062000366565b5090565b5b808211156200038157600081600090555060010162000367565b5090565b600080fd5b600073ffffffffffffffffffffffffffffffffffffffff82169050919050565b6000620003b7826200038a565b9050919050565b6000620003cb82620003aa565b9050919050565b620003dd81620003be565b8114620003e957600080fd5b50565b600081519050620003fd81620003d2565b92915050565b600062000410826200038a565b9050919050565b620004228162000403565b81146200042e57600080fd5b50565b600081519050620004428162000417565b92915050565b6000806040838503121562000462576200046162000385565b5b60006200047285828601620003ec565b9250506020620004858582860162000431565b9150509250929050565b600082825260208201905092915050565b7f457363726f772063616e6e6f74206265207a65726f2061646472657373000000600082015250565b6000620004d8601d836200048f565b9150620004e582620004a0565b602082019050919050565b600060208201905081810360008301526200050b81620004c9565b9050919050565b7f4e487b7100000000000000000000000000000000000000000000000000000000600052602260045260246000fd5b600060028204905060018216806200055a57607f821691505b6020821081141562000571576200057062000512565b5b50919050565b615f8180620005876000396000f3fe6080604052600436106101145760003560e01c80638d3d5aa9116100a0578063b2b1bf0311610064578063b2b1bf0314610362578063bba10517146103a2578063c2a2514d146103cb578063e36e013f146103f6578063f2fde38b1461043357610114565b80638d3d5aa91461028c5780638da5cb5b146102a857806394e47af8146102d3578063951538f3146102fc578063a1ef9a981461032557610114565b80634efde434116100e75780634efde434146101d1578063520b128e146101fa5780636787464914610223578063715018a61461024c5780638b24b4cb1461026357610114565b80631f456c1e1461011957806342852d2414610142578063487fca7e1461017f5780634c9778d3146101a8575b600080fd5b34801561012557600080fd5b50610140600480360381019061013b9190613494565b61045c565b005b34801561014e57600080fd5b50610169600480360381019061016491906135a2565b610560565b6040516101769190613840565b60405180910390f35b34801561018b57600080fd5b506101a660048036038101906101a19190613886565b610785565b005b3480156101b457600080fd5b506101cf60048036038101906101ca91906138ee565b61081b565b005b3480156101dd57600080fd5b506101f860048036038101906101f39190613a20565b610b4d565b005b34801561020657600080fd5b50610221600480360381019061021c9190613aa7565b610bc7565b005b34801561022f57600080fd5b5061024a60048036038101906102459190613b81565b610f99565b005b34801561025857600080fd5b506102616110f8565b005b34801561026f57600080fd5b5061028a60048036038101906102859190613bca565b61110c565b005b6102a660048036038101906102a19190613cc3565b611434565b005b3480156102b457600080fd5b506102bd611940565b6040516102ca9190613d5a565b60405180910390f35b3480156102df57600080fd5b506102fa60048036038101906102f59190613d75565b611969565b005b34801561030857600080fd5b50610323600480360381019061031e9190613e00565b612241565b005b34801561033157600080fd5b5061034c60048036038101906103479190613f9f565b612709565b6040516103599190613d5a565b60405180910390f35b34801561036e57600080fd5b50610389600480360381019061038491906135a2565b6128ed565b6040516103999493929190614050565b60405180910390f35b3480156103ae57600080fd5b506103c960048036038101906103c49190613d75565b6129bf565b005b3480156103d757600080fd5b506103e0612d8e565b6040516103ed91906140f1565b60405180910390f35b34801561040257600080fd5b5061041d60048036038101906104189190614113565b612e1c565b60405161042a919061418e565b60405180910390f35b34801561043f57600080fd5b5061045a600480360381019061045591906141a9565b612ed7565b005b60008973ffffffffffffffffffffffffffffffffffffffff1663486592198a8a8a8a8a8a8a8a6040518963ffffffff1660e01b81526004016104a5989796959493929190614356565b602060405180830381600087803b1580156104bf57600080fd5b505af11580156104d3573d6000803e3d6000fd5b505050506040513d601f19601f820116820180604052508101906104f791906143de565b9050848a73ffffffffffffffffffffffffffffffffffffffff167f9a93c124e7f0aa93d3fbe660b1366e0483b4267619924382261498efbb92c873838b8b8b8a8a8a60405161054c979695949392919061440b565b60405180910390a350505050505050505050565b6105686130a5565b600660008473ffffffffffffffffffffffffffffffffffffffff1673ffffffffffffffffffffffffffffffffffffffff16815260200190815260200160002060008381526020019081526020016000206040518060a0016040529081600082015481526020016001820160009054906101000a900460ff1660018111156105f2576105f16135f1565b5b6001811115610604576106036135f1565b5b815260200160028201805480602002602001604051908101604052809291908181526020016000905b828210156106d957838290600052602060002001805461064c9061449f565b80601f01602080910402602001604051908101604052809291908181526020018280546106789061449f565b80156106c55780601f1061069a576101008083540402835291602001916106c5565b820191906000526020600020905b8154815290600101906020018083116106a857829003601f168201915b50505050508152602001906001019061062d565b5050505081526020016003820180546106f19061449f565b80601f016020809104026020016040519081016040528092919081815260200182805461071d9061449f565b801561076a5780601f1061073f5761010080835404028352916020019161076a565b820191906000526020600020905b81548152906001019060200180831161074d57829003601f168201915b50505050508152602001600482015481525050905092915050565b61078d612f5b565b600260149054906101000a900460ff16156107dd576040517f08c379a00000000000000000000000000000000000000000000000000000000081526004016107d49061451d565b60405180910390fd5b6001600260146101000a81548160ff021916908315150217905550808060200190610808919061454c565b600391906108179291906130ec565b5050565b600160009054906101000a900473ffffffffffffffffffffffffffffffffffffffff1673ffffffffffffffffffffffffffffffffffffffff16639511059d6003836040518060800160405280605e8152602001615e9b605e91396040518463ffffffff1660e01b8152600401610893939291906147a6565b60206040518083038186803b1580156108ab57600080fd5b505afa1580156108bf573d6000803e3d6000fd5b505050506040513d601f19601f820116820180604052508101906108e39190614831565b610922576040517f08c379a0000000000000000000000000000000000000000000000000000000008152600401610919906148aa565b60405180910390fd5b8973ffffffffffffffffffffffffffffffffffffffff1663e60a72938a85856040518463ffffffff1660e01b815260040161095f939291906148ca565b600060405180830381600087803b15801561097957600080fd5b505af115801561098d573d6000803e3d6000fd5b505050506040518060a001604052808381526020018760018111156109b5576109b46135f1565b5b81526020018989906109c791906149b4565b815260200186868080601f016020809104026020016040519081016040528093929190818152602001838380828437600081840152601f19601f82011690508083019250505050505050815260200184815250600660008c73ffffffffffffffffffffffffffffffffffffffff1673ffffffffffffffffffffffffffffffffffffffff16815260200190815260200160002060008b81526020019081526020016000206000820151816000015560208201518160010160006101000a81548160ff02191690836001811115610a9f57610a9e6135f1565b5b02179055506040820151816002019080519060200190610ac0929190613172565b506060820151816003019080519060200190610add9291906131d2565b506080820151816004015590505082898b73ffffffffffffffffffffffffffffffffffffffff167f57ea540ad7b8bfd2813b8637764ba029fedc52de3f812934a46511506aa11b8e88888d8d604051610b3994939291906149c9565b60405180910390a450505050505050505050565b610b55612f5b565b600260149054906101000a900460ff16610ba4576040517f08c379a0000000000000000000000000000000000000000000000000000000008152600401610b9b90614a50565b60405180910390fd5b808060200190610bb4919061454c565b60039190610bc39291906130ec565b5050565b610bef84848060000190610bdb9190614a70565b8060000190610bea9190614a98565b612e1c565b610c2e576040517f08c379a0000000000000000000000000000000000000000000000000000000008152600401610c2590614b6d565b60405180910390fd5b600160009054906101000a900473ffffffffffffffffffffffffffffffffffffffff1673ffffffffffffffffffffffffffffffffffffffff16639511059d6003836040518363ffffffff1660e01b8152600401610c8c929190614c4b565b60206040518083038186803b158015610ca457600080fd5b505afa158015610cb8573d6000803e3d6000fd5b505050506040513d601f19601f82011682018060405250810190610cdc9190614831565b610d1b576040517f08c379a0000000000000000000000000000000000000000000000000000000008152600401610d1290614cf4565b60405180910390fd5b6000600860008673ffffffffffffffffffffffffffffffffffffffff1673ffffffffffffffffffffffffffffffffffffffff1681526020019081526020016000206000858060000190610d6e9190614a70565b6020013581526020019081526020016000206000856040016020810190610d959190614d14565b67ffffffffffffffff1667ffffffffffffffff16815260200190815260200160002060009054906101000a900460ff16905080610e07576040517f08c379a0000000000000000000000000000000000000000000000000000000008152600401610dfe90614d8d565b60405180910390fd5b8473ffffffffffffffffffffffffffffffffffffffff1663f45cf5e4856040518263ffffffff1660e01b8152600401610e409190614f33565b600060405180830381600087803b158015610e5a57600080fd5b505af1158015610e6e573d6000803e3d6000fd5b50505050600860008673ffffffffffffffffffffffffffffffffffffffff1673ffffffffffffffffffffffffffffffffffffffff1681526020019081526020016000206000858060000190610ec39190614a70565b6020013581526020019081526020016000206000856040016020810190610eea9190614d14565b67ffffffffffffffff1667ffffffffffffffff16815260200190815260200160002060006101000a81549060ff0219169055838060000190610f2c9190614a70565b602001358573ffffffffffffffffffffffffffffffffffffffff167fc4198f9e29f113c5464c20bc273a0861cf81d5fdef68c6a7cc9993d9437d1a0b85876040016020810190610f7c9190614d14565b604051610f8a929190614fee565b60405180910390a35050505050565b600260149054906101000a900460ff16610fe8576040517f08c379a0000000000000000000000000000000000000000000000000000000008152600401610fdf90614a50565b60405180910390fd5b600160009054906101000a900473ffffffffffffffffffffffffffffffffffffffff1673ffffffffffffffffffffffffffffffffffffffff1663ab5eba266003836040518363ffffffff1660e01b8152600401611046929190615091565b60206040518083038186803b15801561105e57600080fd5b505afa158015611072573d6000803e3d6000fd5b505050506040513d601f19601f820116820180604052508101906110969190614831565b6110d5576040517f08c379a00000000000000000000000000000000000000000000000000000000081526004016110cc9061513a565b60405180910390fd5b8080600001906110e5919061454c565b600391906110f49291906130ec565b5050565b611100612f5b565b61110a6000612fd9565b565b6000600660003373ffffffffffffffffffffffffffffffffffffffff1673ffffffffffffffffffffffffffffffffffffffff16815260200190815260200160002060008381526020019081526020016000206040518060a0016040529081600082015481526020016001820160009054906101000a900460ff166001811115611198576111976135f1565b5b60018111156111aa576111a96135f1565b5b815260200160028201805480602002602001604051908101604052809291908181526020016000905b8282101561127f5783829060005260206000200180546111f29061449f565b80601f016020809104026020016040519081016040528092919081815260200182805461121e9061449f565b801561126b5780601f106112405761010080835404028352916020019161126b565b820191906000526020600020905b81548152906001019060200180831161124e57829003601f168201915b5050505050815260200190600101906111d3565b5050505081526020016003820180546112979061449f565b80601f01602080910402602001604051908101604052809291908181526020018280546112c39061449f565b80156113105780601f106112e557610100808354040283529160200191611310565b820191906000526020600020905b8154815290600101906020018083116112f357829003601f168201915b5050505050815260200160048201548152505090506000801b8160800151141561136f576040517f08c379a0000000000000000000000000000000000000000000000000000000008152600401611366906151a6565b60405180910390fd5b60003390508073ffffffffffffffffffffffffffffffffffffffff16635fe39e0d84846060015185608001516040518463ffffffff1660e01b81526004016113b9939291906151c6565b600060405180830381600087803b1580156113d357600080fd5b505af11580156113e7573d6000803e3d6000fd5b50505050823373ffffffffffffffffffffffffffffffffffffffff167fe893e4ba0e364cdc96364b1e1e0d53b0d91e5fd6aa0ee9d81a17ecd61178bf1760405160405180910390a3505050565b6000600660003373ffffffffffffffffffffffffffffffffffffffff1673ffffffffffffffffffffffffffffffffffffffff16815260200190815260200160002060008781526020019081526020016000206040518060a0016040529081600082015481526020016001820160009054906101000a900460ff1660018111156114c0576114bf6135f1565b5b60018111156114d2576114d16135f1565b5b815260200160028201805480602002602001604051908101604052809291908181526020016000905b828210156115a757838290600052602060002001805461151a9061449f565b80601f01602080910402602001604051908101604052809291908181526020018280546115469061449f565b80156115935780601f1061156857610100808354040283529160200191611593565b820191906000526020600020905b81548152906001019060200180831161157657829003601f168201915b5050505050815260200190600101906114fb565b5050505081526020016003820180546115bf9061449f565b80601f01602080910402602001604051908101604052809291908181526020018280546115eb9061449f565b80156116385780601f1061160d57610100808354040283529160200191611638565b820191906000526020600020905b81548152906001019060200180831161161b57829003601f168201915b5050505050815260200160048201548152505090506000801b81608001511415611697576040517f08c379a000000000000000000000000000000000000000000000000000000000815260040161168e90615250565b60405180910390fd5b6000600260009054906101000a900473ffffffffffffffffffffffffffffffffffffffff1673ffffffffffffffffffffffffffffffffffffffff16836040516116df906152a1565b60006040518083038185875af1925050503d806000811461171c576040519150601f19603f3d011682016040523d82523d6000602084013e611721565b606091505b5050905080611765576040517f08c379a000000000000000000000000000000000000000000000000000000000815260040161175c90615302565b60405180910390fd5b6000600760003373ffffffffffffffffffffffffffffffffffffffff1673ffffffffffffffffffffffffffffffffffffffff168152602001908152602001600020600089815260200190815260200160002060009054906101000a900467ffffffffffffffff1690506001816117db9190615351565b600760003373ffffffffffffffffffffffffffffffffffffffff1673ffffffffffffffffffffffffffffffffffffffff16815260200190815260200160002060008a815260200190815260200160002060006101000a81548167ffffffffffffffff021916908367ffffffffffffffff1602179055506001600860003373ffffffffffffffffffffffffffffffffffffffff1673ffffffffffffffffffffffffffffffffffffffff16815260200190815260200160002060008a815260200190815260200160002060008367ffffffffffffffff1667ffffffffffffffff16815260200190815260200160002060006101000a81548160ff021916908315150217905550873373ffffffffffffffffffffffffffffffffffffffff167fc55a6c1340ca55a6b61de30037455a7f9f4a5b8ff106e4eaa0c23ea886fa03608989858a8a60405161192e9594939291906153cb565b60405180910390a35050505050505050565b60008060009054906101000a900473ffffffffffffffffffffffffffffffffffffffff16905090565b6119918383806020019061197d9190614a70565b806000019061198c9190614a98565b612e1c565b6119d0576040517f08c379a00000000000000000000000000000000000000000000000000000000081526004016119c79061548b565b60405180910390fd5b600160009054906101000a900473ffffffffffffffffffffffffffffffffffffffff1673ffffffffffffffffffffffffffffffffffffffff16639511059d6003836040518363ffffffff1660e01b8152600401611a2e929190615569565b60206040518083038186803b158015611a4657600080fd5b505afa158015611a5a573d6000803e3d6000fd5b505050506040513d601f19601f82011682018060405250810190611a7e9190614831565b611abd576040517f08c379a0000000000000000000000000000000000000000000000000000000008152600401611ab490615612565b60405180910390fd5b6000600960008573ffffffffffffffffffffffffffffffffffffffff1673ffffffffffffffffffffffffffffffffffffffff1681526020019081526020016000206000848060200190611b109190614a70565b6020013581526020019081526020016000206000846040016020810190611b379190614d14565b67ffffffffffffffff1667ffffffffffffffff16815260200190815260200160002060009054906101000a900460ff1690508015611baa576040517f08c379a0000000000000000000000000000000000000000000000000000000008152600401611ba19061567e565b60405180910390fd5b6000600660008673ffffffffffffffffffffffffffffffffffffffff1673ffffffffffffffffffffffffffffffffffffffff1681526020019081526020016000206000858060200190611bfd9190614a70565b6020013581526020019081526020016000206040518060a0016040529081600082015481526020016001820160009054906101000a900460ff166001811115611c4957611c486135f1565b5b6001811115611c5b57611c5a6135f1565b5b815260200160028201805480602002602001604051908101604052809291908181526020016000905b82821015611d30578382906000526020600020018054611ca39061449f565b80601f0160208091040260200160405190810160405280929190818152602001828054611ccf9061449f565b8015611d1c5780601f10611cf157610100808354040283529160200191611d1c565b820191906000526020600020905b815481529060010190602001808311611cff57829003601f168201915b505050505081526020019060010190611c84565b505050508152602001600382018054611d489061449f565b80601f0160208091040260200160405190810160405280929190818152602001828054611d749061449f565b8015611dc15780601f10611d9657610100808354040283529160200191611dc1565b820191906000526020600020905b815481529060010190602001808311611da457829003601f168201915b505050505081526020016004820154815250509050600180811115611de957611de86135f1565b5b81602001516001811115611e0057611dff6135f1565b5b1415611f8e57600a60008673ffffffffffffffffffffffffffffffffffffffff1673ffffffffffffffffffffffffffffffffffffffff1681526020019081526020016000206000858060200190611e579190614a70565b60200135815260200190815260200160002060009054906101000a900467ffffffffffffffff1667ffffffffffffffff16846040016020810190611e9b9190614d14565b67ffffffffffffffff1614611ee5576040517f08c379a0000000000000000000000000000000000000000000000000000000008152600401611edc906156ea565b60405180910390fd5b6001846040016020810190611efa9190614d14565b611f049190615351565b600a60008773ffffffffffffffffffffffffffffffffffffffff1673ffffffffffffffffffffffffffffffffffffffff1681526020019081526020016000206000868060200190611f559190614a70565b60200135815260200190815260200160002060006101000a81548167ffffffffffffffff021916908367ffffffffffffffff1602179055505b60008573ffffffffffffffffffffffffffffffffffffffff1663b058e81a866040518263ffffffff1660e01b8152600401611fc99190614f33565b600060405180830381600087803b158015611fe357600080fd5b505af1158015611ff7573d6000803e3d6000fd5b505050506040513d6000823e3d601f19601f820116820180604052508101906120209190615821565b90506000600b60008873ffffffffffffffffffffffffffffffffffffffff1673ffffffffffffffffffffffffffffffffffffffff16815260200190815260200160002060008780602001906120759190614a70565b602001358152602001908152602001600020600087604001602081019061209c9190614d14565b67ffffffffffffffff1667ffffffffffffffff16815260200190815260200160002060009054906101000a900460ff169050801561210f576040517f08c379a0000000000000000000000000000000000000000000000000000000008152600401612106906158dc565b60405180910390fd5b6001600b60008973ffffffffffffffffffffffffffffffffffffffff1673ffffffffffffffffffffffffffffffffffffffff16815260200190815260200160002060008880602001906121629190614a70565b60200135815260200190815260200160002060008860400160208101906121899190614d14565b67ffffffffffffffff1667ffffffffffffffff16815260200190815260200160002060006101000a81548160ff0219169083151502179055508580602001906121d29190614a70565b602001358773ffffffffffffffffffffffffffffffffffffffff167fa32e6f42b1d63fb83ad73b009a6dbb9413d1da02e95b1bb08f081815eea8db208860400160208101906122219190614d14565b85604051612230929190615972565b60405180910390a350505050505050565b600160009054906101000a900473ffffffffffffffffffffffffffffffffffffffff1673ffffffffffffffffffffffffffffffffffffffff16639511059d600383604051806080016040528060538152602001615ef9605391396040518463ffffffff1660e01b81526004016122b9939291906147a6565b60206040518083038186803b1580156122d157600080fd5b505afa1580156122e5573d6000803e3d6000fd5b505050506040513d601f19601f820116820180604052508101906123099190614831565b612348576040517f08c379a000000000000000000000000000000000000000000000000000000000815260040161233f906148aa565b60405180910390fd5b6000600660008573ffffffffffffffffffffffffffffffffffffffff1673ffffffffffffffffffffffffffffffffffffffff16815260200190815260200160002060008481526020019081526020016000206040518060a0016040529081600082015481526020016001820160009054906101000a900460ff1660018111156123d4576123d36135f1565b5b60018111156123e6576123e56135f1565b5b815260200160028201805480602002602001604051908101604052809291908181526020016000905b828210156124bb57838290600052602060002001805461242e9061449f565b80601f016020809104026020016040519081016040528092919081815260200182805461245a9061449f565b80156124a75780601f1061247c576101008083540402835291602001916124a7565b820191906000526020600020905b81548152906001019060200180831161248a57829003601f168201915b50505050508152602001906001019061240f565b5050505081526020016003820180546124d39061449f565b80601f01602080910402602001604051908101604052809291908181526020018280546124ff9061449f565b801561254c5780601f106125215761010080835404028352916020019161254c565b820191906000526020600020905b81548152906001019060200180831161252f57829003601f168201915b5050505050815260200160048201548152505090506000801b816080015114156125ab576040517f08c379a00000000000000000000000000000000000000000000000000000000081526004016125a2906159ee565b60405180910390fd5b60008490508073ffffffffffffffffffffffffffffffffffffffff16635fe39e0d85846060015185608001516040518463ffffffff1660e01b81526004016125f5939291906151c6565b600060405180830381600087803b15801561260f57600080fd5b505af1158015612623573d6000803e3d6000fd5b50505050600660008673ffffffffffffffffffffffffffffffffffffffff1673ffffffffffffffffffffffffffffffffffffffff16815260200190815260200160002060008581526020019081526020016000206000808201600090556001820160006101000a81549060ff02191690556002820160006126a49190613258565b6003820160006126b49190613279565b60048201600090555050838573ffffffffffffffffffffffffffffffffffffffff167fe893e4ba0e364cdc96364b1e1e0d53b0d91e5fd6aa0ee9d81a17ecd61178bf1760405160405180910390a35050505050565b6000602882511461274f576040517f08c379a000000000000000000000000000000000000000000000000000000000815260040161274690615a5a565b60405180910390fd5b60008290506000601467ffffffffffffffff81111561277157612770613e74565b5b6040519080825280601f01601f1916602001820160405280156127a35781602001600182028036833780820191505090505b50905060005b60148110156128d8576000836002836127c29190615a7a565b815181106127d3576127d2615ad4565b5b602001015160f81c60f81b60f81c90506000846002846127f39190615a7a565b60016127ff9190615b03565b815181106128105761280f615ad4565b5b602001015160f81c60f81b60f81c9050600060618260ff161015612835576030612838565b60575b826128439190615b66565b601060618560ff16101561285857603061285b565b60575b856128669190615b66565b6128709190615b9a565b61287a9190615bd5565b90508060f81b85858151811061289357612892615ad4565b5b60200101907effffffffffffffffffffffffffffffffffffffffffffffffffffffffffffff1916908160001a90535050505080806128d090615c0c565b9150506127a9565b50600060148201519050809350505050919050565b6006602052816000526040600020602052806000526040600020600091509150508060000154908060010160009054906101000a900460ff16908060030180546129369061449f565b80601f01602080910402602001604051908101604052809291908181526020018280546129629061449f565b80156129af5780601f10612984576101008083540402835291602001916129af565b820191906000526020600020905b81548152906001019060200180831161299257829003601f168201915b5050505050908060040154905084565b6129e7838380600001906129d39190614a70565b80600001906129e29190614a98565b612e1c565b612a26576040517f08c379a0000000000000000000000000000000000000000000000000000000008152600401612a1d90614b6d565b60405180910390fd5b600160009054906101000a900473ffffffffffffffffffffffffffffffffffffffff1673ffffffffffffffffffffffffffffffffffffffff1663016308716003836040518363ffffffff1660e01b8152600401612a84929190615ca1565b60206040518083038186803b158015612a9c57600080fd5b505afa158015612ab0573d6000803e3d6000fd5b505050506040513d601f19601f82011682018060405250810190612ad49190614831565b612b13576040517f08c379a0000000000000000000000000000000000000000000000000000000008152600401612b0a90615d37565b60405180910390fd5b6000600860008573ffffffffffffffffffffffffffffffffffffffff1673ffffffffffffffffffffffffffffffffffffffff1681526020019081526020016000206000848060000190612b669190614a70565b6020013581526020019081526020016000206000846040016020810190612b8d9190614d14565b67ffffffffffffffff1667ffffffffffffffff16815260200190815260200160002060009054906101000a900460ff16905080612bff576040517f08c379a0000000000000000000000000000000000000000000000000000000008152600401612bf690614d8d565b60405180910390fd5b8373ffffffffffffffffffffffffffffffffffffffff1663b33c2577846040518263ffffffff1660e01b8152600401612c389190614f33565b600060405180830381600087803b158015612c5257600080fd5b505af1158015612c66573d6000803e3d6000fd5b50505050600860008573ffffffffffffffffffffffffffffffffffffffff1673ffffffffffffffffffffffffffffffffffffffff1681526020019081526020016000206000848060000190612cbb9190614a70565b6020013581526020019081526020016000206000846040016020810190612ce29190614d14565b67ffffffffffffffff1667ffffffffffffffff16815260200190815260200160002060006101000a81549060ff0219169055826040016020810190612d279190614d14565b67ffffffffffffffff16838060000190612d419190614a70565b602001358573ffffffffffffffffffffffffffffffffffffffff167f19ac40c4084d9bfb5b43f819a94bf01c70789b0d579871f59e4f86def04d934460405160405180910390a450505050565b60038054612d9b9061449f565b80601f0160208091040260200160405190810160405280929190818152602001828054612dc79061449f565b8015612e145780601f10612de957610100808354040283529160200191612e14565b820191906000526020600020905b815481529060010190602001808311612df757829003601f168201915b505050505081565b6000808383600560009054906101000a900467ffffffffffffffff1667ffffffffffffffff16908092612e5193929190615d61565b8080601f016020809104026020016040519081016040528093929190818152602001838380828437600081840152601f19601f8201169050808301925050505050505090508473ffffffffffffffffffffffffffffffffffffffff16612eb682612709565b73ffffffffffffffffffffffffffffffffffffffff16149150509392505050565b612edf612f5b565b600073ffffffffffffffffffffffffffffffffffffffff168173ffffffffffffffffffffffffffffffffffffffff161415612f4f576040517f08c379a0000000000000000000000000000000000000000000000000000000008152600401612f4690615e0e565b60405180910390fd5b612f5881612fd9565b50565b612f6361309d565b73ffffffffffffffffffffffffffffffffffffffff16612f81611940565b73ffffffffffffffffffffffffffffffffffffffff1614612fd7576040517f08c379a0000000000000000000000000000000000000000000000000000000008152600401612fce90615e7a565b60405180910390fd5b565b60008060009054906101000a900473ffffffffffffffffffffffffffffffffffffffff169050816000806101000a81548173ffffffffffffffffffffffffffffffffffffffff021916908373ffffffffffffffffffffffffffffffffffffffff1602179055508173ffffffffffffffffffffffffffffffffffffffff168173ffffffffffffffffffffffffffffffffffffffff167f8be0079c531659141344cd1fd0a4f28419497f9722a3daafe3b4186f6b6457e060405160405180910390a35050565b600033905090565b6040518060a0016040528060008019168152602001600060018111156130ce576130cd6135f1565b5b81526020016060815260200160608152602001600080191681525090565b8280546130f89061449f565b90600052602060002090601f01602090048101928261311a5760008555613161565b82601f1061313357803560ff1916838001178555613161565b82800160010185558215613161579182015b82811115613160578235825591602001919060010190613145565b5b50905061316e91906132b9565b5090565b8280548282559060005260206000209081019282156131c1579160200282015b828111156131c05782518290805190602001906131b09291906131d2565b5091602001919060010190613192565b5b5090506131ce91906132d6565b5090565b8280546131de9061449f565b90600052602060002090601f0160209004810192826132005760008555613247565b82601f1061321957805160ff1916838001178555613247565b82800160010185558215613247579182015b8281111561324657825182559160200191906001019061322b565b5b50905061325491906132b9565b5090565b508054600082559060005260206000209081019061327691906132d6565b50565b5080546132859061449f565b6000825580601f1061329757506132b6565b601f0160209004906000526020600020908101906132b591906132b9565b5b50565b5b808211156132d25760008160009055506001016132ba565b5090565b5b808211156132f657600081816132ed9190613279565b506001016132d7565b5090565b6000604051905090565b600080fd5b600080fd5b600073ffffffffffffffffffffffffffffffffffffffff82169050919050565b60006133398261330e565b9050919050565b600061334b8261332e565b9050919050565b61335b81613340565b811461336657600080fd5b50565b60008135905061337881613352565b92915050565b6000819050919050565b6133918161337e565b811461339c57600080fd5b50565b6000813590506133ae81613388565b92915050565b600281106133c157600080fd5b50565b6000813590506133d3816133b4565b92915050565b600080fd5b600080fd5b600080fd5b60008083601f8401126133fe576133fd6133d9565b5b8235905067ffffffffffffffff81111561341b5761341a6133de565b5b602083019150836020820283011115613437576134366133e3565b5b9250929050565b60008083601f840112613454576134536133d9565b5b8235905067ffffffffffffffff811115613471576134706133de565b5b60208301915083600182028301111561348d5761348c6133e3565b5b9250929050565b600080600080600080600080600060e08a8c0312156134b6576134b5613304565b5b60006134c48c828d01613369565b99505060206134d58c828d0161339f565b98505060406134e68c828d016133c4565b97505060608a013567ffffffffffffffff81111561350757613506613309565b5b6135138c828d016133e8565b965096505060806135268c828d0161339f565b94505060a08a013567ffffffffffffffff81111561354757613546613309565b5b6135538c828d0161343e565b935093505060c06135668c828d0161339f565b9150509295985092959850929598565b61357f8161332e565b811461358a57600080fd5b50565b60008135905061359c81613576565b92915050565b600080604083850312156135b9576135b8613304565b5b60006135c78582860161358d565b92505060206135d88582860161339f565b9150509250929050565b6135eb8161337e565b82525050565b7f4e487b7100000000000000000000000000000000000000000000000000000000600052602160045260246000fd5b60028110613631576136306135f1565b5b50565b600081905061364282613620565b919050565b600061365282613634565b9050919050565b61366281613647565b82525050565b600081519050919050565b600082825260208201905092915050565b6000819050602082019050919050565b600081519050919050565b600082825260208201905092915050565b60005b838110156136ce5780820151818401526020810190506136b3565b838111156136dd576000848401525b50505050565b6000601f19601f8301169050919050565b60006136ff82613694565b613709818561369f565b93506137198185602086016136b0565b613722816136e3565b840191505092915050565b600061373983836136f4565b905092915050565b6000602082019050919050565b600061375982613668565b6137638185613673565b93508360208202850161377585613684565b8060005b858110156137b15784840389528151613792858261372d565b945061379d83613741565b925060208a01995050600181019050613779565b50829750879550505050505092915050565b600060a0830160008301516137db60008601826135e2565b5060208301516137ee6020860182613659565b5060408301518482036040860152613806828261374e565b9150506060830151848203606086015261382082826136f4565b915050608083015161383560808601826135e2565b508091505092915050565b6000602082019050818103600083015261385a81846137c3565b905092915050565b600080fd5b60006040828403121561387d5761387c613862565b5b81905092915050565b60006020828403121561389c5761389b613304565b5b600082013567ffffffffffffffff8111156138ba576138b9613309565b5b6138c684828501613867565b91505092915050565b6000604082840312156138e5576138e4613862565b5b81905092915050565b6000806000806000806000806000806101008b8d03121561391257613911613304565b5b60006139208d828e01613369565b9a505060206139318d828e0161339f565b99505060408b013567ffffffffffffffff81111561395257613951613309565b5b61395e8d828e016133e8565b985098505060606139718d828e016133c4565b96505060808b013567ffffffffffffffff81111561399257613991613309565b5b61399e8d828e0161343e565b955095505060a06139b18d828e0161339f565b93505060c06139c28d828e0161339f565b92505060e08b013567ffffffffffffffff8111156139e3576139e2613309565b5b6139ef8d828e016138cf565b9150509295989b9194979a5092959850565b600060408284031215613a1757613a16613862565b5b81905092915050565b600060208284031215613a3657613a35613304565b5b600082013567ffffffffffffffff811115613a5457613a53613309565b5b613a6084828501613a01565b91505092915050565b600060c08284031215613a7f57613a7e613862565b5b81905092915050565b600060408284031215613a9e57613a9d613862565b5b81905092915050565b60008060008060808587031215613ac157613ac0613304565b5b6000613acf87828801613369565b945050602085013567ffffffffffffffff811115613af057613aef613309565b5b613afc87828801613a69565b935050604085013567ffffffffffffffff811115613b1d57613b1c613309565b5b613b2987828801613a88565b925050606085013567ffffffffffffffff811115613b4a57613b49613309565b5b613b56878288016138cf565b91505092959194509250565b600060608284031215613b7857613b77613862565b5b81905092915050565b600060208284031215613b9757613b96613304565b5b600082013567ffffffffffffffff811115613bb557613bb4613309565b5b613bc184828501613b62565b91505092915050565b600060208284031215613be057613bdf613304565b5b6000613bee8482850161339f565b91505092915050565b60008083601f840112613c0d57613c0c6133d9565b5b8235905067ffffffffffffffff811115613c2a57613c296133de565b5b602083019150836001820283011115613c4657613c456133e3565b5b9250929050565b600067ffffffffffffffff82169050919050565b613c6a81613c4d565b8114613c7557600080fd5b50565b600081359050613c8781613c61565b92915050565b6000819050919050565b613ca081613c8d565b8114613cab57600080fd5b50565b600081359050613cbd81613c97565b92915050565b600080600080600060808688031215613cdf57613cde613304565b5b6000613ced8882890161339f565b955050602086013567ffffffffffffffff811115613d0e57613d0d613309565b5b613d1a88828901613bf7565b94509450506040613d2d88828901613c78565b9250506060613d3e88828901613cae565b9150509295509295909350565b613d548161332e565b82525050565b6000602082019050613d6f6000830184613d4b565b92915050565b600080600060608486031215613d8e57613d8d613304565b5b6000613d9c86828701613369565b935050602084013567ffffffffffffffff811115613dbd57613dbc613309565b5b613dc986828701613a69565b925050604084013567ffffffffffffffff811115613dea57613de9613309565b5b613df6868287016138cf565b9150509250925092565b600080600060608486031215613e1957613e18613304565b5b6000613e278682870161358d565b9350506020613e388682870161339f565b925050604084013567ffffffffffffffff811115613e5957613e58613309565b5b613e65868287016138cf565b9150509250925092565b600080fd5b7f4e487b7100000000000000000000000000000000000000000000000000000000600052604160045260246000fd5b613eac826136e3565b810181811067ffffffffffffffff82111715613ecb57613eca613e74565b5b80604052505050565b6000613ede6132fa565b9050613eea8282613ea3565b919050565b600067ffffffffffffffff821115613f0a57613f09613e74565b5b613f13826136e3565b9050602081019050919050565b82818337600083830152505050565b6000613f42613f3d84613eef565b613ed4565b905082815260208101848484011115613f5e57613f5d613e6f565b5b613f69848285613f20565b509392505050565b600082601f830112613f8657613f856133d9565b5b8135613f96848260208601613f2f565b91505092915050565b600060208284031215613fb557613fb4613304565b5b600082013567ffffffffffffffff811115613fd357613fd2613309565b5b613fdf84828501613f71565b91505092915050565b613ff18161337e565b82525050565b61400081613647565b82525050565b600082825260208201905092915050565b600061402282613694565b61402c8185614006565b935061403c8185602086016136b0565b614045816136e3565b840191505092915050565b60006080820190506140656000830187613fe8565b6140726020830186613ff7565b81810360408301526140848185614017565b90506140936060830184613fe8565b95945050505050565b600081519050919050565b600082825260208201905092915050565b60006140c38261409c565b6140cd81856140a7565b93506140dd8185602086016136b0565b6140e6816136e3565b840191505092915050565b6000602082019050818103600083015261410b81846140b8565b905092915050565b60008060006040848603121561412c5761412b613304565b5b600061413a8682870161358d565b935050602084013567ffffffffffffffff81111561415b5761415a613309565b5b6141678682870161343e565b92509250509250925092565b60008115159050919050565b61418881614173565b82525050565b60006020820190506141a3600083018461417f565b92915050565b6000602082840312156141bf576141be613304565b5b60006141cd8482850161358d565b91505092915050565b600082825260208201905092915050565b6000819050919050565b60006141fd838561369f565b935061420a838584613f20565b614213836136e3565b840190509392505050565b600061422b8484846141f1565b90509392505050565b600080fd5b600080fd5b600080fd5b600080833560016020038436030381126142605761425f61423e565b5b83810192508235915060208301925067ffffffffffffffff82111561428857614287614234565b5b60018202360384131561429e5761429d614239565b5b509250929050565b6000602082019050919050565b60006142bf83856141d6565b9350836020840285016142d1846141e7565b8060005b878110156143175784840389526142ec8284614243565b6142f786828461421e565b9550614302846142a6565b935060208b019a5050506001810190506142d5565b50829750879450505050509392505050565b60006143358385614006565b9350614342838584613f20565b61434b836136e3565b840190509392505050565b600060c08201905061436b600083018b613fe8565b614378602083018a613ff7565b818103604083015261438b81888a6142b3565b905061439a6060830187613fe8565b81810360808301526143ad818587614329565b90506143bc60a0830184613fe8565b9998505050505050505050565b6000815190506143d881613388565b92915050565b6000602082840312156143f4576143f3613304565b5b6000614402848285016143c9565b91505092915050565b600060a082019050614420600083018a613fe8565b61442d6020830189613ff7565b81810360408301526144408187896142b3565b90508181036060830152614455818587614329565b90506144646080830184613fe8565b98975050505050505050565b7f4e487b7100000000000000000000000000000000000000000000000000000000600052602260045260246000fd5b600060028204905060018216806144b757607f821691505b602082108114156144cb576144ca614470565b5b50919050565b7f436c69656e7420616c7265616479206372656174656400000000000000000000600082015250565b6000614507601683614006565b9150614512826144d1565b602082019050919050565b60006020820190508181036000830152614536816144fa565b9050919050565b600080fd5b600080fd5b600080fd5b600080833560016020038436030381126145695761456861453d565b5b80840192508235915067ffffffffffffffff82111561458b5761458a614542565b5b6020830192506001820236038313156145a7576145a6614547565b5b509250929050565b60008190508160005260206000209050919050565b600081546145d18161449f565b6145db81866140a7565b945060018216600081146145f657600181146146085761463b565b60ff198316865260208601935061463b565b614611856145af565b60005b8381101561463357815481890152600182019150602081019050614614565b808801955050505b50505092915050565b60006146536020840184613c78565b905092915050565b61466481613c4d565b82525050565b600080833560016020038436030381126146875761468661423e565b5b83810192508235915060208301925067ffffffffffffffff8211156146af576146ae614234565b5b6001820236038413156146c5576146c4614239565b5b509250929050565b600082825260208201905092915050565b60006146ea83856146cd565b93506146f7838584613f20565b614700836136e3565b840190509392505050565b60006040830161471e6000840184614644565b61472b600086018261465b565b50614739602084018461466a565b858303602087015261474c8382846146de565b925050508091505092915050565b7f6368616e6e656c2f706174682f746f2f62652f61646465642f68657265000000600082015250565b6000614790601d836140a7565b915061479b8261475a565b602082019050919050565b600060808201905081810360008301526147c081866145c4565b905081810360208301526147d4818561470b565b905081810360408301526147e781614783565b905081810360608301526147fb81846140b8565b9050949350505050565b61480e81614173565b811461481957600080fd5b50565b60008151905061482b81614805565b92915050565b60006020828403121561484757614846613304565b5b60006148558482850161481c565b91505092915050565b7f4661696c20746f2070726f7665206368616e6e656c2073746174650000000000600082015250565b6000614894601b83614006565b915061489f8261485e565b602082019050919050565b600060208201905081810360008301526148c381614887565b9050919050565b60006060820190506148df6000830186613fe8565b6148ec6020830185613fe8565b6148f96040830184613fe8565b949350505050565b600067ffffffffffffffff82111561491c5761491b613e74565b5b602082029050602081019050919050565b600061494061493b84614901565b613ed4565b90508083825260208201905060208402830185811115614963576149626133e3565b5b835b818110156149aa57803567ffffffffffffffff811115614988576149876133d9565b5b8086016149958982613f71565b85526020850194505050602081019050614965565b5050509392505050565b60006149c136848461492d565b905092915050565b600060408201905081810360008301526149e4818688614329565b905081810360208301526149f98184866142b3565b905095945050505050565b7f436c69656e74206e6f7420637265617465640000000000000000000000000000600082015250565b6000614a3a601283614006565b9150614a4582614a04565b602082019050919050565b60006020820190508181036000830152614a6981614a2d565b9050919050565b600082356001604003833603038112614a8c57614a8b61453d565b5b80830191505092915050565b60008083356001602003843603038112614ab557614ab461453d565b5b80840192508235915067ffffffffffffffff821115614ad757614ad6614542565b5b602083019250600182023603831315614af357614af2614547565b5b509250929050565b7f5265636569766572206973206e6f7420746865206f726967696e616c2070616360008201527f6b65742073656e64657200000000000000000000000000000000000000000000602082015250565b6000614b57602a83614006565b9150614b6282614afb565b604082019050919050565b60006020820190508181036000830152614b8681614b4a565b9050919050565b7f61636b2f7061636b65742f706174680000000000000000000000000000000000600082015250565b6000614bc3600f836140a7565b9150614bce82614b8d565b602082019050919050565b7f65787065637465642061636b20726563656970742068617368206f6e20506f6c60008201527f796d657220636861696e00000000000000000000000000000000000000000000602082015250565b6000614c35602a836140a7565b9150614c4082614bd9565b604082019050919050565b60006080820190508181036000830152614c6581856145c4565b90508181036020830152614c79818461470b565b90508181036040830152614c8c81614bb6565b90508181036060830152614c9f81614c28565b90509392505050565b7f4661696c20746f2070726f76652061636b000000000000000000000000000000600082015250565b6000614cde601183614006565b9150614ce982614ca8565b602082019050919050565b60006020820190508181036000830152614d0d81614cd1565b9050919050565b600060208284031215614d2a57614d29613304565b5b6000614d3884828501613c78565b91505092915050565b7f5061636b657420636f6d6d69746d656e74206e6f7420666f756e640000000000600082015250565b6000614d77601b83614006565b9150614d8282614d41565b602082019050919050565b60006020820190508181036000830152614da681614d6a565b9050919050565b600082356001604003833603038112614dc957614dc861423e565b5b82810191505092915050565b6000614de4602084018461339f565b905092915050565b600060408301614dff6000840184614243565b8583036000870152614e128382846141f1565b92505050614e236020840184614dd5565b614e3060208601826135e2565b508091505092915050565b600082905092915050565b60408201614e576000830183614644565b614e64600085018261465b565b50614e726020830183614644565b614e7f602085018261465b565b50505050565b600060c08301614e986000840184614dad565b8482036000860152614eaa8282614dec565b915050614eba6020840184614dad565b8482036020860152614ecc8282614dec565b915050614edc6040840184614644565b614ee9604086018261465b565b50614ef7606084018461466a565b8583036060870152614f0a8382846146de565b92505050614f1b6080840184614e3b565b614f286080860182614e46565b508091505092915050565b60006020820190508181036000830152614f4d8184614e85565b905092915050565b600081359050614f6481614805565b92915050565b6000614f796020840184614f55565b905092915050565b614f8a81614173565b82525050565b600060408301614fa36000840184614f6a565b614fb06000860182614f81565b50614fbe602084018461466a565b8583036020870152614fd18382846146de565b925050508091505092915050565b614fe881613c4d565b82525050565b600060408201905081810360008301526150088185614f90565b90506150176020830184614fdf565b9392505050565b600060608301615031600084018461466a565b85830360008701526150448382846146de565b925050506150556020840184614644565b615062602086018261465b565b50615070604084018461466a565b85830360408701526150838382846146de565b925050508091505092915050565b600060408201905081810360008301526150ab81856145c4565b905081810360208301526150bf818461501e565b90509392505050565b7f557064617465436c69656e744d73672070726f6f66207665726966696361746960008201527f6f6e206661696c65640000000000000000000000000000000000000000000000602082015250565b6000615124602983614006565b915061512f826150c8565b604082019050919050565b6000602082019050818103600083015261515381615117565b9050919050565b7f4368616e6e656c206e6f74206f776e6564206279206d73672e73656e64657200600082015250565b6000615190601f83614006565b915061519b8261515a565b602082019050919050565b600060208201905081810360008301526151bf81615183565b9050919050565b60006060820190506151db6000830186613fe8565b81810360208301526151ed8185614017565b90506151fc6040830184613fe8565b949350505050565b7f4368616e6e656c206e6f74206f776e65642062792073656e6465720000000000600082015250565b600061523a601b83614006565b915061524582615204565b602082019050919050565b600060208201905081810360008301526152698161522d565b9050919050565b600081905092915050565b50565b600061528b600083615270565b91506152968261527b565b600082019050919050565b60006152ac8261527e565b9150819050919050565b7f4661696c656420746f20657363726f77207061636b6574206665650000000000600082015250565b60006152ec601b83614006565b91506152f7826152b6565b602082019050919050565b6000602082019050818103600083015261531b816152df565b9050919050565b7f4e487b7100000000000000000000000000000000000000000000000000000000600052601160045260246000fd5b600061535c82613c4d565b915061536783613c4d565b92508267ffffffffffffffff0382111561538457615383615322565b5b828201905092915050565b600061539b83856140a7565b93506153a8838584613f20565b6153b1836136e3565b840190509392505050565b6153c581613c8d565b82525050565b600060808201905081810360008301526153e681878961538f565b90506153f56020830186614fdf565b6154026040830185614fdf565b61540f60608301846153bc565b9695505050505050565b7f5265636569766572206973206e6f742074686520696e74656e6465642070616360008201527f6b65742064657374696e6174696f6e0000000000000000000000000000000000602082015250565b6000615475602f83614006565b915061548082615419565b604082019050919050565b600060208201905081810360008301526154a481615468565b9050919050565b7f7061636b65742f636f6d6d69746d656e742f7061746800000000000000000000600082015250565b60006154e16016836140a7565b91506154ec826154ab565b602082019050919050565b7f6578706563746564207669727475616c207061636b657420636f6d6d69746d6560008201527f6e742068617368206f6e20506f6c796d657220636861696e0000000000000000602082015250565b60006155536038836140a7565b915061555e826154f7565b604082019050919050565b6000608082019050818103600083015261558381856145c4565b90508181036020830152615597818461470b565b905081810360408301526155aa816154d4565b905081810360608301526155bd81615546565b90509392505050565b7f4661696c20746f2070726f7665207061636b657420636f6d6d69746d656e7400600082015250565b60006155fc601f83614006565b9150615607826155c6565b602082019050919050565b6000602082019050818103600083015261562b816155ef565b9050919050565b7f5061636b6574207265636569707420616c726561647920657869737473000000600082015250565b6000615668601d83614006565b915061567382615632565b602082019050919050565b600060208201905081810360008301526156978161565b565b9050919050565b7f556e6578706563746564207061636b65742073657175656e6365000000000000600082015250565b60006156d4601a83614006565b91506156df8261569e565b602082019050919050565b60006020820190508181036000830152615703816156c7565b9050919050565b600080fd5b600080fd5b600067ffffffffffffffff82111561572f5761572e613e74565b5b615738826136e3565b9050602081019050919050565b600061575861575384615714565b613ed4565b90508281526020810184848401111561577457615773613e6f565b5b61577f8482856136b0565b509392505050565b600082601f83011261579c5761579b6133d9565b5b81516157ac848260208601615745565b91505092915050565b6000604082840312156157cb576157ca61570a565b5b6157d56040613ed4565b905060006157e58482850161481c565b600083015250602082015167ffffffffffffffff8111156158095761580861570f565b5b61581584828501615787565b60208301525092915050565b60006020828403121561583757615836613304565b5b600082015167ffffffffffffffff81111561585557615854613309565b5b615861848285016157b5565b91505092915050565b7f41636b207061636b657420636f6d6d69746d656e7420616c726561647920657860008201527f6973747300000000000000000000000000000000000000000000000000000000602082015250565b60006158c6602483614006565b91506158d18261586a565b604082019050919050565b600060208201905081810360008301526158f5816158b9565b9050919050565b60006159078261409c565b61591181856146cd565b93506159218185602086016136b0565b61592a816136e3565b840191505092915050565b600060408301600083015161594d6000860182614f81565b506020830151848203602086015261596582826158fc565b9150508091505092915050565b60006040820190506159876000830185614fdf565b81810360208301526159998184615935565b90509392505050565b7f4368616e6e656c206e6f74206f776e656420627920706f727441646472657373600082015250565b60006159d8602083614006565b91506159e3826159a2565b602082019050919050565b60006020820190508181036000830152615a07816159cb565b9050919050565b7f496e76616c69642068657820737472696e67206c656e67746800000000000000600082015250565b6000615a44601983614006565b9150615a4f82615a0e565b602082019050919050565b60006020820190508181036000830152615a7381615a37565b9050919050565b6000615a8582613c8d565b9150615a9083613c8d565b9250817fffffffffffffffffffffffffffffffffffffffffffffffffffffffffffffffff0483118215151615615ac957615ac8615322565b5b828202905092915050565b7f4e487b7100000000000000000000000000000000000000000000000000000000600052603260045260246000fd5b6000615b0e82613c8d565b9150615b1983613c8d565b9250827fffffffffffffffffffffffffffffffffffffffffffffffffffffffffffffffff03821115615b4e57615b4d615322565b5b828201905092915050565b600060ff82169050919050565b6000615b7182615b59565b9150615b7c83615b59565b925082821015615b8f57615b8e615322565b5b828203905092915050565b6000615ba582615b59565b9150615bb083615b59565b92508160ff0483118215151615615bca57615bc9615322565b5b828202905092915050565b6000615be082615b59565b9150615beb83615b59565b92508260ff03821115615c0157615c00615322565b5b828201905092915050565b6000615c1782613c8d565b91507fffffffffffffffffffffffffffffffffffffffffffffffffffffffffffffffff821415615c4a57615c49615322565b5b600182019050919050565b7f7061636b65742f726563656970742f7061746800000000000000000000000000600082015250565b6000615c8b6013836140a7565b9150615c9682615c55565b602082019050919050565b60006060820190508181036000830152615cbb81856145c4565b90508181036020830152615ccf818461470b565b90508181036040830152615ce281615c7e565b90509392505050565b7f4661696c20746f2070726f76652074696d656f75740000000000000000000000600082015250565b6000615d21601583614006565b9150615d2c82615ceb565b602082019050919050565b60006020820190508181036000830152615d5081615d14565b9050919050565b600080fd5b600080fd5b60008085851115615d7557615d74615d57565b5b83861115615d8657615d85615d5c565b5b6001850283019150848603905094509492505050565b7f4f776e61626c653a206e6577206f776e657220697320746865207a65726f206160008201527f6464726573730000000000000000000000000000000000000000000000000000602082015250565b6000615df8602683614006565b9150615e0382615d9c565b604082019050919050565b60006020820190508181036000830152615e2781615deb565b9050919050565b7f4f776e61626c653a2063616c6c6572206973206e6f7420746865206f776e6572600082015250565b6000615e64602083614006565b9150615e6f82615e2e565b602082019050919050565b60006020820190508181036000830152615e9381615e57565b905091905056fe6578706563746564206368616e6e656c20627974657320636f6e73747275637465642066726f6d20706172616d732e204368616e6e656c2e5374617465203d207b41636b5f50656e64696e672c20436f6e6669726d5f50656e64696e677d6578706563746564206368616e6e656c20627974657320636f6e73747275637465642066726f6d20706172616d732e204368616e6e656c2e5374617465203d207b436c6f736564285f50656e64696e673f297da2646970667358221220a0ad91f0b801bf968bf866bdabb815b637898639859ac3a233fc807d989a1d0464736f6c63430008090033",
  "linkReferences": {},
  "deployedLinkReferences": {}
}