{
  "_format": "hh-sol-artifact-1",
  "contractName": "Dispatcher",
  "sourceName": "contracts/Dispatcher.sol",
  "abi": [
    {
      "inputs": [
        {
          "internalType": "contract ZKMintVerifier",
          "name": "_verifier",
          "type": "address"
        }
      ],
      "stateMutability": "nonpayable",
      "type": "constructor"
    },
    {
      "anonymous": false,
      "inputs": [
        {
          "indexed": false,
          "internalType": "string",
          "name": "channelId",
          "type": "string"
        },
        {
          "indexed": true,
          "internalType": "address",
          "name": "portId",
          "type": "address"
        }
      ],
      "name": "CloseIbcChannel",
      "type": "event"
    },
    {
      "anonymous": false,
      "inputs": [
        {
          "indexed": true,
          "internalType": "address",
          "name": "portAddress",
          "type": "address"
        },
        {
          "indexed": true,
          "internalType": "bytes32",
          "name": "channelId",
          "type": "bytes32"
        },
        {
          "indexed": false,
          "internalType": "string",
          "name": "counterpartyPortId",
          "type": "string"
        },
        {
          "indexed": true,
          "internalType": "bytes32",
          "name": "counterpartyChannelId",
          "type": "bytes32"
        },
        {
          "indexed": false,
          "internalType": "string[]",
          "name": "connectionHops",
          "type": "string[]"
        }
      ],
      "name": "ConnectIbcChannel",
      "type": "event"
    },
    {
      "anonymous": false,
      "inputs": [
        {
          "indexed": true,
          "internalType": "bytes32",
          "name": "srcChannelId",
          "type": "bytes32"
        },
        {
          "indexed": false,
          "internalType": "string",
          "name": "srcPortId",
          "type": "string"
        },
        {
          "indexed": true,
          "internalType": "bytes32",
          "name": "destChannelId",
          "type": "bytes32"
        },
        {
          "indexed": false,
          "internalType": "string",
          "name": "destPortId",
          "type": "string"
        },
        {
          "indexed": false,
          "internalType": "bytes",
          "name": "data",
          "type": "bytes"
        },
        {
          "indexed": false,
          "internalType": "uint64",
          "name": "sequence",
          "type": "uint64"
        }
      ],
      "name": "OnRecvPacket",
      "type": "event"
    },
    {
      "anonymous": false,
      "inputs": [
        {
          "indexed": true,
          "internalType": "address",
          "name": "portAddress",
          "type": "address"
        },
        {
          "indexed": true,
          "internalType": "bytes32",
          "name": "counterpartyChannelId",
          "type": "bytes32"
        },
        {
          "indexed": false,
          "internalType": "bytes32",
          "name": "version",
          "type": "bytes32"
        },
        {
          "indexed": false,
          "internalType": "enum ChannelOrder",
          "name": "ordering",
          "type": "uint8"
        },
        {
          "indexed": false,
          "internalType": "string[]",
          "name": "connectionHops",
          "type": "string[]"
        },
        {
          "indexed": false,
          "internalType": "string",
          "name": "counterpartyPortId",
          "type": "string"
        },
        {
          "indexed": false,
          "internalType": "bytes32",
          "name": "counterpartyVersion",
          "type": "bytes32"
        }
      ],
      "name": "OpenIbcChannel",
      "type": "event"
    },
    {
      "anonymous": false,
      "inputs": [
        {
          "indexed": true,
          "internalType": "address",
          "name": "previousOwner",
          "type": "address"
        },
        {
          "indexed": true,
          "internalType": "address",
          "name": "newOwner",
          "type": "address"
        }
      ],
      "name": "OwnershipTransferred",
      "type": "event"
    },
    {
      "anonymous": false,
      "inputs": [
        {
          "indexed": true,
          "internalType": "address",
          "name": "portId",
          "type": "address"
        },
        {
          "indexed": true,
          "internalType": "bytes32",
          "name": "channelId",
          "type": "bytes32"
        },
        {
          "indexed": false,
          "internalType": "bytes",
          "name": "packet",
          "type": "bytes"
        },
        {
          "indexed": false,
          "internalType": "uint64",
          "name": "timeoutTimestamp",
          "type": "uint64"
        }
      ],
      "name": "SendPacket",
      "type": "event"
    },
    {
      "inputs": [
        {
          "internalType": "string",
          "name": "channelId",
          "type": "string"
        }
      ],
      "name": "closeIbcChannel",
      "outputs": [],
      "stateMutability": "nonpayable",
      "type": "function"
    },
    {
      "inputs": [
        {
          "internalType": "contract IbcReceiver",
          "name": "portAddress",
          "type": "address"
        },
        {
          "internalType": "bytes32",
          "name": "channelId",
          "type": "bytes32"
        },
        {
          "internalType": "string[]",
          "name": "connectionHops",
          "type": "string[]"
        },
        {
          "internalType": "enum ChannelOrder",
          "name": "ordering",
          "type": "uint8"
        },
        {
          "internalType": "string",
          "name": "counterpartyPortId",
          "type": "string"
        },
        {
          "internalType": "bytes32",
          "name": "counterpartyChannelId",
          "type": "bytes32"
        },
        {
          "internalType": "bytes32",
          "name": "counterpartyVersion",
          "type": "bytes32"
        },
        {
          "components": [
            {
              "internalType": "uint64",
              "name": "proofHeight",
              "type": "uint64"
            },
            {
              "internalType": "bytes",
              "name": "proof",
              "type": "bytes"
            }
          ],
          "internalType": "struct Proof",
          "name": "proof",
          "type": "tuple"
        }
      ],
      "name": "connectIbcChannel",
      "outputs": [],
      "stateMutability": "nonpayable",
      "type": "function"
    },
    {
      "inputs": [
        {
          "internalType": "bytes",
          "name": "clientState",
          "type": "bytes"
        },
        {
          "internalType": "bytes",
          "name": "consensusState",
          "type": "bytes"
        }
      ],
      "name": "createClient",
      "outputs": [],
      "stateMutability": "nonpayable",
      "type": "function"
    },
    {
      "inputs": [
        {
          "internalType": "address",
          "name": "portAddress",
          "type": "address"
        },
        {
          "internalType": "bytes32",
          "name": "channelId",
          "type": "bytes32"
        }
      ],
      "name": "getChannel",
      "outputs": [
        {
          "components": [
            {
              "internalType": "bytes32",
              "name": "version",
              "type": "bytes32"
            },
            {
              "internalType": "enum ChannelOrder",
              "name": "ordering",
              "type": "uint8"
            },
            {
              "internalType": "string[]",
              "name": "connectionHops",
              "type": "string[]"
            },
            {
              "internalType": "string",
              "name": "counterpartyPortId",
              "type": "string"
            },
            {
              "internalType": "bytes32",
              "name": "counterpartyChannelId",
              "type": "bytes32"
            }
          ],
          "internalType": "struct Channel",
          "name": "",
          "type": "tuple"
        }
      ],
      "stateMutability": "view",
      "type": "function"
    },
    {
      "inputs": [],
      "name": "latestConsensusState",
      "outputs": [
        {
          "internalType": "bytes",
          "name": "",
          "type": "bytes"
        }
      ],
      "stateMutability": "view",
      "type": "function"
    },
    {
      "inputs": [
        {
          "internalType": "contract IbcReceiver",
          "name": "receiver",
          "type": "address"
        },
        {
          "components": [
            {
              "components": [
                {
                  "internalType": "string",
                  "name": "portId",
                  "type": "string"
                },
                {
                  "internalType": "bytes32",
                  "name": "channelId",
                  "type": "bytes32"
                }
              ],
              "internalType": "struct IbcEndpoint",
              "name": "src",
              "type": "tuple"
            },
            {
              "components": [
                {
                  "internalType": "string",
                  "name": "portId",
                  "type": "string"
                },
                {
                  "internalType": "bytes32",
                  "name": "channelId",
                  "type": "bytes32"
                }
              ],
              "internalType": "struct IbcEndpoint",
              "name": "dest",
              "type": "tuple"
            },
            {
              "internalType": "uint64",
              "name": "sequence",
              "type": "uint64"
            },
            {
              "internalType": "bytes",
              "name": "data",
              "type": "bytes"
            },
            {
              "components": [
                {
                  "internalType": "uint64",
                  "name": "block",
                  "type": "uint64"
                },
                {
                  "internalType": "uint64",
                  "name": "timestamp",
                  "type": "uint64"
                }
              ],
              "internalType": "struct IbcTimeout",
              "name": "timeout",
              "type": "tuple"
            }
          ],
          "internalType": "struct IbcPacket",
          "name": "packet",
          "type": "tuple"
        },
        {
          "internalType": "bytes",
          "name": "acknowledgement",
          "type": "bytes"
        },
        {
          "components": [
            {
              "internalType": "uint64",
              "name": "proofHeight",
              "type": "uint64"
            },
            {
              "internalType": "bytes",
              "name": "proof",
              "type": "bytes"
            }
          ],
          "internalType": "struct Proof",
          "name": "proof",
          "type": "tuple"
        }
      ],
      "name": "onAcknowledgementPacket",
      "outputs": [],
      "stateMutability": "nonpayable",
      "type": "function"
    },
    {
      "inputs": [
        {
          "internalType": "contract IbcReceiver",
          "name": "receiver",
          "type": "address"
        },
        {
          "components": [
            {
              "components": [
                {
                  "internalType": "string",
                  "name": "portId",
                  "type": "string"
                },
                {
                  "internalType": "bytes32",
                  "name": "channelId",
                  "type": "bytes32"
                }
              ],
              "internalType": "struct IbcEndpoint",
              "name": "src",
              "type": "tuple"
            },
            {
              "components": [
                {
                  "internalType": "string",
                  "name": "portId",
                  "type": "string"
                },
                {
                  "internalType": "bytes32",
                  "name": "channelId",
                  "type": "bytes32"
                }
              ],
              "internalType": "struct IbcEndpoint",
              "name": "dest",
              "type": "tuple"
            },
            {
              "internalType": "uint64",
              "name": "sequence",
              "type": "uint64"
            },
            {
              "internalType": "bytes",
              "name": "data",
              "type": "bytes"
            },
            {
              "components": [
                {
                  "internalType": "uint64",
                  "name": "block",
                  "type": "uint64"
                },
                {
                  "internalType": "uint64",
                  "name": "timestamp",
                  "type": "uint64"
                }
              ],
              "internalType": "struct IbcTimeout",
              "name": "timeout",
              "type": "tuple"
            }
          ],
          "internalType": "struct IbcPacket",
          "name": "packet",
          "type": "tuple"
        },
        {
          "components": [
            {
              "internalType": "uint64",
              "name": "proofHeight",
              "type": "uint64"
            },
            {
              "internalType": "bytes",
              "name": "proof",
              "type": "bytes"
            }
          ],
          "internalType": "struct Proof",
          "name": "proof",
          "type": "tuple"
        }
      ],
      "name": "onRecvPacket",
      "outputs": [],
      "stateMutability": "nonpayable",
      "type": "function"
    },
    {
      "inputs": [
        {
          "internalType": "contract IbcReceiver",
          "name": "receiver",
          "type": "address"
        },
        {
          "components": [
            {
              "components": [
                {
                  "internalType": "string",
                  "name": "portId",
                  "type": "string"
                },
                {
                  "internalType": "bytes32",
                  "name": "channelId",
                  "type": "bytes32"
                }
              ],
              "internalType": "struct IbcEndpoint",
              "name": "src",
              "type": "tuple"
            },
            {
              "components": [
                {
                  "internalType": "string",
                  "name": "portId",
                  "type": "string"
                },
                {
                  "internalType": "bytes32",
                  "name": "channelId",
                  "type": "bytes32"
                }
              ],
              "internalType": "struct IbcEndpoint",
              "name": "dest",
              "type": "tuple"
            },
            {
              "internalType": "uint64",
              "name": "sequence",
              "type": "uint64"
            },
            {
              "internalType": "bytes",
              "name": "data",
              "type": "bytes"
            },
            {
              "components": [
                {
                  "internalType": "uint64",
                  "name": "block",
                  "type": "uint64"
                },
                {
                  "internalType": "uint64",
                  "name": "timestamp",
                  "type": "uint64"
                }
              ],
              "internalType": "struct IbcTimeout",
              "name": "timeout",
              "type": "tuple"
            }
          ],
          "internalType": "struct IbcPacket",
          "name": "packet",
          "type": "tuple"
        },
        {
          "components": [
            {
              "internalType": "uint64",
              "name": "proofHeight",
              "type": "uint64"
            },
            {
              "internalType": "bytes",
              "name": "proof",
              "type": "bytes"
            }
          ],
          "internalType": "struct Proof",
          "name": "proof",
          "type": "tuple"
        }
      ],
      "name": "onTimeoutPacket",
      "outputs": [],
      "stateMutability": "nonpayable",
      "type": "function"
    },
    {
      "inputs": [
        {
          "internalType": "contract IbcReceiver",
          "name": "portAddress",
          "type": "address"
        },
        {
          "internalType": "bytes32",
          "name": "version",
          "type": "bytes32"
        },
        {
          "internalType": "enum ChannelOrder",
          "name": "ordering",
          "type": "uint8"
        },
        {
          "internalType": "string[]",
          "name": "connectionHops",
          "type": "string[]"
        },
        {
          "internalType": "bytes32",
          "name": "counterpartyChannelId",
          "type": "bytes32"
        },
        {
          "internalType": "string",
          "name": "counterpartyPortId",
          "type": "string"
        },
        {
          "internalType": "bytes32",
          "name": "counterpartyVersion",
          "type": "bytes32"
        }
      ],
      "name": "openIbcChannel",
      "outputs": [],
      "stateMutability": "nonpayable",
      "type": "function"
    },
    {
      "inputs": [],
      "name": "owner",
      "outputs": [
        {
          "internalType": "address",
          "name": "",
          "type": "address"
        }
      ],
      "stateMutability": "view",
      "type": "function"
    },
    {
      "inputs": [
        {
          "internalType": "address",
          "name": "",
          "type": "address"
        },
        {
          "internalType": "bytes32",
          "name": "",
          "type": "bytes32"
        }
      ],
      "name": "portChannelMap",
      "outputs": [
        {
          "internalType": "bytes32",
          "name": "version",
          "type": "bytes32"
        },
        {
          "internalType": "enum ChannelOrder",
          "name": "ordering",
          "type": "uint8"
        },
        {
          "internalType": "string",
          "name": "counterpartyPortId",
          "type": "string"
        },
        {
          "internalType": "bytes32",
          "name": "counterpartyChannelId",
          "type": "bytes32"
        }
      ],
      "stateMutability": "view",
      "type": "function"
    },
    {
      "inputs": [],
      "name": "renounceOwnership",
      "outputs": [],
      "stateMutability": "nonpayable",
      "type": "function"
    },
    {
      "inputs": [
        {
          "internalType": "bytes32",
          "name": "channelId",
          "type": "bytes32"
        },
        {
          "internalType": "bytes",
          "name": "packet",
          "type": "bytes"
        },
        {
          "internalType": "uint64",
          "name": "timeoutTimestamp",
          "type": "uint64"
        }
      ],
      "name": "sendPacket",
      "outputs": [],
      "stateMutability": "nonpayable",
      "type": "function"
    },
    {
      "inputs": [
        {
          "internalType": "address",
          "name": "newOwner",
          "type": "address"
        }
      ],
      "name": "transferOwnership",
      "outputs": [],
      "stateMutability": "nonpayable",
      "type": "function"
    },
    {
      "inputs": [
        {
          "internalType": "bytes",
          "name": "consensusState",
          "type": "bytes"
        }
      ],
      "name": "updateClient",
      "outputs": [],
      "stateMutability": "nonpayable",
      "type": "function"
    }
  ],
  "bytecode": "0x60806040526000600360006101000a81548167ffffffffffffffff021916908367ffffffffffffffff1602179055503480156200003b57600080fd5b50604051620032033803806200320383398181016040528101906200006191906200022e565b6200008162000075620000e460201b60201c565b620000ec60201b60201c565b80600160006101000a81548173ffffffffffffffffffffffffffffffffffffffff021916908373ffffffffffffffffffffffffffffffffffffffff1602179055506000600160146101000a81548160ff0219169083151502179055505062000260565b600033905090565b60008060009054906101000a900473ffffffffffffffffffffffffffffffffffffffff169050816000806101000a81548173ffffffffffffffffffffffffffffffffffffffff021916908373ffffffffffffffffffffffffffffffffffffffff1602179055508173ffffffffffffffffffffffffffffffffffffffff168173ffffffffffffffffffffffffffffffffffffffff167f8be0079c531659141344cd1fd0a4f28419497f9722a3daafe3b4186f6b6457e060405160405180910390a35050565b600080fd5b600073ffffffffffffffffffffffffffffffffffffffff82169050919050565b6000620001e282620001b5565b9050919050565b6000620001f682620001d5565b9050919050565b6200020881620001e9565b81146200021457600080fd5b50565b6000815190506200022881620001fd565b92915050565b600060208284031215620002475762000246620001b0565b5b6000620002578482850162000217565b91505092915050565b612f9380620002706000396000f3fe608060405234801561001057600080fd5b50600436106100f55760003560e01c8063715018a611610097578063c3e1155c11610066578063c3e1155c1461024b578063d2e9aa5614610267578063e6815c1214610283578063f2fde38b1461029f576100f5565b8063715018a6146101d25780638da5cb5b146101dc578063b2b1bf03146101fa578063c2a2514d1461022d576100f5565b80633e24aaf3116100d35780633e24aaf31461014e57806342852d241461016a5780634c9778d31461019a57806364260a60146101b6576100f5565b80630ad8d666146100fa5780630bece356146101165780631f456c1e14610132575b600080fd5b610114600480360381019061010f91906114b9565b6102bb565b005b610130600480360381019061012b91906115a9565b6103cd565b005b61014c600480360381019061014791906116fd565b610521565b005b610168600480360381019061016391906117df565b610625565b005b610184600480360381019061017f919061188c565b6106af565b6040516101919190611b2a565b60405180910390f35b6101b460048036038101906101af9190611b4c565b6108d4565b005b6101d060048036038101906101cb91906114b9565b610c06565b005b6101da610cbe565b005b6101e4610cd2565b6040516101f19190611c6e565b60405180910390f35b610214600480360381019061020f919061188c565b610cfb565b6040516102249493929190611cf1565b60405180910390f35b610235610dcd565b6040516102429190611d92565b60405180910390f35b61026560048036038101906102609190611df4565b610e5b565b005b610281600480360381019061027c9190611e68565b610eb4565b005b61029d60048036038101906102989190611f28565b610f6e565b005b6102b960048036038101906102b49190611f75565b610fc2565b005b6102c481611046565b610303576040517f08c379a00000000000000000000000000000000000000000000000000000000081526004016102fa90611fee565b60405180910390fd5b818060200190610313919061201d565b60200135828060000190610327919061201d565b602001357f080631928e492258b6a102fc2ab3e0a8dfcb747ab0885c25f9cb7a8d4862103684806000019061035c919061201d565b806000019061036b9190612045565b86806020019061037b919061201d565b806000019061038a9190612045565b88806060019061039a91906120a8565b8a60400160208101906103ad919061210b565b6040516103c097969594939291906121b0565b60405180910390a3505050565b600160149054906101000a900460ff1661041c576040517f08c379a00000000000000000000000000000000000000000000000000000000081526004016104139061225c565b60405180910390fd5b600160009054906101000a900473ffffffffffffffffffffffffffffffffffffffff1673ffffffffffffffffffffffffffffffffffffffff1663e1ec100c600284846040518463ffffffff1660e01b815260040161047c93929190612372565b60206040518083038186803b15801561049457600080fd5b505afa1580156104a8573d6000803e3d6000fd5b505050506040513d601f19601f820116820180604052508101906104cc91906123e3565b61050b576040517f08c379a000000000000000000000000000000000000000000000000000000000815260040161050290612482565b60405180910390fd5b81816002919061051c9291906111be565b505050565b60008973ffffffffffffffffffffffffffffffffffffffff1663486592198a8a8a8a8a8a8a8a6040518963ffffffff1660e01b815260040161056a9897969594939291906125f5565b602060405180830381600087803b15801561058457600080fd5b505af1158015610598573d6000803e3d6000fd5b505050506040513d601f19601f820116820180604052508101906105bc919061267d565b9050848a73ffffffffffffffffffffffffffffffffffffffff167f9a93c124e7f0aa93d3fbe660b1366e0483b4267619924382261498efbb92c873838b8b8b8a8a8a60405161061197969594939291906126aa565b60405180910390a350505050505050505050565b61062d611074565b600160149054906101000a900460ff161561067d576040517f08c379a00000000000000000000000000000000000000000000000000000000081526004016106749061275b565b60405180910390fd5b60018060146101000a81548160ff0219169083151502179055508181600291906106a89291906111be565b5050505050565b6106b7611244565b600460008473ffffffffffffffffffffffffffffffffffffffff1673ffffffffffffffffffffffffffffffffffffffff16815260200190815260200160002060008381526020019081526020016000206040518060a0016040529081600082015481526020016001820160009054906101000a900460ff166001811115610741576107406118db565b5b6001811115610753576107526118db565b5b815260200160028201805480602002602001604051908101604052809291908181526020016000905b8282101561082857838290600052602060002001805461079b906122ab565b80601f01602080910402602001604051908101604052809291908181526020018280546107c7906122ab565b80156108145780601f106107e957610100808354040283529160200191610814565b820191906000526020600020905b8154815290600101906020018083116107f757829003601f168201915b50505050508152602001906001019061077c565b505050508152602001600382018054610840906122ab565b80601f016020809104026020016040519081016040528092919081815260200182805461086c906122ab565b80156108b95780601f1061088e576101008083540402835291602001916108b9565b820191906000526020600020905b81548152906001019060200180831161089c57829003601f168201915b50505050508152602001600482015481525050905092915050565b600160009054906101000a900473ffffffffffffffffffffffffffffffffffffffff1673ffffffffffffffffffffffffffffffffffffffff16639511059d6002836040518060800160405280605e8152602001612f00605e91396040518463ffffffff1660e01b815260040161094c939291906128dd565b60206040518083038186803b15801561096457600080fd5b505afa158015610978573d6000803e3d6000fd5b505050506040513d601f19601f8201168201806040525081019061099c91906123e3565b6109db576040517f08c379a00000000000000000000000000000000000000000000000000000000081526004016109d290612988565b60405180910390fd5b8973ffffffffffffffffffffffffffffffffffffffff1663e60a72938a85856040518463ffffffff1660e01b8152600401610a18939291906129a8565b600060405180830381600087803b158015610a3257600080fd5b505af1158015610a46573d6000803e3d6000fd5b505050506040518060a00160405280838152602001876001811115610a6e57610a6d6118db565b5b8152602001898990610a809190612bb3565b815260200186868080601f016020809104026020016040519081016040528093929190818152602001838380828437600081840152601f19601f82011690508083019250505050505050815260200184815250600460008c73ffffffffffffffffffffffffffffffffffffffff1673ffffffffffffffffffffffffffffffffffffffff16815260200190815260200160002060008b81526020019081526020016000206000820151816000015560208201518160010160006101000a81548160ff02191690836001811115610b5857610b576118db565b5b02179055506040820151816002019080519060200190610b7992919061128b565b506060820151816003019080519060200190610b969291906112eb565b506080820151816004015590505082898b73ffffffffffffffffffffffffffffffffffffffff167f57ea540ad7b8bfd2813b8637764ba029fedc52de3f812934a46511506aa11b8e88888d8d604051610bf29493929190612bc8565b60405180910390a450505050505050505050565b610c0f81611046565b610c4e576040517f08c379a0000000000000000000000000000000000000000000000000000000008152600401610c4590611fee565b60405180910390fd5b8273ffffffffffffffffffffffffffffffffffffffff1663b33c2577836040518263ffffffff1660e01b8152600401610c879190612d89565b600060405180830381600087803b158015610ca157600080fd5b505af1158015610cb5573d6000803e3d6000fd5b50505050505050565b610cc6611074565b610cd060006110f2565b565b60008060009054906101000a900473ffffffffffffffffffffffffffffffffffffffff16905090565b6004602052816000526040600020602052806000526040600020600091509150508060000154908060010160009054906101000a900460ff1690806003018054610d44906122ab565b80601f0160208091040260200160405190810160405280929190818152602001828054610d70906122ab565b8015610dbd5780601f10610d9257610100808354040283529160200191610dbd565b820191906000526020600020905b815481529060010190602001808311610da057829003601f168201915b5050505050908060040154905084565b60028054610dda906122ab565b80601f0160208091040260200160405190810160405280929190818152602001828054610e06906122ab565b8015610e535780601f10610e2857610100808354040283529160200191610e53565b820191906000526020600020905b815481529060010190602001808311610e3657829003601f168201915b505050505081565b833373ffffffffffffffffffffffffffffffffffffffff167fe5f4762afde15256ce24aa385b449d27b7d2776921f3c673f8162ddb5b7a2f16858585604051610ea693929190612dab565b60405180910390a350505050565b610ebd81611046565b610efc576040517f08c379a0000000000000000000000000000000000000000000000000000000008152600401610ef390611fee565b60405180910390fd5b8473ffffffffffffffffffffffffffffffffffffffff1663f45cf5e4856040518263ffffffff1660e01b8152600401610f359190612d89565b600060405180830381600087803b158015610f4f57600080fd5b505af1158015610f63573d6000803e3d6000fd5b505050505050505050565b3373ffffffffffffffffffffffffffffffffffffffff167f18280cf62c6d3f3519d7cff5c5b7e91021dd17a0278ba5668976d82bdc9faa9e8383604051610fb6929190612ddd565b60405180910390a25050565b610fca611074565b600073ffffffffffffffffffffffffffffffffffffffff168173ffffffffffffffffffffffffffffffffffffffff16141561103a576040517f08c379a000000000000000000000000000000000000000000000000000000000815260040161103190612e73565b60405180910390fd5b611043816110f2565b50565b60008082806020019061105991906120a8565b9050141561106a576000905061106f565b600190505b919050565b61107c6111b6565b73ffffffffffffffffffffffffffffffffffffffff1661109a610cd2565b73ffffffffffffffffffffffffffffffffffffffff16146110f0576040517f08c379a00000000000000000000000000000000000000000000000000000000081526004016110e790612edf565b60405180910390fd5b565b60008060009054906101000a900473ffffffffffffffffffffffffffffffffffffffff169050816000806101000a81548173ffffffffffffffffffffffffffffffffffffffff021916908373ffffffffffffffffffffffffffffffffffffffff1602179055508173ffffffffffffffffffffffffffffffffffffffff168173ffffffffffffffffffffffffffffffffffffffff167f8be0079c531659141344cd1fd0a4f28419497f9722a3daafe3b4186f6b6457e060405160405180910390a35050565b600033905090565b8280546111ca906122ab565b90600052602060002090601f0160209004810192826111ec5760008555611233565b82601f1061120557803560ff1916838001178555611233565b82800160010185558215611233579182015b82811115611232578235825591602001919060010190611217565b5b5090506112409190611371565b5090565b6040518060a00160405280600080191681526020016000600181111561126d5761126c6118db565b5b81526020016060815260200160608152602001600080191681525090565b8280548282559060005260206000209081019282156112da579160200282015b828111156112d95782518290805190602001906112c99291906112eb565b50916020019190600101906112ab565b5b5090506112e7919061138e565b5090565b8280546112f7906122ab565b90600052602060002090601f0160209004810192826113195760008555611360565b82601f1061133257805160ff1916838001178555611360565b82800160010185558215611360579182015b8281111561135f578251825591602001919060010190611344565b5b50905061136d9190611371565b5090565b5b8082111561138a576000816000905550600101611372565b5090565b5b808211156113ae57600081816113a591906113b2565b5060010161138f565b5090565b5080546113be906122ab565b6000825580601f106113d057506113ef565b601f0160209004906000526020600020908101906113ee9190611371565b5b50565b6000604051905090565b600080fd5b600080fd5b600073ffffffffffffffffffffffffffffffffffffffff82169050919050565b600061143182611406565b9050919050565b600061144382611426565b9050919050565b61145381611438565b811461145e57600080fd5b50565b6000813590506114708161144a565b92915050565b600080fd5b600060c0828403121561149157611490611476565b5b81905092915050565b6000604082840312156114b0576114af611476565b5b81905092915050565b6000806000606084860312156114d2576114d16113fc565b5b60006114e086828701611461565b935050602084013567ffffffffffffffff81111561150157611500611401565b5b61150d8682870161147b565b925050604084013567ffffffffffffffff81111561152e5761152d611401565b5b61153a8682870161149a565b9150509250925092565b600080fd5b600080fd5b600080fd5b60008083601f84011261156957611568611544565b5b8235905067ffffffffffffffff81111561158657611585611549565b5b6020830191508360018202830111156115a2576115a161154e565b5b9250929050565b600080602083850312156115c0576115bf6113fc565b5b600083013567ffffffffffffffff8111156115de576115dd611401565b5b6115ea85828601611553565b92509250509250929050565b6000819050919050565b611609816115f6565b811461161457600080fd5b50565b60008135905061162681611600565b92915050565b6002811061163957600080fd5b50565b60008135905061164b8161162c565b92915050565b60008083601f84011261166757611666611544565b5b8235905067ffffffffffffffff81111561168457611683611549565b5b6020830191508360208202830111156116a05761169f61154e565b5b9250929050565b60008083601f8401126116bd576116bc611544565b5b8235905067ffffffffffffffff8111156116da576116d9611549565b5b6020830191508360018202830111156116f6576116f561154e565b5b9250929050565b600080600080600080600080600060e08a8c03121561171f5761171e6113fc565b5b600061172d8c828d01611461565b995050602061173e8c828d01611617565b985050604061174f8c828d0161163c565b97505060608a013567ffffffffffffffff8111156117705761176f611401565b5b61177c8c828d01611651565b9650965050608061178f8c828d01611617565b94505060a08a013567ffffffffffffffff8111156117b0576117af611401565b5b6117bc8c828d016116a7565b935093505060c06117cf8c828d01611617565b9150509295985092959850929598565b600080600080604085870312156117f9576117f86113fc565b5b600085013567ffffffffffffffff81111561181757611816611401565b5b61182387828801611553565b9450945050602085013567ffffffffffffffff81111561184657611845611401565b5b61185287828801611553565b925092505092959194509250565b61186981611426565b811461187457600080fd5b50565b60008135905061188681611860565b92915050565b600080604083850312156118a3576118a26113fc565b5b60006118b185828601611877565b92505060206118c285828601611617565b9150509250929050565b6118d5816115f6565b82525050565b7f4e487b7100000000000000000000000000000000000000000000000000000000600052602160045260246000fd5b6002811061191b5761191a6118db565b5b50565b600081905061192c8261190a565b919050565b600061193c8261191e565b9050919050565b61194c81611931565b82525050565b600081519050919050565b600082825260208201905092915050565b6000819050602082019050919050565b600081519050919050565b600082825260208201905092915050565b60005b838110156119b857808201518184015260208101905061199d565b838111156119c7576000848401525b50505050565b6000601f19601f8301169050919050565b60006119e98261197e565b6119f38185611989565b9350611a0381856020860161199a565b611a0c816119cd565b840191505092915050565b6000611a2383836119de565b905092915050565b6000602082019050919050565b6000611a4382611952565b611a4d818561195d565b935083602082028501611a5f8561196e565b8060005b85811015611a9b5784840389528151611a7c8582611a17565b9450611a8783611a2b565b925060208a01995050600181019050611a63565b50829750879550505050505092915050565b600060a083016000830151611ac560008601826118cc565b506020830151611ad86020860182611943565b5060408301518482036040860152611af08282611a38565b91505060608301518482036060860152611b0a82826119de565b9150506080830151611b1f60808601826118cc565b508091505092915050565b60006020820190508181036000830152611b448184611aad565b905092915050565b6000806000806000806000806000806101008b8d031215611b7057611b6f6113fc565b5b6000611b7e8d828e01611461565b9a50506020611b8f8d828e01611617565b99505060408b013567ffffffffffffffff811115611bb057611baf611401565b5b611bbc8d828e01611651565b98509850506060611bcf8d828e0161163c565b96505060808b013567ffffffffffffffff811115611bf057611bef611401565b5b611bfc8d828e016116a7565b955095505060a0611c0f8d828e01611617565b93505060c0611c208d828e01611617565b92505060e08b013567ffffffffffffffff811115611c4157611c40611401565b5b611c4d8d828e0161149a565b9150509295989b9194979a5092959850565b611c6881611426565b82525050565b6000602082019050611c836000830184611c5f565b92915050565b611c92816115f6565b82525050565b611ca181611931565b82525050565b600082825260208201905092915050565b6000611cc38261197e565b611ccd8185611ca7565b9350611cdd81856020860161199a565b611ce6816119cd565b840191505092915050565b6000608082019050611d066000830187611c89565b611d136020830186611c98565b8181036040830152611d258185611cb8565b9050611d346060830184611c89565b95945050505050565b600081519050919050565b600082825260208201905092915050565b6000611d6482611d3d565b611d6e8185611d48565b9350611d7e81856020860161199a565b611d87816119cd565b840191505092915050565b60006020820190508181036000830152611dac8184611d59565b905092915050565b600067ffffffffffffffff82169050919050565b611dd181611db4565b8114611ddc57600080fd5b50565b600081359050611dee81611dc8565b92915050565b60008060008060608587031215611e0e57611e0d6113fc565b5b6000611e1c87828801611617565b945050602085013567ffffffffffffffff811115611e3d57611e3c611401565b5b611e4987828801611553565b93509350506040611e5c87828801611ddf565b91505092959194509250565b600080600080600060808688031215611e8457611e836113fc565b5b6000611e9288828901611461565b955050602086013567ffffffffffffffff811115611eb357611eb2611401565b5b611ebf8882890161147b565b945050604086013567ffffffffffffffff811115611ee057611edf611401565b5b611eec88828901611553565b9350935050606086013567ffffffffffffffff811115611f0f57611f0e611401565b5b611f1b8882890161149a565b9150509295509295909350565b60008060208385031215611f3f57611f3e6113fc565b5b600083013567ffffffffffffffff811115611f5d57611f5c611401565b5b611f69858286016116a7565b92509250509250929050565b600060208284031215611f8b57611f8a6113fc565b5b6000611f9984828501611877565b91505092915050565b7f50726f6f6620766572696669636174696f6e206661696c656400000000000000600082015250565b6000611fd8601983611ca7565b9150611fe382611fa2565b602082019050919050565b6000602082019050818103600083015261200781611fcb565b9050919050565b600080fd5b600080fd5b600080fd5b6000823560016040038336030381126120395761203861200e565b5b80830191505092915050565b600080833560016020038436030381126120625761206161200e565b5b80840192508235915067ffffffffffffffff82111561208457612083612013565b5b6020830192506001820236038313156120a05761209f612018565b5b509250929050565b600080833560016020038436030381126120c5576120c461200e565b5b80840192508235915067ffffffffffffffff8211156120e7576120e6612013565b5b60208301925060018202360383131561210357612102612018565b5b509250929050565b600060208284031215612121576121206113fc565b5b600061212f84828501611ddf565b91505092915050565b82818337600083830152505050565b60006121538385611ca7565b9350612160838584612138565b612169836119cd565b840190509392505050565b60006121808385611d48565b935061218d838584612138565b612196836119cd565b840190509392505050565b6121aa81611db4565b82525050565b600060808201905081810360008301526121cb81898b612147565b905081810360208301526121e0818789612147565b905081810360408301526121f5818587612174565b905061220460608301846121a1565b98975050505050505050565b7f436c69656e74206e6f7420637265617465640000000000000000000000000000600082015250565b6000612246601283611ca7565b915061225182612210565b602082019050919050565b6000602082019050818103600083015261227581612239565b9050919050565b7f4e487b7100000000000000000000000000000000000000000000000000000000600052602260045260246000fd5b600060028204905060018216806122c357607f821691505b602082108114156122d7576122d661227c565b5b50919050565b60008190508160005260206000209050919050565b600081546122ff816122ab565b6123098186611d48565b94506001821660008114612324576001811461233657612369565b60ff1983168652602086019350612369565b61233f856122dd565b60005b8381101561236157815481890152600182019150602081019050612342565b808801955050505b50505092915050565b6000604082019050818103600083015261238c81866122f2565b905081810360208301526123a1818486612174565b9050949350505050565b60008115159050919050565b6123c0816123ab565b81146123cb57600080fd5b50565b6000815190506123dd816123b7565b92915050565b6000602082840312156123f9576123f86113fc565b5b6000612407848285016123ce565b91505092915050565b7f436f6e73656e73757320737461746520766572696669636174696f6e2066616960008201527f6c65640000000000000000000000000000000000000000000000000000000000602082015250565b600061246c602383611ca7565b915061247782612410565b604082019050919050565b6000602082019050818103600083015261249b8161245f565b9050919050565b600082825260208201905092915050565b6000819050919050565b60006124c98385611989565b93506124d6838584612138565b6124df836119cd565b840190509392505050565b60006124f78484846124bd565b90509392505050565b600080fd5b600080fd5b600080fd5b6000808335600160200384360303811261252c5761252b61250a565b5b83810192508235915060208301925067ffffffffffffffff82111561255457612553612500565b5b60018202360384131561256a57612569612505565b5b509250929050565b6000602082019050919050565b600061258b83856124a2565b93508360208402850161259d846124b3565b8060005b878110156125e35784840389526125b8828461250f565b6125c38682846124ea565b95506125ce84612572565b935060208b019a5050506001810190506125a1565b50829750879450505050509392505050565b600060c08201905061260a600083018b611c89565b612617602083018a611c98565b818103604083015261262a81888a61257f565b90506126396060830187611c89565b818103608083015261264c818587612147565b905061265b60a0830184611c89565b9998505050505050505050565b60008151905061267781611600565b92915050565b600060208284031215612693576126926113fc565b5b60006126a184828501612668565b91505092915050565b600060a0820190506126bf600083018a611c89565b6126cc6020830189611c98565b81810360408301526126df81878961257f565b905081810360608301526126f4818587612147565b90506127036080830184611c89565b98975050505050505050565b7f436c69656e7420616c7265616479206372656174656400000000000000000000600082015250565b6000612745601683611ca7565b91506127508261270f565b602082019050919050565b6000602082019050818103600083015261277481612738565b9050919050565b600061278a6020840184611ddf565b905092915050565b61279b81611db4565b82525050565b600080833560016020038436030381126127be576127bd61250a565b5b83810192508235915060208301925067ffffffffffffffff8211156127e6576127e5612500565b5b6001820236038413156127fc576127fb612505565b5b509250929050565b600082825260208201905092915050565b60006128218385612804565b935061282e838584612138565b612837836119cd565b840190509392505050565b600060408301612855600084018461277b565b6128626000860182612792565b5061287060208401846127a1565b8583036020870152612883838284612815565b925050508091505092915050565b7f6368616e6e656c2f706174682f746f2f62652f61646465642f68657265000000600082015250565b60006128c7601d83611d48565b91506128d282612891565b602082019050919050565b600060808201905081810360008301526128f781866122f2565b9050818103602083015261290b8185612842565b9050818103604083015261291e816128ba565b905081810360608301526129328184611d59565b9050949350505050565b7f4661696c20746f2070726f7665206368616e6e656c2073746174650000000000600082015250565b6000612972601b83611ca7565b915061297d8261293c565b602082019050919050565b600060208201905081810360008301526129a181612965565b9050919050565b60006060820190506129bd6000830186611c89565b6129ca6020830185611c89565b6129d76040830184611c89565b949350505050565b7f4e487b7100000000000000000000000000000000000000000000000000000000600052604160045260246000fd5b612a17826119cd565b810181811067ffffffffffffffff82111715612a3657612a356129df565b5b80604052505050565b6000612a496113f2565b9050612a558282612a0e565b919050565b600067ffffffffffffffff821115612a7557612a746129df565b5b602082029050602081019050919050565b600080fd5b600067ffffffffffffffff821115612aa657612aa56129df565b5b612aaf826119cd565b9050602081019050919050565b6000612acf612aca84612a8b565b612a3f565b905082815260208101848484011115612aeb57612aea612a86565b5b612af6848285612138565b509392505050565b600082601f830112612b1357612b12611544565b5b8135612b23848260208601612abc565b91505092915050565b6000612b3f612b3a84612a5a565b612a3f565b90508083825260208201905060208402830185811115612b6257612b6161154e565b5b835b81811015612ba957803567ffffffffffffffff811115612b8757612b86611544565b5b808601612b948982612afe565b85526020850194505050602081019050612b64565b5050509392505050565b6000612bc0368484612b2c565b905092915050565b60006040820190508181036000830152612be3818688612147565b90508181036020830152612bf881848661257f565b905095945050505050565b600082356001604003833603038112612c1f57612c1e61250a565b5b82810191505092915050565b6000612c3a6020840184611617565b905092915050565b600060408301612c55600084018461250f565b8583036000870152612c688382846124bd565b92505050612c796020840184612c2b565b612c8660208601826118cc565b508091505092915050565b600082905092915050565b60408201612cad600083018361277b565b612cba6000850182612792565b50612cc8602083018361277b565b612cd56020850182612792565b50505050565b600060c08301612cee6000840184612c03565b8482036000860152612d008282612c42565b915050612d106020840184612c03565b8482036020860152612d228282612c42565b915050612d32604084018461277b565b612d3f6040860182612792565b50612d4d60608401846127a1565b8583036060870152612d60838284612815565b92505050612d716080840184612c91565b612d7e6080860182612c9c565b508091505092915050565b60006020820190508181036000830152612da38184612cdb565b905092915050565b60006040820190508181036000830152612dc6818587612174565b9050612dd560208301846121a1565b949350505050565b60006020820190508181036000830152612df8818486612147565b90509392505050565b7f4f776e61626c653a206e6577206f776e657220697320746865207a65726f206160008201527f6464726573730000000000000000000000000000000000000000000000000000602082015250565b6000612e5d602683611ca7565b9150612e6882612e01565b604082019050919050565b60006020820190508181036000830152612e8c81612e50565b9050919050565b7f4f776e61626c653a2063616c6c6572206973206e6f7420746865206f776e6572600082015250565b6000612ec9602083611ca7565b9150612ed482612e93565b602082019050919050565b60006020820190508181036000830152612ef881612ebc565b905091905056fe6578706563746564206368616e6e656c20627974657320636f6e73747275637465642066726f6d20706172616d732e204368616e6e656c2e5374617465203d207b41636b5f50656e64696e672c20436f6e6669726d5f50656e64696e677da2646970667358221220f24039cb2e0234cfd05e3d0d054c7cfa87678e8f65c9c1638f83cb782e73e8e964736f6c63430008090033",
  "linkReferences": {},
  "deployedLinkReferences": {}
}