{
  "_format": "hh-sol-artifact-1",
  "contractName": "Dispatcher",
  "sourceName": "contracts/Dispatcher.sol",
  "abi": [
    {
      "inputs": [
        {
          "internalType": "address",
          "name": "_verifier",
          "type": "address"
        }
      ],
      "stateMutability": "nonpayable",
      "type": "constructor"
    },
    {
      "anonymous": false,
      "inputs": [
        {
          "indexed": false,
          "internalType": "string",
          "name": "channelId",
          "type": "string"
        },
        {
          "indexed": true,
          "internalType": "address",
          "name": "portId",
          "type": "address"
        }
      ],
      "name": "CloseIbcChannel",
      "type": "event"
    },
    {
      "anonymous": false,
      "inputs": [
        {
          "indexed": false,
          "internalType": "string",
          "name": "channelId",
          "type": "string"
        },
        {
          "indexed": true,
          "internalType": "address",
          "name": "portId",
          "type": "address"
        },
        {
          "indexed": false,
          "internalType": "string",
          "name": "counterPartyChannelId",
          "type": "string"
        },
        {
          "indexed": false,
          "internalType": "string",
          "name": "counterPartyPortId",
          "type": "string"
        },
        {
          "indexed": false,
          "internalType": "string",
          "name": "counterPartyVersion",
          "type": "string"
        }
      ],
      "name": "ConnectIbcChannel",
      "type": "event"
    },
    {
      "anonymous": false,
      "inputs": [
        {
          "indexed": true,
          "internalType": "bytes32",
          "name": "srcChannelId",
          "type": "bytes32"
        },
        {
          "indexed": false,
          "internalType": "string",
          "name": "srcPortId",
          "type": "string"
        },
        {
          "indexed": true,
          "internalType": "bytes32",
          "name": "destChannelId",
          "type": "bytes32"
        },
        {
          "indexed": false,
          "internalType": "string",
          "name": "destPortId",
          "type": "string"
        },
        {
          "indexed": false,
          "internalType": "bytes",
          "name": "data",
          "type": "bytes"
        },
        {
          "indexed": false,
          "internalType": "uint64",
          "name": "sequence",
          "type": "uint64"
        }
      ],
      "name": "OnRecvPacket",
      "type": "event"
    },
    {
      "anonymous": false,
      "inputs": [
        {
          "indexed": true,
          "internalType": "address",
          "name": "portAddress",
          "type": "address"
        },
        {
          "indexed": true,
          "internalType": "bytes32",
          "name": "channelId",
          "type": "bytes32"
        },
        {
          "indexed": true,
          "internalType": "bytes32",
          "name": "counterpartyChannelId",
          "type": "bytes32"
        },
        {
          "indexed": false,
          "internalType": "bytes32",
          "name": "version",
          "type": "bytes32"
        },
        {
          "indexed": false,
          "internalType": "enum ChannelOrder",
          "name": "ordering",
          "type": "uint8"
        },
        {
          "indexed": false,
          "internalType": "string[]",
          "name": "connectionHops",
          "type": "string[]"
        },
        {
          "indexed": false,
          "internalType": "string",
          "name": "counterpartyPortId",
          "type": "string"
        },
        {
          "indexed": false,
          "internalType": "bytes32",
          "name": "counterpartyVersion",
          "type": "bytes32"
        }
      ],
      "name": "OpenIbcChannel",
      "type": "event"
    },
    {
      "anonymous": false,
      "inputs": [
        {
          "indexed": true,
          "internalType": "address",
          "name": "previousOwner",
          "type": "address"
        },
        {
          "indexed": true,
          "internalType": "address",
          "name": "newOwner",
          "type": "address"
        }
      ],
      "name": "OwnershipTransferred",
      "type": "event"
    },
    {
      "anonymous": false,
      "inputs": [
        {
          "indexed": true,
          "internalType": "address",
          "name": "portId",
          "type": "address"
        },
        {
          "indexed": true,
          "internalType": "bytes32",
          "name": "channelId",
          "type": "bytes32"
        },
        {
          "indexed": false,
          "internalType": "bytes",
          "name": "packet",
          "type": "bytes"
        },
        {
          "indexed": false,
          "internalType": "uint64",
          "name": "timeoutTimestamp",
          "type": "uint64"
        }
      ],
      "name": "SendPacket",
      "type": "event"
    },
    {
      "inputs": [
        {
          "internalType": "string",
          "name": "channelId",
          "type": "string"
        }
      ],
      "name": "closeIbcChannel",
      "outputs": [],
      "stateMutability": "nonpayable",
      "type": "function"
    },
    {
      "inputs": [
        {
          "internalType": "string",
          "name": "channelId",
          "type": "string"
        },
        {
          "internalType": "string",
          "name": "counterPartyChannelId",
          "type": "string"
        },
        {
          "internalType": "string",
          "name": "counterPartyPortId",
          "type": "string"
        },
        {
          "internalType": "string",
          "name": "counterPartyVersion",
          "type": "string"
        }
      ],
      "name": "connectIbcChannel",
      "outputs": [],
      "stateMutability": "nonpayable",
      "type": "function"
    },
    {
      "inputs": [
        {
          "internalType": "bytes",
          "name": "clientState",
          "type": "bytes"
        },
        {
          "internalType": "bytes",
          "name": "consensusState",
          "type": "bytes"
        }
      ],
      "name": "createClient",
      "outputs": [],
      "stateMutability": "nonpayable",
      "type": "function"
    },
    {
      "inputs": [],
      "name": "latestConsensusState",
      "outputs": [
        {
          "internalType": "bytes",
          "name": "",
          "type": "bytes"
        }
      ],
      "stateMutability": "view",
      "type": "function"
    },
    {
      "inputs": [
        {
          "internalType": "contract IbcReceiver",
          "name": "receiver",
          "type": "address"
        },
        {
          "components": [
            {
              "components": [
                {
                  "internalType": "string",
                  "name": "portId",
                  "type": "string"
                },
                {
                  "internalType": "bytes32",
                  "name": "channelId",
                  "type": "bytes32"
                }
              ],
              "internalType": "struct IbcEndpoint",
              "name": "src",
              "type": "tuple"
            },
            {
              "components": [
                {
                  "internalType": "string",
                  "name": "portId",
                  "type": "string"
                },
                {
                  "internalType": "bytes32",
                  "name": "channelId",
                  "type": "bytes32"
                }
              ],
              "internalType": "struct IbcEndpoint",
              "name": "dest",
              "type": "tuple"
            },
            {
              "internalType": "uint64",
              "name": "sequence",
              "type": "uint64"
            },
            {
              "internalType": "bytes",
              "name": "data",
              "type": "bytes"
            },
            {
              "components": [
                {
                  "internalType": "uint64",
                  "name": "block",
                  "type": "uint64"
                },
                {
                  "internalType": "uint64",
                  "name": "timestamp",
                  "type": "uint64"
                }
              ],
              "internalType": "struct IbcTimeout",
              "name": "timeout",
              "type": "tuple"
            }
          ],
          "internalType": "struct IbcPacket",
          "name": "packet",
          "type": "tuple"
        },
        {
          "internalType": "bytes",
          "name": "acknowledgement",
          "type": "bytes"
        },
        {
          "components": [
            {
              "internalType": "bytes",
              "name": "keyPath",
              "type": "bytes"
            },
            {
              "internalType": "bytes",
              "name": "value",
              "type": "bytes"
            },
            {
              "internalType": "bytes",
              "name": "proof",
              "type": "bytes"
            }
          ],
          "internalType": "struct Proof",
          "name": "proof",
          "type": "tuple"
        }
      ],
      "name": "onAcknowledgementPacket",
      "outputs": [],
      "stateMutability": "nonpayable",
      "type": "function"
    },
    {
      "inputs": [
        {
          "internalType": "contract IbcReceiver",
          "name": "receiver",
          "type": "address"
        },
        {
          "internalType": "string",
          "name": "channelId",
          "type": "string"
        },
        {
          "components": [
            {
              "internalType": "bytes",
              "name": "keyPath",
              "type": "bytes"
            },
            {
              "internalType": "bytes",
              "name": "value",
              "type": "bytes"
            },
            {
              "internalType": "bytes",
              "name": "proof",
              "type": "bytes"
            }
          ],
          "internalType": "struct Proof",
          "name": "proof",
          "type": "tuple"
        },
        {
          "internalType": "string",
          "name": "error",
          "type": "string"
        }
      ],
      "name": "onCloseIbcChannel",
      "outputs": [],
      "stateMutability": "nonpayable",
      "type": "function"
    },
    {
      "inputs": [
        {
          "internalType": "contract IbcReceiver",
          "name": "receiver",
          "type": "address"
        },
        {
          "internalType": "string",
          "name": "channelId",
          "type": "string"
        },
        {
          "components": [
            {
              "internalType": "bytes",
              "name": "keyPath",
              "type": "bytes"
            },
            {
              "internalType": "bytes",
              "name": "value",
              "type": "bytes"
            },
            {
              "internalType": "bytes",
              "name": "proof",
              "type": "bytes"
            }
          ],
          "internalType": "struct Proof",
          "name": "proof",
          "type": "tuple"
        },
        {
          "internalType": "string",
          "name": "error",
          "type": "string"
        }
      ],
      "name": "onConnectIbcChannel",
      "outputs": [],
      "stateMutability": "nonpayable",
      "type": "function"
    },
    {
      "inputs": [
        {
          "internalType": "contract IbcReceiver",
          "name": "receiver",
          "type": "address"
        },
        {
          "components": [
            {
              "components": [
                {
                  "internalType": "string",
                  "name": "portId",
                  "type": "string"
                },
                {
                  "internalType": "bytes32",
                  "name": "channelId",
                  "type": "bytes32"
                }
              ],
              "internalType": "struct IbcEndpoint",
              "name": "src",
              "type": "tuple"
            },
            {
              "components": [
                {
                  "internalType": "string",
                  "name": "portId",
                  "type": "string"
                },
                {
                  "internalType": "bytes32",
                  "name": "channelId",
                  "type": "bytes32"
                }
              ],
              "internalType": "struct IbcEndpoint",
              "name": "dest",
              "type": "tuple"
            },
            {
              "internalType": "uint64",
              "name": "sequence",
              "type": "uint64"
            },
            {
              "internalType": "bytes",
              "name": "data",
              "type": "bytes"
            },
            {
              "components": [
                {
                  "internalType": "uint64",
                  "name": "block",
                  "type": "uint64"
                },
                {
                  "internalType": "uint64",
                  "name": "timestamp",
                  "type": "uint64"
                }
              ],
              "internalType": "struct IbcTimeout",
              "name": "timeout",
              "type": "tuple"
            }
          ],
          "internalType": "struct IbcPacket",
          "name": "packet",
          "type": "tuple"
        },
        {
          "components": [
            {
              "internalType": "bytes",
              "name": "keyPath",
              "type": "bytes"
            },
            {
              "internalType": "bytes",
              "name": "value",
              "type": "bytes"
            },
            {
              "internalType": "bytes",
              "name": "proof",
              "type": "bytes"
            }
          ],
          "internalType": "struct Proof",
          "name": "proof",
          "type": "tuple"
        }
      ],
      "name": "onRecvPacket",
      "outputs": [],
      "stateMutability": "nonpayable",
      "type": "function"
    },
    {
      "inputs": [
        {
          "internalType": "contract IbcReceiver",
          "name": "receiver",
          "type": "address"
        },
        {
          "components": [
            {
              "components": [
                {
                  "internalType": "string",
                  "name": "portId",
                  "type": "string"
                },
                {
                  "internalType": "bytes32",
                  "name": "channelId",
                  "type": "bytes32"
                }
              ],
              "internalType": "struct IbcEndpoint",
              "name": "src",
              "type": "tuple"
            },
            {
              "components": [
                {
                  "internalType": "string",
                  "name": "portId",
                  "type": "string"
                },
                {
                  "internalType": "bytes32",
                  "name": "channelId",
                  "type": "bytes32"
                }
              ],
              "internalType": "struct IbcEndpoint",
              "name": "dest",
              "type": "tuple"
            },
            {
              "internalType": "uint64",
              "name": "sequence",
              "type": "uint64"
            },
            {
              "internalType": "bytes",
              "name": "data",
              "type": "bytes"
            },
            {
              "components": [
                {
                  "internalType": "uint64",
                  "name": "block",
                  "type": "uint64"
                },
                {
                  "internalType": "uint64",
                  "name": "timestamp",
                  "type": "uint64"
                }
              ],
              "internalType": "struct IbcTimeout",
              "name": "timeout",
              "type": "tuple"
            }
          ],
          "internalType": "struct IbcPacket",
          "name": "packet",
          "type": "tuple"
        },
        {
          "components": [
            {
              "internalType": "bytes",
              "name": "keyPath",
              "type": "bytes"
            },
            {
              "internalType": "bytes",
              "name": "value",
              "type": "bytes"
            },
            {
              "internalType": "bytes",
              "name": "proof",
              "type": "bytes"
            }
          ],
          "internalType": "struct Proof",
          "name": "proof",
          "type": "tuple"
        }
      ],
      "name": "onTimeoutPacket",
      "outputs": [],
      "stateMutability": "nonpayable",
      "type": "function"
    },
    {
      "inputs": [
        {
          "internalType": "address",
          "name": "portAddress",
          "type": "address"
        },
        {
          "internalType": "bytes32",
          "name": "version",
          "type": "bytes32"
        },
        {
          "internalType": "enum ChannelOrder",
          "name": "ordering",
          "type": "uint8"
        },
        {
          "internalType": "string[]",
          "name": "connectionHops",
          "type": "string[]"
        },
        {
          "internalType": "bytes32",
          "name": "counterpartyChannelId",
          "type": "bytes32"
        },
        {
          "internalType": "string",
          "name": "counterpartyPortId",
          "type": "string"
        },
        {
          "internalType": "bytes32",
          "name": "counterpartyVersion",
          "type": "bytes32"
        }
      ],
      "name": "openIbcChannel",
      "outputs": [],
      "stateMutability": "nonpayable",
      "type": "function"
    },
    {
      "inputs": [],
      "name": "owner",
      "outputs": [
        {
          "internalType": "address",
          "name": "",
          "type": "address"
        }
      ],
      "stateMutability": "view",
      "type": "function"
    },
    {
      "inputs": [],
      "name": "renounceOwnership",
      "outputs": [],
      "stateMutability": "nonpayable",
      "type": "function"
    },
    {
      "inputs": [
        {
          "internalType": "bytes32",
          "name": "channelId",
          "type": "bytes32"
        },
        {
          "internalType": "bytes",
          "name": "packet",
          "type": "bytes"
        },
        {
          "internalType": "uint64",
          "name": "timeoutTimestamp",
          "type": "uint64"
        }
      ],
      "name": "sendPacket",
      "outputs": [],
      "stateMutability": "nonpayable",
      "type": "function"
    },
    {
      "inputs": [
        {
          "internalType": "address",
          "name": "newOwner",
          "type": "address"
        }
      ],
      "name": "transferOwnership",
      "outputs": [],
      "stateMutability": "nonpayable",
      "type": "function"
    },
    {
      "inputs": [
        {
          "internalType": "bytes",
          "name": "consensusState",
          "type": "bytes"
        }
      ],
      "name": "updateClient",
      "outputs": [],
      "stateMutability": "nonpayable",
      "type": "function"
    },
    {
      "inputs": [],
      "name": "verifier",
      "outputs": [
        {
          "internalType": "contract ZKMintVerifier",
          "name": "",
          "type": "address"
        }
      ],
      "stateMutability": "view",
      "type": "function"
    }
  ],
  "bytecode": "0x60806040526000600360006101000a81548167ffffffffffffffff021916908367ffffffffffffffff1602179055503480156200003b57600080fd5b5060405162002b8138038062002b8183398181016040528101906200006191906200021a565b6200008162000075620000e460201b60201c565b620000ec60201b60201c565b80600160006101000a81548173ffffffffffffffffffffffffffffffffffffffff021916908373ffffffffffffffffffffffffffffffffffffffff1602179055506000600160146101000a81548160ff021916908315150217905550506200024c565b600033905090565b60008060009054906101000a900473ffffffffffffffffffffffffffffffffffffffff169050816000806101000a81548173ffffffffffffffffffffffffffffffffffffffff021916908373ffffffffffffffffffffffffffffffffffffffff1602179055508173ffffffffffffffffffffffffffffffffffffffff168173ffffffffffffffffffffffffffffffffffffffff167f8be0079c531659141344cd1fd0a4f28419497f9722a3daafe3b4186f6b6457e060405160405180910390a35050565b600080fd5b600073ffffffffffffffffffffffffffffffffffffffff82169050919050565b6000620001e282620001b5565b9050919050565b620001f481620001d5565b81146200020057600080fd5b50565b6000815190506200021481620001e9565b92915050565b600060208284031215620002335762000232620001b0565b5b6000620002438482850162000203565b91505092915050565b612925806200025c6000396000f3fe608060405234801561001057600080fd5b50600436106101005760003560e01c80638b11684811610097578063ca1288ed11610066578063ca1288ed14610249578063dc44310014610265578063e6815c1214610281578063f2fde38b1461029d57610100565b80638b116848146101d55780638da5cb5b146101f1578063c2a2514d1461020f578063c3e1155c1461022d57610100565b80632b7ac3f3116100d35780632b7ac3f3146101755780633e24aaf31461019357806370c5dd53146101af578063715018a6146101cb57610100565b806303941ec5146101055780630bece356146101215780631f456c1e1461013d578063260012e814610159575b600080fd5b61011f600480360381019061011a919061126b565b6102b9565b005b61013b6004803603810190610136919061132b565b610373565b005b610157600480360381019061015291906114ab565b6104c6565b005b610173600480360381019061016e919061158d565b610679565b005b61017d61078b565b60405161018a9190611677565b60405180910390f35b6101ad60048036038101906101a89190611692565b6107b1565b005b6101c960048036038101906101c49190611713565b61083b565b005b6101d36108fc565b005b6101ef60048036038101906101ea9190611713565b610910565b005b6101f96109d1565b60405161020691906117e5565b60405180910390f35b6102176109fa565b6040516102249190611899565b60405180910390f35b610247600480360381019061024291906118fb565b610a88565b005b610263600480360381019061025e919061196f565b610ae1565b005b61027f600480360381019061027a919061158d565b610b47565b005b61029b60048036038101906102969190611a58565b610bff565b005b6102b760048036038101906102b29190611aa5565b610c53565b005b6102c281610cd7565b610301576040517f08c379a00000000000000000000000000000000000000000000000000000000081526004016102f890611b2f565b60405180910390fd5b8473ffffffffffffffffffffffffffffffffffffffff1663f45cf5e4856040518263ffffffff1660e01b815260040161033a9190611e6a565b600060405180830381600087803b15801561035457600080fd5b505af1158015610368573d6000803e3d6000fd5b505050505050505050565b600160149054906101000a900460ff166103c2576040517f08c379a00000000000000000000000000000000000000000000000000000000081526004016103b990611ed8565b60405180910390fd5b600160009054906101000a900473ffffffffffffffffffffffffffffffffffffffff1673ffffffffffffffffffffffffffffffffffffffff16638e760afe83836040518363ffffffff1660e01b815260040161041f929190611f25565b602060405180830381600087803b15801561043957600080fd5b505af115801561044d573d6000803e3d6000fd5b505050506040513d601f19601f820116820180604052508101906104719190611f81565b6104b0576040517f08c379a00000000000000000000000000000000000000000000000000000000081526004016104a790612020565b60405180910390fd5b8181600291906104c19291906110a6565b505050565b600089905060006105696040518060400160405280600881526020017f6368616e6e656c2d0000000000000000000000000000000000000000000000008152506105646003600081819054906101000a900467ffffffffffffffff168092919061052f9061206f565b91906101000a81548167ffffffffffffffff021916908367ffffffffffffffff16021790555067ffffffffffffffff16610d05565b610ddd565b610572906120d2565b90508173ffffffffffffffffffffffffffffffffffffffff1663da972ca6828c8c8c8c8c8c8c8c6040518a63ffffffff1660e01b81526004016105bd999897969594939291906122a0565b602060405180830381600087803b1580156105d757600080fd5b505af11580156105eb573d6000803e3d6000fd5b505050506040513d601f19601f8201168201806040525081019061060f9190612336565b5085818c73ffffffffffffffffffffffffffffffffffffffff167f3a062c69da5f8c9a2e92280798c3c02f22a85b94ab35c8d54dc32b03252ae68b8d8d8d8d8c8c8c6040516106649796959493929190612363565b60405180910390a45050505050505050505050565b61068281610cd7565b6106c1576040517f08c379a00000000000000000000000000000000000000000000000000000000081526004016106b890611b2f565b60405180910390fd5b8180602001906106d191906123d7565b602001358280600001906106e591906123d7565b602001357f080631928e492258b6a102fc2ab3e0a8dfcb747ab0885c25f9cb7a8d4862103684806000019061071a91906123d7565b806000019061072991906123ff565b86806020019061073991906123d7565b806000019061074891906123ff565b8880606001906107589190612462565b8a604001602081019061076b91906124c5565b60405161077e9796959493929190612501565b60405180910390a3505050565b600160009054906101000a900473ffffffffffffffffffffffffffffffffffffffff1681565b6107b9610e09565b600160149054906101000a900460ff1615610809576040517f08c379a0000000000000000000000000000000000000000000000000000000008152600401610800906125ad565b60405180910390fd5b60018060146101000a81548160ff0219169083151502179055508181600291906108349291906110a6565b5050505050565b61084483610cd7565b610883576040517f08c379a000000000000000000000000000000000000000000000000000000000815260040161087a90611b2f565b60405180910390fd5b8573ffffffffffffffffffffffffffffffffffffffff16630a845081868685856040518563ffffffff1660e01b81526004016108c294939291906125cd565b600060405180830381600087803b1580156108dc57600080fd5b505af11580156108f0573d6000803e3d6000fd5b50505050505050505050565b610904610e09565b61090e6000610e87565b565b61091983610cd7565b610958576040517f08c379a000000000000000000000000000000000000000000000000000000000815260040161094f90611b2f565b60405180910390fd5b8573ffffffffffffffffffffffffffffffffffffffff16636afd6174868685856040518563ffffffff1660e01b815260040161099794939291906125cd565b600060405180830381600087803b1580156109b157600080fd5b505af11580156109c5573d6000803e3d6000fd5b50505050505050505050565b60008060009054906101000a900473ffffffffffffffffffffffffffffffffffffffff16905090565b60028054610a0790612637565b80601f0160208091040260200160405190810160405280929190818152602001828054610a3390612637565b8015610a805780601f10610a5557610100808354040283529160200191610a80565b820191906000526020600020905b815481529060010190602001808311610a6357829003601f168201915b505050505081565b833373ffffffffffffffffffffffffffffffffffffffff167fe5f4762afde15256ce24aa385b449d27b7d2776921f3c673f8162ddb5b7a2f16858585604051610ad393929190612669565b60405180910390a350505050565b3373ffffffffffffffffffffffffffffffffffffffff167fd38dbe544e1f1277b020a61acc0dd2cf9ddcf99471a49a288a3ada57f3206a738989898989898989604051610b3598979695949392919061269b565b60405180910390a25050505050505050565b610b5081610cd7565b610b8f576040517f08c379a0000000000000000000000000000000000000000000000000000000008152600401610b8690611b2f565b60405180910390fd5b8273ffffffffffffffffffffffffffffffffffffffff1663b33c2577836040518263ffffffff1660e01b8152600401610bc89190611e6a565b600060405180830381600087803b158015610be257600080fd5b505af1158015610bf6573d6000803e3d6000fd5b50505050505050565b3373ffffffffffffffffffffffffffffffffffffffff167f18280cf62c6d3f3519d7cff5c5b7e91021dd17a0278ba5668976d82bdc9faa9e8383604051610c47929190612704565b60405180910390a25050565b610c5b610e09565b600073ffffffffffffffffffffffffffffffffffffffff168173ffffffffffffffffffffffffffffffffffffffff161415610ccb576040517f08c379a0000000000000000000000000000000000000000000000000000000008152600401610cc29061279a565b60405180910390fd5b610cd481610e87565b50565b600080828060400190610cea9190612462565b90501415610cfb5760009050610d00565b600190505b919050565b606060006001610d1484610f4b565b01905060008167ffffffffffffffff811115610d3357610d326127ba565b5b6040519080825280601f01601f191660200182016040528015610d655781602001600182028036833780820191505090505b509050600082602001820190505b600115610dd2578080600190039150507f3031323334353637383961626364656600000000000000000000000000000000600a86061a8153600a8581610dbc57610dbb6127e9565b5b0494506000851415610dcd57610dd2565b610d73565b819350505050919050565b60608282604051602001610df292919061285f565b604051602081830303815290604052905092915050565b610e1161109e565b73ffffffffffffffffffffffffffffffffffffffff16610e2f6109d1565b73ffffffffffffffffffffffffffffffffffffffff1614610e85576040517f08c379a0000000000000000000000000000000000000000000000000000000008152600401610e7c906128cf565b60405180910390fd5b565b60008060009054906101000a900473ffffffffffffffffffffffffffffffffffffffff169050816000806101000a81548173ffffffffffffffffffffffffffffffffffffffff021916908373ffffffffffffffffffffffffffffffffffffffff1602179055508173ffffffffffffffffffffffffffffffffffffffff168173ffffffffffffffffffffffffffffffffffffffff167f8be0079c531659141344cd1fd0a4f28419497f9722a3daafe3b4186f6b6457e060405160405180910390a35050565b600080600090507a184f03e93ff9f4daa797ed6e38ed64bf6a1f0100000000000000008310610fa9577a184f03e93ff9f4daa797ed6e38ed64bf6a1f0100000000000000008381610f9f57610f9e6127e9565b5b0492506040810190505b6d04ee2d6d415b85acef81000000008310610fe6576d04ee2d6d415b85acef81000000008381610fdc57610fdb6127e9565b5b0492506020810190505b662386f26fc10000831061101557662386f26fc10000838161100b5761100a6127e9565b5b0492506010810190505b6305f5e100831061103e576305f5e1008381611034576110336127e9565b5b0492506008810190505b6127108310611063576127108381611059576110586127e9565b5b0492506004810190505b60648310611086576064838161107c5761107b6127e9565b5b0492506002810190505b600a8310611095576001810190505b80915050919050565b600033905090565b8280546110b290612637565b90600052602060002090601f0160209004810192826110d4576000855561111b565b82601f106110ed57803560ff191683800117855561111b565b8280016001018555821561111b579182015b8281111561111a5782358255916020019190600101906110ff565b5b509050611128919061112c565b5090565b5b8082111561114557600081600090555060010161112d565b5090565b600080fd5b600080fd5b600073ffffffffffffffffffffffffffffffffffffffff82169050919050565b600061117e82611153565b9050919050565b600061119082611173565b9050919050565b6111a081611185565b81146111ab57600080fd5b50565b6000813590506111bd81611197565b92915050565b600080fd5b600060c082840312156111de576111dd6111c3565b5b81905092915050565b600080fd5b600080fd5b600080fd5b60008083601f84011261120c5761120b6111e7565b5b8235905067ffffffffffffffff811115611229576112286111ec565b5b602083019150836001820283011115611245576112446111f1565b5b9250929050565b600060608284031215611262576112616111c3565b5b81905092915050565b60008060008060006080868803121561128757611286611149565b5b6000611295888289016111ae565b955050602086013567ffffffffffffffff8111156112b6576112b561114e565b5b6112c2888289016111c8565b945050604086013567ffffffffffffffff8111156112e3576112e261114e565b5b6112ef888289016111f6565b9350935050606086013567ffffffffffffffff8111156113125761131161114e565b5b61131e8882890161124c565b9150509295509295909350565b6000806020838503121561134257611341611149565b5b600083013567ffffffffffffffff8111156113605761135f61114e565b5b61136c858286016111f6565b92509250509250929050565b61138181611173565b811461138c57600080fd5b50565b60008135905061139e81611378565b92915050565b6000819050919050565b6113b7816113a4565b81146113c257600080fd5b50565b6000813590506113d4816113ae565b92915050565b600281106113e757600080fd5b50565b6000813590506113f9816113da565b92915050565b60008083601f840112611415576114146111e7565b5b8235905067ffffffffffffffff811115611432576114316111ec565b5b60208301915083602082028301111561144e5761144d6111f1565b5b9250929050565b60008083601f84011261146b5761146a6111e7565b5b8235905067ffffffffffffffff811115611488576114876111ec565b5b6020830191508360018202830111156114a4576114a36111f1565b5b9250929050565b600080600080600080600080600060e08a8c0312156114cd576114cc611149565b5b60006114db8c828d0161138f565b99505060206114ec8c828d016113c5565b98505060406114fd8c828d016113ea565b97505060608a013567ffffffffffffffff81111561151e5761151d61114e565b5b61152a8c828d016113ff565b9650965050608061153d8c828d016113c5565b94505060a08a013567ffffffffffffffff81111561155e5761155d61114e565b5b61156a8c828d01611455565b935093505060c061157d8c828d016113c5565b9150509295985092959850929598565b6000806000606084860312156115a6576115a5611149565b5b60006115b4868287016111ae565b935050602084013567ffffffffffffffff8111156115d5576115d461114e565b5b6115e1868287016111c8565b925050604084013567ffffffffffffffff8111156116025761160161114e565b5b61160e8682870161124c565b9150509250925092565b6000819050919050565b600061163d61163861163384611153565b611618565b611153565b9050919050565b600061164f82611622565b9050919050565b600061166182611644565b9050919050565b61167181611656565b82525050565b600060208201905061168c6000830184611668565b92915050565b600080600080604085870312156116ac576116ab611149565b5b600085013567ffffffffffffffff8111156116ca576116c961114e565b5b6116d6878288016111f6565b9450945050602085013567ffffffffffffffff8111156116f9576116f861114e565b5b611705878288016111f6565b925092505092959194509250565b600080600080600080608087890312156117305761172f611149565b5b600061173e89828a016111ae565b965050602087013567ffffffffffffffff81111561175f5761175e61114e565b5b61176b89828a01611455565b9550955050604087013567ffffffffffffffff81111561178e5761178d61114e565b5b61179a89828a0161124c565b935050606087013567ffffffffffffffff8111156117bb576117ba61114e565b5b6117c789828a01611455565b92509250509295509295509295565b6117df81611173565b82525050565b60006020820190506117fa60008301846117d6565b92915050565b600081519050919050565b600082825260208201905092915050565b60005b8381101561183a57808201518184015260208101905061181f565b83811115611849576000848401525b50505050565b6000601f19601f8301169050919050565b600061186b82611800565b611875818561180b565b935061188581856020860161181c565b61188e8161184f565b840191505092915050565b600060208201905081810360008301526118b38184611860565b905092915050565b600067ffffffffffffffff82169050919050565b6118d8816118bb565b81146118e357600080fd5b50565b6000813590506118f5816118cf565b92915050565b6000806000806060858703121561191557611914611149565b5b6000611923878288016113c5565b945050602085013567ffffffffffffffff8111156119445761194361114e565b5b611950878288016111f6565b93509350506040611963878288016118e6565b91505092959194509250565b6000806000806000806000806080898b03121561198f5761198e611149565b5b600089013567ffffffffffffffff8111156119ad576119ac61114e565b5b6119b98b828c01611455565b9850985050602089013567ffffffffffffffff8111156119dc576119db61114e565b5b6119e88b828c01611455565b9650965050604089013567ffffffffffffffff811115611a0b57611a0a61114e565b5b611a178b828c01611455565b9450945050606089013567ffffffffffffffff811115611a3a57611a3961114e565b5b611a468b828c01611455565b92509250509295985092959890939650565b60008060208385031215611a6f57611a6e611149565b5b600083013567ffffffffffffffff811115611a8d57611a8c61114e565b5b611a9985828601611455565b92509250509250929050565b600060208284031215611abb57611aba611149565b5b6000611ac98482850161138f565b91505092915050565b600082825260208201905092915050565b7f50726f6f6620766572696669636174696f6e206661696c656400000000000000600082015250565b6000611b19601983611ad2565b9150611b2482611ae3565b602082019050919050565b60006020820190508181036000830152611b4881611b0c565b9050919050565b600080fd5b600082356001604003833603038112611b7057611b6f611b4f565b5b82810191505092915050565b600080fd5b600080fd5b60008083356001602003843603038112611ba357611ba2611b4f565b5b83810192508235915060208301925067ffffffffffffffff821115611bcb57611bca611b7c565b5b600182023603841315611be157611be0611b81565b5b509250929050565b600082825260208201905092915050565b82818337600083830152505050565b6000611c158385611be9565b9350611c22838584611bfa565b611c2b8361184f565b840190509392505050565b6000611c4560208401846113c5565b905092915050565b611c56816113a4565b82525050565b600060408301611c6f6000840184611b86565b8583036000870152611c82838284611c09565b92505050611c936020840184611c36565b611ca06020860182611c4d565b508091505092915050565b6000611cba60208401846118e6565b905092915050565b611ccb816118bb565b82525050565b60008083356001602003843603038112611cee57611ced611b4f565b5b83810192508235915060208301925067ffffffffffffffff821115611d1657611d15611b7c565b5b600182023603841315611d2c57611d2b611b81565b5b509250929050565b600082825260208201905092915050565b6000611d518385611d34565b9350611d5e838584611bfa565b611d678361184f565b840190509392505050565b600082905092915050565b60408201611d8e6000830183611cab565b611d9b6000850182611cc2565b50611da96020830183611cab565b611db66020850182611cc2565b50505050565b600060c08301611dcf6000840184611b54565b8482036000860152611de18282611c5c565b915050611df16020840184611b54565b8482036020860152611e038282611c5c565b915050611e136040840184611cab565b611e206040860182611cc2565b50611e2e6060840184611cd1565b8583036060870152611e41838284611d45565b92505050611e526080840184611d72565b611e5f6080860182611d7d565b508091505092915050565b60006020820190508181036000830152611e848184611dbc565b905092915050565b7f436c69656e74206e6f7420637265617465640000000000000000000000000000600082015250565b6000611ec2601283611ad2565b9150611ecd82611e8c565b602082019050919050565b60006020820190508181036000830152611ef181611eb5565b9050919050565b6000611f04838561180b565b9350611f11838584611bfa565b611f1a8361184f565b840190509392505050565b60006020820190508181036000830152611f40818486611ef8565b90509392505050565b60008115159050919050565b611f5e81611f49565b8114611f6957600080fd5b50565b600081519050611f7b81611f55565b92915050565b600060208284031215611f9757611f96611149565b5b6000611fa584828501611f6c565b91505092915050565b7f436f6e73656e73757320737461746520766572696669636174696f6e2066616960008201527f6c65640000000000000000000000000000000000000000000000000000000000602082015250565b600061200a602383611ad2565b915061201582611fae565b604082019050919050565b6000602082019050818103600083015261203981611ffd565b9050919050565b7f4e487b7100000000000000000000000000000000000000000000000000000000600052601160045260246000fd5b600061207a826118bb565b915067ffffffffffffffff82141561209557612094612040565b5b600182019050919050565b6000819050602082019050919050565b60006120bc82516113a4565b80915050919050565b600082821b905092915050565b60006120dd82611800565b826120e7846120a0565b90506120f2816120b0565b925060208210156121325761212d7fffffffffffffffffffffffffffffffffffffffffffffffffffffffffffffffff836020036008026120c5565b831692505b5050919050565b612142816113a4565b82525050565b7f4e487b7100000000000000000000000000000000000000000000000000000000600052602160045260246000fd5b6002811061218857612187612148565b5b50565b600081905061219982612177565b919050565b60006121a98261218b565b9050919050565b6121b98161219e565b82525050565b600082825260208201905092915050565b6000819050919050565b60006121e7848484611c09565b90509392505050565b6000602082019050919050565b600061220983856121bf565b93508360208402850161221b846121d0565b8060005b878110156122615784840389526122368284611b86565b6122418682846121da565b955061224c846121f0565b935060208b019a50505060018101905061221f565b50829750879450505050509392505050565b600061227f8385611ad2565b935061228c838584611bfa565b6122958361184f565b840190509392505050565b600060e0820190506122b5600083018c612139565b6122c2602083018b612139565b6122cf604083018a6121b0565b81810360608301526122e281888a6121fd565b90506122f16080830187612139565b81810360a0830152612304818587612273565b905061231360c0830184612139565b9a9950505050505050505050565b600081519050612330816113ae565b92915050565b60006020828403121561234c5761234b611149565b5b600061235a84828501612321565b91505092915050565b600060a082019050612378600083018a612139565b61238560208301896121b0565b81810360408301526123988187896121fd565b905081810360608301526123ad818587612273565b90506123bc6080830184612139565b98975050505050505050565b600080fd5b600080fd5b600080fd5b6000823560016040038336030381126123f3576123f26123c8565b5b80830191505092915050565b6000808335600160200384360303811261241c5761241b6123c8565b5b80840192508235915067ffffffffffffffff82111561243e5761243d6123cd565b5b60208301925060018202360383131561245a576124596123d2565b5b509250929050565b6000808335600160200384360303811261247f5761247e6123c8565b5b80840192508235915067ffffffffffffffff8211156124a1576124a06123cd565b5b6020830192506001820236038313156124bd576124bc6123d2565b5b509250929050565b6000602082840312156124db576124da611149565b5b60006124e9848285016118e6565b91505092915050565b6124fb816118bb565b82525050565b6000608082019050818103600083015261251c81898b612273565b90508181036020830152612531818789612273565b90508181036040830152612546818587611ef8565b905061255560608301846124f2565b98975050505050505050565b7f436c69656e7420616c7265616479206372656174656400000000000000000000600082015250565b6000612597601683611ad2565b91506125a282612561565b602082019050919050565b600060208201905081810360008301526125c68161258a565b9050919050565b600060408201905081810360008301526125e8818688612273565b905081810360208301526125fd818486612273565b905095945050505050565b7f4e487b7100000000000000000000000000000000000000000000000000000000600052602260045260246000fd5b6000600282049050600182168061264f57607f821691505b6020821081141561266357612662612608565b5b50919050565b60006040820190508181036000830152612684818587611ef8565b905061269360208301846124f2565b949350505050565b600060808201905081810360008301526126b6818a8c612273565b905081810360208301526126cb81888a612273565b905081810360408301526126e0818688612273565b905081810360608301526126f5818486612273565b90509998505050505050505050565b6000602082019050818103600083015261271f818486612273565b90509392505050565b7f4f776e61626c653a206e6577206f776e657220697320746865207a65726f206160008201527f6464726573730000000000000000000000000000000000000000000000000000602082015250565b6000612784602683611ad2565b915061278f82612728565b604082019050919050565b600060208201905081810360008301526127b381612777565b9050919050565b7f4e487b7100000000000000000000000000000000000000000000000000000000600052604160045260246000fd5b7f4e487b7100000000000000000000000000000000000000000000000000000000600052601260045260246000fd5b600081519050919050565b600081905092915050565b600061283982612818565b6128438185612823565b935061285381856020860161181c565b80840191505092915050565b600061286b828561282e565b9150612877828461282e565b91508190509392505050565b7f4f776e61626c653a2063616c6c6572206973206e6f7420746865206f776e6572600082015250565b60006128b9602083611ad2565b91506128c482612883565b602082019050919050565b600060208201905081810360008301526128e8816128ac565b905091905056fea26469706673582212202ebe60350603e8fb830f425147967d82d7e5d2ca101b94496d50834e5f0262fd64736f6c63430008090033",
  "linkReferences": {},
  "deployedLinkReferences": {}
}