{
  "_format": "hh-sol-artifact-1",
  "contractName": "Dispatcher",
  "sourceName": "contracts/Dispatcher.sol",
  "abi": [
    {
      "inputs": [
        {
          "internalType": "contract ZKMintVerifier",
          "name": "_verifier",
          "type": "address"
        },
        {
          "internalType": "address payable",
          "name": "_escrow",
          "type": "address"
        },
        {
          "internalType": "string",
          "name": "initPortPrefix",
          "type": "string"
        }
      ],
      "stateMutability": "nonpayable",
      "type": "constructor"
    },
    {
      "anonymous": false,
      "inputs": [
        {
          "indexed": true,
          "internalType": "address",
          "name": "sourcePortAddress",
          "type": "address"
        },
        {
          "indexed": true,
          "internalType": "bytes32",
          "name": "sourceChannelId",
          "type": "bytes32"
        },
        {
          "components": [
            {
              "internalType": "bool",
              "name": "success",
              "type": "bool"
            },
            {
              "internalType": "bytes",
              "name": "data",
              "type": "bytes"
            }
          ],
          "indexed": false,
          "internalType": "struct AckPacket",
          "name": "AckPacket",
          "type": "tuple"
        },
        {
          "indexed": false,
          "internalType": "uint64",
          "name": "sequence",
          "type": "uint64"
        }
      ],
      "name": "Acknowledgement",
      "type": "event"
    },
    {
      "anonymous": false,
      "inputs": [
        {
          "indexed": true,
          "internalType": "address",
          "name": "portAddress",
          "type": "address"
        },
        {
          "indexed": true,
          "internalType": "bytes32",
          "name": "channelId",
          "type": "bytes32"
        }
      ],
      "name": "CloseIbcChannel",
      "type": "event"
    },
    {
      "anonymous": false,
      "inputs": [
        {
          "indexed": true,
          "internalType": "address",
          "name": "portAddress",
          "type": "address"
        },
        {
          "indexed": true,
          "internalType": "bytes32",
          "name": "channelId",
          "type": "bytes32"
        },
        {
          "indexed": false,
          "internalType": "string",
          "name": "counterpartyPortId",
          "type": "string"
        },
        {
          "indexed": true,
          "internalType": "bytes32",
          "name": "counterpartyChannelId",
          "type": "bytes32"
        },
        {
          "indexed": false,
          "internalType": "string[]",
          "name": "connectionHops",
          "type": "string[]"
        }
      ],
      "name": "ConnectIbcChannel",
      "type": "event"
    },
    {
      "anonymous": false,
      "inputs": [
        {
          "indexed": true,
          "internalType": "address",
          "name": "portAddress",
          "type": "address"
        },
        {
          "indexed": true,
          "internalType": "bytes32",
          "name": "counterpartyChannelId",
          "type": "bytes32"
        },
        {
          "indexed": false,
          "internalType": "bytes32",
          "name": "version",
          "type": "bytes32"
        },
        {
          "indexed": false,
          "internalType": "enum ChannelOrder",
          "name": "ordering",
          "type": "uint8"
        },
        {
          "indexed": false,
          "internalType": "string[]",
          "name": "connectionHops",
          "type": "string[]"
        },
        {
          "indexed": false,
          "internalType": "string",
          "name": "counterpartyPortId",
          "type": "string"
        },
        {
          "indexed": false,
          "internalType": "bytes32",
          "name": "counterpartyVersion",
          "type": "bytes32"
        }
      ],
      "name": "OpenIbcChannel",
      "type": "event"
    },
    {
      "anonymous": false,
      "inputs": [
        {
          "indexed": true,
          "internalType": "address",
          "name": "previousOwner",
          "type": "address"
        },
        {
          "indexed": true,
          "internalType": "address",
          "name": "newOwner",
          "type": "address"
        }
      ],
      "name": "OwnershipTransferred",
      "type": "event"
    },
    {
      "anonymous": false,
      "inputs": [
        {
          "indexed": true,
          "internalType": "address",
          "name": "destPortAddress",
          "type": "address"
        },
        {
          "indexed": true,
          "internalType": "bytes32",
          "name": "destChannelId",
          "type": "bytes32"
        },
        {
          "indexed": false,
          "internalType": "string",
          "name": "srcPortId",
          "type": "string"
        },
        {
          "indexed": true,
          "internalType": "bytes32",
          "name": "srcChannelId",
          "type": "bytes32"
        },
        {
          "indexed": false,
          "internalType": "uint64",
          "name": "sequence",
          "type": "uint64"
        }
      ],
      "name": "RecvPacket",
      "type": "event"
    },
    {
      "anonymous": false,
      "inputs": [
        {
          "indexed": true,
          "internalType": "address",
          "name": "sourcePortAddress",
          "type": "address"
        },
        {
          "indexed": true,
          "internalType": "bytes32",
          "name": "sourceChannelId",
          "type": "bytes32"
        },
        {
          "indexed": false,
          "internalType": "bytes",
          "name": "packet",
          "type": "bytes"
        },
        {
          "indexed": false,
          "internalType": "uint64",
          "name": "sequence",
          "type": "uint64"
        },
        {
          "indexed": false,
          "internalType": "uint64",
          "name": "timeoutTimestamp",
          "type": "uint64"
        },
        {
          "indexed": false,
          "internalType": "uint256",
          "name": "fee",
          "type": "uint256"
        }
      ],
      "name": "SendPacket",
      "type": "event"
    },
    {
      "anonymous": false,
      "inputs": [
        {
          "indexed": true,
          "internalType": "address",
          "name": "sourcePortAddress",
          "type": "address"
        },
        {
          "indexed": true,
          "internalType": "bytes32",
          "name": "sourceChannelId",
          "type": "bytes32"
        },
        {
          "indexed": true,
          "internalType": "uint64",
          "name": "sequence",
          "type": "uint64"
        }
      ],
      "name": "Timeout",
      "type": "event"
    },
    {
      "anonymous": false,
      "inputs": [
        {
          "indexed": true,
          "internalType": "address",
          "name": "writerPortAddress",
          "type": "address"
        },
        {
          "indexed": true,
          "internalType": "bytes32",
          "name": "writerChannelId",
          "type": "bytes32"
        },
        {
          "indexed": false,
          "internalType": "uint64",
          "name": "sequence",
          "type": "uint64"
        },
        {
          "components": [
            {
              "internalType": "bool",
              "name": "success",
              "type": "bool"
            },
            {
              "internalType": "bytes",
              "name": "data",
              "type": "bytes"
            }
          ],
          "indexed": false,
          "internalType": "struct AckPacket",
          "name": "ackPacket",
          "type": "tuple"
        }
      ],
      "name": "WriteAckPacket",
      "type": "event"
    },
    {
      "anonymous": false,
      "inputs": [
        {
          "indexed": true,
          "internalType": "address",
          "name": "writerPortAddress",
          "type": "address"
        },
        {
          "indexed": true,
          "internalType": "bytes32",
          "name": "writerChannelId",
          "type": "bytes32"
        },
        {
          "indexed": false,
          "internalType": "uint64",
          "name": "sequence",
          "type": "uint64"
        }
      ],
      "name": "WriteTimeoutPacket",
      "type": "event"
    },
    {
      "inputs": [
        {
          "internalType": "contract IbcReceiver",
          "name": "receiver",
          "type": "address"
        },
        {
          "components": [
            {
              "components": [
                {
                  "internalType": "string",
                  "name": "portId",
                  "type": "string"
                },
                {
                  "internalType": "bytes32",
                  "name": "channelId",
                  "type": "bytes32"
                }
              ],
              "internalType": "struct IbcEndpoint",
              "name": "src",
              "type": "tuple"
            },
            {
              "components": [
                {
                  "internalType": "string",
                  "name": "portId",
                  "type": "string"
                },
                {
                  "internalType": "bytes32",
                  "name": "channelId",
                  "type": "bytes32"
                }
              ],
              "internalType": "struct IbcEndpoint",
              "name": "dest",
              "type": "tuple"
            },
            {
              "internalType": "uint64",
              "name": "sequence",
              "type": "uint64"
            },
            {
              "internalType": "bytes",
              "name": "data",
              "type": "bytes"
            },
            {
              "components": [
                {
                  "internalType": "uint64",
                  "name": "blockHeight",
                  "type": "uint64"
                },
                {
                  "internalType": "uint64",
                  "name": "timestamp",
                  "type": "uint64"
                }
              ],
              "internalType": "struct IbcTimeout",
              "name": "timeout",
              "type": "tuple"
            }
          ],
          "internalType": "struct IbcPacket",
          "name": "packet",
          "type": "tuple"
        },
        {
          "components": [
            {
              "internalType": "bool",
              "name": "success",
              "type": "bool"
            },
            {
              "internalType": "bytes",
              "name": "data",
              "type": "bytes"
            }
          ],
          "internalType": "struct AckPacket",
          "name": "ackPacket",
          "type": "tuple"
        },
        {
          "components": [
            {
              "internalType": "uint64",
              "name": "proofHeight",
              "type": "uint64"
            },
            {
              "internalType": "bytes",
              "name": "proof",
              "type": "bytes"
            }
          ],
          "internalType": "struct Proof",
          "name": "proof",
          "type": "tuple"
        }
      ],
      "name": "acknowledgement",
      "outputs": [],
      "stateMutability": "nonpayable",
      "type": "function"
    },
    {
      "inputs": [
        {
          "internalType": "bytes32",
          "name": "channelId",
          "type": "bytes32"
        }
      ],
      "name": "closeIbcChannel",
      "outputs": [],
      "stateMutability": "nonpayable",
      "type": "function"
    },
    {
      "inputs": [
        {
          "internalType": "contract IbcReceiver",
          "name": "portAddress",
          "type": "address"
        },
        {
          "internalType": "bytes32",
          "name": "channelId",
          "type": "bytes32"
        },
        {
          "internalType": "string[]",
          "name": "connectionHops",
          "type": "string[]"
        },
        {
          "internalType": "enum ChannelOrder",
          "name": "ordering",
          "type": "uint8"
        },
        {
          "internalType": "string",
          "name": "counterpartyPortId",
          "type": "string"
        },
        {
          "internalType": "bytes32",
          "name": "counterpartyChannelId",
          "type": "bytes32"
        },
        {
          "internalType": "bytes32",
          "name": "counterpartyVersion",
          "type": "bytes32"
        },
        {
          "components": [
            {
              "internalType": "uint64",
              "name": "proofHeight",
              "type": "uint64"
            },
            {
              "internalType": "bytes",
              "name": "proof",
              "type": "bytes"
            }
          ],
          "internalType": "struct Proof",
          "name": "proof",
          "type": "tuple"
        }
      ],
      "name": "connectIbcChannel",
      "outputs": [],
      "stateMutability": "nonpayable",
      "type": "function"
    },
    {
      "inputs": [
        {
          "components": [
            {
              "internalType": "bytes",
              "name": "clientState",
              "type": "bytes"
            },
            {
              "components": [
                {
                  "internalType": "uint256",
                  "name": "app_hash",
                  "type": "uint256"
                },
                {
                  "internalType": "uint256",
                  "name": "valset_hash",
                  "type": "uint256"
                },
                {
                  "internalType": "uint256",
                  "name": "time",
                  "type": "uint256"
                },
                {
                  "internalType": "uint256",
                  "name": "height",
                  "type": "uint256"
                }
              ],
              "internalType": "struct ConsensusState",
              "name": "consensusState",
              "type": "tuple"
            }
          ],
          "internalType": "struct InitClientMsg",
          "name": "initClientMsg",
          "type": "tuple"
        }
      ],
      "name": "createClient",
      "outputs": [],
      "stateMutability": "nonpayable",
      "type": "function"
    },
    {
      "inputs": [
        {
          "internalType": "address",
          "name": "portAddress",
          "type": "address"
        },
        {
          "internalType": "bytes32",
          "name": "channelId",
          "type": "bytes32"
        }
      ],
      "name": "getChannel",
      "outputs": [
        {
          "components": [
            {
              "internalType": "bytes32",
              "name": "version",
              "type": "bytes32"
            },
            {
              "internalType": "enum ChannelOrder",
              "name": "ordering",
              "type": "uint8"
            },
            {
              "internalType": "string[]",
              "name": "connectionHops",
              "type": "string[]"
            },
            {
              "internalType": "string",
              "name": "counterpartyPortId",
              "type": "string"
            },
            {
              "internalType": "bytes32",
              "name": "counterpartyChannelId",
              "type": "bytes32"
            }
          ],
          "internalType": "struct Channel",
          "name": "",
          "type": "tuple"
        }
      ],
      "stateMutability": "view",
      "type": "function"
    },
    {
      "inputs": [],
      "name": "latestConsensusState",
      "outputs": [
        {
          "internalType": "uint256",
          "name": "app_hash",
          "type": "uint256"
        },
        {
          "internalType": "uint256",
          "name": "valset_hash",
          "type": "uint256"
        },
        {
          "internalType": "uint256",
          "name": "time",
          "type": "uint256"
        },
        {
          "internalType": "uint256",
          "name": "height",
          "type": "uint256"
        }
      ],
      "stateMutability": "view",
      "type": "function"
    },
    {
      "inputs": [
        {
          "internalType": "address",
          "name": "portAddress",
          "type": "address"
        },
        {
          "internalType": "bytes32",
          "name": "channelId",
          "type": "bytes32"
        },
        {
          "components": [
            {
              "internalType": "uint64",
              "name": "proofHeight",
              "type": "uint64"
            },
            {
              "internalType": "bytes",
              "name": "proof",
              "type": "bytes"
            }
          ],
          "internalType": "struct Proof",
          "name": "proof",
          "type": "tuple"
        }
      ],
      "name": "onCloseIbcChannel",
      "outputs": [],
      "stateMutability": "nonpayable",
      "type": "function"
    },
    {
      "inputs": [
        {
          "internalType": "contract IbcReceiver",
          "name": "portAddress",
          "type": "address"
        },
        {
          "internalType": "bytes32",
          "name": "version",
          "type": "bytes32"
        },
        {
          "internalType": "enum ChannelOrder",
          "name": "ordering",
          "type": "uint8"
        },
        {
          "internalType": "string[]",
          "name": "connectionHops",
          "type": "string[]"
        },
        {
          "internalType": "bytes32",
          "name": "counterpartyChannelId",
          "type": "bytes32"
        },
        {
          "internalType": "string",
          "name": "counterpartyPortId",
          "type": "string"
        },
        {
          "internalType": "bytes32",
          "name": "counterpartyVersion",
          "type": "bytes32"
        }
      ],
      "name": "openIbcChannel",
      "outputs": [],
      "stateMutability": "nonpayable",
      "type": "function"
    },
    {
      "inputs": [],
      "name": "owner",
      "outputs": [
        {
          "internalType": "address",
          "name": "",
          "type": "address"
        }
      ],
      "stateMutability": "view",
      "type": "function"
    },
    {
      "inputs": [
        {
          "internalType": "address",
          "name": "",
          "type": "address"
        },
        {
          "internalType": "bytes32",
          "name": "",
          "type": "bytes32"
        }
      ],
      "name": "portChannelMap",
      "outputs": [
        {
          "internalType": "bytes32",
          "name": "version",
          "type": "bytes32"
        },
        {
          "internalType": "enum ChannelOrder",
          "name": "ordering",
          "type": "uint8"
        },
        {
          "internalType": "string",
          "name": "counterpartyPortId",
          "type": "string"
        },
        {
          "internalType": "bytes32",
          "name": "counterpartyChannelId",
          "type": "bytes32"
        }
      ],
      "stateMutability": "view",
      "type": "function"
    },
    {
      "inputs": [
        {
          "internalType": "address",
          "name": "addr",
          "type": "address"
        },
        {
          "internalType": "string",
          "name": "portId",
          "type": "string"
        }
      ],
      "name": "portIdAddressMatch",
      "outputs": [
        {
          "internalType": "bool",
          "name": "",
          "type": "bool"
        }
      ],
      "stateMutability": "view",
      "type": "function"
    },
    {
      "inputs": [
        {
          "internalType": "contract IbcReceiver",
          "name": "receiver",
          "type": "address"
        },
        {
          "components": [
            {
              "components": [
                {
                  "internalType": "string",
                  "name": "portId",
                  "type": "string"
                },
                {
                  "internalType": "bytes32",
                  "name": "channelId",
                  "type": "bytes32"
                }
              ],
              "internalType": "struct IbcEndpoint",
              "name": "src",
              "type": "tuple"
            },
            {
              "components": [
                {
                  "internalType": "string",
                  "name": "portId",
                  "type": "string"
                },
                {
                  "internalType": "bytes32",
                  "name": "channelId",
                  "type": "bytes32"
                }
              ],
              "internalType": "struct IbcEndpoint",
              "name": "dest",
              "type": "tuple"
            },
            {
              "internalType": "uint64",
              "name": "sequence",
              "type": "uint64"
            },
            {
              "internalType": "bytes",
              "name": "data",
              "type": "bytes"
            },
            {
              "components": [
                {
                  "internalType": "uint64",
                  "name": "blockHeight",
                  "type": "uint64"
                },
                {
                  "internalType": "uint64",
                  "name": "timestamp",
                  "type": "uint64"
                }
              ],
              "internalType": "struct IbcTimeout",
              "name": "timeout",
              "type": "tuple"
            }
          ],
          "internalType": "struct IbcPacket",
          "name": "packet",
          "type": "tuple"
        },
        {
          "components": [
            {
              "internalType": "uint64",
              "name": "proofHeight",
              "type": "uint64"
            },
            {
              "internalType": "bytes",
              "name": "proof",
              "type": "bytes"
            }
          ],
          "internalType": "struct Proof",
          "name": "proof",
          "type": "tuple"
        }
      ],
      "name": "recvPacket",
      "outputs": [],
      "stateMutability": "nonpayable",
      "type": "function"
    },
    {
      "inputs": [],
      "name": "renounceOwnership",
      "outputs": [],
      "stateMutability": "nonpayable",
      "type": "function"
    },
    {
      "inputs": [
        {
          "internalType": "bytes32",
          "name": "channelId",
          "type": "bytes32"
        },
        {
          "internalType": "bytes",
          "name": "packet",
          "type": "bytes"
        },
        {
          "internalType": "uint64",
          "name": "timeoutTimestamp",
          "type": "uint64"
        },
        {
          "internalType": "uint256",
          "name": "fee",
          "type": "uint256"
        }
      ],
      "name": "sendPacket",
      "outputs": [],
      "stateMutability": "payable",
      "type": "function"
    },
    {
      "inputs": [
        {
          "internalType": "string",
          "name": "_portPrefix",
          "type": "string"
        }
      ],
      "name": "setPortPrefix",
      "outputs": [],
      "stateMutability": "nonpayable",
      "type": "function"
    },
    {
      "inputs": [
        {
          "internalType": "contract IbcReceiver",
          "name": "receiver",
          "type": "address"
        },
        {
          "components": [
            {
              "components": [
                {
                  "internalType": "string",
                  "name": "portId",
                  "type": "string"
                },
                {
                  "internalType": "bytes32",
                  "name": "channelId",
                  "type": "bytes32"
                }
              ],
              "internalType": "struct IbcEndpoint",
              "name": "src",
              "type": "tuple"
            },
            {
              "components": [
                {
                  "internalType": "string",
                  "name": "portId",
                  "type": "string"
                },
                {
                  "internalType": "bytes32",
                  "name": "channelId",
                  "type": "bytes32"
                }
              ],
              "internalType": "struct IbcEndpoint",
              "name": "dest",
              "type": "tuple"
            },
            {
              "internalType": "uint64",
              "name": "sequence",
              "type": "uint64"
            },
            {
              "internalType": "bytes",
              "name": "data",
              "type": "bytes"
            },
            {
              "components": [
                {
                  "internalType": "uint64",
                  "name": "blockHeight",
                  "type": "uint64"
                },
                {
                  "internalType": "uint64",
                  "name": "timestamp",
                  "type": "uint64"
                }
              ],
              "internalType": "struct IbcTimeout",
              "name": "timeout",
              "type": "tuple"
            }
          ],
          "internalType": "struct IbcPacket",
          "name": "packet",
          "type": "tuple"
        },
        {
          "components": [
            {
              "internalType": "uint64",
              "name": "proofHeight",
              "type": "uint64"
            },
            {
              "internalType": "bytes",
              "name": "proof",
              "type": "bytes"
            }
          ],
          "internalType": "struct Proof",
          "name": "proof",
          "type": "tuple"
        }
      ],
      "name": "timeout",
      "outputs": [],
      "stateMutability": "nonpayable",
      "type": "function"
    },
    {
      "inputs": [
        {
          "internalType": "address",
          "name": "newOwner",
          "type": "address"
        }
      ],
      "name": "transferOwnership",
      "outputs": [],
      "stateMutability": "nonpayable",
      "type": "function"
    },
    {
      "inputs": [
        {
          "components": [
            {
              "components": [
                {
                  "internalType": "uint256",
                  "name": "app_hash",
                  "type": "uint256"
                },
                {
                  "internalType": "uint256",
                  "name": "valset_hash",
                  "type": "uint256"
                },
                {
                  "internalType": "uint256",
                  "name": "time",
                  "type": "uint256"
                },
                {
                  "internalType": "uint256",
                  "name": "height",
                  "type": "uint256"
                }
              ],
              "internalType": "struct ConsensusState",
              "name": "consensusState",
              "type": "tuple"
            },
            {
              "components": [
                {
                  "internalType": "uint256[2]",
                  "name": "a",
                  "type": "uint256[2]"
                },
                {
                  "internalType": "uint256[2][2]",
                  "name": "b",
                  "type": "uint256[2][2]"
                },
                {
                  "internalType": "uint256[2]",
                  "name": "c",
                  "type": "uint256[2]"
                }
              ],
              "internalType": "struct ZkProof",
              "name": "zkProof",
              "type": "tuple"
            }
          ],
          "internalType": "struct UpdateClientMsg",
          "name": "updateClientMsg",
          "type": "tuple"
        }
      ],
      "name": "updateClient",
      "outputs": [],
      "stateMutability": "nonpayable",
      "type": "function"
    },
    {
      "inputs": [
        {
          "components": [
            {
              "internalType": "bytes",
              "name": "clientState",
              "type": "bytes"
            },
            {
              "components": [
                {
                  "internalType": "uint256",
                  "name": "app_hash",
                  "type": "uint256"
                },
                {
                  "internalType": "uint256",
                  "name": "valset_hash",
                  "type": "uint256"
                },
                {
                  "internalType": "uint256",
                  "name": "time",
                  "type": "uint256"
                },
                {
                  "internalType": "uint256",
                  "name": "height",
                  "type": "uint256"
                }
              ],
              "internalType": "struct ConsensusState",
              "name": "consensusState",
              "type": "tuple"
            }
          ],
          "internalType": "struct UpgradeClientMsg",
          "name": "upgradeClientMsg",
          "type": "tuple"
        }
      ],
      "name": "upgradeClient",
      "outputs": [],
      "stateMutability": "nonpayable",
      "type": "function"
    },
    {
      "inputs": [
        {
          "internalType": "address",
          "name": "receiver",
          "type": "address"
        },
        {
          "components": [
            {
              "components": [
                {
                  "internalType": "string",
                  "name": "portId",
                  "type": "string"
                },
                {
                  "internalType": "bytes32",
                  "name": "channelId",
                  "type": "bytes32"
                }
              ],
              "internalType": "struct IbcEndpoint",
              "name": "src",
              "type": "tuple"
            },
            {
              "components": [
                {
                  "internalType": "string",
                  "name": "portId",
                  "type": "string"
                },
                {
                  "internalType": "bytes32",
                  "name": "channelId",
                  "type": "bytes32"
                }
              ],
              "internalType": "struct IbcEndpoint",
              "name": "dest",
              "type": "tuple"
            },
            {
              "internalType": "uint64",
              "name": "sequence",
              "type": "uint64"
            },
            {
              "internalType": "bytes",
              "name": "data",
              "type": "bytes"
            },
            {
              "components": [
                {
                  "internalType": "uint64",
                  "name": "blockHeight",
                  "type": "uint64"
                },
                {
                  "internalType": "uint64",
                  "name": "timestamp",
                  "type": "uint64"
                }
              ],
              "internalType": "struct IbcTimeout",
              "name": "timeout",
              "type": "tuple"
            }
          ],
          "internalType": "struct IbcPacket",
          "name": "packet",
          "type": "tuple"
        }
      ],
      "name": "writeTimeoutPacket",
      "outputs": [],
      "stateMutability": "nonpayable",
      "type": "function"
    }
  ],
  "bytecode": "0x60806040526002805460ff60a01b191690553480156200001e57600080fd5b506040516200458738038062004587833981016040819052620000419162000229565b6200004c3362000104565b600180546001600160a01b038086166001600160a01b031992831617909255600280549285169290911682179055620000cb5760405162461bcd60e51b815260206004820152601d60248201527f457363726f772063616e6e6f74206265207a65726f2061646472657373000000604482015260640160405180910390fd5b8051620000e090600790602084019062000154565b50516008805463ffffffff191663ffffffff90921691909117905550620003709050565b600080546001600160a01b038381166001600160a01b0319831681178455604051919092169283917f8be0079c531659141344cd1fd0a4f28419497f9722a3daafe3b4186f6b6457e09190a35050565b828054620001629062000333565b90600052602060002090601f016020900481019282620001865760008555620001d1565b82601f10620001a157805160ff1916838001178555620001d1565b82800160010185558215620001d1579182015b82811115620001d1578251825591602001919060010190620001b4565b50620001df929150620001e3565b5090565b5b80821115620001df5760008155600101620001e4565b6001600160a01b03811681146200021057600080fd5b50565b634e487b7160e01b600052604160045260246000fd5b6000806000606084860312156200023f57600080fd5b83516200024c81620001fa565b809350506020808501516200026181620001fa565b60408601519093506001600160401b03808211156200027f57600080fd5b818701915087601f8301126200029457600080fd5b815181811115620002a957620002a962000213565b604051601f8201601f19908116603f01168101908382118183101715620002d457620002d462000213565b816040528281528a86848701011115620002ed57600080fd5b600093505b82841015620003115784840186015181850187015292850192620002f2565b82841115620003235760008684830101525b8096505050505050509250925092565b600181811c908216806200034857607f821691505b602082108114156200036a57634e487b7160e01b600052602260045260246000fd5b50919050565b61420780620003806000396000f3fe60806040526004361061011f5760003560e01c80638da5cb5b116100a0578063bba1051711610064578063bba105171461031c578063c2a2514d1461033c578063e36e013f1461037f578063f2fde38b146103af578063f4ecbb15146103cf57600080fd5b80638da5cb5b1461026457806394e47af81461028c578063951538f3146102ac5780639f59ae71146102cc578063b2b1bf03146102ec57600080fd5b8063715018a6116100e7578063715018a6146101dc5780638059885a146101f157806380840e6b146102115780638b24b4cb146102315780638d3d5aa91461025157600080fd5b80631f456c1e146101245780633f7625ab1461014657806342852d24146101665780634c9778d31461019c578063520b128e146101bc575b600080fd5b34801561013057600080fd5b5061014461013f366004612da6565b6103ef565b005b34801561015257600080fd5b50610144610161366004612e6b565b6104da565b34801561017257600080fd5b50610186610181366004612eba565b61070d565b6040516101939190612f7a565b60405180910390f35b3480156101a857600080fd5b506101446101b7366004613040565b610920565b3480156101c857600080fd5b506101446101d7366004613114565b610bd0565b3480156101e857600080fd5b50610144610ea3565b3480156101fd57600080fd5b5061014461020c3660046131ae565b610eb7565b34801561021d57600080fd5b5061014461022c3660046131d3565b611004565b34801561023d57600080fd5b5061014461024c36600461320f565b61107b565b61014461025f36600461323f565b61133b565b34801561027057600080fd5b506000546040516001600160a01b039091168152602001610193565b34801561029857600080fd5b506101446102a73660046132a4565b6116e3565b3480156102b857600080fd5b506101446102c7366004613319565b611ea6565b3480156102d857600080fd5b506101446102e7366004613367565b6122c9565b3480156102f857600080fd5b5061030c610307366004612eba565b6122fb565b60405161019394939291906133a8565b34801561032857600080fd5b506101446103373660046132a4565b6123bb565b34801561034857600080fd5b5060035460045460055460065461035f9392919084565b604080519485526020850193909352918301526060820152608001610193565b34801561038b57600080fd5b5061039f61039a3660046133df565b612690565b6040519015158152602001610193565b3480156103bb57600080fd5b506101446103ca366004613433565b61277d565b3480156103db57600080fd5b506101446103ea3660046131d3565b6127f6565b604051634865921960e01b81526000906001600160a01b038b169063486592199061042c908c908c908c908c908c908c908c908c9060040161351b565b602060405180830381600087803b15801561044657600080fd5b505af115801561045a573d6000803e3d6000fd5b505050506040513d601f19601f8201168201806040525081019061047e9190613571565b9050848a6001600160a01b03167f9a93c124e7f0aa93d3fbe660b1366e0483b4267619924382261498efbb92c873838b8b8b8a8a8a6040516104c6979695949392919061358a565b60405180910390a350505050505050505050565b6104f2826104e883806135d9565b61039a90806135f9565b6105175760405162461bcd60e51b815260040161050e9061363f565b60405180910390fd5b6001600160a01b0382166000908152600c602090815260408220908290610540908501856135d9565b6020013581526020019081526020016000206000836040016020810190610567919061368e565b6001600160401b0316815260208101919091526040016000205460ff16905080156105d45760405162461bcd60e51b815260206004820152601d60248201527f5061636b6574207265636569707420616c726561647920657869737473000000604482015260640161050e565b6105e460c0830160a0840161368e565b6001600160401b03161580610611575061060460c0830160a0840161368e565b6001600160401b03164210155b8015610655575061062860a083016080840161368e565b6001600160401b03161580610655575061064860a083016080840161368e565b6001600160401b03164310155b6106a15760405162461bcd60e51b815260206004820152601860248201527f5061636b6574206e6f742074696d6564206f7574207965740000000000000000604482015260640161050e565b6106ae60208301836135d9565b602001356001600160a01b0384167f7333461763c7d92fc71194a27f0a170adc7a8ee782bede3d71b9d0580f116f3a6106ed606086016040870161368e565b6040516001600160401b03909116815260200160405180910390a3505050565b61073f6040805160a0810190915260008082526020820190815260606020820181905260408201819052600091015290565b6001600160a01b0383166000908152600960209081526040808320858452825291829020825160a0810190935280548352600180820154919284019160ff169081111561078e5761078e612ee6565b600181111561079f5761079f612ee6565b815260200160028201805480602002602001604051908101604052809291908181526020016000905b828210156108745783829060005260206000200180546107e7906136a9565b80601f0160208091040260200160405190810160405280929190818152602001828054610813906136a9565b80156108605780601f1061083557610100808354040283529160200191610860565b820191906000526020600020905b81548152906001019060200180831161084357829003601f168201915b5050505050815260200190600101906107c8565b50505050815260200160038201805461088c906136a9565b80601f01602080910402602001604051908101604052809291908181526020018280546108b8906136a9565b80156109055780601f106108da57610100808354040283529160200191610905565b820191906000526020600020905b8154815290600101906020018083116108e857829003601f168201915b50505050508152602001600482015481525050905092915050565b6001546040805160808101909152605e8082526001600160a01b039092169163c9b73c6c9160039185919061412160208301396040518463ffffffff1660e01b81526004016109719392919061371f565b60206040518083038186803b15801561098957600080fd5b505afa15801561099d573d6000803e3d6000fd5b505050506040513d601f19601f820116820180604052508101906109c191906137b9565b610a0d5760405162461bcd60e51b815260206004820152601b60248201527f4661696c20746f2070726f7665206368616e6e656c2073746174650000000000604482015260640161050e565b60405163e60a729360e01b8152600481018a905260248101849052604481018390526001600160a01b038b169063e60a729390606401600060405180830381600087803b158015610a5d57600080fd5b505af1158015610a71573d6000803e3d6000fd5b505050506040518060a00160405280838152602001876001811115610a9857610a98612ee6565b8152602001610aa7898b61386b565b815260200186868080601f016020809104026020016040519081016040528093929190818152602001838380828437600092018290525093855250505060209182018690526001600160a01b038d1681526009825260408082208d835283529020825181559082015160018083018054909160ff19909116908381811115610b3157610b31612ee6565b021790555060408201518051610b51916002840191602090910190612b0b565b5060608201518051610b6d916003840191602090910190612b68565b506080820151816004015590505082898b6001600160a01b03167f57ea540ad7b8bfd2813b8637764ba029fedc52de3f812934a46511506aa11b8e88888d8d604051610bbc949392919061392f565b60405180910390a450505050505050505050565b610bde846104e885806135d9565b610bfa5760405162461bcd60e51b815260040161050e90613961565b60015460405163326dcf1b60e21b81526001600160a01b039091169063c9b73c6c90610c2d9060039085906004016139ab565b60206040518083038186803b158015610c4557600080fd5b505afa158015610c59573d6000803e3d6000fd5b505050506040513d601f19601f82011682018060405250810190610c7d91906137b9565b610cbd5760405162461bcd60e51b81526020600482015260116024820152704661696c20746f2070726f76652061636b60781b604482015260640161050e565b6001600160a01b0384166000908152600b6020526040812081610ce086806135d9565b6020013581526020019081526020016000206000856040016020810190610d07919061368e565b6001600160401b0316815260208101919091526040016000205460ff16905080610d735760405162461bcd60e51b815260206004820152601b60248201527f5061636b657420636f6d6d69746d656e74206e6f7420666f756e640000000000604482015260640161050e565b604051633d173d7960e21b81526001600160a01b0386169063f45cf5e490610d9f908790600401613ab4565b600060405180830381600087803b158015610db957600080fd5b505af1158015610dcd573d6000803e3d6000fd5b5050506001600160a01b0386166000908152600b602052604081209150610df486806135d9565b6020013581526020019081526020016000206000856040016020810190610e1b919061368e565b6001600160401b031681526020810191909152604001600020805460ff19169055610e4684806135d9565b602001356001600160a01b0386167fc4198f9e29f113c5464c20bc273a0861cf81d5fdef68c6a7cc9993d9437d1a0b85610e866060890160408a0161368e565b604051610e94929190613b78565b60405180910390a35050505050565b610eab612885565b610eb560006128df565b565b600254600160a01b900460ff16610f055760405162461bcd60e51b815260206004820152601260248201527110db1a595b9d081b9bdd0818dc99585d195960721b604482015260640161050e565b600154604051633b427df160e01b81526001600160a01b0390911690633b427df190610f38906003908590600401613bcc565b60206040518083038186803b158015610f5057600080fd5b505afa158015610f64573d6000803e3d6000fd5b505050506040513d601f19601f82011682018060405250810190610f8891906137b9565b610fe65760405162461bcd60e51b815260206004820152602960248201527f557064617465436c69656e744d73672070726f6f6620766572696669636174696044820152681bdb8819985a5b195960ba1b606482015260840161050e565b80356003556020810135600455604081013560055560600135600655565b61100c612885565b600254600160a01b900460ff1661105a5760405162461bcd60e51b815260206004820152601260248201527110db1a595b9d081b9bdd0818dc99585d195960721b604482015260640161050e565b60208101356003556040810135600455606081013560055560800135600655565b3360009081526009602090815260408083208484528252808320815160a0810190925280548252600180820154929391929184019160ff16908111156110c3576110c3612ee6565b60018111156110d4576110d4612ee6565b815260200160028201805480602002602001604051908101604052809291908181526020016000905b828210156111a957838290600052602060002001805461111c906136a9565b80601f0160208091040260200160405190810160405280929190818152602001828054611148906136a9565b80156111955780601f1061116a57610100808354040283529160200191611195565b820191906000526020600020905b81548152906001019060200180831161117857829003601f168201915b5050505050815260200190600101906110fd565b5050505081526020016003820180546111c1906136a9565b80601f01602080910402602001604051908101604052809291908181526020018280546111ed906136a9565b801561123a5780601f1061120f5761010080835404028352916020019161123a565b820191906000526020600020905b81548152906001019060200180831161121d57829003601f168201915b5050505050815260200160048201548152505090506000801b816080015114156112a65760405162461bcd60e51b815260206004820152601f60248201527f4368616e6e656c206e6f74206f776e6564206279206d73672e73656e64657200604482015260640161050e565b60608101516080820151604051635fe39e0d60e01b815233928392635fe39e0d926112d79288929091600401613c71565b600060405180830381600087803b1580156112f157600080fd5b505af1158015611305573d6000803e3d6000fd5b50506040518592503391507fe893e4ba0e364cdc96364b1e1e0d53b0d91e5fd6aa0ee9d81a17ecd61178bf1790600090a3505050565b3360009081526009602090815260408083208884528252808320815160a0810190925280548252600180820154929391929184019160ff169081111561138357611383612ee6565b600181111561139457611394612ee6565b815260200160028201805480602002602001604051908101604052809291908181526020016000905b828210156114695783829060005260206000200180546113dc906136a9565b80601f0160208091040260200160405190810160405280929190818152602001828054611408906136a9565b80156114555780601f1061142a57610100808354040283529160200191611455565b820191906000526020600020905b81548152906001019060200180831161143857829003601f168201915b5050505050815260200190600101906113bd565b505050508152602001600382018054611481906136a9565b80601f01602080910402602001604051908101604052809291908181526020018280546114ad906136a9565b80156114fa5780601f106114cf576101008083540402835291602001916114fa565b820191906000526020600020905b8154815290600101906020018083116114dd57829003601f168201915b5050505050815260200160048201548152505090506000801b816080015114156115665760405162461bcd60e51b815260206004820152601b60248201527f4368616e6e656c206e6f74206f776e65642062792073656e6465720000000000604482015260640161050e565b6002546040516000916001600160a01b03169084908381818185875af1925050503d80600081146115b3576040519150601f19603f3d011682016040523d82523d6000602084013e6115b8565b606091505b50509050806116095760405162461bcd60e51b815260206004820152601b60248201527f4661696c656420746f20657363726f77207061636b6574206665650000000000604482015260640161050e565b336000908152600a602090815260408083208a8452909152812054611638906001600160401b03166001613cb0565b336000818152600a602090815260408083208d84528252808320805467ffffffffffffffff19166001600160401b038716908117909155848452600b83528184208e8552835281842090845290915290819020805460ff191660011790555191925089917fc55a6c1340ca55a6b61de30037455a7f9f4a5b8ff106e4eaa0c23ea886fa0360906116d1908b908b9087908c908c90613cdb565b60405180910390a35050505050505050565b6116f4836104e860208501856135d9565b6117105760405162461bcd60e51b815260040161050e9061363f565b60015460405163326dcf1b60e21b81526001600160a01b039091169063c9b73c6c90611743906003908590600401613d13565b60206040518083038186803b15801561175b57600080fd5b505afa15801561176f573d6000803e3d6000fd5b505050506040513d601f19601f8201168201806040525081019061179391906137b9565b6117df5760405162461bcd60e51b815260206004820152601f60248201527f4661696c20746f2070726f7665207061636b657420636f6d6d69746d656e7400604482015260640161050e565b6001600160a01b0383166000908152600c602090815260408220908290611808908601866135d9565b602001358152602001908152602001600020600084604001602081019061182f919061368e565b6001600160401b0316815260208101919091526040016000205460ff169050801561189c5760405162461bcd60e51b815260206004820152601d60248201527f5061636b6574207265636569707420616c726561647920657869737473000000604482015260640161050e565b6001600160a01b038416600090815260096020908152604082209082906118c5908701876135d9565b6020013581526020019081526020016000206040518060a0016040529081600082015481526020016001820160009054906101000a900460ff16600181111561191057611910612ee6565b600181111561192157611921612ee6565b815260200160028201805480602002602001604051908101604052809291908181526020016000905b828210156119f6578382906000526020600020018054611969906136a9565b80601f0160208091040260200160405190810160405280929190818152602001828054611995906136a9565b80156119e25780601f106119b7576101008083540402835291602001916119e2565b820191906000526020600020905b8154815290600101906020018083116119c557829003601f168201915b50505050508152602001906001019061194a565b505050508152602001600382018054611a0e906136a9565b80601f0160208091040260200160405190810160405280929190818152602001828054611a3a906136a9565b8015611a875780601f10611a5c57610100808354040283529160200191611a87565b820191906000526020600020905b815481529060010190602001808311611a6a57829003601f168201915b5050509183525050600491909101546020909101529050600181602001516001811115611ab657611ab6612ee6565b1415611be5576001600160a01b0385166000908152600d6020908152604082209190611ae4908701876135d9565b60209081013582528101919091526040908101600020546001600160401b031690611b15906060870190870161368e565b6001600160401b031614611b6b5760405162461bcd60e51b815260206004820152601a60248201527f556e6578706563746564207061636b65742073657175656e6365000000000000604482015260640161050e565b611b7b606085016040860161368e565b611b86906001613cb0565b6001600160a01b0386166000908152600d6020908152604082209190611bae908801886135d9565b60200135815260200190815260200160002060006101000a8154816001600160401b0302191690836001600160401b031602179055505b60405163582c740d60e11b81526000906001600160a01b0387169063b058e81a90611c14908890600401613ab4565b600060405180830381600087803b158015611c2e57600080fd5b505af1158015611c42573d6000803e3d6000fd5b505050506040513d6000823e601f3d908101601f19168201604052611c6a9190810190613de2565b6001600160a01b0387166000908152600e6020908152604082209293509091908290611c98908901896135d9565b6020013581526020019081526020016000206000876040016020810190611cbf919061368e565b6001600160401b0316815260208101919091526040016000205460ff1690508015611d385760405162461bcd60e51b8152602060048201526024808201527f41636b207061636b657420636f6d6d69746d656e7420616c72656164792065786044820152636973747360e01b606482015260840161050e565b6001600160a01b0387166000908152600e6020908152604082206001929091611d63908a018a6135d9565b6020013581526020019081526020016000206000886040016020810190611d8a919061368e565b6001600160401b031681526020810191909152604001600020805460ff1916911515919091179055611dbc86806135d9565b60200135868060200190611dd091906135d9565b602001356001600160a01b0389167f91b260514b25c153f5a81bfa045f6f31daf97c690a9fbd19c959f2530f93a9be611e098a806135d9565b611e1390806135f9565b611e2360608d0160408e0161368e565b604051611e3293929190613e9f565b60405180910390a4611e4760208701876135d9565b602001356001600160a01b0388167fa32e6f42b1d63fb83ad73b009a6dbb9413d1da02e95b1bb08f081815eea8db20611e8660608a0160408b0161368e565b85604051611e95929190613ecc565b60405180910390a350505050505050565b600154604080516080810190915260538082526001600160a01b039092169163c9b73c6c9160039185919061417f60208301396040518463ffffffff1660e01b8152600401611ef79392919061371f565b60206040518083038186803b158015611f0f57600080fd5b505afa158015611f23573d6000803e3d6000fd5b505050506040513d601f19601f82011682018060405250810190611f4791906137b9565b611f935760405162461bcd60e51b815260206004820152601b60248201527f4661696c20746f2070726f7665206368616e6e656c2073746174650000000000604482015260640161050e565b6001600160a01b03831660009081526009602090815260408083208584528252808320815160a0810190925280548252600180820154929391929184019160ff1690811115611fe457611fe4612ee6565b6001811115611ff557611ff5612ee6565b815260200160028201805480602002602001604051908101604052809291908181526020016000905b828210156120ca57838290600052602060002001805461203d906136a9565b80601f0160208091040260200160405190810160405280929190818152602001828054612069906136a9565b80156120b65780601f1061208b576101008083540402835291602001916120b6565b820191906000526020600020905b81548152906001019060200180831161209957829003601f168201915b50505050508152602001906001019061201e565b5050505081526020016003820180546120e2906136a9565b80601f016020809104026020016040519081016040528092919081815260200182805461210e906136a9565b801561215b5780601f106121305761010080835404028352916020019161215b565b820191906000526020600020905b81548152906001019060200180831161213e57829003601f168201915b5050505050815260200160048201548152505090506000801b816080015114156121c75760405162461bcd60e51b815260206004820181905260248201527f4368616e6e656c206e6f74206f776e656420627920706f727441646472657373604482015260640161050e565b60608101516080820151604051635fe39e0d60e01b815286926001600160a01b03841692635fe39e0d926122019289929091600401613c71565b600060405180830381600087803b15801561221b57600080fd5b505af115801561222f573d6000803e3d6000fd5b5050506001600160a01b0386166000908152600960209081526040808320888452909152812081815560018101805460ff1916905591506122736002830182612be8565b612281600383016000612c06565b6004820160009055505083856001600160a01b03167fe893e4ba0e364cdc96364b1e1e0d53b0d91e5fd6aa0ee9d81a17ecd61178bf1760405160405180910390a35050505050565b6122d1612885565b6122dd60078383612c40565b506008805463ffffffff191663ffffffff9290921691909117905550565b6009602090815260009283526040808420909152908252902080546001820154600383018054929360ff90921692612332906136a9565b80601f016020809104026020016040519081016040528092919081815260200182805461235e906136a9565b80156123ab5780601f10612380576101008083540402835291602001916123ab565b820191906000526020600020905b81548152906001019060200180831161238e57829003601f168201915b5050505050908060040154905084565b6123c9836104e884806135d9565b6123e55760405162461bcd60e51b815260040161050e90613961565b60015460405163122d651b60e01b81526001600160a01b039091169063122d651b90612418906003908590600401613f03565b60206040518083038186803b15801561243057600080fd5b505afa158015612444573d6000803e3d6000fd5b505050506040513d601f19601f8201168201806040525081019061246891906137b9565b6124ac5760405162461bcd60e51b815260206004820152601560248201527411985a5b081d1bc81c1c9bdd99481d1a5b595bdd5d605a1b604482015260640161050e565b6001600160a01b0383166000908152600b60205260408120816124cf85806135d9565b60200135815260200190815260200160002060008460400160208101906124f6919061368e565b6001600160401b0316815260208101919091526040016000205460ff169050806125625760405162461bcd60e51b815260206004820152601b60248201527f5061636b657420636f6d6d69746d656e74206e6f7420666f756e640000000000604482015260640161050e565b60405163b33c257760e01b81526001600160a01b0385169063b33c25779061258e908690600401613ab4565b600060405180830381600087803b1580156125a857600080fd5b505af11580156125bc573d6000803e3d6000fd5b5050506001600160a01b0385166000908152600b6020526040812091506125e385806135d9565b602001358152602001908152602001600020600084604001602081019061260a919061368e565b6001600160401b0316815260208101919091526040908101600020805460ff1916905561263d906060850190850161368e565b6001600160401b031661265084806135d9565b60200135856001600160a01b03167f19ac40c4084d9bfb5b43f819a94bf01c70789b0d579871f59e4f86def04d934460405160405180910390a450505050565b6008546000906126a89063ffffffff16828486613f71565b6040516020016126b9929190613f9b565b6040516020818303038152906040528051906020012060076040516020016126e19190613fab565b604051602081830303815290604052805190602001201461270457506000612776565b60085460009061271d90849063ffffffff168187613f71565b8080601f01602080910402602001604051908101604052809392919081815260200183838082843760009201919091525092935050506001600160a01b03861690506127688261292f565b6001600160a01b0316149150505b9392505050565b612785612885565b6001600160a01b0381166127ea5760405162461bcd60e51b815260206004820152602660248201527f4f776e61626c653a206e6577206f776e657220697320746865207a65726f206160448201526564647265737360d01b606482015260840161050e565b6127f3816128df565b50565b6127fe612885565b600254600160a01b900460ff16156128515760405162461bcd60e51b815260206004820152601660248201527510db1a595b9d08185b1c9958591e4818dc99585d195960521b604482015260640161050e565b6002805460ff60a01b1916600160a01b17905560208101356003556040810135600455606081013560055560800135600655565b6000546001600160a01b03163314610eb55760405162461bcd60e51b815260206004820181905260248201527f4f776e61626c653a2063616c6c6572206973206e6f7420746865206f776e6572604482015260640161050e565b600080546001600160a01b038381166001600160a01b0319831681178455604051919092169283917f8be0079c531659141344cd1fd0a4f28419497f9722a3daafe3b4186f6b6457e09190a35050565b600081516028146129825760405162461bcd60e51b815260206004820152601960248201527f496e76616c69642068657820737472696e67206c656e67746800000000000000604482015260640161050e565b60408051601480825281830190925283916000919060208201818036833701905050905060005b6014811015612aff576000836129c0836002614047565b815181106129d0576129d0614066565b016020015160f81c90506000846129e8846002614047565b6129f390600161407c565b81518110612a0357612a03614066565b016020015160f81c9050604160ff831610801590612a255750605a8260ff1611155b15612a3857612a35602083614094565b91505b60418160ff1610158015612a505750605a8160ff1611155b15612a6357612a60602082614094565b90505b600060618260ff161015612a78576030612a7b565b60575b612a8590836140b9565b60618460ff161015612a98576030612a9b565b60575b612aa590856140b9565b612ab09060106140dc565b612aba9190614094565b90508060f81b858581518110612ad257612ad2614066565b60200101906001600160f81b031916908160001a9053505050508080612af790614105565b9150506129a9565b50601401519392505050565b828054828255906000526020600020908101928215612b58579160200282015b82811115612b585782518051612b48918491602090910190612b68565b5091602001919060010190612b2b565b50612b64929150612cb4565b5090565b828054612b74906136a9565b90600052602060002090601f016020900481019282612b965760008555612bdc565b82601f10612baf57805160ff1916838001178555612bdc565b82800160010185558215612bdc579182015b82811115612bdc578251825591602001919060010190612bc1565b50612b64929150612cd1565b50805460008255906000526020600020908101906127f39190612cb4565b508054612c12906136a9565b6000825580601f10612c22575050565b601f0160209004906000526020600020908101906127f39190612cd1565b828054612c4c906136a9565b90600052602060002090601f016020900481019282612c6e5760008555612bdc565b82601f10612c875782800160ff19823516178555612bdc565b82800160010185558215612bdc579182015b82811115612bdc578235825591602001919060010190612c99565b80821115612b64576000612cc88282612c06565b50600101612cb4565b5b80821115612b645760008155600101612cd2565b6001600160a01b03811681146127f357600080fd5b8035612d0681612ce6565b919050565b803560028110612d0657600080fd5b60008083601f840112612d2c57600080fd5b5081356001600160401b03811115612d4357600080fd5b6020830191508360208260051b8501011115612d5e57600080fd5b9250929050565b60008083601f840112612d7757600080fd5b5081356001600160401b03811115612d8e57600080fd5b602083019150836020828501011115612d5e57600080fd5b600080600080600080600080600060e08a8c031215612dc457600080fd5b8935612dcf81612ce6565b985060208a01359750612de460408b01612d0b565b965060608a01356001600160401b0380821115612e0057600080fd5b612e0c8d838e01612d1a565b909850965060808c0135955060a08c0135915080821115612e2c57600080fd5b50612e398c828d01612d65565b9a9d999c50979a9699959894979660c00135949350505050565b600060c08284031215612e6557600080fd5b50919050565b60008060408385031215612e7e57600080fd5b8235612e8981612ce6565b915060208301356001600160401b03811115612ea457600080fd5b612eb085828601612e53565b9150509250929050565b60008060408385031215612ecd57600080fd5b8235612ed881612ce6565b946020939093013593505050565b634e487b7160e01b600052602160045260246000fd5b60028110612f1a57634e487b7160e01b600052602160045260246000fd5b9052565b60005b83811015612f39578181015183820152602001612f21565b83811115612f48576000848401525b50505050565b60008151808452612f66816020860160208601612f1e565b601f01601f19169290920160200192915050565b6000602080835260c0830184518285015281850151612f9c6040860182612efc565b50604085015160a0606086015281815180845260e08701915060e08160051b8801019350848301925060005b81811015612ff65760df19888603018352612fe4858551612f4e565b94509285019291850191600101612fc8565b505050506060850151848203601f1901608086015291506130178183612f4e565b915050608084015160a08401528091505092915050565b600060408284031215612e6557600080fd5b6000806000806000806000806000806101008b8d03121561306057600080fd5b6130698b612cfb565b995060208b0135985060408b01356001600160401b038082111561308c57600080fd5b6130988e838f01612d1a565b909a5098508891506130ac60608e01612d0b565b975060808d01359150808211156130c257600080fd5b6130ce8e838f01612d65565b909750955060a08d0135945060c08d0135935060e08d01359150808211156130f557600080fd5b506131028d828e0161302e565b9150509295989b9194979a5092959850565b6000806000806080858703121561312a57600080fd5b843561313581612ce6565b935060208501356001600160401b038082111561315157600080fd5b61315d88838901612e53565b9450604087013591508082111561317357600080fd5b61317f8883890161302e565b9350606087013591508082111561319557600080fd5b506131a28782880161302e565b91505092959194509250565b60006101808284031215612e6557600080fd5b600060a08284031215612e6557600080fd5b6000602082840312156131e557600080fd5b81356001600160401b038111156131fb57600080fd5b613207848285016131c1565b949350505050565b60006020828403121561322157600080fd5b5035919050565b80356001600160401b0381168114612d0657600080fd5b60008060008060006080868803121561325757600080fd5b8535945060208601356001600160401b0381111561327457600080fd5b61328088828901612d65565b9095509350613293905060408701613228565b949793965091946060013592915050565b6000806000606084860312156132b957600080fd5b83356132c481612ce6565b925060208401356001600160401b03808211156132e057600080fd5b6132ec87838801612e53565b9350604086013591508082111561330257600080fd5b5061330f8682870161302e565b9150509250925092565b60008060006060848603121561332e57600080fd5b833561333981612ce6565b92506020840135915060408401356001600160401b0381111561335b57600080fd5b61330f8682870161302e565b6000806020838503121561337a57600080fd5b82356001600160401b0381111561339057600080fd5b61339c85828601612d65565b90969095509350505050565b8481526133b86020820185612efc565b6080604082015260006133ce6080830185612f4e565b905082606083015295945050505050565b6000806000604084860312156133f457600080fd5b83356133ff81612ce6565b925060208401356001600160401b0381111561341a57600080fd5b61342686828701612d65565b9497909650939450505050565b60006020828403121561344557600080fd5b813561277681612ce6565b81835281816020850137506000828201602090810191909152601f909101601f19169091010190565b6000808335601e1984360301811261349057600080fd5b83016020810192503590506001600160401b038111156134af57600080fd5b803603831315612d5e57600080fd5b81835260006020808501808196508560051b810191508460005b8781101561350e5782840389526134ef8288613479565b6134fa868284613450565b9a87019a95505050908401906001016134d8565b5091979650505050505050565b88815261352b6020820189612efc565b60c06040820152600061354260c08301888a6134be565b866060840152828103608084015261355b818688613450565b9150508260a08301529998505050505050505050565b60006020828403121561358357600080fd5b5051919050565b87815261359a6020820188612efc565b60a0604082015260006135b160a0830187896134be565b82810360608401526135c4818688613450565b91505082608083015298975050505050505050565b60008235603e198336030181126135ef57600080fd5b9190910192915050565b6000808335601e1984360301811261361057600080fd5b8301803591506001600160401b0382111561362a57600080fd5b602001915036819003821315612d5e57600080fd5b6020808252602f908201527f5265636569766572206973206e6f742074686520696e74656e6465642070616360408201526e35b2ba103232b9ba34b730ba34b7b760891b606082015260800190565b6000602082840312156136a057600080fd5b61277682613228565b600181811c908216806136bd57607f821691505b60208210811415612e6557634e487b7160e01b600052602260045260246000fd5b6001600160401b036136ef82613228565b16825260006137016020830183613479565b60406020860152613716604086018284613450565b95945050505050565b8354815260018401546020820152600284015460408201526003840154606082015260e06080820152600061375760e08301856136de565b8281038060a0850152601d82527f6368616e6e656c2f706174682f746f2f62652f61646465642f6865726500000060208301526040810160c0850152506137a16040820185612f4e565b9695505050505050565b80151581146127f357600080fd5b6000602082840312156137cb57600080fd5b8151612776816137ab565b634e487b7160e01b600052604160045260246000fd5b604080519081016001600160401b038111828210171561380e5761380e6137d6565b60405290565b604051601f8201601f191681016001600160401b038111828210171561383c5761383c6137d6565b604052919050565b60006001600160401b0382111561385d5761385d6137d6565b50601f01601f191660200190565b60006001600160401b0380841115613885576138856137d6565b8360051b6020613896818301613814565b8681529185019181810190368411156138ae57600080fd5b865b84811015613923578035868111156138c85760008081fd5b880136601f8201126138da5760008081fd5b80356138ed6138e882613844565b613814565b81815236878385010111156139025760008081fd5b818784018883013760009181018701919091528452509183019183016138b0565b50979650505050505050565b604081526000613943604083018688613450565b82810360208401526139568185876134be565b979650505050505050565b6020808252602a908201527f5265636569766572206973206e6f7420746865206f726967696e616c2070616360408201526935b2ba1039b2b73232b960b11b606082015260800190565b8254815260018301546020820152600283015460408201526003830154606082015260e0608082015260006139e360e08301846136de565b8281038060a0850152600f82526e0c2c6d65ee0c2c6d6cae85ee0c2e8d608b1b60208301526040810160c085015250602a60408201527f65787065637465642061636b20726563656970742068617368206f6e20506f6c6060820152693cb6b2b91031b430b4b760b11b608082015260a081019150509392505050565b60008235603e19833603018112613a7657600080fd5b90910192915050565b6000613a8b8283613479565b60408552613a9d604086018284613450565b915050602083013560208501528091505092915050565b602081526000613ac48384613a60565b60c06020840152613ad860e0840182613a7f565b9050613ae76020850185613a60565b601f1980858403016040860152613afe8383613a7f565b9250613b0c60408701613228565b91506001600160401b038083166060870152613b2b6060880188613479565b935082878603016080880152613b42858583613450565b94505080613b5260808901613228565b1660a087015280613b6560a08901613228565b1660c08701525050508091505092915050565b6040815260008335613b89816137ab565b15156040830152613b9d6020850185613479565b60406060850152613bb2608085018284613450565b925050506001600160401b03831660208301529392505050565b82548152600183015460208201526002830154604082015260038301546060820152610200810182356080830152602083013560a083015260408084013560c0840152606084013560e084015280608085016101008501376000610140848101828152909160c0870191815b6002811015613c5857858483379085018281529285019290600101613c38565b5050838388016101c08801378452509195945050505050565b838152606060208201526000613c8a6060830185612f4e565b9050826040830152949350505050565b634e487b7160e01b600052601160045260246000fd5b60006001600160401b03808316818516808303821115613cd257613cd2613c9a565b01949350505050565b608081526000613cef608083018789613450565b6001600160401b039586166020840152939094166040820152606001529392505050565b8254815260018301546020820152600283015460408201526003830154606082015260e060808201526000613d4b60e08301846136de565b8281038060a085015260168252750e0c2c6d6cae85ec6dedadad2e8dacadce85ee0c2e8d60531b60208301526040810160c085015250603860408201527f6578706563746564207669727475616c207061636b657420636f6d6d69746d6560608201527f6e742068617368206f6e20506f6c796d657220636861696e0000000000000000608082015260a081019150509392505050565b60006020808385031215613df557600080fd5b82516001600160401b0380821115613e0c57600080fd5b9084019060408287031215613e2057600080fd5b613e286137ec565b8251613e33816137ab565b81528284015182811115613e4657600080fd5b80840193505086601f840112613e5b57600080fd5b82519150613e6b6138e883613844565b8281528785848601011115613e7f57600080fd5b613e8e83868301878701612f1e565b938101939093525090949350505050565b604081526000613eb3604083018587613450565b90506001600160401b0383166020830152949350505050565b6001600160401b03831681526040602082015281511515604082015260006020830151604060608401526137166080840182612f4e565b8254815260018301546020820152600283015460408201526003830154606082015260c060808201526000613f3b60c08301846136de565b82810360a084015260138152720e0c2c6d6cae85ee4cac6cad2e0e85ee0c2e8d606b1b6020820152604081019150509392505050565b60008085851115613f8157600080fd5b83861115613f8e57600080fd5b5050820193919092039150565b8183823760009101908152919050565b600080835481600182811c915080831680613fc757607f831692505b6020808410821415613fe757634e487b7160e01b86526022600452602486fd5b818015613ffb576001811461400c57614039565b60ff19861689528489019650614039565b60008a81526020902060005b868110156140315781548b820152908501908301614018565b505084890196505b509498975050505050505050565b600081600019048311821515161561406157614061613c9a565b500290565b634e487b7160e01b600052603260045260246000fd5b6000821982111561408f5761408f613c9a565b500190565b600060ff821660ff84168060ff038211156140b1576140b1613c9a565b019392505050565b600060ff821660ff8416808210156140d3576140d3613c9a565b90039392505050565b600060ff821660ff84168160ff04811182151516156140fd576140fd613c9a565b029392505050565b600060001982141561411957614119613c9a565b506001019056fe6578706563746564206368616e6e656c20627974657320636f6e73747275637465642066726f6d20706172616d732e204368616e6e656c2e5374617465203d207b41636b5f50656e64696e672c20436f6e6669726d5f50656e64696e677d6578706563746564206368616e6e656c20627974657320636f6e73747275637465642066726f6d20706172616d732e204368616e6e656c2e5374617465203d207b436c6f736564285f50656e64696e673f297da2646970667358221220f15b2b2502bcb0365f5353a4aeb086fa11f6444948e375f112611ea7184799d964736f6c63430008090033",
  "linkReferences": {},
  "deployedLinkReferences": {}
}