{
  "_format": "hh-sol-artifact-1",
  "contractName": "Dispatcher",
  "sourceName": "contracts/Dispatcher.sol",
  "abi": [
    {
      "inputs": [
        {
          "internalType": "contract ZKMintVerifier",
          "name": "_verifier",
          "type": "address"
        },
        {
          "internalType": "address payable",
          "name": "_escrow",
          "type": "address"
        }
      ],
      "stateMutability": "nonpayable",
      "type": "constructor"
    },
    {
      "anonymous": false,
      "inputs": [
        {
          "indexed": true,
          "internalType": "address",
          "name": "sourcePortAddress",
          "type": "address"
        },
        {
          "indexed": true,
          "internalType": "bytes32",
          "name": "sourceChannelId",
          "type": "bytes32"
        },
        {
          "components": [
            {
              "internalType": "bool",
              "name": "success",
              "type": "bool"
            },
            {
              "internalType": "bytes",
              "name": "data",
              "type": "bytes"
            }
          ],
          "indexed": false,
          "internalType": "struct AckPacket",
          "name": "AckPacket",
          "type": "tuple"
        },
        {
          "indexed": false,
          "internalType": "uint64",
          "name": "sequence",
          "type": "uint64"
        }
      ],
      "name": "Acknowledgement",
      "type": "event"
    },
    {
      "anonymous": false,
      "inputs": [
        {
          "indexed": true,
          "internalType": "address",
          "name": "portAddress",
          "type": "address"
        },
        {
          "indexed": true,
          "internalType": "bytes32",
          "name": "channelId",
          "type": "bytes32"
        }
      ],
      "name": "CloseIbcChannel",
      "type": "event"
    },
    {
      "anonymous": false,
      "inputs": [
        {
          "indexed": true,
          "internalType": "address",
          "name": "portAddress",
          "type": "address"
        },
        {
          "indexed": true,
          "internalType": "bytes32",
          "name": "channelId",
          "type": "bytes32"
        },
        {
          "indexed": false,
          "internalType": "string",
          "name": "counterpartyPortId",
          "type": "string"
        },
        {
          "indexed": true,
          "internalType": "bytes32",
          "name": "counterpartyChannelId",
          "type": "bytes32"
        },
        {
          "indexed": false,
          "internalType": "string[]",
          "name": "connectionHops",
          "type": "string[]"
        }
      ],
      "name": "ConnectIbcChannel",
      "type": "event"
    },
    {
      "anonymous": false,
      "inputs": [
        {
          "indexed": true,
          "internalType": "bytes32",
          "name": "srcChannelId",
          "type": "bytes32"
        },
        {
          "indexed": false,
          "internalType": "string",
          "name": "srcPortId",
          "type": "string"
        },
        {
          "indexed": true,
          "internalType": "bytes32",
          "name": "destChannelId",
          "type": "bytes32"
        },
        {
          "indexed": false,
          "internalType": "string",
          "name": "destPortId",
          "type": "string"
        },
        {
          "indexed": false,
          "internalType": "bytes",
          "name": "data",
          "type": "bytes"
        },
        {
          "indexed": false,
          "internalType": "uint64",
          "name": "sequence",
          "type": "uint64"
        }
      ],
      "name": "OnRecvPacket",
      "type": "event"
    },
    {
      "anonymous": false,
      "inputs": [
        {
          "indexed": true,
          "internalType": "address",
          "name": "portAddress",
          "type": "address"
        },
        {
          "indexed": true,
          "internalType": "bytes32",
          "name": "counterpartyChannelId",
          "type": "bytes32"
        },
        {
          "indexed": false,
          "internalType": "bytes32",
          "name": "version",
          "type": "bytes32"
        },
        {
          "indexed": false,
          "internalType": "enum ChannelOrder",
          "name": "ordering",
          "type": "uint8"
        },
        {
          "indexed": false,
          "internalType": "string[]",
          "name": "connectionHops",
          "type": "string[]"
        },
        {
          "indexed": false,
          "internalType": "string",
          "name": "counterpartyPortId",
          "type": "string"
        },
        {
          "indexed": false,
          "internalType": "bytes32",
          "name": "counterpartyVersion",
          "type": "bytes32"
        }
      ],
      "name": "OpenIbcChannel",
      "type": "event"
    },
    {
      "anonymous": false,
      "inputs": [
        {
          "indexed": true,
          "internalType": "address",
          "name": "previousOwner",
          "type": "address"
        },
        {
          "indexed": true,
          "internalType": "address",
          "name": "newOwner",
          "type": "address"
        }
      ],
      "name": "OwnershipTransferred",
      "type": "event"
    },
    {
      "anonymous": false,
      "inputs": [
        {
          "indexed": true,
          "internalType": "address",
          "name": "sourcePortAddress",
          "type": "address"
        },
        {
          "indexed": true,
          "internalType": "bytes32",
          "name": "sourceChannelId",
          "type": "bytes32"
        },
        {
          "indexed": false,
          "internalType": "bytes",
          "name": "packet",
          "type": "bytes"
        },
        {
          "indexed": false,
          "internalType": "uint64",
          "name": "sequence",
          "type": "uint64"
        },
        {
          "indexed": false,
          "internalType": "uint64",
          "name": "timeoutTimestamp",
          "type": "uint64"
        },
        {
          "indexed": false,
          "internalType": "uint256",
          "name": "fee",
          "type": "uint256"
        }
      ],
      "name": "SendPacket",
      "type": "event"
    },
    {
      "inputs": [
        {
          "internalType": "contract IbcReceiver",
          "name": "receiver",
          "type": "address"
        },
        {
          "components": [
            {
              "components": [
                {
                  "internalType": "string",
                  "name": "portId",
                  "type": "string"
                },
                {
                  "internalType": "bytes32",
                  "name": "channelId",
                  "type": "bytes32"
                }
              ],
              "internalType": "struct IbcEndpoint",
              "name": "src",
              "type": "tuple"
            },
            {
              "components": [
                {
                  "internalType": "string",
                  "name": "portId",
                  "type": "string"
                },
                {
                  "internalType": "bytes32",
                  "name": "channelId",
                  "type": "bytes32"
                }
              ],
              "internalType": "struct IbcEndpoint",
              "name": "dest",
              "type": "tuple"
            },
            {
              "internalType": "uint64",
              "name": "sequence",
              "type": "uint64"
            },
            {
              "internalType": "bytes",
              "name": "data",
              "type": "bytes"
            },
            {
              "components": [
                {
                  "internalType": "uint64",
                  "name": "block",
                  "type": "uint64"
                },
                {
                  "internalType": "uint64",
                  "name": "timestamp",
                  "type": "uint64"
                }
              ],
              "internalType": "struct IbcTimeout",
              "name": "timeout",
              "type": "tuple"
            }
          ],
          "internalType": "struct IbcPacket",
          "name": "packet",
          "type": "tuple"
        },
        {
          "components": [
            {
              "internalType": "bool",
              "name": "success",
              "type": "bool"
            },
            {
              "internalType": "bytes",
              "name": "data",
              "type": "bytes"
            }
          ],
          "internalType": "struct AckPacket",
          "name": "ackPacket",
          "type": "tuple"
        },
        {
          "components": [
            {
              "internalType": "uint64",
              "name": "proofHeight",
              "type": "uint64"
            },
            {
              "internalType": "bytes",
              "name": "proof",
              "type": "bytes"
            }
          ],
          "internalType": "struct Proof",
          "name": "proof",
          "type": "tuple"
        }
      ],
      "name": "acknowledgement",
      "outputs": [],
      "stateMutability": "nonpayable",
      "type": "function"
    },
    {
      "inputs": [
        {
          "internalType": "bytes32",
          "name": "channelId",
          "type": "bytes32"
        }
      ],
      "name": "closeIbcChannel",
      "outputs": [],
      "stateMutability": "nonpayable",
      "type": "function"
    },
    {
      "inputs": [
        {
          "internalType": "contract IbcReceiver",
          "name": "portAddress",
          "type": "address"
        },
        {
          "internalType": "bytes32",
          "name": "channelId",
          "type": "bytes32"
        },
        {
          "internalType": "string[]",
          "name": "connectionHops",
          "type": "string[]"
        },
        {
          "internalType": "enum ChannelOrder",
          "name": "ordering",
          "type": "uint8"
        },
        {
          "internalType": "string",
          "name": "counterpartyPortId",
          "type": "string"
        },
        {
          "internalType": "bytes32",
          "name": "counterpartyChannelId",
          "type": "bytes32"
        },
        {
          "internalType": "bytes32",
          "name": "counterpartyVersion",
          "type": "bytes32"
        },
        {
          "components": [
            {
              "internalType": "uint64",
              "name": "proofHeight",
              "type": "uint64"
            },
            {
              "internalType": "bytes",
              "name": "proof",
              "type": "bytes"
            }
          ],
          "internalType": "struct Proof",
          "name": "proof",
          "type": "tuple"
        }
      ],
      "name": "connectIbcChannel",
      "outputs": [],
      "stateMutability": "nonpayable",
      "type": "function"
    },
    {
      "inputs": [
        {
          "components": [
            {
              "internalType": "bytes",
              "name": "clientState",
              "type": "bytes"
            },
            {
              "internalType": "bytes",
              "name": "consensusState",
              "type": "bytes"
            }
          ],
          "internalType": "struct InitClientMsg",
          "name": "initClientMsg",
          "type": "tuple"
        }
      ],
      "name": "createClient",
      "outputs": [],
      "stateMutability": "nonpayable",
      "type": "function"
    },
    {
      "inputs": [
        {
          "internalType": "address",
          "name": "portAddress",
          "type": "address"
        },
        {
          "internalType": "bytes32",
          "name": "channelId",
          "type": "bytes32"
        }
      ],
      "name": "getChannel",
      "outputs": [
        {
          "components": [
            {
              "internalType": "bytes32",
              "name": "version",
              "type": "bytes32"
            },
            {
              "internalType": "enum ChannelOrder",
              "name": "ordering",
              "type": "uint8"
            },
            {
              "internalType": "string[]",
              "name": "connectionHops",
              "type": "string[]"
            },
            {
              "internalType": "string",
              "name": "counterpartyPortId",
              "type": "string"
            },
            {
              "internalType": "bytes32",
              "name": "counterpartyChannelId",
              "type": "bytes32"
            }
          ],
          "internalType": "struct Channel",
          "name": "",
          "type": "tuple"
        }
      ],
      "stateMutability": "view",
      "type": "function"
    },
    {
      "inputs": [],
      "name": "latestConsensusState",
      "outputs": [
        {
          "internalType": "bytes",
          "name": "",
          "type": "bytes"
        }
      ],
      "stateMutability": "view",
      "type": "function"
    },
    {
      "inputs": [
        {
          "internalType": "address",
          "name": "portAddress",
          "type": "address"
        },
        {
          "internalType": "bytes32",
          "name": "channelId",
          "type": "bytes32"
        },
        {
          "components": [
            {
              "internalType": "uint64",
              "name": "proofHeight",
              "type": "uint64"
            },
            {
              "internalType": "bytes",
              "name": "proof",
              "type": "bytes"
            }
          ],
          "internalType": "struct Proof",
          "name": "proof",
          "type": "tuple"
        }
      ],
      "name": "onCloseIbcChannel",
      "outputs": [],
      "stateMutability": "nonpayable",
      "type": "function"
    },
    {
      "inputs": [
        {
          "internalType": "contract IbcReceiver",
          "name": "receiver",
          "type": "address"
        },
        {
          "components": [
            {
              "components": [
                {
                  "internalType": "string",
                  "name": "portId",
                  "type": "string"
                },
                {
                  "internalType": "bytes32",
                  "name": "channelId",
                  "type": "bytes32"
                }
              ],
              "internalType": "struct IbcEndpoint",
              "name": "src",
              "type": "tuple"
            },
            {
              "components": [
                {
                  "internalType": "string",
                  "name": "portId",
                  "type": "string"
                },
                {
                  "internalType": "bytes32",
                  "name": "channelId",
                  "type": "bytes32"
                }
              ],
              "internalType": "struct IbcEndpoint",
              "name": "dest",
              "type": "tuple"
            },
            {
              "internalType": "uint64",
              "name": "sequence",
              "type": "uint64"
            },
            {
              "internalType": "bytes",
              "name": "data",
              "type": "bytes"
            },
            {
              "components": [
                {
                  "internalType": "uint64",
                  "name": "block",
                  "type": "uint64"
                },
                {
                  "internalType": "uint64",
                  "name": "timestamp",
                  "type": "uint64"
                }
              ],
              "internalType": "struct IbcTimeout",
              "name": "timeout",
              "type": "tuple"
            }
          ],
          "internalType": "struct IbcPacket",
          "name": "packet",
          "type": "tuple"
        },
        {
          "components": [
            {
              "internalType": "uint64",
              "name": "proofHeight",
              "type": "uint64"
            },
            {
              "internalType": "bytes",
              "name": "proof",
              "type": "bytes"
            }
          ],
          "internalType": "struct Proof",
          "name": "proof",
          "type": "tuple"
        }
      ],
      "name": "onRecvPacket",
      "outputs": [],
      "stateMutability": "nonpayable",
      "type": "function"
    },
    {
      "inputs": [
        {
          "internalType": "contract IbcReceiver",
          "name": "receiver",
          "type": "address"
        },
        {
          "components": [
            {
              "components": [
                {
                  "internalType": "string",
                  "name": "portId",
                  "type": "string"
                },
                {
                  "internalType": "bytes32",
                  "name": "channelId",
                  "type": "bytes32"
                }
              ],
              "internalType": "struct IbcEndpoint",
              "name": "src",
              "type": "tuple"
            },
            {
              "components": [
                {
                  "internalType": "string",
                  "name": "portId",
                  "type": "string"
                },
                {
                  "internalType": "bytes32",
                  "name": "channelId",
                  "type": "bytes32"
                }
              ],
              "internalType": "struct IbcEndpoint",
              "name": "dest",
              "type": "tuple"
            },
            {
              "internalType": "uint64",
              "name": "sequence",
              "type": "uint64"
            },
            {
              "internalType": "bytes",
              "name": "data",
              "type": "bytes"
            },
            {
              "components": [
                {
                  "internalType": "uint64",
                  "name": "block",
                  "type": "uint64"
                },
                {
                  "internalType": "uint64",
                  "name": "timestamp",
                  "type": "uint64"
                }
              ],
              "internalType": "struct IbcTimeout",
              "name": "timeout",
              "type": "tuple"
            }
          ],
          "internalType": "struct IbcPacket",
          "name": "packet",
          "type": "tuple"
        },
        {
          "components": [
            {
              "internalType": "uint64",
              "name": "proofHeight",
              "type": "uint64"
            },
            {
              "internalType": "bytes",
              "name": "proof",
              "type": "bytes"
            }
          ],
          "internalType": "struct Proof",
          "name": "proof",
          "type": "tuple"
        }
      ],
      "name": "onTimeoutPacket",
      "outputs": [],
      "stateMutability": "nonpayable",
      "type": "function"
    },
    {
      "inputs": [
        {
          "internalType": "contract IbcReceiver",
          "name": "portAddress",
          "type": "address"
        },
        {
          "internalType": "bytes32",
          "name": "version",
          "type": "bytes32"
        },
        {
          "internalType": "enum ChannelOrder",
          "name": "ordering",
          "type": "uint8"
        },
        {
          "internalType": "string[]",
          "name": "connectionHops",
          "type": "string[]"
        },
        {
          "internalType": "bytes32",
          "name": "counterpartyChannelId",
          "type": "bytes32"
        },
        {
          "internalType": "string",
          "name": "counterpartyPortId",
          "type": "string"
        },
        {
          "internalType": "bytes32",
          "name": "counterpartyVersion",
          "type": "bytes32"
        }
      ],
      "name": "openIbcChannel",
      "outputs": [],
      "stateMutability": "nonpayable",
      "type": "function"
    },
    {
      "inputs": [],
      "name": "owner",
      "outputs": [
        {
          "internalType": "address",
          "name": "",
          "type": "address"
        }
      ],
      "stateMutability": "view",
      "type": "function"
    },
    {
      "inputs": [
        {
          "internalType": "address",
          "name": "",
          "type": "address"
        },
        {
          "internalType": "bytes32",
          "name": "",
          "type": "bytes32"
        }
      ],
      "name": "portChannelMap",
      "outputs": [
        {
          "internalType": "bytes32",
          "name": "version",
          "type": "bytes32"
        },
        {
          "internalType": "enum ChannelOrder",
          "name": "ordering",
          "type": "uint8"
        },
        {
          "internalType": "string",
          "name": "counterpartyPortId",
          "type": "string"
        },
        {
          "internalType": "bytes32",
          "name": "counterpartyChannelId",
          "type": "bytes32"
        }
      ],
      "stateMutability": "view",
      "type": "function"
    },
    {
      "inputs": [],
      "name": "renounceOwnership",
      "outputs": [],
      "stateMutability": "nonpayable",
      "type": "function"
    },
    {
      "inputs": [
        {
          "internalType": "bytes32",
          "name": "channelId",
          "type": "bytes32"
        },
        {
          "internalType": "bytes",
          "name": "packet",
          "type": "bytes"
        },
        {
          "internalType": "uint64",
          "name": "timeoutTimestamp",
          "type": "uint64"
        },
        {
          "internalType": "uint256",
          "name": "fee",
          "type": "uint256"
        }
      ],
      "name": "sendPacket",
      "outputs": [],
      "stateMutability": "payable",
      "type": "function"
    },
    {
      "inputs": [
        {
          "internalType": "address",
          "name": "newOwner",
          "type": "address"
        }
      ],
      "name": "transferOwnership",
      "outputs": [],
      "stateMutability": "nonpayable",
      "type": "function"
    },
    {
      "inputs": [
        {
          "components": [
            {
              "internalType": "bytes",
              "name": "consensusState",
              "type": "bytes"
            },
            {
              "internalType": "uint64",
              "name": "height",
              "type": "uint64"
            },
            {
              "internalType": "bytes",
              "name": "zkProof",
              "type": "bytes"
            }
          ],
          "internalType": "struct UpdateClientMsg",
          "name": "updateClientMsg",
          "type": "tuple"
        }
      ],
      "name": "updateClient",
      "outputs": [],
      "stateMutability": "nonpayable",
      "type": "function"
    },
    {
      "inputs": [
        {
          "components": [
            {
              "internalType": "bytes",
              "name": "clientState",
              "type": "bytes"
            },
            {
              "internalType": "bytes",
              "name": "consensusState",
              "type": "bytes"
            }
          ],
          "internalType": "struct UpgradeClientMsg",
          "name": "upgradeClientMsg",
          "type": "tuple"
        }
      ],
      "name": "upgradeClient",
      "outputs": [],
      "stateMutability": "nonpayable",
      "type": "function"
    }
  ],
  "bytecode": "0x60806040526000600260146101000a81548160ff0219169083151502179055506000600460006101000a81548167ffffffffffffffff021916908367ffffffffffffffff1602179055503480156200005657600080fd5b5060405162004bb038038062004bb083398181016040528101906200007c91906200034a565b6200009c62000090620001bb60201b60201c565b620001c360201b60201c565b81600160006101000a81548173ffffffffffffffffffffffffffffffffffffffff021916908373ffffffffffffffffffffffffffffffffffffffff16021790555080600260006101000a81548173ffffffffffffffffffffffffffffffffffffffff021916908373ffffffffffffffffffffffffffffffffffffffff160217905550600073ffffffffffffffffffffffffffffffffffffffff16600260009054906101000a900473ffffffffffffffffffffffffffffffffffffffff1673ffffffffffffffffffffffffffffffffffffffff161415620001b3576040517f08c379a0000000000000000000000000000000000000000000000000000000008152600401620001aa90620003f2565b60405180910390fd5b505062000414565b600033905090565b60008060009054906101000a900473ffffffffffffffffffffffffffffffffffffffff169050816000806101000a81548173ffffffffffffffffffffffffffffffffffffffff021916908373ffffffffffffffffffffffffffffffffffffffff1602179055508173ffffffffffffffffffffffffffffffffffffffff168173ffffffffffffffffffffffffffffffffffffffff167f8be0079c531659141344cd1fd0a4f28419497f9722a3daafe3b4186f6b6457e060405160405180910390a35050565b600080fd5b600073ffffffffffffffffffffffffffffffffffffffff82169050919050565b6000620002b9826200028c565b9050919050565b6000620002cd82620002ac565b9050919050565b620002df81620002c0565b8114620002eb57600080fd5b50565b600081519050620002ff81620002d4565b92915050565b600062000312826200028c565b9050919050565b620003248162000305565b81146200033057600080fd5b50565b600081519050620003448162000319565b92915050565b6000806040838503121562000364576200036362000287565b5b60006200037485828601620002ee565b9250506020620003878582860162000333565b9150509250929050565b600082825260208201905092915050565b7f457363726f772063616e6e6f74206265207a65726f2061646472657373000000600082015250565b6000620003da601d8362000391565b9150620003e782620003a2565b602082019050919050565b600060208201905081810360008301526200040d81620003cb565b9050919050565b61478c80620004246000396000f3fe6080604052600436106100fe5760003560e01c806367874649116100955780638da5cb5b116100645780638da5cb5b146102e4578063951538f31461030f578063b2b1bf0314610338578063c2a2514d14610378578063f2fde38b146103a3576100fe565b8063678746491461025f578063715018a6146102885780638b24b4cb1461029f5780638d3d5aa9146102c8576100fe565b80634c9778d3116100d15780634c9778d3146101bb5780634efde434146101e4578063520b128e1461020d57806364260a6014610236576100fe565b80630ad8d666146101035780631f456c1e1461012c57806342852d2414610155578063487fca7e14610192575b600080fd5b34801561010f57600080fd5b5061012a6004803603810190610125919061257c565b6103cc565b005b34801561013857600080fd5b50610153600480360381019061014e919061271d565b6104de565b005b34801561016157600080fd5b5061017c6004803603810190610177919061282b565b6105e2565b6040516101899190612ac9565b60405180910390f35b34801561019e57600080fd5b506101b960048036038101906101b49190612b0a565b610807565b005b3480156101c757600080fd5b506101e260048036038101906101dd9190612b53565b61089d565b005b3480156101f057600080fd5b5061020b60048036038101906102069190612c85565b610bcf565b005b34801561021957600080fd5b50610234600480360381019061022f9190612ced565b610c49565b005b34801561024257600080fd5b5061025d6004803603810190610258919061257c565b610fb4565b005b34801561026b57600080fd5b5061028660048036038101906102819190612dc7565b61106c565b005b34801561029457600080fd5b5061029d6111cb565b005b3480156102ab57600080fd5b506102c660048036038101906102c19190612e10565b6111df565b005b6102e260048036038101906102dd9190612f09565b611507565b005b3480156102f057600080fd5b506102f9611a13565b6040516103069190612fa0565b60405180910390f35b34801561031b57600080fd5b5061033660048036038101906103319190612fbb565b611a3c565b005b34801561034457600080fd5b5061035f600480360381019061035a919061282b565b611f04565b60405161036f9493929190613092565b60405180910390f35b34801561038457600080fd5b5061038d611fd6565b60405161039a9190613133565b60405180910390f35b3480156103af57600080fd5b506103ca60048036038101906103c59190613155565b612064565b005b6103d5816120e8565b610414576040517f08c379a000000000000000000000000000000000000000000000000000000000815260040161040b906131ce565b60405180910390fd5b81806020019061042491906131fd565b6020013582806000019061043891906131fd565b602001357f080631928e492258b6a102fc2ab3e0a8dfcb747ab0885c25f9cb7a8d4862103684806000019061046d91906131fd565b806000019061047c9190613225565b86806020019061048c91906131fd565b806000019061049b9190613225565b8880606001906104ab9190613288565b8a60400160208101906104be91906132eb565b6040516104d19796959493929190613390565b60405180910390a3505050565b60008973ffffffffffffffffffffffffffffffffffffffff1663486592198a8a8a8a8a8a8a8a6040518963ffffffff1660e01b8152600401610527989796959493929190613543565b602060405180830381600087803b15801561054157600080fd5b505af1158015610555573d6000803e3d6000fd5b505050506040513d601f19601f8201168201806040525081019061057991906135cb565b9050848a73ffffffffffffffffffffffffffffffffffffffff167f9a93c124e7f0aa93d3fbe660b1366e0483b4267619924382261498efbb92c873838b8b8b8a8a8a6040516105ce97969594939291906135f8565b60405180910390a350505050505050505050565b6105ea612260565b600560008473ffffffffffffffffffffffffffffffffffffffff1673ffffffffffffffffffffffffffffffffffffffff16815260200190815260200160002060008381526020019081526020016000206040518060a0016040529081600082015481526020016001820160009054906101000a900460ff1660018111156106745761067361287a565b5b60018111156106865761068561287a565b5b815260200160028201805480602002602001604051908101604052809291908181526020016000905b8282101561075b5783829060005260206000200180546106ce9061368c565b80601f01602080910402602001604051908101604052809291908181526020018280546106fa9061368c565b80156107475780601f1061071c57610100808354040283529160200191610747565b820191906000526020600020905b81548152906001019060200180831161072a57829003601f168201915b5050505050815260200190600101906106af565b5050505081526020016003820180546107739061368c565b80601f016020809104026020016040519081016040528092919081815260200182805461079f9061368c565b80156107ec5780601f106107c1576101008083540402835291602001916107ec565b820191906000526020600020905b8154815290600101906020018083116107cf57829003601f168201915b50505050508152602001600482015481525050905092915050565b61080f612116565b600260149054906101000a900460ff161561085f576040517f08c379a00000000000000000000000000000000000000000000000000000000081526004016108569061370a565b60405180910390fd5b6001600260146101000a81548160ff02191690831515021790555080806020019061088a9190613288565b600391906108999291906122a7565b5050565b600160009054906101000a900473ffffffffffffffffffffffffffffffffffffffff1673ffffffffffffffffffffffffffffffffffffffff16639511059d6003836040518060800160405280605e81526020016146a6605e91396040518463ffffffff1660e01b815260040161091593929190613921565b60206040518083038186803b15801561092d57600080fd5b505afa158015610941573d6000803e3d6000fd5b505050506040513d601f19601f8201168201806040525081019061096591906139b8565b6109a4576040517f08c379a000000000000000000000000000000000000000000000000000000000815260040161099b90613a31565b60405180910390fd5b8973ffffffffffffffffffffffffffffffffffffffff1663e60a72938a85856040518463ffffffff1660e01b81526004016109e193929190613a51565b600060405180830381600087803b1580156109fb57600080fd5b505af1158015610a0f573d6000803e3d6000fd5b505050506040518060a00160405280838152602001876001811115610a3757610a3661287a565b5b8152602001898990610a499190613c5c565b815260200186868080601f016020809104026020016040519081016040528093929190818152602001838380828437600081840152601f19601f82011690508083019250505050505050815260200184815250600560008c73ffffffffffffffffffffffffffffffffffffffff1673ffffffffffffffffffffffffffffffffffffffff16815260200190815260200160002060008b81526020019081526020016000206000820151816000015560208201518160010160006101000a81548160ff02191690836001811115610b2157610b2061287a565b5b02179055506040820151816002019080519060200190610b4292919061232d565b506060820151816003019080519060200190610b5f92919061238d565b506080820151816004015590505082898b73ffffffffffffffffffffffffffffffffffffffff167f57ea540ad7b8bfd2813b8637764ba029fedc52de3f812934a46511506aa11b8e88888d8d604051610bbb9493929190613c71565b60405180910390a450505050505050505050565b610bd7612116565b600260149054906101000a900460ff16610c26576040517f08c379a0000000000000000000000000000000000000000000000000000000008152600401610c1d90613cf8565b60405180910390fd5b808060200190610c369190613288565b60039190610c459291906122a7565b5050565b600160009054906101000a900473ffffffffffffffffffffffffffffffffffffffff1673ffffffffffffffffffffffffffffffffffffffff16639511059d6003836040518363ffffffff1660e01b8152600401610ca7929190613dd6565b60206040518083038186803b158015610cbf57600080fd5b505afa158015610cd3573d6000803e3d6000fd5b505050506040513d601f19601f82011682018060405250810190610cf791906139b8565b610d36576040517f08c379a0000000000000000000000000000000000000000000000000000000008152600401610d2d90613e7f565b60405180910390fd5b6000600760008673ffffffffffffffffffffffffffffffffffffffff1673ffffffffffffffffffffffffffffffffffffffff1681526020019081526020016000206000858060000190610d8991906131fd565b6020013581526020019081526020016000206000856040016020810190610db091906132eb565b67ffffffffffffffff1667ffffffffffffffff16815260200190815260200160002060009054906101000a900460ff16905080610e22576040517f08c379a0000000000000000000000000000000000000000000000000000000008152600401610e1990613eeb565b60405180910390fd5b8473ffffffffffffffffffffffffffffffffffffffff1663f45cf5e4856040518263ffffffff1660e01b8152600401610e5b9190614091565b600060405180830381600087803b158015610e7557600080fd5b505af1158015610e89573d6000803e3d6000fd5b50505050600760008673ffffffffffffffffffffffffffffffffffffffff1673ffffffffffffffffffffffffffffffffffffffff1681526020019081526020016000206000858060000190610ede91906131fd565b6020013581526020019081526020016000206000856040016020810190610f0591906132eb565b67ffffffffffffffff1667ffffffffffffffff16815260200190815260200160002060006101000a81549060ff0219169055838060000190610f4791906131fd565b602001358573ffffffffffffffffffffffffffffffffffffffff167fc4198f9e29f113c5464c20bc273a0861cf81d5fdef68c6a7cc9993d9437d1a0b85876040016020810190610f9791906132eb565b604051610fa592919061413d565b60405180910390a35050505050565b610fbd816120e8565b610ffc576040517f08c379a0000000000000000000000000000000000000000000000000000000008152600401610ff3906131ce565b60405180910390fd5b8273ffffffffffffffffffffffffffffffffffffffff1663b33c2577836040518263ffffffff1660e01b81526004016110359190614091565b600060405180830381600087803b15801561104f57600080fd5b505af1158015611063573d6000803e3d6000fd5b50505050505050565b600260149054906101000a900460ff166110bb576040517f08c379a00000000000000000000000000000000000000000000000000000000081526004016110b290613cf8565b60405180910390fd5b600160009054906101000a900473ffffffffffffffffffffffffffffffffffffffff1673ffffffffffffffffffffffffffffffffffffffff1663ab5eba266003836040518363ffffffff1660e01b81526004016111199291906141e0565b60206040518083038186803b15801561113157600080fd5b505afa158015611145573d6000803e3d6000fd5b505050506040513d601f19601f8201168201806040525081019061116991906139b8565b6111a8576040517f08c379a000000000000000000000000000000000000000000000000000000000815260040161119f90614289565b60405180910390fd5b8080600001906111b89190613288565b600391906111c79291906122a7565b5050565b6111d3612116565b6111dd6000612194565b565b6000600560003373ffffffffffffffffffffffffffffffffffffffff1673ffffffffffffffffffffffffffffffffffffffff16815260200190815260200160002060008381526020019081526020016000206040518060a0016040529081600082015481526020016001820160009054906101000a900460ff16600181111561126b5761126a61287a565b5b600181111561127d5761127c61287a565b5b815260200160028201805480602002602001604051908101604052809291908181526020016000905b828210156113525783829060005260206000200180546112c59061368c565b80601f01602080910402602001604051908101604052809291908181526020018280546112f19061368c565b801561133e5780601f106113135761010080835404028352916020019161133e565b820191906000526020600020905b81548152906001019060200180831161132157829003601f168201915b5050505050815260200190600101906112a6565b50505050815260200160038201805461136a9061368c565b80601f01602080910402602001604051908101604052809291908181526020018280546113969061368c565b80156113e35780601f106113b8576101008083540402835291602001916113e3565b820191906000526020600020905b8154815290600101906020018083116113c657829003601f168201915b5050505050815260200160048201548152505090506000801b81608001511415611442576040517f08c379a0000000000000000000000000000000000000000000000000000000008152600401611439906142f5565b60405180910390fd5b60003390508073ffffffffffffffffffffffffffffffffffffffff16635fe39e0d84846060015185608001516040518463ffffffff1660e01b815260040161148c93929190614315565b600060405180830381600087803b1580156114a657600080fd5b505af11580156114ba573d6000803e3d6000fd5b50505050823373ffffffffffffffffffffffffffffffffffffffff167fe893e4ba0e364cdc96364b1e1e0d53b0d91e5fd6aa0ee9d81a17ecd61178bf1760405160405180910390a3505050565b6000600560003373ffffffffffffffffffffffffffffffffffffffff1673ffffffffffffffffffffffffffffffffffffffff16815260200190815260200160002060008781526020019081526020016000206040518060a0016040529081600082015481526020016001820160009054906101000a900460ff1660018111156115935761159261287a565b5b60018111156115a5576115a461287a565b5b815260200160028201805480602002602001604051908101604052809291908181526020016000905b8282101561167a5783829060005260206000200180546115ed9061368c565b80601f01602080910402602001604051908101604052809291908181526020018280546116199061368c565b80156116665780601f1061163b57610100808354040283529160200191611666565b820191906000526020600020905b81548152906001019060200180831161164957829003601f168201915b5050505050815260200190600101906115ce565b5050505081526020016003820180546116929061368c565b80601f01602080910402602001604051908101604052809291908181526020018280546116be9061368c565b801561170b5780601f106116e05761010080835404028352916020019161170b565b820191906000526020600020905b8154815290600101906020018083116116ee57829003601f168201915b5050505050815260200160048201548152505090506000801b8160800151141561176a576040517f08c379a00000000000000000000000000000000000000000000000000000000081526004016117619061439f565b60405180910390fd5b6000600260009054906101000a900473ffffffffffffffffffffffffffffffffffffffff1673ffffffffffffffffffffffffffffffffffffffff16836040516117b2906143f0565b60006040518083038185875af1925050503d80600081146117ef576040519150601f19603f3d011682016040523d82523d6000602084013e6117f4565b606091505b5050905080611838576040517f08c379a000000000000000000000000000000000000000000000000000000000815260040161182f90614451565b60405180910390fd5b6000600660003373ffffffffffffffffffffffffffffffffffffffff1673ffffffffffffffffffffffffffffffffffffffff168152602001908152602001600020600089815260200190815260200160002060009054906101000a900467ffffffffffffffff1690506001816118ae91906144a0565b600660003373ffffffffffffffffffffffffffffffffffffffff1673ffffffffffffffffffffffffffffffffffffffff16815260200190815260200160002060008a815260200190815260200160002060006101000a81548167ffffffffffffffff021916908367ffffffffffffffff1602179055506001600760003373ffffffffffffffffffffffffffffffffffffffff1673ffffffffffffffffffffffffffffffffffffffff16815260200190815260200160002060008a815260200190815260200160002060008367ffffffffffffffff1667ffffffffffffffff16815260200190815260200160002060006101000a81548160ff021916908315150217905550873373ffffffffffffffffffffffffffffffffffffffff167fc55a6c1340ca55a6b61de30037455a7f9f4a5b8ff106e4eaa0c23ea886fa03608989858a8a604051611a019594939291906144ed565b60405180910390a35050505050505050565b60008060009054906101000a900473ffffffffffffffffffffffffffffffffffffffff16905090565b600160009054906101000a900473ffffffffffffffffffffffffffffffffffffffff1673ffffffffffffffffffffffffffffffffffffffff16639511059d600383604051806080016040528060538152602001614704605391396040518463ffffffff1660e01b8152600401611ab493929190613921565b60206040518083038186803b158015611acc57600080fd5b505afa158015611ae0573d6000803e3d6000fd5b505050506040513d601f19601f82011682018060405250810190611b0491906139b8565b611b43576040517f08c379a0000000000000000000000000000000000000000000000000000000008152600401611b3a90613a31565b60405180910390fd5b6000600560008573ffffffffffffffffffffffffffffffffffffffff1673ffffffffffffffffffffffffffffffffffffffff16815260200190815260200160002060008481526020019081526020016000206040518060a0016040529081600082015481526020016001820160009054906101000a900460ff166001811115611bcf57611bce61287a565b5b6001811115611be157611be061287a565b5b815260200160028201805480602002602001604051908101604052809291908181526020016000905b82821015611cb6578382906000526020600020018054611c299061368c565b80601f0160208091040260200160405190810160405280929190818152602001828054611c559061368c565b8015611ca25780601f10611c7757610100808354040283529160200191611ca2565b820191906000526020600020905b815481529060010190602001808311611c8557829003601f168201915b505050505081526020019060010190611c0a565b505050508152602001600382018054611cce9061368c565b80601f0160208091040260200160405190810160405280929190818152602001828054611cfa9061368c565b8015611d475780601f10611d1c57610100808354040283529160200191611d47565b820191906000526020600020905b815481529060010190602001808311611d2a57829003601f168201915b5050505050815260200160048201548152505090506000801b81608001511415611da6576040517f08c379a0000000000000000000000000000000000000000000000000000000008152600401611d9d90614587565b60405180910390fd5b60008490508073ffffffffffffffffffffffffffffffffffffffff16635fe39e0d85846060015185608001516040518463ffffffff1660e01b8152600401611df093929190614315565b600060405180830381600087803b158015611e0a57600080fd5b505af1158015611e1e573d6000803e3d6000fd5b50505050600560008673ffffffffffffffffffffffffffffffffffffffff1673ffffffffffffffffffffffffffffffffffffffff16815260200190815260200160002060008581526020019081526020016000206000808201600090556001820160006101000a81549060ff0219169055600282016000611e9f9190612413565b600382016000611eaf9190612434565b60048201600090555050838573ffffffffffffffffffffffffffffffffffffffff167fe893e4ba0e364cdc96364b1e1e0d53b0d91e5fd6aa0ee9d81a17ecd61178bf1760405160405180910390a35050505050565b6005602052816000526040600020602052806000526040600020600091509150508060000154908060010160009054906101000a900460ff1690806003018054611f4d9061368c565b80601f0160208091040260200160405190810160405280929190818152602001828054611f799061368c565b8015611fc65780601f10611f9b57610100808354040283529160200191611fc6565b820191906000526020600020905b815481529060010190602001808311611fa957829003601f168201915b5050505050908060040154905084565b60038054611fe39061368c565b80601f016020809104026020016040519081016040528092919081815260200182805461200f9061368c565b801561205c5780601f106120315761010080835404028352916020019161205c565b820191906000526020600020905b81548152906001019060200180831161203f57829003601f168201915b505050505081565b61206c612116565b600073ffffffffffffffffffffffffffffffffffffffff168173ffffffffffffffffffffffffffffffffffffffff1614156120dc576040517f08c379a00000000000000000000000000000000000000000000000000000000081526004016120d390614619565b60405180910390fd5b6120e581612194565b50565b6000808280602001906120fb9190613288565b9050141561210c5760009050612111565b600190505b919050565b61211e612258565b73ffffffffffffffffffffffffffffffffffffffff1661213c611a13565b73ffffffffffffffffffffffffffffffffffffffff1614612192576040517f08c379a000000000000000000000000000000000000000000000000000000000815260040161218990614685565b60405180910390fd5b565b60008060009054906101000a900473ffffffffffffffffffffffffffffffffffffffff169050816000806101000a81548173ffffffffffffffffffffffffffffffffffffffff021916908373ffffffffffffffffffffffffffffffffffffffff1602179055508173ffffffffffffffffffffffffffffffffffffffff168173ffffffffffffffffffffffffffffffffffffffff167f8be0079c531659141344cd1fd0a4f28419497f9722a3daafe3b4186f6b6457e060405160405180910390a35050565b600033905090565b6040518060a0016040528060008019168152602001600060018111156122895761228861287a565b5b81526020016060815260200160608152602001600080191681525090565b8280546122b39061368c565b90600052602060002090601f0160209004810192826122d5576000855561231c565b82601f106122ee57803560ff191683800117855561231c565b8280016001018555821561231c579182015b8281111561231b578235825591602001919060010190612300565b5b5090506123299190612474565b5090565b82805482825590600052602060002090810192821561237c579160200282015b8281111561237b57825182908051906020019061236b92919061238d565b509160200191906001019061234d565b5b5090506123899190612491565b5090565b8280546123999061368c565b90600052602060002090601f0160209004810192826123bb5760008555612402565b82601f106123d457805160ff1916838001178555612402565b82800160010185558215612402579182015b828111156124015782518255916020019190600101906123e6565b5b50905061240f9190612474565b5090565b50805460008255906000526020600020908101906124319190612491565b50565b5080546124409061368c565b6000825580601f106124525750612471565b601f0160209004906000526020600020908101906124709190612474565b5b50565b5b8082111561248d576000816000905550600101612475565b5090565b5b808211156124b157600081816124a89190612434565b50600101612492565b5090565b6000604051905090565b600080fd5b600080fd5b600073ffffffffffffffffffffffffffffffffffffffff82169050919050565b60006124f4826124c9565b9050919050565b6000612506826124e9565b9050919050565b612516816124fb565b811461252157600080fd5b50565b6000813590506125338161250d565b92915050565b600080fd5b600060c0828403121561255457612553612539565b5b81905092915050565b60006040828403121561257357612572612539565b5b81905092915050565b600080600060608486031215612595576125946124bf565b5b60006125a386828701612524565b935050602084013567ffffffffffffffff8111156125c4576125c36124c4565b5b6125d08682870161253e565b925050604084013567ffffffffffffffff8111156125f1576125f06124c4565b5b6125fd8682870161255d565b9150509250925092565b6000819050919050565b61261a81612607565b811461262557600080fd5b50565b60008135905061263781612611565b92915050565b6002811061264a57600080fd5b50565b60008135905061265c8161263d565b92915050565b600080fd5b600080fd5b600080fd5b60008083601f84011261268757612686612662565b5b8235905067ffffffffffffffff8111156126a4576126a3612667565b5b6020830191508360208202830111156126c0576126bf61266c565b5b9250929050565b60008083601f8401126126dd576126dc612662565b5b8235905067ffffffffffffffff8111156126fa576126f9612667565b5b6020830191508360018202830111156127165761271561266c565b5b9250929050565b600080600080600080600080600060e08a8c03121561273f5761273e6124bf565b5b600061274d8c828d01612524565b995050602061275e8c828d01612628565b985050604061276f8c828d0161264d565b97505060608a013567ffffffffffffffff8111156127905761278f6124c4565b5b61279c8c828d01612671565b965096505060806127af8c828d01612628565b94505060a08a013567ffffffffffffffff8111156127d0576127cf6124c4565b5b6127dc8c828d016126c7565b935093505060c06127ef8c828d01612628565b9150509295985092959850929598565b612808816124e9565b811461281357600080fd5b50565b600081359050612825816127ff565b92915050565b60008060408385031215612842576128416124bf565b5b600061285085828601612816565b925050602061286185828601612628565b9150509250929050565b61287481612607565b82525050565b7f4e487b7100000000000000000000000000000000000000000000000000000000600052602160045260246000fd5b600281106128ba576128b961287a565b5b50565b60008190506128cb826128a9565b919050565b60006128db826128bd565b9050919050565b6128eb816128d0565b82525050565b600081519050919050565b600082825260208201905092915050565b6000819050602082019050919050565b600081519050919050565b600082825260208201905092915050565b60005b8381101561295757808201518184015260208101905061293c565b83811115612966576000848401525b50505050565b6000601f19601f8301169050919050565b60006129888261291d565b6129928185612928565b93506129a2818560208601612939565b6129ab8161296c565b840191505092915050565b60006129c2838361297d565b905092915050565b6000602082019050919050565b60006129e2826128f1565b6129ec81856128fc565b9350836020820285016129fe8561290d565b8060005b85811015612a3a5784840389528151612a1b85826129b6565b9450612a26836129ca565b925060208a01995050600181019050612a02565b50829750879550505050505092915050565b600060a083016000830151612a64600086018261286b565b506020830151612a7760208601826128e2565b5060408301518482036040860152612a8f82826129d7565b91505060608301518482036060860152612aa9828261297d565b9150506080830151612abe608086018261286b565b508091505092915050565b60006020820190508181036000830152612ae38184612a4c565b905092915050565b600060408284031215612b0157612b00612539565b5b81905092915050565b600060208284031215612b2057612b1f6124bf565b5b600082013567ffffffffffffffff811115612b3e57612b3d6124c4565b5b612b4a84828501612aeb565b91505092915050565b6000806000806000806000806000806101008b8d031215612b7757612b766124bf565b5b6000612b858d828e01612524565b9a50506020612b968d828e01612628565b99505060408b013567ffffffffffffffff811115612bb757612bb66124c4565b5b612bc38d828e01612671565b98509850506060612bd68d828e0161264d565b96505060808b013567ffffffffffffffff811115612bf757612bf66124c4565b5b612c038d828e016126c7565b955095505060a0612c168d828e01612628565b93505060c0612c278d828e01612628565b92505060e08b013567ffffffffffffffff811115612c4857612c476124c4565b5b612c548d828e0161255d565b9150509295989b9194979a5092959850565b600060408284031215612c7c57612c7b612539565b5b81905092915050565b600060208284031215612c9b57612c9a6124bf565b5b600082013567ffffffffffffffff811115612cb957612cb86124c4565b5b612cc584828501612c66565b91505092915050565b600060408284031215612ce457612ce3612539565b5b81905092915050565b60008060008060808587031215612d0757612d066124bf565b5b6000612d1587828801612524565b945050602085013567ffffffffffffffff811115612d3657612d356124c4565b5b612d428782880161253e565b935050604085013567ffffffffffffffff811115612d6357612d626124c4565b5b612d6f87828801612cce565b925050606085013567ffffffffffffffff811115612d9057612d8f6124c4565b5b612d9c8782880161255d565b91505092959194509250565b600060608284031215612dbe57612dbd612539565b5b81905092915050565b600060208284031215612ddd57612ddc6124bf565b5b600082013567ffffffffffffffff811115612dfb57612dfa6124c4565b5b612e0784828501612da8565b91505092915050565b600060208284031215612e2657612e256124bf565b5b6000612e3484828501612628565b91505092915050565b60008083601f840112612e5357612e52612662565b5b8235905067ffffffffffffffff811115612e7057612e6f612667565b5b602083019150836001820283011115612e8c57612e8b61266c565b5b9250929050565b600067ffffffffffffffff82169050919050565b612eb081612e93565b8114612ebb57600080fd5b50565b600081359050612ecd81612ea7565b92915050565b6000819050919050565b612ee681612ed3565b8114612ef157600080fd5b50565b600081359050612f0381612edd565b92915050565b600080600080600060808688031215612f2557612f246124bf565b5b6000612f3388828901612628565b955050602086013567ffffffffffffffff811115612f5457612f536124c4565b5b612f6088828901612e3d565b94509450506040612f7388828901612ebe565b9250506060612f8488828901612ef4565b9150509295509295909350565b612f9a816124e9565b82525050565b6000602082019050612fb56000830184612f91565b92915050565b600080600060608486031215612fd457612fd36124bf565b5b6000612fe286828701612816565b9350506020612ff386828701612628565b925050604084013567ffffffffffffffff811115613014576130136124c4565b5b6130208682870161255d565b9150509250925092565b61303381612607565b82525050565b613042816128d0565b82525050565b600082825260208201905092915050565b60006130648261291d565b61306e8185613048565b935061307e818560208601612939565b6130878161296c565b840191505092915050565b60006080820190506130a7600083018761302a565b6130b46020830186613039565b81810360408301526130c68185613059565b90506130d5606083018461302a565b95945050505050565b600081519050919050565b600082825260208201905092915050565b6000613105826130de565b61310f81856130e9565b935061311f818560208601612939565b6131288161296c565b840191505092915050565b6000602082019050818103600083015261314d81846130fa565b905092915050565b60006020828403121561316b5761316a6124bf565b5b600061317984828501612816565b91505092915050565b7f50726f6f6620766572696669636174696f6e206661696c656400000000000000600082015250565b60006131b8601983613048565b91506131c382613182565b602082019050919050565b600060208201905081810360008301526131e7816131ab565b9050919050565b600080fd5b600080fd5b600080fd5b600082356001604003833603038112613219576132186131ee565b5b80830191505092915050565b60008083356001602003843603038112613242576132416131ee565b5b80840192508235915067ffffffffffffffff821115613264576132636131f3565b5b6020830192506001820236038313156132805761327f6131f8565b5b509250929050565b600080833560016020038436030381126132a5576132a46131ee565b5b80840192508235915067ffffffffffffffff8211156132c7576132c66131f3565b5b6020830192506001820236038313156132e3576132e26131f8565b5b509250929050565b600060208284031215613301576133006124bf565b5b600061330f84828501612ebe565b91505092915050565b82818337600083830152505050565b60006133338385613048565b9350613340838584613318565b6133498361296c565b840190509392505050565b600061336083856130e9565b935061336d838584613318565b6133768361296c565b840190509392505050565b61338a81612e93565b82525050565b600060808201905081810360008301526133ab81898b613327565b905081810360208301526133c0818789613327565b905081810360408301526133d5818587613354565b90506133e46060830184613381565b98975050505050505050565b600082825260208201905092915050565b6000819050919050565b60006134178385612928565b9350613424838584613318565b61342d8361296c565b840190509392505050565b600061344584848461340b565b90509392505050565b600080fd5b600080fd5b600080fd5b6000808335600160200384360303811261347a57613479613458565b5b83810192508235915060208301925067ffffffffffffffff8211156134a2576134a161344e565b5b6001820236038413156134b8576134b7613453565b5b509250929050565b6000602082019050919050565b60006134d983856133f0565b9350836020840285016134eb84613401565b8060005b87811015613531578484038952613506828461345d565b613511868284613438565b955061351c846134c0565b935060208b019a5050506001810190506134ef565b50829750879450505050509392505050565b600060c082019050613558600083018b61302a565b613565602083018a613039565b818103604083015261357881888a6134cd565b9050613587606083018761302a565b818103608083015261359a818587613327565b90506135a960a083018461302a565b9998505050505050505050565b6000815190506135c581612611565b92915050565b6000602082840312156135e1576135e06124bf565b5b60006135ef848285016135b6565b91505092915050565b600060a08201905061360d600083018a61302a565b61361a6020830189613039565b818103604083015261362d8187896134cd565b90508181036060830152613642818587613327565b9050613651608083018461302a565b98975050505050505050565b7f4e487b7100000000000000000000000000000000000000000000000000000000600052602260045260246000fd5b600060028204905060018216806136a457607f821691505b602082108114156136b8576136b761365d565b5b50919050565b7f436c69656e7420616c7265616479206372656174656400000000000000000000600082015250565b60006136f4601683613048565b91506136ff826136be565b602082019050919050565b60006020820190508181036000830152613723816136e7565b9050919050565b60008190508160005260206000209050919050565b6000815461374c8161368c565b61375681866130e9565b945060018216600081146137715760018114613783576137b6565b60ff19831686526020860193506137b6565b61378c8561372a565b60005b838110156137ae5781548189015260018201915060208101905061378f565b808801955050505b50505092915050565b60006137ce6020840184612ebe565b905092915050565b6137df81612e93565b82525050565b6000808335600160200384360303811261380257613801613458565b5b83810192508235915060208301925067ffffffffffffffff82111561382a5761382961344e565b5b6001820236038413156138405761383f613453565b5b509250929050565b600082825260208201905092915050565b60006138658385613848565b9350613872838584613318565b61387b8361296c565b840190509392505050565b60006040830161389960008401846137bf565b6138a660008601826137d6565b506138b460208401846137e5565b85830360208701526138c7838284613859565b925050508091505092915050565b7f6368616e6e656c2f706174682f746f2f62652f61646465642f68657265000000600082015250565b600061390b601d836130e9565b9150613916826138d5565b602082019050919050565b6000608082019050818103600083015261393b818661373f565b9050818103602083015261394f8185613886565b90508181036040830152613962816138fe565b9050818103606083015261397681846130fa565b9050949350505050565b60008115159050919050565b61399581613980565b81146139a057600080fd5b50565b6000815190506139b28161398c565b92915050565b6000602082840312156139ce576139cd6124bf565b5b60006139dc848285016139a3565b91505092915050565b7f4661696c20746f2070726f7665206368616e6e656c2073746174650000000000600082015250565b6000613a1b601b83613048565b9150613a26826139e5565b602082019050919050565b60006020820190508181036000830152613a4a81613a0e565b9050919050565b6000606082019050613a66600083018661302a565b613a73602083018561302a565b613a80604083018461302a565b949350505050565b7f4e487b7100000000000000000000000000000000000000000000000000000000600052604160045260246000fd5b613ac08261296c565b810181811067ffffffffffffffff82111715613adf57613ade613a88565b5b80604052505050565b6000613af26124b5565b9050613afe8282613ab7565b919050565b600067ffffffffffffffff821115613b1e57613b1d613a88565b5b602082029050602081019050919050565b600080fd5b600067ffffffffffffffff821115613b4f57613b4e613a88565b5b613b588261296c565b9050602081019050919050565b6000613b78613b7384613b34565b613ae8565b905082815260208101848484011115613b9457613b93613b2f565b5b613b9f848285613318565b509392505050565b600082601f830112613bbc57613bbb612662565b5b8135613bcc848260208601613b65565b91505092915050565b6000613be8613be384613b03565b613ae8565b90508083825260208201905060208402830185811115613c0b57613c0a61266c565b5b835b81811015613c5257803567ffffffffffffffff811115613c3057613c2f612662565b5b808601613c3d8982613ba7565b85526020850194505050602081019050613c0d565b5050509392505050565b6000613c69368484613bd5565b905092915050565b60006040820190508181036000830152613c8c818688613327565b90508181036020830152613ca18184866134cd565b905095945050505050565b7f436c69656e74206e6f7420637265617465640000000000000000000000000000600082015250565b6000613ce2601283613048565b9150613ced82613cac565b602082019050919050565b60006020820190508181036000830152613d1181613cd5565b9050919050565b7f61636b2f706174682f746f2f62652f61646465642f6865726500000000000000600082015250565b6000613d4e6019836130e9565b9150613d5982613d18565b602082019050919050565b7f65787065637465642061636b20726563656970742068617368206f6e20506f6c60008201527f796d657220636861696e00000000000000000000000000000000000000000000602082015250565b6000613dc0602a836130e9565b9150613dcb82613d64565b604082019050919050565b60006080820190508181036000830152613df0818561373f565b90508181036020830152613e048184613886565b90508181036040830152613e1781613d41565b90508181036060830152613e2a81613db3565b90509392505050565b7f4661696c20746f2070726f76652061636b000000000000000000000000000000600082015250565b6000613e69601183613048565b9150613e7482613e33565b602082019050919050565b60006020820190508181036000830152613e9881613e5c565b9050919050565b7f5061636b657420636f6d6d69746d656e74206e6f7420666f756e640000000000600082015250565b6000613ed5601b83613048565b9150613ee082613e9f565b602082019050919050565b60006020820190508181036000830152613f0481613ec8565b9050919050565b600082356001604003833603038112613f2757613f26613458565b5b82810191505092915050565b6000613f426020840184612628565b905092915050565b600060408301613f5d600084018461345d565b8583036000870152613f7083828461340b565b92505050613f816020840184613f33565b613f8e602086018261286b565b508091505092915050565b600082905092915050565b60408201613fb560008301836137bf565b613fc260008501826137d6565b50613fd060208301836137bf565b613fdd60208501826137d6565b50505050565b600060c08301613ff66000840184613f0b565b84820360008601526140088282613f4a565b9150506140186020840184613f0b565b848203602086015261402a8282613f4a565b91505061403a60408401846137bf565b61404760408601826137d6565b5061405560608401846137e5565b8583036060870152614068838284613859565b925050506140796080840184613f99565b6140866080860182613fa4565b508091505092915050565b600060208201905081810360008301526140ab8184613fe3565b905092915050565b6000813590506140c28161398c565b92915050565b60006140d760208401846140b3565b905092915050565b6140e881613980565b82525050565b60006040830161410160008401846140c8565b61410e60008601826140df565b5061411c60208401846137e5565b858303602087015261412f838284613859565b925050508091505092915050565b6000604082019050818103600083015261415781856140ee565b90506141666020830184613381565b9392505050565b60006060830161418060008401846137e5565b8583036000870152614193838284613859565b925050506141a460208401846137bf565b6141b160208601826137d6565b506141bf60408401846137e5565b85830360408701526141d2838284613859565b925050508091505092915050565b600060408201905081810360008301526141fa818561373f565b9050818103602083015261420e818461416d565b90509392505050565b7f557064617465436c69656e744d73672070726f6f66207665726966696361746960008201527f6f6e206661696c65640000000000000000000000000000000000000000000000602082015250565b6000614273602983613048565b915061427e82614217565b604082019050919050565b600060208201905081810360008301526142a281614266565b9050919050565b7f4368616e6e656c206e6f74206f776e6564206279206d73672e73656e64657200600082015250565b60006142df601f83613048565b91506142ea826142a9565b602082019050919050565b6000602082019050818103600083015261430e816142d2565b9050919050565b600060608201905061432a600083018661302a565b818103602083015261433c8185613059565b905061434b604083018461302a565b949350505050565b7f4368616e6e656c206e6f74206f776e65642062792073656e6465720000000000600082015250565b6000614389601b83613048565b915061439482614353565b602082019050919050565b600060208201905081810360008301526143b88161437c565b9050919050565b600081905092915050565b50565b60006143da6000836143bf565b91506143e5826143ca565b600082019050919050565b60006143fb826143cd565b9150819050919050565b7f4661696c656420746f20657363726f77207061636b6574206665650000000000600082015250565b600061443b601b83613048565b915061444682614405565b602082019050919050565b6000602082019050818103600083015261446a8161442e565b9050919050565b7f4e487b7100000000000000000000000000000000000000000000000000000000600052601160045260246000fd5b60006144ab82612e93565b91506144b683612e93565b92508267ffffffffffffffff038211156144d3576144d2614471565b5b828201905092915050565b6144e781612ed3565b82525050565b60006080820190508181036000830152614508818789613354565b90506145176020830186613381565b6145246040830185613381565b61453160608301846144de565b9695505050505050565b7f4368616e6e656c206e6f74206f776e656420627920706f727441646472657373600082015250565b6000614571602083613048565b915061457c8261453b565b602082019050919050565b600060208201905081810360008301526145a081614564565b9050919050565b7f4f776e61626c653a206e6577206f776e657220697320746865207a65726f206160008201527f6464726573730000000000000000000000000000000000000000000000000000602082015250565b6000614603602683613048565b915061460e826145a7565b604082019050919050565b60006020820190508181036000830152614632816145f6565b9050919050565b7f4f776e61626c653a2063616c6c6572206973206e6f7420746865206f776e6572600082015250565b600061466f602083613048565b915061467a82614639565b602082019050919050565b6000602082019050818103600083015261469e81614662565b905091905056fe6578706563746564206368616e6e656c20627974657320636f6e73747275637465642066726f6d20706172616d732e204368616e6e656c2e5374617465203d207b41636b5f50656e64696e672c20436f6e6669726d5f50656e64696e677d6578706563746564206368616e6e656c20627974657320636f6e73747275637465642066726f6d20706172616d732e204368616e6e656c2e5374617465203d207b436c6f736564285f50656e64696e673f297da26469706673582212209fb363f8717f38c40658e1d3c837f02abf4db00f607bb6023fa311ff44343a6664736f6c63430008090033",
  "linkReferences": {},
  "deployedLinkReferences": {}
}