{
  "_format": "hh-sol-artifact-1",
  "contractName": "Dispatcher",
  "sourceName": "contracts/Dispatcher.sol",
  "abi": [
    {
      "inputs": [
        {
          "internalType": "contract ZKMintVerifier",
          "name": "_verifier",
          "type": "address"
        },
        {
          "internalType": "address payable",
          "name": "_escrow",
          "type": "address"
        }
      ],
      "stateMutability": "nonpayable",
      "type": "constructor"
    },
    {
      "anonymous": false,
      "inputs": [
        {
          "indexed": true,
          "internalType": "address",
          "name": "portAddress",
          "type": "address"
        },
        {
          "indexed": true,
          "internalType": "bytes32",
          "name": "channelId",
          "type": "bytes32"
        }
      ],
      "name": "CloseIbcChannel",
      "type": "event"
    },
    {
      "anonymous": false,
      "inputs": [
        {
          "indexed": true,
          "internalType": "address",
          "name": "portAddress",
          "type": "address"
        },
        {
          "indexed": true,
          "internalType": "bytes32",
          "name": "channelId",
          "type": "bytes32"
        },
        {
          "indexed": false,
          "internalType": "string",
          "name": "counterpartyPortId",
          "type": "string"
        },
        {
          "indexed": true,
          "internalType": "bytes32",
          "name": "counterpartyChannelId",
          "type": "bytes32"
        },
        {
          "indexed": false,
          "internalType": "string[]",
          "name": "connectionHops",
          "type": "string[]"
        }
      ],
      "name": "ConnectIbcChannel",
      "type": "event"
    },
    {
      "anonymous": false,
      "inputs": [
        {
          "indexed": true,
          "internalType": "bytes32",
          "name": "srcChannelId",
          "type": "bytes32"
        },
        {
          "indexed": false,
          "internalType": "string",
          "name": "srcPortId",
          "type": "string"
        },
        {
          "indexed": true,
          "internalType": "bytes32",
          "name": "destChannelId",
          "type": "bytes32"
        },
        {
          "indexed": false,
          "internalType": "string",
          "name": "destPortId",
          "type": "string"
        },
        {
          "indexed": false,
          "internalType": "bytes",
          "name": "data",
          "type": "bytes"
        },
        {
          "indexed": false,
          "internalType": "uint64",
          "name": "sequence",
          "type": "uint64"
        }
      ],
      "name": "OnRecvPacket",
      "type": "event"
    },
    {
      "anonymous": false,
      "inputs": [
        {
          "indexed": true,
          "internalType": "address",
          "name": "portAddress",
          "type": "address"
        },
        {
          "indexed": true,
          "internalType": "bytes32",
          "name": "counterpartyChannelId",
          "type": "bytes32"
        },
        {
          "indexed": false,
          "internalType": "bytes32",
          "name": "version",
          "type": "bytes32"
        },
        {
          "indexed": false,
          "internalType": "enum ChannelOrder",
          "name": "ordering",
          "type": "uint8"
        },
        {
          "indexed": false,
          "internalType": "string[]",
          "name": "connectionHops",
          "type": "string[]"
        },
        {
          "indexed": false,
          "internalType": "string",
          "name": "counterpartyPortId",
          "type": "string"
        },
        {
          "indexed": false,
          "internalType": "bytes32",
          "name": "counterpartyVersion",
          "type": "bytes32"
        }
      ],
      "name": "OpenIbcChannel",
      "type": "event"
    },
    {
      "anonymous": false,
      "inputs": [
        {
          "indexed": true,
          "internalType": "address",
          "name": "previousOwner",
          "type": "address"
        },
        {
          "indexed": true,
          "internalType": "address",
          "name": "newOwner",
          "type": "address"
        }
      ],
      "name": "OwnershipTransferred",
      "type": "event"
    },
    {
      "anonymous": false,
      "inputs": [
        {
          "indexed": true,
          "internalType": "address",
          "name": "portId",
          "type": "address"
        },
        {
          "indexed": true,
          "internalType": "bytes32",
          "name": "channelId",
          "type": "bytes32"
        },
        {
          "indexed": false,
          "internalType": "bytes",
          "name": "packet",
          "type": "bytes"
        },
        {
          "indexed": false,
          "internalType": "uint64",
          "name": "timeoutTimestamp",
          "type": "uint64"
        },
        {
          "indexed": false,
          "internalType": "uint256",
          "name": "fee",
          "type": "uint256"
        }
      ],
      "name": "SendPacket",
      "type": "event"
    },
    {
      "inputs": [
        {
          "internalType": "bytes32",
          "name": "channelId",
          "type": "bytes32"
        }
      ],
      "name": "closeIbcChannel",
      "outputs": [],
      "stateMutability": "nonpayable",
      "type": "function"
    },
    {
      "inputs": [
        {
          "internalType": "contract IbcReceiver",
          "name": "portAddress",
          "type": "address"
        },
        {
          "internalType": "bytes32",
          "name": "channelId",
          "type": "bytes32"
        },
        {
          "internalType": "string[]",
          "name": "connectionHops",
          "type": "string[]"
        },
        {
          "internalType": "enum ChannelOrder",
          "name": "ordering",
          "type": "uint8"
        },
        {
          "internalType": "string",
          "name": "counterpartyPortId",
          "type": "string"
        },
        {
          "internalType": "bytes32",
          "name": "counterpartyChannelId",
          "type": "bytes32"
        },
        {
          "internalType": "bytes32",
          "name": "counterpartyVersion",
          "type": "bytes32"
        },
        {
          "components": [
            {
              "internalType": "uint64",
              "name": "proofHeight",
              "type": "uint64"
            },
            {
              "internalType": "bytes",
              "name": "proof",
              "type": "bytes"
            }
          ],
          "internalType": "struct Proof",
          "name": "proof",
          "type": "tuple"
        }
      ],
      "name": "connectIbcChannel",
      "outputs": [],
      "stateMutability": "nonpayable",
      "type": "function"
    },
    {
      "inputs": [
        {
          "internalType": "bytes",
          "name": "clientState",
          "type": "bytes"
        },
        {
          "internalType": "bytes",
          "name": "consensusState",
          "type": "bytes"
        }
      ],
      "name": "createClient",
      "outputs": [],
      "stateMutability": "nonpayable",
      "type": "function"
    },
    {
      "inputs": [
        {
          "internalType": "address",
          "name": "portAddress",
          "type": "address"
        },
        {
          "internalType": "bytes32",
          "name": "channelId",
          "type": "bytes32"
        }
      ],
      "name": "getChannel",
      "outputs": [
        {
          "components": [
            {
              "internalType": "bytes32",
              "name": "version",
              "type": "bytes32"
            },
            {
              "internalType": "enum ChannelOrder",
              "name": "ordering",
              "type": "uint8"
            },
            {
              "internalType": "string[]",
              "name": "connectionHops",
              "type": "string[]"
            },
            {
              "internalType": "string",
              "name": "counterpartyPortId",
              "type": "string"
            },
            {
              "internalType": "bytes32",
              "name": "counterpartyChannelId",
              "type": "bytes32"
            }
          ],
          "internalType": "struct Channel",
          "name": "",
          "type": "tuple"
        }
      ],
      "stateMutability": "view",
      "type": "function"
    },
    {
      "inputs": [],
      "name": "latestConsensusState",
      "outputs": [
        {
          "internalType": "bytes",
          "name": "",
          "type": "bytes"
        }
      ],
      "stateMutability": "view",
      "type": "function"
    },
    {
      "inputs": [
        {
          "internalType": "contract IbcReceiver",
          "name": "receiver",
          "type": "address"
        },
        {
          "components": [
            {
              "components": [
                {
                  "internalType": "string",
                  "name": "portId",
                  "type": "string"
                },
                {
                  "internalType": "bytes32",
                  "name": "channelId",
                  "type": "bytes32"
                }
              ],
              "internalType": "struct IbcEndpoint",
              "name": "src",
              "type": "tuple"
            },
            {
              "components": [
                {
                  "internalType": "string",
                  "name": "portId",
                  "type": "string"
                },
                {
                  "internalType": "bytes32",
                  "name": "channelId",
                  "type": "bytes32"
                }
              ],
              "internalType": "struct IbcEndpoint",
              "name": "dest",
              "type": "tuple"
            },
            {
              "internalType": "uint64",
              "name": "sequence",
              "type": "uint64"
            },
            {
              "internalType": "bytes",
              "name": "data",
              "type": "bytes"
            },
            {
              "components": [
                {
                  "internalType": "uint64",
                  "name": "block",
                  "type": "uint64"
                },
                {
                  "internalType": "uint64",
                  "name": "timestamp",
                  "type": "uint64"
                }
              ],
              "internalType": "struct IbcTimeout",
              "name": "timeout",
              "type": "tuple"
            }
          ],
          "internalType": "struct IbcPacket",
          "name": "packet",
          "type": "tuple"
        },
        {
          "internalType": "bytes",
          "name": "acknowledgement",
          "type": "bytes"
        },
        {
          "components": [
            {
              "internalType": "uint64",
              "name": "proofHeight",
              "type": "uint64"
            },
            {
              "internalType": "bytes",
              "name": "proof",
              "type": "bytes"
            }
          ],
          "internalType": "struct Proof",
          "name": "proof",
          "type": "tuple"
        }
      ],
      "name": "onAcknowledgementPacket",
      "outputs": [],
      "stateMutability": "nonpayable",
      "type": "function"
    },
    {
      "inputs": [
        {
          "internalType": "address",
          "name": "portAddress",
          "type": "address"
        },
        {
          "internalType": "bytes32",
          "name": "channelId",
          "type": "bytes32"
        },
        {
          "components": [
            {
              "internalType": "uint64",
              "name": "proofHeight",
              "type": "uint64"
            },
            {
              "internalType": "bytes",
              "name": "proof",
              "type": "bytes"
            }
          ],
          "internalType": "struct Proof",
          "name": "proof",
          "type": "tuple"
        }
      ],
      "name": "onCloseIbcChannel",
      "outputs": [],
      "stateMutability": "nonpayable",
      "type": "function"
    },
    {
      "inputs": [
        {
          "internalType": "contract IbcReceiver",
          "name": "receiver",
          "type": "address"
        },
        {
          "components": [
            {
              "components": [
                {
                  "internalType": "string",
                  "name": "portId",
                  "type": "string"
                },
                {
                  "internalType": "bytes32",
                  "name": "channelId",
                  "type": "bytes32"
                }
              ],
              "internalType": "struct IbcEndpoint",
              "name": "src",
              "type": "tuple"
            },
            {
              "components": [
                {
                  "internalType": "string",
                  "name": "portId",
                  "type": "string"
                },
                {
                  "internalType": "bytes32",
                  "name": "channelId",
                  "type": "bytes32"
                }
              ],
              "internalType": "struct IbcEndpoint",
              "name": "dest",
              "type": "tuple"
            },
            {
              "internalType": "uint64",
              "name": "sequence",
              "type": "uint64"
            },
            {
              "internalType": "bytes",
              "name": "data",
              "type": "bytes"
            },
            {
              "components": [
                {
                  "internalType": "uint64",
                  "name": "block",
                  "type": "uint64"
                },
                {
                  "internalType": "uint64",
                  "name": "timestamp",
                  "type": "uint64"
                }
              ],
              "internalType": "struct IbcTimeout",
              "name": "timeout",
              "type": "tuple"
            }
          ],
          "internalType": "struct IbcPacket",
          "name": "packet",
          "type": "tuple"
        },
        {
          "components": [
            {
              "internalType": "uint64",
              "name": "proofHeight",
              "type": "uint64"
            },
            {
              "internalType": "bytes",
              "name": "proof",
              "type": "bytes"
            }
          ],
          "internalType": "struct Proof",
          "name": "proof",
          "type": "tuple"
        }
      ],
      "name": "onRecvPacket",
      "outputs": [],
      "stateMutability": "nonpayable",
      "type": "function"
    },
    {
      "inputs": [
        {
          "internalType": "contract IbcReceiver",
          "name": "receiver",
          "type": "address"
        },
        {
          "components": [
            {
              "components": [
                {
                  "internalType": "string",
                  "name": "portId",
                  "type": "string"
                },
                {
                  "internalType": "bytes32",
                  "name": "channelId",
                  "type": "bytes32"
                }
              ],
              "internalType": "struct IbcEndpoint",
              "name": "src",
              "type": "tuple"
            },
            {
              "components": [
                {
                  "internalType": "string",
                  "name": "portId",
                  "type": "string"
                },
                {
                  "internalType": "bytes32",
                  "name": "channelId",
                  "type": "bytes32"
                }
              ],
              "internalType": "struct IbcEndpoint",
              "name": "dest",
              "type": "tuple"
            },
            {
              "internalType": "uint64",
              "name": "sequence",
              "type": "uint64"
            },
            {
              "internalType": "bytes",
              "name": "data",
              "type": "bytes"
            },
            {
              "components": [
                {
                  "internalType": "uint64",
                  "name": "block",
                  "type": "uint64"
                },
                {
                  "internalType": "uint64",
                  "name": "timestamp",
                  "type": "uint64"
                }
              ],
              "internalType": "struct IbcTimeout",
              "name": "timeout",
              "type": "tuple"
            }
          ],
          "internalType": "struct IbcPacket",
          "name": "packet",
          "type": "tuple"
        },
        {
          "components": [
            {
              "internalType": "uint64",
              "name": "proofHeight",
              "type": "uint64"
            },
            {
              "internalType": "bytes",
              "name": "proof",
              "type": "bytes"
            }
          ],
          "internalType": "struct Proof",
          "name": "proof",
          "type": "tuple"
        }
      ],
      "name": "onTimeoutPacket",
      "outputs": [],
      "stateMutability": "nonpayable",
      "type": "function"
    },
    {
      "inputs": [
        {
          "internalType": "contract IbcReceiver",
          "name": "portAddress",
          "type": "address"
        },
        {
          "internalType": "bytes32",
          "name": "version",
          "type": "bytes32"
        },
        {
          "internalType": "enum ChannelOrder",
          "name": "ordering",
          "type": "uint8"
        },
        {
          "internalType": "string[]",
          "name": "connectionHops",
          "type": "string[]"
        },
        {
          "internalType": "bytes32",
          "name": "counterpartyChannelId",
          "type": "bytes32"
        },
        {
          "internalType": "string",
          "name": "counterpartyPortId",
          "type": "string"
        },
        {
          "internalType": "bytes32",
          "name": "counterpartyVersion",
          "type": "bytes32"
        }
      ],
      "name": "openIbcChannel",
      "outputs": [],
      "stateMutability": "nonpayable",
      "type": "function"
    },
    {
      "inputs": [],
      "name": "owner",
      "outputs": [
        {
          "internalType": "address",
          "name": "",
          "type": "address"
        }
      ],
      "stateMutability": "view",
      "type": "function"
    },
    {
      "inputs": [
        {
          "internalType": "address",
          "name": "",
          "type": "address"
        },
        {
          "internalType": "bytes32",
          "name": "",
          "type": "bytes32"
        }
      ],
      "name": "portChannelMap",
      "outputs": [
        {
          "internalType": "bytes32",
          "name": "version",
          "type": "bytes32"
        },
        {
          "internalType": "enum ChannelOrder",
          "name": "ordering",
          "type": "uint8"
        },
        {
          "internalType": "string",
          "name": "counterpartyPortId",
          "type": "string"
        },
        {
          "internalType": "bytes32",
          "name": "counterpartyChannelId",
          "type": "bytes32"
        }
      ],
      "stateMutability": "view",
      "type": "function"
    },
    {
      "inputs": [],
      "name": "renounceOwnership",
      "outputs": [],
      "stateMutability": "nonpayable",
      "type": "function"
    },
    {
      "inputs": [
        {
          "internalType": "bytes32",
          "name": "channelId",
          "type": "bytes32"
        },
        {
          "internalType": "bytes",
          "name": "packet",
          "type": "bytes"
        },
        {
          "internalType": "uint64",
          "name": "timeoutTimestamp",
          "type": "uint64"
        },
        {
          "internalType": "uint256",
          "name": "fee",
          "type": "uint256"
        }
      ],
      "name": "sendPacket",
      "outputs": [],
      "stateMutability": "payable",
      "type": "function"
    },
    {
      "inputs": [
        {
          "internalType": "address",
          "name": "newOwner",
          "type": "address"
        }
      ],
      "name": "transferOwnership",
      "outputs": [],
      "stateMutability": "nonpayable",
      "type": "function"
    },
    {
      "inputs": [
        {
          "internalType": "bytes",
          "name": "consensusState",
          "type": "bytes"
        }
      ],
      "name": "updateClient",
      "outputs": [],
      "stateMutability": "nonpayable",
      "type": "function"
    }
  ],
  "bytecode": "0x60806040526000600260146101000a81548160ff0219169083151502179055506000600460006101000a81548167ffffffffffffffff021916908367ffffffffffffffff1602179055503480156200005657600080fd5b50604051620042a1380380620042a183398181016040528101906200007c91906200034a565b6200009c62000090620001bb60201b60201c565b620001c360201b60201c565b81600160006101000a81548173ffffffffffffffffffffffffffffffffffffffff021916908373ffffffffffffffffffffffffffffffffffffffff16021790555080600260006101000a81548173ffffffffffffffffffffffffffffffffffffffff021916908373ffffffffffffffffffffffffffffffffffffffff160217905550600073ffffffffffffffffffffffffffffffffffffffff16600260009054906101000a900473ffffffffffffffffffffffffffffffffffffffff1673ffffffffffffffffffffffffffffffffffffffff161415620001b3576040517f08c379a0000000000000000000000000000000000000000000000000000000008152600401620001aa90620003f2565b60405180910390fd5b505062000414565b600033905090565b60008060009054906101000a900473ffffffffffffffffffffffffffffffffffffffff169050816000806101000a81548173ffffffffffffffffffffffffffffffffffffffff021916908373ffffffffffffffffffffffffffffffffffffffff1602179055508173ffffffffffffffffffffffffffffffffffffffff168173ffffffffffffffffffffffffffffffffffffffff167f8be0079c531659141344cd1fd0a4f28419497f9722a3daafe3b4186f6b6457e060405160405180910390a35050565b600080fd5b600073ffffffffffffffffffffffffffffffffffffffff82169050919050565b6000620002b9826200028c565b9050919050565b6000620002cd82620002ac565b9050919050565b620002df81620002c0565b8114620002eb57600080fd5b50565b600081519050620002ff81620002d4565b92915050565b600062000312826200028c565b9050919050565b620003248162000305565b81146200033057600080fd5b50565b600081519050620003448162000319565b92915050565b6000806040838503121562000364576200036362000287565b5b60006200037485828601620002ee565b9250506020620003878582860162000333565b9150509250929050565b600082825260208201905092915050565b7f457363726f772063616e6e6f74206265207a65726f2061646472657373000000600082015250565b6000620003da601d8362000391565b9150620003e782620003a2565b602082019050919050565b600060208201905081810360008301526200040d81620003cb565b9050919050565b613e7d80620004246000396000f3fe6080604052600436106100f35760003560e01c80638b24b4cb1161008a578063b2b1bf0311610059578063b2b1bf03146102db578063c2a2514d1461031b578063d2e9aa5614610346578063f2fde38b1461036f576100f3565b80638b24b4cb146102425780638d3d5aa91461026b5780638da5cb5b14610287578063951538f3146102b2576100f3565b806342852d24116100c657806342852d241461019c5780634c9778d3146101d957806364260a6014610202578063715018a61461022b576100f3565b80630ad8d666146100f85780630bece356146101215780631f456c1e1461014a5780633e24aaf314610173575b600080fd5b34801561010457600080fd5b5061011f600480360381019061011a919061208a565b610398565b005b34801561012d57600080fd5b506101486004803603810190610143919061217a565b6104aa565b005b34801561015657600080fd5b50610171600480360381019061016c91906122ce565b6105fe565b005b34801561017f57600080fd5b5061019a600480360381019061019591906123b0565b610702565b005b3480156101a857600080fd5b506101c360048036038101906101be919061245d565b61078d565b6040516101d091906126fb565b60405180910390f35b3480156101e557600080fd5b5061020060048036038101906101fb919061271d565b6109b2565b005b34801561020e57600080fd5b506102296004803603810190610224919061208a565b610ce4565b005b34801561023757600080fd5b50610240610d9c565b005b34801561024e57600080fd5b5061026960048036038101906102649190612830565b610db0565b005b610285600480360381019061028091906128d3565b6110d8565b005b34801561029357600080fd5b5061029c611467565b6040516102a9919061296a565b60405180910390f35b3480156102be57600080fd5b506102d960048036038101906102d49190612985565b611490565b005b3480156102e757600080fd5b5061030260048036038101906102fd919061245d565b611958565b6040516103129493929190612a5c565b60405180910390f35b34801561032757600080fd5b50610330611a2a565b60405161033d9190612afd565b60405180910390f35b34801561035257600080fd5b5061036d60048036038101906103689190612b1f565b611ab8565b005b34801561037b57600080fd5b5061039660048036038101906103919190612bdf565b611b72565b005b6103a181611bf6565b6103e0576040517f08c379a00000000000000000000000000000000000000000000000000000000081526004016103d790612c58565b60405180910390fd5b8180602001906103f09190612c87565b602001358280600001906104049190612c87565b602001357f080631928e492258b6a102fc2ab3e0a8dfcb747ab0885c25f9cb7a8d486210368480600001906104399190612c87565b80600001906104489190612caf565b8680602001906104589190612c87565b80600001906104679190612caf565b8880606001906104779190612d12565b8a604001602081019061048a9190612d75565b60405161049d9796959493929190612e1a565b60405180910390a3505050565b600260149054906101000a900460ff166104f9576040517f08c379a00000000000000000000000000000000000000000000000000000000081526004016104f090612ec6565b60405180910390fd5b600160009054906101000a900473ffffffffffffffffffffffffffffffffffffffff1673ffffffffffffffffffffffffffffffffffffffff1663e1ec100c600384846040518463ffffffff1660e01b815260040161055993929190612fdc565b60206040518083038186803b15801561057157600080fd5b505afa158015610585573d6000803e3d6000fd5b505050506040513d601f19601f820116820180604052508101906105a9919061304d565b6105e8576040517f08c379a00000000000000000000000000000000000000000000000000000000081526004016105df906130ec565b60405180910390fd5b8181600391906105f9929190611d6e565b505050565b60008973ffffffffffffffffffffffffffffffffffffffff1663486592198a8a8a8a8a8a8a8a6040518963ffffffff1660e01b815260040161064798979695949392919061325f565b602060405180830381600087803b15801561066157600080fd5b505af1158015610675573d6000803e3d6000fd5b505050506040513d601f19601f8201168201806040525081019061069991906132e7565b9050848a73ffffffffffffffffffffffffffffffffffffffff167f9a93c124e7f0aa93d3fbe660b1366e0483b4267619924382261498efbb92c873838b8b8b8a8a8a6040516106ee9796959493929190613314565b60405180910390a350505050505050505050565b61070a611c24565b600260149054906101000a900460ff161561075a576040517f08c379a0000000000000000000000000000000000000000000000000000000008152600401610751906133c5565b60405180910390fd5b6001600260146101000a81548160ff021916908315150217905550818160039190610786929190611d6e565b5050505050565b610795611df4565b600560008473ffffffffffffffffffffffffffffffffffffffff1673ffffffffffffffffffffffffffffffffffffffff16815260200190815260200160002060008381526020019081526020016000206040518060a0016040529081600082015481526020016001820160009054906101000a900460ff16600181111561081f5761081e6124ac565b5b6001811115610831576108306124ac565b5b815260200160028201805480602002602001604051908101604052809291908181526020016000905b8282101561090657838290600052602060002001805461087990612f15565b80601f01602080910402602001604051908101604052809291908181526020018280546108a590612f15565b80156108f25780601f106108c7576101008083540402835291602001916108f2565b820191906000526020600020905b8154815290600101906020018083116108d557829003601f168201915b50505050508152602001906001019061085a565b50505050815260200160038201805461091e90612f15565b80601f016020809104026020016040519081016040528092919081815260200182805461094a90612f15565b80156109975780601f1061096c57610100808354040283529160200191610997565b820191906000526020600020905b81548152906001019060200180831161097a57829003601f168201915b50505050508152602001600482015481525050905092915050565b600160009054906101000a900473ffffffffffffffffffffffffffffffffffffffff1673ffffffffffffffffffffffffffffffffffffffff16639511059d6003836040518060800160405280605e8152602001613d97605e91396040518463ffffffff1660e01b8152600401610a2a93929190613547565b60206040518083038186803b158015610a4257600080fd5b505afa158015610a56573d6000803e3d6000fd5b505050506040513d601f19601f82011682018060405250810190610a7a919061304d565b610ab9576040517f08c379a0000000000000000000000000000000000000000000000000000000008152600401610ab0906135f2565b60405180910390fd5b8973ffffffffffffffffffffffffffffffffffffffff1663e60a72938a85856040518463ffffffff1660e01b8152600401610af693929190613612565b600060405180830381600087803b158015610b1057600080fd5b505af1158015610b24573d6000803e3d6000fd5b505050506040518060a00160405280838152602001876001811115610b4c57610b4b6124ac565b5b8152602001898990610b5e919061381d565b815260200186868080601f016020809104026020016040519081016040528093929190818152602001838380828437600081840152601f19601f82011690508083019250505050505050815260200184815250600560008c73ffffffffffffffffffffffffffffffffffffffff1673ffffffffffffffffffffffffffffffffffffffff16815260200190815260200160002060008b81526020019081526020016000206000820151816000015560208201518160010160006101000a81548160ff02191690836001811115610c3657610c356124ac565b5b02179055506040820151816002019080519060200190610c57929190611e3b565b506060820151816003019080519060200190610c74929190611e9b565b506080820151816004015590505082898b73ffffffffffffffffffffffffffffffffffffffff167f57ea540ad7b8bfd2813b8637764ba029fedc52de3f812934a46511506aa11b8e88888d8d604051610cd09493929190613832565b60405180910390a450505050505050505050565b610ced81611bf6565b610d2c576040517f08c379a0000000000000000000000000000000000000000000000000000000008152600401610d2390612c58565b60405180910390fd5b8273ffffffffffffffffffffffffffffffffffffffff1663b33c2577836040518263ffffffff1660e01b8152600401610d6591906139f3565b600060405180830381600087803b158015610d7f57600080fd5b505af1158015610d93573d6000803e3d6000fd5b50505050505050565b610da4611c24565b610dae6000611ca2565b565b6000600560003373ffffffffffffffffffffffffffffffffffffffff1673ffffffffffffffffffffffffffffffffffffffff16815260200190815260200160002060008381526020019081526020016000206040518060a0016040529081600082015481526020016001820160009054906101000a900460ff166001811115610e3c57610e3b6124ac565b5b6001811115610e4e57610e4d6124ac565b5b815260200160028201805480602002602001604051908101604052809291908181526020016000905b82821015610f23578382906000526020600020018054610e9690612f15565b80601f0160208091040260200160405190810160405280929190818152602001828054610ec290612f15565b8015610f0f5780601f10610ee457610100808354040283529160200191610f0f565b820191906000526020600020905b815481529060010190602001808311610ef257829003601f168201915b505050505081526020019060010190610e77565b505050508152602001600382018054610f3b90612f15565b80601f0160208091040260200160405190810160405280929190818152602001828054610f6790612f15565b8015610fb45780601f10610f8957610100808354040283529160200191610fb4565b820191906000526020600020905b815481529060010190602001808311610f9757829003601f168201915b5050505050815260200160048201548152505090506000801b81608001511415611013576040517f08c379a000000000000000000000000000000000000000000000000000000000815260040161100a90613a61565b60405180910390fd5b60003390508073ffffffffffffffffffffffffffffffffffffffff16635fe39e0d84846060015185608001516040518463ffffffff1660e01b815260040161105d93929190613a81565b600060405180830381600087803b15801561107757600080fd5b505af115801561108b573d6000803e3d6000fd5b50505050823373ffffffffffffffffffffffffffffffffffffffff167fe893e4ba0e364cdc96364b1e1e0d53b0d91e5fd6aa0ee9d81a17ecd61178bf1760405160405180910390a3505050565b6000600560003373ffffffffffffffffffffffffffffffffffffffff1673ffffffffffffffffffffffffffffffffffffffff16815260200190815260200160002060008781526020019081526020016000206040518060a0016040529081600082015481526020016001820160009054906101000a900460ff166001811115611164576111636124ac565b5b6001811115611176576111756124ac565b5b815260200160028201805480602002602001604051908101604052809291908181526020016000905b8282101561124b5783829060005260206000200180546111be90612f15565b80601f01602080910402602001604051908101604052809291908181526020018280546111ea90612f15565b80156112375780601f1061120c57610100808354040283529160200191611237565b820191906000526020600020905b81548152906001019060200180831161121a57829003601f168201915b50505050508152602001906001019061119f565b50505050815260200160038201805461126390612f15565b80601f016020809104026020016040519081016040528092919081815260200182805461128f90612f15565b80156112dc5780601f106112b1576101008083540402835291602001916112dc565b820191906000526020600020905b8154815290600101906020018083116112bf57829003601f168201915b5050505050815260200160048201548152505090506000801b8160800151141561133b576040517f08c379a000000000000000000000000000000000000000000000000000000000815260040161133290613b0b565b60405180910390fd5b6000600260009054906101000a900473ffffffffffffffffffffffffffffffffffffffff1673ffffffffffffffffffffffffffffffffffffffff168360405161138390613b5c565b60006040518083038185875af1925050503d80600081146113c0576040519150601f19603f3d011682016040523d82523d6000602084013e6113c5565b606091505b5050905080611409576040517f08c379a000000000000000000000000000000000000000000000000000000000815260040161140090613bbd565b60405180910390fd5b863373ffffffffffffffffffffffffffffffffffffffff167f94ef54bb656f9e1ad74bd9dc017a141380953a4689eaba404f3b1a1b37b4c540888888886040516114569493929190613bec565b60405180910390a350505050505050565b60008060009054906101000a900473ffffffffffffffffffffffffffffffffffffffff16905090565b600160009054906101000a900473ffffffffffffffffffffffffffffffffffffffff1673ffffffffffffffffffffffffffffffffffffffff16639511059d600383604051806080016040528060538152602001613df5605391396040518463ffffffff1660e01b815260040161150893929190613547565b60206040518083038186803b15801561152057600080fd5b505afa158015611534573d6000803e3d6000fd5b505050506040513d601f19601f82011682018060405250810190611558919061304d565b611597576040517f08c379a000000000000000000000000000000000000000000000000000000000815260040161158e906135f2565b60405180910390fd5b6000600560008573ffffffffffffffffffffffffffffffffffffffff1673ffffffffffffffffffffffffffffffffffffffff16815260200190815260200160002060008481526020019081526020016000206040518060a0016040529081600082015481526020016001820160009054906101000a900460ff166001811115611623576116226124ac565b5b6001811115611635576116346124ac565b5b815260200160028201805480602002602001604051908101604052809291908181526020016000905b8282101561170a57838290600052602060002001805461167d90612f15565b80601f01602080910402602001604051908101604052809291908181526020018280546116a990612f15565b80156116f65780601f106116cb576101008083540402835291602001916116f6565b820191906000526020600020905b8154815290600101906020018083116116d957829003601f168201915b50505050508152602001906001019061165e565b50505050815260200160038201805461172290612f15565b80601f016020809104026020016040519081016040528092919081815260200182805461174e90612f15565b801561179b5780601f106117705761010080835404028352916020019161179b565b820191906000526020600020905b81548152906001019060200180831161177e57829003601f168201915b5050505050815260200160048201548152505090506000801b816080015114156117fa576040517f08c379a00000000000000000000000000000000000000000000000000000000081526004016117f190613c78565b60405180910390fd5b60008490508073ffffffffffffffffffffffffffffffffffffffff16635fe39e0d85846060015185608001516040518463ffffffff1660e01b815260040161184493929190613a81565b600060405180830381600087803b15801561185e57600080fd5b505af1158015611872573d6000803e3d6000fd5b50505050600560008673ffffffffffffffffffffffffffffffffffffffff1673ffffffffffffffffffffffffffffffffffffffff16815260200190815260200160002060008581526020019081526020016000206000808201600090556001820160006101000a81549060ff02191690556002820160006118f39190611f21565b6003820160006119039190611f42565b60048201600090555050838573ffffffffffffffffffffffffffffffffffffffff167fe893e4ba0e364cdc96364b1e1e0d53b0d91e5fd6aa0ee9d81a17ecd61178bf1760405160405180910390a35050505050565b6005602052816000526040600020602052806000526040600020600091509150508060000154908060010160009054906101000a900460ff16908060030180546119a190612f15565b80601f01602080910402602001604051908101604052809291908181526020018280546119cd90612f15565b8015611a1a5780601f106119ef57610100808354040283529160200191611a1a565b820191906000526020600020905b8154815290600101906020018083116119fd57829003601f168201915b5050505050908060040154905084565b60038054611a3790612f15565b80601f0160208091040260200160405190810160405280929190818152602001828054611a6390612f15565b8015611ab05780601f10611a8557610100808354040283529160200191611ab0565b820191906000526020600020905b815481529060010190602001808311611a9357829003601f168201915b505050505081565b611ac181611bf6565b611b00576040517f08c379a0000000000000000000000000000000000000000000000000000000008152600401611af790612c58565b60405180910390fd5b8473ffffffffffffffffffffffffffffffffffffffff1663f45cf5e4856040518263ffffffff1660e01b8152600401611b3991906139f3565b600060405180830381600087803b158015611b5357600080fd5b505af1158015611b67573d6000803e3d6000fd5b505050505050505050565b611b7a611c24565b600073ffffffffffffffffffffffffffffffffffffffff168173ffffffffffffffffffffffffffffffffffffffff161415611bea576040517f08c379a0000000000000000000000000000000000000000000000000000000008152600401611be190613d0a565b60405180910390fd5b611bf381611ca2565b50565b600080828060200190611c099190612d12565b90501415611c1a5760009050611c1f565b600190505b919050565b611c2c611d66565b73ffffffffffffffffffffffffffffffffffffffff16611c4a611467565b73ffffffffffffffffffffffffffffffffffffffff1614611ca0576040517f08c379a0000000000000000000000000000000000000000000000000000000008152600401611c9790613d76565b60405180910390fd5b565b60008060009054906101000a900473ffffffffffffffffffffffffffffffffffffffff169050816000806101000a81548173ffffffffffffffffffffffffffffffffffffffff021916908373ffffffffffffffffffffffffffffffffffffffff1602179055508173ffffffffffffffffffffffffffffffffffffffff168173ffffffffffffffffffffffffffffffffffffffff167f8be0079c531659141344cd1fd0a4f28419497f9722a3daafe3b4186f6b6457e060405160405180910390a35050565b600033905090565b828054611d7a90612f15565b90600052602060002090601f016020900481019282611d9c5760008555611de3565b82601f10611db557803560ff1916838001178555611de3565b82800160010185558215611de3579182015b82811115611de2578235825591602001919060010190611dc7565b5b509050611df09190611f82565b5090565b6040518060a001604052806000801916815260200160006001811115611e1d57611e1c6124ac565b5b81526020016060815260200160608152602001600080191681525090565b828054828255906000526020600020908101928215611e8a579160200282015b82811115611e89578251829080519060200190611e79929190611e9b565b5091602001919060010190611e5b565b5b509050611e979190611f9f565b5090565b828054611ea790612f15565b90600052602060002090601f016020900481019282611ec95760008555611f10565b82601f10611ee257805160ff1916838001178555611f10565b82800160010185558215611f10579182015b82811115611f0f578251825591602001919060010190611ef4565b5b509050611f1d9190611f82565b5090565b5080546000825590600052602060002090810190611f3f9190611f9f565b50565b508054611f4e90612f15565b6000825580601f10611f605750611f7f565b601f016020900490600052602060002090810190611f7e9190611f82565b5b50565b5b80821115611f9b576000816000905550600101611f83565b5090565b5b80821115611fbf5760008181611fb69190611f42565b50600101611fa0565b5090565b6000604051905090565b600080fd5b600080fd5b600073ffffffffffffffffffffffffffffffffffffffff82169050919050565b600061200282611fd7565b9050919050565b600061201482611ff7565b9050919050565b61202481612009565b811461202f57600080fd5b50565b6000813590506120418161201b565b92915050565b600080fd5b600060c0828403121561206257612061612047565b5b81905092915050565b60006040828403121561208157612080612047565b5b81905092915050565b6000806000606084860312156120a3576120a2611fcd565b5b60006120b186828701612032565b935050602084013567ffffffffffffffff8111156120d2576120d1611fd2565b5b6120de8682870161204c565b925050604084013567ffffffffffffffff8111156120ff576120fe611fd2565b5b61210b8682870161206b565b9150509250925092565b600080fd5b600080fd5b600080fd5b60008083601f84011261213a57612139612115565b5b8235905067ffffffffffffffff8111156121575761215661211a565b5b6020830191508360018202830111156121735761217261211f565b5b9250929050565b6000806020838503121561219157612190611fcd565b5b600083013567ffffffffffffffff8111156121af576121ae611fd2565b5b6121bb85828601612124565b92509250509250929050565b6000819050919050565b6121da816121c7565b81146121e557600080fd5b50565b6000813590506121f7816121d1565b92915050565b6002811061220a57600080fd5b50565b60008135905061221c816121fd565b92915050565b60008083601f84011261223857612237612115565b5b8235905067ffffffffffffffff8111156122555761225461211a565b5b6020830191508360208202830111156122715761227061211f565b5b9250929050565b60008083601f84011261228e5761228d612115565b5b8235905067ffffffffffffffff8111156122ab576122aa61211a565b5b6020830191508360018202830111156122c7576122c661211f565b5b9250929050565b600080600080600080600080600060e08a8c0312156122f0576122ef611fcd565b5b60006122fe8c828d01612032565b995050602061230f8c828d016121e8565b98505060406123208c828d0161220d565b97505060608a013567ffffffffffffffff81111561234157612340611fd2565b5b61234d8c828d01612222565b965096505060806123608c828d016121e8565b94505060a08a013567ffffffffffffffff81111561238157612380611fd2565b5b61238d8c828d01612278565b935093505060c06123a08c828d016121e8565b9150509295985092959850929598565b600080600080604085870312156123ca576123c9611fcd565b5b600085013567ffffffffffffffff8111156123e8576123e7611fd2565b5b6123f487828801612124565b9450945050602085013567ffffffffffffffff81111561241757612416611fd2565b5b61242387828801612124565b925092505092959194509250565b61243a81611ff7565b811461244557600080fd5b50565b60008135905061245781612431565b92915050565b6000806040838503121561247457612473611fcd565b5b600061248285828601612448565b9250506020612493858286016121e8565b9150509250929050565b6124a6816121c7565b82525050565b7f4e487b7100000000000000000000000000000000000000000000000000000000600052602160045260246000fd5b600281106124ec576124eb6124ac565b5b50565b60008190506124fd826124db565b919050565b600061250d826124ef565b9050919050565b61251d81612502565b82525050565b600081519050919050565b600082825260208201905092915050565b6000819050602082019050919050565b600081519050919050565b600082825260208201905092915050565b60005b8381101561258957808201518184015260208101905061256e565b83811115612598576000848401525b50505050565b6000601f19601f8301169050919050565b60006125ba8261254f565b6125c4818561255a565b93506125d481856020860161256b565b6125dd8161259e565b840191505092915050565b60006125f483836125af565b905092915050565b6000602082019050919050565b600061261482612523565b61261e818561252e565b9350836020820285016126308561253f565b8060005b8581101561266c578484038952815161264d85826125e8565b9450612658836125fc565b925060208a01995050600181019050612634565b50829750879550505050505092915050565b600060a083016000830151612696600086018261249d565b5060208301516126a96020860182612514565b50604083015184820360408601526126c18282612609565b915050606083015184820360608601526126db82826125af565b91505060808301516126f0608086018261249d565b508091505092915050565b60006020820190508181036000830152612715818461267e565b905092915050565b6000806000806000806000806000806101008b8d03121561274157612740611fcd565b5b600061274f8d828e01612032565b9a505060206127608d828e016121e8565b99505060408b013567ffffffffffffffff81111561278157612780611fd2565b5b61278d8d828e01612222565b985098505060606127a08d828e0161220d565b96505060808b013567ffffffffffffffff8111156127c1576127c0611fd2565b5b6127cd8d828e01612278565b955095505060a06127e08d828e016121e8565b93505060c06127f18d828e016121e8565b92505060e08b013567ffffffffffffffff81111561281257612811611fd2565b5b61281e8d828e0161206b565b9150509295989b9194979a5092959850565b60006020828403121561284657612845611fcd565b5b6000612854848285016121e8565b91505092915050565b600067ffffffffffffffff82169050919050565b61287a8161285d565b811461288557600080fd5b50565b60008135905061289781612871565b92915050565b6000819050919050565b6128b08161289d565b81146128bb57600080fd5b50565b6000813590506128cd816128a7565b92915050565b6000806000806000608086880312156128ef576128ee611fcd565b5b60006128fd888289016121e8565b955050602086013567ffffffffffffffff81111561291e5761291d611fd2565b5b61292a88828901612124565b9450945050604061293d88828901612888565b925050606061294e888289016128be565b9150509295509295909350565b61296481611ff7565b82525050565b600060208201905061297f600083018461295b565b92915050565b60008060006060848603121561299e5761299d611fcd565b5b60006129ac86828701612448565b93505060206129bd868287016121e8565b925050604084013567ffffffffffffffff8111156129de576129dd611fd2565b5b6129ea8682870161206b565b9150509250925092565b6129fd816121c7565b82525050565b612a0c81612502565b82525050565b600082825260208201905092915050565b6000612a2e8261254f565b612a388185612a12565b9350612a4881856020860161256b565b612a518161259e565b840191505092915050565b6000608082019050612a7160008301876129f4565b612a7e6020830186612a03565b8181036040830152612a908185612a23565b9050612a9f60608301846129f4565b95945050505050565b600081519050919050565b600082825260208201905092915050565b6000612acf82612aa8565b612ad98185612ab3565b9350612ae981856020860161256b565b612af28161259e565b840191505092915050565b60006020820190508181036000830152612b178184612ac4565b905092915050565b600080600080600060808688031215612b3b57612b3a611fcd565b5b6000612b4988828901612032565b955050602086013567ffffffffffffffff811115612b6a57612b69611fd2565b5b612b768882890161204c565b945050604086013567ffffffffffffffff811115612b9757612b96611fd2565b5b612ba388828901612124565b9350935050606086013567ffffffffffffffff811115612bc657612bc5611fd2565b5b612bd28882890161206b565b9150509295509295909350565b600060208284031215612bf557612bf4611fcd565b5b6000612c0384828501612448565b91505092915050565b7f50726f6f6620766572696669636174696f6e206661696c656400000000000000600082015250565b6000612c42601983612a12565b9150612c4d82612c0c565b602082019050919050565b60006020820190508181036000830152612c7181612c35565b9050919050565b600080fd5b600080fd5b600080fd5b600082356001604003833603038112612ca357612ca2612c78565b5b80830191505092915050565b60008083356001602003843603038112612ccc57612ccb612c78565b5b80840192508235915067ffffffffffffffff821115612cee57612ced612c7d565b5b602083019250600182023603831315612d0a57612d09612c82565b5b509250929050565b60008083356001602003843603038112612d2f57612d2e612c78565b5b80840192508235915067ffffffffffffffff821115612d5157612d50612c7d565b5b602083019250600182023603831315612d6d57612d6c612c82565b5b509250929050565b600060208284031215612d8b57612d8a611fcd565b5b6000612d9984828501612888565b91505092915050565b82818337600083830152505050565b6000612dbd8385612a12565b9350612dca838584612da2565b612dd38361259e565b840190509392505050565b6000612dea8385612ab3565b9350612df7838584612da2565b612e008361259e565b840190509392505050565b612e148161285d565b82525050565b60006080820190508181036000830152612e3581898b612db1565b90508181036020830152612e4a818789612db1565b90508181036040830152612e5f818587612dde565b9050612e6e6060830184612e0b565b98975050505050505050565b7f436c69656e74206e6f7420637265617465640000000000000000000000000000600082015250565b6000612eb0601283612a12565b9150612ebb82612e7a565b602082019050919050565b60006020820190508181036000830152612edf81612ea3565b9050919050565b7f4e487b7100000000000000000000000000000000000000000000000000000000600052602260045260246000fd5b60006002820490506001821680612f2d57607f821691505b60208210811415612f4157612f40612ee6565b5b50919050565b60008190508160005260206000209050919050565b60008154612f6981612f15565b612f738186612ab3565b94506001821660008114612f8e5760018114612fa057612fd3565b60ff1983168652602086019350612fd3565b612fa985612f47565b60005b83811015612fcb57815481890152600182019150602081019050612fac565b808801955050505b50505092915050565b60006040820190508181036000830152612ff68186612f5c565b9050818103602083015261300b818486612dde565b9050949350505050565b60008115159050919050565b61302a81613015565b811461303557600080fd5b50565b60008151905061304781613021565b92915050565b60006020828403121561306357613062611fcd565b5b600061307184828501613038565b91505092915050565b7f436f6e73656e73757320737461746520766572696669636174696f6e2066616960008201527f6c65640000000000000000000000000000000000000000000000000000000000602082015250565b60006130d6602383612a12565b91506130e18261307a565b604082019050919050565b60006020820190508181036000830152613105816130c9565b9050919050565b600082825260208201905092915050565b6000819050919050565b6000613133838561255a565b9350613140838584612da2565b6131498361259e565b840190509392505050565b6000613161848484613127565b90509392505050565b600080fd5b600080fd5b600080fd5b6000808335600160200384360303811261319657613195613174565b5b83810192508235915060208301925067ffffffffffffffff8211156131be576131bd61316a565b5b6001820236038413156131d4576131d361316f565b5b509250929050565b6000602082019050919050565b60006131f5838561310c565b9350836020840285016132078461311d565b8060005b8781101561324d5784840389526132228284613179565b61322d868284613154565b9550613238846131dc565b935060208b019a50505060018101905061320b565b50829750879450505050509392505050565b600060c082019050613274600083018b6129f4565b613281602083018a612a03565b818103604083015261329481888a6131e9565b90506132a360608301876129f4565b81810360808301526132b6818587612db1565b90506132c560a08301846129f4565b9998505050505050505050565b6000815190506132e1816121d1565b92915050565b6000602082840312156132fd576132fc611fcd565b5b600061330b848285016132d2565b91505092915050565b600060a082019050613329600083018a6129f4565b6133366020830189612a03565b81810360408301526133498187896131e9565b9050818103606083015261335e818587612db1565b905061336d60808301846129f4565b98975050505050505050565b7f436c69656e7420616c7265616479206372656174656400000000000000000000600082015250565b60006133af601683612a12565b91506133ba82613379565b602082019050919050565b600060208201905081810360008301526133de816133a2565b9050919050565b60006133f46020840184612888565b905092915050565b6134058161285d565b82525050565b6000808335600160200384360303811261342857613427613174565b5b83810192508235915060208301925067ffffffffffffffff8211156134505761344f61316a565b5b6001820236038413156134665761346561316f565b5b509250929050565b600082825260208201905092915050565b600061348b838561346e565b9350613498838584612da2565b6134a18361259e565b840190509392505050565b6000604083016134bf60008401846133e5565b6134cc60008601826133fc565b506134da602084018461340b565b85830360208701526134ed83828461347f565b925050508091505092915050565b7f6368616e6e656c2f706174682f746f2f62652f61646465642f68657265000000600082015250565b6000613531601d83612ab3565b915061353c826134fb565b602082019050919050565b600060808201905081810360008301526135618186612f5c565b9050818103602083015261357581856134ac565b9050818103604083015261358881613524565b9050818103606083015261359c8184612ac4565b9050949350505050565b7f4661696c20746f2070726f7665206368616e6e656c2073746174650000000000600082015250565b60006135dc601b83612a12565b91506135e7826135a6565b602082019050919050565b6000602082019050818103600083015261360b816135cf565b9050919050565b600060608201905061362760008301866129f4565b61363460208301856129f4565b61364160408301846129f4565b949350505050565b7f4e487b7100000000000000000000000000000000000000000000000000000000600052604160045260246000fd5b6136818261259e565b810181811067ffffffffffffffff821117156136a05761369f613649565b5b80604052505050565b60006136b3611fc3565b90506136bf8282613678565b919050565b600067ffffffffffffffff8211156136df576136de613649565b5b602082029050602081019050919050565b600080fd5b600067ffffffffffffffff8211156137105761370f613649565b5b6137198261259e565b9050602081019050919050565b6000613739613734846136f5565b6136a9565b905082815260208101848484011115613755576137546136f0565b5b613760848285612da2565b509392505050565b600082601f83011261377d5761377c612115565b5b813561378d848260208601613726565b91505092915050565b60006137a96137a4846136c4565b6136a9565b905080838252602082019050602084028301858111156137cc576137cb61211f565b5b835b8181101561381357803567ffffffffffffffff8111156137f1576137f0612115565b5b8086016137fe8982613768565b855260208501945050506020810190506137ce565b5050509392505050565b600061382a368484613796565b905092915050565b6000604082019050818103600083015261384d818688612db1565b905081810360208301526138628184866131e9565b905095945050505050565b60008235600160400383360303811261388957613888613174565b5b82810191505092915050565b60006138a460208401846121e8565b905092915050565b6000604083016138bf6000840184613179565b85830360008701526138d2838284613127565b925050506138e36020840184613895565b6138f0602086018261249d565b508091505092915050565b600082905092915050565b6040820161391760008301836133e5565b61392460008501826133fc565b5061393260208301836133e5565b61393f60208501826133fc565b50505050565b600060c08301613958600084018461386d565b848203600086015261396a82826138ac565b91505061397a602084018461386d565b848203602086015261398c82826138ac565b91505061399c60408401846133e5565b6139a960408601826133fc565b506139b7606084018461340b565b85830360608701526139ca83828461347f565b925050506139db60808401846138fb565b6139e86080860182613906565b508091505092915050565b60006020820190508181036000830152613a0d8184613945565b905092915050565b7f4368616e6e656c206e6f74206f776e6564206279206d73672e73656e64657200600082015250565b6000613a4b601f83612a12565b9150613a5682613a15565b602082019050919050565b60006020820190508181036000830152613a7a81613a3e565b9050919050565b6000606082019050613a9660008301866129f4565b8181036020830152613aa88185612a23565b9050613ab760408301846129f4565b949350505050565b7f4368616e6e656c206e6f74206f776e65642062792073656e6465720000000000600082015250565b6000613af5601b83612a12565b9150613b0082613abf565b602082019050919050565b60006020820190508181036000830152613b2481613ae8565b9050919050565b600081905092915050565b50565b6000613b46600083613b2b565b9150613b5182613b36565b600082019050919050565b6000613b6782613b39565b9150819050919050565b7f4661696c656420746f20657363726f77207061636b6574206665650000000000600082015250565b6000613ba7601b83612a12565b9150613bb282613b71565b602082019050919050565b60006020820190508181036000830152613bd681613b9a565b9050919050565b613be68161289d565b82525050565b60006060820190508181036000830152613c07818688612dde565b9050613c166020830185612e0b565b613c236040830184613bdd565b95945050505050565b7f4368616e6e656c206e6f74206f776e656420627920706f727441646472657373600082015250565b6000613c62602083612a12565b9150613c6d82613c2c565b602082019050919050565b60006020820190508181036000830152613c9181613c55565b9050919050565b7f4f776e61626c653a206e6577206f776e657220697320746865207a65726f206160008201527f6464726573730000000000000000000000000000000000000000000000000000602082015250565b6000613cf4602683612a12565b9150613cff82613c98565b604082019050919050565b60006020820190508181036000830152613d2381613ce7565b9050919050565b7f4f776e61626c653a2063616c6c6572206973206e6f7420746865206f776e6572600082015250565b6000613d60602083612a12565b9150613d6b82613d2a565b602082019050919050565b60006020820190508181036000830152613d8f81613d53565b905091905056fe6578706563746564206368616e6e656c20627974657320636f6e73747275637465642066726f6d20706172616d732e204368616e6e656c2e5374617465203d207b41636b5f50656e64696e672c20436f6e6669726d5f50656e64696e677d6578706563746564206368616e6e656c20627974657320636f6e73747275637465642066726f6d20706172616d732e204368616e6e656c2e5374617465203d207b436c6f736564285f50656e64696e673f297da2646970667358221220279d40901d78bd81288635f2a4cc67612aa9cb599da03b6e90861188ff793e1464736f6c63430008090033",
  "linkReferences": {},
  "deployedLinkReferences": {}
}