{
  "_format": "hh-sol-artifact-1",
  "contractName": "Dispatcher",
  "sourceName": "contracts/Dispatcher.sol",
  "abi": [
    {
      "inputs": [
        {
          "internalType": "address",
          "name": "_verifier",
          "type": "address"
        }
      ],
      "stateMutability": "nonpayable",
      "type": "constructor"
    },
    {
      "anonymous": false,
      "inputs": [
        {
          "indexed": false,
          "internalType": "string",
          "name": "channelId",
          "type": "string"
        },
        {
          "indexed": true,
          "internalType": "address",
          "name": "portId",
          "type": "address"
        }
      ],
      "name": "CloseIbcChannel",
      "type": "event"
    },
    {
      "anonymous": false,
      "inputs": [
        {
          "indexed": true,
          "internalType": "address",
          "name": "portAddress",
          "type": "address"
        },
        {
          "indexed": true,
          "internalType": "bytes32",
          "name": "channelId",
          "type": "bytes32"
        },
        {
          "indexed": false,
          "internalType": "string",
          "name": "counterpartyPortId",
          "type": "string"
        },
        {
          "indexed": true,
          "internalType": "bytes32",
          "name": "counterpartyChannelId",
          "type": "bytes32"
        },
        {
          "indexed": false,
          "internalType": "string[]",
          "name": "connectionHops",
          "type": "string[]"
        }
      ],
      "name": "ConnectIbcChannel",
      "type": "event"
    },
    {
      "anonymous": false,
      "inputs": [
        {
          "indexed": true,
          "internalType": "bytes32",
          "name": "srcChannelId",
          "type": "bytes32"
        },
        {
          "indexed": false,
          "internalType": "string",
          "name": "srcPortId",
          "type": "string"
        },
        {
          "indexed": true,
          "internalType": "bytes32",
          "name": "destChannelId",
          "type": "bytes32"
        },
        {
          "indexed": false,
          "internalType": "string",
          "name": "destPortId",
          "type": "string"
        },
        {
          "indexed": false,
          "internalType": "bytes",
          "name": "data",
          "type": "bytes"
        },
        {
          "indexed": false,
          "internalType": "uint64",
          "name": "sequence",
          "type": "uint64"
        }
      ],
      "name": "OnRecvPacket",
      "type": "event"
    },
    {
      "anonymous": false,
      "inputs": [
        {
          "indexed": true,
          "internalType": "address",
          "name": "portAddress",
          "type": "address"
        },
        {
          "indexed": true,
          "internalType": "bytes32",
          "name": "counterpartyChannelId",
          "type": "bytes32"
        },
        {
          "indexed": false,
          "internalType": "bytes32",
          "name": "version",
          "type": "bytes32"
        },
        {
          "indexed": false,
          "internalType": "enum ChannelOrder",
          "name": "ordering",
          "type": "uint8"
        },
        {
          "indexed": false,
          "internalType": "string[]",
          "name": "connectionHops",
          "type": "string[]"
        },
        {
          "indexed": false,
          "internalType": "string",
          "name": "counterpartyPortId",
          "type": "string"
        },
        {
          "indexed": false,
          "internalType": "bytes32",
          "name": "counterpartyVersion",
          "type": "bytes32"
        }
      ],
      "name": "OpenIbcChannel",
      "type": "event"
    },
    {
      "anonymous": false,
      "inputs": [
        {
          "indexed": true,
          "internalType": "address",
          "name": "previousOwner",
          "type": "address"
        },
        {
          "indexed": true,
          "internalType": "address",
          "name": "newOwner",
          "type": "address"
        }
      ],
      "name": "OwnershipTransferred",
      "type": "event"
    },
    {
      "anonymous": false,
      "inputs": [
        {
          "indexed": true,
          "internalType": "address",
          "name": "portId",
          "type": "address"
        },
        {
          "indexed": true,
          "internalType": "bytes32",
          "name": "channelId",
          "type": "bytes32"
        },
        {
          "indexed": false,
          "internalType": "bytes",
          "name": "packet",
          "type": "bytes"
        },
        {
          "indexed": false,
          "internalType": "uint64",
          "name": "timeoutTimestamp",
          "type": "uint64"
        }
      ],
      "name": "SendPacket",
      "type": "event"
    },
    {
      "inputs": [
        {
          "internalType": "string",
          "name": "channelId",
          "type": "string"
        }
      ],
      "name": "closeIbcChannel",
      "outputs": [],
      "stateMutability": "nonpayable",
      "type": "function"
    },
    {
      "inputs": [
        {
          "internalType": "address",
          "name": "portAddress",
          "type": "address"
        },
        {
          "internalType": "bytes32",
          "name": "channelId",
          "type": "bytes32"
        },
        {
          "internalType": "string[]",
          "name": "connectionHops",
          "type": "string[]"
        },
        {
          "internalType": "enum ChannelOrder",
          "name": "ordering",
          "type": "uint8"
        },
        {
          "internalType": "string",
          "name": "counterpartyPortId",
          "type": "string"
        },
        {
          "internalType": "bytes32",
          "name": "counterpartyChannelId",
          "type": "bytes32"
        },
        {
          "internalType": "bytes32",
          "name": "counterpartyVersion",
          "type": "bytes32"
        },
        {
          "components": [
            {
              "internalType": "uint64",
              "name": "proofHeight",
              "type": "uint64"
            },
            {
              "internalType": "bytes",
              "name": "proof",
              "type": "bytes"
            }
          ],
          "internalType": "struct Proof",
          "name": "proof",
          "type": "tuple"
        }
      ],
      "name": "connectIbcChannel",
      "outputs": [],
      "stateMutability": "nonpayable",
      "type": "function"
    },
    {
      "inputs": [
        {
          "internalType": "bytes",
          "name": "clientState",
          "type": "bytes"
        },
        {
          "internalType": "bytes",
          "name": "consensusState",
          "type": "bytes"
        }
      ],
      "name": "createClient",
      "outputs": [],
      "stateMutability": "nonpayable",
      "type": "function"
    },
    {
      "inputs": [
        {
          "internalType": "address",
          "name": "portAddress",
          "type": "address"
        },
        {
          "internalType": "bytes32",
          "name": "channelId",
          "type": "bytes32"
        }
      ],
      "name": "getChannel",
      "outputs": [
        {
          "components": [
            {
              "internalType": "bytes32",
              "name": "version",
              "type": "bytes32"
            },
            {
              "internalType": "enum ChannelOrder",
              "name": "ordering",
              "type": "uint8"
            },
            {
              "internalType": "string[]",
              "name": "connectionHops",
              "type": "string[]"
            },
            {
              "internalType": "string",
              "name": "counterpartyPortId",
              "type": "string"
            },
            {
              "internalType": "bytes32",
              "name": "counterpartyChannelId",
              "type": "bytes32"
            }
          ],
          "internalType": "struct Channel",
          "name": "",
          "type": "tuple"
        }
      ],
      "stateMutability": "view",
      "type": "function"
    },
    {
      "inputs": [],
      "name": "latestConsensusState",
      "outputs": [
        {
          "internalType": "bytes",
          "name": "",
          "type": "bytes"
        }
      ],
      "stateMutability": "view",
      "type": "function"
    },
    {
      "inputs": [
        {
          "internalType": "contract IbcReceiver",
          "name": "receiver",
          "type": "address"
        },
        {
          "components": [
            {
              "components": [
                {
                  "internalType": "string",
                  "name": "portId",
                  "type": "string"
                },
                {
                  "internalType": "bytes32",
                  "name": "channelId",
                  "type": "bytes32"
                }
              ],
              "internalType": "struct IbcEndpoint",
              "name": "src",
              "type": "tuple"
            },
            {
              "components": [
                {
                  "internalType": "string",
                  "name": "portId",
                  "type": "string"
                },
                {
                  "internalType": "bytes32",
                  "name": "channelId",
                  "type": "bytes32"
                }
              ],
              "internalType": "struct IbcEndpoint",
              "name": "dest",
              "type": "tuple"
            },
            {
              "internalType": "uint64",
              "name": "sequence",
              "type": "uint64"
            },
            {
              "internalType": "bytes",
              "name": "data",
              "type": "bytes"
            },
            {
              "components": [
                {
                  "internalType": "uint64",
                  "name": "block",
                  "type": "uint64"
                },
                {
                  "internalType": "uint64",
                  "name": "timestamp",
                  "type": "uint64"
                }
              ],
              "internalType": "struct IbcTimeout",
              "name": "timeout",
              "type": "tuple"
            }
          ],
          "internalType": "struct IbcPacket",
          "name": "packet",
          "type": "tuple"
        },
        {
          "internalType": "bytes",
          "name": "acknowledgement",
          "type": "bytes"
        },
        {
          "components": [
            {
              "internalType": "uint64",
              "name": "proofHeight",
              "type": "uint64"
            },
            {
              "internalType": "bytes",
              "name": "proof",
              "type": "bytes"
            }
          ],
          "internalType": "struct Proof",
          "name": "proof",
          "type": "tuple"
        }
      ],
      "name": "onAcknowledgementPacket",
      "outputs": [],
      "stateMutability": "nonpayable",
      "type": "function"
    },
    {
      "inputs": [
        {
          "internalType": "contract IbcReceiver",
          "name": "receiver",
          "type": "address"
        },
        {
          "components": [
            {
              "components": [
                {
                  "internalType": "string",
                  "name": "portId",
                  "type": "string"
                },
                {
                  "internalType": "bytes32",
                  "name": "channelId",
                  "type": "bytes32"
                }
              ],
              "internalType": "struct IbcEndpoint",
              "name": "src",
              "type": "tuple"
            },
            {
              "components": [
                {
                  "internalType": "string",
                  "name": "portId",
                  "type": "string"
                },
                {
                  "internalType": "bytes32",
                  "name": "channelId",
                  "type": "bytes32"
                }
              ],
              "internalType": "struct IbcEndpoint",
              "name": "dest",
              "type": "tuple"
            },
            {
              "internalType": "uint64",
              "name": "sequence",
              "type": "uint64"
            },
            {
              "internalType": "bytes",
              "name": "data",
              "type": "bytes"
            },
            {
              "components": [
                {
                  "internalType": "uint64",
                  "name": "block",
                  "type": "uint64"
                },
                {
                  "internalType": "uint64",
                  "name": "timestamp",
                  "type": "uint64"
                }
              ],
              "internalType": "struct IbcTimeout",
              "name": "timeout",
              "type": "tuple"
            }
          ],
          "internalType": "struct IbcPacket",
          "name": "packet",
          "type": "tuple"
        },
        {
          "components": [
            {
              "internalType": "uint64",
              "name": "proofHeight",
              "type": "uint64"
            },
            {
              "internalType": "bytes",
              "name": "proof",
              "type": "bytes"
            }
          ],
          "internalType": "struct Proof",
          "name": "proof",
          "type": "tuple"
        }
      ],
      "name": "onRecvPacket",
      "outputs": [],
      "stateMutability": "nonpayable",
      "type": "function"
    },
    {
      "inputs": [
        {
          "internalType": "contract IbcReceiver",
          "name": "receiver",
          "type": "address"
        },
        {
          "components": [
            {
              "components": [
                {
                  "internalType": "string",
                  "name": "portId",
                  "type": "string"
                },
                {
                  "internalType": "bytes32",
                  "name": "channelId",
                  "type": "bytes32"
                }
              ],
              "internalType": "struct IbcEndpoint",
              "name": "src",
              "type": "tuple"
            },
            {
              "components": [
                {
                  "internalType": "string",
                  "name": "portId",
                  "type": "string"
                },
                {
                  "internalType": "bytes32",
                  "name": "channelId",
                  "type": "bytes32"
                }
              ],
              "internalType": "struct IbcEndpoint",
              "name": "dest",
              "type": "tuple"
            },
            {
              "internalType": "uint64",
              "name": "sequence",
              "type": "uint64"
            },
            {
              "internalType": "bytes",
              "name": "data",
              "type": "bytes"
            },
            {
              "components": [
                {
                  "internalType": "uint64",
                  "name": "block",
                  "type": "uint64"
                },
                {
                  "internalType": "uint64",
                  "name": "timestamp",
                  "type": "uint64"
                }
              ],
              "internalType": "struct IbcTimeout",
              "name": "timeout",
              "type": "tuple"
            }
          ],
          "internalType": "struct IbcPacket",
          "name": "packet",
          "type": "tuple"
        },
        {
          "components": [
            {
              "internalType": "uint64",
              "name": "proofHeight",
              "type": "uint64"
            },
            {
              "internalType": "bytes",
              "name": "proof",
              "type": "bytes"
            }
          ],
          "internalType": "struct Proof",
          "name": "proof",
          "type": "tuple"
        }
      ],
      "name": "onTimeoutPacket",
      "outputs": [],
      "stateMutability": "nonpayable",
      "type": "function"
    },
    {
      "inputs": [
        {
          "internalType": "address",
          "name": "portAddress",
          "type": "address"
        },
        {
          "internalType": "bytes32",
          "name": "version",
          "type": "bytes32"
        },
        {
          "internalType": "enum ChannelOrder",
          "name": "ordering",
          "type": "uint8"
        },
        {
          "internalType": "string[]",
          "name": "connectionHops",
          "type": "string[]"
        },
        {
          "internalType": "bytes32",
          "name": "counterpartyChannelId",
          "type": "bytes32"
        },
        {
          "internalType": "string",
          "name": "counterpartyPortId",
          "type": "string"
        },
        {
          "internalType": "bytes32",
          "name": "counterpartyVersion",
          "type": "bytes32"
        },
        {
          "components": [
            {
              "internalType": "uint64",
              "name": "proofHeight",
              "type": "uint64"
            },
            {
              "internalType": "bytes",
              "name": "proof",
              "type": "bytes"
            }
          ],
          "internalType": "struct Proof",
          "name": "proof",
          "type": "tuple"
        }
      ],
      "name": "openIbcChannel",
      "outputs": [],
      "stateMutability": "nonpayable",
      "type": "function"
    },
    {
      "inputs": [],
      "name": "owner",
      "outputs": [
        {
          "internalType": "address",
          "name": "",
          "type": "address"
        }
      ],
      "stateMutability": "view",
      "type": "function"
    },
    {
      "inputs": [
        {
          "internalType": "address",
          "name": "",
          "type": "address"
        },
        {
          "internalType": "bytes32",
          "name": "",
          "type": "bytes32"
        }
      ],
      "name": "portChannelMap",
      "outputs": [
        {
          "internalType": "bytes32",
          "name": "version",
          "type": "bytes32"
        },
        {
          "internalType": "enum ChannelOrder",
          "name": "ordering",
          "type": "uint8"
        },
        {
          "internalType": "string",
          "name": "counterpartyPortId",
          "type": "string"
        },
        {
          "internalType": "bytes32",
          "name": "counterpartyChannelId",
          "type": "bytes32"
        }
      ],
      "stateMutability": "view",
      "type": "function"
    },
    {
      "inputs": [],
      "name": "renounceOwnership",
      "outputs": [],
      "stateMutability": "nonpayable",
      "type": "function"
    },
    {
      "inputs": [
        {
          "internalType": "bytes32",
          "name": "channelId",
          "type": "bytes32"
        },
        {
          "internalType": "bytes",
          "name": "packet",
          "type": "bytes"
        },
        {
          "internalType": "uint64",
          "name": "timeoutTimestamp",
          "type": "uint64"
        }
      ],
      "name": "sendPacket",
      "outputs": [],
      "stateMutability": "nonpayable",
      "type": "function"
    },
    {
      "inputs": [
        {
          "internalType": "address",
          "name": "newOwner",
          "type": "address"
        }
      ],
      "name": "transferOwnership",
      "outputs": [],
      "stateMutability": "nonpayable",
      "type": "function"
    },
    {
      "inputs": [
        {
          "internalType": "bytes",
          "name": "consensusState",
          "type": "bytes"
        }
      ],
      "name": "updateClient",
      "outputs": [],
      "stateMutability": "nonpayable",
      "type": "function"
    }
  ],
  "bytecode": "0x60806040526000600360006101000a81548167ffffffffffffffff021916908367ffffffffffffffff1602179055503480156200003b57600080fd5b506040516200338f3803806200338f83398181016040528101906200006191906200021a565b6200008162000075620000e460201b60201c565b620000ec60201b60201c565b80600160006101000a81548173ffffffffffffffffffffffffffffffffffffffff021916908373ffffffffffffffffffffffffffffffffffffffff1602179055506000600160146101000a81548160ff021916908315150217905550506200024c565b600033905090565b60008060009054906101000a900473ffffffffffffffffffffffffffffffffffffffff169050816000806101000a81548173ffffffffffffffffffffffffffffffffffffffff021916908373ffffffffffffffffffffffffffffffffffffffff1602179055508173ffffffffffffffffffffffffffffffffffffffff168173ffffffffffffffffffffffffffffffffffffffff167f8be0079c531659141344cd1fd0a4f28419497f9722a3daafe3b4186f6b6457e060405160405180910390a35050565b600080fd5b600073ffffffffffffffffffffffffffffffffffffffff82169050919050565b6000620001e282620001b5565b9050919050565b620001f481620001d5565b81146200020057600080fd5b50565b6000815190506200021481620001e9565b92915050565b600060208284031215620002335762000232620001b0565b5b6000620002438482850162000203565b91505092915050565b613133806200025c6000396000f3fe608060405234801561001057600080fd5b50600436106100f55760003560e01c8063715018a611610097578063c3e1155c11610066578063c3e1155c1461024b578063d2e9aa5614610267578063e6815c1214610283578063f2fde38b1461029f576100f5565b8063715018a6146101d25780638da5cb5b146101dc578063b2b1bf03146101fa578063c2a2514d1461022d576100f5565b80633e24aaf3116100d35780633e24aaf31461014e57806342852d241461016a5780634c9778d31461019a57806364260a60146101b6576100f5565b80630ad8d666146100fa5780630bece3561461011657806328f2c4c014610132575b600080fd5b610114600480360381019061010f91906115cd565b6102bb565b005b610130600480360381019061012b91906116bd565b6103cd565b005b61014c6004803603810190610147919061183d565b610521565b005b61016860048036038101906101639190611950565b610733565b005b610184600480360381019061017f91906119d1565b6107bd565b6040516101919190611c6f565b60405180910390f35b6101b460048036038101906101af9190611c91565b6109e2565b005b6101d060048036038101906101cb91906115cd565b610d1a565b005b6101da610dd2565b005b6101e4610de6565b6040516101f19190611db3565b60405180910390f35b610214600480360381019061020f91906119d1565b610e0f565b6040516102249493929190611e36565b60405180910390f35b610235610ee1565b6040516102429190611ed7565b60405180910390f35b61026560048036038101906102609190611f39565b610f6f565b005b610281600480360381019061027c9190611fad565b610fc8565b005b61029d6004803603810190610298919061206d565b611082565b005b6102b960048036038101906102b491906120ba565b6110d6565b005b6102c48161115a565b610303576040517f08c379a00000000000000000000000000000000000000000000000000000000081526004016102fa90612133565b60405180910390fd5b8180602001906103139190612162565b602001358280600001906103279190612162565b602001357f080631928e492258b6a102fc2ab3e0a8dfcb747ab0885c25f9cb7a8d4862103684806000019061035c9190612162565b806000019061036b919061218a565b86806020019061037b9190612162565b806000019061038a919061218a565b88806060019061039a91906121ed565b8a60400160208101906103ad9190612250565b6040516103c097969594939291906122f5565b60405180910390a3505050565b600160149054906101000a900460ff1661041c576040517f08c379a0000000000000000000000000000000000000000000000000000000008152600401610413906123a1565b60405180910390fd5b600160009054906101000a900473ffffffffffffffffffffffffffffffffffffffff1673ffffffffffffffffffffffffffffffffffffffff1663e1ec100c600284846040518463ffffffff1660e01b815260040161047c939291906124b7565b60206040518083038186803b15801561049457600080fd5b505afa1580156104a8573d6000803e3d6000fd5b505050506040513d601f19601f820116820180604052508101906104cc9190612528565b61050b576040517f08c379a0000000000000000000000000000000000000000000000000000000008152600401610502906125c7565b60405180910390fd5b81816002919061051c9291906112d2565b505050565b600160009054906101000a900473ffffffffffffffffffffffffffffffffffffffff1673ffffffffffffffffffffffffffffffffffffffff16639511059d6002836040518060800160405280605b81526020016130a3605b91396040518463ffffffff1660e01b815260040161059993929190612758565b60206040518083038186803b1580156105b157600080fd5b505afa1580156105c5573d6000803e3d6000fd5b505050506040513d601f19601f820116820180604052508101906105e99190612528565b610628576040517f08c379a000000000000000000000000000000000000000000000000000000000815260040161061f90612803565b60405180910390fd5b60008a905060008173ffffffffffffffffffffffffffffffffffffffff1663486592198c8c8c8c8c8c8c8c6040518963ffffffff1660e01b8152600401610676989796959493929190612967565b602060405180830381600087803b15801561069057600080fd5b505af11580156106a4573d6000803e3d6000fd5b505050506040513d601f19601f820116820180604052508101906106c891906129ef565b9050868c73ffffffffffffffffffffffffffffffffffffffff167f9a93c124e7f0aa93d3fbe660b1366e0483b4267619924382261498efbb92c873838d8d8d8c8c8c60405161071d9796959493929190612a1c565b60405180910390a3505050505050505050505050565b61073b611188565b600160149054906101000a900460ff161561078b576040517f08c379a000000000000000000000000000000000000000000000000000000000815260040161078290612acd565b60405180910390fd5b60018060146101000a81548160ff0219169083151502179055508181600291906107b69291906112d2565b5050505050565b6107c5611358565b600460008473ffffffffffffffffffffffffffffffffffffffff1673ffffffffffffffffffffffffffffffffffffffff16815260200190815260200160002060008381526020019081526020016000206040518060a0016040529081600082015481526020016001820160009054906101000a900460ff16600181111561084f5761084e611a20565b5b600181111561086157610860611a20565b5b815260200160028201805480602002602001604051908101604052809291908181526020016000905b828210156109365783829060005260206000200180546108a9906123f0565b80601f01602080910402602001604051908101604052809291908181526020018280546108d5906123f0565b80156109225780601f106108f757610100808354040283529160200191610922565b820191906000526020600020905b81548152906001019060200180831161090557829003601f168201915b50505050508152602001906001019061088a565b50505050815260200160038201805461094e906123f0565b80601f016020809104026020016040519081016040528092919081815260200182805461097a906123f0565b80156109c75780601f1061099c576101008083540402835291602001916109c7565b820191906000526020600020905b8154815290600101906020018083116109aa57829003601f168201915b50505050508152602001600482015481525050905092915050565b600160009054906101000a900473ffffffffffffffffffffffffffffffffffffffff1673ffffffffffffffffffffffffffffffffffffffff16639511059d6002836040518060800160405280605e8152602001613045605e91396040518463ffffffff1660e01b8152600401610a5a93929190612758565b60206040518083038186803b158015610a7257600080fd5b505afa158015610a86573d6000803e3d6000fd5b505050506040513d601f19601f82011682018060405250810190610aaa9190612528565b610ae9576040517f08c379a0000000000000000000000000000000000000000000000000000000008152600401610ae090612803565b60405180910390fd5b60008a90508073ffffffffffffffffffffffffffffffffffffffff1663e60a72938b86866040518463ffffffff1660e01b8152600401610b2b93929190612aed565b600060405180830381600087803b158015610b4557600080fd5b505af1158015610b59573d6000803e3d6000fd5b505050506040518060a00160405280848152602001886001811115610b8157610b80611a20565b5b81526020018a8a90610b939190612cf8565b815260200187878080601f016020809104026020016040519081016040528093929190818152602001838380828437600081840152601f19601f82011690508083019250505050505050815260200185815250600460008d73ffffffffffffffffffffffffffffffffffffffff1673ffffffffffffffffffffffffffffffffffffffff16815260200190815260200160002060008c81526020019081526020016000206000820151816000015560208201518160010160006101000a81548160ff02191690836001811115610c6b57610c6a611a20565b5b02179055506040820151816002019080519060200190610c8c92919061139f565b506060820151816003019080519060200190610ca99291906113ff565b5060808201518160040155905050838a8c73ffffffffffffffffffffffffffffffffffffffff167f57ea540ad7b8bfd2813b8637764ba029fedc52de3f812934a46511506aa11b8e89898e8e604051610d059493929190612d0d565b60405180910390a45050505050505050505050565b610d238161115a565b610d62576040517f08c379a0000000000000000000000000000000000000000000000000000000008152600401610d5990612133565b60405180910390fd5b8273ffffffffffffffffffffffffffffffffffffffff1663b33c2577836040518263ffffffff1660e01b8152600401610d9b9190612ece565b600060405180830381600087803b158015610db557600080fd5b505af1158015610dc9573d6000803e3d6000fd5b50505050505050565b610dda611188565b610de46000611206565b565b60008060009054906101000a900473ffffffffffffffffffffffffffffffffffffffff16905090565b6004602052816000526040600020602052806000526040600020600091509150508060000154908060010160009054906101000a900460ff1690806003018054610e58906123f0565b80601f0160208091040260200160405190810160405280929190818152602001828054610e84906123f0565b8015610ed15780601f10610ea657610100808354040283529160200191610ed1565b820191906000526020600020905b815481529060010190602001808311610eb457829003601f168201915b5050505050908060040154905084565b60028054610eee906123f0565b80601f0160208091040260200160405190810160405280929190818152602001828054610f1a906123f0565b8015610f675780601f10610f3c57610100808354040283529160200191610f67565b820191906000526020600020905b815481529060010190602001808311610f4a57829003601f168201915b505050505081565b833373ffffffffffffffffffffffffffffffffffffffff167fe5f4762afde15256ce24aa385b449d27b7d2776921f3c673f8162ddb5b7a2f16858585604051610fba93929190612ef0565b60405180910390a350505050565b610fd18161115a565b611010576040517f08c379a000000000000000000000000000000000000000000000000000000000815260040161100790612133565b60405180910390fd5b8473ffffffffffffffffffffffffffffffffffffffff1663f45cf5e4856040518263ffffffff1660e01b81526004016110499190612ece565b600060405180830381600087803b15801561106357600080fd5b505af1158015611077573d6000803e3d6000fd5b505050505050505050565b3373ffffffffffffffffffffffffffffffffffffffff167f18280cf62c6d3f3519d7cff5c5b7e91021dd17a0278ba5668976d82bdc9faa9e83836040516110ca929190612f22565b60405180910390a25050565b6110de611188565b600073ffffffffffffffffffffffffffffffffffffffff168173ffffffffffffffffffffffffffffffffffffffff16141561114e576040517f08c379a000000000000000000000000000000000000000000000000000000000815260040161114590612fb8565b60405180910390fd5b61115781611206565b50565b60008082806020019061116d91906121ed565b9050141561117e5760009050611183565b600190505b919050565b6111906112ca565b73ffffffffffffffffffffffffffffffffffffffff166111ae610de6565b73ffffffffffffffffffffffffffffffffffffffff1614611204576040517f08c379a00000000000000000000000000000000000000000000000000000000081526004016111fb90613024565b60405180910390fd5b565b60008060009054906101000a900473ffffffffffffffffffffffffffffffffffffffff169050816000806101000a81548173ffffffffffffffffffffffffffffffffffffffff021916908373ffffffffffffffffffffffffffffffffffffffff1602179055508173ffffffffffffffffffffffffffffffffffffffff168173ffffffffffffffffffffffffffffffffffffffff167f8be0079c531659141344cd1fd0a4f28419497f9722a3daafe3b4186f6b6457e060405160405180910390a35050565b600033905090565b8280546112de906123f0565b90600052602060002090601f0160209004810192826113005760008555611347565b82601f1061131957803560ff1916838001178555611347565b82800160010185558215611347579182015b8281111561134657823582559160200191906001019061132b565b5b5090506113549190611485565b5090565b6040518060a00160405280600080191681526020016000600181111561138157611380611a20565b5b81526020016060815260200160608152602001600080191681525090565b8280548282559060005260206000209081019282156113ee579160200282015b828111156113ed5782518290805190602001906113dd9291906113ff565b50916020019190600101906113bf565b5b5090506113fb91906114a2565b5090565b82805461140b906123f0565b90600052602060002090601f01602090048101928261142d5760008555611474565b82601f1061144657805160ff1916838001178555611474565b82800160010185558215611474579182015b82811115611473578251825591602001919060010190611458565b5b5090506114819190611485565b5090565b5b8082111561149e576000816000905550600101611486565b5090565b5b808211156114c257600081816114b991906114c6565b506001016114a3565b5090565b5080546114d2906123f0565b6000825580601f106114e45750611503565b601f0160209004906000526020600020908101906115029190611485565b5b50565b6000604051905090565b600080fd5b600080fd5b600073ffffffffffffffffffffffffffffffffffffffff82169050919050565b60006115458261151a565b9050919050565b60006115578261153a565b9050919050565b6115678161154c565b811461157257600080fd5b50565b6000813590506115848161155e565b92915050565b600080fd5b600060c082840312156115a5576115a461158a565b5b81905092915050565b6000604082840312156115c4576115c361158a565b5b81905092915050565b6000806000606084860312156115e6576115e5611510565b5b60006115f486828701611575565b935050602084013567ffffffffffffffff81111561161557611614611515565b5b6116218682870161158f565b925050604084013567ffffffffffffffff81111561164257611641611515565b5b61164e868287016115ae565b9150509250925092565b600080fd5b600080fd5b600080fd5b60008083601f84011261167d5761167c611658565b5b8235905067ffffffffffffffff81111561169a5761169961165d565b5b6020830191508360018202830111156116b6576116b5611662565b5b9250929050565b600080602083850312156116d4576116d3611510565b5b600083013567ffffffffffffffff8111156116f2576116f1611515565b5b6116fe85828601611667565b92509250509250929050565b6117138161153a565b811461171e57600080fd5b50565b6000813590506117308161170a565b92915050565b6000819050919050565b61174981611736565b811461175457600080fd5b50565b60008135905061176681611740565b92915050565b6002811061177957600080fd5b50565b60008135905061178b8161176c565b92915050565b60008083601f8401126117a7576117a6611658565b5b8235905067ffffffffffffffff8111156117c4576117c361165d565b5b6020830191508360208202830111156117e0576117df611662565b5b9250929050565b60008083601f8401126117fd576117fc611658565b5b8235905067ffffffffffffffff81111561181a5761181961165d565b5b60208301915083600182028301111561183657611835611662565b5b9250929050565b6000806000806000806000806000806101008b8d03121561186157611860611510565b5b600061186f8d828e01611721565b9a505060206118808d828e01611757565b99505060406118918d828e0161177c565b98505060608b013567ffffffffffffffff8111156118b2576118b1611515565b5b6118be8d828e01611791565b975097505060806118d18d828e01611757565b95505060a08b013567ffffffffffffffff8111156118f2576118f1611515565b5b6118fe8d828e016117e7565b945094505060c06119118d828e01611757565b92505060e08b013567ffffffffffffffff81111561193257611931611515565b5b61193e8d828e016115ae565b9150509295989b9194979a5092959850565b6000806000806040858703121561196a57611969611510565b5b600085013567ffffffffffffffff81111561198857611987611515565b5b61199487828801611667565b9450945050602085013567ffffffffffffffff8111156119b7576119b6611515565b5b6119c387828801611667565b925092505092959194509250565b600080604083850312156119e8576119e7611510565b5b60006119f685828601611721565b9250506020611a0785828601611757565b9150509250929050565b611a1a81611736565b82525050565b7f4e487b7100000000000000000000000000000000000000000000000000000000600052602160045260246000fd5b60028110611a6057611a5f611a20565b5b50565b6000819050611a7182611a4f565b919050565b6000611a8182611a63565b9050919050565b611a9181611a76565b82525050565b600081519050919050565b600082825260208201905092915050565b6000819050602082019050919050565b600081519050919050565b600082825260208201905092915050565b60005b83811015611afd578082015181840152602081019050611ae2565b83811115611b0c576000848401525b50505050565b6000601f19601f8301169050919050565b6000611b2e82611ac3565b611b388185611ace565b9350611b48818560208601611adf565b611b5181611b12565b840191505092915050565b6000611b688383611b23565b905092915050565b6000602082019050919050565b6000611b8882611a97565b611b928185611aa2565b935083602082028501611ba485611ab3565b8060005b85811015611be05784840389528151611bc18582611b5c565b9450611bcc83611b70565b925060208a01995050600181019050611ba8565b50829750879550505050505092915050565b600060a083016000830151611c0a6000860182611a11565b506020830151611c1d6020860182611a88565b5060408301518482036040860152611c358282611b7d565b91505060608301518482036060860152611c4f8282611b23565b9150506080830151611c646080860182611a11565b508091505092915050565b60006020820190508181036000830152611c898184611bf2565b905092915050565b6000806000806000806000806000806101008b8d031215611cb557611cb4611510565b5b6000611cc38d828e01611721565b9a50506020611cd48d828e01611757565b99505060408b013567ffffffffffffffff811115611cf557611cf4611515565b5b611d018d828e01611791565b98509850506060611d148d828e0161177c565b96505060808b013567ffffffffffffffff811115611d3557611d34611515565b5b611d418d828e016117e7565b955095505060a0611d548d828e01611757565b93505060c0611d658d828e01611757565b92505060e08b013567ffffffffffffffff811115611d8657611d85611515565b5b611d928d828e016115ae565b9150509295989b9194979a5092959850565b611dad8161153a565b82525050565b6000602082019050611dc86000830184611da4565b92915050565b611dd781611736565b82525050565b611de681611a76565b82525050565b600082825260208201905092915050565b6000611e0882611ac3565b611e128185611dec565b9350611e22818560208601611adf565b611e2b81611b12565b840191505092915050565b6000608082019050611e4b6000830187611dce565b611e586020830186611ddd565b8181036040830152611e6a8185611dfd565b9050611e796060830184611dce565b95945050505050565b600081519050919050565b600082825260208201905092915050565b6000611ea982611e82565b611eb38185611e8d565b9350611ec3818560208601611adf565b611ecc81611b12565b840191505092915050565b60006020820190508181036000830152611ef18184611e9e565b905092915050565b600067ffffffffffffffff82169050919050565b611f1681611ef9565b8114611f2157600080fd5b50565b600081359050611f3381611f0d565b92915050565b60008060008060608587031215611f5357611f52611510565b5b6000611f6187828801611757565b945050602085013567ffffffffffffffff811115611f8257611f81611515565b5b611f8e87828801611667565b93509350506040611fa187828801611f24565b91505092959194509250565b600080600080600060808688031215611fc957611fc8611510565b5b6000611fd788828901611575565b955050602086013567ffffffffffffffff811115611ff857611ff7611515565b5b6120048882890161158f565b945050604086013567ffffffffffffffff81111561202557612024611515565b5b61203188828901611667565b9350935050606086013567ffffffffffffffff81111561205457612053611515565b5b612060888289016115ae565b9150509295509295909350565b6000806020838503121561208457612083611510565b5b600083013567ffffffffffffffff8111156120a2576120a1611515565b5b6120ae858286016117e7565b92509250509250929050565b6000602082840312156120d0576120cf611510565b5b60006120de84828501611721565b91505092915050565b7f50726f6f6620766572696669636174696f6e206661696c656400000000000000600082015250565b600061211d601983611dec565b9150612128826120e7565b602082019050919050565b6000602082019050818103600083015261214c81612110565b9050919050565b600080fd5b600080fd5b600080fd5b60008235600160400383360303811261217e5761217d612153565b5b80830191505092915050565b600080833560016020038436030381126121a7576121a6612153565b5b80840192508235915067ffffffffffffffff8211156121c9576121c8612158565b5b6020830192506001820236038313156121e5576121e461215d565b5b509250929050565b6000808335600160200384360303811261220a57612209612153565b5b80840192508235915067ffffffffffffffff82111561222c5761222b612158565b5b6020830192506001820236038313156122485761224761215d565b5b509250929050565b60006020828403121561226657612265611510565b5b600061227484828501611f24565b91505092915050565b82818337600083830152505050565b60006122988385611dec565b93506122a583858461227d565b6122ae83611b12565b840190509392505050565b60006122c58385611e8d565b93506122d283858461227d565b6122db83611b12565b840190509392505050565b6122ef81611ef9565b82525050565b6000608082019050818103600083015261231081898b61228c565b9050818103602083015261232581878961228c565b9050818103604083015261233a8185876122b9565b905061234960608301846122e6565b98975050505050505050565b7f436c69656e74206e6f7420637265617465640000000000000000000000000000600082015250565b600061238b601283611dec565b915061239682612355565b602082019050919050565b600060208201905081810360008301526123ba8161237e565b9050919050565b7f4e487b7100000000000000000000000000000000000000000000000000000000600052602260045260246000fd5b6000600282049050600182168061240857607f821691505b6020821081141561241c5761241b6123c1565b5b50919050565b60008190508160005260206000209050919050565b60008154612444816123f0565b61244e8186611e8d565b94506001821660008114612469576001811461247b576124ae565b60ff19831686526020860193506124ae565b61248485612422565b60005b838110156124a657815481890152600182019150602081019050612487565b808801955050505b50505092915050565b600060408201905081810360008301526124d18186612437565b905081810360208301526124e68184866122b9565b9050949350505050565b60008115159050919050565b612505816124f0565b811461251057600080fd5b50565b600081519050612522816124fc565b92915050565b60006020828403121561253e5761253d611510565b5b600061254c84828501612513565b91505092915050565b7f436f6e73656e73757320737461746520766572696669636174696f6e2066616960008201527f6c65640000000000000000000000000000000000000000000000000000000000602082015250565b60006125b1602383611dec565b91506125bc82612555565b604082019050919050565b600060208201905081810360008301526125e0816125a4565b9050919050565b60006125f66020840184611f24565b905092915050565b61260781611ef9565b82525050565b600080fd5b600080fd5b600080fd5b6000808335600160200384360303811261263957612638612617565b5b83810192508235915060208301925067ffffffffffffffff8211156126615761266061260d565b5b60018202360384131561267757612676612612565b5b509250929050565b600082825260208201905092915050565b600061269c838561267f565b93506126a983858461227d565b6126b283611b12565b840190509392505050565b6000604083016126d060008401846125e7565b6126dd60008601826125fe565b506126eb602084018461261c565b85830360208701526126fe838284612690565b925050508091505092915050565b7f6368616e6e656c2f706174682f746f2f62652f61646465642f68657265000000600082015250565b6000612742601d83611e8d565b915061274d8261270c565b602082019050919050565b600060808201905081810360008301526127728186612437565b9050818103602083015261278681856126bd565b9050818103604083015261279981612735565b905081810360608301526127ad8184611e9e565b9050949350505050565b7f4661696c20746f2070726f7665206368616e6e656c2073746174650000000000600082015250565b60006127ed601b83611dec565b91506127f8826127b7565b602082019050919050565b6000602082019050818103600083015261281c816127e0565b9050919050565b600082825260208201905092915050565b6000819050919050565b600061284a8385611ace565b935061285783858461227d565b61286083611b12565b840190509392505050565b600061287884848461283e565b90509392505050565b6000808335600160200384360303811261289e5761289d612617565b5b83810192508235915060208301925067ffffffffffffffff8211156128c6576128c561260d565b5b6001820236038413156128dc576128db612612565b5b509250929050565b6000602082019050919050565b60006128fd8385612823565b93508360208402850161290f84612834565b8060005b8781101561295557848403895261292a8284612881565b61293586828461286b565b9550612940846128e4565b935060208b019a505050600181019050612913565b50829750879450505050509392505050565b600060c08201905061297c600083018b611dce565b612989602083018a611ddd565b818103604083015261299c81888a6128f1565b90506129ab6060830187611dce565b81810360808301526129be81858761228c565b90506129cd60a0830184611dce565b9998505050505050505050565b6000815190506129e981611740565b92915050565b600060208284031215612a0557612a04611510565b5b6000612a13848285016129da565b91505092915050565b600060a082019050612a31600083018a611dce565b612a3e6020830189611ddd565b8181036040830152612a518187896128f1565b90508181036060830152612a6681858761228c565b9050612a756080830184611dce565b98975050505050505050565b7f436c69656e7420616c7265616479206372656174656400000000000000000000600082015250565b6000612ab7601683611dec565b9150612ac282612a81565b602082019050919050565b60006020820190508181036000830152612ae681612aaa565b9050919050565b6000606082019050612b026000830186611dce565b612b0f6020830185611dce565b612b1c6040830184611dce565b949350505050565b7f4e487b7100000000000000000000000000000000000000000000000000000000600052604160045260246000fd5b612b5c82611b12565b810181811067ffffffffffffffff82111715612b7b57612b7a612b24565b5b80604052505050565b6000612b8e611506565b9050612b9a8282612b53565b919050565b600067ffffffffffffffff821115612bba57612bb9612b24565b5b602082029050602081019050919050565b600080fd5b600067ffffffffffffffff821115612beb57612bea612b24565b5b612bf482611b12565b9050602081019050919050565b6000612c14612c0f84612bd0565b612b84565b905082815260208101848484011115612c3057612c2f612bcb565b5b612c3b84828561227d565b509392505050565b600082601f830112612c5857612c57611658565b5b8135612c68848260208601612c01565b91505092915050565b6000612c84612c7f84612b9f565b612b84565b90508083825260208201905060208402830185811115612ca757612ca6611662565b5b835b81811015612cee57803567ffffffffffffffff811115612ccc57612ccb611658565b5b808601612cd98982612c43565b85526020850194505050602081019050612ca9565b5050509392505050565b6000612d05368484612c71565b905092915050565b60006040820190508181036000830152612d2881868861228c565b90508181036020830152612d3d8184866128f1565b905095945050505050565b600082356001604003833603038112612d6457612d63612617565b5b82810191505092915050565b6000612d7f6020840184611757565b905092915050565b600060408301612d9a6000840184612881565b8583036000870152612dad83828461283e565b92505050612dbe6020840184612d70565b612dcb6020860182611a11565b508091505092915050565b600082905092915050565b60408201612df260008301836125e7565b612dff60008501826125fe565b50612e0d60208301836125e7565b612e1a60208501826125fe565b50505050565b600060c08301612e336000840184612d48565b8482036000860152612e458282612d87565b915050612e556020840184612d48565b8482036020860152612e678282612d87565b915050612e7760408401846125e7565b612e8460408601826125fe565b50612e92606084018461261c565b8583036060870152612ea5838284612690565b92505050612eb66080840184612dd6565b612ec36080860182612de1565b508091505092915050565b60006020820190508181036000830152612ee88184612e20565b905092915050565b60006040820190508181036000830152612f0b8185876122b9565b9050612f1a60208301846122e6565b949350505050565b60006020820190508181036000830152612f3d81848661228c565b90509392505050565b7f4f776e61626c653a206e6577206f776e657220697320746865207a65726f206160008201527f6464726573730000000000000000000000000000000000000000000000000000602082015250565b6000612fa2602683611dec565b9150612fad82612f46565b604082019050919050565b60006020820190508181036000830152612fd181612f95565b9050919050565b7f4f776e61626c653a2063616c6c6572206973206e6f7420746865206f776e6572600082015250565b600061300e602083611dec565b915061301982612fd8565b602082019050919050565b6000602082019050818103600083015261303d81613001565b905091905056fe6578706563746564206368616e6e656c20627974657320636f6e73747275637465642066726f6d20706172616d732e204368616e6e656c2e5374617465203d207b41636b5f50656e64696e672c20436f6e6669726d5f50656e64696e677d6578706563746564206368616e6e656c20627974657320636f6e73747275637465642066726f6d20706172616d732e204368616e6e656c2e5374617465203d207b496e69745f50656e64696e672c205472795f50656e64696e677da26469706673582212208d968a0fc8620f12b4b28cef8a27c804d357339904cb65ec236a02b3f963d59864736f6c63430008090033",
  "linkReferences": {},
  "deployedLinkReferences": {}
}