{
  "_format": "hh-sol-artifact-1",
  "contractName": "Dispatcher",
  "sourceName": "contracts/Dispatcher.sol",
  "abi": [
    {
      "inputs": [
        {
          "internalType": "address",
          "name": "_verifier",
          "type": "address"
        }
      ],
      "stateMutability": "nonpayable",
      "type": "constructor"
    },
    {
      "anonymous": false,
      "inputs": [
        {
          "indexed": false,
          "internalType": "string",
          "name": "channelId",
          "type": "string"
        },
        {
          "indexed": true,
          "internalType": "address",
          "name": "portId",
          "type": "address"
        }
      ],
      "name": "CloseIbcChannel",
      "type": "event"
    },
    {
      "anonymous": false,
      "inputs": [
        {
          "indexed": false,
          "internalType": "string",
          "name": "channelId",
          "type": "string"
        },
        {
          "indexed": true,
          "internalType": "address",
          "name": "portId",
          "type": "address"
        },
        {
          "indexed": false,
          "internalType": "string",
          "name": "counterPartyChannelId",
          "type": "string"
        },
        {
          "indexed": false,
          "internalType": "string",
          "name": "counterPartyPortId",
          "type": "string"
        },
        {
          "indexed": false,
          "internalType": "string",
          "name": "counterPartyVersion",
          "type": "string"
        }
      ],
      "name": "ConnectIbcChannel",
      "type": "event"
    },
    {
      "anonymous": false,
      "inputs": [
        {
          "indexed": true,
          "internalType": "bytes32",
          "name": "srcChannelId",
          "type": "bytes32"
        },
        {
          "indexed": false,
          "internalType": "string",
          "name": "srcPortId",
          "type": "string"
        },
        {
          "indexed": true,
          "internalType": "bytes32",
          "name": "destChannelId",
          "type": "bytes32"
        },
        {
          "indexed": false,
          "internalType": "string",
          "name": "destPortId",
          "type": "string"
        },
        {
          "indexed": false,
          "internalType": "bytes",
          "name": "data",
          "type": "bytes"
        },
        {
          "indexed": false,
          "internalType": "uint64",
          "name": "sequence",
          "type": "uint64"
        }
      ],
      "name": "OnRecvPacket",
      "type": "event"
    },
    {
      "anonymous": false,
      "inputs": [
        {
          "indexed": false,
          "internalType": "string",
          "name": "connectionId",
          "type": "string"
        },
        {
          "indexed": true,
          "internalType": "address",
          "name": "connectionPortId",
          "type": "address"
        },
        {
          "indexed": false,
          "internalType": "string",
          "name": "counterPartyConnectionId",
          "type": "string"
        },
        {
          "indexed": false,
          "internalType": "string",
          "name": "counterPartyPortId",
          "type": "string"
        },
        {
          "indexed": false,
          "internalType": "string",
          "name": "version",
          "type": "string"
        }
      ],
      "name": "OpenIbcChannel",
      "type": "event"
    },
    {
      "anonymous": false,
      "inputs": [
        {
          "indexed": true,
          "internalType": "address",
          "name": "previousOwner",
          "type": "address"
        },
        {
          "indexed": true,
          "internalType": "address",
          "name": "newOwner",
          "type": "address"
        }
      ],
      "name": "OwnershipTransferred",
      "type": "event"
    },
    {
      "anonymous": false,
      "inputs": [
        {
          "indexed": true,
          "internalType": "address",
          "name": "portId",
          "type": "address"
        },
        {
          "indexed": true,
          "internalType": "bytes32",
          "name": "channelId",
          "type": "bytes32"
        },
        {
          "indexed": false,
          "internalType": "bytes",
          "name": "packet",
          "type": "bytes"
        },
        {
          "indexed": false,
          "internalType": "uint64",
          "name": "timeoutTimestamp",
          "type": "uint64"
        }
      ],
      "name": "SendPacket",
      "type": "event"
    },
    {
      "inputs": [
        {
          "internalType": "string",
          "name": "channelId",
          "type": "string"
        }
      ],
      "name": "closeIbcChannel",
      "outputs": [],
      "stateMutability": "nonpayable",
      "type": "function"
    },
    {
      "inputs": [
        {
          "internalType": "string",
          "name": "channelId",
          "type": "string"
        },
        {
          "internalType": "string",
          "name": "counterPartyChannelId",
          "type": "string"
        },
        {
          "internalType": "string",
          "name": "counterPartyPortId",
          "type": "string"
        },
        {
          "internalType": "string",
          "name": "counterPartyVersion",
          "type": "string"
        }
      ],
      "name": "connectIbcChannel",
      "outputs": [],
      "stateMutability": "nonpayable",
      "type": "function"
    },
    {
      "inputs": [
        {
          "internalType": "bytes",
          "name": "clientState",
          "type": "bytes"
        },
        {
          "internalType": "bytes",
          "name": "consensusState",
          "type": "bytes"
        }
      ],
      "name": "createClient",
      "outputs": [],
      "stateMutability": "nonpayable",
      "type": "function"
    },
    {
      "inputs": [],
      "name": "latestConsensusState",
      "outputs": [
        {
          "internalType": "bytes",
          "name": "",
          "type": "bytes"
        }
      ],
      "stateMutability": "view",
      "type": "function"
    },
    {
      "inputs": [
        {
          "internalType": "contract IbcReceiver",
          "name": "receiver",
          "type": "address"
        },
        {
          "components": [
            {
              "components": [
                {
                  "internalType": "string",
                  "name": "portId",
                  "type": "string"
                },
                {
                  "internalType": "bytes32",
                  "name": "channelId",
                  "type": "bytes32"
                }
              ],
              "internalType": "struct IbcEndpoint",
              "name": "src",
              "type": "tuple"
            },
            {
              "components": [
                {
                  "internalType": "string",
                  "name": "portId",
                  "type": "string"
                },
                {
                  "internalType": "bytes32",
                  "name": "channelId",
                  "type": "bytes32"
                }
              ],
              "internalType": "struct IbcEndpoint",
              "name": "dest",
              "type": "tuple"
            },
            {
              "internalType": "uint64",
              "name": "sequence",
              "type": "uint64"
            },
            {
              "internalType": "bytes",
              "name": "data",
              "type": "bytes"
            },
            {
              "components": [
                {
                  "internalType": "uint64",
                  "name": "block",
                  "type": "uint64"
                },
                {
                  "internalType": "uint64",
                  "name": "timestamp",
                  "type": "uint64"
                }
              ],
              "internalType": "struct IbcTimeout",
              "name": "timeout",
              "type": "tuple"
            }
          ],
          "internalType": "struct IbcPacket",
          "name": "packet",
          "type": "tuple"
        },
        {
          "internalType": "bytes",
          "name": "acknowledgement",
          "type": "bytes"
        },
        {
          "components": [
            {
              "internalType": "bytes",
              "name": "keyPath",
              "type": "bytes"
            },
            {
              "internalType": "bytes",
              "name": "value",
              "type": "bytes"
            },
            {
              "internalType": "bytes",
              "name": "proof",
              "type": "bytes"
            }
          ],
          "internalType": "struct Proof",
          "name": "proof",
          "type": "tuple"
        }
      ],
      "name": "onAcknowledgementPacket",
      "outputs": [],
      "stateMutability": "nonpayable",
      "type": "function"
    },
    {
      "inputs": [
        {
          "internalType": "contract IbcReceiver",
          "name": "receiver",
          "type": "address"
        },
        {
          "internalType": "string",
          "name": "channelId",
          "type": "string"
        },
        {
          "components": [
            {
              "internalType": "bytes",
              "name": "keyPath",
              "type": "bytes"
            },
            {
              "internalType": "bytes",
              "name": "value",
              "type": "bytes"
            },
            {
              "internalType": "bytes",
              "name": "proof",
              "type": "bytes"
            }
          ],
          "internalType": "struct Proof",
          "name": "proof",
          "type": "tuple"
        },
        {
          "internalType": "string",
          "name": "error",
          "type": "string"
        }
      ],
      "name": "onCloseIbcChannel",
      "outputs": [],
      "stateMutability": "nonpayable",
      "type": "function"
    },
    {
      "inputs": [
        {
          "internalType": "contract IbcReceiver",
          "name": "receiver",
          "type": "address"
        },
        {
          "internalType": "string",
          "name": "channelId",
          "type": "string"
        },
        {
          "components": [
            {
              "internalType": "bytes",
              "name": "keyPath",
              "type": "bytes"
            },
            {
              "internalType": "bytes",
              "name": "value",
              "type": "bytes"
            },
            {
              "internalType": "bytes",
              "name": "proof",
              "type": "bytes"
            }
          ],
          "internalType": "struct Proof",
          "name": "proof",
          "type": "tuple"
        },
        {
          "internalType": "string",
          "name": "error",
          "type": "string"
        }
      ],
      "name": "onConnectIbcChannel",
      "outputs": [],
      "stateMutability": "nonpayable",
      "type": "function"
    },
    {
      "inputs": [
        {
          "internalType": "contract IbcReceiver",
          "name": "receiver",
          "type": "address"
        },
        {
          "internalType": "string",
          "name": "channelId",
          "type": "string"
        },
        {
          "internalType": "string",
          "name": "version",
          "type": "string"
        },
        {
          "components": [
            {
              "internalType": "bytes",
              "name": "keyPath",
              "type": "bytes"
            },
            {
              "internalType": "bytes",
              "name": "value",
              "type": "bytes"
            },
            {
              "internalType": "bytes",
              "name": "proof",
              "type": "bytes"
            }
          ],
          "internalType": "struct Proof",
          "name": "proof",
          "type": "tuple"
        },
        {
          "internalType": "string",
          "name": "error",
          "type": "string"
        }
      ],
      "name": "onOpenIbcChannel",
      "outputs": [],
      "stateMutability": "nonpayable",
      "type": "function"
    },
    {
      "inputs": [
        {
          "internalType": "contract IbcReceiver",
          "name": "receiver",
          "type": "address"
        },
        {
          "components": [
            {
              "components": [
                {
                  "internalType": "string",
                  "name": "portId",
                  "type": "string"
                },
                {
                  "internalType": "bytes32",
                  "name": "channelId",
                  "type": "bytes32"
                }
              ],
              "internalType": "struct IbcEndpoint",
              "name": "src",
              "type": "tuple"
            },
            {
              "components": [
                {
                  "internalType": "string",
                  "name": "portId",
                  "type": "string"
                },
                {
                  "internalType": "bytes32",
                  "name": "channelId",
                  "type": "bytes32"
                }
              ],
              "internalType": "struct IbcEndpoint",
              "name": "dest",
              "type": "tuple"
            },
            {
              "internalType": "uint64",
              "name": "sequence",
              "type": "uint64"
            },
            {
              "internalType": "bytes",
              "name": "data",
              "type": "bytes"
            },
            {
              "components": [
                {
                  "internalType": "uint64",
                  "name": "block",
                  "type": "uint64"
                },
                {
                  "internalType": "uint64",
                  "name": "timestamp",
                  "type": "uint64"
                }
              ],
              "internalType": "struct IbcTimeout",
              "name": "timeout",
              "type": "tuple"
            }
          ],
          "internalType": "struct IbcPacket",
          "name": "packet",
          "type": "tuple"
        },
        {
          "components": [
            {
              "internalType": "bytes",
              "name": "keyPath",
              "type": "bytes"
            },
            {
              "internalType": "bytes",
              "name": "value",
              "type": "bytes"
            },
            {
              "internalType": "bytes",
              "name": "proof",
              "type": "bytes"
            }
          ],
          "internalType": "struct Proof",
          "name": "proof",
          "type": "tuple"
        }
      ],
      "name": "onRecvPacket",
      "outputs": [],
      "stateMutability": "nonpayable",
      "type": "function"
    },
    {
      "inputs": [
        {
          "internalType": "contract IbcReceiver",
          "name": "receiver",
          "type": "address"
        },
        {
          "components": [
            {
              "components": [
                {
                  "internalType": "string",
                  "name": "portId",
                  "type": "string"
                },
                {
                  "internalType": "bytes32",
                  "name": "channelId",
                  "type": "bytes32"
                }
              ],
              "internalType": "struct IbcEndpoint",
              "name": "src",
              "type": "tuple"
            },
            {
              "components": [
                {
                  "internalType": "string",
                  "name": "portId",
                  "type": "string"
                },
                {
                  "internalType": "bytes32",
                  "name": "channelId",
                  "type": "bytes32"
                }
              ],
              "internalType": "struct IbcEndpoint",
              "name": "dest",
              "type": "tuple"
            },
            {
              "internalType": "uint64",
              "name": "sequence",
              "type": "uint64"
            },
            {
              "internalType": "bytes",
              "name": "data",
              "type": "bytes"
            },
            {
              "components": [
                {
                  "internalType": "uint64",
                  "name": "block",
                  "type": "uint64"
                },
                {
                  "internalType": "uint64",
                  "name": "timestamp",
                  "type": "uint64"
                }
              ],
              "internalType": "struct IbcTimeout",
              "name": "timeout",
              "type": "tuple"
            }
          ],
          "internalType": "struct IbcPacket",
          "name": "packet",
          "type": "tuple"
        },
        {
          "components": [
            {
              "internalType": "bytes",
              "name": "keyPath",
              "type": "bytes"
            },
            {
              "internalType": "bytes",
              "name": "value",
              "type": "bytes"
            },
            {
              "internalType": "bytes",
              "name": "proof",
              "type": "bytes"
            }
          ],
          "internalType": "struct Proof",
          "name": "proof",
          "type": "tuple"
        }
      ],
      "name": "onTimeoutPacket",
      "outputs": [],
      "stateMutability": "nonpayable",
      "type": "function"
    },
    {
      "inputs": [
        {
          "internalType": "string",
          "name": "connectionId",
          "type": "string"
        },
        {
          "internalType": "string",
          "name": "counterPartyConnectionId",
          "type": "string"
        },
        {
          "internalType": "string",
          "name": "counterPartyPortId",
          "type": "string"
        },
        {
          "internalType": "enum IbcOrder",
          "name": "order",
          "type": "uint8"
        },
        {
          "internalType": "string",
          "name": "version",
          "type": "string"
        }
      ],
      "name": "openIbcChannel",
      "outputs": [],
      "stateMutability": "nonpayable",
      "type": "function"
    },
    {
      "inputs": [],
      "name": "owner",
      "outputs": [
        {
          "internalType": "address",
          "name": "",
          "type": "address"
        }
      ],
      "stateMutability": "view",
      "type": "function"
    },
    {
      "inputs": [],
      "name": "renounceOwnership",
      "outputs": [],
      "stateMutability": "nonpayable",
      "type": "function"
    },
    {
      "inputs": [
        {
          "internalType": "bytes32",
          "name": "channelId",
          "type": "bytes32"
        },
        {
          "internalType": "bytes",
          "name": "packet",
          "type": "bytes"
        },
        {
          "internalType": "uint64",
          "name": "timeoutTimestamp",
          "type": "uint64"
        }
      ],
      "name": "sendPacket",
      "outputs": [],
      "stateMutability": "nonpayable",
      "type": "function"
    },
    {
      "inputs": [
        {
          "internalType": "address",
          "name": "newOwner",
          "type": "address"
        }
      ],
      "name": "transferOwnership",
      "outputs": [],
      "stateMutability": "nonpayable",
      "type": "function"
    },
    {
      "inputs": [
        {
          "internalType": "bytes",
          "name": "consensusState",
          "type": "bytes"
        }
      ],
      "name": "updateClient",
      "outputs": [],
      "stateMutability": "nonpayable",
      "type": "function"
    },
    {
      "inputs": [],
      "name": "verifier",
      "outputs": [
        {
          "internalType": "contract ZKMintVerifier",
          "name": "",
          "type": "address"
        }
      ],
      "stateMutability": "view",
      "type": "function"
    }
  ],
  "bytecode": "0x60806040523480156200001157600080fd5b506040516200258c3803806200258c8339818101604052810190620000379190620001f0565b620000576200004b620000ba60201b60201c565b620000c260201b60201c565b80600160006101000a81548173ffffffffffffffffffffffffffffffffffffffff021916908373ffffffffffffffffffffffffffffffffffffffff1602179055506000600160146101000a81548160ff0219169083151502179055505062000222565b600033905090565b60008060009054906101000a900473ffffffffffffffffffffffffffffffffffffffff169050816000806101000a81548173ffffffffffffffffffffffffffffffffffffffff021916908373ffffffffffffffffffffffffffffffffffffffff1602179055508173ffffffffffffffffffffffffffffffffffffffff168173ffffffffffffffffffffffffffffffffffffffff167f8be0079c531659141344cd1fd0a4f28419497f9722a3daafe3b4186f6b6457e060405160405180910390a35050565b600080fd5b600073ffffffffffffffffffffffffffffffffffffffff82169050919050565b6000620001b8826200018b565b9050919050565b620001ca81620001ab565b8114620001d657600080fd5b50565b600081519050620001ea81620001bf565b92915050565b60006020828403121562000209576200020862000186565b5b60006200021984828501620001d9565b91505092915050565b61235a80620002326000396000f3fe608060405234801561001057600080fd5b506004361061010b5760003560e01c80638b116848116100a2578063c3e1155c11610071578063c3e1155c14610254578063ca1288ed14610270578063dc4431001461028c578063e6815c12146102a8578063f2fde38b146102c45761010b565b80638b116848146101e05780638da5cb5b146101fc578063a878e1ba1461021a578063c2a2514d146102365761010b565b80632b7ac3f3116100de5780632b7ac3f3146101805780633e24aaf31461019e57806370c5dd53146101ba578063715018a6146101d65761010b565b806303941ec5146101105780630bece3561461012c578063260012e8146101485780632939301414610164575b600080fd5b61012a60048036038101906101259190610fb6565b6102e0565b005b61014660048036038101906101419190611076565b61039a565b005b610162600480360381019061015d91906110c3565b6104ed565b005b61017e600480360381019061017991906111c9565b6105ff565b005b610188610666565b6040516101959190611324565b60405180910390f35b6101b860048036038101906101b3919061133f565b61068c565b005b6101d460048036038101906101cf91906113c0565b610716565b005b6101de6107d7565b005b6101fa60048036038101906101f591906113c0565b6107eb565b005b6102046108ac565b6040516102119190611492565b60405180910390f35b610234600480360381019061022f91906114ad565b6108d5565b005b61023e61099c565b60405161024b919061163e565b60405180910390f35b61026e600480360381019061026991906116d6565b610a2a565b005b61028a6004803603810190610285919061174a565b610a83565b005b6102a660048036038101906102a191906110c3565b610ae9565b005b6102c260048036038101906102bd9190611833565b610ba1565b005b6102de60048036038101906102d991906118ac565b610bf5565b005b6102e981610c79565b610328576040517f08c379a000000000000000000000000000000000000000000000000000000000815260040161031f90611936565b60405180910390fd5b8473ffffffffffffffffffffffffffffffffffffffff1663f45cf5e4856040518263ffffffff1660e01b81526004016103619190611c71565b600060405180830381600087803b15801561037b57600080fd5b505af115801561038f573d6000803e3d6000fd5b505050505050505050565b600160149054906101000a900460ff166103e9576040517f08c379a00000000000000000000000000000000000000000000000000000000081526004016103e090611cdf565b60405180910390fd5b600160009054906101000a900473ffffffffffffffffffffffffffffffffffffffff1673ffffffffffffffffffffffffffffffffffffffff16638e760afe83836040518363ffffffff1660e01b8152600401610446929190611d2c565b602060405180830381600087803b15801561046057600080fd5b505af1158015610474573d6000803e3d6000fd5b505050506040513d601f19601f820116820180604052508101906104989190611d88565b6104d7576040517f08c379a00000000000000000000000000000000000000000000000000000000081526004016104ce90611e27565b60405180910390fd5b8181600291906104e8929190610df1565b505050565b6104f681610c79565b610535576040517f08c379a000000000000000000000000000000000000000000000000000000000815260040161052c90611936565b60405180910390fd5b8180602001906105459190611e56565b602001358280600001906105599190611e56565b602001357f080631928e492258b6a102fc2ab3e0a8dfcb747ab0885c25f9cb7a8d4862103684806000019061058e9190611e56565b806000019061059d9190611e7e565b8680602001906105ad9190611e56565b80600001906105bc9190611e7e565b8880606001906105cc9190611ee1565b8a60400160208101906105df9190611f44565b6040516105f29796959493929190611fad565b60405180910390a3505050565b3373ffffffffffffffffffffffffffffffffffffffff167f9ce02b1b641bb5e30c72716c9c859589507ea98e427becc1da24ef96341cfdc78a8a8a8a8a8a898960405161065398979695949392919061200d565b60405180910390a2505050505050505050565b600160009054906101000a900473ffffffffffffffffffffffffffffffffffffffff1681565b610694610ca7565b600160149054906101000a900460ff16156106e4576040517f08c379a00000000000000000000000000000000000000000000000000000000081526004016106db906120c2565b60405180910390fd5b60018060146101000a81548160ff02191690831515021790555081816002919061070f929190610df1565b5050505050565b61071f83610c79565b61075e576040517f08c379a000000000000000000000000000000000000000000000000000000000815260040161075590611936565b60405180910390fd5b8573ffffffffffffffffffffffffffffffffffffffff16630a845081868685856040518563ffffffff1660e01b815260040161079d94939291906120e2565b600060405180830381600087803b1580156107b757600080fd5b505af11580156107cb573d6000803e3d6000fd5b50505050505050505050565b6107df610ca7565b6107e96000610d25565b565b6107f483610c79565b610833576040517f08c379a000000000000000000000000000000000000000000000000000000000815260040161082a90611936565b60405180910390fd5b8573ffffffffffffffffffffffffffffffffffffffff16636afd6174868685856040518563ffffffff1660e01b815260040161087294939291906120e2565b600060405180830381600087803b15801561088c57600080fd5b505af11580156108a0573d6000803e3d6000fd5b50505050505050505050565b60008060009054906101000a900473ffffffffffffffffffffffffffffffffffffffff16905090565b6108de83610c79565b61091d576040517f08c379a000000000000000000000000000000000000000000000000000000000815260040161091490611936565b60405180910390fd5b8773ffffffffffffffffffffffffffffffffffffffff16632719503e8888888887876040518763ffffffff1660e01b81526004016109609695949392919061211d565b600060405180830381600087803b15801561097a57600080fd5b505af115801561098e573d6000803e3d6000fd5b505050505050505050505050565b600280546109a99061219e565b80601f01602080910402602001604051908101604052809291908181526020018280546109d59061219e565b8015610a225780601f106109f757610100808354040283529160200191610a22565b820191906000526020600020905b815481529060010190602001808311610a0557829003601f168201915b505050505081565b833373ffffffffffffffffffffffffffffffffffffffff167fe5f4762afde15256ce24aa385b449d27b7d2776921f3c673f8162ddb5b7a2f16858585604051610a75939291906121d0565b60405180910390a350505050565b3373ffffffffffffffffffffffffffffffffffffffff167fd38dbe544e1f1277b020a61acc0dd2cf9ddcf99471a49a288a3ada57f3206a738989898989898989604051610ad798979695949392919061200d565b60405180910390a25050505050505050565b610af281610c79565b610b31576040517f08c379a0000000000000000000000000000000000000000000000000000000008152600401610b2890611936565b60405180910390fd5b8273ffffffffffffffffffffffffffffffffffffffff1663b33c2577836040518263ffffffff1660e01b8152600401610b6a9190611c71565b600060405180830381600087803b158015610b8457600080fd5b505af1158015610b98573d6000803e3d6000fd5b50505050505050565b3373ffffffffffffffffffffffffffffffffffffffff167f18280cf62c6d3f3519d7cff5c5b7e91021dd17a0278ba5668976d82bdc9faa9e8383604051610be9929190612202565b60405180910390a25050565b610bfd610ca7565b600073ffffffffffffffffffffffffffffffffffffffff168173ffffffffffffffffffffffffffffffffffffffff161415610c6d576040517f08c379a0000000000000000000000000000000000000000000000000000000008152600401610c6490612298565b60405180910390fd5b610c7681610d25565b50565b600080828060400190610c8c9190611ee1565b90501415610c9d5760009050610ca2565b600190505b919050565b610caf610de9565b73ffffffffffffffffffffffffffffffffffffffff16610ccd6108ac565b73ffffffffffffffffffffffffffffffffffffffff1614610d23576040517f08c379a0000000000000000000000000000000000000000000000000000000008152600401610d1a90612304565b60405180910390fd5b565b60008060009054906101000a900473ffffffffffffffffffffffffffffffffffffffff169050816000806101000a81548173ffffffffffffffffffffffffffffffffffffffff021916908373ffffffffffffffffffffffffffffffffffffffff1602179055508173ffffffffffffffffffffffffffffffffffffffff168173ffffffffffffffffffffffffffffffffffffffff167f8be0079c531659141344cd1fd0a4f28419497f9722a3daafe3b4186f6b6457e060405160405180910390a35050565b600033905090565b828054610dfd9061219e565b90600052602060002090601f016020900481019282610e1f5760008555610e66565b82601f10610e3857803560ff1916838001178555610e66565b82800160010185558215610e66579182015b82811115610e65578235825591602001919060010190610e4a565b5b509050610e739190610e77565b5090565b5b80821115610e90576000816000905550600101610e78565b5090565b600080fd5b600080fd5b600073ffffffffffffffffffffffffffffffffffffffff82169050919050565b6000610ec982610e9e565b9050919050565b6000610edb82610ebe565b9050919050565b610eeb81610ed0565b8114610ef657600080fd5b50565b600081359050610f0881610ee2565b92915050565b600080fd5b600060c08284031215610f2957610f28610f0e565b5b81905092915050565b600080fd5b600080fd5b600080fd5b60008083601f840112610f5757610f56610f32565b5b8235905067ffffffffffffffff811115610f7457610f73610f37565b5b602083019150836001820283011115610f9057610f8f610f3c565b5b9250929050565b600060608284031215610fad57610fac610f0e565b5b81905092915050565b600080600080600060808688031215610fd257610fd1610e94565b5b6000610fe088828901610ef9565b955050602086013567ffffffffffffffff81111561100157611000610e99565b5b61100d88828901610f13565b945050604086013567ffffffffffffffff81111561102e5761102d610e99565b5b61103a88828901610f41565b9350935050606086013567ffffffffffffffff81111561105d5761105c610e99565b5b61106988828901610f97565b9150509295509295909350565b6000806020838503121561108d5761108c610e94565b5b600083013567ffffffffffffffff8111156110ab576110aa610e99565b5b6110b785828601610f41565b92509250509250929050565b6000806000606084860312156110dc576110db610e94565b5b60006110ea86828701610ef9565b935050602084013567ffffffffffffffff81111561110b5761110a610e99565b5b61111786828701610f13565b925050604084013567ffffffffffffffff81111561113857611137610e99565b5b61114486828701610f97565b9150509250925092565b60008083601f84011261116457611163610f32565b5b8235905067ffffffffffffffff81111561118157611180610f37565b5b60208301915083600182028301111561119d5761119c610f3c565b5b9250929050565b600281106111b157600080fd5b50565b6000813590506111c3816111a4565b92915050565b600080600080600080600080600060a08a8c0312156111eb576111ea610e94565b5b60008a013567ffffffffffffffff81111561120957611208610e99565b5b6112158c828d0161114e565b995099505060208a013567ffffffffffffffff81111561123857611237610e99565b5b6112448c828d0161114e565b975097505060408a013567ffffffffffffffff81111561126757611266610e99565b5b6112738c828d0161114e565b955095505060606112868c828d016111b4565b93505060808a013567ffffffffffffffff8111156112a7576112a6610e99565b5b6112b38c828d0161114e565b92509250509295985092959850929598565b6000819050919050565b60006112ea6112e56112e084610e9e565b6112c5565b610e9e565b9050919050565b60006112fc826112cf565b9050919050565b600061130e826112f1565b9050919050565b61131e81611303565b82525050565b60006020820190506113396000830184611315565b92915050565b6000806000806040858703121561135957611358610e94565b5b600085013567ffffffffffffffff81111561137757611376610e99565b5b61138387828801610f41565b9450945050602085013567ffffffffffffffff8111156113a6576113a5610e99565b5b6113b287828801610f41565b925092505092959194509250565b600080600080600080608087890312156113dd576113dc610e94565b5b60006113eb89828a01610ef9565b965050602087013567ffffffffffffffff81111561140c5761140b610e99565b5b61141889828a0161114e565b9550955050604087013567ffffffffffffffff81111561143b5761143a610e99565b5b61144789828a01610f97565b935050606087013567ffffffffffffffff81111561146857611467610e99565b5b61147489828a0161114e565b92509250509295509295509295565b61148c81610ebe565b82525050565b60006020820190506114a76000830184611483565b92915050565b60008060008060008060008060a0898b0312156114cd576114cc610e94565b5b60006114db8b828c01610ef9565b985050602089013567ffffffffffffffff8111156114fc576114fb610e99565b5b6115088b828c0161114e565b9750975050604089013567ffffffffffffffff81111561152b5761152a610e99565b5b6115378b828c0161114e565b9550955050606089013567ffffffffffffffff81111561155a57611559610e99565b5b6115668b828c01610f97565b935050608089013567ffffffffffffffff81111561158757611586610e99565b5b6115938b828c0161114e565b92509250509295985092959890939650565b600081519050919050565b600082825260208201905092915050565b60005b838110156115df5780820151818401526020810190506115c4565b838111156115ee576000848401525b50505050565b6000601f19601f8301169050919050565b6000611610826115a5565b61161a81856115b0565b935061162a8185602086016115c1565b611633816115f4565b840191505092915050565b600060208201905081810360008301526116588184611605565b905092915050565b6000819050919050565b61167381611660565b811461167e57600080fd5b50565b6000813590506116908161166a565b92915050565b600067ffffffffffffffff82169050919050565b6116b381611696565b81146116be57600080fd5b50565b6000813590506116d0816116aa565b92915050565b600080600080606085870312156116f0576116ef610e94565b5b60006116fe87828801611681565b945050602085013567ffffffffffffffff81111561171f5761171e610e99565b5b61172b87828801610f41565b9350935050604061173e878288016116c1565b91505092959194509250565b6000806000806000806000806080898b03121561176a57611769610e94565b5b600089013567ffffffffffffffff81111561178857611787610e99565b5b6117948b828c0161114e565b9850985050602089013567ffffffffffffffff8111156117b7576117b6610e99565b5b6117c38b828c0161114e565b9650965050604089013567ffffffffffffffff8111156117e6576117e5610e99565b5b6117f28b828c0161114e565b9450945050606089013567ffffffffffffffff81111561181557611814610e99565b5b6118218b828c0161114e565b92509250509295985092959890939650565b6000806020838503121561184a57611849610e94565b5b600083013567ffffffffffffffff81111561186857611867610e99565b5b6118748582860161114e565b92509250509250929050565b61188981610ebe565b811461189457600080fd5b50565b6000813590506118a681611880565b92915050565b6000602082840312156118c2576118c1610e94565b5b60006118d084828501611897565b91505092915050565b600082825260208201905092915050565b7f50726f6f6620766572696669636174696f6e206661696c656400000000000000600082015250565b60006119206019836118d9565b915061192b826118ea565b602082019050919050565b6000602082019050818103600083015261194f81611913565b9050919050565b600080fd5b60008235600160400383360303811261197757611976611956565b5b82810191505092915050565b600080fd5b600080fd5b600080833560016020038436030381126119aa576119a9611956565b5b83810192508235915060208301925067ffffffffffffffff8211156119d2576119d1611983565b5b6001820236038413156119e8576119e7611988565b5b509250929050565b600082825260208201905092915050565b82818337600083830152505050565b6000611a1c83856119f0565b9350611a29838584611a01565b611a32836115f4565b840190509392505050565b6000611a4c6020840184611681565b905092915050565b611a5d81611660565b82525050565b600060408301611a76600084018461198d565b8583036000870152611a89838284611a10565b92505050611a9a6020840184611a3d565b611aa76020860182611a54565b508091505092915050565b6000611ac160208401846116c1565b905092915050565b611ad281611696565b82525050565b60008083356001602003843603038112611af557611af4611956565b5b83810192508235915060208301925067ffffffffffffffff821115611b1d57611b1c611983565b5b600182023603841315611b3357611b32611988565b5b509250929050565b600082825260208201905092915050565b6000611b588385611b3b565b9350611b65838584611a01565b611b6e836115f4565b840190509392505050565b600082905092915050565b60408201611b956000830183611ab2565b611ba26000850182611ac9565b50611bb06020830183611ab2565b611bbd6020850182611ac9565b50505050565b600060c08301611bd6600084018461195b565b8482036000860152611be88282611a63565b915050611bf8602084018461195b565b8482036020860152611c0a8282611a63565b915050611c1a6040840184611ab2565b611c276040860182611ac9565b50611c356060840184611ad8565b8583036060870152611c48838284611b4c565b92505050611c596080840184611b79565b611c666080860182611b84565b508091505092915050565b60006020820190508181036000830152611c8b8184611bc3565b905092915050565b7f436c69656e74206e6f7420637265617465640000000000000000000000000000600082015250565b6000611cc96012836118d9565b9150611cd482611c93565b602082019050919050565b60006020820190508181036000830152611cf881611cbc565b9050919050565b6000611d0b83856115b0565b9350611d18838584611a01565b611d21836115f4565b840190509392505050565b60006020820190508181036000830152611d47818486611cff565b90509392505050565b60008115159050919050565b611d6581611d50565b8114611d7057600080fd5b50565b600081519050611d8281611d5c565b92915050565b600060208284031215611d9e57611d9d610e94565b5b6000611dac84828501611d73565b91505092915050565b7f436f6e73656e73757320737461746520766572696669636174696f6e2066616960008201527f6c65640000000000000000000000000000000000000000000000000000000000602082015250565b6000611e116023836118d9565b9150611e1c82611db5565b604082019050919050565b60006020820190508181036000830152611e4081611e04565b9050919050565b600080fd5b600080fd5b600080fd5b600082356001604003833603038112611e7257611e71611e47565b5b80830191505092915050565b60008083356001602003843603038112611e9b57611e9a611e47565b5b80840192508235915067ffffffffffffffff821115611ebd57611ebc611e4c565b5b602083019250600182023603831315611ed957611ed8611e51565b5b509250929050565b60008083356001602003843603038112611efe57611efd611e47565b5b80840192508235915067ffffffffffffffff821115611f2057611f1f611e4c565b5b602083019250600182023603831315611f3c57611f3b611e51565b5b509250929050565b600060208284031215611f5a57611f59610e94565b5b6000611f68848285016116c1565b91505092915050565b6000611f7d83856118d9565b9350611f8a838584611a01565b611f93836115f4565b840190509392505050565b611fa781611696565b82525050565b60006080820190508181036000830152611fc881898b611f71565b90508181036020830152611fdd818789611f71565b90508181036040830152611ff2818587611cff565b90506120016060830184611f9e565b98975050505050505050565b60006080820190508181036000830152612028818a8c611f71565b9050818103602083015261203d81888a611f71565b90508181036040830152612052818688611f71565b90508181036060830152612067818486611f71565b90509998505050505050505050565b7f436c69656e7420616c7265616479206372656174656400000000000000000000600082015250565b60006120ac6016836118d9565b91506120b782612076565b602082019050919050565b600060208201905081810360008301526120db8161209f565b9050919050565b600060408201905081810360008301526120fd818688611f71565b90508181036020830152612112818486611f71565b905095945050505050565b6000606082019050818103600083015261213881888a611f71565b9050818103602083015261214d818688611f71565b90508181036040830152612162818486611f71565b9050979650505050505050565b7f4e487b7100000000000000000000000000000000000000000000000000000000600052602260045260246000fd5b600060028204905060018216806121b657607f821691505b602082108114156121ca576121c961216f565b5b50919050565b600060408201905081810360008301526121eb818587611cff565b90506121fa6020830184611f9e565b949350505050565b6000602082019050818103600083015261221d818486611f71565b90509392505050565b7f4f776e61626c653a206e6577206f776e657220697320746865207a65726f206160008201527f6464726573730000000000000000000000000000000000000000000000000000602082015250565b60006122826026836118d9565b915061228d82612226565b604082019050919050565b600060208201905081810360008301526122b181612275565b9050919050565b7f4f776e61626c653a2063616c6c6572206973206e6f7420746865206f776e6572600082015250565b60006122ee6020836118d9565b91506122f9826122b8565b602082019050919050565b6000602082019050818103600083015261231d816122e1565b905091905056fea2646970667358221220a996351868a2169b861f04b012161de87ec596ef9baf45c66a1984b13be6e54e64736f6c63430008090033",
  "linkReferences": {},
  "deployedLinkReferences": {}
}