{
  "_format": "hh-sol-artifact-1",
  "contractName": "Dispatcher",
  "sourceName": "contracts/Dispatcher.sol",
  "abi": [
    {
      "inputs": [
        {
          "internalType": "address",
          "name": "_verifier",
          "type": "address"
        }
      ],
      "stateMutability": "nonpayable",
      "type": "constructor"
    },
    {
      "anonymous": false,
      "inputs": [
        {
          "indexed": false,
          "internalType": "string",
          "name": "channelId",
          "type": "string"
        },
        {
          "indexed": true,
          "internalType": "address",
          "name": "portId",
          "type": "address"
        }
      ],
      "name": "CloseIbcChannel",
      "type": "event"
    },
    {
      "anonymous": false,
      "inputs": [
        {
          "indexed": false,
          "internalType": "string",
          "name": "channelId",
          "type": "string"
        },
        {
          "indexed": true,
          "internalType": "address",
          "name": "portId",
          "type": "address"
        },
        {
          "indexed": false,
          "internalType": "string",
          "name": "counterPartyChannelId",
          "type": "string"
        },
        {
          "indexed": false,
          "internalType": "string",
          "name": "counterPartyPortId",
          "type": "string"
        },
        {
          "indexed": false,
          "internalType": "string",
          "name": "counterPartyVersion",
          "type": "string"
        }
      ],
      "name": "ConnectIbcChannel",
      "type": "event"
    },
    {
      "anonymous": false,
      "inputs": [
        {
          "indexed": true,
          "internalType": "bytes32",
          "name": "srcChannelId",
          "type": "bytes32"
        },
        {
          "indexed": false,
          "internalType": "string",
          "name": "srcPortId",
          "type": "string"
        },
        {
          "indexed": true,
          "internalType": "bytes32",
          "name": "destChannelId",
          "type": "bytes32"
        },
        {
          "indexed": false,
          "internalType": "string",
          "name": "destPortId",
          "type": "string"
        },
        {
          "indexed": false,
          "internalType": "bytes",
          "name": "data",
          "type": "bytes"
        },
        {
          "indexed": false,
          "internalType": "uint64",
          "name": "sequence",
          "type": "uint64"
        }
      ],
      "name": "OnRecvPacket",
      "type": "event"
    },
    {
      "anonymous": false,
      "inputs": [
        {
          "indexed": false,
          "internalType": "string",
          "name": "connectionId",
          "type": "string"
        },
        {
          "indexed": true,
          "internalType": "address",
          "name": "connectionPortId",
          "type": "address"
        },
        {
          "indexed": false,
          "internalType": "string",
          "name": "counterPartyConnectionId",
          "type": "string"
        },
        {
          "indexed": false,
          "internalType": "string",
          "name": "counterPartyPortId",
          "type": "string"
        },
        {
          "indexed": false,
          "internalType": "string",
          "name": "version",
          "type": "string"
        }
      ],
      "name": "OpenIbcChannel",
      "type": "event"
    },
    {
      "anonymous": false,
      "inputs": [
        {
          "indexed": true,
          "internalType": "address",
          "name": "previousOwner",
          "type": "address"
        },
        {
          "indexed": true,
          "internalType": "address",
          "name": "newOwner",
          "type": "address"
        }
      ],
      "name": "OwnershipTransferred",
      "type": "event"
    },
    {
      "anonymous": false,
      "inputs": [
        {
          "indexed": true,
          "internalType": "address",
          "name": "portId",
          "type": "address"
        },
        {
          "indexed": true,
          "internalType": "bytes32",
          "name": "channelId",
          "type": "bytes32"
        },
        {
          "indexed": false,
          "internalType": "bytes",
          "name": "packet",
          "type": "bytes"
        },
        {
          "indexed": false,
          "internalType": "uint64",
          "name": "timeoutBlockTimestamp",
          "type": "uint64"
        }
      ],
      "name": "SendIbcPacket",
      "type": "event"
    },
    {
      "inputs": [
        {
          "internalType": "string",
          "name": "",
          "type": "string"
        }
      ],
      "name": "clients",
      "outputs": [
        {
          "internalType": "bytes",
          "name": "clientState",
          "type": "bytes"
        },
        {
          "internalType": "bytes",
          "name": "consensusState",
          "type": "bytes"
        }
      ],
      "stateMutability": "view",
      "type": "function"
    },
    {
      "inputs": [
        {
          "internalType": "string",
          "name": "channelId",
          "type": "string"
        }
      ],
      "name": "closeIbcChannel",
      "outputs": [],
      "stateMutability": "nonpayable",
      "type": "function"
    },
    {
      "inputs": [
        {
          "internalType": "string",
          "name": "channelId",
          "type": "string"
        },
        {
          "internalType": "string",
          "name": "counterPartyChannelId",
          "type": "string"
        },
        {
          "internalType": "string",
          "name": "counterPartyPortId",
          "type": "string"
        },
        {
          "internalType": "string",
          "name": "counterPartyVersion",
          "type": "string"
        }
      ],
      "name": "connectIbcChannel",
      "outputs": [],
      "stateMutability": "nonpayable",
      "type": "function"
    },
    {
      "inputs": [
        {
          "internalType": "string",
          "name": "clientId",
          "type": "string"
        },
        {
          "internalType": "bytes",
          "name": "clientState",
          "type": "bytes"
        },
        {
          "internalType": "bytes",
          "name": "consensusState",
          "type": "bytes"
        }
      ],
      "name": "createClient",
      "outputs": [],
      "stateMutability": "nonpayable",
      "type": "function"
    },
    {
      "inputs": [
        {
          "internalType": "contract IbcReceiver",
          "name": "receiver",
          "type": "address"
        },
        {
          "components": [
            {
              "components": [
                {
                  "internalType": "string",
                  "name": "portId",
                  "type": "string"
                },
                {
                  "internalType": "bytes32",
                  "name": "channelId",
                  "type": "bytes32"
                }
              ],
              "internalType": "struct IbcEndpoint",
              "name": "src",
              "type": "tuple"
            },
            {
              "components": [
                {
                  "internalType": "string",
                  "name": "portId",
                  "type": "string"
                },
                {
                  "internalType": "bytes32",
                  "name": "channelId",
                  "type": "bytes32"
                }
              ],
              "internalType": "struct IbcEndpoint",
              "name": "dest",
              "type": "tuple"
            },
            {
              "internalType": "uint64",
              "name": "sequence",
              "type": "uint64"
            },
            {
              "internalType": "bytes",
              "name": "data",
              "type": "bytes"
            },
            {
              "components": [
                {
                  "internalType": "uint64",
                  "name": "block",
                  "type": "uint64"
                },
                {
                  "internalType": "uint64",
                  "name": "timestamp",
                  "type": "uint64"
                }
              ],
              "internalType": "struct IbcTimeout",
              "name": "timeout",
              "type": "tuple"
            }
          ],
          "internalType": "struct IbcPacket",
          "name": "packet",
          "type": "tuple"
        },
        {
          "internalType": "bytes",
          "name": "acknowledgement",
          "type": "bytes"
        },
        {
          "components": [
            {
              "internalType": "bytes",
              "name": "keyPath",
              "type": "bytes"
            },
            {
              "internalType": "bytes",
              "name": "value",
              "type": "bytes"
            },
            {
              "internalType": "bytes",
              "name": "proof",
              "type": "bytes"
            }
          ],
          "internalType": "struct Proof",
          "name": "proof",
          "type": "tuple"
        }
      ],
      "name": "onAcknowledgementPacket",
      "outputs": [],
      "stateMutability": "nonpayable",
      "type": "function"
    },
    {
      "inputs": [
        {
          "internalType": "contract IbcReceiver",
          "name": "receiver",
          "type": "address"
        },
        {
          "internalType": "string",
          "name": "channelId",
          "type": "string"
        },
        {
          "components": [
            {
              "internalType": "bytes",
              "name": "keyPath",
              "type": "bytes"
            },
            {
              "internalType": "bytes",
              "name": "value",
              "type": "bytes"
            },
            {
              "internalType": "bytes",
              "name": "proof",
              "type": "bytes"
            }
          ],
          "internalType": "struct Proof",
          "name": "proof",
          "type": "tuple"
        },
        {
          "internalType": "string",
          "name": "error",
          "type": "string"
        }
      ],
      "name": "onCloseIbcChannel",
      "outputs": [],
      "stateMutability": "nonpayable",
      "type": "function"
    },
    {
      "inputs": [
        {
          "internalType": "contract IbcReceiver",
          "name": "receiver",
          "type": "address"
        },
        {
          "internalType": "string",
          "name": "channelId",
          "type": "string"
        },
        {
          "components": [
            {
              "internalType": "bytes",
              "name": "keyPath",
              "type": "bytes"
            },
            {
              "internalType": "bytes",
              "name": "value",
              "type": "bytes"
            },
            {
              "internalType": "bytes",
              "name": "proof",
              "type": "bytes"
            }
          ],
          "internalType": "struct Proof",
          "name": "proof",
          "type": "tuple"
        },
        {
          "internalType": "string",
          "name": "error",
          "type": "string"
        }
      ],
      "name": "onConnectIbcChannel",
      "outputs": [],
      "stateMutability": "nonpayable",
      "type": "function"
    },
    {
      "inputs": [
        {
          "internalType": "contract IbcReceiver",
          "name": "receiver",
          "type": "address"
        },
        {
          "internalType": "string",
          "name": "channelId",
          "type": "string"
        },
        {
          "internalType": "string",
          "name": "version",
          "type": "string"
        },
        {
          "components": [
            {
              "internalType": "bytes",
              "name": "keyPath",
              "type": "bytes"
            },
            {
              "internalType": "bytes",
              "name": "value",
              "type": "bytes"
            },
            {
              "internalType": "bytes",
              "name": "proof",
              "type": "bytes"
            }
          ],
          "internalType": "struct Proof",
          "name": "proof",
          "type": "tuple"
        },
        {
          "internalType": "string",
          "name": "error",
          "type": "string"
        }
      ],
      "name": "onOpenIbcChannel",
      "outputs": [],
      "stateMutability": "nonpayable",
      "type": "function"
    },
    {
      "inputs": [
        {
          "internalType": "contract IbcReceiver",
          "name": "receiver",
          "type": "address"
        },
        {
          "components": [
            {
              "components": [
                {
                  "internalType": "string",
                  "name": "portId",
                  "type": "string"
                },
                {
                  "internalType": "bytes32",
                  "name": "channelId",
                  "type": "bytes32"
                }
              ],
              "internalType": "struct IbcEndpoint",
              "name": "src",
              "type": "tuple"
            },
            {
              "components": [
                {
                  "internalType": "string",
                  "name": "portId",
                  "type": "string"
                },
                {
                  "internalType": "bytes32",
                  "name": "channelId",
                  "type": "bytes32"
                }
              ],
              "internalType": "struct IbcEndpoint",
              "name": "dest",
              "type": "tuple"
            },
            {
              "internalType": "uint64",
              "name": "sequence",
              "type": "uint64"
            },
            {
              "internalType": "bytes",
              "name": "data",
              "type": "bytes"
            },
            {
              "components": [
                {
                  "internalType": "uint64",
                  "name": "block",
                  "type": "uint64"
                },
                {
                  "internalType": "uint64",
                  "name": "timestamp",
                  "type": "uint64"
                }
              ],
              "internalType": "struct IbcTimeout",
              "name": "timeout",
              "type": "tuple"
            }
          ],
          "internalType": "struct IbcPacket",
          "name": "packet",
          "type": "tuple"
        },
        {
          "components": [
            {
              "internalType": "bytes",
              "name": "keyPath",
              "type": "bytes"
            },
            {
              "internalType": "bytes",
              "name": "value",
              "type": "bytes"
            },
            {
              "internalType": "bytes",
              "name": "proof",
              "type": "bytes"
            }
          ],
          "internalType": "struct Proof",
          "name": "proof",
          "type": "tuple"
        }
      ],
      "name": "onRecvPacket",
      "outputs": [],
      "stateMutability": "nonpayable",
      "type": "function"
    },
    {
      "inputs": [
        {
          "internalType": "contract IbcReceiver",
          "name": "receiver",
          "type": "address"
        },
        {
          "components": [
            {
              "components": [
                {
                  "internalType": "string",
                  "name": "portId",
                  "type": "string"
                },
                {
                  "internalType": "bytes32",
                  "name": "channelId",
                  "type": "bytes32"
                }
              ],
              "internalType": "struct IbcEndpoint",
              "name": "src",
              "type": "tuple"
            },
            {
              "components": [
                {
                  "internalType": "string",
                  "name": "portId",
                  "type": "string"
                },
                {
                  "internalType": "bytes32",
                  "name": "channelId",
                  "type": "bytes32"
                }
              ],
              "internalType": "struct IbcEndpoint",
              "name": "dest",
              "type": "tuple"
            },
            {
              "internalType": "uint64",
              "name": "sequence",
              "type": "uint64"
            },
            {
              "internalType": "bytes",
              "name": "data",
              "type": "bytes"
            },
            {
              "components": [
                {
                  "internalType": "uint64",
                  "name": "block",
                  "type": "uint64"
                },
                {
                  "internalType": "uint64",
                  "name": "timestamp",
                  "type": "uint64"
                }
              ],
              "internalType": "struct IbcTimeout",
              "name": "timeout",
              "type": "tuple"
            }
          ],
          "internalType": "struct IbcPacket",
          "name": "packet",
          "type": "tuple"
        },
        {
          "components": [
            {
              "internalType": "bytes",
              "name": "keyPath",
              "type": "bytes"
            },
            {
              "internalType": "bytes",
              "name": "value",
              "type": "bytes"
            },
            {
              "internalType": "bytes",
              "name": "proof",
              "type": "bytes"
            }
          ],
          "internalType": "struct Proof",
          "name": "proof",
          "type": "tuple"
        }
      ],
      "name": "onTimeoutPacket",
      "outputs": [],
      "stateMutability": "nonpayable",
      "type": "function"
    },
    {
      "inputs": [
        {
          "internalType": "string",
          "name": "connectionId",
          "type": "string"
        },
        {
          "internalType": "string",
          "name": "counterPartyConnectionId",
          "type": "string"
        },
        {
          "internalType": "string",
          "name": "counterPartyPortId",
          "type": "string"
        },
        {
          "internalType": "enum IbcOrder",
          "name": "order",
          "type": "uint8"
        },
        {
          "internalType": "string",
          "name": "version",
          "type": "string"
        }
      ],
      "name": "openIbcChannel",
      "outputs": [],
      "stateMutability": "nonpayable",
      "type": "function"
    },
    {
      "inputs": [],
      "name": "owner",
      "outputs": [
        {
          "internalType": "address",
          "name": "",
          "type": "address"
        }
      ],
      "stateMutability": "view",
      "type": "function"
    },
    {
      "inputs": [],
      "name": "renounceOwnership",
      "outputs": [],
      "stateMutability": "nonpayable",
      "type": "function"
    },
    {
      "inputs": [
        {
          "internalType": "bytes32",
          "name": "channelId",
          "type": "bytes32"
        },
        {
          "internalType": "bytes",
          "name": "packet",
          "type": "bytes"
        },
        {
          "internalType": "uint64",
          "name": "timeoutBlockTimestamp",
          "type": "uint64"
        }
      ],
      "name": "sendIbcPacket",
      "outputs": [],
      "stateMutability": "nonpayable",
      "type": "function"
    },
    {
      "inputs": [
        {
          "internalType": "address",
          "name": "newOwner",
          "type": "address"
        }
      ],
      "name": "transferOwnership",
      "outputs": [],
      "stateMutability": "nonpayable",
      "type": "function"
    },
    {
      "inputs": [
        {
          "internalType": "string",
          "name": "clientId",
          "type": "string"
        },
        {
          "internalType": "bytes",
          "name": "consensusState",
          "type": "bytes"
        }
      ],
      "name": "updateClient",
      "outputs": [],
      "stateMutability": "nonpayable",
      "type": "function"
    },
    {
      "inputs": [],
      "name": "verifier",
      "outputs": [
        {
          "internalType": "contract ZKMintVerifier",
          "name": "",
          "type": "address"
        }
      ],
      "stateMutability": "view",
      "type": "function"
    }
  ],
  "bytecode": "0x60806040523480156200001157600080fd5b5060405162002a5538038062002a558339818101604052810190620000379190620001d5565b620000576200004b6200009f60201b60201c565b620000a760201b60201c565b80600160006101000a81548173ffffffffffffffffffffffffffffffffffffffff021916908373ffffffffffffffffffffffffffffffffffffffff1602179055505062000207565b600033905090565b60008060009054906101000a900473ffffffffffffffffffffffffffffffffffffffff169050816000806101000a81548173ffffffffffffffffffffffffffffffffffffffff021916908373ffffffffffffffffffffffffffffffffffffffff1602179055508173ffffffffffffffffffffffffffffffffffffffff168173ffffffffffffffffffffffffffffffffffffffff167f8be0079c531659141344cd1fd0a4f28419497f9722a3daafe3b4186f6b6457e060405160405180910390a35050565b600080fd5b600073ffffffffffffffffffffffffffffffffffffffff82169050919050565b60006200019d8262000170565b9050919050565b620001af8162000190565b8114620001bb57600080fd5b50565b600081519050620001cf81620001a4565b92915050565b600060208284031215620001ee57620001ed6200016b565b5b6000620001fe84828501620001be565b91505092915050565b61283e80620002176000396000f3fe608060405234801561001057600080fd5b506004361061010b5760003560e01c8063715018a6116100a2578063c51289b511610071578063c51289b514610267578063ca1288ed14610283578063dc4431001461029f578063e6815c12146102bb578063f2fde38b146102d75761010b565b8063715018a6146102075780638b116848146102115780638da5cb5b1461022d578063a878e1ba1461024b5761010b565b806329393014116100de57806329393014146101955780632b7ac3f3146101b15780636fbf8079146101cf57806370c5dd53146101eb5761010b565b806303941ec51461011057806320ba1e9f1461012c578063260012e81461015d5780632629636b14610179575b600080fd5b61012a600480360381019061012591906112b1565b6102f3565b005b610146600480360381019061014191906114b2565b6103ad565b604051610154929190611583565b60405180910390f35b610177600480360381019061017291906115ba565b6104f7565b005b610193600480360381019061018e919061169b565b610674565b005b6101af60048036038101906101aa9190611774565b6107e8565b005b6101b961084f565b6040516101c691906118cf565b60405180910390f35b6101e960048036038101906101e491906118ea565b610875565b005b6102056004803603810190610200919061196b565b610a0f565b005b61020f610ad0565b005b61022b6004803603810190610226919061196b565b610ae4565b005b610235610ba5565b6040516102429190611a3d565b60405180910390f35b61026560048036038101906102609190611a58565b610bce565b005b610281600480360381019061027c9190611bc6565b610c95565b005b61029d60048036038101906102989190611c3a565b610cee565b005b6102b960048036038101906102b491906115ba565b610d54565b005b6102d560048036038101906102d09190611d23565b610e0c565b005b6102f160048036038101906102ec9190611d9c565b610e60565b005b6102fc81610ee4565b61033b576040517f08c379a000000000000000000000000000000000000000000000000000000000815260040161033290611e26565b60405180910390fd5b8473ffffffffffffffffffffffffffffffffffffffff1663f45cf5e4856040518263ffffffff1660e01b81526004016103749190612152565b600060405180830381600087803b15801561038e57600080fd5b505af11580156103a2573d6000803e3d6000fd5b505050505050505050565b6002818051602081018201805184825260208301602085012081835280955050505050506000915090508060000180546103e6906121a3565b80601f0160208091040260200160405190810160405280929190818152602001828054610412906121a3565b801561045f5780601f106104345761010080835404028352916020019161045f565b820191906000526020600020905b81548152906001019060200180831161044257829003601f168201915b505050505090806001018054610474906121a3565b80601f01602080910402602001604051908101604052809291908181526020018280546104a0906121a3565b80156104ed5780601f106104c2576101008083540402835291602001916104ed565b820191906000526020600020905b8154815290600101906020018083116104d057829003601f168201915b5050505050905082565b61050081610ee4565b61053f576040517f08c379a000000000000000000000000000000000000000000000000000000000815260040161053690611e26565b60405180910390fd5b8273ffffffffffffffffffffffffffffffffffffffff1663b058e81a836040518263ffffffff1660e01b81526004016105789190612152565b600060405180830381600087803b15801561059257600080fd5b505af11580156105a6573d6000803e3d6000fd5b505050508180602001906105ba91906121e4565b602001358280600001906105ce91906121e4565b602001357f080631928e492258b6a102fc2ab3e0a8dfcb747ab0885c25f9cb7a8d4862103684806000019061060391906121e4565b8060000190610612919061220c565b86806020019061062291906121e4565b8060000190610631919061220c565b888060600190610641919061226f565b8a604001602081019061065491906122d2565b6040516106679796959493929190612368565b60405180910390a3505050565b6000600287876040516106889291906123f8565b908152602001604051809103902060000180546106a4906121a3565b9050146106e6576040517f08c379a00000000000000000000000000000000000000000000000000000000081526004016106dd90612483565b60405180910390fd5b604051806040016040528085858080601f016020809104026020016040519081016040528093929190818152602001838380828437600081840152601f19601f82011690508083019250505050505050815260200183838080601f016020809104026020016040519081016040528093929190818152602001838380828437600081840152601f19601f82011690508083019250505050505050815250600287876040516107959291906123f8565b908152602001604051809103902060008201518160000190805190602001906107bf92919061105c565b5060208201518160010190805190602001906107dc92919061105c565b50905050505050505050565b3373ffffffffffffffffffffffffffffffffffffffff167f9ce02b1b641bb5e30c72716c9c859589507ea98e427becc1da24ef96341cfdc78a8a8a8a8a8a898960405161083c9897969594939291906124a3565b60405180910390a2505050505050505050565b600160009054906101000a900473ffffffffffffffffffffffffffffffffffffffff1681565b6000600285856040516108899291906123f8565b908152602001604051809103902060000180546108a5906121a3565b905014156108e8576040517f08c379a00000000000000000000000000000000000000000000000000000000081526004016108df9061257e565b60405180910390fd5b600160009054906101000a900473ffffffffffffffffffffffffffffffffffffffff1673ffffffffffffffffffffffffffffffffffffffff16638e760afe83836040518363ffffffff1660e01b815260040161094592919061259e565b602060405180830381600087803b15801561095f57600080fd5b505af1158015610973573d6000803e3d6000fd5b505050506040513d601f19601f8201168201806040525081019061099791906125fa565b6109d6576040517f08c379a00000000000000000000000000000000000000000000000000000000081526004016109cd90611e26565b60405180910390fd5b8181600286866040516109ea9291906123f8565b90815260200160405180910390206001019190610a089291906110e2565b5050505050565b610a1883610ee4565b610a57576040517f08c379a0000000000000000000000000000000000000000000000000000000008152600401610a4e90611e26565b60405180910390fd5b8573ffffffffffffffffffffffffffffffffffffffff16630a845081868685856040518563ffffffff1660e01b8152600401610a969493929190612627565b600060405180830381600087803b158015610ab057600080fd5b505af1158015610ac4573d6000803e3d6000fd5b50505050505050505050565b610ad8610f12565b610ae26000610f90565b565b610aed83610ee4565b610b2c576040517f08c379a0000000000000000000000000000000000000000000000000000000008152600401610b2390611e26565b60405180910390fd5b8573ffffffffffffffffffffffffffffffffffffffff16636afd6174868685856040518563ffffffff1660e01b8152600401610b6b9493929190612627565b600060405180830381600087803b158015610b8557600080fd5b505af1158015610b99573d6000803e3d6000fd5b50505050505050505050565b60008060009054906101000a900473ffffffffffffffffffffffffffffffffffffffff16905090565b610bd783610ee4565b610c16576040517f08c379a0000000000000000000000000000000000000000000000000000000008152600401610c0d90611e26565b60405180910390fd5b8773ffffffffffffffffffffffffffffffffffffffff16632719503e8888888887876040518763ffffffff1660e01b8152600401610c5996959493929190612662565b600060405180830381600087803b158015610c7357600080fd5b505af1158015610c87573d6000803e3d6000fd5b505050505050505050505050565b833373ffffffffffffffffffffffffffffffffffffffff167f3623db14ea518e01acc6d3cb8b5dea34b853de4b455571275bacf9225f8a28dd858585604051610ce0939291906126b4565b60405180910390a350505050565b3373ffffffffffffffffffffffffffffffffffffffff167fd38dbe544e1f1277b020a61acc0dd2cf9ddcf99471a49a288a3ada57f3206a738989898989898989604051610d429897969594939291906124a3565b60405180910390a25050505050505050565b610d5d81610ee4565b610d9c576040517f08c379a0000000000000000000000000000000000000000000000000000000008152600401610d9390611e26565b60405180910390fd5b8273ffffffffffffffffffffffffffffffffffffffff1663b33c2577836040518263ffffffff1660e01b8152600401610dd59190612152565b600060405180830381600087803b158015610def57600080fd5b505af1158015610e03573d6000803e3d6000fd5b50505050505050565b3373ffffffffffffffffffffffffffffffffffffffff167f18280cf62c6d3f3519d7cff5c5b7e91021dd17a0278ba5668976d82bdc9faa9e8383604051610e549291906126e6565b60405180910390a25050565b610e68610f12565b600073ffffffffffffffffffffffffffffffffffffffff168173ffffffffffffffffffffffffffffffffffffffff161415610ed8576040517f08c379a0000000000000000000000000000000000000000000000000000000008152600401610ecf9061277c565b60405180910390fd5b610ee181610f90565b50565b600080828060400190610ef7919061226f565b90501415610f085760009050610f0d565b600190505b919050565b610f1a611054565b73ffffffffffffffffffffffffffffffffffffffff16610f38610ba5565b73ffffffffffffffffffffffffffffffffffffffff1614610f8e576040517f08c379a0000000000000000000000000000000000000000000000000000000008152600401610f85906127e8565b60405180910390fd5b565b60008060009054906101000a900473ffffffffffffffffffffffffffffffffffffffff169050816000806101000a81548173ffffffffffffffffffffffffffffffffffffffff021916908373ffffffffffffffffffffffffffffffffffffffff1602179055508173ffffffffffffffffffffffffffffffffffffffff168173ffffffffffffffffffffffffffffffffffffffff167f8be0079c531659141344cd1fd0a4f28419497f9722a3daafe3b4186f6b6457e060405160405180910390a35050565b600033905090565b828054611068906121a3565b90600052602060002090601f01602090048101928261108a57600085556110d1565b82601f106110a357805160ff19168380011785556110d1565b828001600101855582156110d1579182015b828111156110d05782518255916020019190600101906110b5565b5b5090506110de9190611168565b5090565b8280546110ee906121a3565b90600052602060002090601f0160209004810192826111105760008555611157565b82601f1061112957803560ff1916838001178555611157565b82800160010185558215611157579182015b8281111561115657823582559160200191906001019061113b565b5b5090506111649190611168565b5090565b5b80821115611181576000816000905550600101611169565b5090565b6000604051905090565b600080fd5b600080fd5b600073ffffffffffffffffffffffffffffffffffffffff82169050919050565b60006111c482611199565b9050919050565b60006111d6826111b9565b9050919050565b6111e6816111cb565b81146111f157600080fd5b50565b600081359050611203816111dd565b92915050565b600080fd5b600060c0828403121561122457611223611209565b5b81905092915050565b600080fd5b600080fd5b600080fd5b60008083601f8401126112525761125161122d565b5b8235905067ffffffffffffffff81111561126f5761126e611232565b5b60208301915083600182028301111561128b5761128a611237565b5b9250929050565b6000606082840312156112a8576112a7611209565b5b81905092915050565b6000806000806000608086880312156112cd576112cc61118f565b5b60006112db888289016111f4565b955050602086013567ffffffffffffffff8111156112fc576112fb611194565b5b6113088882890161120e565b945050604086013567ffffffffffffffff81111561132957611328611194565b5b6113358882890161123c565b9350935050606086013567ffffffffffffffff81111561135857611357611194565b5b61136488828901611292565b9150509295509295909350565b600080fd5b6000601f19601f8301169050919050565b7f4e487b7100000000000000000000000000000000000000000000000000000000600052604160045260246000fd5b6113bf82611376565b810181811067ffffffffffffffff821117156113de576113dd611387565b5b80604052505050565b60006113f1611185565b90506113fd82826113b6565b919050565b600067ffffffffffffffff82111561141d5761141c611387565b5b61142682611376565b9050602081019050919050565b82818337600083830152505050565b600061145561145084611402565b6113e7565b90508281526020810184848401111561147157611470611371565b5b61147c848285611433565b509392505050565b600082601f8301126114995761149861122d565b5b81356114a9848260208601611442565b91505092915050565b6000602082840312156114c8576114c761118f565b5b600082013567ffffffffffffffff8111156114e6576114e5611194565b5b6114f284828501611484565b91505092915050565b600081519050919050565b600082825260208201905092915050565b60005b8381101561153557808201518184015260208101905061151a565b83811115611544576000848401525b50505050565b6000611555826114fb565b61155f8185611506565b935061156f818560208601611517565b61157881611376565b840191505092915050565b6000604082019050818103600083015261159d818561154a565b905081810360208301526115b1818461154a565b90509392505050565b6000806000606084860312156115d3576115d261118f565b5b60006115e1868287016111f4565b935050602084013567ffffffffffffffff81111561160257611601611194565b5b61160e8682870161120e565b925050604084013567ffffffffffffffff81111561162f5761162e611194565b5b61163b86828701611292565b9150509250925092565b60008083601f84011261165b5761165a61122d565b5b8235905067ffffffffffffffff81111561167857611677611232565b5b60208301915083600182028301111561169457611693611237565b5b9250929050565b600080600080600080606087890312156116b8576116b761118f565b5b600087013567ffffffffffffffff8111156116d6576116d5611194565b5b6116e289828a01611645565b9650965050602087013567ffffffffffffffff81111561170557611704611194565b5b61171189828a0161123c565b9450945050604087013567ffffffffffffffff81111561173457611733611194565b5b61174089828a0161123c565b92509250509295509295509295565b6002811061175c57600080fd5b50565b60008135905061176e8161174f565b92915050565b600080600080600080600080600060a08a8c0312156117965761179561118f565b5b60008a013567ffffffffffffffff8111156117b4576117b3611194565b5b6117c08c828d01611645565b995099505060208a013567ffffffffffffffff8111156117e3576117e2611194565b5b6117ef8c828d01611645565b975097505060408a013567ffffffffffffffff81111561181257611811611194565b5b61181e8c828d01611645565b955095505060606118318c828d0161175f565b93505060808a013567ffffffffffffffff81111561185257611851611194565b5b61185e8c828d01611645565b92509250509295985092959850929598565b6000819050919050565b600061189561189061188b84611199565b611870565b611199565b9050919050565b60006118a78261187a565b9050919050565b60006118b98261189c565b9050919050565b6118c9816118ae565b82525050565b60006020820190506118e460008301846118c0565b92915050565b600080600080604085870312156119045761190361118f565b5b600085013567ffffffffffffffff81111561192257611921611194565b5b61192e87828801611645565b9450945050602085013567ffffffffffffffff81111561195157611950611194565b5b61195d8782880161123c565b925092505092959194509250565b600080600080600080608087890312156119885761198761118f565b5b600061199689828a016111f4565b965050602087013567ffffffffffffffff8111156119b7576119b6611194565b5b6119c389828a01611645565b9550955050604087013567ffffffffffffffff8111156119e6576119e5611194565b5b6119f289828a01611292565b935050606087013567ffffffffffffffff811115611a1357611a12611194565b5b611a1f89828a01611645565b92509250509295509295509295565b611a37816111b9565b82525050565b6000602082019050611a526000830184611a2e565b92915050565b60008060008060008060008060a0898b031215611a7857611a7761118f565b5b6000611a868b828c016111f4565b985050602089013567ffffffffffffffff811115611aa757611aa6611194565b5b611ab38b828c01611645565b9750975050604089013567ffffffffffffffff811115611ad657611ad5611194565b5b611ae28b828c01611645565b9550955050606089013567ffffffffffffffff811115611b0557611b04611194565b5b611b118b828c01611292565b935050608089013567ffffffffffffffff811115611b3257611b31611194565b5b611b3e8b828c01611645565b92509250509295985092959890939650565b6000819050919050565b611b6381611b50565b8114611b6e57600080fd5b50565b600081359050611b8081611b5a565b92915050565b600067ffffffffffffffff82169050919050565b611ba381611b86565b8114611bae57600080fd5b50565b600081359050611bc081611b9a565b92915050565b60008060008060608587031215611be057611bdf61118f565b5b6000611bee87828801611b71565b945050602085013567ffffffffffffffff811115611c0f57611c0e611194565b5b611c1b8782880161123c565b93509350506040611c2e87828801611bb1565b91505092959194509250565b6000806000806000806000806080898b031215611c5a57611c5961118f565b5b600089013567ffffffffffffffff811115611c7857611c77611194565b5b611c848b828c01611645565b9850985050602089013567ffffffffffffffff811115611ca757611ca6611194565b5b611cb38b828c01611645565b9650965050604089013567ffffffffffffffff811115611cd657611cd5611194565b5b611ce28b828c01611645565b9450945050606089013567ffffffffffffffff811115611d0557611d04611194565b5b611d118b828c01611645565b92509250509295985092959890939650565b60008060208385031215611d3a57611d3961118f565b5b600083013567ffffffffffffffff811115611d5857611d57611194565b5b611d6485828601611645565b92509250509250929050565b611d79816111b9565b8114611d8457600080fd5b50565b600081359050611d9681611d70565b92915050565b600060208284031215611db257611db161118f565b5b6000611dc084828501611d87565b91505092915050565b600082825260208201905092915050565b7f50726f6f6620766572696669636174696f6e206661696c656400000000000000600082015250565b6000611e10601983611dc9565b9150611e1b82611dda565b602082019050919050565b60006020820190508181036000830152611e3f81611e03565b9050919050565b600080fd5b600082356001604003833603038112611e6757611e66611e46565b5b82810191505092915050565b600080fd5b600080fd5b60008083356001602003843603038112611e9a57611e99611e46565b5b83810192508235915060208301925067ffffffffffffffff821115611ec257611ec1611e73565b5b600182023603841315611ed857611ed7611e78565b5b509250929050565b600082825260208201905092915050565b6000611efd8385611ee0565b9350611f0a838584611433565b611f1383611376565b840190509392505050565b6000611f2d6020840184611b71565b905092915050565b611f3e81611b50565b82525050565b600060408301611f576000840184611e7d565b8583036000870152611f6a838284611ef1565b92505050611f7b6020840184611f1e565b611f886020860182611f35565b508091505092915050565b6000611fa26020840184611bb1565b905092915050565b611fb381611b86565b82525050565b60008083356001602003843603038112611fd657611fd5611e46565b5b83810192508235915060208301925067ffffffffffffffff821115611ffe57611ffd611e73565b5b60018202360384131561201457612013611e78565b5b509250929050565b600082825260208201905092915050565b6000612039838561201c565b9350612046838584611433565b61204f83611376565b840190509392505050565b600082905092915050565b604082016120766000830183611f93565b6120836000850182611faa565b506120916020830183611f93565b61209e6020850182611faa565b50505050565b600060c083016120b76000840184611e4b565b84820360008601526120c98282611f44565b9150506120d96020840184611e4b565b84820360208601526120eb8282611f44565b9150506120fb6040840184611f93565b6121086040860182611faa565b506121166060840184611fb9565b858303606087015261212983828461202d565b9250505061213a608084018461205a565b6121476080860182612065565b508091505092915050565b6000602082019050818103600083015261216c81846120a4565b905092915050565b7f4e487b7100000000000000000000000000000000000000000000000000000000600052602260045260246000fd5b600060028204905060018216806121bb57607f821691505b602082108114156121cf576121ce612174565b5b50919050565b600080fd5b600080fd5b600080fd5b600082356001604003833603038112612200576121ff6121d5565b5b80830191505092915050565b60008083356001602003843603038112612229576122286121d5565b5b80840192508235915067ffffffffffffffff82111561224b5761224a6121da565b5b602083019250600182023603831315612267576122666121df565b5b509250929050565b6000808335600160200384360303811261228c5761228b6121d5565b5b80840192508235915067ffffffffffffffff8211156122ae576122ad6121da565b5b6020830192506001820236038313156122ca576122c96121df565b5b509250929050565b6000602082840312156122e8576122e761118f565b5b60006122f684828501611bb1565b91505092915050565b600061230b8385611dc9565b9350612318838584611433565b61232183611376565b840190509392505050565b60006123388385611506565b9350612345838584611433565b61234e83611376565b840190509392505050565b61236281611b86565b82525050565b6000608082019050818103600083015261238381898b6122ff565b905081810360208301526123988187896122ff565b905081810360408301526123ad81858761232c565b90506123bc6060830184612359565b98975050505050505050565b600081905092915050565b60006123df83856123c8565b93506123ec838584611433565b82840190509392505050565b60006124058284866123d3565b91508190509392505050565b7f436c69656e742077697468207468697320494420616c7265616479206578697360008201527f7473000000000000000000000000000000000000000000000000000000000000602082015250565b600061246d602283611dc9565b915061247882612411565b604082019050919050565b6000602082019050818103600083015261249c81612460565b9050919050565b600060808201905081810360008301526124be818a8c6122ff565b905081810360208301526124d381888a6122ff565b905081810360408301526124e88186886122ff565b905081810360608301526124fd8184866122ff565b90509998505050505050505050565b7f436c69656e742077697468207468697320494420646f65736e2774206578697360008201527f7400000000000000000000000000000000000000000000000000000000000000602082015250565b6000612568602183611dc9565b91506125738261250c565b604082019050919050565b600060208201905081810360008301526125978161255b565b9050919050565b600060208201905081810360008301526125b981848661232c565b90509392505050565b60008115159050919050565b6125d7816125c2565b81146125e257600080fd5b50565b6000815190506125f4816125ce565b92915050565b6000602082840312156126105761260f61118f565b5b600061261e848285016125e5565b91505092915050565b600060408201905081810360008301526126428186886122ff565b905081810360208301526126578184866122ff565b905095945050505050565b6000606082019050818103600083015261267d81888a6122ff565b905081810360208301526126928186886122ff565b905081810360408301526126a78184866122ff565b9050979650505050505050565b600060408201905081810360008301526126cf81858761232c565b90506126de6020830184612359565b949350505050565b600060208201905081810360008301526127018184866122ff565b90509392505050565b7f4f776e61626c653a206e6577206f776e657220697320746865207a65726f206160008201527f6464726573730000000000000000000000000000000000000000000000000000602082015250565b6000612766602683611dc9565b91506127718261270a565b604082019050919050565b6000602082019050818103600083015261279581612759565b9050919050565b7f4f776e61626c653a2063616c6c6572206973206e6f7420746865206f776e6572600082015250565b60006127d2602083611dc9565b91506127dd8261279c565b602082019050919050565b60006020820190508181036000830152612801816127c5565b905091905056fea26469706673582212202142d2bac36f5713ba5589af2c44625c2431c06276b8b2265610b945b581fd5264736f6c63430008090033",
  "linkReferences": {},
  "deployedLinkReferences": {}
}