{
  "_format": "hh-sol-artifact-1",
  "contractName": "Dispatcher",
  "sourceName": "contracts/Dispatcher.sol",
  "abi": [
    {
      "inputs": [
        {
          "internalType": "address",
          "name": "_verifier",
          "type": "address"
        }
      ],
      "stateMutability": "nonpayable",
      "type": "constructor"
    },
    {
      "anonymous": false,
      "inputs": [
        {
          "indexed": false,
          "internalType": "string",
          "name": "channelId",
          "type": "string"
        },
        {
          "indexed": true,
          "internalType": "address",
          "name": "portId",
          "type": "address"
        }
      ],
      "name": "CloseIbcChannel",
      "type": "event"
    },
    {
      "anonymous": false,
      "inputs": [
        {
          "indexed": false,
          "internalType": "string",
          "name": "channelId",
          "type": "string"
        },
        {
          "indexed": true,
          "internalType": "address",
          "name": "portId",
          "type": "address"
        },
        {
          "indexed": false,
          "internalType": "string",
          "name": "counterPartyChannelId",
          "type": "string"
        },
        {
          "indexed": false,
          "internalType": "string",
          "name": "counterPartyPortId",
          "type": "string"
        },
        {
          "indexed": false,
          "internalType": "string",
          "name": "counterPartyVersion",
          "type": "string"
        }
      ],
      "name": "ConnectIbcChannel",
      "type": "event"
    },
    {
      "anonymous": false,
      "inputs": [
        {
          "indexed": true,
          "internalType": "bytes32",
          "name": "srcChannelId",
          "type": "bytes32"
        },
        {
          "indexed": false,
          "internalType": "string",
          "name": "srcPortId",
          "type": "string"
        },
        {
          "indexed": true,
          "internalType": "bytes32",
          "name": "destChannelId",
          "type": "bytes32"
        },
        {
          "indexed": false,
          "internalType": "string",
          "name": "destPortId",
          "type": "string"
        },
        {
          "indexed": false,
          "internalType": "bytes",
          "name": "data",
          "type": "bytes"
        },
        {
          "indexed": false,
          "internalType": "uint64",
          "name": "sequence",
          "type": "uint64"
        }
      ],
      "name": "OnRecvPacket",
      "type": "event"
    },
    {
      "anonymous": false,
      "inputs": [
        {
          "indexed": true,
          "internalType": "address",
          "name": "portAddress",
          "type": "address"
        },
        {
          "indexed": true,
          "internalType": "bytes32",
          "name": "channelId",
          "type": "bytes32"
        },
        {
          "indexed": true,
          "internalType": "bytes32",
          "name": "counterpartyChannelId",
          "type": "bytes32"
        },
        {
          "indexed": false,
          "internalType": "bytes32",
          "name": "version",
          "type": "bytes32"
        },
        {
          "indexed": false,
          "internalType": "enum ChannelOrder",
          "name": "ordering",
          "type": "uint8"
        },
        {
          "indexed": false,
          "internalType": "string[]",
          "name": "connectionHops",
          "type": "string[]"
        },
        {
          "indexed": false,
          "internalType": "string",
          "name": "counterpartyPortId",
          "type": "string"
        },
        {
          "indexed": false,
          "internalType": "bytes32",
          "name": "counterpartyVersion",
          "type": "bytes32"
        }
      ],
      "name": "OpenIbcChannel",
      "type": "event"
    },
    {
      "anonymous": false,
      "inputs": [
        {
          "indexed": true,
          "internalType": "address",
          "name": "previousOwner",
          "type": "address"
        },
        {
          "indexed": true,
          "internalType": "address",
          "name": "newOwner",
          "type": "address"
        }
      ],
      "name": "OwnershipTransferred",
      "type": "event"
    },
    {
      "anonymous": false,
      "inputs": [
        {
          "indexed": true,
          "internalType": "address",
          "name": "portId",
          "type": "address"
        },
        {
          "indexed": true,
          "internalType": "bytes32",
          "name": "channelId",
          "type": "bytes32"
        },
        {
          "indexed": false,
          "internalType": "bytes",
          "name": "packet",
          "type": "bytes"
        },
        {
          "indexed": false,
          "internalType": "uint64",
          "name": "timeoutTimestamp",
          "type": "uint64"
        }
      ],
      "name": "SendPacket",
      "type": "event"
    },
    {
      "inputs": [
        {
          "internalType": "string",
          "name": "channelId",
          "type": "string"
        }
      ],
      "name": "closeIbcChannel",
      "outputs": [],
      "stateMutability": "nonpayable",
      "type": "function"
    },
    {
      "inputs": [
        {
          "internalType": "string",
          "name": "channelId",
          "type": "string"
        },
        {
          "internalType": "string",
          "name": "counterPartyChannelId",
          "type": "string"
        },
        {
          "internalType": "string",
          "name": "counterPartyPortId",
          "type": "string"
        },
        {
          "internalType": "string",
          "name": "counterPartyVersion",
          "type": "string"
        }
      ],
      "name": "connectIbcChannel",
      "outputs": [],
      "stateMutability": "nonpayable",
      "type": "function"
    },
    {
      "inputs": [
        {
          "internalType": "bytes",
          "name": "clientState",
          "type": "bytes"
        },
        {
          "internalType": "bytes",
          "name": "consensusState",
          "type": "bytes"
        }
      ],
      "name": "createClient",
      "outputs": [],
      "stateMutability": "nonpayable",
      "type": "function"
    },
    {
      "inputs": [],
      "name": "latestConsensusState",
      "outputs": [
        {
          "internalType": "bytes",
          "name": "",
          "type": "bytes"
        }
      ],
      "stateMutability": "view",
      "type": "function"
    },
    {
      "inputs": [
        {
          "internalType": "contract IbcReceiver",
          "name": "receiver",
          "type": "address"
        },
        {
          "components": [
            {
              "components": [
                {
                  "internalType": "string",
                  "name": "portId",
                  "type": "string"
                },
                {
                  "internalType": "bytes32",
                  "name": "channelId",
                  "type": "bytes32"
                }
              ],
              "internalType": "struct IbcEndpoint",
              "name": "src",
              "type": "tuple"
            },
            {
              "components": [
                {
                  "internalType": "string",
                  "name": "portId",
                  "type": "string"
                },
                {
                  "internalType": "bytes32",
                  "name": "channelId",
                  "type": "bytes32"
                }
              ],
              "internalType": "struct IbcEndpoint",
              "name": "dest",
              "type": "tuple"
            },
            {
              "internalType": "uint64",
              "name": "sequence",
              "type": "uint64"
            },
            {
              "internalType": "bytes",
              "name": "data",
              "type": "bytes"
            },
            {
              "components": [
                {
                  "internalType": "uint64",
                  "name": "block",
                  "type": "uint64"
                },
                {
                  "internalType": "uint64",
                  "name": "timestamp",
                  "type": "uint64"
                }
              ],
              "internalType": "struct IbcTimeout",
              "name": "timeout",
              "type": "tuple"
            }
          ],
          "internalType": "struct IbcPacket",
          "name": "packet",
          "type": "tuple"
        },
        {
          "internalType": "bytes",
          "name": "acknowledgement",
          "type": "bytes"
        },
        {
          "components": [
            {
              "internalType": "uint64",
              "name": "proofHeight",
              "type": "uint64"
            },
            {
              "internalType": "bytes",
              "name": "proof",
              "type": "bytes"
            }
          ],
          "internalType": "struct Proof",
          "name": "proof",
          "type": "tuple"
        }
      ],
      "name": "onAcknowledgementPacket",
      "outputs": [],
      "stateMutability": "nonpayable",
      "type": "function"
    },
    {
      "inputs": [
        {
          "internalType": "contract IbcReceiver",
          "name": "receiver",
          "type": "address"
        },
        {
          "internalType": "string",
          "name": "channelId",
          "type": "string"
        },
        {
          "components": [
            {
              "internalType": "uint64",
              "name": "proofHeight",
              "type": "uint64"
            },
            {
              "internalType": "bytes",
              "name": "proof",
              "type": "bytes"
            }
          ],
          "internalType": "struct Proof",
          "name": "proof",
          "type": "tuple"
        },
        {
          "internalType": "string",
          "name": "error",
          "type": "string"
        }
      ],
      "name": "onCloseIbcChannel",
      "outputs": [],
      "stateMutability": "nonpayable",
      "type": "function"
    },
    {
      "inputs": [
        {
          "internalType": "contract IbcReceiver",
          "name": "receiver",
          "type": "address"
        },
        {
          "internalType": "string",
          "name": "channelId",
          "type": "string"
        },
        {
          "components": [
            {
              "internalType": "uint64",
              "name": "proofHeight",
              "type": "uint64"
            },
            {
              "internalType": "bytes",
              "name": "proof",
              "type": "bytes"
            }
          ],
          "internalType": "struct Proof",
          "name": "proof",
          "type": "tuple"
        },
        {
          "internalType": "string",
          "name": "error",
          "type": "string"
        }
      ],
      "name": "onConnectIbcChannel",
      "outputs": [],
      "stateMutability": "nonpayable",
      "type": "function"
    },
    {
      "inputs": [
        {
          "internalType": "contract IbcReceiver",
          "name": "receiver",
          "type": "address"
        },
        {
          "components": [
            {
              "components": [
                {
                  "internalType": "string",
                  "name": "portId",
                  "type": "string"
                },
                {
                  "internalType": "bytes32",
                  "name": "channelId",
                  "type": "bytes32"
                }
              ],
              "internalType": "struct IbcEndpoint",
              "name": "src",
              "type": "tuple"
            },
            {
              "components": [
                {
                  "internalType": "string",
                  "name": "portId",
                  "type": "string"
                },
                {
                  "internalType": "bytes32",
                  "name": "channelId",
                  "type": "bytes32"
                }
              ],
              "internalType": "struct IbcEndpoint",
              "name": "dest",
              "type": "tuple"
            },
            {
              "internalType": "uint64",
              "name": "sequence",
              "type": "uint64"
            },
            {
              "internalType": "bytes",
              "name": "data",
              "type": "bytes"
            },
            {
              "components": [
                {
                  "internalType": "uint64",
                  "name": "block",
                  "type": "uint64"
                },
                {
                  "internalType": "uint64",
                  "name": "timestamp",
                  "type": "uint64"
                }
              ],
              "internalType": "struct IbcTimeout",
              "name": "timeout",
              "type": "tuple"
            }
          ],
          "internalType": "struct IbcPacket",
          "name": "packet",
          "type": "tuple"
        },
        {
          "components": [
            {
              "internalType": "uint64",
              "name": "proofHeight",
              "type": "uint64"
            },
            {
              "internalType": "bytes",
              "name": "proof",
              "type": "bytes"
            }
          ],
          "internalType": "struct Proof",
          "name": "proof",
          "type": "tuple"
        }
      ],
      "name": "onRecvPacket",
      "outputs": [],
      "stateMutability": "nonpayable",
      "type": "function"
    },
    {
      "inputs": [
        {
          "internalType": "contract IbcReceiver",
          "name": "receiver",
          "type": "address"
        },
        {
          "components": [
            {
              "components": [
                {
                  "internalType": "string",
                  "name": "portId",
                  "type": "string"
                },
                {
                  "internalType": "bytes32",
                  "name": "channelId",
                  "type": "bytes32"
                }
              ],
              "internalType": "struct IbcEndpoint",
              "name": "src",
              "type": "tuple"
            },
            {
              "components": [
                {
                  "internalType": "string",
                  "name": "portId",
                  "type": "string"
                },
                {
                  "internalType": "bytes32",
                  "name": "channelId",
                  "type": "bytes32"
                }
              ],
              "internalType": "struct IbcEndpoint",
              "name": "dest",
              "type": "tuple"
            },
            {
              "internalType": "uint64",
              "name": "sequence",
              "type": "uint64"
            },
            {
              "internalType": "bytes",
              "name": "data",
              "type": "bytes"
            },
            {
              "components": [
                {
                  "internalType": "uint64",
                  "name": "block",
                  "type": "uint64"
                },
                {
                  "internalType": "uint64",
                  "name": "timestamp",
                  "type": "uint64"
                }
              ],
              "internalType": "struct IbcTimeout",
              "name": "timeout",
              "type": "tuple"
            }
          ],
          "internalType": "struct IbcPacket",
          "name": "packet",
          "type": "tuple"
        },
        {
          "components": [
            {
              "internalType": "uint64",
              "name": "proofHeight",
              "type": "uint64"
            },
            {
              "internalType": "bytes",
              "name": "proof",
              "type": "bytes"
            }
          ],
          "internalType": "struct Proof",
          "name": "proof",
          "type": "tuple"
        }
      ],
      "name": "onTimeoutPacket",
      "outputs": [],
      "stateMutability": "nonpayable",
      "type": "function"
    },
    {
      "inputs": [
        {
          "internalType": "address",
          "name": "portAddress",
          "type": "address"
        },
        {
          "internalType": "bytes32",
          "name": "version",
          "type": "bytes32"
        },
        {
          "internalType": "enum ChannelOrder",
          "name": "ordering",
          "type": "uint8"
        },
        {
          "internalType": "string[]",
          "name": "connectionHops",
          "type": "string[]"
        },
        {
          "internalType": "bytes32",
          "name": "counterpartyChannelId",
          "type": "bytes32"
        },
        {
          "internalType": "string",
          "name": "counterpartyPortId",
          "type": "string"
        },
        {
          "internalType": "bytes32",
          "name": "counterpartyVersion",
          "type": "bytes32"
        },
        {
          "components": [
            {
              "internalType": "uint64",
              "name": "proofHeight",
              "type": "uint64"
            },
            {
              "internalType": "bytes",
              "name": "proof",
              "type": "bytes"
            }
          ],
          "internalType": "struct Proof",
          "name": "proof",
          "type": "tuple"
        }
      ],
      "name": "openIbcChannel",
      "outputs": [],
      "stateMutability": "nonpayable",
      "type": "function"
    },
    {
      "inputs": [],
      "name": "owner",
      "outputs": [
        {
          "internalType": "address",
          "name": "",
          "type": "address"
        }
      ],
      "stateMutability": "view",
      "type": "function"
    },
    {
      "inputs": [],
      "name": "renounceOwnership",
      "outputs": [],
      "stateMutability": "nonpayable",
      "type": "function"
    },
    {
      "inputs": [
        {
          "internalType": "bytes32",
          "name": "channelId",
          "type": "bytes32"
        },
        {
          "internalType": "bytes",
          "name": "packet",
          "type": "bytes"
        },
        {
          "internalType": "uint64",
          "name": "timeoutTimestamp",
          "type": "uint64"
        }
      ],
      "name": "sendPacket",
      "outputs": [],
      "stateMutability": "nonpayable",
      "type": "function"
    },
    {
      "inputs": [
        {
          "internalType": "address",
          "name": "newOwner",
          "type": "address"
        }
      ],
      "name": "transferOwnership",
      "outputs": [],
      "stateMutability": "nonpayable",
      "type": "function"
    },
    {
      "inputs": [
        {
          "internalType": "bytes",
          "name": "consensusState",
          "type": "bytes"
        }
      ],
      "name": "updateClient",
      "outputs": [],
      "stateMutability": "nonpayable",
      "type": "function"
    }
  ],
  "bytecode": "0x60806040526000600360006101000a81548167ffffffffffffffff021916908367ffffffffffffffff1602179055503480156200003b57600080fd5b5060405162002e3438038062002e3483398181016040528101906200006191906200021a565b6200008162000075620000e460201b60201c565b620000ec60201b60201c565b80600160006101000a81548173ffffffffffffffffffffffffffffffffffffffff021916908373ffffffffffffffffffffffffffffffffffffffff1602179055506000600160146101000a81548160ff021916908315150217905550506200024c565b600033905090565b60008060009054906101000a900473ffffffffffffffffffffffffffffffffffffffff169050816000806101000a81548173ffffffffffffffffffffffffffffffffffffffff021916908373ffffffffffffffffffffffffffffffffffffffff1602179055508173ffffffffffffffffffffffffffffffffffffffff168173ffffffffffffffffffffffffffffffffffffffff167f8be0079c531659141344cd1fd0a4f28419497f9722a3daafe3b4186f6b6457e060405160405180910390a35050565b600080fd5b600073ffffffffffffffffffffffffffffffffffffffff82169050919050565b6000620001e282620001b5565b9050919050565b620001f481620001d5565b81146200020057600080fd5b50565b6000815190506200021481620001e9565b92915050565b600060208284031215620002335762000232620001b0565b5b6000620002438482850162000203565b91505092915050565b612bd8806200025c6000396000f3fe608060405234801561001057600080fd5b50600436106100f55760003560e01c80638a2d42f511610097578063ca1288ed11610066578063ca1288ed14610220578063d2e9aa561461023c578063e6815c1214610258578063f2fde38b14610274576100f5565b80638a2d42f5146101ac5780638da5cb5b146101c8578063c2a2514d146101e6578063c3e1155c14610204576100f5565b80633e24aaf3116100d35780633e24aaf31461014e57806348f407821461016a57806364260a6014610186578063715018a6146101a2576100f5565b80630ad8d666146100fa5780630bece3561461011657806328f2c4c014610132575b600080fd5b610114600480360381019061010f91906112c4565b610290565b005b610130600480360381019061012b91906113b4565b6103a2565b005b61014c60048036038101906101479190611534565b6104f6565b005b61016860048036038101906101639190611647565b6107b5565b005b610184600480360381019061017f91906116c8565b61083f565b005b6101a0600480360381019061019b91906112c4565b610900565b005b6101aa6109b8565b005b6101c660048036038101906101c191906116c8565b6109cc565b005b6101d0610a8d565b6040516101dd919061179a565b60405180910390f35b6101ee610ab6565b6040516101fb919061184e565b60405180910390f35b61021e600480360381019061021991906118b0565b610b44565b005b61023a60048036038101906102359190611924565b610b9d565b005b61025660048036038101906102519190611a0d565b610c03565b005b610272600480360381019061026d9190611acd565b610cbd565b005b61028e60048036038101906102899190611b1a565b610d11565b005b61029981610d95565b6102d8576040517f08c379a00000000000000000000000000000000000000000000000000000000081526004016102cf90611ba4565b60405180910390fd5b8180602001906102e89190611bd3565b602001358280600001906102fc9190611bd3565b602001357f080631928e492258b6a102fc2ab3e0a8dfcb747ab0885c25f9cb7a8d486210368480600001906103319190611bd3565b80600001906103409190611bfb565b8680602001906103509190611bd3565b806000019061035f9190611bfb565b88806060019061036f9190611c5e565b8a60400160208101906103829190611cc1565b6040516103959796959493929190611d66565b60405180910390a3505050565b600160149054906101000a900460ff166103f1576040517f08c379a00000000000000000000000000000000000000000000000000000000081526004016103e890611e12565b60405180910390fd5b600160009054906101000a900473ffffffffffffffffffffffffffffffffffffffff1673ffffffffffffffffffffffffffffffffffffffff1663e1ec100c600284846040518463ffffffff1660e01b815260040161045193929190611f28565b60206040518083038186803b15801561046957600080fd5b505afa15801561047d573d6000803e3d6000fd5b505050506040513d601f19601f820116820180604052508101906104a19190611f99565b6104e0576040517f08c379a00000000000000000000000000000000000000000000000000000000081526004016104d790612038565b60405180910390fd5b8181600291906104f1929190611164565b505050565b600160009054906101000a900473ffffffffffffffffffffffffffffffffffffffff1673ffffffffffffffffffffffffffffffffffffffff16639511059d6002836040518060600160405280602e8152602001612b75602e91396040518463ffffffff1660e01b815260040161056e939291906121c9565b60206040518083038186803b15801561058657600080fd5b505afa15801561059a573d6000803e3d6000fd5b505050506040513d601f19601f820116820180604052508101906105be9190611f99565b6105fd576040517f08c379a00000000000000000000000000000000000000000000000000000000081526004016105f490612274565b60405180910390fd5b60008a905060006106a06040518060400160405280600881526020017f6368616e6e656c2d00000000000000000000000000000000000000000000000081525061069b6003600081819054906101000a900467ffffffffffffffff1680929190610666906122c3565b91906101000a81548167ffffffffffffffff021916908367ffffffffffffffff16021790555067ffffffffffffffff16610dc3565b610e9b565b6106a990612326565b905060008273ffffffffffffffffffffffffffffffffffffffff1663da972ca6838e8e8e8e8e8e8e8e6040518a63ffffffff1660e01b81526004016106f699989796959493929190612568565b602060405180830381600087803b15801561071057600080fd5b505af1158015610724573d6000803e3d6000fd5b505050506040513d601f19601f8201168201806040525081019061074891906125fe565b905087828e73ffffffffffffffffffffffffffffffffffffffff167f3a062c69da5f8c9a2e92280798c3c02f22a85b94ab35c8d54dc32b03252ae68b848f8f8f8e8e8e60405161079e979695949392919061262b565b60405180910390a450505050505050505050505050565b6107bd610ec7565b600160149054906101000a900460ff161561080d576040517f08c379a0000000000000000000000000000000000000000000000000000000008152600401610804906126dc565b60405180910390fd5b60018060146101000a81548160ff021916908315150217905550818160029190610838929190611164565b5050505050565b61084883610d95565b610887576040517f08c379a000000000000000000000000000000000000000000000000000000000815260040161087e90611ba4565b60405180910390fd5b8573ffffffffffffffffffffffffffffffffffffffff16630a845081868685856040518563ffffffff1660e01b81526004016108c694939291906126fc565b600060405180830381600087803b1580156108e057600080fd5b505af11580156108f4573d6000803e3d6000fd5b50505050505050505050565b61090981610d95565b610948576040517f08c379a000000000000000000000000000000000000000000000000000000000815260040161093f90611ba4565b60405180910390fd5b8273ffffffffffffffffffffffffffffffffffffffff1663b33c2577836040518263ffffffff1660e01b815260040161098191906128cc565b600060405180830381600087803b15801561099b57600080fd5b505af11580156109af573d6000803e3d6000fd5b50505050505050565b6109c0610ec7565b6109ca6000610f45565b565b6109d583610d95565b610a14576040517f08c379a0000000000000000000000000000000000000000000000000000000008152600401610a0b90611ba4565b60405180910390fd5b8573ffffffffffffffffffffffffffffffffffffffff16636afd6174868685856040518563ffffffff1660e01b8152600401610a5394939291906126fc565b600060405180830381600087803b158015610a6d57600080fd5b505af1158015610a81573d6000803e3d6000fd5b50505050505050505050565b60008060009054906101000a900473ffffffffffffffffffffffffffffffffffffffff16905090565b60028054610ac390611e61565b80601f0160208091040260200160405190810160405280929190818152602001828054610aef90611e61565b8015610b3c5780601f10610b1157610100808354040283529160200191610b3c565b820191906000526020600020905b815481529060010190602001808311610b1f57829003601f168201915b505050505081565b833373ffffffffffffffffffffffffffffffffffffffff167fe5f4762afde15256ce24aa385b449d27b7d2776921f3c673f8162ddb5b7a2f16858585604051610b8f939291906128ee565b60405180910390a350505050565b3373ffffffffffffffffffffffffffffffffffffffff167fd38dbe544e1f1277b020a61acc0dd2cf9ddcf99471a49a288a3ada57f3206a738989898989898989604051610bf1989796959493929190612920565b60405180910390a25050505050505050565b610c0c81610d95565b610c4b576040517f08c379a0000000000000000000000000000000000000000000000000000000008152600401610c4290611ba4565b60405180910390fd5b8473ffffffffffffffffffffffffffffffffffffffff1663f45cf5e4856040518263ffffffff1660e01b8152600401610c8491906128cc565b600060405180830381600087803b158015610c9e57600080fd5b505af1158015610cb2573d6000803e3d6000fd5b505050505050505050565b3373ffffffffffffffffffffffffffffffffffffffff167f18280cf62c6d3f3519d7cff5c5b7e91021dd17a0278ba5668976d82bdc9faa9e8383604051610d05929190612989565b60405180910390a25050565b610d19610ec7565b600073ffffffffffffffffffffffffffffffffffffffff168173ffffffffffffffffffffffffffffffffffffffff161415610d89576040517f08c379a0000000000000000000000000000000000000000000000000000000008152600401610d8090612a1f565b60405180910390fd5b610d9281610f45565b50565b600080828060200190610da89190611c5e565b90501415610db95760009050610dbe565b600190505b919050565b606060006001610dd284611009565b01905060008167ffffffffffffffff811115610df157610df0612a3f565b5b6040519080825280601f01601f191660200182016040528015610e235781602001600182028036833780820191505090505b509050600082602001820190505b600115610e90578080600190039150507f3031323334353637383961626364656600000000000000000000000000000000600a86061a8153600a8581610e7a57610e79612a6e565b5b0494506000851415610e8b57610e90565b610e31565b819350505050919050565b60608282604051602001610eb0929190612ae4565b604051602081830303815290604052905092915050565b610ecf61115c565b73ffffffffffffffffffffffffffffffffffffffff16610eed610a8d565b73ffffffffffffffffffffffffffffffffffffffff1614610f43576040517f08c379a0000000000000000000000000000000000000000000000000000000008152600401610f3a90612b54565b60405180910390fd5b565b60008060009054906101000a900473ffffffffffffffffffffffffffffffffffffffff169050816000806101000a81548173ffffffffffffffffffffffffffffffffffffffff021916908373ffffffffffffffffffffffffffffffffffffffff1602179055508173ffffffffffffffffffffffffffffffffffffffff168173ffffffffffffffffffffffffffffffffffffffff167f8be0079c531659141344cd1fd0a4f28419497f9722a3daafe3b4186f6b6457e060405160405180910390a35050565b600080600090507a184f03e93ff9f4daa797ed6e38ed64bf6a1f0100000000000000008310611067577a184f03e93ff9f4daa797ed6e38ed64bf6a1f010000000000000000838161105d5761105c612a6e565b5b0492506040810190505b6d04ee2d6d415b85acef810000000083106110a4576d04ee2d6d415b85acef8100000000838161109a57611099612a6e565b5b0492506020810190505b662386f26fc1000083106110d357662386f26fc1000083816110c9576110c8612a6e565b5b0492506010810190505b6305f5e10083106110fc576305f5e10083816110f2576110f1612a6e565b5b0492506008810190505b612710831061112157612710838161111757611116612a6e565b5b0492506004810190505b60648310611144576064838161113a57611139612a6e565b5b0492506002810190505b600a8310611153576001810190505b80915050919050565b600033905090565b82805461117090611e61565b90600052602060002090601f01602090048101928261119257600085556111d9565b82601f106111ab57803560ff19168380011785556111d9565b828001600101855582156111d9579182015b828111156111d85782358255916020019190600101906111bd565b5b5090506111e691906111ea565b5090565b5b808211156112035760008160009055506001016111eb565b5090565b600080fd5b600080fd5b600073ffffffffffffffffffffffffffffffffffffffff82169050919050565b600061123c82611211565b9050919050565b600061124e82611231565b9050919050565b61125e81611243565b811461126957600080fd5b50565b60008135905061127b81611255565b92915050565b600080fd5b600060c0828403121561129c5761129b611281565b5b81905092915050565b6000604082840312156112bb576112ba611281565b5b81905092915050565b6000806000606084860312156112dd576112dc611207565b5b60006112eb8682870161126c565b935050602084013567ffffffffffffffff81111561130c5761130b61120c565b5b61131886828701611286565b925050604084013567ffffffffffffffff8111156113395761133861120c565b5b611345868287016112a5565b9150509250925092565b600080fd5b600080fd5b600080fd5b60008083601f8401126113745761137361134f565b5b8235905067ffffffffffffffff81111561139157611390611354565b5b6020830191508360018202830111156113ad576113ac611359565b5b9250929050565b600080602083850312156113cb576113ca611207565b5b600083013567ffffffffffffffff8111156113e9576113e861120c565b5b6113f58582860161135e565b92509250509250929050565b61140a81611231565b811461141557600080fd5b50565b60008135905061142781611401565b92915050565b6000819050919050565b6114408161142d565b811461144b57600080fd5b50565b60008135905061145d81611437565b92915050565b6002811061147057600080fd5b50565b60008135905061148281611463565b92915050565b60008083601f84011261149e5761149d61134f565b5b8235905067ffffffffffffffff8111156114bb576114ba611354565b5b6020830191508360208202830111156114d7576114d6611359565b5b9250929050565b60008083601f8401126114f4576114f361134f565b5b8235905067ffffffffffffffff81111561151157611510611354565b5b60208301915083600182028301111561152d5761152c611359565b5b9250929050565b6000806000806000806000806000806101008b8d03121561155857611557611207565b5b60006115668d828e01611418565b9a505060206115778d828e0161144e565b99505060406115888d828e01611473565b98505060608b013567ffffffffffffffff8111156115a9576115a861120c565b5b6115b58d828e01611488565b975097505060806115c88d828e0161144e565b95505060a08b013567ffffffffffffffff8111156115e9576115e861120c565b5b6115f58d828e016114de565b945094505060c06116088d828e0161144e565b92505060e08b013567ffffffffffffffff8111156116295761162861120c565b5b6116358d828e016112a5565b9150509295989b9194979a5092959850565b6000806000806040858703121561166157611660611207565b5b600085013567ffffffffffffffff81111561167f5761167e61120c565b5b61168b8782880161135e565b9450945050602085013567ffffffffffffffff8111156116ae576116ad61120c565b5b6116ba8782880161135e565b925092505092959194509250565b600080600080600080608087890312156116e5576116e4611207565b5b60006116f389828a0161126c565b965050602087013567ffffffffffffffff8111156117145761171361120c565b5b61172089828a016114de565b9550955050604087013567ffffffffffffffff8111156117435761174261120c565b5b61174f89828a016112a5565b935050606087013567ffffffffffffffff8111156117705761176f61120c565b5b61177c89828a016114de565b92509250509295509295509295565b61179481611231565b82525050565b60006020820190506117af600083018461178b565b92915050565b600081519050919050565b600082825260208201905092915050565b60005b838110156117ef5780820151818401526020810190506117d4565b838111156117fe576000848401525b50505050565b6000601f19601f8301169050919050565b6000611820826117b5565b61182a81856117c0565b935061183a8185602086016117d1565b61184381611804565b840191505092915050565b600060208201905081810360008301526118688184611815565b905092915050565b600067ffffffffffffffff82169050919050565b61188d81611870565b811461189857600080fd5b50565b6000813590506118aa81611884565b92915050565b600080600080606085870312156118ca576118c9611207565b5b60006118d88782880161144e565b945050602085013567ffffffffffffffff8111156118f9576118f861120c565b5b6119058782880161135e565b935093505060406119188782880161189b565b91505092959194509250565b6000806000806000806000806080898b03121561194457611943611207565b5b600089013567ffffffffffffffff8111156119625761196161120c565b5b61196e8b828c016114de565b9850985050602089013567ffffffffffffffff8111156119915761199061120c565b5b61199d8b828c016114de565b9650965050604089013567ffffffffffffffff8111156119c0576119bf61120c565b5b6119cc8b828c016114de565b9450945050606089013567ffffffffffffffff8111156119ef576119ee61120c565b5b6119fb8b828c016114de565b92509250509295985092959890939650565b600080600080600060808688031215611a2957611a28611207565b5b6000611a378882890161126c565b955050602086013567ffffffffffffffff811115611a5857611a5761120c565b5b611a6488828901611286565b945050604086013567ffffffffffffffff811115611a8557611a8461120c565b5b611a918882890161135e565b9350935050606086013567ffffffffffffffff811115611ab457611ab361120c565b5b611ac0888289016112a5565b9150509295509295909350565b60008060208385031215611ae457611ae3611207565b5b600083013567ffffffffffffffff811115611b0257611b0161120c565b5b611b0e858286016114de565b92509250509250929050565b600060208284031215611b3057611b2f611207565b5b6000611b3e84828501611418565b91505092915050565b600082825260208201905092915050565b7f50726f6f6620766572696669636174696f6e206661696c656400000000000000600082015250565b6000611b8e601983611b47565b9150611b9982611b58565b602082019050919050565b60006020820190508181036000830152611bbd81611b81565b9050919050565b600080fd5b600080fd5b600080fd5b600082356001604003833603038112611bef57611bee611bc4565b5b80830191505092915050565b60008083356001602003843603038112611c1857611c17611bc4565b5b80840192508235915067ffffffffffffffff821115611c3a57611c39611bc9565b5b602083019250600182023603831315611c5657611c55611bce565b5b509250929050565b60008083356001602003843603038112611c7b57611c7a611bc4565b5b80840192508235915067ffffffffffffffff821115611c9d57611c9c611bc9565b5b602083019250600182023603831315611cb957611cb8611bce565b5b509250929050565b600060208284031215611cd757611cd6611207565b5b6000611ce58482850161189b565b91505092915050565b82818337600083830152505050565b6000611d098385611b47565b9350611d16838584611cee565b611d1f83611804565b840190509392505050565b6000611d3683856117c0565b9350611d43838584611cee565b611d4c83611804565b840190509392505050565b611d6081611870565b82525050565b60006080820190508181036000830152611d8181898b611cfd565b90508181036020830152611d96818789611cfd565b90508181036040830152611dab818587611d2a565b9050611dba6060830184611d57565b98975050505050505050565b7f436c69656e74206e6f7420637265617465640000000000000000000000000000600082015250565b6000611dfc601283611b47565b9150611e0782611dc6565b602082019050919050565b60006020820190508181036000830152611e2b81611def565b9050919050565b7f4e487b7100000000000000000000000000000000000000000000000000000000600052602260045260246000fd5b60006002820490506001821680611e7957607f821691505b60208210811415611e8d57611e8c611e32565b5b50919050565b60008190508160005260206000209050919050565b60008154611eb581611e61565b611ebf81866117c0565b94506001821660008114611eda5760018114611eec57611f1f565b60ff1983168652602086019350611f1f565b611ef585611e93565b60005b83811015611f1757815481890152600182019150602081019050611ef8565b808801955050505b50505092915050565b60006040820190508181036000830152611f428186611ea8565b90508181036020830152611f57818486611d2a565b9050949350505050565b60008115159050919050565b611f7681611f61565b8114611f8157600080fd5b50565b600081519050611f9381611f6d565b92915050565b600060208284031215611faf57611fae611207565b5b6000611fbd84828501611f84565b91505092915050565b7f436f6e73656e73757320737461746520766572696669636174696f6e2066616960008201527f6c65640000000000000000000000000000000000000000000000000000000000602082015250565b6000612022602383611b47565b915061202d82611fc6565b604082019050919050565b6000602082019050818103600083015261205181612015565b9050919050565b6000612067602084018461189b565b905092915050565b61207881611870565b82525050565b600080fd5b600080fd5b600080fd5b600080833560016020038436030381126120aa576120a9612088565b5b83810192508235915060208301925067ffffffffffffffff8211156120d2576120d161207e565b5b6001820236038413156120e8576120e7612083565b5b509250929050565b600082825260208201905092915050565b600061210d83856120f0565b935061211a838584611cee565b61212383611804565b840190509392505050565b6000604083016121416000840184612058565b61214e600086018261206f565b5061215c602084018461208d565b858303602087015261216f838284612101565b925050508091505092915050565b7f6368616e6e656c2f706174682f746f2f62652f61646465642f68657265000000600082015250565b60006121b3601d836117c0565b91506121be8261217d565b602082019050919050565b600060808201905081810360008301526121e38186611ea8565b905081810360208301526121f7818561212e565b9050818103604083015261220a816121a6565b9050818103606083015261221e8184611815565b9050949350505050565b7f4661696c20746f2070726f7665206368616e6e656c2073746174650000000000600082015250565b600061225e601b83611b47565b915061226982612228565b602082019050919050565b6000602082019050818103600083015261228d81612251565b9050919050565b7f4e487b7100000000000000000000000000000000000000000000000000000000600052601160045260246000fd5b60006122ce82611870565b915067ffffffffffffffff8214156122e9576122e8612294565b5b600182019050919050565b6000819050602082019050919050565b6000612310825161142d565b80915050919050565b600082821b905092915050565b6000612331826117b5565b8261233b846122f4565b905061234681612304565b92506020821015612386576123817fffffffffffffffffffffffffffffffffffffffffffffffffffffffffffffffff83602003600802612319565b831692505b5050919050565b6123968161142d565b82525050565b7f4e487b7100000000000000000000000000000000000000000000000000000000600052602160045260246000fd5b600281106123dc576123db61239c565b5b50565b60008190506123ed826123cb565b919050565b60006123fd826123df565b9050919050565b61240d816123f2565b82525050565b600082825260208201905092915050565b6000819050919050565b600082825260208201905092915050565b600061244b838561242e565b9350612458838584611cee565b61246183611804565b840190509392505050565b600061247984848461243f565b90509392505050565b6000808335600160200384360303811261249f5761249e612088565b5b83810192508235915060208301925067ffffffffffffffff8211156124c7576124c661207e565b5b6001820236038413156124dd576124dc612083565b5b509250929050565b6000602082019050919050565b60006124fe8385612413565b93508360208402850161251084612424565b8060005b8781101561255657848403895261252b8284612482565b61253686828461246c565b9550612541846124e5565b935060208b019a505050600181019050612514565b50829750879450505050509392505050565b600060e08201905061257d600083018c61238d565b61258a602083018b61238d565b612597604083018a612404565b81810360608301526125aa81888a6124f2565b90506125b9608083018761238d565b81810360a08301526125cc818587611cfd565b90506125db60c083018461238d565b9a9950505050505050505050565b6000815190506125f881611437565b92915050565b60006020828403121561261457612613611207565b5b6000612622848285016125e9565b91505092915050565b600060a082019050612640600083018a61238d565b61264d6020830189612404565b81810360408301526126608187896124f2565b90508181036060830152612675818587611cfd565b9050612684608083018461238d565b98975050505050505050565b7f436c69656e7420616c7265616479206372656174656400000000000000000000600082015250565b60006126c6601683611b47565b91506126d182612690565b602082019050919050565b600060208201905081810360008301526126f5816126b9565b9050919050565b60006040820190508181036000830152612717818688611cfd565b9050818103602083015261272c818486611cfd565b905095945050505050565b60008235600160400383360303811261275357612752612088565b5b82810191505092915050565b600061276e602084018461144e565b905092915050565b61277f8161142d565b82525050565b6000604083016127986000840184612482565b85830360008701526127ab83828461243f565b925050506127bc602084018461275f565b6127c96020860182612776565b508091505092915050565b600082905092915050565b604082016127f06000830183612058565b6127fd600085018261206f565b5061280b6020830183612058565b612818602085018261206f565b50505050565b600060c083016128316000840184612737565b84820360008601526128438282612785565b9150506128536020840184612737565b84820360208601526128658282612785565b9150506128756040840184612058565b612882604086018261206f565b50612890606084018461208d565b85830360608701526128a3838284612101565b925050506128b460808401846127d4565b6128c160808601826127df565b508091505092915050565b600060208201905081810360008301526128e6818461281e565b905092915050565b60006040820190508181036000830152612909818587611d2a565b90506129186020830184611d57565b949350505050565b6000608082019050818103600083015261293b818a8c611cfd565b9050818103602083015261295081888a611cfd565b90508181036040830152612965818688611cfd565b9050818103606083015261297a818486611cfd565b90509998505050505050505050565b600060208201905081810360008301526129a4818486611cfd565b90509392505050565b7f4f776e61626c653a206e6577206f776e657220697320746865207a65726f206160008201527f6464726573730000000000000000000000000000000000000000000000000000602082015250565b6000612a09602683611b47565b9150612a14826129ad565b604082019050919050565b60006020820190508181036000830152612a38816129fc565b9050919050565b7f4e487b7100000000000000000000000000000000000000000000000000000000600052604160045260246000fd5b7f4e487b7100000000000000000000000000000000000000000000000000000000600052601260045260246000fd5b600081519050919050565b600081905092915050565b6000612abe82612a9d565b612ac88185612aa8565b9350612ad88185602086016117d1565b80840191505092915050565b6000612af08285612ab3565b9150612afc8284612ab3565b91508190509392505050565b7f4f776e61626c653a2063616c6c6572206973206e6f7420746865206f776e6572600082015250565b6000612b3e602083611b47565b9150612b4982612b08565b602082019050919050565b60006020820190508181036000830152612b6d81612b31565b905091905056fe6578706563746564206368616e6e656c20627974657320636f6e73747275637465642066726f6d20706172616d73a26469706673582212201aef4135b68f498bf28ed8b45c17b878f6bc1b12e2470e5ae2a0c3b44703db1b64736f6c63430008090033",
  "linkReferences": {},
  "deployedLinkReferences": {}
}