{
  "_format": "hh-sol-artifact-1",
  "contractName": "Dispatcher",
  "sourceName": "contracts/Dispatcher.sol",
  "abi": [
    {
      "inputs": [
        {
          "internalType": "contract ZKMintVerifier",
          "name": "_verifier",
          "type": "address"
        },
        {
          "internalType": "address payable",
          "name": "_escrow",
          "type": "address"
        }
      ],
      "stateMutability": "nonpayable",
      "type": "constructor"
    },
    {
      "anonymous": false,
      "inputs": [
        {
          "indexed": true,
          "internalType": "address",
          "name": "portAddress",
          "type": "address"
        },
        {
          "indexed": true,
          "internalType": "bytes32",
          "name": "channelId",
          "type": "bytes32"
        }
      ],
      "name": "CloseIbcChannel",
      "type": "event"
    },
    {
      "anonymous": false,
      "inputs": [
        {
          "indexed": true,
          "internalType": "address",
          "name": "portAddress",
          "type": "address"
        },
        {
          "indexed": true,
          "internalType": "bytes32",
          "name": "channelId",
          "type": "bytes32"
        },
        {
          "indexed": false,
          "internalType": "string",
          "name": "counterpartyPortId",
          "type": "string"
        },
        {
          "indexed": true,
          "internalType": "bytes32",
          "name": "counterpartyChannelId",
          "type": "bytes32"
        },
        {
          "indexed": false,
          "internalType": "string[]",
          "name": "connectionHops",
          "type": "string[]"
        }
      ],
      "name": "ConnectIbcChannel",
      "type": "event"
    },
    {
      "anonymous": false,
      "inputs": [
        {
          "indexed": true,
          "internalType": "bytes32",
          "name": "srcChannelId",
          "type": "bytes32"
        },
        {
          "indexed": false,
          "internalType": "string",
          "name": "srcPortId",
          "type": "string"
        },
        {
          "indexed": true,
          "internalType": "bytes32",
          "name": "destChannelId",
          "type": "bytes32"
        },
        {
          "indexed": false,
          "internalType": "string",
          "name": "destPortId",
          "type": "string"
        },
        {
          "indexed": false,
          "internalType": "bytes",
          "name": "data",
          "type": "bytes"
        },
        {
          "indexed": false,
          "internalType": "uint64",
          "name": "sequence",
          "type": "uint64"
        }
      ],
      "name": "OnRecvPacket",
      "type": "event"
    },
    {
      "anonymous": false,
      "inputs": [
        {
          "indexed": true,
          "internalType": "address",
          "name": "portAddress",
          "type": "address"
        },
        {
          "indexed": true,
          "internalType": "bytes32",
          "name": "counterpartyChannelId",
          "type": "bytes32"
        },
        {
          "indexed": false,
          "internalType": "bytes32",
          "name": "version",
          "type": "bytes32"
        },
        {
          "indexed": false,
          "internalType": "enum ChannelOrder",
          "name": "ordering",
          "type": "uint8"
        },
        {
          "indexed": false,
          "internalType": "string[]",
          "name": "connectionHops",
          "type": "string[]"
        },
        {
          "indexed": false,
          "internalType": "string",
          "name": "counterpartyPortId",
          "type": "string"
        },
        {
          "indexed": false,
          "internalType": "bytes32",
          "name": "counterpartyVersion",
          "type": "bytes32"
        }
      ],
      "name": "OpenIbcChannel",
      "type": "event"
    },
    {
      "anonymous": false,
      "inputs": [
        {
          "indexed": true,
          "internalType": "address",
          "name": "previousOwner",
          "type": "address"
        },
        {
          "indexed": true,
          "internalType": "address",
          "name": "newOwner",
          "type": "address"
        }
      ],
      "name": "OwnershipTransferred",
      "type": "event"
    },
    {
      "anonymous": false,
      "inputs": [
        {
          "indexed": true,
          "internalType": "address",
          "name": "sourcePortAddress",
          "type": "address"
        },
        {
          "indexed": true,
          "internalType": "bytes32",
          "name": "sourceChannelId",
          "type": "bytes32"
        },
        {
          "indexed": false,
          "internalType": "bytes",
          "name": "packet",
          "type": "bytes"
        },
        {
          "indexed": false,
          "internalType": "uint64",
          "name": "sequence",
          "type": "uint64"
        },
        {
          "indexed": false,
          "internalType": "uint64",
          "name": "timeoutTimestamp",
          "type": "uint64"
        },
        {
          "indexed": false,
          "internalType": "uint256",
          "name": "fee",
          "type": "uint256"
        }
      ],
      "name": "SendPacket",
      "type": "event"
    },
    {
      "inputs": [
        {
          "internalType": "bytes32",
          "name": "channelId",
          "type": "bytes32"
        }
      ],
      "name": "closeIbcChannel",
      "outputs": [],
      "stateMutability": "nonpayable",
      "type": "function"
    },
    {
      "inputs": [
        {
          "internalType": "contract IbcReceiver",
          "name": "portAddress",
          "type": "address"
        },
        {
          "internalType": "bytes32",
          "name": "channelId",
          "type": "bytes32"
        },
        {
          "internalType": "string[]",
          "name": "connectionHops",
          "type": "string[]"
        },
        {
          "internalType": "enum ChannelOrder",
          "name": "ordering",
          "type": "uint8"
        },
        {
          "internalType": "string",
          "name": "counterpartyPortId",
          "type": "string"
        },
        {
          "internalType": "bytes32",
          "name": "counterpartyChannelId",
          "type": "bytes32"
        },
        {
          "internalType": "bytes32",
          "name": "counterpartyVersion",
          "type": "bytes32"
        },
        {
          "components": [
            {
              "internalType": "uint64",
              "name": "proofHeight",
              "type": "uint64"
            },
            {
              "internalType": "bytes",
              "name": "proof",
              "type": "bytes"
            }
          ],
          "internalType": "struct Proof",
          "name": "proof",
          "type": "tuple"
        }
      ],
      "name": "connectIbcChannel",
      "outputs": [],
      "stateMutability": "nonpayable",
      "type": "function"
    },
    {
      "inputs": [
        {
          "components": [
            {
              "internalType": "bytes",
              "name": "clientState",
              "type": "bytes"
            },
            {
              "internalType": "bytes",
              "name": "consensusState",
              "type": "bytes"
            }
          ],
          "internalType": "struct InitClient",
          "name": "initClient",
          "type": "tuple"
        }
      ],
      "name": "createClient",
      "outputs": [],
      "stateMutability": "nonpayable",
      "type": "function"
    },
    {
      "inputs": [
        {
          "internalType": "address",
          "name": "portAddress",
          "type": "address"
        },
        {
          "internalType": "bytes32",
          "name": "channelId",
          "type": "bytes32"
        }
      ],
      "name": "getChannel",
      "outputs": [
        {
          "components": [
            {
              "internalType": "bytes32",
              "name": "version",
              "type": "bytes32"
            },
            {
              "internalType": "enum ChannelOrder",
              "name": "ordering",
              "type": "uint8"
            },
            {
              "internalType": "string[]",
              "name": "connectionHops",
              "type": "string[]"
            },
            {
              "internalType": "string",
              "name": "counterpartyPortId",
              "type": "string"
            },
            {
              "internalType": "bytes32",
              "name": "counterpartyChannelId",
              "type": "bytes32"
            }
          ],
          "internalType": "struct Channel",
          "name": "",
          "type": "tuple"
        }
      ],
      "stateMutability": "view",
      "type": "function"
    },
    {
      "inputs": [],
      "name": "latestConsensusState",
      "outputs": [
        {
          "internalType": "bytes",
          "name": "",
          "type": "bytes"
        }
      ],
      "stateMutability": "view",
      "type": "function"
    },
    {
      "inputs": [
        {
          "internalType": "contract IbcReceiver",
          "name": "receiver",
          "type": "address"
        },
        {
          "components": [
            {
              "components": [
                {
                  "internalType": "string",
                  "name": "portId",
                  "type": "string"
                },
                {
                  "internalType": "bytes32",
                  "name": "channelId",
                  "type": "bytes32"
                }
              ],
              "internalType": "struct IbcEndpoint",
              "name": "src",
              "type": "tuple"
            },
            {
              "components": [
                {
                  "internalType": "string",
                  "name": "portId",
                  "type": "string"
                },
                {
                  "internalType": "bytes32",
                  "name": "channelId",
                  "type": "bytes32"
                }
              ],
              "internalType": "struct IbcEndpoint",
              "name": "dest",
              "type": "tuple"
            },
            {
              "internalType": "uint64",
              "name": "sequence",
              "type": "uint64"
            },
            {
              "internalType": "bytes",
              "name": "data",
              "type": "bytes"
            },
            {
              "components": [
                {
                  "internalType": "uint64",
                  "name": "block",
                  "type": "uint64"
                },
                {
                  "internalType": "uint64",
                  "name": "timestamp",
                  "type": "uint64"
                }
              ],
              "internalType": "struct IbcTimeout",
              "name": "timeout",
              "type": "tuple"
            }
          ],
          "internalType": "struct IbcPacket",
          "name": "packet",
          "type": "tuple"
        },
        {
          "internalType": "bytes",
          "name": "acknowledgement",
          "type": "bytes"
        },
        {
          "components": [
            {
              "internalType": "uint64",
              "name": "proofHeight",
              "type": "uint64"
            },
            {
              "internalType": "bytes",
              "name": "proof",
              "type": "bytes"
            }
          ],
          "internalType": "struct Proof",
          "name": "proof",
          "type": "tuple"
        }
      ],
      "name": "onAcknowledgementPacket",
      "outputs": [],
      "stateMutability": "nonpayable",
      "type": "function"
    },
    {
      "inputs": [
        {
          "internalType": "address",
          "name": "portAddress",
          "type": "address"
        },
        {
          "internalType": "bytes32",
          "name": "channelId",
          "type": "bytes32"
        },
        {
          "components": [
            {
              "internalType": "uint64",
              "name": "proofHeight",
              "type": "uint64"
            },
            {
              "internalType": "bytes",
              "name": "proof",
              "type": "bytes"
            }
          ],
          "internalType": "struct Proof",
          "name": "proof",
          "type": "tuple"
        }
      ],
      "name": "onCloseIbcChannel",
      "outputs": [],
      "stateMutability": "nonpayable",
      "type": "function"
    },
    {
      "inputs": [
        {
          "internalType": "contract IbcReceiver",
          "name": "receiver",
          "type": "address"
        },
        {
          "components": [
            {
              "components": [
                {
                  "internalType": "string",
                  "name": "portId",
                  "type": "string"
                },
                {
                  "internalType": "bytes32",
                  "name": "channelId",
                  "type": "bytes32"
                }
              ],
              "internalType": "struct IbcEndpoint",
              "name": "src",
              "type": "tuple"
            },
            {
              "components": [
                {
                  "internalType": "string",
                  "name": "portId",
                  "type": "string"
                },
                {
                  "internalType": "bytes32",
                  "name": "channelId",
                  "type": "bytes32"
                }
              ],
              "internalType": "struct IbcEndpoint",
              "name": "dest",
              "type": "tuple"
            },
            {
              "internalType": "uint64",
              "name": "sequence",
              "type": "uint64"
            },
            {
              "internalType": "bytes",
              "name": "data",
              "type": "bytes"
            },
            {
              "components": [
                {
                  "internalType": "uint64",
                  "name": "block",
                  "type": "uint64"
                },
                {
                  "internalType": "uint64",
                  "name": "timestamp",
                  "type": "uint64"
                }
              ],
              "internalType": "struct IbcTimeout",
              "name": "timeout",
              "type": "tuple"
            }
          ],
          "internalType": "struct IbcPacket",
          "name": "packet",
          "type": "tuple"
        },
        {
          "components": [
            {
              "internalType": "uint64",
              "name": "proofHeight",
              "type": "uint64"
            },
            {
              "internalType": "bytes",
              "name": "proof",
              "type": "bytes"
            }
          ],
          "internalType": "struct Proof",
          "name": "proof",
          "type": "tuple"
        }
      ],
      "name": "onRecvPacket",
      "outputs": [],
      "stateMutability": "nonpayable",
      "type": "function"
    },
    {
      "inputs": [
        {
          "internalType": "contract IbcReceiver",
          "name": "receiver",
          "type": "address"
        },
        {
          "components": [
            {
              "components": [
                {
                  "internalType": "string",
                  "name": "portId",
                  "type": "string"
                },
                {
                  "internalType": "bytes32",
                  "name": "channelId",
                  "type": "bytes32"
                }
              ],
              "internalType": "struct IbcEndpoint",
              "name": "src",
              "type": "tuple"
            },
            {
              "components": [
                {
                  "internalType": "string",
                  "name": "portId",
                  "type": "string"
                },
                {
                  "internalType": "bytes32",
                  "name": "channelId",
                  "type": "bytes32"
                }
              ],
              "internalType": "struct IbcEndpoint",
              "name": "dest",
              "type": "tuple"
            },
            {
              "internalType": "uint64",
              "name": "sequence",
              "type": "uint64"
            },
            {
              "internalType": "bytes",
              "name": "data",
              "type": "bytes"
            },
            {
              "components": [
                {
                  "internalType": "uint64",
                  "name": "block",
                  "type": "uint64"
                },
                {
                  "internalType": "uint64",
                  "name": "timestamp",
                  "type": "uint64"
                }
              ],
              "internalType": "struct IbcTimeout",
              "name": "timeout",
              "type": "tuple"
            }
          ],
          "internalType": "struct IbcPacket",
          "name": "packet",
          "type": "tuple"
        },
        {
          "components": [
            {
              "internalType": "uint64",
              "name": "proofHeight",
              "type": "uint64"
            },
            {
              "internalType": "bytes",
              "name": "proof",
              "type": "bytes"
            }
          ],
          "internalType": "struct Proof",
          "name": "proof",
          "type": "tuple"
        }
      ],
      "name": "onTimeoutPacket",
      "outputs": [],
      "stateMutability": "nonpayable",
      "type": "function"
    },
    {
      "inputs": [
        {
          "internalType": "contract IbcReceiver",
          "name": "portAddress",
          "type": "address"
        },
        {
          "internalType": "bytes32",
          "name": "version",
          "type": "bytes32"
        },
        {
          "internalType": "enum ChannelOrder",
          "name": "ordering",
          "type": "uint8"
        },
        {
          "internalType": "string[]",
          "name": "connectionHops",
          "type": "string[]"
        },
        {
          "internalType": "bytes32",
          "name": "counterpartyChannelId",
          "type": "bytes32"
        },
        {
          "internalType": "string",
          "name": "counterpartyPortId",
          "type": "string"
        },
        {
          "internalType": "bytes32",
          "name": "counterpartyVersion",
          "type": "bytes32"
        }
      ],
      "name": "openIbcChannel",
      "outputs": [],
      "stateMutability": "nonpayable",
      "type": "function"
    },
    {
      "inputs": [],
      "name": "owner",
      "outputs": [
        {
          "internalType": "address",
          "name": "",
          "type": "address"
        }
      ],
      "stateMutability": "view",
      "type": "function"
    },
    {
      "inputs": [
        {
          "internalType": "address",
          "name": "",
          "type": "address"
        },
        {
          "internalType": "bytes32",
          "name": "",
          "type": "bytes32"
        }
      ],
      "name": "portChannelMap",
      "outputs": [
        {
          "internalType": "bytes32",
          "name": "version",
          "type": "bytes32"
        },
        {
          "internalType": "enum ChannelOrder",
          "name": "ordering",
          "type": "uint8"
        },
        {
          "internalType": "string",
          "name": "counterpartyPortId",
          "type": "string"
        },
        {
          "internalType": "bytes32",
          "name": "counterpartyChannelId",
          "type": "bytes32"
        }
      ],
      "stateMutability": "view",
      "type": "function"
    },
    {
      "inputs": [],
      "name": "renounceOwnership",
      "outputs": [],
      "stateMutability": "nonpayable",
      "type": "function"
    },
    {
      "inputs": [
        {
          "internalType": "bytes32",
          "name": "channelId",
          "type": "bytes32"
        },
        {
          "internalType": "bytes",
          "name": "packet",
          "type": "bytes"
        },
        {
          "internalType": "uint64",
          "name": "timeoutTimestamp",
          "type": "uint64"
        },
        {
          "internalType": "uint256",
          "name": "fee",
          "type": "uint256"
        }
      ],
      "name": "sendPacket",
      "outputs": [],
      "stateMutability": "payable",
      "type": "function"
    },
    {
      "inputs": [
        {
          "internalType": "address",
          "name": "newOwner",
          "type": "address"
        }
      ],
      "name": "transferOwnership",
      "outputs": [],
      "stateMutability": "nonpayable",
      "type": "function"
    },
    {
      "inputs": [
        {
          "internalType": "bytes",
          "name": "consensusState",
          "type": "bytes"
        }
      ],
      "name": "updateClient",
      "outputs": [],
      "stateMutability": "nonpayable",
      "type": "function"
    }
  ],
  "bytecode": "0x60806040526000600260146101000a81548160ff0219169083151502179055506000600460006101000a81548167ffffffffffffffff021916908367ffffffffffffffff1602179055503480156200005657600080fd5b50604051620043fd380380620043fd83398181016040528101906200007c91906200034a565b6200009c62000090620001bb60201b60201c565b620001c360201b60201c565b81600160006101000a81548173ffffffffffffffffffffffffffffffffffffffff021916908373ffffffffffffffffffffffffffffffffffffffff16021790555080600260006101000a81548173ffffffffffffffffffffffffffffffffffffffff021916908373ffffffffffffffffffffffffffffffffffffffff160217905550600073ffffffffffffffffffffffffffffffffffffffff16600260009054906101000a900473ffffffffffffffffffffffffffffffffffffffff1673ffffffffffffffffffffffffffffffffffffffff161415620001b3576040517f08c379a0000000000000000000000000000000000000000000000000000000008152600401620001aa90620003f2565b60405180910390fd5b505062000414565b600033905090565b60008060009054906101000a900473ffffffffffffffffffffffffffffffffffffffff169050816000806101000a81548173ffffffffffffffffffffffffffffffffffffffff021916908373ffffffffffffffffffffffffffffffffffffffff1602179055508173ffffffffffffffffffffffffffffffffffffffff168173ffffffffffffffffffffffffffffffffffffffff167f8be0079c531659141344cd1fd0a4f28419497f9722a3daafe3b4186f6b6457e060405160405180910390a35050565b600080fd5b600073ffffffffffffffffffffffffffffffffffffffff82169050919050565b6000620002b9826200028c565b9050919050565b6000620002cd82620002ac565b9050919050565b620002df81620002c0565b8114620002eb57600080fd5b50565b600081519050620002ff81620002d4565b92915050565b600062000312826200028c565b9050919050565b620003248162000305565b81146200033057600080fd5b50565b600081519050620003448162000319565b92915050565b6000806040838503121562000364576200036362000287565b5b60006200037485828601620002ee565b9250506020620003878582860162000333565b9150509250929050565b600082825260208201905092915050565b7f457363726f772063616e6e6f74206265207a65726f2061646472657373000000600082015250565b6000620003da601d8362000391565b9150620003e782620003a2565b602082019050919050565b600060208201905081810360008301526200040d81620003cb565b9050919050565b613fd980620004246000396000f3fe6080604052600436106100f35760003560e01c80638b24b4cb1161008a578063b2b1bf0311610059578063b2b1bf03146102db578063c2a2514d1461031b578063d2e9aa5614610346578063f2fde38b1461036f576100f3565b80638b24b4cb146102425780638d3d5aa91461026b5780638da5cb5b14610287578063951538f3146102b2576100f3565b8063487fca7e116100c6578063487fca7e146101b05780634c9778d3146101d957806364260a6014610202578063715018a61461022b576100f3565b80630ad8d666146100f85780630bece356146101215780631f456c1e1461014a57806342852d2414610173575b600080fd5b34801561010457600080fd5b5061011f600480360381019061011a9190612184565b610398565b005b34801561012d57600080fd5b5061014860048036038101906101439190612274565b6104aa565b005b34801561015657600080fd5b50610171600480360381019061016c91906123c8565b6105fe565b005b34801561017f57600080fd5b5061019a600480360381019061019591906124d6565b610702565b6040516101a79190612774565b60405180910390f35b3480156101bc57600080fd5b506101d760048036038101906101d291906127b5565b610927565b005b3480156101e557600080fd5b5061020060048036038101906101fb91906127fe565b6109bd565b005b34801561020e57600080fd5b5061022960048036038101906102249190612184565b610cef565b005b34801561023757600080fd5b50610240610da7565b005b34801561024e57600080fd5b5061026960048036038101906102649190612911565b610dbb565b005b610285600480360381019061028091906129b4565b6110e3565b005b34801561029357600080fd5b5061029c611561565b6040516102a99190612a4b565b60405180910390f35b3480156102be57600080fd5b506102d960048036038101906102d49190612a66565b61158a565b005b3480156102e757600080fd5b5061030260048036038101906102fd91906124d6565b611a52565b6040516103129493929190612b3d565b60405180910390f35b34801561032757600080fd5b50610330611b24565b60405161033d9190612bde565b60405180910390f35b34801561035257600080fd5b5061036d60048036038101906103689190612c00565b611bb2565b005b34801561037b57600080fd5b5061039660048036038101906103919190612cc0565b611c6c565b005b6103a181611cf0565b6103e0576040517f08c379a00000000000000000000000000000000000000000000000000000000081526004016103d790612d39565b60405180910390fd5b8180602001906103f09190612d68565b602001358280600001906104049190612d68565b602001357f080631928e492258b6a102fc2ab3e0a8dfcb747ab0885c25f9cb7a8d486210368480600001906104399190612d68565b80600001906104489190612d90565b8680602001906104589190612d68565b80600001906104679190612d90565b8880606001906104779190612df3565b8a604001602081019061048a9190612e56565b60405161049d9796959493929190612efb565b60405180910390a3505050565b600260149054906101000a900460ff166104f9576040517f08c379a00000000000000000000000000000000000000000000000000000000081526004016104f090612fa7565b60405180910390fd5b600160009054906101000a900473ffffffffffffffffffffffffffffffffffffffff1673ffffffffffffffffffffffffffffffffffffffff1663e1ec100c600384846040518463ffffffff1660e01b8152600401610559939291906130bd565b60206040518083038186803b15801561057157600080fd5b505afa158015610585573d6000803e3d6000fd5b505050506040513d601f19601f820116820180604052508101906105a9919061312e565b6105e8576040517f08c379a00000000000000000000000000000000000000000000000000000000081526004016105df906131cd565b60405180910390fd5b8181600391906105f9929190611e68565b505050565b60008973ffffffffffffffffffffffffffffffffffffffff1663486592198a8a8a8a8a8a8a8a6040518963ffffffff1660e01b8152600401610647989796959493929190613340565b602060405180830381600087803b15801561066157600080fd5b505af1158015610675573d6000803e3d6000fd5b505050506040513d601f19601f8201168201806040525081019061069991906133c8565b9050848a73ffffffffffffffffffffffffffffffffffffffff167f9a93c124e7f0aa93d3fbe660b1366e0483b4267619924382261498efbb92c873838b8b8b8a8a8a6040516106ee97969594939291906133f5565b60405180910390a350505050505050505050565b61070a611eee565b600560008473ffffffffffffffffffffffffffffffffffffffff1673ffffffffffffffffffffffffffffffffffffffff16815260200190815260200160002060008381526020019081526020016000206040518060a0016040529081600082015481526020016001820160009054906101000a900460ff16600181111561079457610793612525565b5b60018111156107a6576107a5612525565b5b815260200160028201805480602002602001604051908101604052809291908181526020016000905b8282101561087b5783829060005260206000200180546107ee90612ff6565b80601f016020809104026020016040519081016040528092919081815260200182805461081a90612ff6565b80156108675780601f1061083c57610100808354040283529160200191610867565b820191906000526020600020905b81548152906001019060200180831161084a57829003601f168201915b5050505050815260200190600101906107cf565b50505050815260200160038201805461089390612ff6565b80601f01602080910402602001604051908101604052809291908181526020018280546108bf90612ff6565b801561090c5780601f106108e15761010080835404028352916020019161090c565b820191906000526020600020905b8154815290600101906020018083116108ef57829003601f168201915b50505050508152602001600482015481525050905092915050565b61092f611d1e565b600260149054906101000a900460ff161561097f576040517f08c379a0000000000000000000000000000000000000000000000000000000008152600401610976906134a6565b60405180910390fd5b6001600260146101000a81548160ff0219169083151502179055508080602001906109aa9190612df3565b600391906109b9929190611e68565b5050565b600160009054906101000a900473ffffffffffffffffffffffffffffffffffffffff1673ffffffffffffffffffffffffffffffffffffffff16639511059d6003836040518060800160405280605e8152602001613ef3605e91396040518463ffffffff1660e01b8152600401610a3593929190613628565b60206040518083038186803b158015610a4d57600080fd5b505afa158015610a61573d6000803e3d6000fd5b505050506040513d601f19601f82011682018060405250810190610a85919061312e565b610ac4576040517f08c379a0000000000000000000000000000000000000000000000000000000008152600401610abb906136d3565b60405180910390fd5b8973ffffffffffffffffffffffffffffffffffffffff1663e60a72938a85856040518463ffffffff1660e01b8152600401610b01939291906136f3565b600060405180830381600087803b158015610b1b57600080fd5b505af1158015610b2f573d6000803e3d6000fd5b505050506040518060a00160405280838152602001876001811115610b5757610b56612525565b5b8152602001898990610b6991906138fe565b815260200186868080601f016020809104026020016040519081016040528093929190818152602001838380828437600081840152601f19601f82011690508083019250505050505050815260200184815250600560008c73ffffffffffffffffffffffffffffffffffffffff1673ffffffffffffffffffffffffffffffffffffffff16815260200190815260200160002060008b81526020019081526020016000206000820151816000015560208201518160010160006101000a81548160ff02191690836001811115610c4157610c40612525565b5b02179055506040820151816002019080519060200190610c62929190611f35565b506060820151816003019080519060200190610c7f929190611f95565b506080820151816004015590505082898b73ffffffffffffffffffffffffffffffffffffffff167f57ea540ad7b8bfd2813b8637764ba029fedc52de3f812934a46511506aa11b8e88888d8d604051610cdb9493929190613913565b60405180910390a450505050505050505050565b610cf881611cf0565b610d37576040517f08c379a0000000000000000000000000000000000000000000000000000000008152600401610d2e90612d39565b60405180910390fd5b8273ffffffffffffffffffffffffffffffffffffffff1663b33c2577836040518263ffffffff1660e01b8152600401610d709190613ad4565b600060405180830381600087803b158015610d8a57600080fd5b505af1158015610d9e573d6000803e3d6000fd5b50505050505050565b610daf611d1e565b610db96000611d9c565b565b6000600560003373ffffffffffffffffffffffffffffffffffffffff1673ffffffffffffffffffffffffffffffffffffffff16815260200190815260200160002060008381526020019081526020016000206040518060a0016040529081600082015481526020016001820160009054906101000a900460ff166001811115610e4757610e46612525565b5b6001811115610e5957610e58612525565b5b815260200160028201805480602002602001604051908101604052809291908181526020016000905b82821015610f2e578382906000526020600020018054610ea190612ff6565b80601f0160208091040260200160405190810160405280929190818152602001828054610ecd90612ff6565b8015610f1a5780601f10610eef57610100808354040283529160200191610f1a565b820191906000526020600020905b815481529060010190602001808311610efd57829003601f168201915b505050505081526020019060010190610e82565b505050508152602001600382018054610f4690612ff6565b80601f0160208091040260200160405190810160405280929190818152602001828054610f7290612ff6565b8015610fbf5780601f10610f9457610100808354040283529160200191610fbf565b820191906000526020600020905b815481529060010190602001808311610fa257829003601f168201915b5050505050815260200160048201548152505090506000801b8160800151141561101e576040517f08c379a000000000000000000000000000000000000000000000000000000000815260040161101590613b42565b60405180910390fd5b60003390508073ffffffffffffffffffffffffffffffffffffffff16635fe39e0d84846060015185608001516040518463ffffffff1660e01b815260040161106893929190613b62565b600060405180830381600087803b15801561108257600080fd5b505af1158015611096573d6000803e3d6000fd5b50505050823373ffffffffffffffffffffffffffffffffffffffff167fe893e4ba0e364cdc96364b1e1e0d53b0d91e5fd6aa0ee9d81a17ecd61178bf1760405160405180910390a3505050565b6000600560003373ffffffffffffffffffffffffffffffffffffffff1673ffffffffffffffffffffffffffffffffffffffff16815260200190815260200160002060008781526020019081526020016000206040518060a0016040529081600082015481526020016001820160009054906101000a900460ff16600181111561116f5761116e612525565b5b600181111561118157611180612525565b5b815260200160028201805480602002602001604051908101604052809291908181526020016000905b828210156112565783829060005260206000200180546111c990612ff6565b80601f01602080910402602001604051908101604052809291908181526020018280546111f590612ff6565b80156112425780601f1061121757610100808354040283529160200191611242565b820191906000526020600020905b81548152906001019060200180831161122557829003601f168201915b5050505050815260200190600101906111aa565b50505050815260200160038201805461126e90612ff6565b80601f016020809104026020016040519081016040528092919081815260200182805461129a90612ff6565b80156112e75780601f106112bc576101008083540402835291602001916112e7565b820191906000526020600020905b8154815290600101906020018083116112ca57829003601f168201915b5050505050815260200160048201548152505090506000801b81608001511415611346576040517f08c379a000000000000000000000000000000000000000000000000000000000815260040161133d90613bec565b60405180910390fd5b6000600260009054906101000a900473ffffffffffffffffffffffffffffffffffffffff1673ffffffffffffffffffffffffffffffffffffffff168360405161138e90613c3d565b60006040518083038185875af1925050503d80600081146113cb576040519150601f19603f3d011682016040523d82523d6000602084013e6113d0565b606091505b5050905080611414576040517f08c379a000000000000000000000000000000000000000000000000000000000815260040161140b90613c9e565b60405180910390fd5b6000600660003373ffffffffffffffffffffffffffffffffffffffff1673ffffffffffffffffffffffffffffffffffffffff168152602001908152602001600020600089815260200190815260200160002060009054906101000a900467ffffffffffffffff16905060018161148a9190613ced565b600660003373ffffffffffffffffffffffffffffffffffffffff1673ffffffffffffffffffffffffffffffffffffffff16815260200190815260200160002060008a815260200190815260200160002060006101000a81548167ffffffffffffffff021916908367ffffffffffffffff160217905550873373ffffffffffffffffffffffffffffffffffffffff167fc55a6c1340ca55a6b61de30037455a7f9f4a5b8ff106e4eaa0c23ea886fa03608989858a8a60405161154f959493929190613d3a565b60405180910390a35050505050505050565b60008060009054906101000a900473ffffffffffffffffffffffffffffffffffffffff16905090565b600160009054906101000a900473ffffffffffffffffffffffffffffffffffffffff1673ffffffffffffffffffffffffffffffffffffffff16639511059d600383604051806080016040528060538152602001613f51605391396040518463ffffffff1660e01b815260040161160293929190613628565b60206040518083038186803b15801561161a57600080fd5b505afa15801561162e573d6000803e3d6000fd5b505050506040513d601f19601f82011682018060405250810190611652919061312e565b611691576040517f08c379a0000000000000000000000000000000000000000000000000000000008152600401611688906136d3565b60405180910390fd5b6000600560008573ffffffffffffffffffffffffffffffffffffffff1673ffffffffffffffffffffffffffffffffffffffff16815260200190815260200160002060008481526020019081526020016000206040518060a0016040529081600082015481526020016001820160009054906101000a900460ff16600181111561171d5761171c612525565b5b600181111561172f5761172e612525565b5b815260200160028201805480602002602001604051908101604052809291908181526020016000905b8282101561180457838290600052602060002001805461177790612ff6565b80601f01602080910402602001604051908101604052809291908181526020018280546117a390612ff6565b80156117f05780601f106117c5576101008083540402835291602001916117f0565b820191906000526020600020905b8154815290600101906020018083116117d357829003601f168201915b505050505081526020019060010190611758565b50505050815260200160038201805461181c90612ff6565b80601f016020809104026020016040519081016040528092919081815260200182805461184890612ff6565b80156118955780601f1061186a57610100808354040283529160200191611895565b820191906000526020600020905b81548152906001019060200180831161187857829003601f168201915b5050505050815260200160048201548152505090506000801b816080015114156118f4576040517f08c379a00000000000000000000000000000000000000000000000000000000081526004016118eb90613dd4565b60405180910390fd5b60008490508073ffffffffffffffffffffffffffffffffffffffff16635fe39e0d85846060015185608001516040518463ffffffff1660e01b815260040161193e93929190613b62565b600060405180830381600087803b15801561195857600080fd5b505af115801561196c573d6000803e3d6000fd5b50505050600560008673ffffffffffffffffffffffffffffffffffffffff1673ffffffffffffffffffffffffffffffffffffffff16815260200190815260200160002060008581526020019081526020016000206000808201600090556001820160006101000a81549060ff02191690556002820160006119ed919061201b565b6003820160006119fd919061203c565b60048201600090555050838573ffffffffffffffffffffffffffffffffffffffff167fe893e4ba0e364cdc96364b1e1e0d53b0d91e5fd6aa0ee9d81a17ecd61178bf1760405160405180910390a35050505050565b6005602052816000526040600020602052806000526040600020600091509150508060000154908060010160009054906101000a900460ff1690806003018054611a9b90612ff6565b80601f0160208091040260200160405190810160405280929190818152602001828054611ac790612ff6565b8015611b145780601f10611ae957610100808354040283529160200191611b14565b820191906000526020600020905b815481529060010190602001808311611af757829003601f168201915b5050505050908060040154905084565b60038054611b3190612ff6565b80601f0160208091040260200160405190810160405280929190818152602001828054611b5d90612ff6565b8015611baa5780601f10611b7f57610100808354040283529160200191611baa565b820191906000526020600020905b815481529060010190602001808311611b8d57829003601f168201915b505050505081565b611bbb81611cf0565b611bfa576040517f08c379a0000000000000000000000000000000000000000000000000000000008152600401611bf190612d39565b60405180910390fd5b8473ffffffffffffffffffffffffffffffffffffffff1663f45cf5e4856040518263ffffffff1660e01b8152600401611c339190613ad4565b600060405180830381600087803b158015611c4d57600080fd5b505af1158015611c61573d6000803e3d6000fd5b505050505050505050565b611c74611d1e565b600073ffffffffffffffffffffffffffffffffffffffff168173ffffffffffffffffffffffffffffffffffffffff161415611ce4576040517f08c379a0000000000000000000000000000000000000000000000000000000008152600401611cdb90613e66565b60405180910390fd5b611ced81611d9c565b50565b600080828060200190611d039190612df3565b90501415611d145760009050611d19565b600190505b919050565b611d26611e60565b73ffffffffffffffffffffffffffffffffffffffff16611d44611561565b73ffffffffffffffffffffffffffffffffffffffff1614611d9a576040517f08c379a0000000000000000000000000000000000000000000000000000000008152600401611d9190613ed2565b60405180910390fd5b565b60008060009054906101000a900473ffffffffffffffffffffffffffffffffffffffff169050816000806101000a81548173ffffffffffffffffffffffffffffffffffffffff021916908373ffffffffffffffffffffffffffffffffffffffff1602179055508173ffffffffffffffffffffffffffffffffffffffff168173ffffffffffffffffffffffffffffffffffffffff167f8be0079c531659141344cd1fd0a4f28419497f9722a3daafe3b4186f6b6457e060405160405180910390a35050565b600033905090565b828054611e7490612ff6565b90600052602060002090601f016020900481019282611e965760008555611edd565b82601f10611eaf57803560ff1916838001178555611edd565b82800160010185558215611edd579182015b82811115611edc578235825591602001919060010190611ec1565b5b509050611eea919061207c565b5090565b6040518060a001604052806000801916815260200160006001811115611f1757611f16612525565b5b81526020016060815260200160608152602001600080191681525090565b828054828255906000526020600020908101928215611f84579160200282015b82811115611f83578251829080519060200190611f73929190611f95565b5091602001919060010190611f55565b5b509050611f919190612099565b5090565b828054611fa190612ff6565b90600052602060002090601f016020900481019282611fc3576000855561200a565b82601f10611fdc57805160ff191683800117855561200a565b8280016001018555821561200a579182015b82811115612009578251825591602001919060010190611fee565b5b509050612017919061207c565b5090565b50805460008255906000526020600020908101906120399190612099565b50565b50805461204890612ff6565b6000825580601f1061205a5750612079565b601f016020900490600052602060002090810190612078919061207c565b5b50565b5b8082111561209557600081600090555060010161207d565b5090565b5b808211156120b957600081816120b0919061203c565b5060010161209a565b5090565b6000604051905090565b600080fd5b600080fd5b600073ffffffffffffffffffffffffffffffffffffffff82169050919050565b60006120fc826120d1565b9050919050565b600061210e826120f1565b9050919050565b61211e81612103565b811461212957600080fd5b50565b60008135905061213b81612115565b92915050565b600080fd5b600060c0828403121561215c5761215b612141565b5b81905092915050565b60006040828403121561217b5761217a612141565b5b81905092915050565b60008060006060848603121561219d5761219c6120c7565b5b60006121ab8682870161212c565b935050602084013567ffffffffffffffff8111156121cc576121cb6120cc565b5b6121d886828701612146565b925050604084013567ffffffffffffffff8111156121f9576121f86120cc565b5b61220586828701612165565b9150509250925092565b600080fd5b600080fd5b600080fd5b60008083601f8401126122345761223361220f565b5b8235905067ffffffffffffffff81111561225157612250612214565b5b60208301915083600182028301111561226d5761226c612219565b5b9250929050565b6000806020838503121561228b5761228a6120c7565b5b600083013567ffffffffffffffff8111156122a9576122a86120cc565b5b6122b58582860161221e565b92509250509250929050565b6000819050919050565b6122d4816122c1565b81146122df57600080fd5b50565b6000813590506122f1816122cb565b92915050565b6002811061230457600080fd5b50565b600081359050612316816122f7565b92915050565b60008083601f8401126123325761233161220f565b5b8235905067ffffffffffffffff81111561234f5761234e612214565b5b60208301915083602082028301111561236b5761236a612219565b5b9250929050565b60008083601f8401126123885761238761220f565b5b8235905067ffffffffffffffff8111156123a5576123a4612214565b5b6020830191508360018202830111156123c1576123c0612219565b5b9250929050565b600080600080600080600080600060e08a8c0312156123ea576123e96120c7565b5b60006123f88c828d0161212c565b99505060206124098c828d016122e2565b985050604061241a8c828d01612307565b97505060608a013567ffffffffffffffff81111561243b5761243a6120cc565b5b6124478c828d0161231c565b9650965050608061245a8c828d016122e2565b94505060a08a013567ffffffffffffffff81111561247b5761247a6120cc565b5b6124878c828d01612372565b935093505060c061249a8c828d016122e2565b9150509295985092959850929598565b6124b3816120f1565b81146124be57600080fd5b50565b6000813590506124d0816124aa565b92915050565b600080604083850312156124ed576124ec6120c7565b5b60006124fb858286016124c1565b925050602061250c858286016122e2565b9150509250929050565b61251f816122c1565b82525050565b7f4e487b7100000000000000000000000000000000000000000000000000000000600052602160045260246000fd5b6002811061256557612564612525565b5b50565b600081905061257682612554565b919050565b600061258682612568565b9050919050565b6125968161257b565b82525050565b600081519050919050565b600082825260208201905092915050565b6000819050602082019050919050565b600081519050919050565b600082825260208201905092915050565b60005b838110156126025780820151818401526020810190506125e7565b83811115612611576000848401525b50505050565b6000601f19601f8301169050919050565b6000612633826125c8565b61263d81856125d3565b935061264d8185602086016125e4565b61265681612617565b840191505092915050565b600061266d8383612628565b905092915050565b6000602082019050919050565b600061268d8261259c565b61269781856125a7565b9350836020820285016126a9856125b8565b8060005b858110156126e557848403895281516126c68582612661565b94506126d183612675565b925060208a019950506001810190506126ad565b50829750879550505050505092915050565b600060a08301600083015161270f6000860182612516565b506020830151612722602086018261258d565b506040830151848203604086015261273a8282612682565b915050606083015184820360608601526127548282612628565b91505060808301516127696080860182612516565b508091505092915050565b6000602082019050818103600083015261278e81846126f7565b905092915050565b6000604082840312156127ac576127ab612141565b5b81905092915050565b6000602082840312156127cb576127ca6120c7565b5b600082013567ffffffffffffffff8111156127e9576127e86120cc565b5b6127f584828501612796565b91505092915050565b6000806000806000806000806000806101008b8d031215612822576128216120c7565b5b60006128308d828e0161212c565b9a505060206128418d828e016122e2565b99505060408b013567ffffffffffffffff811115612862576128616120cc565b5b61286e8d828e0161231c565b985098505060606128818d828e01612307565b96505060808b013567ffffffffffffffff8111156128a2576128a16120cc565b5b6128ae8d828e01612372565b955095505060a06128c18d828e016122e2565b93505060c06128d28d828e016122e2565b92505060e08b013567ffffffffffffffff8111156128f3576128f26120cc565b5b6128ff8d828e01612165565b9150509295989b9194979a5092959850565b600060208284031215612927576129266120c7565b5b6000612935848285016122e2565b91505092915050565b600067ffffffffffffffff82169050919050565b61295b8161293e565b811461296657600080fd5b50565b60008135905061297881612952565b92915050565b6000819050919050565b6129918161297e565b811461299c57600080fd5b50565b6000813590506129ae81612988565b92915050565b6000806000806000608086880312156129d0576129cf6120c7565b5b60006129de888289016122e2565b955050602086013567ffffffffffffffff8111156129ff576129fe6120cc565b5b612a0b8882890161221e565b94509450506040612a1e88828901612969565b9250506060612a2f8882890161299f565b9150509295509295909350565b612a45816120f1565b82525050565b6000602082019050612a606000830184612a3c565b92915050565b600080600060608486031215612a7f57612a7e6120c7565b5b6000612a8d868287016124c1565b9350506020612a9e868287016122e2565b925050604084013567ffffffffffffffff811115612abf57612abe6120cc565b5b612acb86828701612165565b9150509250925092565b612ade816122c1565b82525050565b612aed8161257b565b82525050565b600082825260208201905092915050565b6000612b0f826125c8565b612b198185612af3565b9350612b298185602086016125e4565b612b3281612617565b840191505092915050565b6000608082019050612b526000830187612ad5565b612b5f6020830186612ae4565b8181036040830152612b718185612b04565b9050612b806060830184612ad5565b95945050505050565b600081519050919050565b600082825260208201905092915050565b6000612bb082612b89565b612bba8185612b94565b9350612bca8185602086016125e4565b612bd381612617565b840191505092915050565b60006020820190508181036000830152612bf88184612ba5565b905092915050565b600080600080600060808688031215612c1c57612c1b6120c7565b5b6000612c2a8882890161212c565b955050602086013567ffffffffffffffff811115612c4b57612c4a6120cc565b5b612c5788828901612146565b945050604086013567ffffffffffffffff811115612c7857612c776120cc565b5b612c848882890161221e565b9350935050606086013567ffffffffffffffff811115612ca757612ca66120cc565b5b612cb388828901612165565b9150509295509295909350565b600060208284031215612cd657612cd56120c7565b5b6000612ce4848285016124c1565b91505092915050565b7f50726f6f6620766572696669636174696f6e206661696c656400000000000000600082015250565b6000612d23601983612af3565b9150612d2e82612ced565b602082019050919050565b60006020820190508181036000830152612d5281612d16565b9050919050565b600080fd5b600080fd5b600080fd5b600082356001604003833603038112612d8457612d83612d59565b5b80830191505092915050565b60008083356001602003843603038112612dad57612dac612d59565b5b80840192508235915067ffffffffffffffff821115612dcf57612dce612d5e565b5b602083019250600182023603831315612deb57612dea612d63565b5b509250929050565b60008083356001602003843603038112612e1057612e0f612d59565b5b80840192508235915067ffffffffffffffff821115612e3257612e31612d5e565b5b602083019250600182023603831315612e4e57612e4d612d63565b5b509250929050565b600060208284031215612e6c57612e6b6120c7565b5b6000612e7a84828501612969565b91505092915050565b82818337600083830152505050565b6000612e9e8385612af3565b9350612eab838584612e83565b612eb483612617565b840190509392505050565b6000612ecb8385612b94565b9350612ed8838584612e83565b612ee183612617565b840190509392505050565b612ef58161293e565b82525050565b60006080820190508181036000830152612f1681898b612e92565b90508181036020830152612f2b818789612e92565b90508181036040830152612f40818587612ebf565b9050612f4f6060830184612eec565b98975050505050505050565b7f436c69656e74206e6f7420637265617465640000000000000000000000000000600082015250565b6000612f91601283612af3565b9150612f9c82612f5b565b602082019050919050565b60006020820190508181036000830152612fc081612f84565b9050919050565b7f4e487b7100000000000000000000000000000000000000000000000000000000600052602260045260246000fd5b6000600282049050600182168061300e57607f821691505b6020821081141561302257613021612fc7565b5b50919050565b60008190508160005260206000209050919050565b6000815461304a81612ff6565b6130548186612b94565b9450600182166000811461306f5760018114613081576130b4565b60ff19831686526020860193506130b4565b61308a85613028565b60005b838110156130ac5781548189015260018201915060208101905061308d565b808801955050505b50505092915050565b600060408201905081810360008301526130d7818661303d565b905081810360208301526130ec818486612ebf565b9050949350505050565b60008115159050919050565b61310b816130f6565b811461311657600080fd5b50565b60008151905061312881613102565b92915050565b600060208284031215613144576131436120c7565b5b600061315284828501613119565b91505092915050565b7f436f6e73656e73757320737461746520766572696669636174696f6e2066616960008201527f6c65640000000000000000000000000000000000000000000000000000000000602082015250565b60006131b7602383612af3565b91506131c28261315b565b604082019050919050565b600060208201905081810360008301526131e6816131aa565b9050919050565b600082825260208201905092915050565b6000819050919050565b600061321483856125d3565b9350613221838584612e83565b61322a83612617565b840190509392505050565b6000613242848484613208565b90509392505050565b600080fd5b600080fd5b600080fd5b6000808335600160200384360303811261327757613276613255565b5b83810192508235915060208301925067ffffffffffffffff82111561329f5761329e61324b565b5b6001820236038413156132b5576132b4613250565b5b509250929050565b6000602082019050919050565b60006132d683856131ed565b9350836020840285016132e8846131fe565b8060005b8781101561332e578484038952613303828461325a565b61330e868284613235565b9550613319846132bd565b935060208b019a5050506001810190506132ec565b50829750879450505050509392505050565b600060c082019050613355600083018b612ad5565b613362602083018a612ae4565b818103604083015261337581888a6132ca565b90506133846060830187612ad5565b8181036080830152613397818587612e92565b90506133a660a0830184612ad5565b9998505050505050505050565b6000815190506133c2816122cb565b92915050565b6000602082840312156133de576133dd6120c7565b5b60006133ec848285016133b3565b91505092915050565b600060a08201905061340a600083018a612ad5565b6134176020830189612ae4565b818103604083015261342a8187896132ca565b9050818103606083015261343f818587612e92565b905061344e6080830184612ad5565b98975050505050505050565b7f436c69656e7420616c7265616479206372656174656400000000000000000000600082015250565b6000613490601683612af3565b915061349b8261345a565b602082019050919050565b600060208201905081810360008301526134bf81613483565b9050919050565b60006134d56020840184612969565b905092915050565b6134e68161293e565b82525050565b6000808335600160200384360303811261350957613508613255565b5b83810192508235915060208301925067ffffffffffffffff8211156135315761353061324b565b5b60018202360384131561354757613546613250565b5b509250929050565b600082825260208201905092915050565b600061356c838561354f565b9350613579838584612e83565b61358283612617565b840190509392505050565b6000604083016135a060008401846134c6565b6135ad60008601826134dd565b506135bb60208401846134ec565b85830360208701526135ce838284613560565b925050508091505092915050565b7f6368616e6e656c2f706174682f746f2f62652f61646465642f68657265000000600082015250565b6000613612601d83612b94565b915061361d826135dc565b602082019050919050565b60006080820190508181036000830152613642818661303d565b90508181036020830152613656818561358d565b9050818103604083015261366981613605565b9050818103606083015261367d8184612ba5565b9050949350505050565b7f4661696c20746f2070726f7665206368616e6e656c2073746174650000000000600082015250565b60006136bd601b83612af3565b91506136c882613687565b602082019050919050565b600060208201905081810360008301526136ec816136b0565b9050919050565b60006060820190506137086000830186612ad5565b6137156020830185612ad5565b6137226040830184612ad5565b949350505050565b7f4e487b7100000000000000000000000000000000000000000000000000000000600052604160045260246000fd5b61376282612617565b810181811067ffffffffffffffff821117156137815761378061372a565b5b80604052505050565b60006137946120bd565b90506137a08282613759565b919050565b600067ffffffffffffffff8211156137c0576137bf61372a565b5b602082029050602081019050919050565b600080fd5b600067ffffffffffffffff8211156137f1576137f061372a565b5b6137fa82612617565b9050602081019050919050565b600061381a613815846137d6565b61378a565b905082815260208101848484011115613836576138356137d1565b5b613841848285612e83565b509392505050565b600082601f83011261385e5761385d61220f565b5b813561386e848260208601613807565b91505092915050565b600061388a613885846137a5565b61378a565b905080838252602082019050602084028301858111156138ad576138ac612219565b5b835b818110156138f457803567ffffffffffffffff8111156138d2576138d161220f565b5b8086016138df8982613849565b855260208501945050506020810190506138af565b5050509392505050565b600061390b368484613877565b905092915050565b6000604082019050818103600083015261392e818688612e92565b905081810360208301526139438184866132ca565b905095945050505050565b60008235600160400383360303811261396a57613969613255565b5b82810191505092915050565b600061398560208401846122e2565b905092915050565b6000604083016139a0600084018461325a565b85830360008701526139b3838284613208565b925050506139c46020840184613976565b6139d16020860182612516565b508091505092915050565b600082905092915050565b604082016139f860008301836134c6565b613a0560008501826134dd565b50613a1360208301836134c6565b613a2060208501826134dd565b50505050565b600060c08301613a39600084018461394e565b8482036000860152613a4b828261398d565b915050613a5b602084018461394e565b8482036020860152613a6d828261398d565b915050613a7d60408401846134c6565b613a8a60408601826134dd565b50613a9860608401846134ec565b8583036060870152613aab838284613560565b92505050613abc60808401846139dc565b613ac960808601826139e7565b508091505092915050565b60006020820190508181036000830152613aee8184613a26565b905092915050565b7f4368616e6e656c206e6f74206f776e6564206279206d73672e73656e64657200600082015250565b6000613b2c601f83612af3565b9150613b3782613af6565b602082019050919050565b60006020820190508181036000830152613b5b81613b1f565b9050919050565b6000606082019050613b776000830186612ad5565b8181036020830152613b898185612b04565b9050613b986040830184612ad5565b949350505050565b7f4368616e6e656c206e6f74206f776e65642062792073656e6465720000000000600082015250565b6000613bd6601b83612af3565b9150613be182613ba0565b602082019050919050565b60006020820190508181036000830152613c0581613bc9565b9050919050565b600081905092915050565b50565b6000613c27600083613c0c565b9150613c3282613c17565b600082019050919050565b6000613c4882613c1a565b9150819050919050565b7f4661696c656420746f20657363726f77207061636b6574206665650000000000600082015250565b6000613c88601b83612af3565b9150613c9382613c52565b602082019050919050565b60006020820190508181036000830152613cb781613c7b565b9050919050565b7f4e487b7100000000000000000000000000000000000000000000000000000000600052601160045260246000fd5b6000613cf88261293e565b9150613d038361293e565b92508267ffffffffffffffff03821115613d2057613d1f613cbe565b5b828201905092915050565b613d348161297e565b82525050565b60006080820190508181036000830152613d55818789612ebf565b9050613d646020830186612eec565b613d716040830185612eec565b613d7e6060830184613d2b565b9695505050505050565b7f4368616e6e656c206e6f74206f776e656420627920706f727441646472657373600082015250565b6000613dbe602083612af3565b9150613dc982613d88565b602082019050919050565b60006020820190508181036000830152613ded81613db1565b9050919050565b7f4f776e61626c653a206e6577206f776e657220697320746865207a65726f206160008201527f6464726573730000000000000000000000000000000000000000000000000000602082015250565b6000613e50602683612af3565b9150613e5b82613df4565b604082019050919050565b60006020820190508181036000830152613e7f81613e43565b9050919050565b7f4f776e61626c653a2063616c6c6572206973206e6f7420746865206f776e6572600082015250565b6000613ebc602083612af3565b9150613ec782613e86565b602082019050919050565b60006020820190508181036000830152613eeb81613eaf565b905091905056fe6578706563746564206368616e6e656c20627974657320636f6e73747275637465642066726f6d20706172616d732e204368616e6e656c2e5374617465203d207b41636b5f50656e64696e672c20436f6e6669726d5f50656e64696e677d6578706563746564206368616e6e656c20627974657320636f6e73747275637465642066726f6d20706172616d732e204368616e6e656c2e5374617465203d207b436c6f736564285f50656e64696e673f297da26469706673582212201a17d07fccaab5d1dd292305b8284871653c51643636b44395a71fc38a654d5c64736f6c63430008090033",
  "linkReferences": {},
  "deployedLinkReferences": {}
}