{
  "_format": "hh-sol-artifact-1",
  "contractName": "Dispatcher",
  "sourceName": "contracts/Dispatcher.sol",
  "abi": [
    {
      "inputs": [
        {
          "internalType": "contract ZKMintVerifier",
          "name": "_verifier",
          "type": "address"
        },
        {
          "internalType": "address payable",
          "name": "_escrow",
          "type": "address"
        },
        {
          "internalType": "string",
          "name": "initPortPrefix",
          "type": "string"
        }
      ],
      "stateMutability": "nonpayable",
      "type": "constructor"
    },
    {
      "anonymous": false,
      "inputs": [
        {
          "indexed": true,
          "internalType": "address",
          "name": "sourcePortAddress",
          "type": "address"
        },
        {
          "indexed": true,
          "internalType": "bytes32",
          "name": "sourceChannelId",
          "type": "bytes32"
        },
        {
          "components": [
            {
              "internalType": "bool",
              "name": "success",
              "type": "bool"
            },
            {
              "internalType": "bytes",
              "name": "data",
              "type": "bytes"
            }
          ],
          "indexed": false,
          "internalType": "struct AckPacket",
          "name": "AckPacket",
          "type": "tuple"
        },
        {
          "indexed": false,
          "internalType": "uint64",
          "name": "sequence",
          "type": "uint64"
        }
      ],
      "name": "Acknowledgement",
      "type": "event"
    },
    {
      "anonymous": false,
      "inputs": [
        {
          "indexed": true,
          "internalType": "address",
          "name": "portAddress",
          "type": "address"
        },
        {
          "indexed": true,
          "internalType": "bytes32",
          "name": "channelId",
          "type": "bytes32"
        }
      ],
      "name": "CloseIbcChannel",
      "type": "event"
    },
    {
      "anonymous": false,
      "inputs": [
        {
          "indexed": true,
          "internalType": "address",
          "name": "portAddress",
          "type": "address"
        },
        {
          "indexed": true,
          "internalType": "bytes32",
          "name": "channelId",
          "type": "bytes32"
        },
        {
          "indexed": false,
          "internalType": "string",
          "name": "counterpartyPortId",
          "type": "string"
        },
        {
          "indexed": true,
          "internalType": "bytes32",
          "name": "counterpartyChannelId",
          "type": "bytes32"
        },
        {
          "indexed": false,
          "internalType": "string[]",
          "name": "connectionHops",
          "type": "string[]"
        }
      ],
      "name": "ConnectIbcChannel",
      "type": "event"
    },
    {
      "anonymous": false,
      "inputs": [
        {
          "indexed": true,
          "internalType": "address",
          "name": "portAddress",
          "type": "address"
        },
        {
          "indexed": true,
          "internalType": "bytes32",
          "name": "counterpartyChannelId",
          "type": "bytes32"
        },
        {
          "indexed": false,
          "internalType": "bytes32",
          "name": "version",
          "type": "bytes32"
        },
        {
          "indexed": false,
          "internalType": "enum ChannelOrder",
          "name": "ordering",
          "type": "uint8"
        },
        {
          "indexed": false,
          "internalType": "string[]",
          "name": "connectionHops",
          "type": "string[]"
        },
        {
          "indexed": false,
          "internalType": "string",
          "name": "counterpartyPortId",
          "type": "string"
        },
        {
          "indexed": false,
          "internalType": "bytes32",
          "name": "counterpartyVersion",
          "type": "bytes32"
        }
      ],
      "name": "OpenIbcChannel",
      "type": "event"
    },
    {
      "anonymous": false,
      "inputs": [
        {
          "indexed": true,
          "internalType": "address",
          "name": "previousOwner",
          "type": "address"
        },
        {
          "indexed": true,
          "internalType": "address",
          "name": "newOwner",
          "type": "address"
        }
      ],
      "name": "OwnershipTransferred",
      "type": "event"
    },
    {
      "anonymous": false,
      "inputs": [
        {
          "indexed": true,
          "internalType": "address",
          "name": "destPortAddress",
          "type": "address"
        },
        {
          "indexed": true,
          "internalType": "bytes32",
          "name": "destChannelId",
          "type": "bytes32"
        },
        {
          "indexed": false,
          "internalType": "string",
          "name": "srcPortId",
          "type": "string"
        },
        {
          "indexed": true,
          "internalType": "bytes32",
          "name": "srcChannelId",
          "type": "bytes32"
        },
        {
          "indexed": false,
          "internalType": "uint64",
          "name": "sequence",
          "type": "uint64"
        }
      ],
      "name": "RecvPacket",
      "type": "event"
    },
    {
      "anonymous": false,
      "inputs": [
        {
          "indexed": true,
          "internalType": "address",
          "name": "sourcePortAddress",
          "type": "address"
        },
        {
          "indexed": true,
          "internalType": "bytes32",
          "name": "sourceChannelId",
          "type": "bytes32"
        },
        {
          "indexed": false,
          "internalType": "bytes",
          "name": "packet",
          "type": "bytes"
        },
        {
          "indexed": false,
          "internalType": "uint64",
          "name": "sequence",
          "type": "uint64"
        },
        {
          "indexed": false,
          "internalType": "uint64",
          "name": "timeoutTimestamp",
          "type": "uint64"
        },
        {
          "indexed": false,
          "internalType": "uint256",
          "name": "fee",
          "type": "uint256"
        }
      ],
      "name": "SendPacket",
      "type": "event"
    },
    {
      "anonymous": false,
      "inputs": [
        {
          "indexed": true,
          "internalType": "address",
          "name": "sourcePortAddress",
          "type": "address"
        },
        {
          "indexed": true,
          "internalType": "bytes32",
          "name": "sourceChannelId",
          "type": "bytes32"
        },
        {
          "indexed": true,
          "internalType": "uint64",
          "name": "sequence",
          "type": "uint64"
        }
      ],
      "name": "Timeout",
      "type": "event"
    },
    {
      "anonymous": false,
      "inputs": [
        {
          "indexed": true,
          "internalType": "address",
          "name": "writerPortAddress",
          "type": "address"
        },
        {
          "indexed": true,
          "internalType": "bytes32",
          "name": "writerChannelId",
          "type": "bytes32"
        },
        {
          "indexed": false,
          "internalType": "uint64",
          "name": "sequence",
          "type": "uint64"
        },
        {
          "components": [
            {
              "internalType": "bool",
              "name": "success",
              "type": "bool"
            },
            {
              "internalType": "bytes",
              "name": "data",
              "type": "bytes"
            }
          ],
          "indexed": false,
          "internalType": "struct AckPacket",
          "name": "ackPacket",
          "type": "tuple"
        }
      ],
      "name": "WriteAckPacket",
      "type": "event"
    },
    {
      "anonymous": false,
      "inputs": [
        {
          "indexed": true,
          "internalType": "address",
          "name": "writerPortAddress",
          "type": "address"
        },
        {
          "indexed": true,
          "internalType": "bytes32",
          "name": "writerChannelId",
          "type": "bytes32"
        },
        {
          "indexed": false,
          "internalType": "uint64",
          "name": "sequence",
          "type": "uint64"
        }
      ],
      "name": "WriteTimeoutPacket",
      "type": "event"
    },
    {
      "inputs": [
        {
          "internalType": "contract IbcReceiver",
          "name": "receiver",
          "type": "address"
        },
        {
          "components": [
            {
              "components": [
                {
                  "internalType": "string",
                  "name": "portId",
                  "type": "string"
                },
                {
                  "internalType": "bytes32",
                  "name": "channelId",
                  "type": "bytes32"
                }
              ],
              "internalType": "struct IbcEndpoint",
              "name": "src",
              "type": "tuple"
            },
            {
              "components": [
                {
                  "internalType": "string",
                  "name": "portId",
                  "type": "string"
                },
                {
                  "internalType": "bytes32",
                  "name": "channelId",
                  "type": "bytes32"
                }
              ],
              "internalType": "struct IbcEndpoint",
              "name": "dest",
              "type": "tuple"
            },
            {
              "internalType": "uint64",
              "name": "sequence",
              "type": "uint64"
            },
            {
              "internalType": "bytes",
              "name": "data",
              "type": "bytes"
            },
            {
              "components": [
                {
                  "internalType": "uint64",
                  "name": "blockHeight",
                  "type": "uint64"
                },
                {
                  "internalType": "uint64",
                  "name": "timestamp",
                  "type": "uint64"
                }
              ],
              "internalType": "struct IbcTimeout",
              "name": "timeout",
              "type": "tuple"
            }
          ],
          "internalType": "struct IbcPacket",
          "name": "packet",
          "type": "tuple"
        },
        {
          "components": [
            {
              "internalType": "bool",
              "name": "success",
              "type": "bool"
            },
            {
              "internalType": "bytes",
              "name": "data",
              "type": "bytes"
            }
          ],
          "internalType": "struct AckPacket",
          "name": "ackPacket",
          "type": "tuple"
        },
        {
          "components": [
            {
              "internalType": "uint64",
              "name": "proofHeight",
              "type": "uint64"
            },
            {
              "internalType": "bytes",
              "name": "proof",
              "type": "bytes"
            }
          ],
          "internalType": "struct Proof",
          "name": "proof",
          "type": "tuple"
        }
      ],
      "name": "acknowledgement",
      "outputs": [],
      "stateMutability": "nonpayable",
      "type": "function"
    },
    {
      "inputs": [
        {
          "internalType": "bytes32",
          "name": "channelId",
          "type": "bytes32"
        }
      ],
      "name": "closeIbcChannel",
      "outputs": [],
      "stateMutability": "nonpayable",
      "type": "function"
    },
    {
      "inputs": [
        {
          "internalType": "contract IbcReceiver",
          "name": "portAddress",
          "type": "address"
        },
        {
          "internalType": "bytes32",
          "name": "channelId",
          "type": "bytes32"
        },
        {
          "internalType": "string[]",
          "name": "connectionHops",
          "type": "string[]"
        },
        {
          "internalType": "enum ChannelOrder",
          "name": "ordering",
          "type": "uint8"
        },
        {
          "internalType": "string",
          "name": "counterpartyPortId",
          "type": "string"
        },
        {
          "internalType": "bytes32",
          "name": "counterpartyChannelId",
          "type": "bytes32"
        },
        {
          "internalType": "bytes32",
          "name": "counterpartyVersion",
          "type": "bytes32"
        },
        {
          "components": [
            {
              "internalType": "uint64",
              "name": "proofHeight",
              "type": "uint64"
            },
            {
              "internalType": "bytes",
              "name": "proof",
              "type": "bytes"
            }
          ],
          "internalType": "struct Proof",
          "name": "proof",
          "type": "tuple"
        }
      ],
      "name": "connectIbcChannel",
      "outputs": [],
      "stateMutability": "nonpayable",
      "type": "function"
    },
    {
      "inputs": [
        {
          "components": [
            {
              "internalType": "bytes",
              "name": "clientState",
              "type": "bytes"
            },
            {
              "components": [
                {
                  "internalType": "uint256",
                  "name": "app_hash",
                  "type": "uint256"
                },
                {
                  "internalType": "uint256",
                  "name": "valset_hash",
                  "type": "uint256"
                },
                {
                  "internalType": "uint256",
                  "name": "time",
                  "type": "uint256"
                },
                {
                  "internalType": "uint256",
                  "name": "height",
                  "type": "uint256"
                }
              ],
              "internalType": "struct ConsensusState",
              "name": "consensusState",
              "type": "tuple"
            }
          ],
          "internalType": "struct InitClientMsg",
          "name": "initClientMsg",
          "type": "tuple"
        }
      ],
      "name": "createClient",
      "outputs": [],
      "stateMutability": "nonpayable",
      "type": "function"
    },
    {
      "inputs": [
        {
          "internalType": "address",
          "name": "portAddress",
          "type": "address"
        },
        {
          "internalType": "bytes32",
          "name": "channelId",
          "type": "bytes32"
        }
      ],
      "name": "getChannel",
      "outputs": [
        {
          "components": [
            {
              "internalType": "bytes32",
              "name": "version",
              "type": "bytes32"
            },
            {
              "internalType": "enum ChannelOrder",
              "name": "ordering",
              "type": "uint8"
            },
            {
              "internalType": "string[]",
              "name": "connectionHops",
              "type": "string[]"
            },
            {
              "internalType": "string",
              "name": "counterpartyPortId",
              "type": "string"
            },
            {
              "internalType": "bytes32",
              "name": "counterpartyChannelId",
              "type": "bytes32"
            }
          ],
          "internalType": "struct Channel",
          "name": "",
          "type": "tuple"
        }
      ],
      "stateMutability": "view",
      "type": "function"
    },
    {
      "inputs": [],
      "name": "latestConsensusState",
      "outputs": [
        {
          "internalType": "uint256",
          "name": "app_hash",
          "type": "uint256"
        },
        {
          "internalType": "uint256",
          "name": "valset_hash",
          "type": "uint256"
        },
        {
          "internalType": "uint256",
          "name": "time",
          "type": "uint256"
        },
        {
          "internalType": "uint256",
          "name": "height",
          "type": "uint256"
        }
      ],
      "stateMutability": "view",
      "type": "function"
    },
    {
      "inputs": [
        {
          "internalType": "address",
          "name": "portAddress",
          "type": "address"
        },
        {
          "internalType": "bytes32",
          "name": "channelId",
          "type": "bytes32"
        },
        {
          "components": [
            {
              "internalType": "uint64",
              "name": "proofHeight",
              "type": "uint64"
            },
            {
              "internalType": "bytes",
              "name": "proof",
              "type": "bytes"
            }
          ],
          "internalType": "struct Proof",
          "name": "proof",
          "type": "tuple"
        }
      ],
      "name": "onCloseIbcChannel",
      "outputs": [],
      "stateMutability": "nonpayable",
      "type": "function"
    },
    {
      "inputs": [
        {
          "internalType": "contract IbcReceiver",
          "name": "portAddress",
          "type": "address"
        },
        {
          "internalType": "bytes32",
          "name": "version",
          "type": "bytes32"
        },
        {
          "internalType": "enum ChannelOrder",
          "name": "ordering",
          "type": "uint8"
        },
        {
          "internalType": "string[]",
          "name": "connectionHops",
          "type": "string[]"
        },
        {
          "internalType": "bytes32",
          "name": "counterpartyChannelId",
          "type": "bytes32"
        },
        {
          "internalType": "string",
          "name": "counterpartyPortId",
          "type": "string"
        },
        {
          "internalType": "bytes32",
          "name": "counterpartyVersion",
          "type": "bytes32"
        }
      ],
      "name": "openIbcChannel",
      "outputs": [],
      "stateMutability": "nonpayable",
      "type": "function"
    },
    {
      "inputs": [],
      "name": "owner",
      "outputs": [
        {
          "internalType": "address",
          "name": "",
          "type": "address"
        }
      ],
      "stateMutability": "view",
      "type": "function"
    },
    {
      "inputs": [
        {
          "internalType": "address",
          "name": "",
          "type": "address"
        },
        {
          "internalType": "bytes32",
          "name": "",
          "type": "bytes32"
        }
      ],
      "name": "portChannelMap",
      "outputs": [
        {
          "internalType": "bytes32",
          "name": "version",
          "type": "bytes32"
        },
        {
          "internalType": "enum ChannelOrder",
          "name": "ordering",
          "type": "uint8"
        },
        {
          "internalType": "string",
          "name": "counterpartyPortId",
          "type": "string"
        },
        {
          "internalType": "bytes32",
          "name": "counterpartyChannelId",
          "type": "bytes32"
        }
      ],
      "stateMutability": "view",
      "type": "function"
    },
    {
      "inputs": [
        {
          "internalType": "address",
          "name": "addr",
          "type": "address"
        },
        {
          "internalType": "string",
          "name": "portId",
          "type": "string"
        }
      ],
      "name": "portIdAddressMatch",
      "outputs": [
        {
          "internalType": "bool",
          "name": "",
          "type": "bool"
        }
      ],
      "stateMutability": "view",
      "type": "function"
    },
    {
      "inputs": [
        {
          "internalType": "contract IbcReceiver",
          "name": "receiver",
          "type": "address"
        },
        {
          "components": [
            {
              "components": [
                {
                  "internalType": "string",
                  "name": "portId",
                  "type": "string"
                },
                {
                  "internalType": "bytes32",
                  "name": "channelId",
                  "type": "bytes32"
                }
              ],
              "internalType": "struct IbcEndpoint",
              "name": "src",
              "type": "tuple"
            },
            {
              "components": [
                {
                  "internalType": "string",
                  "name": "portId",
                  "type": "string"
                },
                {
                  "internalType": "bytes32",
                  "name": "channelId",
                  "type": "bytes32"
                }
              ],
              "internalType": "struct IbcEndpoint",
              "name": "dest",
              "type": "tuple"
            },
            {
              "internalType": "uint64",
              "name": "sequence",
              "type": "uint64"
            },
            {
              "internalType": "bytes",
              "name": "data",
              "type": "bytes"
            },
            {
              "components": [
                {
                  "internalType": "uint64",
                  "name": "blockHeight",
                  "type": "uint64"
                },
                {
                  "internalType": "uint64",
                  "name": "timestamp",
                  "type": "uint64"
                }
              ],
              "internalType": "struct IbcTimeout",
              "name": "timeout",
              "type": "tuple"
            }
          ],
          "internalType": "struct IbcPacket",
          "name": "packet",
          "type": "tuple"
        },
        {
          "components": [
            {
              "internalType": "uint64",
              "name": "proofHeight",
              "type": "uint64"
            },
            {
              "internalType": "bytes",
              "name": "proof",
              "type": "bytes"
            }
          ],
          "internalType": "struct Proof",
          "name": "proof",
          "type": "tuple"
        }
      ],
      "name": "recvPacket",
      "outputs": [],
      "stateMutability": "nonpayable",
      "type": "function"
    },
    {
      "inputs": [],
      "name": "renounceOwnership",
      "outputs": [],
      "stateMutability": "nonpayable",
      "type": "function"
    },
    {
      "inputs": [
        {
          "internalType": "bytes32",
          "name": "channelId",
          "type": "bytes32"
        },
        {
          "internalType": "bytes",
          "name": "packet",
          "type": "bytes"
        },
        {
          "internalType": "uint64",
          "name": "timeoutTimestamp",
          "type": "uint64"
        },
        {
          "internalType": "uint256",
          "name": "fee",
          "type": "uint256"
        }
      ],
      "name": "sendPacket",
      "outputs": [],
      "stateMutability": "payable",
      "type": "function"
    },
    {
      "inputs": [
        {
          "internalType": "string",
          "name": "_portPrefix",
          "type": "string"
        }
      ],
      "name": "setPortPrefix",
      "outputs": [],
      "stateMutability": "nonpayable",
      "type": "function"
    },
    {
      "inputs": [
        {
          "internalType": "contract IbcReceiver",
          "name": "receiver",
          "type": "address"
        },
        {
          "components": [
            {
              "components": [
                {
                  "internalType": "string",
                  "name": "portId",
                  "type": "string"
                },
                {
                  "internalType": "bytes32",
                  "name": "channelId",
                  "type": "bytes32"
                }
              ],
              "internalType": "struct IbcEndpoint",
              "name": "src",
              "type": "tuple"
            },
            {
              "components": [
                {
                  "internalType": "string",
                  "name": "portId",
                  "type": "string"
                },
                {
                  "internalType": "bytes32",
                  "name": "channelId",
                  "type": "bytes32"
                }
              ],
              "internalType": "struct IbcEndpoint",
              "name": "dest",
              "type": "tuple"
            },
            {
              "internalType": "uint64",
              "name": "sequence",
              "type": "uint64"
            },
            {
              "internalType": "bytes",
              "name": "data",
              "type": "bytes"
            },
            {
              "components": [
                {
                  "internalType": "uint64",
                  "name": "blockHeight",
                  "type": "uint64"
                },
                {
                  "internalType": "uint64",
                  "name": "timestamp",
                  "type": "uint64"
                }
              ],
              "internalType": "struct IbcTimeout",
              "name": "timeout",
              "type": "tuple"
            }
          ],
          "internalType": "struct IbcPacket",
          "name": "packet",
          "type": "tuple"
        },
        {
          "components": [
            {
              "internalType": "uint64",
              "name": "proofHeight",
              "type": "uint64"
            },
            {
              "internalType": "bytes",
              "name": "proof",
              "type": "bytes"
            }
          ],
          "internalType": "struct Proof",
          "name": "proof",
          "type": "tuple"
        }
      ],
      "name": "timeout",
      "outputs": [],
      "stateMutability": "nonpayable",
      "type": "function"
    },
    {
      "inputs": [
        {
          "internalType": "address",
          "name": "newOwner",
          "type": "address"
        }
      ],
      "name": "transferOwnership",
      "outputs": [],
      "stateMutability": "nonpayable",
      "type": "function"
    },
    {
      "inputs": [
        {
          "components": [
            {
              "components": [
                {
                  "internalType": "uint256",
                  "name": "app_hash",
                  "type": "uint256"
                },
                {
                  "internalType": "uint256",
                  "name": "valset_hash",
                  "type": "uint256"
                },
                {
                  "internalType": "uint256",
                  "name": "time",
                  "type": "uint256"
                },
                {
                  "internalType": "uint256",
                  "name": "height",
                  "type": "uint256"
                }
              ],
              "internalType": "struct ConsensusState",
              "name": "consensusState",
              "type": "tuple"
            },
            {
              "components": [
                {
                  "internalType": "uint256[2]",
                  "name": "a",
                  "type": "uint256[2]"
                },
                {
                  "internalType": "uint256[2][2]",
                  "name": "b",
                  "type": "uint256[2][2]"
                },
                {
                  "internalType": "uint256[2]",
                  "name": "c",
                  "type": "uint256[2]"
                }
              ],
              "internalType": "struct ZkProof",
              "name": "zkProof",
              "type": "tuple"
            }
          ],
          "internalType": "struct UpdateClientMsg",
          "name": "updateClientMsg",
          "type": "tuple"
        }
      ],
      "name": "updateClient",
      "outputs": [],
      "stateMutability": "nonpayable",
      "type": "function"
    },
    {
      "inputs": [
        {
          "components": [
            {
              "internalType": "bytes",
              "name": "clientState",
              "type": "bytes"
            },
            {
              "components": [
                {
                  "internalType": "uint256",
                  "name": "app_hash",
                  "type": "uint256"
                },
                {
                  "internalType": "uint256",
                  "name": "valset_hash",
                  "type": "uint256"
                },
                {
                  "internalType": "uint256",
                  "name": "time",
                  "type": "uint256"
                },
                {
                  "internalType": "uint256",
                  "name": "height",
                  "type": "uint256"
                }
              ],
              "internalType": "struct ConsensusState",
              "name": "consensusState",
              "type": "tuple"
            }
          ],
          "internalType": "struct UpgradeClientMsg",
          "name": "upgradeClientMsg",
          "type": "tuple"
        }
      ],
      "name": "upgradeClient",
      "outputs": [],
      "stateMutability": "nonpayable",
      "type": "function"
    },
    {
      "inputs": [
        {
          "internalType": "address",
          "name": "receiver",
          "type": "address"
        },
        {
          "components": [
            {
              "components": [
                {
                  "internalType": "string",
                  "name": "portId",
                  "type": "string"
                },
                {
                  "internalType": "bytes32",
                  "name": "channelId",
                  "type": "bytes32"
                }
              ],
              "internalType": "struct IbcEndpoint",
              "name": "src",
              "type": "tuple"
            },
            {
              "components": [
                {
                  "internalType": "string",
                  "name": "portId",
                  "type": "string"
                },
                {
                  "internalType": "bytes32",
                  "name": "channelId",
                  "type": "bytes32"
                }
              ],
              "internalType": "struct IbcEndpoint",
              "name": "dest",
              "type": "tuple"
            },
            {
              "internalType": "uint64",
              "name": "sequence",
              "type": "uint64"
            },
            {
              "internalType": "bytes",
              "name": "data",
              "type": "bytes"
            },
            {
              "components": [
                {
                  "internalType": "uint64",
                  "name": "blockHeight",
                  "type": "uint64"
                },
                {
                  "internalType": "uint64",
                  "name": "timestamp",
                  "type": "uint64"
                }
              ],
              "internalType": "struct IbcTimeout",
              "name": "timeout",
              "type": "tuple"
            }
          ],
          "internalType": "struct IbcPacket",
          "name": "packet",
          "type": "tuple"
        }
      ],
      "name": "writeTimeoutPacket",
      "outputs": [],
      "stateMutability": "nonpayable",
      "type": "function"
    }
  ],
  "bytecode": "0x60806040526002805460ff60a01b191690553480156200001e57600080fd5b506040516200458838038062004588833981016040819052620000419162000229565b6200004c3362000104565b600180546001600160a01b038086166001600160a01b031992831617909255600280549285169290911682179055620000cb5760405162461bcd60e51b815260206004820152601d60248201527f457363726f772063616e6e6f74206265207a65726f2061646472657373000000604482015260640160405180910390fd5b8051620000e090600790602084019062000154565b50516008805463ffffffff191663ffffffff90921691909117905550620003709050565b600080546001600160a01b038381166001600160a01b0319831681178455604051919092169283917f8be0079c531659141344cd1fd0a4f28419497f9722a3daafe3b4186f6b6457e09190a35050565b828054620001629062000333565b90600052602060002090601f016020900481019282620001865760008555620001d1565b82601f10620001a157805160ff1916838001178555620001d1565b82800160010185558215620001d1579182015b82811115620001d1578251825591602001919060010190620001b4565b50620001df929150620001e3565b5090565b5b80821115620001df5760008155600101620001e4565b6001600160a01b03811681146200021057600080fd5b50565b634e487b7160e01b600052604160045260246000fd5b6000806000606084860312156200023f57600080fd5b83516200024c81620001fa565b809350506020808501516200026181620001fa565b60408601519093506001600160401b03808211156200027f57600080fd5b818701915087601f8301126200029457600080fd5b815181811115620002a957620002a962000213565b604051601f8201601f19908116603f01168101908382118183101715620002d457620002d462000213565b816040528281528a86848701011115620002ed57600080fd5b600093505b82841015620003115784840186015181850187015292850192620002f2565b82841115620003235760008684830101525b8096505050505050509250925092565b600181811c908216806200034857607f821691505b602082108114156200036a57634e487b7160e01b600052602260045260246000fd5b50919050565b61420880620003806000396000f3fe60806040526004361061011f5760003560e01c80638da5cb5b116100a0578063bba1051711610064578063bba105171461031c578063c2a2514d1461033c578063e36e013f1461037f578063f2fde38b146103af578063f4ecbb15146103cf57600080fd5b80638da5cb5b1461026457806394e47af81461028c578063951538f3146102ac5780639f59ae71146102cc578063b2b1bf03146102ec57600080fd5b8063715018a6116100e7578063715018a6146101dc5780638059885a146101f157806380840e6b146102115780638b24b4cb146102315780638d3d5aa91461025157600080fd5b80631f456c1e146101245780633f7625ab1461014657806342852d24146101665780634c9778d31461019c578063520b128e146101bc575b600080fd5b34801561013057600080fd5b5061014461013f366004612da7565b6103ef565b005b34801561015257600080fd5b50610144610161366004612e6c565b6104da565b34801561017257600080fd5b50610186610181366004612ebb565b61070d565b6040516101939190612f7b565b60405180910390f35b3480156101a857600080fd5b506101446101b7366004613041565b610920565b3480156101c857600080fd5b506101446101d7366004613115565b610bd1565b3480156101e857600080fd5b50610144610ea4565b3480156101fd57600080fd5b5061014461020c3660046131af565b610eb8565b34801561021d57600080fd5b5061014461022c3660046131d4565b611005565b34801561023d57600080fd5b5061014461024c366004613210565b61107c565b61014461025f366004613240565b61133c565b34801561027057600080fd5b506000546040516001600160a01b039091168152602001610193565b34801561029857600080fd5b506101446102a73660046132a5565b6116e4565b3480156102b857600080fd5b506101446102c736600461331a565b611ea7565b3480156102d857600080fd5b506101446102e7366004613368565b6122ca565b3480156102f857600080fd5b5061030c610307366004612ebb565b6122fc565b60405161019394939291906133a9565b34801561032857600080fd5b506101446103373660046132a5565b6123bc565b34801561034857600080fd5b5060035460045460055460065461035f9392919084565b604080519485526020850193909352918301526060820152608001610193565b34801561038b57600080fd5b5061039f61039a3660046133e0565b612691565b6040519015158152602001610193565b3480156103bb57600080fd5b506101446103ca366004613434565b61277e565b3480156103db57600080fd5b506101446103ea3660046131d4565b6127f7565b604051634865921960e01b81526000906001600160a01b038b169063486592199061042c908c908c908c908c908c908c908c908c9060040161351c565b602060405180830381600087803b15801561044657600080fd5b505af115801561045a573d6000803e3d6000fd5b505050506040513d601f19601f8201168201806040525081019061047e9190613572565b9050848a6001600160a01b03167f9a93c124e7f0aa93d3fbe660b1366e0483b4267619924382261498efbb92c873838b8b8b8a8a8a6040516104c6979695949392919061358b565b60405180910390a350505050505050505050565b6104f2826104e883806135da565b61039a90806135fa565b6105175760405162461bcd60e51b815260040161050e90613640565b60405180910390fd5b6001600160a01b0382166000908152600c602090815260408220908290610540908501856135da565b6020013581526020019081526020016000206000836040016020810190610567919061368f565b6001600160401b0316815260208101919091526040016000205460ff16905080156105d45760405162461bcd60e51b815260206004820152601d60248201527f5061636b6574207265636569707420616c726561647920657869737473000000604482015260640161050e565b6105e460c0830160a0840161368f565b6001600160401b03161580610611575061060460c0830160a0840161368f565b6001600160401b03164210155b8015610655575061062860a083016080840161368f565b6001600160401b03161580610655575061064860a083016080840161368f565b6001600160401b03164310155b6106a15760405162461bcd60e51b815260206004820152601860248201527f5061636b6574206e6f742074696d6564206f7574207965740000000000000000604482015260640161050e565b6106ae60208301836135da565b602001356001600160a01b0384167f7333461763c7d92fc71194a27f0a170adc7a8ee782bede3d71b9d0580f116f3a6106ed606086016040870161368f565b6040516001600160401b03909116815260200160405180910390a3505050565b61073f6040805160a0810190915260008082526020820190815260606020820181905260408201819052600091015290565b6001600160a01b0383166000908152600960209081526040808320858452825291829020825160a08101909352805483526001810154909183019060ff16600281111561078e5761078e612ee7565b600281111561079f5761079f612ee7565b815260200160028201805480602002602001604051908101604052809291908181526020016000905b828210156108745783829060005260206000200180546107e7906136aa565b80601f0160208091040260200160405190810160405280929190818152602001828054610813906136aa565b80156108605780601f1061083557610100808354040283529160200191610860565b820191906000526020600020905b81548152906001019060200180831161084357829003601f168201915b5050505050815260200190600101906107c8565b50505050815260200160038201805461088c906136aa565b80601f01602080910402602001604051908101604052809291908181526020018280546108b8906136aa565b80156109055780601f106108da57610100808354040283529160200191610905565b820191906000526020600020905b8154815290600101906020018083116108e857829003601f168201915b50505050508152602001600482015481525050905092915050565b6001546040805160808101909152605e8082526001600160a01b039092169163c9b73c6c9160039185919061412260208301396040518463ffffffff1660e01b815260040161097193929190613720565b60206040518083038186803b15801561098957600080fd5b505afa15801561099d573d6000803e3d6000fd5b505050506040513d601f19601f820116820180604052508101906109c191906137ba565b610a0d5760405162461bcd60e51b815260206004820152601b60248201527f4661696c20746f2070726f7665206368616e6e656c2073746174650000000000604482015260640161050e565b60405163e60a729360e01b8152600481018a905260248101849052604481018390526001600160a01b038b169063e60a729390606401600060405180830381600087803b158015610a5d57600080fd5b505af1158015610a71573d6000803e3d6000fd5b505050506040518060a00160405280838152602001876002811115610a9857610a98612ee7565b8152602001610aa7898b61386c565b815260200186868080601f016020809104026020016040519081016040528093929190818152602001838380828437600092018290525093855250505060209182018690526001600160a01b038d1681526009825260408082208d835283529020825181559082015160018083018054909160ff1990911690836002811115610b3257610b32612ee7565b021790555060408201518051610b52916002840191602090910190612b0c565b5060608201518051610b6e916003840191602090910190612b69565b506080820151816004015590505082898b6001600160a01b03167f57ea540ad7b8bfd2813b8637764ba029fedc52de3f812934a46511506aa11b8e88888d8d604051610bbd9493929190613930565b60405180910390a450505050505050505050565b610bdf846104e885806135da565b610bfb5760405162461bcd60e51b815260040161050e90613962565b60015460405163326dcf1b60e21b81526001600160a01b039091169063c9b73c6c90610c2e9060039085906004016139ac565b60206040518083038186803b158015610c4657600080fd5b505afa158015610c5a573d6000803e3d6000fd5b505050506040513d601f19601f82011682018060405250810190610c7e91906137ba565b610cbe5760405162461bcd60e51b81526020600482015260116024820152704661696c20746f2070726f76652061636b60781b604482015260640161050e565b6001600160a01b0384166000908152600b6020526040812081610ce186806135da565b6020013581526020019081526020016000206000856040016020810190610d08919061368f565b6001600160401b0316815260208101919091526040016000205460ff16905080610d745760405162461bcd60e51b815260206004820152601b60248201527f5061636b657420636f6d6d69746d656e74206e6f7420666f756e640000000000604482015260640161050e565b604051633d173d7960e21b81526001600160a01b0386169063f45cf5e490610da0908790600401613ab5565b600060405180830381600087803b158015610dba57600080fd5b505af1158015610dce573d6000803e3d6000fd5b5050506001600160a01b0386166000908152600b602052604081209150610df586806135da565b6020013581526020019081526020016000206000856040016020810190610e1c919061368f565b6001600160401b031681526020810191909152604001600020805460ff19169055610e4784806135da565b602001356001600160a01b0386167fc4198f9e29f113c5464c20bc273a0861cf81d5fdef68c6a7cc9993d9437d1a0b85610e876060890160408a0161368f565b604051610e95929190613b79565b60405180910390a35050505050565b610eac612886565b610eb660006128e0565b565b600254600160a01b900460ff16610f065760405162461bcd60e51b815260206004820152601260248201527110db1a595b9d081b9bdd0818dc99585d195960721b604482015260640161050e565b600154604051633b427df160e01b81526001600160a01b0390911690633b427df190610f39906003908590600401613bcd565b60206040518083038186803b158015610f5157600080fd5b505afa158015610f65573d6000803e3d6000fd5b505050506040513d601f19601f82011682018060405250810190610f8991906137ba565b610fe75760405162461bcd60e51b815260206004820152602960248201527f557064617465436c69656e744d73672070726f6f6620766572696669636174696044820152681bdb8819985a5b195960ba1b606482015260840161050e565b80356003556020810135600455604081013560055560600135600655565b61100d612886565b600254600160a01b900460ff1661105b5760405162461bcd60e51b815260206004820152601260248201527110db1a595b9d081b9bdd0818dc99585d195960721b604482015260640161050e565b60208101356003556040810135600455606081013560055560800135600655565b3360009081526009602090815260408083208484528252808320815160a08101909252805482526001810154919290919083019060ff1660028111156110c4576110c4612ee7565b60028111156110d5576110d5612ee7565b815260200160028201805480602002602001604051908101604052809291908181526020016000905b828210156111aa57838290600052602060002001805461111d906136aa565b80601f0160208091040260200160405190810160405280929190818152602001828054611149906136aa565b80156111965780601f1061116b57610100808354040283529160200191611196565b820191906000526020600020905b81548152906001019060200180831161117957829003601f168201915b5050505050815260200190600101906110fe565b5050505081526020016003820180546111c2906136aa565b80601f01602080910402602001604051908101604052809291908181526020018280546111ee906136aa565b801561123b5780601f106112105761010080835404028352916020019161123b565b820191906000526020600020905b81548152906001019060200180831161121e57829003601f168201915b5050505050815260200160048201548152505090506000801b816080015114156112a75760405162461bcd60e51b815260206004820152601f60248201527f4368616e6e656c206e6f74206f776e6564206279206d73672e73656e64657200604482015260640161050e565b60608101516080820151604051635fe39e0d60e01b815233928392635fe39e0d926112d89288929091600401613c72565b600060405180830381600087803b1580156112f257600080fd5b505af1158015611306573d6000803e3d6000fd5b50506040518592503391507fe893e4ba0e364cdc96364b1e1e0d53b0d91e5fd6aa0ee9d81a17ecd61178bf1790600090a3505050565b3360009081526009602090815260408083208884528252808320815160a08101909252805482526001810154919290919083019060ff16600281111561138457611384612ee7565b600281111561139557611395612ee7565b815260200160028201805480602002602001604051908101604052809291908181526020016000905b8282101561146a5783829060005260206000200180546113dd906136aa565b80601f0160208091040260200160405190810160405280929190818152602001828054611409906136aa565b80156114565780601f1061142b57610100808354040283529160200191611456565b820191906000526020600020905b81548152906001019060200180831161143957829003601f168201915b5050505050815260200190600101906113be565b505050508152602001600382018054611482906136aa565b80601f01602080910402602001604051908101604052809291908181526020018280546114ae906136aa565b80156114fb5780601f106114d0576101008083540402835291602001916114fb565b820191906000526020600020905b8154815290600101906020018083116114de57829003601f168201915b5050505050815260200160048201548152505090506000801b816080015114156115675760405162461bcd60e51b815260206004820152601b60248201527f4368616e6e656c206e6f74206f776e65642062792073656e6465720000000000604482015260640161050e565b6002546040516000916001600160a01b03169084908381818185875af1925050503d80600081146115b4576040519150601f19603f3d011682016040523d82523d6000602084013e6115b9565b606091505b505090508061160a5760405162461bcd60e51b815260206004820152601b60248201527f4661696c656420746f20657363726f77207061636b6574206665650000000000604482015260640161050e565b336000908152600a602090815260408083208a8452909152812054611639906001600160401b03166001613cb1565b336000818152600a602090815260408083208d84528252808320805467ffffffffffffffff19166001600160401b038716908117909155848452600b83528184208e8552835281842090845290915290819020805460ff191660011790555191925089917fc55a6c1340ca55a6b61de30037455a7f9f4a5b8ff106e4eaa0c23ea886fa0360906116d2908b908b9087908c908c90613cdc565b60405180910390a35050505050505050565b6116f5836104e860208501856135da565b6117115760405162461bcd60e51b815260040161050e90613640565b60015460405163326dcf1b60e21b81526001600160a01b039091169063c9b73c6c90611744906003908590600401613d14565b60206040518083038186803b15801561175c57600080fd5b505afa158015611770573d6000803e3d6000fd5b505050506040513d601f19601f8201168201806040525081019061179491906137ba565b6117e05760405162461bcd60e51b815260206004820152601f60248201527f4661696c20746f2070726f7665207061636b657420636f6d6d69746d656e7400604482015260640161050e565b6001600160a01b0383166000908152600c602090815260408220908290611809908601866135da565b6020013581526020019081526020016000206000846040016020810190611830919061368f565b6001600160401b0316815260208101919091526040016000205460ff169050801561189d5760405162461bcd60e51b815260206004820152601d60248201527f5061636b6574207265636569707420616c726561647920657869737473000000604482015260640161050e565b6001600160a01b038416600090815260096020908152604082209082906118c6908701876135da565b6020013581526020019081526020016000206040518060a0016040529081600082015481526020016001820160009054906101000a900460ff16600281111561191157611911612ee7565b600281111561192257611922612ee7565b815260200160028201805480602002602001604051908101604052809291908181526020016000905b828210156119f757838290600052602060002001805461196a906136aa565b80601f0160208091040260200160405190810160405280929190818152602001828054611996906136aa565b80156119e35780601f106119b8576101008083540402835291602001916119e3565b820191906000526020600020905b8154815290600101906020018083116119c657829003601f168201915b50505050508152602001906001019061194b565b505050508152602001600382018054611a0f906136aa565b80601f0160208091040260200160405190810160405280929190818152602001828054611a3b906136aa565b8015611a885780601f10611a5d57610100808354040283529160200191611a88565b820191906000526020600020905b815481529060010190602001808311611a6b57829003601f168201915b5050509183525050600491909101546020909101529050600281602001516002811115611ab757611ab7612ee7565b1415611be6576001600160a01b0385166000908152600d6020908152604082209190611ae5908701876135da565b60209081013582528101919091526040908101600020546001600160401b031690611b16906060870190870161368f565b6001600160401b031614611b6c5760405162461bcd60e51b815260206004820152601a60248201527f556e6578706563746564207061636b65742073657175656e6365000000000000604482015260640161050e565b611b7c606085016040860161368f565b611b87906001613cb1565b6001600160a01b0386166000908152600d6020908152604082209190611baf908801886135da565b60200135815260200190815260200160002060006101000a8154816001600160401b0302191690836001600160401b031602179055505b60405163582c740d60e11b81526000906001600160a01b0387169063b058e81a90611c15908890600401613ab5565b600060405180830381600087803b158015611c2f57600080fd5b505af1158015611c43573d6000803e3d6000fd5b505050506040513d6000823e601f3d908101601f19168201604052611c6b9190810190613de3565b6001600160a01b0387166000908152600e6020908152604082209293509091908290611c99908901896135da565b6020013581526020019081526020016000206000876040016020810190611cc0919061368f565b6001600160401b0316815260208101919091526040016000205460ff1690508015611d395760405162461bcd60e51b8152602060048201526024808201527f41636b207061636b657420636f6d6d69746d656e7420616c72656164792065786044820152636973747360e01b606482015260840161050e565b6001600160a01b0387166000908152600e6020908152604082206001929091611d64908a018a6135da565b6020013581526020019081526020016000206000886040016020810190611d8b919061368f565b6001600160401b031681526020810191909152604001600020805460ff1916911515919091179055611dbd86806135da565b60200135868060200190611dd191906135da565b602001356001600160a01b0389167f91b260514b25c153f5a81bfa045f6f31daf97c690a9fbd19c959f2530f93a9be611e0a8a806135da565b611e1490806135fa565b611e2460608d0160408e0161368f565b604051611e3393929190613ea0565b60405180910390a4611e4860208701876135da565b602001356001600160a01b0388167fa32e6f42b1d63fb83ad73b009a6dbb9413d1da02e95b1bb08f081815eea8db20611e8760608a0160408b0161368f565b85604051611e96929190613ecd565b60405180910390a350505050505050565b600154604080516080810190915260538082526001600160a01b039092169163c9b73c6c9160039185919061418060208301396040518463ffffffff1660e01b8152600401611ef893929190613720565b60206040518083038186803b158015611f1057600080fd5b505afa158015611f24573d6000803e3d6000fd5b505050506040513d601f19601f82011682018060405250810190611f4891906137ba565b611f945760405162461bcd60e51b815260206004820152601b60248201527f4661696c20746f2070726f7665206368616e6e656c2073746174650000000000604482015260640161050e565b6001600160a01b03831660009081526009602090815260408083208584528252808320815160a08101909252805482526001810154919290919083019060ff166002811115611fe557611fe5612ee7565b6002811115611ff657611ff6612ee7565b815260200160028201805480602002602001604051908101604052809291908181526020016000905b828210156120cb57838290600052602060002001805461203e906136aa565b80601f016020809104026020016040519081016040528092919081815260200182805461206a906136aa565b80156120b75780601f1061208c576101008083540402835291602001916120b7565b820191906000526020600020905b81548152906001019060200180831161209a57829003601f168201915b50505050508152602001906001019061201f565b5050505081526020016003820180546120e3906136aa565b80601f016020809104026020016040519081016040528092919081815260200182805461210f906136aa565b801561215c5780601f106121315761010080835404028352916020019161215c565b820191906000526020600020905b81548152906001019060200180831161213f57829003601f168201915b5050505050815260200160048201548152505090506000801b816080015114156121c85760405162461bcd60e51b815260206004820181905260248201527f4368616e6e656c206e6f74206f776e656420627920706f727441646472657373604482015260640161050e565b60608101516080820151604051635fe39e0d60e01b815286926001600160a01b03841692635fe39e0d926122029289929091600401613c72565b600060405180830381600087803b15801561221c57600080fd5b505af1158015612230573d6000803e3d6000fd5b5050506001600160a01b0386166000908152600960209081526040808320888452909152812081815560018101805460ff1916905591506122746002830182612be9565b612282600383016000612c07565b6004820160009055505083856001600160a01b03167fe893e4ba0e364cdc96364b1e1e0d53b0d91e5fd6aa0ee9d81a17ecd61178bf1760405160405180910390a35050505050565b6122d2612886565b6122de60078383612c41565b506008805463ffffffff191663ffffffff9290921691909117905550565b6009602090815260009283526040808420909152908252902080546001820154600383018054929360ff90921692612333906136aa565b80601f016020809104026020016040519081016040528092919081815260200182805461235f906136aa565b80156123ac5780601f10612381576101008083540402835291602001916123ac565b820191906000526020600020905b81548152906001019060200180831161238f57829003601f168201915b5050505050908060040154905084565b6123ca836104e884806135da565b6123e65760405162461bcd60e51b815260040161050e90613962565b60015460405163122d651b60e01b81526001600160a01b039091169063122d651b90612419906003908590600401613f04565b60206040518083038186803b15801561243157600080fd5b505afa158015612445573d6000803e3d6000fd5b505050506040513d601f19601f8201168201806040525081019061246991906137ba565b6124ad5760405162461bcd60e51b815260206004820152601560248201527411985a5b081d1bc81c1c9bdd99481d1a5b595bdd5d605a1b604482015260640161050e565b6001600160a01b0383166000908152600b60205260408120816124d085806135da565b60200135815260200190815260200160002060008460400160208101906124f7919061368f565b6001600160401b0316815260208101919091526040016000205460ff169050806125635760405162461bcd60e51b815260206004820152601b60248201527f5061636b657420636f6d6d69746d656e74206e6f7420666f756e640000000000604482015260640161050e565b60405163b33c257760e01b81526001600160a01b0385169063b33c25779061258f908690600401613ab5565b600060405180830381600087803b1580156125a957600080fd5b505af11580156125bd573d6000803e3d6000fd5b5050506001600160a01b0385166000908152600b6020526040812091506125e485806135da565b602001358152602001908152602001600020600084604001602081019061260b919061368f565b6001600160401b0316815260208101919091526040908101600020805460ff1916905561263e906060850190850161368f565b6001600160401b031661265184806135da565b60200135856001600160a01b03167f19ac40c4084d9bfb5b43f819a94bf01c70789b0d579871f59e4f86def04d934460405160405180910390a450505050565b6008546000906126a99063ffffffff16828486613f72565b6040516020016126ba929190613f9c565b6040516020818303038152906040528051906020012060076040516020016126e29190613fac565b604051602081830303815290604052805190602001201461270557506000612777565b60085460009061271e90849063ffffffff168187613f72565b8080601f01602080910402602001604051908101604052809392919081815260200183838082843760009201919091525092935050506001600160a01b038616905061276982612930565b6001600160a01b0316149150505b9392505050565b612786612886565b6001600160a01b0381166127eb5760405162461bcd60e51b815260206004820152602660248201527f4f776e61626c653a206e6577206f776e657220697320746865207a65726f206160448201526564647265737360d01b606482015260840161050e565b6127f4816128e0565b50565b6127ff612886565b600254600160a01b900460ff16156128525760405162461bcd60e51b815260206004820152601660248201527510db1a595b9d08185b1c9958591e4818dc99585d195960521b604482015260640161050e565b6002805460ff60a01b1916600160a01b17905560208101356003556040810135600455606081013560055560800135600655565b6000546001600160a01b03163314610eb65760405162461bcd60e51b815260206004820181905260248201527f4f776e61626c653a2063616c6c6572206973206e6f7420746865206f776e6572604482015260640161050e565b600080546001600160a01b038381166001600160a01b0319831681178455604051919092169283917f8be0079c531659141344cd1fd0a4f28419497f9722a3daafe3b4186f6b6457e09190a35050565b600081516028146129835760405162461bcd60e51b815260206004820152601960248201527f496e76616c69642068657820737472696e67206c656e67746800000000000000604482015260640161050e565b60408051601480825281830190925283916000919060208201818036833701905050905060005b6014811015612b00576000836129c1836002614048565b815181106129d1576129d1614067565b016020015160f81c90506000846129e9846002614048565b6129f490600161407d565b81518110612a0457612a04614067565b016020015160f81c9050604160ff831610801590612a265750605a8260ff1611155b15612a3957612a36602083614095565b91505b60418160ff1610158015612a515750605a8160ff1611155b15612a6457612a61602082614095565b90505b600060618260ff161015612a79576030612a7c565b60575b612a8690836140ba565b60618460ff161015612a99576030612a9c565b60575b612aa690856140ba565b612ab19060106140dd565b612abb9190614095565b90508060f81b858581518110612ad357612ad3614067565b60200101906001600160f81b031916908160001a9053505050508080612af890614106565b9150506129aa565b50601401519392505050565b828054828255906000526020600020908101928215612b59579160200282015b82811115612b595782518051612b49918491602090910190612b69565b5091602001919060010190612b2c565b50612b65929150612cb5565b5090565b828054612b75906136aa565b90600052602060002090601f016020900481019282612b975760008555612bdd565b82601f10612bb057805160ff1916838001178555612bdd565b82800160010185558215612bdd579182015b82811115612bdd578251825591602001919060010190612bc2565b50612b65929150612cd2565b50805460008255906000526020600020908101906127f49190612cb5565b508054612c13906136aa565b6000825580601f10612c23575050565b601f0160209004906000526020600020908101906127f49190612cd2565b828054612c4d906136aa565b90600052602060002090601f016020900481019282612c6f5760008555612bdd565b82601f10612c885782800160ff19823516178555612bdd565b82800160010185558215612bdd579182015b82811115612bdd578235825591602001919060010190612c9a565b80821115612b65576000612cc98282612c07565b50600101612cb5565b5b80821115612b655760008155600101612cd3565b6001600160a01b03811681146127f457600080fd5b8035612d0781612ce7565b919050565b803560038110612d0757600080fd5b60008083601f840112612d2d57600080fd5b5081356001600160401b03811115612d4457600080fd5b6020830191508360208260051b8501011115612d5f57600080fd5b9250929050565b60008083601f840112612d7857600080fd5b5081356001600160401b03811115612d8f57600080fd5b602083019150836020828501011115612d5f57600080fd5b600080600080600080600080600060e08a8c031215612dc557600080fd5b8935612dd081612ce7565b985060208a01359750612de560408b01612d0c565b965060608a01356001600160401b0380821115612e0157600080fd5b612e0d8d838e01612d1b565b909850965060808c0135955060a08c0135915080821115612e2d57600080fd5b50612e3a8c828d01612d66565b9a9d999c50979a9699959894979660c00135949350505050565b600060c08284031215612e6657600080fd5b50919050565b60008060408385031215612e7f57600080fd5b8235612e8a81612ce7565b915060208301356001600160401b03811115612ea557600080fd5b612eb185828601612e54565b9150509250929050565b60008060408385031215612ece57600080fd5b8235612ed981612ce7565b946020939093013593505050565b634e487b7160e01b600052602160045260246000fd5b60038110612f1b57634e487b7160e01b600052602160045260246000fd5b9052565b60005b83811015612f3a578181015183820152602001612f22565b83811115612f49576000848401525b50505050565b60008151808452612f67816020860160208601612f1f565b601f01601f19169290920160200192915050565b6000602080835260c0830184518285015281850151612f9d6040860182612efd565b50604085015160a0606086015281815180845260e08701915060e08160051b8801019350848301925060005b81811015612ff75760df19888603018352612fe5858551612f4f565b94509285019291850191600101612fc9565b505050506060850151848203601f1901608086015291506130188183612f4f565b915050608084015160a08401528091505092915050565b600060408284031215612e6657600080fd5b6000806000806000806000806000806101008b8d03121561306157600080fd5b61306a8b612cfc565b995060208b0135985060408b01356001600160401b038082111561308d57600080fd5b6130998e838f01612d1b565b909a5098508891506130ad60608e01612d0c565b975060808d01359150808211156130c357600080fd5b6130cf8e838f01612d66565b909750955060a08d0135945060c08d0135935060e08d01359150808211156130f657600080fd5b506131038d828e0161302f565b9150509295989b9194979a5092959850565b6000806000806080858703121561312b57600080fd5b843561313681612ce7565b935060208501356001600160401b038082111561315257600080fd5b61315e88838901612e54565b9450604087013591508082111561317457600080fd5b6131808883890161302f565b9350606087013591508082111561319657600080fd5b506131a38782880161302f565b91505092959194509250565b60006101808284031215612e6657600080fd5b600060a08284031215612e6657600080fd5b6000602082840312156131e657600080fd5b81356001600160401b038111156131fc57600080fd5b613208848285016131c2565b949350505050565b60006020828403121561322257600080fd5b5035919050565b80356001600160401b0381168114612d0757600080fd5b60008060008060006080868803121561325857600080fd5b8535945060208601356001600160401b0381111561327557600080fd5b61328188828901612d66565b9095509350613294905060408701613229565b949793965091946060013592915050565b6000806000606084860312156132ba57600080fd5b83356132c581612ce7565b925060208401356001600160401b03808211156132e157600080fd5b6132ed87838801612e54565b9350604086013591508082111561330357600080fd5b506133108682870161302f565b9150509250925092565b60008060006060848603121561332f57600080fd5b833561333a81612ce7565b92506020840135915060408401356001600160401b0381111561335c57600080fd5b6133108682870161302f565b6000806020838503121561337b57600080fd5b82356001600160401b0381111561339157600080fd5b61339d85828601612d66565b90969095509350505050565b8481526133b96020820185612efd565b6080604082015260006133cf6080830185612f4f565b905082606083015295945050505050565b6000806000604084860312156133f557600080fd5b833561340081612ce7565b925060208401356001600160401b0381111561341b57600080fd5b61342786828701612d66565b9497909650939450505050565b60006020828403121561344657600080fd5b813561277781612ce7565b81835281816020850137506000828201602090810191909152601f909101601f19169091010190565b6000808335601e1984360301811261349157600080fd5b83016020810192503590506001600160401b038111156134b057600080fd5b803603831315612d5f57600080fd5b81835260006020808501808196508560051b810191508460005b8781101561350f5782840389526134f0828861347a565b6134fb868284613451565b9a87019a95505050908401906001016134d9565b5091979650505050505050565b88815261352c6020820189612efd565b60c06040820152600061354360c08301888a6134bf565b866060840152828103608084015261355c818688613451565b9150508260a08301529998505050505050505050565b60006020828403121561358457600080fd5b5051919050565b87815261359b6020820188612efd565b60a0604082015260006135b260a0830187896134bf565b82810360608401526135c5818688613451565b91505082608083015298975050505050505050565b60008235603e198336030181126135f057600080fd5b9190910192915050565b6000808335601e1984360301811261361157600080fd5b8301803591506001600160401b0382111561362b57600080fd5b602001915036819003821315612d5f57600080fd5b6020808252602f908201527f5265636569766572206973206e6f742074686520696e74656e6465642070616360408201526e35b2ba103232b9ba34b730ba34b7b760891b606082015260800190565b6000602082840312156136a157600080fd5b61277782613229565b600181811c908216806136be57607f821691505b60208210811415612e6657634e487b7160e01b600052602260045260246000fd5b6001600160401b036136f082613229565b1682526000613702602083018361347a565b60406020860152613717604086018284613451565b95945050505050565b8354815260018401546020820152600284015460408201526003840154606082015260e06080820152600061375860e08301856136df565b8281038060a0850152601d82527f6368616e6e656c2f706174682f746f2f62652f61646465642f6865726500000060208301526040810160c0850152506137a26040820185612f4f565b9695505050505050565b80151581146127f457600080fd5b6000602082840312156137cc57600080fd5b8151612777816137ac565b634e487b7160e01b600052604160045260246000fd5b604080519081016001600160401b038111828210171561380f5761380f6137d7565b60405290565b604051601f8201601f191681016001600160401b038111828210171561383d5761383d6137d7565b604052919050565b60006001600160401b0382111561385e5761385e6137d7565b50601f01601f191660200190565b60006001600160401b0380841115613886576138866137d7565b8360051b6020613897818301613815565b8681529185019181810190368411156138af57600080fd5b865b84811015613924578035868111156138c95760008081fd5b880136601f8201126138db5760008081fd5b80356138ee6138e982613845565b613815565b81815236878385010111156139035760008081fd5b818784018883013760009181018701919091528452509183019183016138b1565b50979650505050505050565b604081526000613944604083018688613451565b82810360208401526139578185876134bf565b979650505050505050565b6020808252602a908201527f5265636569766572206973206e6f7420746865206f726967696e616c2070616360408201526935b2ba1039b2b73232b960b11b606082015260800190565b8254815260018301546020820152600283015460408201526003830154606082015260e0608082015260006139e460e08301846136df565b8281038060a0850152600f82526e0c2c6d65ee0c2c6d6cae85ee0c2e8d608b1b60208301526040810160c085015250602a60408201527f65787065637465642061636b20726563656970742068617368206f6e20506f6c6060820152693cb6b2b91031b430b4b760b11b608082015260a081019150509392505050565b60008235603e19833603018112613a7757600080fd5b90910192915050565b6000613a8c828361347a565b60408552613a9e604086018284613451565b915050602083013560208501528091505092915050565b602081526000613ac58384613a61565b60c06020840152613ad960e0840182613a80565b9050613ae86020850185613a61565b601f1980858403016040860152613aff8383613a80565b9250613b0d60408701613229565b91506001600160401b038083166060870152613b2c606088018861347a565b935082878603016080880152613b43858583613451565b94505080613b5360808901613229565b1660a087015280613b6660a08901613229565b1660c08701525050508091505092915050565b6040815260008335613b8a816137ac565b15156040830152613b9e602085018561347a565b60406060850152613bb3608085018284613451565b925050506001600160401b03831660208301529392505050565b82548152600183015460208201526002830154604082015260038301546060820152610200810182356080830152602083013560a083015260408084013560c0840152606084013560e084015280608085016101008501376000610140848101828152909160c0870191815b6002811015613c5957858483379085018281529285019290600101613c39565b5050838388016101c08801378452509195945050505050565b838152606060208201526000613c8b6060830185612f4f565b9050826040830152949350505050565b634e487b7160e01b600052601160045260246000fd5b60006001600160401b03808316818516808303821115613cd357613cd3613c9b565b01949350505050565b608081526000613cf0608083018789613451565b6001600160401b039586166020840152939094166040820152606001529392505050565b8254815260018301546020820152600283015460408201526003830154606082015260e060808201526000613d4c60e08301846136df565b8281038060a085015260168252750e0c2c6d6cae85ec6dedadad2e8dacadce85ee0c2e8d60531b60208301526040810160c085015250603860408201527f6578706563746564207669727475616c207061636b657420636f6d6d69746d6560608201527f6e742068617368206f6e20506f6c796d657220636861696e0000000000000000608082015260a081019150509392505050565b60006020808385031215613df657600080fd5b82516001600160401b0380821115613e0d57600080fd5b9084019060408287031215613e2157600080fd5b613e296137ed565b8251613e34816137ac565b81528284015182811115613e4757600080fd5b80840193505086601f840112613e5c57600080fd5b82519150613e6c6138e983613845565b8281528785848601011115613e8057600080fd5b613e8f83868301878701612f1f565b938101939093525090949350505050565b604081526000613eb4604083018587613451565b90506001600160401b0383166020830152949350505050565b6001600160401b03831681526040602082015281511515604082015260006020830151604060608401526137176080840182612f4f565b8254815260018301546020820152600283015460408201526003830154606082015260c060808201526000613f3c60c08301846136df565b82810360a084015260138152720e0c2c6d6cae85ee4cac6cad2e0e85ee0c2e8d606b1b6020820152604081019150509392505050565b60008085851115613f8257600080fd5b83861115613f8f57600080fd5b5050820193919092039150565b8183823760009101908152919050565b600080835481600182811c915080831680613fc857607f831692505b6020808410821415613fe857634e487b7160e01b86526022600452602486fd5b818015613ffc576001811461400d5761403a565b60ff1986168952848901965061403a565b60008a81526020902060005b868110156140325781548b820152908501908301614019565b505084890196505b509498975050505050505050565b600081600019048311821515161561406257614062613c9b565b500290565b634e487b7160e01b600052603260045260246000fd5b6000821982111561409057614090613c9b565b500190565b600060ff821660ff84168060ff038211156140b2576140b2613c9b565b019392505050565b600060ff821660ff8416808210156140d4576140d4613c9b565b90039392505050565b600060ff821660ff84168160ff04811182151516156140fe576140fe613c9b565b029392505050565b600060001982141561411a5761411a613c9b565b506001019056fe6578706563746564206368616e6e656c20627974657320636f6e73747275637465642066726f6d20706172616d732e204368616e6e656c2e5374617465203d207b41636b5f50656e64696e672c20436f6e6669726d5f50656e64696e677d6578706563746564206368616e6e656c20627974657320636f6e73747275637465642066726f6d20706172616d732e204368616e6e656c2e5374617465203d207b436c6f736564285f50656e64696e673f297da26469706673582212204635e8f8569a7a2095819a9f8fa83d2663bf23dd466baa90fcef1c2135458ad664736f6c63430008090033",
  "linkReferences": {},
  "deployedLinkReferences": {}
}