{
  "_format": "hh-sol-artifact-1",
  "contractName": "Dispatcher",
  "sourceName": "contracts/Dispatcher.sol",
  "abi": [
    {
      "inputs": [
        {
          "internalType": "address",
          "name": "_verifier",
          "type": "address"
        }
      ],
      "stateMutability": "nonpayable",
      "type": "constructor"
    },
    {
      "anonymous": false,
      "inputs": [
        {
          "indexed": false,
          "internalType": "string",
          "name": "channelId",
          "type": "string"
        },
        {
          "indexed": true,
          "internalType": "address",
          "name": "portId",
          "type": "address"
        }
      ],
      "name": "CloseIbcChannel",
      "type": "event"
    },
    {
      "anonymous": false,
      "inputs": [
        {
          "indexed": false,
          "internalType": "string",
          "name": "channelId",
          "type": "string"
        },
        {
          "indexed": true,
          "internalType": "address",
          "name": "portId",
          "type": "address"
        },
        {
          "indexed": false,
          "internalType": "string",
          "name": "counterPartyChannelId",
          "type": "string"
        },
        {
          "indexed": false,
          "internalType": "string",
          "name": "counterPartyPortId",
          "type": "string"
        },
        {
          "indexed": false,
          "internalType": "string",
          "name": "counterPartyVersion",
          "type": "string"
        }
      ],
      "name": "ConnectIbcChannel",
      "type": "event"
    },
    {
      "anonymous": false,
      "inputs": [
        {
          "indexed": true,
          "internalType": "bytes32",
          "name": "srcChannelId",
          "type": "bytes32"
        },
        {
          "indexed": false,
          "internalType": "string",
          "name": "srcPortId",
          "type": "string"
        },
        {
          "indexed": true,
          "internalType": "bytes32",
          "name": "destChannelId",
          "type": "bytes32"
        },
        {
          "indexed": false,
          "internalType": "string",
          "name": "destPortId",
          "type": "string"
        },
        {
          "indexed": false,
          "internalType": "bytes",
          "name": "data",
          "type": "bytes"
        },
        {
          "indexed": false,
          "internalType": "uint64",
          "name": "sequence",
          "type": "uint64"
        }
      ],
      "name": "OnRecvPacket",
      "type": "event"
    },
    {
      "anonymous": false,
      "inputs": [
        {
          "indexed": true,
          "internalType": "address",
          "name": "portAddress",
          "type": "address"
        },
        {
          "indexed": true,
          "internalType": "bytes32",
          "name": "counterpartyChannelId",
          "type": "bytes32"
        },
        {
          "indexed": false,
          "internalType": "string",
          "name": "version",
          "type": "string"
        },
        {
          "indexed": false,
          "internalType": "enum ChannelOrder",
          "name": "ordering",
          "type": "uint8"
        },
        {
          "indexed": false,
          "internalType": "string[]",
          "name": "connectionHops",
          "type": "string[]"
        },
        {
          "indexed": false,
          "internalType": "string",
          "name": "counterpartyPortId",
          "type": "string"
        },
        {
          "indexed": false,
          "internalType": "string",
          "name": "counterpartyVersion",
          "type": "string"
        }
      ],
      "name": "OpenIbcChannel",
      "type": "event"
    },
    {
      "anonymous": false,
      "inputs": [
        {
          "indexed": true,
          "internalType": "address",
          "name": "previousOwner",
          "type": "address"
        },
        {
          "indexed": true,
          "internalType": "address",
          "name": "newOwner",
          "type": "address"
        }
      ],
      "name": "OwnershipTransferred",
      "type": "event"
    },
    {
      "anonymous": false,
      "inputs": [
        {
          "indexed": true,
          "internalType": "address",
          "name": "portId",
          "type": "address"
        },
        {
          "indexed": true,
          "internalType": "bytes32",
          "name": "channelId",
          "type": "bytes32"
        },
        {
          "indexed": false,
          "internalType": "bytes",
          "name": "packet",
          "type": "bytes"
        },
        {
          "indexed": false,
          "internalType": "uint64",
          "name": "timeoutTimestamp",
          "type": "uint64"
        }
      ],
      "name": "SendPacket",
      "type": "event"
    },
    {
      "inputs": [
        {
          "internalType": "string",
          "name": "channelId",
          "type": "string"
        }
      ],
      "name": "closeIbcChannel",
      "outputs": [],
      "stateMutability": "nonpayable",
      "type": "function"
    },
    {
      "inputs": [
        {
          "internalType": "string",
          "name": "channelId",
          "type": "string"
        },
        {
          "internalType": "string",
          "name": "counterPartyChannelId",
          "type": "string"
        },
        {
          "internalType": "string",
          "name": "counterPartyPortId",
          "type": "string"
        },
        {
          "internalType": "string",
          "name": "counterPartyVersion",
          "type": "string"
        }
      ],
      "name": "connectIbcChannel",
      "outputs": [],
      "stateMutability": "nonpayable",
      "type": "function"
    },
    {
      "inputs": [
        {
          "internalType": "bytes",
          "name": "clientState",
          "type": "bytes"
        },
        {
          "internalType": "bytes",
          "name": "consensusState",
          "type": "bytes"
        }
      ],
      "name": "createClient",
      "outputs": [],
      "stateMutability": "nonpayable",
      "type": "function"
    },
    {
      "inputs": [],
      "name": "latestConsensusState",
      "outputs": [
        {
          "internalType": "bytes",
          "name": "",
          "type": "bytes"
        }
      ],
      "stateMutability": "view",
      "type": "function"
    },
    {
      "inputs": [
        {
          "internalType": "contract IbcReceiver",
          "name": "receiver",
          "type": "address"
        },
        {
          "components": [
            {
              "components": [
                {
                  "internalType": "string",
                  "name": "portId",
                  "type": "string"
                },
                {
                  "internalType": "bytes32",
                  "name": "channelId",
                  "type": "bytes32"
                }
              ],
              "internalType": "struct IbcEndpoint",
              "name": "src",
              "type": "tuple"
            },
            {
              "components": [
                {
                  "internalType": "string",
                  "name": "portId",
                  "type": "string"
                },
                {
                  "internalType": "bytes32",
                  "name": "channelId",
                  "type": "bytes32"
                }
              ],
              "internalType": "struct IbcEndpoint",
              "name": "dest",
              "type": "tuple"
            },
            {
              "internalType": "uint64",
              "name": "sequence",
              "type": "uint64"
            },
            {
              "internalType": "bytes",
              "name": "data",
              "type": "bytes"
            },
            {
              "components": [
                {
                  "internalType": "uint64",
                  "name": "block",
                  "type": "uint64"
                },
                {
                  "internalType": "uint64",
                  "name": "timestamp",
                  "type": "uint64"
                }
              ],
              "internalType": "struct IbcTimeout",
              "name": "timeout",
              "type": "tuple"
            }
          ],
          "internalType": "struct IbcPacket",
          "name": "packet",
          "type": "tuple"
        },
        {
          "internalType": "bytes",
          "name": "acknowledgement",
          "type": "bytes"
        },
        {
          "components": [
            {
              "internalType": "bytes",
              "name": "keyPath",
              "type": "bytes"
            },
            {
              "internalType": "bytes",
              "name": "value",
              "type": "bytes"
            },
            {
              "internalType": "bytes",
              "name": "proof",
              "type": "bytes"
            }
          ],
          "internalType": "struct Proof",
          "name": "proof",
          "type": "tuple"
        }
      ],
      "name": "onAcknowledgementPacket",
      "outputs": [],
      "stateMutability": "nonpayable",
      "type": "function"
    },
    {
      "inputs": [
        {
          "internalType": "contract IbcReceiver",
          "name": "receiver",
          "type": "address"
        },
        {
          "internalType": "string",
          "name": "channelId",
          "type": "string"
        },
        {
          "components": [
            {
              "internalType": "bytes",
              "name": "keyPath",
              "type": "bytes"
            },
            {
              "internalType": "bytes",
              "name": "value",
              "type": "bytes"
            },
            {
              "internalType": "bytes",
              "name": "proof",
              "type": "bytes"
            }
          ],
          "internalType": "struct Proof",
          "name": "proof",
          "type": "tuple"
        },
        {
          "internalType": "string",
          "name": "error",
          "type": "string"
        }
      ],
      "name": "onCloseIbcChannel",
      "outputs": [],
      "stateMutability": "nonpayable",
      "type": "function"
    },
    {
      "inputs": [
        {
          "internalType": "contract IbcReceiver",
          "name": "receiver",
          "type": "address"
        },
        {
          "internalType": "string",
          "name": "channelId",
          "type": "string"
        },
        {
          "components": [
            {
              "internalType": "bytes",
              "name": "keyPath",
              "type": "bytes"
            },
            {
              "internalType": "bytes",
              "name": "value",
              "type": "bytes"
            },
            {
              "internalType": "bytes",
              "name": "proof",
              "type": "bytes"
            }
          ],
          "internalType": "struct Proof",
          "name": "proof",
          "type": "tuple"
        },
        {
          "internalType": "string",
          "name": "error",
          "type": "string"
        }
      ],
      "name": "onConnectIbcChannel",
      "outputs": [],
      "stateMutability": "nonpayable",
      "type": "function"
    },
    {
      "inputs": [
        {
          "internalType": "contract IbcReceiver",
          "name": "receiver",
          "type": "address"
        },
        {
          "components": [
            {
              "components": [
                {
                  "internalType": "string",
                  "name": "portId",
                  "type": "string"
                },
                {
                  "internalType": "bytes32",
                  "name": "channelId",
                  "type": "bytes32"
                }
              ],
              "internalType": "struct IbcEndpoint",
              "name": "src",
              "type": "tuple"
            },
            {
              "components": [
                {
                  "internalType": "string",
                  "name": "portId",
                  "type": "string"
                },
                {
                  "internalType": "bytes32",
                  "name": "channelId",
                  "type": "bytes32"
                }
              ],
              "internalType": "struct IbcEndpoint",
              "name": "dest",
              "type": "tuple"
            },
            {
              "internalType": "uint64",
              "name": "sequence",
              "type": "uint64"
            },
            {
              "internalType": "bytes",
              "name": "data",
              "type": "bytes"
            },
            {
              "components": [
                {
                  "internalType": "uint64",
                  "name": "block",
                  "type": "uint64"
                },
                {
                  "internalType": "uint64",
                  "name": "timestamp",
                  "type": "uint64"
                }
              ],
              "internalType": "struct IbcTimeout",
              "name": "timeout",
              "type": "tuple"
            }
          ],
          "internalType": "struct IbcPacket",
          "name": "packet",
          "type": "tuple"
        },
        {
          "components": [
            {
              "internalType": "bytes",
              "name": "keyPath",
              "type": "bytes"
            },
            {
              "internalType": "bytes",
              "name": "value",
              "type": "bytes"
            },
            {
              "internalType": "bytes",
              "name": "proof",
              "type": "bytes"
            }
          ],
          "internalType": "struct Proof",
          "name": "proof",
          "type": "tuple"
        }
      ],
      "name": "onRecvPacket",
      "outputs": [],
      "stateMutability": "nonpayable",
      "type": "function"
    },
    {
      "inputs": [
        {
          "internalType": "contract IbcReceiver",
          "name": "receiver",
          "type": "address"
        },
        {
          "components": [
            {
              "components": [
                {
                  "internalType": "string",
                  "name": "portId",
                  "type": "string"
                },
                {
                  "internalType": "bytes32",
                  "name": "channelId",
                  "type": "bytes32"
                }
              ],
              "internalType": "struct IbcEndpoint",
              "name": "src",
              "type": "tuple"
            },
            {
              "components": [
                {
                  "internalType": "string",
                  "name": "portId",
                  "type": "string"
                },
                {
                  "internalType": "bytes32",
                  "name": "channelId",
                  "type": "bytes32"
                }
              ],
              "internalType": "struct IbcEndpoint",
              "name": "dest",
              "type": "tuple"
            },
            {
              "internalType": "uint64",
              "name": "sequence",
              "type": "uint64"
            },
            {
              "internalType": "bytes",
              "name": "data",
              "type": "bytes"
            },
            {
              "components": [
                {
                  "internalType": "uint64",
                  "name": "block",
                  "type": "uint64"
                },
                {
                  "internalType": "uint64",
                  "name": "timestamp",
                  "type": "uint64"
                }
              ],
              "internalType": "struct IbcTimeout",
              "name": "timeout",
              "type": "tuple"
            }
          ],
          "internalType": "struct IbcPacket",
          "name": "packet",
          "type": "tuple"
        },
        {
          "components": [
            {
              "internalType": "bytes",
              "name": "keyPath",
              "type": "bytes"
            },
            {
              "internalType": "bytes",
              "name": "value",
              "type": "bytes"
            },
            {
              "internalType": "bytes",
              "name": "proof",
              "type": "bytes"
            }
          ],
          "internalType": "struct Proof",
          "name": "proof",
          "type": "tuple"
        }
      ],
      "name": "onTimeoutPacket",
      "outputs": [],
      "stateMutability": "nonpayable",
      "type": "function"
    },
    {
      "inputs": [
        {
          "internalType": "address",
          "name": "portAddress",
          "type": "address"
        },
        {
          "internalType": "string",
          "name": "version",
          "type": "string"
        },
        {
          "internalType": "enum ChannelOrder",
          "name": "ordering",
          "type": "uint8"
        },
        {
          "internalType": "string[]",
          "name": "connectionHops",
          "type": "string[]"
        },
        {
          "internalType": "bytes32",
          "name": "counterPartyChannelId",
          "type": "bytes32"
        },
        {
          "internalType": "string",
          "name": "counterpartyPortId",
          "type": "string"
        },
        {
          "internalType": "string",
          "name": "counterpartyVersion",
          "type": "string"
        }
      ],
      "name": "openIbcChannel",
      "outputs": [],
      "stateMutability": "nonpayable",
      "type": "function"
    },
    {
      "inputs": [],
      "name": "owner",
      "outputs": [
        {
          "internalType": "address",
          "name": "",
          "type": "address"
        }
      ],
      "stateMutability": "view",
      "type": "function"
    },
    {
      "inputs": [],
      "name": "renounceOwnership",
      "outputs": [],
      "stateMutability": "nonpayable",
      "type": "function"
    },
    {
      "inputs": [
        {
          "internalType": "bytes32",
          "name": "channelId",
          "type": "bytes32"
        },
        {
          "internalType": "bytes",
          "name": "packet",
          "type": "bytes"
        },
        {
          "internalType": "uint64",
          "name": "timeoutTimestamp",
          "type": "uint64"
        }
      ],
      "name": "sendPacket",
      "outputs": [],
      "stateMutability": "nonpayable",
      "type": "function"
    },
    {
      "inputs": [
        {
          "internalType": "address",
          "name": "newOwner",
          "type": "address"
        }
      ],
      "name": "transferOwnership",
      "outputs": [],
      "stateMutability": "nonpayable",
      "type": "function"
    },
    {
      "inputs": [
        {
          "internalType": "bytes",
          "name": "consensusState",
          "type": "bytes"
        }
      ],
      "name": "updateClient",
      "outputs": [],
      "stateMutability": "nonpayable",
      "type": "function"
    },
    {
      "inputs": [],
      "name": "verifier",
      "outputs": [
        {
          "internalType": "contract ZKMintVerifier",
          "name": "",
          "type": "address"
        }
      ],
      "stateMutability": "view",
      "type": "function"
    }
  ],
  "bytecode": "0x60806040526000600360006101000a81548167ffffffffffffffff021916908367ffffffffffffffff1602179055503480156200003b57600080fd5b5060405162002dc838038062002dc883398181016040528101906200006191906200021a565b6200008162000075620000e460201b60201c565b620000ec60201b60201c565b80600160006101000a81548173ffffffffffffffffffffffffffffffffffffffff021916908373ffffffffffffffffffffffffffffffffffffffff1602179055506000600160146101000a81548160ff021916908315150217905550506200024c565b600033905090565b60008060009054906101000a900473ffffffffffffffffffffffffffffffffffffffff169050816000806101000a81548173ffffffffffffffffffffffffffffffffffffffff021916908373ffffffffffffffffffffffffffffffffffffffff1602179055508173ffffffffffffffffffffffffffffffffffffffff168173ffffffffffffffffffffffffffffffffffffffff167f8be0079c531659141344cd1fd0a4f28419497f9722a3daafe3b4186f6b6457e060405160405180910390a35050565b600080fd5b600073ffffffffffffffffffffffffffffffffffffffff82169050919050565b6000620001e282620001b5565b9050919050565b620001f481620001d5565b81146200020057600080fd5b50565b6000815190506200021481620001e9565b92915050565b600060208284031215620002335762000232620001b0565b5b6000620002438482850162000203565b91505092915050565b612b6c806200025c6000396000f3fe608060405234801561001057600080fd5b50600436106101005760003560e01c80638da5cb5b11610097578063d12f3e4e11610066578063d12f3e4e14610249578063dc44310014610265578063e6815c1214610281578063f2fde38b1461029d57610100565b80638da5cb5b146101d5578063c2a2514d146101f3578063c3e1155c14610211578063ca1288ed1461022d57610100565b80633e24aaf3116100d35780633e24aaf31461017757806370c5dd5314610193578063715018a6146101af5780638b116848146101b957610100565b806303941ec5146101055780630bece35614610121578063260012e81461013d5780632b7ac3f314610159575b600080fd5b61011f600480360381019061011a91906113f7565b6102b9565b005b61013b600480360381019061013691906114b7565b610373565b005b61015760048036038101906101529190611504565b6104c6565b005b6101616105d8565b60405161016e91906115ee565b60405180910390f35b610191600480360381019061018c9190611609565b6105fe565b005b6101ad60048036038101906101a891906116e0565b610688565b005b6101b7610749565b005b6101d360048036038101906101ce91906116e0565b61075d565b005b6101dd61081e565b6040516101ea91906117b2565b60405180910390f35b6101fb610847565b6040516102089190611866565b60405180910390f35b61022b600480360381019061022691906118fe565b6108d5565b005b61024760048036038101906102429190611972565b61092e565b005b610263600480360381019061025e9190611b02565b610994565b005b61027f600480360381019061027a9190611504565b610c11565b005b61029b60048036038101906102969190611c26565b610cc9565b005b6102b760048036038101906102b29190611c73565b610d1d565b005b6102c281610da1565b610301576040517f08c379a00000000000000000000000000000000000000000000000000000000081526004016102f890611cfd565b60405180910390fd5b8473ffffffffffffffffffffffffffffffffffffffff1663f45cf5e4856040518263ffffffff1660e01b815260040161033a9190612038565b600060405180830381600087803b15801561035457600080fd5b505af1158015610368573d6000803e3d6000fd5b505050505050505050565b600160149054906101000a900460ff166103c2576040517f08c379a00000000000000000000000000000000000000000000000000000000081526004016103b9906120a6565b60405180910390fd5b600160009054906101000a900473ffffffffffffffffffffffffffffffffffffffff1673ffffffffffffffffffffffffffffffffffffffff16638e760afe83836040518363ffffffff1660e01b815260040161041f9291906120f3565b602060405180830381600087803b15801561043957600080fd5b505af115801561044d573d6000803e3d6000fd5b505050506040513d601f19601f82011682018060405250810190610471919061214f565b6104b0576040517f08c379a00000000000000000000000000000000000000000000000000000000081526004016104a7906121ee565b60405180910390fd5b8181600291906104c1929190611232565b505050565b6104cf81610da1565b61050e576040517f08c379a000000000000000000000000000000000000000000000000000000000815260040161050590611cfd565b60405180910390fd5b81806020019061051e919061221d565b60200135828060000190610532919061221d565b602001357f080631928e492258b6a102fc2ab3e0a8dfcb747ab0885c25f9cb7a8d48621036848060000190610567919061221d565b80600001906105769190612245565b868060200190610586919061221d565b80600001906105959190612245565b8880606001906105a591906122a8565b8a60400160208101906105b8919061230b565b6040516105cb9796959493929190612374565b60405180910390a3505050565b600160009054906101000a900473ffffffffffffffffffffffffffffffffffffffff1681565b610606610dcf565b600160149054906101000a900460ff1615610656576040517f08c379a000000000000000000000000000000000000000000000000000000000815260040161064d90612420565b60405180910390fd5b60018060146101000a81548160ff021916908315150217905550818160029190610681929190611232565b5050505050565b61069183610da1565b6106d0576040517f08c379a00000000000000000000000000000000000000000000000000000000081526004016106c790611cfd565b60405180910390fd5b8573ffffffffffffffffffffffffffffffffffffffff16630a845081868685856040518563ffffffff1660e01b815260040161070f9493929190612440565b600060405180830381600087803b15801561072957600080fd5b505af115801561073d573d6000803e3d6000fd5b50505050505050505050565b610751610dcf565b61075b6000610e4d565b565b61076683610da1565b6107a5576040517f08c379a000000000000000000000000000000000000000000000000000000000815260040161079c90611cfd565b60405180910390fd5b8573ffffffffffffffffffffffffffffffffffffffff16636afd6174868685856040518563ffffffff1660e01b81526004016107e49493929190612440565b600060405180830381600087803b1580156107fe57600080fd5b505af1158015610812573d6000803e3d6000fd5b50505050505050505050565b60008060009054906101000a900473ffffffffffffffffffffffffffffffffffffffff16905090565b60028054610854906124aa565b80601f0160208091040260200160405190810160405280929190818152602001828054610880906124aa565b80156108cd5780601f106108a2576101008083540402835291602001916108cd565b820191906000526020600020905b8154815290600101906020018083116108b057829003601f168201915b505050505081565b833373ffffffffffffffffffffffffffffffffffffffff167fe5f4762afde15256ce24aa385b449d27b7d2776921f3c673f8162ddb5b7a2f16858585604051610920939291906124dc565b60405180910390a350505050565b3373ffffffffffffffffffffffffffffffffffffffff167fd38dbe544e1f1277b020a61acc0dd2cf9ddcf99471a49a288a3ada57f3206a73898989898989898960405161098298979695949392919061250e565b60405180910390a25050505050505050565b6109d26040518060400160405280601c81526020017f3d3d3d3d3e206f70656e4962634368616e6e656c207374617274656400000000815250610f11565b60008b90506000610a756040518060400160405280600881526020017f6368616e6e656c2d000000000000000000000000000000000000000000000000815250610a706003600081819054906101000a900467ffffffffffffffff1680929190610a3b906125a6565b91906101000a81548167ffffffffffffffff021916908367ffffffffffffffff16021790555067ffffffffffffffff16610faa565b611082565b610a7e90612609565b9050610abe6040518060400160405280600d81526020017f3d3d3d3e6368616e6e656c496400000000000000000000000000000000000000815250610f11565b610ae681604051602001610ad29190612691565b604051602081830303815290604052610f11565b8173ffffffffffffffffffffffffffffffffffffffff166352e33bf3828e8e8e8e8e8e8e8e8e8e6040518c63ffffffff1660e01b8152600401610b339b9a999897969594939291906127e6565b600060405180830381600087803b158015610b4d57600080fd5b505af1158015610b61573d6000803e3d6000fd5b50505050610ba36040518060400160405280600d81526020017f3d3d3d3e6368616e6e656c496400000000000000000000000000000000000000815250610f11565b868d73ffffffffffffffffffffffffffffffffffffffff167f25aa30cda6b1a93bd335279ce79d61cf3179e811aa258652bd1dc333189167338e8e8e8e8e8d8d8d8d604051610bfa99989796959493929190612879565b60405180910390a350505050505050505050505050565b610c1a81610da1565b610c59576040517f08c379a0000000000000000000000000000000000000000000000000000000008152600401610c5090611cfd565b60405180910390fd5b8273ffffffffffffffffffffffffffffffffffffffff1663b33c2577836040518263ffffffff1660e01b8152600401610c929190612038565b600060405180830381600087803b158015610cac57600080fd5b505af1158015610cc0573d6000803e3d6000fd5b50505050505050565b3373ffffffffffffffffffffffffffffffffffffffff167f18280cf62c6d3f3519d7cff5c5b7e91021dd17a0278ba5668976d82bdc9faa9e8383604051610d119291906128f0565b60405180910390a25050565b610d25610dcf565b600073ffffffffffffffffffffffffffffffffffffffff168173ffffffffffffffffffffffffffffffffffffffff161415610d95576040517f08c379a0000000000000000000000000000000000000000000000000000000008152600401610d8c90612986565b60405180910390fd5b610d9e81610e4d565b50565b600080828060400190610db491906122a8565b90501415610dc55760009050610dca565b600190505b919050565b610dd76110ae565b73ffffffffffffffffffffffffffffffffffffffff16610df561081e565b73ffffffffffffffffffffffffffffffffffffffff1614610e4b576040517f08c379a0000000000000000000000000000000000000000000000000000000008152600401610e42906129f2565b60405180910390fd5b565b60008060009054906101000a900473ffffffffffffffffffffffffffffffffffffffff169050816000806101000a81548173ffffffffffffffffffffffffffffffffffffffff021916908373ffffffffffffffffffffffffffffffffffffffff1602179055508173ffffffffffffffffffffffffffffffffffffffff168173ffffffffffffffffffffffffffffffffffffffff167f8be0079c531659141344cd1fd0a4f28419497f9722a3daafe3b4186f6b6457e060405160405180910390a35050565b610fa781604051602401610f259190612a56565b6040516020818303038152906040527f41304fac000000000000000000000000000000000000000000000000000000007bffffffffffffffffffffffffffffffffffffffffffffffffffffffff19166020820180517bffffffffffffffffffffffffffffffffffffffffffffffffffffffff83818316178352505050506110b6565b50565b606060006001610fb9846110df565b01905060008167ffffffffffffffff811115610fd857610fd7612a78565b5b6040519080825280601f01601f19166020018201604052801561100a5781602001600182028036833780820191505090505b509050600082602001820190505b600115611077578080600190039150507f3031323334353637383961626364656600000000000000000000000000000000600a86061a8153600a858161106157611060612aa7565b5b049450600085141561107257611077565b611018565b819350505050919050565b60608282604051602001611097929190612b12565b604051602081830303815290604052905092915050565b600033905090565b60008151905060006a636f6e736f6c652e6c6f679050602083016000808483855afa5050505050565b600080600090507a184f03e93ff9f4daa797ed6e38ed64bf6a1f010000000000000000831061113d577a184f03e93ff9f4daa797ed6e38ed64bf6a1f010000000000000000838161113357611132612aa7565b5b0492506040810190505b6d04ee2d6d415b85acef8100000000831061117a576d04ee2d6d415b85acef810000000083816111705761116f612aa7565b5b0492506020810190505b662386f26fc1000083106111a957662386f26fc10000838161119f5761119e612aa7565b5b0492506010810190505b6305f5e10083106111d2576305f5e10083816111c8576111c7612aa7565b5b0492506008810190505b61271083106111f75761271083816111ed576111ec612aa7565b5b0492506004810190505b6064831061121a57606483816112105761120f612aa7565b5b0492506002810190505b600a8310611229576001810190505b80915050919050565b82805461123e906124aa565b90600052602060002090601f01602090048101928261126057600085556112a7565b82601f1061127957803560ff19168380011785556112a7565b828001600101855582156112a7579182015b828111156112a657823582559160200191906001019061128b565b5b5090506112b491906112b8565b5090565b5b808211156112d15760008160009055506001016112b9565b5090565b600080fd5b600080fd5b600073ffffffffffffffffffffffffffffffffffffffff82169050919050565b600061130a826112df565b9050919050565b600061131c826112ff565b9050919050565b61132c81611311565b811461133757600080fd5b50565b60008135905061134981611323565b92915050565b600080fd5b600060c0828403121561136a5761136961134f565b5b81905092915050565b600080fd5b600080fd5b600080fd5b60008083601f84011261139857611397611373565b5b8235905067ffffffffffffffff8111156113b5576113b4611378565b5b6020830191508360018202830111156113d1576113d061137d565b5b9250929050565b6000606082840312156113ee576113ed61134f565b5b81905092915050565b600080600080600060808688031215611413576114126112d5565b5b60006114218882890161133a565b955050602086013567ffffffffffffffff811115611442576114416112da565b5b61144e88828901611354565b945050604086013567ffffffffffffffff81111561146f5761146e6112da565b5b61147b88828901611382565b9350935050606086013567ffffffffffffffff81111561149e5761149d6112da565b5b6114aa888289016113d8565b9150509295509295909350565b600080602083850312156114ce576114cd6112d5565b5b600083013567ffffffffffffffff8111156114ec576114eb6112da565b5b6114f885828601611382565b92509250509250929050565b60008060006060848603121561151d5761151c6112d5565b5b600061152b8682870161133a565b935050602084013567ffffffffffffffff81111561154c5761154b6112da565b5b61155886828701611354565b925050604084013567ffffffffffffffff811115611579576115786112da565b5b611585868287016113d8565b9150509250925092565b6000819050919050565b60006115b46115af6115aa846112df565b61158f565b6112df565b9050919050565b60006115c682611599565b9050919050565b60006115d8826115bb565b9050919050565b6115e8816115cd565b82525050565b600060208201905061160360008301846115df565b92915050565b60008060008060408587031215611623576116226112d5565b5b600085013567ffffffffffffffff811115611641576116406112da565b5b61164d87828801611382565b9450945050602085013567ffffffffffffffff8111156116705761166f6112da565b5b61167c87828801611382565b925092505092959194509250565b60008083601f8401126116a05761169f611373565b5b8235905067ffffffffffffffff8111156116bd576116bc611378565b5b6020830191508360018202830111156116d9576116d861137d565b5b9250929050565b600080600080600080608087890312156116fd576116fc6112d5565b5b600061170b89828a0161133a565b965050602087013567ffffffffffffffff81111561172c5761172b6112da565b5b61173889828a0161168a565b9550955050604087013567ffffffffffffffff81111561175b5761175a6112da565b5b61176789828a016113d8565b935050606087013567ffffffffffffffff811115611788576117876112da565b5b61179489828a0161168a565b92509250509295509295509295565b6117ac816112ff565b82525050565b60006020820190506117c760008301846117a3565b92915050565b600081519050919050565b600082825260208201905092915050565b60005b838110156118075780820151818401526020810190506117ec565b83811115611816576000848401525b50505050565b6000601f19601f8301169050919050565b6000611838826117cd565b61184281856117d8565b93506118528185602086016117e9565b61185b8161181c565b840191505092915050565b60006020820190508181036000830152611880818461182d565b905092915050565b6000819050919050565b61189b81611888565b81146118a657600080fd5b50565b6000813590506118b881611892565b92915050565b600067ffffffffffffffff82169050919050565b6118db816118be565b81146118e657600080fd5b50565b6000813590506118f8816118d2565b92915050565b60008060008060608587031215611918576119176112d5565b5b6000611926878288016118a9565b945050602085013567ffffffffffffffff811115611947576119466112da565b5b61195387828801611382565b93509350506040611966878288016118e9565b91505092959194509250565b6000806000806000806000806080898b031215611992576119916112d5565b5b600089013567ffffffffffffffff8111156119b0576119af6112da565b5b6119bc8b828c0161168a565b9850985050602089013567ffffffffffffffff8111156119df576119de6112da565b5b6119eb8b828c0161168a565b9650965050604089013567ffffffffffffffff811115611a0e57611a0d6112da565b5b611a1a8b828c0161168a565b9450945050606089013567ffffffffffffffff811115611a3d57611a3c6112da565b5b611a498b828c0161168a565b92509250509295985092959890939650565b611a64816112ff565b8114611a6f57600080fd5b50565b600081359050611a8181611a5b565b92915050565b60028110611a9457600080fd5b50565b600081359050611aa681611a87565b92915050565b60008083601f840112611ac257611ac1611373565b5b8235905067ffffffffffffffff811115611adf57611ade611378565b5b602083019150836020820283011115611afb57611afa61137d565b5b9250929050565b600080600080600080600080600080600060e08c8e031215611b2757611b266112d5565b5b6000611b358e828f01611a72565b9b505060208c013567ffffffffffffffff811115611b5657611b556112da565b5b611b628e828f0161168a565b9a509a50506040611b758e828f01611a97565b98505060608c013567ffffffffffffffff811115611b9657611b956112da565b5b611ba28e828f01611aac565b97509750506080611bb58e828f016118a9565b95505060a08c013567ffffffffffffffff811115611bd657611bd56112da565b5b611be28e828f0161168a565b945094505060c08c013567ffffffffffffffff811115611c0557611c046112da565b5b611c118e828f0161168a565b92509250509295989b509295989b9093969950565b60008060208385031215611c3d57611c3c6112d5565b5b600083013567ffffffffffffffff811115611c5b57611c5a6112da565b5b611c678582860161168a565b92509250509250929050565b600060208284031215611c8957611c886112d5565b5b6000611c9784828501611a72565b91505092915050565b600082825260208201905092915050565b7f50726f6f6620766572696669636174696f6e206661696c656400000000000000600082015250565b6000611ce7601983611ca0565b9150611cf282611cb1565b602082019050919050565b60006020820190508181036000830152611d1681611cda565b9050919050565b600080fd5b600082356001604003833603038112611d3e57611d3d611d1d565b5b82810191505092915050565b600080fd5b600080fd5b60008083356001602003843603038112611d7157611d70611d1d565b5b83810192508235915060208301925067ffffffffffffffff821115611d9957611d98611d4a565b5b600182023603841315611daf57611dae611d4f565b5b509250929050565b600082825260208201905092915050565b82818337600083830152505050565b6000611de38385611db7565b9350611df0838584611dc8565b611df98361181c565b840190509392505050565b6000611e1360208401846118a9565b905092915050565b611e2481611888565b82525050565b600060408301611e3d6000840184611d54565b8583036000870152611e50838284611dd7565b92505050611e616020840184611e04565b611e6e6020860182611e1b565b508091505092915050565b6000611e8860208401846118e9565b905092915050565b611e99816118be565b82525050565b60008083356001602003843603038112611ebc57611ebb611d1d565b5b83810192508235915060208301925067ffffffffffffffff821115611ee457611ee3611d4a565b5b600182023603841315611efa57611ef9611d4f565b5b509250929050565b600082825260208201905092915050565b6000611f1f8385611f02565b9350611f2c838584611dc8565b611f358361181c565b840190509392505050565b600082905092915050565b60408201611f5c6000830183611e79565b611f696000850182611e90565b50611f776020830183611e79565b611f846020850182611e90565b50505050565b600060c08301611f9d6000840184611d22565b8482036000860152611faf8282611e2a565b915050611fbf6020840184611d22565b8482036020860152611fd18282611e2a565b915050611fe16040840184611e79565b611fee6040860182611e90565b50611ffc6060840184611e9f565b858303606087015261200f838284611f13565b925050506120206080840184611f40565b61202d6080860182611f4b565b508091505092915050565b600060208201905081810360008301526120528184611f8a565b905092915050565b7f436c69656e74206e6f7420637265617465640000000000000000000000000000600082015250565b6000612090601283611ca0565b915061209b8261205a565b602082019050919050565b600060208201905081810360008301526120bf81612083565b9050919050565b60006120d283856117d8565b93506120df838584611dc8565b6120e88361181c565b840190509392505050565b6000602082019050818103600083015261210e8184866120c6565b90509392505050565b60008115159050919050565b61212c81612117565b811461213757600080fd5b50565b60008151905061214981612123565b92915050565b600060208284031215612165576121646112d5565b5b60006121738482850161213a565b91505092915050565b7f436f6e73656e73757320737461746520766572696669636174696f6e2066616960008201527f6c65640000000000000000000000000000000000000000000000000000000000602082015250565b60006121d8602383611ca0565b91506121e38261217c565b604082019050919050565b60006020820190508181036000830152612207816121cb565b9050919050565b600080fd5b600080fd5b600080fd5b6000823560016040038336030381126122395761223861220e565b5b80830191505092915050565b600080833560016020038436030381126122625761226161220e565b5b80840192508235915067ffffffffffffffff82111561228457612283612213565b5b6020830192506001820236038313156122a05761229f612218565b5b509250929050565b600080833560016020038436030381126122c5576122c461220e565b5b80840192508235915067ffffffffffffffff8211156122e7576122e6612213565b5b60208301925060018202360383131561230357612302612218565b5b509250929050565b600060208284031215612321576123206112d5565b5b600061232f848285016118e9565b91505092915050565b60006123448385611ca0565b9350612351838584611dc8565b61235a8361181c565b840190509392505050565b61236e816118be565b82525050565b6000608082019050818103600083015261238f81898b612338565b905081810360208301526123a4818789612338565b905081810360408301526123b98185876120c6565b90506123c86060830184612365565b98975050505050505050565b7f436c69656e7420616c7265616479206372656174656400000000000000000000600082015250565b600061240a601683611ca0565b9150612415826123d4565b602082019050919050565b60006020820190508181036000830152612439816123fd565b9050919050565b6000604082019050818103600083015261245b818688612338565b90508181036020830152612470818486612338565b905095945050505050565b7f4e487b7100000000000000000000000000000000000000000000000000000000600052602260045260246000fd5b600060028204905060018216806124c257607f821691505b602082108114156124d6576124d561247b565b5b50919050565b600060408201905081810360008301526124f78185876120c6565b90506125066020830184612365565b949350505050565b60006080820190508181036000830152612529818a8c612338565b9050818103602083015261253e81888a612338565b90508181036040830152612553818688612338565b90508181036060830152612568818486612338565b90509998505050505050505050565b7f4e487b7100000000000000000000000000000000000000000000000000000000600052601160045260246000fd5b60006125b1826118be565b915067ffffffffffffffff8214156125cc576125cb612577565b5b600182019050919050565b6000819050602082019050919050565b60006125f38251611888565b80915050919050565b600082821b905092915050565b6000612614826117cd565b8261261e846125d7565b9050612629816125e7565b92506020821015612669576126647fffffffffffffffffffffffffffffffffffffffffffffffffffffffffffffffff836020036008026125fc565b831692505b5050919050565b6000819050919050565b61268b61268682611888565b612670565b82525050565b600061269d828461267a565b60208201915081905092915050565b6126b581611888565b82525050565b7f4e487b7100000000000000000000000000000000000000000000000000000000600052602160045260246000fd5b600281106126fb576126fa6126bb565b5b50565b600081905061270c826126ea565b919050565b600061271c826126fe565b9050919050565b61272c81612711565b82525050565b600082825260208201905092915050565b6000819050919050565b600061275a848484611dd7565b90509392505050565b6000602082019050919050565b600061277c8385612732565b93508360208402850161278e84612743565b8060005b878110156127d45784840389526127a98284611d54565b6127b486828461274d565b95506127bf84612763565b935060208b019a505050600181019050612792565b50829750879450505050509392505050565b600060e0820190506127fb600083018e6126ac565b818103602083015261280e818c8e612338565b905061281d604083018b612723565b818103606083015261283081898b612770565b905061283f60808301886126ac565b81810360a0830152612852818688612338565b905081810360c0830152612867818486612338565b90509c9b505050505050505050505050565b600060a0820190508181036000830152612894818b8d612338565b90506128a3602083018a612723565b81810360408301526128b681888a612770565b905081810360608301526128cb818688612338565b905081810360808301526128e0818486612338565b90509a9950505050505050505050565b6000602082019050818103600083015261290b818486612338565b90509392505050565b7f4f776e61626c653a206e6577206f776e657220697320746865207a65726f206160008201527f6464726573730000000000000000000000000000000000000000000000000000602082015250565b6000612970602683611ca0565b915061297b82612914565b604082019050919050565b6000602082019050818103600083015261299f81612963565b9050919050565b7f4f776e61626c653a2063616c6c6572206973206e6f7420746865206f776e6572600082015250565b60006129dc602083611ca0565b91506129e7826129a6565b602082019050919050565b60006020820190508181036000830152612a0b816129cf565b9050919050565b600081519050919050565b6000612a2882612a12565b612a328185611ca0565b9350612a428185602086016117e9565b612a4b8161181c565b840191505092915050565b60006020820190508181036000830152612a708184612a1d565b905092915050565b7f4e487b7100000000000000000000000000000000000000000000000000000000600052604160045260246000fd5b7f4e487b7100000000000000000000000000000000000000000000000000000000600052601260045260246000fd5b600081905092915050565b6000612aec82612a12565b612af68185612ad6565b9350612b068185602086016117e9565b80840191505092915050565b6000612b1e8285612ae1565b9150612b2a8284612ae1565b9150819050939250505056fea26469706673582212206e1c01c1af6be7e3a304f072241e2720f41cc3ff83da0f6a273154758c2cbc1f64736f6c63430008090033",
  "linkReferences": {},
  "deployedLinkReferences": {}
}