{
  "_format": "hh-sol-artifact-1",
  "contractName": "Dispatcher",
  "sourceName": "contracts/Dispatcher.sol",
  "abi": [
    {
      "inputs": [
        {
          "internalType": "address",
          "name": "_verifier",
          "type": "address"
        }
      ],
      "stateMutability": "nonpayable",
      "type": "constructor"
    },
    {
      "anonymous": false,
      "inputs": [
        {
          "indexed": false,
          "internalType": "string",
          "name": "channelId",
          "type": "string"
        },
        {
          "indexed": true,
          "internalType": "address",
          "name": "portId",
          "type": "address"
        }
      ],
      "name": "CloseIbcChannel",
      "type": "event"
    },
    {
      "anonymous": false,
      "inputs": [
        {
          "indexed": true,
          "internalType": "address",
          "name": "portAddress",
          "type": "address"
        },
        {
          "indexed": true,
          "internalType": "bytes32",
          "name": "channelId",
          "type": "bytes32"
        },
        {
          "indexed": false,
          "internalType": "string",
          "name": "counterpartyPortId",
          "type": "string"
        },
        {
          "indexed": true,
          "internalType": "bytes32",
          "name": "counterpartyChannelId",
          "type": "bytes32"
        },
        {
          "indexed": false,
          "internalType": "string[]",
          "name": "connectionHops",
          "type": "string[]"
        }
      ],
      "name": "ConnectIbcChannel",
      "type": "event"
    },
    {
      "anonymous": false,
      "inputs": [
        {
          "indexed": true,
          "internalType": "bytes32",
          "name": "srcChannelId",
          "type": "bytes32"
        },
        {
          "indexed": false,
          "internalType": "string",
          "name": "srcPortId",
          "type": "string"
        },
        {
          "indexed": true,
          "internalType": "bytes32",
          "name": "destChannelId",
          "type": "bytes32"
        },
        {
          "indexed": false,
          "internalType": "string",
          "name": "destPortId",
          "type": "string"
        },
        {
          "indexed": false,
          "internalType": "bytes",
          "name": "data",
          "type": "bytes"
        },
        {
          "indexed": false,
          "internalType": "uint64",
          "name": "sequence",
          "type": "uint64"
        }
      ],
      "name": "OnRecvPacket",
      "type": "event"
    },
    {
      "anonymous": false,
      "inputs": [
        {
          "indexed": true,
          "internalType": "address",
          "name": "portAddress",
          "type": "address"
        },
        {
          "indexed": true,
          "internalType": "bytes32",
          "name": "channelId",
          "type": "bytes32"
        },
        {
          "indexed": true,
          "internalType": "bytes32",
          "name": "counterpartyChannelId",
          "type": "bytes32"
        },
        {
          "indexed": false,
          "internalType": "bytes32",
          "name": "version",
          "type": "bytes32"
        },
        {
          "indexed": false,
          "internalType": "enum ChannelOrder",
          "name": "ordering",
          "type": "uint8"
        },
        {
          "indexed": false,
          "internalType": "string[]",
          "name": "connectionHops",
          "type": "string[]"
        },
        {
          "indexed": false,
          "internalType": "string",
          "name": "counterpartyPortId",
          "type": "string"
        },
        {
          "indexed": false,
          "internalType": "bytes32",
          "name": "counterpartyVersion",
          "type": "bytes32"
        }
      ],
      "name": "OpenIbcChannel",
      "type": "event"
    },
    {
      "anonymous": false,
      "inputs": [
        {
          "indexed": true,
          "internalType": "address",
          "name": "previousOwner",
          "type": "address"
        },
        {
          "indexed": true,
          "internalType": "address",
          "name": "newOwner",
          "type": "address"
        }
      ],
      "name": "OwnershipTransferred",
      "type": "event"
    },
    {
      "anonymous": false,
      "inputs": [
        {
          "indexed": true,
          "internalType": "address",
          "name": "portId",
          "type": "address"
        },
        {
          "indexed": true,
          "internalType": "bytes32",
          "name": "channelId",
          "type": "bytes32"
        },
        {
          "indexed": false,
          "internalType": "bytes",
          "name": "packet",
          "type": "bytes"
        },
        {
          "indexed": false,
          "internalType": "uint64",
          "name": "timeoutTimestamp",
          "type": "uint64"
        }
      ],
      "name": "SendPacket",
      "type": "event"
    },
    {
      "inputs": [
        {
          "internalType": "string",
          "name": "channelId",
          "type": "string"
        }
      ],
      "name": "closeIbcChannel",
      "outputs": [],
      "stateMutability": "nonpayable",
      "type": "function"
    },
    {
      "inputs": [
        {
          "internalType": "address",
          "name": "portAddress",
          "type": "address"
        },
        {
          "internalType": "bytes32",
          "name": "channelId",
          "type": "bytes32"
        },
        {
          "internalType": "bytes32",
          "name": "counterpartyChannelId",
          "type": "bytes32"
        },
        {
          "internalType": "bytes32",
          "name": "counterpartyVersion",
          "type": "bytes32"
        },
        {
          "components": [
            {
              "internalType": "uint64",
              "name": "proofHeight",
              "type": "uint64"
            },
            {
              "internalType": "bytes",
              "name": "proof",
              "type": "bytes"
            }
          ],
          "internalType": "struct Proof",
          "name": "proof",
          "type": "tuple"
        }
      ],
      "name": "connectIbcChannel",
      "outputs": [],
      "stateMutability": "nonpayable",
      "type": "function"
    },
    {
      "inputs": [
        {
          "internalType": "bytes",
          "name": "clientState",
          "type": "bytes"
        },
        {
          "internalType": "bytes",
          "name": "consensusState",
          "type": "bytes"
        }
      ],
      "name": "createClient",
      "outputs": [],
      "stateMutability": "nonpayable",
      "type": "function"
    },
    {
      "inputs": [],
      "name": "latestConsensusState",
      "outputs": [
        {
          "internalType": "bytes",
          "name": "",
          "type": "bytes"
        }
      ],
      "stateMutability": "view",
      "type": "function"
    },
    {
      "inputs": [
        {
          "internalType": "contract IbcReceiver",
          "name": "receiver",
          "type": "address"
        },
        {
          "components": [
            {
              "components": [
                {
                  "internalType": "string",
                  "name": "portId",
                  "type": "string"
                },
                {
                  "internalType": "bytes32",
                  "name": "channelId",
                  "type": "bytes32"
                }
              ],
              "internalType": "struct IbcEndpoint",
              "name": "src",
              "type": "tuple"
            },
            {
              "components": [
                {
                  "internalType": "string",
                  "name": "portId",
                  "type": "string"
                },
                {
                  "internalType": "bytes32",
                  "name": "channelId",
                  "type": "bytes32"
                }
              ],
              "internalType": "struct IbcEndpoint",
              "name": "dest",
              "type": "tuple"
            },
            {
              "internalType": "uint64",
              "name": "sequence",
              "type": "uint64"
            },
            {
              "internalType": "bytes",
              "name": "data",
              "type": "bytes"
            },
            {
              "components": [
                {
                  "internalType": "uint64",
                  "name": "block",
                  "type": "uint64"
                },
                {
                  "internalType": "uint64",
                  "name": "timestamp",
                  "type": "uint64"
                }
              ],
              "internalType": "struct IbcTimeout",
              "name": "timeout",
              "type": "tuple"
            }
          ],
          "internalType": "struct IbcPacket",
          "name": "packet",
          "type": "tuple"
        },
        {
          "internalType": "bytes",
          "name": "acknowledgement",
          "type": "bytes"
        },
        {
          "components": [
            {
              "internalType": "uint64",
              "name": "proofHeight",
              "type": "uint64"
            },
            {
              "internalType": "bytes",
              "name": "proof",
              "type": "bytes"
            }
          ],
          "internalType": "struct Proof",
          "name": "proof",
          "type": "tuple"
        }
      ],
      "name": "onAcknowledgementPacket",
      "outputs": [],
      "stateMutability": "nonpayable",
      "type": "function"
    },
    {
      "inputs": [
        {
          "internalType": "contract IbcReceiver",
          "name": "receiver",
          "type": "address"
        },
        {
          "components": [
            {
              "components": [
                {
                  "internalType": "string",
                  "name": "portId",
                  "type": "string"
                },
                {
                  "internalType": "bytes32",
                  "name": "channelId",
                  "type": "bytes32"
                }
              ],
              "internalType": "struct IbcEndpoint",
              "name": "src",
              "type": "tuple"
            },
            {
              "components": [
                {
                  "internalType": "string",
                  "name": "portId",
                  "type": "string"
                },
                {
                  "internalType": "bytes32",
                  "name": "channelId",
                  "type": "bytes32"
                }
              ],
              "internalType": "struct IbcEndpoint",
              "name": "dest",
              "type": "tuple"
            },
            {
              "internalType": "uint64",
              "name": "sequence",
              "type": "uint64"
            },
            {
              "internalType": "bytes",
              "name": "data",
              "type": "bytes"
            },
            {
              "components": [
                {
                  "internalType": "uint64",
                  "name": "block",
                  "type": "uint64"
                },
                {
                  "internalType": "uint64",
                  "name": "timestamp",
                  "type": "uint64"
                }
              ],
              "internalType": "struct IbcTimeout",
              "name": "timeout",
              "type": "tuple"
            }
          ],
          "internalType": "struct IbcPacket",
          "name": "packet",
          "type": "tuple"
        },
        {
          "components": [
            {
              "internalType": "uint64",
              "name": "proofHeight",
              "type": "uint64"
            },
            {
              "internalType": "bytes",
              "name": "proof",
              "type": "bytes"
            }
          ],
          "internalType": "struct Proof",
          "name": "proof",
          "type": "tuple"
        }
      ],
      "name": "onRecvPacket",
      "outputs": [],
      "stateMutability": "nonpayable",
      "type": "function"
    },
    {
      "inputs": [
        {
          "internalType": "contract IbcReceiver",
          "name": "receiver",
          "type": "address"
        },
        {
          "components": [
            {
              "components": [
                {
                  "internalType": "string",
                  "name": "portId",
                  "type": "string"
                },
                {
                  "internalType": "bytes32",
                  "name": "channelId",
                  "type": "bytes32"
                }
              ],
              "internalType": "struct IbcEndpoint",
              "name": "src",
              "type": "tuple"
            },
            {
              "components": [
                {
                  "internalType": "string",
                  "name": "portId",
                  "type": "string"
                },
                {
                  "internalType": "bytes32",
                  "name": "channelId",
                  "type": "bytes32"
                }
              ],
              "internalType": "struct IbcEndpoint",
              "name": "dest",
              "type": "tuple"
            },
            {
              "internalType": "uint64",
              "name": "sequence",
              "type": "uint64"
            },
            {
              "internalType": "bytes",
              "name": "data",
              "type": "bytes"
            },
            {
              "components": [
                {
                  "internalType": "uint64",
                  "name": "block",
                  "type": "uint64"
                },
                {
                  "internalType": "uint64",
                  "name": "timestamp",
                  "type": "uint64"
                }
              ],
              "internalType": "struct IbcTimeout",
              "name": "timeout",
              "type": "tuple"
            }
          ],
          "internalType": "struct IbcPacket",
          "name": "packet",
          "type": "tuple"
        },
        {
          "components": [
            {
              "internalType": "uint64",
              "name": "proofHeight",
              "type": "uint64"
            },
            {
              "internalType": "bytes",
              "name": "proof",
              "type": "bytes"
            }
          ],
          "internalType": "struct Proof",
          "name": "proof",
          "type": "tuple"
        }
      ],
      "name": "onTimeoutPacket",
      "outputs": [],
      "stateMutability": "nonpayable",
      "type": "function"
    },
    {
      "inputs": [
        {
          "internalType": "address",
          "name": "portAddress",
          "type": "address"
        },
        {
          "internalType": "bytes32",
          "name": "version",
          "type": "bytes32"
        },
        {
          "internalType": "enum ChannelOrder",
          "name": "ordering",
          "type": "uint8"
        },
        {
          "internalType": "string[]",
          "name": "connectionHops",
          "type": "string[]"
        },
        {
          "internalType": "bytes32",
          "name": "counterpartyChannelId",
          "type": "bytes32"
        },
        {
          "internalType": "string",
          "name": "counterpartyPortId",
          "type": "string"
        },
        {
          "internalType": "bytes32",
          "name": "counterpartyVersion",
          "type": "bytes32"
        },
        {
          "components": [
            {
              "internalType": "uint64",
              "name": "proofHeight",
              "type": "uint64"
            },
            {
              "internalType": "bytes",
              "name": "proof",
              "type": "bytes"
            }
          ],
          "internalType": "struct Proof",
          "name": "proof",
          "type": "tuple"
        }
      ],
      "name": "openIbcChannel",
      "outputs": [],
      "stateMutability": "nonpayable",
      "type": "function"
    },
    {
      "inputs": [],
      "name": "owner",
      "outputs": [
        {
          "internalType": "address",
          "name": "",
          "type": "address"
        }
      ],
      "stateMutability": "view",
      "type": "function"
    },
    {
      "inputs": [
        {
          "internalType": "address",
          "name": "",
          "type": "address"
        },
        {
          "internalType": "bytes32",
          "name": "",
          "type": "bytes32"
        }
      ],
      "name": "portChannelMap",
      "outputs": [
        {
          "internalType": "bytes32",
          "name": "version",
          "type": "bytes32"
        },
        {
          "internalType": "enum ChannelOrder",
          "name": "ordering",
          "type": "uint8"
        },
        {
          "internalType": "bytes32",
          "name": "counterpartyChannelId",
          "type": "bytes32"
        },
        {
          "internalType": "string",
          "name": "counterpartyPortId",
          "type": "string"
        },
        {
          "internalType": "bytes32",
          "name": "counterpartyVersion",
          "type": "bytes32"
        }
      ],
      "stateMutability": "view",
      "type": "function"
    },
    {
      "inputs": [],
      "name": "renounceOwnership",
      "outputs": [],
      "stateMutability": "nonpayable",
      "type": "function"
    },
    {
      "inputs": [
        {
          "internalType": "bytes32",
          "name": "channelId",
          "type": "bytes32"
        },
        {
          "internalType": "bytes",
          "name": "packet",
          "type": "bytes"
        },
        {
          "internalType": "uint64",
          "name": "timeoutTimestamp",
          "type": "uint64"
        }
      ],
      "name": "sendPacket",
      "outputs": [],
      "stateMutability": "nonpayable",
      "type": "function"
    },
    {
      "inputs": [
        {
          "internalType": "address",
          "name": "newOwner",
          "type": "address"
        }
      ],
      "name": "transferOwnership",
      "outputs": [],
      "stateMutability": "nonpayable",
      "type": "function"
    },
    {
      "inputs": [
        {
          "internalType": "bytes",
          "name": "consensusState",
          "type": "bytes"
        }
      ],
      "name": "updateClient",
      "outputs": [],
      "stateMutability": "nonpayable",
      "type": "function"
    }
  ],
  "bytecode": "0x60806040526000600360006101000a81548167ffffffffffffffff021916908367ffffffffffffffff1602179055503480156200003b57600080fd5b50604051620036b8380380620036b883398181016040528101906200006191906200021a565b6200008162000075620000e460201b60201c565b620000ec60201b60201c565b80600160006101000a81548173ffffffffffffffffffffffffffffffffffffffff021916908373ffffffffffffffffffffffffffffffffffffffff1602179055506000600160146101000a81548160ff021916908315150217905550506200024c565b600033905090565b60008060009054906101000a900473ffffffffffffffffffffffffffffffffffffffff169050816000806101000a81548173ffffffffffffffffffffffffffffffffffffffff021916908373ffffffffffffffffffffffffffffffffffffffff1602179055508173ffffffffffffffffffffffffffffffffffffffff168173ffffffffffffffffffffffffffffffffffffffff167f8be0079c531659141344cd1fd0a4f28419497f9722a3daafe3b4186f6b6457e060405160405180910390a35050565b600080fd5b600073ffffffffffffffffffffffffffffffffffffffff82169050919050565b6000620001e282620001b5565b9050919050565b620001f481620001d5565b81146200020057600080fd5b50565b6000815190506200021481620001e9565b92915050565b600060208284031215620002335762000232620001b0565b5b6000620002438482850162000203565b91505092915050565b61345c806200025c6000396000f3fe608060405234801561001057600080fd5b50600436106100ea5760003560e01c8063b2b1bf031161008c578063d2e9aa5611610066578063d2e9aa5614610211578063e6815c121461022d578063f2fde38b14610249578063fb026d2014610265576100ea565b8063b2b1bf03146101a3578063c2a2514d146101d7578063c3e1155c146101f5576100ea565b80633e24aaf3116100c85780633e24aaf31461014357806364260a601461015f578063715018a61461017b5780638da5cb5b14610185576100ea565b80630ad8d666146100ef5780630bece3561461010b57806328f2c4c014610127575b600080fd5b61010960048036038101906101049190611836565b610281565b005b61012560048036038101906101209190611926565b610393565b005b610141600480360381019061013c9190611aa6565b6104e7565b005b61015d60048036038101906101589190611bb9565b610910565b005b61017960048036038101906101749190611836565b61099a565b005b610183610a52565b005b61018d610a66565b60405161019a9190611c49565b60405180910390f35b6101bd60048036038101906101b89190611c64565b610a8f565b6040516101ce959493929190611dc3565b60405180910390f35b6101df610b67565b6040516101ec9190611e72565b60405180910390f35b61020f600480360381019061020a9190611ed4565b610bf5565b005b61022b60048036038101906102269190611f48565b610c4e565b005b61024760048036038101906102429190612008565b610d08565b005b610263600480360381019061025e9190612055565b610d5c565b005b61027f600480360381019061027a9190612082565b610de0565b005b61028a816111b3565b6102c9576040517f08c379a00000000000000000000000000000000000000000000000000000000081526004016102c090612165565b60405180910390fd5b8180602001906102d99190612194565b602001358280600001906102ed9190612194565b602001357f080631928e492258b6a102fc2ab3e0a8dfcb747ab0885c25f9cb7a8d486210368480600001906103229190612194565b806000019061033191906121bc565b8680602001906103419190612194565b806000019061035091906121bc565b888060600190610360919061221f565b8a60400160208101906103739190612282565b6040516103869796959493929190612327565b60405180910390a3505050565b600160149054906101000a900460ff166103e2576040517f08c379a00000000000000000000000000000000000000000000000000000000081526004016103d9906123d3565b60405180910390fd5b600160009054906101000a900473ffffffffffffffffffffffffffffffffffffffff1673ffffffffffffffffffffffffffffffffffffffff1663e1ec100c600284846040518463ffffffff1660e01b8152600401610442939291906124e9565b60206040518083038186803b15801561045a57600080fd5b505afa15801561046e573d6000803e3d6000fd5b505050506040513d601f19601f82011682018060405250810190610492919061255a565b6104d1576040517f08c379a00000000000000000000000000000000000000000000000000000000081526004016104c8906125f9565b60405180910390fd5b8181600291906104e2929190611582565b505050565b600160009054906101000a900473ffffffffffffffffffffffffffffffffffffffff1673ffffffffffffffffffffffffffffffffffffffff16639511059d6002836040518060800160405280605b81526020016133cc605b91396040518463ffffffff1660e01b815260040161055f9392919061278a565b60206040518083038186803b15801561057757600080fd5b505afa15801561058b573d6000803e3d6000fd5b505050506040513d601f19601f820116820180604052508101906105af919061255a565b6105ee576040517f08c379a00000000000000000000000000000000000000000000000000000000081526004016105e590612835565b60405180910390fd5b60008a905060006106916040518060400160405280600881526020017f6368616e6e656c2d00000000000000000000000000000000000000000000000081525061068c6003600081819054906101000a900467ffffffffffffffff168092919061065790612884565b91906101000a81548167ffffffffffffffff021916908367ffffffffffffffff16021790555067ffffffffffffffff166111e1565b6112b9565b61069a906128e7565b905060008273ffffffffffffffffffffffffffffffffffffffff1663da972ca6838e8e8e8e8e8e8e8e6040518a63ffffffff1660e01b81526004016106e799989796959493929190612aa3565b602060405180830381600087803b15801561070157600080fd5b505af1158015610715573d6000803e3d6000fd5b505050506040513d601f19601f820116820180604052508101906107399190612b39565b90506040518060c001604052808281526020018c600181111561075f5761075e611cb3565b5b81526020018b8b906107719190612d3a565b815260200189815260200188888080601f016020809104026020016040519081016040528093929190818152602001838380828437600081840152601f19601f82011690508083019250505050505050815260200186815250600460008f73ffffffffffffffffffffffffffffffffffffffff1673ffffffffffffffffffffffffffffffffffffffff16815260200190815260200160002060008481526020019081526020016000206000820151816000015560208201518160010160006101000a81548160ff0219169083600181111561084f5761084e611cb3565b5b02179055506040820151816002019080519060200190610870929190611608565b50606082015181600301556080820151816004019080519060200190610897929190611668565b5060a0820151816005015590505087828e73ffffffffffffffffffffffffffffffffffffffff167f3a062c69da5f8c9a2e92280798c3c02f22a85b94ab35c8d54dc32b03252ae68b848f8f8f8e8e8e6040516108f99796959493929190612d4f565b60405180910390a450505050505050505050505050565b6109186112e5565b600160149054906101000a900460ff1615610968576040517f08c379a000000000000000000000000000000000000000000000000000000000815260040161095f90612e00565b60405180910390fd5b60018060146101000a81548160ff021916908315150217905550818160029190610993929190611582565b5050505050565b6109a3816111b3565b6109e2576040517f08c379a00000000000000000000000000000000000000000000000000000000081526004016109d990612165565b60405180910390fd5b8273ffffffffffffffffffffffffffffffffffffffff1663b33c2577836040518263ffffffff1660e01b8152600401610a1b9190612fb5565b600060405180830381600087803b158015610a3557600080fd5b505af1158015610a49573d6000803e3d6000fd5b50505050505050565b610a5a6112e5565b610a646000611363565b565b60008060009054906101000a900473ffffffffffffffffffffffffffffffffffffffff16905090565b6004602052816000526040600020602052806000526040600020600091509150508060000154908060010160009054906101000a900460ff1690806003015490806004018054610ade90612422565b80601f0160208091040260200160405190810160405280929190818152602001828054610b0a90612422565b8015610b575780601f10610b2c57610100808354040283529160200191610b57565b820191906000526020600020905b815481529060010190602001808311610b3a57829003601f168201915b5050505050908060050154905085565b60028054610b7490612422565b80601f0160208091040260200160405190810160405280929190818152602001828054610ba090612422565b8015610bed5780601f10610bc257610100808354040283529160200191610bed565b820191906000526020600020905b815481529060010190602001808311610bd057829003601f168201915b505050505081565b833373ffffffffffffffffffffffffffffffffffffffff167fe5f4762afde15256ce24aa385b449d27b7d2776921f3c673f8162ddb5b7a2f16858585604051610c4093929190612fd7565b60405180910390a350505050565b610c57816111b3565b610c96576040517f08c379a0000000000000000000000000000000000000000000000000000000008152600401610c8d90612165565b60405180910390fd5b8473ffffffffffffffffffffffffffffffffffffffff1663f45cf5e4856040518263ffffffff1660e01b8152600401610ccf9190612fb5565b600060405180830381600087803b158015610ce957600080fd5b505af1158015610cfd573d6000803e3d6000fd5b505050505050505050565b3373ffffffffffffffffffffffffffffffffffffffff167f18280cf62c6d3f3519d7cff5c5b7e91021dd17a0278ba5668976d82bdc9faa9e8383604051610d50929190613009565b60405180910390a25050565b610d646112e5565b600073ffffffffffffffffffffffffffffffffffffffff168173ffffffffffffffffffffffffffffffffffffffff161415610dd4576040517f08c379a0000000000000000000000000000000000000000000000000000000008152600401610dcb9061309f565b60405180910390fd5b610ddd81611363565b50565b600160009054906101000a900473ffffffffffffffffffffffffffffffffffffffff1673ffffffffffffffffffffffffffffffffffffffff16639511059d6002836040518060800160405280605e815260200161336e605e91396040518463ffffffff1660e01b8152600401610e589392919061278a565b60206040518083038186803b158015610e7057600080fd5b505afa158015610e84573d6000803e3d6000fd5b505050506040513d601f19601f82011682018060405250810190610ea8919061255a565b610ee7576040517f08c379a0000000000000000000000000000000000000000000000000000000008152600401610ede90612835565b60405180910390fd5b6000600460008773ffffffffffffffffffffffffffffffffffffffff1673ffffffffffffffffffffffffffffffffffffffff16815260200190815260200160002060008681526020019081526020016000206040518060c0016040529081600082015481526020016001820160009054906101000a900460ff166001811115610f7357610f72611cb3565b5b6001811115610f8557610f84611cb3565b5b815260200160028201805480602002602001604051908101604052809291908181526020016000905b8282101561105a578382906000526020600020018054610fcd90612422565b80601f0160208091040260200160405190810160405280929190818152602001828054610ff990612422565b80156110465780601f1061101b57610100808354040283529160200191611046565b820191906000526020600020905b81548152906001019060200180831161102957829003601f168201915b505050505081526020019060010190610fae565b5050505081526020016003820154815260200160048201805461107c90612422565b80601f01602080910402602001604051908101604052809291908181526020018280546110a890612422565b80156110f55780601f106110ca576101008083540402835291602001916110f5565b820191906000526020600020905b8154815290600101906020018083116110d857829003601f168201915b5050505050815260200160058201548152505090508381606001511415611151576040517f08c379a000000000000000000000000000000000000000000000000000000000815260040161114890613131565b60405180910390fd5b83858773ffffffffffffffffffffffffffffffffffffffff167f57ea540ad7b8bfd2813b8637764ba029fedc52de3f812934a46511506aa11b8e846080015185604001516040516111a392919061323b565b60405180910390a4505050505050565b6000808280602001906111c6919061221f565b905014156111d757600090506111dc565b600190505b919050565b6060600060016111f084611427565b01905060008167ffffffffffffffff81111561120f5761120e612b66565b5b6040519080825280601f01601f1916602001820160405280156112415781602001600182028036833780820191505090505b509050600082602001820190505b6001156112ae578080600190039150507f3031323334353637383961626364656600000000000000000000000000000000600a86061a8153600a858161129857611297613272565b5b04945060008514156112a9576112ae565b61124f565b819350505050919050565b606082826040516020016112ce9291906132dd565b604051602081830303815290604052905092915050565b6112ed61157a565b73ffffffffffffffffffffffffffffffffffffffff1661130b610a66565b73ffffffffffffffffffffffffffffffffffffffff1614611361576040517f08c379a00000000000000000000000000000000000000000000000000000000081526004016113589061334d565b60405180910390fd5b565b60008060009054906101000a900473ffffffffffffffffffffffffffffffffffffffff169050816000806101000a81548173ffffffffffffffffffffffffffffffffffffffff021916908373ffffffffffffffffffffffffffffffffffffffff1602179055508173ffffffffffffffffffffffffffffffffffffffff168173ffffffffffffffffffffffffffffffffffffffff167f8be0079c531659141344cd1fd0a4f28419497f9722a3daafe3b4186f6b6457e060405160405180910390a35050565b600080600090507a184f03e93ff9f4daa797ed6e38ed64bf6a1f0100000000000000008310611485577a184f03e93ff9f4daa797ed6e38ed64bf6a1f010000000000000000838161147b5761147a613272565b5b0492506040810190505b6d04ee2d6d415b85acef810000000083106114c2576d04ee2d6d415b85acef810000000083816114b8576114b7613272565b5b0492506020810190505b662386f26fc1000083106114f157662386f26fc1000083816114e7576114e6613272565b5b0492506010810190505b6305f5e100831061151a576305f5e10083816115105761150f613272565b5b0492506008810190505b612710831061153f57612710838161153557611534613272565b5b0492506004810190505b60648310611562576064838161155857611557613272565b5b0492506002810190505b600a8310611571576001810190505b80915050919050565b600033905090565b82805461158e90612422565b90600052602060002090601f0160209004810192826115b057600085556115f7565b82601f106115c957803560ff19168380011785556115f7565b828001600101855582156115f7579182015b828111156115f65782358255916020019190600101906115db565b5b50905061160491906116ee565b5090565b828054828255906000526020600020908101928215611657579160200282015b82811115611656578251829080519060200190611646929190611668565b5091602001919060010190611628565b5b509050611664919061170b565b5090565b82805461167490612422565b90600052602060002090601f01602090048101928261169657600085556116dd565b82601f106116af57805160ff19168380011785556116dd565b828001600101855582156116dd579182015b828111156116dc5782518255916020019190600101906116c1565b5b5090506116ea91906116ee565b5090565b5b808211156117075760008160009055506001016116ef565b5090565b5b8082111561172b5760008181611722919061172f565b5060010161170c565b5090565b50805461173b90612422565b6000825580601f1061174d575061176c565b601f01602090049060005260206000209081019061176b91906116ee565b5b50565b6000604051905090565b600080fd5b600080fd5b600073ffffffffffffffffffffffffffffffffffffffff82169050919050565b60006117ae82611783565b9050919050565b60006117c0826117a3565b9050919050565b6117d0816117b5565b81146117db57600080fd5b50565b6000813590506117ed816117c7565b92915050565b600080fd5b600060c0828403121561180e5761180d6117f3565b5b81905092915050565b60006040828403121561182d5761182c6117f3565b5b81905092915050565b60008060006060848603121561184f5761184e611779565b5b600061185d868287016117de565b935050602084013567ffffffffffffffff81111561187e5761187d61177e565b5b61188a868287016117f8565b925050604084013567ffffffffffffffff8111156118ab576118aa61177e565b5b6118b786828701611817565b9150509250925092565b600080fd5b600080fd5b600080fd5b60008083601f8401126118e6576118e56118c1565b5b8235905067ffffffffffffffff811115611903576119026118c6565b5b60208301915083600182028301111561191f5761191e6118cb565b5b9250929050565b6000806020838503121561193d5761193c611779565b5b600083013567ffffffffffffffff81111561195b5761195a61177e565b5b611967858286016118d0565b92509250509250929050565b61197c816117a3565b811461198757600080fd5b50565b60008135905061199981611973565b92915050565b6000819050919050565b6119b28161199f565b81146119bd57600080fd5b50565b6000813590506119cf816119a9565b92915050565b600281106119e257600080fd5b50565b6000813590506119f4816119d5565b92915050565b60008083601f840112611a1057611a0f6118c1565b5b8235905067ffffffffffffffff811115611a2d57611a2c6118c6565b5b602083019150836020820283011115611a4957611a486118cb565b5b9250929050565b60008083601f840112611a6657611a656118c1565b5b8235905067ffffffffffffffff811115611a8357611a826118c6565b5b602083019150836001820283011115611a9f57611a9e6118cb565b5b9250929050565b6000806000806000806000806000806101008b8d031215611aca57611ac9611779565b5b6000611ad88d828e0161198a565b9a50506020611ae98d828e016119c0565b9950506040611afa8d828e016119e5565b98505060608b013567ffffffffffffffff811115611b1b57611b1a61177e565b5b611b278d828e016119fa565b97509750506080611b3a8d828e016119c0565b95505060a08b013567ffffffffffffffff811115611b5b57611b5a61177e565b5b611b678d828e01611a50565b945094505060c0611b7a8d828e016119c0565b92505060e08b013567ffffffffffffffff811115611b9b57611b9a61177e565b5b611ba78d828e01611817565b9150509295989b9194979a5092959850565b60008060008060408587031215611bd357611bd2611779565b5b600085013567ffffffffffffffff811115611bf157611bf061177e565b5b611bfd878288016118d0565b9450945050602085013567ffffffffffffffff811115611c2057611c1f61177e565b5b611c2c878288016118d0565b925092505092959194509250565b611c43816117a3565b82525050565b6000602082019050611c5e6000830184611c3a565b92915050565b60008060408385031215611c7b57611c7a611779565b5b6000611c898582860161198a565b9250506020611c9a858286016119c0565b9150509250929050565b611cad8161199f565b82525050565b7f4e487b7100000000000000000000000000000000000000000000000000000000600052602160045260246000fd5b60028110611cf357611cf2611cb3565b5b50565b6000819050611d0482611ce2565b919050565b6000611d1482611cf6565b9050919050565b611d2481611d09565b82525050565b600081519050919050565b600082825260208201905092915050565b60005b83811015611d64578082015181840152602081019050611d49565b83811115611d73576000848401525b50505050565b6000601f19601f8301169050919050565b6000611d9582611d2a565b611d9f8185611d35565b9350611daf818560208601611d46565b611db881611d79565b840191505092915050565b600060a082019050611dd86000830188611ca4565b611de56020830187611d1b565b611df26040830186611ca4565b8181036060830152611e048185611d8a565b9050611e136080830184611ca4565b9695505050505050565b600081519050919050565b600082825260208201905092915050565b6000611e4482611e1d565b611e4e8185611e28565b9350611e5e818560208601611d46565b611e6781611d79565b840191505092915050565b60006020820190508181036000830152611e8c8184611e39565b905092915050565b600067ffffffffffffffff82169050919050565b611eb181611e94565b8114611ebc57600080fd5b50565b600081359050611ece81611ea8565b92915050565b60008060008060608587031215611eee57611eed611779565b5b6000611efc878288016119c0565b945050602085013567ffffffffffffffff811115611f1d57611f1c61177e565b5b611f29878288016118d0565b93509350506040611f3c87828801611ebf565b91505092959194509250565b600080600080600060808688031215611f6457611f63611779565b5b6000611f72888289016117de565b955050602086013567ffffffffffffffff811115611f9357611f9261177e565b5b611f9f888289016117f8565b945050604086013567ffffffffffffffff811115611fc057611fbf61177e565b5b611fcc888289016118d0565b9350935050606086013567ffffffffffffffff811115611fef57611fee61177e565b5b611ffb88828901611817565b9150509295509295909350565b6000806020838503121561201f5761201e611779565b5b600083013567ffffffffffffffff81111561203d5761203c61177e565b5b61204985828601611a50565b92509250509250929050565b60006020828403121561206b5761206a611779565b5b60006120798482850161198a565b91505092915050565b600080600080600060a0868803121561209e5761209d611779565b5b60006120ac8882890161198a565b95505060206120bd888289016119c0565b94505060406120ce888289016119c0565b93505060606120df888289016119c0565b925050608086013567ffffffffffffffff811115612100576120ff61177e565b5b61210c88828901611817565b9150509295509295909350565b7f50726f6f6620766572696669636174696f6e206661696c656400000000000000600082015250565b600061214f601983611d35565b915061215a82612119565b602082019050919050565b6000602082019050818103600083015261217e81612142565b9050919050565b600080fd5b600080fd5b600080fd5b6000823560016040038336030381126121b0576121af612185565b5b80830191505092915050565b600080833560016020038436030381126121d9576121d8612185565b5b80840192508235915067ffffffffffffffff8211156121fb576121fa61218a565b5b6020830192506001820236038313156122175761221661218f565b5b509250929050565b6000808335600160200384360303811261223c5761223b612185565b5b80840192508235915067ffffffffffffffff82111561225e5761225d61218a565b5b60208301925060018202360383131561227a5761227961218f565b5b509250929050565b60006020828403121561229857612297611779565b5b60006122a684828501611ebf565b91505092915050565b82818337600083830152505050565b60006122ca8385611d35565b93506122d78385846122af565b6122e083611d79565b840190509392505050565b60006122f78385611e28565b93506123048385846122af565b61230d83611d79565b840190509392505050565b61232181611e94565b82525050565b6000608082019050818103600083015261234281898b6122be565b905081810360208301526123578187896122be565b9050818103604083015261236c8185876122eb565b905061237b6060830184612318565b98975050505050505050565b7f436c69656e74206e6f7420637265617465640000000000000000000000000000600082015250565b60006123bd601283611d35565b91506123c882612387565b602082019050919050565b600060208201905081810360008301526123ec816123b0565b9050919050565b7f4e487b7100000000000000000000000000000000000000000000000000000000600052602260045260246000fd5b6000600282049050600182168061243a57607f821691505b6020821081141561244e5761244d6123f3565b5b50919050565b60008190508160005260206000209050919050565b6000815461247681612422565b6124808186611e28565b9450600182166000811461249b57600181146124ad576124e0565b60ff19831686526020860193506124e0565b6124b685612454565b60005b838110156124d8578154818901526001820191506020810190506124b9565b808801955050505b50505092915050565b600060408201905081810360008301526125038186612469565b905081810360208301526125188184866122eb565b9050949350505050565b60008115159050919050565b61253781612522565b811461254257600080fd5b50565b6000815190506125548161252e565b92915050565b6000602082840312156125705761256f611779565b5b600061257e84828501612545565b91505092915050565b7f436f6e73656e73757320737461746520766572696669636174696f6e2066616960008201527f6c65640000000000000000000000000000000000000000000000000000000000602082015250565b60006125e3602383611d35565b91506125ee82612587565b604082019050919050565b60006020820190508181036000830152612612816125d6565b9050919050565b60006126286020840184611ebf565b905092915050565b61263981611e94565b82525050565b600080fd5b600080fd5b600080fd5b6000808335600160200384360303811261266b5761266a612649565b5b83810192508235915060208301925067ffffffffffffffff8211156126935761269261263f565b5b6001820236038413156126a9576126a8612644565b5b509250929050565b600082825260208201905092915050565b60006126ce83856126b1565b93506126db8385846122af565b6126e483611d79565b840190509392505050565b6000604083016127026000840184612619565b61270f6000860182612630565b5061271d602084018461264e565b85830360208701526127308382846126c2565b925050508091505092915050565b7f6368616e6e656c2f706174682f746f2f62652f61646465642f68657265000000600082015250565b6000612774601d83611e28565b915061277f8261273e565b602082019050919050565b600060808201905081810360008301526127a48186612469565b905081810360208301526127b881856126ef565b905081810360408301526127cb81612767565b905081810360608301526127df8184611e39565b9050949350505050565b7f4661696c20746f2070726f7665206368616e6e656c2073746174650000000000600082015250565b600061281f601b83611d35565b915061282a826127e9565b602082019050919050565b6000602082019050818103600083015261284e81612812565b9050919050565b7f4e487b7100000000000000000000000000000000000000000000000000000000600052601160045260246000fd5b600061288f82611e94565b915067ffffffffffffffff8214156128aa576128a9612855565b5b600182019050919050565b6000819050602082019050919050565b60006128d1825161199f565b80915050919050565b600082821b905092915050565b60006128f282611e1d565b826128fc846128b5565b9050612907816128c5565b92506020821015612947576129427fffffffffffffffffffffffffffffffffffffffffffffffffffffffffffffffff836020036008026128da565b831692505b5050919050565b600082825260208201905092915050565b6000819050919050565b600082825260208201905092915050565b60006129868385612969565b93506129938385846122af565b61299c83611d79565b840190509392505050565b60006129b484848461297a565b90509392505050565b600080833560016020038436030381126129da576129d9612649565b5b83810192508235915060208301925067ffffffffffffffff821115612a0257612a0161263f565b5b600182023603841315612a1857612a17612644565b5b509250929050565b6000602082019050919050565b6000612a39838561294e565b935083602084028501612a4b8461295f565b8060005b87811015612a91578484038952612a6682846129bd565b612a718682846129a7565b9550612a7c84612a20565b935060208b019a505050600181019050612a4f565b50829750879450505050509392505050565b600060e082019050612ab8600083018c611ca4565b612ac5602083018b611ca4565b612ad2604083018a611d1b565b8181036060830152612ae581888a612a2d565b9050612af46080830187611ca4565b81810360a0830152612b078185876122be565b9050612b1660c0830184611ca4565b9a9950505050505050505050565b600081519050612b33816119a9565b92915050565b600060208284031215612b4f57612b4e611779565b5b6000612b5d84828501612b24565b91505092915050565b7f4e487b7100000000000000000000000000000000000000000000000000000000600052604160045260246000fd5b612b9e82611d79565b810181811067ffffffffffffffff82111715612bbd57612bbc612b66565b5b80604052505050565b6000612bd061176f565b9050612bdc8282612b95565b919050565b600067ffffffffffffffff821115612bfc57612bfb612b66565b5b602082029050602081019050919050565b600080fd5b600067ffffffffffffffff821115612c2d57612c2c612b66565b5b612c3682611d79565b9050602081019050919050565b6000612c56612c5184612c12565b612bc6565b905082815260208101848484011115612c7257612c71612c0d565b5b612c7d8482856122af565b509392505050565b600082601f830112612c9a57612c996118c1565b5b8135612caa848260208601612c43565b91505092915050565b6000612cc6612cc184612be1565b612bc6565b90508083825260208201905060208402830185811115612ce957612ce86118cb565b5b835b81811015612d3057803567ffffffffffffffff811115612d0e57612d0d6118c1565b5b808601612d1b8982612c85565b85526020850194505050602081019050612ceb565b5050509392505050565b6000612d47368484612cb3565b905092915050565b600060a082019050612d64600083018a611ca4565b612d716020830189611d1b565b8181036040830152612d84818789612a2d565b90508181036060830152612d998185876122be565b9050612da86080830184611ca4565b98975050505050505050565b7f436c69656e7420616c7265616479206372656174656400000000000000000000600082015250565b6000612dea601683611d35565b9150612df582612db4565b602082019050919050565b60006020820190508181036000830152612e1981612ddd565b9050919050565b600082356001604003833603038112612e3c57612e3b612649565b5b82810191505092915050565b6000612e5760208401846119c0565b905092915050565b612e688161199f565b82525050565b600060408301612e8160008401846129bd565b8583036000870152612e9483828461297a565b92505050612ea56020840184612e48565b612eb26020860182612e5f565b508091505092915050565b600082905092915050565b60408201612ed96000830183612619565b612ee66000850182612630565b50612ef46020830183612619565b612f016020850182612630565b50505050565b600060c08301612f1a6000840184612e20565b8482036000860152612f2c8282612e6e565b915050612f3c6020840184612e20565b8482036020860152612f4e8282612e6e565b915050612f5e6040840184612619565b612f6b6040860182612630565b50612f79606084018461264e565b8583036060870152612f8c8382846126c2565b92505050612f9d6080840184612ebd565b612faa6080860182612ec8565b508091505092915050565b60006020820190508181036000830152612fcf8184612f07565b905092915050565b60006040820190508181036000830152612ff28185876122eb565b90506130016020830184612318565b949350505050565b600060208201905081810360008301526130248184866122be565b90509392505050565b7f4f776e61626c653a206e6577206f776e657220697320746865207a65726f206160008201527f6464726573730000000000000000000000000000000000000000000000000000602082015250565b6000613089602683611d35565b91506130948261302d565b604082019050919050565b600060208201905081810360008301526130b88161307c565b9050919050565b7f4368616e6e656c206e6f742061737369676e656420746f20706f72744164647260008201527f6573730000000000000000000000000000000000000000000000000000000000602082015250565b600061311b602383611d35565b9150613126826130bf565b604082019050919050565b6000602082019050818103600083015261314a8161310e565b9050919050565b600081519050919050565b6000819050602082019050919050565b600061317782611d2a565b6131818185612969565b9350613191818560208601611d46565b61319a81611d79565b840191505092915050565b60006131b1838361316c565b905092915050565b6000602082019050919050565b60006131d182613151565b6131db818561294e565b9350836020820285016131ed8561315c565b8060005b85811015613229578484038952815161320a85826131a5565b9450613215836131b9565b925060208a019950506001810190506131f1565b50829750879550505050505092915050565b600060408201905081810360008301526132558185611d8a565b9050818103602083015261326981846131c6565b90509392505050565b7f4e487b7100000000000000000000000000000000000000000000000000000000600052601260045260246000fd5b600081905092915050565b60006132b782611d2a565b6132c181856132a1565b93506132d1818560208601611d46565b80840191505092915050565b60006132e982856132ac565b91506132f582846132ac565b91508190509392505050565b7f4f776e61626c653a2063616c6c6572206973206e6f7420746865206f776e6572600082015250565b6000613337602083611d35565b915061334282613301565b602082019050919050565b600060208201905081810360008301526133668161332a565b905091905056fe6578706563746564206368616e6e656c20627974657320636f6e73747275637465642066726f6d20706172616d732e204368616e6e656c2e5374617465203d207b41636b5f50656e64696e672c20436f6e6669726d5f50656e64696e677d6578706563746564206368616e6e656c20627974657320636f6e73747275637465642066726f6d20706172616d732e204368616e6e656c2e5374617465203d207b496e69745f50656e64696e672c205472795f50656e64696e677da2646970667358221220d36ee3ad7d38f917379447b6f787a145a435104bd5d813e4392bf8d512350aaa64736f6c63430008090033",
  "linkReferences": {},
  "deployedLinkReferences": {}
}