{"contracts/Dispatcher.sol":{"Dispatcher":{"abi":[{"inputs":[{"internalType":"address","name":"_verifier","type":"address"}],"stateMutability":"nonpayable","type":"constructor"},{"anonymous":false,"inputs":[{"indexed":false,"internalType":"string","name":"channelId","type":"string"},{"indexed":true,"internalType":"address","name":"portId","type":"address"}],"name":"CloseIbcChannel","type":"event"},{"anonymous":false,"inputs":[{"indexed":false,"internalType":"string","name":"channelId","type":"string"},{"indexed":true,"internalType":"address","name":"portId","type":"address"},{"indexed":false,"internalType":"string","name":"counterPartyChannelId","type":"string"},{"indexed":false,"internalType":"string","name":"counterPartyPortId","type":"string"},{"indexed":false,"internalType":"string","name":"counterPartyVersion","type":"string"}],"name":"ConnectIbcChannel","type":"event"},{"anonymous":false,"inputs":[{"indexed":true,"internalType":"bytes32","name":"srcChannelId","type":"bytes32"},{"indexed":false,"internalType":"string","name":"srcPortId","type":"string"},{"indexed":true,"internalType":"bytes32","name":"destChannelId","type":"bytes32"},{"indexed":false,"internalType":"string","name":"destPortId","type":"string"},{"indexed":false,"internalType":"bytes","name":"data","type":"bytes"},{"indexed":false,"internalType":"uint64","name":"sequence","type":"uint64"}],"name":"OnRecvPacket","type":"event"},{"anonymous":false,"inputs":[{"indexed":false,"internalType":"string","name":"connectionId","type":"string"},{"indexed":true,"internalType":"address","name":"connectionPortId","type":"address"},{"indexed":false,"internalType":"string","name":"counterPartyConnectionId","type":"string"},{"indexed":false,"internalType":"string","name":"counterPartyPortId","type":"string"},{"indexed":false,"internalType":"string","name":"version","type":"string"}],"name":"OpenIbcChannel","type":"event"},{"anonymous":false,"inputs":[{"indexed":true,"internalType":"address","name":"previousOwner","type":"address"},{"indexed":true,"internalType":"address","name":"newOwner","type":"address"}],"name":"OwnershipTransferred","type":"event"},{"anonymous":false,"inputs":[{"indexed":true,"internalType":"address","name":"portId","type":"address"},{"indexed":true,"internalType":"bytes32","name":"channelId","type":"bytes32"},{"indexed":false,"internalType":"bytes","name":"packet","type":"bytes"},{"indexed":false,"internalType":"uint64","name":"timeoutBlockTimestamp","type":"uint64"}],"name":"SendIbcPacket","type":"event"},{"inputs":[{"internalType":"string","name":"","type":"string"}],"name":"clients","outputs":[{"internalType":"bytes","name":"clientState","type":"bytes"},{"internalType":"bytes","name":"consensusState","type":"bytes"}],"stateMutability":"view","type":"function"},{"inputs":[{"internalType":"string","name":"channelId","type":"string"}],"name":"closeIbcChannel","outputs":[],"stateMutability":"nonpayable","type":"function"},{"inputs":[{"internalType":"string","name":"channelId","type":"string"},{"internalType":"string","name":"counterPartyChannelId","type":"string"},{"internalType":"string","name":"counterPartyPortId","type":"string"},{"internalType":"string","name":"counterPartyVersion","type":"string"}],"name":"connectIbcChannel","outputs":[],"stateMutability":"nonpayable","type":"function"},{"inputs":[{"internalType":"string","name":"clientId","type":"string"},{"internalType":"bytes","name":"clientState","type":"bytes"},{"internalType":"bytes","name":"consensusState","type":"bytes"}],"name":"createClient","outputs":[],"stateMutability":"nonpayable","type":"function"},{"inputs":[{"internalType":"contract IbcReceiver","name":"receiver","type":"address"},{"components":[{"components":[{"internalType":"string","name":"portId","type":"string"},{"internalType":"bytes32","name":"channelId","type":"bytes32"}],"internalType":"struct IbcEndpoint","name":"src","type":"tuple"},{"components":[{"internalType":"string","name":"portId","type":"string"},{"internalType":"bytes32","name":"channelId","type":"bytes32"}],"internalType":"struct IbcEndpoint","name":"dest","type":"tuple"},{"internalType":"uint64","name":"sequence","type":"uint64"},{"internalType":"bytes","name":"data","type":"bytes"},{"components":[{"internalType":"uint64","name":"block","type":"uint64"},{"internalType":"uint64","name":"timestamp","type":"uint64"}],"internalType":"struct IbcTimeout","name":"timeout","type":"tuple"}],"internalType":"struct IbcPacket","name":"packet","type":"tuple"},{"internalType":"bytes","name":"acknowledgement","type":"bytes"},{"components":[{"internalType":"bytes","name":"keyPath","type":"bytes"},{"internalType":"bytes","name":"value","type":"bytes"},{"internalType":"bytes","name":"proof","type":"bytes"}],"internalType":"struct Proof","name":"proof","type":"tuple"}],"name":"onAcknowledgementPacket","outputs":[],"stateMutability":"nonpayable","type":"function"},{"inputs":[{"internalType":"contract IbcReceiver","name":"receiver","type":"address"},{"internalType":"string","name":"channelId","type":"string"},{"components":[{"internalType":"bytes","name":"keyPath","type":"bytes"},{"internalType":"bytes","name":"value","type":"bytes"},{"internalType":"bytes","name":"proof","type":"bytes"}],"internalType":"struct Proof","name":"proof","type":"tuple"},{"internalType":"string","name":"error","type":"string"}],"name":"onCloseIbcChannel","outputs":[],"stateMutability":"nonpayable","type":"function"},{"inputs":[{"internalType":"contract IbcReceiver","name":"receiver","type":"address"},{"internalType":"string","name":"channelId","type":"string"},{"components":[{"internalType":"bytes","name":"keyPath","type":"bytes"},{"internalType":"bytes","name":"value","type":"bytes"},{"internalType":"bytes","name":"proof","type":"bytes"}],"internalType":"struct Proof","name":"proof","type":"tuple"},{"internalType":"string","name":"error","type":"string"}],"name":"onConnectIbcChannel","outputs":[],"stateMutability":"nonpayable","type":"function"},{"inputs":[{"internalType":"contract IbcReceiver","name":"receiver","type":"address"},{"internalType":"string","name":"channelId","type":"string"},{"internalType":"string","name":"version","type":"string"},{"components":[{"internalType":"bytes","name":"keyPath","type":"bytes"},{"internalType":"bytes","name":"value","type":"bytes"},{"internalType":"bytes","name":"proof","type":"bytes"}],"internalType":"struct Proof","name":"proof","type":"tuple"},{"internalType":"string","name":"error","type":"string"}],"name":"onOpenIbcChannel","outputs":[],"stateMutability":"nonpayable","type":"function"},{"inputs":[{"internalType":"contract IbcReceiver","name":"receiver","type":"address"},{"components":[{"components":[{"internalType":"string","name":"portId","type":"string"},{"internalType":"bytes32","name":"channelId","type":"bytes32"}],"internalType":"struct IbcEndpoint","name":"src","type":"tuple"},{"components":[{"internalType":"string","name":"portId","type":"string"},{"internalType":"bytes32","name":"channelId","type":"bytes32"}],"internalType":"struct IbcEndpoint","name":"dest","type":"tuple"},{"internalType":"uint64","name":"sequence","type":"uint64"},{"internalType":"bytes","name":"data","type":"bytes"},{"components":[{"internalType":"uint64","name":"block","type":"uint64"},{"internalType":"uint64","name":"timestamp","type":"uint64"}],"internalType":"struct IbcTimeout","name":"timeout","type":"tuple"}],"internalType":"struct IbcPacket","name":"packet","type":"tuple"},{"components":[{"internalType":"bytes","name":"keyPath","type":"bytes"},{"internalType":"bytes","name":"value","type":"bytes"},{"internalType":"bytes","name":"proof","type":"bytes"}],"internalType":"struct Proof","name":"proof","type":"tuple"}],"name":"onRecvPacket","outputs":[],"stateMutability":"nonpayable","type":"function"},{"inputs":[{"internalType":"contract IbcReceiver","name":"receiver","type":"address"},{"components":[{"components":[{"internalType":"string","name":"portId","type":"string"},{"internalType":"bytes32","name":"channelId","type":"bytes32"}],"internalType":"struct IbcEndpoint","name":"src","type":"tuple"},{"components":[{"internalType":"string","name":"portId","type":"string"},{"internalType":"bytes32","name":"channelId","type":"bytes32"}],"internalType":"struct IbcEndpoint","name":"dest","type":"tuple"},{"internalType":"uint64","name":"sequence","type":"uint64"},{"internalType":"bytes","name":"data","type":"bytes"},{"components":[{"internalType":"uint64","name":"block","type":"uint64"},{"internalType":"uint64","name":"timestamp","type":"uint64"}],"internalType":"struct IbcTimeout","name":"timeout","type":"tuple"}],"internalType":"struct IbcPacket","name":"packet","type":"tuple"},{"components":[{"internalType":"bytes","name":"keyPath","type":"bytes"},{"internalType":"bytes","name":"value","type":"bytes"},{"internalType":"bytes","name":"proof","type":"bytes"}],"internalType":"struct Proof","name":"proof","type":"tuple"}],"name":"onTimeoutPacket","outputs":[],"stateMutability":"nonpayable","type":"function"},{"inputs":[{"internalType":"string","name":"connectionId","type":"string"},{"internalType":"string","name":"counterPartyConnectionId","type":"string"},{"internalType":"string","name":"counterPartyPortId","type":"string"},{"internalType":"enum IbcOrder","name":"order","type":"uint8"},{"internalType":"string","name":"version","type":"string"}],"name":"openIbcChannel","outputs":[],"stateMutability":"nonpayable","type":"function"},{"inputs":[],"name":"owner","outputs":[{"internalType":"address","name":"","type":"address"}],"stateMutability":"view","type":"function"},{"inputs":[],"name":"renounceOwnership","outputs":[],"stateMutability":"nonpayable","type":"function"},{"inputs":[{"internalType":"bytes32","name":"channelId","type":"bytes32"},{"internalType":"bytes","name":"packet","type":"bytes"},{"internalType":"uint64","name":"timeoutBlockTimestamp","type":"uint64"}],"name":"sendIbcPacket","outputs":[],"stateMutability":"nonpayable","type":"function"},{"inputs":[{"internalType":"address","name":"newOwner","type":"address"}],"name":"transferOwnership","outputs":[],"stateMutability":"nonpayable","type":"function"},{"inputs":[{"internalType":"string","name":"clientId","type":"string"},{"internalType":"bytes","name":"consensusState","type":"bytes"}],"name":"updateClient","outputs":[],"stateMutability":"nonpayable","type":"function"},{"inputs":[],"name":"verifier","outputs":[{"internalType":"contract ZKMintVerifier","name":"","type":"address"}],"stateMutability":"view","type":"function"}],"evm":{"bytecode":{"linkReferences":{},"object":"60806040523480156200001157600080fd5b50604051620029ea380380620029ea8339818101604052810190620000379190620001d5565b620000576200004b6200009f60201b60201c565b620000a760201b60201c565b80600160006101000a81548173ffffffffffffffffffffffffffffffffffffffff021916908373ffffffffffffffffffffffffffffffffffffffff1602179055505062000207565b600033905090565b60008060009054906101000a900473ffffffffffffffffffffffffffffffffffffffff169050816000806101000a81548173ffffffffffffffffffffffffffffffffffffffff021916908373ffffffffffffffffffffffffffffffffffffffff1602179055508173ffffffffffffffffffffffffffffffffffffffff168173ffffffffffffffffffffffffffffffffffffffff167f8be0079c531659141344cd1fd0a4f28419497f9722a3daafe3b4186f6b6457e060405160405180910390a35050565b600080fd5b600073ffffffffffffffffffffffffffffffffffffffff82169050919050565b60006200019d8262000170565b9050919050565b620001af8162000190565b8114620001bb57600080fd5b50565b600081519050620001cf81620001a4565b92915050565b600060208284031215620001ee57620001ed6200016b565b5b6000620001fe84828501620001be565b91505092915050565b6127d380620002176000396000f3fe608060405234801561001057600080fd5b506004361061010b5760003560e01c8063715018a6116100a2578063c51289b511610071578063c51289b514610267578063ca1288ed14610283578063dc4431001461029f578063e6815c12146102bb578063f2fde38b146102d75761010b565b8063715018a6146102075780638b116848146102115780638da5cb5b1461022d578063a878e1ba1461024b5761010b565b806329393014116100de57806329393014146101955780632b7ac3f3146101b15780636fbf8079146101cf57806370c5dd53146101eb5761010b565b806303941ec51461011057806320ba1e9f1461012c578063260012e81461015d5780632629636b14610179575b600080fd5b61012a60048036038101906101259190611246565b6102f3565b005b61014660048036038101906101419190611447565b6103ad565b604051610154929190611518565b60405180910390f35b6101776004803603810190610172919061154f565b6104f7565b005b610193600480360381019061018e9190611630565b610609565b005b6101af60048036038101906101aa9190611709565b61077d565b005b6101b96107e4565b6040516101c69190611864565b60405180910390f35b6101e960048036038101906101e4919061187f565b61080a565b005b61020560048036038101906102009190611900565b6109a4565b005b61020f610a65565b005b61022b60048036038101906102269190611900565b610a79565b005b610235610b3a565b60405161024291906119d2565b60405180910390f35b610265600480360381019061026091906119ed565b610b63565b005b610281600480360381019061027c9190611b5b565b610c2a565b005b61029d60048036038101906102989190611bcf565b610c83565b005b6102b960048036038101906102b4919061154f565b610ce9565b005b6102d560048036038101906102d09190611cb8565b610da1565b005b6102f160048036038101906102ec9190611d31565b610df5565b005b6102fc81610e79565b61033b576040517f08c379a000000000000000000000000000000000000000000000000000000000815260040161033290611dbb565b60405180910390fd5b8473ffffffffffffffffffffffffffffffffffffffff1663f45cf5e4856040518263ffffffff1660e01b815260040161037491906120e7565b600060405180830381600087803b15801561038e57600080fd5b505af11580156103a2573d6000803e3d6000fd5b505050505050505050565b6002818051602081018201805184825260208301602085012081835280955050505050506000915090508060000180546103e690612138565b80601f016020809104026020016040519081016040528092919081815260200182805461041290612138565b801561045f5780601f106104345761010080835404028352916020019161045f565b820191906000526020600020905b81548152906001019060200180831161044257829003601f168201915b50505050509080600101805461047490612138565b80601f01602080910402602001604051908101604052809291908181526020018280546104a090612138565b80156104ed5780601f106104c2576101008083540402835291602001916104ed565b820191906000526020600020905b8154815290600101906020018083116104d057829003601f168201915b5050505050905082565b61050081610e79565b61053f576040517f08c379a000000000000000000000000000000000000000000000000000000000815260040161053690611dbb565b60405180910390fd5b81806020019061054f9190612179565b602001358280600001906105639190612179565b602001357f080631928e492258b6a102fc2ab3e0a8dfcb747ab0885c25f9cb7a8d486210368480600001906105989190612179565b80600001906105a791906121a1565b8680602001906105b79190612179565b80600001906105c691906121a1565b8880606001906105d69190612204565b8a60400160208101906105e99190612267565b6040516105fc97969594939291906122fd565b60405180910390a3505050565b60006002878760405161061d92919061238d565b9081526020016040518091039020600001805461063990612138565b90501461067b576040517f08c379a000000000000000000000000000000000000000000000000000000000815260040161067290612418565b60405180910390fd5b604051806040016040528085858080601f016020809104026020016040519081016040528093929190818152602001838380828437600081840152601f19601f82011690508083019250505050505050815260200183838080601f016020809104026020016040519081016040528093929190818152602001838380828437600081840152601f19601f820116905080830192505050505050508152506002878760405161072a92919061238d565b90815260200160405180910390206000820151816000019080519060200190610754929190610ff1565b506020820151816001019080519060200190610771929190610ff1565b50905050505050505050565b3373ffffffffffffffffffffffffffffffffffffffff167f9ce02b1b641bb5e30c72716c9c859589507ea98e427becc1da24ef96341cfdc78a8a8a8a8a8a89896040516107d1989796959493929190612438565b60405180910390a2505050505050505050565b600160009054906101000a900473ffffffffffffffffffffffffffffffffffffffff1681565b60006002858560405161081e92919061238d565b9081526020016040518091039020600001805461083a90612138565b9050141561087d576040517f08c379a000000000000000000000000000000000000000000000000000000000815260040161087490612513565b60405180910390fd5b600160009054906101000a900473ffffffffffffffffffffffffffffffffffffffff1673ffffffffffffffffffffffffffffffffffffffff16638e760afe83836040518363ffffffff1660e01b81526004016108da929190612533565b602060405180830381600087803b1580156108f457600080fd5b505af1158015610908573d6000803e3d6000fd5b505050506040513d601f19601f8201168201806040525081019061092c919061258f565b61096b576040517f08c379a000000000000000000000000000000000000000000000000000000000815260040161096290611dbb565b60405180910390fd5b81816002868660405161097f92919061238d565b9081526020016040518091039020600101919061099d929190611077565b5050505050565b6109ad83610e79565b6109ec576040517f08c379a00000000000000000000000000000000000000000000000000000000081526004016109e390611dbb565b60405180910390fd5b8573ffffffffffffffffffffffffffffffffffffffff16630a845081868685856040518563ffffffff1660e01b8152600401610a2b94939291906125bc565b600060405180830381600087803b158015610a4557600080fd5b505af1158015610a59573d6000803e3d6000fd5b50505050505050505050565b610a6d610ea7565b610a776000610f25565b565b610a8283610e79565b610ac1576040517f08c379a0000000000000000000000000000000000000000000000000000000008152600401610ab890611dbb565b60405180910390fd5b8573ffffffffffffffffffffffffffffffffffffffff16636afd6174868685856040518563ffffffff1660e01b8152600401610b0094939291906125bc565b600060405180830381600087803b158015610b1a57600080fd5b505af1158015610b2e573d6000803e3d6000fd5b50505050505050505050565b60008060009054906101000a900473ffffffffffffffffffffffffffffffffffffffff16905090565b610b6c83610e79565b610bab576040517f08c379a0000000000000000000000000000000000000000000000000000000008152600401610ba290611dbb565b60405180910390fd5b8773ffffffffffffffffffffffffffffffffffffffff16632719503e8888888887876040518763ffffffff1660e01b8152600401610bee969594939291906125f7565b600060405180830381600087803b158015610c0857600080fd5b505af1158015610c1c573d6000803e3d6000fd5b505050505050505050505050565b833373ffffffffffffffffffffffffffffffffffffffff167f3623db14ea518e01acc6d3cb8b5dea34b853de4b455571275bacf9225f8a28dd858585604051610c7593929190612649565b60405180910390a350505050565b3373ffffffffffffffffffffffffffffffffffffffff167fd38dbe544e1f1277b020a61acc0dd2cf9ddcf99471a49a288a3ada57f3206a738989898989898989604051610cd7989796959493929190612438565b60405180910390a25050505050505050565b610cf281610e79565b610d31576040517f08c379a0000000000000000000000000000000000000000000000000000000008152600401610d2890611dbb565b60405180910390fd5b8273ffffffffffffffffffffffffffffffffffffffff1663b33c2577836040518263ffffffff1660e01b8152600401610d6a91906120e7565b600060405180830381600087803b158015610d8457600080fd5b505af1158015610d98573d6000803e3d6000fd5b50505050505050565b3373ffffffffffffffffffffffffffffffffffffffff167f18280cf62c6d3f3519d7cff5c5b7e91021dd17a0278ba5668976d82bdc9faa9e8383604051610de992919061267b565b60405180910390a25050565b610dfd610ea7565b600073ffffffffffffffffffffffffffffffffffffffff168173ffffffffffffffffffffffffffffffffffffffff161415610e6d576040517f08c379a0000000000000000000000000000000000000000000000000000000008152600401610e6490612711565b60405180910390fd5b610e7681610f25565b50565b600080828060400190610e8c9190612204565b90501415610e9d5760009050610ea2565b600190505b919050565b610eaf610fe9565b73ffffffffffffffffffffffffffffffffffffffff16610ecd610b3a565b73ffffffffffffffffffffffffffffffffffffffff1614610f23576040517f08c379a0000000000000000000000000000000000000000000000000000000008152600401610f1a9061277d565b60405180910390fd5b565b60008060009054906101000a900473ffffffffffffffffffffffffffffffffffffffff169050816000806101000a81548173ffffffffffffffffffffffffffffffffffffffff021916908373ffffffffffffffffffffffffffffffffffffffff1602179055508173ffffffffffffffffffffffffffffffffffffffff168173ffffffffffffffffffffffffffffffffffffffff167f8be0079c531659141344cd1fd0a4f28419497f9722a3daafe3b4186f6b6457e060405160405180910390a35050565b600033905090565b828054610ffd90612138565b90600052602060002090601f01602090048101928261101f5760008555611066565b82601f1061103857805160ff1916838001178555611066565b82800160010185558215611066579182015b8281111561106557825182559160200191906001019061104a565b5b50905061107391906110fd565b5090565b82805461108390612138565b90600052602060002090601f0160209004810192826110a557600085556110ec565b82601f106110be57803560ff19168380011785556110ec565b828001600101855582156110ec579182015b828111156110eb5782358255916020019190600101906110d0565b5b5090506110f991906110fd565b5090565b5b808211156111165760008160009055506001016110fe565b5090565b6000604051905090565b600080fd5b600080fd5b600073ffffffffffffffffffffffffffffffffffffffff82169050919050565b60006111598261112e565b9050919050565b600061116b8261114e565b9050919050565b61117b81611160565b811461118657600080fd5b50565b60008135905061119881611172565b92915050565b600080fd5b600060c082840312156111b9576111b861119e565b5b81905092915050565b600080fd5b600080fd5b600080fd5b60008083601f8401126111e7576111e66111c2565b5b8235905067ffffffffffffffff811115611204576112036111c7565b5b6020830191508360018202830111156112205761121f6111cc565b5b9250929050565b60006060828403121561123d5761123c61119e565b5b81905092915050565b60008060008060006080868803121561126257611261611124565b5b600061127088828901611189565b955050602086013567ffffffffffffffff81111561129157611290611129565b5b61129d888289016111a3565b945050604086013567ffffffffffffffff8111156112be576112bd611129565b5b6112ca888289016111d1565b9350935050606086013567ffffffffffffffff8111156112ed576112ec611129565b5b6112f988828901611227565b9150509295509295909350565b600080fd5b6000601f19601f8301169050919050565b7f4e487b7100000000000000000000000000000000000000000000000000000000600052604160045260246000fd5b6113548261130b565b810181811067ffffffffffffffff821117156113735761137261131c565b5b80604052505050565b600061138661111a565b9050611392828261134b565b919050565b600067ffffffffffffffff8211156113b2576113b161131c565b5b6113bb8261130b565b9050602081019050919050565b82818337600083830152505050565b60006113ea6113e584611397565b61137c565b90508281526020810184848401111561140657611405611306565b5b6114118482856113c8565b509392505050565b600082601f83011261142e5761142d6111c2565b5b813561143e8482602086016113d7565b91505092915050565b60006020828403121561145d5761145c611124565b5b600082013567ffffffffffffffff81111561147b5761147a611129565b5b61148784828501611419565b91505092915050565b600081519050919050565b600082825260208201905092915050565b60005b838110156114ca5780820151818401526020810190506114af565b838111156114d9576000848401525b50505050565b60006114ea82611490565b6114f4818561149b565b93506115048185602086016114ac565b61150d8161130b565b840191505092915050565b6000604082019050818103600083015261153281856114df565b9050818103602083015261154681846114df565b90509392505050565b60008060006060848603121561156857611567611124565b5b600061157686828701611189565b935050602084013567ffffffffffffffff81111561159757611596611129565b5b6115a3868287016111a3565b925050604084013567ffffffffffffffff8111156115c4576115c3611129565b5b6115d086828701611227565b9150509250925092565b60008083601f8401126115f0576115ef6111c2565b5b8235905067ffffffffffffffff81111561160d5761160c6111c7565b5b602083019150836001820283011115611629576116286111cc565b5b9250929050565b6000806000806000806060878903121561164d5761164c611124565b5b600087013567ffffffffffffffff81111561166b5761166a611129565b5b61167789828a016115da565b9650965050602087013567ffffffffffffffff81111561169a57611699611129565b5b6116a689828a016111d1565b9450945050604087013567ffffffffffffffff8111156116c9576116c8611129565b5b6116d589828a016111d1565b92509250509295509295509295565b600281106116f157600080fd5b50565b600081359050611703816116e4565b92915050565b600080600080600080600080600060a08a8c03121561172b5761172a611124565b5b60008a013567ffffffffffffffff81111561174957611748611129565b5b6117558c828d016115da565b995099505060208a013567ffffffffffffffff81111561177857611777611129565b5b6117848c828d016115da565b975097505060408a013567ffffffffffffffff8111156117a7576117a6611129565b5b6117b38c828d016115da565b955095505060606117c68c828d016116f4565b93505060808a013567ffffffffffffffff8111156117e7576117e6611129565b5b6117f38c828d016115da565b92509250509295985092959850929598565b6000819050919050565b600061182a6118256118208461112e565b611805565b61112e565b9050919050565b600061183c8261180f565b9050919050565b600061184e82611831565b9050919050565b61185e81611843565b82525050565b60006020820190506118796000830184611855565b92915050565b6000806000806040858703121561189957611898611124565b5b600085013567ffffffffffffffff8111156118b7576118b6611129565b5b6118c3878288016115da565b9450945050602085013567ffffffffffffffff8111156118e6576118e5611129565b5b6118f2878288016111d1565b925092505092959194509250565b6000806000806000806080878903121561191d5761191c611124565b5b600061192b89828a01611189565b965050602087013567ffffffffffffffff81111561194c5761194b611129565b5b61195889828a016115da565b9550955050604087013567ffffffffffffffff81111561197b5761197a611129565b5b61198789828a01611227565b935050606087013567ffffffffffffffff8111156119a8576119a7611129565b5b6119b489828a016115da565b92509250509295509295509295565b6119cc8161114e565b82525050565b60006020820190506119e760008301846119c3565b92915050565b60008060008060008060008060a0898b031215611a0d57611a0c611124565b5b6000611a1b8b828c01611189565b985050602089013567ffffffffffffffff811115611a3c57611a3b611129565b5b611a488b828c016115da565b9750975050604089013567ffffffffffffffff811115611a6b57611a6a611129565b5b611a778b828c016115da565b9550955050606089013567ffffffffffffffff811115611a9a57611a99611129565b5b611aa68b828c01611227565b935050608089013567ffffffffffffffff811115611ac757611ac6611129565b5b611ad38b828c016115da565b92509250509295985092959890939650565b6000819050919050565b611af881611ae5565b8114611b0357600080fd5b50565b600081359050611b1581611aef565b92915050565b600067ffffffffffffffff82169050919050565b611b3881611b1b565b8114611b4357600080fd5b50565b600081359050611b5581611b2f565b92915050565b60008060008060608587031215611b7557611b74611124565b5b6000611b8387828801611b06565b945050602085013567ffffffffffffffff811115611ba457611ba3611129565b5b611bb0878288016111d1565b93509350506040611bc387828801611b46565b91505092959194509250565b6000806000806000806000806080898b031215611bef57611bee611124565b5b600089013567ffffffffffffffff811115611c0d57611c0c611129565b5b611c198b828c016115da565b9850985050602089013567ffffffffffffffff811115611c3c57611c3b611129565b5b611c488b828c016115da565b9650965050604089013567ffffffffffffffff811115611c6b57611c6a611129565b5b611c778b828c016115da565b9450945050606089013567ffffffffffffffff811115611c9a57611c99611129565b5b611ca68b828c016115da565b92509250509295985092959890939650565b60008060208385031215611ccf57611cce611124565b5b600083013567ffffffffffffffff811115611ced57611cec611129565b5b611cf9858286016115da565b92509250509250929050565b611d0e8161114e565b8114611d1957600080fd5b50565b600081359050611d2b81611d05565b92915050565b600060208284031215611d4757611d46611124565b5b6000611d5584828501611d1c565b91505092915050565b600082825260208201905092915050565b7f50726f6f6620766572696669636174696f6e206661696c656400000000000000600082015250565b6000611da5601983611d5e565b9150611db082611d6f565b602082019050919050565b60006020820190508181036000830152611dd481611d98565b9050919050565b600080fd5b600082356001604003833603038112611dfc57611dfb611ddb565b5b82810191505092915050565b600080fd5b600080fd5b60008083356001602003843603038112611e2f57611e2e611ddb565b5b83810192508235915060208301925067ffffffffffffffff821115611e5757611e56611e08565b5b600182023603841315611e6d57611e6c611e0d565b5b509250929050565b600082825260208201905092915050565b6000611e928385611e75565b9350611e9f8385846113c8565b611ea88361130b565b840190509392505050565b6000611ec26020840184611b06565b905092915050565b611ed381611ae5565b82525050565b600060408301611eec6000840184611e12565b8583036000870152611eff838284611e86565b92505050611f106020840184611eb3565b611f1d6020860182611eca565b508091505092915050565b6000611f376020840184611b46565b905092915050565b611f4881611b1b565b82525050565b60008083356001602003843603038112611f6b57611f6a611ddb565b5b83810192508235915060208301925067ffffffffffffffff821115611f9357611f92611e08565b5b600182023603841315611fa957611fa8611e0d565b5b509250929050565b600082825260208201905092915050565b6000611fce8385611fb1565b9350611fdb8385846113c8565b611fe48361130b565b840190509392505050565b600082905092915050565b6040820161200b6000830183611f28565b6120186000850182611f3f565b506120266020830183611f28565b6120336020850182611f3f565b50505050565b600060c0830161204c6000840184611de0565b848203600086015261205e8282611ed9565b91505061206e6020840184611de0565b84820360208601526120808282611ed9565b9150506120906040840184611f28565b61209d6040860182611f3f565b506120ab6060840184611f4e565b85830360608701526120be838284611fc2565b925050506120cf6080840184611fef565b6120dc6080860182611ffa565b508091505092915050565b600060208201905081810360008301526121018184612039565b905092915050565b7f4e487b7100000000000000000000000000000000000000000000000000000000600052602260045260246000fd5b6000600282049050600182168061215057607f821691505b6020821081141561216457612163612109565b5b50919050565b600080fd5b600080fd5b600080fd5b6000823560016040038336030381126121955761219461216a565b5b80830191505092915050565b600080833560016020038436030381126121be576121bd61216a565b5b80840192508235915067ffffffffffffffff8211156121e0576121df61216f565b5b6020830192506001820236038313156121fc576121fb612174565b5b509250929050565b600080833560016020038436030381126122215761222061216a565b5b80840192508235915067ffffffffffffffff8211156122435761224261216f565b5b60208301925060018202360383131561225f5761225e612174565b5b509250929050565b60006020828403121561227d5761227c611124565b5b600061228b84828501611b46565b91505092915050565b60006122a08385611d5e565b93506122ad8385846113c8565b6122b68361130b565b840190509392505050565b60006122cd838561149b565b93506122da8385846113c8565b6122e38361130b565b840190509392505050565b6122f781611b1b565b82525050565b6000608082019050818103600083015261231881898b612294565b9050818103602083015261232d818789612294565b905081810360408301526123428185876122c1565b905061235160608301846122ee565b98975050505050505050565b600081905092915050565b6000612374838561235d565b93506123818385846113c8565b82840190509392505050565b600061239a828486612368565b91508190509392505050565b7f436c69656e742077697468207468697320494420616c7265616479206578697360008201527f7473000000000000000000000000000000000000000000000000000000000000602082015250565b6000612402602283611d5e565b915061240d826123a6565b604082019050919050565b60006020820190508181036000830152612431816123f5565b9050919050565b60006080820190508181036000830152612453818a8c612294565b9050818103602083015261246881888a612294565b9050818103604083015261247d818688612294565b90508181036060830152612492818486612294565b90509998505050505050505050565b7f436c69656e742077697468207468697320494420646f65736e2774206578697360008201527f7400000000000000000000000000000000000000000000000000000000000000602082015250565b60006124fd602183611d5e565b9150612508826124a1565b604082019050919050565b6000602082019050818103600083015261252c816124f0565b9050919050565b6000602082019050818103600083015261254e8184866122c1565b90509392505050565b60008115159050919050565b61256c81612557565b811461257757600080fd5b50565b60008151905061258981612563565b92915050565b6000602082840312156125a5576125a4611124565b5b60006125b38482850161257a565b91505092915050565b600060408201905081810360008301526125d7818688612294565b905081810360208301526125ec818486612294565b905095945050505050565b6000606082019050818103600083015261261281888a612294565b90508181036020830152612627818688612294565b9050818103604083015261263c818486612294565b9050979650505050505050565b600060408201905081810360008301526126648185876122c1565b905061267360208301846122ee565b949350505050565b60006020820190508181036000830152612696818486612294565b90509392505050565b7f4f776e61626c653a206e6577206f776e657220697320746865207a65726f206160008201527f6464726573730000000000000000000000000000000000000000000000000000602082015250565b60006126fb602683611d5e565b91506127068261269f565b604082019050919050565b6000602082019050818103600083015261272a816126ee565b9050919050565b7f4f776e61626c653a2063616c6c6572206973206e6f7420746865206f776e6572600082015250565b6000612767602083611d5e565b915061277282612731565b602082019050919050565b600060208201905081810360008301526127968161275a565b905091905056fea26469706673582212209be3c514b1786f150be11dc9d4b22be6b25f3e7677b650442d90856c78062bd564736f6c63430008090033","opcodes":"PUSH1 0x80 PUSH1 0x40 MSTORE CALLVALUE DUP1 ISZERO PUSH3 0x11 JUMPI PUSH1 0x0 DUP1 REVERT JUMPDEST POP PUSH1 0x40 MLOAD PUSH3 0x29EA CODESIZE SUB DUP1 PUSH3 0x29EA DUP4 CODECOPY DUP2 DUP2 ADD PUSH1 0x40 MSTORE DUP2 ADD SWAP1 PUSH3 0x37 SWAP2 SWAP1 PUSH3 0x1D5 JUMP JUMPDEST PUSH3 0x57 PUSH3 0x4B PUSH3 0x9F PUSH1 0x20 SHL PUSH1 0x20 SHR JUMP JUMPDEST PUSH3 0xA7 PUSH1 0x20 SHL PUSH1 0x20 SHR JUMP JUMPDEST DUP1 PUSH1 0x1 PUSH1 0x0 PUSH2 0x100 EXP DUP2 SLOAD DUP2 PUSH20 0xFFFFFFFFFFFFFFFFFFFFFFFFFFFFFFFFFFFFFFFF MUL NOT AND SWAP1 DUP4 PUSH20 0xFFFFFFFFFFFFFFFFFFFFFFFFFFFFFFFFFFFFFFFF AND MUL OR SWAP1 SSTORE POP POP PUSH3 0x207 JUMP JUMPDEST PUSH1 0x0 CALLER SWAP1 POP SWAP1 JUMP JUMPDEST PUSH1 0x0 DUP1 PUSH1 0x0 SWAP1 SLOAD SWAP1 PUSH2 0x100 EXP SWAP1 DIV PUSH20 0xFFFFFFFFFFFFFFFFFFFFFFFFFFFFFFFFFFFFFFFF AND SWAP1 POP DUP2 PUSH1 0x0 DUP1 PUSH2 0x100 EXP DUP2 SLOAD DUP2 PUSH20 0xFFFFFFFFFFFFFFFFFFFFFFFFFFFFFFFFFFFFFFFF MUL NOT AND SWAP1 DUP4 PUSH20 0xFFFFFFFFFFFFFFFFFFFFFFFFFFFFFFFFFFFFFFFF AND MUL OR SWAP1 SSTORE POP DUP2 PUSH20 0xFFFFFFFFFFFFFFFFFFFFFFFFFFFFFFFFFFFFFFFF AND DUP2 PUSH20 0xFFFFFFFFFFFFFFFFFFFFFFFFFFFFFFFFFFFFFFFF AND PUSH32 0x8BE0079C531659141344CD1FD0A4F28419497F9722A3DAAFE3B4186F6B6457E0 PUSH1 0x40 MLOAD PUSH1 0x40 MLOAD DUP1 SWAP2 SUB SWAP1 LOG3 POP POP JUMP JUMPDEST PUSH1 0x0 DUP1 REVERT JUMPDEST PUSH1 0x0 PUSH20 0xFFFFFFFFFFFFFFFFFFFFFFFFFFFFFFFFFFFFFFFF DUP3 AND SWAP1 POP SWAP2 SWAP1 POP JUMP JUMPDEST PUSH1 0x0 PUSH3 0x19D DUP3 PUSH3 0x170 JUMP JUMPDEST SWAP1 POP SWAP2 SWAP1 POP JUMP JUMPDEST PUSH3 0x1AF DUP2 PUSH3 0x190 JUMP JUMPDEST DUP2 EQ PUSH3 0x1BB JUMPI PUSH1 0x0 DUP1 REVERT JUMPDEST POP JUMP JUMPDEST PUSH1 0x0 DUP2 MLOAD SWAP1 POP PUSH3 0x1CF DUP2 PUSH3 0x1A4 JUMP JUMPDEST SWAP3 SWAP2 POP POP JUMP JUMPDEST PUSH1 0x0 PUSH1 0x20 DUP3 DUP5 SUB SLT ISZERO PUSH3 0x1EE JUMPI PUSH3 0x1ED PUSH3 0x16B JUMP JUMPDEST JUMPDEST PUSH1 0x0 PUSH3 0x1FE DUP5 DUP3 DUP6 ADD PUSH3 0x1BE JUMP JUMPDEST SWAP2 POP POP SWAP3 SWAP2 POP POP JUMP JUMPDEST PUSH2 0x27D3 DUP1 PUSH3 0x217 PUSH1 0x0 CODECOPY PUSH1 0x0 RETURN INVALID PUSH1 0x80 PUSH1 0x40 MSTORE CALLVALUE DUP1 ISZERO PUSH2 0x10 JUMPI PUSH1 0x0 DUP1 REVERT JUMPDEST POP PUSH1 0x4 CALLDATASIZE LT PUSH2 0x10B JUMPI PUSH1 0x0 CALLDATALOAD PUSH1 0xE0 SHR DUP1 PUSH4 0x715018A6 GT PUSH2 0xA2 JUMPI DUP1 PUSH4 0xC51289B5 GT PUSH2 0x71 JUMPI DUP1 PUSH4 0xC51289B5 EQ PUSH2 0x267 JUMPI DUP1 PUSH4 0xCA1288ED EQ PUSH2 0x283 JUMPI DUP1 PUSH4 0xDC443100 EQ PUSH2 0x29F JUMPI DUP1 PUSH4 0xE6815C12 EQ PUSH2 0x2BB JUMPI DUP1 PUSH4 0xF2FDE38B EQ PUSH2 0x2D7 JUMPI PUSH2 0x10B JUMP JUMPDEST DUP1 PUSH4 0x715018A6 EQ PUSH2 0x207 JUMPI DUP1 PUSH4 0x8B116848 EQ PUSH2 0x211 JUMPI DUP1 PUSH4 0x8DA5CB5B EQ PUSH2 0x22D JUMPI DUP1 PUSH4 0xA878E1BA EQ PUSH2 0x24B JUMPI PUSH2 0x10B JUMP JUMPDEST DUP1 PUSH4 0x29393014 GT PUSH2 0xDE JUMPI DUP1 PUSH4 0x29393014 EQ PUSH2 0x195 JUMPI DUP1 PUSH4 0x2B7AC3F3 EQ PUSH2 0x1B1 JUMPI DUP1 PUSH4 0x6FBF8079 EQ PUSH2 0x1CF JUMPI DUP1 PUSH4 0x70C5DD53 EQ PUSH2 0x1EB JUMPI PUSH2 0x10B JUMP JUMPDEST DUP1 PUSH4 0x3941EC5 EQ PUSH2 0x110 JUMPI DUP1 PUSH4 0x20BA1E9F EQ PUSH2 0x12C JUMPI DUP1 PUSH4 0x260012E8 EQ PUSH2 0x15D JUMPI DUP1 PUSH4 0x2629636B EQ PUSH2 0x179 JUMPI JUMPDEST PUSH1 0x0 DUP1 REVERT JUMPDEST PUSH2 0x12A PUSH1 0x4 DUP1 CALLDATASIZE SUB DUP2 ADD SWAP1 PUSH2 0x125 SWAP2 SWAP1 PUSH2 0x1246 JUMP JUMPDEST PUSH2 0x2F3 JUMP JUMPDEST STOP JUMPDEST PUSH2 0x146 PUSH1 0x4 DUP1 CALLDATASIZE SUB DUP2 ADD SWAP1 PUSH2 0x141 SWAP2 SWAP1 PUSH2 0x1447 JUMP JUMPDEST PUSH2 0x3AD JUMP JUMPDEST PUSH1 0x40 MLOAD PUSH2 0x154 SWAP3 SWAP2 SWAP1 PUSH2 0x1518 JUMP JUMPDEST PUSH1 0x40 MLOAD DUP1 SWAP2 SUB SWAP1 RETURN JUMPDEST PUSH2 0x177 PUSH1 0x4 DUP1 CALLDATASIZE SUB DUP2 ADD SWAP1 PUSH2 0x172 SWAP2 SWAP1 PUSH2 0x154F JUMP JUMPDEST PUSH2 0x4F7 JUMP JUMPDEST STOP JUMPDEST PUSH2 0x193 PUSH1 0x4 DUP1 CALLDATASIZE SUB DUP2 ADD SWAP1 PUSH2 0x18E SWAP2 SWAP1 PUSH2 0x1630 JUMP JUMPDEST PUSH2 0x609 JUMP JUMPDEST STOP JUMPDEST PUSH2 0x1AF PUSH1 0x4 DUP1 CALLDATASIZE SUB DUP2 ADD SWAP1 PUSH2 0x1AA SWAP2 SWAP1 PUSH2 0x1709 JUMP JUMPDEST PUSH2 0x77D JUMP JUMPDEST STOP JUMPDEST PUSH2 0x1B9 PUSH2 0x7E4 JUMP JUMPDEST PUSH1 0x40 MLOAD PUSH2 0x1C6 SWAP2 SWAP1 PUSH2 0x1864 JUMP JUMPDEST PUSH1 0x40 MLOAD DUP1 SWAP2 SUB SWAP1 RETURN JUMPDEST PUSH2 0x1E9 PUSH1 0x4 DUP1 CALLDATASIZE SUB DUP2 ADD SWAP1 PUSH2 0x1E4 SWAP2 SWAP1 PUSH2 0x187F JUMP JUMPDEST PUSH2 0x80A JUMP JUMPDEST STOP JUMPDEST PUSH2 0x205 PUSH1 0x4 DUP1 CALLDATASIZE SUB DUP2 ADD SWAP1 PUSH2 0x200 SWAP2 SWAP1 PUSH2 0x1900 JUMP JUMPDEST PUSH2 0x9A4 JUMP JUMPDEST STOP JUMPDEST PUSH2 0x20F PUSH2 0xA65 JUMP JUMPDEST STOP JUMPDEST PUSH2 0x22B PUSH1 0x4 DUP1 CALLDATASIZE SUB DUP2 ADD SWAP1 PUSH2 0x226 SWAP2 SWAP1 PUSH2 0x1900 JUMP JUMPDEST PUSH2 0xA79 JUMP JUMPDEST STOP JUMPDEST PUSH2 0x235 PUSH2 0xB3A JUMP JUMPDEST PUSH1 0x40 MLOAD PUSH2 0x242 SWAP2 SWAP1 PUSH2 0x19D2 JUMP JUMPDEST PUSH1 0x40 MLOAD DUP1 SWAP2 SUB SWAP1 RETURN JUMPDEST PUSH2 0x265 PUSH1 0x4 DUP1 CALLDATASIZE SUB DUP2 ADD SWAP1 PUSH2 0x260 SWAP2 SWAP1 PUSH2 0x19ED JUMP JUMPDEST PUSH2 0xB63 JUMP JUMPDEST STOP JUMPDEST PUSH2 0x281 PUSH1 0x4 DUP1 CALLDATASIZE SUB DUP2 ADD SWAP1 PUSH2 0x27C SWAP2 SWAP1 PUSH2 0x1B5B JUMP JUMPDEST PUSH2 0xC2A JUMP JUMPDEST STOP JUMPDEST PUSH2 0x29D PUSH1 0x4 DUP1 CALLDATASIZE SUB DUP2 ADD SWAP1 PUSH2 0x298 SWAP2 SWAP1 PUSH2 0x1BCF JUMP JUMPDEST PUSH2 0xC83 JUMP JUMPDEST STOP JUMPDEST PUSH2 0x2B9 PUSH1 0x4 DUP1 CALLDATASIZE SUB DUP2 ADD SWAP1 PUSH2 0x2B4 SWAP2 SWAP1 PUSH2 0x154F JUMP JUMPDEST PUSH2 0xCE9 JUMP JUMPDEST STOP JUMPDEST PUSH2 0x2D5 PUSH1 0x4 DUP1 CALLDATASIZE SUB DUP2 ADD SWAP1 PUSH2 0x2D0 SWAP2 SWAP1 PUSH2 0x1CB8 JUMP JUMPDEST PUSH2 0xDA1 JUMP JUMPDEST STOP JUMPDEST PUSH2 0x2F1 PUSH1 0x4 DUP1 CALLDATASIZE SUB DUP2 ADD SWAP1 PUSH2 0x2EC SWAP2 SWAP1 PUSH2 0x1D31 JUMP JUMPDEST PUSH2 0xDF5 JUMP JUMPDEST STOP JUMPDEST PUSH2 0x2FC DUP2 PUSH2 0xE79 JUMP JUMPDEST PUSH2 0x33B JUMPI PUSH1 0x40 MLOAD PUSH32 0x8C379A000000000000000000000000000000000000000000000000000000000 DUP2 MSTORE PUSH1 0x4 ADD PUSH2 0x332 SWAP1 PUSH2 0x1DBB JUMP JUMPDEST PUSH1 0x40 MLOAD DUP1 SWAP2 SUB SWAP1 REVERT JUMPDEST DUP5 PUSH20 0xFFFFFFFFFFFFFFFFFFFFFFFFFFFFFFFFFFFFFFFF AND PUSH4 0xF45CF5E4 DUP6 PUSH1 0x40 MLOAD DUP3 PUSH4 0xFFFFFFFF AND PUSH1 0xE0 SHL DUP2 MSTORE PUSH1 0x4 ADD PUSH2 0x374 SWAP2 SWAP1 PUSH2 0x20E7 JUMP JUMPDEST PUSH1 0x0 PUSH1 0x40 MLOAD DUP1 DUP4 SUB DUP2 PUSH1 0x0 DUP8 DUP1 EXTCODESIZE ISZERO DUP1 ISZERO PUSH2 0x38E JUMPI PUSH1 0x0 DUP1 REVERT JUMPDEST POP GAS CALL ISZERO DUP1 ISZERO PUSH2 0x3A2 JUMPI RETURNDATASIZE PUSH1 0x0 DUP1 RETURNDATACOPY RETURNDATASIZE PUSH1 0x0 REVERT JUMPDEST POP POP POP POP POP POP POP POP POP JUMP JUMPDEST PUSH1 0x2 DUP2 DUP1 MLOAD PUSH1 0x20 DUP2 ADD DUP3 ADD DUP1 MLOAD DUP5 DUP3 MSTORE PUSH1 0x20 DUP4 ADD PUSH1 0x20 DUP6 ADD KECCAK256 DUP2 DUP4 MSTORE DUP1 SWAP6 POP POP POP POP POP POP PUSH1 0x0 SWAP2 POP SWAP1 POP DUP1 PUSH1 0x0 ADD DUP1 SLOAD PUSH2 0x3E6 SWAP1 PUSH2 0x2138 JUMP JUMPDEST DUP1 PUSH1 0x1F ADD PUSH1 0x20 DUP1 SWAP2 DIV MUL PUSH1 0x20 ADD PUSH1 0x40 MLOAD SWAP1 DUP2 ADD PUSH1 0x40 MSTORE DUP1 SWAP3 SWAP2 SWAP1 DUP2 DUP2 MSTORE PUSH1 0x20 ADD DUP3 DUP1 SLOAD PUSH2 0x412 SWAP1 PUSH2 0x2138 JUMP JUMPDEST DUP1 ISZERO PUSH2 0x45F JUMPI DUP1 PUSH1 0x1F LT PUSH2 0x434 JUMPI PUSH2 0x100 DUP1 DUP4 SLOAD DIV MUL DUP4 MSTORE SWAP2 PUSH1 0x20 ADD SWAP2 PUSH2 0x45F JUMP JUMPDEST DUP3 ADD SWAP2 SWAP1 PUSH1 0x0 MSTORE PUSH1 0x20 PUSH1 0x0 KECCAK256 SWAP1 JUMPDEST DUP2 SLOAD DUP2 MSTORE SWAP1 PUSH1 0x1 ADD SWAP1 PUSH1 0x20 ADD DUP1 DUP4 GT PUSH2 0x442 JUMPI DUP3 SWAP1 SUB PUSH1 0x1F AND DUP3 ADD SWAP2 JUMPDEST POP POP POP POP POP SWAP1 DUP1 PUSH1 0x1 ADD DUP1 SLOAD PUSH2 0x474 SWAP1 PUSH2 0x2138 JUMP JUMPDEST DUP1 PUSH1 0x1F ADD PUSH1 0x20 DUP1 SWAP2 DIV MUL PUSH1 0x20 ADD PUSH1 0x40 MLOAD SWAP1 DUP2 ADD PUSH1 0x40 MSTORE DUP1 SWAP3 SWAP2 SWAP1 DUP2 DUP2 MSTORE PUSH1 0x20 ADD DUP3 DUP1 SLOAD PUSH2 0x4A0 SWAP1 PUSH2 0x2138 JUMP JUMPDEST DUP1 ISZERO PUSH2 0x4ED JUMPI DUP1 PUSH1 0x1F LT PUSH2 0x4C2 JUMPI PUSH2 0x100 DUP1 DUP4 SLOAD DIV MUL DUP4 MSTORE SWAP2 PUSH1 0x20 ADD SWAP2 PUSH2 0x4ED JUMP JUMPDEST DUP3 ADD SWAP2 SWAP1 PUSH1 0x0 MSTORE PUSH1 0x20 PUSH1 0x0 KECCAK256 SWAP1 JUMPDEST DUP2 SLOAD DUP2 MSTORE SWAP1 PUSH1 0x1 ADD SWAP1 PUSH1 0x20 ADD DUP1 DUP4 GT PUSH2 0x4D0 JUMPI DUP3 SWAP1 SUB PUSH1 0x1F AND DUP3 ADD SWAP2 JUMPDEST POP POP POP POP POP SWAP1 POP DUP3 JUMP JUMPDEST PUSH2 0x500 DUP2 PUSH2 0xE79 JUMP JUMPDEST PUSH2 0x53F JUMPI PUSH1 0x40 MLOAD PUSH32 0x8C379A000000000000000000000000000000000000000000000000000000000 DUP2 MSTORE PUSH1 0x4 ADD PUSH2 0x536 SWAP1 PUSH2 0x1DBB JUMP JUMPDEST PUSH1 0x40 MLOAD DUP1 SWAP2 SUB SWAP1 REVERT JUMPDEST DUP2 DUP1 PUSH1 0x20 ADD SWAP1 PUSH2 0x54F SWAP2 SWAP1 PUSH2 0x2179 JUMP JUMPDEST PUSH1 0x20 ADD CALLDATALOAD DUP3 DUP1 PUSH1 0x0 ADD SWAP1 PUSH2 0x563 SWAP2 SWAP1 PUSH2 0x2179 JUMP JUMPDEST PUSH1 0x20 ADD CALLDATALOAD PUSH32 0x80631928E492258B6A102FC2AB3E0A8DFCB747AB0885C25F9CB7A8D48621036 DUP5 DUP1 PUSH1 0x0 ADD SWAP1 PUSH2 0x598 SWAP2 SWAP1 PUSH2 0x2179 JUMP JUMPDEST DUP1 PUSH1 0x0 ADD SWAP1 PUSH2 0x5A7 SWAP2 SWAP1 PUSH2 0x21A1 JUMP JUMPDEST DUP7 DUP1 PUSH1 0x20 ADD SWAP1 PUSH2 0x5B7 SWAP2 SWAP1 PUSH2 0x2179 JUMP JUMPDEST DUP1 PUSH1 0x0 ADD SWAP1 PUSH2 0x5C6 SWAP2 SWAP1 PUSH2 0x21A1 JUMP JUMPDEST DUP9 DUP1 PUSH1 0x60 ADD SWAP1 PUSH2 0x5D6 SWAP2 SWAP1 PUSH2 0x2204 JUMP JUMPDEST DUP11 PUSH1 0x40 ADD PUSH1 0x20 DUP2 ADD SWAP1 PUSH2 0x5E9 SWAP2 SWAP1 PUSH2 0x2267 JUMP JUMPDEST PUSH1 0x40 MLOAD PUSH2 0x5FC SWAP8 SWAP7 SWAP6 SWAP5 SWAP4 SWAP3 SWAP2 SWAP1 PUSH2 0x22FD JUMP JUMPDEST PUSH1 0x40 MLOAD DUP1 SWAP2 SUB SWAP1 LOG3 POP POP POP JUMP JUMPDEST PUSH1 0x0 PUSH1 0x2 DUP8 DUP8 PUSH1 0x40 MLOAD PUSH2 0x61D SWAP3 SWAP2 SWAP1 PUSH2 0x238D JUMP JUMPDEST SWAP1 DUP2 MSTORE PUSH1 0x20 ADD PUSH1 0x40 MLOAD DUP1 SWAP2 SUB SWAP1 KECCAK256 PUSH1 0x0 ADD DUP1 SLOAD PUSH2 0x639 SWAP1 PUSH2 0x2138 JUMP JUMPDEST SWAP1 POP EQ PUSH2 0x67B JUMPI PUSH1 0x40 MLOAD PUSH32 0x8C379A000000000000000000000000000000000000000000000000000000000 DUP2 MSTORE PUSH1 0x4 ADD PUSH2 0x672 SWAP1 PUSH2 0x2418 JUMP JUMPDEST PUSH1 0x40 MLOAD DUP1 SWAP2 SUB SWAP1 REVERT JUMPDEST PUSH1 0x40 MLOAD DUP1 PUSH1 0x40 ADD PUSH1 0x40 MSTORE DUP1 DUP6 DUP6 DUP1 DUP1 PUSH1 0x1F ADD PUSH1 0x20 DUP1 SWAP2 DIV MUL PUSH1 0x20 ADD PUSH1 0x40 MLOAD SWAP1 DUP2 ADD PUSH1 0x40 MSTORE DUP1 SWAP4 SWAP3 SWAP2 SWAP1 DUP2 DUP2 MSTORE PUSH1 0x20 ADD DUP4 DUP4 DUP1 DUP3 DUP5 CALLDATACOPY PUSH1 0x0 DUP2 DUP5 ADD MSTORE PUSH1 0x1F NOT PUSH1 0x1F DUP3 ADD AND SWAP1 POP DUP1 DUP4 ADD SWAP3 POP POP POP POP POP POP POP DUP2 MSTORE PUSH1 0x20 ADD DUP4 DUP4 DUP1 DUP1 PUSH1 0x1F ADD PUSH1 0x20 DUP1 SWAP2 DIV MUL PUSH1 0x20 ADD PUSH1 0x40 MLOAD SWAP1 DUP2 ADD PUSH1 0x40 MSTORE DUP1 SWAP4 SWAP3 SWAP2 SWAP1 DUP2 DUP2 MSTORE PUSH1 0x20 ADD DUP4 DUP4 DUP1 DUP3 DUP5 CALLDATACOPY PUSH1 0x0 DUP2 DUP5 ADD MSTORE PUSH1 0x1F NOT PUSH1 0x1F DUP3 ADD AND SWAP1 POP DUP1 DUP4 ADD SWAP3 POP POP POP POP POP POP POP DUP2 MSTORE POP PUSH1 0x2 DUP8 DUP8 PUSH1 0x40 MLOAD PUSH2 0x72A SWAP3 SWAP2 SWAP1 PUSH2 0x238D JUMP JUMPDEST SWAP1 DUP2 MSTORE PUSH1 0x20 ADD PUSH1 0x40 MLOAD DUP1 SWAP2 SUB SWAP1 KECCAK256 PUSH1 0x0 DUP3 ADD MLOAD DUP2 PUSH1 0x0 ADD SWAP1 DUP1 MLOAD SWAP1 PUSH1 0x20 ADD SWAP1 PUSH2 0x754 SWAP3 SWAP2 SWAP1 PUSH2 0xFF1 JUMP JUMPDEST POP PUSH1 0x20 DUP3 ADD MLOAD DUP2 PUSH1 0x1 ADD SWAP1 DUP1 MLOAD SWAP1 PUSH1 0x20 ADD SWAP1 PUSH2 0x771 SWAP3 SWAP2 SWAP1 PUSH2 0xFF1 JUMP JUMPDEST POP SWAP1 POP POP POP POP POP POP POP POP JUMP JUMPDEST CALLER PUSH20 0xFFFFFFFFFFFFFFFFFFFFFFFFFFFFFFFFFFFFFFFF AND PUSH32 0x9CE02B1B641BB5E30C72716C9C859589507EA98E427BECC1DA24EF96341CFDC7 DUP11 DUP11 DUP11 DUP11 DUP11 DUP11 DUP10 DUP10 PUSH1 0x40 MLOAD PUSH2 0x7D1 SWAP9 SWAP8 SWAP7 SWAP6 SWAP5 SWAP4 SWAP3 SWAP2 SWAP1 PUSH2 0x2438 JUMP JUMPDEST PUSH1 0x40 MLOAD DUP1 SWAP2 SUB SWAP1 LOG2 POP POP POP POP POP POP POP POP POP JUMP JUMPDEST PUSH1 0x1 PUSH1 0x0 SWAP1 SLOAD SWAP1 PUSH2 0x100 EXP SWAP1 DIV PUSH20 0xFFFFFFFFFFFFFFFFFFFFFFFFFFFFFFFFFFFFFFFF AND DUP2 JUMP JUMPDEST PUSH1 0x0 PUSH1 0x2 DUP6 DUP6 PUSH1 0x40 MLOAD PUSH2 0x81E SWAP3 SWAP2 SWAP1 PUSH2 0x238D JUMP JUMPDEST SWAP1 DUP2 MSTORE PUSH1 0x20 ADD PUSH1 0x40 MLOAD DUP1 SWAP2 SUB SWAP1 KECCAK256 PUSH1 0x0 ADD DUP1 SLOAD PUSH2 0x83A SWAP1 PUSH2 0x2138 JUMP JUMPDEST SWAP1 POP EQ ISZERO PUSH2 0x87D JUMPI PUSH1 0x40 MLOAD PUSH32 0x8C379A000000000000000000000000000000000000000000000000000000000 DUP2 MSTORE PUSH1 0x4 ADD PUSH2 0x874 SWAP1 PUSH2 0x2513 JUMP JUMPDEST PUSH1 0x40 MLOAD DUP1 SWAP2 SUB SWAP1 REVERT JUMPDEST PUSH1 0x1 PUSH1 0x0 SWAP1 SLOAD SWAP1 PUSH2 0x100 EXP SWAP1 DIV PUSH20 0xFFFFFFFFFFFFFFFFFFFFFFFFFFFFFFFFFFFFFFFF AND PUSH20 0xFFFFFFFFFFFFFFFFFFFFFFFFFFFFFFFFFFFFFFFF AND PUSH4 0x8E760AFE DUP4 DUP4 PUSH1 0x40 MLOAD DUP4 PUSH4 0xFFFFFFFF AND PUSH1 0xE0 SHL DUP2 MSTORE PUSH1 0x4 ADD PUSH2 0x8DA SWAP3 SWAP2 SWAP1 PUSH2 0x2533 JUMP JUMPDEST PUSH1 0x20 PUSH1 0x40 MLOAD DUP1 DUP4 SUB DUP2 PUSH1 0x0 DUP8 DUP1 EXTCODESIZE ISZERO DUP1 ISZERO PUSH2 0x8F4 JUMPI PUSH1 0x0 DUP1 REVERT JUMPDEST POP GAS CALL ISZERO DUP1 ISZERO PUSH2 0x908 JUMPI RETURNDATASIZE PUSH1 0x0 DUP1 RETURNDATACOPY RETURNDATASIZE PUSH1 0x0 REVERT JUMPDEST POP POP POP POP PUSH1 0x40 MLOAD RETURNDATASIZE PUSH1 0x1F NOT PUSH1 0x1F DUP3 ADD AND DUP3 ADD DUP1 PUSH1 0x40 MSTORE POP DUP2 ADD SWAP1 PUSH2 0x92C SWAP2 SWAP1 PUSH2 0x258F JUMP JUMPDEST PUSH2 0x96B JUMPI PUSH1 0x40 MLOAD PUSH32 0x8C379A000000000000000000000000000000000000000000000000000000000 DUP2 MSTORE PUSH1 0x4 ADD PUSH2 0x962 SWAP1 PUSH2 0x1DBB JUMP JUMPDEST PUSH1 0x40 MLOAD DUP1 SWAP2 SUB SWAP1 REVERT JUMPDEST DUP2 DUP2 PUSH1 0x2 DUP7 DUP7 PUSH1 0x40 MLOAD PUSH2 0x97F SWAP3 SWAP2 SWAP1 PUSH2 0x238D JUMP JUMPDEST SWAP1 DUP2 MSTORE PUSH1 0x20 ADD PUSH1 0x40 MLOAD DUP1 SWAP2 SUB SWAP1 KECCAK256 PUSH1 0x1 ADD SWAP2 SWAP1 PUSH2 0x99D SWAP3 SWAP2 SWAP1 PUSH2 0x1077 JUMP JUMPDEST POP POP POP POP POP JUMP JUMPDEST PUSH2 0x9AD DUP4 PUSH2 0xE79 JUMP JUMPDEST PUSH2 0x9EC JUMPI PUSH1 0x40 MLOAD PUSH32 0x8C379A000000000000000000000000000000000000000000000000000000000 DUP2 MSTORE PUSH1 0x4 ADD PUSH2 0x9E3 SWAP1 PUSH2 0x1DBB JUMP JUMPDEST PUSH1 0x40 MLOAD DUP1 SWAP2 SUB SWAP1 REVERT JUMPDEST DUP6 PUSH20 0xFFFFFFFFFFFFFFFFFFFFFFFFFFFFFFFFFFFFFFFF AND PUSH4 0xA845081 DUP7 DUP7 DUP6 DUP6 PUSH1 0x40 MLOAD DUP6 PUSH4 0xFFFFFFFF AND PUSH1 0xE0 SHL DUP2 MSTORE PUSH1 0x4 ADD PUSH2 0xA2B SWAP5 SWAP4 SWAP3 SWAP2 SWAP1 PUSH2 0x25BC JUMP JUMPDEST PUSH1 0x0 PUSH1 0x40 MLOAD DUP1 DUP4 SUB DUP2 PUSH1 0x0 DUP8 DUP1 EXTCODESIZE ISZERO DUP1 ISZERO PUSH2 0xA45 JUMPI PUSH1 0x0 DUP1 REVERT JUMPDEST POP GAS CALL ISZERO DUP1 ISZERO PUSH2 0xA59 JUMPI RETURNDATASIZE PUSH1 0x0 DUP1 RETURNDATACOPY RETURNDATASIZE PUSH1 0x0 REVERT JUMPDEST POP POP POP POP POP POP POP POP POP POP JUMP JUMPDEST PUSH2 0xA6D PUSH2 0xEA7 JUMP JUMPDEST PUSH2 0xA77 PUSH1 0x0 PUSH2 0xF25 JUMP JUMPDEST JUMP JUMPDEST PUSH2 0xA82 DUP4 PUSH2 0xE79 JUMP JUMPDEST PUSH2 0xAC1 JUMPI PUSH1 0x40 MLOAD PUSH32 0x8C379A000000000000000000000000000000000000000000000000000000000 DUP2 MSTORE PUSH1 0x4 ADD PUSH2 0xAB8 SWAP1 PUSH2 0x1DBB JUMP JUMPDEST PUSH1 0x40 MLOAD DUP1 SWAP2 SUB SWAP1 REVERT JUMPDEST DUP6 PUSH20 0xFFFFFFFFFFFFFFFFFFFFFFFFFFFFFFFFFFFFFFFF AND PUSH4 0x6AFD6174 DUP7 DUP7 DUP6 DUP6 PUSH1 0x40 MLOAD DUP6 PUSH4 0xFFFFFFFF AND PUSH1 0xE0 SHL DUP2 MSTORE PUSH1 0x4 ADD PUSH2 0xB00 SWAP5 SWAP4 SWAP3 SWAP2 SWAP1 PUSH2 0x25BC JUMP JUMPDEST PUSH1 0x0 PUSH1 0x40 MLOAD DUP1 DUP4 SUB DUP2 PUSH1 0x0 DUP8 DUP1 EXTCODESIZE ISZERO DUP1 ISZERO PUSH2 0xB1A JUMPI PUSH1 0x0 DUP1 REVERT JUMPDEST POP GAS CALL ISZERO DUP1 ISZERO PUSH2 0xB2E JUMPI RETURNDATASIZE PUSH1 0x0 DUP1 RETURNDATACOPY RETURNDATASIZE PUSH1 0x0 REVERT JUMPDEST POP POP POP POP POP POP POP POP POP POP JUMP JUMPDEST PUSH1 0x0 DUP1 PUSH1 0x0 SWAP1 SLOAD SWAP1 PUSH2 0x100 EXP SWAP1 DIV PUSH20 0xFFFFFFFFFFFFFFFFFFFFFFFFFFFFFFFFFFFFFFFF AND SWAP1 POP SWAP1 JUMP JUMPDEST PUSH2 0xB6C DUP4 PUSH2 0xE79 JUMP JUMPDEST PUSH2 0xBAB JUMPI PUSH1 0x40 MLOAD PUSH32 0x8C379A000000000000000000000000000000000000000000000000000000000 DUP2 MSTORE PUSH1 0x4 ADD PUSH2 0xBA2 SWAP1 PUSH2 0x1DBB JUMP JUMPDEST PUSH1 0x40 MLOAD DUP1 SWAP2 SUB SWAP1 REVERT JUMPDEST DUP8 PUSH20 0xFFFFFFFFFFFFFFFFFFFFFFFFFFFFFFFFFFFFFFFF AND PUSH4 0x2719503E DUP9 DUP9 DUP9 DUP9 DUP8 DUP8 PUSH1 0x40 MLOAD DUP8 PUSH4 0xFFFFFFFF AND PUSH1 0xE0 SHL DUP2 MSTORE PUSH1 0x4 ADD PUSH2 0xBEE SWAP7 SWAP6 SWAP5 SWAP4 SWAP3 SWAP2 SWAP1 PUSH2 0x25F7 JUMP JUMPDEST PUSH1 0x0 PUSH1 0x40 MLOAD DUP1 DUP4 SUB DUP2 PUSH1 0x0 DUP8 DUP1 EXTCODESIZE ISZERO DUP1 ISZERO PUSH2 0xC08 JUMPI PUSH1 0x0 DUP1 REVERT JUMPDEST POP GAS CALL ISZERO DUP1 ISZERO PUSH2 0xC1C JUMPI RETURNDATASIZE PUSH1 0x0 DUP1 RETURNDATACOPY RETURNDATASIZE PUSH1 0x0 REVERT JUMPDEST POP POP POP POP POP POP POP POP POP POP POP POP JUMP JUMPDEST DUP4 CALLER PUSH20 0xFFFFFFFFFFFFFFFFFFFFFFFFFFFFFFFFFFFFFFFF AND PUSH32 0x3623DB14EA518E01ACC6D3CB8B5DEA34B853DE4B455571275BACF9225F8A28DD DUP6 DUP6 DUP6 PUSH1 0x40 MLOAD PUSH2 0xC75 SWAP4 SWAP3 SWAP2 SWAP1 PUSH2 0x2649 JUMP JUMPDEST PUSH1 0x40 MLOAD DUP1 SWAP2 SUB SWAP1 LOG3 POP POP POP POP JUMP JUMPDEST CALLER PUSH20 0xFFFFFFFFFFFFFFFFFFFFFFFFFFFFFFFFFFFFFFFF AND PUSH32 0xD38DBE544E1F1277B020A61ACC0DD2CF9DDCF99471A49A288A3ADA57F3206A73 DUP10 DUP10 DUP10 DUP10 DUP10 DUP10 DUP10 DUP10 PUSH1 0x40 MLOAD PUSH2 0xCD7 SWAP9 SWAP8 SWAP7 SWAP6 SWAP5 SWAP4 SWAP3 SWAP2 SWAP1 PUSH2 0x2438 JUMP JUMPDEST PUSH1 0x40 MLOAD DUP1 SWAP2 SUB SWAP1 LOG2 POP POP POP POP POP POP POP POP JUMP JUMPDEST PUSH2 0xCF2 DUP2 PUSH2 0xE79 JUMP JUMPDEST PUSH2 0xD31 JUMPI PUSH1 0x40 MLOAD PUSH32 0x8C379A000000000000000000000000000000000000000000000000000000000 DUP2 MSTORE PUSH1 0x4 ADD PUSH2 0xD28 SWAP1 PUSH2 0x1DBB JUMP JUMPDEST PUSH1 0x40 MLOAD DUP1 SWAP2 SUB SWAP1 REVERT JUMPDEST DUP3 PUSH20 0xFFFFFFFFFFFFFFFFFFFFFFFFFFFFFFFFFFFFFFFF AND PUSH4 0xB33C2577 DUP4 PUSH1 0x40 MLOAD DUP3 PUSH4 0xFFFFFFFF AND PUSH1 0xE0 SHL DUP2 MSTORE PUSH1 0x4 ADD PUSH2 0xD6A SWAP2 SWAP1 PUSH2 0x20E7 JUMP JUMPDEST PUSH1 0x0 PUSH1 0x40 MLOAD DUP1 DUP4 SUB DUP2 PUSH1 0x0 DUP8 DUP1 EXTCODESIZE ISZERO DUP1 ISZERO PUSH2 0xD84 JUMPI PUSH1 0x0 DUP1 REVERT JUMPDEST POP GAS CALL ISZERO DUP1 ISZERO PUSH2 0xD98 JUMPI RETURNDATASIZE PUSH1 0x0 DUP1 RETURNDATACOPY RETURNDATASIZE PUSH1 0x0 REVERT JUMPDEST POP POP POP POP POP POP POP JUMP JUMPDEST CALLER PUSH20 0xFFFFFFFFFFFFFFFFFFFFFFFFFFFFFFFFFFFFFFFF AND PUSH32 0x18280CF62C6D3F3519D7CFF5C5B7E91021DD17A0278BA5668976D82BDC9FAA9E DUP4 DUP4 PUSH1 0x40 MLOAD PUSH2 0xDE9 SWAP3 SWAP2 SWAP1 PUSH2 0x267B JUMP JUMPDEST PUSH1 0x40 MLOAD DUP1 SWAP2 SUB SWAP1 LOG2 POP POP JUMP JUMPDEST PUSH2 0xDFD PUSH2 0xEA7 JUMP JUMPDEST PUSH1 0x0 PUSH20 0xFFFFFFFFFFFFFFFFFFFFFFFFFFFFFFFFFFFFFFFF AND DUP2 PUSH20 0xFFFFFFFFFFFFFFFFFFFFFFFFFFFFFFFFFFFFFFFF AND EQ ISZERO PUSH2 0xE6D JUMPI PUSH1 0x40 MLOAD PUSH32 0x8C379A000000000000000000000000000000000000000000000000000000000 DUP2 MSTORE PUSH1 0x4 ADD PUSH2 0xE64 SWAP1 PUSH2 0x2711 JUMP JUMPDEST PUSH1 0x40 MLOAD DUP1 SWAP2 SUB SWAP1 REVERT JUMPDEST PUSH2 0xE76 DUP2 PUSH2 0xF25 JUMP JUMPDEST POP JUMP JUMPDEST PUSH1 0x0 DUP1 DUP3 DUP1 PUSH1 0x40 ADD SWAP1 PUSH2 0xE8C SWAP2 SWAP1 PUSH2 0x2204 JUMP JUMPDEST SWAP1 POP EQ ISZERO PUSH2 0xE9D JUMPI PUSH1 0x0 SWAP1 POP PUSH2 0xEA2 JUMP JUMPDEST PUSH1 0x1 SWAP1 POP JUMPDEST SWAP2 SWAP1 POP JUMP JUMPDEST PUSH2 0xEAF PUSH2 0xFE9 JUMP JUMPDEST PUSH20 0xFFFFFFFFFFFFFFFFFFFFFFFFFFFFFFFFFFFFFFFF AND PUSH2 0xECD PUSH2 0xB3A JUMP JUMPDEST PUSH20 0xFFFFFFFFFFFFFFFFFFFFFFFFFFFFFFFFFFFFFFFF AND EQ PUSH2 0xF23 JUMPI PUSH1 0x40 MLOAD PUSH32 0x8C379A000000000000000000000000000000000000000000000000000000000 DUP2 MSTORE PUSH1 0x4 ADD PUSH2 0xF1A SWAP1 PUSH2 0x277D JUMP JUMPDEST PUSH1 0x40 MLOAD DUP1 SWAP2 SUB SWAP1 REVERT JUMPDEST JUMP JUMPDEST PUSH1 0x0 DUP1 PUSH1 0x0 SWAP1 SLOAD SWAP1 PUSH2 0x100 EXP SWAP1 DIV PUSH20 0xFFFFFFFFFFFFFFFFFFFFFFFFFFFFFFFFFFFFFFFF AND SWAP1 POP DUP2 PUSH1 0x0 DUP1 PUSH2 0x100 EXP DUP2 SLOAD DUP2 PUSH20 0xFFFFFFFFFFFFFFFFFFFFFFFFFFFFFFFFFFFFFFFF MUL NOT AND SWAP1 DUP4 PUSH20 0xFFFFFFFFFFFFFFFFFFFFFFFFFFFFFFFFFFFFFFFF AND MUL OR SWAP1 SSTORE POP DUP2 PUSH20 0xFFFFFFFFFFFFFFFFFFFFFFFFFFFFFFFFFFFFFFFF AND DUP2 PUSH20 0xFFFFFFFFFFFFFFFFFFFFFFFFFFFFFFFFFFFFFFFF AND PUSH32 0x8BE0079C531659141344CD1FD0A4F28419497F9722A3DAAFE3B4186F6B6457E0 PUSH1 0x40 MLOAD PUSH1 0x40 MLOAD DUP1 SWAP2 SUB SWAP1 LOG3 POP POP JUMP JUMPDEST PUSH1 0x0 CALLER SWAP1 POP SWAP1 JUMP JUMPDEST DUP3 DUP1 SLOAD PUSH2 0xFFD SWAP1 PUSH2 0x2138 JUMP JUMPDEST SWAP1 PUSH1 0x0 MSTORE PUSH1 0x20 PUSH1 0x0 KECCAK256 SWAP1 PUSH1 0x1F ADD PUSH1 0x20 SWAP1 DIV DUP2 ADD SWAP3 DUP3 PUSH2 0x101F JUMPI PUSH1 0x0 DUP6 SSTORE PUSH2 0x1066 JUMP JUMPDEST DUP3 PUSH1 0x1F LT PUSH2 0x1038 JUMPI DUP1 MLOAD PUSH1 0xFF NOT AND DUP4 DUP1 ADD OR DUP6 SSTORE PUSH2 0x1066 JUMP JUMPDEST DUP3 DUP1 ADD PUSH1 0x1 ADD DUP6 SSTORE DUP3 ISZERO PUSH2 0x1066 JUMPI SWAP2 DUP3 ADD JUMPDEST DUP3 DUP2 GT ISZERO PUSH2 0x1065 JUMPI DUP3 MLOAD DUP3 SSTORE SWAP2 PUSH1 0x20 ADD SWAP2 SWAP1 PUSH1 0x1 ADD SWAP1 PUSH2 0x104A JUMP JUMPDEST JUMPDEST POP SWAP1 POP PUSH2 0x1073 SWAP2 SWAP1 PUSH2 0x10FD JUMP JUMPDEST POP SWAP1 JUMP JUMPDEST DUP3 DUP1 SLOAD PUSH2 0x1083 SWAP1 PUSH2 0x2138 JUMP JUMPDEST SWAP1 PUSH1 0x0 MSTORE PUSH1 0x20 PUSH1 0x0 KECCAK256 SWAP1 PUSH1 0x1F ADD PUSH1 0x20 SWAP1 DIV DUP2 ADD SWAP3 DUP3 PUSH2 0x10A5 JUMPI PUSH1 0x0 DUP6 SSTORE PUSH2 0x10EC JUMP JUMPDEST DUP3 PUSH1 0x1F LT PUSH2 0x10BE JUMPI DUP1 CALLDATALOAD PUSH1 0xFF NOT AND DUP4 DUP1 ADD OR DUP6 SSTORE PUSH2 0x10EC JUMP JUMPDEST DUP3 DUP1 ADD PUSH1 0x1 ADD DUP6 SSTORE DUP3 ISZERO PUSH2 0x10EC JUMPI SWAP2 DUP3 ADD JUMPDEST DUP3 DUP2 GT ISZERO PUSH2 0x10EB JUMPI DUP3 CALLDATALOAD DUP3 SSTORE SWAP2 PUSH1 0x20 ADD SWAP2 SWAP1 PUSH1 0x1 ADD SWAP1 PUSH2 0x10D0 JUMP JUMPDEST JUMPDEST POP SWAP1 POP PUSH2 0x10F9 SWAP2 SWAP1 PUSH2 0x10FD JUMP JUMPDEST POP SWAP1 JUMP JUMPDEST JUMPDEST DUP1 DUP3 GT ISZERO PUSH2 0x1116 JUMPI PUSH1 0x0 DUP2 PUSH1 0x0 SWAP1 SSTORE POP PUSH1 0x1 ADD PUSH2 0x10FE JUMP JUMPDEST POP SWAP1 JUMP JUMPDEST PUSH1 0x0 PUSH1 0x40 MLOAD SWAP1 POP SWAP1 JUMP JUMPDEST PUSH1 0x0 DUP1 REVERT JUMPDEST PUSH1 0x0 DUP1 REVERT JUMPDEST PUSH1 0x0 PUSH20 0xFFFFFFFFFFFFFFFFFFFFFFFFFFFFFFFFFFFFFFFF DUP3 AND SWAP1 POP SWAP2 SWAP1 POP JUMP JUMPDEST PUSH1 0x0 PUSH2 0x1159 DUP3 PUSH2 0x112E JUMP JUMPDEST SWAP1 POP SWAP2 SWAP1 POP JUMP JUMPDEST PUSH1 0x0 PUSH2 0x116B DUP3 PUSH2 0x114E JUMP JUMPDEST SWAP1 POP SWAP2 SWAP1 POP JUMP JUMPDEST PUSH2 0x117B DUP2 PUSH2 0x1160 JUMP JUMPDEST DUP2 EQ PUSH2 0x1186 JUMPI PUSH1 0x0 DUP1 REVERT JUMPDEST POP JUMP JUMPDEST PUSH1 0x0 DUP2 CALLDATALOAD SWAP1 POP PUSH2 0x1198 DUP2 PUSH2 0x1172 JUMP JUMPDEST SWAP3 SWAP2 POP POP JUMP JUMPDEST PUSH1 0x0 DUP1 REVERT JUMPDEST PUSH1 0x0 PUSH1 0xC0 DUP3 DUP5 SUB SLT ISZERO PUSH2 0x11B9 JUMPI PUSH2 0x11B8 PUSH2 0x119E JUMP JUMPDEST JUMPDEST DUP2 SWAP1 POP SWAP3 SWAP2 POP POP JUMP JUMPDEST PUSH1 0x0 DUP1 REVERT JUMPDEST PUSH1 0x0 DUP1 REVERT JUMPDEST PUSH1 0x0 DUP1 REVERT JUMPDEST PUSH1 0x0 DUP1 DUP4 PUSH1 0x1F DUP5 ADD SLT PUSH2 0x11E7 JUMPI PUSH2 0x11E6 PUSH2 0x11C2 JUMP JUMPDEST JUMPDEST DUP3 CALLDATALOAD SWAP1 POP PUSH8 0xFFFFFFFFFFFFFFFF DUP2 GT ISZERO PUSH2 0x1204 JUMPI PUSH2 0x1203 PUSH2 0x11C7 JUMP JUMPDEST JUMPDEST PUSH1 0x20 DUP4 ADD SWAP2 POP DUP4 PUSH1 0x1 DUP3 MUL DUP4 ADD GT ISZERO PUSH2 0x1220 JUMPI PUSH2 0x121F PUSH2 0x11CC JUMP JUMPDEST JUMPDEST SWAP3 POP SWAP3 SWAP1 POP JUMP JUMPDEST PUSH1 0x0 PUSH1 0x60 DUP3 DUP5 SUB SLT ISZERO PUSH2 0x123D JUMPI PUSH2 0x123C PUSH2 0x119E JUMP JUMPDEST JUMPDEST DUP2 SWAP1 POP SWAP3 SWAP2 POP POP JUMP JUMPDEST PUSH1 0x0 DUP1 PUSH1 0x0 DUP1 PUSH1 0x0 PUSH1 0x80 DUP7 DUP9 SUB SLT ISZERO PUSH2 0x1262 JUMPI PUSH2 0x1261 PUSH2 0x1124 JUMP JUMPDEST JUMPDEST PUSH1 0x0 PUSH2 0x1270 DUP9 DUP3 DUP10 ADD PUSH2 0x1189 JUMP JUMPDEST SWAP6 POP POP PUSH1 0x20 DUP7 ADD CALLDATALOAD PUSH8 0xFFFFFFFFFFFFFFFF DUP2 GT ISZERO PUSH2 0x1291 JUMPI PUSH2 0x1290 PUSH2 0x1129 JUMP JUMPDEST JUMPDEST PUSH2 0x129D DUP9 DUP3 DUP10 ADD PUSH2 0x11A3 JUMP JUMPDEST SWAP5 POP POP PUSH1 0x40 DUP7 ADD CALLDATALOAD PUSH8 0xFFFFFFFFFFFFFFFF DUP2 GT ISZERO PUSH2 0x12BE JUMPI PUSH2 0x12BD PUSH2 0x1129 JUMP JUMPDEST JUMPDEST PUSH2 0x12CA DUP9 DUP3 DUP10 ADD PUSH2 0x11D1 JUMP JUMPDEST SWAP4 POP SWAP4 POP POP PUSH1 0x60 DUP7 ADD CALLDATALOAD PUSH8 0xFFFFFFFFFFFFFFFF DUP2 GT ISZERO PUSH2 0x12ED JUMPI PUSH2 0x12EC PUSH2 0x1129 JUMP JUMPDEST JUMPDEST PUSH2 0x12F9 DUP9 DUP3 DUP10 ADD PUSH2 0x1227 JUMP JUMPDEST SWAP2 POP POP SWAP3 SWAP6 POP SWAP3 SWAP6 SWAP1 SWAP4 POP JUMP JUMPDEST PUSH1 0x0 DUP1 REVERT JUMPDEST PUSH1 0x0 PUSH1 0x1F NOT PUSH1 0x1F DUP4 ADD AND SWAP1 POP SWAP2 SWAP1 POP JUMP JUMPDEST PUSH32 0x4E487B7100000000000000000000000000000000000000000000000000000000 PUSH1 0x0 MSTORE PUSH1 0x41 PUSH1 0x4 MSTORE PUSH1 0x24 PUSH1 0x0 REVERT JUMPDEST PUSH2 0x1354 DUP3 PUSH2 0x130B JUMP JUMPDEST DUP2 ADD DUP2 DUP2 LT PUSH8 0xFFFFFFFFFFFFFFFF DUP3 GT OR ISZERO PUSH2 0x1373 JUMPI PUSH2 0x1372 PUSH2 0x131C JUMP JUMPDEST JUMPDEST DUP1 PUSH1 0x40 MSTORE POP POP POP JUMP JUMPDEST PUSH1 0x0 PUSH2 0x1386 PUSH2 0x111A JUMP JUMPDEST SWAP1 POP PUSH2 0x1392 DUP3 DUP3 PUSH2 0x134B JUMP JUMPDEST SWAP2 SWAP1 POP JUMP JUMPDEST PUSH1 0x0 PUSH8 0xFFFFFFFFFFFFFFFF DUP3 GT ISZERO PUSH2 0x13B2 JUMPI PUSH2 0x13B1 PUSH2 0x131C JUMP JUMPDEST JUMPDEST PUSH2 0x13BB DUP3 PUSH2 0x130B JUMP JUMPDEST SWAP1 POP PUSH1 0x20 DUP2 ADD SWAP1 POP SWAP2 SWAP1 POP JUMP JUMPDEST DUP3 DUP2 DUP4 CALLDATACOPY PUSH1 0x0 DUP4 DUP4 ADD MSTORE POP POP POP JUMP JUMPDEST PUSH1 0x0 PUSH2 0x13EA PUSH2 0x13E5 DUP5 PUSH2 0x1397 JUMP JUMPDEST PUSH2 0x137C JUMP JUMPDEST SWAP1 POP DUP3 DUP2 MSTORE PUSH1 0x20 DUP2 ADD DUP5 DUP5 DUP5 ADD GT ISZERO PUSH2 0x1406 JUMPI PUSH2 0x1405 PUSH2 0x1306 JUMP JUMPDEST JUMPDEST PUSH2 0x1411 DUP5 DUP3 DUP6 PUSH2 0x13C8 JUMP JUMPDEST POP SWAP4 SWAP3 POP POP POP JUMP JUMPDEST PUSH1 0x0 DUP3 PUSH1 0x1F DUP4 ADD SLT PUSH2 0x142E JUMPI PUSH2 0x142D PUSH2 0x11C2 JUMP JUMPDEST JUMPDEST DUP2 CALLDATALOAD PUSH2 0x143E DUP5 DUP3 PUSH1 0x20 DUP7 ADD PUSH2 0x13D7 JUMP JUMPDEST SWAP2 POP POP SWAP3 SWAP2 POP POP JUMP JUMPDEST PUSH1 0x0 PUSH1 0x20 DUP3 DUP5 SUB SLT ISZERO PUSH2 0x145D JUMPI PUSH2 0x145C PUSH2 0x1124 JUMP JUMPDEST JUMPDEST PUSH1 0x0 DUP3 ADD CALLDATALOAD PUSH8 0xFFFFFFFFFFFFFFFF DUP2 GT ISZERO PUSH2 0x147B JUMPI PUSH2 0x147A PUSH2 0x1129 JUMP JUMPDEST JUMPDEST PUSH2 0x1487 DUP5 DUP3 DUP6 ADD PUSH2 0x1419 JUMP JUMPDEST SWAP2 POP POP SWAP3 SWAP2 POP POP JUMP JUMPDEST PUSH1 0x0 DUP2 MLOAD SWAP1 POP SWAP2 SWAP1 POP JUMP JUMPDEST PUSH1 0x0 DUP3 DUP3 MSTORE PUSH1 0x20 DUP3 ADD SWAP1 POP SWAP3 SWAP2 POP POP JUMP JUMPDEST PUSH1 0x0 JUMPDEST DUP4 DUP2 LT ISZERO PUSH2 0x14CA JUMPI DUP1 DUP3 ADD MLOAD DUP2 DUP5 ADD MSTORE PUSH1 0x20 DUP2 ADD SWAP1 POP PUSH2 0x14AF JUMP JUMPDEST DUP4 DUP2 GT ISZERO PUSH2 0x14D9 JUMPI PUSH1 0x0 DUP5 DUP5 ADD MSTORE JUMPDEST POP POP POP POP JUMP JUMPDEST PUSH1 0x0 PUSH2 0x14EA DUP3 PUSH2 0x1490 JUMP JUMPDEST PUSH2 0x14F4 DUP2 DUP6 PUSH2 0x149B JUMP JUMPDEST SWAP4 POP PUSH2 0x1504 DUP2 DUP6 PUSH1 0x20 DUP7 ADD PUSH2 0x14AC JUMP JUMPDEST PUSH2 0x150D DUP2 PUSH2 0x130B JUMP JUMPDEST DUP5 ADD SWAP2 POP POP SWAP3 SWAP2 POP POP JUMP JUMPDEST PUSH1 0x0 PUSH1 0x40 DUP3 ADD SWAP1 POP DUP2 DUP2 SUB PUSH1 0x0 DUP4 ADD MSTORE PUSH2 0x1532 DUP2 DUP6 PUSH2 0x14DF JUMP JUMPDEST SWAP1 POP DUP2 DUP2 SUB PUSH1 0x20 DUP4 ADD MSTORE PUSH2 0x1546 DUP2 DUP5 PUSH2 0x14DF JUMP JUMPDEST SWAP1 POP SWAP4 SWAP3 POP POP POP JUMP JUMPDEST PUSH1 0x0 DUP1 PUSH1 0x0 PUSH1 0x60 DUP5 DUP7 SUB SLT ISZERO PUSH2 0x1568 JUMPI PUSH2 0x1567 PUSH2 0x1124 JUMP JUMPDEST JUMPDEST PUSH1 0x0 PUSH2 0x1576 DUP7 DUP3 DUP8 ADD PUSH2 0x1189 JUMP JUMPDEST SWAP4 POP POP PUSH1 0x20 DUP5 ADD CALLDATALOAD PUSH8 0xFFFFFFFFFFFFFFFF DUP2 GT ISZERO PUSH2 0x1597 JUMPI PUSH2 0x1596 PUSH2 0x1129 JUMP JUMPDEST JUMPDEST PUSH2 0x15A3 DUP7 DUP3 DUP8 ADD PUSH2 0x11A3 JUMP JUMPDEST SWAP3 POP POP PUSH1 0x40 DUP5 ADD CALLDATALOAD PUSH8 0xFFFFFFFFFFFFFFFF DUP2 GT ISZERO PUSH2 0x15C4 JUMPI PUSH2 0x15C3 PUSH2 0x1129 JUMP JUMPDEST JUMPDEST PUSH2 0x15D0 DUP7 DUP3 DUP8 ADD PUSH2 0x1227 JUMP JUMPDEST SWAP2 POP POP SWAP3 POP SWAP3 POP SWAP3 JUMP JUMPDEST PUSH1 0x0 DUP1 DUP4 PUSH1 0x1F DUP5 ADD SLT PUSH2 0x15F0 JUMPI PUSH2 0x15EF PUSH2 0x11C2 JUMP JUMPDEST JUMPDEST DUP3 CALLDATALOAD SWAP1 POP PUSH8 0xFFFFFFFFFFFFFFFF DUP2 GT ISZERO PUSH2 0x160D JUMPI PUSH2 0x160C PUSH2 0x11C7 JUMP JUMPDEST JUMPDEST PUSH1 0x20 DUP4 ADD SWAP2 POP DUP4 PUSH1 0x1 DUP3 MUL DUP4 ADD GT ISZERO PUSH2 0x1629 JUMPI PUSH2 0x1628 PUSH2 0x11CC JUMP JUMPDEST JUMPDEST SWAP3 POP SWAP3 SWAP1 POP JUMP JUMPDEST PUSH1 0x0 DUP1 PUSH1 0x0 DUP1 PUSH1 0x0 DUP1 PUSH1 0x60 DUP8 DUP10 SUB SLT ISZERO PUSH2 0x164D JUMPI PUSH2 0x164C PUSH2 0x1124 JUMP JUMPDEST JUMPDEST PUSH1 0x0 DUP8 ADD CALLDATALOAD PUSH8 0xFFFFFFFFFFFFFFFF DUP2 GT ISZERO PUSH2 0x166B JUMPI PUSH2 0x166A PUSH2 0x1129 JUMP JUMPDEST JUMPDEST PUSH2 0x1677 DUP10 DUP3 DUP11 ADD PUSH2 0x15DA JUMP JUMPDEST SWAP7 POP SWAP7 POP POP PUSH1 0x20 DUP8 ADD CALLDATALOAD PUSH8 0xFFFFFFFFFFFFFFFF DUP2 GT ISZERO PUSH2 0x169A JUMPI PUSH2 0x1699 PUSH2 0x1129 JUMP JUMPDEST JUMPDEST PUSH2 0x16A6 DUP10 DUP3 DUP11 ADD PUSH2 0x11D1 JUMP JUMPDEST SWAP5 POP SWAP5 POP POP PUSH1 0x40 DUP8 ADD CALLDATALOAD PUSH8 0xFFFFFFFFFFFFFFFF DUP2 GT ISZERO PUSH2 0x16C9 JUMPI PUSH2 0x16C8 PUSH2 0x1129 JUMP JUMPDEST JUMPDEST PUSH2 0x16D5 DUP10 DUP3 DUP11 ADD PUSH2 0x11D1 JUMP JUMPDEST SWAP3 POP SWAP3 POP POP SWAP3 SWAP6 POP SWAP3 SWAP6 POP SWAP3 SWAP6 JUMP JUMPDEST PUSH1 0x2 DUP2 LT PUSH2 0x16F1 JUMPI PUSH1 0x0 DUP1 REVERT JUMPDEST POP JUMP JUMPDEST PUSH1 0x0 DUP2 CALLDATALOAD SWAP1 POP PUSH2 0x1703 DUP2 PUSH2 0x16E4 JUMP JUMPDEST SWAP3 SWAP2 POP POP JUMP JUMPDEST PUSH1 0x0 DUP1 PUSH1 0x0 DUP1 PUSH1 0x0 DUP1 PUSH1 0x0 DUP1 PUSH1 0x0 PUSH1 0xA0 DUP11 DUP13 SUB SLT ISZERO PUSH2 0x172B JUMPI PUSH2 0x172A PUSH2 0x1124 JUMP JUMPDEST JUMPDEST PUSH1 0x0 DUP11 ADD CALLDATALOAD PUSH8 0xFFFFFFFFFFFFFFFF DUP2 GT ISZERO PUSH2 0x1749 JUMPI PUSH2 0x1748 PUSH2 0x1129 JUMP JUMPDEST JUMPDEST PUSH2 0x1755 DUP13 DUP3 DUP14 ADD PUSH2 0x15DA JUMP JUMPDEST SWAP10 POP SWAP10 POP POP PUSH1 0x20 DUP11 ADD CALLDATALOAD PUSH8 0xFFFFFFFFFFFFFFFF DUP2 GT ISZERO PUSH2 0x1778 JUMPI PUSH2 0x1777 PUSH2 0x1129 JUMP JUMPDEST JUMPDEST PUSH2 0x1784 DUP13 DUP3 DUP14 ADD PUSH2 0x15DA JUMP JUMPDEST SWAP8 POP SWAP8 POP POP PUSH1 0x40 DUP11 ADD CALLDATALOAD PUSH8 0xFFFFFFFFFFFFFFFF DUP2 GT ISZERO PUSH2 0x17A7 JUMPI PUSH2 0x17A6 PUSH2 0x1129 JUMP JUMPDEST JUMPDEST PUSH2 0x17B3 DUP13 DUP3 DUP14 ADD PUSH2 0x15DA JUMP JUMPDEST SWAP6 POP SWAP6 POP POP PUSH1 0x60 PUSH2 0x17C6 DUP13 DUP3 DUP14 ADD PUSH2 0x16F4 JUMP JUMPDEST SWAP4 POP POP PUSH1 0x80 DUP11 ADD CALLDATALOAD PUSH8 0xFFFFFFFFFFFFFFFF DUP2 GT ISZERO PUSH2 0x17E7 JUMPI PUSH2 0x17E6 PUSH2 0x1129 JUMP JUMPDEST JUMPDEST PUSH2 0x17F3 DUP13 DUP3 DUP14 ADD PUSH2 0x15DA JUMP JUMPDEST SWAP3 POP SWAP3 POP POP SWAP3 SWAP6 SWAP9 POP SWAP3 SWAP6 SWAP9 POP SWAP3 SWAP6 SWAP9 JUMP JUMPDEST PUSH1 0x0 DUP2 SWAP1 POP SWAP2 SWAP1 POP JUMP JUMPDEST PUSH1 0x0 PUSH2 0x182A PUSH2 0x1825 PUSH2 0x1820 DUP5 PUSH2 0x112E JUMP JUMPDEST PUSH2 0x1805 JUMP JUMPDEST PUSH2 0x112E JUMP JUMPDEST SWAP1 POP SWAP2 SWAP1 POP JUMP JUMPDEST PUSH1 0x0 PUSH2 0x183C DUP3 PUSH2 0x180F JUMP JUMPDEST SWAP1 POP SWAP2 SWAP1 POP JUMP JUMPDEST PUSH1 0x0 PUSH2 0x184E DUP3 PUSH2 0x1831 JUMP JUMPDEST SWAP1 POP SWAP2 SWAP1 POP JUMP JUMPDEST PUSH2 0x185E DUP2 PUSH2 0x1843 JUMP JUMPDEST DUP3 MSTORE POP POP JUMP JUMPDEST PUSH1 0x0 PUSH1 0x20 DUP3 ADD SWAP1 POP PUSH2 0x1879 PUSH1 0x0 DUP4 ADD DUP5 PUSH2 0x1855 JUMP JUMPDEST SWAP3 SWAP2 POP POP JUMP JUMPDEST PUSH1 0x0 DUP1 PUSH1 0x0 DUP1 PUSH1 0x40 DUP6 DUP8 SUB SLT ISZERO PUSH2 0x1899 JUMPI PUSH2 0x1898 PUSH2 0x1124 JUMP JUMPDEST JUMPDEST PUSH1 0x0 DUP6 ADD CALLDATALOAD PUSH8 0xFFFFFFFFFFFFFFFF DUP2 GT ISZERO PUSH2 0x18B7 JUMPI PUSH2 0x18B6 PUSH2 0x1129 JUMP JUMPDEST JUMPDEST PUSH2 0x18C3 DUP8 DUP3 DUP9 ADD PUSH2 0x15DA JUMP JUMPDEST SWAP5 POP SWAP5 POP POP PUSH1 0x20 DUP6 ADD CALLDATALOAD PUSH8 0xFFFFFFFFFFFFFFFF DUP2 GT ISZERO PUSH2 0x18E6 JUMPI PUSH2 0x18E5 PUSH2 0x1129 JUMP JUMPDEST JUMPDEST PUSH2 0x18F2 DUP8 DUP3 DUP9 ADD PUSH2 0x11D1 JUMP JUMPDEST SWAP3 POP SWAP3 POP POP SWAP3 SWAP6 SWAP2 SWAP5 POP SWAP3 POP JUMP JUMPDEST PUSH1 0x0 DUP1 PUSH1 0x0 DUP1 PUSH1 0x0 DUP1 PUSH1 0x80 DUP8 DUP10 SUB SLT ISZERO PUSH2 0x191D JUMPI PUSH2 0x191C PUSH2 0x1124 JUMP JUMPDEST JUMPDEST PUSH1 0x0 PUSH2 0x192B DUP10 DUP3 DUP11 ADD PUSH2 0x1189 JUMP JUMPDEST SWAP7 POP POP PUSH1 0x20 DUP8 ADD CALLDATALOAD PUSH8 0xFFFFFFFFFFFFFFFF DUP2 GT ISZERO PUSH2 0x194C JUMPI PUSH2 0x194B PUSH2 0x1129 JUMP JUMPDEST JUMPDEST PUSH2 0x1958 DUP10 DUP3 DUP11 ADD PUSH2 0x15DA JUMP JUMPDEST SWAP6 POP SWAP6 POP POP PUSH1 0x40 DUP8 ADD CALLDATALOAD PUSH8 0xFFFFFFFFFFFFFFFF DUP2 GT ISZERO PUSH2 0x197B JUMPI PUSH2 0x197A PUSH2 0x1129 JUMP JUMPDEST JUMPDEST PUSH2 0x1987 DUP10 DUP3 DUP11 ADD PUSH2 0x1227 JUMP JUMPDEST SWAP4 POP POP PUSH1 0x60 DUP8 ADD CALLDATALOAD PUSH8 0xFFFFFFFFFFFFFFFF DUP2 GT ISZERO PUSH2 0x19A8 JUMPI PUSH2 0x19A7 PUSH2 0x1129 JUMP JUMPDEST JUMPDEST PUSH2 0x19B4 DUP10 DUP3 DUP11 ADD PUSH2 0x15DA JUMP JUMPDEST SWAP3 POP SWAP3 POP POP SWAP3 SWAP6 POP SWAP3 SWAP6 POP SWAP3 SWAP6 JUMP JUMPDEST PUSH2 0x19CC DUP2 PUSH2 0x114E JUMP JUMPDEST DUP3 MSTORE POP POP JUMP JUMPDEST PUSH1 0x0 PUSH1 0x20 DUP3 ADD SWAP1 POP PUSH2 0x19E7 PUSH1 0x0 DUP4 ADD DUP5 PUSH2 0x19C3 JUMP JUMPDEST SWAP3 SWAP2 POP POP JUMP JUMPDEST PUSH1 0x0 DUP1 PUSH1 0x0 DUP1 PUSH1 0x0 DUP1 PUSH1 0x0 DUP1 PUSH1 0xA0 DUP10 DUP12 SUB SLT ISZERO PUSH2 0x1A0D JUMPI PUSH2 0x1A0C PUSH2 0x1124 JUMP JUMPDEST JUMPDEST PUSH1 0x0 PUSH2 0x1A1B DUP12 DUP3 DUP13 ADD PUSH2 0x1189 JUMP JUMPDEST SWAP9 POP POP PUSH1 0x20 DUP10 ADD CALLDATALOAD PUSH8 0xFFFFFFFFFFFFFFFF DUP2 GT ISZERO PUSH2 0x1A3C JUMPI PUSH2 0x1A3B PUSH2 0x1129 JUMP JUMPDEST JUMPDEST PUSH2 0x1A48 DUP12 DUP3 DUP13 ADD PUSH2 0x15DA JUMP JUMPDEST SWAP8 POP SWAP8 POP POP PUSH1 0x40 DUP10 ADD CALLDATALOAD PUSH8 0xFFFFFFFFFFFFFFFF DUP2 GT ISZERO PUSH2 0x1A6B JUMPI PUSH2 0x1A6A PUSH2 0x1129 JUMP JUMPDEST JUMPDEST PUSH2 0x1A77 DUP12 DUP3 DUP13 ADD PUSH2 0x15DA JUMP JUMPDEST SWAP6 POP SWAP6 POP POP PUSH1 0x60 DUP10 ADD CALLDATALOAD PUSH8 0xFFFFFFFFFFFFFFFF DUP2 GT ISZERO PUSH2 0x1A9A JUMPI PUSH2 0x1A99 PUSH2 0x1129 JUMP JUMPDEST JUMPDEST PUSH2 0x1AA6 DUP12 DUP3 DUP13 ADD PUSH2 0x1227 JUMP JUMPDEST SWAP4 POP POP PUSH1 0x80 DUP10 ADD CALLDATALOAD PUSH8 0xFFFFFFFFFFFFFFFF DUP2 GT ISZERO PUSH2 0x1AC7 JUMPI PUSH2 0x1AC6 PUSH2 0x1129 JUMP JUMPDEST JUMPDEST PUSH2 0x1AD3 DUP12 DUP3 DUP13 ADD PUSH2 0x15DA JUMP JUMPDEST SWAP3 POP SWAP3 POP POP SWAP3 SWAP6 SWAP9 POP SWAP3 SWAP6 SWAP9 SWAP1 SWAP4 SWAP7 POP JUMP JUMPDEST PUSH1 0x0 DUP2 SWAP1 POP SWAP2 SWAP1 POP JUMP JUMPDEST PUSH2 0x1AF8 DUP2 PUSH2 0x1AE5 JUMP JUMPDEST DUP2 EQ PUSH2 0x1B03 JUMPI PUSH1 0x0 DUP1 REVERT JUMPDEST POP JUMP JUMPDEST PUSH1 0x0 DUP2 CALLDATALOAD SWAP1 POP PUSH2 0x1B15 DUP2 PUSH2 0x1AEF JUMP JUMPDEST SWAP3 SWAP2 POP POP JUMP JUMPDEST PUSH1 0x0 PUSH8 0xFFFFFFFFFFFFFFFF DUP3 AND SWAP1 POP SWAP2 SWAP1 POP JUMP JUMPDEST PUSH2 0x1B38 DUP2 PUSH2 0x1B1B JUMP JUMPDEST DUP2 EQ PUSH2 0x1B43 JUMPI PUSH1 0x0 DUP1 REVERT JUMPDEST POP JUMP JUMPDEST PUSH1 0x0 DUP2 CALLDATALOAD SWAP1 POP PUSH2 0x1B55 DUP2 PUSH2 0x1B2F JUMP JUMPDEST SWAP3 SWAP2 POP POP JUMP JUMPDEST PUSH1 0x0 DUP1 PUSH1 0x0 DUP1 PUSH1 0x60 DUP6 DUP8 SUB SLT ISZERO PUSH2 0x1B75 JUMPI PUSH2 0x1B74 PUSH2 0x1124 JUMP JUMPDEST JUMPDEST PUSH1 0x0 PUSH2 0x1B83 DUP8 DUP3 DUP9 ADD PUSH2 0x1B06 JUMP JUMPDEST SWAP5 POP POP PUSH1 0x20 DUP6 ADD CALLDATALOAD PUSH8 0xFFFFFFFFFFFFFFFF DUP2 GT ISZERO PUSH2 0x1BA4 JUMPI PUSH2 0x1BA3 PUSH2 0x1129 JUMP JUMPDEST JUMPDEST PUSH2 0x1BB0 DUP8 DUP3 DUP9 ADD PUSH2 0x11D1 JUMP JUMPDEST SWAP4 POP SWAP4 POP POP PUSH1 0x40 PUSH2 0x1BC3 DUP8 DUP3 DUP9 ADD PUSH2 0x1B46 JUMP JUMPDEST SWAP2 POP POP SWAP3 SWAP6 SWAP2 SWAP5 POP SWAP3 POP JUMP JUMPDEST PUSH1 0x0 DUP1 PUSH1 0x0 DUP1 PUSH1 0x0 DUP1 PUSH1 0x0 DUP1 PUSH1 0x80 DUP10 DUP12 SUB SLT ISZERO PUSH2 0x1BEF JUMPI PUSH2 0x1BEE PUSH2 0x1124 JUMP JUMPDEST JUMPDEST PUSH1 0x0 DUP10 ADD CALLDATALOAD PUSH8 0xFFFFFFFFFFFFFFFF DUP2 GT ISZERO PUSH2 0x1C0D JUMPI PUSH2 0x1C0C PUSH2 0x1129 JUMP JUMPDEST JUMPDEST PUSH2 0x1C19 DUP12 DUP3 DUP13 ADD PUSH2 0x15DA JUMP JUMPDEST SWAP9 POP SWAP9 POP POP PUSH1 0x20 DUP10 ADD CALLDATALOAD PUSH8 0xFFFFFFFFFFFFFFFF DUP2 GT ISZERO PUSH2 0x1C3C JUMPI PUSH2 0x1C3B PUSH2 0x1129 JUMP JUMPDEST JUMPDEST PUSH2 0x1C48 DUP12 DUP3 DUP13 ADD PUSH2 0x15DA JUMP JUMPDEST SWAP7 POP SWAP7 POP POP PUSH1 0x40 DUP10 ADD CALLDATALOAD PUSH8 0xFFFFFFFFFFFFFFFF DUP2 GT ISZERO PUSH2 0x1C6B JUMPI PUSH2 0x1C6A PUSH2 0x1129 JUMP JUMPDEST JUMPDEST PUSH2 0x1C77 DUP12 DUP3 DUP13 ADD PUSH2 0x15DA JUMP JUMPDEST SWAP5 POP SWAP5 POP POP PUSH1 0x60 DUP10 ADD CALLDATALOAD PUSH8 0xFFFFFFFFFFFFFFFF DUP2 GT ISZERO PUSH2 0x1C9A JUMPI PUSH2 0x1C99 PUSH2 0x1129 JUMP JUMPDEST JUMPDEST PUSH2 0x1CA6 DUP12 DUP3 DUP13 ADD PUSH2 0x15DA JUMP JUMPDEST SWAP3 POP SWAP3 POP POP SWAP3 SWAP6 SWAP9 POP SWAP3 SWAP6 SWAP9 SWAP1 SWAP4 SWAP7 POP JUMP JUMPDEST PUSH1 0x0 DUP1 PUSH1 0x20 DUP4 DUP6 SUB SLT ISZERO PUSH2 0x1CCF JUMPI PUSH2 0x1CCE PUSH2 0x1124 JUMP JUMPDEST JUMPDEST PUSH1 0x0 DUP4 ADD CALLDATALOAD PUSH8 0xFFFFFFFFFFFFFFFF DUP2 GT ISZERO PUSH2 0x1CED JUMPI PUSH2 0x1CEC PUSH2 0x1129 JUMP JUMPDEST JUMPDEST PUSH2 0x1CF9 DUP6 DUP3 DUP7 ADD PUSH2 0x15DA JUMP JUMPDEST SWAP3 POP SWAP3 POP POP SWAP3 POP SWAP3 SWAP1 POP JUMP JUMPDEST PUSH2 0x1D0E DUP2 PUSH2 0x114E JUMP JUMPDEST DUP2 EQ PUSH2 0x1D19 JUMPI PUSH1 0x0 DUP1 REVERT JUMPDEST POP JUMP JUMPDEST PUSH1 0x0 DUP2 CALLDATALOAD SWAP1 POP PUSH2 0x1D2B DUP2 PUSH2 0x1D05 JUMP JUMPDEST SWAP3 SWAP2 POP POP JUMP JUMPDEST PUSH1 0x0 PUSH1 0x20 DUP3 DUP5 SUB SLT ISZERO PUSH2 0x1D47 JUMPI PUSH2 0x1D46 PUSH2 0x1124 JUMP JUMPDEST JUMPDEST PUSH1 0x0 PUSH2 0x1D55 DUP5 DUP3 DUP6 ADD PUSH2 0x1D1C JUMP JUMPDEST SWAP2 POP POP SWAP3 SWAP2 POP POP JUMP JUMPDEST PUSH1 0x0 DUP3 DUP3 MSTORE PUSH1 0x20 DUP3 ADD SWAP1 POP SWAP3 SWAP2 POP POP JUMP JUMPDEST PUSH32 0x50726F6F6620766572696669636174696F6E206661696C656400000000000000 PUSH1 0x0 DUP3 ADD MSTORE POP JUMP JUMPDEST PUSH1 0x0 PUSH2 0x1DA5 PUSH1 0x19 DUP4 PUSH2 0x1D5E JUMP JUMPDEST SWAP2 POP PUSH2 0x1DB0 DUP3 PUSH2 0x1D6F JUMP JUMPDEST PUSH1 0x20 DUP3 ADD SWAP1 POP SWAP2 SWAP1 POP JUMP JUMPDEST PUSH1 0x0 PUSH1 0x20 DUP3 ADD SWAP1 POP DUP2 DUP2 SUB PUSH1 0x0 DUP4 ADD MSTORE PUSH2 0x1DD4 DUP2 PUSH2 0x1D98 JUMP JUMPDEST SWAP1 POP SWAP2 SWAP1 POP JUMP JUMPDEST PUSH1 0x0 DUP1 REVERT JUMPDEST PUSH1 0x0 DUP3 CALLDATALOAD PUSH1 0x1 PUSH1 0x40 SUB DUP4 CALLDATASIZE SUB SUB DUP2 SLT PUSH2 0x1DFC JUMPI PUSH2 0x1DFB PUSH2 0x1DDB JUMP JUMPDEST JUMPDEST DUP3 DUP2 ADD SWAP2 POP POP SWAP3 SWAP2 POP POP JUMP JUMPDEST PUSH1 0x0 DUP1 REVERT JUMPDEST PUSH1 0x0 DUP1 REVERT JUMPDEST PUSH1 0x0 DUP1 DUP4 CALLDATALOAD PUSH1 0x1 PUSH1 0x20 SUB DUP5 CALLDATASIZE SUB SUB DUP2 SLT PUSH2 0x1E2F JUMPI PUSH2 0x1E2E PUSH2 0x1DDB JUMP JUMPDEST JUMPDEST DUP4 DUP2 ADD SWAP3 POP DUP3 CALLDATALOAD SWAP2 POP PUSH1 0x20 DUP4 ADD SWAP3 POP PUSH8 0xFFFFFFFFFFFFFFFF DUP3 GT ISZERO PUSH2 0x1E57 JUMPI PUSH2 0x1E56 PUSH2 0x1E08 JUMP JUMPDEST JUMPDEST PUSH1 0x1 DUP3 MUL CALLDATASIZE SUB DUP5 SGT ISZERO PUSH2 0x1E6D JUMPI PUSH2 0x1E6C PUSH2 0x1E0D JUMP JUMPDEST JUMPDEST POP SWAP3 POP SWAP3 SWAP1 POP JUMP JUMPDEST PUSH1 0x0 DUP3 DUP3 MSTORE PUSH1 0x20 DUP3 ADD SWAP1 POP SWAP3 SWAP2 POP POP JUMP JUMPDEST PUSH1 0x0 PUSH2 0x1E92 DUP4 DUP6 PUSH2 0x1E75 JUMP JUMPDEST SWAP4 POP PUSH2 0x1E9F DUP4 DUP6 DUP5 PUSH2 0x13C8 JUMP JUMPDEST PUSH2 0x1EA8 DUP4 PUSH2 0x130B JUMP JUMPDEST DUP5 ADD SWAP1 POP SWAP4 SWAP3 POP POP POP JUMP JUMPDEST PUSH1 0x0 PUSH2 0x1EC2 PUSH1 0x20 DUP5 ADD DUP5 PUSH2 0x1B06 JUMP JUMPDEST SWAP1 POP SWAP3 SWAP2 POP POP JUMP JUMPDEST PUSH2 0x1ED3 DUP2 PUSH2 0x1AE5 JUMP JUMPDEST DUP3 MSTORE POP POP JUMP JUMPDEST PUSH1 0x0 PUSH1 0x40 DUP4 ADD PUSH2 0x1EEC PUSH1 0x0 DUP5 ADD DUP5 PUSH2 0x1E12 JUMP JUMPDEST DUP6 DUP4 SUB PUSH1 0x0 DUP8 ADD MSTORE PUSH2 0x1EFF DUP4 DUP3 DUP5 PUSH2 0x1E86 JUMP JUMPDEST SWAP3 POP POP POP PUSH2 0x1F10 PUSH1 0x20 DUP5 ADD DUP5 PUSH2 0x1EB3 JUMP JUMPDEST PUSH2 0x1F1D PUSH1 0x20 DUP7 ADD DUP3 PUSH2 0x1ECA JUMP JUMPDEST POP DUP1 SWAP2 POP POP SWAP3 SWAP2 POP POP JUMP JUMPDEST PUSH1 0x0 PUSH2 0x1F37 PUSH1 0x20 DUP5 ADD DUP5 PUSH2 0x1B46 JUMP JUMPDEST SWAP1 POP SWAP3 SWAP2 POP POP JUMP JUMPDEST PUSH2 0x1F48 DUP2 PUSH2 0x1B1B JUMP JUMPDEST DUP3 MSTORE POP POP JUMP JUMPDEST PUSH1 0x0 DUP1 DUP4 CALLDATALOAD PUSH1 0x1 PUSH1 0x20 SUB DUP5 CALLDATASIZE SUB SUB DUP2 SLT PUSH2 0x1F6B JUMPI PUSH2 0x1F6A PUSH2 0x1DDB JUMP JUMPDEST JUMPDEST DUP4 DUP2 ADD SWAP3 POP DUP3 CALLDATALOAD SWAP2 POP PUSH1 0x20 DUP4 ADD SWAP3 POP PUSH8 0xFFFFFFFFFFFFFFFF DUP3 GT ISZERO PUSH2 0x1F93 JUMPI PUSH2 0x1F92 PUSH2 0x1E08 JUMP JUMPDEST JUMPDEST PUSH1 0x1 DUP3 MUL CALLDATASIZE SUB DUP5 SGT ISZERO PUSH2 0x1FA9 JUMPI PUSH2 0x1FA8 PUSH2 0x1E0D JUMP JUMPDEST JUMPDEST POP SWAP3 POP SWAP3 SWAP1 POP JUMP JUMPDEST PUSH1 0x0 DUP3 DUP3 MSTORE PUSH1 0x20 DUP3 ADD SWAP1 POP SWAP3 SWAP2 POP POP JUMP JUMPDEST PUSH1 0x0 PUSH2 0x1FCE DUP4 DUP6 PUSH2 0x1FB1 JUMP JUMPDEST SWAP4 POP PUSH2 0x1FDB DUP4 DUP6 DUP5 PUSH2 0x13C8 JUMP JUMPDEST PUSH2 0x1FE4 DUP4 PUSH2 0x130B JUMP JUMPDEST DUP5 ADD SWAP1 POP SWAP4 SWAP3 POP POP POP JUMP JUMPDEST PUSH1 0x0 DUP3 SWAP1 POP SWAP3 SWAP2 POP POP JUMP JUMPDEST PUSH1 0x40 DUP3 ADD PUSH2 0x200B PUSH1 0x0 DUP4 ADD DUP4 PUSH2 0x1F28 JUMP JUMPDEST PUSH2 0x2018 PUSH1 0x0 DUP6 ADD DUP3 PUSH2 0x1F3F JUMP JUMPDEST POP PUSH2 0x2026 PUSH1 0x20 DUP4 ADD DUP4 PUSH2 0x1F28 JUMP JUMPDEST PUSH2 0x2033 PUSH1 0x20 DUP6 ADD DUP3 PUSH2 0x1F3F JUMP JUMPDEST POP POP POP POP JUMP JUMPDEST PUSH1 0x0 PUSH1 0xC0 DUP4 ADD PUSH2 0x204C PUSH1 0x0 DUP5 ADD DUP5 PUSH2 0x1DE0 JUMP JUMPDEST DUP5 DUP3 SUB PUSH1 0x0 DUP7 ADD MSTORE PUSH2 0x205E DUP3 DUP3 PUSH2 0x1ED9 JUMP JUMPDEST SWAP2 POP POP PUSH2 0x206E PUSH1 0x20 DUP5 ADD DUP5 PUSH2 0x1DE0 JUMP JUMPDEST DUP5 DUP3 SUB PUSH1 0x20 DUP7 ADD MSTORE PUSH2 0x2080 DUP3 DUP3 PUSH2 0x1ED9 JUMP JUMPDEST SWAP2 POP POP PUSH2 0x2090 PUSH1 0x40 DUP5 ADD DUP5 PUSH2 0x1F28 JUMP JUMPDEST PUSH2 0x209D PUSH1 0x40 DUP7 ADD DUP3 PUSH2 0x1F3F JUMP JUMPDEST POP PUSH2 0x20AB PUSH1 0x60 DUP5 ADD DUP5 PUSH2 0x1F4E JUMP JUMPDEST DUP6 DUP4 SUB PUSH1 0x60 DUP8 ADD MSTORE PUSH2 0x20BE DUP4 DUP3 DUP5 PUSH2 0x1FC2 JUMP JUMPDEST SWAP3 POP POP POP PUSH2 0x20CF PUSH1 0x80 DUP5 ADD DUP5 PUSH2 0x1FEF JUMP JUMPDEST PUSH2 0x20DC PUSH1 0x80 DUP7 ADD DUP3 PUSH2 0x1FFA JUMP JUMPDEST POP DUP1 SWAP2 POP POP SWAP3 SWAP2 POP POP JUMP JUMPDEST PUSH1 0x0 PUSH1 0x20 DUP3 ADD SWAP1 POP DUP2 DUP2 SUB PUSH1 0x0 DUP4 ADD MSTORE PUSH2 0x2101 DUP2 DUP5 PUSH2 0x2039 JUMP JUMPDEST SWAP1 POP SWAP3 SWAP2 POP POP JUMP JUMPDEST PUSH32 0x4E487B7100000000000000000000000000000000000000000000000000000000 PUSH1 0x0 MSTORE PUSH1 0x22 PUSH1 0x4 MSTORE PUSH1 0x24 PUSH1 0x0 REVERT JUMPDEST PUSH1 0x0 PUSH1 0x2 DUP3 DIV SWAP1 POP PUSH1 0x1 DUP3 AND DUP1 PUSH2 0x2150 JUMPI PUSH1 0x7F DUP3 AND SWAP2 POP JUMPDEST PUSH1 0x20 DUP3 LT DUP2 EQ ISZERO PUSH2 0x2164 JUMPI PUSH2 0x2163 PUSH2 0x2109 JUMP JUMPDEST JUMPDEST POP SWAP2 SWAP1 POP JUMP JUMPDEST PUSH1 0x0 DUP1 REVERT JUMPDEST PUSH1 0x0 DUP1 REVERT JUMPDEST PUSH1 0x0 DUP1 REVERT JUMPDEST PUSH1 0x0 DUP3 CALLDATALOAD PUSH1 0x1 PUSH1 0x40 SUB DUP4 CALLDATASIZE SUB SUB DUP2 SLT PUSH2 0x2195 JUMPI PUSH2 0x2194 PUSH2 0x216A JUMP JUMPDEST JUMPDEST DUP1 DUP4 ADD SWAP2 POP POP SWAP3 SWAP2 POP POP JUMP JUMPDEST PUSH1 0x0 DUP1 DUP4 CALLDATALOAD PUSH1 0x1 PUSH1 0x20 SUB DUP5 CALLDATASIZE SUB SUB DUP2 SLT PUSH2 0x21BE JUMPI PUSH2 0x21BD PUSH2 0x216A JUMP JUMPDEST JUMPDEST DUP1 DUP5 ADD SWAP3 POP DUP3 CALLDATALOAD SWAP2 POP PUSH8 0xFFFFFFFFFFFFFFFF DUP3 GT ISZERO PUSH2 0x21E0 JUMPI PUSH2 0x21DF PUSH2 0x216F JUMP JUMPDEST JUMPDEST PUSH1 0x20 DUP4 ADD SWAP3 POP PUSH1 0x1 DUP3 MUL CALLDATASIZE SUB DUP4 SGT ISZERO PUSH2 0x21FC JUMPI PUSH2 0x21FB PUSH2 0x2174 JUMP JUMPDEST JUMPDEST POP SWAP3 POP SWAP3 SWAP1 POP JUMP JUMPDEST PUSH1 0x0 DUP1 DUP4 CALLDATALOAD PUSH1 0x1 PUSH1 0x20 SUB DUP5 CALLDATASIZE SUB SUB DUP2 SLT PUSH2 0x2221 JUMPI PUSH2 0x2220 PUSH2 0x216A JUMP JUMPDEST JUMPDEST DUP1 DUP5 ADD SWAP3 POP DUP3 CALLDATALOAD SWAP2 POP PUSH8 0xFFFFFFFFFFFFFFFF DUP3 GT ISZERO PUSH2 0x2243 JUMPI PUSH2 0x2242 PUSH2 0x216F JUMP JUMPDEST JUMPDEST PUSH1 0x20 DUP4 ADD SWAP3 POP PUSH1 0x1 DUP3 MUL CALLDATASIZE SUB DUP4 SGT ISZERO PUSH2 0x225F JUMPI PUSH2 0x225E PUSH2 0x2174 JUMP JUMPDEST JUMPDEST POP SWAP3 POP SWAP3 SWAP1 POP JUMP JUMPDEST PUSH1 0x0 PUSH1 0x20 DUP3 DUP5 SUB SLT ISZERO PUSH2 0x227D JUMPI PUSH2 0x227C PUSH2 0x1124 JUMP JUMPDEST JUMPDEST PUSH1 0x0 PUSH2 0x228B DUP5 DUP3 DUP6 ADD PUSH2 0x1B46 JUMP JUMPDEST SWAP2 POP POP SWAP3 SWAP2 POP POP JUMP JUMPDEST PUSH1 0x0 PUSH2 0x22A0 DUP4 DUP6 PUSH2 0x1D5E JUMP JUMPDEST SWAP4 POP PUSH2 0x22AD DUP4 DUP6 DUP5 PUSH2 0x13C8 JUMP JUMPDEST PUSH2 0x22B6 DUP4 PUSH2 0x130B JUMP JUMPDEST DUP5 ADD SWAP1 POP SWAP4 SWAP3 POP POP POP JUMP JUMPDEST PUSH1 0x0 PUSH2 0x22CD DUP4 DUP6 PUSH2 0x149B JUMP JUMPDEST SWAP4 POP PUSH2 0x22DA DUP4 DUP6 DUP5 PUSH2 0x13C8 JUMP JUMPDEST PUSH2 0x22E3 DUP4 PUSH2 0x130B JUMP JUMPDEST DUP5 ADD SWAP1 POP SWAP4 SWAP3 POP POP POP JUMP JUMPDEST PUSH2 0x22F7 DUP2 PUSH2 0x1B1B JUMP JUMPDEST DUP3 MSTORE POP POP JUMP JUMPDEST PUSH1 0x0 PUSH1 0x80 DUP3 ADD SWAP1 POP DUP2 DUP2 SUB PUSH1 0x0 DUP4 ADD MSTORE PUSH2 0x2318 DUP2 DUP10 DUP12 PUSH2 0x2294 JUMP JUMPDEST SWAP1 POP DUP2 DUP2 SUB PUSH1 0x20 DUP4 ADD MSTORE PUSH2 0x232D DUP2 DUP8 DUP10 PUSH2 0x2294 JUMP JUMPDEST SWAP1 POP DUP2 DUP2 SUB PUSH1 0x40 DUP4 ADD MSTORE PUSH2 0x2342 DUP2 DUP6 DUP8 PUSH2 0x22C1 JUMP JUMPDEST SWAP1 POP PUSH2 0x2351 PUSH1 0x60 DUP4 ADD DUP5 PUSH2 0x22EE JUMP JUMPDEST SWAP9 SWAP8 POP POP POP POP POP POP POP POP JUMP JUMPDEST PUSH1 0x0 DUP2 SWAP1 POP SWAP3 SWAP2 POP POP JUMP JUMPDEST PUSH1 0x0 PUSH2 0x2374 DUP4 DUP6 PUSH2 0x235D JUMP JUMPDEST SWAP4 POP PUSH2 0x2381 DUP4 DUP6 DUP5 PUSH2 0x13C8 JUMP JUMPDEST DUP3 DUP5 ADD SWAP1 POP SWAP4 SWAP3 POP POP POP JUMP JUMPDEST PUSH1 0x0 PUSH2 0x239A DUP3 DUP5 DUP7 PUSH2 0x2368 JUMP JUMPDEST SWAP2 POP DUP2 SWAP1 POP SWAP4 SWAP3 POP POP POP JUMP JUMPDEST PUSH32 0x436C69656E742077697468207468697320494420616C72656164792065786973 PUSH1 0x0 DUP3 ADD MSTORE PUSH32 0x7473000000000000000000000000000000000000000000000000000000000000 PUSH1 0x20 DUP3 ADD MSTORE POP JUMP JUMPDEST PUSH1 0x0 PUSH2 0x2402 PUSH1 0x22 DUP4 PUSH2 0x1D5E JUMP JUMPDEST SWAP2 POP PUSH2 0x240D DUP3 PUSH2 0x23A6 JUMP JUMPDEST PUSH1 0x40 DUP3 ADD SWAP1 POP SWAP2 SWAP1 POP JUMP JUMPDEST PUSH1 0x0 PUSH1 0x20 DUP3 ADD SWAP1 POP DUP2 DUP2 SUB PUSH1 0x0 DUP4 ADD MSTORE PUSH2 0x2431 DUP2 PUSH2 0x23F5 JUMP JUMPDEST SWAP1 POP SWAP2 SWAP1 POP JUMP JUMPDEST PUSH1 0x0 PUSH1 0x80 DUP3 ADD SWAP1 POP DUP2 DUP2 SUB PUSH1 0x0 DUP4 ADD MSTORE PUSH2 0x2453 DUP2 DUP11 DUP13 PUSH2 0x2294 JUMP JUMPDEST SWAP1 POP DUP2 DUP2 SUB PUSH1 0x20 DUP4 ADD MSTORE PUSH2 0x2468 DUP2 DUP9 DUP11 PUSH2 0x2294 JUMP JUMPDEST SWAP1 POP DUP2 DUP2 SUB PUSH1 0x40 DUP4 ADD MSTORE PUSH2 0x247D DUP2 DUP7 DUP9 PUSH2 0x2294 JUMP JUMPDEST SWAP1 POP DUP2 DUP2 SUB PUSH1 0x60 DUP4 ADD MSTORE PUSH2 0x2492 DUP2 DUP5 DUP7 PUSH2 0x2294 JUMP JUMPDEST SWAP1 POP SWAP10 SWAP9 POP POP POP POP POP POP POP POP POP JUMP JUMPDEST PUSH32 0x436C69656E742077697468207468697320494420646F65736E27742065786973 PUSH1 0x0 DUP3 ADD MSTORE PUSH32 0x7400000000000000000000000000000000000000000000000000000000000000 PUSH1 0x20 DUP3 ADD MSTORE POP JUMP JUMPDEST PUSH1 0x0 PUSH2 0x24FD PUSH1 0x21 DUP4 PUSH2 0x1D5E JUMP JUMPDEST SWAP2 POP PUSH2 0x2508 DUP3 PUSH2 0x24A1 JUMP JUMPDEST PUSH1 0x40 DUP3 ADD SWAP1 POP SWAP2 SWAP1 POP JUMP JUMPDEST PUSH1 0x0 PUSH1 0x20 DUP3 ADD SWAP1 POP DUP2 DUP2 SUB PUSH1 0x0 DUP4 ADD MSTORE PUSH2 0x252C DUP2 PUSH2 0x24F0 JUMP JUMPDEST SWAP1 POP SWAP2 SWAP1 POP JUMP JUMPDEST PUSH1 0x0 PUSH1 0x20 DUP3 ADD SWAP1 POP DUP2 DUP2 SUB PUSH1 0x0 DUP4 ADD MSTORE PUSH2 0x254E DUP2 DUP5 DUP7 PUSH2 0x22C1 JUMP JUMPDEST SWAP1 POP SWAP4 SWAP3 POP POP POP JUMP JUMPDEST PUSH1 0x0 DUP2 ISZERO ISZERO SWAP1 POP SWAP2 SWAP1 POP JUMP JUMPDEST PUSH2 0x256C DUP2 PUSH2 0x2557 JUMP JUMPDEST DUP2 EQ PUSH2 0x2577 JUMPI PUSH1 0x0 DUP1 REVERT JUMPDEST POP JUMP JUMPDEST PUSH1 0x0 DUP2 MLOAD SWAP1 POP PUSH2 0x2589 DUP2 PUSH2 0x2563 JUMP JUMPDEST SWAP3 SWAP2 POP POP JUMP JUMPDEST PUSH1 0x0 PUSH1 0x20 DUP3 DUP5 SUB SLT ISZERO PUSH2 0x25A5 JUMPI PUSH2 0x25A4 PUSH2 0x1124 JUMP JUMPDEST JUMPDEST PUSH1 0x0 PUSH2 0x25B3 DUP5 DUP3 DUP6 ADD PUSH2 0x257A JUMP JUMPDEST SWAP2 POP POP SWAP3 SWAP2 POP POP JUMP JUMPDEST PUSH1 0x0 PUSH1 0x40 DUP3 ADD SWAP1 POP DUP2 DUP2 SUB PUSH1 0x0 DUP4 ADD MSTORE PUSH2 0x25D7 DUP2 DUP7 DUP9 PUSH2 0x2294 JUMP JUMPDEST SWAP1 POP DUP2 DUP2 SUB PUSH1 0x20 DUP4 ADD MSTORE PUSH2 0x25EC DUP2 DUP5 DUP7 PUSH2 0x2294 JUMP JUMPDEST SWAP1 POP SWAP6 SWAP5 POP POP POP POP POP JUMP JUMPDEST PUSH1 0x0 PUSH1 0x60 DUP3 ADD SWAP1 POP DUP2 DUP2 SUB PUSH1 0x0 DUP4 ADD MSTORE PUSH2 0x2612 DUP2 DUP9 DUP11 PUSH2 0x2294 JUMP JUMPDEST SWAP1 POP DUP2 DUP2 SUB PUSH1 0x20 DUP4 ADD MSTORE PUSH2 0x2627 DUP2 DUP7 DUP9 PUSH2 0x2294 JUMP JUMPDEST SWAP1 POP DUP2 DUP2 SUB PUSH1 0x40 DUP4 ADD MSTORE PUSH2 0x263C DUP2 DUP5 DUP7 PUSH2 0x2294 JUMP JUMPDEST SWAP1 POP SWAP8 SWAP7 POP POP POP POP POP POP POP JUMP JUMPDEST PUSH1 0x0 PUSH1 0x40 DUP3 ADD SWAP1 POP DUP2 DUP2 SUB PUSH1 0x0 DUP4 ADD MSTORE PUSH2 0x2664 DUP2 DUP6 DUP8 PUSH2 0x22C1 JUMP JUMPDEST SWAP1 POP PUSH2 0x2673 PUSH1 0x20 DUP4 ADD DUP5 PUSH2 0x22EE JUMP JUMPDEST SWAP5 SWAP4 POP POP POP POP JUMP JUMPDEST PUSH1 0x0 PUSH1 0x20 DUP3 ADD SWAP1 POP DUP2 DUP2 SUB PUSH1 0x0 DUP4 ADD MSTORE PUSH2 0x2696 DUP2 DUP5 DUP7 PUSH2 0x2294 JUMP JUMPDEST SWAP1 POP SWAP4 SWAP3 POP POP POP JUMP JUMPDEST PUSH32 0x4F776E61626C653A206E6577206F776E657220697320746865207A65726F2061 PUSH1 0x0 DUP3 ADD MSTORE PUSH32 0x6464726573730000000000000000000000000000000000000000000000000000 PUSH1 0x20 DUP3 ADD MSTORE POP JUMP JUMPDEST PUSH1 0x0 PUSH2 0x26FB PUSH1 0x26 DUP4 PUSH2 0x1D5E JUMP JUMPDEST SWAP2 POP PUSH2 0x2706 DUP3 PUSH2 0x269F JUMP JUMPDEST PUSH1 0x40 DUP3 ADD SWAP1 POP SWAP2 SWAP1 POP JUMP JUMPDEST PUSH1 0x0 PUSH1 0x20 DUP3 ADD SWAP1 POP DUP2 DUP2 SUB PUSH1 0x0 DUP4 ADD MSTORE PUSH2 0x272A DUP2 PUSH2 0x26EE JUMP JUMPDEST SWAP1 POP SWAP2 SWAP1 POP JUMP JUMPDEST PUSH32 0x4F776E61626C653A2063616C6C6572206973206E6F7420746865206F776E6572 PUSH1 0x0 DUP3 ADD MSTORE POP JUMP JUMPDEST PUSH1 0x0 PUSH2 0x2767 PUSH1 0x20 DUP4 PUSH2 0x1D5E JUMP JUMPDEST SWAP2 POP PUSH2 0x2772 DUP3 PUSH2 0x2731 JUMP JUMPDEST PUSH1 0x20 DUP3 ADD SWAP1 POP SWAP2 SWAP1 POP JUMP JUMPDEST PUSH1 0x0 PUSH1 0x20 DUP3 ADD SWAP1 POP DUP2 DUP2 SUB PUSH1 0x0 DUP4 ADD MSTORE PUSH2 0x2796 DUP2 PUSH2 0x275A JUMP JUMPDEST SWAP1 POP SWAP2 SWAP1 POP JUMP INVALID LOG2 PUSH5 0x6970667358 0x22 SLT KECCAK256 SWAP12 0xE3 0xC5 EQ 0xB1 PUSH25 0x6F150BE11DC9D4B22BE6B25F3E7677B650442D90856C78062B 0xD5 PUSH5 0x736F6C6343 STOP ADDMOD MULMOD STOP CALLER "},"methodIdentifiers":{"clients(string)":"20ba1e9f","closeIbcChannel(string)":"e6815c12","connectIbcChannel(string,string,string,string)":"ca1288ed","createClient(string,bytes,bytes)":"2629636b","onAcknowledgementPacket(address,((string,bytes32),(string,bytes32),uint64,bytes,(uint64,uint64)),bytes,(bytes,bytes,bytes))":"03941ec5","onCloseIbcChannel(address,string,(bytes,bytes,bytes),string)":"8b116848","onConnectIbcChannel(address,string,(bytes,bytes,bytes),string)":"70c5dd53","onOpenIbcChannel(address,string,string,(bytes,bytes,bytes),string)":"a878e1ba","onRecvPacket(address,((string,bytes32),(string,bytes32),uint64,bytes,(uint64,uint64)),(bytes,bytes,bytes))":"260012e8","onTimeoutPacket(address,((string,bytes32),(string,bytes32),uint64,bytes,(uint64,uint64)),(bytes,bytes,bytes))":"dc443100","openIbcChannel(string,string,string,uint8,string)":"29393014","owner()":"8da5cb5b","renounceOwnership()":"715018a6","sendIbcPacket(bytes32,bytes,uint64)":"c51289b5","transferOwnership(address)":"f2fde38b","updateClient(string,bytes)":"6fbf8079","verifier()":"2b7ac3f3"}}}}}